{
  "_format": "hh-sol-artifact-1",
  "contractName": "CallReceiverMockTrustingForwarder",
  "sourceName": "contracts/mocks/CallReceiverMock.sol",
  "abi": [
    {
      "inputs": [
        {
          "internalType": "address",
          "name": "trustedForwarder_",
          "type": "address"
        }
      ],
      "stateMutability": "nonpayable",
      "type": "constructor"
    },
    {
      "anonymous": false,
      "inputs": [],
      "name": "MockFunctionCalled",
      "type": "event"
    },
    {
      "anonymous": false,
      "inputs": [
        {
          "indexed": false,
          "internalType": "uint256",
          "name": "a",
          "type": "uint256"
        },
        {
          "indexed": false,
          "internalType": "uint256",
          "name": "b",
          "type": "uint256"
        }
      ],
      "name": "MockFunctionCalledWithArgs",
      "type": "event"
    },
    {
      "inputs": [
        {
          "internalType": "address",
          "name": "forwarder",
          "type": "address"
        }
      ],
      "name": "isTrustedForwarder",
      "outputs": [
        {
          "internalType": "bool",
          "name": "",
          "type": "bool"
        }
      ],
      "stateMutability": "view",
      "type": "function"
    },
    {
      "inputs": [],
      "name": "mockFunction",
      "outputs": [
        {
          "internalType": "string",
          "name": "",
          "type": "string"
        }
      ],
      "stateMutability": "payable",
      "type": "function"
    },
    {
      "inputs": [],
      "name": "mockFunctionEmptyReturn",
      "outputs": [],
      "stateMutability": "payable",
      "type": "function"
    },
    {
      "inputs": [],
      "name": "mockFunctionNonPayable",
      "outputs": [
        {
          "internalType": "string",
          "name": "",
          "type": "string"
        }
      ],
      "stateMutability": "nonpayable",
      "type": "function"
    },
    {
      "inputs": [],
      "name": "mockFunctionOutOfGas",
      "outputs": [],
      "stateMutability": "payable",
      "type": "function"
    },
    {
      "inputs": [],
      "name": "mockFunctionRevertsNoReason",
      "outputs": [],
      "stateMutability": "payable",
      "type": "function"
    },
    {
      "inputs": [],
      "name": "mockFunctionRevertsReason",
      "outputs": [],
      "stateMutability": "payable",
      "type": "function"
    },
    {
      "inputs": [],
      "name": "mockFunctionThrows",
      "outputs": [],
      "stateMutability": "payable",
      "type": "function"
    },
    {
      "inputs": [
        {
          "internalType": "uint256",
          "name": "a",
          "type": "uint256"
        },
        {
          "internalType": "uint256",
          "name": "b",
          "type": "uint256"
        }
      ],
      "name": "mockFunctionWithArgs",
      "outputs": [
        {
          "internalType": "string",
          "name": "",
          "type": "string"
        }
      ],
      "stateMutability": "payable",
      "type": "function"
    },
    {
      "inputs": [
        {
          "internalType": "bytes32",
          "name": "slot",
          "type": "bytes32"
        },
        {
          "internalType": "bytes32",
          "name": "value",
          "type": "bytes32"
        }
      ],
      "name": "mockFunctionWritesStorage",
      "outputs": [
        {
          "internalType": "string",
          "name": "",
          "type": "string"
        }
      ],
      "stateMutability": "nonpayable",
      "type": "function"
    },
    {
      "inputs": [],
      "name": "mockStaticFunction",
      "outputs": [
        {
          "internalType": "string",
          "name": "",
          "type": "string"
        }
      ],
      "stateMutability": "pure",
      "type": "function"
    }
  ],
  "bytecode": "0x608060405234801561000f575f80fd5b506040516104b73803806104b783398101604081905261002e91610053565b600180546001600160a01b0319166001600160a01b0392909216919091179055610080565b5f60208284031215610063575f80fd5b81516001600160a01b0381168114610079575f80fd5b9392505050565b61042a8061008d5f395ff3fe60806040526004361061009a575f3560e01c8063425397a211610062578063425397a2146100e9578063572b6c0514610125578063a793ab4714610163578063c292d81c1461016b578063c8fc769614610173578063fdb27325146101a1575f80fd5b80630c0349681461009e5780630f63e42c146100a85780632c81d638146100d25780633bcfaa14146100d95780633e6fec04146100e1575b5f80fd5b6100a66101b4565b005b3480156100b3575f80fd5b506100bc610200565b6040516100c99190610323565b60405180910390f35b6100a65f80fd5b6100a661024c565b6100bc610200565b3480156100f4575f80fd5b506100bc61010336600461036f565b90556040805180820190915260068152650c1e0c4c8ccd60d21b602082015290565b348015610130575f80fd5b5061015361013f36600461038f565b6001546001600160a01b0391821691161490565b60405190151581526020016100c9565b6100a6610256565b6100a6610299565b34801561017e575f80fd5b506040805180820190915260068152650c1e0c4c8ccd60d21b60208201526100bc565b6100bc6101af36600461036f565b6102c3565b60405162461bcd60e51b815260206004820152601b60248201527f43616c6c52656365697665724d6f636b3a20726576657274696e670000000000604482015260640160405180910390fd5b6040516060907f52c66ed6ec9ca819cba26fe2b2650059270d8981b295af300187a964f54a8c23905f90a1506040805180820190915260068152650c1e0c4c8ccd60d21b602082015290565b6102546103bc565b565b5f5b5f80546001810182559080527f290decd9548b62a8d60345a988386fc84ba6bc95484008f6362f93160ef3e56301819055610292816103d0565b9050610258565b6040517f52c66ed6ec9ca819cba26fe2b2650059270d8981b295af300187a964f54a8c23905f90a1565b60408051838152602081018390526060917f2b42b3c9af4187c86225f201736204c7597312c830cb5c2537dff6ef24b946ae910160405180910390a1506040805180820190915260068152650c1e0c4c8ccd60d21b602082015292915050565b5f602080835283518060208501525f5b8181101561034f57858101830151858201604001528201610333565b505f604082860101526040601f19601f8301168501019250505092915050565b5f8060408385031215610380575f80fd5b50508035926020909101359150565b5f6020828403121561039f575f80fd5b81356001600160a01b03811681146103b5575f80fd5b9392505050565b634e487b7160e01b5f52600160045260245ffd5b5f600182016103ed57634e487b7160e01b5f52601160045260245ffd5b506001019056fea264697066735822122095ca633f283b440c33da88a49fed8d37cedd9f238b3a358e15a760384bcbbabb64736f6c63430008180033",
  "linkReferences": {},
  "deployedLinkReferences": {}
}