{
  "_format": "hh-sol-artifact-1",
  "contractName": "$ERC1967Utils",
  "sourceName": "contracts-exposed/proxy/ERC1967/ERC1967Utils.sol",
  "abi": [
    {
      "inputs": [],
      "stateMutability": "payable",
      "type": "constructor"
    },
    {
      "inputs": [
        {
          "internalType": "address",
          "name": "target",
          "type": "address"
        }
      ],
      "name": "AddressEmptyCode",
      "type": "error"
    },
    {
      "inputs": [
        {
          "internalType": "address",
          "name": "admin",
          "type": "address"
        }
      ],
      "name": "ERC1967InvalidAdmin",
      "type": "error"
    },
    {
      "inputs": [
        {
          "internalType": "address",
          "name": "beacon",
          "type": "address"
        }
      ],
      "name": "ERC1967InvalidBeacon",
      "type": "error"
    },
    {
      "inputs": [
        {
          "internalType": "address",
          "name": "implementation",
          "type": "address"
        }
      ],
      "name": "ERC1967InvalidImplementation",
      "type": "error"
    },
    {
      "inputs": [],
      "name": "ERC1967NonPayable",
      "type": "error"
    },
    {
      "inputs": [],
      "name": "FailedCall",
      "type": "error"
    },
    {
      "anonymous": false,
      "inputs": [
        {
          "indexed": false,
          "internalType": "address",
          "name": "previousAdmin",
          "type": "address"
        },
        {
          "indexed": false,
          "internalType": "address",
          "name": "newAdmin",
          "type": "address"
        }
      ],
      "name": "AdminChanged",
      "type": "event"
    },
    {
      "anonymous": false,
      "inputs": [
        {
          "indexed": true,
          "internalType": "address",
          "name": "beacon",
          "type": "address"
        }
      ],
      "name": "BeaconUpgraded",
      "type": "event"
    },
    {
      "anonymous": false,
      "inputs": [
        {
          "indexed": true,
          "internalType": "address",
          "name": "implementation",
          "type": "address"
        }
      ],
      "name": "Upgraded",
      "type": "event"
    },
    {
      "inputs": [],
      "name": "$ADMIN_SLOT",
      "outputs": [
        {
          "internalType": "bytes32",
          "name": "",
          "type": "bytes32"
        }
      ],
      "stateMutability": "pure",
      "type": "function"
    },
    {
      "inputs": [],
      "name": "$BEACON_SLOT",
      "outputs": [
        {
          "internalType": "bytes32",
          "name": "",
          "type": "bytes32"
        }
      ],
      "stateMutability": "pure",
      "type": "function"
    },
    {
      "inputs": [],
      "name": "$IMPLEMENTATION_SLOT",
      "outputs": [
        {
          "internalType": "bytes32",
          "name": "",
          "type": "bytes32"
        }
      ],
      "stateMutability": "pure",
      "type": "function"
    },
    {
      "inputs": [
        {
          "internalType": "address",
          "name": "newAdmin",
          "type": "address"
        }
      ],
      "name": "$changeAdmin",
      "outputs": [],
      "stateMutability": "payable",
      "type": "function"
    },
    {
      "inputs": [],
      "name": "$getAdmin",
      "outputs": [
        {
          "internalType": "address",
          "name": "ret0",
          "type": "address"
        }
      ],
      "stateMutability": "view",
      "type": "function"
    },
    {
      "inputs": [],
      "name": "$getBeacon",
      "outputs": [
        {
          "internalType": "address",
          "name": "ret0",
          "type": "address"
        }
      ],
      "stateMutability": "view",
      "type": "function"
    },
    {
      "inputs": [],
      "name": "$getImplementation",
      "outputs": [
        {
          "internalType": "address",
          "name": "ret0",
          "type": "address"
        }
      ],
      "stateMutability": "view",
      "type": "function"
    },
    {
      "inputs": [
        {
          "internalType": "address",
          "name": "newBeacon",
          "type": "address"
        },
        {
          "internalType": "bytes",
          "name": "data",
          "type": "bytes"
        }
      ],
      "name": "$upgradeBeaconToAndCall",
      "outputs": [],
      "stateMutability": "payable",
      "type": "function"
    },
    {
      "inputs": [
        {
          "internalType": "address",
          "name": "newImplementation",
          "type": "address"
        },
        {
          "internalType": "bytes",
          "name": "data",
          "type": "bytes"
        }
      ],
      "name": "$upgradeToAndCall",
      "outputs": [],
      "stateMutability": "payable",
      "type": "function"
    },
    {
      "inputs": [],
      "name": "__hh_exposed_bytecode_marker",
      "outputs": [
        {
          "internalType": "bytes32",
          "name": "",
          "type": "bytes32"
        }
      ],
      "stateMutability": "view",
      "type": "function"
    },
    {
      "stateMutability": "payable",
      "type": "receive"
    }
  ],
  "bytecode": "0x608060405261089e806100115f395ff3fe608060405260043610610092575f3560e01c80635a540a72116100575780635a540a721461015c578063b06f375514610170578063cdb1dfb814610183578063ec34922f146101b5578063f981e851146101e7575f80fd5b806320c3616e1461009d578063342db739146100ce5780634333d55d14610101578063438504d7146101165780634e4f7b0e1461012a575f80fd5b3661009957005b5f80fd5b3480156100a8575f80fd5b506100b16101fa565b6040516001600160a01b0390911681526020015b60405180910390f35b3480156100d9575f80fd5b506100f36e1a185c991a185d0b595e1c1bdcd959608a1b81565b6040519081526020016100c5565b61011461010f366004610788565b610208565b005b348015610121575f80fd5b506100b161024c565b348015610135575f80fd5b507f360894a13ba1a3210667c828492db98dca3e2076cc3735a920a3ca505d382bbc6100f3565b348015610167575f80fd5b506100b1610255565b61011461017e366004610788565b61025e565b34801561018e575f80fd5b507fa3f0ad74e5423aebfd80d3ef4346578335a9a72aeaee59ff6cb3582b35133d506100f3565b3480156101c0575f80fd5b507fb53127684a568b3173ae13b9f8a6016e243e63b6e8ee1178d6a717850b5d61036100f3565b6101146101f5366004610806565b61029d565b5f6102036102a9565b905090565b6102478383838080601f0160208091040260200160405190810160405280939291908181526020018383808284375f920191909152506102db92505050565b505050565b5f610203610393565b5f6102036103ba565b6102478383838080601f0160208091040260200160405190810160405280939291908181526020018383808284375f920191909152506103e192505050565b6102a68161042e565b50565b5f7fa3f0ad74e5423aebfd80d3ef4346578335a9a72aeaee59ff6cb3582b35133d505b546001600160a01b0316919050565b6102e482610482565b6040516001600160a01b038316907f1cf3b03a6cf19fa2baba4df148e9dcabedea7f8a5c07840e207e5c089be95d3e905f90a280511561038757610247826001600160a01b0316635c60da1b6040518163ffffffff1660e01b8152600401602060405180830381865afa15801561035d573d5f803e3d5ffd5b505050506040513d601f19601f820116820180604052508101906103819190610821565b82610590565b61038f610602565b5050565b5f7fb53127684a568b3173ae13b9f8a6016e243e63b6e8ee1178d6a717850b5d61036102cc565b5f7f360894a13ba1a3210667c828492db98dca3e2076cc3735a920a3ca505d382bbc6102cc565b6103ea82610623565b6040516001600160a01b038316907fbc7cd75a20ee27fd9adebab32041f755214dbc6bffa90cc0225b39da2e5c2d3b905f90a2805115610387576102478282610590565b7f7e644d79422f17c01e4894b5f4f588d331ebfa28653d42ae832dc59e38c9798f610457610393565b604080516001600160a01b03928316815291841660208301520160405180910390a16102a68161069c565b806001600160a01b03163b5f036104bc57604051631933b43b60e21b81526001600160a01b03821660048201526024015b60405180910390fd5b807fa3f0ad74e5423aebfd80d3ef4346578335a9a72aeaee59ff6cb3582b35133d5080546001600160a01b0319166001600160a01b0392831617905560408051635c60da1b60e01b815290515f92841691635c60da1b9160048083019260209291908290030181865afa158015610535573d5f803e3d5ffd5b505050506040513d601f19601f820116820180604052508101906105599190610821565b9050806001600160a01b03163b5f0361038f57604051634c9c8ce360e01b81526001600160a01b03821660048201526024016104b3565b60605f80846001600160a01b0316846040516105ac919061083c565b5f60405180830381855af49150503d805f81146105e4576040519150601f19603f3d011682016040523d82523d5f602084013e6105e9565b606091505b50915091506105f98583836106ec565b95945050505050565b34156106215760405163b398979f60e01b815260040160405180910390fd5b565b806001600160a01b03163b5f0361065857604051634c9c8ce360e01b81526001600160a01b03821660048201526024016104b3565b807f360894a13ba1a3210667c828492db98dca3e2076cc3735a920a3ca505d382bbc5b80546001600160a01b0319166001600160a01b039290921691909117905550565b6001600160a01b0381166106c557604051633173bdd160e11b81525f60048201526024016104b3565b807fb53127684a568b3173ae13b9f8a6016e243e63b6e8ee1178d6a717850b5d610361067b565b606082610701576106fc8261074b565b610744565b815115801561071857506001600160a01b0384163b155b1561074157604051639996b31560e01b81526001600160a01b03851660048201526024016104b3565b50805b9392505050565b80511561075b5780518082602001fd5b60405163d6bda27560e01b815260040160405180910390fd5b6001600160a01b03811681146102a6575f80fd5b5f805f6040848603121561079a575f80fd5b83356107a581610774565b9250602084013567ffffffffffffffff808211156107c1575f80fd5b818601915086601f8301126107d4575f80fd5b8135818111156107e2575f80fd5b8760208285010111156107f3575f80fd5b6020830194508093505050509250925092565b5f60208284031215610816575f80fd5b813561074481610774565b5f60208284031215610831575f80fd5b815161074481610774565b5f82515f5b8181101561085b5760208186018101518583015201610841565b505f92019182525091905056fea2646970667358221220dd40782b770cee0b3c6a8324408de89f7703564ebc92b1660a75aacb0fc2db2664736f6c63430008180033",
  "linkReferences": {},
  "deployedLinkReferences": {}
}