{
  "_format": "hh-sol-artifact-1",
  "contractName": "$ERC20GetterHelper",
  "sourceName": "contracts-exposed/mocks/token/ERC20GetterHelper.sol",
  "abi": [
    {
      "inputs": [],
      "stateMutability": "payable",
      "type": "constructor"
    },
    {
      "anonymous": false,
      "inputs": [
        {
          "indexed": false,
          "internalType": "contract IERC20",
          "name": "token",
          "type": "address"
        },
        {
          "indexed": false,
          "internalType": "address",
          "name": "owner",
          "type": "address"
        },
        {
          "indexed": false,
          "internalType": "address",
          "name": "spender",
          "type": "address"
        },
        {
          "indexed": false,
          "internalType": "uint256",
          "name": "allowance",
          "type": "uint256"
        }
      ],
      "name": "ERC20Allowance",
      "type": "event"
    },
    {
      "anonymous": false,
      "inputs": [
        {
          "indexed": false,
          "internalType": "contract IERC20",
          "name": "token",
          "type": "address"
        },
        {
          "indexed": false,
          "internalType": "address",
          "name": "account",
          "type": "address"
        },
        {
          "indexed": false,
          "internalType": "uint256",
          "name": "balanceOf",
          "type": "uint256"
        }
      ],
      "name": "ERC20BalanceOf",
      "type": "event"
    },
    {
      "anonymous": false,
      "inputs": [
        {
          "indexed": false,
          "internalType": "contract IERC20Metadata",
          "name": "token",
          "type": "address"
        },
        {
          "indexed": false,
          "internalType": "uint8",
          "name": "decimals",
          "type": "uint8"
        }
      ],
      "name": "ERC20Decimals",
      "type": "event"
    },
    {
      "anonymous": false,
      "inputs": [
        {
          "indexed": false,
          "internalType": "contract IERC20Metadata",
          "name": "token",
          "type": "address"
        },
        {
          "indexed": false,
          "internalType": "string",
          "name": "name",
          "type": "string"
        }
      ],
      "name": "ERC20Name",
      "type": "event"
    },
    {
      "anonymous": false,
      "inputs": [
        {
          "indexed": false,
          "internalType": "contract IERC20Metadata",
          "name": "token",
          "type": "address"
        },
        {
          "indexed": false,
          "internalType": "string",
          "name": "symbol",
          "type": "string"
        }
      ],
      "name": "ERC20Symbol",
      "type": "event"
    },
    {
      "anonymous": false,
      "inputs": [
        {
          "indexed": false,
          "internalType": "contract IERC20",
          "name": "token",
          "type": "address"
        },
        {
          "indexed": false,
          "internalType": "uint256",
          "name": "totalSupply",
          "type": "uint256"
        }
      ],
      "name": "ERC20TotalSupply",
      "type": "event"
    },
    {
      "inputs": [],
      "name": "__hh_exposed_bytecode_marker",
      "outputs": [
        {
          "internalType": "bytes32",
          "name": "",
          "type": "bytes32"
        }
      ],
      "stateMutability": "view",
      "type": "function"
    },
    {
      "inputs": [
        {
          "internalType": "contract IERC20",
          "name": "token",
          "type": "address"
        },
        {
          "internalType": "address",
          "name": "owner",
          "type": "address"
        },
        {
          "internalType": "address",
          "name": "spender",
          "type": "address"
        }
      ],
      "name": "allowance",
      "outputs": [],
      "stateMutability": "nonpayable",
      "type": "function"
    },
    {
      "inputs": [
        {
          "internalType": "contract IERC20",
          "name": "token",
          "type": "address"
        },
        {
          "internalType": "address",
          "name": "account",
          "type": "address"
        }
      ],
      "name": "balanceOf",
      "outputs": [],
      "stateMutability": "nonpayable",
      "type": "function"
    },
    {
      "inputs": [
        {
          "internalType": "contract IERC20Metadata",
          "name": "token",
          "type": "address"
        }
      ],
      "name": "decimals",
      "outputs": [],
      "stateMutability": "nonpayable",
      "type": "function"
    },
    {
      "inputs": [
        {
          "internalType": "contract IERC20Metadata",
          "name": "token",
          "type": "address"
        }
      ],
      "name": "name",
      "outputs": [],
      "stateMutability": "nonpayable",
      "type": "function"
    },
    {
      "inputs": [
        {
          "internalType": "contract IERC20Metadata",
          "name": "token",
          "type": "address"
        }
      ],
      "name": "symbol",
      "outputs": [],
      "stateMutability": "nonpayable",
      "type": "function"
    },
    {
      "inputs": [
        {
          "internalType": "contract IERC20",
          "name": "token",
          "type": "address"
        }
      ],
      "name": "totalSupply",
      "outputs": [],
      "stateMutability": "nonpayable",
      "type": "function"
    },
    {
      "stateMutability": "payable",
      "type": "receive"
    }
  ],
  "bytecode": "0x6080604052610787806100115f395ff3fe608060405260043610610071575f3560e01c8063a86e35761161004c578063a86e3576146100f3578063d449a83214610112578063e4dc2aa414610131578063f7888aec14610150575f80fd5b8063019848921461007c578063342db7391461009d578063927da105146100d4575f80fd5b3661007857005b5f80fd5b348015610087575f80fd5b5061009b61009636600461055a565b61016f565b005b3480156100a8575f80fd5b506100c26e1a185c991a185d0b595e1c1bdcd959608a1b81565b60405190815260200160405180910390f35b3480156100df575f80fd5b5061009b6100ee36600461057c565b61020c565b3480156100fe575f80fd5b5061009b61010d36600461055a565b6102e6565b34801561011d575f80fd5b5061009b61012c36600461055a565b610343565b34801561013c575f80fd5b5061009b61014b36600461055a565b6103e6565b34801561015b575f80fd5b5061009b61016a3660046105c4565b610487565b7f0485ca5375889f98baa3c2b6f4c5017f42445d46a8ea34301831f4c0656aeaef81826001600160a01b03166306fdde036040518163ffffffff1660e01b81526004015f60405180830381865afa1580156101cc573d5f803e3d5ffd5b505050506040513d5f823e601f3d908101601f191682016040526101f39190810190610631565b6040516102019291906106d9565b60405180910390a150565b604051636eb1769f60e11b81526001600160a01b03808416600483015280831660248301527fe09eed224b4f51d932c9802d15235a4e3d83e6e98746fbd17672bfa0c68cf2a59185918591859184169063dd62ed3e90604401602060405180830381865afa158015610280573d5f803e3d5ffd5b505050506040513d601f19601f820116820180604052508101906102a4919061071a565b6040516102d994939291906001600160a01b039485168152928416602084015292166040820152606081019190915260800190565b60405180910390a1505050565b7f26e04705bb26a7efc42c2fc229535a30faa3fff9a04cd15ed4a729c9bc4d35bf81826001600160a01b03166395d89b416040518163ffffffff1660e01b81526004015f60405180830381865afa1580156101cc573d5f803e3d5ffd5b7f85bc872b16b9db2e4ada370573ffd396602bfdacec01f732f2b5ab6f42f2443581826001600160a01b031663313ce5676040518163ffffffff1660e01b8152600401602060405180830381865afa1580156103a1573d5f803e3d5ffd5b505050506040513d601f19601f820116820180604052508101906103c59190610731565b604080516001600160a01b03909316835260ff909116602083015201610201565b7f6485fd49c668ab31aa6e76b818c9492f82e9a3727f8dbd1ded1f7a785b2c982e81826001600160a01b03166318160ddd6040518163ffffffff1660e01b8152600401602060405180830381865afa158015610444573d5f803e3d5ffd5b505050506040513d601f19601f82011682018060405250810190610468919061071a565b604080516001600160a01b039093168352602083019190915201610201565b6040516370a0823160e01b81526001600160a01b0380831660048301527ffa069972e8d8e0f3228defb44d5b7c9bc6c3f08ef98bc7d6a31a5ad2993a97959184918491908316906370a0823190602401602060405180830381865afa1580156104f2573d5f803e3d5ffd5b505050506040513d601f19601f82011682018060405250810190610516919061071a565b604080516001600160a01b0394851681529390921660208401529082015260600160405180910390a15050565b6001600160a01b0381168114610557575f80fd5b50565b5f6020828403121561056a575f80fd5b813561057581610543565b9392505050565b5f805f6060848603121561058e575f80fd5b833561059981610543565b925060208401356105a981610543565b915060408401356105b981610543565b809150509250925092565b5f80604083850312156105d5575f80fd5b82356105e081610543565b915060208301356105f081610543565b809150509250929050565b634e487b7160e01b5f52604160045260245ffd5b5f5b83811015610629578181015183820152602001610611565b50505f910152565b5f60208284031215610641575f80fd5b815167ffffffffffffffff80821115610658575f80fd5b818401915084601f83011261066b575f80fd5b81518181111561067d5761067d6105fb565b604051601f8201601f19908116603f011681019083821181831017156106a5576106a56105fb565b816040528281528760208487010111156106bd575f80fd5b6106ce83602083016020880161060f565b979650505050505050565b60018060a01b0383168152604060208201525f825180604084015261070581606085016020870161060f565b601f01601f1916919091016060019392505050565b5f6020828403121561072a575f80fd5b5051919050565b5f60208284031215610741575f80fd5b815160ff81168114610575575f80fdfea2646970667358221220d4dfb8e64ba07e358b21b875dcf531105f90a3e6393d3721522018365d1029c664736f6c63430008180033",
  "linkReferences": {},
  "deployedLinkReferences": {}
}