{
  "_format": "hh-sol-artifact-1",
  "contractName": "$TransientSlotMock",
  "sourceName": "contracts-exposed/mocks/TransientSlotMock.sol",
  "abi": [
    {
      "inputs": [],
      "stateMutability": "payable",
      "type": "constructor"
    },
    {
      "inputs": [
        {
          "internalType": "address",
          "name": "target",
          "type": "address"
        }
      ],
      "name": "AddressEmptyCode",
      "type": "error"
    },
    {
      "inputs": [],
      "name": "FailedCall",
      "type": "error"
    },
    {
      "anonymous": false,
      "inputs": [
        {
          "indexed": false,
          "internalType": "bytes32",
          "name": "slot",
          "type": "bytes32"
        },
        {
          "indexed": false,
          "internalType": "address",
          "name": "value",
          "type": "address"
        }
      ],
      "name": "AddressValue",
      "type": "event"
    },
    {
      "anonymous": false,
      "inputs": [
        {
          "indexed": false,
          "internalType": "bytes32",
          "name": "slot",
          "type": "bytes32"
        },
        {
          "indexed": false,
          "internalType": "bool",
          "name": "value",
          "type": "bool"
        }
      ],
      "name": "BooleanValue",
      "type": "event"
    },
    {
      "anonymous": false,
      "inputs": [
        {
          "indexed": false,
          "internalType": "bytes32",
          "name": "slot",
          "type": "bytes32"
        },
        {
          "indexed": false,
          "internalType": "bytes32",
          "name": "value",
          "type": "bytes32"
        }
      ],
      "name": "Bytes32Value",
      "type": "event"
    },
    {
      "anonymous": false,
      "inputs": [
        {
          "indexed": false,
          "internalType": "bytes32",
          "name": "slot",
          "type": "bytes32"
        },
        {
          "indexed": false,
          "internalType": "int256",
          "name": "value",
          "type": "int256"
        }
      ],
      "name": "Int256Value",
      "type": "event"
    },
    {
      "anonymous": false,
      "inputs": [
        {
          "indexed": false,
          "internalType": "bytes32",
          "name": "slot",
          "type": "bytes32"
        },
        {
          "indexed": false,
          "internalType": "uint256",
          "name": "value",
          "type": "uint256"
        }
      ],
      "name": "Uint256Value",
      "type": "event"
    },
    {
      "inputs": [],
      "name": "$_contextSuffixLength",
      "outputs": [
        {
          "internalType": "uint256",
          "name": "ret0",
          "type": "uint256"
        }
      ],
      "stateMutability": "view",
      "type": "function"
    },
    {
      "inputs": [],
      "name": "$_msgData",
      "outputs": [
        {
          "internalType": "bytes",
          "name": "ret0",
          "type": "bytes"
        }
      ],
      "stateMutability": "view",
      "type": "function"
    },
    {
      "inputs": [],
      "name": "$_msgSender",
      "outputs": [
        {
          "internalType": "address",
          "name": "ret0",
          "type": "address"
        }
      ],
      "stateMutability": "view",
      "type": "function"
    },
    {
      "inputs": [],
      "name": "__hh_exposed_bytecode_marker",
      "outputs": [
        {
          "internalType": "bytes32",
          "name": "",
          "type": "bytes32"
        }
      ],
      "stateMutability": "view",
      "type": "function"
    },
    {
      "inputs": [
        {
          "internalType": "bytes[]",
          "name": "data",
          "type": "bytes[]"
        }
      ],
      "name": "multicall",
      "outputs": [
        {
          "internalType": "bytes[]",
          "name": "results",
          "type": "bytes[]"
        }
      ],
      "stateMutability": "nonpayable",
      "type": "function"
    },
    {
      "inputs": [
        {
          "internalType": "bytes32",
          "name": "slot",
          "type": "bytes32"
        }
      ],
      "name": "tloadAddress",
      "outputs": [],
      "stateMutability": "nonpayable",
      "type": "function"
    },
    {
      "inputs": [
        {
          "internalType": "bytes32",
          "name": "slot",
          "type": "bytes32"
        }
      ],
      "name": "tloadBoolean",
      "outputs": [],
      "stateMutability": "nonpayable",
      "type": "function"
    },
    {
      "inputs": [
        {
          "internalType": "bytes32",
          "name": "slot",
          "type": "bytes32"
        }
      ],
      "name": "tloadBytes32",
      "outputs": [],
      "stateMutability": "nonpayable",
      "type": "function"
    },
    {
      "inputs": [
        {
          "internalType": "bytes32",
          "name": "slot",
          "type": "bytes32"
        }
      ],
      "name": "tloadInt256",
      "outputs": [],
      "stateMutability": "nonpayable",
      "type": "function"
    },
    {
      "inputs": [
        {
          "internalType": "bytes32",
          "name": "slot",
          "type": "bytes32"
        }
      ],
      "name": "tloadUint256",
      "outputs": [],
      "stateMutability": "nonpayable",
      "type": "function"
    },
    {
      "inputs": [
        {
          "internalType": "bytes32",
          "name": "slot",
          "type": "bytes32"
        },
        {
          "internalType": "address",
          "name": "value",
          "type": "address"
        }
      ],
      "name": "tstore",
      "outputs": [],
      "stateMutability": "nonpayable",
      "type": "function"
    },
    {
      "inputs": [
        {
          "internalType": "bytes32",
          "name": "slot",
          "type": "bytes32"
        },
        {
          "internalType": "bool",
          "name": "value",
          "type": "bool"
        }
      ],
      "name": "tstore",
      "outputs": [],
      "stateMutability": "nonpayable",
      "type": "function"
    },
    {
      "inputs": [
        {
          "internalType": "bytes32",
          "name": "slot",
          "type": "bytes32"
        },
        {
          "internalType": "uint256",
          "name": "value",
          "type": "uint256"
        }
      ],
      "name": "tstore",
      "outputs": [],
      "stateMutability": "nonpayable",
      "type": "function"
    },
    {
      "inputs": [
        {
          "internalType": "bytes32",
          "name": "slot",
          "type": "bytes32"
        },
        {
          "internalType": "int256",
          "name": "value",
          "type": "int256"
        }
      ],
      "name": "tstore",
      "outputs": [],
      "stateMutability": "nonpayable",
      "type": "function"
    },
    {
      "inputs": [
        {
          "internalType": "bytes32",
          "name": "slot",
          "type": "bytes32"
        },
        {
          "internalType": "bytes32",
          "name": "value",
          "type": "bytes32"
        }
      ],
      "name": "tstore",
      "outputs": [],
      "stateMutability": "nonpayable",
      "type": "function"
    },
    {
      "stateMutability": "payable",
      "type": "receive"
    }
  ],
  "bytecode": "0x6080604052610882806100115f395ff3fe6080604052600436106100e7575f3560e01c806367354a8411610087578063ac9650d811610057578063ac9650d814610229578063ba96e3ea14610255578063bd4522bb14610274578063d25bb762146101f0575f80fd5b806367354a84146101de578063824bd70b146101f057806385daa7b41461020a578063938ee4c8146101f0575f80fd5b806332cadf3c116100c257806332cadf3c14610151578063342db739146101725780634912c97c146101a55780635d6f2b93146101c4575f80fd5b806320656eb6146100f25780632904df29146101135780632ddc1e8f14610132575f80fd5b366100ee57005b5f80fd5b3480156100fd575f80fd5b5061011161010c3660046105d3565b610293565b005b34801561011e575f80fd5b506040513381526020015b60405180910390f35b34801561013d575f80fd5b5061011161014c3660046105ea565b6102d4565b34801561015c575f80fd5b506101656102e2565b6040516101299190610670565b34801561017d575f80fd5b506101976e1a185c991a185d0b595e1c1bdcd959608a1b81565b604051908152602001610129565b3480156101b0575f80fd5b506101116101bf3660046105d3565b61031f565b3480156101cf575f80fd5b5061011161014c366004610682565b3480156101e9575f80fd5b505f610197565b3480156101fb575f80fd5b5061011161014c3660046106a9565b348015610215575f80fd5b506101116102243660046105d3565b610348565b348015610234575f80fd5b506102486102433660046106c9565b610380565b6040516101299190610738565b348015610260575f80fd5b5061011161026f3660046105d3565b610466565b34801561027f575f80fd5b5061011161028e3660046105d3565b6104a5565b7f71eecf44688d15d894339e18504cad8f6634d454a9496b065503cebfac1f9b6381805c5b604080519283526020830191909152015b60405180910390a150565b6102de82826104ce565b5050565b60605f368080601f0160208091040260200160405190810160405280939291908181526020018383808284375f9201919091525092949350505050565b7fbf9aaddfa8a1b987c7c32a9295dea19fb7b4e3b5b05f05c831f3634ef90e1a5e81805c6102b8565b60408051828152825c151560208201527f3d52ff56f17a99f5b126ffe58fc0ff5637819d2f2390fcb898ca339d5c7af2b391016102c9565b604080515f8152602081019091526060908267ffffffffffffffff8111156103aa576103aa61079a565b6040519080825280602002602001820160405280156103dd57816020015b60608152602001906001900390816103c85790505b5091505f5b8381101561045e5761043930868684818110610400576104006107ae565b905060200281019061041291906107c2565b856040516020016104259392919061080c565b6040516020818303038152906040526104d5565b83828151811061044b5761044b6107ae565b60209081029190910101526001016103e2565b505092915050565b604080518281526001600160a01b03835c1660208201527f28adb451742b081abc04788984120a5256bb9cb76cd5b61a181c8a088c08e49d91016102c9565b7faa96f8aa155cc584d3b4080ac3c322f1347d2b82ac812e67a8ee926d3057a19881805c6102b8565b80825d5050565b60605f80846001600160a01b0316846040516104f19190610831565b5f60405180830381855af49150503d805f8114610529576040519150601f19603f3d011682016040523d82523d5f602084013e61052e565b606091505b509150915061053e858383610547565b95945050505050565b60608261055c57610557826105aa565b6105a3565b815115801561057357506001600160a01b0384163b155b156105a057604051639996b31560e01b81526001600160a01b038516600482015260240160405180910390fd5b50805b9392505050565b8051156105ba5780518082602001fd5b60405163d6bda27560e01b815260040160405180910390fd5b5f602082840312156105e3575f80fd5b5035919050565b5f80604083850312156105fb575f80fd5b8235915060208301356001600160a01b0381168114610618575f80fd5b809150509250929050565b5f5b8381101561063d578181015183820152602001610625565b50505f910152565b5f815180845261065c816020860160208601610623565b601f01601f19169290920160200192915050565b602081525f6105a36020830184610645565b5f8060408385031215610693575f80fd5b8235915060208301358015158114610618575f80fd5b5f80604083850312156106ba575f80fd5b50508035926020909101359150565b5f80602083850312156106da575f80fd5b823567ffffffffffffffff808211156106f1575f80fd5b818501915085601f830112610704575f80fd5b813581811115610712575f80fd5b8660208260051b8501011115610726575f80fd5b60209290920196919550909350505050565b5f60208083016020845280855180835260408601915060408160051b8701019250602087015f5b8281101561078d57603f1988860301845261077b858351610645565b9450928501929085019060010161075f565b5092979650505050505050565b634e487b7160e01b5f52604160045260245ffd5b634e487b7160e01b5f52603260045260245ffd5b5f808335601e198436030181126107d7575f80fd5b83018035915067ffffffffffffffff8211156107f1575f80fd5b602001915036819003821315610805575f80fd5b9250929050565b828482375f8382015f81528351610827818360208801610623565b0195945050505050565b5f8251610842818460208701610623565b919091019291505056fea26469706673582212205411ea069ddf0dd954fc5865f290b6bc7901598ae85fc58abcc5c0ca2edd620364736f6c63430008180033",
  "linkReferences": {},
  "deployedLinkReferences": {}
}