{
  "_format": "hh-sol-artifact-1",
  "contractName": "$ERC1363ForceApproveMock",
  "sourceName": "contracts-exposed/mocks/token/ERC1363ForceApproveMock.sol",
  "abi": [
    {
      "inputs": [
        {
          "internalType": "string",
          "name": "name_",
          "type": "string"
        },
        {
          "internalType": "string",
          "name": "symbol_",
          "type": "string"
        }
      ],
      "stateMutability": "payable",
      "type": "constructor"
    },
    {
      "inputs": [
        {
          "internalType": "address",
          "name": "spender",
          "type": "address"
        },
        {
          "internalType": "uint256",
          "name": "value",
          "type": "uint256"
        }
      ],
      "name": "ERC1363ApproveFailed",
      "type": "error"
    },
    {
      "inputs": [
        {
          "internalType": "address",
          "name": "receiver",
          "type": "address"
        }
      ],
      "name": "ERC1363InvalidReceiver",
      "type": "error"
    },
    {
      "inputs": [
        {
          "internalType": "address",
          "name": "spender",
          "type": "address"
        }
      ],
      "name": "ERC1363InvalidSpender",
      "type": "error"
    },
    {
      "inputs": [
        {
          "internalType": "address",
          "name": "receiver",
          "type": "address"
        },
        {
          "internalType": "uint256",
          "name": "value",
          "type": "uint256"
        }
      ],
      "name": "ERC1363TransferFailed",
      "type": "error"
    },
    {
      "inputs": [
        {
          "internalType": "address",
          "name": "sender",
          "type": "address"
        },
        {
          "internalType": "address",
          "name": "receiver",
          "type": "address"
        },
        {
          "internalType": "uint256",
          "name": "value",
          "type": "uint256"
        }
      ],
      "name": "ERC1363TransferFromFailed",
      "type": "error"
    },
    {
      "inputs": [
        {
          "internalType": "address",
          "name": "spender",
          "type": "address"
        },
        {
          "internalType": "uint256",
          "name": "allowance",
          "type": "uint256"
        },
        {
          "internalType": "uint256",
          "name": "needed",
          "type": "uint256"
        }
      ],
      "name": "ERC20InsufficientAllowance",
      "type": "error"
    },
    {
      "inputs": [
        {
          "internalType": "address",
          "name": "sender",
          "type": "address"
        },
        {
          "internalType": "uint256",
          "name": "balance",
          "type": "uint256"
        },
        {
          "internalType": "uint256",
          "name": "needed",
          "type": "uint256"
        }
      ],
      "name": "ERC20InsufficientBalance",
      "type": "error"
    },
    {
      "inputs": [
        {
          "internalType": "address",
          "name": "approver",
          "type": "address"
        }
      ],
      "name": "ERC20InvalidApprover",
      "type": "error"
    },
    {
      "inputs": [
        {
          "internalType": "address",
          "name": "receiver",
          "type": "address"
        }
      ],
      "name": "ERC20InvalidReceiver",
      "type": "error"
    },
    {
      "inputs": [
        {
          "internalType": "address",
          "name": "sender",
          "type": "address"
        }
      ],
      "name": "ERC20InvalidSender",
      "type": "error"
    },
    {
      "inputs": [
        {
          "internalType": "address",
          "name": "spender",
          "type": "address"
        }
      ],
      "name": "ERC20InvalidSpender",
      "type": "error"
    },
    {
      "anonymous": false,
      "inputs": [
        {
          "indexed": true,
          "internalType": "address",
          "name": "owner",
          "type": "address"
        },
        {
          "indexed": true,
          "internalType": "address",
          "name": "spender",
          "type": "address"
        },
        {
          "indexed": false,
          "internalType": "uint256",
          "name": "value",
          "type": "uint256"
        }
      ],
      "name": "Approval",
      "type": "event"
    },
    {
      "anonymous": false,
      "inputs": [
        {
          "indexed": true,
          "internalType": "address",
          "name": "from",
          "type": "address"
        },
        {
          "indexed": true,
          "internalType": "address",
          "name": "to",
          "type": "address"
        },
        {
          "indexed": false,
          "internalType": "uint256",
          "name": "value",
          "type": "uint256"
        }
      ],
      "name": "Transfer",
      "type": "event"
    },
    {
      "inputs": [
        {
          "internalType": "address",
          "name": "owner",
          "type": "address"
        },
        {
          "internalType": "address",
          "name": "spender",
          "type": "address"
        },
        {
          "internalType": "uint256",
          "name": "value",
          "type": "uint256"
        },
        {
          "internalType": "bool",
          "name": "emitEvent",
          "type": "bool"
        }
      ],
      "name": "$_approve",
      "outputs": [],
      "stateMutability": "nonpayable",
      "type": "function"
    },
    {
      "inputs": [
        {
          "internalType": "address",
          "name": "owner",
          "type": "address"
        },
        {
          "internalType": "address",
          "name": "spender",
          "type": "address"
        },
        {
          "internalType": "uint256",
          "name": "value",
          "type": "uint256"
        }
      ],
      "name": "$_approve",
      "outputs": [],
      "stateMutability": "nonpayable",
      "type": "function"
    },
    {
      "inputs": [
        {
          "internalType": "address",
          "name": "account",
          "type": "address"
        },
        {
          "internalType": "uint256",
          "name": "value",
          "type": "uint256"
        }
      ],
      "name": "$_burn",
      "outputs": [],
      "stateMutability": "nonpayable",
      "type": "function"
    },
    {
      "inputs": [],
      "name": "$_contextSuffixLength",
      "outputs": [
        {
          "internalType": "uint256",
          "name": "ret0",
          "type": "uint256"
        }
      ],
      "stateMutability": "view",
      "type": "function"
    },
    {
      "inputs": [
        {
          "internalType": "address",
          "name": "account",
          "type": "address"
        },
        {
          "internalType": "uint256",
          "name": "value",
          "type": "uint256"
        }
      ],
      "name": "$_mint",
      "outputs": [],
      "stateMutability": "nonpayable",
      "type": "function"
    },
    {
      "inputs": [],
      "name": "$_msgData",
      "outputs": [
        {
          "internalType": "bytes",
          "name": "ret0",
          "type": "bytes"
        }
      ],
      "stateMutability": "view",
      "type": "function"
    },
    {
      "inputs": [],
      "name": "$_msgSender",
      "outputs": [
        {
          "internalType": "address",
          "name": "ret0",
          "type": "address"
        }
      ],
      "stateMutability": "view",
      "type": "function"
    },
    {
      "inputs": [
        {
          "internalType": "address",
          "name": "owner",
          "type": "address"
        },
        {
          "internalType": "address",
          "name": "spender",
          "type": "address"
        },
        {
          "internalType": "uint256",
          "name": "value",
          "type": "uint256"
        }
      ],
      "name": "$_spendAllowance",
      "outputs": [],
      "stateMutability": "nonpayable",
      "type": "function"
    },
    {
      "inputs": [
        {
          "internalType": "address",
          "name": "from",
          "type": "address"
        },
        {
          "internalType": "address",
          "name": "to",
          "type": "address"
        },
        {
          "internalType": "uint256",
          "name": "value",
          "type": "uint256"
        }
      ],
      "name": "$_transfer",
      "outputs": [],
      "stateMutability": "nonpayable",
      "type": "function"
    },
    {
      "inputs": [
        {
          "internalType": "address",
          "name": "from",
          "type": "address"
        },
        {
          "internalType": "address",
          "name": "to",
          "type": "address"
        },
        {
          "internalType": "uint256",
          "name": "value",
          "type": "uint256"
        }
      ],
      "name": "$_update",
      "outputs": [],
      "stateMutability": "nonpayable",
      "type": "function"
    },
    {
      "inputs": [],
      "name": "__hh_exposed_bytecode_marker",
      "outputs": [
        {
          "internalType": "bytes32",
          "name": "",
          "type": "bytes32"
        }
      ],
      "stateMutability": "view",
      "type": "function"
    },
    {
      "inputs": [
        {
          "internalType": "address",
          "name": "owner",
          "type": "address"
        },
        {
          "internalType": "address",
          "name": "spender",
          "type": "address"
        }
      ],
      "name": "allowance",
      "outputs": [
        {
          "internalType": "uint256",
          "name": "",
          "type": "uint256"
        }
      ],
      "stateMutability": "view",
      "type": "function"
    },
    {
      "inputs": [
        {
          "internalType": "address",
          "name": "spender",
          "type": "address"
        },
        {
          "internalType": "uint256",
          "name": "value",
          "type": "uint256"
        }
      ],
      "name": "approve",
      "outputs": [
        {
          "internalType": "bool",
          "name": "",
          "type": "bool"
        }
      ],
      "stateMutability": "nonpayable",
      "type": "function"
    },
    {
      "inputs": [
        {
          "internalType": "address",
          "name": "spender",
          "type": "address"
        },
        {
          "internalType": "uint256",
          "name": "value",
          "type": "uint256"
        }
      ],
      "name": "approveAndCall",
      "outputs": [
        {
          "internalType": "bool",
          "name": "",
          "type": "bool"
        }
      ],
      "stateMutability": "nonpayable",
      "type": "function"
    },
    {
      "inputs": [
        {
          "internalType": "address",
          "name": "spender",
          "type": "address"
        },
        {
          "internalType": "uint256",
          "name": "amount",
          "type": "uint256"
        },
        {
          "internalType": "bytes",
          "name": "data",
          "type": "bytes"
        }
      ],
      "name": "approveAndCall",
      "outputs": [
        {
          "internalType": "bool",
          "name": "",
          "type": "bool"
        }
      ],
      "stateMutability": "nonpayable",
      "type": "function"
    },
    {
      "inputs": [
        {
          "internalType": "address",
          "name": "account",
          "type": "address"
        }
      ],
      "name": "balanceOf",
      "outputs": [
        {
          "internalType": "uint256",
          "name": "",
          "type": "uint256"
        }
      ],
      "stateMutability": "view",
      "type": "function"
    },
    {
      "inputs": [],
      "name": "decimals",
      "outputs": [
        {
          "internalType": "uint8",
          "name": "",
          "type": "uint8"
        }
      ],
      "stateMutability": "view",
      "type": "function"
    },
    {
      "inputs": [],
      "name": "name",
      "outputs": [
        {
          "internalType": "string",
          "name": "",
          "type": "string"
        }
      ],
      "stateMutability": "view",
      "type": "function"
    },
    {
      "inputs": [
        {
          "internalType": "bytes4",
          "name": "interfaceId",
          "type": "bytes4"
        }
      ],
      "name": "supportsInterface",
      "outputs": [
        {
          "internalType": "bool",
          "name": "",
          "type": "bool"
        }
      ],
      "stateMutability": "view",
      "type": "function"
    },
    {
      "inputs": [],
      "name": "symbol",
      "outputs": [
        {
          "internalType": "string",
          "name": "",
          "type": "string"
        }
      ],
      "stateMutability": "view",
      "type": "function"
    },
    {
      "inputs": [],
      "name": "totalSupply",
      "outputs": [
        {
          "internalType": "uint256",
          "name": "",
          "type": "uint256"
        }
      ],
      "stateMutability": "view",
      "type": "function"
    },
    {
      "inputs": [
        {
          "internalType": "address",
          "name": "to",
          "type": "address"
        },
        {
          "internalType": "uint256",
          "name": "value",
          "type": "uint256"
        }
      ],
      "name": "transfer",
      "outputs": [
        {
          "internalType": "bool",
          "name": "",
          "type": "bool"
        }
      ],
      "stateMutability": "nonpayable",
      "type": "function"
    },
    {
      "inputs": [
        {
          "internalType": "address",
          "name": "to",
          "type": "address"
        },
        {
          "internalType": "uint256",
          "name": "value",
          "type": "uint256"
        }
      ],
      "name": "transferAndCall",
      "outputs": [
        {
          "internalType": "bool",
          "name": "",
          "type": "bool"
        }
      ],
      "stateMutability": "nonpayable",
      "type": "function"
    },
    {
      "inputs": [
        {
          "internalType": "address",
          "name": "to",
          "type": "address"
        },
        {
          "internalType": "uint256",
          "name": "value",
          "type": "uint256"
        },
        {
          "internalType": "bytes",
          "name": "data",
          "type": "bytes"
        }
      ],
      "name": "transferAndCall",
      "outputs": [
        {
          "internalType": "bool",
          "name": "",
          "type": "bool"
        }
      ],
      "stateMutability": "nonpayable",
      "type": "function"
    },
    {
      "inputs": [
        {
          "internalType": "address",
          "name": "from",
          "type": "address"
        },
        {
          "internalType": "address",
          "name": "to",
          "type": "address"
        },
        {
          "internalType": "uint256",
          "name": "value",
          "type": "uint256"
        }
      ],
      "name": "transferFrom",
      "outputs": [
        {
          "internalType": "bool",
          "name": "",
          "type": "bool"
        }
      ],
      "stateMutability": "nonpayable",
      "type": "function"
    },
    {
      "inputs": [
        {
          "internalType": "address",
          "name": "from",
          "type": "address"
        },
        {
          "internalType": "address",
          "name": "to",
          "type": "address"
        },
        {
          "internalType": "uint256",
          "name": "value",
          "type": "uint256"
        },
        {
          "internalType": "bytes",
          "name": "data",
          "type": "bytes"
        }
      ],
      "name": "transferFromAndCall",
      "outputs": [
        {
          "internalType": "bool",
          "name": "",
          "type": "bool"
        }
      ],
      "stateMutability": "nonpayable",
      "type": "function"
    },
    {
      "inputs": [
        {
          "internalType": "address",
          "name": "from",
          "type": "address"
        },
        {
          "internalType": "address",
          "name": "to",
          "type": "address"
        },
        {
          "internalType": "uint256",
          "name": "value",
          "type": "uint256"
        }
      ],
      "name": "transferFromAndCall",
      "outputs": [
        {
          "internalType": "bool",
          "name": "",
          "type": "bool"
        }
      ],
      "stateMutability": "nonpayable",
      "type": "function"
    },
    {
      "stateMutability": "payable",
      "type": "receive"
    }
  ],
  "bytecode": "0x6080604052604051620014f5380380620014f5833981016040819052620000269162000111565b8181600362000036838262000201565b50600462000045828262000201565b5050505050620002cd565b634e487b7160e01b5f52604160045260245ffd5b5f82601f83011262000074575f80fd5b81516001600160401b038082111562000091576200009162000050565b604051601f8301601f19908116603f01168101908282118183101715620000bc57620000bc62000050565b8160405283815260209250866020858801011115620000d9575f80fd5b5f91505b83821015620000fc5785820183015181830184015290820190620000dd565b5f602085830101528094505050505092915050565b5f806040838503121562000123575f80fd5b82516001600160401b03808211156200013a575f80fd5b620001488683870162000064565b935060208501519150808211156200015e575f80fd5b506200016d8582860162000064565b9150509250929050565b600181811c908216806200018c57607f821691505b602082108103620001ab57634e487b7160e01b5f52602260045260245ffd5b50919050565b601f821115620001fc57805f5260205f20601f840160051c81016020851015620001d85750805b601f840160051c820191505b81811015620001f9575f8155600101620001e4565b50505b505050565b81516001600160401b038111156200021d576200021d62000050565b62000235816200022e845462000177565b84620001b1565b602080601f8311600181146200026b575f8415620002535750858301515b5f19600386901b1c1916600185901b178555620002c5565b5f85815260208120601f198616915b828110156200029b578886015182559484019460019091019084016200027a565b5085821015620002b957878501515f19600388901b60f8161c191681555b505060018460011b0185555b505050505050565b61121a80620002db5f395ff3fe608060405260043610610198575f3560e01c806367354a84116100e7578063c1d34b8911610087578063d8fbe99411610062578063d8fbe99414610473578063dd62ed3e14610492578063e047838d146104b1578063efb43b07146104d0575f80fd5b8063c1d34b8914610416578063cae9ca5114610435578063cc461d6214610454575f80fd5b8063861e3d3d116100c2578063861e3d3d146103a557806395d89b41146103c4578063a9059cbb146103d8578063b2331d7d146103f7575f80fd5b806367354a84146103405780636855a1781461035257806370a0823114610371575f80fd5b80632904df291161015257806332bc74aa1161012d57806332bc74aa146102c757806332cadf3c146102e8578063342db739146102fc5780634000aea014610321575f80fd5b80632904df2914610273578063313ce5671461028d5780633177029f146102a8575f80fd5b806301ffc9a7146101a357806306fdde03146101d7578063095ea7b3146101f85780631296ee621461021757806318160ddd1461023657806323b872dd14610254575f80fd5b3661019f57005b5f80fd5b3480156101ae575f80fd5b506101c26101bd366004610e2d565b6104ef565b60405190151581526020015b60405180910390f35b3480156101e2575f80fd5b506101eb610525565b6040516101ce9190610e8b565b348015610203575f80fd5b506101c2610212366004610eb8565b6105b5565b348015610222575f80fd5b506101c2610231366004610eb8565b6105cc565b348015610241575f80fd5b506002545b6040519081526020016101ce565b34801561025f575f80fd5b506101c261026e366004610ee0565b6105ed565b34801561027e575f80fd5b506040513381526020016101ce565b348015610298575f80fd5b50604051601281526020016101ce565b3480156102b3575f80fd5b506101c26102c2366004610eb8565b610610565b3480156102d2575f80fd5b506102e66102e1366004610f19565b61062a565b005b3480156102f3575f80fd5b506101eb61063c565b348015610307575f80fd5b506102466e1a185c991a185d0b595e1c1bdcd959608a1b81565b34801561032c575f80fd5b506101c261033b366004611006565b610679565b34801561034b575f80fd5b505f610246565b34801561035d575f80fd5b506102e661036c366004610ee0565b6106c5565b34801561037c575f80fd5b5061024661038b366004611059565b6001600160a01b03165f9081526020819052604090205490565b3480156103b0575f80fd5b506102e66103bf366004610ee0565b6106d5565b3480156103cf575f80fd5b506101eb6106e0565b3480156103e3575f80fd5b506101c26103f2366004610eb8565b6106ef565b348015610402575f80fd5b506102e6610411366004610ee0565b6106fc565b348015610421575f80fd5b506101c2610430366004611072565b610707565b348015610440575f80fd5b506101c261044f366004611006565b610757565b34801561045f575f80fd5b506102e661046e366004610eb8565b6107c3565b34801561047e575f80fd5b506101c261048d366004610ee0565b6107d1565b34801561049d575f80fd5b506102466104ac3660046110d6565b6107ec565b3480156104bc575f80fd5b506102e66104cb366004610eb8565b610816565b3480156104db575f80fd5b506102e66104ea366004610ee0565b610820565b5f6001600160e01b0319821663b0202a1160e01b148061051f57506301ffc9a760e01b6001600160e01b03198316145b92915050565b60606003805461053490611107565b80601f016020809104026020016040519081016040528092919081815260200182805461056090611107565b80156105ab5780601f10610582576101008083540402835291602001916105ab565b820191905f5260205f20905b81548152906001019060200180831161058e57829003601f168201915b5050505050905090565b5f336105c281858561082b565b5060019392505050565b5f6105e6838360405180602001604052805f815250610679565b9392505050565b5f336105fa858285610838565b610605858585610896565b506001949350505050565b5f6105e6838360405180602001604052805f815250610757565b610636848484846108e8565b50505050565b60605f368080601f0160208091040260200160405190810160405280939291908181526020018383808284375f9201919091525092949350505050565b5f61068484846106ef565b6106b85760405163118d81d760e11b81526001600160a01b0385166004820152602481018490526044015b60405180910390fd5b6105c233338686866109ba565b6106d0838383610b07565b505050565b6106d083838361082b565b60606004805461053490611107565b5f336105c2818585610896565b6106d0838383610838565b5f6107138585856105ed565b61074a57604051635ab42af360e11b81526001600160a01b03808716600483015285166024820152604481018490526064016106af565b61060533868686866109ba565b5f82158061076c575061076a33856107ec565b155b6107b05760405162461bcd60e51b81526020600482015260156024820152745553445420617070726f76616c206661696c75726560581b60448201526064016106af565b6107bb848484610c2d565b949350505050565b6107cd8282610c73565b5050565b5f6107bb84848460405180602001604052805f815250610707565b6001600160a01b039182165f90815260016020908152604080832093909416825291909152205490565b6107cd8282610ca7565b6106d0838383610896565b6106d083838360016108e8565b5f61084384846107ec565b90505f19811015610636578181101561088857604051637dc7a0d960e11b81526001600160a01b038416600482015260248101829052604481018390526064016106af565b61063684848484035f6108e8565b6001600160a01b0383166108bf57604051634b637e8f60e11b81525f60048201526024016106af565b6001600160a01b0382166106c55760405163ec442f0560e01b81525f60048201526024016106af565b6001600160a01b0384166109115760405163e602df0560e01b81525f60048201526024016106af565b6001600160a01b03831661093a57604051634a1406b160e11b81525f60048201526024016106af565b6001600160a01b038085165f908152600160209081526040808320938716835292905220829055801561063657826001600160a01b0316846001600160a01b03167f8c5be1e5ebec7d5bd14f71427d1e84f3dd0314c0f7b2291e5b200ac8c7c3b925846040516109ac91815260200190565b60405180910390a350505050565b826001600160a01b03163b5f036109ef576040516322a5b36760e21b81526001600160a01b03841660048201526024016106af565b604051632229f29760e21b81526001600160a01b038416906388a7ca5c90610a2190889088908790879060040161113f565b6020604051808303815f875af1925050508015610a5b575060408051601f3d908101601f19168201909252610a589181019061117b565b60015b610ac2573d808015610a88576040519150601f19603f3d011682016040523d82523d5f602084013e610a8d565b606091505b5080515f03610aba576040516322a5b36760e21b81526001600160a01b03851660048201526024016106af565b805181602001fd5b6001600160e01b03198116632229f29760e21b14610afe576040516322a5b36760e21b81526001600160a01b03851660048201526024016106af565b505b5050505050565b6001600160a01b038316610b31578060025f828254610b269190611196565b90915550610ba19050565b6001600160a01b0383165f9081526020819052604090205481811015610b835760405163391434e360e21b81526001600160a01b038516600482015260248101829052604481018390526064016106af565b6001600160a01b0384165f9081526020819052604090209082900390555b6001600160a01b038216610bbd57600280548290039055610bdb565b6001600160a01b0382165f9081526020819052604090208054820190555b816001600160a01b0316836001600160a01b03167fddf252ad1be2c89b69c2b068fc378daa952ba7f163c4a11628f55a4df523b3ef83604051610c2091815260200190565b60405180910390a3505050565b5f610c3884846105b5565b610c6757604051631439557160e21b81526001600160a01b0385166004820152602481018490526044016106af565b6105c233858585610cdb565b6001600160a01b038216610c9c5760405163ec442f0560e01b81525f60048201526024016106af565b6107cd5f8383610b07565b6001600160a01b038216610cd057604051634b637e8f60e11b81525f60048201526024016106af565b6107cd825f83610b07565b826001600160a01b03163b5f03610d105760405163deb6d3ed60e01b81526001600160a01b03841660048201526024016106af565b6040516307b04a2d60e41b81526001600160a01b03841690637b04a2d090610d40908790869086906004016111b5565b6020604051808303815f875af1925050508015610d7a575060408051601f3d908101601f19168201909252610d779181019061117b565b60015b610dd9573d808015610da7576040519150601f19603f3d011682016040523d82523d5f602084013e610dac565b606091505b5080515f03610aba5760405163deb6d3ed60e01b81526001600160a01b03851660048201526024016106af565b6001600160e01b031981166307b04a2d60e41b14610b005760405163deb6d3ed60e01b81526001600160a01b03851660048201526024016106af565b6001600160e01b031981168114610e2a575f80fd5b50565b5f60208284031215610e3d575f80fd5b81356105e681610e15565b5f81518084525f5b81811015610e6c57602081850181015186830182015201610e50565b505f602082860101526020601f19601f83011685010191505092915050565b602081525f6105e66020830184610e48565b80356001600160a01b0381168114610eb3575f80fd5b919050565b5f8060408385031215610ec9575f80fd5b610ed283610e9d565b946020939093013593505050565b5f805f60608486031215610ef2575f80fd5b610efb84610e9d565b9250610f0960208501610e9d565b9150604084013590509250925092565b5f805f8060808587031215610f2c575f80fd5b610f3585610e9d565b9350610f4360208601610e9d565b92506040850135915060608501358015158114610f5e575f80fd5b939692955090935050565b634e487b7160e01b5f52604160045260245ffd5b5f82601f830112610f8c575f80fd5b813567ffffffffffffffff80821115610fa757610fa7610f69565b604051601f8301601f19908116603f01168101908282118183101715610fcf57610fcf610f69565b81604052838152866020858801011115610fe7575f80fd5b836020870160208301375f602085830101528094505050505092915050565b5f805f60608486031215611018575f80fd5b61102184610e9d565b925060208401359150604084013567ffffffffffffffff811115611043575f80fd5b61104f86828701610f7d565b9150509250925092565b5f60208284031215611069575f80fd5b6105e682610e9d565b5f805f8060808587031215611085575f80fd5b61108e85610e9d565b935061109c60208601610e9d565b925060408501359150606085013567ffffffffffffffff8111156110be575f80fd5b6110ca87828801610f7d565b91505092959194509250565b5f80604083850312156110e7575f80fd5b6110f083610e9d565b91506110fe60208401610e9d565b90509250929050565b600181811c9082168061111b57607f821691505b60208210810361113957634e487b7160e01b5f52602260045260245ffd5b50919050565b6001600160a01b03858116825284166020820152604081018390526080606082018190525f9061117190830184610e48565b9695505050505050565b5f6020828403121561118b575f80fd5b81516105e681610e15565b8082018082111561051f57634e487b7160e01b5f52601160045260245ffd5b60018060a01b0384168152826020820152606060408201525f6111db6060830184610e48565b9594505050505056fea264697066735822122050f441983099e541370447c9b748706deb3fe540687e16e968b3dcbeabb46b2764736f6c63430008180033",
  "linkReferences": {},
  "deployedLinkReferences": {}
}