{
  "_format": "hh-sol-artifact-1",
  "contractName": "$AddressArraysMock",
  "sourceName": "contracts-exposed/mocks/ArraysMock.sol",
  "abi": [
    {
      "inputs": [
        {
          "internalType": "address[]",
          "name": "array",
          "type": "address[]"
        }
      ],
      "stateMutability": "payable",
      "type": "constructor"
    },
    {
      "inputs": [],
      "name": "__hh_exposed_bytecode_marker",
      "outputs": [
        {
          "internalType": "bytes32",
          "name": "",
          "type": "bytes32"
        }
      ],
      "stateMutability": "view",
      "type": "function"
    },
    {
      "inputs": [],
      "name": "length",
      "outputs": [
        {
          "internalType": "uint256",
          "name": "",
          "type": "uint256"
        }
      ],
      "stateMutability": "view",
      "type": "function"
    },
    {
      "inputs": [
        {
          "internalType": "address[]",
          "name": "array",
          "type": "address[]"
        }
      ],
      "name": "sort",
      "outputs": [
        {
          "internalType": "address[]",
          "name": "",
          "type": "address[]"
        }
      ],
      "stateMutability": "pure",
      "type": "function"
    },
    {
      "inputs": [
        {
          "internalType": "address[]",
          "name": "array",
          "type": "address[]"
        }
      ],
      "name": "sortReverse",
      "outputs": [
        {
          "internalType": "address[]",
          "name": "",
          "type": "address[]"
        }
      ],
      "stateMutability": "pure",
      "type": "function"
    },
    {
      "inputs": [
        {
          "internalType": "uint256",
          "name": "pos",
          "type": "uint256"
        }
      ],
      "name": "unsafeAccess",
      "outputs": [
        {
          "internalType": "address",
          "name": "",
          "type": "address"
        }
      ],
      "stateMutability": "view",
      "type": "function"
    },
    {
      "inputs": [
        {
          "internalType": "uint256",
          "name": "newLength",
          "type": "uint256"
        }
      ],
      "name": "unsafeSetLength",
      "outputs": [],
      "stateMutability": "nonpayable",
      "type": "function"
    },
    {
      "stateMutability": "payable",
      "type": "receive"
    }
  ],
  "bytecode": "0x60806040526040516105e63803806105e6833981016040819052610022916100e4565b80518190610036905f90602084019061003e565b5050506101a3565b828054828255905f5260205f20908101928215610091579160200282015b8281111561009157825182546001600160a01b0319166001600160a01b0390911617825560209092019160019091019061005c565b5061009d9291506100a1565b5090565b5b8082111561009d575f81556001016100a2565b634e487b7160e01b5f52604160045260245ffd5b80516001600160a01b03811681146100df575f80fd5b919050565b5f60208083850312156100f5575f80fd5b82516001600160401b038082111561010b575f80fd5b818501915085601f83011261011e575f80fd5b815181811115610130576101306100b5565b8060051b604051601f19603f83011681018181108582111715610155576101556100b5565b604052918252848201925083810185019188831115610172575f80fd5b938501935b8285101561019757610188856100c9565b84529385019392850192610177565b98975050505050505050565b610436806101b05f395ff3fe608060405260043610610057575f3560e01c8063128424a7146100625780631f7b6d3214610097578063342db739146100b457806340aa934d146100d957806346d1dbac14610110578063e9fdbeba1461012f575f80fd5b3661005e57005b5f80fd5b34801561006d575f80fd5b5061008161007c3660046102dd565b610150565b60405161008e919061039d565b60405180910390f35b3480156100a2575f80fd5b505f545b60405190815260200161008e565b3480156100bf575f80fd5b506100a66e1a185c991a185d0b595e1c1bdcd959608a1b81565b3480156100e4575f80fd5b506100f86100f33660046103e9565b610161565b6040516001600160a01b03909116815260200161008e565b34801561011b575f80fd5b5061008161012a3660046102dd565b61017c565b34801561013a575f80fd5b5061014e6101493660046103e9565b61018a565b005b606061015b82610196565b92915050565b5f61016c81836101ab565b546001600160a01b031692915050565b606061015b826101d26101e3565b6101935f829055565b50565b60606101a4826101f76101fb565b5090919050565b5f826101ca6101c7846101c3845f9081526020902090565b0190565b90565b949350505050565b6001600160a01b0390811691161190565b60606101ef83836101fb565b509192915050565b1190565b60606101a46020840161020d85610213565b8461022a565b5f81516020026102238360200190565b0192915050565b6040838303101561023a57505050565b5f610243845190565b905083602081015b848110156102855761026861025e825190565b848663ffffffff16565b1561027d576020919091018051825182528252905b60200161024b565b50845181518652815261029985828561022a565b6102a781602001858561022a565b5050505050565b634e487b7160e01b5f52604160045260245ffd5b80356001600160a01b03811681146102d8575f80fd5b919050565b5f60208083850312156102ee575f80fd5b823567ffffffffffffffff80821115610305575f80fd5b818501915085601f830112610318575f80fd5b81358181111561032a5761032a6102ae565b8060051b604051601f19603f8301168101818110858211171561034f5761034f6102ae565b60405291825284820192508381018501918883111561036c575f80fd5b938501935b8285101561039157610382856102c2565b84529385019392850192610371565b98975050505050505050565b602080825282518282018190525f9190848201906040850190845b818110156103dd5783516001600160a01b0316835292840192918401916001016103b8565b50909695505050505050565b5f602082840312156103f9575f80fd5b503591905056fea26469706673582212205c81329596f174c4eb09c074fd0991d6a9c6351fa1984c938990469f6fdb939464736f6c63430008180033",
  "linkReferences": {},
  "deployedLinkReferences": {}
}