{
  "_format": "hh-sol-artifact-1",
  "contractName": "$Bytes32ArraysMock",
  "sourceName": "contracts-exposed/mocks/ArraysMock.sol",
  "abi": [
    {
      "inputs": [
        {
          "internalType": "bytes32[]",
          "name": "array",
          "type": "bytes32[]"
        }
      ],
      "stateMutability": "payable",
      "type": "constructor"
    },
    {
      "inputs": [],
      "name": "__hh_exposed_bytecode_marker",
      "outputs": [
        {
          "internalType": "bytes32",
          "name": "",
          "type": "bytes32"
        }
      ],
      "stateMutability": "view",
      "type": "function"
    },
    {
      "inputs": [],
      "name": "length",
      "outputs": [
        {
          "internalType": "uint256",
          "name": "",
          "type": "uint256"
        }
      ],
      "stateMutability": "view",
      "type": "function"
    },
    {
      "inputs": [
        {
          "internalType": "bytes32[]",
          "name": "array",
          "type": "bytes32[]"
        }
      ],
      "name": "sort",
      "outputs": [
        {
          "internalType": "bytes32[]",
          "name": "",
          "type": "bytes32[]"
        }
      ],
      "stateMutability": "pure",
      "type": "function"
    },
    {
      "inputs": [
        {
          "internalType": "bytes32[]",
          "name": "array",
          "type": "bytes32[]"
        }
      ],
      "name": "sortReverse",
      "outputs": [
        {
          "internalType": "bytes32[]",
          "name": "",
          "type": "bytes32[]"
        }
      ],
      "stateMutability": "pure",
      "type": "function"
    },
    {
      "inputs": [
        {
          "internalType": "uint256",
          "name": "pos",
          "type": "uint256"
        }
      ],
      "name": "unsafeAccess",
      "outputs": [
        {
          "internalType": "bytes32",
          "name": "",
          "type": "bytes32"
        }
      ],
      "stateMutability": "view",
      "type": "function"
    },
    {
      "inputs": [
        {
          "internalType": "uint256",
          "name": "newLength",
          "type": "uint256"
        }
      ],
      "name": "unsafeSetLength",
      "outputs": [],
      "stateMutability": "nonpayable",
      "type": "function"
    },
    {
      "stateMutability": "payable",
      "type": "receive"
    }
  ],
  "bytecode": "0x608060405260405161054d38038061054d833981016040819052610022916100af565b80518190610036905f90602084019061003e565b505050610167565b828054828255905f5260205f20908101928215610077579160200282015b8281111561007757825182559160200191906001019061005c565b50610083929150610087565b5090565b5b80821115610083575f8155600101610088565b634e487b7160e01b5f52604160045260245ffd5b5f60208083850312156100c0575f80fd5b82516001600160401b03808211156100d6575f80fd5b818501915085601f8301126100e9575f80fd5b8151818111156100fb576100fb61009b565b8060051b604051601f19603f830116810181811085821117156101205761012061009b565b60405291825284820192508381018501918883111561013d575f80fd5b938501935b8285101561015b57845184529385019392850192610142565b98975050505050505050565b6103d9806101745f395ff3fe608060405260043610610057575f3560e01c80631f7b6d3214610062578063216ee65514610084578063342db739146100b057806340aa934d146100d55780638ea613b7146100f4578063e9fdbeba14610113575f80fd5b3661005e57005b5f80fd5b34801561006d575f80fd5b505f545b6040519081526020015b60405180910390f35b34801561008f575f80fd5b506100a361009e366004610290565b610134565b60405161007b9190610349565b3480156100bb575f80fd5b506100716e1a185c991a185d0b595e1c1bdcd959608a1b81565b3480156100e0575f80fd5b506100716100ef36600461038c565b610148565b3480156100ff575f80fd5b506100a361010e366004610290565b61015a565b34801561011e575f80fd5b5061013261012d36600461038c565b610165565b005b606061014282610171610175565b92915050565b5f6101538183610189565b5492915050565b6060610142826101b0565b61016e5f829055565b50565b1090565b606061018183836101c5565b509192915050565b5f826101a86101a5846101a1845f9081526020902090565b0190565b90565b949350505050565b60606101be826101dd6101c5565b5090919050565b60606101be602084016101d7856101e1565b846101f8565b1190565b5f81516020026101f18360200190565b0192915050565b6040838303101561020857505050565b5f610211845190565b905083602081015b848110156102535761023661022c825190565b848663ffffffff16565b1561024b576020919091018051825182528252905b602001610219565b5084518151865281526102678582856101f8565b6102758160200185856101f8565b5050505050565b634e487b7160e01b5f52604160045260245ffd5b5f60208083850312156102a1575f80fd5b823567ffffffffffffffff808211156102b8575f80fd5b818501915085601f8301126102cb575f80fd5b8135818111156102dd576102dd61027c565b8060051b604051601f19603f830116810181811085821117156103025761030261027c565b60405291825284820192508381018501918883111561031f575f80fd5b938501935b8285101561033d57843584529385019392850192610324565b98975050505050505050565b602080825282518282018190525f9190848201906040850190845b8181101561038057835183529284019291840191600101610364565b50909695505050505050565b5f6020828403121561039c575f80fd5b503591905056fea264697066735822122057362a6c6914e96e9e587240d90b6bdc0cdee03328f2e7ba3975b85557334a7d64736f6c63430008180033",
  "linkReferences": {},
  "deployedLinkReferences": {}
}