{
  "_format": "hh-sol-artifact-1",
  "contractName": "$Uint256ArraysMock",
  "sourceName": "contracts-exposed/mocks/ArraysMock.sol",
  "abi": [
    {
      "inputs": [
        {
          "internalType": "uint256[]",
          "name": "array",
          "type": "uint256[]"
        }
      ],
      "stateMutability": "payable",
      "type": "constructor"
    },
    {
      "inputs": [],
      "name": "__hh_exposed_bytecode_marker",
      "outputs": [
        {
          "internalType": "bytes32",
          "name": "",
          "type": "bytes32"
        }
      ],
      "stateMutability": "view",
      "type": "function"
    },
    {
      "inputs": [
        {
          "internalType": "uint256",
          "name": "value",
          "type": "uint256"
        }
      ],
      "name": "findUpperBound",
      "outputs": [
        {
          "internalType": "uint256",
          "name": "",
          "type": "uint256"
        }
      ],
      "stateMutability": "view",
      "type": "function"
    },
    {
      "inputs": [],
      "name": "length",
      "outputs": [
        {
          "internalType": "uint256",
          "name": "",
          "type": "uint256"
        }
      ],
      "stateMutability": "view",
      "type": "function"
    },
    {
      "inputs": [
        {
          "internalType": "uint256",
          "name": "value",
          "type": "uint256"
        }
      ],
      "name": "lowerBound",
      "outputs": [
        {
          "internalType": "uint256",
          "name": "",
          "type": "uint256"
        }
      ],
      "stateMutability": "view",
      "type": "function"
    },
    {
      "inputs": [
        {
          "internalType": "uint256[]",
          "name": "array",
          "type": "uint256[]"
        },
        {
          "internalType": "uint256",
          "name": "value",
          "type": "uint256"
        }
      ],
      "name": "lowerBoundMemory",
      "outputs": [
        {
          "internalType": "uint256",
          "name": "",
          "type": "uint256"
        }
      ],
      "stateMutability": "pure",
      "type": "function"
    },
    {
      "inputs": [
        {
          "internalType": "uint256[]",
          "name": "array",
          "type": "uint256[]"
        }
      ],
      "name": "sort",
      "outputs": [
        {
          "internalType": "uint256[]",
          "name": "",
          "type": "uint256[]"
        }
      ],
      "stateMutability": "pure",
      "type": "function"
    },
    {
      "inputs": [
        {
          "internalType": "uint256[]",
          "name": "array",
          "type": "uint256[]"
        }
      ],
      "name": "sortReverse",
      "outputs": [
        {
          "internalType": "uint256[]",
          "name": "",
          "type": "uint256[]"
        }
      ],
      "stateMutability": "pure",
      "type": "function"
    },
    {
      "inputs": [
        {
          "internalType": "uint256",
          "name": "pos",
          "type": "uint256"
        }
      ],
      "name": "unsafeAccess",
      "outputs": [
        {
          "internalType": "uint256",
          "name": "",
          "type": "uint256"
        }
      ],
      "stateMutability": "view",
      "type": "function"
    },
    {
      "inputs": [
        {
          "internalType": "uint256",
          "name": "newLength",
          "type": "uint256"
        }
      ],
      "name": "unsafeSetLength",
      "outputs": [],
      "stateMutability": "nonpayable",
      "type": "function"
    },
    {
      "inputs": [
        {
          "internalType": "uint256",
          "name": "value",
          "type": "uint256"
        }
      ],
      "name": "upperBound",
      "outputs": [
        {
          "internalType": "uint256",
          "name": "",
          "type": "uint256"
        }
      ],
      "stateMutability": "view",
      "type": "function"
    },
    {
      "inputs": [
        {
          "internalType": "uint256[]",
          "name": "array",
          "type": "uint256[]"
        },
        {
          "internalType": "uint256",
          "name": "value",
          "type": "uint256"
        }
      ],
      "name": "upperBoundMemory",
      "outputs": [
        {
          "internalType": "uint256",
          "name": "",
          "type": "uint256"
        }
      ],
      "stateMutability": "pure",
      "type": "function"
    },
    {
      "stateMutability": "payable",
      "type": "receive"
    }
  ],
  "bytecode": "0x6080604052604051610910380380610910833981016040819052610022916100af565b80518190610036905f90602084019061003e565b505050610167565b828054828255905f5260205f20908101928215610077579160200282015b8281111561007757825182559160200191906001019061005c565b50610083929150610087565b5090565b5b80821115610083575f8155600101610088565b634e487b7160e01b5f52604160045260245ffd5b5f60208083850312156100c0575f80fd5b82516001600160401b03808211156100d6575f80fd5b818501915085601f8301126100e9575f80fd5b8151818111156100fb576100fb61009b565b8060051b604051601f19603f830116810181811085821117156101205761012061009b565b60405291825284820192508381018501918883111561013d575f80fd5b938501935b8285101561015b57845184529385019392850192610142565b98975050505050505050565b61079c806101745f395ff3fe60806040526004361061009d575f3560e01c8063342db73911610062578063342db7391461015757806340aa934d1461017c57806374380a781461019b5780639ec8b026146101ba578063e9fdbeba146101d9578063ed440017146101fa575f80fd5b8063054615f6146100a85780631f7b6d32146100da578063206ce879146100ed578063233c1d6a1461011957806333e3a58a14610138575f80fd5b366100a457005b5f80fd5b3480156100b3575f80fd5b506100c76100c236600461063f565b610219565b6040519081526020015b60405180910390f35b3480156100e5575f80fd5b505f546100c7565b3480156100f8575f80fd5b5061010c610107366004610681565b61022d565b6040516100d191906106b3565b348015610124575f80fd5b506100c76101333660046106f6565b61023b565b348015610143575f80fd5b506100c76101523660046106f6565b610246565b348015610162575f80fd5b506100c76e1a185c991a185d0b595e1c1bdcd959608a1b81565b348015610187575f80fd5b506100c76101963660046106f6565b610251565b3480156101a6575f80fd5b506100c76101b53660046106f6565b610263565b3480156101c5575f80fd5b5061010c6101d4366004610681565b61026e565b3480156101e4575f80fd5b506101f86101f33660046106f6565b610279565b005b348015610205575f80fd5b506100c761021436600461063f565b610285565b5f6102248383610290565b90505b92915050565b6060610227826102ea6102ee565b5f610227818361030d565b5f6102278183610360565b5f61025c81836103fd565b5492915050565b5f6102278183610424565b606061022782610477565b6102825f829055565b50565b5f6102248383610485565b81515f9081908082036102a7575f92505050610227565b808210156102e2575f6102ba83836104d7565b6020808202880101519091508511156102d8578060010192506102dc565b8091505b506102a7565b509392505050565b1090565b606061030660208401610300856104f1565b84610508565b5090919050565b81545f908190808203610324575f92505050610227565b808210156102e2575f61033783836104d7565b90508461034487836103fd565b5411156103535780915061035a565b8060010192505b50610324565b81545f908190808203610377575f92505050610227565b808210156103ba575f61038a83836104d7565b90508461039787836103fd565b5411156103a6578091506103b4565b6103b1816001610721565b92505b50610377565b5f821180156103dc5750836103d9866103d4600186610734565b6103fd565b54145b156103f5576103ec600183610734565b92505050610227565b509050610227565b5f8261041c61041984610415845f9081526020902090565b0190565b90565b949350505050565b81545f90819080820361043b575f92505050610227565b808210156102e2575f61044e83836104d7565b90508461045b87836103fd565b54101561046d57806001019250610471565b8091505b5061043b565b60606103068261058c6102ee565b81515f90819080820361049c575f92505050610227565b808210156102e2575f6104af83836104d7565b6020808202880101519091508510156104ca578091506104d1565b8060010192505b5061049c565b5f6104e56002848418610747565b61022490848416610721565b5f81516020026105018360200190565b0192915050565b6040838303101561051857505050565b5f610521845190565b905083602081015b848110156105635761054661053c825190565b848663ffffffff16565b1561055b576020919091018051825182528252905b602001610529565b508451815186528152610577858285610508565b610585816020018585610508565b5050505050565b1190565b634e487b7160e01b5f52604160045260245ffd5b5f82601f8301126105b3575f80fd5b8135602067ffffffffffffffff808311156105d0576105d0610590565b8260051b604051601f19603f830116810181811084821117156105f5576105f5610590565b6040529384526020818701810194908101925087851115610614575f80fd5b6020870191505b848210156106345781358352918301919083019061061b565b979650505050505050565b5f8060408385031215610650575f80fd5b823567ffffffffffffffff811115610666575f80fd5b610672858286016105a4565b95602094909401359450505050565b5f60208284031215610691575f80fd5b813567ffffffffffffffff8111156106a7575f80fd5b61041c848285016105a4565b602080825282518282018190525f9190848201906040850190845b818110156106ea578351835292840192918401916001016106ce565b50909695505050505050565b5f60208284031215610706575f80fd5b5035919050565b634e487b7160e01b5f52601160045260245ffd5b808201808211156102275761022761070d565b818103818111156102275761022761070d565b5f8261076157634e487b7160e01b5f52601260045260245ffd5b50049056fea2646970667358221220d6c3944c444006efe3349e145196986cd782562b29fc785afadf7c2b75d1687e64736f6c63430008180033",
  "linkReferences": {},
  "deployedLinkReferences": {}
}