{
  "_format": "hh-sol-artifact-1",
  "contractName": "$Base64",
  "sourceName": "contracts-exposed/utils/Base64.sol",
  "abi": [
    {
      "inputs": [],
      "stateMutability": "payable",
      "type": "constructor"
    },
    {
      "inputs": [],
      "name": "$_TABLE",
      "outputs": [
        {
          "internalType": "string",
          "name": "",
          "type": "string"
        }
      ],
      "stateMutability": "pure",
      "type": "function"
    },
    {
      "inputs": [],
      "name": "$_TABLE_URL",
      "outputs": [
        {
          "internalType": "string",
          "name": "",
          "type": "string"
        }
      ],
      "stateMutability": "pure",
      "type": "function"
    },
    {
      "inputs": [
        {
          "internalType": "bytes",
          "name": "data",
          "type": "bytes"
        }
      ],
      "name": "$encode",
      "outputs": [
        {
          "internalType": "string",
          "name": "ret0",
          "type": "string"
        }
      ],
      "stateMutability": "pure",
      "type": "function"
    },
    {
      "inputs": [
        {
          "internalType": "bytes",
          "name": "data",
          "type": "bytes"
        }
      ],
      "name": "$encodeURL",
      "outputs": [
        {
          "internalType": "string",
          "name": "ret0",
          "type": "string"
        }
      ],
      "stateMutability": "pure",
      "type": "function"
    },
    {
      "inputs": [],
      "name": "__hh_exposed_bytecode_marker",
      "outputs": [
        {
          "internalType": "bytes32",
          "name": "",
          "type": "bytes32"
        }
      ],
      "stateMutability": "view",
      "type": "function"
    },
    {
      "stateMutability": "payable",
      "type": "receive"
    }
  ],
  "bytecode": "0x6080604052610574806100115f395ff3fe60806040526004361061004c575f3560e01c80632cf1b5e314610057578063342db739146100815780633814edc8146100b457806398c5a6e4146100d3578063b853a4e2146100e7575f80fd5b3661005357005b5f80fd5b348015610062575f80fd5b5061006b610106565b6040516100789190610395565b60405180910390f35b34801561008c575f80fd5b506100a66e1a185c991a185d0b595e1c1bdcd959608a1b81565b604051908152602001610078565b3480156100bf575f80fd5b5061006b6100ce3660046103e1565b610126565b3480156100de575f80fd5b5061006b61016d565b3480156100f2575f80fd5b5061006b6101013660046103e1565b61018d565b60606040518060600160405280604081526020016104ff60409139905090565b606061016683838080601f0160208091040260200160405190810160405280939291908181526020018383808284375f920191909152506101cd92505050565b9392505050565b60606040518060600160405280604081526020016104bf60409139905090565b606061016683838080601f0160208091040260200160405190810160405280939291908181526020018383808284375f920191909152506101f892505050565b60606101f2826040518060600160405280604081526020016104bf604091395f61021a565b92915050565b60606101f2826040518060600160405280604081526020016104ff6040913960015b606083515f03610238575060408051602081019091525f8152610166565b5f826102685760038551600461024e9190610461565b610259906002610478565b610263919061048b565b61028d565b6003855160026102789190610478565b610282919061048b565b61028d906004610461565b90505f8167ffffffffffffffff8111156102a9576102a96104aa565b6040519080825280601f01601f1916602001820160405280156102d3576020820181803683370190505b509050600185016020820187885189016020810180515f82525b82841015610348576003840193508351603f8160121c168701518653600186019550603f81600c1c168701518653600186019550603f8160061c168701518653600186019550603f81168701518653506001850194506102ed565b9052505085156103895760038851066001811461036c576002811461037f57610387565b603d6001830353603d6002830353610387565b603d60018303535b505b50909695505050505050565b5f602080835283518060208501525f5b818110156103c1578581018301518582016040015282016103a5565b505f604082860101526040601f19601f8301168501019250505092915050565b5f80602083850312156103f2575f80fd5b823567ffffffffffffffff80821115610409575f80fd5b818501915085601f83011261041c575f80fd5b81358181111561042a575f80fd5b86602082850101111561043b575f80fd5b60209290920196919550909350505050565b634e487b7160e01b5f52601160045260245ffd5b80820281158282048414176101f2576101f261044d565b808201808211156101f2576101f261044d565b5f826104a557634e487b7160e01b5f52601260045260245ffd5b500490565b634e487b7160e01b5f52604160045260245ffdfe4142434445464748494a4b4c4d4e4f505152535455565758595a6162636465666768696a6b6c6d6e6f707172737475767778797a303132333435363738392d5f4142434445464748494a4b4c4d4e4f505152535455565758595a6162636465666768696a6b6c6d6e6f707172737475767778797a303132333435363738392b2fa264697066735822122074454b7fad580bc0a3f17482f370a4340bbba84753b7c5afd5d9de664c01c3b764736f6c63430008180033",
  "linkReferences": {},
  "deployedLinkReferences": {}
}