{
  "_format": "hh-sol-artifact-1",
  "contractName": "$TransparentUpgradeableProxy",
  "sourceName": "contracts-exposed/proxy/transparent/TransparentUpgradeableProxy.sol",
  "abi": [
    {
      "inputs": [
        {
          "internalType": "address",
          "name": "_logic",
          "type": "address"
        },
        {
          "internalType": "address",
          "name": "initialOwner",
          "type": "address"
        },
        {
          "internalType": "bytes",
          "name": "_data",
          "type": "bytes"
        }
      ],
      "stateMutability": "payable",
      "type": "constructor"
    },
    {
      "inputs": [
        {
          "internalType": "address",
          "name": "target",
          "type": "address"
        }
      ],
      "name": "AddressEmptyCode",
      "type": "error"
    },
    {
      "inputs": [
        {
          "internalType": "address",
          "name": "admin",
          "type": "address"
        }
      ],
      "name": "ERC1967InvalidAdmin",
      "type": "error"
    },
    {
      "inputs": [
        {
          "internalType": "address",
          "name": "implementation",
          "type": "address"
        }
      ],
      "name": "ERC1967InvalidImplementation",
      "type": "error"
    },
    {
      "inputs": [],
      "name": "ERC1967NonPayable",
      "type": "error"
    },
    {
      "inputs": [],
      "name": "FailedCall",
      "type": "error"
    },
    {
      "inputs": [],
      "name": "ProxyDeniedAdminAccess",
      "type": "error"
    },
    {
      "anonymous": false,
      "inputs": [
        {
          "indexed": false,
          "internalType": "address",
          "name": "previousAdmin",
          "type": "address"
        },
        {
          "indexed": false,
          "internalType": "address",
          "name": "newAdmin",
          "type": "address"
        }
      ],
      "name": "AdminChanged",
      "type": "event"
    },
    {
      "anonymous": false,
      "inputs": [
        {
          "indexed": true,
          "internalType": "address",
          "name": "implementation",
          "type": "address"
        }
      ],
      "name": "Upgraded",
      "type": "event"
    },
    {
      "stateMutability": "payable",
      "type": "fallback"
    },
    {
      "inputs": [
        {
          "internalType": "address",
          "name": "implementation",
          "type": "address"
        }
      ],
      "name": "$_delegate",
      "outputs": [],
      "stateMutability": "nonpayable",
      "type": "function"
    },
    {
      "inputs": [],
      "name": "$_fallback",
      "outputs": [],
      "stateMutability": "nonpayable",
      "type": "function"
    },
    {
      "inputs": [],
      "name": "$_implementation",
      "outputs": [
        {
          "internalType": "address",
          "name": "ret0",
          "type": "address"
        }
      ],
      "stateMutability": "view",
      "type": "function"
    },
    {
      "inputs": [],
      "name": "$_proxyAdmin",
      "outputs": [
        {
          "internalType": "address",
          "name": "ret0",
          "type": "address"
        }
      ],
      "stateMutability": "view",
      "type": "function"
    },
    {
      "inputs": [],
      "name": "__hh_exposed_bytecode_marker",
      "outputs": [
        {
          "internalType": "bytes32",
          "name": "",
          "type": "bytes32"
        }
      ],
      "stateMutability": "view",
      "type": "function"
    },
    {
      "stateMutability": "payable",
      "type": "receive"
    }
  ],
  "bytecode": "0x60a060405260405162000fb738038062000fb78339810160408190526200002691620003c2565b82828282816200003782826200009f565b505081604051620000489062000360565b6001600160a01b039091168152602001604051809103905ff08015801562000072573d5f803e3d5ffd5b506001600160a01b0316608052620000936200008d60805190565b62000104565b505050505050620004b9565b620000aa8262000175565b6040516001600160a01b038316907fbc7cd75a20ee27fd9adebab32041f755214dbc6bffa90cc0225b39da2e5c2d3b905f90a2805115620000f657620000f18282620001f4565b505050565b620001006200026d565b5050565b7f7e644d79422f17c01e4894b5f4f588d331ebfa28653d42ae832dc59e38c9798f620001455f8051602062000f97833981519152546001600160a01b031690565b604080516001600160a01b03928316815291841660208301520160405180910390a162000172816200028f565b50565b806001600160a01b03163b5f03620001b057604051634c9c8ce360e01b81526001600160a01b03821660048201526024015b60405180910390fd5b807f360894a13ba1a3210667c828492db98dca3e2076cc3735a920a3ca505d382bbc5b80546001600160a01b0319166001600160a01b039290921691909117905550565b60605f80846001600160a01b0316846040516200021291906200049c565b5f60405180830381855af49150503d805f81146200024c576040519150601f19603f3d011682016040523d82523d5f602084013e62000251565b606091505b50909250905062000264858383620002d0565b95945050505050565b34156200028d5760405163b398979f60e01b815260040160405180910390fd5b565b6001600160a01b038116620002ba57604051633173bdd160e11b81525f6004820152602401620001a7565b805f8051602062000f97833981519152620001d3565b606082620002e957620002e38262000336565b6200032f565b81511580156200030157506001600160a01b0384163b155b156200032c57604051639996b31560e01b81526001600160a01b0385166004820152602401620001a7565b50805b9392505050565b805115620003475780518082602001fd5b60405163d6bda27560e01b815260040160405180910390fd5b6104fc8062000a9b83390190565b80516001600160a01b038116811462000385575f80fd5b919050565b634e487b7160e01b5f52604160045260245ffd5b5f5b83811015620003ba578181015183820152602001620003a0565b50505f910152565b5f805f60608486031215620003d5575f80fd5b620003e0846200036e565b9250620003f0602085016200036e565b60408501519092506001600160401b03808211156200040d575f80fd5b818601915086601f83011262000421575f80fd5b8151818111156200043657620004366200038a565b604051601f8201601f19908116603f011681019083821181831017156200046157620004616200038a565b816040528281528960208487010111156200047a575f80fd5b6200048d8360208301602088016200039e565b80955050505050509250925092565b5f8251620004af8184602087016200039e565b9190910192915050565b6080516105c3620004d85f395f818160d0015261012901526105c35ff3fe60806040526004361061004d575f3560e01c8063342db7391461005e578063515f8df014610096578063ba781f92146100c2578063ee8d6399146100f4578063f49367aa1461010857610054565b3661005457005b61005c610127565b005b348015610069575f80fd5b506100836e1a185c991a185d0b595e1c1bdcd959608a1b81565b6040519081526020015b60405180910390f35b3480156100a1575f80fd5b506100aa61019b565b6040516001600160a01b03909116815260200161008d565b3480156100cd575f80fd5b507f00000000000000000000000000000000000000000000000000000000000000006100aa565b3480156100ff575f80fd5b5061005c6101a9565b348015610113575f80fd5b5061005c61012236600461044d565b6101b1565b7f00000000000000000000000000000000000000000000000000000000000000006001600160a01b03163303610193575f356001600160e01b03191663278f794360e11b14610189576040516334ad5dbb60e21b815260040160405180910390fd5b6101916101bd565b565b6101916101eb565b5f6101a46101fb565b905090565b610191610127565b6101ba8161022d565b50565b5f806101cc3660048184610468565b8101906101d991906104a3565b915091506101e7828261024b565b5050565b6101916101f66101fb565b61022d565b5f6101a47f360894a13ba1a3210667c828492db98dca3e2076cc3735a920a3ca505d382bbc546001600160a01b031690565b365f80375f80365f845af43d5f803e808015610247573d5ff35b3d5ffd5b610254826102a5565b6040516001600160a01b038316907fbc7cd75a20ee27fd9adebab32041f755214dbc6bffa90cc0225b39da2e5c2d3b905f90a280511561029d576102988282610320565b505050565b6101e7610392565b806001600160a01b03163b5f036102df57604051634c9c8ce360e01b81526001600160a01b03821660048201526024015b60405180910390fd5b7f360894a13ba1a3210667c828492db98dca3e2076cc3735a920a3ca505d382bbc80546001600160a01b0319166001600160a01b0392909216919091179055565b60605f80846001600160a01b03168460405161033c9190610561565b5f60405180830381855af49150503d805f8114610374576040519150601f19603f3d011682016040523d82523d5f602084013e610379565b606091505b50915091506103898583836103b1565b95945050505050565b34156101915760405163b398979f60e01b815260040160405180910390fd5b6060826103c6576103c182610410565b610409565b81511580156103dd57506001600160a01b0384163b155b1561040657604051639996b31560e01b81526001600160a01b03851660048201526024016102d6565b50805b9392505050565b8051156104205780518082602001fd5b60405163d6bda27560e01b815260040160405180910390fd5b6001600160a01b03811681146101ba575f80fd5b5f6020828403121561045d575f80fd5b813561040981610439565b5f8085851115610476575f80fd5b83861115610482575f80fd5b5050820193919092039150565b634e487b7160e01b5f52604160045260245ffd5b5f80604083850312156104b4575f80fd5b82356104bf81610439565b9150602083013567ffffffffffffffff808211156104db575f80fd5b818501915085601f8301126104ee575f80fd5b8135818111156105005761050061048f565b604051601f8201601f19908116603f011681019083821181831017156105285761052861048f565b81604052828152886020848701011115610540575f80fd5b826020860160208301375f6020848301015280955050505050509250929050565b5f82515f5b818110156105805760208186018101518583015201610566565b505f92019182525091905056fea2646970667358221220b81e3b911bcea70202f939de0ee891b9975da827ed5d806e2d9190ab0d3bc52f64736f6c63430008180033608060405234801561000f575f80fd5b506040516104fc3803806104fc83398101604081905261002e916100bb565b806001600160a01b03811661005c57604051631e4fbdf760e01b81525f600482015260240160405180910390fd5b6100658161006c565b50506100e8565b5f80546001600160a01b038381166001600160a01b0319831681178455604051919092169283917f8be0079c531659141344cd1fd0a4f28419497f9722a3daafe3b4186f6b6457e09190a35050565b5f602082840312156100cb575f80fd5b81516001600160a01b03811681146100e1575f80fd5b9392505050565b610407806100f55f395ff3fe608060405260043610610049575f3560e01c8063715018a61461004d5780638da5cb5b146100635780639623609d1461008e578063ad3cb1cc146100a1578063f2fde38b146100de575b5f80fd5b348015610058575f80fd5b506100616100fd565b005b34801561006e575f80fd5b505f546040516001600160a01b0390911681526020015b60405180910390f35b61006161009c366004610260565b610110565b3480156100ac575f80fd5b506100d1604051806040016040528060058152602001640352e302e360dc1b81525081565b6040516100859190610372565b3480156100e9575f80fd5b506100616100f836600461038b565b61017b565b6101056101bd565b61010e5f6101e9565b565b6101186101bd565b60405163278f794360e11b81526001600160a01b03841690634f1ef28690349061014890869086906004016103a6565b5f604051808303818588803b15801561015f575f80fd5b505af1158015610171573d5f803e3d5ffd5b5050505050505050565b6101836101bd565b6001600160a01b0381166101b157604051631e4fbdf760e01b81525f60048201526024015b60405180910390fd5b6101ba816101e9565b50565b5f546001600160a01b0316331461010e5760405163118cdaa760e01b81523360048201526024016101a8565b5f80546001600160a01b038381166001600160a01b0319831681178455604051919092169283917f8be0079c531659141344cd1fd0a4f28419497f9722a3daafe3b4186f6b6457e09190a35050565b6001600160a01b03811681146101ba575f80fd5b634e487b7160e01b5f52604160045260245ffd5b5f805f60608486031215610272575f80fd5b833561027d81610238565b9250602084013561028d81610238565b9150604084013567ffffffffffffffff808211156102a9575f80fd5b818601915086601f8301126102bc575f80fd5b8135818111156102ce576102ce61024c565b604051601f8201601f19908116603f011681019083821181831017156102f6576102f661024c565b8160405282815289602084870101111561030e575f80fd5b826020860160208301375f6020848301015280955050505050509250925092565b5f81518084525f5b8181101561035357602081850181015186830182015201610337565b505f602082860101526020601f19601f83011685010191505092915050565b602081525f610384602083018461032f565b9392505050565b5f6020828403121561039b575f80fd5b813561038481610238565b6001600160a01b03831681526040602082018190525f906103c99083018461032f565b94935050505056fea2646970667358221220eb676e43ce1be97bf36bf062f97dec09c13eb99be790e2a2c89665823df069dd64736f6c63430008180033b53127684a568b3173ae13b9f8a6016e243e63b6e8ee1178d6a717850b5d6103",
  "linkReferences": {},
  "deployedLinkReferences": {}
}