{
  "_format": "hh-sol-artifact-1",
  "contractName": "$AccessManagedERC20Mint",
  "sourceName": "contracts-exposed/mocks/docs/access-control/AccessManagedERC20MintBase.sol",
  "abi": [
    {
      "inputs": [
        {
          "internalType": "address",
          "name": "manager",
          "type": "address"
        }
      ],
      "stateMutability": "payable",
      "type": "constructor"
    },
    {
      "inputs": [
        {
          "internalType": "address",
          "name": "authority",
          "type": "address"
        }
      ],
      "name": "AccessManagedInvalidAuthority",
      "type": "error"
    },
    {
      "inputs": [
        {
          "internalType": "address",
          "name": "caller",
          "type": "address"
        },
        {
          "internalType": "uint32",
          "name": "delay",
          "type": "uint32"
        }
      ],
      "name": "AccessManagedRequiredDelay",
      "type": "error"
    },
    {
      "inputs": [
        {
          "internalType": "address",
          "name": "caller",
          "type": "address"
        }
      ],
      "name": "AccessManagedUnauthorized",
      "type": "error"
    },
    {
      "inputs": [
        {
          "internalType": "address",
          "name": "spender",
          "type": "address"
        },
        {
          "internalType": "uint256",
          "name": "allowance",
          "type": "uint256"
        },
        {
          "internalType": "uint256",
          "name": "needed",
          "type": "uint256"
        }
      ],
      "name": "ERC20InsufficientAllowance",
      "type": "error"
    },
    {
      "inputs": [
        {
          "internalType": "address",
          "name": "sender",
          "type": "address"
        },
        {
          "internalType": "uint256",
          "name": "balance",
          "type": "uint256"
        },
        {
          "internalType": "uint256",
          "name": "needed",
          "type": "uint256"
        }
      ],
      "name": "ERC20InsufficientBalance",
      "type": "error"
    },
    {
      "inputs": [
        {
          "internalType": "address",
          "name": "approver",
          "type": "address"
        }
      ],
      "name": "ERC20InvalidApprover",
      "type": "error"
    },
    {
      "inputs": [
        {
          "internalType": "address",
          "name": "receiver",
          "type": "address"
        }
      ],
      "name": "ERC20InvalidReceiver",
      "type": "error"
    },
    {
      "inputs": [
        {
          "internalType": "address",
          "name": "sender",
          "type": "address"
        }
      ],
      "name": "ERC20InvalidSender",
      "type": "error"
    },
    {
      "inputs": [
        {
          "internalType": "address",
          "name": "spender",
          "type": "address"
        }
      ],
      "name": "ERC20InvalidSpender",
      "type": "error"
    },
    {
      "anonymous": false,
      "inputs": [
        {
          "indexed": true,
          "internalType": "address",
          "name": "owner",
          "type": "address"
        },
        {
          "indexed": true,
          "internalType": "address",
          "name": "spender",
          "type": "address"
        },
        {
          "indexed": false,
          "internalType": "uint256",
          "name": "value",
          "type": "uint256"
        }
      ],
      "name": "Approval",
      "type": "event"
    },
    {
      "anonymous": false,
      "inputs": [
        {
          "indexed": false,
          "internalType": "address",
          "name": "authority",
          "type": "address"
        }
      ],
      "name": "AuthorityUpdated",
      "type": "event"
    },
    {
      "anonymous": false,
      "inputs": [
        {
          "indexed": true,
          "internalType": "address",
          "name": "from",
          "type": "address"
        },
        {
          "indexed": true,
          "internalType": "address",
          "name": "to",
          "type": "address"
        },
        {
          "indexed": false,
          "internalType": "uint256",
          "name": "value",
          "type": "uint256"
        }
      ],
      "name": "Transfer",
      "type": "event"
    },
    {
      "inputs": [
        {
          "internalType": "address",
          "name": "owner",
          "type": "address"
        },
        {
          "internalType": "address",
          "name": "spender",
          "type": "address"
        },
        {
          "internalType": "uint256",
          "name": "value",
          "type": "uint256"
        },
        {
          "internalType": "bool",
          "name": "emitEvent",
          "type": "bool"
        }
      ],
      "name": "$_approve",
      "outputs": [],
      "stateMutability": "nonpayable",
      "type": "function"
    },
    {
      "inputs": [
        {
          "internalType": "address",
          "name": "owner",
          "type": "address"
        },
        {
          "internalType": "address",
          "name": "spender",
          "type": "address"
        },
        {
          "internalType": "uint256",
          "name": "value",
          "type": "uint256"
        }
      ],
      "name": "$_approve",
      "outputs": [],
      "stateMutability": "nonpayable",
      "type": "function"
    },
    {
      "inputs": [
        {
          "internalType": "address",
          "name": "account",
          "type": "address"
        },
        {
          "internalType": "uint256",
          "name": "value",
          "type": "uint256"
        }
      ],
      "name": "$_burn",
      "outputs": [],
      "stateMutability": "nonpayable",
      "type": "function"
    },
    {
      "inputs": [
        {
          "internalType": "address",
          "name": "caller",
          "type": "address"
        },
        {
          "internalType": "bytes",
          "name": "data",
          "type": "bytes"
        }
      ],
      "name": "$_checkCanCall",
      "outputs": [],
      "stateMutability": "nonpayable",
      "type": "function"
    },
    {
      "inputs": [],
      "name": "$_contextSuffixLength",
      "outputs": [
        {
          "internalType": "uint256",
          "name": "ret0",
          "type": "uint256"
        }
      ],
      "stateMutability": "view",
      "type": "function"
    },
    {
      "inputs": [
        {
          "internalType": "address",
          "name": "account",
          "type": "address"
        },
        {
          "internalType": "uint256",
          "name": "value",
          "type": "uint256"
        }
      ],
      "name": "$_mint",
      "outputs": [],
      "stateMutability": "nonpayable",
      "type": "function"
    },
    {
      "inputs": [],
      "name": "$_msgData",
      "outputs": [
        {
          "internalType": "bytes",
          "name": "ret0",
          "type": "bytes"
        }
      ],
      "stateMutability": "view",
      "type": "function"
    },
    {
      "inputs": [],
      "name": "$_msgSender",
      "outputs": [
        {
          "internalType": "address",
          "name": "ret0",
          "type": "address"
        }
      ],
      "stateMutability": "view",
      "type": "function"
    },
    {
      "inputs": [
        {
          "internalType": "address",
          "name": "newAuthority",
          "type": "address"
        }
      ],
      "name": "$_setAuthority",
      "outputs": [],
      "stateMutability": "nonpayable",
      "type": "function"
    },
    {
      "inputs": [
        {
          "internalType": "address",
          "name": "owner",
          "type": "address"
        },
        {
          "internalType": "address",
          "name": "spender",
          "type": "address"
        },
        {
          "internalType": "uint256",
          "name": "value",
          "type": "uint256"
        }
      ],
      "name": "$_spendAllowance",
      "outputs": [],
      "stateMutability": "nonpayable",
      "type": "function"
    },
    {
      "inputs": [
        {
          "internalType": "address",
          "name": "from",
          "type": "address"
        },
        {
          "internalType": "address",
          "name": "to",
          "type": "address"
        },
        {
          "internalType": "uint256",
          "name": "value",
          "type": "uint256"
        }
      ],
      "name": "$_transfer",
      "outputs": [],
      "stateMutability": "nonpayable",
      "type": "function"
    },
    {
      "inputs": [
        {
          "internalType": "address",
          "name": "from",
          "type": "address"
        },
        {
          "internalType": "address",
          "name": "to",
          "type": "address"
        },
        {
          "internalType": "uint256",
          "name": "value",
          "type": "uint256"
        }
      ],
      "name": "$_update",
      "outputs": [],
      "stateMutability": "nonpayable",
      "type": "function"
    },
    {
      "inputs": [],
      "name": "__hh_exposed_bytecode_marker",
      "outputs": [
        {
          "internalType": "bytes32",
          "name": "",
          "type": "bytes32"
        }
      ],
      "stateMutability": "view",
      "type": "function"
    },
    {
      "inputs": [
        {
          "internalType": "address",
          "name": "owner",
          "type": "address"
        },
        {
          "internalType": "address",
          "name": "spender",
          "type": "address"
        }
      ],
      "name": "allowance",
      "outputs": [
        {
          "internalType": "uint256",
          "name": "",
          "type": "uint256"
        }
      ],
      "stateMutability": "view",
      "type": "function"
    },
    {
      "inputs": [
        {
          "internalType": "address",
          "name": "spender",
          "type": "address"
        },
        {
          "internalType": "uint256",
          "name": "value",
          "type": "uint256"
        }
      ],
      "name": "approve",
      "outputs": [
        {
          "internalType": "bool",
          "name": "",
          "type": "bool"
        }
      ],
      "stateMutability": "nonpayable",
      "type": "function"
    },
    {
      "inputs": [],
      "name": "authority",
      "outputs": [
        {
          "internalType": "address",
          "name": "",
          "type": "address"
        }
      ],
      "stateMutability": "view",
      "type": "function"
    },
    {
      "inputs": [
        {
          "internalType": "address",
          "name": "account",
          "type": "address"
        }
      ],
      "name": "balanceOf",
      "outputs": [
        {
          "internalType": "uint256",
          "name": "",
          "type": "uint256"
        }
      ],
      "stateMutability": "view",
      "type": "function"
    },
    {
      "inputs": [],
      "name": "decimals",
      "outputs": [
        {
          "internalType": "uint8",
          "name": "",
          "type": "uint8"
        }
      ],
      "stateMutability": "view",
      "type": "function"
    },
    {
      "inputs": [],
      "name": "isConsumingScheduledOp",
      "outputs": [
        {
          "internalType": "bytes4",
          "name": "",
          "type": "bytes4"
        }
      ],
      "stateMutability": "view",
      "type": "function"
    },
    {
      "inputs": [
        {
          "internalType": "address",
          "name": "to",
          "type": "address"
        },
        {
          "internalType": "uint256",
          "name": "amount",
          "type": "uint256"
        }
      ],
      "name": "mint",
      "outputs": [],
      "stateMutability": "nonpayable",
      "type": "function"
    },
    {
      "inputs": [],
      "name": "name",
      "outputs": [
        {
          "internalType": "string",
          "name": "",
          "type": "string"
        }
      ],
      "stateMutability": "view",
      "type": "function"
    },
    {
      "inputs": [
        {
          "internalType": "address",
          "name": "newAuthority",
          "type": "address"
        }
      ],
      "name": "setAuthority",
      "outputs": [],
      "stateMutability": "nonpayable",
      "type": "function"
    },
    {
      "inputs": [],
      "name": "symbol",
      "outputs": [
        {
          "internalType": "string",
          "name": "",
          "type": "string"
        }
      ],
      "stateMutability": "view",
      "type": "function"
    },
    {
      "inputs": [],
      "name": "totalSupply",
      "outputs": [
        {
          "internalType": "uint256",
          "name": "",
          "type": "uint256"
        }
      ],
      "stateMutability": "view",
      "type": "function"
    },
    {
      "inputs": [
        {
          "internalType": "address",
          "name": "to",
          "type": "address"
        },
        {
          "internalType": "uint256",
          "name": "value",
          "type": "uint256"
        }
      ],
      "name": "transfer",
      "outputs": [
        {
          "internalType": "bool",
          "name": "",
          "type": "bool"
        }
      ],
      "stateMutability": "nonpayable",
      "type": "function"
    },
    {
      "inputs": [
        {
          "internalType": "address",
          "name": "from",
          "type": "address"
        },
        {
          "internalType": "address",
          "name": "to",
          "type": "address"
        },
        {
          "internalType": "uint256",
          "name": "value",
          "type": "uint256"
        }
      ],
      "name": "transferFrom",
      "outputs": [
        {
          "internalType": "bool",
          "name": "",
          "type": "bool"
        }
      ],
      "stateMutability": "nonpayable",
      "type": "function"
    },
    {
      "stateMutability": "payable",
      "type": "receive"
    }
  ],
  "bytecode": "0x6080604052604051620012f3380380620012f38339810160408190526200002691620000f5565b80806040518060400160405280600781526020016626bcaa37b5b2b760c91b815250604051806040016040528060038152602001622a25a760e91b8152508160039081620000759190620001c2565b506004620000848282620001c2565b5050506200009881620000a160201b60201c565b5050506200028e565b600580546001600160a01b0319166001600160a01b0383169081179091556040519081527f2f658b440c35314f52658ea8a740e05b284cdc84dc9ae01e891f21b8933e7cad9060200160405180910390a150565b5f6020828403121562000106575f80fd5b81516001600160a01b03811681146200011d575f80fd5b9392505050565b634e487b7160e01b5f52604160045260245ffd5b600181811c908216806200014d57607f821691505b6020821081036200016c57634e487b7160e01b5f52602260045260245ffd5b50919050565b601f821115620001bd57805f5260205f20601f840160051c81016020851015620001995750805b601f840160051c820191505b81811015620001ba575f8155600101620001a5565b50505b505050565b81516001600160401b03811115620001de57620001de62000124565b620001f681620001ef845462000138565b8462000172565b602080601f8311600181146200022c575f8415620002145750858301515b5f19600386901b1c1916600185901b17855562000286565b5f85815260208120601f198616915b828110156200025c578886015182559484019460019091019084016200023b565b50858210156200027a57878501515f19600388901b60f8161c191681555b505060018460011b0185555b505050505050565b611057806200029c5f395ff3fe60806040526004361061017e575f3560e01c806370a08231116100cd578063b2331d7d11610087578063dd62ed3e11610062578063dd62ed3e14610456578063e047838d1461049a578063e94c28c2146104b9578063efb43b07146104d8575f80fd5b8063b2331d7d146103fb578063bf7e214f1461041a578063cc461d6214610437575f80fd5b806370a08231146103295780637a9e5e4b1461035d578063861e3d3d1461037c5780638fb360371461039b57806395d89b41146103c8578063a9059cbb146103dc575f80fd5b8063313ce56711610138578063342db73911610113578063342db739146102b457806340c10f19146102d957806367354a84146102f85780636855a1781461030a575f80fd5b8063313ce5671461026657806332bc74aa1461028157806332cadf3c146102a0575f80fd5b806306fdde031461018957806308fd0171146101b3578063095ea7b3146101d457806318160ddd1461020357806323b872dd146102215780632904df2914610240575f80fd5b3661018557005b5f80fd5b348015610194575f80fd5b5061019d6104f7565b6040516101aa9190610d0a565b60405180910390f35b3480156101be575f80fd5b506101d26101cd366004610d3e565b610587565b005b3480156101df575f80fd5b506101f36101ee366004610d57565b610593565b60405190151581526020016101aa565b34801561020e575f80fd5b506002545b6040519081526020016101aa565b34801561022c575f80fd5b506101f361023b366004610d7f565b6105ac565b34801561024b575f80fd5b50335b6040516001600160a01b0390911681526020016101aa565b348015610271575f80fd5b50604051601281526020016101aa565b34801561028c575f80fd5b506101d261029b366004610dc5565b6105cf565b3480156102ab575f80fd5b5061019d6105e1565b3480156102bf575f80fd5b506102136e1a185c991a185d0b595e1c1bdcd959608a1b81565b3480156102e4575f80fd5b506101d26102f3366004610d57565b61061e565b348015610303575f80fd5b505f610213565b348015610315575f80fd5b506101d2610324366004610d7f565b610637565b348015610334575f80fd5b50610213610343366004610d3e565b6001600160a01b03165f9081526020819052604090205490565b348015610368575f80fd5b506101d2610377366004610d3e565b610647565b348015610387575f80fd5b506101d2610396366004610d7f565b6106c1565b3480156103a6575f80fd5b506103af6106cc565b6040516001600160e01b031990911681526020016101aa565b3480156103d3575f80fd5b5061019d6106f0565b3480156103e7575f80fd5b506101f36103f6366004610d57565b6106ff565b348015610406575f80fd5b506101d2610415366004610d7f565b61070c565b348015610425575f80fd5b506005546001600160a01b031661024e565b348015610442575f80fd5b506101d2610451366004610d57565b610629565b348015610461575f80fd5b50610213610470366004610e11565b6001600160a01b039182165f90815260016020908152604080832093909416825291909152205490565b3480156104a5575f80fd5b506101d26104b4366004610d57565b610717565b3480156104c4575f80fd5b506101d26104d3366004610e42565b610721565b3480156104e3575f80fd5b506101d26104f2366004610d7f565b61072c565b60606003805461050690610ebe565b80601f016020809104026020016040519081016040528092919081815260200182805461053290610ebe565b801561057d5780601f106105545761010080835404028352916020019161057d565b820191905f5260205f20905b81548152906001019060200180831161056057829003601f168201915b5050505050905090565b61059081610737565b50565b5f336105a081858561078b565b60019150505b92915050565b5f336105b9858285610798565b6105c485858561080e565b506001949350505050565b6105db84848484610860565b50505050565b60605f368080601f0160208091040260200160405190810160405280939291908181526020018383808284375f9201919091525092949350505050565b610629335f36610932565b6106338282610a2b565b5050565b610642838383610a5b565b505050565b60055433906001600160a01b031681146106835760405162d1953b60e31b81526001600160a01b03821660048201526024015b60405180910390fd5b816001600160a01b03163b5f036106b8576040516361798f2f60e11b81526001600160a01b038316600482015260240161067a565b61063382610737565b61064283838361078b565b6005545f90600160a01b900460ff166106e457505f90565b50638fb3603760e01b90565b60606004805461050690610ebe565b5f336105a081858561080e565b610642838383610798565b6106338282610b81565b610642838383610932565b61064283838361080e565b600580546001600160a01b0319166001600160a01b0383169081179091556040519081527f2f658b440c35314f52658ea8a740e05b284cdc84dc9ae01e891f21b8933e7cad9060200160405180910390a150565b6106428383836001610860565b6001600160a01b038381165f908152600160209081526040808320938616835292905220545f198110156105db578181101561080057604051637dc7a0d960e11b81526001600160a01b0384166004820152602481018290526044810183905260640161067a565b6105db84848484035f610860565b6001600160a01b03831661083757604051634b637e8f60e11b81525f600482015260240161067a565b6001600160a01b0382166106375760405163ec442f0560e01b81525f600482015260240161067a565b6001600160a01b0384166108895760405163e602df0560e01b81525f600482015260240161067a565b6001600160a01b0383166108b257604051634a1406b160e11b81525f600482015260240161067a565b6001600160a01b038085165f90815260016020908152604080832093871683529290522082905580156105db57826001600160a01b0316846001600160a01b03167f8c5be1e5ebec7d5bd14f71427d1e84f3dd0314c0f7b2291e5b200ac8c7c3b9258460405161092491815260200190565b60405180910390a350505050565b5f806109666109496005546001600160a01b031690565b863061095860045f898b610ef6565b61096191610f1d565b610bb5565b9150915081610a245763ffffffff811615610a01576005805460ff60a01b198116600160a01b17909155604051634a63ebf760e11b81526001600160a01b03909116906394c7d7ee906109c190889088908890600401610f4d565b5f604051808303815f87803b1580156109d8575f80fd5b505af11580156109ea573d5f803e3d5ffd5b50506005805460ff60a01b1916905550610a249050565b60405162d1953b60e31b81526001600160a01b038616600482015260240161067a565b5050505050565b6001600160a01b038216610a545760405163ec442f0560e01b81525f600482015260240161067a565b6106335f83835b6001600160a01b038316610a85578060025f828254610a7a9190610f8c565b90915550610af59050565b6001600160a01b0383165f9081526020819052604090205481811015610ad75760405163391434e360e21b81526001600160a01b0385166004820152602481018290526044810183905260640161067a565b6001600160a01b0384165f9081526020819052604090209082900390555b6001600160a01b038216610b1157600280548290039055610b2f565b6001600160a01b0382165f9081526020819052604090208054820190555b816001600160a01b0316836001600160a01b03167fddf252ad1be2c89b69c2b068fc378daa952ba7f163c4a11628f55a4df523b3ef83604051610b7491815260200190565b60405180910390a3505050565b6001600160a01b038216610baa57604051634b637e8f60e11b81525f600482015260240161067a565b610633825f83610a5b565b6040516001600160a01b03848116602483015283811660448301526001600160e01b0319831660648301525f9182918291829189169060840160408051601f198184030181529181526020820180516001600160e01b031663b700961360e01b17905251610c239190610fab565b5f60405180830381855afa9150503d805f8114610c5b576040519150601f19603f3d011682016040523d82523d5f602084013e610c60565b606091505b50915091508115610cb2576040815110610c925780806020019051810190610c889190610fc6565b9094509250610cb2565b6020815110610cb25780806020019051810190610caf9190611006565b93505b505094509492505050565b5f5b83811015610cd7578181015183820152602001610cbf565b50505f910152565b5f8151808452610cf6816020860160208601610cbd565b601f01601f19169290920160200192915050565b602081525f610d1c6020830184610cdf565b9392505050565b80356001600160a01b0381168114610d39575f80fd5b919050565b5f60208284031215610d4e575f80fd5b610d1c82610d23565b5f8060408385031215610d68575f80fd5b610d7183610d23565b946020939093013593505050565b5f805f60608486031215610d91575f80fd5b610d9a84610d23565b9250610da860208501610d23565b9150604084013590509250925092565b8015158114610590575f80fd5b5f805f8060808587031215610dd8575f80fd5b610de185610d23565b9350610def60208601610d23565b9250604085013591506060850135610e0681610db8565b939692955090935050565b5f8060408385031215610e22575f80fd5b610e2b83610d23565b9150610e3960208401610d23565b90509250929050565b5f805f60408486031215610e54575f80fd5b610e5d84610d23565b9250602084013567ffffffffffffffff80821115610e79575f80fd5b818601915086601f830112610e8c575f80fd5b813581811115610e9a575f80fd5b876020828501011115610eab575f80fd5b6020830194508093505050509250925092565b600181811c90821680610ed257607f821691505b602082108103610ef057634e487b7160e01b5f52602260045260245ffd5b50919050565b5f8085851115610f04575f80fd5b83861115610f10575f80fd5b5050820193919092039150565b6001600160e01b03198135818116916004851015610f455780818660040360031b1b83161692505b505092915050565b6001600160a01b03841681526040602082018190528101829052818360608301375f818301606090810191909152601f909201601f1916010192915050565b808201808211156105a657634e487b7160e01b5f52601160045260245ffd5b5f8251610fbc818460208701610cbd565b9190910192915050565b5f8060408385031215610fd7575f80fd5b8251610fe281610db8565b602084015190925063ffffffff81168114610ffb575f80fd5b809150509250929050565b5f60208284031215611016575f80fd5b8151610d1c81610db856fea2646970667358221220900a060e8dcaf9817bbbd0714d6a95f32f14e619d95e55a05fe14be788527edf64736f6c63430008180033",
  "linkReferences": {},
  "deployedLinkReferences": {}
}