{
  "_format": "hh-sol-artifact-1",
  "contractName": "ERC1363SpenderMock",
  "sourceName": "contracts/mocks/token/ERC1363SpenderMock.sol",
  "abi": [
    {
      "inputs": [],
      "stateMutability": "nonpayable",
      "type": "constructor"
    },
    {
      "inputs": [
        {
          "internalType": "bytes4",
          "name": "",
          "type": "bytes4"
        }
      ],
      "name": "CustomError",
      "type": "error"
    },
    {
      "anonymous": false,
      "inputs": [
        {
          "indexed": false,
          "internalType": "address",
          "name": "owner",
          "type": "address"
        },
        {
          "indexed": false,
          "internalType": "uint256",
          "name": "value",
          "type": "uint256"
        },
        {
          "indexed": false,
          "internalType": "bytes",
          "name": "data",
          "type": "bytes"
        }
      ],
      "name": "Approved",
      "type": "event"
    },
    {
      "inputs": [
        {
          "internalType": "address",
          "name": "owner",
          "type": "address"
        },
        {
          "internalType": "uint256",
          "name": "value",
          "type": "uint256"
        },
        {
          "internalType": "bytes",
          "name": "data",
          "type": "bytes"
        }
      ],
      "name": "onApprovalReceived",
      "outputs": [
        {
          "internalType": "bytes4",
          "name": "",
          "type": "bytes4"
        }
      ],
      "stateMutability": "nonpayable",
      "type": "function"
    },
    {
      "inputs": [
        {
          "internalType": "bytes4",
          "name": "retval",
          "type": "bytes4"
        },
        {
          "internalType": "enum ERC1363SpenderMock.RevertType",
          "name": "error",
          "type": "uint8"
        }
      ],
      "name": "setUp",
      "outputs": [],
      "stateMutability": "nonpayable",
      "type": "function"
    }
  ],
  "bytecode": "0x608060405234801561000f575f80fd5b505f805464ffffffffff1916637b04a2d01790556103af806100305f395ff3fe608060405234801561000f575f80fd5b5060043610610034575f3560e01c806379317985146100385780637b04a2d01461004d575b5f80fd5b61004b61004636600461022c565b61007d565b005b61006061005b366004610272565b6100be565b6040516001600160e01b0319909116815260200160405180910390f35b5f805460e084901c63ffffffff1982168117835583929164ffffffffff1916176401000000008360048111156100b5576100b56102ff565b02179055505050565b5f60015f54640100000000900460ff1660048111156100df576100df6102ff565b036100e8575f80fd5b60025f54640100000000900460ff166004811115610108576101086102ff565b0361015a5760405162461bcd60e51b815260206004820152601d60248201527f455243313336335370656e6465724d6f636b3a20726576657274696e6700000060448201526064015b60405180910390fd5b60035f54640100000000900460ff16600481111561017a5761017a6102ff565b036101ae575f546040516301990d6f60e61b81526101519160e01b906004016001600160e01b031991909116815260200190565b60045f54640100000000900460ff1660048111156101ce576101ce6102ff565b036101e1575f6101de8180610313565b50505b7f1fa7af237aead0c77cd0a035a35b79014351b77f7edcf8d0d003cf14d90fc631858585856040516102169493929190610332565b60405180910390a1505f5460e01b949350505050565b5f806040838503121561023d575f80fd5b82356001600160e01b031981168114610254575f80fd5b9150602083013560058110610267575f80fd5b809150509250929050565b5f805f8060608587031215610285575f80fd5b84356001600160a01b038116811461029b575f80fd5b935060208501359250604085013567ffffffffffffffff808211156102be575f80fd5b818701915087601f8301126102d1575f80fd5b8135818111156102df575f80fd5b8860208285010111156102f0575f80fd5b95989497505060200194505050565b634e487b7160e01b5f52602160045260245ffd5b5f8261032d57634e487b7160e01b5f52601260045260245ffd5b500490565b6001600160a01b0385168152602081018490526060604082018190528101829052818360808301375f818301608090810191909152601f909201601f19160101939250505056fea26469706673582212206baeb970355e03c793c3abea67c550356c5b93d9b1f5bb0ca873da8e2b66d13c64736f6c63430008180033",
  "linkReferences": {},
  "deployedLinkReferences": {}
}