{
  "_format": "hh-sol-artifact-1",
  "contractName": "$ERC2771Context",
  "sourceName": "contracts-exposed/metatx/ERC2771Context.sol",
  "abi": [
    {
      "inputs": [
        {
          "internalType": "address",
          "name": "trustedForwarder_",
          "type": "address"
        }
      ],
      "stateMutability": "payable",
      "type": "constructor"
    },
    {
      "inputs": [],
      "name": "$_contextSuffixLength",
      "outputs": [
        {
          "internalType": "uint256",
          "name": "ret0",
          "type": "uint256"
        }
      ],
      "stateMutability": "view",
      "type": "function"
    },
    {
      "inputs": [],
      "name": "$_msgData",
      "outputs": [
        {
          "internalType": "bytes",
          "name": "ret0",
          "type": "bytes"
        }
      ],
      "stateMutability": "view",
      "type": "function"
    },
    {
      "inputs": [],
      "name": "$_msgSender",
      "outputs": [
        {
          "internalType": "address",
          "name": "ret0",
          "type": "address"
        }
      ],
      "stateMutability": "view",
      "type": "function"
    },
    {
      "inputs": [],
      "name": "__hh_exposed_bytecode_marker",
      "outputs": [
        {
          "internalType": "bytes32",
          "name": "",
          "type": "bytes32"
        }
      ],
      "stateMutability": "view",
      "type": "function"
    },
    {
      "inputs": [
        {
          "internalType": "address",
          "name": "forwarder",
          "type": "address"
        }
      ],
      "name": "isTrustedForwarder",
      "outputs": [
        {
          "internalType": "bool",
          "name": "",
          "type": "bool"
        }
      ],
      "stateMutability": "view",
      "type": "function"
    },
    {
      "inputs": [],
      "name": "trustedForwarder",
      "outputs": [
        {
          "internalType": "address",
          "name": "",
          "type": "address"
        }
      ],
      "stateMutability": "view",
      "type": "function"
    },
    {
      "stateMutability": "payable",
      "type": "receive"
    }
  ],
  "bytecode": "0x60a060405260405161042738038061042783398101604081905261002291610033565b6001600160a01b0316608052610060565b5f60208284031215610043575f80fd5b81516001600160a01b0381168114610059575f80fd5b9392505050565b6080516103a861007f5f395f818161013701526101ae01526103a85ff3fe608060405260043610610057575f3560e01c80632904df291461006257806332cadf3c14610093578063342db739146100b4578063572b6c05146100e757806367354a84146101165780637da0a87714610129575f80fd5b3661005e57005b5f80fd5b34801561006d575f80fd5b5061007661015b565b6040516001600160a01b0390911681526020015b60405180910390f35b34801561009e575f80fd5b506100a7610169565b60405161008a9190610278565b3480156100bf575f80fd5b506100d96e1a185c991a185d0b595e1c1bdcd959608a1b81565b60405190815260200161008a565b3480156100f2575f80fd5b506101066101013660046102c4565b6101ac565b604051901515815260200161008a565b348015610121575f80fd5b5060146100d9565b348015610134575f80fd5b507f0000000000000000000000000000000000000000000000000000000000000000610076565b5f6101646101de565b905090565b606061017361022e565b8080601f0160208091040260200160405190810160405280939291908181526020018383808284375f9201919091525092949350505050565b7f00000000000000000000000000000000000000000000000000000000000000006001600160a01b0390811691161490565b5f3660146101eb336101ac565b80156101f75750808210155b15610226575f3661020883856102f1565b610213928290610316565b61021c9161033d565b60601c9250505090565b339250505090565b365f81601461023c336101ac565b80156102485750808210155b15610271575f803661025a84866102f1565b9261026793929190610316565b9350935050509091565b5f36610267565b5f602080835283518060208501525f5b818110156102a457858101830151858201604001528201610288565b505f604082860101526040601f19601f8301168501019250505092915050565b5f602082840312156102d4575f80fd5b81356001600160a01b03811681146102ea575f80fd5b9392505050565b8181038181111561031057634e487b7160e01b5f52601160045260245ffd5b92915050565b5f8085851115610324575f80fd5b83861115610330575f80fd5b5050820193919092039150565b6bffffffffffffffffffffffff19813581811691601485101561036a5780818660140360031b1b83161692505b50509291505056fea264697066735822122098307820b79bc7f12d681a63b48c5177bfa45327f2d4ef918b483ed5f9e622b864736f6c63430008180033",
  "linkReferences": {},
  "deployedLinkReferences": {}
}