{
  "_format": "hh-sol-artifact-1",
  "contractName": "ERC20GetterHelper",
  "sourceName": "contracts/mocks/token/ERC20GetterHelper.sol",
  "abi": [
    {
      "anonymous": false,
      "inputs": [
        {
          "indexed": false,
          "internalType": "contract IERC20",
          "name": "token",
          "type": "address"
        },
        {
          "indexed": false,
          "internalType": "address",
          "name": "owner",
          "type": "address"
        },
        {
          "indexed": false,
          "internalType": "address",
          "name": "spender",
          "type": "address"
        },
        {
          "indexed": false,
          "internalType": "uint256",
          "name": "allowance",
          "type": "uint256"
        }
      ],
      "name": "ERC20Allowance",
      "type": "event"
    },
    {
      "anonymous": false,
      "inputs": [
        {
          "indexed": false,
          "internalType": "contract IERC20",
          "name": "token",
          "type": "address"
        },
        {
          "indexed": false,
          "internalType": "address",
          "name": "account",
          "type": "address"
        },
        {
          "indexed": false,
          "internalType": "uint256",
          "name": "balanceOf",
          "type": "uint256"
        }
      ],
      "name": "ERC20BalanceOf",
      "type": "event"
    },
    {
      "anonymous": false,
      "inputs": [
        {
          "indexed": false,
          "internalType": "contract IERC20Metadata",
          "name": "token",
          "type": "address"
        },
        {
          "indexed": false,
          "internalType": "uint8",
          "name": "decimals",
          "type": "uint8"
        }
      ],
      "name": "ERC20Decimals",
      "type": "event"
    },
    {
      "anonymous": false,
      "inputs": [
        {
          "indexed": false,
          "internalType": "contract IERC20Metadata",
          "name": "token",
          "type": "address"
        },
        {
          "indexed": false,
          "internalType": "string",
          "name": "name",
          "type": "string"
        }
      ],
      "name": "ERC20Name",
      "type": "event"
    },
    {
      "anonymous": false,
      "inputs": [
        {
          "indexed": false,
          "internalType": "contract IERC20Metadata",
          "name": "token",
          "type": "address"
        },
        {
          "indexed": false,
          "internalType": "string",
          "name": "symbol",
          "type": "string"
        }
      ],
      "name": "ERC20Symbol",
      "type": "event"
    },
    {
      "anonymous": false,
      "inputs": [
        {
          "indexed": false,
          "internalType": "contract IERC20",
          "name": "token",
          "type": "address"
        },
        {
          "indexed": false,
          "internalType": "uint256",
          "name": "totalSupply",
          "type": "uint256"
        }
      ],
      "name": "ERC20TotalSupply",
      "type": "event"
    },
    {
      "inputs": [
        {
          "internalType": "contract IERC20",
          "name": "token",
          "type": "address"
        },
        {
          "internalType": "address",
          "name": "owner",
          "type": "address"
        },
        {
          "internalType": "address",
          "name": "spender",
          "type": "address"
        }
      ],
      "name": "allowance",
      "outputs": [],
      "stateMutability": "nonpayable",
      "type": "function"
    },
    {
      "inputs": [
        {
          "internalType": "contract IERC20",
          "name": "token",
          "type": "address"
        },
        {
          "internalType": "address",
          "name": "account",
          "type": "address"
        }
      ],
      "name": "balanceOf",
      "outputs": [],
      "stateMutability": "nonpayable",
      "type": "function"
    },
    {
      "inputs": [
        {
          "internalType": "contract IERC20Metadata",
          "name": "token",
          "type": "address"
        }
      ],
      "name": "decimals",
      "outputs": [],
      "stateMutability": "nonpayable",
      "type": "function"
    },
    {
      "inputs": [
        {
          "internalType": "contract IERC20Metadata",
          "name": "token",
          "type": "address"
        }
      ],
      "name": "name",
      "outputs": [],
      "stateMutability": "nonpayable",
      "type": "function"
    },
    {
      "inputs": [
        {
          "internalType": "contract IERC20Metadata",
          "name": "token",
          "type": "address"
        }
      ],
      "name": "symbol",
      "outputs": [],
      "stateMutability": "nonpayable",
      "type": "function"
    },
    {
      "inputs": [
        {
          "internalType": "contract IERC20",
          "name": "token",
          "type": "address"
        }
      ],
      "name": "totalSupply",
      "outputs": [],
      "stateMutability": "nonpayable",
      "type": "function"
    }
  ],
  "bytecode": "0x608060405234801561000f575f80fd5b506106f08061001d5f395ff3fe608060405234801561000f575f80fd5b5060043610610060575f3560e01c80630198489214610064578063927da10514610079578063a86e35761461008c578063d449a8321461009f578063e4dc2aa4146100b2578063f7888aec146100c5575b5f80fd5b6100776100723660046104c3565b6100d8565b005b6100776100873660046104e5565b610175565b61007761009a3660046104c3565b61024f565b6100776100ad3660046104c3565b6102ac565b6100776100c03660046104c3565b61034f565b6100776100d336600461052d565b6103f0565b7f0485ca5375889f98baa3c2b6f4c5017f42445d46a8ea34301831f4c0656aeaef81826001600160a01b03166306fdde036040518163ffffffff1660e01b81526004015f60405180830381865afa158015610135573d5f803e3d5ffd5b505050506040513d5f823e601f3d908101601f1916820160405261015c919081019061059a565b60405161016a929190610642565b60405180910390a150565b604051636eb1769f60e11b81526001600160a01b03808416600483015280831660248301527fe09eed224b4f51d932c9802d15235a4e3d83e6e98746fbd17672bfa0c68cf2a59185918591859184169063dd62ed3e90604401602060405180830381865afa1580156101e9573d5f803e3d5ffd5b505050506040513d601f19601f8201168201806040525081019061020d9190610683565b60405161024294939291906001600160a01b039485168152928416602084015292166040820152606081019190915260800190565b60405180910390a1505050565b7f26e04705bb26a7efc42c2fc229535a30faa3fff9a04cd15ed4a729c9bc4d35bf81826001600160a01b03166395d89b416040518163ffffffff1660e01b81526004015f60405180830381865afa158015610135573d5f803e3d5ffd5b7f85bc872b16b9db2e4ada370573ffd396602bfdacec01f732f2b5ab6f42f2443581826001600160a01b031663313ce5676040518163ffffffff1660e01b8152600401602060405180830381865afa15801561030a573d5f803e3d5ffd5b505050506040513d601f19601f8201168201806040525081019061032e919061069a565b604080516001600160a01b03909316835260ff90911660208301520161016a565b7f6485fd49c668ab31aa6e76b818c9492f82e9a3727f8dbd1ded1f7a785b2c982e81826001600160a01b03166318160ddd6040518163ffffffff1660e01b8152600401602060405180830381865afa1580156103ad573d5f803e3d5ffd5b505050506040513d601f19601f820116820180604052508101906103d19190610683565b604080516001600160a01b03909316835260208301919091520161016a565b6040516370a0823160e01b81526001600160a01b0380831660048301527ffa069972e8d8e0f3228defb44d5b7c9bc6c3f08ef98bc7d6a31a5ad2993a97959184918491908316906370a0823190602401602060405180830381865afa15801561045b573d5f803e3d5ffd5b505050506040513d601f19601f8201168201806040525081019061047f9190610683565b604080516001600160a01b0394851681529390921660208401529082015260600160405180910390a15050565b6001600160a01b03811681146104c0575f80fd5b50565b5f602082840312156104d3575f80fd5b81356104de816104ac565b9392505050565b5f805f606084860312156104f7575f80fd5b8335610502816104ac565b92506020840135610512816104ac565b91506040840135610522816104ac565b809150509250925092565b5f806040838503121561053e575f80fd5b8235610549816104ac565b91506020830135610559816104ac565b809150509250929050565b634e487b7160e01b5f52604160045260245ffd5b5f5b8381101561059257818101518382015260200161057a565b50505f910152565b5f602082840312156105aa575f80fd5b815167ffffffffffffffff808211156105c1575f80fd5b818401915084601f8301126105d4575f80fd5b8151818111156105e6576105e6610564565b604051601f8201601f19908116603f0116810190838211818310171561060e5761060e610564565b81604052828152876020848701011115610626575f80fd5b610637836020830160208801610578565b979650505050505050565b60018060a01b0383168152604060208201525f825180604084015261066e816060850160208701610578565b601f01601f1916919091016060019392505050565b5f60208284031215610693575f80fd5b5051919050565b5f602082840312156106aa575f80fd5b815160ff811681146104de575f80fdfea2646970667358221220699303a05dcadd7e9661254f45c61570dbb8cbbbd6e6978c592f0e088998b19464736f6c63430008180033",
  "linkReferences": {},
  "deployedLinkReferences": {}
}