{
  "_format": "hh-sol-artifact-1",
  "contractName": "$UUPSUpgradeableMock",
  "sourceName": "contracts-exposed/mocks/proxy/UUPSUpgradeableMock.sol",
  "abi": [
    {
      "inputs": [],
      "stateMutability": "payable",
      "type": "constructor"
    },
    {
      "inputs": [
        {
          "internalType": "address",
          "name": "target",
          "type": "address"
        }
      ],
      "name": "AddressEmptyCode",
      "type": "error"
    },
    {
      "inputs": [
        {
          "internalType": "address",
          "name": "implementation",
          "type": "address"
        }
      ],
      "name": "ERC1967InvalidImplementation",
      "type": "error"
    },
    {
      "inputs": [],
      "name": "ERC1967NonPayable",
      "type": "error"
    },
    {
      "inputs": [],
      "name": "FailedCall",
      "type": "error"
    },
    {
      "inputs": [],
      "name": "UUPSUnauthorizedCallContext",
      "type": "error"
    },
    {
      "inputs": [
        {
          "internalType": "bytes32",
          "name": "slot",
          "type": "bytes32"
        }
      ],
      "name": "UUPSUnsupportedProxiableUUID",
      "type": "error"
    },
    {
      "anonymous": false,
      "inputs": [
        {
          "indexed": true,
          "internalType": "address",
          "name": "implementation",
          "type": "address"
        }
      ],
      "name": "Upgraded",
      "type": "event"
    },
    {
      "inputs": [
        {
          "internalType": "address",
          "name": "arg0",
          "type": "address"
        }
      ],
      "name": "$_authorizeUpgrade",
      "outputs": [],
      "stateMutability": "nonpayable",
      "type": "function"
    },
    {
      "inputs": [],
      "name": "$_checkNotDelegated",
      "outputs": [],
      "stateMutability": "view",
      "type": "function"
    },
    {
      "inputs": [],
      "name": "$_checkProxy",
      "outputs": [],
      "stateMutability": "view",
      "type": "function"
    },
    {
      "inputs": [],
      "name": "$_counter",
      "outputs": [
        {
          "internalType": "uint256",
          "name": "",
          "type": "uint256"
        }
      ],
      "stateMutability": "view",
      "type": "function"
    },
    {
      "inputs": [],
      "name": "UPGRADE_INTERFACE_VERSION",
      "outputs": [
        {
          "internalType": "string",
          "name": "",
          "type": "string"
        }
      ],
      "stateMutability": "view",
      "type": "function"
    },
    {
      "inputs": [],
      "name": "__hh_exposed_bytecode_marker",
      "outputs": [
        {
          "internalType": "bytes32",
          "name": "",
          "type": "bytes32"
        }
      ],
      "stateMutability": "view",
      "type": "function"
    },
    {
      "inputs": [],
      "name": "current",
      "outputs": [
        {
          "internalType": "uint256",
          "name": "",
          "type": "uint256"
        }
      ],
      "stateMutability": "view",
      "type": "function"
    },
    {
      "inputs": [],
      "name": "increment",
      "outputs": [],
      "stateMutability": "nonpayable",
      "type": "function"
    },
    {
      "inputs": [],
      "name": "proxiableUUID",
      "outputs": [
        {
          "internalType": "bytes32",
          "name": "",
          "type": "bytes32"
        }
      ],
      "stateMutability": "view",
      "type": "function"
    },
    {
      "inputs": [
        {
          "internalType": "address",
          "name": "newImplementation",
          "type": "address"
        },
        {
          "internalType": "bytes",
          "name": "data",
          "type": "bytes"
        }
      ],
      "name": "upgradeToAndCall",
      "outputs": [],
      "stateMutability": "payable",
      "type": "function"
    },
    {
      "stateMutability": "payable",
      "type": "receive"
    }
  ],
  "bytecode": "0x60a06040523060805260805161078561002e5f395f818161020801528181610251015261027a01526107855ff3fe608060405260043610610092575f3560e01c80637e10e8d6116100575780637e10e8d6146101265780639fa6a6e314610126578063ad3cb1cc14610139578063d09de08a14610176578063fbf9c9ce1461018a575f80fd5b80630aecc0931461009d5780631a7e8014146100b3578063342db739146100c75780634f1ef286146100ff57806352d1902d14610112575f80fd5b3661009957005b5f80fd5b3480156100a8575f80fd5b506100b16101a7565b005b3480156100be575f80fd5b506100b16101b1565b3480156100d2575f80fd5b506100ec6e1a185c991a185d0b595e1c1bdcd959608a1b81565b6040519081526020015b60405180910390f35b6100b161010d3660046105b0565b6101b9565b34801561011d575f80fd5b506100ec6101cf565b348015610131575f80fd5b505f546100ec565b348015610144575f80fd5b50610169604051806040016040528060058152602001640352e302e360dc1b81525081565b6040516100f6919061068e565b348015610181575f80fd5b506100b16101ea565b348015610195575f80fd5b506100b16101a43660046106c0565b50565b6101af6101fd565b565b6101af610246565b6101c1610246565b6101cb82826102ea565b5050565b5f6101d86101fd565b505f8051602061073083398151915290565b5f8081546101f7906106d9565b90915550565b306001600160a01b037f000000000000000000000000000000000000000000000000000000000000000016146101af5760405163703e46dd60e11b815260040160405180910390fd5b306001600160a01b037f00000000000000000000000000000000000000000000000000000000000000001614806102cc57507f00000000000000000000000000000000000000000000000000000000000000006001600160a01b03166102c05f80516020610730833981519152546001600160a01b031690565b6001600160a01b031614155b156101af5760405163703e46dd60e11b815260040160405180910390fd5b816001600160a01b03166352d1902d6040518163ffffffff1660e01b8152600401602060405180830381865afa925050508015610344575060408051601f3d908101601f19168201909252610341918101906106fd565b60015b61037157604051634c9c8ce360e01b81526001600160a01b03831660048201526024015b60405180910390fd5b5f8051602061073083398151915281146103a157604051632a87526960e21b815260048101829052602401610368565b6103ab83836103b0565b505050565b6103b982610405565b6040516001600160a01b038316907fbc7cd75a20ee27fd9adebab32041f755214dbc6bffa90cc0225b39da2e5c2d3b905f90a28051156103fd576103ab8282610468565b6101cb6104da565b806001600160a01b03163b5f0361043a57604051634c9c8ce360e01b81526001600160a01b0382166004820152602401610368565b5f8051602061073083398151915280546001600160a01b0319166001600160a01b0392909216919091179055565b60605f80846001600160a01b0316846040516104849190610714565b5f60405180830381855af49150503d805f81146104bc576040519150601f19603f3d011682016040523d82523d5f602084013e6104c1565b606091505b50915091506104d18583836104f9565b95945050505050565b34156101af5760405163b398979f60e01b815260040160405180910390fd5b60608261050e5761050982610558565b610551565b815115801561052557506001600160a01b0384163b155b1561054e57604051639996b31560e01b81526001600160a01b0385166004820152602401610368565b50805b9392505050565b8051156105685780518082602001fd5b60405163d6bda27560e01b815260040160405180910390fd5b80356001600160a01b0381168114610597575f80fd5b919050565b634e487b7160e01b5f52604160045260245ffd5b5f80604083850312156105c1575f80fd5b6105ca83610581565b9150602083013567ffffffffffffffff808211156105e6575f80fd5b818501915085601f8301126105f9575f80fd5b81358181111561060b5761060b61059c565b604051601f8201601f19908116603f011681019083821181831017156106335761063361059c565b8160405282815288602084870101111561064b575f80fd5b826020860160208301375f6020848301015280955050505050509250929050565b5f5b8381101561068657818101518382015260200161066e565b50505f910152565b602081525f82518060208401526106ac81604085016020870161066c565b601f01601f19169190910160400192915050565b5f602082840312156106d0575f80fd5b61055182610581565b5f600182016106f657634e487b7160e01b5f52601160045260245ffd5b5060010190565b5f6020828403121561070d575f80fd5b5051919050565b5f825161072581846020870161066c565b919091019291505056fe360894a13ba1a3210667c828492db98dca3e2076cc3735a920a3ca505d382bbca2646970667358221220b5c006f32329638d80069a0fdf641bb0695ae2ddb7e4a295580751991851267464736f6c63430008180033",
  "linkReferences": {},
  "deployedLinkReferences": {}
}