{
  "_format": "hh-sol-artifact-1",
  "contractName": "$UUPSUnsupportedProxiableUUID",
  "sourceName": "contracts-exposed/mocks/proxy/UUPSUpgradeableMock.sol",
  "abi": [
    {
      "inputs": [],
      "stateMutability": "payable",
      "type": "constructor"
    },
    {
      "inputs": [
        {
          "internalType": "address",
          "name": "target",
          "type": "address"
        }
      ],
      "name": "AddressEmptyCode",
      "type": "error"
    },
    {
      "inputs": [
        {
          "internalType": "address",
          "name": "implementation",
          "type": "address"
        }
      ],
      "name": "ERC1967InvalidImplementation",
      "type": "error"
    },
    {
      "inputs": [],
      "name": "ERC1967NonPayable",
      "type": "error"
    },
    {
      "inputs": [],
      "name": "FailedCall",
      "type": "error"
    },
    {
      "inputs": [],
      "name": "UUPSUnauthorizedCallContext",
      "type": "error"
    },
    {
      "inputs": [
        {
          "internalType": "bytes32",
          "name": "slot",
          "type": "bytes32"
        }
      ],
      "name": "UUPSUnsupportedProxiableUUID",
      "type": "error"
    },
    {
      "anonymous": false,
      "inputs": [
        {
          "indexed": true,
          "internalType": "address",
          "name": "implementation",
          "type": "address"
        }
      ],
      "name": "Upgraded",
      "type": "event"
    },
    {
      "inputs": [
        {
          "internalType": "address",
          "name": "arg0",
          "type": "address"
        }
      ],
      "name": "$_authorizeUpgrade",
      "outputs": [],
      "stateMutability": "nonpayable",
      "type": "function"
    },
    {
      "inputs": [],
      "name": "$_checkNotDelegated",
      "outputs": [],
      "stateMutability": "view",
      "type": "function"
    },
    {
      "inputs": [],
      "name": "$_checkProxy",
      "outputs": [],
      "stateMutability": "view",
      "type": "function"
    },
    {
      "inputs": [],
      "name": "$_counter",
      "outputs": [
        {
          "internalType": "uint256",
          "name": "",
          "type": "uint256"
        }
      ],
      "stateMutability": "view",
      "type": "function"
    },
    {
      "inputs": [],
      "name": "UPGRADE_INTERFACE_VERSION",
      "outputs": [
        {
          "internalType": "string",
          "name": "",
          "type": "string"
        }
      ],
      "stateMutability": "view",
      "type": "function"
    },
    {
      "inputs": [],
      "name": "__hh_exposed_bytecode_marker",
      "outputs": [
        {
          "internalType": "bytes32",
          "name": "",
          "type": "bytes32"
        }
      ],
      "stateMutability": "view",
      "type": "function"
    },
    {
      "inputs": [],
      "name": "current",
      "outputs": [
        {
          "internalType": "uint256",
          "name": "",
          "type": "uint256"
        }
      ],
      "stateMutability": "view",
      "type": "function"
    },
    {
      "inputs": [],
      "name": "increment",
      "outputs": [],
      "stateMutability": "nonpayable",
      "type": "function"
    },
    {
      "inputs": [],
      "name": "proxiableUUID",
      "outputs": [
        {
          "internalType": "bytes32",
          "name": "",
          "type": "bytes32"
        }
      ],
      "stateMutability": "pure",
      "type": "function"
    },
    {
      "inputs": [
        {
          "internalType": "address",
          "name": "newImplementation",
          "type": "address"
        },
        {
          "internalType": "bytes",
          "name": "data",
          "type": "bytes"
        }
      ],
      "name": "upgradeToAndCall",
      "outputs": [],
      "stateMutability": "payable",
      "type": "function"
    },
    {
      "stateMutability": "payable",
      "type": "receive"
    }
  ],
  "bytecode": "0x60a0604052306080526080516107a161002e5f395f818161020b01528181610254015261027d01526107a15ff3fe608060405260043610610092575f3560e01c80637e10e8d6116100575780637e10e8d6146101445780639fa6a6e314610144578063ad3cb1cc14610157578063d09de08a14610194578063fbf9c9ce146101a8575f80fd5b80630aecc0931461009d5780631a7e8014146100b3578063342db739146100c75780634f1ef286146100ff57806352d1902d14610112575f80fd5b3661009957005b5f80fd5b3480156100a8575f80fd5b506100b16101c5565b005b3480156100be575f80fd5b506100b16101cf565b3480156100d2575f80fd5b506100ec6e1a185c991a185d0b595e1c1bdcd959608a1b81565b6040519081526020015b60405180910390f35b6100b161010d3660046105ec565b6101d7565b34801561011d575f80fd5b507fc7bdf275ab48e354dbabdecbbb74bbfdd6e318310cd733f757b9d79846c9a09a6100ec565b34801561014f575f80fd5b505f546100ec565b348015610162575f80fd5b50610187604051806040016040528060058152602001640352e302e360dc1b81525081565b6040516100f691906106ca565b34801561019f575f80fd5b506100b16101ed565b3480156101b3575f80fd5b506100b16101c23660046106fc565b50565b6101cd610200565b565b6101cd610249565b6101df610249565b6101e98282610300565b5050565b5f8081546101fa90610715565b90915550565b306001600160a01b037f000000000000000000000000000000000000000000000000000000000000000016146101cd5760405163703e46dd60e11b815260040160405180910390fd5b306001600160a01b037f00000000000000000000000000000000000000000000000000000000000000001614806102e257507f00000000000000000000000000000000000000000000000000000000000000006001600160a01b03166102d67f360894a13ba1a3210667c828492db98dca3e2076cc3735a920a3ca505d382bbc546001600160a01b031690565b6001600160a01b031614155b156101cd5760405163703e46dd60e11b815260040160405180910390fd5b816001600160a01b03166352d1902d6040518163ffffffff1660e01b8152600401602060405180830381865afa92505050801561035a575060408051601f3d908101601f1916820190925261035791810190610739565b60015b61038757604051634c9c8ce360e01b81526001600160a01b03831660048201526024015b60405180910390fd5b7f360894a13ba1a3210667c828492db98dca3e2076cc3735a920a3ca505d382bbc81146103ca57604051632a87526960e21b81526004810182905260240161037e565b6103d483836103d9565b505050565b6103e28261042e565b6040516001600160a01b038316907fbc7cd75a20ee27fd9adebab32041f755214dbc6bffa90cc0225b39da2e5c2d3b905f90a2805115610426576103d482826104a4565b6101e9610516565b806001600160a01b03163b5f0361046357604051634c9c8ce360e01b81526001600160a01b038216600482015260240161037e565b7f360894a13ba1a3210667c828492db98dca3e2076cc3735a920a3ca505d382bbc80546001600160a01b0319166001600160a01b0392909216919091179055565b60605f80846001600160a01b0316846040516104c09190610750565b5f60405180830381855af49150503d805f81146104f8576040519150601f19603f3d011682016040523d82523d5f602084013e6104fd565b606091505b509150915061050d858383610535565b95945050505050565b34156101cd5760405163b398979f60e01b815260040160405180910390fd5b60608261054a5761054582610594565b61058d565b815115801561056157506001600160a01b0384163b155b1561058a57604051639996b31560e01b81526001600160a01b038516600482015260240161037e565b50805b9392505050565b8051156105a45780518082602001fd5b60405163d6bda27560e01b815260040160405180910390fd5b80356001600160a01b03811681146105d3575f80fd5b919050565b634e487b7160e01b5f52604160045260245ffd5b5f80604083850312156105fd575f80fd5b610606836105bd565b9150602083013567ffffffffffffffff80821115610622575f80fd5b818501915085601f830112610635575f80fd5b813581811115610647576106476105d8565b604051601f8201601f19908116603f0116810190838211818310171561066f5761066f6105d8565b81604052828152886020848701011115610687575f80fd5b826020860160208301375f6020848301015280955050505050509250929050565b5f5b838110156106c25781810151838201526020016106aa565b50505f910152565b602081525f82518060208401526106e88160408501602087016106a8565b601f01601f19169190910160400192915050565b5f6020828403121561070c575f80fd5b61058d826105bd565b5f6001820161073257634e487b7160e01b5f52601160045260245ffd5b5060010190565b5f60208284031215610749575f80fd5b5051919050565b5f82516107618184602087016106a8565b919091019291505056fea2646970667358221220335155958317426c8f3875541307b3907ad5c33c5969fabcdbcb56f03556d36164736f6c63430008180033",
  "linkReferences": {},
  "deployedLinkReferences": {}
}