{
  "_format": "hh-sol-artifact-1",
  "contractName": "$AccessManager",
  "sourceName": "contracts-exposed/access/manager/AccessManager.sol",
  "abi": [
    {
      "inputs": [
        {
          "internalType": "address",
          "name": "initialAdmin",
          "type": "address"
        }
      ],
      "stateMutability": "payable",
      "type": "constructor"
    },
    {
      "inputs": [
        {
          "internalType": "bytes32",
          "name": "operationId",
          "type": "bytes32"
        }
      ],
      "name": "AccessManagerAlreadyScheduled",
      "type": "error"
    },
    {
      "inputs": [],
      "name": "AccessManagerBadConfirmation",
      "type": "error"
    },
    {
      "inputs": [
        {
          "internalType": "bytes32",
          "name": "operationId",
          "type": "bytes32"
        }
      ],
      "name": "AccessManagerExpired",
      "type": "error"
    },
    {
      "inputs": [
        {
          "internalType": "address",
          "name": "initialAdmin",
          "type": "address"
        }
      ],
      "name": "AccessManagerInvalidInitialAdmin",
      "type": "error"
    },
    {
      "inputs": [
        {
          "internalType": "uint64",
          "name": "roleId",
          "type": "uint64"
        }
      ],
      "name": "AccessManagerLockedRole",
      "type": "error"
    },
    {
      "inputs": [
        {
          "internalType": "bytes32",
          "name": "operationId",
          "type": "bytes32"
        }
      ],
      "name": "AccessManagerNotReady",
      "type": "error"
    },
    {
      "inputs": [
        {
          "internalType": "bytes32",
          "name": "operationId",
          "type": "bytes32"
        }
      ],
      "name": "AccessManagerNotScheduled",
      "type": "error"
    },
    {
      "inputs": [
        {
          "internalType": "address",
          "name": "msgsender",
          "type": "address"
        },
        {
          "internalType": "uint64",
          "name": "roleId",
          "type": "uint64"
        }
      ],
      "name": "AccessManagerUnauthorizedAccount",
      "type": "error"
    },
    {
      "inputs": [
        {
          "internalType": "address",
          "name": "caller",
          "type": "address"
        },
        {
          "internalType": "address",
          "name": "target",
          "type": "address"
        },
        {
          "internalType": "bytes4",
          "name": "selector",
          "type": "bytes4"
        }
      ],
      "name": "AccessManagerUnauthorizedCall",
      "type": "error"
    },
    {
      "inputs": [
        {
          "internalType": "address",
          "name": "msgsender",
          "type": "address"
        },
        {
          "internalType": "address",
          "name": "caller",
          "type": "address"
        },
        {
          "internalType": "address",
          "name": "target",
          "type": "address"
        },
        {
          "internalType": "bytes4",
          "name": "selector",
          "type": "bytes4"
        }
      ],
      "name": "AccessManagerUnauthorizedCancel",
      "type": "error"
    },
    {
      "inputs": [
        {
          "internalType": "address",
          "name": "target",
          "type": "address"
        }
      ],
      "name": "AccessManagerUnauthorizedConsume",
      "type": "error"
    },
    {
      "inputs": [
        {
          "internalType": "address",
          "name": "target",
          "type": "address"
        }
      ],
      "name": "AddressEmptyCode",
      "type": "error"
    },
    {
      "inputs": [],
      "name": "FailedCall",
      "type": "error"
    },
    {
      "inputs": [
        {
          "internalType": "uint256",
          "name": "balance",
          "type": "uint256"
        },
        {
          "internalType": "uint256",
          "name": "needed",
          "type": "uint256"
        }
      ],
      "name": "InsufficientBalance",
      "type": "error"
    },
    {
      "inputs": [
        {
          "internalType": "uint8",
          "name": "bits",
          "type": "uint8"
        },
        {
          "internalType": "uint256",
          "name": "value",
          "type": "uint256"
        }
      ],
      "name": "SafeCastOverflowedUintDowncast",
      "type": "error"
    },
    {
      "anonymous": false,
      "inputs": [
        {
          "indexed": true,
          "internalType": "bytes32",
          "name": "operationId",
          "type": "bytes32"
        },
        {
          "indexed": true,
          "internalType": "uint32",
          "name": "nonce",
          "type": "uint32"
        }
      ],
      "name": "OperationCanceled",
      "type": "event"
    },
    {
      "anonymous": false,
      "inputs": [
        {
          "indexed": true,
          "internalType": "bytes32",
          "name": "operationId",
          "type": "bytes32"
        },
        {
          "indexed": true,
          "internalType": "uint32",
          "name": "nonce",
          "type": "uint32"
        }
      ],
      "name": "OperationExecuted",
      "type": "event"
    },
    {
      "anonymous": false,
      "inputs": [
        {
          "indexed": true,
          "internalType": "bytes32",
          "name": "operationId",
          "type": "bytes32"
        },
        {
          "indexed": true,
          "internalType": "uint32",
          "name": "nonce",
          "type": "uint32"
        },
        {
          "indexed": false,
          "internalType": "uint48",
          "name": "schedule",
          "type": "uint48"
        },
        {
          "indexed": false,
          "internalType": "address",
          "name": "caller",
          "type": "address"
        },
        {
          "indexed": false,
          "internalType": "address",
          "name": "target",
          "type": "address"
        },
        {
          "indexed": false,
          "internalType": "bytes",
          "name": "data",
          "type": "bytes"
        }
      ],
      "name": "OperationScheduled",
      "type": "event"
    },
    {
      "anonymous": false,
      "inputs": [
        {
          "indexed": true,
          "internalType": "uint64",
          "name": "roleId",
          "type": "uint64"
        },
        {
          "indexed": true,
          "internalType": "uint64",
          "name": "admin",
          "type": "uint64"
        }
      ],
      "name": "RoleAdminChanged",
      "type": "event"
    },
    {
      "anonymous": false,
      "inputs": [
        {
          "indexed": true,
          "internalType": "uint64",
          "name": "roleId",
          "type": "uint64"
        },
        {
          "indexed": false,
          "internalType": "uint32",
          "name": "delay",
          "type": "uint32"
        },
        {
          "indexed": false,
          "internalType": "uint48",
          "name": "since",
          "type": "uint48"
        }
      ],
      "name": "RoleGrantDelayChanged",
      "type": "event"
    },
    {
      "anonymous": false,
      "inputs": [
        {
          "indexed": true,
          "internalType": "uint64",
          "name": "roleId",
          "type": "uint64"
        },
        {
          "indexed": true,
          "internalType": "address",
          "name": "account",
          "type": "address"
        },
        {
          "indexed": false,
          "internalType": "uint32",
          "name": "delay",
          "type": "uint32"
        },
        {
          "indexed": false,
          "internalType": "uint48",
          "name": "since",
          "type": "uint48"
        },
        {
          "indexed": false,
          "internalType": "bool",
          "name": "newMember",
          "type": "bool"
        }
      ],
      "name": "RoleGranted",
      "type": "event"
    },
    {
      "anonymous": false,
      "inputs": [
        {
          "indexed": true,
          "internalType": "uint64",
          "name": "roleId",
          "type": "uint64"
        },
        {
          "indexed": true,
          "internalType": "uint64",
          "name": "guardian",
          "type": "uint64"
        }
      ],
      "name": "RoleGuardianChanged",
      "type": "event"
    },
    {
      "anonymous": false,
      "inputs": [
        {
          "indexed": true,
          "internalType": "uint64",
          "name": "roleId",
          "type": "uint64"
        },
        {
          "indexed": false,
          "internalType": "string",
          "name": "label",
          "type": "string"
        }
      ],
      "name": "RoleLabel",
      "type": "event"
    },
    {
      "anonymous": false,
      "inputs": [
        {
          "indexed": true,
          "internalType": "uint64",
          "name": "roleId",
          "type": "uint64"
        },
        {
          "indexed": true,
          "internalType": "address",
          "name": "account",
          "type": "address"
        }
      ],
      "name": "RoleRevoked",
      "type": "event"
    },
    {
      "anonymous": false,
      "inputs": [
        {
          "indexed": true,
          "internalType": "address",
          "name": "target",
          "type": "address"
        },
        {
          "indexed": false,
          "internalType": "uint32",
          "name": "delay",
          "type": "uint32"
        },
        {
          "indexed": false,
          "internalType": "uint48",
          "name": "since",
          "type": "uint48"
        }
      ],
      "name": "TargetAdminDelayUpdated",
      "type": "event"
    },
    {
      "anonymous": false,
      "inputs": [
        {
          "indexed": true,
          "internalType": "address",
          "name": "target",
          "type": "address"
        },
        {
          "indexed": false,
          "internalType": "bool",
          "name": "closed",
          "type": "bool"
        }
      ],
      "name": "TargetClosed",
      "type": "event"
    },
    {
      "anonymous": false,
      "inputs": [
        {
          "indexed": true,
          "internalType": "address",
          "name": "target",
          "type": "address"
        },
        {
          "indexed": false,
          "internalType": "bytes4",
          "name": "selector",
          "type": "bytes4"
        },
        {
          "indexed": true,
          "internalType": "uint64",
          "name": "roleId",
          "type": "uint64"
        }
      ],
      "name": "TargetFunctionRoleUpdated",
      "type": "event"
    },
    {
      "anonymous": false,
      "inputs": [
        {
          "indexed": false,
          "internalType": "uint32",
          "name": "ret0",
          "type": "uint32"
        }
      ],
      "name": "return$_consumeScheduledOp",
      "type": "event"
    },
    {
      "anonymous": false,
      "inputs": [
        {
          "indexed": false,
          "internalType": "bool",
          "name": "ret0",
          "type": "bool"
        }
      ],
      "name": "return$_grantRole",
      "type": "event"
    },
    {
      "anonymous": false,
      "inputs": [
        {
          "indexed": false,
          "internalType": "bool",
          "name": "ret0",
          "type": "bool"
        }
      ],
      "name": "return$_revokeRole",
      "type": "event"
    },
    {
      "inputs": [
        {
          "internalType": "bytes32",
          "name": "operationId",
          "type": "bytes32"
        }
      ],
      "name": "$_consumeScheduledOp",
      "outputs": [
        {
          "internalType": "uint32",
          "name": "ret0",
          "type": "uint32"
        }
      ],
      "stateMutability": "nonpayable",
      "type": "function"
    },
    {
      "inputs": [],
      "name": "$_contextSuffixLength",
      "outputs": [
        {
          "internalType": "uint256",
          "name": "ret0",
          "type": "uint256"
        }
      ],
      "stateMutability": "view",
      "type": "function"
    },
    {
      "inputs": [
        {
          "internalType": "uint64",
          "name": "roleId",
          "type": "uint64"
        },
        {
          "internalType": "address",
          "name": "account",
          "type": "address"
        },
        {
          "internalType": "uint32",
          "name": "grantDelay",
          "type": "uint32"
        },
        {
          "internalType": "uint32",
          "name": "executionDelay",
          "type": "uint32"
        }
      ],
      "name": "$_grantRole",
      "outputs": [
        {
          "internalType": "bool",
          "name": "ret0",
          "type": "bool"
        }
      ],
      "stateMutability": "nonpayable",
      "type": "function"
    },
    {
      "inputs": [],
      "name": "$_msgData",
      "outputs": [
        {
          "internalType": "bytes",
          "name": "ret0",
          "type": "bytes"
        }
      ],
      "stateMutability": "view",
      "type": "function"
    },
    {
      "inputs": [],
      "name": "$_msgSender",
      "outputs": [
        {
          "internalType": "address",
          "name": "ret0",
          "type": "address"
        }
      ],
      "stateMutability": "view",
      "type": "function"
    },
    {
      "inputs": [
        {
          "internalType": "uint64",
          "name": "roleId",
          "type": "uint64"
        },
        {
          "internalType": "address",
          "name": "account",
          "type": "address"
        }
      ],
      "name": "$_revokeRole",
      "outputs": [
        {
          "internalType": "bool",
          "name": "ret0",
          "type": "bool"
        }
      ],
      "stateMutability": "nonpayable",
      "type": "function"
    },
    {
      "inputs": [
        {
          "internalType": "uint64",
          "name": "roleId",
          "type": "uint64"
        },
        {
          "internalType": "uint32",
          "name": "newDelay",
          "type": "uint32"
        }
      ],
      "name": "$_setGrantDelay",
      "outputs": [],
      "stateMutability": "nonpayable",
      "type": "function"
    },
    {
      "inputs": [
        {
          "internalType": "uint64",
          "name": "roleId",
          "type": "uint64"
        },
        {
          "internalType": "uint64",
          "name": "admin",
          "type": "uint64"
        }
      ],
      "name": "$_setRoleAdmin",
      "outputs": [],
      "stateMutability": "nonpayable",
      "type": "function"
    },
    {
      "inputs": [
        {
          "internalType": "uint64",
          "name": "roleId",
          "type": "uint64"
        },
        {
          "internalType": "uint64",
          "name": "guardian",
          "type": "uint64"
        }
      ],
      "name": "$_setRoleGuardian",
      "outputs": [],
      "stateMutability": "nonpayable",
      "type": "function"
    },
    {
      "inputs": [
        {
          "internalType": "address",
          "name": "target",
          "type": "address"
        },
        {
          "internalType": "uint32",
          "name": "newDelay",
          "type": "uint32"
        }
      ],
      "name": "$_setTargetAdminDelay",
      "outputs": [],
      "stateMutability": "nonpayable",
      "type": "function"
    },
    {
      "inputs": [
        {
          "internalType": "address",
          "name": "target",
          "type": "address"
        },
        {
          "internalType": "bool",
          "name": "closed",
          "type": "bool"
        }
      ],
      "name": "$_setTargetClosed",
      "outputs": [],
      "stateMutability": "nonpayable",
      "type": "function"
    },
    {
      "inputs": [
        {
          "internalType": "address",
          "name": "target",
          "type": "address"
        },
        {
          "internalType": "bytes4",
          "name": "selector",
          "type": "bytes4"
        },
        {
          "internalType": "uint64",
          "name": "roleId",
          "type": "uint64"
        }
      ],
      "name": "$_setTargetFunctionRole",
      "outputs": [],
      "stateMutability": "nonpayable",
      "type": "function"
    },
    {
      "inputs": [],
      "name": "ADMIN_ROLE",
      "outputs": [
        {
          "internalType": "uint64",
          "name": "",
          "type": "uint64"
        }
      ],
      "stateMutability": "view",
      "type": "function"
    },
    {
      "inputs": [],
      "name": "PUBLIC_ROLE",
      "outputs": [
        {
          "internalType": "uint64",
          "name": "",
          "type": "uint64"
        }
      ],
      "stateMutability": "view",
      "type": "function"
    },
    {
      "inputs": [],
      "name": "__hh_exposed_bytecode_marker",
      "outputs": [
        {
          "internalType": "bytes32",
          "name": "",
          "type": "bytes32"
        }
      ],
      "stateMutability": "view",
      "type": "function"
    },
    {
      "inputs": [
        {
          "internalType": "address",
          "name": "caller",
          "type": "address"
        },
        {
          "internalType": "address",
          "name": "target",
          "type": "address"
        },
        {
          "internalType": "bytes4",
          "name": "selector",
          "type": "bytes4"
        }
      ],
      "name": "canCall",
      "outputs": [
        {
          "internalType": "bool",
          "name": "immediate",
          "type": "bool"
        },
        {
          "internalType": "uint32",
          "name": "delay",
          "type": "uint32"
        }
      ],
      "stateMutability": "view",
      "type": "function"
    },
    {
      "inputs": [
        {
          "internalType": "address",
          "name": "caller",
          "type": "address"
        },
        {
          "internalType": "address",
          "name": "target",
          "type": "address"
        },
        {
          "internalType": "bytes",
          "name": "data",
          "type": "bytes"
        }
      ],
      "name": "cancel",
      "outputs": [
        {
          "internalType": "uint32",
          "name": "",
          "type": "uint32"
        }
      ],
      "stateMutability": "nonpayable",
      "type": "function"
    },
    {
      "inputs": [
        {
          "internalType": "address",
          "name": "caller",
          "type": "address"
        },
        {
          "internalType": "bytes",
          "name": "data",
          "type": "bytes"
        }
      ],
      "name": "consumeScheduledOp",
      "outputs": [],
      "stateMutability": "nonpayable",
      "type": "function"
    },
    {
      "inputs": [
        {
          "internalType": "address",
          "name": "target",
          "type": "address"
        },
        {
          "internalType": "bytes",
          "name": "data",
          "type": "bytes"
        }
      ],
      "name": "execute",
      "outputs": [
        {
          "internalType": "uint32",
          "name": "",
          "type": "uint32"
        }
      ],
      "stateMutability": "payable",
      "type": "function"
    },
    {
      "inputs": [],
      "name": "expiration",
      "outputs": [
        {
          "internalType": "uint32",
          "name": "",
          "type": "uint32"
        }
      ],
      "stateMutability": "view",
      "type": "function"
    },
    {
      "inputs": [
        {
          "internalType": "uint64",
          "name": "roleId",
          "type": "uint64"
        },
        {
          "internalType": "address",
          "name": "account",
          "type": "address"
        }
      ],
      "name": "getAccess",
      "outputs": [
        {
          "internalType": "uint48",
          "name": "since",
          "type": "uint48"
        },
        {
          "internalType": "uint32",
          "name": "currentDelay",
          "type": "uint32"
        },
        {
          "internalType": "uint32",
          "name": "pendingDelay",
          "type": "uint32"
        },
        {
          "internalType": "uint48",
          "name": "effect",
          "type": "uint48"
        }
      ],
      "stateMutability": "view",
      "type": "function"
    },
    {
      "inputs": [
        {
          "internalType": "bytes32",
          "name": "id",
          "type": "bytes32"
        }
      ],
      "name": "getNonce",
      "outputs": [
        {
          "internalType": "uint32",
          "name": "",
          "type": "uint32"
        }
      ],
      "stateMutability": "view",
      "type": "function"
    },
    {
      "inputs": [
        {
          "internalType": "uint64",
          "name": "roleId",
          "type": "uint64"
        }
      ],
      "name": "getRoleAdmin",
      "outputs": [
        {
          "internalType": "uint64",
          "name": "",
          "type": "uint64"
        }
      ],
      "stateMutability": "view",
      "type": "function"
    },
    {
      "inputs": [
        {
          "internalType": "uint64",
          "name": "roleId",
          "type": "uint64"
        }
      ],
      "name": "getRoleGrantDelay",
      "outputs": [
        {
          "internalType": "uint32",
          "name": "",
          "type": "uint32"
        }
      ],
      "stateMutability": "view",
      "type": "function"
    },
    {
      "inputs": [
        {
          "internalType": "uint64",
          "name": "roleId",
          "type": "uint64"
        }
      ],
      "name": "getRoleGuardian",
      "outputs": [
        {
          "internalType": "uint64",
          "name": "",
          "type": "uint64"
        }
      ],
      "stateMutability": "view",
      "type": "function"
    },
    {
      "inputs": [
        {
          "internalType": "bytes32",
          "name": "id",
          "type": "bytes32"
        }
      ],
      "name": "getSchedule",
      "outputs": [
        {
          "internalType": "uint48",
          "name": "",
          "type": "uint48"
        }
      ],
      "stateMutability": "view",
      "type": "function"
    },
    {
      "inputs": [
        {
          "internalType": "address",
          "name": "target",
          "type": "address"
        }
      ],
      "name": "getTargetAdminDelay",
      "outputs": [
        {
          "internalType": "uint32",
          "name": "",
          "type": "uint32"
        }
      ],
      "stateMutability": "view",
      "type": "function"
    },
    {
      "inputs": [
        {
          "internalType": "address",
          "name": "target",
          "type": "address"
        },
        {
          "internalType": "bytes4",
          "name": "selector",
          "type": "bytes4"
        }
      ],
      "name": "getTargetFunctionRole",
      "outputs": [
        {
          "internalType": "uint64",
          "name": "",
          "type": "uint64"
        }
      ],
      "stateMutability": "view",
      "type": "function"
    },
    {
      "inputs": [
        {
          "internalType": "uint64",
          "name": "roleId",
          "type": "uint64"
        },
        {
          "internalType": "address",
          "name": "account",
          "type": "address"
        },
        {
          "internalType": "uint32",
          "name": "executionDelay",
          "type": "uint32"
        }
      ],
      "name": "grantRole",
      "outputs": [],
      "stateMutability": "nonpayable",
      "type": "function"
    },
    {
      "inputs": [
        {
          "internalType": "uint64",
          "name": "roleId",
          "type": "uint64"
        },
        {
          "internalType": "address",
          "name": "account",
          "type": "address"
        }
      ],
      "name": "hasRole",
      "outputs": [
        {
          "internalType": "bool",
          "name": "isMember",
          "type": "bool"
        },
        {
          "internalType": "uint32",
          "name": "executionDelay",
          "type": "uint32"
        }
      ],
      "stateMutability": "view",
      "type": "function"
    },
    {
      "inputs": [
        {
          "internalType": "address",
          "name": "caller",
          "type": "address"
        },
        {
          "internalType": "address",
          "name": "target",
          "type": "address"
        },
        {
          "internalType": "bytes",
          "name": "data",
          "type": "bytes"
        }
      ],
      "name": "hashOperation",
      "outputs": [
        {
          "internalType": "bytes32",
          "name": "",
          "type": "bytes32"
        }
      ],
      "stateMutability": "view",
      "type": "function"
    },
    {
      "inputs": [
        {
          "internalType": "address",
          "name": "target",
          "type": "address"
        }
      ],
      "name": "isTargetClosed",
      "outputs": [
        {
          "internalType": "bool",
          "name": "",
          "type": "bool"
        }
      ],
      "stateMutability": "view",
      "type": "function"
    },
    {
      "inputs": [
        {
          "internalType": "uint64",
          "name": "roleId",
          "type": "uint64"
        },
        {
          "internalType": "string",
          "name": "label",
          "type": "string"
        }
      ],
      "name": "labelRole",
      "outputs": [],
      "stateMutability": "nonpayable",
      "type": "function"
    },
    {
      "inputs": [],
      "name": "minSetback",
      "outputs": [
        {
          "internalType": "uint32",
          "name": "",
          "type": "uint32"
        }
      ],
      "stateMutability": "view",
      "type": "function"
    },
    {
      "inputs": [
        {
          "internalType": "bytes[]",
          "name": "data",
          "type": "bytes[]"
        }
      ],
      "name": "multicall",
      "outputs": [
        {
          "internalType": "bytes[]",
          "name": "results",
          "type": "bytes[]"
        }
      ],
      "stateMutability": "nonpayable",
      "type": "function"
    },
    {
      "inputs": [
        {
          "internalType": "uint64",
          "name": "roleId",
          "type": "uint64"
        },
        {
          "internalType": "address",
          "name": "callerConfirmation",
          "type": "address"
        }
      ],
      "name": "renounceRole",
      "outputs": [],
      "stateMutability": "nonpayable",
      "type": "function"
    },
    {
      "inputs": [
        {
          "internalType": "uint64",
          "name": "roleId",
          "type": "uint64"
        },
        {
          "internalType": "address",
          "name": "account",
          "type": "address"
        }
      ],
      "name": "revokeRole",
      "outputs": [],
      "stateMutability": "nonpayable",
      "type": "function"
    },
    {
      "inputs": [
        {
          "internalType": "address",
          "name": "target",
          "type": "address"
        },
        {
          "internalType": "bytes",
          "name": "data",
          "type": "bytes"
        },
        {
          "internalType": "uint48",
          "name": "when",
          "type": "uint48"
        }
      ],
      "name": "schedule",
      "outputs": [
        {
          "internalType": "bytes32",
          "name": "operationId",
          "type": "bytes32"
        },
        {
          "internalType": "uint32",
          "name": "nonce",
          "type": "uint32"
        }
      ],
      "stateMutability": "nonpayable",
      "type": "function"
    },
    {
      "inputs": [
        {
          "internalType": "uint64",
          "name": "roleId",
          "type": "uint64"
        },
        {
          "internalType": "uint32",
          "name": "newDelay",
          "type": "uint32"
        }
      ],
      "name": "setGrantDelay",
      "outputs": [],
      "stateMutability": "nonpayable",
      "type": "function"
    },
    {
      "inputs": [
        {
          "internalType": "uint64",
          "name": "roleId",
          "type": "uint64"
        },
        {
          "internalType": "uint64",
          "name": "admin",
          "type": "uint64"
        }
      ],
      "name": "setRoleAdmin",
      "outputs": [],
      "stateMutability": "nonpayable",
      "type": "function"
    },
    {
      "inputs": [
        {
          "internalType": "uint64",
          "name": "roleId",
          "type": "uint64"
        },
        {
          "internalType": "uint64",
          "name": "guardian",
          "type": "uint64"
        }
      ],
      "name": "setRoleGuardian",
      "outputs": [],
      "stateMutability": "nonpayable",
      "type": "function"
    },
    {
      "inputs": [
        {
          "internalType": "address",
          "name": "target",
          "type": "address"
        },
        {
          "internalType": "uint32",
          "name": "newDelay",
          "type": "uint32"
        }
      ],
      "name": "setTargetAdminDelay",
      "outputs": [],
      "stateMutability": "nonpayable",
      "type": "function"
    },
    {
      "inputs": [
        {
          "internalType": "address",
          "name": "target",
          "type": "address"
        },
        {
          "internalType": "bool",
          "name": "closed",
          "type": "bool"
        }
      ],
      "name": "setTargetClosed",
      "outputs": [],
      "stateMutability": "nonpayable",
      "type": "function"
    },
    {
      "inputs": [
        {
          "internalType": "address",
          "name": "target",
          "type": "address"
        },
        {
          "internalType": "bytes4[]",
          "name": "selectors",
          "type": "bytes4[]"
        },
        {
          "internalType": "uint64",
          "name": "roleId",
          "type": "uint64"
        }
      ],
      "name": "setTargetFunctionRole",
      "outputs": [],
      "stateMutability": "nonpayable",
      "type": "function"
    },
    {
      "inputs": [
        {
          "internalType": "address",
          "name": "target",
          "type": "address"
        },
        {
          "internalType": "address",
          "name": "newAuthority",
          "type": "address"
        }
      ],
      "name": "updateAuthority",
      "outputs": [],
      "stateMutability": "nonpayable",
      "type": "function"
    },
    {
      "stateMutability": "payable",
      "type": "receive"
    }
  ],
  "bytecode": "0x60806040526040516200311538038062003115833981016040819052620000269162000465565b806001600160a01b0381166200005657604051630409d6d160e11b81525f60048201526024015b60405180910390fd5b620000645f8281806200006d565b505050620004ea565b5f6002600160401b03196001600160401b03861601620000ac5760405163061c6a4360e21b81526001600160401b03861660048201526024016200004d565b6001600160401b0385165f9081526001602090815260408083206001600160a01b038816845290915281205465ffffffffffff1615908115620001a95763ffffffff8516620000fa620002bf565b620001069190620004a1565b905060405180604001604052808265ffffffffffff168152602001620001388663ffffffff16620002d060201b60201c565b6001600160701b039081169091526001600160401b0389165f9081526001602090815260408083206001600160a01b038c16845282529091208351815494909201519092166601000000000000026001600160a01b031990931665ffffffffffff9091161791909117905562000251565b6001600160401b0387165f9081526001602090815260408083206001600160a01b038a168452909152812054620001f79166010000000000009091046001600160701b0316908690620002d9565b6001600160401b0389165f9081526001602090815260408083206001600160a01b038c168452909152902080546001600160701b03909316660100000000000002600160301b600160a01b03199093169290921790915590505b6040805163ffffffff8616815265ffffffffffff831660208201528315158183015290516001600160a01b038816916001600160401b038a16917ff98448b987f1428e0e230e1f3c6e2ce15b5693eaf31827fbd0b1ec4b424ae7cf9181900360600190a35095945050505050565b5f620002cb426200038b565b905090565b63ffffffff1690565b5f8080620002f06001600160701b038716620003c3565b90505f620003318563ffffffff168763ffffffff168463ffffffff161162000319575f62000325565b620003258885620004ca565b63ffffffff16620003e3565b905063ffffffff811662000344620002bf565b620003509190620004a1565b925063ffffffff8616602083901b67ffffffff0000000016604085901b6dffffffffffff000000000000000016171793505050935093915050565b5f65ffffffffffff821115620003bf576040516306dfcc6560e41b815260306004820152602481018390526044016200004d565b5090565b5f80620003d96001600160701b038416620003f5565b5090949350505050565b5f8282188284110282185b9392505050565b5f80806200040d8462000407620002bf565b6200041a565b9250925092509193909250565b6001600160501b03602083901c166001600160701b03831665ffffffffffff604085901c8116908416811115620004545782828262000458565b815f805b9250925092509250925092565b5f6020828403121562000476575f80fd5b81516001600160a01b0381168114620003ee575f80fd5b634e487b7160e01b5f52601160045260245ffd5b65ffffffffffff818116838216019080821115620004c357620004c36200048d565b5092915050565b63ffffffff828116828216039080821115620004c357620004c36200048d565b612c1d80620004f85f395ff3fe60806040526004361061026d575f3560e01c806367354a841161014a578063ac9650d8116100be578063d50fdfe011610078578063d50fdfe01461081a578063d6bb62c614610839578063ec75d91514610858578063f801a69814610877578063fe0776f5146108b0578063ff4ae257146108cf575f80fd5b8063ac9650d814610741578063b70096131461076d578063b7d2b162146107a8578063cc1b6c81146107c7578063d1f856ee146107dc578063d22b5989146107fb575f80fd5b806393e611721161010f57806393e611721461067757806394c7d7ee14610696578063a00f97b8146106b5578063a166aa89146106e4578063a64d95ce14610703578063abd9bd2a14610722575f80fd5b806367354a84146105f55780636d5115bd1461060757806375b238fc1461062657806380d4c37414610639578063853551b814610658575f80fd5b806330cae187116101e15780634136a33c116101a65780634136a33c146105105780634665096d146105485780634c1da1e21461055d578063529629521461057c578063530dd4561461059b578063613f2484146105d6575f80fd5b806330cae1871461044d57806332cadf3c1461046c578063342db7391461048d5780633adc277a146104c05780633ca7c02a146104f6575f80fd5b80631cff79cd116102325780631cff79cd1461036a57806325c471a01461037d57806327f06e041461039c5780632904df29146103bb5780632f4e5383146103d55780633078f114146103f4575f80fd5b806308d6122d146102785780630b0a93ba1461029957806312be8727146102f8578063167bd3951461032c57806318ff183c1461034b575f80fd5b3661027457005b5f80fd5b348015610283575f80fd5b5061029761029236600461242f565b6108ee565b005b3480156102a4575f80fd5b506102db6102b3366004612491565b6001600160401b039081165f9081526001602081905260409091200154600160401b90041690565b6040516001600160401b0390911681526020015b60405180910390f35b348015610303575f80fd5b50610317610312366004612491565b610940565b60405163ffffffff90911681526020016102ef565b348015610337575f80fd5b506102976103463660046124aa565b61097a565b348015610356575f80fd5b506102976103653660046124e5565b610990565b61031761037836600461254e565b6109f2565b348015610388575f80fd5b506102976103973660046125b1565b610b1e565b3480156103a7575f80fd5b506102976103b63660046124aa565b610982565b3480156103c6575f80fd5b506040513381526020016102ef565b3480156103e0575f80fd5b506102976103ef3660046125f3565b610b45565b3480156103ff575f80fd5b5061041361040e366004612624565b610b4f565b6040516102ef949392919065ffffffffffff948516815263ffffffff93841660208201529190921660408201529116606082015260800190565b348015610458575f80fd5b5061029761046736600461263e565b610bb3565b348015610477575f80fd5b50610480610bc5565b6040516102ef91906126b3565b348015610498575f80fd5b506104b26e1a185c991a185d0b595e1c1bdcd959608a1b81565b6040519081526020016102ef565b3480156104cb575f80fd5b506104df6104da3660046126c5565b610c02565b60405165ffffffffffff90911681526020016102ef565b348015610501575f80fd5b506102db6001600160401b0381565b34801561051b575f80fd5b5061031761052a3660046126c5565b5f90815260026020526040902054600160301b900463ffffffff1690565b348015610553575f80fd5b5062093a80610317565b348015610568575f80fd5b506103176105773660046126dc565b610c33565b348015610587575f80fd5b5061029761059636600461263e565b610c60565b3480156105a6575f80fd5b506102db6105b5366004612491565b6001600160401b039081165f90815260016020819052604090912001541690565b3480156105e1575f80fd5b506102976105f036600461263e565b610bbb565b348015610600575f80fd5b505f6104b2565b348015610612575f80fd5b506102db61062136600461270c565b610c72565b348015610631575f80fd5b506102db5f81565b348015610644575f80fd5b5061029761065336600461263e565b610c68565b348015610663575f80fd5b50610297610672366004612738565b610cac565b348015610682575f80fd5b50610297610691366004612753565b610d43565b3480156106a1575f80fd5b506102976106b036600461254e565b610d4d565b3480156106c0575f80fd5b506106d46106cf366004612624565b610df7565b60405190151581526020016102ef565b3480156106ef575f80fd5b506106d46106fe3660046126dc565b610e45565b34801561070e575f80fd5b5061029761071d3660046125f3565b610e6c565b34801561072d575f80fd5b506104b261073c36600461276f565b610e74565b34801561074c575f80fd5b5061076061075b3660046127cf565b610eac565b6040516102ef919061280d565b348015610778575f80fd5b5061078c61078736600461286f565b610f91565b60408051921515835263ffffffff9091166020830152016102ef565b3480156107b3575f80fd5b506102976107c2366004612624565b611012565b3480156107d2575f80fd5b5062069780610317565b3480156107e7575f80fd5b5061078c6107f6366004612624565b611029565b348015610806575f80fd5b50610297610815366004612753565b6110a2565b348015610825575f80fd5b506103176108343660046126c5565b6110aa565b348015610844575f80fd5b5061031761085336600461276f565b6110f5565b348015610863575f80fd5b506106d46108723660046128b7565b611248565b348015610882575f80fd5b506108966108913660046128ff565b61129a565b6040805192835263ffffffff9091166020830152016102ef565b3480156108bb575f80fd5b506102976108ca366004612624565b6113db565b3480156108da575f80fd5b506102976108e936600461296c565b611404565b6108f661140f565b5f5b828110156109395761093185858584818110610916576109166129a7565b905060200201602081019061092b91906129bb565b84611486565b6001016108f8565b5050505050565b6001600160401b0381165f9081526001602081905260408220015461097490600160801b90046001600160701b0316611507565b92915050565b61098261140f565b61098c8282611525565b5050565b61099861140f565b604051637a9e5e4b60e01b81526001600160a01b038281166004830152831690637a9e5e4b906024015f604051808303815f87803b1580156109d8575f80fd5b505af11580156109ea573d5f803e3d5ffd5b505050505050565b5f338180610a0283888888611596565b9150915081158015610a18575063ffffffff8116155b15610a6b578287610a2988886115e7565b6040516381c6f24b60e01b81526001600160a01b0393841660048201529290911660248301526001600160e01b03191660448201526064015b60405180910390fd5b5f610a7884898989610e74565b90505f63ffffffff8316151580610a9e5750610a9382610c02565b65ffffffffffff1615155b15610aaf57610aac826115fe565b90505b600354610ac58a610ac08b8b6115e7565b6116fc565b600381905550610b0c8a8a8a8080601f0160208091040260200160405190810160405280939291908181526020018383808284375f9201919091525034925061173e915050565b506003559450505050505b9392505050565b610b2661140f565b610b3a8383610b3486610940565b846117de565b50505050565b905090565b61098c8282611a24565b6001600160401b0382165f9081526001602090815260408083206001600160a01b03851684529091528120805465ffffffffffff811692918291829190610ba590600160301b90046001600160701b0316611b33565b969991985096509350505050565b610bbb61140f565b61098c8282611b54565b60605f368080601f0160208091040260200160405190810160405280939291908181526020018383808284375f9201919091525092949350505050565b5f8181526002602052604081205465ffffffffffff16610c2181611bf7565b610c2b5780610b17565b5f9392505050565b6001600160a01b0381165f90815260208190526040812060010154610974906001600160701b0316611507565b610c6861140f565b61098c8282611c25565b6001600160a01b0382165f908152602081815260408083206001600160e01b0319851684529091529020546001600160401b031692915050565b610cb461140f565b6001600160401b0383161580610cd257506001600160401b03838116145b15610cfb5760405163061c6a4360e21b81526001600160401b0384166004820152602401610a62565b826001600160401b03167f1256f5b5ecb89caec12db449738f2fbcd1ba5806cf38f35413f4e5c15bf6a4508383604051610d369291906129fe565b60405180910390a2505050565b61098c8282611cd6565b60408051638fb3603760e01b80825291513392918391638fb36037916004808201926020929091908290030181865afa158015610d8c573d5f803e3d5ffd5b505050506040513d601f19601f82011682018060405250810190610db09190612a19565b6001600160e01b03191614610de357604051630641fee960e31b81526001600160a01b0382166004820152602401610a62565b610939610df285838686610e74565b6115fe565b5f610e028383611d91565b90507fe404ca92845347e354d44ac6f2449eba6681424c1f6f1d34173ac2f49c6996b381604051610e37911515815260200190565b60405180910390a192915050565b6001600160a01b03165f90815260208190526040902060010154600160701b900460ff1690565b610b4561140f565b5f84848484604051602001610e8c9493929190612a34565b604051602081830303815290604052805190602001209050949350505050565b604080515f815260208101909152606090826001600160401b03811115610ed557610ed5612a9b565b604051908082528060200260200182016040528015610f0857816020015b6060815260200190600190039081610ef35790505b5091505f5b83811015610f8957610f6430868684818110610f2b57610f2b6129a7565b9050602002810190610f3d9190612aaf565b85604051602001610f5093929190612af1565b604051602081830303815290604052611e7a565b838281518110610f7657610f766129a7565b6020908102919091010152600101610f0d565b505092915050565b5f80610f9c84610e45565b15610fab57505f90508061100a565b306001600160a01b03861603610fcf57610fc58484611eec565b5f9150915061100a565b5f610fda8585610c72565b90505f80610fe88389611029565b9150915081610ff8575f80611002565b63ffffffff811615815b945094505050505b935093915050565b61101a61140f565b6110248282611d91565b505050565b5f8067fffffffffffffffe196001600160401b0385160161104f5750600190505f61109b565b5f8061105b8686610b4f565b5050915091508165ffffffffffff165f14158015611090575061107c611f02565b65ffffffffffff168265ffffffffffff1611155b9350915061109b9050565b9250929050565b610d4361140f565b5f6110b4826115fe565b60405163ffffffff821681529091507fe2d16b6231c7800475107662be3842ffca22a09396e55abb824b08ba468ab85d9060200160405180910390a1919050565b5f338161110285856115e7565b90505f61111188888888610e74565b5f8181526002602052604081205491925065ffffffffffff909116900361114e5760405163060a299b60e41b815260048101829052602401610a62565b826001600160a01b0316886001600160a01b0316146111e7575f6111725f85611029565b5090505f61118c6111866102b38b87610c72565b86611029565b5090508115801561119b575080155b156111e457604051630ff89d4760e21b81526001600160a01b038087166004830152808c1660248301528a1660448201526001600160e01b031985166064820152608401610a62565b50505b5f81815260026020526040808220805465ffffffffffff1916908190559051600160301b90910463ffffffff1691829184917fbd9ac67a6e2f6463b80927326310338bcbb4bdb7936ce1365ea3e01067e7b9f791a398975050505050505050565b5f611255858585856117de565b90507f370ef10a740e8e7931c19225ec88cd0e2e6bd52365a53489c401385c558287338160405161128a911515815260200190565b60405180910390a1949350505050565b5f8033816112aa82898989611596565b9150505f8163ffffffff166112bd611f02565b6112c79190612b16565b905063ffffffff821615806112fd57505f8665ffffffffffff161180156112fd57508065ffffffffffff168665ffffffffffff16105b1561130e578289610a298a8a6115e7565b6113288665ffffffffffff168265ffffffffffff16611f0c565b9550611336838a8a8a610e74565b945061134185611f1b565b5f8581526002602052604090819020805465ffffffffffff891669ffffffffffffffffffff19821617600160301b9182900463ffffffff90811660010190811692830291909117909255915190955086907f82a2da5dee54ea8021c6545b4444620291e07ee83be6dd57edb175062715f3b4906113c7908a9088908f908f908f90612b3c565b60405180910390a350505094509492505050565b6001600160a01b038116331461101a57604051635f159e6360e01b815260040160405180910390fd5b611024838383611486565b335f8061141d838236611f67565b9150915081611024578063ffffffff165f03611477575f61143e813661202a565b5060405163f07e038f60e01b81526001600160a01b03871660048201526001600160401b03821660248201529092506044019050610a62565b610b3a610df284305f36610e74565b6001600160a01b0383165f818152602081815260408083206001600160e01b0319871680855290835292819020805467ffffffffffffffff19166001600160401b038716908117909155905192835292917f9ea6790c7dadfd01c9f8b9762b3682607af2c7e79e05a9f9fdf5580dde949151910160405180910390a3505050565b5f8061151b836001600160701b0316611b33565b5090949350505050565b6001600160a01b0382165f81815260208190526040908190206001018054841515600160701b0260ff60701b19909116179055517f90d4e7bb7e5d933792b3562e1741306f8be94837e1348dacef9b6f1df56eb1389061158a90841515815260200190565b60405180910390a25050565b5f80306001600160a01b038616036115bc576115b3868585611f67565b915091506115de565b600483106115d8576115d3868661078787876115e7565b6115b3565b505f9050805b94509492505050565b5f6115f56004828486612a74565b610b1791612b81565b5f8181526002602052604081205465ffffffffffff811690600160301b900463ffffffff168183036116465760405163060a299b60e41b815260048101859052602401610a62565b61164e611f02565b65ffffffffffff168265ffffffffffff16111561168157604051630c65b5bd60e11b815260048101859052602401610a62565b61168a82611bf7565b156116ab57604051631e2975b960e21b815260048101859052602401610a62565b5f84815260026020526040808220805465ffffffffffff191690555163ffffffff83169186917f76a2a46953689d4861a5d3f6ed883ad7e6af674a21f8e162707159fc9dde614d9190a39392505050565b604080516001600160a01b03939093166020808501919091526001600160e01b0319929092168382015280518084038201815260609093019052815191012090565b60608147101561176a5760405163cf47918160e01b815247600482015260248101839052604401610a62565b5f80856001600160a01b031684866040516117859190612baf565b5f6040518083038185875af1925050503d805f81146117bf576040519150601f19603f3d011682016040523d82523d5f602084013e6117c4565b606091505b50915091506117d4868383612210565b9695505050505050565b5f67fffffffffffffffe196001600160401b0386160161181c5760405163061c6a4360e21b81526001600160401b0386166004820152602401610a62565b6001600160401b0385165f9081526001602090815260408083206001600160a01b038816845290915281205465ffffffffffff161590811561190c578463ffffffff16611867611f02565b6118719190612b16565b905060405180604001604052808265ffffffffffff16815260200161189f8663ffffffff1663ffffffff1690565b6001600160701b039081169091526001600160401b0389165f9081526001602090815260408083206001600160a01b038c1684528252909120835181549490920151909216600160301b026001600160a01b031990931665ffffffffffff909116179190911790556119b6565b6001600160401b0387165f9081526001602090815260408083206001600160a01b038a16845290915281205461195591600160301b9091046001600160701b031690869061226c565b6001600160401b0389165f9081526001602090815260408083206001600160a01b038c168452909152902080546001600160701b03909316600160301b0273ffffffffffffffffffffffffffff000000000000199093169290921790915590505b6040805163ffffffff8616815265ffffffffffff831660208201528315158183015290516001600160a01b038816916001600160401b038a16917ff98448b987f1428e0e230e1f3c6e2ce15b5693eaf31827fbd0b1ec4b424ae7cf9181900360600190a35095945050505050565b67fffffffffffffffe196001600160401b03831601611a615760405163061c6a4360e21b81526001600160401b0383166004820152602401610a62565b6001600160401b0382165f90815260016020819052604082200154611a9a90600160801b90046001600160701b0316836206978061226c565b6001600160401b0385165f818152600160208190526040918290200180546001600160701b03909516600160801b026dffffffffffffffffffffffffffff60801b199095169490941790935591519092507ffeb69018ee8b8fd50ea86348f1267d07673379f72cffdeccec63853ee8ce8b4890610d36908590859063ffffffff92909216825265ffffffffffff16602082015260400190565b5f805f611b4784611b42611f02565b612312565b9250925092509193909250565b6001600160401b0382161580611b7257506001600160401b03828116145b15611b9b5760405163061c6a4360e21b81526001600160401b0383166004820152602401610a62565b6001600160401b038281165f818152600160208190526040808320909101805467ffffffffffffffff19169486169485179055517f1fd6dd7631312dfac2205b52913f99de03b4d7e381d5d27d3dbfe0713e6e63409190a35050565b5f611c00611f02565b65ffffffffffff16611c1562093a8084612b16565b65ffffffffffff16111592915050565b6001600160401b0382161580611c4357506001600160401b03828116145b15611c6c5760405163061c6a4360e21b81526001600160401b0383166004820152602401610a62565b6001600160401b038281165f81815260016020819052604080832090910180546fffffffffffffffff00000000000000001916600160401b958716958602179055517f7a8059630b897b5de4c08ade69f8b90c3ead1f8596d62d10b6c4d14a0afb4ae29190a35050565b6001600160a01b0382165f90815260208190526040812060010154611d08906001600160701b0316836206978061226c565b6001600160a01b0385165f818152602081815260409182902060010180546dffffffffffffffffffffffffffff19166001600160701b039690961695909517909455805163ffffffff8716815265ffffffffffff841694810194909452919350917fa56b76017453f399ec2327ba00375dbfb1fd070ff854341ad6191e6a2e2de19c9101610d36565b5f67fffffffffffffffe196001600160401b03841601611dcf5760405163061c6a4360e21b81526001600160401b0384166004820152602401610a62565b6001600160401b0383165f9081526001602090815260408083206001600160a01b038616845290915281205465ffffffffffff169003611e1057505f610974565b6001600160401b0383165f8181526001602090815260408083206001600160a01b038716808552925280832080546001600160a01b0319169055519092917ff229baa593af28c41b1d16b748cd7688f0c83aaf92d4be41c44005defe84c16691a350600192915050565b60605f80846001600160a01b031684604051611e969190612baf565b5f60405180830381855af49150503d805f8114611ece576040519150601f19603f3d011682016040523d82523d5f602084013e611ed3565b606091505b5091509150611ee3858383612210565b95945050505050565b5f611ef783836116fc565b600354149392505050565b5f610b404261235e565b5f828218828411028218610b17565b5f8181526002602052604090205465ffffffffffff168015801590611f465750611f4481611bf7565b155b1561098c5760405163813e945960e01b815260048101839052602401610a62565b5f806004831015611f7c57505f90508061100a565b306001600160a01b03861603611f9f57610fc530611f9a86866115e7565b611eec565b5f805f611fac878761202a565b92509250925082158015611fc45750611fc430610e45565b15611fd7575f809450945050505061100a565b5f80611fe3848b611029565b9150915081611ffc575f8096509650505050505061100a565b6120128363ffffffff168263ffffffff16611f0c565b63ffffffff8116159b909a5098505050505050505050565b5f8080600484101561204357505f915081905080612209565b5f61204e86866115e7565b90506001600160e01b031981166310a6aa3760e31b148061207f57506001600160e01b031981166330cae18760e01b145b8061209a57506001600160e01b0319811663294b14a960e11b145b806120b557506001600160e01b03198116635326cae760e11b145b806120d057506001600160e01b0319811663d22b598960e01b145b156120e55760015f8093509350935050612209565b6001600160e01b0319811663063fc60f60e21b148061211457506001600160e01b0319811663167bd39560e01b145b8061212f57506001600160e01b031981166308d6122d60e01b145b1561216e575f61214360246004888a612a74565b81019061215091906126dc565b90505f61215c82610c33565b600196505f9550935061220992505050565b6001600160e01b0319811663012e238d60e51b148061219d57506001600160e01b03198116635be958b160e11b145b156121f5575f6121b160246004888a612a74565b8101906121be9190612491565b905060016121e7826001600160401b039081165f90815260016020819052604090912001541690565b5f9450945094505050612209565b5f6122003083610c72565b5f935093509350505b9250925092565b6060826122255761222082612394565b610b17565b815115801561223c57506001600160a01b0384163b155b1561226557604051639996b31560e01b81526001600160a01b0385166004820152602401610a62565b5080610b17565b5f805f612281866001600160701b0316611507565b90505f6122bc8563ffffffff168763ffffffff168463ffffffff16116122a7575f6122b1565b6122b18885612bca565b63ffffffff16611f0c565b90508063ffffffff166122cd611f02565b6122d79190612b16565b925063ffffffff8616602083901b67ffffffff0000000016604085901b6dffffffffffff000000000000000016171793505050935093915050565b69ffffffffffffffffffff602083901c166001600160701b03831665ffffffffffff604085901c811690841681111561234d57828282612351565b815f805b9250925092509250925092565b5f65ffffffffffff821115612390576040516306dfcc6560e41b81526030600482015260248101839052604401610a62565b5090565b8051156123a45780518082602001fd5b60405163d6bda27560e01b815260040160405180910390fd5b50565b6001600160a01b03811681146123bd575f80fd5b5f8083601f8401126123e4575f80fd5b5081356001600160401b038111156123fa575f80fd5b6020830191508360208260051b850101111561109b575f80fd5b80356001600160401b038116811461242a575f80fd5b919050565b5f805f8060608587031215612442575f80fd5b843561244d816123c0565b935060208501356001600160401b03811115612467575f80fd5b612473878288016123d4565b9094509250612486905060408601612414565b905092959194509250565b5f602082840312156124a1575f80fd5b610b1782612414565b5f80604083850312156124bb575f80fd5b82356124c6816123c0565b9150602083013580151581146124da575f80fd5b809150509250929050565b5f80604083850312156124f6575f80fd5b8235612501816123c0565b915060208301356124da816123c0565b5f8083601f840112612521575f80fd5b5081356001600160401b03811115612537575f80fd5b60208301915083602082850101111561109b575f80fd5b5f805f60408486031215612560575f80fd5b833561256b816123c0565b925060208401356001600160401b03811115612585575f80fd5b61259186828701612511565b9497909650939450505050565b803563ffffffff8116811461242a575f80fd5b5f805f606084860312156125c3575f80fd5b6125cc84612414565b925060208401356125dc816123c0565b91506125ea6040850161259e565b90509250925092565b5f8060408385031215612604575f80fd5b61260d83612414565b915061261b6020840161259e565b90509250929050565b5f8060408385031215612635575f80fd5b61250183612414565b5f806040838503121561264f575f80fd5b61265883612414565b915061261b60208401612414565b5f5b83811015612680578181015183820152602001612668565b50505f910152565b5f815180845261269f816020860160208601612666565b601f01601f19169290920160200192915050565b602081525f610b176020830184612688565b5f602082840312156126d5575f80fd5b5035919050565b5f602082840312156126ec575f80fd5b8135610b17816123c0565b6001600160e01b0319811681146123bd575f80fd5b5f806040838503121561271d575f80fd5b8235612728816123c0565b915060208301356124da816126f7565b5f805f6040848603121561274a575f80fd5b61256b84612414565b5f8060408385031215612764575f80fd5b823561260d816123c0565b5f805f8060608587031215612782575f80fd5b843561278d816123c0565b9350602085013561279d816123c0565b925060408501356001600160401b038111156127b7575f80fd5b6127c387828801612511565b95989497509550505050565b5f80602083850312156127e0575f80fd5b82356001600160401b038111156127f5575f80fd5b612801858286016123d4565b90969095509350505050565b5f60208083016020845280855180835260408601915060408160051b8701019250602087015f5b8281101561286257603f19888603018452612850858351612688565b94509285019290850190600101612834565b5092979650505050505050565b5f805f60608486031215612881575f80fd5b833561288c816123c0565b9250602084013561289c816123c0565b915060408401356128ac816126f7565b809150509250925092565b5f805f80608085870312156128ca575f80fd5b6128d385612414565b935060208501356128e3816123c0565b92506128f16040860161259e565b91506124866060860161259e565b5f805f8060608587031215612912575f80fd5b843561291d816123c0565b935060208501356001600160401b03811115612937575f80fd5b61294387828801612511565b909450925050604085013565ffffffffffff81168114612961575f80fd5b939692955090935050565b5f805f6060848603121561297e575f80fd5b8335612989816123c0565b92506020840135612999816126f7565b91506125ea60408501612414565b634e487b7160e01b5f52603260045260245ffd5b5f602082840312156129cb575f80fd5b8135610b17816126f7565b81835281816020850137505f828201602090810191909152601f909101601f19169091010190565b602081525f612a116020830184866129d6565b949350505050565b5f60208284031215612a29575f80fd5b8151610b17816126f7565b6001600160a01b038581168252841660208201526060604082018190525f906117d490830184866129d6565b634e487b7160e01b5f52601160045260245ffd5b5f8085851115612a82575f80fd5b83861115612a8e575f80fd5b5050820193919092039150565b634e487b7160e01b5f52604160045260245ffd5b5f808335601e19843603018112612ac4575f80fd5b8301803591506001600160401b03821115612add575f80fd5b60200191503681900382131561109b575f80fd5b828482375f8382015f81528351612b0c818360208801612666565b0195945050505050565b65ffffffffffff818116838216019080821115612b3557612b35612a60565b5092915050565b65ffffffffffff861681526001600160a01b038581166020830152841660408201526080606082018190525f90612b7690830184866129d6565b979650505050505050565b6001600160e01b03198135818116916004851015610f895760049490940360031b84901b1690921692915050565b5f8251612bc0818460208701612666565b9190910192915050565b63ffffffff828116828216039080821115612b3557612b35612a6056fea26469706673582212201275961f111821256b839f10e4d657c6db9f587f483affe8873786ffbd7c348864736f6c63430008180033",
  "linkReferences": {},
  "deployedLinkReferences": {}
}