{"contracts/swap-router-contracts/lens/MixedRouteQuoterV1.sol":{"MixedRouteQuoterV1":{"abi":[{"inputs":[{"internalType":"address","name":"_factory","type":"address"},{"internalType":"address","name":"_factoryV2","type":"address"},{"internalType":"address","name":"_WETH9","type":"address"}],"stateMutability":"nonpayable","type":"constructor"},{"inputs":[],"name":"WETH9","outputs":[{"internalType":"address","name":"","type":"address"}],"stateMutability":"view","type":"function"},{"inputs":[],"name":"factory","outputs":[{"internalType":"address","name":"","type":"address"}],"stateMutability":"view","type":"function"},{"inputs":[],"name":"factoryV2","outputs":[{"internalType":"address","name":"","type":"address"}],"stateMutability":"view","type":"function"},{"inputs":[{"internalType":"bytes","name":"path","type":"bytes"},{"internalType":"uint256","name":"amountIn","type":"uint256"}],"name":"quoteExactInput","outputs":[{"internalType":"uint256","name":"amountOut","type":"uint256"},{"internalType":"uint160[]","name":"v3SqrtPriceX96AfterList","type":"uint160[]"},{"internalType":"uint32[]","name":"v3InitializedTicksCrossedList","type":"uint32[]"},{"internalType":"uint256","name":"v3SwapGasEstimate","type":"uint256"}],"stateMutability":"nonpayable","type":"function"},{"inputs":[{"components":[{"internalType":"address","name":"tokenIn","type":"address"},{"internalType":"address","name":"tokenOut","type":"address"},{"internalType":"uint256","name":"amountIn","type":"uint256"}],"internalType":"struct IMixedRouteQuoterV1.QuoteExactInputSingleV2Params","name":"params","type":"tuple"}],"name":"quoteExactInputSingleV2","outputs":[{"internalType":"uint256","name":"amountOut","type":"uint256"}],"stateMutability":"view","type":"function"},{"inputs":[{"components":[{"internalType":"address","name":"tokenIn","type":"address"},{"internalType":"address","name":"tokenOut","type":"address"},{"internalType":"uint256","name":"amountIn","type":"uint256"},{"internalType":"uint24","name":"fee","type":"uint24"},{"internalType":"uint160","name":"sqrtPriceLimitX96","type":"uint160"}],"internalType":"struct IMixedRouteQuoterV1.QuoteExactInputSingleV3Params","name":"params","type":"tuple"}],"name":"quoteExactInputSingleV3","outputs":[{"internalType":"uint256","name":"amountOut","type":"uint256"},{"internalType":"uint160","name":"sqrtPriceX96After","type":"uint160"},{"internalType":"uint32","name":"initializedTicksCrossed","type":"uint32"},{"internalType":"uint256","name":"gasEstimate","type":"uint256"}],"stateMutability":"nonpayable","type":"function"},{"inputs":[{"internalType":"int256","name":"amount0Delta","type":"int256"},{"internalType":"int256","name":"amount1Delta","type":"int256"},{"internalType":"bytes","name":"path","type":"bytes"}],"name":"uniswapV3SwapCallback","outputs":[],"stateMutability":"view","type":"function"}],"evm":{"bytecode":{"linkReferences":{},"object":"60e06040523480156200001157600080fd5b506040516200225438038062002254833981016040819052620000349162000078565b6001600160601b0319606093841b811660805290831b811660a052911b1660c052620000c1565b80516001600160a01b03811681146200007357600080fd5b919050565b6000806000606084860312156200008d578283fd5b62000098846200005b565b9250620000a8602085016200005b565b9150620000b8604085016200005b565b90509250925092565b60805160601c60a05160601c60c05160601c61214e620001066000398061015152806107b052508061012d52508061036d528061061252806107f6525061214e6000f3fe608060405234801561001057600080fd5b506004361061007d5760003560e01c8063b174a0a71161005b578063b174a0a7146100c8578063c45a0155146100eb578063cdca1753146100f3578063fa461e33146101165761007d565b80634aa4a4fc1461008257806368e0d4e1146100a05780638a499286146100a8575b600080fd5b61008a61012b565b6040516100979190611ea7565b60405180910390f35b61008a61014f565b6100bb6100b6366004611c32565b610173565b6040516100979190611fa0565b6100db6100d6366004611c96565b610192565b6040516100979493929190612051565b61008a61036b565b610106610101366004611b14565b61038f565b6040516100979493929190611fa9565b610129610124366004611b7a565b6105e1565b005b7f000000000000000000000000000000000000000000000000000000000000000081565b7f000000000000000000000000000000000000000000000000000000000000000081565b600061018c8260400151836000015184602001516107a6565b92915050565b60208101518151606083015160009283928392839273ffffffffffffffffffffffffffffffffffffffff808216908416109284926101d092906107ef565b905060005a90508173ffffffffffffffffffffffffffffffffffffffff1663128acb0830856102028c6040015161082d565b60808d015173ffffffffffffffffffffffffffffffffffffffff161561022c578c60800151610252565b8761024b5773fffd8963efd1fc6a506488495d951d5263988d25610252565b6401000276a45b8d600001518e606001518f6020015160405160200161027393929190611e41565b6040516020818303038152906040526040518663ffffffff1660e01b81526004016102a2959493929190611ec8565b6040805180830381600087803b1580156102bb57600080fd5b505af1925050508015610309575060408051601f3d9081017fffffffffffffffffffffffffffffffffffffffffffffffffffffffffffffffe016820190925261030691810190611b57565b60015b61035e573d808015610337576040519150601f19603f3d011682016040523d82523d6000602084013e61033c565b606091505b505a8203945061034d81848761085f565b975097509750975050505050610364565b50505050505b9193509193565b7f000000000000000000000000000000000000000000000000000000000000000081565b6000606080600061039f86610933565b67ffffffffffffffff811180156103b557600080fd5b506040519080825280602002602001820160405280156103df578160200160208202803683370190505b5092506103eb86610933565b67ffffffffffffffff8111801561040157600080fd5b5060405190808252806020026020018201604052801561042b578160200160208202803683370190505b50915060005b600080600061043f8a610962565b91945092509050628000008116156104a7576104a060405180606001604052808573ffffffffffffffffffffffffffffffffffffffff1681526020018473ffffffffffffffffffffffffffffffffffffffff1681526020018b815250610173565b98506105a0565b6000806000806105246040518060a001604052808973ffffffffffffffffffffffffffffffffffffffff1681526020018873ffffffffffffffffffffffffffffffffffffffff1681526020018f81526020018762ffffff168152602001600073ffffffffffffffffffffffffffffffffffffffff16815250610192565b9350935093509350828b898151811061053957fe5b602002602001019073ffffffffffffffffffffffffffffffffffffffff16908173ffffffffffffffffffffffffffffffffffffffff1681525050818a898151811061058057fe5b63ffffffff90921660209283029190910190910152929b50505094909401935b6001909301926105af8a610993565b156105c4576105bd8a61099b565b99506105d0565b889750505050506105d8565b505050610431565b92959194509250565b60008313806105f05750600082135b6105f957600080fd5b600080600061060784610962565b9250925092506106397f00000000000000000000000000000000000000000000000000000000000000008484846109d0565b506000806000881361067d578473ffffffffffffffffffffffffffffffffffffffff168473ffffffffffffffffffffffffffffffffffffffff1610886000036106b1565b8373ffffffffffffffffffffffffffffffffffffffff168573ffffffffffffffffffffffffffffffffffffffff1610876000035b9150915060006106c28686866107ef565b90506000808273ffffffffffffffffffffffffffffffffffffffff16633850c7bd6040518163ffffffff1660e01b815260040160e06040518083038186803b15801561070d57600080fd5b505afa158015610721573d6000803e3d6000fd5b505050506040513d601f19601f820116820180604052508101906107459190611d23565b505050505091509150841561076b57604051848152826020820152816040820152606081fd5b6040517f08c379a000000000000000000000000000000000000000000000000000000000815260040161079d90611f6b565b60405180910390fd5b60008060006107d67f000000000000000000000000000000000000000000000000000000000000000086866109ef565b915091506107e5868383610ad7565b9695505050505050565b60006108257f0000000000000000000000000000000000000000000000000000000000000000610820868686610bad565b610c2a565b949350505050565b60007f8000000000000000000000000000000000000000000000000000000000000000821061085b57600080fd5b5090565b6000806000806000808773ffffffffffffffffffffffffffffffffffffffff16633850c7bd6040518163ffffffff1660e01b815260040160e06040518083038186803b1580156108ae57600080fd5b505afa1580156108c2573d6000803e3d6000fd5b505050506040513d601f19601f820116820180604052508101906108e69190611d23565b509396506108fb94508d9350610d6092505050565b9197509550905061092373ffffffffffffffffffffffffffffffffffffffff89168383610e18565b9350869250505093509350935093565b805160177fffffffffffffffffffffffffffffffffffffffffffffffffffffffffffffffec909101045b919050565b600080806109708482611470565b925061097d846014611570565b905061098a846017611470565b91509193909250565b516042111590565b805160609061018c9083906017907fffffffffffffffffffffffffffffffffffffffffffffffffffffffffffffffe901611660565b60006109e6856109e1868686610bad565b611847565b95945050505050565b60008060006109fe8585611877565b509050600080610a0f88888861191c565b73ffffffffffffffffffffffffffffffffffffffff16630902f1ac6040518163ffffffff1660e01b815260040160606040518083038186803b158015610a5457600080fd5b505afa158015610a68573d6000803e3d6000fd5b505050506040513d6060811015610a7e57600080fd5b5080516020909101516dffffffffffffffffffffffffffff918216935016905073ffffffffffffffffffffffffffffffffffffffff87811690841614610ac5578082610ac8565b81815b90999098509650505050505050565b6000808411610b4757604080517f08c379a000000000000000000000000000000000000000000000000000000000815260206004820152601960248201527f494e53554646494349454e545f494e5055545f414d4f554e5400000000000000604482015290519081900360640190fd5b600083118015610b575750600082115b610b6057600080fd5b6000610b6e856103e5611a07565b90506000610b7c8285611a07565b90506000610b9683610b90886103e8611a07565b90611a2b565b9050808281610ba157fe5b04979650505050505050565b610bb5611a74565b8273ffffffffffffffffffffffffffffffffffffffff168473ffffffffffffffffffffffffffffffffffffffff161115610bed579192915b506040805160608101825273ffffffffffffffffffffffffffffffffffffffff948516815292909316602083015262ffffff169181019190915290565b6000816020015173ffffffffffffffffffffffffffffffffffffffff16826000015173ffffffffffffffffffffffffffffffffffffffff1610610c6c57600080fd5b508051602080830151604093840151845173ffffffffffffffffffffffffffffffffffffffff94851681850152939091168385015262ffffff166060808401919091528351808403820181526080840185528051908301207fff0000000000000000000000000000000000000000000000000000000000000060a085015294901b7fffffffffffffffffffffffffffffffffffffffff0000000000000000000000001660a183015260b58201939093527fe34f199b19b2b4f47f68442619d555527d244f78a3297ea89325f843f87b8b5460d5808301919091528251808303909101815260f5909101909152805191012090565b60008060008351606014610df757604484511015610daa576040517f08c379a000000000000000000000000000000000000000000000000000000000815260040161079d90611f34565b60048401935083806020019051810190610dc49190611bc8565b6040517f08c379a000000000000000000000000000000000000000000000000000000000815260040161079d9190611f1a565b83806020019051810190610e0b9190611dba565b9250925092509193909250565b60008060008060008060008060088b73ffffffffffffffffffffffffffffffffffffffff1663d0c93a7c6040518163ffffffff1660e01b815260040160206040518083038186803b158015610e6c57600080fd5b505afa158015610e80573d6000803e3d6000fd5b505050506040513d6020811015610e9657600080fd5b5051600290810b908c900b81610ea857fe5b0560020b901d905060006101008c73ffffffffffffffffffffffffffffffffffffffff1663d0c93a7c6040518163ffffffff1660e01b815260040160206040518083038186803b158015610efb57600080fd5b505afa158015610f0f573d6000803e3d6000fd5b505050506040513d6020811015610f2557600080fd5b5051600290810b908d900b81610f3757fe5b0560020b81610f4257fe5b079050600060088d73ffffffffffffffffffffffffffffffffffffffff1663d0c93a7c6040518163ffffffff1660e01b815260040160206040518083038186803b158015610f8f57600080fd5b505afa158015610fa3573d6000803e3d6000fd5b505050506040513d6020811015610fb957600080fd5b5051600290810b908d900b81610fcb57fe5b0560020b901d905060006101008e73ffffffffffffffffffffffffffffffffffffffff1663d0c93a7c6040518163ffffffff1660e01b815260040160206040518083038186803b15801561101e57600080fd5b505afa158015611032573d6000803e3d6000fd5b505050506040513d602081101561104857600080fd5b5051600290810b908e900b8161105a57fe5b0560020b8161106557fe5b07905060008160ff166001901b8f73ffffffffffffffffffffffffffffffffffffffff16635339c296856040518263ffffffff1660e01b8152600401808260010b815260200191505060206040518083038186803b1580156110c657600080fd5b505afa1580156110da573d6000803e3d6000fd5b505050506040513d60208110156110f057600080fd5b50511611801561118357508d73ffffffffffffffffffffffffffffffffffffffff1663d0c93a7c6040518163ffffffff1660e01b815260040160206040518083038186803b15801561114157600080fd5b505afa158015611155573d6000803e3d6000fd5b505050506040513d602081101561116b57600080fd5b5051600290810b908d900b8161117d57fe5b0760020b155b801561119457508b60020b8d60020b135b945060008360ff166001901b8f73ffffffffffffffffffffffffffffffffffffffff16635339c296876040518263ffffffff1660e01b8152600401808260010b815260200191505060206040518083038186803b1580156111f457600080fd5b505afa158015611208573d6000803e3d6000fd5b505050506040513d602081101561121e57600080fd5b5051161180156112b157508d73ffffffffffffffffffffffffffffffffffffffff1663d0c93a7c6040518163ffffffff1660e01b815260040160206040518083038186803b15801561126f57600080fd5b505afa158015611283573d6000803e3d6000fd5b505050506040513d602081101561129957600080fd5b5051600290810b908e900b816112ab57fe5b0760020b155b80156112c257508b60020b8d60020b125b95508160010b8460010b12806112ee57508160010b8460010b1480156112ee57508060ff168360ff1611155b1561130457839950829750819850809650611311565b8199508097508398508296505b50507fffffffffffffffffffffffffffffffffffffffffffffffffffffffffffffffff60ff87161b9150505b8560010b8760010b13611448578560010b8760010b1415611382577fffffffffffffffffffffffffffffffffffffffffffffffffffffffffffffffff60ff858103161c165b6000818c73ffffffffffffffffffffffffffffffffffffffff16635339c2968a6040518263ffffffff1660e01b8152600401808260010b815260200191505060206040518083038186803b1580156113d957600080fd5b505afa1580156113ed573d6000803e3d6000fd5b505050506040513d602081101561140357600080fd5b505116905061141181611a3b565b61ffff16989098019750506001909501947fffffffffffffffffffffffffffffffffffffffffffffffffffffffffffffffff61133d565b8115611455576001880397505b8215611462576001880397505b505050505050509392505050565b6000818260140110156114e457604080517f08c379a000000000000000000000000000000000000000000000000000000000815260206004820152601260248201527f746f416464726573735f6f766572666c6f770000000000000000000000000000604482015290519081900360640190fd5b816014018351101561155757604080517f08c379a000000000000000000000000000000000000000000000000000000000815260206004820152601560248201527f746f416464726573735f6f75744f66426f756e64730000000000000000000000604482015290519081900360640190fd5b5001602001516c01000000000000000000000000900490565b6000818260030110156115e457604080517f08c379a000000000000000000000000000000000000000000000000000000000815260206004820152601160248201527f746f55696e7432345f6f766572666c6f77000000000000000000000000000000604482015290519081900360640190fd5b816003018351101561165757604080517f08c379a000000000000000000000000000000000000000000000000000000000815260206004820152601460248201527f746f55696e7432345f6f75744f66426f756e6473000000000000000000000000604482015290519081900360640190fd5b50016003015190565b60608182601f0110156116d457604080517f08c379a000000000000000000000000000000000000000000000000000000000815260206004820152600e60248201527f736c6963655f6f766572666c6f77000000000000000000000000000000000000604482015290519081900360640190fd5b82828401101561174557604080517f08c379a000000000000000000000000000000000000000000000000000000000815260206004820152600e60248201527f736c6963655f6f766572666c6f77000000000000000000000000000000000000604482015290519081900360640190fd5b818301845110156117b757604080517f08c379a000000000000000000000000000000000000000000000000000000000815260206004820152601160248201527f736c6963655f6f75744f66426f756e6473000000000000000000000000000000604482015290519081900360640190fd5b6060821580156117d6576040519150600082526020820160405261183e565b6040519150601f8416801560200281840101858101878315602002848b0101015b8183101561180f5780518352602092830192016117f7565b5050858452601f017fffffffffffffffffffffffffffffffffffffffffffffffffffffffffffffffe016604052505b50949350505050565b60006118538383610c2a565b90503373ffffffffffffffffffffffffffffffffffffffff82161461018c57600080fd5b6000808273ffffffffffffffffffffffffffffffffffffffff168473ffffffffffffffffffffffffffffffffffffffff1614156118b357600080fd5b8273ffffffffffffffffffffffffffffffffffffffff168473ffffffffffffffffffffffffffffffffffffffff16106118ed5782846118f0565b83835b909250905073ffffffffffffffffffffffffffffffffffffffff821661191557600080fd5b9250929050565b600080600061192b8585611877565b604080517fffffffffffffffffffffffffffffffffffffffff000000000000000000000000606094851b811660208084019190915293851b81166034830152825160288184030181526048830184528051908501207fff0000000000000000000000000000000000000000000000000000000000000060688401529a90941b9093166069840152607d8301989098527f96e8ac4277198ff8b6f785478aa9a39f403cb768dd02cbee326c3e7da348845f609d808401919091528851808403909101815260bd909201909752805196019590952095945050505050565b6000821580611a2257505081810281838281611a1f57fe5b04145b61018c57600080fd5b8082018281101561018c57600080fd5b6000805b821561018c577fffffffffffffffffffffffffffffffffffffffffffffffffffffffffffffffff830190921691600101611a3f565b604080516060810182526000808252602082018190529181019190915290565b600082601f830112611aa4578081fd5b8135611ab7611ab2826120ac565b612088565b818152846020838601011115611acb578283fd5b816020850160208301379081016020019190915292915050565b8051600281900b811461095d57600080fd5b803561095d8161211c565b805161ffff8116811461095d57600080fd5b60008060408385031215611b26578182fd5b823567ffffffffffffffff811115611b3c578283fd5b611b4885828601611a94565b95602094909401359450505050565b60008060408385031215611b69578182fd5b505080516020909101519092909150565b600080600060608486031215611b8e578081fd5b8335925060208401359150604084013567ffffffffffffffff811115611bb2578182fd5b611bbe86828701611a94565b9150509250925092565b600060208284031215611bd9578081fd5b815167ffffffffffffffff811115611bef578182fd5b8201601f81018413611bff578182fd5b8051611c0d611ab2826120ac565b818152856020838501011115611c21578384fd5b6109e68260208301602086016120ec565b600060608284031215611c43578081fd5b6040516060810181811067ffffffffffffffff82111715611c6057fe5b6040528235611c6e8161211c565b81526020830135611c7e8161211c565b60208201526040928301359281019290925250919050565b600060a08284031215611ca7578081fd5b60405160a0810181811067ffffffffffffffff82111715611cc457fe5b6040528235611cd28161211c565b81526020830135611ce28161211c565b602082015260408381013590820152606083013562ffffff81168114611d06578283fd5b6060820152611d1760808401611af7565b60808201529392505050565b600080600080600080600060e0888a031215611d3d578283fd5b8751611d488161211c565b9650611d5660208901611ae5565b9550611d6460408901611b02565b9450611d7260608901611b02565b9350611d8060808901611b02565b925060a088015160ff81168114611d95578283fd5b60c08901519092508015158114611daa578182fd5b8091505092959891949750929550565b600080600060608486031215611dce578081fd5b835192506020840151611de08161211c565b9150611dee60408501611ae5565b90509250925092565b60008151808452611e0f8160208601602086016120ec565b601f017fffffffffffffffffffffffffffffffffffffffffffffffffffffffffffffffe0169290920160200192915050565b606093841b7fffffffffffffffffffffffffffffffffffffffff000000000000000000000000908116825260e89390931b7fffffff0000000000000000000000000000000000000000000000000000000000166014820152921b166017820152602b0190565b73ffffffffffffffffffffffffffffffffffffffff91909116815260200190565b600073ffffffffffffffffffffffffffffffffffffffff8088168352861515602084015285604084015280851660608401525060a06080830152611f0f60a0830184611df7565b979650505050505050565b600060208252611f2d6020830184611df7565b9392505050565b60208082526010908201527f556e6578706563746564206572726f7200000000000000000000000000000000604082015260600190565b6020808252818101527f4578616374206f75747075742071756f7465206e6f7420737570706f72746564604082015260600190565b90815260200190565b600060808201868352602060808185015281875180845260a0860191508289019350845b81811015611fff57845173ffffffffffffffffffffffffffffffffffffffff1683529383019391830191600101611fcd565b505084810360408601528651808252908201925081870190845b8181101561203b57825163ffffffff1685529383019391830191600101612019565b5050505060609290920192909252949350505050565b93845273ffffffffffffffffffffffffffffffffffffffff92909216602084015263ffffffff166040830152606082015260800190565b60405181810167ffffffffffffffff811182821017156120a457fe5b604052919050565b600067ffffffffffffffff8211156120c057fe5b50601f017fffffffffffffffffffffffffffffffffffffffffffffffffffffffffffffffe01660200190565b60005b838110156121075781810151838201526020016120ef565b83811115612116576000848401525b50505050565b73ffffffffffffffffffffffffffffffffffffffff8116811461213e57600080fd5b5056fea164736f6c6343000706000a","opcodes":"PUSH1 0xE0 PUSH1 0x40 MSTORE CALLVALUE DUP1 ISZERO PUSH3 0x11 JUMPI PUSH1 0x0 DUP1 REVERT JUMPDEST POP PUSH1 0x40 MLOAD PUSH3 0x2254 CODESIZE SUB DUP1 PUSH3 0x2254 DUP4 CODECOPY DUP2 ADD PUSH1 0x40 DUP2 SWAP1 MSTORE PUSH3 0x34 SWAP2 PUSH3 0x78 JUMP JUMPDEST PUSH1 0x1 PUSH1 0x1 PUSH1 0x60 SHL SUB NOT PUSH1 0x60 SWAP4 DUP5 SHL DUP2 AND PUSH1 0x80 MSTORE SWAP1 DUP4 SHL DUP2 AND PUSH1 0xA0 MSTORE SWAP2 SHL AND PUSH1 0xC0 MSTORE PUSH3 0xC1 JUMP JUMPDEST DUP1 MLOAD PUSH1 0x1 PUSH1 0x1 PUSH1 0xA0 SHL SUB DUP2 AND DUP2 EQ PUSH3 0x73 JUMPI PUSH1 0x0 DUP1 REVERT JUMPDEST SWAP2 SWAP1 POP JUMP JUMPDEST PUSH1 0x0 DUP1 PUSH1 0x0 PUSH1 0x60 DUP5 DUP7 SUB SLT ISZERO PUSH3 0x8D JUMPI DUP3 DUP4 REVERT JUMPDEST PUSH3 0x98 DUP5 PUSH3 0x5B JUMP JUMPDEST SWAP3 POP PUSH3 0xA8 PUSH1 0x20 DUP6 ADD PUSH3 0x5B JUMP JUMPDEST SWAP2 POP PUSH3 0xB8 PUSH1 0x40 DUP6 ADD PUSH3 0x5B JUMP JUMPDEST SWAP1 POP SWAP3 POP SWAP3 POP SWAP3 JUMP JUMPDEST PUSH1 0x80 MLOAD PUSH1 0x60 SHR PUSH1 0xA0 MLOAD PUSH1 0x60 SHR PUSH1 0xC0 MLOAD PUSH1 0x60 SHR PUSH2 0x214E PUSH3 0x106 PUSH1 0x0 CODECOPY DUP1 PUSH2 0x151 MSTORE DUP1 PUSH2 0x7B0 MSTORE POP DUP1 PUSH2 0x12D MSTORE POP DUP1 PUSH2 0x36D MSTORE DUP1 PUSH2 0x612 MSTORE DUP1 PUSH2 0x7F6 MSTORE POP PUSH2 0x214E PUSH1 0x0 RETURN INVALID PUSH1 0x80 PUSH1 0x40 MSTORE CALLVALUE DUP1 ISZERO PUSH2 0x10 JUMPI PUSH1 0x0 DUP1 REVERT JUMPDEST POP PUSH1 0x4 CALLDATASIZE LT PUSH2 0x7D JUMPI PUSH1 0x0 CALLDATALOAD PUSH1 0xE0 SHR DUP1 PUSH4 0xB174A0A7 GT PUSH2 0x5B JUMPI DUP1 PUSH4 0xB174A0A7 EQ PUSH2 0xC8 JUMPI DUP1 PUSH4 0xC45A0155 EQ PUSH2 0xEB JUMPI DUP1 PUSH4 0xCDCA1753 EQ PUSH2 0xF3 JUMPI DUP1 PUSH4 0xFA461E33 EQ PUSH2 0x116 JUMPI PUSH2 0x7D JUMP JUMPDEST DUP1 PUSH4 0x4AA4A4FC EQ PUSH2 0x82 JUMPI DUP1 PUSH4 0x68E0D4E1 EQ PUSH2 0xA0 JUMPI DUP1 PUSH4 0x8A499286 EQ PUSH2 0xA8 JUMPI JUMPDEST PUSH1 0x0 DUP1 REVERT JUMPDEST PUSH2 0x8A PUSH2 0x12B JUMP JUMPDEST PUSH1 0x40 MLOAD PUSH2 0x97 SWAP2 SWAP1 PUSH2 0x1EA7 JUMP JUMPDEST PUSH1 0x40 MLOAD DUP1 SWAP2 SUB SWAP1 RETURN JUMPDEST PUSH2 0x8A PUSH2 0x14F JUMP JUMPDEST PUSH2 0xBB PUSH2 0xB6 CALLDATASIZE PUSH1 0x4 PUSH2 0x1C32 JUMP JUMPDEST PUSH2 0x173 JUMP JUMPDEST PUSH1 0x40 MLOAD PUSH2 0x97 SWAP2 SWAP1 PUSH2 0x1FA0 JUMP JUMPDEST PUSH2 0xDB PUSH2 0xD6 CALLDATASIZE PUSH1 0x4 PUSH2 0x1C96 JUMP JUMPDEST PUSH2 0x192 JUMP JUMPDEST PUSH1 0x40 MLOAD PUSH2 0x97 SWAP5 SWAP4 SWAP3 SWAP2 SWAP1 PUSH2 0x2051 JUMP JUMPDEST PUSH2 0x8A PUSH2 0x36B JUMP JUMPDEST PUSH2 0x106 PUSH2 0x101 CALLDATASIZE PUSH1 0x4 PUSH2 0x1B14 JUMP JUMPDEST PUSH2 0x38F JUMP JUMPDEST PUSH1 0x40 MLOAD PUSH2 0x97 SWAP5 SWAP4 SWAP3 SWAP2 SWAP1 PUSH2 0x1FA9 JUMP JUMPDEST PUSH2 0x129 PUSH2 0x124 CALLDATASIZE PUSH1 0x4 PUSH2 0x1B7A JUMP JUMPDEST PUSH2 0x5E1 JUMP JUMPDEST STOP JUMPDEST PUSH32 0x0 DUP2 JUMP JUMPDEST PUSH32 0x0 DUP2 JUMP JUMPDEST PUSH1 0x0 PUSH2 0x18C DUP3 PUSH1 0x40 ADD MLOAD DUP4 PUSH1 0x0 ADD MLOAD DUP5 PUSH1 0x20 ADD MLOAD PUSH2 0x7A6 JUMP JUMPDEST SWAP3 SWAP2 POP POP JUMP JUMPDEST PUSH1 0x20 DUP2 ADD MLOAD DUP2 MLOAD PUSH1 0x60 DUP4 ADD MLOAD PUSH1 0x0 SWAP3 DUP4 SWAP3 DUP4 SWAP3 DUP4 SWAP3 PUSH20 0xFFFFFFFFFFFFFFFFFFFFFFFFFFFFFFFFFFFFFFFF DUP1 DUP3 AND SWAP1 DUP5 AND LT SWAP3 DUP5 SWAP3 PUSH2 0x1D0 SWAP3 SWAP1 PUSH2 0x7EF JUMP JUMPDEST SWAP1 POP PUSH1 0x0 GAS SWAP1 POP DUP2 PUSH20 0xFFFFFFFFFFFFFFFFFFFFFFFFFFFFFFFFFFFFFFFF AND PUSH4 0x128ACB08 ADDRESS DUP6 PUSH2 0x202 DUP13 PUSH1 0x40 ADD MLOAD PUSH2 0x82D JUMP JUMPDEST PUSH1 0x80 DUP14 ADD MLOAD PUSH20 0xFFFFFFFFFFFFFFFFFFFFFFFFFFFFFFFFFFFFFFFF AND ISZERO PUSH2 0x22C JUMPI DUP13 PUSH1 0x80 ADD MLOAD PUSH2 0x252 JUMP JUMPDEST DUP8 PUSH2 0x24B JUMPI PUSH20 0xFFFD8963EFD1FC6A506488495D951D5263988D25 PUSH2 0x252 JUMP JUMPDEST PUSH5 0x1000276A4 JUMPDEST DUP14 PUSH1 0x0 ADD MLOAD DUP15 PUSH1 0x60 ADD MLOAD DUP16 PUSH1 0x20 ADD MLOAD PUSH1 0x40 MLOAD PUSH1 0x20 ADD PUSH2 0x273 SWAP4 SWAP3 SWAP2 SWAP1 PUSH2 0x1E41 JUMP JUMPDEST PUSH1 0x40 MLOAD PUSH1 0x20 DUP2 DUP4 SUB SUB DUP2 MSTORE SWAP1 PUSH1 0x40 MSTORE PUSH1 0x40 MLOAD DUP7 PUSH4 0xFFFFFFFF AND PUSH1 0xE0 SHL DUP2 MSTORE PUSH1 0x4 ADD PUSH2 0x2A2 SWAP6 SWAP5 SWAP4 SWAP3 SWAP2 SWAP1 PUSH2 0x1EC8 JUMP JUMPDEST PUSH1 0x40 DUP1 MLOAD DUP1 DUP4 SUB DUP2 PUSH1 0x0 DUP8 DUP1 EXTCODESIZE ISZERO DUP1 ISZERO PUSH2 0x2BB JUMPI PUSH1 0x0 DUP1 REVERT JUMPDEST POP GAS CALL SWAP3 POP POP POP DUP1 ISZERO PUSH2 0x309 JUMPI POP PUSH1 0x40 DUP1 MLOAD PUSH1 0x1F RETURNDATASIZE SWAP1 DUP2 ADD PUSH32 0xFFFFFFFFFFFFFFFFFFFFFFFFFFFFFFFFFFFFFFFFFFFFFFFFFFFFFFFFFFFFFFE0 AND DUP3 ADD SWAP1 SWAP3 MSTORE PUSH2 0x306 SWAP2 DUP2 ADD SWAP1 PUSH2 0x1B57 JUMP JUMPDEST PUSH1 0x1 JUMPDEST PUSH2 0x35E JUMPI RETURNDATASIZE DUP1 DUP1 ISZERO PUSH2 0x337 JUMPI PUSH1 0x40 MLOAD SWAP2 POP PUSH1 0x1F NOT PUSH1 0x3F RETURNDATASIZE ADD AND DUP3 ADD PUSH1 0x40 MSTORE RETURNDATASIZE DUP3 MSTORE RETURNDATASIZE PUSH1 0x0 PUSH1 0x20 DUP5 ADD RETURNDATACOPY PUSH2 0x33C JUMP JUMPDEST PUSH1 0x60 SWAP2 POP JUMPDEST POP GAS DUP3 SUB SWAP5 POP PUSH2 0x34D DUP2 DUP5 DUP8 PUSH2 0x85F JUMP JUMPDEST SWAP8 POP SWAP8 POP SWAP8 POP SWAP8 POP POP POP POP POP PUSH2 0x364 JUMP JUMPDEST POP POP POP POP POP JUMPDEST SWAP2 SWAP4 POP SWAP2 SWAP4 JUMP JUMPDEST PUSH32 0x0 DUP2 JUMP JUMPDEST PUSH1 0x0 PUSH1 0x60 DUP1 PUSH1 0x0 PUSH2 0x39F DUP7 PUSH2 0x933 JUMP JUMPDEST PUSH8 0xFFFFFFFFFFFFFFFF DUP2 GT DUP1 ISZERO PUSH2 0x3B5 JUMPI PUSH1 0x0 DUP1 REVERT JUMPDEST POP PUSH1 0x40 MLOAD SWAP1 DUP1 DUP3 MSTORE DUP1 PUSH1 0x20 MUL PUSH1 0x20 ADD DUP3 ADD PUSH1 0x40 MSTORE DUP1 ISZERO PUSH2 0x3DF JUMPI DUP2 PUSH1 0x20 ADD PUSH1 0x20 DUP3 MUL DUP1 CALLDATASIZE DUP4 CALLDATACOPY ADD SWAP1 POP JUMPDEST POP SWAP3 POP PUSH2 0x3EB DUP7 PUSH2 0x933 JUMP JUMPDEST PUSH8 0xFFFFFFFFFFFFFFFF DUP2 GT DUP1 ISZERO PUSH2 0x401 JUMPI PUSH1 0x0 DUP1 REVERT JUMPDEST POP PUSH1 0x40 MLOAD SWAP1 DUP1 DUP3 MSTORE DUP1 PUSH1 0x20 MUL PUSH1 0x20 ADD DUP3 ADD PUSH1 0x40 MSTORE DUP1 ISZERO PUSH2 0x42B JUMPI DUP2 PUSH1 0x20 ADD PUSH1 0x20 DUP3 MUL DUP1 CALLDATASIZE DUP4 CALLDATACOPY ADD SWAP1 POP JUMPDEST POP SWAP2 POP PUSH1 0x0 JUMPDEST PUSH1 0x0 DUP1 PUSH1 0x0 PUSH2 0x43F DUP11 PUSH2 0x962 JUMP JUMPDEST SWAP2 SWAP5 POP SWAP3 POP SWAP1 POP PUSH3 0x800000 DUP2 AND ISZERO PUSH2 0x4A7 JUMPI PUSH2 0x4A0 PUSH1 0x40 MLOAD DUP1 PUSH1 0x60 ADD PUSH1 0x40 MSTORE DUP1 DUP6 PUSH20 0xFFFFFFFFFFFFFFFFFFFFFFFFFFFFFFFFFFFFFFFF AND DUP2 MSTORE PUSH1 0x20 ADD DUP5 PUSH20 0xFFFFFFFFFFFFFFFFFFFFFFFFFFFFFFFFFFFFFFFF AND DUP2 MSTORE PUSH1 0x20 ADD DUP12 DUP2 MSTORE POP PUSH2 0x173 JUMP JUMPDEST SWAP9 POP PUSH2 0x5A0 JUMP JUMPDEST PUSH1 0x0 DUP1 PUSH1 0x0 DUP1 PUSH2 0x524 PUSH1 0x40 MLOAD DUP1 PUSH1 0xA0 ADD PUSH1 0x40 MSTORE DUP1 DUP10 PUSH20 0xFFFFFFFFFFFFFFFFFFFFFFFFFFFFFFFFFFFFFFFF AND DUP2 MSTORE PUSH1 0x20 ADD DUP9 PUSH20 0xFFFFFFFFFFFFFFFFFFFFFFFFFFFFFFFFFFFFFFFF AND DUP2 MSTORE PUSH1 0x20 ADD DUP16 DUP2 MSTORE PUSH1 0x20 ADD DUP8 PUSH3 0xFFFFFF AND DUP2 MSTORE PUSH1 0x20 ADD PUSH1 0x0 PUSH20 0xFFFFFFFFFFFFFFFFFFFFFFFFFFFFFFFFFFFFFFFF AND DUP2 MSTORE POP PUSH2 0x192 JUMP JUMPDEST SWAP4 POP SWAP4 POP SWAP4 POP SWAP4 POP DUP3 DUP12 DUP10 DUP2 MLOAD DUP2 LT PUSH2 0x539 JUMPI INVALID JUMPDEST PUSH1 0x20 MUL PUSH1 0x20 ADD ADD SWAP1 PUSH20 0xFFFFFFFFFFFFFFFFFFFFFFFFFFFFFFFFFFFFFFFF AND SWAP1 DUP2 PUSH20 0xFFFFFFFFFFFFFFFFFFFFFFFFFFFFFFFFFFFFFFFF AND DUP2 MSTORE POP POP DUP2 DUP11 DUP10 DUP2 MLOAD DUP2 LT PUSH2 0x580 JUMPI INVALID JUMPDEST PUSH4 0xFFFFFFFF SWAP1 SWAP3 AND PUSH1 0x20 SWAP3 DUP4 MUL SWAP2 SWAP1 SWAP2 ADD SWAP1 SWAP2 ADD MSTORE SWAP3 SWAP12 POP POP POP SWAP5 SWAP1 SWAP5 ADD SWAP4 JUMPDEST PUSH1 0x1 SWAP1 SWAP4 ADD SWAP3 PUSH2 0x5AF DUP11 PUSH2 0x993 JUMP JUMPDEST ISZERO PUSH2 0x5C4 JUMPI PUSH2 0x5BD DUP11 PUSH2 0x99B JUMP JUMPDEST SWAP10 POP PUSH2 0x5D0 JUMP JUMPDEST DUP9 SWAP8 POP POP POP POP POP PUSH2 0x5D8 JUMP JUMPDEST POP POP POP PUSH2 0x431 JUMP JUMPDEST SWAP3 SWAP6 SWAP2 SWAP5 POP SWAP3 POP JUMP JUMPDEST PUSH1 0x0 DUP4 SGT DUP1 PUSH2 0x5F0 JUMPI POP PUSH1 0x0 DUP3 SGT JUMPDEST PUSH2 0x5F9 JUMPI PUSH1 0x0 DUP1 REVERT JUMPDEST PUSH1 0x0 DUP1 PUSH1 0x0 PUSH2 0x607 DUP5 PUSH2 0x962 JUMP JUMPDEST SWAP3 POP SWAP3 POP SWAP3 POP PUSH2 0x639 PUSH32 0x0 DUP5 DUP5 DUP5 PUSH2 0x9D0 JUMP JUMPDEST POP PUSH1 0x0 DUP1 PUSH1 0x0 DUP9 SGT PUSH2 0x67D JUMPI DUP5 PUSH20 0xFFFFFFFFFFFFFFFFFFFFFFFFFFFFFFFFFFFFFFFF AND DUP5 PUSH20 0xFFFFFFFFFFFFFFFFFFFFFFFFFFFFFFFFFFFFFFFF AND LT DUP9 PUSH1 0x0 SUB PUSH2 0x6B1 JUMP JUMPDEST DUP4 PUSH20 0xFFFFFFFFFFFFFFFFFFFFFFFFFFFFFFFFFFFFFFFF AND DUP6 PUSH20 0xFFFFFFFFFFFFFFFFFFFFFFFFFFFFFFFFFFFFFFFF AND LT DUP8 PUSH1 0x0 SUB JUMPDEST SWAP2 POP SWAP2 POP PUSH1 0x0 PUSH2 0x6C2 DUP7 DUP7 DUP7 PUSH2 0x7EF JUMP JUMPDEST SWAP1 POP PUSH1 0x0 DUP1 DUP3 PUSH20 0xFFFFFFFFFFFFFFFFFFFFFFFFFFFFFFFFFFFFFFFF AND PUSH4 0x3850C7BD PUSH1 0x40 MLOAD DUP2 PUSH4 0xFFFFFFFF AND PUSH1 0xE0 SHL DUP2 MSTORE PUSH1 0x4 ADD PUSH1 0xE0 PUSH1 0x40 MLOAD DUP1 DUP4 SUB DUP2 DUP7 DUP1 EXTCODESIZE ISZERO DUP1 ISZERO PUSH2 0x70D JUMPI PUSH1 0x0 DUP1 REVERT JUMPDEST POP GAS STATICCALL ISZERO DUP1 ISZERO PUSH2 0x721 JUMPI RETURNDATASIZE PUSH1 0x0 DUP1 RETURNDATACOPY RETURNDATASIZE PUSH1 0x0 REVERT JUMPDEST POP POP POP POP PUSH1 0x40 MLOAD RETURNDATASIZE PUSH1 0x1F NOT PUSH1 0x1F DUP3 ADD AND DUP3 ADD DUP1 PUSH1 0x40 MSTORE POP DUP2 ADD SWAP1 PUSH2 0x745 SWAP2 SWAP1 PUSH2 0x1D23 JUMP JUMPDEST POP POP POP POP POP SWAP2 POP SWAP2 POP DUP5 ISZERO PUSH2 0x76B JUMPI PUSH1 0x40 MLOAD DUP5 DUP2 MSTORE DUP3 PUSH1 0x20 DUP3 ADD MSTORE DUP2 PUSH1 0x40 DUP3 ADD MSTORE PUSH1 0x60 DUP2 REVERT JUMPDEST PUSH1 0x40 MLOAD PUSH32 0x8C379A000000000000000000000000000000000000000000000000000000000 DUP2 MSTORE PUSH1 0x4 ADD PUSH2 0x79D SWAP1 PUSH2 0x1F6B JUMP JUMPDEST PUSH1 0x40 MLOAD DUP1 SWAP2 SUB SWAP1 REVERT JUMPDEST PUSH1 0x0 DUP1 PUSH1 0x0 PUSH2 0x7D6 PUSH32 0x0 DUP7 DUP7 PUSH2 0x9EF JUMP JUMPDEST SWAP2 POP SWAP2 POP PUSH2 0x7E5 DUP7 DUP4 DUP4 PUSH2 0xAD7 JUMP JUMPDEST SWAP7 SWAP6 POP POP POP POP POP POP JUMP JUMPDEST PUSH1 0x0 PUSH2 0x825 PUSH32 0x0 PUSH2 0x820 DUP7 DUP7 DUP7 PUSH2 0xBAD JUMP JUMPDEST PUSH2 0xC2A JUMP JUMPDEST SWAP5 SWAP4 POP POP POP POP JUMP JUMPDEST PUSH1 0x0 PUSH32 0x8000000000000000000000000000000000000000000000000000000000000000 DUP3 LT PUSH2 0x85B JUMPI PUSH1 0x0 DUP1 REVERT JUMPDEST POP SWAP1 JUMP JUMPDEST PUSH1 0x0 DUP1 PUSH1 0x0 DUP1 PUSH1 0x0 DUP1 DUP8 PUSH20 0xFFFFFFFFFFFFFFFFFFFFFFFFFFFFFFFFFFFFFFFF AND PUSH4 0x3850C7BD PUSH1 0x40 MLOAD DUP2 PUSH4 0xFFFFFFFF AND PUSH1 0xE0 SHL DUP2 MSTORE PUSH1 0x4 ADD PUSH1 0xE0 PUSH1 0x40 MLOAD DUP1 DUP4 SUB DUP2 DUP7 DUP1 EXTCODESIZE ISZERO DUP1 ISZERO PUSH2 0x8AE JUMPI PUSH1 0x0 DUP1 REVERT JUMPDEST POP GAS STATICCALL ISZERO DUP1 ISZERO PUSH2 0x8C2 JUMPI RETURNDATASIZE PUSH1 0x0 DUP1 RETURNDATACOPY RETURNDATASIZE PUSH1 0x0 REVERT JUMPDEST POP POP POP POP PUSH1 0x40 MLOAD RETURNDATASIZE PUSH1 0x1F NOT PUSH1 0x1F DUP3 ADD AND DUP3 ADD DUP1 PUSH1 0x40 MSTORE POP DUP2 ADD SWAP1 PUSH2 0x8E6 SWAP2 SWAP1 PUSH2 0x1D23 JUMP JUMPDEST POP SWAP4 SWAP7 POP PUSH2 0x8FB SWAP5 POP DUP14 SWAP4 POP PUSH2 0xD60 SWAP3 POP POP POP JUMP JUMPDEST SWAP2 SWAP8 POP SWAP6 POP SWAP1 POP PUSH2 0x923 PUSH20 0xFFFFFFFFFFFFFFFFFFFFFFFFFFFFFFFFFFFFFFFF DUP10 AND DUP4 DUP4 PUSH2 0xE18 JUMP JUMPDEST SWAP4 POP DUP7 SWAP3 POP POP POP SWAP4 POP SWAP4 POP SWAP4 POP SWAP4 JUMP JUMPDEST DUP1 MLOAD PUSH1 0x17 PUSH32 0xFFFFFFFFFFFFFFFFFFFFFFFFFFFFFFFFFFFFFFFFFFFFFFFFFFFFFFFFFFFFFFEC SWAP1 SWAP2 ADD DIV JUMPDEST SWAP2 SWAP1 POP JUMP JUMPDEST PUSH1 0x0 DUP1 DUP1 PUSH2 0x970 DUP5 DUP3 PUSH2 0x1470 JUMP JUMPDEST SWAP3 POP PUSH2 0x97D DUP5 PUSH1 0x14 PUSH2 0x1570 JUMP JUMPDEST SWAP1 POP PUSH2 0x98A DUP5 PUSH1 0x17 PUSH2 0x1470 JUMP JUMPDEST SWAP2 POP SWAP2 SWAP4 SWAP1 SWAP3 POP JUMP JUMPDEST MLOAD PUSH1 0x42 GT ISZERO SWAP1 JUMP JUMPDEST DUP1 MLOAD PUSH1 0x60 SWAP1 PUSH2 0x18C SWAP1 DUP4 SWAP1 PUSH1 0x17 SWAP1 PUSH32 0xFFFFFFFFFFFFFFFFFFFFFFFFFFFFFFFFFFFFFFFFFFFFFFFFFFFFFFFFFFFFFFE9 ADD PUSH2 0x1660 JUMP JUMPDEST PUSH1 0x0 PUSH2 0x9E6 DUP6 PUSH2 0x9E1 DUP7 DUP7 DUP7 PUSH2 0xBAD JUMP JUMPDEST PUSH2 0x1847 JUMP JUMPDEST SWAP6 SWAP5 POP POP POP POP POP JUMP JUMPDEST PUSH1 0x0 DUP1 PUSH1 0x0 PUSH2 0x9FE DUP6 DUP6 PUSH2 0x1877 JUMP JUMPDEST POP SWAP1 POP PUSH1 0x0 DUP1 PUSH2 0xA0F DUP9 DUP9 DUP9 PUSH2 0x191C JUMP JUMPDEST PUSH20 0xFFFFFFFFFFFFFFFFFFFFFFFFFFFFFFFFFFFFFFFF AND PUSH4 0x902F1AC PUSH1 0x40 MLOAD DUP2 PUSH4 0xFFFFFFFF AND PUSH1 0xE0 SHL DUP2 MSTORE PUSH1 0x4 ADD PUSH1 0x60 PUSH1 0x40 MLOAD DUP1 DUP4 SUB DUP2 DUP7 DUP1 EXTCODESIZE ISZERO DUP1 ISZERO PUSH2 0xA54 JUMPI PUSH1 0x0 DUP1 REVERT JUMPDEST POP GAS STATICCALL ISZERO DUP1 ISZERO PUSH2 0xA68 JUMPI RETURNDATASIZE PUSH1 0x0 DUP1 RETURNDATACOPY RETURNDATASIZE PUSH1 0x0 REVERT JUMPDEST POP POP POP POP PUSH1 0x40 MLOAD RETURNDATASIZE PUSH1 0x60 DUP2 LT ISZERO PUSH2 0xA7E JUMPI PUSH1 0x0 DUP1 REVERT JUMPDEST POP DUP1 MLOAD PUSH1 0x20 SWAP1 SWAP2 ADD MLOAD PUSH14 0xFFFFFFFFFFFFFFFFFFFFFFFFFFFF SWAP2 DUP3 AND SWAP4 POP AND SWAP1 POP PUSH20 0xFFFFFFFFFFFFFFFFFFFFFFFFFFFFFFFFFFFFFFFF DUP8 DUP2 AND SWAP1 DUP5 AND EQ PUSH2 0xAC5 JUMPI DUP1 DUP3 PUSH2 0xAC8 JUMP JUMPDEST DUP2 DUP2 JUMPDEST SWAP1 SWAP10 SWAP1 SWAP9 POP SWAP7 POP POP POP POP POP POP POP JUMP JUMPDEST PUSH1 0x0 DUP1 DUP5 GT PUSH2 0xB47 JUMPI PUSH1 0x40 DUP1 MLOAD PUSH32 0x8C379A000000000000000000000000000000000000000000000000000000000 DUP2 MSTORE PUSH1 0x20 PUSH1 0x4 DUP3 ADD MSTORE PUSH1 0x19 PUSH1 0x24 DUP3 ADD MSTORE PUSH32 0x494E53554646494349454E545F494E5055545F414D4F554E5400000000000000 PUSH1 0x44 DUP3 ADD MSTORE SWAP1 MLOAD SWAP1 DUP2 SWAP1 SUB PUSH1 0x64 ADD SWAP1 REVERT JUMPDEST PUSH1 0x0 DUP4 GT DUP1 ISZERO PUSH2 0xB57 JUMPI POP PUSH1 0x0 DUP3 GT JUMPDEST PUSH2 0xB60 JUMPI PUSH1 0x0 DUP1 REVERT JUMPDEST PUSH1 0x0 PUSH2 0xB6E DUP6 PUSH2 0x3E5 PUSH2 0x1A07 JUMP JUMPDEST SWAP1 POP PUSH1 0x0 PUSH2 0xB7C DUP3 DUP6 PUSH2 0x1A07 JUMP JUMPDEST SWAP1 POP PUSH1 0x0 PUSH2 0xB96 DUP4 PUSH2 0xB90 DUP9 PUSH2 0x3E8 PUSH2 0x1A07 JUMP JUMPDEST SWAP1 PUSH2 0x1A2B JUMP JUMPDEST SWAP1 POP DUP1 DUP3 DUP2 PUSH2 0xBA1 JUMPI INVALID JUMPDEST DIV SWAP8 SWAP7 POP POP POP POP POP POP POP JUMP JUMPDEST PUSH2 0xBB5 PUSH2 0x1A74 JUMP JUMPDEST DUP3 PUSH20 0xFFFFFFFFFFFFFFFFFFFFFFFFFFFFFFFFFFFFFFFF AND DUP5 PUSH20 0xFFFFFFFFFFFFFFFFFFFFFFFFFFFFFFFFFFFFFFFF AND GT ISZERO PUSH2 0xBED JUMPI SWAP2 SWAP3 SWAP2 JUMPDEST POP PUSH1 0x40 DUP1 MLOAD PUSH1 0x60 DUP2 ADD DUP3 MSTORE PUSH20 0xFFFFFFFFFFFFFFFFFFFFFFFFFFFFFFFFFFFFFFFF SWAP5 DUP6 AND DUP2 MSTORE SWAP3 SWAP1 SWAP4 AND PUSH1 0x20 DUP4 ADD MSTORE PUSH3 0xFFFFFF AND SWAP2 DUP2 ADD SWAP2 SWAP1 SWAP2 MSTORE SWAP1 JUMP JUMPDEST PUSH1 0x0 DUP2 PUSH1 0x20 ADD MLOAD PUSH20 0xFFFFFFFFFFFFFFFFFFFFFFFFFFFFFFFFFFFFFFFF AND DUP3 PUSH1 0x0 ADD MLOAD PUSH20 0xFFFFFFFFFFFFFFFFFFFFFFFFFFFFFFFFFFFFFFFF AND LT PUSH2 0xC6C JUMPI PUSH1 0x0 DUP1 REVERT JUMPDEST POP DUP1 MLOAD PUSH1 0x20 DUP1 DUP4 ADD MLOAD PUSH1 0x40 SWAP4 DUP5 ADD MLOAD DUP5 MLOAD PUSH20 0xFFFFFFFFFFFFFFFFFFFFFFFFFFFFFFFFFFFFFFFF SWAP5 DUP6 AND DUP2 DUP6 ADD MSTORE SWAP4 SWAP1 SWAP2 AND DUP4 DUP6 ADD MSTORE PUSH3 0xFFFFFF AND PUSH1 0x60 DUP1 DUP5 ADD SWAP2 SWAP1 SWAP2 MSTORE DUP4 MLOAD DUP1 DUP5 SUB DUP3 ADD DUP2 MSTORE PUSH1 0x80 DUP5 ADD DUP6 MSTORE DUP1 MLOAD SWAP1 DUP4 ADD KECCAK256 PUSH32 0xFF00000000000000000000000000000000000000000000000000000000000000 PUSH1 0xA0 DUP6 ADD MSTORE SWAP5 SWAP1 SHL PUSH32 0xFFFFFFFFFFFFFFFFFFFFFFFFFFFFFFFFFFFFFFFF000000000000000000000000 AND PUSH1 0xA1 DUP4 ADD MSTORE PUSH1 0xB5 DUP3 ADD SWAP4 SWAP1 SWAP4 MSTORE PUSH32 0xE34F199B19B2B4F47F68442619D555527D244F78A3297EA89325F843F87B8B54 PUSH1 0xD5 DUP1 DUP4 ADD SWAP2 SWAP1 SWAP2 MSTORE DUP3 MLOAD DUP1 DUP4 SUB SWAP1 SWAP2 ADD DUP2 MSTORE PUSH1 0xF5 SWAP1 SWAP2 ADD SWAP1 SWAP2 MSTORE DUP1 MLOAD SWAP2 ADD KECCAK256 SWAP1 JUMP JUMPDEST PUSH1 0x0 DUP1 PUSH1 0x0 DUP4 MLOAD PUSH1 0x60 EQ PUSH2 0xDF7 JUMPI PUSH1 0x44 DUP5 MLOAD LT ISZERO PUSH2 0xDAA JUMPI PUSH1 0x40 MLOAD PUSH32 0x8C379A000000000000000000000000000000000000000000000000000000000 DUP2 MSTORE PUSH1 0x4 ADD PUSH2 0x79D SWAP1 PUSH2 0x1F34 JUMP JUMPDEST PUSH1 0x4 DUP5 ADD SWAP4 POP DUP4 DUP1 PUSH1 0x20 ADD SWAP1 MLOAD DUP2 ADD SWAP1 PUSH2 0xDC4 SWAP2 SWAP1 PUSH2 0x1BC8 JUMP JUMPDEST PUSH1 0x40 MLOAD PUSH32 0x8C379A000000000000000000000000000000000000000000000000000000000 DUP2 MSTORE PUSH1 0x4 ADD PUSH2 0x79D SWAP2 SWAP1 PUSH2 0x1F1A JUMP JUMPDEST DUP4 DUP1 PUSH1 0x20 ADD SWAP1 MLOAD DUP2 ADD SWAP1 PUSH2 0xE0B SWAP2 SWAP1 PUSH2 0x1DBA JUMP JUMPDEST SWAP3 POP SWAP3 POP SWAP3 POP SWAP2 SWAP4 SWAP1 SWAP3 POP JUMP JUMPDEST PUSH1 0x0 DUP1 PUSH1 0x0 DUP1 PUSH1 0x0 DUP1 PUSH1 0x0 DUP1 PUSH1 0x8 DUP12 PUSH20 0xFFFFFFFFFFFFFFFFFFFFFFFFFFFFFFFFFFFFFFFF AND PUSH4 0xD0C93A7C PUSH1 0x40 MLOAD DUP2 PUSH4 0xFFFFFFFF AND PUSH1 0xE0 SHL DUP2 MSTORE PUSH1 0x4 ADD PUSH1 0x20 PUSH1 0x40 MLOAD DUP1 DUP4 SUB DUP2 DUP7 DUP1 EXTCODESIZE ISZERO DUP1 ISZERO PUSH2 0xE6C JUMPI PUSH1 0x0 DUP1 REVERT JUMPDEST POP GAS STATICCALL ISZERO DUP1 ISZERO PUSH2 0xE80 JUMPI RETURNDATASIZE PUSH1 0x0 DUP1 RETURNDATACOPY RETURNDATASIZE PUSH1 0x0 REVERT JUMPDEST POP POP POP POP PUSH1 0x40 MLOAD RETURNDATASIZE PUSH1 0x20 DUP2 LT ISZERO PUSH2 0xE96 JUMPI PUSH1 0x0 DUP1 REVERT JUMPDEST POP MLOAD PUSH1 0x2 SWAP1 DUP2 SIGNEXTEND SWAP1 DUP13 SWAP1 SIGNEXTEND DUP2 PUSH2 0xEA8 JUMPI INVALID JUMPDEST SDIV PUSH1 0x2 SIGNEXTEND SWAP1 SAR SWAP1 POP PUSH1 0x0 PUSH2 0x100 DUP13 PUSH20 0xFFFFFFFFFFFFFFFFFFFFFFFFFFFFFFFFFFFFFFFF AND PUSH4 0xD0C93A7C PUSH1 0x40 MLOAD DUP2 PUSH4 0xFFFFFFFF AND PUSH1 0xE0 SHL DUP2 MSTORE PUSH1 0x4 ADD PUSH1 0x20 PUSH1 0x40 MLOAD DUP1 DUP4 SUB DUP2 DUP7 DUP1 EXTCODESIZE ISZERO DUP1 ISZERO PUSH2 0xEFB JUMPI PUSH1 0x0 DUP1 REVERT JUMPDEST POP GAS STATICCALL ISZERO DUP1 ISZERO PUSH2 0xF0F JUMPI RETURNDATASIZE PUSH1 0x0 DUP1 RETURNDATACOPY RETURNDATASIZE PUSH1 0x0 REVERT JUMPDEST POP POP POP POP PUSH1 0x40 MLOAD RETURNDATASIZE PUSH1 0x20 DUP2 LT ISZERO PUSH2 0xF25 JUMPI PUSH1 0x0 DUP1 REVERT JUMPDEST POP MLOAD PUSH1 0x2 SWAP1 DUP2 SIGNEXTEND SWAP1 DUP14 SWAP1 SIGNEXTEND DUP2 PUSH2 0xF37 JUMPI INVALID JUMPDEST SDIV PUSH1 0x2 SIGNEXTEND DUP2 PUSH2 0xF42 JUMPI INVALID JUMPDEST SMOD SWAP1 POP PUSH1 0x0 PUSH1 0x8 DUP14 PUSH20 0xFFFFFFFFFFFFFFFFFFFFFFFFFFFFFFFFFFFFFFFF AND PUSH4 0xD0C93A7C PUSH1 0x40 MLOAD DUP2 PUSH4 0xFFFFFFFF AND PUSH1 0xE0 SHL DUP2 MSTORE PUSH1 0x4 ADD PUSH1 0x20 PUSH1 0x40 MLOAD DUP1 DUP4 SUB DUP2 DUP7 DUP1 EXTCODESIZE ISZERO DUP1 ISZERO PUSH2 0xF8F JUMPI PUSH1 0x0 DUP1 REVERT JUMPDEST POP GAS STATICCALL ISZERO DUP1 ISZERO PUSH2 0xFA3 JUMPI RETURNDATASIZE PUSH1 0x0 DUP1 RETURNDATACOPY RETURNDATASIZE PUSH1 0x0 REVERT JUMPDEST POP POP POP POP PUSH1 0x40 MLOAD RETURNDATASIZE PUSH1 0x20 DUP2 LT ISZERO PUSH2 0xFB9 JUMPI PUSH1 0x0 DUP1 REVERT JUMPDEST POP MLOAD PUSH1 0x2 SWAP1 DUP2 SIGNEXTEND SWAP1 DUP14 SWAP1 SIGNEXTEND DUP2 PUSH2 0xFCB JUMPI INVALID JUMPDEST SDIV PUSH1 0x2 SIGNEXTEND SWAP1 SAR SWAP1 POP PUSH1 0x0 PUSH2 0x100 DUP15 PUSH20 0xFFFFFFFFFFFFFFFFFFFFFFFFFFFFFFFFFFFFFFFF AND PUSH4 0xD0C93A7C PUSH1 0x40 MLOAD DUP2 PUSH4 0xFFFFFFFF AND PUSH1 0xE0 SHL DUP2 MSTORE PUSH1 0x4 ADD PUSH1 0x20 PUSH1 0x40 MLOAD DUP1 DUP4 SUB DUP2 DUP7 DUP1 EXTCODESIZE ISZERO DUP1 ISZERO PUSH2 0x101E JUMPI PUSH1 0x0 DUP1 REVERT JUMPDEST POP GAS STATICCALL ISZERO DUP1 ISZERO PUSH2 0x1032 JUMPI RETURNDATASIZE PUSH1 0x0 DUP1 RETURNDATACOPY RETURNDATASIZE PUSH1 0x0 REVERT JUMPDEST POP POP POP POP PUSH1 0x40 MLOAD RETURNDATASIZE PUSH1 0x20 DUP2 LT ISZERO PUSH2 0x1048 JUMPI PUSH1 0x0 DUP1 REVERT JUMPDEST POP MLOAD PUSH1 0x2 SWAP1 DUP2 SIGNEXTEND SWAP1 DUP15 SWAP1 SIGNEXTEND DUP2 PUSH2 0x105A JUMPI INVALID JUMPDEST SDIV PUSH1 0x2 SIGNEXTEND DUP2 PUSH2 0x1065 JUMPI INVALID JUMPDEST SMOD SWAP1 POP PUSH1 0x0 DUP2 PUSH1 0xFF AND PUSH1 0x1 SWAP1 SHL DUP16 PUSH20 0xFFFFFFFFFFFFFFFFFFFFFFFFFFFFFFFFFFFFFFFF AND PUSH4 0x5339C296 DUP6 PUSH1 0x40 MLOAD DUP3 PUSH4 0xFFFFFFFF AND PUSH1 0xE0 SHL DUP2 MSTORE PUSH1 0x4 ADD DUP1 DUP3 PUSH1 0x1 SIGNEXTEND DUP2 MSTORE PUSH1 0x20 ADD SWAP2 POP POP PUSH1 0x20 PUSH1 0x40 MLOAD DUP1 DUP4 SUB DUP2 DUP7 DUP1 EXTCODESIZE ISZERO DUP1 ISZERO PUSH2 0x10C6 JUMPI PUSH1 0x0 DUP1 REVERT JUMPDEST POP GAS STATICCALL ISZERO DUP1 ISZERO PUSH2 0x10DA JUMPI RETURNDATASIZE PUSH1 0x0 DUP1 RETURNDATACOPY RETURNDATASIZE PUSH1 0x0 REVERT JUMPDEST POP POP POP POP PUSH1 0x40 MLOAD RETURNDATASIZE PUSH1 0x20 DUP2 LT ISZERO PUSH2 0x10F0 JUMPI PUSH1 0x0 DUP1 REVERT JUMPDEST POP MLOAD AND GT DUP1 ISZERO PUSH2 0x1183 JUMPI POP DUP14 PUSH20 0xFFFFFFFFFFFFFFFFFFFFFFFFFFFFFFFFFFFFFFFF AND PUSH4 0xD0C93A7C PUSH1 0x40 MLOAD DUP2 PUSH4 0xFFFFFFFF AND PUSH1 0xE0 SHL DUP2 MSTORE PUSH1 0x4 ADD PUSH1 0x20 PUSH1 0x40 MLOAD DUP1 DUP4 SUB DUP2 DUP7 DUP1 EXTCODESIZE ISZERO DUP1 ISZERO PUSH2 0x1141 JUMPI PUSH1 0x0 DUP1 REVERT JUMPDEST POP GAS STATICCALL ISZERO DUP1 ISZERO PUSH2 0x1155 JUMPI RETURNDATASIZE PUSH1 0x0 DUP1 RETURNDATACOPY RETURNDATASIZE PUSH1 0x0 REVERT JUMPDEST POP POP POP POP PUSH1 0x40 MLOAD RETURNDATASIZE PUSH1 0x20 DUP2 LT ISZERO PUSH2 0x116B JUMPI PUSH1 0x0 DUP1 REVERT JUMPDEST POP MLOAD PUSH1 0x2 SWAP1 DUP2 SIGNEXTEND SWAP1 DUP14 SWAP1 SIGNEXTEND DUP2 PUSH2 0x117D JUMPI INVALID JUMPDEST SMOD PUSH1 0x2 SIGNEXTEND ISZERO JUMPDEST DUP1 ISZERO PUSH2 0x1194 JUMPI POP DUP12 PUSH1 0x2 SIGNEXTEND DUP14 PUSH1 0x2 SIGNEXTEND SGT JUMPDEST SWAP5 POP PUSH1 0x0 DUP4 PUSH1 0xFF AND PUSH1 0x1 SWAP1 SHL DUP16 PUSH20 0xFFFFFFFFFFFFFFFFFFFFFFFFFFFFFFFFFFFFFFFF AND PUSH4 0x5339C296 DUP8 PUSH1 0x40 MLOAD DUP3 PUSH4 0xFFFFFFFF AND PUSH1 0xE0 SHL DUP2 MSTORE PUSH1 0x4 ADD DUP1 DUP3 PUSH1 0x1 SIGNEXTEND DUP2 MSTORE PUSH1 0x20 ADD SWAP2 POP POP PUSH1 0x20 PUSH1 0x40 MLOAD DUP1 DUP4 SUB DUP2 DUP7 DUP1 EXTCODESIZE ISZERO DUP1 ISZERO PUSH2 0x11F4 JUMPI PUSH1 0x0 DUP1 REVERT JUMPDEST POP GAS STATICCALL ISZERO DUP1 ISZERO PUSH2 0x1208 JUMPI RETURNDATASIZE PUSH1 0x0 DUP1 RETURNDATACOPY RETURNDATASIZE PUSH1 0x0 REVERT JUMPDEST POP POP POP POP PUSH1 0x40 MLOAD RETURNDATASIZE PUSH1 0x20 DUP2 LT ISZERO PUSH2 0x121E JUMPI PUSH1 0x0 DUP1 REVERT JUMPDEST POP MLOAD AND GT DUP1 ISZERO PUSH2 0x12B1 JUMPI POP DUP14 PUSH20 0xFFFFFFFFFFFFFFFFFFFFFFFFFFFFFFFFFFFFFFFF AND PUSH4 0xD0C93A7C PUSH1 0x40 MLOAD DUP2 PUSH4 0xFFFFFFFF AND PUSH1 0xE0 SHL DUP2 MSTORE PUSH1 0x4 ADD PUSH1 0x20 PUSH1 0x40 MLOAD DUP1 DUP4 SUB DUP2 DUP7 DUP1 EXTCODESIZE ISZERO DUP1 ISZERO PUSH2 0x126F JUMPI PUSH1 0x0 DUP1 REVERT JUMPDEST POP GAS STATICCALL ISZERO DUP1 ISZERO PUSH2 0x1283 JUMPI RETURNDATASIZE PUSH1 0x0 DUP1 RETURNDATACOPY RETURNDATASIZE PUSH1 0x0 REVERT JUMPDEST POP POP POP POP PUSH1 0x40 MLOAD RETURNDATASIZE PUSH1 0x20 DUP2 LT ISZERO PUSH2 0x1299 JUMPI PUSH1 0x0 DUP1 REVERT JUMPDEST POP MLOAD PUSH1 0x2 SWAP1 DUP2 SIGNEXTEND SWAP1 DUP15 SWAP1 SIGNEXTEND DUP2 PUSH2 0x12AB JUMPI INVALID JUMPDEST SMOD PUSH1 0x2 SIGNEXTEND ISZERO JUMPDEST DUP1 ISZERO PUSH2 0x12C2 JUMPI POP DUP12 PUSH1 0x2 SIGNEXTEND DUP14 PUSH1 0x2 SIGNEXTEND SLT JUMPDEST SWAP6 POP DUP2 PUSH1 0x1 SIGNEXTEND DUP5 PUSH1 0x1 SIGNEXTEND SLT DUP1 PUSH2 0x12EE JUMPI POP DUP2 PUSH1 0x1 SIGNEXTEND DUP5 PUSH1 0x1 SIGNEXTEND EQ DUP1 ISZERO PUSH2 0x12EE JUMPI POP DUP1 PUSH1 0xFF AND DUP4 PUSH1 0xFF AND GT ISZERO JUMPDEST ISZERO PUSH2 0x1304 JUMPI DUP4 SWAP10 POP DUP3 SWAP8 POP DUP2 SWAP9 POP DUP1 SWAP7 POP PUSH2 0x1311 JUMP JUMPDEST DUP2 SWAP10 POP DUP1 SWAP8 POP DUP4 SWAP9 POP DUP3 SWAP7 POP JUMPDEST POP POP PUSH32 0xFFFFFFFFFFFFFFFFFFFFFFFFFFFFFFFFFFFFFFFFFFFFFFFFFFFFFFFFFFFFFFFF PUSH1 0xFF DUP8 AND SHL SWAP2 POP POP JUMPDEST DUP6 PUSH1 0x1 SIGNEXTEND DUP8 PUSH1 0x1 SIGNEXTEND SGT PUSH2 0x1448 JUMPI DUP6 PUSH1 0x1 SIGNEXTEND DUP8 PUSH1 0x1 SIGNEXTEND EQ ISZERO PUSH2 0x1382 JUMPI PUSH32 0xFFFFFFFFFFFFFFFFFFFFFFFFFFFFFFFFFFFFFFFFFFFFFFFFFFFFFFFFFFFFFFFF PUSH1 0xFF DUP6 DUP2 SUB AND SHR AND JUMPDEST PUSH1 0x0 DUP2 DUP13 PUSH20 0xFFFFFFFFFFFFFFFFFFFFFFFFFFFFFFFFFFFFFFFF AND PUSH4 0x5339C296 DUP11 PUSH1 0x40 MLOAD DUP3 PUSH4 0xFFFFFFFF AND PUSH1 0xE0 SHL DUP2 MSTORE PUSH1 0x4 ADD DUP1 DUP3 PUSH1 0x1 SIGNEXTEND DUP2 MSTORE PUSH1 0x20 ADD SWAP2 POP POP PUSH1 0x20 PUSH1 0x40 MLOAD DUP1 DUP4 SUB DUP2 DUP7 DUP1 EXTCODESIZE ISZERO DUP1 ISZERO PUSH2 0x13D9 JUMPI PUSH1 0x0 DUP1 REVERT JUMPDEST POP GAS STATICCALL ISZERO DUP1 ISZERO PUSH2 0x13ED JUMPI RETURNDATASIZE PUSH1 0x0 DUP1 RETURNDATACOPY RETURNDATASIZE PUSH1 0x0 REVERT JUMPDEST POP POP POP POP PUSH1 0x40 MLOAD RETURNDATASIZE PUSH1 0x20 DUP2 LT ISZERO PUSH2 0x1403 JUMPI PUSH1 0x0 DUP1 REVERT JUMPDEST POP MLOAD AND SWAP1 POP PUSH2 0x1411 DUP2 PUSH2 0x1A3B JUMP JUMPDEST PUSH2 0xFFFF AND SWAP9 SWAP1 SWAP9 ADD SWAP8 POP POP PUSH1 0x1 SWAP1 SWAP6 ADD SWAP5 PUSH32 0xFFFFFFFFFFFFFFFFFFFFFFFFFFFFFFFFFFFFFFFFFFFFFFFFFFFFFFFFFFFFFFFF PUSH2 0x133D JUMP JUMPDEST DUP2 ISZERO PUSH2 0x1455 JUMPI PUSH1 0x1 DUP9 SUB SWAP8 POP JUMPDEST DUP3 ISZERO PUSH2 0x1462 JUMPI PUSH1 0x1 DUP9 SUB SWAP8 POP JUMPDEST POP POP POP POP POP POP POP SWAP4 SWAP3 POP POP POP JUMP JUMPDEST PUSH1 0x0 DUP2 DUP3 PUSH1 0x14 ADD LT ISZERO PUSH2 0x14E4 JUMPI PUSH1 0x40 DUP1 MLOAD PUSH32 0x8C379A000000000000000000000000000000000000000000000000000000000 DUP2 MSTORE PUSH1 0x20 PUSH1 0x4 DUP3 ADD MSTORE PUSH1 0x12 PUSH1 0x24 DUP3 ADD MSTORE PUSH32 0x746F416464726573735F6F766572666C6F770000000000000000000000000000 PUSH1 0x44 DUP3 ADD MSTORE SWAP1 MLOAD SWAP1 DUP2 SWAP1 SUB PUSH1 0x64 ADD SWAP1 REVERT JUMPDEST DUP2 PUSH1 0x14 ADD DUP4 MLOAD LT ISZERO PUSH2 0x1557 JUMPI PUSH1 0x40 DUP1 MLOAD PUSH32 0x8C379A000000000000000000000000000000000000000000000000000000000 DUP2 MSTORE PUSH1 0x20 PUSH1 0x4 DUP3 ADD MSTORE PUSH1 0x15 PUSH1 0x24 DUP3 ADD MSTORE PUSH32 0x746F416464726573735F6F75744F66426F756E64730000000000000000000000 PUSH1 0x44 DUP3 ADD MSTORE SWAP1 MLOAD SWAP1 DUP2 SWAP1 SUB PUSH1 0x64 ADD SWAP1 REVERT JUMPDEST POP ADD PUSH1 0x20 ADD MLOAD PUSH13 0x1000000000000000000000000 SWAP1 DIV SWAP1 JUMP JUMPDEST PUSH1 0x0 DUP2 DUP3 PUSH1 0x3 ADD LT ISZERO PUSH2 0x15E4 JUMPI PUSH1 0x40 DUP1 MLOAD PUSH32 0x8C379A000000000000000000000000000000000000000000000000000000000 DUP2 MSTORE PUSH1 0x20 PUSH1 0x4 DUP3 ADD MSTORE PUSH1 0x11 PUSH1 0x24 DUP3 ADD MSTORE PUSH32 0x746F55696E7432345F6F766572666C6F77000000000000000000000000000000 PUSH1 0x44 DUP3 ADD MSTORE SWAP1 MLOAD SWAP1 DUP2 SWAP1 SUB PUSH1 0x64 ADD SWAP1 REVERT JUMPDEST DUP2 PUSH1 0x3 ADD DUP4 MLOAD LT ISZERO PUSH2 0x1657 JUMPI PUSH1 0x40 DUP1 MLOAD PUSH32 0x8C379A000000000000000000000000000000000000000000000000000000000 DUP2 MSTORE PUSH1 0x20 PUSH1 0x4 DUP3 ADD MSTORE PUSH1 0x14 PUSH1 0x24 DUP3 ADD MSTORE PUSH32 0x746F55696E7432345F6F75744F66426F756E6473000000000000000000000000 PUSH1 0x44 DUP3 ADD MSTORE SWAP1 MLOAD SWAP1 DUP2 SWAP1 SUB PUSH1 0x64 ADD SWAP1 REVERT JUMPDEST POP ADD PUSH1 0x3 ADD MLOAD SWAP1 JUMP JUMPDEST PUSH1 0x60 DUP2 DUP3 PUSH1 0x1F ADD LT ISZERO PUSH2 0x16D4 JUMPI PUSH1 0x40 DUP1 MLOAD PUSH32 0x8C379A000000000000000000000000000000000000000000000000000000000 DUP2 MSTORE PUSH1 0x20 PUSH1 0x4 DUP3 ADD MSTORE PUSH1 0xE PUSH1 0x24 DUP3 ADD MSTORE PUSH32 0x736C6963655F6F766572666C6F77000000000000000000000000000000000000 PUSH1 0x44 DUP3 ADD MSTORE SWAP1 MLOAD SWAP1 DUP2 SWAP1 SUB PUSH1 0x64 ADD SWAP1 REVERT JUMPDEST DUP3 DUP3 DUP5 ADD LT ISZERO PUSH2 0x1745 JUMPI PUSH1 0x40 DUP1 MLOAD PUSH32 0x8C379A000000000000000000000000000000000000000000000000000000000 DUP2 MSTORE PUSH1 0x20 PUSH1 0x4 DUP3 ADD MSTORE PUSH1 0xE PUSH1 0x24 DUP3 ADD MSTORE PUSH32 0x736C6963655F6F766572666C6F77000000000000000000000000000000000000 PUSH1 0x44 DUP3 ADD MSTORE SWAP1 MLOAD SWAP1 DUP2 SWAP1 SUB PUSH1 0x64 ADD SWAP1 REVERT JUMPDEST DUP2 DUP4 ADD DUP5 MLOAD LT ISZERO PUSH2 0x17B7 JUMPI PUSH1 0x40 DUP1 MLOAD PUSH32 0x8C379A000000000000000000000000000000000000000000000000000000000 DUP2 MSTORE PUSH1 0x20 PUSH1 0x4 DUP3 ADD MSTORE PUSH1 0x11 PUSH1 0x24 DUP3 ADD MSTORE PUSH32 0x736C6963655F6F75744F66426F756E6473000000000000000000000000000000 PUSH1 0x44 DUP3 ADD MSTORE SWAP1 MLOAD SWAP1 DUP2 SWAP1 SUB PUSH1 0x64 ADD SWAP1 REVERT JUMPDEST PUSH1 0x60 DUP3 ISZERO DUP1 ISZERO PUSH2 0x17D6 JUMPI PUSH1 0x40 MLOAD SWAP2 POP PUSH1 0x0 DUP3 MSTORE PUSH1 0x20 DUP3 ADD PUSH1 0x40 MSTORE PUSH2 0x183E JUMP JUMPDEST PUSH1 0x40 MLOAD SWAP2 POP PUSH1 0x1F DUP5 AND DUP1 ISZERO PUSH1 0x20 MUL DUP2 DUP5 ADD ADD DUP6 DUP2 ADD DUP8 DUP4 ISZERO PUSH1 0x20 MUL DUP5 DUP12 ADD ADD ADD JUMPDEST DUP2 DUP4 LT ISZERO PUSH2 0x180F JUMPI DUP1 MLOAD DUP4 MSTORE PUSH1 0x20 SWAP3 DUP4 ADD SWAP3 ADD PUSH2 0x17F7 JUMP JUMPDEST POP POP DUP6 DUP5 MSTORE PUSH1 0x1F ADD PUSH32 0xFFFFFFFFFFFFFFFFFFFFFFFFFFFFFFFFFFFFFFFFFFFFFFFFFFFFFFFFFFFFFFE0 AND PUSH1 0x40 MSTORE POP JUMPDEST POP SWAP5 SWAP4 POP POP POP POP JUMP JUMPDEST PUSH1 0x0 PUSH2 0x1853 DUP4 DUP4 PUSH2 0xC2A JUMP JUMPDEST SWAP1 POP CALLER PUSH20 0xFFFFFFFFFFFFFFFFFFFFFFFFFFFFFFFFFFFFFFFF DUP3 AND EQ PUSH2 0x18C JUMPI PUSH1 0x0 DUP1 REVERT JUMPDEST PUSH1 0x0 DUP1 DUP3 PUSH20 0xFFFFFFFFFFFFFFFFFFFFFFFFFFFFFFFFFFFFFFFF AND DUP5 PUSH20 0xFFFFFFFFFFFFFFFFFFFFFFFFFFFFFFFFFFFFFFFF AND EQ ISZERO PUSH2 0x18B3 JUMPI PUSH1 0x0 DUP1 REVERT JUMPDEST DUP3 PUSH20 0xFFFFFFFFFFFFFFFFFFFFFFFFFFFFFFFFFFFFFFFF AND DUP5 PUSH20 0xFFFFFFFFFFFFFFFFFFFFFFFFFFFFFFFFFFFFFFFF AND LT PUSH2 0x18ED JUMPI DUP3 DUP5 PUSH2 0x18F0 JUMP JUMPDEST DUP4 DUP4 JUMPDEST SWAP1 SWAP3 POP SWAP1 POP PUSH20 0xFFFFFFFFFFFFFFFFFFFFFFFFFFFFFFFFFFFFFFFF DUP3 AND PUSH2 0x1915 JUMPI PUSH1 0x0 DUP1 REVERT JUMPDEST SWAP3 POP SWAP3 SWAP1 POP JUMP JUMPDEST PUSH1 0x0 DUP1 PUSH1 0x0 PUSH2 0x192B DUP6 DUP6 PUSH2 0x1877 JUMP JUMPDEST PUSH1 0x40 DUP1 MLOAD PUSH32 0xFFFFFFFFFFFFFFFFFFFFFFFFFFFFFFFFFFFFFFFF000000000000000000000000 PUSH1 0x60 SWAP5 DUP6 SHL DUP2 AND PUSH1 0x20 DUP1 DUP5 ADD SWAP2 SWAP1 SWAP2 MSTORE SWAP4 DUP6 SHL DUP2 AND PUSH1 0x34 DUP4 ADD MSTORE DUP3 MLOAD PUSH1 0x28 DUP2 DUP5 SUB ADD DUP2 MSTORE PUSH1 0x48 DUP4 ADD DUP5 MSTORE DUP1 MLOAD SWAP1 DUP6 ADD KECCAK256 PUSH32 0xFF00000000000000000000000000000000000000000000000000000000000000 PUSH1 0x68 DUP5 ADD MSTORE SWAP11 SWAP1 SWAP5 SHL SWAP1 SWAP4 AND PUSH1 0x69 DUP5 ADD MSTORE PUSH1 0x7D DUP4 ADD SWAP9 SWAP1 SWAP9 MSTORE PUSH32 0x96E8AC4277198FF8B6F785478AA9A39F403CB768DD02CBEE326C3E7DA348845F PUSH1 0x9D DUP1 DUP5 ADD SWAP2 SWAP1 SWAP2 MSTORE DUP9 MLOAD DUP1 DUP5 SUB SWAP1 SWAP2 ADD DUP2 MSTORE PUSH1 0xBD SWAP1 SWAP3 ADD SWAP1 SWAP8 MSTORE DUP1 MLOAD SWAP7 ADD SWAP6 SWAP1 SWAP6 KECCAK256 SWAP6 SWAP5 POP POP POP POP POP JUMP JUMPDEST PUSH1 0x0 DUP3 ISZERO DUP1 PUSH2 0x1A22 JUMPI POP POP DUP2 DUP2 MUL DUP2 DUP4 DUP3 DUP2 PUSH2 0x1A1F JUMPI INVALID JUMPDEST DIV EQ JUMPDEST PUSH2 0x18C JUMPI PUSH1 0x0 DUP1 REVERT JUMPDEST DUP1 DUP3 ADD DUP3 DUP2 LT ISZERO PUSH2 0x18C JUMPI PUSH1 0x0 DUP1 REVERT JUMPDEST PUSH1 0x0 DUP1 JUMPDEST DUP3 ISZERO PUSH2 0x18C JUMPI PUSH32 0xFFFFFFFFFFFFFFFFFFFFFFFFFFFFFFFFFFFFFFFFFFFFFFFFFFFFFFFFFFFFFFFF DUP4 ADD SWAP1 SWAP3 AND SWAP2 PUSH1 0x1 ADD PUSH2 0x1A3F JUMP JUMPDEST PUSH1 0x40 DUP1 MLOAD PUSH1 0x60 DUP2 ADD DUP3 MSTORE PUSH1 0x0 DUP1 DUP3 MSTORE PUSH1 0x20 DUP3 ADD DUP2 SWAP1 MSTORE SWAP2 DUP2 ADD SWAP2 SWAP1 SWAP2 MSTORE SWAP1 JUMP JUMPDEST PUSH1 0x0 DUP3 PUSH1 0x1F DUP4 ADD SLT PUSH2 0x1AA4 JUMPI DUP1 DUP2 REVERT JUMPDEST DUP2 CALLDATALOAD PUSH2 0x1AB7 PUSH2 0x1AB2 DUP3 PUSH2 0x20AC JUMP JUMPDEST PUSH2 0x2088 JUMP JUMPDEST DUP2 DUP2 MSTORE DUP5 PUSH1 0x20 DUP4 DUP7 ADD ADD GT ISZERO PUSH2 0x1ACB JUMPI DUP3 DUP4 REVERT JUMPDEST DUP2 PUSH1 0x20 DUP6 ADD PUSH1 0x20 DUP4 ADD CALLDATACOPY SWAP1 DUP2 ADD PUSH1 0x20 ADD SWAP2 SWAP1 SWAP2 MSTORE SWAP3 SWAP2 POP POP JUMP JUMPDEST DUP1 MLOAD PUSH1 0x2 DUP2 SWAP1 SIGNEXTEND DUP2 EQ PUSH2 0x95D JUMPI PUSH1 0x0 DUP1 REVERT JUMPDEST DUP1 CALLDATALOAD PUSH2 0x95D DUP2 PUSH2 0x211C JUMP JUMPDEST DUP1 MLOAD PUSH2 0xFFFF DUP2 AND DUP2 EQ PUSH2 0x95D JUMPI PUSH1 0x0 DUP1 REVERT JUMPDEST PUSH1 0x0 DUP1 PUSH1 0x40 DUP4 DUP6 SUB SLT ISZERO PUSH2 0x1B26 JUMPI DUP2 DUP3 REVERT JUMPDEST DUP3 CALLDATALOAD PUSH8 0xFFFFFFFFFFFFFFFF DUP2 GT ISZERO PUSH2 0x1B3C JUMPI DUP3 DUP4 REVERT JUMPDEST PUSH2 0x1B48 DUP6 DUP3 DUP7 ADD PUSH2 0x1A94 JUMP JUMPDEST SWAP6 PUSH1 0x20 SWAP5 SWAP1 SWAP5 ADD CALLDATALOAD SWAP5 POP POP POP POP JUMP JUMPDEST PUSH1 0x0 DUP1 PUSH1 0x40 DUP4 DUP6 SUB SLT ISZERO PUSH2 0x1B69 JUMPI DUP2 DUP3 REVERT JUMPDEST POP POP DUP1 MLOAD PUSH1 0x20 SWAP1 SWAP2 ADD MLOAD SWAP1 SWAP3 SWAP1 SWAP2 POP JUMP JUMPDEST PUSH1 0x0 DUP1 PUSH1 0x0 PUSH1 0x60 DUP5 DUP7 SUB SLT ISZERO PUSH2 0x1B8E JUMPI DUP1 DUP2 REVERT JUMPDEST DUP4 CALLDATALOAD SWAP3 POP PUSH1 0x20 DUP5 ADD CALLDATALOAD SWAP2 POP PUSH1 0x40 DUP5 ADD CALLDATALOAD PUSH8 0xFFFFFFFFFFFFFFFF DUP2 GT ISZERO PUSH2 0x1BB2 JUMPI DUP2 DUP3 REVERT JUMPDEST PUSH2 0x1BBE DUP7 DUP3 DUP8 ADD PUSH2 0x1A94 JUMP JUMPDEST SWAP2 POP POP SWAP3 POP SWAP3 POP SWAP3 JUMP JUMPDEST PUSH1 0x0 PUSH1 0x20 DUP3 DUP5 SUB SLT ISZERO PUSH2 0x1BD9 JUMPI DUP1 DUP2 REVERT JUMPDEST DUP2 MLOAD PUSH8 0xFFFFFFFFFFFFFFFF DUP2 GT ISZERO PUSH2 0x1BEF JUMPI DUP2 DUP3 REVERT JUMPDEST DUP3 ADD PUSH1 0x1F DUP2 ADD DUP5 SGT PUSH2 0x1BFF JUMPI DUP2 DUP3 REVERT JUMPDEST DUP1 MLOAD PUSH2 0x1C0D PUSH2 0x1AB2 DUP3 PUSH2 0x20AC JUMP JUMPDEST DUP2 DUP2 MSTORE DUP6 PUSH1 0x20 DUP4 DUP6 ADD ADD GT ISZERO PUSH2 0x1C21 JUMPI DUP4 DUP5 REVERT JUMPDEST PUSH2 0x9E6 DUP3 PUSH1 0x20 DUP4 ADD PUSH1 0x20 DUP7 ADD PUSH2 0x20EC JUMP JUMPDEST PUSH1 0x0 PUSH1 0x60 DUP3 DUP5 SUB SLT ISZERO PUSH2 0x1C43 JUMPI DUP1 DUP2 REVERT JUMPDEST PUSH1 0x40 MLOAD PUSH1 0x60 DUP2 ADD DUP2 DUP2 LT PUSH8 0xFFFFFFFFFFFFFFFF DUP3 GT OR ISZERO PUSH2 0x1C60 JUMPI INVALID JUMPDEST PUSH1 0x40 MSTORE DUP3 CALLDATALOAD PUSH2 0x1C6E DUP2 PUSH2 0x211C JUMP JUMPDEST DUP2 MSTORE PUSH1 0x20 DUP4 ADD CALLDATALOAD PUSH2 0x1C7E DUP2 PUSH2 0x211C JUMP JUMPDEST PUSH1 0x20 DUP3 ADD MSTORE PUSH1 0x40 SWAP3 DUP4 ADD CALLDATALOAD SWAP3 DUP2 ADD SWAP3 SWAP1 SWAP3 MSTORE POP SWAP2 SWAP1 POP JUMP JUMPDEST PUSH1 0x0 PUSH1 0xA0 DUP3 DUP5 SUB SLT ISZERO PUSH2 0x1CA7 JUMPI DUP1 DUP2 REVERT JUMPDEST PUSH1 0x40 MLOAD PUSH1 0xA0 DUP2 ADD DUP2 DUP2 LT PUSH8 0xFFFFFFFFFFFFFFFF DUP3 GT OR ISZERO PUSH2 0x1CC4 JUMPI INVALID JUMPDEST PUSH1 0x40 MSTORE DUP3 CALLDATALOAD PUSH2 0x1CD2 DUP2 PUSH2 0x211C JUMP JUMPDEST DUP2 MSTORE PUSH1 0x20 DUP4 ADD CALLDATALOAD PUSH2 0x1CE2 DUP2 PUSH2 0x211C JUMP JUMPDEST PUSH1 0x20 DUP3 ADD MSTORE PUSH1 0x40 DUP4 DUP2 ADD CALLDATALOAD SWAP1 DUP3 ADD MSTORE PUSH1 0x60 DUP4 ADD CALLDATALOAD PUSH3 0xFFFFFF DUP2 AND DUP2 EQ PUSH2 0x1D06 JUMPI DUP3 DUP4 REVERT JUMPDEST PUSH1 0x60 DUP3 ADD MSTORE PUSH2 0x1D17 PUSH1 0x80 DUP5 ADD PUSH2 0x1AF7 JUMP JUMPDEST PUSH1 0x80 DUP3 ADD MSTORE SWAP4 SWAP3 POP POP POP JUMP JUMPDEST PUSH1 0x0 DUP1 PUSH1 0x0 DUP1 PUSH1 0x0 DUP1 PUSH1 0x0 PUSH1 0xE0 DUP9 DUP11 SUB SLT ISZERO PUSH2 0x1D3D JUMPI DUP3 DUP4 REVERT JUMPDEST DUP8 MLOAD PUSH2 0x1D48 DUP2 PUSH2 0x211C JUMP JUMPDEST SWAP7 POP PUSH2 0x1D56 PUSH1 0x20 DUP10 ADD PUSH2 0x1AE5 JUMP JUMPDEST SWAP6 POP PUSH2 0x1D64 PUSH1 0x40 DUP10 ADD PUSH2 0x1B02 JUMP JUMPDEST SWAP5 POP PUSH2 0x1D72 PUSH1 0x60 DUP10 ADD PUSH2 0x1B02 JUMP JUMPDEST SWAP4 POP PUSH2 0x1D80 PUSH1 0x80 DUP10 ADD PUSH2 0x1B02 JUMP JUMPDEST SWAP3 POP PUSH1 0xA0 DUP9 ADD MLOAD PUSH1 0xFF DUP2 AND DUP2 EQ PUSH2 0x1D95 JUMPI DUP3 DUP4 REVERT JUMPDEST PUSH1 0xC0 DUP10 ADD MLOAD SWAP1 SWAP3 POP DUP1 ISZERO ISZERO DUP2 EQ PUSH2 0x1DAA JUMPI DUP2 DUP3 REVERT JUMPDEST DUP1 SWAP2 POP POP SWAP3 SWAP6 SWAP9 SWAP2 SWAP5 SWAP8 POP SWAP3 SWAP6 POP JUMP JUMPDEST PUSH1 0x0 DUP1 PUSH1 0x0 PUSH1 0x60 DUP5 DUP7 SUB SLT ISZERO PUSH2 0x1DCE JUMPI DUP1 DUP2 REVERT JUMPDEST DUP4 MLOAD SWAP3 POP PUSH1 0x20 DUP5 ADD MLOAD PUSH2 0x1DE0 DUP2 PUSH2 0x211C JUMP JUMPDEST SWAP2 POP PUSH2 0x1DEE PUSH1 0x40 DUP6 ADD PUSH2 0x1AE5 JUMP JUMPDEST SWAP1 POP SWAP3 POP SWAP3 POP SWAP3 JUMP JUMPDEST PUSH1 0x0 DUP2 MLOAD DUP1 DUP5 MSTORE PUSH2 0x1E0F DUP2 PUSH1 0x20 DUP7 ADD PUSH1 0x20 DUP7 ADD PUSH2 0x20EC JUMP JUMPDEST PUSH1 0x1F ADD PUSH32 0xFFFFFFFFFFFFFFFFFFFFFFFFFFFFFFFFFFFFFFFFFFFFFFFFFFFFFFFFFFFFFFE0 AND SWAP3 SWAP1 SWAP3 ADD PUSH1 0x20 ADD SWAP3 SWAP2 POP POP JUMP JUMPDEST PUSH1 0x60 SWAP4 DUP5 SHL PUSH32 0xFFFFFFFFFFFFFFFFFFFFFFFFFFFFFFFFFFFFFFFF000000000000000000000000 SWAP1 DUP2 AND DUP3 MSTORE PUSH1 0xE8 SWAP4 SWAP1 SWAP4 SHL PUSH32 0xFFFFFF0000000000000000000000000000000000000000000000000000000000 AND PUSH1 0x14 DUP3 ADD MSTORE SWAP3 SHL AND PUSH1 0x17 DUP3 ADD MSTORE PUSH1 0x2B ADD SWAP1 JUMP JUMPDEST PUSH20 0xFFFFFFFFFFFFFFFFFFFFFFFFFFFFFFFFFFFFFFFF SWAP2 SWAP1 SWAP2 AND DUP2 MSTORE PUSH1 0x20 ADD SWAP1 JUMP JUMPDEST PUSH1 0x0 PUSH20 0xFFFFFFFFFFFFFFFFFFFFFFFFFFFFFFFFFFFFFFFF DUP1 DUP9 AND DUP4 MSTORE DUP7 ISZERO ISZERO PUSH1 0x20 DUP5 ADD MSTORE DUP6 PUSH1 0x40 DUP5 ADD MSTORE DUP1 DUP6 AND PUSH1 0x60 DUP5 ADD MSTORE POP PUSH1 0xA0 PUSH1 0x80 DUP4 ADD MSTORE PUSH2 0x1F0F PUSH1 0xA0 DUP4 ADD DUP5 PUSH2 0x1DF7 JUMP JUMPDEST SWAP8 SWAP7 POP POP POP POP POP POP POP JUMP JUMPDEST PUSH1 0x0 PUSH1 0x20 DUP3 MSTORE PUSH2 0x1F2D PUSH1 0x20 DUP4 ADD DUP5 PUSH2 0x1DF7 JUMP JUMPDEST SWAP4 SWAP3 POP POP POP JUMP JUMPDEST PUSH1 0x20 DUP1 DUP3 MSTORE PUSH1 0x10 SWAP1 DUP3 ADD MSTORE PUSH32 0x556E6578706563746564206572726F7200000000000000000000000000000000 PUSH1 0x40 DUP3 ADD MSTORE PUSH1 0x60 ADD SWAP1 JUMP JUMPDEST PUSH1 0x20 DUP1 DUP3 MSTORE DUP2 DUP2 ADD MSTORE PUSH32 0x4578616374206F75747075742071756F7465206E6F7420737570706F72746564 PUSH1 0x40 DUP3 ADD MSTORE PUSH1 0x60 ADD SWAP1 JUMP JUMPDEST SWAP1 DUP2 MSTORE PUSH1 0x20 ADD SWAP1 JUMP JUMPDEST PUSH1 0x0 PUSH1 0x80 DUP3 ADD DUP7 DUP4 MSTORE PUSH1 0x20 PUSH1 0x80 DUP2 DUP6 ADD MSTORE DUP2 DUP8 MLOAD DUP1 DUP5 MSTORE PUSH1 0xA0 DUP7 ADD SWAP2 POP DUP3 DUP10 ADD SWAP4 POP DUP5 JUMPDEST DUP2 DUP2 LT ISZERO PUSH2 0x1FFF JUMPI DUP5 MLOAD PUSH20 0xFFFFFFFFFFFFFFFFFFFFFFFFFFFFFFFFFFFFFFFF AND DUP4 MSTORE SWAP4 DUP4 ADD SWAP4 SWAP2 DUP4 ADD SWAP2 PUSH1 0x1 ADD PUSH2 0x1FCD JUMP JUMPDEST POP POP DUP5 DUP2 SUB PUSH1 0x40 DUP7 ADD MSTORE DUP7 MLOAD DUP1 DUP3 MSTORE SWAP1 DUP3 ADD SWAP3 POP DUP2 DUP8 ADD SWAP1 DUP5 JUMPDEST DUP2 DUP2 LT ISZERO PUSH2 0x203B JUMPI DUP3 MLOAD PUSH4 0xFFFFFFFF AND DUP6 MSTORE SWAP4 DUP4 ADD SWAP4 SWAP2 DUP4 ADD SWAP2 PUSH1 0x1 ADD PUSH2 0x2019 JUMP JUMPDEST POP POP POP POP PUSH1 0x60 SWAP3 SWAP1 SWAP3 ADD SWAP3 SWAP1 SWAP3 MSTORE SWAP5 SWAP4 POP POP POP POP JUMP JUMPDEST SWAP4 DUP5 MSTORE PUSH20 0xFFFFFFFFFFFFFFFFFFFFFFFFFFFFFFFFFFFFFFFF SWAP3 SWAP1 SWAP3 AND PUSH1 0x20 DUP5 ADD MSTORE PUSH4 0xFFFFFFFF AND PUSH1 0x40 DUP4 ADD MSTORE PUSH1 0x60 DUP3 ADD MSTORE PUSH1 0x80 ADD SWAP1 JUMP JUMPDEST PUSH1 0x40 MLOAD DUP2 DUP2 ADD PUSH8 0xFFFFFFFFFFFFFFFF DUP2 GT DUP3 DUP3 LT OR ISZERO PUSH2 0x20A4 JUMPI INVALID JUMPDEST PUSH1 0x40 MSTORE SWAP2 SWAP1 POP JUMP JUMPDEST PUSH1 0x0 PUSH8 0xFFFFFFFFFFFFFFFF DUP3 GT ISZERO PUSH2 0x20C0 JUMPI INVALID JUMPDEST POP PUSH1 0x1F ADD PUSH32 0xFFFFFFFFFFFFFFFFFFFFFFFFFFFFFFFFFFFFFFFFFFFFFFFFFFFFFFFFFFFFFFE0 AND PUSH1 0x20 ADD SWAP1 JUMP JUMPDEST PUSH1 0x0 JUMPDEST DUP4 DUP2 LT ISZERO PUSH2 0x2107 JUMPI DUP2 DUP2 ADD MLOAD DUP4 DUP3 ADD MSTORE PUSH1 0x20 ADD PUSH2 0x20EF JUMP JUMPDEST DUP4 DUP2 GT ISZERO PUSH2 0x2116 JUMPI PUSH1 0x0 DUP5 DUP5 ADD MSTORE JUMPDEST POP POP POP POP JUMP JUMPDEST PUSH20 0xFFFFFFFFFFFFFFFFFFFFFFFFFFFFFFFFFFFFFFFF DUP2 AND DUP2 EQ PUSH2 0x213E JUMPI PUSH1 0x0 DUP1 REVERT JUMPDEST POP JUMP INVALID LOG1 PUSH5 0x736F6C6343 STOP SMOD MOD STOP EXP "},"methodIdentifiers":{"WETH9()":"4aa4a4fc","factory()":"c45a0155","factoryV2()":"68e0d4e1","quoteExactInput(bytes,uint256)":"cdca1753","quoteExactInputSingleV2((address,address,uint256))":"8a499286","quoteExactInputSingleV3((address,address,uint256,uint24,uint160))":"b174a0a7","uniswapV3SwapCallback(int256,int256,bytes)":"fa461e33"}}}}}