{
  "_format": "hh-sol-artifact-1",
  "contractName": "SafeERC20NamerTest",
  "sourceName": "contracts/lib/contracts/test/SafeERC20NamerTest.sol",
  "abi": [
    {
      "inputs": [
        {
          "internalType": "address",
          "name": "token",
          "type": "address"
        }
      ],
      "name": "tokenName",
      "outputs": [
        {
          "internalType": "string",
          "name": "",
          "type": "string"
        }
      ],
      "stateMutability": "view",
      "type": "function"
    },
    {
      "inputs": [
        {
          "internalType": "address",
          "name": "token",
          "type": "address"
        }
      ],
      "name": "tokenSymbol",
      "outputs": [
        {
          "internalType": "string",
          "name": "",
          "type": "string"
        }
      ],
      "stateMutability": "view",
      "type": "function"
    }
  ],
  "bytecode": "0x608060405234801561001057600080fd5b50610766806100206000396000f3fe608060405234801561001057600080fd5b50600436106100365760003560e01c8063033b9b4f1461003b578063e54f7522146100e3575b600080fd5b61006e6004803603602081101561005157600080fd5b503573ffffffffffffffffffffffffffffffffffffffff16610116565b6040805160208082528351818301528351919283929083019185019080838360005b838110156100a8578181015183820152602001610090565b50505050905090810190601f1680156100d55780820380516001836020036101000a031916815260200191505b509250505060405180910390f35b61006e600480360360208110156100f957600080fd5b503573ffffffffffffffffffffffffffffffffffffffff16610129565b606061012182610134565b90505b919050565b60606101218261017e565b606080610161837f95d89b41000000000000000000000000000000000000000000000000000000006101c0565b90508051600014156101215761017683610425565b915050610124565b6060806101ab837f06fdde03000000000000000000000000000000000000000000000000000000006101c0565b90508051600014156101215761017683610432565b60408051600481526024810182526020810180517bffffffffffffffffffffffffffffffffffffffffffffffffffffffff167fffffffff00000000000000000000000000000000000000000000000000000000851617815291518151606093600093859373ffffffffffffffffffffffffffffffffffffffff891693919290918291908083835b602083106102665780518252601f199092019160209182019101610247565b6001836020036101000a038019825116818451168082178552505050505050905001915050600060405180830381855afa9150503d80600081146102c6576040519150601f19603f3d011682016040523d82523d6000602084013e6102cb565b606091505b50915091508115806102dc57508051155b156102fa57604051806020016040528060008152509250505061041f565b80516020141561033257600081806020019051602081101561031b57600080fd5b505190506103288161043f565b935050505061041f565b60408151111561040a5780806020019051602081101561035157600080fd5b810190808051604051939291908464010000000082111561037157600080fd5b90830190602082018581111561038657600080fd5b82516401000000008111828201881017156103a057600080fd5b82525081516020918201929091019080838360005b838110156103cd5781810151838201526020016103b5565b50505050905090810190601f1680156103fa5780820380516001836020036101000a031916815260200191505b506040525050509250505061041f565b60405180602001604052806000815250925050505b92915050565b606061012182600661057e565b606061012182602861057e565b6040805160208082528183019092526060918291906020820181803683370190505090506000805b60208110156104e057600085826020811061047e57fe5b1a60f81b90507fff000000000000000000000000000000000000000000000000000000000000008116156104d757808484815181106104b957fe5b60200101906001600160f81b031916908160001a9053506001909201915b50600101610467565b5060608167ffffffffffffffff811180156104fa57600080fd5b506040519080825280601f01601f191660200182016040528015610525576020820181803683370190505b50905060005b828110156105755783818151811061053f57fe5b602001015160f81c60f81b82828151811061055657fe5b60200101906001600160f81b031916908160001a90535060010161052b565b50949350505050565b6060600282061580156105915750600082115b801561059e575060288211155b61060957604080517f08c379a000000000000000000000000000000000000000000000000000000000815260206004820152601e60248201527f41646472657373537472696e675574696c3a20494e56414c49445f4c454e0000604482015290519081900360640190fd5b60608267ffffffffffffffff8111801561062257600080fd5b506040519080825280601f01601f19166020018201604052801561064d576020820181803683370190505b50905073ffffffffffffffffffffffffffffffffffffffff841660005b600285048110156106fe57600860138290030282901c600f600482901c1660f08216820361069782610708565b8685600202815181106106a657fe5b60200101906001600160f81b031916908160001a9053506106c681610708565b8685600202600101815181106106d857fe5b60200101906001600160f81b031916908160001a905350506001909201915061066a9050565b5090949350505050565b6000600a8260ff16101561072357506030810160f81b610124565b506037810160f81b61012456fea2646970667358221220bb5ba95ac05effbe9ebeead0d924f4d5b11990fab66dd08acd76c22179c01cff64736f6c634300060c0033",
  "linkReferences": {},
  "deployedLinkReferences": {}
}