{
  "_format": "hh-sol-artifact-1",
  "contractName": "$Errors",
  "sourceName": "contracts-exposed/utils/Errors.sol",
  "abi": [
    {
      "inputs": [],
      "stateMutability": "payable",
      "type": "constructor"
    },
    {
      "inputs": [],
      "name": "__hh_exposed_bytecode_marker",
      "outputs": [
        {
          "internalType": "bytes32",
          "name": "",
          "type": "bytes32"
        }
      ],
      "stateMutability": "view",
      "type": "function"
    },
    {
      "stateMutability": "payable",
      "type": "receive"
    }
  ],
  "bytecode": "0x6080604052609380600f5f395ff3fe608060405260043610601e575f3560e01c8063342db739146028575f80fd5b36602457005b5f80fd5b3480156032575f80fd5b50604b6e1a185c991a185d0b595e1c1bdcd959608a1b81565b60405190815260200160405180910390f3fea26469706673582212205999ae805ce45af233da73c4181ae62c9f680edd78a1283486edc93354805b0764736f6c63430008180033",
  "linkReferences": {},
  "deployedLinkReferences": {}
}