{
  "_format": "hh-sol-artifact-1",
  "contractName": "$DoubleEndedQueue",
  "sourceName": "contracts-exposed/utils/structs/DoubleEndedQueue.sol",
  "abi": [
    {
      "inputs": [],
      "stateMutability": "payable",
      "type": "constructor"
    },
    {
      "anonymous": false,
      "inputs": [
        {
          "indexed": false,
          "internalType": "bytes32",
          "name": "value",
          "type": "bytes32"
        }
      ],
      "name": "return$popBack",
      "type": "event"
    },
    {
      "anonymous": false,
      "inputs": [
        {
          "indexed": false,
          "internalType": "bytes32",
          "name": "value",
          "type": "bytes32"
        }
      ],
      "name": "return$popFront",
      "type": "event"
    },
    {
      "inputs": [
        {
          "internalType": "uint256",
          "name": "deque",
          "type": "uint256"
        },
        {
          "internalType": "uint256",
          "name": "index",
          "type": "uint256"
        }
      ],
      "name": "$at",
      "outputs": [
        {
          "internalType": "bytes32",
          "name": "value",
          "type": "bytes32"
        }
      ],
      "stateMutability": "view",
      "type": "function"
    },
    {
      "inputs": [
        {
          "internalType": "uint256",
          "name": "deque",
          "type": "uint256"
        }
      ],
      "name": "$back",
      "outputs": [
        {
          "internalType": "bytes32",
          "name": "value",
          "type": "bytes32"
        }
      ],
      "stateMutability": "view",
      "type": "function"
    },
    {
      "inputs": [
        {
          "internalType": "uint256",
          "name": "deque",
          "type": "uint256"
        }
      ],
      "name": "$clear",
      "outputs": [],
      "stateMutability": "payable",
      "type": "function"
    },
    {
      "inputs": [
        {
          "internalType": "uint256",
          "name": "deque",
          "type": "uint256"
        }
      ],
      "name": "$empty",
      "outputs": [
        {
          "internalType": "bool",
          "name": "ret0",
          "type": "bool"
        }
      ],
      "stateMutability": "view",
      "type": "function"
    },
    {
      "inputs": [
        {
          "internalType": "uint256",
          "name": "deque",
          "type": "uint256"
        }
      ],
      "name": "$front",
      "outputs": [
        {
          "internalType": "bytes32",
          "name": "value",
          "type": "bytes32"
        }
      ],
      "stateMutability": "view",
      "type": "function"
    },
    {
      "inputs": [
        {
          "internalType": "uint256",
          "name": "deque",
          "type": "uint256"
        }
      ],
      "name": "$length",
      "outputs": [
        {
          "internalType": "uint256",
          "name": "ret0",
          "type": "uint256"
        }
      ],
      "stateMutability": "view",
      "type": "function"
    },
    {
      "inputs": [
        {
          "internalType": "uint256",
          "name": "deque",
          "type": "uint256"
        }
      ],
      "name": "$popBack",
      "outputs": [
        {
          "internalType": "bytes32",
          "name": "value",
          "type": "bytes32"
        }
      ],
      "stateMutability": "payable",
      "type": "function"
    },
    {
      "inputs": [
        {
          "internalType": "uint256",
          "name": "deque",
          "type": "uint256"
        }
      ],
      "name": "$popFront",
      "outputs": [
        {
          "internalType": "bytes32",
          "name": "value",
          "type": "bytes32"
        }
      ],
      "stateMutability": "payable",
      "type": "function"
    },
    {
      "inputs": [
        {
          "internalType": "uint256",
          "name": "deque",
          "type": "uint256"
        },
        {
          "internalType": "bytes32",
          "name": "value",
          "type": "bytes32"
        }
      ],
      "name": "$pushBack",
      "outputs": [],
      "stateMutability": "payable",
      "type": "function"
    },
    {
      "inputs": [
        {
          "internalType": "uint256",
          "name": "deque",
          "type": "uint256"
        },
        {
          "internalType": "bytes32",
          "name": "value",
          "type": "bytes32"
        }
      ],
      "name": "$pushFront",
      "outputs": [],
      "stateMutability": "payable",
      "type": "function"
    },
    {
      "inputs": [],
      "name": "__hh_exposed_bytecode_marker",
      "outputs": [
        {
          "internalType": "bytes32",
          "name": "",
          "type": "bytes32"
        }
      ],
      "stateMutability": "view",
      "type": "function"
    },
    {
      "stateMutability": "payable",
      "type": "receive"
    }
  ],
  "bytecode": "0x6080604052610668806100115f395ff3fe60806040526004361061009d575f3560e01c8063342db73911610062578063342db739146101345780633a120fb01461015957806369b64fb41461017857806372a3147b1461018b578063e508b548146101a9578063eb71a331146101c8575f80fd5b806301b7a0d2146100a8578063100deb5b146100bd5780631119ed0d146100e357806319fc17811461010257806330fc7d4214610121575f80fd5b366100a457005b5f80fd5b6100bb6100b63660046105fb565b6101f7565b005b6100d06100cb36600461061b565b610212565b6040519081526020015b60405180910390f35b3480156100ee575f80fd5b506100d06100fd36600461061b565b610268565b34801561010d575f80fd5b506100d061011c36600461061b565b610284565b6100d061012f36600461061b565b6102b1565b34801561013f575f80fd5b506100d06e1a185c991a185d0b595e1c1bdcd959608a1b81565b348015610164575f80fd5b506100d061017336600461061b565b6102fa565b6100bb6101863660046105fb565b610310565b6100bb61019936600461061b565b5f90815260208190526040812055565b3480156101b4575f80fd5b506100d06101c33660046105fb565b610327565b3480156101d3575f80fd5b506101e76101e236600461061b565b610345565b60405190151581526020016100da565b5f82815260208190526040902061020e908261036d565b5050565b5f818152602081905260408120610228906103ce565b90507f9c2e1a59fa6ca05f455668c8abba7fb32b6c0575457a7a6d6e5365d87ca921888160405161025b91815260200190565b60405180910390a1919050565b5f81815260208190526040812061027e9061042c565b92915050565b5f818152602081905260408120546001600160801b03808216600160801b9092048116919091031661027e565b5f8181526020819052604081206102c790610479565b90507f58b1a1273a9b4031e423823987774815c8ca9dd9ac3a58d1ba9692d6f094798f8160405161025b91815260200190565b5f81815260208190526040812061027e906104dd565b5f82815260208190526040902061020e9082610537565b5f82815260208190526040812061033e9083610590565b9392505050565b5f818152602081905260408120546001600160801b03808216600160801b909204161461027e565b81546001600160801b03600160801b8204811691811660018301909116036103995761039960416105ea565b6001600160801b038082165f90815260018086016020526040909120939093558354919092018216600160801b029116179055565b80545f906001600160801b03600160801b82048116911681036103f5576103f560316105ea565b5f19016001600160801b039081165f818152600185016020526040812080549190558454909216600160801b909102179092555090565b5f61044a8254600160801b81046001600160801b0390811691161490565b156104595761045960326105ea565b5080546001600160801b03165f9081526001909101602052604090205490565b80545f906001600160801b0380821691600160801b90041681036104a1576104a160316105ea565b6001600160801b038181165f908152600185810160205260408220805492905585546001600160801b0319169301909116919091179092555090565b5f6104fb8254600160801b81046001600160801b0390811691161490565b1561050a5761050a60326105ea565b5080545f196001600160801b03600160801b909204821601165f9081526001909101602052604090205490565b81546001600160801b038082165f190191600160801b90048116908216036105635761056360416105ea565b6001600160801b03165f81815260018401602052604090209190915581546001600160801b031916179055565b5f6105b383546001600160801b03808216600160801b9092048116919091031690565b82106105c3576105c360326105ea565b5081546001600160801b039081168201165f90815260018301602052604090205492915050565b634e487b715f52806020526024601cfd5b5f806040838503121561060c575f80fd5b50508035926020909101359150565b5f6020828403121561062b575f80fd5b503591905056fea2646970667358221220a8dc1909be308d01ea2156886840a0436baffe9ad6493a5d11316371e02c288a64736f6c63430008180033",
  "linkReferences": {},
  "deployedLinkReferences": {}
}