{
  "_format": "hh-sol-artifact-1",
  "contractName": "$ERC721URIStorage",
  "sourceName": "contracts-exposed/token/ERC721/extensions/ERC721URIStorage.sol",
  "abi": [
    {
      "inputs": [
        {
          "internalType": "string",
          "name": "name_",
          "type": "string"
        },
        {
          "internalType": "string",
          "name": "symbol_",
          "type": "string"
        }
      ],
      "stateMutability": "payable",
      "type": "constructor"
    },
    {
      "inputs": [
        {
          "internalType": "address",
          "name": "sender",
          "type": "address"
        },
        {
          "internalType": "uint256",
          "name": "tokenId",
          "type": "uint256"
        },
        {
          "internalType": "address",
          "name": "owner",
          "type": "address"
        }
      ],
      "name": "ERC721IncorrectOwner",
      "type": "error"
    },
    {
      "inputs": [
        {
          "internalType": "address",
          "name": "operator",
          "type": "address"
        },
        {
          "internalType": "uint256",
          "name": "tokenId",
          "type": "uint256"
        }
      ],
      "name": "ERC721InsufficientApproval",
      "type": "error"
    },
    {
      "inputs": [
        {
          "internalType": "address",
          "name": "approver",
          "type": "address"
        }
      ],
      "name": "ERC721InvalidApprover",
      "type": "error"
    },
    {
      "inputs": [
        {
          "internalType": "address",
          "name": "operator",
          "type": "address"
        }
      ],
      "name": "ERC721InvalidOperator",
      "type": "error"
    },
    {
      "inputs": [
        {
          "internalType": "address",
          "name": "owner",
          "type": "address"
        }
      ],
      "name": "ERC721InvalidOwner",
      "type": "error"
    },
    {
      "inputs": [
        {
          "internalType": "address",
          "name": "receiver",
          "type": "address"
        }
      ],
      "name": "ERC721InvalidReceiver",
      "type": "error"
    },
    {
      "inputs": [
        {
          "internalType": "address",
          "name": "sender",
          "type": "address"
        }
      ],
      "name": "ERC721InvalidSender",
      "type": "error"
    },
    {
      "inputs": [
        {
          "internalType": "uint256",
          "name": "tokenId",
          "type": "uint256"
        }
      ],
      "name": "ERC721NonexistentToken",
      "type": "error"
    },
    {
      "anonymous": false,
      "inputs": [
        {
          "indexed": true,
          "internalType": "address",
          "name": "owner",
          "type": "address"
        },
        {
          "indexed": true,
          "internalType": "address",
          "name": "approved",
          "type": "address"
        },
        {
          "indexed": true,
          "internalType": "uint256",
          "name": "tokenId",
          "type": "uint256"
        }
      ],
      "name": "Approval",
      "type": "event"
    },
    {
      "anonymous": false,
      "inputs": [
        {
          "indexed": true,
          "internalType": "address",
          "name": "owner",
          "type": "address"
        },
        {
          "indexed": true,
          "internalType": "address",
          "name": "operator",
          "type": "address"
        },
        {
          "indexed": false,
          "internalType": "bool",
          "name": "approved",
          "type": "bool"
        }
      ],
      "name": "ApprovalForAll",
      "type": "event"
    },
    {
      "anonymous": false,
      "inputs": [
        {
          "indexed": false,
          "internalType": "uint256",
          "name": "_fromTokenId",
          "type": "uint256"
        },
        {
          "indexed": false,
          "internalType": "uint256",
          "name": "_toTokenId",
          "type": "uint256"
        }
      ],
      "name": "BatchMetadataUpdate",
      "type": "event"
    },
    {
      "anonymous": false,
      "inputs": [
        {
          "indexed": false,
          "internalType": "uint256",
          "name": "_tokenId",
          "type": "uint256"
        }
      ],
      "name": "MetadataUpdate",
      "type": "event"
    },
    {
      "anonymous": false,
      "inputs": [
        {
          "indexed": true,
          "internalType": "address",
          "name": "from",
          "type": "address"
        },
        {
          "indexed": true,
          "internalType": "address",
          "name": "to",
          "type": "address"
        },
        {
          "indexed": true,
          "internalType": "uint256",
          "name": "tokenId",
          "type": "uint256"
        }
      ],
      "name": "Transfer",
      "type": "event"
    },
    {
      "anonymous": false,
      "inputs": [
        {
          "indexed": false,
          "internalType": "address",
          "name": "ret0",
          "type": "address"
        }
      ],
      "name": "return$_update",
      "type": "event"
    },
    {
      "inputs": [
        {
          "internalType": "address",
          "name": "to",
          "type": "address"
        },
        {
          "internalType": "uint256",
          "name": "tokenId",
          "type": "uint256"
        },
        {
          "internalType": "address",
          "name": "auth",
          "type": "address"
        },
        {
          "internalType": "bool",
          "name": "emitEvent",
          "type": "bool"
        }
      ],
      "name": "$_approve",
      "outputs": [],
      "stateMutability": "nonpayable",
      "type": "function"
    },
    {
      "inputs": [
        {
          "internalType": "address",
          "name": "to",
          "type": "address"
        },
        {
          "internalType": "uint256",
          "name": "tokenId",
          "type": "uint256"
        },
        {
          "internalType": "address",
          "name": "auth",
          "type": "address"
        }
      ],
      "name": "$_approve",
      "outputs": [],
      "stateMutability": "nonpayable",
      "type": "function"
    },
    {
      "inputs": [],
      "name": "$_baseURI",
      "outputs": [
        {
          "internalType": "string",
          "name": "ret0",
          "type": "string"
        }
      ],
      "stateMutability": "view",
      "type": "function"
    },
    {
      "inputs": [
        {
          "internalType": "uint256",
          "name": "tokenId",
          "type": "uint256"
        }
      ],
      "name": "$_burn",
      "outputs": [],
      "stateMutability": "nonpayable",
      "type": "function"
    },
    {
      "inputs": [
        {
          "internalType": "address",
          "name": "owner",
          "type": "address"
        },
        {
          "internalType": "address",
          "name": "spender",
          "type": "address"
        },
        {
          "internalType": "uint256",
          "name": "tokenId",
          "type": "uint256"
        }
      ],
      "name": "$_checkAuthorized",
      "outputs": [],
      "stateMutability": "view",
      "type": "function"
    },
    {
      "inputs": [],
      "name": "$_contextSuffixLength",
      "outputs": [
        {
          "internalType": "uint256",
          "name": "ret0",
          "type": "uint256"
        }
      ],
      "stateMutability": "view",
      "type": "function"
    },
    {
      "inputs": [
        {
          "internalType": "uint256",
          "name": "tokenId",
          "type": "uint256"
        }
      ],
      "name": "$_getApproved",
      "outputs": [
        {
          "internalType": "address",
          "name": "ret0",
          "type": "address"
        }
      ],
      "stateMutability": "view",
      "type": "function"
    },
    {
      "inputs": [
        {
          "internalType": "address",
          "name": "account",
          "type": "address"
        },
        {
          "internalType": "uint128",
          "name": "value",
          "type": "uint128"
        }
      ],
      "name": "$_increaseBalance",
      "outputs": [],
      "stateMutability": "nonpayable",
      "type": "function"
    },
    {
      "inputs": [
        {
          "internalType": "address",
          "name": "owner",
          "type": "address"
        },
        {
          "internalType": "address",
          "name": "spender",
          "type": "address"
        },
        {
          "internalType": "uint256",
          "name": "tokenId",
          "type": "uint256"
        }
      ],
      "name": "$_isAuthorized",
      "outputs": [
        {
          "internalType": "bool",
          "name": "ret0",
          "type": "bool"
        }
      ],
      "stateMutability": "view",
      "type": "function"
    },
    {
      "inputs": [
        {
          "internalType": "address",
          "name": "to",
          "type": "address"
        },
        {
          "internalType": "uint256",
          "name": "tokenId",
          "type": "uint256"
        }
      ],
      "name": "$_mint",
      "outputs": [],
      "stateMutability": "nonpayable",
      "type": "function"
    },
    {
      "inputs": [],
      "name": "$_msgData",
      "outputs": [
        {
          "internalType": "bytes",
          "name": "ret0",
          "type": "bytes"
        }
      ],
      "stateMutability": "view",
      "type": "function"
    },
    {
      "inputs": [],
      "name": "$_msgSender",
      "outputs": [
        {
          "internalType": "address",
          "name": "ret0",
          "type": "address"
        }
      ],
      "stateMutability": "view",
      "type": "function"
    },
    {
      "inputs": [
        {
          "internalType": "uint256",
          "name": "tokenId",
          "type": "uint256"
        }
      ],
      "name": "$_ownerOf",
      "outputs": [
        {
          "internalType": "address",
          "name": "ret0",
          "type": "address"
        }
      ],
      "stateMutability": "view",
      "type": "function"
    },
    {
      "inputs": [
        {
          "internalType": "uint256",
          "name": "tokenId",
          "type": "uint256"
        }
      ],
      "name": "$_requireOwned",
      "outputs": [
        {
          "internalType": "address",
          "name": "ret0",
          "type": "address"
        }
      ],
      "stateMutability": "view",
      "type": "function"
    },
    {
      "inputs": [
        {
          "internalType": "address",
          "name": "to",
          "type": "address"
        },
        {
          "internalType": "uint256",
          "name": "tokenId",
          "type": "uint256"
        },
        {
          "internalType": "bytes",
          "name": "data",
          "type": "bytes"
        }
      ],
      "name": "$_safeMint",
      "outputs": [],
      "stateMutability": "nonpayable",
      "type": "function"
    },
    {
      "inputs": [
        {
          "internalType": "address",
          "name": "to",
          "type": "address"
        },
        {
          "internalType": "uint256",
          "name": "tokenId",
          "type": "uint256"
        }
      ],
      "name": "$_safeMint",
      "outputs": [],
      "stateMutability": "nonpayable",
      "type": "function"
    },
    {
      "inputs": [
        {
          "internalType": "address",
          "name": "from",
          "type": "address"
        },
        {
          "internalType": "address",
          "name": "to",
          "type": "address"
        },
        {
          "internalType": "uint256",
          "name": "tokenId",
          "type": "uint256"
        },
        {
          "internalType": "bytes",
          "name": "data",
          "type": "bytes"
        }
      ],
      "name": "$_safeTransfer",
      "outputs": [],
      "stateMutability": "nonpayable",
      "type": "function"
    },
    {
      "inputs": [
        {
          "internalType": "address",
          "name": "from",
          "type": "address"
        },
        {
          "internalType": "address",
          "name": "to",
          "type": "address"
        },
        {
          "internalType": "uint256",
          "name": "tokenId",
          "type": "uint256"
        }
      ],
      "name": "$_safeTransfer",
      "outputs": [],
      "stateMutability": "nonpayable",
      "type": "function"
    },
    {
      "inputs": [
        {
          "internalType": "address",
          "name": "owner",
          "type": "address"
        },
        {
          "internalType": "address",
          "name": "operator",
          "type": "address"
        },
        {
          "internalType": "bool",
          "name": "approved",
          "type": "bool"
        }
      ],
      "name": "$_setApprovalForAll",
      "outputs": [],
      "stateMutability": "nonpayable",
      "type": "function"
    },
    {
      "inputs": [
        {
          "internalType": "uint256",
          "name": "tokenId",
          "type": "uint256"
        },
        {
          "internalType": "string",
          "name": "_tokenURI",
          "type": "string"
        }
      ],
      "name": "$_setTokenURI",
      "outputs": [],
      "stateMutability": "nonpayable",
      "type": "function"
    },
    {
      "inputs": [
        {
          "internalType": "address",
          "name": "from",
          "type": "address"
        },
        {
          "internalType": "address",
          "name": "to",
          "type": "address"
        },
        {
          "internalType": "uint256",
          "name": "tokenId",
          "type": "uint256"
        }
      ],
      "name": "$_transfer",
      "outputs": [],
      "stateMutability": "nonpayable",
      "type": "function"
    },
    {
      "inputs": [
        {
          "internalType": "address",
          "name": "to",
          "type": "address"
        },
        {
          "internalType": "uint256",
          "name": "tokenId",
          "type": "uint256"
        },
        {
          "internalType": "address",
          "name": "auth",
          "type": "address"
        }
      ],
      "name": "$_update",
      "outputs": [
        {
          "internalType": "address",
          "name": "ret0",
          "type": "address"
        }
      ],
      "stateMutability": "nonpayable",
      "type": "function"
    },
    {
      "inputs": [],
      "name": "__hh_exposed_bytecode_marker",
      "outputs": [
        {
          "internalType": "bytes32",
          "name": "",
          "type": "bytes32"
        }
      ],
      "stateMutability": "view",
      "type": "function"
    },
    {
      "inputs": [
        {
          "internalType": "address",
          "name": "to",
          "type": "address"
        },
        {
          "internalType": "uint256",
          "name": "tokenId",
          "type": "uint256"
        }
      ],
      "name": "approve",
      "outputs": [],
      "stateMutability": "nonpayable",
      "type": "function"
    },
    {
      "inputs": [
        {
          "internalType": "address",
          "name": "owner",
          "type": "address"
        }
      ],
      "name": "balanceOf",
      "outputs": [
        {
          "internalType": "uint256",
          "name": "",
          "type": "uint256"
        }
      ],
      "stateMutability": "view",
      "type": "function"
    },
    {
      "inputs": [
        {
          "internalType": "uint256",
          "name": "tokenId",
          "type": "uint256"
        }
      ],
      "name": "getApproved",
      "outputs": [
        {
          "internalType": "address",
          "name": "",
          "type": "address"
        }
      ],
      "stateMutability": "view",
      "type": "function"
    },
    {
      "inputs": [
        {
          "internalType": "address",
          "name": "owner",
          "type": "address"
        },
        {
          "internalType": "address",
          "name": "operator",
          "type": "address"
        }
      ],
      "name": "isApprovedForAll",
      "outputs": [
        {
          "internalType": "bool",
          "name": "",
          "type": "bool"
        }
      ],
      "stateMutability": "view",
      "type": "function"
    },
    {
      "inputs": [],
      "name": "name",
      "outputs": [
        {
          "internalType": "string",
          "name": "",
          "type": "string"
        }
      ],
      "stateMutability": "view",
      "type": "function"
    },
    {
      "inputs": [
        {
          "internalType": "uint256",
          "name": "tokenId",
          "type": "uint256"
        }
      ],
      "name": "ownerOf",
      "outputs": [
        {
          "internalType": "address",
          "name": "",
          "type": "address"
        }
      ],
      "stateMutability": "view",
      "type": "function"
    },
    {
      "inputs": [
        {
          "internalType": "address",
          "name": "from",
          "type": "address"
        },
        {
          "internalType": "address",
          "name": "to",
          "type": "address"
        },
        {
          "internalType": "uint256",
          "name": "tokenId",
          "type": "uint256"
        }
      ],
      "name": "safeTransferFrom",
      "outputs": [],
      "stateMutability": "nonpayable",
      "type": "function"
    },
    {
      "inputs": [
        {
          "internalType": "address",
          "name": "from",
          "type": "address"
        },
        {
          "internalType": "address",
          "name": "to",
          "type": "address"
        },
        {
          "internalType": "uint256",
          "name": "tokenId",
          "type": "uint256"
        },
        {
          "internalType": "bytes",
          "name": "data",
          "type": "bytes"
        }
      ],
      "name": "safeTransferFrom",
      "outputs": [],
      "stateMutability": "nonpayable",
      "type": "function"
    },
    {
      "inputs": [
        {
          "internalType": "address",
          "name": "operator",
          "type": "address"
        },
        {
          "internalType": "bool",
          "name": "approved",
          "type": "bool"
        }
      ],
      "name": "setApprovalForAll",
      "outputs": [],
      "stateMutability": "nonpayable",
      "type": "function"
    },
    {
      "inputs": [
        {
          "internalType": "bytes4",
          "name": "interfaceId",
          "type": "bytes4"
        }
      ],
      "name": "supportsInterface",
      "outputs": [
        {
          "internalType": "bool",
          "name": "",
          "type": "bool"
        }
      ],
      "stateMutability": "view",
      "type": "function"
    },
    {
      "inputs": [],
      "name": "symbol",
      "outputs": [
        {
          "internalType": "string",
          "name": "",
          "type": "string"
        }
      ],
      "stateMutability": "view",
      "type": "function"
    },
    {
      "inputs": [
        {
          "internalType": "uint256",
          "name": "tokenId",
          "type": "uint256"
        }
      ],
      "name": "tokenURI",
      "outputs": [
        {
          "internalType": "string",
          "name": "",
          "type": "string"
        }
      ],
      "stateMutability": "view",
      "type": "function"
    },
    {
      "inputs": [
        {
          "internalType": "address",
          "name": "from",
          "type": "address"
        },
        {
          "internalType": "address",
          "name": "to",
          "type": "address"
        },
        {
          "internalType": "uint256",
          "name": "tokenId",
          "type": "uint256"
        }
      ],
      "name": "transferFrom",
      "outputs": [],
      "stateMutability": "nonpayable",
      "type": "function"
    },
    {
      "stateMutability": "payable",
      "type": "receive"
    }
  ],
  "bytecode": "0x608060405260405162001e6438038062001e64833981016040819052620000269162000110565b81815f62000035838262000200565b50600162000044828262000200565b5050505050620002cc565b634e487b7160e01b5f52604160045260245ffd5b5f82601f83011262000073575f80fd5b81516001600160401b03808211156200009057620000906200004f565b604051601f8301601f19908116603f01168101908282118183101715620000bb57620000bb6200004f565b8160405283815260209250866020858801011115620000d8575f80fd5b5f91505b83821015620000fb5785820183015181830184015290820190620000dc565b5f602085830101528094505050505092915050565b5f806040838503121562000122575f80fd5b82516001600160401b038082111562000139575f80fd5b620001478683870162000063565b935060208501519150808211156200015d575f80fd5b506200016c8582860162000063565b9150509250929050565b600181811c908216806200018b57607f821691505b602082108103620001aa57634e487b7160e01b5f52602260045260245ffd5b50919050565b601f821115620001fb57805f5260205f20601f840160051c81016020851015620001d75750805b601f840160051c820191505b81811015620001f8575f8155600101620001e3565b50505b505050565b81516001600160401b038111156200021c576200021c6200004f565b62000234816200022d845462000176565b84620001b0565b602080601f8311600181146200026a575f8415620002525750858301515b5f19600386901b1c1916600185901b178555620002c4565b5f85815260208120601f198616915b828110156200029a5788860151825594840194600190910190840162000279565b5085821015620002b857878501515f19600388901b60f8161c191681555b505060018460011b0185555b505050505050565b611b8a80620002da5f395ff3fe60806040526004361061020a575f3560e01c8063733555ec11610113578063c87b56dd1161009d578063d84838341161006d578063d8483834146105e6578063e3cb9a4a14610605578063e985e9c514610624578063efb43b0714610643578063f604b10214610662575f80fd5b8063c87b56dd1461056a578063cc461d6214610589578063cfeea0d4146105a8578063d261af54146105c7575f80fd5b80639ff2f02d116100e35780639ff2f02d146104ee578063a22cb4651461050d578063a2373a821461052c578063b88d4fde1461054b578063c67072011461040e575f80fd5b8063733555ec1461047d5780637a7be0361461049c57806390104b84146104bb57806395d89b41146104da575f80fd5b806332cadf3c11610194578063458ee00211610164578063458ee002146103ef5780636352211e1461040e57806367354a841461042d5780636884d58b1461043f57806370a082311461045e575f80fd5b806332cadf3c1461036a578063342db7391461037e5780633451b14d146103b157806342842e0e146103d0575f80fd5b8063113efe1a116101da578063113efe1a146102c2578063161e977d1461030657806323b872dd1461031a5780632904df291461033957806330f3b0b51461034b575f80fd5b806301ffc9a71461021557806306fdde0314610249578063081812fc1461026a578063095ea7b3146102a1575f80fd5b3661021157005b5f80fd5b348015610220575f80fd5b5061023461022f3660046114d9565b610681565b60405190151581526020015b60405180910390f35b348015610254575f80fd5b5061025d6106ab565b6040516102409190611541565b348015610275575f80fd5b50610289610284366004611553565b61073a565b6040516001600160a01b039091168152602001610240565b3480156102ac575f80fd5b506102c06102bb366004611585565b610761565b005b3480156102cd575f80fd5b506102c06102dc3660046115ad565b6001600160a01b0382165f90815260036020526040902080546001600160801b0383160190555050565b348015610311575f80fd5b5061025d610770565b348015610325575f80fd5b506102c06103343660046115ed565b61078b565b348015610344575f80fd5b5033610289565b348015610356575f80fd5b506102c0610365366004611635565b610819565b348015610375575f80fd5b5061025d610825565b348015610389575f80fd5b506103a36e1a185c991a185d0b595e1c1bdcd959608a1b81565b604051908152602001610240565b3480156103bc575f80fd5b506102896103cb366004611553565b610862565b3480156103db575f80fd5b506102c06103ea3660046115ed565b61087e565b3480156103fa575f80fd5b50610289610409366004611553565b61089d565b348015610419575f80fd5b50610289610428366004611553565b6108b9565b348015610438575f80fd5b505f6103a3565b34801561044a575f80fd5b506102c06104593660046115ed565b6108c3565b348015610469575f80fd5b506103a361047836600461167f565b6108ce565b348015610488575f80fd5b506102c06104973660046116dd565b610913565b3480156104a7575f80fd5b506102346104b63660046115ed565b61095b565b3480156104c6575f80fd5b506102c06104d5366004611747565b61096f565b3480156104e5575f80fd5b5061025d61097a565b3480156104f9575f80fd5b506102c0610508366004611780565b610989565b348015610518575f80fd5b506102c06105273660046117d6565b6109c9565b348015610537575f80fd5b506102c0610546366004611553565b6109d4565b348015610556575f80fd5b506102c061056536600461181b565b6109e0565b348015610575575f80fd5b5061025d610584366004611553565b6109f8565b348015610594575f80fd5b506102c06105a3366004611585565b610afb565b3480156105b3575f80fd5b506102c06105c23660046118f0565b610b05565b3480156105d2575f80fd5b506102c06105e1366004611585565b610b10565b3480156105f1575f80fd5b506102c06106003660046115ed565b610b1a565b348015610610575f80fd5b5061028961061f366004611747565b610b25565b34801561062f575f80fd5b5061023461063e366004611927565b610b77565b34801561064e575f80fd5b506102c061065d3660046115ed565b610ba4565b34801561066d575f80fd5b506102c061067c36600461194f565b610baf565b5f6001600160e01b03198216632483248360e11b14806106a557506106a582610bee565b92915050565b60605f80546106b990611997565b80601f01602080910402602001604051908101604052809291908181526020018280546106e590611997565b80156107305780601f1061070757610100808354040283529160200191610730565b820191905f5260205f20905b81548152906001019060200180831161071357829003601f168201915b5050505050905090565b5f61074482610c3d565b505f828152600460205260409020546001600160a01b03166106a5565b61076c828233610c75565b5050565b606061078660408051602081019091525f815290565b905090565b6001600160a01b0382166107b957604051633250574960e11b81525f60048201526024015b60405180910390fd5b5f6107c5838333610c82565b9050836001600160a01b0316816001600160a01b031614610813576040516364283d7b60e01b81526001600160a01b03808616600483015260248201849052821660448201526064016107b0565b50505050565b61081384848484610d74565b60605f368080601f0160208091040260200160405190810160405280939291908181526020018383808284375f9201919091525092949350505050565b5f818152600460205260408120546001600160a01b03166106a5565b61089883838360405180602001604052805f8152506109e0565b505050565b5f818152600260205260408120546001600160a01b03166106a5565b5f6106a582610c3d565b610898838383610e78565b5f6001600160a01b0382166108f8576040516322718ad960e21b81525f60048201526024016107b0565b506001600160a01b03165f9081526003602052604090205490565b61095485858585858080601f0160208091040260200160405190810160405280939291908181526020018383808284375f92019190915250610edc92505050565b5050505050565b5f610967848484610ee7565b949350505050565b610898838383610c75565b6060600180546106b990611997565b610813848484848080601f0160208091040260200160405190810160405280939291908181526020018383808284375f92019190915250610f4892505050565b61076c338383610f5f565b6109dd81610ffd565b50565b6109eb84848461078b565b6108133385858585611035565b6060610a0382610c3d565b505f8281526006602052604081208054610a1c90611997565b80601f0160208091040260200160405190810160405280929190818152602001828054610a4890611997565b8015610a935780601f10610a6a57610100808354040283529160200191610a93565b820191905f5260205f20905b815481529060010190602001808311610a7657829003601f168201915b505050505090505f610aaf60408051602081019091525f815290565b905080515f03610ac0575092915050565b815115610af2578082604051602001610ada9291906119cf565b60405160208183030381529060405292505050919050565b6109678461115c565b61076c82826111cd565b610898838383610f5f565b61076c828261122e565b610898838383611247565b5f610b31848484610c82565b6040516001600160a01b03821681529091507ffc55619107f02333de2d9626fe994a6b9d0734bee4722e17698d6fa1b06c52009060200160405180910390a19392505050565b6001600160a01b039182165f90815260056020908152604080832093909416825291909152205460ff1690565b610898838383611261565b6108988383838080601f0160208091040260200160405190810160405280939291908181526020018383808284375f9201919091525061130e92505050565b5f6001600160e01b031982166380ac58cd60e01b1480610c1e57506001600160e01b03198216635b5e139f60e01b145b806106a557506301ffc9a760e01b6001600160e01b03198316146106a5565b5f818152600260205260408120546001600160a01b0316806106a557604051637e27328960e01b8152600481018490526024016107b0565b6108988383836001610d74565b5f828152600260205260408120546001600160a01b0390811690831615610cae57610cae818486610e78565b6001600160a01b03811615610ce857610cc95f855f80610d74565b6001600160a01b0381165f90815260036020526040902080545f190190555b6001600160a01b03851615610d16576001600160a01b0385165f908152600360205260409020805460010190555b5f8481526002602052604080822080546001600160a01b0319166001600160a01b0389811691821790925591518793918516917fddf252ad1be2c89b69c2b068fc378daa952ba7f163c4a11628f55a4df523b3ef91a4949350505050565b8080610d8857506001600160a01b03821615155b15610e49575f610d9784610c3d565b90506001600160a01b03831615801590610dc35750826001600160a01b0316816001600160a01b031614155b8015610dd65750610dd48184610b77565b155b15610dff5760405163a9fbf51f60e01b81526001600160a01b03841660048201526024016107b0565b8115610e475783856001600160a01b0316826001600160a01b03167f8c5be1e5ebec7d5bd14f71427d1e84f3dd0314c0f7b2291e5b200ac8c7c3b92560405160405180910390a45b505b50505f90815260046020526040902080546001600160a01b0319166001600160a01b0392909216919091179055565b610e83838383610ee7565b610898576001600160a01b038316610eb157604051637e27328960e01b8152600481018290526024016107b0565b60405163177e802f60e01b81526001600160a01b0383166004820152602481018290526044016107b0565b6109eb848484611261565b5f6001600160a01b038316158015906109675750826001600160a01b0316846001600160a01b03161480610f205750610f208484610b77565b806109675750505f908152600460205260409020546001600160a01b03908116911614919050565b610f5283836111cd565b610898335f858585611035565b6001600160a01b038216610f9157604051630b61174360e31b81526001600160a01b03831660048201526024016107b0565b6001600160a01b038381165f81815260056020908152604080832094871680845294825291829020805460ff191686151590811790915591519182527f17307eab39ab6107e8899845ad3d59bd9653f200f220920489ca2b5937696c31910160405180910390a3505050565b5f6110095f835f610c82565b90506001600160a01b03811661076c57604051637e27328960e01b8152600481018390526024016107b0565b6001600160a01b0383163b1561095457604051630a85bd0160e11b81526001600160a01b0384169063150b7a02906110779088908890879087906004016119fd565b6020604051808303815f875af19250505080156110b1575060408051601f3d908101601f191682019092526110ae91810190611a39565b60015b611118573d8080156110de576040519150601f19603f3d011682016040523d82523d5f602084013e6110e3565b606091505b5080515f0361111057604051633250574960e11b81526001600160a01b03851660048201526024016107b0565b805181602001fd5b6001600160e01b03198116630a85bd0160e11b1461115457604051633250574960e11b81526001600160a01b03851660048201526024016107b0565b505050505050565b606061116782610c3d565b505f61117d60408051602081019091525f815290565b90505f81511161119b5760405180602001604052805f8152506111c6565b806111a58461135d565b6040516020016111b69291906119cf565b6040516020818303038152906040525b9392505050565b6001600160a01b0382166111f657604051633250574960e11b81525f60048201526024016107b0565b5f61120283835f610c82565b90506001600160a01b03811615610898576040516339e3563760e11b81525f60048201526024016107b0565b61076c828260405180602001604052805f815250610f48565b61089883838360405180602001604052805f815250610edc565b6001600160a01b03821661128a57604051633250574960e11b81525f60048201526024016107b0565b5f61129683835f610c82565b90506001600160a01b0381166112c257604051637e27328960e01b8152600481018390526024016107b0565b836001600160a01b0316816001600160a01b031614610813576040516364283d7b60e01b81526001600160a01b03808616600483015260248201849052821660448201526064016107b0565b5f8281526006602052604090206113258282611a98565b506040518281527ff8e1a15aba9398e019f0b49df1a4fde98ee17ae345cb5f6b5e2c27f5033e8ce79060200160405180910390a15050565b60605f611369836113ed565b60010190505f8167ffffffffffffffff81111561138857611388611807565b6040519080825280601f01601f1916602001820160405280156113b2576020820181803683370190505b5090508181016020015b5f19016f181899199a1a9b1b9c1cb0b131b232b360811b600a86061a8153600a85049450846113bc57509392505050565b5f8072184f03e93ff9f4daa797ed6e38ed64bf6a1f0160401b831061142b5772184f03e93ff9f4daa797ed6e38ed64bf6a1f0160401b830492506040015b6d04ee2d6d415b85acef81000000008310611457576d04ee2d6d415b85acef8100000000830492506020015b662386f26fc10000831061147557662386f26fc10000830492506010015b6305f5e100831061148d576305f5e100830492506008015b61271083106114a157612710830492506004015b606483106114b3576064830492506002015b600a83106106a55760010192915050565b6001600160e01b0319811681146109dd575f80fd5b5f602082840312156114e9575f80fd5b81356111c6816114c4565b5f5b8381101561150e5781810151838201526020016114f6565b50505f910152565b5f815180845261152d8160208601602086016114f4565b601f01601f19169290920160200192915050565b602081525f6111c66020830184611516565b5f60208284031215611563575f80fd5b5035919050565b80356001600160a01b0381168114611580575f80fd5b919050565b5f8060408385031215611596575f80fd5b61159f8361156a565b946020939093013593505050565b5f80604083850312156115be575f80fd5b6115c78361156a565b915060208301356001600160801b03811681146115e2575f80fd5b809150509250929050565b5f805f606084860312156115ff575f80fd5b6116088461156a565b92506116166020850161156a565b9150604084013590509250925092565b80358015158114611580575f80fd5b5f805f8060808587031215611648575f80fd5b6116518561156a565b9350602085013592506116666040860161156a565b915061167460608601611626565b905092959194509250565b5f6020828403121561168f575f80fd5b6111c68261156a565b5f8083601f8401126116a8575f80fd5b50813567ffffffffffffffff8111156116bf575f80fd5b6020830191508360208285010111156116d6575f80fd5b9250929050565b5f805f805f608086880312156116f1575f80fd5b6116fa8661156a565b94506117086020870161156a565b935060408601359250606086013567ffffffffffffffff81111561172a575f80fd5b61173688828901611698565b969995985093965092949392505050565b5f805f60608486031215611759575f80fd5b6117628461156a565b9250602084013591506117776040850161156a565b90509250925092565b5f805f8060608587031215611793575f80fd5b61179c8561156a565b935060208501359250604085013567ffffffffffffffff8111156117be575f80fd5b6117ca87828801611698565b95989497509550505050565b5f80604083850312156117e7575f80fd5b6117f08361156a565b91506117fe60208401611626565b90509250929050565b634e487b7160e01b5f52604160045260245ffd5b5f805f806080858703121561182e575f80fd5b6118378561156a565b93506118456020860161156a565b925060408501359150606085013567ffffffffffffffff80821115611868575f80fd5b818701915087601f83011261187b575f80fd5b81358181111561188d5761188d611807565b604051601f8201601f19908116603f011681019083821181831017156118b5576118b5611807565b816040528281528a60208487010111156118cd575f80fd5b826020860160208301375f60208483010152809550505050505092959194509250565b5f805f60608486031215611902575f80fd5b61190b8461156a565b92506119196020850161156a565b915061177760408501611626565b5f8060408385031215611938575f80fd5b6119418361156a565b91506117fe6020840161156a565b5f805f60408486031215611961575f80fd5b83359250602084013567ffffffffffffffff81111561197e575f80fd5b61198a86828701611698565b9497909650939450505050565b600181811c908216806119ab57607f821691505b6020821081036119c957634e487b7160e01b5f52602260045260245ffd5b50919050565b5f83516119e08184602088016114f4565b8351908301906119f48183602088016114f4565b01949350505050565b6001600160a01b03858116825284166020820152604081018390526080606082018190525f90611a2f90830184611516565b9695505050505050565b5f60208284031215611a49575f80fd5b81516111c6816114c4565b601f82111561089857805f5260205f20601f840160051c81016020851015611a795750805b601f840160051c820191505b81811015610954575f8155600101611a85565b815167ffffffffffffffff811115611ab257611ab2611807565b611ac681611ac08454611997565b84611a54565b602080601f831160018114611af9575f8415611ae25750858301515b5f19600386901b1c1916600185901b178555611154565b5f85815260208120601f198616915b82811015611b2757888601518255948401946001909101908401611b08565b5085821015611b4457878501515f19600388901b60f8161c191681555b5050505050600190811b0190555056fea26469706673582212208a9af80e2e92db13c45353da2c043e8c9b8a1e806c612c8e27d7b6293176b6b164736f6c63430008180033",
  "linkReferences": {},
  "deployedLinkReferences": {}
}