{
  "_format": "hh-sol-artifact-1",
  "contractName": "$ShortStrings",
  "sourceName": "contracts-exposed/utils/ShortStrings.sol",
  "abi": [
    {
      "inputs": [],
      "stateMutability": "payable",
      "type": "constructor"
    },
    {
      "inputs": [],
      "name": "InvalidShortString",
      "type": "error"
    },
    {
      "inputs": [
        {
          "internalType": "string",
          "name": "str",
          "type": "string"
        }
      ],
      "name": "StringTooLong",
      "type": "error"
    },
    {
      "anonymous": false,
      "inputs": [
        {
          "indexed": false,
          "internalType": "ShortString",
          "name": "ret0",
          "type": "bytes32"
        }
      ],
      "name": "return$toShortStringWithFallback",
      "type": "event"
    },
    {
      "inputs": [
        {
          "internalType": "ShortString",
          "name": "sstr",
          "type": "bytes32"
        }
      ],
      "name": "$byteLength",
      "outputs": [
        {
          "internalType": "uint256",
          "name": "ret0",
          "type": "uint256"
        }
      ],
      "stateMutability": "pure",
      "type": "function"
    },
    {
      "inputs": [
        {
          "internalType": "ShortString",
          "name": "value",
          "type": "bytes32"
        },
        {
          "internalType": "uint256",
          "name": "store",
          "type": "uint256"
        }
      ],
      "name": "$byteLengthWithFallback",
      "outputs": [
        {
          "internalType": "uint256",
          "name": "ret0",
          "type": "uint256"
        }
      ],
      "stateMutability": "view",
      "type": "function"
    },
    {
      "inputs": [
        {
          "internalType": "string",
          "name": "str",
          "type": "string"
        }
      ],
      "name": "$toShortString",
      "outputs": [
        {
          "internalType": "ShortString",
          "name": "ret0",
          "type": "bytes32"
        }
      ],
      "stateMutability": "pure",
      "type": "function"
    },
    {
      "inputs": [
        {
          "internalType": "string",
          "name": "value",
          "type": "string"
        },
        {
          "internalType": "uint256",
          "name": "store",
          "type": "uint256"
        }
      ],
      "name": "$toShortStringWithFallback",
      "outputs": [
        {
          "internalType": "ShortString",
          "name": "ret0",
          "type": "bytes32"
        }
      ],
      "stateMutability": "payable",
      "type": "function"
    },
    {
      "inputs": [
        {
          "internalType": "ShortString",
          "name": "sstr",
          "type": "bytes32"
        }
      ],
      "name": "$toString",
      "outputs": [
        {
          "internalType": "string",
          "name": "ret0",
          "type": "string"
        }
      ],
      "stateMutability": "pure",
      "type": "function"
    },
    {
      "inputs": [
        {
          "internalType": "ShortString",
          "name": "value",
          "type": "bytes32"
        },
        {
          "internalType": "uint256",
          "name": "store",
          "type": "uint256"
        }
      ],
      "name": "$toStringWithFallback",
      "outputs": [
        {
          "internalType": "string",
          "name": "ret0",
          "type": "string"
        }
      ],
      "stateMutability": "view",
      "type": "function"
    },
    {
      "inputs": [],
      "name": "__hh_exposed_bytecode_marker",
      "outputs": [
        {
          "internalType": "bytes32",
          "name": "",
          "type": "bytes32"
        }
      ],
      "stateMutability": "view",
      "type": "function"
    },
    {
      "stateMutability": "payable",
      "type": "receive"
    }
  ],
  "bytecode": "0x6080604052610734806100115f395ff3fe608060405260043610610071575f3560e01c8063cbe89dae1161004c578063cbe89dae146100ff578063d05a4f1414610112578063d79867b814610131578063f6382f2914610150575f80fd5b8063342db7391461007c578063681f31cf146100b4578063b661ffb5146100e0575f80fd5b3661007857005b5f80fd5b348015610087575f80fd5b506100a16e1a185c991a185d0b595e1c1bdcd959608a1b81565b6040519081526020015b60405180910390f35b3480156100bf575f80fd5b506100d36100ce366004610434565b61016f565b6040516100ab9190610454565b3480156100eb575f80fd5b506100d36100fa3660046104a0565b610191565b6100a161010d3660046104fc565b6101a2565b34801561011d575f80fd5b506100a161012c3660046104a0565b61022f565b34801561013c575f80fd5b506100a161014b366004610544565b610239565b34801561015b575f80fd5b506100a161016a366004610434565b610278565b606061018a835f808581526020019081526020015f20610290565b9392505050565b606061019c8261033a565b92915050565b5f6101ed84848080601f0160208091040260200160405190810160405280939291908181526020018383808284375f9201829052508781526020819052604090209250610377915050565b90507f55e7eb32a4cae95769595cee66fee5b45d9465fc475493c2001ae8e78cf114878160405161022091815260200190565b60405180910390a19392505050565b5f61019c826103a0565b5f61018a83838080601f0160208091040260200160405190810160405280939291908181526020018383808284375f920191909152506103c792505050565b5f81815260208190526040812061018a90849061040d565b606060ff83146102aa576102a38361033a565b905061019c565b8180546102b690610583565b80601f01602080910402602001604051908101604052809291908181526020018280546102e290610583565b801561032d5780601f106103045761010080835404028352916020019161032d565b820191905f5260205f20905b81548152906001019060200180831161031057829003601f168201915b5050505050905092915050565b60605f610346836103a0565b6040805160208082528183019092529192505f91906020820181803683375050509182525060208101929092525090565b5f60208351101561038b576102a3836103c7565b81610396848261061b565b5060ff905061019c565b5f60ff8216601f81111561019c57604051632cd44ac360e21b815260040160405180910390fd5b5f80829050601f815111156103fa578260405163305a27a960e01b81526004016103f19190610454565b60405180910390fd5b8051610405826106db565b179392505050565b5f60ff831461041f576102a3836103a0565b81805461042b90610583565b9050905061019c565b5f8060408385031215610445575f80fd5b50508035926020909101359150565b5f602080835283518060208501525f5b8181101561048057858101830151858201604001528201610464565b505f604082860101526040601f19601f8301168501019250505092915050565b5f602082840312156104b0575f80fd5b5035919050565b5f8083601f8401126104c7575f80fd5b50813567ffffffffffffffff8111156104de575f80fd5b6020830191508360208285010111156104f5575f80fd5b9250929050565b5f805f6040848603121561050e575f80fd5b833567ffffffffffffffff811115610524575f80fd5b610530868287016104b7565b909790965060209590950135949350505050565b5f8060208385031215610555575f80fd5b823567ffffffffffffffff81111561056b575f80fd5b610577858286016104b7565b90969095509350505050565b600181811c9082168061059757607f821691505b6020821081036105b557634e487b7160e01b5f52602260045260245ffd5b50919050565b634e487b7160e01b5f52604160045260245ffd5b601f82111561061657805f5260205f20601f840160051c810160208510156105f45750805b601f840160051c820191505b81811015610613575f8155600101610600565b50505b505050565b815167ffffffffffffffff811115610635576106356105bb565b610649816106438454610583565b846105cf565b602080601f83116001811461067c575f84156106655750858301515b5f19600386901b1c1916600185901b1785556106d3565b5f85815260208120601f198616915b828110156106aa5788860151825594840194600190910190840161068b565b50858210156106c757878501515f19600388901b60f8161c191681555b505060018460011b0185555b505050505050565b805160208083015191908110156105b5575f1960209190910360031b1b1691905056fea26469706673582212207358e5f046154c9f4db1f3f47aa2ffe48bcd142077ee476be9c3b455fbd80e5264736f6c63430008180033",
  "linkReferences": {},
  "deployedLinkReferences": {}
}