{
  "_format": "hh-sol-artifact-1",
  "contractName": "ERC20WithAutoMinerReward",
  "sourceName": "contracts/mocks/docs/ERC20WithAutoMinerReward.sol",
  "abi": [
    {
      "inputs": [],
      "stateMutability": "nonpayable",
      "type": "constructor"
    },
    {
      "inputs": [
        {
          "internalType": "address",
          "name": "spender",
          "type": "address"
        },
        {
          "internalType": "uint256",
          "name": "allowance",
          "type": "uint256"
        },
        {
          "internalType": "uint256",
          "name": "needed",
          "type": "uint256"
        }
      ],
      "name": "ERC20InsufficientAllowance",
      "type": "error"
    },
    {
      "inputs": [
        {
          "internalType": "address",
          "name": "sender",
          "type": "address"
        },
        {
          "internalType": "uint256",
          "name": "balance",
          "type": "uint256"
        },
        {
          "internalType": "uint256",
          "name": "needed",
          "type": "uint256"
        }
      ],
      "name": "ERC20InsufficientBalance",
      "type": "error"
    },
    {
      "inputs": [
        {
          "internalType": "address",
          "name": "approver",
          "type": "address"
        }
      ],
      "name": "ERC20InvalidApprover",
      "type": "error"
    },
    {
      "inputs": [
        {
          "internalType": "address",
          "name": "receiver",
          "type": "address"
        }
      ],
      "name": "ERC20InvalidReceiver",
      "type": "error"
    },
    {
      "inputs": [
        {
          "internalType": "address",
          "name": "sender",
          "type": "address"
        }
      ],
      "name": "ERC20InvalidSender",
      "type": "error"
    },
    {
      "inputs": [
        {
          "internalType": "address",
          "name": "spender",
          "type": "address"
        }
      ],
      "name": "ERC20InvalidSpender",
      "type": "error"
    },
    {
      "anonymous": false,
      "inputs": [
        {
          "indexed": true,
          "internalType": "address",
          "name": "owner",
          "type": "address"
        },
        {
          "indexed": true,
          "internalType": "address",
          "name": "spender",
          "type": "address"
        },
        {
          "indexed": false,
          "internalType": "uint256",
          "name": "value",
          "type": "uint256"
        }
      ],
      "name": "Approval",
      "type": "event"
    },
    {
      "anonymous": false,
      "inputs": [
        {
          "indexed": true,
          "internalType": "address",
          "name": "from",
          "type": "address"
        },
        {
          "indexed": true,
          "internalType": "address",
          "name": "to",
          "type": "address"
        },
        {
          "indexed": false,
          "internalType": "uint256",
          "name": "value",
          "type": "uint256"
        }
      ],
      "name": "Transfer",
      "type": "event"
    },
    {
      "inputs": [
        {
          "internalType": "address",
          "name": "owner",
          "type": "address"
        },
        {
          "internalType": "address",
          "name": "spender",
          "type": "address"
        }
      ],
      "name": "allowance",
      "outputs": [
        {
          "internalType": "uint256",
          "name": "",
          "type": "uint256"
        }
      ],
      "stateMutability": "view",
      "type": "function"
    },
    {
      "inputs": [
        {
          "internalType": "address",
          "name": "spender",
          "type": "address"
        },
        {
          "internalType": "uint256",
          "name": "value",
          "type": "uint256"
        }
      ],
      "name": "approve",
      "outputs": [
        {
          "internalType": "bool",
          "name": "",
          "type": "bool"
        }
      ],
      "stateMutability": "nonpayable",
      "type": "function"
    },
    {
      "inputs": [
        {
          "internalType": "address",
          "name": "account",
          "type": "address"
        }
      ],
      "name": "balanceOf",
      "outputs": [
        {
          "internalType": "uint256",
          "name": "",
          "type": "uint256"
        }
      ],
      "stateMutability": "view",
      "type": "function"
    },
    {
      "inputs": [],
      "name": "decimals",
      "outputs": [
        {
          "internalType": "uint8",
          "name": "",
          "type": "uint8"
        }
      ],
      "stateMutability": "view",
      "type": "function"
    },
    {
      "inputs": [],
      "name": "name",
      "outputs": [
        {
          "internalType": "string",
          "name": "",
          "type": "string"
        }
      ],
      "stateMutability": "view",
      "type": "function"
    },
    {
      "inputs": [],
      "name": "symbol",
      "outputs": [
        {
          "internalType": "string",
          "name": "",
          "type": "string"
        }
      ],
      "stateMutability": "view",
      "type": "function"
    },
    {
      "inputs": [],
      "name": "totalSupply",
      "outputs": [
        {
          "internalType": "uint256",
          "name": "",
          "type": "uint256"
        }
      ],
      "stateMutability": "view",
      "type": "function"
    },
    {
      "inputs": [
        {
          "internalType": "address",
          "name": "to",
          "type": "address"
        },
        {
          "internalType": "uint256",
          "name": "value",
          "type": "uint256"
        }
      ],
      "name": "transfer",
      "outputs": [
        {
          "internalType": "bool",
          "name": "",
          "type": "bool"
        }
      ],
      "stateMutability": "nonpayable",
      "type": "function"
    },
    {
      "inputs": [
        {
          "internalType": "address",
          "name": "from",
          "type": "address"
        },
        {
          "internalType": "address",
          "name": "to",
          "type": "address"
        },
        {
          "internalType": "uint256",
          "name": "value",
          "type": "uint256"
        }
      ],
      "name": "transferFrom",
      "outputs": [
        {
          "internalType": "bool",
          "name": "",
          "type": "bool"
        }
      ],
      "stateMutability": "nonpayable",
      "type": "function"
    }
  ],
  "bytecode": "0x608060405234801562000010575f80fd5b506040518060400160405280600681526020016514995dd85c9960d21b815250604051806040016040528060038152602001621495d160ea1b81525081600390816200005d9190620002dd565b5060046200006c8282620002dd565b506200007a91505062000080565b620003cf565b6200008e416103e862000090565b565b6001600160a01b038216620000bf5760405163ec442f0560e01b81525f60048201526024015b60405180910390fd5b620000cc5f8383620000d0565b5050565b6001600160a01b038316158015620000f057506001600160a01b03821641145b620000ff57620000ff62000080565b6200010c83838362000111565b505050565b6001600160a01b0383166200013f578060025f828254620001339190620003a9565b90915550620001b19050565b6001600160a01b0383165f9081526020819052604090205481811015620001935760405163391434e360e21b81526001600160a01b03851660048201526024810182905260448101839052606401620000b6565b6001600160a01b0384165f9081526020819052604090209082900390555b6001600160a01b038216620001cf57600280548290039055620001ed565b6001600160a01b0382165f9081526020819052604090208054820190555b816001600160a01b0316836001600160a01b03167fddf252ad1be2c89b69c2b068fc378daa952ba7f163c4a11628f55a4df523b3ef836040516200023391815260200190565b60405180910390a3505050565b634e487b7160e01b5f52604160045260245ffd5b600181811c908216806200026957607f821691505b6020821081036200028857634e487b7160e01b5f52602260045260245ffd5b50919050565b601f8211156200010c57805f5260205f20601f840160051c81016020851015620002b55750805b601f840160051c820191505b81811015620002d6575f8155600101620002c1565b5050505050565b81516001600160401b03811115620002f957620002f962000240565b62000311816200030a845462000254565b846200028e565b602080601f83116001811462000347575f84156200032f5750858301515b5f19600386901b1c1916600185901b178555620003a1565b5f85815260208120601f198616915b82811015620003775788860151825594840194600190910190840162000356565b50858210156200039557878501515f19600388901b60f8161c191681555b505060018460011b0185555b505050505050565b80820180821115620003c957634e487b7160e01b5f52601160045260245ffd5b92915050565b61077680620003dd5f395ff3fe608060405234801561000f575f80fd5b5060043610610090575f3560e01c8063313ce56711610063578063313ce567146100fa57806370a082311461010957806395d89b4114610131578063a9059cbb14610139578063dd62ed3e1461014c575f80fd5b806306fdde0314610094578063095ea7b3146100b257806318160ddd146100d557806323b872dd146100e7575b5f80fd5b61009c610184565b6040516100a991906105d0565b60405180910390f35b6100c56100c0366004610637565b610214565b60405190151581526020016100a9565b6002545b6040519081526020016100a9565b6100c56100f536600461065f565b61022d565b604051601281526020016100a9565b6100d9610117366004610698565b6001600160a01b03165f9081526020819052604090205490565b61009c610250565b6100c5610147366004610637565b61025f565b6100d961015a3660046106b8565b6001600160a01b039182165f90815260016020908152604080832093909416825291909152205490565b606060038054610193906106e9565b80601f01602080910402602001604051908101604052809291908181526020018280546101bf906106e9565b801561020a5780601f106101e15761010080835404028352916020019161020a565b820191905f5260205f20905b8154815290600101906020018083116101ed57829003601f168201915b5050505050905090565b5f3361022181858561026c565b60019150505b92915050565b5f3361023a85828561027e565b6102458585856102ff565b506001949350505050565b606060048054610193906106e9565b5f336102218185856102ff565b610279838383600161035c565b505050565b6001600160a01b038381165f908152600160209081526040808320938616835292905220545f198110156102f957818110156102eb57604051637dc7a0d960e11b81526001600160a01b038416600482015260248101829052604481018390526064015b60405180910390fd5b6102f984848484035f61035c565b50505050565b6001600160a01b03831661032857604051634b637e8f60e11b81525f60048201526024016102e2565b6001600160a01b0382166103515760405163ec442f0560e01b81525f60048201526024016102e2565b61027983838361042e565b6001600160a01b0384166103855760405163e602df0560e01b81525f60048201526024016102e2565b6001600160a01b0383166103ae57604051634a1406b160e11b81525f60048201526024016102e2565b6001600160a01b038085165f90815260016020908152604080832093871683529290522082905580156102f957826001600160a01b0316846001600160a01b03167f8c5be1e5ebec7d5bd14f71427d1e84f3dd0314c0f7b2291e5b200ac8c7c3b9258460405161042091815260200190565b60405180910390a350505050565b6001600160a01b03831615801561044d57506001600160a01b03821641145b61045957610459610464565b610279838383610472565b610470416103e8610598565b565b6001600160a01b03831661049c578060025f8282546104919190610721565b9091555061050c9050565b6001600160a01b0383165f90815260208190526040902054818110156104ee5760405163391434e360e21b81526001600160a01b038516600482015260248101829052604481018390526064016102e2565b6001600160a01b0384165f9081526020819052604090209082900390555b6001600160a01b03821661052857600280548290039055610546565b6001600160a01b0382165f9081526020819052604090208054820190555b816001600160a01b0316836001600160a01b03167fddf252ad1be2c89b69c2b068fc378daa952ba7f163c4a11628f55a4df523b3ef8360405161058b91815260200190565b60405180910390a3505050565b6001600160a01b0382166105c15760405163ec442f0560e01b81525f60048201526024016102e2565b6105cc5f838361042e565b5050565b5f602080835283518060208501525f5b818110156105fc578581018301518582016040015282016105e0565b505f604082860101526040601f19601f8301168501019250505092915050565b80356001600160a01b0381168114610632575f80fd5b919050565b5f8060408385031215610648575f80fd5b6106518361061c565b946020939093013593505050565b5f805f60608486031215610671575f80fd5b61067a8461061c565b92506106886020850161061c565b9150604084013590509250925092565b5f602082840312156106a8575f80fd5b6106b18261061c565b9392505050565b5f80604083850312156106c9575f80fd5b6106d28361061c565b91506106e06020840161061c565b90509250929050565b600181811c908216806106fd57607f821691505b60208210810361071b57634e487b7160e01b5f52602260045260245ffd5b50919050565b8082018082111561022757634e487b7160e01b5f52601160045260245ffdfea2646970667358221220fc0b17db920cec33662e7f08a3e7da29d3b2ad8758d23d014c82d3eac5066b1f64736f6c63430008180033",
  "linkReferences": {},
  "deployedLinkReferences": {}
}