{
  "_format": "hh-sol-artifact-1",
  "contractName": "$Strings",
  "sourceName": "contracts-exposed/utils/Strings.sol",
  "abi": [
    {
      "inputs": [],
      "stateMutability": "payable",
      "type": "constructor"
    },
    {
      "inputs": [
        {
          "internalType": "uint256",
          "name": "value",
          "type": "uint256"
        },
        {
          "internalType": "uint256",
          "name": "length",
          "type": "uint256"
        }
      ],
      "name": "StringsInsufficientHexLength",
      "type": "error"
    },
    {
      "inputs": [],
      "name": "StringsInvalidAddressFormat",
      "type": "error"
    },
    {
      "inputs": [],
      "name": "StringsInvalidChar",
      "type": "error"
    },
    {
      "inputs": [
        {
          "internalType": "string",
          "name": "a",
          "type": "string"
        },
        {
          "internalType": "string",
          "name": "b",
          "type": "string"
        }
      ],
      "name": "$equal",
      "outputs": [
        {
          "internalType": "bool",
          "name": "ret0",
          "type": "bool"
        }
      ],
      "stateMutability": "pure",
      "type": "function"
    },
    {
      "inputs": [
        {
          "internalType": "string",
          "name": "input",
          "type": "string"
        }
      ],
      "name": "$parseAddress",
      "outputs": [
        {
          "internalType": "address",
          "name": "ret0",
          "type": "address"
        }
      ],
      "stateMutability": "pure",
      "type": "function"
    },
    {
      "inputs": [
        {
          "internalType": "string",
          "name": "input",
          "type": "string"
        },
        {
          "internalType": "uint256",
          "name": "begin",
          "type": "uint256"
        },
        {
          "internalType": "uint256",
          "name": "end",
          "type": "uint256"
        }
      ],
      "name": "$parseAddress",
      "outputs": [
        {
          "internalType": "address",
          "name": "ret0",
          "type": "address"
        }
      ],
      "stateMutability": "pure",
      "type": "function"
    },
    {
      "inputs": [
        {
          "internalType": "string",
          "name": "input",
          "type": "string"
        }
      ],
      "name": "$parseHexUint",
      "outputs": [
        {
          "internalType": "uint256",
          "name": "ret0",
          "type": "uint256"
        }
      ],
      "stateMutability": "pure",
      "type": "function"
    },
    {
      "inputs": [
        {
          "internalType": "string",
          "name": "input",
          "type": "string"
        },
        {
          "internalType": "uint256",
          "name": "begin",
          "type": "uint256"
        },
        {
          "internalType": "uint256",
          "name": "end",
          "type": "uint256"
        }
      ],
      "name": "$parseHexUint",
      "outputs": [
        {
          "internalType": "uint256",
          "name": "ret0",
          "type": "uint256"
        }
      ],
      "stateMutability": "pure",
      "type": "function"
    },
    {
      "inputs": [
        {
          "internalType": "string",
          "name": "input",
          "type": "string"
        }
      ],
      "name": "$parseInt",
      "outputs": [
        {
          "internalType": "int256",
          "name": "ret0",
          "type": "int256"
        }
      ],
      "stateMutability": "pure",
      "type": "function"
    },
    {
      "inputs": [
        {
          "internalType": "string",
          "name": "input",
          "type": "string"
        },
        {
          "internalType": "uint256",
          "name": "begin",
          "type": "uint256"
        },
        {
          "internalType": "uint256",
          "name": "end",
          "type": "uint256"
        }
      ],
      "name": "$parseInt",
      "outputs": [
        {
          "internalType": "int256",
          "name": "ret0",
          "type": "int256"
        }
      ],
      "stateMutability": "pure",
      "type": "function"
    },
    {
      "inputs": [
        {
          "internalType": "string",
          "name": "input",
          "type": "string"
        }
      ],
      "name": "$parseUint",
      "outputs": [
        {
          "internalType": "uint256",
          "name": "ret0",
          "type": "uint256"
        }
      ],
      "stateMutability": "pure",
      "type": "function"
    },
    {
      "inputs": [
        {
          "internalType": "string",
          "name": "input",
          "type": "string"
        },
        {
          "internalType": "uint256",
          "name": "begin",
          "type": "uint256"
        },
        {
          "internalType": "uint256",
          "name": "end",
          "type": "uint256"
        }
      ],
      "name": "$parseUint",
      "outputs": [
        {
          "internalType": "uint256",
          "name": "ret0",
          "type": "uint256"
        }
      ],
      "stateMutability": "pure",
      "type": "function"
    },
    {
      "inputs": [
        {
          "internalType": "address",
          "name": "addr",
          "type": "address"
        }
      ],
      "name": "$toChecksumHexString",
      "outputs": [
        {
          "internalType": "string",
          "name": "ret0",
          "type": "string"
        }
      ],
      "stateMutability": "pure",
      "type": "function"
    },
    {
      "inputs": [
        {
          "internalType": "uint256",
          "name": "value",
          "type": "uint256"
        }
      ],
      "name": "$toHexString",
      "outputs": [
        {
          "internalType": "string",
          "name": "ret0",
          "type": "string"
        }
      ],
      "stateMutability": "pure",
      "type": "function"
    },
    {
      "inputs": [
        {
          "internalType": "address",
          "name": "addr",
          "type": "address"
        }
      ],
      "name": "$toHexString",
      "outputs": [
        {
          "internalType": "string",
          "name": "ret0",
          "type": "string"
        }
      ],
      "stateMutability": "pure",
      "type": "function"
    },
    {
      "inputs": [
        {
          "internalType": "uint256",
          "name": "value",
          "type": "uint256"
        },
        {
          "internalType": "uint256",
          "name": "length",
          "type": "uint256"
        }
      ],
      "name": "$toHexString",
      "outputs": [
        {
          "internalType": "string",
          "name": "ret0",
          "type": "string"
        }
      ],
      "stateMutability": "pure",
      "type": "function"
    },
    {
      "inputs": [
        {
          "internalType": "uint256",
          "name": "value",
          "type": "uint256"
        }
      ],
      "name": "$toString",
      "outputs": [
        {
          "internalType": "string",
          "name": "ret0",
          "type": "string"
        }
      ],
      "stateMutability": "pure",
      "type": "function"
    },
    {
      "inputs": [
        {
          "internalType": "int256",
          "name": "value",
          "type": "int256"
        }
      ],
      "name": "$toStringSigned",
      "outputs": [
        {
          "internalType": "string",
          "name": "ret0",
          "type": "string"
        }
      ],
      "stateMutability": "pure",
      "type": "function"
    },
    {
      "inputs": [
        {
          "internalType": "string",
          "name": "input",
          "type": "string"
        },
        {
          "internalType": "uint256",
          "name": "begin",
          "type": "uint256"
        },
        {
          "internalType": "uint256",
          "name": "end",
          "type": "uint256"
        }
      ],
      "name": "$tryParseAddress",
      "outputs": [
        {
          "internalType": "bool",
          "name": "success",
          "type": "bool"
        },
        {
          "internalType": "address",
          "name": "value",
          "type": "address"
        }
      ],
      "stateMutability": "pure",
      "type": "function"
    },
    {
      "inputs": [
        {
          "internalType": "string",
          "name": "input",
          "type": "string"
        }
      ],
      "name": "$tryParseAddress",
      "outputs": [
        {
          "internalType": "bool",
          "name": "success",
          "type": "bool"
        },
        {
          "internalType": "address",
          "name": "value",
          "type": "address"
        }
      ],
      "stateMutability": "pure",
      "type": "function"
    },
    {
      "inputs": [
        {
          "internalType": "string",
          "name": "input",
          "type": "string"
        },
        {
          "internalType": "uint256",
          "name": "begin",
          "type": "uint256"
        },
        {
          "internalType": "uint256",
          "name": "end",
          "type": "uint256"
        }
      ],
      "name": "$tryParseHexUint",
      "outputs": [
        {
          "internalType": "bool",
          "name": "success",
          "type": "bool"
        },
        {
          "internalType": "uint256",
          "name": "value",
          "type": "uint256"
        }
      ],
      "stateMutability": "pure",
      "type": "function"
    },
    {
      "inputs": [
        {
          "internalType": "string",
          "name": "input",
          "type": "string"
        }
      ],
      "name": "$tryParseHexUint",
      "outputs": [
        {
          "internalType": "bool",
          "name": "success",
          "type": "bool"
        },
        {
          "internalType": "uint256",
          "name": "value",
          "type": "uint256"
        }
      ],
      "stateMutability": "pure",
      "type": "function"
    },
    {
      "inputs": [
        {
          "internalType": "string",
          "name": "input",
          "type": "string"
        },
        {
          "internalType": "uint256",
          "name": "begin",
          "type": "uint256"
        },
        {
          "internalType": "uint256",
          "name": "end",
          "type": "uint256"
        }
      ],
      "name": "$tryParseInt",
      "outputs": [
        {
          "internalType": "bool",
          "name": "success",
          "type": "bool"
        },
        {
          "internalType": "int256",
          "name": "value",
          "type": "int256"
        }
      ],
      "stateMutability": "pure",
      "type": "function"
    },
    {
      "inputs": [
        {
          "internalType": "string",
          "name": "input",
          "type": "string"
        }
      ],
      "name": "$tryParseInt",
      "outputs": [
        {
          "internalType": "bool",
          "name": "success",
          "type": "bool"
        },
        {
          "internalType": "int256",
          "name": "value",
          "type": "int256"
        }
      ],
      "stateMutability": "pure",
      "type": "function"
    },
    {
      "inputs": [
        {
          "internalType": "string",
          "name": "input",
          "type": "string"
        },
        {
          "internalType": "uint256",
          "name": "begin",
          "type": "uint256"
        },
        {
          "internalType": "uint256",
          "name": "end",
          "type": "uint256"
        }
      ],
      "name": "$tryParseUint",
      "outputs": [
        {
          "internalType": "bool",
          "name": "success",
          "type": "bool"
        },
        {
          "internalType": "uint256",
          "name": "value",
          "type": "uint256"
        }
      ],
      "stateMutability": "pure",
      "type": "function"
    },
    {
      "inputs": [
        {
          "internalType": "string",
          "name": "input",
          "type": "string"
        }
      ],
      "name": "$tryParseUint",
      "outputs": [
        {
          "internalType": "bool",
          "name": "success",
          "type": "bool"
        },
        {
          "internalType": "uint256",
          "name": "value",
          "type": "uint256"
        }
      ],
      "stateMutability": "pure",
      "type": "function"
    },
    {
      "inputs": [],
      "name": "__hh_exposed_bytecode_marker",
      "outputs": [
        {
          "internalType": "bytes32",
          "name": "",
          "type": "bytes32"
        }
      ],
      "stateMutability": "view",
      "type": "function"
    },
    {
      "stateMutability": "payable",
      "type": "receive"
    }
  ],
  "bytecode": "0x6080604052611609806100115f395ff3fe60806040526004361061014a575f3560e01c80635e325dcc116100b3578063adcd07231161006d578063adcd07231461040b578063bc17ee7e1461042a578063bd9933e914610449578063cec8178514610468578063d40a1d0214610487578063e57a4f00146104a6575f80fd5b80635e325dcc146103395780635e4315d31461035857806377391ff314610377578063874a0288146103965780639c4899af146103cd578063a8bec902146103ec575f80fd5b80633e71df70116101045780633e71df701461027f5780634393ac841461029e5780634743c25b146102bd57806349f00582146102dc57806357016c55146102fb5780635d4797df1461031a575f80fd5b80630caf212a146101555780631c7e227f1461018a57806324ae4449146101c857806328e56882146101fe57806330bb33e11461022d578063342db7391461024c575f80fd5b3661015157005b5f80fd5b348015610160575f80fd5b5061017461016f366004611314565b6104c5565b604051610181919061135c565b60405180910390f35b348015610195575f80fd5b506101a96101a43660046113d3565b6104d6565b6040805192151583526001600160a01b03909116602083015201610181565b3480156101d3575f80fd5b506101e76101e23660046113d3565b610527565b604080519215158352602083019190915201610181565b348015610209575f80fd5b5061021d610218366004611420565b61056b565b6040519015158152602001610181565b348015610238575f80fd5b506101e76102473660046113d3565b6105e6565b348015610257575f80fd5b506102716e1a185c991a185d0b595e1c1bdcd959608a1b81565b604051908152602001610181565b34801561028a575f80fd5b50610271610299366004611487565b61062a565b3480156102a9575f80fd5b506101746102b83660046114c6565b610670565b3480156102c8575f80fd5b506101e76102d7366004611487565b61067b565b3480156102e7575f80fd5b506102716102f6366004611487565b6106c6565b348015610306575f80fd5b506101746103153660046114c6565b610705565b348015610325575f80fd5b506101746103343660046114c6565b610710565b348015610344575f80fd5b506102716103533660046113d3565b61071b565b348015610363575f80fd5b506101a9610372366004611487565b61075e565b348015610382575f80fd5b506101e7610391366004611487565b61079e565b3480156103a1575f80fd5b506103b56103b0366004611487565b6107de565b6040516001600160a01b039091168152602001610181565b3480156103d8575f80fd5b506102716103e7366004611487565b61081d565b3480156103f7575f80fd5b506103b56104063660046113d3565b61085c565b348015610416575f80fd5b50610174610425366004611314565b61089f565b348015610435575f80fd5b506101746104443660046114dd565b6108aa565b348015610454575f80fd5b506102716104633660046113d3565b6108b6565b348015610473575f80fd5b506102716104823660046113d3565b6108f9565b348015610492575f80fd5b506101e76104a13660046113d3565b61093c565b3480156104b1575f80fd5b506101e76104c0366004611487565b610980565b60606104d0826109c0565b92915050565b5f8061051a86868080601f0160208091040260200160405190810160405280939291908181526020018383808284375f92019190915250889250879150610a6e9050565b9097909650945050505050565b5f8061051a86868080601f0160208091040260200160405190810160405280939291908181526020018383808284375f92019190915250889250879150610b1b9050565b5f6105dd85858080601f0160208091040260200160405190810160405280939291908181526020018383808284375f9201919091525050604080516020601f890181900481028201810190925287815292508791508690819084018382808284375f92019190915250610b5192505050565b95945050505050565b5f8061051a86868080601f0160208091040260200160405190810160405280939291908181526020018383808284375f92019190915250889250879150610b759050565b5f61066983838080601f0160208091040260200160405190810160405280939291908181526020018383808284375f92019190915250610b9f92505050565b9392505050565b60606104d082610bac565b5f806106bb84848080601f0160208091040260200160405190810160405280939291908181526020018383808284375f92019190915250610c1692505050565b909590945092505050565b5f61066983838080601f0160208091040260200160405190810160405280939291908181526020018383808284375f92019190915250610c2d92505050565b60606104d082610c3a565b60606104d082610caa565b5f6105dd85858080601f0160208091040260200160405190810160405280939291908181526020018383808284375f92019190915250879250869150610d3a9050565b5f806106bb84848080601f0160208091040260200160405190810160405280939291908181526020018383808284375f92019190915250610d6a92505050565b5f806106bb84848080601f0160208091040260200160405190810160405280939291908181526020018383808284375f92019190915250610d7892505050565b5f61066983838080601f0160208091040260200160405190810160405280939291908181526020018383808284375f92019190915250610d8692505050565b5f61066983838080601f0160208091040260200160405190810160405280939291908181526020018383808284375f92019190915250610d9392505050565b5f6105dd85858080601f0160208091040260200160405190810160405280939291908181526020018383808284375f92019190915250879250869150610da09050565b60606104d082610dd0565b60606106698383610de2565b5f6105dd85858080601f0160208091040260200160405190810160405280939291908181526020018383808284375f92019190915250879250869150610f609050565b5f6105dd85858080601f0160208091040260200160405190810160405280939291908181526020018383808284375f92019190915250879250869150610f6e9050565b5f8061051a86868080601f0160208091040260200160405190810160405280939291908181526020018383808284375f92019190915250889250879150610f7c9050565b5f806106bb84848080601f0160208091040260200160405190810160405280939291908181526020018383808284375f92019190915250610fa692505050565b60605f6109cc83610dd0565b6028602282012090915060601c60295b6001811115610a6557600782600f16118015610a1157506060838281518110610a0757610a076114fd565b016020015160f81c115b15610a4e57602060f81b838281518110610a2d57610a2d6114fd565b0160200180516001600160f81b0319908116909218909116905f82901a9053505b60049190911c90610a5e81611525565b90506109dc565b50909392505050565b5f808451831180610a7e57508284115b15610a8d57505f905080610b13565b5f610a9985600161153a565b84118015610ac1575061060f60f31b610ab58787016020015190565b6001600160f01b031916145b90505f610ad1821515600261154d565b610adc90602861153a565b905080610ae98787611564565b03610b0a575f80610afb898989610fb0565b9096509450610b139350505050565b5f809350935050505b935093915050565b5f808451831180610b2b57508284115b15610b3a57505f905080610b13565b610b45858585611071565b91509150935093915050565b5f815183511480156106695750508051602091820120825192909101919091201490565b5f808451831180610b8557508284115b15610b9457505f905080610b13565b610b45858585611155565b5f6104d0825f8451610f60565b60606104d082610c0e845f60076fffffffffffffffffffffffffffffffff8311901b9050600667ffffffffffffffff83831c11901b17600563ffffffff83831c11901b17600461ffff83831c11901b1760ff82821c1160039190911c17919050565b600101610de2565b5f80610c24835f8551611155565b91509150915091565b5f6104d0825f8451610d3a565b60605f8212610c575760405180602001604052805f815250610c72565b604051806040016040528060018152602001602d60f81b8152505b610c8360ff84901d80850118610caa565b604051602001610c94929190611577565b6040516020818303038152906040529050919050565b60605f610cb6836111c5565b60010190505f8167ffffffffffffffff811115610cd557610cd56115a5565b6040519080825280601f01601f191660200182016040528015610cff576020820181803683370190505b5090508181016020015b5f19016f181899199a1a9b1b9c1cb0b131b232b360811b600a86061a8153600a8504945084610d0957509392505050565b5f805f610d48868686610b1b565b91509150816105dd57604051634a7139bf60e11b815260040160405180910390fd5b5f80610c24835f8551610a6e565b5f80610c24835f8551611071565b5f6104d0825f8451610da0565b5f6104d0825f8451610f6e565b5f805f610dae868686610a6e565b91509150816105dd576040516307456b9160e21b815260040160405180910390fd5b60606104d06001600160a01b03831660145b6060825f610df184600261154d565b610dfc90600261153a565b67ffffffffffffffff811115610e1457610e146115a5565b6040519080825280601f01601f191660200182016040528015610e3e576020820181803683370190505b509050600360fc1b815f81518110610e5857610e586114fd565b60200101906001600160f81b03191690815f1a905350600f60fb1b81600181518110610e8657610e866114fd565b60200101906001600160f81b03191690815f1a9053505f610ea885600261154d565b610eb390600161153a565b90505b6001811115610f2a576f181899199a1a9b1b9c1cb0b131b232b360811b83600f1660108110610ee757610ee76114fd565b1a60f81b828281518110610efd57610efd6114fd565b60200101906001600160f81b03191690815f1a90535060049290921c91610f2381611525565b9050610eb6565b508115610f585760405163e22e27eb60e01b8152600481018690526024810185905260440160405180910390fd5b949350505050565b5f805f610d48868686610f7c565b5f805f610d48868686610b75565b5f808451831180610f8c57508284115b15610f9b57505f905080610b13565b610b45858585610fb0565b5f80610c24835f85515b5f808481610fbf86600161153a565b85118015610fe7575061060f60f31b610fdb8388016020015190565b6001600160f01b031916145b90505f610ff7821515600261154d565b90505f80611005838a61153a565b90505b87811015611060575f6110266110218784016020015190565b61129c565b9050600f8160ff161115611045575f8097509750505050505050610b13565b61105060108461154d565b60ff909116019150600101611008565b506001999098509650505050505050565b5f808481858514611088576020868301015161108a565b5f5b90506001600160f81b03198116602b60f81b811490602d60f81b145f6110b783806110b25750825b151590565b90505f806110cf8c6110c9858e61153a565b8c610b75565b915091508180156110e35750600160ff1b81105b1561110e576001846110f557816110fe565b6110fe826115b9565b9850985050505050505050610b13565b8180156111185750835b80156111275750600160ff1b81145b15611143576001600160ff1b9850985050505050505050610b13565b5f809850985050505050505050610b13565b5f808481855b858110156111b6575f6111746110218584016020015190565b905060098160ff161115611191575f809550955050505050610b13565b61119c600a8461154d565b92506111ab60ff82168461153a565b92505060010161115b565b50600197909650945050505050565b5f8072184f03e93ff9f4daa797ed6e38ed64bf6a1f0160401b83106112035772184f03e93ff9f4daa797ed6e38ed64bf6a1f0160401b830492506040015b6d04ee2d6d415b85acef8100000000831061122f576d04ee2d6d415b85acef8100000000830492506020015b662386f26fc10000831061124d57662386f26fc10000830492506010015b6305f5e1008310611265576305f5e100830492506008015b612710831061127957612710830492506004015b6064831061128b576064830492506002015b600a83106104d05760010192915050565b5f60f882901c602f811180156112b55750603a8160ff16105b156112c357602f19016104d0565b60608160ff161180156112d9575060678160ff16105b156112e757605619016104d0565b60408160ff161180156112fd575060478160ff16105b1561130b57603619016104d0565b5060ff92915050565b5f60208284031215611324575f80fd5b81356001600160a01b0381168114610669575f80fd5b5f5b8381101561135457818101518382015260200161133c565b50505f910152565b602081525f825180602084015261137a81604085016020870161133a565b601f01601f19169190910160400192915050565b5f8083601f84011261139e575f80fd5b50813567ffffffffffffffff8111156113b5575f80fd5b6020830191508360208285010111156113cc575f80fd5b9250929050565b5f805f80606085870312156113e6575f80fd5b843567ffffffffffffffff8111156113fc575f80fd5b6114088782880161138e565b90989097506020870135966040013595509350505050565b5f805f8060408587031215611433575f80fd5b843567ffffffffffffffff8082111561144a575f80fd5b6114568883890161138e565b9096509450602087013591508082111561146e575f80fd5b5061147b8782880161138e565b95989497509550505050565b5f8060208385031215611498575f80fd5b823567ffffffffffffffff8111156114ae575f80fd5b6114ba8582860161138e565b90969095509350505050565b5f602082840312156114d6575f80fd5b5035919050565b5f80604083850312156114ee575f80fd5b50508035926020909101359150565b634e487b7160e01b5f52603260045260245ffd5b634e487b7160e01b5f52601160045260245ffd5b5f8161153357611533611511565b505f190190565b808201808211156104d0576104d0611511565b80820281158282048414176104d0576104d0611511565b818103818111156104d0576104d0611511565b5f835161158881846020880161133a565b83519083019061159c81836020880161133a565b01949350505050565b634e487b7160e01b5f52604160045260245ffd5b5f600160ff1b82016115cd576115cd611511565b505f039056fea2646970667358221220a55ef683c81cd6748c377b4e05755fee2df2c1101c33bfe8130d17068c971dcc64736f6c63430008180033",
  "linkReferences": {},
  "deployedLinkReferences": {}
}