{
  "_format": "hh-sol-artifact-1",
  "contractName": "$Heap",
  "sourceName": "contracts-exposed/utils/structs/Heap.sol",
  "abi": [
    {
      "inputs": [],
      "stateMutability": "payable",
      "type": "constructor"
    },
    {
      "anonymous": false,
      "inputs": [
        {
          "indexed": false,
          "internalType": "uint256",
          "name": "ret0",
          "type": "uint256"
        }
      ],
      "name": "return$pop",
      "type": "event"
    },
    {
      "anonymous": false,
      "inputs": [
        {
          "indexed": false,
          "internalType": "uint256",
          "name": "ret0",
          "type": "uint256"
        }
      ],
      "name": "return$replace",
      "type": "event"
    },
    {
      "inputs": [
        {
          "internalType": "uint256",
          "name": "self",
          "type": "uint256"
        }
      ],
      "name": "$clear",
      "outputs": [],
      "stateMutability": "payable",
      "type": "function"
    },
    {
      "inputs": [
        {
          "internalType": "uint256",
          "name": "self",
          "type": "uint256"
        },
        {
          "internalType": "uint256",
          "name": "value",
          "type": "uint256"
        }
      ],
      "name": "$insert",
      "outputs": [],
      "stateMutability": "payable",
      "type": "function"
    },
    {
      "inputs": [
        {
          "internalType": "uint256",
          "name": "self",
          "type": "uint256"
        }
      ],
      "name": "$length",
      "outputs": [
        {
          "internalType": "uint256",
          "name": "ret0",
          "type": "uint256"
        }
      ],
      "stateMutability": "view",
      "type": "function"
    },
    {
      "inputs": [
        {
          "internalType": "uint256",
          "name": "self",
          "type": "uint256"
        }
      ],
      "name": "$peek",
      "outputs": [
        {
          "internalType": "uint256",
          "name": "ret0",
          "type": "uint256"
        }
      ],
      "stateMutability": "view",
      "type": "function"
    },
    {
      "inputs": [
        {
          "internalType": "uint256",
          "name": "self",
          "type": "uint256"
        }
      ],
      "name": "$pop",
      "outputs": [
        {
          "internalType": "uint256",
          "name": "ret0",
          "type": "uint256"
        }
      ],
      "stateMutability": "payable",
      "type": "function"
    },
    {
      "inputs": [
        {
          "internalType": "uint256",
          "name": "self",
          "type": "uint256"
        },
        {
          "internalType": "uint256",
          "name": "newValue",
          "type": "uint256"
        }
      ],
      "name": "$replace",
      "outputs": [
        {
          "internalType": "uint256",
          "name": "ret0",
          "type": "uint256"
        }
      ],
      "stateMutability": "payable",
      "type": "function"
    },
    {
      "inputs": [],
      "name": "__hh_exposed_bytecode_marker",
      "outputs": [
        {
          "internalType": "bytes32",
          "name": "",
          "type": "bytes32"
        }
      ],
      "stateMutability": "view",
      "type": "function"
    },
    {
      "stateMutability": "payable",
      "type": "receive"
    }
  ],
  "bytecode": "0x60806040526105d8806100115f395ff3fe608060405260043610610071575f3560e01c80631e120f101161004c5780631e120f10146100d5578063342db739146100f457806372a3147b14610119578063cf59dad414610137575f80fd5b80630b412a261461007c5780630f62fa82146100a157806319fc1781146100b6575f80fd5b3661007857005b5f80fd5b61008f61008a366004610543565b61014a565b60405190815260200160405180910390f35b6100b46100af36600461055a565b6101a0565b005b3480156100c1575f80fd5b5061008f6100d0366004610543565b6101bb565b3480156100e0575f80fd5b5061008f6100ef366004610543565b6101d0565b3480156100ff575f80fd5b5061008f6e1a185c991a185d0b595e1c1bdcd959608a1b81565b6100b4610127366004610543565b5f90815260208190526040812055565b61008f61014536600461055a565b6101e6565b5f8181526020819052604081206101609061023e565b90507fb20f1ea18a69ca55890a41f90672b0683921f403d7ed0a42b3413b4d03a140bf8160405161019391815260200190565b60405180910390a1919050565b5f8281526020819052604090206101b7908261024b565b5050565b5f818152602081905260408120545b92915050565b5f8181526020819052604081206101ca90610258565b5f8281526020819052604081206101fd908361027d565b90507f01a5f7459fc6092fa56fc638bf221d32aa3ffb706edaae42cef92e69ff606aed8160405161023091815260200190565b60405180910390a192915050565b5f6101ca82610292610296565b6101b78282610292610327565b5f815f015f8154811061026d5761026d61057a565b905f5260205f2001549050919050565b5f61028b8383610292610358565b9392505050565b1190565b5f806102a0845490565b9050805f036102b3576102b360316103a5565b5f6102be85826103b6565b5490505f6102cf865f1985016103b6565b5486549091508690806102e4576102e461058e565b600190038181905f5260205f20015f905590558061030d5f885f016103b690919063ffffffff16565b5561031e865f1985015f84896103dd565b50949350505050565b5f610330845490565b84546001810186555f86815260209020018490559050610352848285856104d3565b50505050565b5f80610362855490565b9050805f036103755761037560316103a5565b5f61038086826103b6565b5490508461038e875f6103b6565b5561039c86835f88886103dd565b95945050505050565b634e487b715f52806020526024601cfd5b5f826103d56103d2846103ce845f9081526020902090565b0190565b90565b949350505050565b6001600160ff1b038310156104cc57600283810260018101910185811015610486575f61040a88846103b6565b5490505f61041889846103b6565b549050610429828763ffffffff8816565b8061043d575061043d81878763ffffffff16565b1561047f575f610463858561045686868b63ffffffff16565b1515918118919091021890565b90506104708a898361051b565b61047d8a8a838a8a6103dd565b505b50506104c9565b858210156104c9575f61049988846103b6565b5490506104aa818663ffffffff8716565b156104c7576104ba88878561051b565b6104c788888588886103dd565b505b50505b5050505050565b82156103525760025f198401045f6104eb86836103b6565b5490506104fc818563ffffffff8616565b15610508575050610352565b61051386868461051b565b5092506104d3565b5f61052684846103b6565b90505f61053385846103b6565b8054835490915590915550505050565b5f60208284031215610553575f80fd5b5035919050565b5f806040838503121561056b575f80fd5b50508035926020909101359150565b634e487b7160e01b5f52603260045260245ffd5b634e487b7160e01b5f52603160045260245ffdfea2646970667358221220ef9e70a2621ecc8e949f67cc115e2d60b33551c4eb20d77ead08b9f8763b6dcd64736f6c63430008180033",
  "linkReferences": {},
  "deployedLinkReferences": {}
}