{
  "_format": "hh-sol-artifact-1",
  "contractName": "AddressArraysMock",
  "sourceName": "contracts/mocks/ArraysMock.sol",
  "abi": [
    {
      "inputs": [
        {
          "internalType": "address[]",
          "name": "array",
          "type": "address[]"
        }
      ],
      "stateMutability": "nonpayable",
      "type": "constructor"
    },
    {
      "inputs": [],
      "name": "length",
      "outputs": [
        {
          "internalType": "uint256",
          "name": "",
          "type": "uint256"
        }
      ],
      "stateMutability": "view",
      "type": "function"
    },
    {
      "inputs": [
        {
          "internalType": "address[]",
          "name": "array",
          "type": "address[]"
        }
      ],
      "name": "sort",
      "outputs": [
        {
          "internalType": "address[]",
          "name": "",
          "type": "address[]"
        }
      ],
      "stateMutability": "pure",
      "type": "function"
    },
    {
      "inputs": [
        {
          "internalType": "address[]",
          "name": "array",
          "type": "address[]"
        }
      ],
      "name": "sortReverse",
      "outputs": [
        {
          "internalType": "address[]",
          "name": "",
          "type": "address[]"
        }
      ],
      "stateMutability": "pure",
      "type": "function"
    },
    {
      "inputs": [
        {
          "internalType": "uint256",
          "name": "pos",
          "type": "uint256"
        }
      ],
      "name": "unsafeAccess",
      "outputs": [
        {
          "internalType": "address",
          "name": "",
          "type": "address"
        }
      ],
      "stateMutability": "view",
      "type": "function"
    },
    {
      "inputs": [
        {
          "internalType": "uint256",
          "name": "newLength",
          "type": "uint256"
        }
      ],
      "name": "unsafeSetLength",
      "outputs": [],
      "stateMutability": "nonpayable",
      "type": "function"
    }
  ],
  "bytecode": "0x608060405234801561000f575f80fd5b5060405161058438038061058483398101604081905261002e916100ed565b8051610040905f906020840190610047565b50506101ac565b828054828255905f5260205f2090810192821561009a579160200282015b8281111561009a57825182546001600160a01b0319166001600160a01b03909116178255602090920191600190910190610065565b506100a69291506100aa565b5090565b5b808211156100a6575f81556001016100ab565b634e487b7160e01b5f52604160045260245ffd5b80516001600160a01b03811681146100e8575f80fd5b919050565b5f60208083850312156100fe575f80fd5b82516001600160401b0380821115610114575f80fd5b818501915085601f830112610127575f80fd5b815181811115610139576101396100be565b8060051b604051601f19603f8301168101818110858211171561015e5761015e6100be565b60405291825284820192508381018501918883111561017b575f80fd5b938501935b828510156101a057610191856100d2565b84529385019392850192610180565b98975050505050505050565b6103cb806101b95f395ff3fe608060405234801561000f575f80fd5b5060043610610055575f3560e01c8063128424a7146100595780631f7b6d321461008257806340aa934d1461009257806346d1dbac146100bd578063e9fdbeba146100d0575b5f80fd5b61006c610067366004610272565b6100e5565b6040516100799190610332565b60405180910390f35b5f54604051908152602001610079565b6100a56100a036600461037e565b6100f6565b6040516001600160a01b039091168152602001610079565b61006c6100cb366004610272565b610111565b6100e36100de36600461037e565b61011f565b005b60606100f08261012b565b92915050565b5f6101018183610140565b546001600160a01b031692915050565b60606100f082610167610178565b6101285f829055565b50565b60606101398261018c610190565b5090919050565b5f8261015f61015c84610158845f9081526020902090565b0190565b90565b949350505050565b6001600160a01b0390811691161190565b60606101848383610190565b509192915050565b1190565b6060610139602084016101a2856101a8565b846101bf565b5f81516020026101b88360200190565b0192915050565b604083830310156101cf57505050565b5f6101d8845190565b905083602081015b8481101561021a576101fd6101f3825190565b848663ffffffff16565b15610212576020919091018051825182528252905b6020016101e0565b50845181518652815261022e8582856101bf565b61023c8160200185856101bf565b5050505050565b634e487b7160e01b5f52604160045260245ffd5b80356001600160a01b038116811461026d575f80fd5b919050565b5f6020808385031215610283575f80fd5b823567ffffffffffffffff8082111561029a575f80fd5b818501915085601f8301126102ad575f80fd5b8135818111156102bf576102bf610243565b8060051b604051601f19603f830116810181811085821117156102e4576102e4610243565b604052918252848201925083810185019188831115610301575f80fd5b938501935b828510156103265761031785610257565b84529385019392850192610306565b98975050505050505050565b602080825282518282018190525f9190848201906040850190845b818110156103725783516001600160a01b03168352928401929184019160010161034d565b50909695505050505050565b5f6020828403121561038e575f80fd5b503591905056fea2646970667358221220810b4fa762697ddda5020aebefe0d1e2cd87cf091b3acf5a83f60a4a3858f77e64736f6c63430008180033",
  "linkReferences": {},
  "deployedLinkReferences": {}
}