{
  "_format": "hh-sol-artifact-1",
  "contractName": "Bytes32ArraysMock",
  "sourceName": "contracts/mocks/ArraysMock.sol",
  "abi": [
    {
      "inputs": [
        {
          "internalType": "bytes32[]",
          "name": "array",
          "type": "bytes32[]"
        }
      ],
      "stateMutability": "nonpayable",
      "type": "constructor"
    },
    {
      "inputs": [],
      "name": "length",
      "outputs": [
        {
          "internalType": "uint256",
          "name": "",
          "type": "uint256"
        }
      ],
      "stateMutability": "view",
      "type": "function"
    },
    {
      "inputs": [
        {
          "internalType": "bytes32[]",
          "name": "array",
          "type": "bytes32[]"
        }
      ],
      "name": "sort",
      "outputs": [
        {
          "internalType": "bytes32[]",
          "name": "",
          "type": "bytes32[]"
        }
      ],
      "stateMutability": "pure",
      "type": "function"
    },
    {
      "inputs": [
        {
          "internalType": "bytes32[]",
          "name": "array",
          "type": "bytes32[]"
        }
      ],
      "name": "sortReverse",
      "outputs": [
        {
          "internalType": "bytes32[]",
          "name": "",
          "type": "bytes32[]"
        }
      ],
      "stateMutability": "pure",
      "type": "function"
    },
    {
      "inputs": [
        {
          "internalType": "uint256",
          "name": "pos",
          "type": "uint256"
        }
      ],
      "name": "unsafeAccess",
      "outputs": [
        {
          "internalType": "bytes32",
          "name": "",
          "type": "bytes32"
        }
      ],
      "stateMutability": "view",
      "type": "function"
    },
    {
      "inputs": [
        {
          "internalType": "uint256",
          "name": "newLength",
          "type": "uint256"
        }
      ],
      "name": "unsafeSetLength",
      "outputs": [],
      "stateMutability": "nonpayable",
      "type": "function"
    }
  ],
  "bytecode": "0x608060405234801561000f575f80fd5b506040516104ec3803806104ec83398101604081905261002e916100b8565b8051610040905f906020840190610047565b5050610170565b828054828255905f5260205f20908101928215610080579160200282015b82811115610080578251825591602001919060010190610065565b5061008c929150610090565b5090565b5b8082111561008c575f8155600101610091565b634e487b7160e01b5f52604160045260245ffd5b5f60208083850312156100c9575f80fd5b82516001600160401b03808211156100df575f80fd5b818501915085601f8301126100f2575f80fd5b815181811115610104576101046100a4565b8060051b604051601f19603f83011681018181108582111715610129576101296100a4565b604052918252848201925083810185019188831115610146575f80fd5b938501935b828510156101645784518452938501939285019261014b565b98975050505050505050565b61036f8061017d5f395ff3fe608060405234801561000f575f80fd5b5060043610610055575f3560e01c80631f7b6d3214610059578063216ee6551461006f57806340aa934d1461008f5780638ea613b7146100a2578063e9fdbeba146100b5575b5f80fd5b5f545b6040519081526020015b60405180910390f35b61008261007d366004610226565b6100ca565b60405161006691906102df565b61005c61009d366004610322565b6100de565b6100826100b0366004610226565b6100f0565b6100c86100c3366004610322565b6100fb565b005b60606100d88261010761010b565b92915050565b5f6100e9818361011f565b5492915050565b60606100d882610146565b6101045f829055565b50565b1090565b6060610117838361015b565b509192915050565b5f8261013e61013b84610137845f9081526020902090565b0190565b90565b949350505050565b60606101548261017361015b565b5090919050565b60606101546020840161016d85610177565b8461018e565b1190565b5f81516020026101878360200190565b0192915050565b6040838303101561019e57505050565b5f6101a7845190565b905083602081015b848110156101e9576101cc6101c2825190565b848663ffffffff16565b156101e1576020919091018051825182528252905b6020016101af565b5084518151865281526101fd85828561018e565b61020b81602001858561018e565b5050505050565b634e487b7160e01b5f52604160045260245ffd5b5f6020808385031215610237575f80fd5b823567ffffffffffffffff8082111561024e575f80fd5b818501915085601f830112610261575f80fd5b81358181111561027357610273610212565b8060051b604051601f19603f8301168101818110858211171561029857610298610212565b6040529182528482019250838101850191888311156102b5575f80fd5b938501935b828510156102d3578435845293850193928501926102ba565b98975050505050505050565b602080825282518282018190525f9190848201906040850190845b81811015610316578351835292840192918401916001016102fa565b50909695505050505050565b5f60208284031215610332575f80fd5b503591905056fea2646970667358221220a0c179022feb4adebd1ec01fd249cf9882cb2f60364382120b6c6919606026ef64736f6c63430008180033",
  "linkReferences": {},
  "deployedLinkReferences": {}
}