{
  "_format": "hh-sol-artifact-1",
  "contractName": "Uint256ArraysMock",
  "sourceName": "contracts/mocks/ArraysMock.sol",
  "abi": [
    {
      "inputs": [
        {
          "internalType": "uint256[]",
          "name": "array",
          "type": "uint256[]"
        }
      ],
      "stateMutability": "nonpayable",
      "type": "constructor"
    },
    {
      "inputs": [
        {
          "internalType": "uint256",
          "name": "value",
          "type": "uint256"
        }
      ],
      "name": "findUpperBound",
      "outputs": [
        {
          "internalType": "uint256",
          "name": "",
          "type": "uint256"
        }
      ],
      "stateMutability": "view",
      "type": "function"
    },
    {
      "inputs": [],
      "name": "length",
      "outputs": [
        {
          "internalType": "uint256",
          "name": "",
          "type": "uint256"
        }
      ],
      "stateMutability": "view",
      "type": "function"
    },
    {
      "inputs": [
        {
          "internalType": "uint256",
          "name": "value",
          "type": "uint256"
        }
      ],
      "name": "lowerBound",
      "outputs": [
        {
          "internalType": "uint256",
          "name": "",
          "type": "uint256"
        }
      ],
      "stateMutability": "view",
      "type": "function"
    },
    {
      "inputs": [
        {
          "internalType": "uint256[]",
          "name": "array",
          "type": "uint256[]"
        },
        {
          "internalType": "uint256",
          "name": "value",
          "type": "uint256"
        }
      ],
      "name": "lowerBoundMemory",
      "outputs": [
        {
          "internalType": "uint256",
          "name": "",
          "type": "uint256"
        }
      ],
      "stateMutability": "pure",
      "type": "function"
    },
    {
      "inputs": [
        {
          "internalType": "uint256[]",
          "name": "array",
          "type": "uint256[]"
        }
      ],
      "name": "sort",
      "outputs": [
        {
          "internalType": "uint256[]",
          "name": "",
          "type": "uint256[]"
        }
      ],
      "stateMutability": "pure",
      "type": "function"
    },
    {
      "inputs": [
        {
          "internalType": "uint256[]",
          "name": "array",
          "type": "uint256[]"
        }
      ],
      "name": "sortReverse",
      "outputs": [
        {
          "internalType": "uint256[]",
          "name": "",
          "type": "uint256[]"
        }
      ],
      "stateMutability": "pure",
      "type": "function"
    },
    {
      "inputs": [
        {
          "internalType": "uint256",
          "name": "pos",
          "type": "uint256"
        }
      ],
      "name": "unsafeAccess",
      "outputs": [
        {
          "internalType": "uint256",
          "name": "",
          "type": "uint256"
        }
      ],
      "stateMutability": "view",
      "type": "function"
    },
    {
      "inputs": [
        {
          "internalType": "uint256",
          "name": "newLength",
          "type": "uint256"
        }
      ],
      "name": "unsafeSetLength",
      "outputs": [],
      "stateMutability": "nonpayable",
      "type": "function"
    },
    {
      "inputs": [
        {
          "internalType": "uint256",
          "name": "value",
          "type": "uint256"
        }
      ],
      "name": "upperBound",
      "outputs": [
        {
          "internalType": "uint256",
          "name": "",
          "type": "uint256"
        }
      ],
      "stateMutability": "view",
      "type": "function"
    },
    {
      "inputs": [
        {
          "internalType": "uint256[]",
          "name": "array",
          "type": "uint256[]"
        },
        {
          "internalType": "uint256",
          "name": "value",
          "type": "uint256"
        }
      ],
      "name": "upperBoundMemory",
      "outputs": [
        {
          "internalType": "uint256",
          "name": "",
          "type": "uint256"
        }
      ],
      "stateMutability": "pure",
      "type": "function"
    }
  ],
  "bytecode": "0x608060405234801561000f575f80fd5b5060405161087338038061087383398101604081905261002e916100b8565b8051610040905f906020840190610047565b5050610170565b828054828255905f5260205f20908101928215610080579160200282015b82811115610080578251825591602001919060010190610065565b5061008c929150610090565b5090565b5b8082111561008c575f8155600101610091565b634e487b7160e01b5f52604160045260245ffd5b5f60208083850312156100c9575f80fd5b82516001600160401b03808211156100df575f80fd5b818501915085601f8301126100f2575f80fd5b815181811115610104576101046100a4565b8060051b604051601f19603f83011681018181108582111715610129576101296100a4565b604052918252848201925083810185019188831115610146575f80fd5b938501935b828510156101645784518452938501939285019261014b565b98975050505050505050565b6106f68061017d5f395ff3fe608060405234801561000f575f80fd5b506004361061009b575f3560e01c806340aa934d1161006357806340aa934d1461011257806374380a78146101255780639ec8b02614610138578063e9fdbeba1461014b578063ed44001714610160575f80fd5b8063054615f61461009f5780631f7b6d32146100c5578063206ce879146100cc578063233c1d6a146100ec57806333e3a58a146100ff575b5f80fd5b6100b26100ad366004610599565b610173565b6040519081526020015b60405180910390f35b5f546100b2565b6100df6100da3660046105db565b610187565b6040516100bc919061060d565b6100b26100fa366004610650565b610195565b6100b261010d366004610650565b6101a0565b6100b2610120366004610650565b6101ab565b6100b2610133366004610650565b6101bd565b6100df6101463660046105db565b6101c8565b61015e610159366004610650565b6101d3565b005b6100b261016e366004610599565b6101df565b5f61017e83836101ea565b90505b92915050565b606061018182610244610248565b5f6101818183610267565b5f61018181836102ba565b5f6101b68183610357565b5492915050565b5f610181818361037e565b6060610181826103d1565b6101dc5f829055565b50565b5f61017e83836103df565b81515f908190808203610201575f92505050610181565b8082101561023c575f6102148383610431565b60208082028801015190915085111561023257806001019250610236565b8091505b50610201565b509392505050565b1090565b60606102606020840161025a8561044b565b84610462565b5090919050565b81545f90819080820361027e575f92505050610181565b8082101561023c575f6102918383610431565b90508461029e8783610357565b5411156102ad578091506102b4565b8060010192505b5061027e565b81545f9081908082036102d1575f92505050610181565b80821015610314575f6102e48383610431565b9050846102f18783610357565b5411156103005780915061030e565b61030b81600161067b565b92505b506102d1565b5f821180156103365750836103338661032e60018661068e565b610357565b54145b1561034f5761034660018361068e565b92505050610181565b509050610181565b5f826103766103738461036f845f9081526020902090565b0190565b90565b949350505050565b81545f908190808203610395575f92505050610181565b8082101561023c575f6103a88383610431565b9050846103b58783610357565b5410156103c7578060010192506103cb565b8091505b50610395565b6060610260826104e6610248565b81515f9081908082036103f6575f92505050610181565b8082101561023c575f6104098383610431565b6020808202880101519091508510156104245780915061042b565b8060010192505b506103f6565b5f61043f60028484186106a1565b61017e9084841661067b565b5f815160200261045b8360200190565b0192915050565b6040838303101561047257505050565b5f61047b845190565b905083602081015b848110156104bd576104a0610496825190565b848663ffffffff16565b156104b5576020919091018051825182528252905b602001610483565b5084518151865281526104d1858285610462565b6104df816020018585610462565b5050505050565b1190565b634e487b7160e01b5f52604160045260245ffd5b5f82601f83011261050d575f80fd5b8135602067ffffffffffffffff8083111561052a5761052a6104ea565b8260051b604051601f19603f8301168101818110848211171561054f5761054f6104ea565b604052938452602081870181019490810192508785111561056e575f80fd5b6020870191505b8482101561058e57813583529183019190830190610575565b979650505050505050565b5f80604083850312156105aa575f80fd5b823567ffffffffffffffff8111156105c0575f80fd5b6105cc858286016104fe565b95602094909401359450505050565b5f602082840312156105eb575f80fd5b813567ffffffffffffffff811115610601575f80fd5b610376848285016104fe565b602080825282518282018190525f9190848201906040850190845b8181101561064457835183529284019291840191600101610628565b50909695505050505050565b5f60208284031215610660575f80fd5b5035919050565b634e487b7160e01b5f52601160045260245ffd5b8082018082111561018157610181610667565b8181038181111561018157610181610667565b5f826106bb57634e487b7160e01b5f52601260045260245ffd5b50049056fea2646970667358221220874f695a6a4ee74d3566626165355dedd40bc6b73311f62a6f878a9e6f4c6ef764736f6c63430008180033",
  "linkReferences": {},
  "deployedLinkReferences": {}
}