{
  "_format": "hh-sol-artifact-1",
  "contractName": "$ERC2771ContextMock",
  "sourceName": "contracts-exposed/mocks/ERC2771ContextMock.sol",
  "abi": [
    {
      "inputs": [
        {
          "internalType": "address",
          "name": "trustedForwarder",
          "type": "address"
        }
      ],
      "stateMutability": "payable",
      "type": "constructor"
    },
    {
      "inputs": [
        {
          "internalType": "address",
          "name": "target",
          "type": "address"
        }
      ],
      "name": "AddressEmptyCode",
      "type": "error"
    },
    {
      "inputs": [],
      "name": "FailedCall",
      "type": "error"
    },
    {
      "anonymous": false,
      "inputs": [
        {
          "indexed": false,
          "internalType": "bytes",
          "name": "data",
          "type": "bytes"
        },
        {
          "indexed": false,
          "internalType": "uint256",
          "name": "integerValue",
          "type": "uint256"
        },
        {
          "indexed": false,
          "internalType": "string",
          "name": "stringValue",
          "type": "string"
        }
      ],
      "name": "Data",
      "type": "event"
    },
    {
      "anonymous": false,
      "inputs": [
        {
          "indexed": false,
          "internalType": "bytes",
          "name": "data",
          "type": "bytes"
        }
      ],
      "name": "DataShort",
      "type": "event"
    },
    {
      "anonymous": false,
      "inputs": [
        {
          "indexed": false,
          "internalType": "address",
          "name": "sender",
          "type": "address"
        }
      ],
      "name": "Sender",
      "type": "event"
    },
    {
      "inputs": [],
      "name": "$_contextSuffixLength",
      "outputs": [
        {
          "internalType": "uint256",
          "name": "ret0",
          "type": "uint256"
        }
      ],
      "stateMutability": "view",
      "type": "function"
    },
    {
      "inputs": [],
      "name": "$_msgData",
      "outputs": [
        {
          "internalType": "bytes",
          "name": "ret0",
          "type": "bytes"
        }
      ],
      "stateMutability": "view",
      "type": "function"
    },
    {
      "inputs": [],
      "name": "$_msgSender",
      "outputs": [
        {
          "internalType": "address",
          "name": "ret0",
          "type": "address"
        }
      ],
      "stateMutability": "view",
      "type": "function"
    },
    {
      "inputs": [],
      "name": "__hh_exposed_bytecode_marker",
      "outputs": [
        {
          "internalType": "bytes32",
          "name": "",
          "type": "bytes32"
        }
      ],
      "stateMutability": "view",
      "type": "function"
    },
    {
      "inputs": [
        {
          "internalType": "address",
          "name": "forwarder",
          "type": "address"
        }
      ],
      "name": "isTrustedForwarder",
      "outputs": [
        {
          "internalType": "bool",
          "name": "",
          "type": "bool"
        }
      ],
      "stateMutability": "view",
      "type": "function"
    },
    {
      "inputs": [
        {
          "internalType": "uint256",
          "name": "integerValue",
          "type": "uint256"
        },
        {
          "internalType": "string",
          "name": "stringValue",
          "type": "string"
        }
      ],
      "name": "msgData",
      "outputs": [],
      "stateMutability": "nonpayable",
      "type": "function"
    },
    {
      "inputs": [],
      "name": "msgDataShort",
      "outputs": [],
      "stateMutability": "nonpayable",
      "type": "function"
    },
    {
      "inputs": [],
      "name": "msgSender",
      "outputs": [],
      "stateMutability": "nonpayable",
      "type": "function"
    },
    {
      "inputs": [
        {
          "internalType": "bytes[]",
          "name": "data",
          "type": "bytes[]"
        }
      ],
      "name": "multicall",
      "outputs": [
        {
          "internalType": "bytes[]",
          "name": "results",
          "type": "bytes[]"
        }
      ],
      "stateMutability": "nonpayable",
      "type": "function"
    },
    {
      "inputs": [],
      "name": "trustedForwarder",
      "outputs": [
        {
          "internalType": "address",
          "name": "",
          "type": "address"
        }
      ],
      "stateMutability": "view",
      "type": "function"
    },
    {
      "stateMutability": "payable",
      "type": "receive"
    }
  ],
  "bytecode": "0x60a060405260405162000c0f38038062000c0f83398101604081905261002491610100565b6001600160a01b038116608052807fd6558c3ed910d959271054471fd1c326679d9fece99c5091b00ed89627cf2bfc61005b61007d565b6040516001600160a01b03909116815260200160405180910390a150506101a9565b5f61008661008b565b905090565b5f366014610098336100db565b80156100a45750808210155b156100d3575f366100b5838561012d565b6100c0928290610152565b6100c991610179565b60601c9250505090565b339250505090565b5f6100e560805190565b6001600160a01b0316826001600160a01b0316149050919050565b5f60208284031215610110575f80fd5b81516001600160a01b0381168114610126575f80fd5b9392505050565b8181038181111561014c57634e487b7160e01b5f52601160045260245ffd5b92915050565b5f8085851115610160575f80fd5b8386111561016c575f80fd5b5050820193919092039150565b6001600160601b031981358181169160148510156101a15780818660140360031b1b83161692505b505092915050565b608051610a46620001c95f395f818161019301526102a50152610a465ff3fe608060405260043610610092575f3560e01c806367354a841161005757806367354a84146101725780637da0a87714610185578063ac9650d8146101b7578063d737d0c7146101e3578063ff5f6b59146101f7575f80fd5b80632904df291461009d57806332cadf3c146100ce578063342db739146100ef578063376bf26214610122578063572b6c0514610143575f80fd5b3661009957005b5f80fd5b3480156100a8575f80fd5b506100b161020b565b6040516001600160a01b0390911681526020015b60405180910390f35b3480156100d9575f80fd5b506100e2610219565b6040516100c591906106ae565b3480156100fa575f80fd5b506101146e1a185c991a185d0b595e1c1bdcd959608a1b81565b6040519081526020016100c5565b34801561012d575f80fd5b5061014161013c3660046106d4565b61025c565b005b34801561014e575f80fd5b5061016261015d366004610789565b6102a3565b60405190151581526020016100c5565b34801561017d575f80fd5b506014610114565b348015610190575f80fd5b507f00000000000000000000000000000000000000000000000000000000000000006100b1565b3480156101c2575f80fd5b506101d66101d13660046107af565b6102d5565b6040516100c5919061081e565b3480156101ee575f80fd5b50610141610430565b348015610202575f80fd5b50610141610477565b5f6102146104ae565b905090565b60606102236104b7565b8080601f0160208091040260200160405190810160405280939291908181526020018383808284375f9201919091525092949350505050565b7faf235354a0a47c91ee171961326335cb2d1a8e55b8a89859b0e61eb049e50ea06102856104b7565b848460405161029794939291906108a8565b60405180910390a15050565b7f00000000000000000000000000000000000000000000000000000000000000006001600160a01b0390811691161490565b60605f6102e06104ae565b6001600160a01b0316336001600160a01b031614610349575f366103056014826108de565b6103109282906108fd565b8080601f0160208091040260200160405190810160405280939291908181526020018383808284375f9201919091525061035892505050565b604080515f8152602081019091525b90508267ffffffffffffffff811115610373576103736106c0565b6040519080825280602002602001820160405280156103a657816020015b60608152602001906001900390816103915790505b5091505f5b8381101561042757610402308686848181106103c9576103c9610924565b90506020028101906103db9190610938565b856040516020016103ee93929190610982565b6040516020818303038152906040526104c9565b83828151811061041457610414610924565b60209081029190910101526001016103ab565b50505b92915050565b7fd6558c3ed910d959271054471fd1c326679d9fece99c5091b00ed89627cf2bfc6104596104ae565b6040516001600160a01b0390911681526020015b60405180910390a1565b7f6d7cec71eba467294d92341ddc4e8634eb4d742a90e16f408f06e4b70bc4cd666104a06104b7565b60405161046d9291906109a7565b5f61021461053b565b365f6104c161058b565b915091509091565b60605f80846001600160a01b0316846040516104e591906109c2565b5f60405180830381855af49150503d805f811461051d576040519150601f19603f3d011682016040523d82523d5f602084013e610522565b606091505b50915091506105328583836105d5565b95945050505050565b5f366014610548336102a3565b80156105545750808210155b15610583575f3661056583856108de565b6105709282906108fd565b610579916109dd565b60601c9250505090565b339250505090565b365f816014610599336102a3565b80156105a55750808210155b156105ce575f80366105b784866108de565b926105c4939291906108fd565b9350935050509091565b5f366105c4565b6060826105ea576105e582610638565b610631565b815115801561060157506001600160a01b0384163b155b1561062e57604051639996b31560e01b81526001600160a01b038516600482015260240160405180910390fd5b50805b9392505050565b8051156106485780518082602001fd5b60405163d6bda27560e01b815260040160405180910390fd5b5f5b8381101561067b578181015183820152602001610663565b50505f910152565b5f815180845261069a816020860160208601610661565b601f01601f19169290920160200192915050565b602081525f6106316020830184610683565b634e487b7160e01b5f52604160045260245ffd5b5f80604083850312156106e5575f80fd5b82359150602083013567ffffffffffffffff80821115610703575f80fd5b818501915085601f830112610716575f80fd5b813581811115610728576107286106c0565b604051601f8201601f19908116603f01168101908382118183101715610750576107506106c0565b81604052828152886020848701011115610768575f80fd5b826020860160208301375f6020848301015280955050505050509250929050565b5f60208284031215610799575f80fd5b81356001600160a01b0381168114610631575f80fd5b5f80602083850312156107c0575f80fd5b823567ffffffffffffffff808211156107d7575f80fd5b818501915085601f8301126107ea575f80fd5b8135818111156107f8575f80fd5b8660208260051b850101111561080c575f80fd5b60209290920196919550909350505050565b5f60208083016020845280855180835260408601915060408160051b8701019250602087015f5b8281101561087357603f19888603018452610861858351610683565b94509285019290850190600101610845565b5092979650505050505050565b81835281816020850137505f828201602090810191909152601f909101601f19169091010190565b606081525f6108bb606083018688610880565b84602084015282810360408401526108d38185610683565b979650505050505050565b8181038181111561042a57634e487b7160e01b5f52601160045260245ffd5b5f808585111561090b575f80fd5b83861115610917575f80fd5b5050820193919092039150565b634e487b7160e01b5f52603260045260245ffd5b5f808335601e1984360301811261094d575f80fd5b83018035915067ffffffffffffffff821115610967575f80fd5b60200191503681900382131561097b575f80fd5b9250929050565b828482375f8382015f8152835161099d818360208801610661565b0195945050505050565b602081525f6109ba602083018486610880565b949350505050565b5f82516109d3818460208701610661565b9190910192915050565b6bffffffffffffffffffffffff1981358181169160148510156104275760149490940360031b84901b169092169291505056fea2646970667358221220e687e14120090e9d7cd027408c54daeb01666f0fdeebd1c8029c9447d09350ef64736f6c63430008180033",
  "linkReferences": {},
  "deployedLinkReferences": {}
}