{
  "_format": "hh-sol-artifact-1",
  "contractName": "$UpgradeableBeaconMock",
  "sourceName": "contracts-exposed/mocks/UpgradeableBeaconMock.sol",
  "abi": [
    {
      "inputs": [
        {
          "internalType": "address",
          "name": "impl",
          "type": "address"
        }
      ],
      "stateMutability": "payable",
      "type": "constructor"
    },
    {
      "inputs": [],
      "name": "__hh_exposed_bytecode_marker",
      "outputs": [
        {
          "internalType": "bytes32",
          "name": "",
          "type": "bytes32"
        }
      ],
      "stateMutability": "view",
      "type": "function"
    },
    {
      "inputs": [],
      "name": "implementation",
      "outputs": [
        {
          "internalType": "address",
          "name": "",
          "type": "address"
        }
      ],
      "stateMutability": "view",
      "type": "function"
    },
    {
      "stateMutability": "payable",
      "type": "receive"
    }
  ],
  "bytecode": "0x608060405260405161015038038061015083398101604081905261002291610046565b5f80546001600160a01b0319166001600160a01b0392909216919091179055610073565b5f60208284031215610056575f80fd5b81516001600160a01b038116811461006c575f80fd5b9392505050565b60d18061007f5f395ff3fe6080604052600436106028575f3560e01c8063342db7391460325780635c60da1b146068575f80fd5b36602e57005b5f80fd5b348015603c575f80fd5b5060556e1a185c991a185d0b595e1c1bdcd959608a1b81565b6040519081526020015b60405180910390f35b3480156072575f80fd5b505f546084906001600160a01b031681565b6040516001600160a01b039091168152602001605f56fea2646970667358221220eae0e7c3c52d30958b93653278f737dcd24b44d83b907369fd97a29d3ab2706364736f6c63430008180033",
  "linkReferences": {},
  "deployedLinkReferences": {}
}