{
  "_format": "hh-sol-artifact-1",
  "contractName": "$AuthorityObserveIsConsuming",
  "sourceName": "contracts-exposed/mocks/AuthorityMock.sol",
  "abi": [
    {
      "inputs": [],
      "stateMutability": "payable",
      "type": "constructor"
    },
    {
      "anonymous": false,
      "inputs": [
        {
          "indexed": false,
          "internalType": "address",
          "name": "caller",
          "type": "address"
        },
        {
          "indexed": false,
          "internalType": "bytes",
          "name": "data",
          "type": "bytes"
        },
        {
          "indexed": false,
          "internalType": "bytes4",
          "name": "isConsuming",
          "type": "bytes4"
        }
      ],
      "name": "ConsumeScheduledOpCalled",
      "type": "event"
    },
    {
      "inputs": [],
      "name": "__hh_exposed_bytecode_marker",
      "outputs": [
        {
          "internalType": "bytes32",
          "name": "",
          "type": "bytes32"
        }
      ],
      "stateMutability": "view",
      "type": "function"
    },
    {
      "inputs": [
        {
          "internalType": "address",
          "name": "",
          "type": "address"
        },
        {
          "internalType": "address",
          "name": "",
          "type": "address"
        },
        {
          "internalType": "bytes4",
          "name": "",
          "type": "bytes4"
        }
      ],
      "name": "canCall",
      "outputs": [
        {
          "internalType": "bool",
          "name": "immediate",
          "type": "bool"
        },
        {
          "internalType": "uint32",
          "name": "delay",
          "type": "uint32"
        }
      ],
      "stateMutability": "pure",
      "type": "function"
    },
    {
      "inputs": [
        {
          "internalType": "address",
          "name": "caller",
          "type": "address"
        },
        {
          "internalType": "bytes",
          "name": "data",
          "type": "bytes"
        }
      ],
      "name": "consumeScheduledOp",
      "outputs": [],
      "stateMutability": "nonpayable",
      "type": "function"
    },
    {
      "stateMutability": "payable",
      "type": "receive"
    }
  ],
  "bytecode": "0x6080604052610384806100115f395ff3fe608060405260043610610036575f3560e01c8063342db7391461004157806394c7d7ee14610079578063b70096131461009a575f80fd5b3661003d57005b5f80fd5b34801561004c575f80fd5b506100666e1a185c991a185d0b595e1c1bdcd959608a1b81565b6040519081526020015b60405180910390f35b348015610084575f80fd5b506100986100933660046101a8565b6100db565b005b3480156100a5575f80fd5b506100bf6100b436600461027c565b5f6001935093915050565b60408051921515835263ffffffff909116602083015201610070565b7f6be74e75ed90ba015d494c939c763657508b563a99197bf1323feb9e8f08b4018282336001600160a01b0316638fb360376040518163ffffffff1660e01b8152600401602060405180830381865afa15801561013a573d5f803e3d5ffd5b505050506040513d601f19601f8201168201806040525081019061015e91906102c0565b60405161016d939291906102e2565b60405180910390a15050565b80356001600160a01b038116811461018f575f80fd5b919050565b634e487b7160e01b5f52604160045260245ffd5b5f80604083850312156101b9575f80fd5b6101c283610179565b9150602083013567ffffffffffffffff808211156101de575f80fd5b818501915085601f8301126101f1575f80fd5b81358181111561020357610203610194565b604051601f8201601f19908116603f0116810190838211818310171561022b5761022b610194565b81604052828152886020848701011115610243575f80fd5b826020860160208301375f6020848301015280955050505050509250929050565b6001600160e01b031981168114610279575f80fd5b50565b5f805f6060848603121561028e575f80fd5b61029784610179565b92506102a560208501610179565b915060408401356102b581610264565b809150509250925092565b5f602082840312156102d0575f80fd5b81516102db81610264565b9392505050565b60018060a01b03841681525f60206060602084015284518060608501525f5b8181101561031d57868101830151858201608001528201610301565b505f608082860101526080601f19601f8301168501019250505063ffffffff60e01b8316604083015294935050505056fea2646970667358221220975a4c33dd2a92b269c007a3eff4b93b9d51b3ae285a5cdda4801c2cd54e174c64736f6c63430008180033",
  "linkReferences": {},
  "deployedLinkReferences": {}
}