{
  "_format": "hh-sol-artifact-1",
  "contractName": "$AuthorityNoResponse",
  "sourceName": "contracts-exposed/mocks/AuthorityMock.sol",
  "abi": [
    {
      "inputs": [],
      "stateMutability": "payable",
      "type": "constructor"
    },
    {
      "inputs": [],
      "name": "__hh_exposed_bytecode_marker",
      "outputs": [
        {
          "internalType": "bytes32",
          "name": "",
          "type": "bytes32"
        }
      ],
      "stateMutability": "view",
      "type": "function"
    },
    {
      "inputs": [
        {
          "internalType": "address",
          "name": "",
          "type": "address"
        },
        {
          "internalType": "address",
          "name": "",
          "type": "address"
        },
        {
          "internalType": "bytes4",
          "name": "",
          "type": "bytes4"
        }
      ],
      "name": "canCall",
      "outputs": [],
      "stateMutability": "view",
      "type": "function"
    },
    {
      "stateMutability": "payable",
      "type": "receive"
    }
  ],
  "bytecode": "0x608060405261011e806100115f395ff3fe6080604052600436106028575f3560e01c8063342db739146032578063b7009613146067575f80fd5b36602e57005b5f80fd5b348015603c575f80fd5b5060556e1a185c991a185d0b595e1c1bdcd959608a1b81565b60405190815260200160405180910390f35b3480156071575f80fd5b506082607d366004609e565b505050565b005b80356001600160a01b03811681146099575f80fd5b919050565b5f805f6060848603121560af575f80fd5b60b6846084565b925060c2602085016084565b915060408401356001600160e01b03198116811460dd575f80fd5b80915050925092509256fea264697066735822122016ee47b11d353b6a9b27ad686e93a8b0a1b6d427809903bc6523d29054c1654964736f6c63430008180033",
  "linkReferences": {},
  "deployedLinkReferences": {}
}