{
  "_format": "hh-sol-artifact-1",
  "contractName": "$AuthorityNoDelayMock",
  "sourceName": "contracts-exposed/mocks/AuthorityMock.sol",
  "abi": [
    {
      "inputs": [],
      "stateMutability": "payable",
      "type": "constructor"
    },
    {
      "inputs": [],
      "name": "$_immediate",
      "outputs": [
        {
          "internalType": "bool",
          "name": "",
          "type": "bool"
        }
      ],
      "stateMutability": "view",
      "type": "function"
    },
    {
      "inputs": [],
      "name": "__hh_exposed_bytecode_marker",
      "outputs": [
        {
          "internalType": "bytes32",
          "name": "",
          "type": "bytes32"
        }
      ],
      "stateMutability": "view",
      "type": "function"
    },
    {
      "inputs": [
        {
          "internalType": "bool",
          "name": "immediate",
          "type": "bool"
        }
      ],
      "name": "_setImmediate",
      "outputs": [],
      "stateMutability": "nonpayable",
      "type": "function"
    },
    {
      "inputs": [
        {
          "internalType": "address",
          "name": "",
          "type": "address"
        },
        {
          "internalType": "address",
          "name": "",
          "type": "address"
        },
        {
          "internalType": "bytes4",
          "name": "",
          "type": "bytes4"
        }
      ],
      "name": "canCall",
      "outputs": [
        {
          "internalType": "bool",
          "name": "immediate",
          "type": "bool"
        }
      ],
      "stateMutability": "view",
      "type": "function"
    },
    {
      "stateMutability": "payable",
      "type": "receive"
    }
  ],
  "bytecode": "0x60806040526101c5806100115f395ff3fe608060405260043610610041575f3560e01c8063342db7391461004c5780633e5047b214610084578063b7009613146100b2578063dce40a00146100e8575f80fd5b3661004857005b5f80fd5b348015610057575f80fd5b506100716e1a185c991a185d0b595e1c1bdcd959608a1b81565b6040519081526020015b60405180910390f35b34801561008f575f80fd5b506100b061009e3660046100fe565b5f805460ff1916911515919091179055565b005b3480156100bd575f80fd5b506100d86100cc36600461013f565b5f5460ff169392505050565b604051901515815260200161007b565b3480156100f3575f80fd5b505f5460ff166100d8565b5f6020828403121561010e575f80fd5b8135801515811461011d575f80fd5b9392505050565b80356001600160a01b038116811461013a575f80fd5b919050565b5f805f60608486031215610151575f80fd5b61015a84610124565b925061016860208501610124565b915060408401356001600160e01b031981168114610184575f80fd5b80915050925092509256fea26469706673582212208118b7419b41e7edae4c5c01cfe84125cd4afb737ec126c322d9defe4fb4013964736f6c63430008180033",
  "linkReferences": {},
  "deployedLinkReferences": {}
}