{
  "_format": "hh-sol-artifact-1",
  "contractName": "$NotAuthorityMock",
  "sourceName": "contracts-exposed/mocks/AuthorityMock.sol",
  "abi": [
    {
      "inputs": [],
      "stateMutability": "payable",
      "type": "constructor"
    },
    {
      "inputs": [],
      "name": "__hh_exposed_bytecode_marker",
      "outputs": [
        {
          "internalType": "bytes32",
          "name": "",
          "type": "bytes32"
        }
      ],
      "stateMutability": "view",
      "type": "function"
    },
    {
      "inputs": [
        {
          "internalType": "address",
          "name": "",
          "type": "address"
        },
        {
          "internalType": "address",
          "name": "",
          "type": "address"
        },
        {
          "internalType": "bytes4",
          "name": "",
          "type": "bytes4"
        }
      ],
      "name": "canCall",
      "outputs": [
        {
          "internalType": "bool",
          "name": "",
          "type": "bool"
        }
      ],
      "stateMutability": "pure",
      "type": "function"
    },
    {
      "stateMutability": "payable",
      "type": "receive"
    }
  ],
  "bytecode": "0x608060405261019a806100115f395ff3fe60806040526004361061002b575f3560e01c8063342db73914610036578063b70096131461006e575f80fd5b3661003257005b5f80fd5b348015610041575f80fd5b5061005b6e1a185c991a185d0b595e1c1bdcd959608a1b81565b6040519081526020015b60405180910390f35b348015610079575f80fd5b5061008d610088366004610114565b61009d565b6040519015158152602001610065565b60405162461bcd60e51b815260206004820152602560248201527f417574686f726974794e6f44656c61794d6f636b3a206e6f7420696d706c656d604482015264195b9d195960da1b60648201525f9060840160405180910390fd5b80356001600160a01b038116811461010f575f80fd5b919050565b5f805f60608486031215610126575f80fd5b61012f846100f9565b925061013d602085016100f9565b915060408401356001600160e01b031981168114610159575f80fd5b80915050925092509256fea2646970667358221220cc5517710ed9446e7b4513b07e3369af98d7dc9bab78df694d01cd5c8e422d2464736f6c63430008180033",
  "linkReferences": {},
  "deployedLinkReferences": {}
}