{
  "_format": "hh-sol-artifact-1",
  "contractName": "$MerkleProofCustomHashMock",
  "sourceName": "contracts-exposed/mocks/MerkleProofCustomHashMock.sol",
  "abi": [
    {
      "inputs": [],
      "stateMutability": "payable",
      "type": "constructor"
    },
    {
      "inputs": [],
      "name": "MerkleProofInvalidMultiproof",
      "type": "error"
    },
    {
      "inputs": [
        {
          "internalType": "bytes32",
          "name": "a",
          "type": "bytes32"
        },
        {
          "internalType": "bytes32",
          "name": "b",
          "type": "bytes32"
        }
      ],
      "name": "$customHash",
      "outputs": [
        {
          "internalType": "bytes32",
          "name": "ret0",
          "type": "bytes32"
        }
      ],
      "stateMutability": "pure",
      "type": "function"
    },
    {
      "inputs": [
        {
          "internalType": "bytes32[]",
          "name": "proof",
          "type": "bytes32[]"
        },
        {
          "internalType": "bool[]",
          "name": "proofFlags",
          "type": "bool[]"
        },
        {
          "internalType": "bytes32",
          "name": "root",
          "type": "bytes32"
        },
        {
          "internalType": "bytes32[]",
          "name": "leaves",
          "type": "bytes32[]"
        }
      ],
      "name": "$multiProofVerify",
      "outputs": [
        {
          "internalType": "bool",
          "name": "ret0",
          "type": "bool"
        }
      ],
      "stateMutability": "view",
      "type": "function"
    },
    {
      "inputs": [
        {
          "internalType": "bytes32[]",
          "name": "proof",
          "type": "bytes32[]"
        },
        {
          "internalType": "bool[]",
          "name": "proofFlags",
          "type": "bool[]"
        },
        {
          "internalType": "bytes32",
          "name": "root",
          "type": "bytes32"
        },
        {
          "internalType": "bytes32[]",
          "name": "leaves",
          "type": "bytes32[]"
        }
      ],
      "name": "$multiProofVerifyCalldata",
      "outputs": [
        {
          "internalType": "bool",
          "name": "ret0",
          "type": "bool"
        }
      ],
      "stateMutability": "view",
      "type": "function"
    },
    {
      "inputs": [
        {
          "internalType": "bytes32[]",
          "name": "proof",
          "type": "bytes32[]"
        },
        {
          "internalType": "bool[]",
          "name": "proofFlags",
          "type": "bool[]"
        },
        {
          "internalType": "bytes32[]",
          "name": "leaves",
          "type": "bytes32[]"
        }
      ],
      "name": "$processMultiProof",
      "outputs": [
        {
          "internalType": "bytes32",
          "name": "ret0",
          "type": "bytes32"
        }
      ],
      "stateMutability": "view",
      "type": "function"
    },
    {
      "inputs": [
        {
          "internalType": "bytes32[]",
          "name": "proof",
          "type": "bytes32[]"
        },
        {
          "internalType": "bool[]",
          "name": "proofFlags",
          "type": "bool[]"
        },
        {
          "internalType": "bytes32[]",
          "name": "leaves",
          "type": "bytes32[]"
        }
      ],
      "name": "$processMultiProofCalldata",
      "outputs": [
        {
          "internalType": "bytes32",
          "name": "ret0",
          "type": "bytes32"
        }
      ],
      "stateMutability": "view",
      "type": "function"
    },
    {
      "inputs": [
        {
          "internalType": "bytes32[]",
          "name": "proof",
          "type": "bytes32[]"
        },
        {
          "internalType": "bytes32",
          "name": "leaf",
          "type": "bytes32"
        }
      ],
      "name": "$processProof",
      "outputs": [
        {
          "internalType": "bytes32",
          "name": "ret0",
          "type": "bytes32"
        }
      ],
      "stateMutability": "view",
      "type": "function"
    },
    {
      "inputs": [
        {
          "internalType": "bytes32[]",
          "name": "proof",
          "type": "bytes32[]"
        },
        {
          "internalType": "bytes32",
          "name": "leaf",
          "type": "bytes32"
        }
      ],
      "name": "$processProofCalldata",
      "outputs": [
        {
          "internalType": "bytes32",
          "name": "ret0",
          "type": "bytes32"
        }
      ],
      "stateMutability": "view",
      "type": "function"
    },
    {
      "inputs": [
        {
          "internalType": "bytes32[]",
          "name": "proof",
          "type": "bytes32[]"
        },
        {
          "internalType": "bytes32",
          "name": "root",
          "type": "bytes32"
        },
        {
          "internalType": "bytes32",
          "name": "leaf",
          "type": "bytes32"
        }
      ],
      "name": "$verify",
      "outputs": [
        {
          "internalType": "bool",
          "name": "ret0",
          "type": "bool"
        }
      ],
      "stateMutability": "view",
      "type": "function"
    },
    {
      "inputs": [
        {
          "internalType": "bytes32[]",
          "name": "proof",
          "type": "bytes32[]"
        },
        {
          "internalType": "bytes32",
          "name": "root",
          "type": "bytes32"
        },
        {
          "internalType": "bytes32",
          "name": "leaf",
          "type": "bytes32"
        }
      ],
      "name": "$verifyCalldata",
      "outputs": [
        {
          "internalType": "bool",
          "name": "ret0",
          "type": "bool"
        }
      ],
      "stateMutability": "view",
      "type": "function"
    },
    {
      "inputs": [],
      "name": "__hh_exposed_bytecode_marker",
      "outputs": [
        {
          "internalType": "bytes32",
          "name": "",
          "type": "bytes32"
        }
      ],
      "stateMutability": "view",
      "type": "function"
    },
    {
      "stateMutability": "payable",
      "type": "receive"
    }
  ],
  "bytecode": "0x6080604052610eaa806100115f395ff3fe608060405260043610610092575f3560e01c80635dd795fe116100575780635dd795fe14610161578063891557e0146101805780638f2ab1021461019f578063de21bc2d146101be578063e11ea3d2146101dd575f80fd5b8063342db7391461009d578063371e2ec3146100d55780633a199f31146100f457806347c656c4146101135780635205863c14610142575f80fd5b3661009957005b5f80fd5b3480156100a8575f80fd5b506100c26e1a185c991a185d0b595e1c1bdcd959608a1b81565b6040519081526020015b60405180910390f35b3480156100e0575f80fd5b506100c26100ef366004610b7f565b6101fc565b3480156100ff575f80fd5b506100c261010e366004610be7565b61020e565b34801561011e575f80fd5b5061013261012d366004610c7a565b610228565b60405190151581526020016100cc565b34801561014d575f80fd5b506100c261015c366004610be7565b610244565b34801561016c575f80fd5b5061013261017b366004610c7a565b610253565b34801561018b575f80fd5b5061013261019a366004610d16565b610263565b3480156101aa575f80fd5b506100c26101b9366004610d63565b610279565b3480156101c9575f80fd5b506101326101d8366004610d16565b61028d565b3480156101e8575f80fd5b506100c26101f7366004610d63565b61029a565b5f61020783836102a6565b9392505050565b5f61021d878787878787610397565b979650505050505050565b5f61023888888888888888610441565b98975050505050505050565b5f61021d878787878787610486565b5f610238888888888888886104ca565b5f6102708585858561056d565b95945050505050565b5f6102858484846105b0565b949350505050565b5f610270858585856105bf565b5f6102858484846105cf565b5f81831061032257604080516020810184905290810184905260029060600160408051601f19818403018152908290526102df91610dab565b602060405180830381855afa1580156102fa573d5f803e3d5ffd5b5050506040513d601f19601f8201168201806040525081019061031d9190610dd7565b610207565b604080516020810185905290810183905260029060600160408051601f198184030181529082905261035391610dab565b602060405180830381855afa15801561036e573d5f803e3d5ffd5b5050506040513d601f19601f820116820180604052508101906102079190610dd7565b92915050565b5f61021d8787808060200260200160405190810160405280939291908181526020018383602002808284375f9201919091525050604080516020808b0282810182019093528a82529093508a9250899182918501908490808284375f9201919091525050604080516020808a028281018201909352898252909350899250889182918501908490808284375f920191909152506102a69250610611915050565b9695505050505050565b5f61023888888888888888808060200260200160405190810160405280939291908181526020018383602002808284375f920191909152506102a69250610840915050565b5f61021d878787878787808060200260200160405190810160405280939291908181526020018383602002808284375f920191909152506102a6925061085d915050565b5f6102388888808060200260200160405190810160405280939291908181526020018383602002808284375f9201919091525050604080516020808c0282810182019093528b82529093508b92508a9182918501908490808284375f9201919091525050604080516020808a0282810182019093528982528b9450909250899189918291908501908490808284375f920191909152506102a69250610ab4915050565b5f6102708585808060200260200160405190810160405280939291908181526020018383602002808284375f920191909152508792508691506102a69050610acd565b5f6102858484846102a6610ae4565b5f610270858585856102a6610b2a565b5f6102858484808060200260200160405190810160405280939291908181526020018383602002808284375f920191909152508692506102a69150610b389050565b815183515f9190610623816001610e02565b875161062f9084610e02565b1461064d57604051631a8a024960e11b815260040160405180910390fd5b5f8167ffffffffffffffff81111561066757610667610e15565b604051908082528060200260200182016040528015610690578160200160208202803683370190505b5090505f805f805b858110156107c4575f8785106106d25785846106b381610e29565b9550815181106106c5576106c5610e41565b60200260200101516106f8565b8a856106dd81610e29565b9650815181106106ef576106ef610e41565b60200260200101515b90505f8c838151811061070d5761070d610e41565b6020026020010151610743578d8461072481610e29565b95508151811061073657610736610e41565b602002602001015161078d565b88861061076757868561075581610e29565b96508151811061073657610736610e41565b8b8661077281610e29565b97508151811061078457610784610e41565b60200260200101515b905061079d82828d63ffffffff16565b8784815181106107af576107af610e41565b60209081029190910101525050600101610698565b508415610816578a5181146107ec57604051631a8a024960e11b815260040160405180910390fd5b83600186038151811061080157610801610e41565b60200260200101519650505050505050610285565b851561082e57885f8151811061080157610801610e41565b8a5f8151811061080157610801610e41565b5f8361085089898989888861085d565b1498975050505050505050565b81515f908461086d816001610e02565b6108778984610e02565b1461089557604051631a8a024960e11b815260040160405180910390fd5b5f8167ffffffffffffffff8111156108af576108af610e15565b6040519080825280602002602001820160405280156108d8578160200160208202803683370190505b5090505f805f805b85811015610a25575f87851061091a5785846108fb81610e29565b95508151811061090d5761090d610e41565b6020026020010151610940565b8a8561092581610e29565b96508151811061093757610937610e41565b60200260200101515b90505f8d8d8481811061095557610955610e41565b905060200201602081019061096a9190610e55565b610997578f8f8561097a81610e29565b965081811061098b5761098b610e41565b905060200201356109ee565b8886106109c85786856109a981610e29565b9650815181106109bb576109bb610e41565b60200260200101516109ee565b8b866109d381610e29565b9750815181106109e5576109e5610e41565b60200260200101515b90506109fe82828d63ffffffff16565b878481518110610a1057610a10610e41565b602090810291909101015250506001016108e0565b508415610a7657808c14610a4c57604051631a8a024960e11b815260040160405180910390fd5b836001860381518110610a6157610a61610e41565b60200260200101519650505050505050610437565b8515610a8e57885f81518110610a6157610a61610e41565b8c8c5f818110610aa057610aa0610e41565b905060200201359650505050505050610437565b5f83610ac287878686610611565b149695505050505050565b5f83610ada868585610b38565b1495945050505050565b5f82815b85811015610b2057610b1682888884818110610b0657610b06610e41565b905060200201358663ffffffff16565b9150600101610ae8565b5095945050505050565b5f83610ac287878686610ae4565b5f82815b8551811015610b7657610b6c82878381518110610b5b57610b5b610e41565b60200260200101518663ffffffff16565b9150600101610b3c565b50949350505050565b5f8060408385031215610b90575f80fd5b50508035926020909101359150565b5f8083601f840112610baf575f80fd5b50813567ffffffffffffffff811115610bc6575f80fd5b6020830191508360208260051b8501011115610be0575f80fd5b9250929050565b5f805f805f8060608789031215610bfc575f80fd5b863567ffffffffffffffff80821115610c13575f80fd5b610c1f8a838b01610b9f565b90985096506020890135915080821115610c37575f80fd5b610c438a838b01610b9f565b90965094506040890135915080821115610c5b575f80fd5b50610c6889828a01610b9f565b979a9699509497509295939492505050565b5f805f805f805f6080888a031215610c90575f80fd5b873567ffffffffffffffff80821115610ca7575f80fd5b610cb38b838c01610b9f565b909950975060208a0135915080821115610ccb575f80fd5b610cd78b838c01610b9f565b909750955060408a0135945060608a0135915080821115610cf6575f80fd5b50610d038a828b01610b9f565b989b979a50959850939692959293505050565b5f805f8060608587031215610d29575f80fd5b843567ffffffffffffffff811115610d3f575f80fd5b610d4b87828801610b9f565b90989097506020870135966040013595509350505050565b5f805f60408486031215610d75575f80fd5b833567ffffffffffffffff811115610d8b575f80fd5b610d9786828701610b9f565b909790965060209590950135949350505050565b5f82515f5b81811015610dca5760208186018101518583015201610db0565b505f920191825250919050565b5f60208284031215610de7575f80fd5b5051919050565b634e487b7160e01b5f52601160045260245ffd5b8082018082111561039157610391610dee565b634e487b7160e01b5f52604160045260245ffd5b5f60018201610e3a57610e3a610dee565b5060010190565b634e487b7160e01b5f52603260045260245ffd5b5f60208284031215610e65575f80fd5b81358015158114610207575f80fdfea2646970667358221220572ade0ef99577a70ec6389c609f4defa4a3e50dbce8c7123c3e0ca911e2275864736f6c63430008180033",
  "linkReferences": {},
  "deployedLinkReferences": {}
}