{
  "_format": "hh-sol-artifact-1",
  "contractName": "$ERC1363Utils",
  "sourceName": "contracts-exposed/token/ERC20/utils/ERC1363Utils.sol",
  "abi": [
    {
      "inputs": [],
      "stateMutability": "payable",
      "type": "constructor"
    },
    {
      "inputs": [
        {
          "internalType": "address",
          "name": "receiver",
          "type": "address"
        }
      ],
      "name": "ERC1363InvalidReceiver",
      "type": "error"
    },
    {
      "inputs": [
        {
          "internalType": "address",
          "name": "spender",
          "type": "address"
        }
      ],
      "name": "ERC1363InvalidSpender",
      "type": "error"
    },
    {
      "inputs": [
        {
          "internalType": "address",
          "name": "operator",
          "type": "address"
        },
        {
          "internalType": "address",
          "name": "spender",
          "type": "address"
        },
        {
          "internalType": "uint256",
          "name": "value",
          "type": "uint256"
        },
        {
          "internalType": "bytes",
          "name": "data",
          "type": "bytes"
        }
      ],
      "name": "$checkOnERC1363ApprovalReceived",
      "outputs": [],
      "stateMutability": "payable",
      "type": "function"
    },
    {
      "inputs": [
        {
          "internalType": "address",
          "name": "operator",
          "type": "address"
        },
        {
          "internalType": "address",
          "name": "from",
          "type": "address"
        },
        {
          "internalType": "address",
          "name": "to",
          "type": "address"
        },
        {
          "internalType": "uint256",
          "name": "value",
          "type": "uint256"
        },
        {
          "internalType": "bytes",
          "name": "data",
          "type": "bytes"
        }
      ],
      "name": "$checkOnERC1363TransferReceived",
      "outputs": [],
      "stateMutability": "payable",
      "type": "function"
    },
    {
      "inputs": [],
      "name": "__hh_exposed_bytecode_marker",
      "outputs": [
        {
          "internalType": "bytes32",
          "name": "",
          "type": "bytes32"
        }
      ],
      "stateMutability": "view",
      "type": "function"
    },
    {
      "stateMutability": "payable",
      "type": "receive"
    }
  ],
  "bytecode": "0x608060405261060b806100115f395ff3fe608060405260043610610036575f3560e01c8063342db7391461004157806398ac2d8d14610078578063c3f907e31461008d575f80fd5b3661003d57005b5f80fd5b34801561004c575f80fd5b506100666e1a185c991a185d0b595e1c1bdcd959608a1b81565b60405190815260200160405180910390f35b61008b610086366004610415565b6100a0565b005b61008b61009b36600461047f565b6100e8565b6100e185858585858080601f0160208091040260200160405190810160405280939291908181526020018383808284375f9201919091525061013292505050565b5050505050565b61012a8686868686868080601f0160208091040260200160405190810160405280939291908181526020018383808284375f9201919091525061027992505050565b505050505050565b826001600160a01b03163b5f0361016c5760405163deb6d3ed60e01b81526001600160a01b03841660048201526024015b60405180910390fd5b6040516307b04a2d60e41b81526001600160a01b03841690637b04a2d09061019c9087908690869060040161053c565b6020604051808303815f875af19250505080156101d6575060408051601f3d908101601f191682019092526101d39181019061056b565b60015b61023d573d808015610203576040519150601f19603f3d011682016040523d82523d5f602084013e610208565b606091505b5080515f036102355760405163deb6d3ed60e01b81526001600160a01b0385166004820152602401610163565b805181602001fd5b6001600160e01b031981166307b04a2d60e41b146100e15760405163deb6d3ed60e01b81526001600160a01b0385166004820152602401610163565b826001600160a01b03163b5f036102ae576040516322a5b36760e21b81526001600160a01b0384166004820152602401610163565b604051632229f29760e21b81526001600160a01b038416906388a7ca5c906102e0908890889087908790600401610599565b6020604051808303815f875af192505050801561031a575060408051601f3d908101601f191682019092526103179181019061056b565b60015b610379573d808015610347576040519150601f19603f3d011682016040523d82523d5f602084013e61034c565b606091505b5080515f03610235576040516322a5b36760e21b81526001600160a01b0385166004820152602401610163565b6001600160e01b03198116632229f29760e21b1461012a576040516322a5b36760e21b81526001600160a01b0385166004820152602401610163565b80356001600160a01b03811681146103cb575f80fd5b919050565b5f8083601f8401126103e0575f80fd5b50813567ffffffffffffffff8111156103f7575f80fd5b60208301915083602082850101111561040e575f80fd5b9250929050565b5f805f805f60808688031215610429575f80fd5b610432866103b5565b9450610440602087016103b5565b935060408601359250606086013567ffffffffffffffff811115610462575f80fd5b61046e888289016103d0565b969995985093965092949392505050565b5f805f805f8060a08789031215610494575f80fd5b61049d876103b5565b95506104ab602088016103b5565b94506104b9604088016103b5565b935060608701359250608087013567ffffffffffffffff8111156104db575f80fd5b6104e789828a016103d0565b979a9699509497509295939492505050565b5f81518084525f5b8181101561051d57602081850181015186830182015201610501565b505f602082860101526020601f19601f83011685010191505092915050565b60018060a01b0384168152826020820152606060408201525f61056260608301846104f9565b95945050505050565b5f6020828403121561057b575f80fd5b81516001600160e01b031981168114610592575f80fd5b9392505050565b6001600160a01b03858116825284166020820152604081018390526080606082018190525f906105cb908301846104f9565b969550505050505056fea2646970667358221220a3ad9d62344d5219a2b2fba3bcc96251839a63a2572af5916ee17c3bfa3509a364736f6c63430008180033",
  "linkReferences": {},
  "deployedLinkReferences": {}
}