{
  "_format": "hh-sol-artifact-1",
  "contractName": "$ERC4626OffsetMock",
  "sourceName": "contracts-exposed/mocks/token/ERC4626OffsetMock.sol",
  "abi": [
    {
      "inputs": [
        {
          "internalType": "string",
          "name": "name_",
          "type": "string"
        },
        {
          "internalType": "string",
          "name": "symbol_",
          "type": "string"
        },
        {
          "internalType": "contract IERC20",
          "name": "asset_",
          "type": "address"
        },
        {
          "internalType": "uint8",
          "name": "offset_",
          "type": "uint8"
        }
      ],
      "stateMutability": "payable",
      "type": "constructor"
    },
    {
      "inputs": [
        {
          "internalType": "address",
          "name": "spender",
          "type": "address"
        },
        {
          "internalType": "uint256",
          "name": "allowance",
          "type": "uint256"
        },
        {
          "internalType": "uint256",
          "name": "needed",
          "type": "uint256"
        }
      ],
      "name": "ERC20InsufficientAllowance",
      "type": "error"
    },
    {
      "inputs": [
        {
          "internalType": "address",
          "name": "sender",
          "type": "address"
        },
        {
          "internalType": "uint256",
          "name": "balance",
          "type": "uint256"
        },
        {
          "internalType": "uint256",
          "name": "needed",
          "type": "uint256"
        }
      ],
      "name": "ERC20InsufficientBalance",
      "type": "error"
    },
    {
      "inputs": [
        {
          "internalType": "address",
          "name": "approver",
          "type": "address"
        }
      ],
      "name": "ERC20InvalidApprover",
      "type": "error"
    },
    {
      "inputs": [
        {
          "internalType": "address",
          "name": "receiver",
          "type": "address"
        }
      ],
      "name": "ERC20InvalidReceiver",
      "type": "error"
    },
    {
      "inputs": [
        {
          "internalType": "address",
          "name": "sender",
          "type": "address"
        }
      ],
      "name": "ERC20InvalidSender",
      "type": "error"
    },
    {
      "inputs": [
        {
          "internalType": "address",
          "name": "spender",
          "type": "address"
        }
      ],
      "name": "ERC20InvalidSpender",
      "type": "error"
    },
    {
      "inputs": [
        {
          "internalType": "address",
          "name": "receiver",
          "type": "address"
        },
        {
          "internalType": "uint256",
          "name": "assets",
          "type": "uint256"
        },
        {
          "internalType": "uint256",
          "name": "max",
          "type": "uint256"
        }
      ],
      "name": "ERC4626ExceededMaxDeposit",
      "type": "error"
    },
    {
      "inputs": [
        {
          "internalType": "address",
          "name": "receiver",
          "type": "address"
        },
        {
          "internalType": "uint256",
          "name": "shares",
          "type": "uint256"
        },
        {
          "internalType": "uint256",
          "name": "max",
          "type": "uint256"
        }
      ],
      "name": "ERC4626ExceededMaxMint",
      "type": "error"
    },
    {
      "inputs": [
        {
          "internalType": "address",
          "name": "owner",
          "type": "address"
        },
        {
          "internalType": "uint256",
          "name": "shares",
          "type": "uint256"
        },
        {
          "internalType": "uint256",
          "name": "max",
          "type": "uint256"
        }
      ],
      "name": "ERC4626ExceededMaxRedeem",
      "type": "error"
    },
    {
      "inputs": [
        {
          "internalType": "address",
          "name": "owner",
          "type": "address"
        },
        {
          "internalType": "uint256",
          "name": "assets",
          "type": "uint256"
        },
        {
          "internalType": "uint256",
          "name": "max",
          "type": "uint256"
        }
      ],
      "name": "ERC4626ExceededMaxWithdraw",
      "type": "error"
    },
    {
      "inputs": [
        {
          "internalType": "address",
          "name": "token",
          "type": "address"
        }
      ],
      "name": "SafeERC20FailedOperation",
      "type": "error"
    },
    {
      "anonymous": false,
      "inputs": [
        {
          "indexed": true,
          "internalType": "address",
          "name": "owner",
          "type": "address"
        },
        {
          "indexed": true,
          "internalType": "address",
          "name": "spender",
          "type": "address"
        },
        {
          "indexed": false,
          "internalType": "uint256",
          "name": "value",
          "type": "uint256"
        }
      ],
      "name": "Approval",
      "type": "event"
    },
    {
      "anonymous": false,
      "inputs": [
        {
          "indexed": true,
          "internalType": "address",
          "name": "sender",
          "type": "address"
        },
        {
          "indexed": true,
          "internalType": "address",
          "name": "owner",
          "type": "address"
        },
        {
          "indexed": false,
          "internalType": "uint256",
          "name": "assets",
          "type": "uint256"
        },
        {
          "indexed": false,
          "internalType": "uint256",
          "name": "shares",
          "type": "uint256"
        }
      ],
      "name": "Deposit",
      "type": "event"
    },
    {
      "anonymous": false,
      "inputs": [
        {
          "indexed": true,
          "internalType": "address",
          "name": "from",
          "type": "address"
        },
        {
          "indexed": true,
          "internalType": "address",
          "name": "to",
          "type": "address"
        },
        {
          "indexed": false,
          "internalType": "uint256",
          "name": "value",
          "type": "uint256"
        }
      ],
      "name": "Transfer",
      "type": "event"
    },
    {
      "anonymous": false,
      "inputs": [
        {
          "indexed": true,
          "internalType": "address",
          "name": "sender",
          "type": "address"
        },
        {
          "indexed": true,
          "internalType": "address",
          "name": "receiver",
          "type": "address"
        },
        {
          "indexed": true,
          "internalType": "address",
          "name": "owner",
          "type": "address"
        },
        {
          "indexed": false,
          "internalType": "uint256",
          "name": "assets",
          "type": "uint256"
        },
        {
          "indexed": false,
          "internalType": "uint256",
          "name": "shares",
          "type": "uint256"
        }
      ],
      "name": "Withdraw",
      "type": "event"
    },
    {
      "inputs": [
        {
          "internalType": "address",
          "name": "owner",
          "type": "address"
        },
        {
          "internalType": "address",
          "name": "spender",
          "type": "address"
        },
        {
          "internalType": "uint256",
          "name": "value",
          "type": "uint256"
        },
        {
          "internalType": "bool",
          "name": "emitEvent",
          "type": "bool"
        }
      ],
      "name": "$_approve",
      "outputs": [],
      "stateMutability": "nonpayable",
      "type": "function"
    },
    {
      "inputs": [
        {
          "internalType": "address",
          "name": "owner",
          "type": "address"
        },
        {
          "internalType": "address",
          "name": "spender",
          "type": "address"
        },
        {
          "internalType": "uint256",
          "name": "value",
          "type": "uint256"
        }
      ],
      "name": "$_approve",
      "outputs": [],
      "stateMutability": "nonpayable",
      "type": "function"
    },
    {
      "inputs": [
        {
          "internalType": "address",
          "name": "account",
          "type": "address"
        },
        {
          "internalType": "uint256",
          "name": "value",
          "type": "uint256"
        }
      ],
      "name": "$_burn",
      "outputs": [],
      "stateMutability": "nonpayable",
      "type": "function"
    },
    {
      "inputs": [],
      "name": "$_contextSuffixLength",
      "outputs": [
        {
          "internalType": "uint256",
          "name": "ret0",
          "type": "uint256"
        }
      ],
      "stateMutability": "view",
      "type": "function"
    },
    {
      "inputs": [
        {
          "internalType": "uint256",
          "name": "shares",
          "type": "uint256"
        },
        {
          "internalType": "enum Math.Rounding",
          "name": "rounding",
          "type": "uint8"
        }
      ],
      "name": "$_convertToAssets",
      "outputs": [
        {
          "internalType": "uint256",
          "name": "ret0",
          "type": "uint256"
        }
      ],
      "stateMutability": "view",
      "type": "function"
    },
    {
      "inputs": [
        {
          "internalType": "uint256",
          "name": "assets",
          "type": "uint256"
        },
        {
          "internalType": "enum Math.Rounding",
          "name": "rounding",
          "type": "uint8"
        }
      ],
      "name": "$_convertToShares",
      "outputs": [
        {
          "internalType": "uint256",
          "name": "ret0",
          "type": "uint256"
        }
      ],
      "stateMutability": "view",
      "type": "function"
    },
    {
      "inputs": [],
      "name": "$_decimalsOffset",
      "outputs": [
        {
          "internalType": "uint8",
          "name": "ret0",
          "type": "uint8"
        }
      ],
      "stateMutability": "view",
      "type": "function"
    },
    {
      "inputs": [
        {
          "internalType": "address",
          "name": "caller",
          "type": "address"
        },
        {
          "internalType": "address",
          "name": "receiver",
          "type": "address"
        },
        {
          "internalType": "uint256",
          "name": "assets",
          "type": "uint256"
        },
        {
          "internalType": "uint256",
          "name": "shares",
          "type": "uint256"
        }
      ],
      "name": "$_deposit",
      "outputs": [],
      "stateMutability": "nonpayable",
      "type": "function"
    },
    {
      "inputs": [
        {
          "internalType": "address",
          "name": "account",
          "type": "address"
        },
        {
          "internalType": "uint256",
          "name": "value",
          "type": "uint256"
        }
      ],
      "name": "$_mint",
      "outputs": [],
      "stateMutability": "nonpayable",
      "type": "function"
    },
    {
      "inputs": [],
      "name": "$_msgData",
      "outputs": [
        {
          "internalType": "bytes",
          "name": "ret0",
          "type": "bytes"
        }
      ],
      "stateMutability": "view",
      "type": "function"
    },
    {
      "inputs": [],
      "name": "$_msgSender",
      "outputs": [
        {
          "internalType": "address",
          "name": "ret0",
          "type": "address"
        }
      ],
      "stateMutability": "view",
      "type": "function"
    },
    {
      "inputs": [
        {
          "internalType": "address",
          "name": "owner",
          "type": "address"
        },
        {
          "internalType": "address",
          "name": "spender",
          "type": "address"
        },
        {
          "internalType": "uint256",
          "name": "value",
          "type": "uint256"
        }
      ],
      "name": "$_spendAllowance",
      "outputs": [],
      "stateMutability": "nonpayable",
      "type": "function"
    },
    {
      "inputs": [
        {
          "internalType": "address",
          "name": "from",
          "type": "address"
        },
        {
          "internalType": "address",
          "name": "to",
          "type": "address"
        },
        {
          "internalType": "uint256",
          "name": "value",
          "type": "uint256"
        }
      ],
      "name": "$_transfer",
      "outputs": [],
      "stateMutability": "nonpayable",
      "type": "function"
    },
    {
      "inputs": [
        {
          "internalType": "address",
          "name": "from",
          "type": "address"
        },
        {
          "internalType": "address",
          "name": "to",
          "type": "address"
        },
        {
          "internalType": "uint256",
          "name": "value",
          "type": "uint256"
        }
      ],
      "name": "$_update",
      "outputs": [],
      "stateMutability": "nonpayable",
      "type": "function"
    },
    {
      "inputs": [
        {
          "internalType": "address",
          "name": "caller",
          "type": "address"
        },
        {
          "internalType": "address",
          "name": "receiver",
          "type": "address"
        },
        {
          "internalType": "address",
          "name": "owner",
          "type": "address"
        },
        {
          "internalType": "uint256",
          "name": "assets",
          "type": "uint256"
        },
        {
          "internalType": "uint256",
          "name": "shares",
          "type": "uint256"
        }
      ],
      "name": "$_withdraw",
      "outputs": [],
      "stateMutability": "nonpayable",
      "type": "function"
    },
    {
      "inputs": [],
      "name": "__hh_exposed_bytecode_marker",
      "outputs": [
        {
          "internalType": "bytes32",
          "name": "",
          "type": "bytes32"
        }
      ],
      "stateMutability": "view",
      "type": "function"
    },
    {
      "inputs": [
        {
          "internalType": "address",
          "name": "owner",
          "type": "address"
        },
        {
          "internalType": "address",
          "name": "spender",
          "type": "address"
        }
      ],
      "name": "allowance",
      "outputs": [
        {
          "internalType": "uint256",
          "name": "",
          "type": "uint256"
        }
      ],
      "stateMutability": "view",
      "type": "function"
    },
    {
      "inputs": [
        {
          "internalType": "address",
          "name": "spender",
          "type": "address"
        },
        {
          "internalType": "uint256",
          "name": "value",
          "type": "uint256"
        }
      ],
      "name": "approve",
      "outputs": [
        {
          "internalType": "bool",
          "name": "",
          "type": "bool"
        }
      ],
      "stateMutability": "nonpayable",
      "type": "function"
    },
    {
      "inputs": [],
      "name": "asset",
      "outputs": [
        {
          "internalType": "address",
          "name": "",
          "type": "address"
        }
      ],
      "stateMutability": "view",
      "type": "function"
    },
    {
      "inputs": [
        {
          "internalType": "address",
          "name": "account",
          "type": "address"
        }
      ],
      "name": "balanceOf",
      "outputs": [
        {
          "internalType": "uint256",
          "name": "",
          "type": "uint256"
        }
      ],
      "stateMutability": "view",
      "type": "function"
    },
    {
      "inputs": [
        {
          "internalType": "uint256",
          "name": "shares",
          "type": "uint256"
        }
      ],
      "name": "convertToAssets",
      "outputs": [
        {
          "internalType": "uint256",
          "name": "",
          "type": "uint256"
        }
      ],
      "stateMutability": "view",
      "type": "function"
    },
    {
      "inputs": [
        {
          "internalType": "uint256",
          "name": "assets",
          "type": "uint256"
        }
      ],
      "name": "convertToShares",
      "outputs": [
        {
          "internalType": "uint256",
          "name": "",
          "type": "uint256"
        }
      ],
      "stateMutability": "view",
      "type": "function"
    },
    {
      "inputs": [],
      "name": "decimals",
      "outputs": [
        {
          "internalType": "uint8",
          "name": "",
          "type": "uint8"
        }
      ],
      "stateMutability": "view",
      "type": "function"
    },
    {
      "inputs": [
        {
          "internalType": "uint256",
          "name": "assets",
          "type": "uint256"
        },
        {
          "internalType": "address",
          "name": "receiver",
          "type": "address"
        }
      ],
      "name": "deposit",
      "outputs": [
        {
          "internalType": "uint256",
          "name": "",
          "type": "uint256"
        }
      ],
      "stateMutability": "nonpayable",
      "type": "function"
    },
    {
      "inputs": [
        {
          "internalType": "address",
          "name": "",
          "type": "address"
        }
      ],
      "name": "maxDeposit",
      "outputs": [
        {
          "internalType": "uint256",
          "name": "",
          "type": "uint256"
        }
      ],
      "stateMutability": "view",
      "type": "function"
    },
    {
      "inputs": [
        {
          "internalType": "address",
          "name": "",
          "type": "address"
        }
      ],
      "name": "maxMint",
      "outputs": [
        {
          "internalType": "uint256",
          "name": "",
          "type": "uint256"
        }
      ],
      "stateMutability": "view",
      "type": "function"
    },
    {
      "inputs": [
        {
          "internalType": "address",
          "name": "owner",
          "type": "address"
        }
      ],
      "name": "maxRedeem",
      "outputs": [
        {
          "internalType": "uint256",
          "name": "",
          "type": "uint256"
        }
      ],
      "stateMutability": "view",
      "type": "function"
    },
    {
      "inputs": [
        {
          "internalType": "address",
          "name": "owner",
          "type": "address"
        }
      ],
      "name": "maxWithdraw",
      "outputs": [
        {
          "internalType": "uint256",
          "name": "",
          "type": "uint256"
        }
      ],
      "stateMutability": "view",
      "type": "function"
    },
    {
      "inputs": [
        {
          "internalType": "uint256",
          "name": "shares",
          "type": "uint256"
        },
        {
          "internalType": "address",
          "name": "receiver",
          "type": "address"
        }
      ],
      "name": "mint",
      "outputs": [
        {
          "internalType": "uint256",
          "name": "",
          "type": "uint256"
        }
      ],
      "stateMutability": "nonpayable",
      "type": "function"
    },
    {
      "inputs": [],
      "name": "name",
      "outputs": [
        {
          "internalType": "string",
          "name": "",
          "type": "string"
        }
      ],
      "stateMutability": "view",
      "type": "function"
    },
    {
      "inputs": [
        {
          "internalType": "uint256",
          "name": "assets",
          "type": "uint256"
        }
      ],
      "name": "previewDeposit",
      "outputs": [
        {
          "internalType": "uint256",
          "name": "",
          "type": "uint256"
        }
      ],
      "stateMutability": "view",
      "type": "function"
    },
    {
      "inputs": [
        {
          "internalType": "uint256",
          "name": "shares",
          "type": "uint256"
        }
      ],
      "name": "previewMint",
      "outputs": [
        {
          "internalType": "uint256",
          "name": "",
          "type": "uint256"
        }
      ],
      "stateMutability": "view",
      "type": "function"
    },
    {
      "inputs": [
        {
          "internalType": "uint256",
          "name": "shares",
          "type": "uint256"
        }
      ],
      "name": "previewRedeem",
      "outputs": [
        {
          "internalType": "uint256",
          "name": "",
          "type": "uint256"
        }
      ],
      "stateMutability": "view",
      "type": "function"
    },
    {
      "inputs": [
        {
          "internalType": "uint256",
          "name": "assets",
          "type": "uint256"
        }
      ],
      "name": "previewWithdraw",
      "outputs": [
        {
          "internalType": "uint256",
          "name": "",
          "type": "uint256"
        }
      ],
      "stateMutability": "view",
      "type": "function"
    },
    {
      "inputs": [
        {
          "internalType": "uint256",
          "name": "shares",
          "type": "uint256"
        },
        {
          "internalType": "address",
          "name": "receiver",
          "type": "address"
        },
        {
          "internalType": "address",
          "name": "owner",
          "type": "address"
        }
      ],
      "name": "redeem",
      "outputs": [
        {
          "internalType": "uint256",
          "name": "",
          "type": "uint256"
        }
      ],
      "stateMutability": "nonpayable",
      "type": "function"
    },
    {
      "inputs": [],
      "name": "symbol",
      "outputs": [
        {
          "internalType": "string",
          "name": "",
          "type": "string"
        }
      ],
      "stateMutability": "view",
      "type": "function"
    },
    {
      "inputs": [],
      "name": "totalAssets",
      "outputs": [
        {
          "internalType": "uint256",
          "name": "",
          "type": "uint256"
        }
      ],
      "stateMutability": "view",
      "type": "function"
    },
    {
      "inputs": [],
      "name": "totalSupply",
      "outputs": [
        {
          "internalType": "uint256",
          "name": "",
          "type": "uint256"
        }
      ],
      "stateMutability": "view",
      "type": "function"
    },
    {
      "inputs": [
        {
          "internalType": "address",
          "name": "to",
          "type": "address"
        },
        {
          "internalType": "uint256",
          "name": "value",
          "type": "uint256"
        }
      ],
      "name": "transfer",
      "outputs": [
        {
          "internalType": "bool",
          "name": "",
          "type": "bool"
        }
      ],
      "stateMutability": "nonpayable",
      "type": "function"
    },
    {
      "inputs": [
        {
          "internalType": "address",
          "name": "from",
          "type": "address"
        },
        {
          "internalType": "address",
          "name": "to",
          "type": "address"
        },
        {
          "internalType": "uint256",
          "name": "value",
          "type": "uint256"
        }
      ],
      "name": "transferFrom",
      "outputs": [
        {
          "internalType": "bool",
          "name": "",
          "type": "bool"
        }
      ],
      "stateMutability": "nonpayable",
      "type": "function"
    },
    {
      "inputs": [
        {
          "internalType": "uint256",
          "name": "assets",
          "type": "uint256"
        },
        {
          "internalType": "address",
          "name": "receiver",
          "type": "address"
        },
        {
          "internalType": "address",
          "name": "owner",
          "type": "address"
        }
      ],
      "name": "withdraw",
      "outputs": [
        {
          "internalType": "uint256",
          "name": "",
          "type": "uint256"
        }
      ],
      "stateMutability": "nonpayable",
      "type": "function"
    },
    {
      "stateMutability": "payable",
      "type": "receive"
    }
  ],
  "bytecode": "0x60e060405260405162001bf038038062001bf083398101604081905262000026916200023d565b80828585600362000038838262000366565b50600462000047828262000366565b5050505f806200005d836200009860201b60201c565b91509150816200006f57601262000071565b805b60ff90811660a0526001600160a01b0390931660805250501660c052506200046792505050565b60408051600481526024810182526020810180516001600160e01b031663313ce56760e01b17905290515f918291829182916001600160a01b03871691620000e09162000432565b5f60405180830381855afa9150503d805f81146200011a576040519150601f19603f3d011682016040523d82523d5f602084013e6200011f565b606091505b50915091508180156200013457506020815110155b156200016b575f818060200190518101906200015191906200044f565b905060ff811162000169576001969095509350505050565b505b505f9485945092505050565b634e487b7160e01b5f52604160045260245ffd5b5f5b83811015620001a75781810151838201526020016200018d565b50505f910152565b5f82601f830112620001bf575f80fd5b81516001600160401b0380821115620001dc57620001dc62000177565b604051601f8301601f19908116603f0116810190828211818310171562000207576200020762000177565b8160405283815286602085880101111562000220575f80fd5b620002338460208301602089016200018b565b9695505050505050565b5f805f806080858703121562000251575f80fd5b84516001600160401b038082111562000268575f80fd5b6200027688838901620001af565b955060208701519150808211156200028c575f80fd5b506200029b87828801620001af565b604087015190945090506001600160a01b0381168114620002ba575f80fd5b606086015190925060ff81168114620002d1575f80fd5b939692955090935050565b600181811c90821680620002f157607f821691505b6020821081036200031057634e487b7160e01b5f52602260045260245ffd5b50919050565b601f8211156200036157805f5260205f20601f840160051c810160208510156200033d5750805b601f840160051c820191505b818110156200035e575f815560010162000349565b50505b505050565b81516001600160401b0381111562000382576200038262000177565b6200039a81620003938454620002dc565b8462000316565b602080601f831160018114620003d0575f8415620003b85750858301515b5f19600386901b1c1916600185901b1785556200042a565b5f85815260208120601f198616915b828110156200040057888601518255948401946001909101908401620003df565b50858210156200041e57878501515f19600388901b60f8161c191681555b505060018460011b0185555b505050505050565b5f8251620004458184602087016200018b565b9190910192915050565b5f6020828403121562000460575f80fd5b5051919050565b60805160a05160c051611734620004bc5f395f8181610706015281816108c701528181610b570152610ba901525f6108e801525f81816103e80152818161074c01528181610e8e0152610f4001526117345ff3fe608060405260043610610241575f3560e01c8063861e3d3d11610134578063c63d75b6116100b3578063d905777e11610078578063d905777e14610676578063dd62ed3e14610695578063e047838d146106d9578063ef4f78d1146106f8578063ef8b30f7146105fa578063efb43b071461072a575f80fd5b8063c63d75b61461040c578063c6e6f592146105fa578063ca10eca014610619578063cc461d6214610638578063ce96cb7714610657575f80fd5b8063a9059cbb116100f9578063a9059cbb1461055f578063b2331d7d1461057e578063b3d7f6b91461059d578063b460af94146105bc578063ba087652146105db575f80fd5b8063861e3d3d146104cf5780638b4e914a146104ee57806394bf804d1461050d57806395d89b411461052c5780639c0b90c714610540575f80fd5b806332cadf3c116101c057806367354a841161018557806367354a841461042c5780636855a1781461043e5780636e553f651461045d57806370a082311461047c57806383b95579146104b0575f80fd5b806332cadf3c146103a1578063342db739146103b557806338d52e0f146103da578063402d267d1461040c5780634cdad50614610294575f80fd5b806318160ddd1161020657806318160ddd1461030157806323b872dd146103155780632904df2914610334578063313ce5671461035a57806332bc74aa14610380575f80fd5b806301e1d1141461024c57806306fdde031461027357806307a2d13a14610294578063095ea7b3146102b35780630a28a477146102e2575f80fd5b3661024857005b5f80fd5b348015610257575f80fd5b50610260610749565b6040519081526020015b60405180910390f35b34801561027e575f80fd5b506102876107d8565b60405161026a91906112b1565b34801561029f575f80fd5b506102606102ae3660046112c3565b610868565b3480156102be575f80fd5b506102d26102cd3660046112f5565b610879565b604051901515815260200161026a565b3480156102ed575f80fd5b506102606102fc3660046112c3565b610890565b34801561030c575f80fd5b50600254610260565b348015610320575f80fd5b506102d261032f36600461131d565b61089c565b34801561033f575f80fd5b50335b6040516001600160a01b03909116815260200161026a565b348015610365575f80fd5b5061036e6108c1565b60405160ff909116815260200161026a565b34801561038b575f80fd5b5061039f61039a366004611356565b61090c565b005b3480156103ac575f80fd5b5061028761091e565b3480156103c0575f80fd5b506102606e1a185c991a185d0b595e1c1bdcd959608a1b81565b3480156103e5575f80fd5b507f0000000000000000000000000000000000000000000000000000000000000000610342565b348015610417575f80fd5b506102606104263660046113a6565b505f1990565b348015610437575f80fd5b505f610260565b348015610449575f80fd5b5061039f61045836600461131d565b61095b565b348015610468575f80fd5b506102606104773660046113bf565b61096b565b348015610487575f80fd5b506102606104963660046113a6565b6001600160a01b03165f9081526020819052604090205490565b3480156104bb575f80fd5b5061039f6104ca3660046113e9565b61099c565b3480156104da575f80fd5b5061039f6104e936600461131d565b6109b0565b3480156104f9575f80fd5b5061026061050836600461143a565b6109bb565b348015610518575f80fd5b506102606105273660046113bf565b6109c6565b348015610537575f80fd5b506102876109e1565b34801561054b575f80fd5b5061039f61055a36600461146b565b6109f0565b34801561056a575f80fd5b506102d26105793660046112f5565b6109fc565b348015610589575f80fd5b5061039f61059836600461131d565b610a09565b3480156105a8575f80fd5b506102606105b73660046112c3565b610a14565b3480156105c7575f80fd5b506102606105d63660046114aa565b610a20565b3480156105e6575f80fd5b506102606105f53660046114aa565b610a76565b348015610605575f80fd5b506102606106143660046112c3565b610ac3565b348015610624575f80fd5b5061026061063336600461143a565b610ace565b348015610643575f80fd5b5061039f6106523660046112f5565b610ad9565b348015610662575f80fd5b506102606106713660046113a6565b610ae7565b348015610681575f80fd5b506102606106903660046113a6565b610b09565b3480156106a0575f80fd5b506102606106af3660046114e3565b6001600160a01b039182165f90815260016020908152604080832093909416825291909152205490565b3480156106e4575f80fd5b5061039f6106f33660046112f5565b610b26565b348015610703575f80fd5b507f000000000000000000000000000000000000000000000000000000000000000061036e565b348015610735575f80fd5b5061039f61074436600461131d565b610b30565b5f7f00000000000000000000000000000000000000000000000000000000000000006040516370a0823160e01b81523060048201526001600160a01b0391909116906370a0823190602401602060405180830381865afa1580156107af573d5f803e3d5ffd5b505050506040513d601f19601f820116820180604052508101906107d3919061150b565b905090565b6060600380546107e790611522565b80601f016020809104026020016040519081016040528092919081815260200182805461081390611522565b801561085e5780601f106108355761010080835404028352916020019161085e565b820191905f5260205f20905b81548152906001019060200180831161084157829003601f168201915b5050505050905090565b5f610873825f610b3b565b92915050565b5f33610886818585610b93565b5060019392505050565b5f610873826001610ba0565b5f336108a9858285610bef565b6108b4858585610c52565b60019150505b9392505050565b5f6107d37f00000000000000000000000000000000000000000000000000000000000000007f000000000000000000000000000000000000000000000000000000000000000061156e565b61091884848484610ca4565b50505050565b60605f368080601f0160208091040260200160405190810160405280939291908181526020018383808284375f9201919091525092949350505050565b610966838383610d76565b505050565b5f5f1961097c565b60405180910390fd5b5f61098685610ac3565b905061099433858784610e89565b949350505050565b6109a98585858585610f0d565b5050505050565b610966838383610b93565b5f6108ba8383610ba0565b5f5f195f6109d385610a14565b905061099433858388610e89565b6060600480546107e790611522565b61091884848484610e89565b5f33610886818585610c52565b610966838383610bef565b5f610873826001610b3b565b5f80610a2b83610ae7565b905080851115610a5457828582604051633fa733bb60e21b815260040161097393929190611587565b5f610a5e86610890565b9050610a6d3386868985610f0d565b95945050505050565b5f80610a8183610b09565b905080851115610aaa57828582604051632e52afbb60e21b815260040161097393929190611587565b5f610ab486610868565b9050610a6d338686848a610f0d565b5f610873825f610ba0565b5f6108ba8383610b3b565b610ae38282610fcd565b5050565b6001600160a01b0381165f90815260208190526040812054610873905f610b3b565b6001600160a01b0381165f90815260208190526040812054610873565b610ae38282611001565b610966838383610c52565b5f6108ba610b47610749565b610b529060016115a8565b610b7d7f0000000000000000000000000000000000000000000000000000000000000000600a61169b565b600254610b8a91906115a8565b85919085611035565b6109668383836001610ca4565b5f6108ba610bcf7f0000000000000000000000000000000000000000000000000000000000000000600a61169b565b600254610bdc91906115a8565b610be4610749565b610b8a9060016115a8565b6001600160a01b038381165f908152600160209081526040808320938616835292905220545f198110156109185781811015610c4457828183604051637dc7a0d960e11b815260040161097393929190611587565b61091884848484035f610ca4565b6001600160a01b038316610c7b57604051634b637e8f60e11b81525f6004820152602401610973565b6001600160a01b03821661095b5760405163ec442f0560e01b81525f6004820152602401610973565b6001600160a01b038416610ccd5760405163e602df0560e01b81525f6004820152602401610973565b6001600160a01b038316610cf657604051634a1406b160e11b81525f6004820152602401610973565b6001600160a01b038085165f908152600160209081526040808320938716835292905220829055801561091857826001600160a01b0316846001600160a01b03167f8c5be1e5ebec7d5bd14f71427d1e84f3dd0314c0f7b2291e5b200ac8c7c3b92584604051610d6891815260200190565b60405180910390a350505050565b6001600160a01b038316610da0578060025f828254610d9591906115a8565b90915550610dfd9050565b6001600160a01b0383165f9081526020819052604090205481811015610ddf5783818360405163391434e360e21b815260040161097393929190611587565b6001600160a01b0384165f9081526020819052604090209082900390555b6001600160a01b038216610e1957600280548290039055610e37565b6001600160a01b0382165f9081526020819052604090208054820190555b816001600160a01b0316836001600160a01b03167fddf252ad1be2c89b69c2b068fc378daa952ba7f163c4a11628f55a4df523b3ef83604051610e7c91815260200190565b60405180910390a3505050565b610eb57f0000000000000000000000000000000000000000000000000000000000000000853085611077565b610ebf8382610fcd565b826001600160a01b0316846001600160a01b03167fdcbc1c05240f31ff3ad067ef1ee35ce4997762752e3a095284754544f4c709d78484604051610d68929190918252602082015260400190565b826001600160a01b0316856001600160a01b031614610f3157610f31838683610bef565b610f3b8382611001565b610f667f000000000000000000000000000000000000000000000000000000000000000085846110de565b826001600160a01b0316846001600160a01b0316866001600160a01b03167ffbde797d201c681b91056529119e0b02407c7bb96a4a2c75c01fc9667232c8db8585604051610fbe929190918252602082015260400190565b60405180910390a45050505050565b6001600160a01b038216610ff65760405163ec442f0560e01b81525f6004820152602401610973565b610ae35f8383610d76565b6001600160a01b03821661102a57604051634b637e8f60e11b81525f6004820152602401610973565b610ae3825f83610d76565b5f6110626110428361110f565b801561105d57505f8480611058576110586116a9565b868809115b151590565b61106d86868661113b565b610a6d91906115a8565b6040516001600160a01b0384811660248301528381166044830152606482018390526109189186918216906323b872dd906084015b604051602081830303815290604052915060e01b6020820180516001600160e01b0383818316178352505050506111f1565b6040516001600160a01b0383811660248301526044820183905261096691859182169063a9059cbb906064016110ac565b5f6002826003811115611124576111246116bd565b61112e91906116d1565b60ff166001149050919050565b5f838302815f1985870982811083820303915050805f0361116f57838281611165576111656116a9565b04925050506108ba565b80841161118657611186600385150260111861125d565b5f848688095f868103871696879004966002600389028118808a02820302808a02820302808a02820302808a02820302808a02820302808a02909103029181900381900460010186841190950394909402919094039290920491909117919091029150509392505050565b5f8060205f8451602086015f885af180611210576040513d5f823e3d81fd5b50505f513d91508115611227578060011415611234565b6001600160a01b0384163b155b1561091857604051635274afe760e01b81526001600160a01b0385166004820152602401610973565b634e487b715f52806020526024601cfd5b5f81518084525f5b8181101561129257602081850181015186830182015201611276565b505f602082860101526020601f19601f83011685010191505092915050565b602081525f6108ba602083018461126e565b5f602082840312156112d3575f80fd5b5035919050565b80356001600160a01b03811681146112f0575f80fd5b919050565b5f8060408385031215611306575f80fd5b61130f836112da565b946020939093013593505050565b5f805f6060848603121561132f575f80fd5b611338846112da565b9250611346602085016112da565b9150604084013590509250925092565b5f805f8060808587031215611369575f80fd5b611372856112da565b9350611380602086016112da565b9250604085013591506060850135801515811461139b575f80fd5b939692955090935050565b5f602082840312156113b6575f80fd5b6108ba826112da565b5f80604083850312156113d0575f80fd5b823591506113e0602084016112da565b90509250929050565b5f805f805f60a086880312156113fd575f80fd5b611406866112da565b9450611414602087016112da565b9350611422604087016112da565b94979396509394606081013594506080013592915050565b5f806040838503121561144b575f80fd5b82359150602083013560048110611460575f80fd5b809150509250929050565b5f805f806080858703121561147e575f80fd5b611487856112da565b9350611495602086016112da565b93969395505050506040820135916060013590565b5f805f606084860312156114bc575f80fd5b833592506114cc602085016112da565b91506114da604085016112da565b90509250925092565b5f80604083850312156114f4575f80fd5b6114fd836112da565b91506113e0602084016112da565b5f6020828403121561151b575f80fd5b5051919050565b600181811c9082168061153657607f821691505b60208210810361155457634e487b7160e01b5f52602260045260245ffd5b50919050565b634e487b7160e01b5f52601160045260245ffd5b60ff81811683821601908111156108735761087361155a565b6001600160a01b039390931683526020830191909152604082015260600190565b808201808211156108735761087361155a565b600181815b808511156115f557815f19048211156115db576115db61155a565b808516156115e857918102915b93841c93908002906115c0565b509250929050565b5f8261160b57506001610873565b8161161757505f610873565b816001811461162d576002811461163757611653565b6001915050610873565b60ff8411156116485761164861155a565b50506001821b610873565b5060208310610133831016604e8410600b8410161715611676575081810a610873565b61168083836115bb565b805f19048211156116935761169361155a565b029392505050565b5f6108ba60ff8416836115fd565b634e487b7160e01b5f52601260045260245ffd5b634e487b7160e01b5f52602160045260245ffd5b5f60ff8316806116ef57634e487b7160e01b5f52601260045260245ffd5b8060ff8416069150509291505056fea2646970667358221220b45f149f0c688d374ff414dff0560e9e40198826bb974f0b98dfd83987d9ad9564736f6c63430008180033",
  "linkReferences": {},
  "deployedLinkReferences": {}
}