{
  "_format": "hh-sol-artifact-1",
  "contractName": "$ERC20Capped",
  "sourceName": "contracts-exposed/token/ERC20/extensions/ERC20Capped.sol",
  "abi": [
    {
      "inputs": [
        {
          "internalType": "string",
          "name": "name_",
          "type": "string"
        },
        {
          "internalType": "string",
          "name": "symbol_",
          "type": "string"
        },
        {
          "internalType": "uint256",
          "name": "cap_",
          "type": "uint256"
        }
      ],
      "stateMutability": "payable",
      "type": "constructor"
    },
    {
      "inputs": [
        {
          "internalType": "uint256",
          "name": "increasedSupply",
          "type": "uint256"
        },
        {
          "internalType": "uint256",
          "name": "cap",
          "type": "uint256"
        }
      ],
      "name": "ERC20ExceededCap",
      "type": "error"
    },
    {
      "inputs": [
        {
          "internalType": "address",
          "name": "spender",
          "type": "address"
        },
        {
          "internalType": "uint256",
          "name": "allowance",
          "type": "uint256"
        },
        {
          "internalType": "uint256",
          "name": "needed",
          "type": "uint256"
        }
      ],
      "name": "ERC20InsufficientAllowance",
      "type": "error"
    },
    {
      "inputs": [
        {
          "internalType": "address",
          "name": "sender",
          "type": "address"
        },
        {
          "internalType": "uint256",
          "name": "balance",
          "type": "uint256"
        },
        {
          "internalType": "uint256",
          "name": "needed",
          "type": "uint256"
        }
      ],
      "name": "ERC20InsufficientBalance",
      "type": "error"
    },
    {
      "inputs": [
        {
          "internalType": "address",
          "name": "approver",
          "type": "address"
        }
      ],
      "name": "ERC20InvalidApprover",
      "type": "error"
    },
    {
      "inputs": [
        {
          "internalType": "uint256",
          "name": "cap",
          "type": "uint256"
        }
      ],
      "name": "ERC20InvalidCap",
      "type": "error"
    },
    {
      "inputs": [
        {
          "internalType": "address",
          "name": "receiver",
          "type": "address"
        }
      ],
      "name": "ERC20InvalidReceiver",
      "type": "error"
    },
    {
      "inputs": [
        {
          "internalType": "address",
          "name": "sender",
          "type": "address"
        }
      ],
      "name": "ERC20InvalidSender",
      "type": "error"
    },
    {
      "inputs": [
        {
          "internalType": "address",
          "name": "spender",
          "type": "address"
        }
      ],
      "name": "ERC20InvalidSpender",
      "type": "error"
    },
    {
      "anonymous": false,
      "inputs": [
        {
          "indexed": true,
          "internalType": "address",
          "name": "owner",
          "type": "address"
        },
        {
          "indexed": true,
          "internalType": "address",
          "name": "spender",
          "type": "address"
        },
        {
          "indexed": false,
          "internalType": "uint256",
          "name": "value",
          "type": "uint256"
        }
      ],
      "name": "Approval",
      "type": "event"
    },
    {
      "anonymous": false,
      "inputs": [
        {
          "indexed": true,
          "internalType": "address",
          "name": "from",
          "type": "address"
        },
        {
          "indexed": true,
          "internalType": "address",
          "name": "to",
          "type": "address"
        },
        {
          "indexed": false,
          "internalType": "uint256",
          "name": "value",
          "type": "uint256"
        }
      ],
      "name": "Transfer",
      "type": "event"
    },
    {
      "inputs": [
        {
          "internalType": "address",
          "name": "owner",
          "type": "address"
        },
        {
          "internalType": "address",
          "name": "spender",
          "type": "address"
        },
        {
          "internalType": "uint256",
          "name": "value",
          "type": "uint256"
        },
        {
          "internalType": "bool",
          "name": "emitEvent",
          "type": "bool"
        }
      ],
      "name": "$_approve",
      "outputs": [],
      "stateMutability": "nonpayable",
      "type": "function"
    },
    {
      "inputs": [
        {
          "internalType": "address",
          "name": "owner",
          "type": "address"
        },
        {
          "internalType": "address",
          "name": "spender",
          "type": "address"
        },
        {
          "internalType": "uint256",
          "name": "value",
          "type": "uint256"
        }
      ],
      "name": "$_approve",
      "outputs": [],
      "stateMutability": "nonpayable",
      "type": "function"
    },
    {
      "inputs": [
        {
          "internalType": "address",
          "name": "account",
          "type": "address"
        },
        {
          "internalType": "uint256",
          "name": "value",
          "type": "uint256"
        }
      ],
      "name": "$_burn",
      "outputs": [],
      "stateMutability": "nonpayable",
      "type": "function"
    },
    {
      "inputs": [],
      "name": "$_contextSuffixLength",
      "outputs": [
        {
          "internalType": "uint256",
          "name": "ret0",
          "type": "uint256"
        }
      ],
      "stateMutability": "view",
      "type": "function"
    },
    {
      "inputs": [
        {
          "internalType": "address",
          "name": "account",
          "type": "address"
        },
        {
          "internalType": "uint256",
          "name": "value",
          "type": "uint256"
        }
      ],
      "name": "$_mint",
      "outputs": [],
      "stateMutability": "nonpayable",
      "type": "function"
    },
    {
      "inputs": [],
      "name": "$_msgData",
      "outputs": [
        {
          "internalType": "bytes",
          "name": "ret0",
          "type": "bytes"
        }
      ],
      "stateMutability": "view",
      "type": "function"
    },
    {
      "inputs": [],
      "name": "$_msgSender",
      "outputs": [
        {
          "internalType": "address",
          "name": "ret0",
          "type": "address"
        }
      ],
      "stateMutability": "view",
      "type": "function"
    },
    {
      "inputs": [
        {
          "internalType": "address",
          "name": "owner",
          "type": "address"
        },
        {
          "internalType": "address",
          "name": "spender",
          "type": "address"
        },
        {
          "internalType": "uint256",
          "name": "value",
          "type": "uint256"
        }
      ],
      "name": "$_spendAllowance",
      "outputs": [],
      "stateMutability": "nonpayable",
      "type": "function"
    },
    {
      "inputs": [
        {
          "internalType": "address",
          "name": "from",
          "type": "address"
        },
        {
          "internalType": "address",
          "name": "to",
          "type": "address"
        },
        {
          "internalType": "uint256",
          "name": "value",
          "type": "uint256"
        }
      ],
      "name": "$_transfer",
      "outputs": [],
      "stateMutability": "nonpayable",
      "type": "function"
    },
    {
      "inputs": [
        {
          "internalType": "address",
          "name": "from",
          "type": "address"
        },
        {
          "internalType": "address",
          "name": "to",
          "type": "address"
        },
        {
          "internalType": "uint256",
          "name": "value",
          "type": "uint256"
        }
      ],
      "name": "$_update",
      "outputs": [],
      "stateMutability": "nonpayable",
      "type": "function"
    },
    {
      "inputs": [],
      "name": "__hh_exposed_bytecode_marker",
      "outputs": [
        {
          "internalType": "bytes32",
          "name": "",
          "type": "bytes32"
        }
      ],
      "stateMutability": "view",
      "type": "function"
    },
    {
      "inputs": [
        {
          "internalType": "address",
          "name": "owner",
          "type": "address"
        },
        {
          "internalType": "address",
          "name": "spender",
          "type": "address"
        }
      ],
      "name": "allowance",
      "outputs": [
        {
          "internalType": "uint256",
          "name": "",
          "type": "uint256"
        }
      ],
      "stateMutability": "view",
      "type": "function"
    },
    {
      "inputs": [
        {
          "internalType": "address",
          "name": "spender",
          "type": "address"
        },
        {
          "internalType": "uint256",
          "name": "value",
          "type": "uint256"
        }
      ],
      "name": "approve",
      "outputs": [
        {
          "internalType": "bool",
          "name": "",
          "type": "bool"
        }
      ],
      "stateMutability": "nonpayable",
      "type": "function"
    },
    {
      "inputs": [
        {
          "internalType": "address",
          "name": "account",
          "type": "address"
        }
      ],
      "name": "balanceOf",
      "outputs": [
        {
          "internalType": "uint256",
          "name": "",
          "type": "uint256"
        }
      ],
      "stateMutability": "view",
      "type": "function"
    },
    {
      "inputs": [],
      "name": "cap",
      "outputs": [
        {
          "internalType": "uint256",
          "name": "",
          "type": "uint256"
        }
      ],
      "stateMutability": "view",
      "type": "function"
    },
    {
      "inputs": [],
      "name": "decimals",
      "outputs": [
        {
          "internalType": "uint8",
          "name": "",
          "type": "uint8"
        }
      ],
      "stateMutability": "view",
      "type": "function"
    },
    {
      "inputs": [],
      "name": "name",
      "outputs": [
        {
          "internalType": "string",
          "name": "",
          "type": "string"
        }
      ],
      "stateMutability": "view",
      "type": "function"
    },
    {
      "inputs": [],
      "name": "symbol",
      "outputs": [
        {
          "internalType": "string",
          "name": "",
          "type": "string"
        }
      ],
      "stateMutability": "view",
      "type": "function"
    },
    {
      "inputs": [],
      "name": "totalSupply",
      "outputs": [
        {
          "internalType": "uint256",
          "name": "",
          "type": "uint256"
        }
      ],
      "stateMutability": "view",
      "type": "function"
    },
    {
      "inputs": [
        {
          "internalType": "address",
          "name": "to",
          "type": "address"
        },
        {
          "internalType": "uint256",
          "name": "value",
          "type": "uint256"
        }
      ],
      "name": "transfer",
      "outputs": [
        {
          "internalType": "bool",
          "name": "",
          "type": "bool"
        }
      ],
      "stateMutability": "nonpayable",
      "type": "function"
    },
    {
      "inputs": [
        {
          "internalType": "address",
          "name": "from",
          "type": "address"
        },
        {
          "internalType": "address",
          "name": "to",
          "type": "address"
        },
        {
          "internalType": "uint256",
          "name": "value",
          "type": "uint256"
        }
      ],
      "name": "transferFrom",
      "outputs": [
        {
          "internalType": "bool",
          "name": "",
          "type": "bool"
        }
      ],
      "stateMutability": "nonpayable",
      "type": "function"
    },
    {
      "stateMutability": "payable",
      "type": "receive"
    }
  ],
  "bytecode": "0x60a060405260405162000e4d38038062000e4d83398101604081905262000026916200013e565b808383600362000037838262000236565b50600462000046828262000236565b505050805f03620000705760405163392e1e2760e01b81525f600482015260240160405180910390fd5b6080525062000302915050565b634e487b7160e01b5f52604160045260245ffd5b5f82601f830112620000a1575f80fd5b81516001600160401b0380821115620000be57620000be6200007d565b604051601f8301601f19908116603f01168101908282118183101715620000e957620000e96200007d565b816040528381526020925086602085880101111562000106575f80fd5b5f91505b838210156200012957858201830151818301840152908201906200010a565b5f602085830101528094505050505092915050565b5f805f6060848603121562000151575f80fd5b83516001600160401b038082111562000168575f80fd5b620001768783880162000091565b945060208601519150808211156200018c575f80fd5b506200019b8682870162000091565b925050604084015190509250925092565b600181811c90821680620001c157607f821691505b602082108103620001e057634e487b7160e01b5f52602260045260245ffd5b50919050565b601f8211156200023157805f5260205f20601f840160051c810160208510156200020d5750805b601f840160051c820191505b818110156200022e575f815560010162000219565b50505b505050565b81516001600160401b038111156200025257620002526200007d565b6200026a81620002638454620001ac565b84620001e6565b602080601f831160018114620002a0575f8415620002885750858301515b5f19600386901b1c1916600185901b178555620002fa565b5f85815260208120601f198616915b82811015620002d057888601518255948401946001909101908401620002af565b5085821015620002ee57878501515f19600388901b60f8161c191681555b505060018460011b0185555b505050505050565b608051610b2b620003225f395f8181610267015261074c0152610b2b5ff3fe608060405260043610610129575f3560e01c806367354a84116100a8578063a9059cbb1161006d578063a9059cbb14610323578063b2331d7d14610342578063cc461d6214610361578063dd62ed3e14610380578063e047838d146103c4578063efb43b07146103e3575f80fd5b806367354a841461028b5780636855a1781461029d57806370a08231146102bc578063861e3d3d146102f057806395d89b411461030f575f80fd5b8063313ce567116100ee578063313ce567146101e457806332bc74aa146101ff57806332cadf3c14610220578063342db73914610234578063355274ea14610259575f80fd5b806306fdde0314610134578063095ea7b31461015e57806318160ddd1461018d57806323b872dd146101ab5780632904df29146101ca575f80fd5b3661013057005b5f80fd5b34801561013f575f80fd5b50610148610402565b604051610155919061096f565b60405180910390f35b348015610169575f80fd5b5061017d6101783660046109a3565b610492565b6040519015158152602001610155565b348015610198575f80fd5b506002545b604051908152602001610155565b3480156101b6575f80fd5b5061017d6101c53660046109cb565b6104ab565b3480156101d5575f80fd5b50604051338152602001610155565b3480156101ef575f80fd5b5060405160128152602001610155565b34801561020a575f80fd5b5061021e610219366004610a04565b6104ce565b005b34801561022b575f80fd5b506101486104e0565b34801561023f575f80fd5b5061019d6e1a185c991a185d0b595e1c1bdcd959608a1b81565b348015610264575f80fd5b507f000000000000000000000000000000000000000000000000000000000000000061019d565b348015610296575f80fd5b505f61019d565b3480156102a8575f80fd5b5061021e6102b73660046109cb565b61051d565b3480156102c7575f80fd5b5061019d6102d6366004610a54565b6001600160a01b03165f9081526020819052604090205490565b3480156102fb575f80fd5b5061021e61030a3660046109cb565b61052d565b34801561031a575f80fd5b50610148610538565b34801561032e575f80fd5b5061017d61033d3660046109a3565b610547565b34801561034d575f80fd5b5061021e61035c3660046109cb565b610554565b34801561036c575f80fd5b5061021e61037b3660046109a3565b61055f565b34801561038b575f80fd5b5061019d61039a366004610a6d565b6001600160a01b039182165f90815260016020908152604080832093909416825291909152205490565b3480156103cf575f80fd5b5061021e6103de3660046109a3565b61056d565b3480156103ee575f80fd5b5061021e6103fd3660046109cb565b610577565b60606003805461041190610a9e565b80601f016020809104026020016040519081016040528092919081815260200182805461043d90610a9e565b80156104885780601f1061045f57610100808354040283529160200191610488565b820191905f5260205f20905b81548152906001019060200180831161046b57829003601f168201915b5050505050905090565b5f3361049f818585610582565b60019150505b92915050565b5f336104b885828561058f565b6104c385858561060a565b506001949350505050565b6104da8484848461065c565b50505050565b60605f368080601f0160208091040260200160405190810160405280939291908181526020018383808284375f9201919091525092949350505050565b61052883838361072e565b505050565b610528838383610582565b60606004805461041190610a9e565b5f3361049f81858561060a565b61052883838361058f565b610569828261079e565b5050565b61056982826107d2565b61052883838361060a565b610528838383600161065c565b6001600160a01b038381165f908152600160209081526040808320938616835292905220545f198110156104da57818110156105fc57604051637dc7a0d960e11b81526001600160a01b038416600482015260248101829052604481018390526064015b60405180910390fd5b6104da84848484035f61065c565b6001600160a01b03831661063357604051634b637e8f60e11b81525f60048201526024016105f3565b6001600160a01b03821661051d5760405163ec442f0560e01b81525f60048201526024016105f3565b6001600160a01b0384166106855760405163e602df0560e01b81525f60048201526024016105f3565b6001600160a01b0383166106ae57604051634a1406b160e11b81525f60048201526024016105f3565b6001600160a01b038085165f90815260016020908152604080832093871683529290522082905580156104da57826001600160a01b0316846001600160a01b03167f8c5be1e5ebec7d5bd14f71427d1e84f3dd0314c0f7b2291e5b200ac8c7c3b9258460405161072091815260200190565b60405180910390a350505050565b610739838383610806565b6001600160a01b038316610528576002547f000000000000000000000000000000000000000000000000000000000000000090818111156107975760405163279e7e1560e21b815260048101829052602481018390526044016105f3565b5050505050565b6001600160a01b0382166107c75760405163ec442f0560e01b81525f60048201526024016105f3565b6105695f838361072e565b6001600160a01b0382166107fb57604051634b637e8f60e11b81525f60048201526024016105f3565b610569825f8361072e565b6001600160a01b038316610830578060025f8282546108259190610ad6565b909155506108a09050565b6001600160a01b0383165f90815260208190526040902054818110156108825760405163391434e360e21b81526001600160a01b038516600482015260248101829052604481018390526064016105f3565b6001600160a01b0384165f9081526020819052604090209082900390555b6001600160a01b0382166108bc576002805482900390556108da565b6001600160a01b0382165f9081526020819052604090208054820190555b816001600160a01b0316836001600160a01b03167fddf252ad1be2c89b69c2b068fc378daa952ba7f163c4a11628f55a4df523b3ef8360405161091f91815260200190565b60405180910390a3505050565b5f81518084525f5b8181101561095057602081850181015186830182015201610934565b505f602082860101526020601f19601f83011685010191505092915050565b602081525f610981602083018461092c565b9392505050565b80356001600160a01b038116811461099e575f80fd5b919050565b5f80604083850312156109b4575f80fd5b6109bd83610988565b946020939093013593505050565b5f805f606084860312156109dd575f80fd5b6109e684610988565b92506109f460208501610988565b9150604084013590509250925092565b5f805f8060808587031215610a17575f80fd5b610a2085610988565b9350610a2e60208601610988565b92506040850135915060608501358015158114610a49575f80fd5b939692955090935050565b5f60208284031215610a64575f80fd5b61098182610988565b5f8060408385031215610a7e575f80fd5b610a8783610988565b9150610a9560208401610988565b90509250929050565b600181811c90821680610ab257607f821691505b602082108103610ad057634e487b7160e01b5f52602260045260245ffd5b50919050565b808201808211156104a557634e487b7160e01b5f52601160045260245ffdfea2646970667358221220c507f6aa81ca9cf3599f15e14bd355d0e655fde69621cfeda607fb89152374df64736f6c63430008180033",
  "linkReferences": {},
  "deployedLinkReferences": {}
}