{
  "_format": "hh-sol-artifact-1",
  "contractName": "StorageSlotMock",
  "sourceName": "contracts/mocks/StorageSlotMock.sol",
  "abi": [
    {
      "inputs": [
        {
          "internalType": "address",
          "name": "target",
          "type": "address"
        }
      ],
      "name": "AddressEmptyCode",
      "type": "error"
    },
    {
      "inputs": [],
      "name": "FailedCall",
      "type": "error"
    },
    {
      "inputs": [
        {
          "internalType": "uint256",
          "name": "key",
          "type": "uint256"
        }
      ],
      "name": "bytesMap",
      "outputs": [
        {
          "internalType": "bytes",
          "name": "",
          "type": "bytes"
        }
      ],
      "stateMutability": "view",
      "type": "function"
    },
    {
      "inputs": [
        {
          "internalType": "bytes32",
          "name": "slot",
          "type": "bytes32"
        }
      ],
      "name": "getAddressSlot",
      "outputs": [
        {
          "internalType": "address",
          "name": "",
          "type": "address"
        }
      ],
      "stateMutability": "view",
      "type": "function"
    },
    {
      "inputs": [
        {
          "internalType": "bytes32",
          "name": "slot",
          "type": "bytes32"
        }
      ],
      "name": "getBooleanSlot",
      "outputs": [
        {
          "internalType": "bool",
          "name": "",
          "type": "bool"
        }
      ],
      "stateMutability": "view",
      "type": "function"
    },
    {
      "inputs": [
        {
          "internalType": "bytes32",
          "name": "slot",
          "type": "bytes32"
        }
      ],
      "name": "getBytes32Slot",
      "outputs": [
        {
          "internalType": "bytes32",
          "name": "",
          "type": "bytes32"
        }
      ],
      "stateMutability": "view",
      "type": "function"
    },
    {
      "inputs": [
        {
          "internalType": "bytes32",
          "name": "slot",
          "type": "bytes32"
        }
      ],
      "name": "getBytesSlot",
      "outputs": [
        {
          "internalType": "bytes",
          "name": "",
          "type": "bytes"
        }
      ],
      "stateMutability": "view",
      "type": "function"
    },
    {
      "inputs": [
        {
          "internalType": "uint256",
          "name": "key",
          "type": "uint256"
        }
      ],
      "name": "getBytesStorage",
      "outputs": [
        {
          "internalType": "bytes",
          "name": "",
          "type": "bytes"
        }
      ],
      "stateMutability": "view",
      "type": "function"
    },
    {
      "inputs": [
        {
          "internalType": "bytes32",
          "name": "slot",
          "type": "bytes32"
        }
      ],
      "name": "getInt256Slot",
      "outputs": [
        {
          "internalType": "int256",
          "name": "",
          "type": "int256"
        }
      ],
      "stateMutability": "view",
      "type": "function"
    },
    {
      "inputs": [
        {
          "internalType": "bytes32",
          "name": "slot",
          "type": "bytes32"
        }
      ],
      "name": "getStringSlot",
      "outputs": [
        {
          "internalType": "string",
          "name": "",
          "type": "string"
        }
      ],
      "stateMutability": "view",
      "type": "function"
    },
    {
      "inputs": [
        {
          "internalType": "uint256",
          "name": "key",
          "type": "uint256"
        }
      ],
      "name": "getStringStorage",
      "outputs": [
        {
          "internalType": "string",
          "name": "",
          "type": "string"
        }
      ],
      "stateMutability": "view",
      "type": "function"
    },
    {
      "inputs": [
        {
          "internalType": "bytes32",
          "name": "slot",
          "type": "bytes32"
        }
      ],
      "name": "getUint256Slot",
      "outputs": [
        {
          "internalType": "uint256",
          "name": "",
          "type": "uint256"
        }
      ],
      "stateMutability": "view",
      "type": "function"
    },
    {
      "inputs": [
        {
          "internalType": "bytes[]",
          "name": "data",
          "type": "bytes[]"
        }
      ],
      "name": "multicall",
      "outputs": [
        {
          "internalType": "bytes[]",
          "name": "results",
          "type": "bytes[]"
        }
      ],
      "stateMutability": "nonpayable",
      "type": "function"
    },
    {
      "inputs": [
        {
          "internalType": "bytes32",
          "name": "slot",
          "type": "bytes32"
        },
        {
          "internalType": "address",
          "name": "value",
          "type": "address"
        }
      ],
      "name": "setAddressSlot",
      "outputs": [],
      "stateMutability": "nonpayable",
      "type": "function"
    },
    {
      "inputs": [
        {
          "internalType": "bytes32",
          "name": "slot",
          "type": "bytes32"
        },
        {
          "internalType": "bool",
          "name": "value",
          "type": "bool"
        }
      ],
      "name": "setBooleanSlot",
      "outputs": [],
      "stateMutability": "nonpayable",
      "type": "function"
    },
    {
      "inputs": [
        {
          "internalType": "bytes32",
          "name": "slot",
          "type": "bytes32"
        },
        {
          "internalType": "bytes32",
          "name": "value",
          "type": "bytes32"
        }
      ],
      "name": "setBytes32Slot",
      "outputs": [],
      "stateMutability": "nonpayable",
      "type": "function"
    },
    {
      "inputs": [
        {
          "internalType": "bytes32",
          "name": "slot",
          "type": "bytes32"
        },
        {
          "internalType": "bytes",
          "name": "value",
          "type": "bytes"
        }
      ],
      "name": "setBytesSlot",
      "outputs": [],
      "stateMutability": "nonpayable",
      "type": "function"
    },
    {
      "inputs": [
        {
          "internalType": "uint256",
          "name": "key",
          "type": "uint256"
        },
        {
          "internalType": "bytes",
          "name": "value",
          "type": "bytes"
        }
      ],
      "name": "setBytesStorage",
      "outputs": [],
      "stateMutability": "nonpayable",
      "type": "function"
    },
    {
      "inputs": [
        {
          "internalType": "bytes32",
          "name": "slot",
          "type": "bytes32"
        },
        {
          "internalType": "int256",
          "name": "value",
          "type": "int256"
        }
      ],
      "name": "setInt256Slot",
      "outputs": [],
      "stateMutability": "nonpayable",
      "type": "function"
    },
    {
      "inputs": [
        {
          "internalType": "bytes32",
          "name": "slot",
          "type": "bytes32"
        },
        {
          "internalType": "string",
          "name": "value",
          "type": "string"
        }
      ],
      "name": "setStringSlot",
      "outputs": [],
      "stateMutability": "nonpayable",
      "type": "function"
    },
    {
      "inputs": [
        {
          "internalType": "uint256",
          "name": "key",
          "type": "uint256"
        },
        {
          "internalType": "string",
          "name": "value",
          "type": "string"
        }
      ],
      "name": "setStringStorage",
      "outputs": [],
      "stateMutability": "nonpayable",
      "type": "function"
    },
    {
      "inputs": [
        {
          "internalType": "bytes32",
          "name": "slot",
          "type": "bytes32"
        },
        {
          "internalType": "uint256",
          "name": "value",
          "type": "uint256"
        }
      ],
      "name": "setUint256Slot",
      "outputs": [],
      "stateMutability": "nonpayable",
      "type": "function"
    },
    {
      "inputs": [
        {
          "internalType": "uint256",
          "name": "key",
          "type": "uint256"
        }
      ],
      "name": "stringMap",
      "outputs": [
        {
          "internalType": "string",
          "name": "",
          "type": "string"
        }
      ],
      "stateMutability": "view",
      "type": "function"
    }
  ],
  "bytecode": "0x608060405234801561000f575f80fd5b50610adb8061001d5f395ff3fe608060405234801561000f575f80fd5b5060043610610132575f3560e01c806383681c5b116100b4578063ac9650d811610079578063ac9650d814610246578063b62b81ef146101cc578063b86c5dd514610266578063dd4e276214610174578063df6e58d614610291578063e8ff0b1d146102a4575f80fd5b806383681c5b146101df578063913a2e3214610204578063949a352c146101745780639b22f34314610217578063a55a27f61461022a575f80fd5b806347e57533116100fa57806347e57533146101cc5780634c650c86146101df5780635a46e25d146101f15780636e0e0483146101df578063767e35e014610204575f80fd5b80630afb30ba146101365780631e133d0f1461014b57806329c027e01461017457806337f4a46d146101945780633e60bd78146101b9575b5f80fd5b6101496101443660046106ad565b6102d7565b005b61015e6101593660046106f5565b6102fb565b60405161016b9190610759565b60405180910390f35b6101866101823660046106f5565b5490565b60405190815260200161016b565b6101a96101a23660046106f5565b5460ff1690565b604051901515815260200161016b565b6101496101c73660046106ad565b610392565b61015e6101da3660046106f5565b6103a8565b6101496101ed36600461076b565b9055565b61015e6101ff3660046106f5565b61043a565b6101496102123660046106ad565b610452565b61015e6102253660046106f5565b61045a565b61014961023836600461078b565b815460ff1916901515179055565b6102596102543660046107bd565b61046f565b60405161016b919061082c565b61014961027436600461088e565b81546001600160a01b0319166001600160a01b0391909116179055565b61015e61029f3660046106f5565b610555565b6102bf6102b23660046106f5565b546001600160a01b031690565b6040516001600160a01b03909116815260200161016b565b5f838152600160205260409020829082905b916102f5919083610954565b50505050565b5f6020819052908152604090208054610313906108d0565b80601f016020809104026020016040519081016040528092919081815260200182805461033f906108d0565b801561038a5780601f106103615761010080835404028352916020019161038a565b820191905f5260205f20905b81548152906001019060200180831161036d57829003601f168201915b505050505081565b5f838152602081905260409020829082906102e9565b6060815b80546103b7906108d0565b80601f01602080910402602001604051908101604052809291908181526020018280546103e3906108d0565b801561042e5780601f106104055761010080835404028352916020019161042e565b820191905f5260205f20905b81548152906001019060200180831161041157829003601f168201915b50505050509050919050565b60016020525f908152604090208054610313906108d0565b8181846102e9565b5f8181526001602052604090206060906103ac565b604080515f8152602081019091526060908267ffffffffffffffff811115610499576104996108bc565b6040519080825280602002602001820160405280156104cc57816020015b60608152602001906001900390816104b75790505b5091505f5b8381101561054d57610528308686848181106104ef576104ef610a0e565b90506020028101906105019190610a22565b8560405160200161051493929190610a65565b60405160208183030381529060405261056a565b83828151811061053a5761053a610a0e565b60209081029190910101526001016104d1565b505092915050565b5f8181526020819052604090206060906103ac565b60605f80846001600160a01b0316846040516105869190610a8a565b5f60405180830381855af49150503d805f81146105be576040519150601f19603f3d011682016040523d82523d5f602084013e6105c3565b606091505b50915091506105d38583836105dc565b95945050505050565b6060826105f1576105ec8261063f565b610638565b815115801561060857506001600160a01b0384163b155b1561063557604051639996b31560e01b81526001600160a01b038516600482015260240160405180910390fd5b50805b9392505050565b80511561064f5780518082602001fd5b60405163d6bda27560e01b815260040160405180910390fd5b5f8083601f840112610678575f80fd5b50813567ffffffffffffffff81111561068f575f80fd5b6020830191508360208285010111156106a6575f80fd5b9250929050565b5f805f604084860312156106bf575f80fd5b83359250602084013567ffffffffffffffff8111156106dc575f80fd5b6106e886828701610668565b9497909650939450505050565b5f60208284031215610705575f80fd5b5035919050565b5f5b8381101561072657818101518382015260200161070e565b50505f910152565b5f815180845261074581602086016020860161070c565b601f01601f19169290920160200192915050565b602081525f610638602083018461072e565b5f806040838503121561077c575f80fd5b50508035926020909101359150565b5f806040838503121561079c575f80fd5b82359150602083013580151581146107b2575f80fd5b809150509250929050565b5f80602083850312156107ce575f80fd5b823567ffffffffffffffff808211156107e5575f80fd5b818501915085601f8301126107f8575f80fd5b813581811115610806575f80fd5b8660208260051b850101111561081a575f80fd5b60209290920196919550909350505050565b5f60208083016020845280855180835260408601915060408160051b8701019250602087015f5b8281101561088157603f1988860301845261086f85835161072e565b94509285019290850190600101610853565b5092979650505050505050565b5f806040838503121561089f575f80fd5b8235915060208301356001600160a01b03811681146107b2575f80fd5b634e487b7160e01b5f52604160045260245ffd5b600181811c908216806108e457607f821691505b60208210810361090257634e487b7160e01b5f52602260045260245ffd5b50919050565b601f82111561094f57805f5260205f20601f840160051c8101602085101561092d5750805b601f840160051c820191505b8181101561094c575f8155600101610939565b50505b505050565b67ffffffffffffffff83111561096c5761096c6108bc565b6109808361097a83546108d0565b83610908565b5f601f8411600181146109b1575f851561099a5750838201355b5f19600387901b1c1916600186901b17835561094c565b5f83815260208120601f198716915b828110156109e057868501358255602094850194600190920191016109c0565b50868210156109fc575f1960f88860031b161c19848701351681555b505060018560011b0183555050505050565b634e487b7160e01b5f52603260045260245ffd5b5f808335601e19843603018112610a37575f80fd5b83018035915067ffffffffffffffff821115610a51575f80fd5b6020019150368190038213156106a6575f80fd5b828482375f8382015f81528351610a8081836020880161070c565b0195945050505050565b5f8251610a9b81846020870161070c565b919091019291505056fea264697066735822122005a392a0559b7e32e22b267b9b079cc8ea5d792b77ebc66bf5935c9bb95556e364736f6c63430008180033",
  "linkReferences": {},
  "deployedLinkReferences": {}
}