{
  "_format": "hh-sol-artifact-1",
  "contractName": "$ERC7579Utils",
  "sourceName": "contracts-exposed/account/utils/draft-ERC7579Utils.sol",
  "abi": [
    {
      "inputs": [],
      "stateMutability": "payable",
      "type": "constructor"
    },
    {
      "inputs": [],
      "name": "ERC7579DecodingError",
      "type": "error"
    },
    {
      "inputs": [
        {
          "internalType": "ExecType",
          "name": "execType",
          "type": "bytes1"
        }
      ],
      "name": "ERC7579UnsupportedExecType",
      "type": "error"
    },
    {
      "inputs": [],
      "name": "FailedCall",
      "type": "error"
    },
    {
      "inputs": [],
      "name": "OutOfRangeAccess",
      "type": "error"
    },
    {
      "anonymous": false,
      "inputs": [
        {
          "indexed": false,
          "internalType": "uint256",
          "name": "batchExecutionIndex",
          "type": "uint256"
        },
        {
          "indexed": false,
          "internalType": "bytes",
          "name": "returndata",
          "type": "bytes"
        }
      ],
      "name": "ERC7579TryExecuteFail",
      "type": "event"
    },
    {
      "anonymous": false,
      "inputs": [
        {
          "indexed": false,
          "internalType": "bytes[]",
          "name": "returnData",
          "type": "bytes[]"
        }
      ],
      "name": "return$execBatch",
      "type": "event"
    },
    {
      "anonymous": false,
      "inputs": [
        {
          "indexed": false,
          "internalType": "bytes[]",
          "name": "returnData",
          "type": "bytes[]"
        }
      ],
      "name": "return$execDelegateCall",
      "type": "event"
    },
    {
      "anonymous": false,
      "inputs": [
        {
          "indexed": false,
          "internalType": "bytes[]",
          "name": "returnData",
          "type": "bytes[]"
        }
      ],
      "name": "return$execSingle",
      "type": "event"
    },
    {
      "inputs": [],
      "name": "$CALLTYPE_BATCH",
      "outputs": [
        {
          "internalType": "CallType",
          "name": "",
          "type": "bytes1"
        }
      ],
      "stateMutability": "pure",
      "type": "function"
    },
    {
      "inputs": [],
      "name": "$CALLTYPE_DELEGATECALL",
      "outputs": [
        {
          "internalType": "CallType",
          "name": "",
          "type": "bytes1"
        }
      ],
      "stateMutability": "pure",
      "type": "function"
    },
    {
      "inputs": [],
      "name": "$CALLTYPE_SINGLE",
      "outputs": [
        {
          "internalType": "CallType",
          "name": "",
          "type": "bytes1"
        }
      ],
      "stateMutability": "pure",
      "type": "function"
    },
    {
      "inputs": [],
      "name": "$EXECTYPE_DEFAULT",
      "outputs": [
        {
          "internalType": "ExecType",
          "name": "",
          "type": "bytes1"
        }
      ],
      "stateMutability": "pure",
      "type": "function"
    },
    {
      "inputs": [],
      "name": "$EXECTYPE_TRY",
      "outputs": [
        {
          "internalType": "ExecType",
          "name": "",
          "type": "bytes1"
        }
      ],
      "stateMutability": "pure",
      "type": "function"
    },
    {
      "inputs": [
        {
          "internalType": "bytes",
          "name": "executionCalldata",
          "type": "bytes"
        }
      ],
      "name": "$decodeBatch",
      "outputs": [
        {
          "components": [
            {
              "internalType": "address",
              "name": "target",
              "type": "address"
            },
            {
              "internalType": "uint256",
              "name": "value",
              "type": "uint256"
            },
            {
              "internalType": "bytes",
              "name": "callData",
              "type": "bytes"
            }
          ],
          "internalType": "struct Execution[]",
          "name": "executionBatch",
          "type": "tuple[]"
        }
      ],
      "stateMutability": "pure",
      "type": "function"
    },
    {
      "inputs": [
        {
          "internalType": "bytes",
          "name": "executionCalldata",
          "type": "bytes"
        }
      ],
      "name": "$decodeDelegate",
      "outputs": [
        {
          "internalType": "address",
          "name": "target",
          "type": "address"
        },
        {
          "internalType": "bytes",
          "name": "callData",
          "type": "bytes"
        }
      ],
      "stateMutability": "pure",
      "type": "function"
    },
    {
      "inputs": [
        {
          "internalType": "Mode",
          "name": "mode",
          "type": "bytes32"
        }
      ],
      "name": "$decodeMode",
      "outputs": [
        {
          "internalType": "CallType",
          "name": "callType",
          "type": "bytes1"
        },
        {
          "internalType": "ExecType",
          "name": "execType",
          "type": "bytes1"
        },
        {
          "internalType": "ModeSelector",
          "name": "selector",
          "type": "bytes4"
        },
        {
          "internalType": "ModePayload",
          "name": "payload",
          "type": "bytes22"
        }
      ],
      "stateMutability": "pure",
      "type": "function"
    },
    {
      "inputs": [
        {
          "internalType": "bytes",
          "name": "executionCalldata",
          "type": "bytes"
        }
      ],
      "name": "$decodeSingle",
      "outputs": [
        {
          "internalType": "address",
          "name": "target",
          "type": "address"
        },
        {
          "internalType": "uint256",
          "name": "value",
          "type": "uint256"
        },
        {
          "internalType": "bytes",
          "name": "callData",
          "type": "bytes"
        }
      ],
      "stateMutability": "pure",
      "type": "function"
    },
    {
      "inputs": [
        {
          "components": [
            {
              "internalType": "address",
              "name": "target",
              "type": "address"
            },
            {
              "internalType": "uint256",
              "name": "value",
              "type": "uint256"
            },
            {
              "internalType": "bytes",
              "name": "callData",
              "type": "bytes"
            }
          ],
          "internalType": "struct Execution[]",
          "name": "executionBatch",
          "type": "tuple[]"
        }
      ],
      "name": "$encodeBatch",
      "outputs": [
        {
          "internalType": "bytes",
          "name": "executionCalldata",
          "type": "bytes"
        }
      ],
      "stateMutability": "pure",
      "type": "function"
    },
    {
      "inputs": [
        {
          "internalType": "address",
          "name": "target",
          "type": "address"
        },
        {
          "internalType": "bytes",
          "name": "callData",
          "type": "bytes"
        }
      ],
      "name": "$encodeDelegate",
      "outputs": [
        {
          "internalType": "bytes",
          "name": "executionCalldata",
          "type": "bytes"
        }
      ],
      "stateMutability": "pure",
      "type": "function"
    },
    {
      "inputs": [
        {
          "internalType": "CallType",
          "name": "callType",
          "type": "bytes1"
        },
        {
          "internalType": "ExecType",
          "name": "execType",
          "type": "bytes1"
        },
        {
          "internalType": "ModeSelector",
          "name": "selector",
          "type": "bytes4"
        },
        {
          "internalType": "ModePayload",
          "name": "payload",
          "type": "bytes22"
        }
      ],
      "name": "$encodeMode",
      "outputs": [
        {
          "internalType": "Mode",
          "name": "mode",
          "type": "bytes32"
        }
      ],
      "stateMutability": "pure",
      "type": "function"
    },
    {
      "inputs": [
        {
          "internalType": "address",
          "name": "target",
          "type": "address"
        },
        {
          "internalType": "uint256",
          "name": "value",
          "type": "uint256"
        },
        {
          "internalType": "bytes",
          "name": "callData",
          "type": "bytes"
        }
      ],
      "name": "$encodeSingle",
      "outputs": [
        {
          "internalType": "bytes",
          "name": "executionCalldata",
          "type": "bytes"
        }
      ],
      "stateMutability": "pure",
      "type": "function"
    },
    {
      "inputs": [
        {
          "internalType": "bytes",
          "name": "executionCalldata",
          "type": "bytes"
        },
        {
          "internalType": "ExecType",
          "name": "execType",
          "type": "bytes1"
        }
      ],
      "name": "$execBatch",
      "outputs": [
        {
          "internalType": "bytes[]",
          "name": "returnData",
          "type": "bytes[]"
        }
      ],
      "stateMutability": "payable",
      "type": "function"
    },
    {
      "inputs": [
        {
          "internalType": "bytes",
          "name": "executionCalldata",
          "type": "bytes"
        },
        {
          "internalType": "ExecType",
          "name": "execType",
          "type": "bytes1"
        }
      ],
      "name": "$execDelegateCall",
      "outputs": [
        {
          "internalType": "bytes[]",
          "name": "returnData",
          "type": "bytes[]"
        }
      ],
      "stateMutability": "payable",
      "type": "function"
    },
    {
      "inputs": [
        {
          "internalType": "bytes",
          "name": "executionCalldata",
          "type": "bytes"
        },
        {
          "internalType": "ExecType",
          "name": "execType",
          "type": "bytes1"
        }
      ],
      "name": "$execSingle",
      "outputs": [
        {
          "internalType": "bytes[]",
          "name": "returnData",
          "type": "bytes[]"
        }
      ],
      "stateMutability": "payable",
      "type": "function"
    },
    {
      "inputs": [],
      "name": "__hh_exposed_bytecode_marker",
      "outputs": [
        {
          "internalType": "bytes32",
          "name": "",
          "type": "bytes32"
        }
      ],
      "stateMutability": "view",
      "type": "function"
    },
    {
      "stateMutability": "payable",
      "type": "receive"
    }
  ],
  "bytecode": "0x60806040526113c5806100115f395ff3fe6080604052600436106100fd575f3560e01c8063a09658f311610092578063bcc759a011610062578063bcc759a0146102e9578063be6db63c1461023e578063c64d86a214610308578063e5f3680d1461031b578063e630954114610335575f80fd5b8063a09658f314610140578063b09dac7914610263578063b60d753814610291578063b63d728f146102bd575f80fd5b80634f207ca6116100cd5780634f207ca6146101b75780635020f26c1461021e578063801b26111461023e57806383404d2014610250575f80fd5b8063342db7391461010857806339408239146101405780634528c6181461016b578063474d804f1461018a575f80fd5b3661010457005b5f80fd5b348015610113575f80fd5b5061012d6e1a185c991a185d0b595e1c1bdcd959608a1b81565b6040519081526020015b60405180910390f35b34801561014b575f80fd5b50600160f81b5b6040516001600160f81b03199091168152602001610137565b348015610176575f80fd5b5061012d610185366004610c6b565b610354565b348015610195575f80fd5b506101a96101a4366004610d24565b61036a565b604051610137929190610da6565b3480156101c2575f80fd5b506101d66101d1366004610dc9565b6103ba565b604080516001600160f81b031995861681529490931660208501526001600160e01b03199091169183019190915269ffffffffffffffffffff19166060820152608001610137565b61023161022c366004610de0565b6103d6565b6040516101379190610e33565b348015610249575f80fd5b505f610152565b61023161025e366004610de0565b610423565b34801561026e575f80fd5b5061028261027d366004610d24565b610461565b60405161013793929190610e95565b34801561029c575f80fd5b506102b06102ab366004610d24565b6104b5565b6040516101379190610ebb565b3480156102c8575f80fd5b506102dc6102d7366004610f5e565b6104d1565b6040516101379190610fad565b3480156102f4575f80fd5b506102dc610303366004610fbf565b6104e6565b610231610316366004610de0565b6104fa565b348015610326575f80fd5b506001600160f81b0319610152565b348015610340575f80fd5b506102dc61034f36600461102e565b610538565b5f61036185858585610546565b95945050505050565b5f60606103778484610578565b81818080601f0160208091040260200160405190810160405280939291908181526020018383808284375f92019190915250959a92995091975050505050505050565b5f805f806103c7856105ae565b92989197509550909350915050565b60606103e38484846105ec565b90507f91f5d474b655d349306435eb6f0c5a5fa5f9e67f1127eb147733237e934646dd816040516104149190610e33565b60405180910390a19392505050565b606061043084848461071d565b90507f813b78aab7f33567349a05a7666411ac4b989b17900742dab0ee69cadec384a1816040516104149190610e33565b5f80606061046f8585610799565b81818080601f0160208091040260200160405190810160405280939291908181526020018383808284375f92019190915250969c959b5091995093975050505050505050565b60606104c183836107e9565b6104ca916110f2565b9392505050565b60606104de8484846108af565b949350505050565b60606104ca6104f583856110f2565b6108de565b6060610507848484610907565b90507f8a9ccbf2558dab41d1b5339f3605606adfb74e8845075f88406b5961c38504c0816040516104149190610e33565b60606103618585858561097d565b5f605082901c6001600160f81b0319861660ff60f01b600887901c1617603085901c63ffffffff60b01b161717610361565b5f36816105886014828688611204565b6105919161122b565b60601c92506105a38460148188611204565b915091509250925092565b5f805f806105bc855f6109af565b6105c78660016109af565b6105d28760066109e7565b6105dd88600a610a1f565b93509350935093509193509193565b6060365f6105fa86866107e9565b90925090508067ffffffffffffffff81111561061857610618611084565b60405190808252806020026020018201604052801561064b57816020015b60608152602001906001900390816106365790505b5092505f5b81811015610713576106ee818685858581811061066f5761066f611260565b90506020028101906106819190611274565b61068f906020810190611292565b8686868181106106a1576106a1611260565b90506020028101906106b39190611274565b602001358787878181106106c9576106c9611260565b90506020028101906106db9190611274565b6106e99060408101906112ab565b610a5a565b84828151811061070057610700611260565b6020908102919091010152600101610650565b5050509392505050565b60605f80365f61072d8888610799565b6040805160018082528183019092529498509296509094509250816020015b606081526020019060019003908161074c5790505094506107715f8786868686610a5a565b855f8151811061078357610783611260565b6020026020010181905250505050509392505050565b5f8036816107aa6014828789611204565b6107b39161122b565b60601c93506107c6603460148789611204565b6107cf916112ee565b92506107de8560348189611204565b949793965094505050565b365f82602081101561080e5760405163eb0bcc5d60e01b815260040160405180910390fd5b5f61081c6020828789611204565b610825916112ee565b9050601f19820181111561084c5760405163eb0bcc5d60e01b815260040160405180910390fd5b5f61085c6020830183888a611204565b610865916112ee565b905067ffffffffffffffff811180610884575080602002602083850303105b156108a25760405163eb0bcc5d60e01b815260040160405180910390fd5b9501602001959350505050565b60608383836040516020016108c69392919061130b565b60405160208183030381529060405290509392505050565b6060816040516020016108f19190610ebb565b6040516020818303038152906040529050919050565b60605f365f6109168787610578565b6040805160018082528183019092529396509194509250816020015b60608152602001906001900390816109325790505093506109565f86858585610ad6565b845f8151811061096857610968611260565b60200260200101819052505050509392505050565b6060848484846040516020016109969493929190611336565b6040516020818303038152906040529050949350505050565b5f601f8260ff1611156109d557604051631dd4bb1b60e11b815260040160405180910390fd5b506008021b6001600160f81b03191690565b5f601c8260ff161115610a0d57604051631dd4bb1b60e11b815260040160405180910390fd5b506008021b6001600160e01b03191690565b5f600a8260ff161115610a4557604051631dd4bb1b60e11b815260040160405180910390fd5b506008021b69ffffffffffffffffffff191690565b60605f80866001600160a01b0316868686604051610a79929190611368565b5f6040518083038185875af1925050503d805f8114610ab3576040519150601f19603f3d011682016040523d82523d5f602084013e610ab8565b606091505b5091509150610ac989898484610b4e565b9998505050505050505050565b60605f80856001600160a01b03168585604051610af4929190611368565b5f60405180830381855af49150503d805f8114610b2c576040519150601f19603f3d011682016040523d82523d5f602084013e610b31565b606091505b5091509150610b4288888484610b4e565b98975050505050505050565b6060610b5a845f610bf7565b15610b6f57610b698383610c0e565b50610bef565b610b7d84600160f81b610bf7565b15610bc65782610bc1577f2eea2f51f83910481f4b5ba28b7003a6e045d4b59f67dfff8d4c9011940500898583604051610bb8929190611377565b60405180910390a15b610bef565b6040516323a2408560e01b81526001600160f81b03198516600482015260240160405180910390fd5b509392505050565b6001600160f81b0319828116908216145b92915050565b606082610c2357610c1e82610c2a565b610c08565b5080610c08565b805115610c3a5780518082602001fd5b60405163d6bda27560e01b815260040160405180910390fd5b50565b6001600160f81b031981168114610c53575f80fd5b5f805f8060808587031215610c7e575f80fd5b8435610c8981610c56565b93506020850135610c9981610c56565b925060408501356001600160e01b031981168114610cb5575f80fd5b9150606085013569ffffffffffffffffffff1981168114610cd4575f80fd5b939692955090935050565b5f8083601f840112610cef575f80fd5b50813567ffffffffffffffff811115610d06575f80fd5b602083019150836020828501011115610d1d575f80fd5b9250929050565b5f8060208385031215610d35575f80fd5b823567ffffffffffffffff811115610d4b575f80fd5b610d5785828601610cdf565b90969095509350505050565b5f81518084525f5b81811015610d8757602081850181015186830182015201610d6b565b505f602082860101526020601f19601f83011685010191505092915050565b6001600160a01b03831681526040602082018190525f906104de90830184610d63565b5f60208284031215610dd9575f80fd5b5035919050565b5f805f60408486031215610df2575f80fd5b833567ffffffffffffffff811115610e08575f80fd5b610e1486828701610cdf565b9094509250506020840135610e2881610c56565b809150509250925092565b5f60208083016020845280855180835260408601915060408160051b8701019250602087015f5b82811015610e8857603f19888603018452610e76858351610d63565b94509285019290850190600101610e5a565b5092979650505050505050565b60018060a01b0384168152826020820152606060408201525f6103616060830184610d63565b5f60208083018184528085518083526040925060408601915060408160051b8701018488015f5b83811015610f3557888303603f19018552815180516001600160a01b0316845287810151888501528601516060878501819052610f2181860183610d63565b968901969450505090860190600101610ee2565b509098975050505050505050565b80356001600160a01b0381168114610f59575f80fd5b919050565b5f805f60408486031215610f70575f80fd5b610f7984610f43565b9250602084013567ffffffffffffffff811115610f94575f80fd5b610fa086828701610cdf565b9497909650939450505050565b602081525f6104ca6020830184610d63565b5f8060208385031215610fd0575f80fd5b823567ffffffffffffffff80821115610fe7575f80fd5b818501915085601f830112610ffa575f80fd5b813581811115611008575f80fd5b8660208260051b850101111561101c575f80fd5b60209290920196919550909350505050565b5f805f8060608587031215611041575f80fd5b61104a85610f43565b935060208501359250604085013567ffffffffffffffff81111561106c575f80fd5b61107887828801610cdf565b95989497509550505050565b634e487b7160e01b5f52604160045260245ffd5b6040516060810167ffffffffffffffff811182821017156110bb576110bb611084565b60405290565b604051601f8201601f1916810167ffffffffffffffff811182821017156110ea576110ea611084565b604052919050565b5f67ffffffffffffffff8084111561110c5761110c611084565b8360051b602061111d8183016110c1565b868152918501918181019036841115611134575f80fd5b865b848110156111f85780358681111561114c575f80fd5b8801606036829003121561115e575f80fd5b611166611098565b61116f82610f43565b815285820135868201526040808301358981111561118b575f80fd5b9290920191601f368185011261119f575f80fd5b83358a8111156111b1576111b1611084565b6111c2818301601f19168a016110c1565b915080825236898287010111156111d7575f80fd5b808986018a8401375f90820189015290820152845250918301918301611136565b50979650505050505050565b5f8085851115611212575f80fd5b8386111561121e575f80fd5b5050820193919092039150565b6bffffffffffffffffffffffff1981358181169160148510156112585780818660140360031b1b83161692505b505092915050565b634e487b7160e01b5f52603260045260245ffd5b5f8235605e19833603018112611288575f80fd5b9190910192915050565b5f602082840312156112a2575f80fd5b6104ca82610f43565b5f808335601e198436030181126112c0575f80fd5b83018035915067ffffffffffffffff8211156112da575f80fd5b602001915036819003821315610d1d575f80fd5b80356020831015610c08575f19602084900360031b1b1692915050565b6bffffffffffffffffffffffff198460601b168152818360148301375f910160140190815292915050565b6bffffffffffffffffffffffff198560601b168152836014820152818360348301375f91016034019081529392505050565b818382375f9101908152919050565b828152604060208201525f6104de6040830184610d6356fea2646970667358221220164035efb9a7392eb6eb02cdeb5114323fea1e2e4ad4327b425f36ed53eaa47c64736f6c63430008180033",
  "linkReferences": {},
  "deployedLinkReferences": {}
}