{
  "_format": "hh-sol-artifact-1",
  "contractName": "$ERC721Royalty",
  "sourceName": "contracts-exposed/token/ERC721/extensions/ERC721Royalty.sol",
  "abi": [
    {
      "inputs": [
        {
          "internalType": "string",
          "name": "name_",
          "type": "string"
        },
        {
          "internalType": "string",
          "name": "symbol_",
          "type": "string"
        }
      ],
      "stateMutability": "payable",
      "type": "constructor"
    },
    {
      "inputs": [
        {
          "internalType": "uint256",
          "name": "numerator",
          "type": "uint256"
        },
        {
          "internalType": "uint256",
          "name": "denominator",
          "type": "uint256"
        }
      ],
      "name": "ERC2981InvalidDefaultRoyalty",
      "type": "error"
    },
    {
      "inputs": [
        {
          "internalType": "address",
          "name": "receiver",
          "type": "address"
        }
      ],
      "name": "ERC2981InvalidDefaultRoyaltyReceiver",
      "type": "error"
    },
    {
      "inputs": [
        {
          "internalType": "uint256",
          "name": "tokenId",
          "type": "uint256"
        },
        {
          "internalType": "uint256",
          "name": "numerator",
          "type": "uint256"
        },
        {
          "internalType": "uint256",
          "name": "denominator",
          "type": "uint256"
        }
      ],
      "name": "ERC2981InvalidTokenRoyalty",
      "type": "error"
    },
    {
      "inputs": [
        {
          "internalType": "uint256",
          "name": "tokenId",
          "type": "uint256"
        },
        {
          "internalType": "address",
          "name": "receiver",
          "type": "address"
        }
      ],
      "name": "ERC2981InvalidTokenRoyaltyReceiver",
      "type": "error"
    },
    {
      "inputs": [
        {
          "internalType": "address",
          "name": "sender",
          "type": "address"
        },
        {
          "internalType": "uint256",
          "name": "tokenId",
          "type": "uint256"
        },
        {
          "internalType": "address",
          "name": "owner",
          "type": "address"
        }
      ],
      "name": "ERC721IncorrectOwner",
      "type": "error"
    },
    {
      "inputs": [
        {
          "internalType": "address",
          "name": "operator",
          "type": "address"
        },
        {
          "internalType": "uint256",
          "name": "tokenId",
          "type": "uint256"
        }
      ],
      "name": "ERC721InsufficientApproval",
      "type": "error"
    },
    {
      "inputs": [
        {
          "internalType": "address",
          "name": "approver",
          "type": "address"
        }
      ],
      "name": "ERC721InvalidApprover",
      "type": "error"
    },
    {
      "inputs": [
        {
          "internalType": "address",
          "name": "operator",
          "type": "address"
        }
      ],
      "name": "ERC721InvalidOperator",
      "type": "error"
    },
    {
      "inputs": [
        {
          "internalType": "address",
          "name": "owner",
          "type": "address"
        }
      ],
      "name": "ERC721InvalidOwner",
      "type": "error"
    },
    {
      "inputs": [
        {
          "internalType": "address",
          "name": "receiver",
          "type": "address"
        }
      ],
      "name": "ERC721InvalidReceiver",
      "type": "error"
    },
    {
      "inputs": [
        {
          "internalType": "address",
          "name": "sender",
          "type": "address"
        }
      ],
      "name": "ERC721InvalidSender",
      "type": "error"
    },
    {
      "inputs": [
        {
          "internalType": "uint256",
          "name": "tokenId",
          "type": "uint256"
        }
      ],
      "name": "ERC721NonexistentToken",
      "type": "error"
    },
    {
      "anonymous": false,
      "inputs": [
        {
          "indexed": true,
          "internalType": "address",
          "name": "owner",
          "type": "address"
        },
        {
          "indexed": true,
          "internalType": "address",
          "name": "approved",
          "type": "address"
        },
        {
          "indexed": true,
          "internalType": "uint256",
          "name": "tokenId",
          "type": "uint256"
        }
      ],
      "name": "Approval",
      "type": "event"
    },
    {
      "anonymous": false,
      "inputs": [
        {
          "indexed": true,
          "internalType": "address",
          "name": "owner",
          "type": "address"
        },
        {
          "indexed": true,
          "internalType": "address",
          "name": "operator",
          "type": "address"
        },
        {
          "indexed": false,
          "internalType": "bool",
          "name": "approved",
          "type": "bool"
        }
      ],
      "name": "ApprovalForAll",
      "type": "event"
    },
    {
      "anonymous": false,
      "inputs": [
        {
          "indexed": true,
          "internalType": "address",
          "name": "from",
          "type": "address"
        },
        {
          "indexed": true,
          "internalType": "address",
          "name": "to",
          "type": "address"
        },
        {
          "indexed": true,
          "internalType": "uint256",
          "name": "tokenId",
          "type": "uint256"
        }
      ],
      "name": "Transfer",
      "type": "event"
    },
    {
      "anonymous": false,
      "inputs": [
        {
          "indexed": false,
          "internalType": "address",
          "name": "ret0",
          "type": "address"
        }
      ],
      "name": "return$_update",
      "type": "event"
    },
    {
      "inputs": [
        {
          "internalType": "address",
          "name": "to",
          "type": "address"
        },
        {
          "internalType": "uint256",
          "name": "tokenId",
          "type": "uint256"
        },
        {
          "internalType": "address",
          "name": "auth",
          "type": "address"
        },
        {
          "internalType": "bool",
          "name": "emitEvent",
          "type": "bool"
        }
      ],
      "name": "$_approve",
      "outputs": [],
      "stateMutability": "nonpayable",
      "type": "function"
    },
    {
      "inputs": [
        {
          "internalType": "address",
          "name": "to",
          "type": "address"
        },
        {
          "internalType": "uint256",
          "name": "tokenId",
          "type": "uint256"
        },
        {
          "internalType": "address",
          "name": "auth",
          "type": "address"
        }
      ],
      "name": "$_approve",
      "outputs": [],
      "stateMutability": "nonpayable",
      "type": "function"
    },
    {
      "inputs": [],
      "name": "$_baseURI",
      "outputs": [
        {
          "internalType": "string",
          "name": "ret0",
          "type": "string"
        }
      ],
      "stateMutability": "view",
      "type": "function"
    },
    {
      "inputs": [
        {
          "internalType": "uint256",
          "name": "tokenId",
          "type": "uint256"
        }
      ],
      "name": "$_burn",
      "outputs": [],
      "stateMutability": "nonpayable",
      "type": "function"
    },
    {
      "inputs": [
        {
          "internalType": "address",
          "name": "owner",
          "type": "address"
        },
        {
          "internalType": "address",
          "name": "spender",
          "type": "address"
        },
        {
          "internalType": "uint256",
          "name": "tokenId",
          "type": "uint256"
        }
      ],
      "name": "$_checkAuthorized",
      "outputs": [],
      "stateMutability": "view",
      "type": "function"
    },
    {
      "inputs": [],
      "name": "$_contextSuffixLength",
      "outputs": [
        {
          "internalType": "uint256",
          "name": "ret0",
          "type": "uint256"
        }
      ],
      "stateMutability": "view",
      "type": "function"
    },
    {
      "inputs": [],
      "name": "$_deleteDefaultRoyalty",
      "outputs": [],
      "stateMutability": "nonpayable",
      "type": "function"
    },
    {
      "inputs": [],
      "name": "$_feeDenominator",
      "outputs": [
        {
          "internalType": "uint96",
          "name": "ret0",
          "type": "uint96"
        }
      ],
      "stateMutability": "pure",
      "type": "function"
    },
    {
      "inputs": [
        {
          "internalType": "uint256",
          "name": "tokenId",
          "type": "uint256"
        }
      ],
      "name": "$_getApproved",
      "outputs": [
        {
          "internalType": "address",
          "name": "ret0",
          "type": "address"
        }
      ],
      "stateMutability": "view",
      "type": "function"
    },
    {
      "inputs": [
        {
          "internalType": "address",
          "name": "account",
          "type": "address"
        },
        {
          "internalType": "uint128",
          "name": "value",
          "type": "uint128"
        }
      ],
      "name": "$_increaseBalance",
      "outputs": [],
      "stateMutability": "nonpayable",
      "type": "function"
    },
    {
      "inputs": [
        {
          "internalType": "address",
          "name": "owner",
          "type": "address"
        },
        {
          "internalType": "address",
          "name": "spender",
          "type": "address"
        },
        {
          "internalType": "uint256",
          "name": "tokenId",
          "type": "uint256"
        }
      ],
      "name": "$_isAuthorized",
      "outputs": [
        {
          "internalType": "bool",
          "name": "ret0",
          "type": "bool"
        }
      ],
      "stateMutability": "view",
      "type": "function"
    },
    {
      "inputs": [
        {
          "internalType": "address",
          "name": "to",
          "type": "address"
        },
        {
          "internalType": "uint256",
          "name": "tokenId",
          "type": "uint256"
        }
      ],
      "name": "$_mint",
      "outputs": [],
      "stateMutability": "nonpayable",
      "type": "function"
    },
    {
      "inputs": [],
      "name": "$_msgData",
      "outputs": [
        {
          "internalType": "bytes",
          "name": "ret0",
          "type": "bytes"
        }
      ],
      "stateMutability": "view",
      "type": "function"
    },
    {
      "inputs": [],
      "name": "$_msgSender",
      "outputs": [
        {
          "internalType": "address",
          "name": "ret0",
          "type": "address"
        }
      ],
      "stateMutability": "view",
      "type": "function"
    },
    {
      "inputs": [
        {
          "internalType": "uint256",
          "name": "tokenId",
          "type": "uint256"
        }
      ],
      "name": "$_ownerOf",
      "outputs": [
        {
          "internalType": "address",
          "name": "ret0",
          "type": "address"
        }
      ],
      "stateMutability": "view",
      "type": "function"
    },
    {
      "inputs": [
        {
          "internalType": "uint256",
          "name": "tokenId",
          "type": "uint256"
        }
      ],
      "name": "$_requireOwned",
      "outputs": [
        {
          "internalType": "address",
          "name": "ret0",
          "type": "address"
        }
      ],
      "stateMutability": "view",
      "type": "function"
    },
    {
      "inputs": [
        {
          "internalType": "uint256",
          "name": "tokenId",
          "type": "uint256"
        }
      ],
      "name": "$_resetTokenRoyalty",
      "outputs": [],
      "stateMutability": "nonpayable",
      "type": "function"
    },
    {
      "inputs": [
        {
          "internalType": "address",
          "name": "to",
          "type": "address"
        },
        {
          "internalType": "uint256",
          "name": "tokenId",
          "type": "uint256"
        },
        {
          "internalType": "bytes",
          "name": "data",
          "type": "bytes"
        }
      ],
      "name": "$_safeMint",
      "outputs": [],
      "stateMutability": "nonpayable",
      "type": "function"
    },
    {
      "inputs": [
        {
          "internalType": "address",
          "name": "to",
          "type": "address"
        },
        {
          "internalType": "uint256",
          "name": "tokenId",
          "type": "uint256"
        }
      ],
      "name": "$_safeMint",
      "outputs": [],
      "stateMutability": "nonpayable",
      "type": "function"
    },
    {
      "inputs": [
        {
          "internalType": "address",
          "name": "from",
          "type": "address"
        },
        {
          "internalType": "address",
          "name": "to",
          "type": "address"
        },
        {
          "internalType": "uint256",
          "name": "tokenId",
          "type": "uint256"
        },
        {
          "internalType": "bytes",
          "name": "data",
          "type": "bytes"
        }
      ],
      "name": "$_safeTransfer",
      "outputs": [],
      "stateMutability": "nonpayable",
      "type": "function"
    },
    {
      "inputs": [
        {
          "internalType": "address",
          "name": "from",
          "type": "address"
        },
        {
          "internalType": "address",
          "name": "to",
          "type": "address"
        },
        {
          "internalType": "uint256",
          "name": "tokenId",
          "type": "uint256"
        }
      ],
      "name": "$_safeTransfer",
      "outputs": [],
      "stateMutability": "nonpayable",
      "type": "function"
    },
    {
      "inputs": [
        {
          "internalType": "address",
          "name": "owner",
          "type": "address"
        },
        {
          "internalType": "address",
          "name": "operator",
          "type": "address"
        },
        {
          "internalType": "bool",
          "name": "approved",
          "type": "bool"
        }
      ],
      "name": "$_setApprovalForAll",
      "outputs": [],
      "stateMutability": "nonpayable",
      "type": "function"
    },
    {
      "inputs": [
        {
          "internalType": "address",
          "name": "receiver",
          "type": "address"
        },
        {
          "internalType": "uint96",
          "name": "feeNumerator",
          "type": "uint96"
        }
      ],
      "name": "$_setDefaultRoyalty",
      "outputs": [],
      "stateMutability": "nonpayable",
      "type": "function"
    },
    {
      "inputs": [
        {
          "internalType": "uint256",
          "name": "tokenId",
          "type": "uint256"
        },
        {
          "internalType": "address",
          "name": "receiver",
          "type": "address"
        },
        {
          "internalType": "uint96",
          "name": "feeNumerator",
          "type": "uint96"
        }
      ],
      "name": "$_setTokenRoyalty",
      "outputs": [],
      "stateMutability": "nonpayable",
      "type": "function"
    },
    {
      "inputs": [
        {
          "internalType": "address",
          "name": "from",
          "type": "address"
        },
        {
          "internalType": "address",
          "name": "to",
          "type": "address"
        },
        {
          "internalType": "uint256",
          "name": "tokenId",
          "type": "uint256"
        }
      ],
      "name": "$_transfer",
      "outputs": [],
      "stateMutability": "nonpayable",
      "type": "function"
    },
    {
      "inputs": [
        {
          "internalType": "address",
          "name": "to",
          "type": "address"
        },
        {
          "internalType": "uint256",
          "name": "tokenId",
          "type": "uint256"
        },
        {
          "internalType": "address",
          "name": "auth",
          "type": "address"
        }
      ],
      "name": "$_update",
      "outputs": [
        {
          "internalType": "address",
          "name": "ret0",
          "type": "address"
        }
      ],
      "stateMutability": "nonpayable",
      "type": "function"
    },
    {
      "inputs": [],
      "name": "__hh_exposed_bytecode_marker",
      "outputs": [
        {
          "internalType": "bytes32",
          "name": "",
          "type": "bytes32"
        }
      ],
      "stateMutability": "view",
      "type": "function"
    },
    {
      "inputs": [
        {
          "internalType": "address",
          "name": "to",
          "type": "address"
        },
        {
          "internalType": "uint256",
          "name": "tokenId",
          "type": "uint256"
        }
      ],
      "name": "approve",
      "outputs": [],
      "stateMutability": "nonpayable",
      "type": "function"
    },
    {
      "inputs": [
        {
          "internalType": "address",
          "name": "owner",
          "type": "address"
        }
      ],
      "name": "balanceOf",
      "outputs": [
        {
          "internalType": "uint256",
          "name": "",
          "type": "uint256"
        }
      ],
      "stateMutability": "view",
      "type": "function"
    },
    {
      "inputs": [
        {
          "internalType": "uint256",
          "name": "tokenId",
          "type": "uint256"
        }
      ],
      "name": "getApproved",
      "outputs": [
        {
          "internalType": "address",
          "name": "",
          "type": "address"
        }
      ],
      "stateMutability": "view",
      "type": "function"
    },
    {
      "inputs": [
        {
          "internalType": "address",
          "name": "owner",
          "type": "address"
        },
        {
          "internalType": "address",
          "name": "operator",
          "type": "address"
        }
      ],
      "name": "isApprovedForAll",
      "outputs": [
        {
          "internalType": "bool",
          "name": "",
          "type": "bool"
        }
      ],
      "stateMutability": "view",
      "type": "function"
    },
    {
      "inputs": [],
      "name": "name",
      "outputs": [
        {
          "internalType": "string",
          "name": "",
          "type": "string"
        }
      ],
      "stateMutability": "view",
      "type": "function"
    },
    {
      "inputs": [
        {
          "internalType": "uint256",
          "name": "tokenId",
          "type": "uint256"
        }
      ],
      "name": "ownerOf",
      "outputs": [
        {
          "internalType": "address",
          "name": "",
          "type": "address"
        }
      ],
      "stateMutability": "view",
      "type": "function"
    },
    {
      "inputs": [
        {
          "internalType": "uint256",
          "name": "tokenId",
          "type": "uint256"
        },
        {
          "internalType": "uint256",
          "name": "salePrice",
          "type": "uint256"
        }
      ],
      "name": "royaltyInfo",
      "outputs": [
        {
          "internalType": "address",
          "name": "receiver",
          "type": "address"
        },
        {
          "internalType": "uint256",
          "name": "amount",
          "type": "uint256"
        }
      ],
      "stateMutability": "view",
      "type": "function"
    },
    {
      "inputs": [
        {
          "internalType": "address",
          "name": "from",
          "type": "address"
        },
        {
          "internalType": "address",
          "name": "to",
          "type": "address"
        },
        {
          "internalType": "uint256",
          "name": "tokenId",
          "type": "uint256"
        }
      ],
      "name": "safeTransferFrom",
      "outputs": [],
      "stateMutability": "nonpayable",
      "type": "function"
    },
    {
      "inputs": [
        {
          "internalType": "address",
          "name": "from",
          "type": "address"
        },
        {
          "internalType": "address",
          "name": "to",
          "type": "address"
        },
        {
          "internalType": "uint256",
          "name": "tokenId",
          "type": "uint256"
        },
        {
          "internalType": "bytes",
          "name": "data",
          "type": "bytes"
        }
      ],
      "name": "safeTransferFrom",
      "outputs": [],
      "stateMutability": "nonpayable",
      "type": "function"
    },
    {
      "inputs": [
        {
          "internalType": "address",
          "name": "operator",
          "type": "address"
        },
        {
          "internalType": "bool",
          "name": "approved",
          "type": "bool"
        }
      ],
      "name": "setApprovalForAll",
      "outputs": [],
      "stateMutability": "nonpayable",
      "type": "function"
    },
    {
      "inputs": [
        {
          "internalType": "bytes4",
          "name": "interfaceId",
          "type": "bytes4"
        }
      ],
      "name": "supportsInterface",
      "outputs": [
        {
          "internalType": "bool",
          "name": "",
          "type": "bool"
        }
      ],
      "stateMutability": "view",
      "type": "function"
    },
    {
      "inputs": [],
      "name": "symbol",
      "outputs": [
        {
          "internalType": "string",
          "name": "",
          "type": "string"
        }
      ],
      "stateMutability": "view",
      "type": "function"
    },
    {
      "inputs": [
        {
          "internalType": "uint256",
          "name": "tokenId",
          "type": "uint256"
        }
      ],
      "name": "tokenURI",
      "outputs": [
        {
          "internalType": "string",
          "name": "",
          "type": "string"
        }
      ],
      "stateMutability": "view",
      "type": "function"
    },
    {
      "inputs": [
        {
          "internalType": "address",
          "name": "from",
          "type": "address"
        },
        {
          "internalType": "address",
          "name": "to",
          "type": "address"
        },
        {
          "internalType": "uint256",
          "name": "tokenId",
          "type": "uint256"
        }
      ],
      "name": "transferFrom",
      "outputs": [],
      "stateMutability": "nonpayable",
      "type": "function"
    },
    {
      "stateMutability": "payable",
      "type": "receive"
    }
  ],
  "bytecode": "0x608060405260405162001f5238038062001f52833981016040819052620000269162000111565b8181600262000036838262000201565b50600362000045828262000201565b5050505050620002cd565b634e487b7160e01b5f52604160045260245ffd5b5f82601f83011262000074575f80fd5b81516001600160401b038082111562000091576200009162000050565b604051601f8301601f19908116603f01168101908282118183101715620000bc57620000bc62000050565b8160405283815260209250866020858801011115620000d9575f80fd5b5f91505b83821015620000fc5785820183015181830184015290820190620000dd565b5f602085830101528094505050505092915050565b5f806040838503121562000123575f80fd5b82516001600160401b03808211156200013a575f80fd5b620001488683870162000064565b935060208501519150808211156200015e575f80fd5b506200016d8582860162000064565b9150509250929050565b600181811c908216806200018c57607f821691505b602082108103620001ab57634e487b7160e01b5f52602260045260245ffd5b50919050565b601f821115620001fc57805f5260205f20601f840160051c81016020851015620001d85750805b601f840160051c820191505b81811015620001f9575f8155600101620001e4565b50505b505050565b81516001600160401b038111156200021d576200021d62000050565b62000235816200022e845462000177565b84620001b1565b602080601f8311600181146200026b575f8415620002535750858301515b5f19600386901b1c1916600185901b178555620002c5565b5f85815260208120601f198616915b828110156200029b578886015182559484019460019091019084016200027a565b5085821015620002b957878501515f19600388901b60f8161c191681555b505060018460011b0185555b505050505050565b611c7780620002db5f395ff3fe608060405260043610610241575f3560e01c80637a7be03611610134578063b88d4fde116100b3578063d261af5411610078578063d261af54146106b5578063d8483834146106d4578063da696ff1146106f3578063e3cb9a4a14610712578063e985e9c514610731578063efb43b0714610750575f80fd5b8063b88d4fde14610639578063c670720114610483578063c87b56dd14610658578063cc461d6214610677578063cfeea0d414610696575f80fd5b806395d89b41116100f957806395d89b41146105b45780639ff2f02d146105c8578063a22cb465146105e7578063a2373a8214610606578063b3b673c814610625575f80fd5b80637a7be036146105115780637ac8fa3a1461053057806387ce502f1461055a5780638bf12a761461057957806390104b8414610595575f80fd5b806332cadf3c116101c05780636352211e116101855780636352211e1461048357806367354a84146104a25780636884d58b146104b457806370a08231146104d3578063733555ec146104f2575f80fd5b806332cadf3c146103df578063342db739146103f35780633451b14d1461042657806342842e0e14610445578063458ee00214610464575f80fd5b8063161e977d11610206578063161e977d1461033d57806323b872dd146103515780632904df29146103705780632a55205a1461038257806330f3b0b5146103c0575f80fd5b806301ffc9a71461024c57806306fdde0314610280578063081812fc146102a1578063095ea7b3146102d8578063113efe1a146102f9575f80fd5b3661024857005b5f80fd5b348015610257575f80fd5b5061026b610266366004611645565b61076f565b60405190151581526020015b60405180910390f35b34801561028b575f80fd5b5061029461077f565b60405161027791906116ad565b3480156102ac575f80fd5b506102c06102bb3660046116bf565b61080f565b6040516001600160a01b039091168152602001610277565b3480156102e3575f80fd5b506102f76102f23660046116f1565b610836565b005b348015610304575f80fd5b506102f7610313366004611719565b6001600160a01b0382165f90815260056020526040902080546001600160801b0383160190555050565b348015610348575f80fd5b50610294610845565b34801561035c575f80fd5b506102f761036b366004611759565b610860565b34801561037b575f80fd5b50336102c0565b34801561038d575f80fd5b506103a161039c366004611792565b6108ee565b604080516001600160a01b039093168352602083019190915201610277565b3480156103cb575f80fd5b506102f76103da3660046117c1565b610972565b3480156103ea575f80fd5b5061029461097e565b3480156103fe575f80fd5b506104186e1a185c991a185d0b595e1c1bdcd959608a1b81565b604051908152602001610277565b348015610431575f80fd5b506102c06104403660046116bf565b6109bb565b348015610450575f80fd5b506102f761045f366004611759565b6109d7565b34801561046f575f80fd5b506102c061047e3660046116bf565b6109f6565b34801561048e575f80fd5b506102c061049d3660046116bf565b610a12565b3480156104ad575f80fd5b505f610418565b3480156104bf575f80fd5b506102f76104ce366004611759565b610a1c565b3480156104de575f80fd5b506104186104ed36600461180b565b610a27565b3480156104fd575f80fd5b506102f761050c366004611862565b610a6c565b34801561051c575f80fd5b5061026b61052b366004611759565b610ab4565b34801561053b575f80fd5b506102f761054a3660046116bf565b5f90815260016020526040812055565b348015610565575f80fd5b506102f76105743660046118e2565b610acb565b348015610584575f80fd5b506040516127108152602001610277565b3480156105a0575f80fd5b506102f76105af36600461191b565b610ad6565b3480156105bf575f80fd5b50610294610ae1565b3480156105d3575f80fd5b506102f76105e236600461194b565b610af0565b3480156105f2575f80fd5b506102f76106013660046119a1565b610b30565b348015610611575f80fd5b506102f76106203660046116bf565b610b3b565b348015610630575f80fd5b506102f7610b44565b348015610644575f80fd5b506102f76106533660046119e6565b610b4e565b348015610663575f80fd5b506102946106723660046116bf565b610b66565b348015610682575f80fd5b506102f76106913660046116f1565b610bd7565b3480156106a1575f80fd5b506102f76106b0366004611abb565b610be1565b3480156106c0575f80fd5b506102f76106cf3660046116f1565b610bec565b3480156106df575f80fd5b506102f76106ee366004611759565b610bf6565b3480156106fe575f80fd5b506102f761070d366004611af2565b610c01565b34801561071d575f80fd5b506102c061072c36600461191b565b610c0b565b34801561073c575f80fd5b5061026b61074b366004611b1a565b610c5d565b34801561075b575f80fd5b506102f761076a366004611759565b610c8a565b5f61077982610c95565b92915050565b60606002805461078e90611b42565b80601f01602080910402602001604051908101604052809291908181526020018280546107ba90611b42565b80156108055780601f106107dc57610100808354040283529160200191610805565b820191905f5260205f20905b8154815290600101906020018083116107e857829003601f168201915b5050505050905090565b5f61081982610cd4565b505f828152600660205260409020546001600160a01b0316610779565b610841828233610d0c565b5050565b606061085b60408051602081019091525f815290565b905090565b6001600160a01b03821661088e57604051633250574960e11b81525f60048201526024015b60405180910390fd5b5f61089a838333610d19565b9050836001600160a01b0316816001600160a01b0316146108e8576040516364283d7b60e01b81526001600160a01b0380861660048301526024820184905282166044820152606401610885565b50505050565b5f82815260016020526040812080548291906001600160a01b03811690600160a01b90046001600160601b0316816109405750505f546001600160a01b03811690600160a01b90046001600160601b03165b5f6127106109576001600160601b03841689611b7a565b6109619190611b9d565b9295509193505050505b9250929050565b6108e884848484610e0b565b60605f368080601f0160208091040260200160405190810160405280939291908181526020018383808284375f9201919091525092949350505050565b5f818152600660205260408120546001600160a01b0316610779565b6109f183838360405180602001604052805f815250610b4e565b505050565b5f818152600460205260408120546001600160a01b0316610779565b5f61077982610cd4565b6109f1838383610f0f565b5f6001600160a01b038216610a51576040516322718ad960e21b81525f6004820152602401610885565b506001600160a01b03165f9081526005602052604090205490565b610aad85858585858080601f0160208091040260200160405190810160405280939291908181526020018383808284375f92019190915250610f7392505050565b5050505050565b5f610ac0848484610f7e565b949350505050565b50565b6109f1838383610fdf565b6109f1838383610d0c565b60606003805461078e90611b42565b6108e8848484848080601f0160208091040260200160405190810160405280939291908181526020018383808284375f9201919091525061109f92505050565b6108413383836110b6565b610ac881611154565b610b4c5f8055565b565b610b59848484610860565b6108e8338585858561118c565b6060610b7182610cd4565b505f610b8760408051602081019091525f815290565b90505f815111610ba55760405180602001604052805f815250610bd0565b80610baf846112b3565b604051602001610bc0929190611bbc565b6040516020818303038152906040525b9392505050565b6108418282611343565b6109f18383836110b6565b61084182826113a4565b6109f18383836113bd565b61084182826113d7565b5f610c17848484610d19565b6040516001600160a01b03821681529091507ffc55619107f02333de2d9626fe994a6b9d0734bee4722e17698d6fa1b06c52009060200160405180910390a19392505050565b6001600160a01b039182165f90815260076020908152604080832093909416825291909152205460ff1690565b6109f1838383611478565b5f6001600160e01b031982166380ac58cd60e01b1480610cc557506001600160e01b03198216635b5e139f60e01b145b80610779575061077982611525565b5f818152600460205260408120546001600160a01b03168061077957604051637e27328960e01b815260048101849052602401610885565b6109f18383836001610e0b565b5f828152600460205260408120546001600160a01b0390811690831615610d4557610d45818486610f0f565b6001600160a01b03811615610d7f57610d605f855f80610e0b565b6001600160a01b0381165f90815260056020526040902080545f190190555b6001600160a01b03851615610dad576001600160a01b0385165f908152600560205260409020805460010190555b5f8481526004602052604080822080546001600160a01b0319166001600160a01b0389811691821790925591518793918516917fddf252ad1be2c89b69c2b068fc378daa952ba7f163c4a11628f55a4df523b3ef91a4949350505050565b8080610e1f57506001600160a01b03821615155b15610ee0575f610e2e84610cd4565b90506001600160a01b03831615801590610e5a5750826001600160a01b0316816001600160a01b031614155b8015610e6d5750610e6b8184610c5d565b155b15610e965760405163a9fbf51f60e01b81526001600160a01b0384166004820152602401610885565b8115610ede5783856001600160a01b0316826001600160a01b03167f8c5be1e5ebec7d5bd14f71427d1e84f3dd0314c0f7b2291e5b200ac8c7c3b92560405160405180910390a45b505b50505f90815260066020526040902080546001600160a01b0319166001600160a01b0392909216919091179055565b610f1a838383610f7e565b6109f1576001600160a01b038316610f4857604051637e27328960e01b815260048101829052602401610885565b60405163177e802f60e01b81526001600160a01b038316600482015260248101829052604401610885565b610b59848484611478565b5f6001600160a01b03831615801590610ac05750826001600160a01b0316846001600160a01b03161480610fb75750610fb78484610c5d565b80610ac05750505f908152600660205260409020546001600160a01b03908116911614919050565b6127106001600160601b0382168110156110255760405163dfd1fc1b60e01b8152600481018590526001600160601b038316602482015260448101829052606401610885565b6001600160a01b03831661105557604051634b4f842960e11b8152600481018590525f6024820152604401610885565b506040805180820182526001600160a01b0393841681526001600160601b0392831660208083019182525f968752600190529190942093519051909116600160a01b029116179055565b6110a98383611343565b6109f1335f85858561118c565b6001600160a01b0382166110e857604051630b61174360e31b81526001600160a01b0383166004820152602401610885565b6001600160a01b038381165f81815260076020908152604080832094871680845294825291829020805460ff191686151590811790915591519182527f17307eab39ab6107e8899845ad3d59bd9653f200f220920489ca2b5937696c31910160405180910390a3505050565b5f6111605f835f610d19565b90506001600160a01b03811661084157604051637e27328960e01b815260048101839052602401610885565b6001600160a01b0383163b15610aad57604051630a85bd0160e11b81526001600160a01b0384169063150b7a02906111ce908890889087908790600401611bea565b6020604051808303815f875af1925050508015611208575060408051601f3d908101601f1916820190925261120591810190611c26565b60015b61126f573d808015611235576040519150601f19603f3d011682016040523d82523d5f602084013e61123a565b606091505b5080515f0361126757604051633250574960e11b81526001600160a01b0385166004820152602401610885565b805181602001fd5b6001600160e01b03198116630a85bd0160e11b146112ab57604051633250574960e11b81526001600160a01b0385166004820152602401610885565b505050505050565b60605f6112bf83611559565b60010190505f8167ffffffffffffffff8111156112de576112de6119d2565b6040519080825280601f01601f191660200182016040528015611308576020820181803683370190505b5090508181016020015b5f19016f181899199a1a9b1b9c1cb0b131b232b360811b600a86061a8153600a850494508461131257509392505050565b6001600160a01b03821661136c57604051633250574960e11b81525f6004820152602401610885565b5f61137883835f610d19565b90506001600160a01b038116156109f1576040516339e3563760e11b81525f6004820152602401610885565b610841828260405180602001604052805f81525061109f565b6109f183838360405180602001604052805f815250610f73565b6127106001600160601b03821681101561141657604051636f483d0960e01b81526001600160601b038316600482015260248101829052604401610885565b6001600160a01b03831661143f57604051635b6cc80560e11b81525f6004820152602401610885565b50604080518082019091526001600160a01b039092168083526001600160601b039091166020909201829052600160a01b909102175f55565b6001600160a01b0382166114a157604051633250574960e11b81525f6004820152602401610885565b5f6114ad83835f610d19565b90506001600160a01b0381166114d957604051637e27328960e01b815260048101839052602401610885565b836001600160a01b0316816001600160a01b0316146108e8576040516364283d7b60e01b81526001600160a01b0380861660048301526024820184905282166044820152606401610885565b5f6001600160e01b0319821663152a902d60e11b148061077957506301ffc9a760e01b6001600160e01b0319831614610779565b5f8072184f03e93ff9f4daa797ed6e38ed64bf6a1f0160401b83106115975772184f03e93ff9f4daa797ed6e38ed64bf6a1f0160401b830492506040015b6d04ee2d6d415b85acef810000000083106115c3576d04ee2d6d415b85acef8100000000830492506020015b662386f26fc1000083106115e157662386f26fc10000830492506010015b6305f5e10083106115f9576305f5e100830492506008015b612710831061160d57612710830492506004015b6064831061161f576064830492506002015b600a83106107795760010192915050565b6001600160e01b031981168114610ac8575f80fd5b5f60208284031215611655575f80fd5b8135610bd081611630565b5f5b8381101561167a578181015183820152602001611662565b50505f910152565b5f8151808452611699816020860160208601611660565b601f01601f19169290920160200192915050565b602081525f610bd06020830184611682565b5f602082840312156116cf575f80fd5b5035919050565b80356001600160a01b03811681146116ec575f80fd5b919050565b5f8060408385031215611702575f80fd5b61170b836116d6565b946020939093013593505050565b5f806040838503121561172a575f80fd5b611733836116d6565b915060208301356001600160801b038116811461174e575f80fd5b809150509250929050565b5f805f6060848603121561176b575f80fd5b611774846116d6565b9250611782602085016116d6565b9150604084013590509250925092565b5f80604083850312156117a3575f80fd5b50508035926020909101359150565b803580151581146116ec575f80fd5b5f805f80608085870312156117d4575f80fd5b6117dd856116d6565b9350602085013592506117f2604086016116d6565b9150611800606086016117b2565b905092959194509250565b5f6020828403121561181b575f80fd5b610bd0826116d6565b5f8083601f840112611834575f80fd5b50813567ffffffffffffffff81111561184b575f80fd5b60208301915083602082850101111561096b575f80fd5b5f805f805f60808688031215611876575f80fd5b61187f866116d6565b945061188d602087016116d6565b935060408601359250606086013567ffffffffffffffff8111156118af575f80fd5b6118bb88828901611824565b969995985093965092949392505050565b80356001600160601b03811681146116ec575f80fd5b5f805f606084860312156118f4575f80fd5b83359250611904602085016116d6565b9150611912604085016118cc565b90509250925092565b5f805f6060848603121561192d575f80fd5b611936846116d6565b925060208401359150611912604085016116d6565b5f805f806060858703121561195e575f80fd5b611967856116d6565b935060208501359250604085013567ffffffffffffffff811115611989575f80fd5b61199587828801611824565b95989497509550505050565b5f80604083850312156119b2575f80fd5b6119bb836116d6565b91506119c9602084016117b2565b90509250929050565b634e487b7160e01b5f52604160045260245ffd5b5f805f80608085870312156119f9575f80fd5b611a02856116d6565b9350611a10602086016116d6565b925060408501359150606085013567ffffffffffffffff80821115611a33575f80fd5b818701915087601f830112611a46575f80fd5b813581811115611a5857611a586119d2565b604051601f8201601f19908116603f01168101908382118183101715611a8057611a806119d2565b816040528281528a6020848701011115611a98575f80fd5b826020860160208301375f60208483010152809550505050505092959194509250565b5f805f60608486031215611acd575f80fd5b611ad6846116d6565b9250611ae4602085016116d6565b9150611912604085016117b2565b5f8060408385031215611b03575f80fd5b611b0c836116d6565b91506119c9602084016118cc565b5f8060408385031215611b2b575f80fd5b611b34836116d6565b91506119c9602084016116d6565b600181811c90821680611b5657607f821691505b602082108103611b7457634e487b7160e01b5f52602260045260245ffd5b50919050565b808202811582820484141761077957634e487b7160e01b5f52601160045260245ffd5b5f82611bb757634e487b7160e01b5f52601260045260245ffd5b500490565b5f8351611bcd818460208801611660565b835190830190611be1818360208801611660565b01949350505050565b6001600160a01b03858116825284166020820152604081018390526080606082018190525f90611c1c90830184611682565b9695505050505050565b5f60208284031215611c36575f80fd5b8151610bd08161163056fea2646970667358221220b8622e59268f5ceb85f20b7a52214f8fd820daa388d12878ec93874984e25c1964736f6c63430008180033",
  "linkReferences": {},
  "deployedLinkReferences": {}
}