{
  "_format": "hh-sol-artifact-1",
  "contractName": "ERC721ConsecutiveMock",
  "sourceName": "contracts/mocks/token/ERC721ConsecutiveMock.sol",
  "abi": [
    {
      "inputs": [
        {
          "internalType": "string",
          "name": "name",
          "type": "string"
        },
        {
          "internalType": "string",
          "name": "symbol",
          "type": "string"
        },
        {
          "internalType": "uint96",
          "name": "offset",
          "type": "uint96"
        },
        {
          "internalType": "address[]",
          "name": "delegates",
          "type": "address[]"
        },
        {
          "internalType": "address[]",
          "name": "receivers",
          "type": "address[]"
        },
        {
          "internalType": "uint96[]",
          "name": "amounts",
          "type": "uint96[]"
        }
      ],
      "stateMutability": "nonpayable",
      "type": "constructor"
    },
    {
      "inputs": [],
      "name": "CheckpointUnorderedInsertion",
      "type": "error"
    },
    {
      "inputs": [],
      "name": "ECDSAInvalidSignature",
      "type": "error"
    },
    {
      "inputs": [
        {
          "internalType": "uint256",
          "name": "length",
          "type": "uint256"
        }
      ],
      "name": "ECDSAInvalidSignatureLength",
      "type": "error"
    },
    {
      "inputs": [
        {
          "internalType": "bytes32",
          "name": "s",
          "type": "bytes32"
        }
      ],
      "name": "ECDSAInvalidSignatureS",
      "type": "error"
    },
    {
      "inputs": [
        {
          "internalType": "uint256",
          "name": "timepoint",
          "type": "uint256"
        },
        {
          "internalType": "uint48",
          "name": "clock",
          "type": "uint48"
        }
      ],
      "name": "ERC5805FutureLookup",
      "type": "error"
    },
    {
      "inputs": [],
      "name": "ERC6372InconsistentClock",
      "type": "error"
    },
    {
      "inputs": [
        {
          "internalType": "uint256",
          "name": "batchSize",
          "type": "uint256"
        },
        {
          "internalType": "uint256",
          "name": "maxBatch",
          "type": "uint256"
        }
      ],
      "name": "ERC721ExceededMaxBatchMint",
      "type": "error"
    },
    {
      "inputs": [],
      "name": "ERC721ForbiddenBatchBurn",
      "type": "error"
    },
    {
      "inputs": [],
      "name": "ERC721ForbiddenBatchMint",
      "type": "error"
    },
    {
      "inputs": [],
      "name": "ERC721ForbiddenMint",
      "type": "error"
    },
    {
      "inputs": [
        {
          "internalType": "address",
          "name": "sender",
          "type": "address"
        },
        {
          "internalType": "uint256",
          "name": "tokenId",
          "type": "uint256"
        },
        {
          "internalType": "address",
          "name": "owner",
          "type": "address"
        }
      ],
      "name": "ERC721IncorrectOwner",
      "type": "error"
    },
    {
      "inputs": [
        {
          "internalType": "address",
          "name": "operator",
          "type": "address"
        },
        {
          "internalType": "uint256",
          "name": "tokenId",
          "type": "uint256"
        }
      ],
      "name": "ERC721InsufficientApproval",
      "type": "error"
    },
    {
      "inputs": [
        {
          "internalType": "address",
          "name": "approver",
          "type": "address"
        }
      ],
      "name": "ERC721InvalidApprover",
      "type": "error"
    },
    {
      "inputs": [
        {
          "internalType": "address",
          "name": "operator",
          "type": "address"
        }
      ],
      "name": "ERC721InvalidOperator",
      "type": "error"
    },
    {
      "inputs": [
        {
          "internalType": "address",
          "name": "owner",
          "type": "address"
        }
      ],
      "name": "ERC721InvalidOwner",
      "type": "error"
    },
    {
      "inputs": [
        {
          "internalType": "address",
          "name": "receiver",
          "type": "address"
        }
      ],
      "name": "ERC721InvalidReceiver",
      "type": "error"
    },
    {
      "inputs": [
        {
          "internalType": "address",
          "name": "sender",
          "type": "address"
        }
      ],
      "name": "ERC721InvalidSender",
      "type": "error"
    },
    {
      "inputs": [
        {
          "internalType": "uint256",
          "name": "tokenId",
          "type": "uint256"
        }
      ],
      "name": "ERC721NonexistentToken",
      "type": "error"
    },
    {
      "inputs": [],
      "name": "EnforcedPause",
      "type": "error"
    },
    {
      "inputs": [],
      "name": "ExpectedPause",
      "type": "error"
    },
    {
      "inputs": [
        {
          "internalType": "address",
          "name": "account",
          "type": "address"
        },
        {
          "internalType": "uint256",
          "name": "currentNonce",
          "type": "uint256"
        }
      ],
      "name": "InvalidAccountNonce",
      "type": "error"
    },
    {
      "inputs": [],
      "name": "InvalidShortString",
      "type": "error"
    },
    {
      "inputs": [
        {
          "internalType": "uint8",
          "name": "bits",
          "type": "uint8"
        },
        {
          "internalType": "uint256",
          "name": "value",
          "type": "uint256"
        }
      ],
      "name": "SafeCastOverflowedUintDowncast",
      "type": "error"
    },
    {
      "inputs": [
        {
          "internalType": "string",
          "name": "str",
          "type": "string"
        }
      ],
      "name": "StringTooLong",
      "type": "error"
    },
    {
      "inputs": [
        {
          "internalType": "uint256",
          "name": "expiry",
          "type": "uint256"
        }
      ],
      "name": "VotesExpiredSignature",
      "type": "error"
    },
    {
      "anonymous": false,
      "inputs": [
        {
          "indexed": true,
          "internalType": "address",
          "name": "owner",
          "type": "address"
        },
        {
          "indexed": true,
          "internalType": "address",
          "name": "approved",
          "type": "address"
        },
        {
          "indexed": true,
          "internalType": "uint256",
          "name": "tokenId",
          "type": "uint256"
        }
      ],
      "name": "Approval",
      "type": "event"
    },
    {
      "anonymous": false,
      "inputs": [
        {
          "indexed": true,
          "internalType": "address",
          "name": "owner",
          "type": "address"
        },
        {
          "indexed": true,
          "internalType": "address",
          "name": "operator",
          "type": "address"
        },
        {
          "indexed": false,
          "internalType": "bool",
          "name": "approved",
          "type": "bool"
        }
      ],
      "name": "ApprovalForAll",
      "type": "event"
    },
    {
      "anonymous": false,
      "inputs": [
        {
          "indexed": true,
          "internalType": "uint256",
          "name": "fromTokenId",
          "type": "uint256"
        },
        {
          "indexed": false,
          "internalType": "uint256",
          "name": "toTokenId",
          "type": "uint256"
        },
        {
          "indexed": true,
          "internalType": "address",
          "name": "fromAddress",
          "type": "address"
        },
        {
          "indexed": true,
          "internalType": "address",
          "name": "toAddress",
          "type": "address"
        }
      ],
      "name": "ConsecutiveTransfer",
      "type": "event"
    },
    {
      "anonymous": false,
      "inputs": [
        {
          "indexed": true,
          "internalType": "address",
          "name": "delegator",
          "type": "address"
        },
        {
          "indexed": true,
          "internalType": "address",
          "name": "fromDelegate",
          "type": "address"
        },
        {
          "indexed": true,
          "internalType": "address",
          "name": "toDelegate",
          "type": "address"
        }
      ],
      "name": "DelegateChanged",
      "type": "event"
    },
    {
      "anonymous": false,
      "inputs": [
        {
          "indexed": true,
          "internalType": "address",
          "name": "delegate",
          "type": "address"
        },
        {
          "indexed": false,
          "internalType": "uint256",
          "name": "previousVotes",
          "type": "uint256"
        },
        {
          "indexed": false,
          "internalType": "uint256",
          "name": "newVotes",
          "type": "uint256"
        }
      ],
      "name": "DelegateVotesChanged",
      "type": "event"
    },
    {
      "anonymous": false,
      "inputs": [],
      "name": "EIP712DomainChanged",
      "type": "event"
    },
    {
      "anonymous": false,
      "inputs": [
        {
          "indexed": false,
          "internalType": "address",
          "name": "account",
          "type": "address"
        }
      ],
      "name": "Paused",
      "type": "event"
    },
    {
      "anonymous": false,
      "inputs": [
        {
          "indexed": true,
          "internalType": "address",
          "name": "from",
          "type": "address"
        },
        {
          "indexed": true,
          "internalType": "address",
          "name": "to",
          "type": "address"
        },
        {
          "indexed": true,
          "internalType": "uint256",
          "name": "tokenId",
          "type": "uint256"
        }
      ],
      "name": "Transfer",
      "type": "event"
    },
    {
      "anonymous": false,
      "inputs": [
        {
          "indexed": false,
          "internalType": "address",
          "name": "account",
          "type": "address"
        }
      ],
      "name": "Unpaused",
      "type": "event"
    },
    {
      "inputs": [],
      "name": "CLOCK_MODE",
      "outputs": [
        {
          "internalType": "string",
          "name": "",
          "type": "string"
        }
      ],
      "stateMutability": "view",
      "type": "function"
    },
    {
      "inputs": [
        {
          "internalType": "address",
          "name": "to",
          "type": "address"
        },
        {
          "internalType": "uint256",
          "name": "tokenId",
          "type": "uint256"
        }
      ],
      "name": "approve",
      "outputs": [],
      "stateMutability": "nonpayable",
      "type": "function"
    },
    {
      "inputs": [
        {
          "internalType": "address",
          "name": "owner",
          "type": "address"
        }
      ],
      "name": "balanceOf",
      "outputs": [
        {
          "internalType": "uint256",
          "name": "",
          "type": "uint256"
        }
      ],
      "stateMutability": "view",
      "type": "function"
    },
    {
      "inputs": [],
      "name": "clock",
      "outputs": [
        {
          "internalType": "uint48",
          "name": "",
          "type": "uint48"
        }
      ],
      "stateMutability": "view",
      "type": "function"
    },
    {
      "inputs": [
        {
          "internalType": "address",
          "name": "delegatee",
          "type": "address"
        }
      ],
      "name": "delegate",
      "outputs": [],
      "stateMutability": "nonpayable",
      "type": "function"
    },
    {
      "inputs": [
        {
          "internalType": "address",
          "name": "delegatee",
          "type": "address"
        },
        {
          "internalType": "uint256",
          "name": "nonce",
          "type": "uint256"
        },
        {
          "internalType": "uint256",
          "name": "expiry",
          "type": "uint256"
        },
        {
          "internalType": "uint8",
          "name": "v",
          "type": "uint8"
        },
        {
          "internalType": "bytes32",
          "name": "r",
          "type": "bytes32"
        },
        {
          "internalType": "bytes32",
          "name": "s",
          "type": "bytes32"
        }
      ],
      "name": "delegateBySig",
      "outputs": [],
      "stateMutability": "nonpayable",
      "type": "function"
    },
    {
      "inputs": [
        {
          "internalType": "address",
          "name": "account",
          "type": "address"
        }
      ],
      "name": "delegates",
      "outputs": [
        {
          "internalType": "address",
          "name": "",
          "type": "address"
        }
      ],
      "stateMutability": "view",
      "type": "function"
    },
    {
      "inputs": [],
      "name": "eip712Domain",
      "outputs": [
        {
          "internalType": "bytes1",
          "name": "fields",
          "type": "bytes1"
        },
        {
          "internalType": "string",
          "name": "name",
          "type": "string"
        },
        {
          "internalType": "string",
          "name": "version",
          "type": "string"
        },
        {
          "internalType": "uint256",
          "name": "chainId",
          "type": "uint256"
        },
        {
          "internalType": "address",
          "name": "verifyingContract",
          "type": "address"
        },
        {
          "internalType": "bytes32",
          "name": "salt",
          "type": "bytes32"
        },
        {
          "internalType": "uint256[]",
          "name": "extensions",
          "type": "uint256[]"
        }
      ],
      "stateMutability": "view",
      "type": "function"
    },
    {
      "inputs": [
        {
          "internalType": "uint256",
          "name": "tokenId",
          "type": "uint256"
        }
      ],
      "name": "getApproved",
      "outputs": [
        {
          "internalType": "address",
          "name": "",
          "type": "address"
        }
      ],
      "stateMutability": "view",
      "type": "function"
    },
    {
      "inputs": [
        {
          "internalType": "uint256",
          "name": "timepoint",
          "type": "uint256"
        }
      ],
      "name": "getPastTotalSupply",
      "outputs": [
        {
          "internalType": "uint256",
          "name": "",
          "type": "uint256"
        }
      ],
      "stateMutability": "view",
      "type": "function"
    },
    {
      "inputs": [
        {
          "internalType": "address",
          "name": "account",
          "type": "address"
        },
        {
          "internalType": "uint256",
          "name": "timepoint",
          "type": "uint256"
        }
      ],
      "name": "getPastVotes",
      "outputs": [
        {
          "internalType": "uint256",
          "name": "",
          "type": "uint256"
        }
      ],
      "stateMutability": "view",
      "type": "function"
    },
    {
      "inputs": [
        {
          "internalType": "address",
          "name": "account",
          "type": "address"
        }
      ],
      "name": "getVotes",
      "outputs": [
        {
          "internalType": "uint256",
          "name": "",
          "type": "uint256"
        }
      ],
      "stateMutability": "view",
      "type": "function"
    },
    {
      "inputs": [
        {
          "internalType": "address",
          "name": "owner",
          "type": "address"
        },
        {
          "internalType": "address",
          "name": "operator",
          "type": "address"
        }
      ],
      "name": "isApprovedForAll",
      "outputs": [
        {
          "internalType": "bool",
          "name": "",
          "type": "bool"
        }
      ],
      "stateMutability": "view",
      "type": "function"
    },
    {
      "inputs": [],
      "name": "name",
      "outputs": [
        {
          "internalType": "string",
          "name": "",
          "type": "string"
        }
      ],
      "stateMutability": "view",
      "type": "function"
    },
    {
      "inputs": [
        {
          "internalType": "address",
          "name": "owner",
          "type": "address"
        }
      ],
      "name": "nonces",
      "outputs": [
        {
          "internalType": "uint256",
          "name": "",
          "type": "uint256"
        }
      ],
      "stateMutability": "view",
      "type": "function"
    },
    {
      "inputs": [
        {
          "internalType": "uint256",
          "name": "tokenId",
          "type": "uint256"
        }
      ],
      "name": "ownerOf",
      "outputs": [
        {
          "internalType": "address",
          "name": "",
          "type": "address"
        }
      ],
      "stateMutability": "view",
      "type": "function"
    },
    {
      "inputs": [],
      "name": "paused",
      "outputs": [
        {
          "internalType": "bool",
          "name": "",
          "type": "bool"
        }
      ],
      "stateMutability": "view",
      "type": "function"
    },
    {
      "inputs": [
        {
          "internalType": "address",
          "name": "from",
          "type": "address"
        },
        {
          "internalType": "address",
          "name": "to",
          "type": "address"
        },
        {
          "internalType": "uint256",
          "name": "tokenId",
          "type": "uint256"
        }
      ],
      "name": "safeTransferFrom",
      "outputs": [],
      "stateMutability": "nonpayable",
      "type": "function"
    },
    {
      "inputs": [
        {
          "internalType": "address",
          "name": "from",
          "type": "address"
        },
        {
          "internalType": "address",
          "name": "to",
          "type": "address"
        },
        {
          "internalType": "uint256",
          "name": "tokenId",
          "type": "uint256"
        },
        {
          "internalType": "bytes",
          "name": "data",
          "type": "bytes"
        }
      ],
      "name": "safeTransferFrom",
      "outputs": [],
      "stateMutability": "nonpayable",
      "type": "function"
    },
    {
      "inputs": [
        {
          "internalType": "address",
          "name": "operator",
          "type": "address"
        },
        {
          "internalType": "bool",
          "name": "approved",
          "type": "bool"
        }
      ],
      "name": "setApprovalForAll",
      "outputs": [],
      "stateMutability": "nonpayable",
      "type": "function"
    },
    {
      "inputs": [
        {
          "internalType": "bytes4",
          "name": "interfaceId",
          "type": "bytes4"
        }
      ],
      "name": "supportsInterface",
      "outputs": [
        {
          "internalType": "bool",
          "name": "",
          "type": "bool"
        }
      ],
      "stateMutability": "view",
      "type": "function"
    },
    {
      "inputs": [],
      "name": "symbol",
      "outputs": [
        {
          "internalType": "string",
          "name": "",
          "type": "string"
        }
      ],
      "stateMutability": "view",
      "type": "function"
    },
    {
      "inputs": [
        {
          "internalType": "uint256",
          "name": "tokenId",
          "type": "uint256"
        }
      ],
      "name": "tokenURI",
      "outputs": [
        {
          "internalType": "string",
          "name": "",
          "type": "string"
        }
      ],
      "stateMutability": "view",
      "type": "function"
    },
    {
      "inputs": [
        {
          "internalType": "address",
          "name": "from",
          "type": "address"
        },
        {
          "internalType": "address",
          "name": "to",
          "type": "address"
        },
        {
          "internalType": "uint256",
          "name": "tokenId",
          "type": "uint256"
        }
      ],
      "name": "transferFrom",
      "outputs": [],
      "stateMutability": "nonpayable",
      "type": "function"
    }
  ],
  "bytecode": "0x61018060405234801562000011575f80fd5b50604051620034e9380380620034e9833981016040819052620000349162000dc6565b6040805180820190915260018152603160f81b6020820152869081875f6200005d838262000f38565b5060016200006c828262000f38565b50506008805460ff19169055506200008682600962000208565b610120526200009781600a62000208565b61014052815160208084019190912060e052815190820120610100524660a0526200012460e05161010051604080517f8b73c3c69bb8fe3d512ecc4cf759cc79239f7b179b0ffacaa9a75d522b39400f60208201529081019290925260608201524660808201523060a08201525f9060c00160405160208183030381529060405280519060200120905090565b60805250503060c0526001600160601b038416610160525f5b83518110156200019a576200019184828151811062000160576200016062001004565b60200260200101518583815181106200017d576200017d62001004565b60200260200101516200024060201b60201c565b6001016200013d565b505f5b8251811015620001fb57620001f1838281518110620001c057620001c062001004565b6020026020010151838381518110620001dd57620001dd62001004565b6020026020010151620002ba60201b60201c565b506001016200019d565b505050505050506200112d565b5f60208351101562000227576200021f8362000403565b90506200023a565b8162000234848262000f38565b5060ff90505b92915050565b6001600160a01b038281165f818152600c602052604080822080548686166001600160a01b0319821681179092559151919094169392849290917f3134e8a2e6d97e929a7e54011ea5485d7d196dd5f0ba4d4ef95803e8e3fc257f9190a4620002b58183620002af8662000445565b62000451565b505050565b5f80620002c6620005b9565b90506001600160601b03831615620003fc57303b15620002f9576040516329cfc83160e11b815260040160405180910390fd5b6001600160a01b0384166200032857604051633250574960e11b81525f60048201526024015b60405180910390fd5b6113886001600160601b03841681101562000369576040516308f58e5760e41b81526001600160601b0385166004820152602481018290526044016200031f565b5f60016200037886856200102c565b62000384919062001056565b90506200039460068288620005f1565b50620003ac9050866001600160601b0387166200060d565b6040516001600160601b0382811682526001600160a01b038816915f918616907fdeaa91b6123d068f5821d0fb0678463d1a8a6079fe8af5de3ce5e896dcf9133d9060200160405180910390a450505b9392505050565b5f80829050601f8151111562000430578260405163305a27a960e01b81526004016200031f919062001079565b80516200043d82620010ad565b179392505050565b5f6200023a826200061d565b816001600160a01b0316836001600160a01b0316141580156200047357505f81115b15620002b5576001600160a01b038316156200051a576001600160a01b0383165f908152600d6020908152604082208291620004c6919062000664901b6200087017620004c08662000671565b620006aa565b6001600160d01b031691506001600160d01b03169150846001600160a01b03165f80516020620034c983398151915283836040516200050f929190918252602082015260400190565b60405180910390a250505b6001600160a01b03821615620002b5576001600160a01b0382165f908152600d6020908152604082208291620005619190620006d9901b6200087b17620004c08662000671565b6001600160d01b031691506001600160d01b03169150836001600160a01b03165f80516020620034c98339815191528383604051620005aa929190918252602082015260400190565b60405180910390a25050505050565b5f8080620005c86006620006e6565b509150915081620005dd5761016051620005ea565b620005ea8160016200102c565b9250505090565b5f806200060085858562000762565b915091505b935093915050565b620006198282620008e5565b5050565b5f6001600160a01b03821662000649576040516322718ad960e21b81525f60048201526024016200031f565b506001600160a01b03165f9081526003602052604090205490565b5f620003fc8284620010d1565b5f6001600160d01b03821115620006a6576040516306dfcc6560e41b815260d06004820152602481018390526044016200031f565b5090565b5f8062000600620006ba62000921565b620006d0620006c98862000931565b868860201c565b87919062000970565b5f620003fc8284620010f4565b80545f908190819080820362000706575f805f935093509350506200075b565b5f62000726866200071960018562001117565b5f91825260209091200190565b54600195506001600160601b03811694506c0100000000000000000000000090046001600160a01b031692506200075b915050565b9193909250565b82545f908190801562000880575f62000782876200071960018562001117565b80549091506001600160601b03808216916c0100000000000000000000000090046001600160a01b0316908816821115620007d057604051632520601d60e01b815260040160405180910390fd5b876001600160601b0316826001600160601b031603620008175782546001600160601b03166c010000000000000000000000006001600160a01b0389160217835562000871565b604080518082019091526001600160601b03808a1682526001600160a01b03808a1660208085019182528d54600181018f555f8f815291909120945191519092166c01000000000000000000000000029216919091179101555b94508593506200060592505050565b5050604080518082019091526001600160601b0380851682526001600160a01b0380851660208085019182528854600181018a555f8a8152918220955192519093166c0100000000000000000000000002919093161792019190915590508162000605565b6001600160a01b0382165f90815260036020526040902080546001600160801b038316019055620006195f836001600160801b0384166200097f565b5f6200092c62000a10565b905090565b80545f90801562000968576200094e836200071960018462001117565b54660100000000000090046001600160d01b0316620003fc565b5f9392505050565b5f806200060085858562000a1c565b6001600160a01b038316620009ae57620009ab600e6200087b620006d960201b17620004c08462000671565b50505b6001600160a01b038216620009dd57620009da600e620008706200066460201b17620004c08462000671565b50505b6001600160a01b038381165f908152600c6020526040808220548584168352912054620002b59291821691168362000451565b5f6200092c4362000b80565b82545f908190801562000b22575f62000a3c876200071960018562001117565b805490915065ffffffffffff80821691660100000000000090046001600160d01b031690881682111562000a8357604051632520601d60e01b815260040160405180910390fd5b8765ffffffffffff168265ffffffffffff160362000ac157825465ffffffffffff1666010000000000006001600160d01b0389160217835562000871565b6040805180820190915265ffffffffffff808a1682526001600160d01b03808a1660208085019182528d54600181018f555f8f8152919091209451915190921666010000000000000292169190911791015594508593506200060592505050565b50506040805180820190915265ffffffffffff80851682526001600160d01b0380851660208085019182528854600181018a555f8a815291822095519251909316660100000000000002919093161792019190915590508162000605565b5f65ffffffffffff821115620006a6576040516306dfcc6560e41b815260306004820152602481018390526044016200031f565b634e487b7160e01b5f52604160045260245ffd5b604051601f8201601f191681016001600160401b038111828210171562000bf35762000bf362000bb4565b604052919050565b5f5b8381101562000c1757818101518382015260200162000bfd565b50505f910152565b5f82601f83011262000c2f575f80fd5b81516001600160401b0381111562000c4b5762000c4b62000bb4565b62000c60601f8201601f191660200162000bc8565b81815284602083860101111562000c75575f80fd5b62000c8882602083016020870162000bfb565b949350505050565b80516001600160601b038116811462000ca7575f80fd5b919050565b5f6001600160401b0382111562000cc75762000cc762000bb4565b5060051b60200190565b5f82601f83011262000ce1575f80fd5b8151602062000cfa62000cf48362000cac565b62000bc8565b8083825260208201915060208460051b87010193508684111562000d1c575f80fd5b602086015b8481101562000d4f5780516001600160a01b038116811462000d41575f80fd5b835291830191830162000d21565b509695505050505050565b5f82601f83011262000d6a575f80fd5b8151602062000d7d62000cf48362000cac565b8083825260208201915060208460051b87010193508684111562000d9f575f80fd5b602086015b8481101562000d4f5762000db88162000c90565b835291830191830162000da4565b5f805f805f8060c0878903121562000ddc575f80fd5b86516001600160401b038082111562000df3575f80fd5b62000e018a838b0162000c1f565b9750602089015191508082111562000e17575f80fd5b62000e258a838b0162000c1f565b965062000e3560408a0162000c90565b9550606089015191508082111562000e4b575f80fd5b62000e598a838b0162000cd1565b9450608089015191508082111562000e6f575f80fd5b62000e7d8a838b0162000cd1565b935060a089015191508082111562000e93575f80fd5b5062000ea289828a0162000d5a565b9150509295509295509295565b600181811c9082168062000ec457607f821691505b60208210810362000ee357634e487b7160e01b5f52602260045260245ffd5b50919050565b601f821115620002b557805f5260205f20601f840160051c8101602085101562000f105750805b601f840160051c820191505b8181101562000f31575f815560010162000f1c565b5050505050565b81516001600160401b0381111562000f545762000f5462000bb4565b62000f6c8162000f65845462000eaf565b8462000ee9565b602080601f83116001811462000fa2575f841562000f8a5750858301515b5f19600386901b1c1916600185901b17855562000ffc565b5f85815260208120601f198616915b8281101562000fd25788860151825594840194600190910190840162000fb1565b508582101562000ff057878501515f19600388901b60f8161c191681555b505060018460011b0185555b505050505050565b634e487b7160e01b5f52603260045260245ffd5b634e487b7160e01b5f52601160045260245ffd5b6001600160601b038181168382160190808211156200104f576200104f62001018565b5092915050565b6001600160601b038281168282160390808211156200104f576200104f62001018565b602081525f82518060208401526200109981604085016020870162000bfb565b601f01601f19169190910160400192915050565b8051602080830151919081101562000ee3575f1960209190910360031b1b16919050565b6001600160d01b038281168282160390808211156200104f576200104f62001018565b6001600160d01b038181168382160190808211156200104f576200104f62001018565b818103818111156200023a576200023a62001018565b60805160a05160c05160e05161010051610120516101405161016051612339620011905f395f81816116cd0152611b3001525f610a8b01525f610a5e01525f6113f301525f6113cb01525f61132601525f61135001525f61137a01526123395ff3fe608060405234801561000f575f80fd5b5060043610610153575f3560e01c806370a08231116100bf5780639ab24eb0116100795780639ab24eb01461030f578063a22cb46514610322578063b88d4fde14610335578063c3cda52014610348578063c87b56dd1461035b578063e985e9c51461036e575f80fd5b806370a082311461027f5780637ecebe001461029257806384b0196e146102ba5780638e539e8c146102d557806391ddadf4146102e857806395d89b4114610307575f80fd5b806342842e0e1161011057806342842e0e146102085780634bf5d7e91461021b578063587cde1e146102235780635c19a95c1461024e5780635c975abb146102615780636352211e1461026c575f80fd5b806301ffc9a71461015757806306fdde031461017f578063081812fc14610194578063095ea7b3146101bf57806323b872dd146101d45780633a46b1a8146101e7575b5f80fd5b61016a610165366004611df3565b610381565b60405190151581526020015b60405180910390f35b6101876103d2565b6040516101769190611e5b565b6101a76101a2366004611e6d565b610461565b6040516001600160a01b039091168152602001610176565b6101d26101cd366004611e9f565b610488565b005b6101d26101e2366004611ec7565b610497565b6101fa6101f5366004611e9f565b610525565b604051908152602001610176565b6101d2610216366004611ec7565b61055f565b61018761057e565b6101a7610231366004611f00565b6001600160a01b039081165f908152600c60205260409020541690565b6101d261025c366004611f00565b6105f6565b60085460ff1661016a565b6101a761027a366004611e6d565b610601565b6101fa61028d366004611f00565b61060b565b6101fa6102a0366004611f00565b6001600160a01b03165f908152600b602052604090205490565b6102c2610650565b6040516101769796959493929190611f19565b6101fa6102e3366004611e6d565b610692565b6102f06106b6565b60405165ffffffffffff9091168152602001610176565b6101876106c4565b6101fa61031d366004611f00565b6106d3565b6101d2610330366004611fb0565b6106f3565b6101d2610343366004611ffd565b6106fe565b6101d26103563660046120d2565b610716565b610187610369366004611e6d565b6107d2565b61016a61037c36600461212d565b610843565b5f6001600160e01b031982166380ac58cd60e01b14806103b157506001600160e01b03198216635b5e139f60e01b145b806103cc57506301ffc9a760e01b6001600160e01b03198316145b92915050565b60605f80546103e09061215e565b80601f016020809104026020016040519081016040528092919081815260200182805461040c9061215e565b80156104575780601f1061042e57610100808354040283529160200191610457565b820191905f5260205f20905b81548152906001019060200180831161043a57829003601f168201915b5050505050905090565b5f61046b82610886565b505f828152600460205260409020546001600160a01b03166103cc565b6104938282336108bd565b5050565b6001600160a01b0382166104c557604051633250574960e11b81525f60048201526024015b60405180910390fd5b5f6104d18383336108ca565b9050836001600160a01b0316816001600160a01b03161461051f576040516364283d7b60e01b81526001600160a01b03808616600483015260248201849052821660448201526064016104bc565b50505050565b5f61054f610532836108de565b6001600160a01b0385165f908152600d602052604090209061092c565b6001600160d01b03169392505050565b61057983838360405180602001604052805f8152506106fe565b505050565b60606105886109dc565b65ffffffffffff166105986106b6565b65ffffffffffff16146105be576040516301bfc1c560e61b815260040160405180910390fd5b5060408051808201909152601d81527f6d6f64653d626c6f636b6e756d6265722666726f6d3d64656661756c74000000602082015290565b3361049381836109e6565b5f6103cc82610886565b5f6001600160a01b038216610635576040516322718ad960e21b81525f60048201526024016104bc565b506001600160a01b03165f9081526003602052604090205490565b5f6060805f805f6060610661610a57565b610669610a84565b604080515f80825260208201909252600f60f81b9b939a50919850469750309650945092509050565b5f6106a761069f836108de565b600e9061092c565b6001600160d01b031692915050565b5f6106bf6109dc565b905090565b6060600180546103e09061215e565b6001600160a01b0381165f908152600d602052604081206106a790610ab1565b610493338383610ae8565b610709848484610497565b61051f3385858585610b86565b8342111561073a57604051632341d78760e11b8152600481018590526024016104bc565b604080517fe48329057bfd03d55e49b547132e39cffd9c1820ad7b9d4c5307691425d15adf60208201526001600160a01b0388169181019190915260608101869052608081018590525f906107b3906107ab9060a00160405160208183030381529060405280519060200120610cae565b858585610cda565b90506107bf8187610d06565b6107c981886109e6565b50505050505050565b60606107dd82610886565b505f6107f360408051602081019091525f815290565b90505f8151116108115760405180602001604052805f81525061083c565b8061081b84610d58565b60405160200161082c929190612196565b6040516020818303038152906040525b9392505050565b6001600160a01b039182165f90815260056020908152604080832093909416825291909152205460ff1690565b5f61083c82846121d8565b5f61083c82846121ff565b5f8061089183610de8565b90506001600160a01b0381166103cc57604051637e27328960e01b8152600481018490526024016104bc565b6105798383836001610df2565b5f6108d6848484610ef6565b949350505050565b5f806108e86106b6565b90508065ffffffffffff16831061092357604051637669fc0f60e11b81526004810184905265ffffffffffff821660248201526044016104bc565b61083c83610f11565b81545f9081816005811115610988575f61094584610f47565b61094f908561221f565b5f8881526020902090915081015465ffffffffffff908116908716101561097857809150610986565b610983816001612232565b92505b505b5f6109958787858561109f565b905080156109cf576109b9876109ac60018461221f565b5f91825260209091200190565b54600160301b90046001600160d01b03166109d1565b5f5b979650505050505050565b5f6106bf43610f11565b6001600160a01b038281165f818152600c602052604080822080548686166001600160a01b0319821681179092559151919094169392849290917f3134e8a2e6d97e929a7e54011ea5485d7d196dd5f0ba4d4ef95803e8e3fc257f9190a46105798183610a52866110fe565b611108565b60606106bf7f00000000000000000000000000000000000000000000000000000000000000006009611271565b60606106bf7f0000000000000000000000000000000000000000000000000000000000000000600a611271565b80545f908015610ae057610aca836109ac60018461221f565b54600160301b90046001600160d01b031661083c565b5f9392505050565b6001600160a01b038216610b1a57604051630b61174360e31b81526001600160a01b03831660048201526024016104bc565b6001600160a01b038381165f81815260056020908152604080832094871680845294825291829020805460ff191686151590811790915591519182527f17307eab39ab6107e8899845ad3d59bd9653f200f220920489ca2b5937696c31910160405180910390a3505050565b6001600160a01b0383163b15610ca757604051630a85bd0160e11b81526001600160a01b0384169063150b7a0290610bc8908890889087908790600401612245565b6020604051808303815f875af1925050508015610c02575060408051601f3d908101601f19168201909252610bff91810190612281565b60015b610c69573d808015610c2f576040519150601f19603f3d011682016040523d82523d5f602084013e610c34565b606091505b5080515f03610c6157604051633250574960e11b81526001600160a01b03851660048201526024016104bc565b805181602001fd5b6001600160e01b03198116630a85bd0160e11b14610ca557604051633250574960e11b81526001600160a01b03851660048201526024016104bc565b505b5050505050565b5f6103cc610cba61131a565b8360405161190160f01b8152600281019290925260228201526042902090565b5f805f80610cea88888888611443565b925092509250610cfa828261150b565b50909695505050505050565b6001600160a01b0382165f908152600b60205260409020805460018101909155818114610579576040516301d4b62360e61b81526001600160a01b0384166004820152602481018290526044016104bc565b60605f610d64836115c3565b60010190505f8167ffffffffffffffff811115610d8357610d83611fe9565b6040519080825280601f01601f191660200182016040528015610dad576020820181803683370190505b5090508181016020015b5f19016f181899199a1a9b1b9c1cb0b131b232b360811b600a86061a8153600a8504945084610db757509392505050565b5f6103cc8261169a565b8080610e0657506001600160a01b03821615155b15610ec7575f610e1584610886565b90506001600160a01b03831615801590610e415750826001600160a01b0316816001600160a01b031614155b8015610e545750610e528184610843565b155b15610e7d5760405163a9fbf51f60e01b81526001600160a01b03841660048201526024016104bc565b8115610ec55783856001600160a01b0316826001600160a01b03167f8c5be1e5ebec7d5bd14f71427d1e84f3dd0314c0f7b2291e5b200ac8c7c3b92560405160405180910390a45b505b50505f90815260046020526040902080546001600160a01b0319166001600160a01b0392909216919091179055565b5f80610f03858585611732565b90506108d681866001611746565b5f65ffffffffffff821115610f43576040516306dfcc6560e41b815260306004820152602481018390526044016104bc565b5090565b5f60018211610f54575090565b816001600160801b8210610f6d5760809190911c9060401b5b680100000000000000008210610f885760409190911c9060201b5b6401000000008210610f9f5760209190911c9060101b5b620100008210610fb45760109190911c9060081b5b6101008210610fc85760089190911c9060041b5b60108210610fdb5760049190911c9060021b5b60048210610fe75760011b5b600302600190811c90818581610fff57610fff61229c565b048201901c905060018185816110175761101761229c565b048201901c9050600181858161102f5761102f61229c565b048201901c905060018185816110475761104761229c565b048201901c9050600181858161105f5761105f61229c565b048201901c905060018185816110775761107761229c565b048201901c90506110968185816110905761109061229c565b04821190565b90039392505050565b5f5b818310156110f6575f6110b484846117bb565b5f8781526020902090915065ffffffffffff86169082015465ffffffffffff1611156110e2578092506110f0565b6110ed816001612232565b93505b506110a1565b509392505050565b5f6103cc8261060b565b816001600160a01b0316836001600160a01b03161415801561112957505f81115b15610579576001600160a01b038316156111d0576001600160a01b0383165f908152600d60205260408120819061116b90610870611166866117d5565b611808565b6001600160d01b031691506001600160d01b03169150846001600160a01b03167fdec2bacdd2f05b59de34da9b523dff8be42e5e38e818c82fdb0bae774387a72483836040516111c5929190918252602082015260400190565b60405180910390a250505b6001600160a01b03821615610579576001600160a01b0382165f908152600d6020526040812081906112089061087b611166866117d5565b6001600160d01b031691506001600160d01b03169150836001600160a01b03167fdec2bacdd2f05b59de34da9b523dff8be42e5e38e818c82fdb0bae774387a7248383604051611262929190918252602082015260400190565b60405180910390a25050505050565b606060ff831461128b5761128483611840565b90506103cc565b8180546112979061215e565b80601f01602080910402602001604051908101604052809291908181526020018280546112c39061215e565b801561130e5780601f106112e55761010080835404028352916020019161130e565b820191905f5260205f20905b8154815290600101906020018083116112f157829003601f168201915b505050505090506103cc565b5f306001600160a01b037f00000000000000000000000000000000000000000000000000000000000000001614801561137257507f000000000000000000000000000000000000000000000000000000000000000046145b1561139c57507f000000000000000000000000000000000000000000000000000000000000000090565b6106bf604080517f8b73c3c69bb8fe3d512ecc4cf759cc79239f7b179b0ffacaa9a75d522b39400f60208201527f0000000000000000000000000000000000000000000000000000000000000000918101919091527f000000000000000000000000000000000000000000000000000000000000000060608201524660808201523060a08201525f9060c00160405160208183030381529060405280519060200120905090565b5f80807f7fffffffffffffffffffffffffffffff5d576e7357a4501ddfe92f46681b20a084111561147c57505f91506003905082611501565b604080515f808252602082018084528a905260ff891692820192909252606081018790526080810186905260019060a0016020604051602081039080840390855afa1580156114cd573d5f803e3d5ffd5b5050604051601f1901519150506001600160a01b0381166114f857505f925060019150829050611501565b92505f91508190505b9450945094915050565b5f82600381111561151e5761151e6122b0565b03611527575050565b600182600381111561153b5761153b6122b0565b036115595760405163f645eedf60e01b815260040160405180910390fd5b600282600381111561156d5761156d6122b0565b0361158e5760405163fce698f760e01b8152600481018290526024016104bc565b60038260038111156115a2576115a26122b0565b03610493576040516335e2f38360e21b8152600481018290526024016104bc565b5f8072184f03e93ff9f4daa797ed6e38ed64bf6a1f0160401b83106116015772184f03e93ff9f4daa797ed6e38ed64bf6a1f0160401b830492506040015b6d04ee2d6d415b85acef8100000000831061162d576d04ee2d6d415b85acef8100000000830492506020015b662386f26fc10000831061164b57662386f26fc10000830492506010015b6305f5e1008310611663576305f5e100830492506008015b612710831061167757612710830492506004015b60648310611689576064830492506002015b600a83106103cc5760010192915050565b5f818152600260205260408120546001600160a01b0316801515806116c557506001600160601b0383115b806116f857507f00000000000000000000000000000000000000000000000000000000000000006001600160601b031683105b156117035792915050565b600883901c5f90815260076020526040902054600160ff85161b16610ae05761172d60068461187d565b61083c565b5f61173b6118c2565b6108d68484846118e8565b6001600160a01b03831661176857611765600e61087b611166846117d5565b50505b6001600160a01b03821661178a57611787600e610870611166846117d5565b50505b6001600160a01b038381165f908152600c602052604080822054858416835291205461057992918216911683611108565b5f6117c960028484186122c4565b61083c90848416612232565b5f6001600160d01b03821115610f43576040516306dfcc6560e41b815260d06004820152602481018390526044016104bc565b5f806118336118156106b6565b61182b61182188610ab1565b868863ffffffff16565b87919061199d565b915091505b935093915050565b60605f61184c836119aa565b6040805160208082528183019092529192505f91906020820181803683375050509182525060208101929092525090565b81545f908161188e858583856119d1565b90508181146118b7575f85815260209020810154600160601b90046001600160a01b03166118b9565b5f5b95945050505050565b60085460ff16156118e65760405163d93c066560e01b815260040160405180910390fd5b565b5f806118f5858585611a2a565b90506001600160a01b03811615801561190d5750303b155b1561192b576040516356c4a82960e11b815260040160405180910390fd5b6001600160a01b0385161580156119515750611945611b17565b6001600160601b031684105b80156119755750600884901c5f90815260076020526040902054600160ff86161b16155b156108d657600884901c5f9081526007602052604090208054600160ff87161b1790556108d6565b5f80611833858585611b66565b5f60ff8216601f8111156103cc57604051632cd44ac360e21b815260040160405180910390fd5b5f5b818310156110f6575f6119e684846117bb565b5f878152602090209091506001600160601b038616908201546001600160601b03161015611a2057611a19816001612232565b9350611a24565b8092505b506119d3565b5f80611a3584610de8565b90506001600160a01b03831615611a5157611a51818486611cb6565b6001600160a01b03811615611a8b57611a6c5f855f80610df2565b6001600160a01b0381165f90815260036020526040902080545f190190555b6001600160a01b03851615611ab9576001600160a01b0385165f908152600360205260409020805460010190555b5f8481526002602052604080822080546001600160a01b0319166001600160a01b0389811691821790925591518793918516917fddf252ad1be2c89b69c2b068fc378daa952ba7f163c4a11628f55a4df523b3ef91a4949350505050565b5f805f611b246006611d1a565b509150915081611b54577f0000000000000000000000000000000000000000000000000000000000000000611b5f565b611b5f8160016122e3565b9250505090565b82545f9081908015611c5c575f611b82876109ac60018561221f565b805490915065ffffffffffff80821691600160301b90046001600160d01b0316908816821115611bc557604051632520601d60e01b815260040160405180910390fd5b8765ffffffffffff168265ffffffffffff1603611bfe57825465ffffffffffff16600160301b6001600160d01b03891602178355611c4e565b6040805180820190915265ffffffffffff808a1682526001600160d01b03808a1660208085019182528d54600181018f555f8f81529190912094519151909216600160301b029216919091179101555b945085935061183892505050565b50506040805180820190915265ffffffffffff80851682526001600160d01b0380851660208085019182528854600181018a555f8a815291822095519251909316600160301b029190931617920191909155905081611838565b611cc1838383611d7a565b610579576001600160a01b038316611cef57604051637e27328960e01b8152600481018290526024016104bc565b60405163177e802f60e01b81526001600160a01b0383166004820152602481018290526044016104bc565b80545f9081908190808203611d38575f805f93509350935050611d73565b5f611d48866109ac60018561221f565b54600195506001600160601b0381169450600160601b90046001600160a01b03169250611d73915050565b9193909250565b5f6001600160a01b038316158015906108d65750826001600160a01b0316846001600160a01b03161480611db35750611db38484610843565b806108d65750505f908152600460205260409020546001600160a01b03908116911614919050565b6001600160e01b031981168114611df0575f80fd5b50565b5f60208284031215611e03575f80fd5b813561083c81611ddb565b5f5b83811015611e28578181015183820152602001611e10565b50505f910152565b5f8151808452611e47816020860160208601611e0e565b601f01601f19169290920160200192915050565b602081525f61083c6020830184611e30565b5f60208284031215611e7d575f80fd5b5035919050565b80356001600160a01b0381168114611e9a575f80fd5b919050565b5f8060408385031215611eb0575f80fd5b611eb983611e84565b946020939093013593505050565b5f805f60608486031215611ed9575f80fd5b611ee284611e84565b9250611ef060208501611e84565b9150604084013590509250925092565b5f60208284031215611f10575f80fd5b61083c82611e84565b60ff60f81b881681525f602060e06020840152611f3960e084018a611e30565b8381036040850152611f4b818a611e30565b606085018990526001600160a01b038816608086015260a0850187905284810360c0860152855180825260208088019350909101905f5b81811015611f9e57835183529284019291840191600101611f82565b50909c9b505050505050505050505050565b5f8060408385031215611fc1575f80fd5b611fca83611e84565b915060208301358015158114611fde575f80fd5b809150509250929050565b634e487b7160e01b5f52604160045260245ffd5b5f805f8060808587031215612010575f80fd5b61201985611e84565b935061202760208601611e84565b925060408501359150606085013567ffffffffffffffff8082111561204a575f80fd5b818701915087601f83011261205d575f80fd5b81358181111561206f5761206f611fe9565b604051601f8201601f19908116603f0116810190838211818310171561209757612097611fe9565b816040528281528a60208487010111156120af575f80fd5b826020860160208301375f60208483010152809550505050505092959194509250565b5f805f805f8060c087890312156120e7575f80fd5b6120f087611e84565b95506020870135945060408701359350606087013560ff81168114612113575f80fd5b9598949750929560808101359460a0909101359350915050565b5f806040838503121561213e575f80fd5b61214783611e84565b915061215560208401611e84565b90509250929050565b600181811c9082168061217257607f821691505b60208210810361219057634e487b7160e01b5f52602260045260245ffd5b50919050565b5f83516121a7818460208801611e0e565b8351908301906121bb818360208801611e0e565b01949350505050565b634e487b7160e01b5f52601160045260245ffd5b6001600160d01b038281168282160390808211156121f8576121f86121c4565b5092915050565b6001600160d01b038181168382160190808211156121f8576121f86121c4565b818103818111156103cc576103cc6121c4565b808201808211156103cc576103cc6121c4565b6001600160a01b03858116825284166020820152604081018390526080606082018190525f9061227790830184611e30565b9695505050505050565b5f60208284031215612291575f80fd5b815161083c81611ddb565b634e487b7160e01b5f52601260045260245ffd5b634e487b7160e01b5f52602160045260245ffd5b5f826122de57634e487b7160e01b5f52601260045260245ffd5b500490565b6001600160601b038181168382160190808211156121f8576121f86121c456fea2646970667358221220c57c81bbe1482206a46f90b64d58944a84ee6ad3c8890b73402f2640dcf15a1864736f6c63430008180033dec2bacdd2f05b59de34da9b523dff8be42e5e38e818c82fdb0bae774387a724",
  "linkReferences": {},
  "deployedLinkReferences": {}
}