{
  "_format": "hh-sol-artifact-1",
  "contractName": "$GovernorSequentialProposalIdMock",
  "sourceName": "contracts-exposed/mocks/governance/GovernorSequentialProposalIdMock.sol",
  "abi": [
    {
      "inputs": [
        {
          "internalType": "string",
          "name": "name_",
          "type": "string"
        },
        {
          "internalType": "uint48",
          "name": "initialVotingDelay",
          "type": "uint48"
        },
        {
          "internalType": "uint32",
          "name": "initialVotingPeriod",
          "type": "uint32"
        },
        {
          "internalType": "uint256",
          "name": "initialProposalThreshold",
          "type": "uint256"
        },
        {
          "internalType": "contract IVotes",
          "name": "tokenAddress",
          "type": "address"
        },
        {
          "internalType": "uint256",
          "name": "quorumNumeratorValue",
          "type": "uint256"
        }
      ],
      "stateMutability": "payable",
      "type": "constructor"
    },
    {
      "inputs": [],
      "name": "CheckpointUnorderedInsertion",
      "type": "error"
    },
    {
      "inputs": [],
      "name": "FailedCall",
      "type": "error"
    },
    {
      "inputs": [
        {
          "internalType": "address",
          "name": "voter",
          "type": "address"
        }
      ],
      "name": "GovernorAlreadyCastVote",
      "type": "error"
    },
    {
      "inputs": [],
      "name": "GovernorAlreadyInitializedLatestProposalId",
      "type": "error"
    },
    {
      "inputs": [
        {
          "internalType": "uint256",
          "name": "proposalId",
          "type": "uint256"
        }
      ],
      "name": "GovernorAlreadyQueuedProposal",
      "type": "error"
    },
    {
      "inputs": [],
      "name": "GovernorDisabledDeposit",
      "type": "error"
    },
    {
      "inputs": [
        {
          "internalType": "address",
          "name": "proposer",
          "type": "address"
        },
        {
          "internalType": "uint256",
          "name": "votes",
          "type": "uint256"
        },
        {
          "internalType": "uint256",
          "name": "threshold",
          "type": "uint256"
        }
      ],
      "name": "GovernorInsufficientProposerVotes",
      "type": "error"
    },
    {
      "inputs": [
        {
          "internalType": "uint256",
          "name": "targets",
          "type": "uint256"
        },
        {
          "internalType": "uint256",
          "name": "calldatas",
          "type": "uint256"
        },
        {
          "internalType": "uint256",
          "name": "values",
          "type": "uint256"
        }
      ],
      "name": "GovernorInvalidProposalLength",
      "type": "error"
    },
    {
      "inputs": [
        {
          "internalType": "uint256",
          "name": "quorumNumerator",
          "type": "uint256"
        },
        {
          "internalType": "uint256",
          "name": "quorumDenominator",
          "type": "uint256"
        }
      ],
      "name": "GovernorInvalidQuorumFraction",
      "type": "error"
    },
    {
      "inputs": [
        {
          "internalType": "address",
          "name": "voter",
          "type": "address"
        }
      ],
      "name": "GovernorInvalidSignature",
      "type": "error"
    },
    {
      "inputs": [],
      "name": "GovernorInvalidVoteParams",
      "type": "error"
    },
    {
      "inputs": [],
      "name": "GovernorInvalidVoteType",
      "type": "error"
    },
    {
      "inputs": [
        {
          "internalType": "uint256",
          "name": "votingPeriod",
          "type": "uint256"
        }
      ],
      "name": "GovernorInvalidVotingPeriod",
      "type": "error"
    },
    {
      "inputs": [
        {
          "internalType": "uint256",
          "name": "proposalId",
          "type": "uint256"
        }
      ],
      "name": "GovernorNonexistentProposal",
      "type": "error"
    },
    {
      "inputs": [
        {
          "internalType": "uint256",
          "name": "proposalId",
          "type": "uint256"
        }
      ],
      "name": "GovernorNotQueuedProposal",
      "type": "error"
    },
    {
      "inputs": [
        {
          "internalType": "address",
          "name": "account",
          "type": "address"
        }
      ],
      "name": "GovernorOnlyExecutor",
      "type": "error"
    },
    {
      "inputs": [
        {
          "internalType": "address",
          "name": "account",
          "type": "address"
        }
      ],
      "name": "GovernorOnlyProposer",
      "type": "error"
    },
    {
      "inputs": [],
      "name": "GovernorQueueNotImplemented",
      "type": "error"
    },
    {
      "inputs": [
        {
          "internalType": "address",
          "name": "proposer",
          "type": "address"
        }
      ],
      "name": "GovernorRestrictedProposer",
      "type": "error"
    },
    {
      "inputs": [
        {
          "internalType": "uint256",
          "name": "proposalId",
          "type": "uint256"
        },
        {
          "internalType": "enum IGovernor.ProposalState",
          "name": "current",
          "type": "uint8"
        },
        {
          "internalType": "bytes32",
          "name": "expectedStates",
          "type": "bytes32"
        }
      ],
      "name": "GovernorUnexpectedProposalState",
      "type": "error"
    },
    {
      "inputs": [
        {
          "internalType": "address",
          "name": "account",
          "type": "address"
        },
        {
          "internalType": "uint256",
          "name": "currentNonce",
          "type": "uint256"
        }
      ],
      "name": "InvalidAccountNonce",
      "type": "error"
    },
    {
      "inputs": [],
      "name": "InvalidShortString",
      "type": "error"
    },
    {
      "inputs": [
        {
          "internalType": "uint8",
          "name": "bits",
          "type": "uint8"
        },
        {
          "internalType": "uint256",
          "name": "value",
          "type": "uint256"
        }
      ],
      "name": "SafeCastOverflowedUintDowncast",
      "type": "error"
    },
    {
      "inputs": [
        {
          "internalType": "string",
          "name": "str",
          "type": "string"
        }
      ],
      "name": "StringTooLong",
      "type": "error"
    },
    {
      "anonymous": false,
      "inputs": [],
      "name": "EIP712DomainChanged",
      "type": "event"
    },
    {
      "anonymous": false,
      "inputs": [
        {
          "indexed": false,
          "internalType": "uint256",
          "name": "proposalId",
          "type": "uint256"
        }
      ],
      "name": "ProposalCanceled",
      "type": "event"
    },
    {
      "anonymous": false,
      "inputs": [
        {
          "indexed": false,
          "internalType": "uint256",
          "name": "proposalId",
          "type": "uint256"
        },
        {
          "indexed": false,
          "internalType": "address",
          "name": "proposer",
          "type": "address"
        },
        {
          "indexed": false,
          "internalType": "address[]",
          "name": "targets",
          "type": "address[]"
        },
        {
          "indexed": false,
          "internalType": "uint256[]",
          "name": "values",
          "type": "uint256[]"
        },
        {
          "indexed": false,
          "internalType": "string[]",
          "name": "signatures",
          "type": "string[]"
        },
        {
          "indexed": false,
          "internalType": "bytes[]",
          "name": "calldatas",
          "type": "bytes[]"
        },
        {
          "indexed": false,
          "internalType": "uint256",
          "name": "voteStart",
          "type": "uint256"
        },
        {
          "indexed": false,
          "internalType": "uint256",
          "name": "voteEnd",
          "type": "uint256"
        },
        {
          "indexed": false,
          "internalType": "string",
          "name": "description",
          "type": "string"
        }
      ],
      "name": "ProposalCreated",
      "type": "event"
    },
    {
      "anonymous": false,
      "inputs": [
        {
          "indexed": false,
          "internalType": "uint256",
          "name": "proposalId",
          "type": "uint256"
        }
      ],
      "name": "ProposalExecuted",
      "type": "event"
    },
    {
      "anonymous": false,
      "inputs": [
        {
          "indexed": false,
          "internalType": "uint256",
          "name": "proposalId",
          "type": "uint256"
        },
        {
          "indexed": false,
          "internalType": "uint256",
          "name": "etaSeconds",
          "type": "uint256"
        }
      ],
      "name": "ProposalQueued",
      "type": "event"
    },
    {
      "anonymous": false,
      "inputs": [
        {
          "indexed": false,
          "internalType": "uint256",
          "name": "oldProposalThreshold",
          "type": "uint256"
        },
        {
          "indexed": false,
          "internalType": "uint256",
          "name": "newProposalThreshold",
          "type": "uint256"
        }
      ],
      "name": "ProposalThresholdSet",
      "type": "event"
    },
    {
      "anonymous": false,
      "inputs": [
        {
          "indexed": false,
          "internalType": "uint256",
          "name": "oldQuorumNumerator",
          "type": "uint256"
        },
        {
          "indexed": false,
          "internalType": "uint256",
          "name": "newQuorumNumerator",
          "type": "uint256"
        }
      ],
      "name": "QuorumNumeratorUpdated",
      "type": "event"
    },
    {
      "anonymous": false,
      "inputs": [
        {
          "indexed": true,
          "internalType": "address",
          "name": "voter",
          "type": "address"
        },
        {
          "indexed": false,
          "internalType": "uint256",
          "name": "proposalId",
          "type": "uint256"
        },
        {
          "indexed": false,
          "internalType": "uint8",
          "name": "support",
          "type": "uint8"
        },
        {
          "indexed": false,
          "internalType": "uint256",
          "name": "weight",
          "type": "uint256"
        },
        {
          "indexed": false,
          "internalType": "string",
          "name": "reason",
          "type": "string"
        }
      ],
      "name": "VoteCast",
      "type": "event"
    },
    {
      "anonymous": false,
      "inputs": [
        {
          "indexed": true,
          "internalType": "address",
          "name": "voter",
          "type": "address"
        },
        {
          "indexed": false,
          "internalType": "uint256",
          "name": "proposalId",
          "type": "uint256"
        },
        {
          "indexed": false,
          "internalType": "uint8",
          "name": "support",
          "type": "uint8"
        },
        {
          "indexed": false,
          "internalType": "uint256",
          "name": "weight",
          "type": "uint256"
        },
        {
          "indexed": false,
          "internalType": "string",
          "name": "reason",
          "type": "string"
        },
        {
          "indexed": false,
          "internalType": "bytes",
          "name": "params",
          "type": "bytes"
        }
      ],
      "name": "VoteCastWithParams",
      "type": "event"
    },
    {
      "anonymous": false,
      "inputs": [
        {
          "indexed": false,
          "internalType": "uint256",
          "name": "oldVotingDelay",
          "type": "uint256"
        },
        {
          "indexed": false,
          "internalType": "uint256",
          "name": "newVotingDelay",
          "type": "uint256"
        }
      ],
      "name": "VotingDelaySet",
      "type": "event"
    },
    {
      "anonymous": false,
      "inputs": [
        {
          "indexed": false,
          "internalType": "uint256",
          "name": "oldVotingPeriod",
          "type": "uint256"
        },
        {
          "indexed": false,
          "internalType": "uint256",
          "name": "newVotingPeriod",
          "type": "uint256"
        }
      ],
      "name": "VotingPeriodSet",
      "type": "event"
    },
    {
      "anonymous": false,
      "inputs": [
        {
          "indexed": false,
          "internalType": "uint256",
          "name": "ret0",
          "type": "uint256"
        }
      ],
      "name": "return$_cancel",
      "type": "event"
    },
    {
      "anonymous": false,
      "inputs": [
        {
          "indexed": false,
          "internalType": "uint256",
          "name": "ret0",
          "type": "uint256"
        }
      ],
      "name": "return$_castVote_uint256_address_uint8_string",
      "type": "event"
    },
    {
      "anonymous": false,
      "inputs": [
        {
          "indexed": false,
          "internalType": "uint256",
          "name": "ret0",
          "type": "uint256"
        }
      ],
      "name": "return$_castVote_uint256_address_uint8_string_bytes",
      "type": "event"
    },
    {
      "anonymous": false,
      "inputs": [
        {
          "indexed": false,
          "internalType": "uint256",
          "name": "ret0",
          "type": "uint256"
        }
      ],
      "name": "return$_countVote",
      "type": "event"
    },
    {
      "anonymous": false,
      "inputs": [
        {
          "indexed": false,
          "internalType": "uint256",
          "name": "proposalId",
          "type": "uint256"
        }
      ],
      "name": "return$_propose",
      "type": "event"
    },
    {
      "anonymous": false,
      "inputs": [
        {
          "indexed": false,
          "internalType": "uint48",
          "name": "ret0",
          "type": "uint48"
        }
      ],
      "name": "return$_queueOperations",
      "type": "event"
    },
    {
      "anonymous": false,
      "inputs": [
        {
          "indexed": false,
          "internalType": "uint256",
          "name": "ret0",
          "type": "uint256"
        }
      ],
      "name": "return$_useNonce",
      "type": "event"
    },
    {
      "inputs": [],
      "name": "$_EIP712Name",
      "outputs": [
        {
          "internalType": "string",
          "name": "ret0",
          "type": "string"
        }
      ],
      "stateMutability": "view",
      "type": "function"
    },
    {
      "inputs": [],
      "name": "$_EIP712Version",
      "outputs": [
        {
          "internalType": "string",
          "name": "ret0",
          "type": "string"
        }
      ],
      "stateMutability": "view",
      "type": "function"
    },
    {
      "inputs": [
        {
          "internalType": "address[]",
          "name": "targets",
          "type": "address[]"
        },
        {
          "internalType": "uint256[]",
          "name": "values",
          "type": "uint256[]"
        },
        {
          "internalType": "bytes[]",
          "name": "calldatas",
          "type": "bytes[]"
        },
        {
          "internalType": "bytes32",
          "name": "descriptionHash",
          "type": "bytes32"
        }
      ],
      "name": "$_cancel",
      "outputs": [
        {
          "internalType": "uint256",
          "name": "ret0",
          "type": "uint256"
        }
      ],
      "stateMutability": "nonpayable",
      "type": "function"
    },
    {
      "inputs": [
        {
          "internalType": "uint256",
          "name": "proposalId",
          "type": "uint256"
        },
        {
          "internalType": "address",
          "name": "account",
          "type": "address"
        },
        {
          "internalType": "uint8",
          "name": "support",
          "type": "uint8"
        },
        {
          "internalType": "string",
          "name": "reason",
          "type": "string"
        },
        {
          "internalType": "bytes",
          "name": "params",
          "type": "bytes"
        }
      ],
      "name": "$_castVote",
      "outputs": [
        {
          "internalType": "uint256",
          "name": "ret0",
          "type": "uint256"
        }
      ],
      "stateMutability": "nonpayable",
      "type": "function"
    },
    {
      "inputs": [
        {
          "internalType": "uint256",
          "name": "proposalId",
          "type": "uint256"
        },
        {
          "internalType": "address",
          "name": "account",
          "type": "address"
        },
        {
          "internalType": "uint8",
          "name": "support",
          "type": "uint8"
        },
        {
          "internalType": "string",
          "name": "reason",
          "type": "string"
        }
      ],
      "name": "$_castVote",
      "outputs": [
        {
          "internalType": "uint256",
          "name": "ret0",
          "type": "uint256"
        }
      ],
      "stateMutability": "nonpayable",
      "type": "function"
    },
    {
      "inputs": [],
      "name": "$_checkGovernance",
      "outputs": [],
      "stateMutability": "nonpayable",
      "type": "function"
    },
    {
      "inputs": [],
      "name": "$_contextSuffixLength",
      "outputs": [
        {
          "internalType": "uint256",
          "name": "ret0",
          "type": "uint256"
        }
      ],
      "stateMutability": "view",
      "type": "function"
    },
    {
      "inputs": [
        {
          "internalType": "uint256",
          "name": "proposalId",
          "type": "uint256"
        },
        {
          "internalType": "address",
          "name": "account",
          "type": "address"
        },
        {
          "internalType": "uint8",
          "name": "support",
          "type": "uint8"
        },
        {
          "internalType": "uint256",
          "name": "totalWeight",
          "type": "uint256"
        },
        {
          "internalType": "bytes",
          "name": "arg4",
          "type": "bytes"
        }
      ],
      "name": "$_countVote",
      "outputs": [
        {
          "internalType": "uint256",
          "name": "ret0",
          "type": "uint256"
        }
      ],
      "stateMutability": "nonpayable",
      "type": "function"
    },
    {
      "inputs": [],
      "name": "$_defaultParams",
      "outputs": [
        {
          "internalType": "bytes",
          "name": "ret0",
          "type": "bytes"
        }
      ],
      "stateMutability": "view",
      "type": "function"
    },
    {
      "inputs": [],
      "name": "$_domainSeparatorV4",
      "outputs": [
        {
          "internalType": "bytes32",
          "name": "ret0",
          "type": "bytes32"
        }
      ],
      "stateMutability": "view",
      "type": "function"
    },
    {
      "inputs": [
        {
          "internalType": "enum IGovernor.ProposalState",
          "name": "proposalState",
          "type": "uint8"
        }
      ],
      "name": "$_encodeStateBitmap",
      "outputs": [
        {
          "internalType": "bytes32",
          "name": "ret0",
          "type": "bytes32"
        }
      ],
      "stateMutability": "pure",
      "type": "function"
    },
    {
      "inputs": [
        {
          "internalType": "uint256",
          "name": "arg0",
          "type": "uint256"
        },
        {
          "internalType": "address[]",
          "name": "targets",
          "type": "address[]"
        },
        {
          "internalType": "uint256[]",
          "name": "values",
          "type": "uint256[]"
        },
        {
          "internalType": "bytes[]",
          "name": "calldatas",
          "type": "bytes[]"
        },
        {
          "internalType": "bytes32",
          "name": "arg4",
          "type": "bytes32"
        }
      ],
      "name": "$_executeOperations",
      "outputs": [],
      "stateMutability": "nonpayable",
      "type": "function"
    },
    {
      "inputs": [],
      "name": "$_executor",
      "outputs": [
        {
          "internalType": "address",
          "name": "ret0",
          "type": "address"
        }
      ],
      "stateMutability": "view",
      "type": "function"
    },
    {
      "inputs": [
        {
          "internalType": "address",
          "name": "account",
          "type": "address"
        },
        {
          "internalType": "uint256",
          "name": "timepoint",
          "type": "uint256"
        },
        {
          "internalType": "bytes",
          "name": "arg2",
          "type": "bytes"
        }
      ],
      "name": "$_getVotes",
      "outputs": [
        {
          "internalType": "uint256",
          "name": "ret0",
          "type": "uint256"
        }
      ],
      "stateMutability": "view",
      "type": "function"
    },
    {
      "inputs": [
        {
          "internalType": "bytes32",
          "name": "structHash",
          "type": "bytes32"
        }
      ],
      "name": "$_hashTypedDataV4",
      "outputs": [
        {
          "internalType": "bytes32",
          "name": "ret0",
          "type": "bytes32"
        }
      ],
      "stateMutability": "view",
      "type": "function"
    },
    {
      "inputs": [
        {
          "internalType": "uint256",
          "name": "newLatestProposalId",
          "type": "uint256"
        }
      ],
      "name": "$_initializeLatestProposalId",
      "outputs": [],
      "stateMutability": "nonpayable",
      "type": "function"
    },
    {
      "inputs": [
        {
          "internalType": "address",
          "name": "proposer",
          "type": "address"
        },
        {
          "internalType": "string",
          "name": "description",
          "type": "string"
        }
      ],
      "name": "$_isValidDescriptionForProposer",
      "outputs": [
        {
          "internalType": "bool",
          "name": "ret0",
          "type": "bool"
        }
      ],
      "stateMutability": "view",
      "type": "function"
    },
    {
      "inputs": [],
      "name": "$_msgData",
      "outputs": [
        {
          "internalType": "bytes",
          "name": "ret0",
          "type": "bytes"
        }
      ],
      "stateMutability": "view",
      "type": "function"
    },
    {
      "inputs": [],
      "name": "$_msgSender",
      "outputs": [
        {
          "internalType": "address",
          "name": "ret0",
          "type": "address"
        }
      ],
      "stateMutability": "view",
      "type": "function"
    },
    {
      "inputs": [
        {
          "internalType": "address[]",
          "name": "targets",
          "type": "address[]"
        },
        {
          "internalType": "uint256[]",
          "name": "values",
          "type": "uint256[]"
        },
        {
          "internalType": "bytes[]",
          "name": "calldatas",
          "type": "bytes[]"
        },
        {
          "internalType": "string",
          "name": "description",
          "type": "string"
        },
        {
          "internalType": "address",
          "name": "proposer",
          "type": "address"
        }
      ],
      "name": "$_propose",
      "outputs": [
        {
          "internalType": "uint256",
          "name": "proposalId",
          "type": "uint256"
        }
      ],
      "stateMutability": "nonpayable",
      "type": "function"
    },
    {
      "inputs": [
        {
          "internalType": "uint256",
          "name": "arg0",
          "type": "uint256"
        },
        {
          "internalType": "address[]",
          "name": "arg1",
          "type": "address[]"
        },
        {
          "internalType": "uint256[]",
          "name": "arg2",
          "type": "uint256[]"
        },
        {
          "internalType": "bytes[]",
          "name": "arg3",
          "type": "bytes[]"
        },
        {
          "internalType": "bytes32",
          "name": "arg4",
          "type": "bytes32"
        }
      ],
      "name": "$_queueOperations",
      "outputs": [
        {
          "internalType": "uint48",
          "name": "ret0",
          "type": "uint48"
        }
      ],
      "stateMutability": "nonpayable",
      "type": "function"
    },
    {
      "inputs": [
        {
          "internalType": "uint256",
          "name": "proposalId",
          "type": "uint256"
        }
      ],
      "name": "$_quorumReached",
      "outputs": [
        {
          "internalType": "bool",
          "name": "ret0",
          "type": "bool"
        }
      ],
      "stateMutability": "view",
      "type": "function"
    },
    {
      "inputs": [
        {
          "internalType": "uint256",
          "name": "newProposalThreshold",
          "type": "uint256"
        }
      ],
      "name": "$_setProposalThreshold",
      "outputs": [],
      "stateMutability": "nonpayable",
      "type": "function"
    },
    {
      "inputs": [
        {
          "internalType": "uint48",
          "name": "newVotingDelay",
          "type": "uint48"
        }
      ],
      "name": "$_setVotingDelay",
      "outputs": [],
      "stateMutability": "nonpayable",
      "type": "function"
    },
    {
      "inputs": [
        {
          "internalType": "uint32",
          "name": "newVotingPeriod",
          "type": "uint32"
        }
      ],
      "name": "$_setVotingPeriod",
      "outputs": [],
      "stateMutability": "nonpayable",
      "type": "function"
    },
    {
      "inputs": [
        {
          "internalType": "uint256",
          "name": "proposalId",
          "type": "uint256"
        }
      ],
      "name": "$_tallyUpdated",
      "outputs": [],
      "stateMutability": "nonpayable",
      "type": "function"
    },
    {
      "inputs": [
        {
          "internalType": "uint256",
          "name": "newQuorumNumerator",
          "type": "uint256"
        }
      ],
      "name": "$_updateQuorumNumerator",
      "outputs": [],
      "stateMutability": "nonpayable",
      "type": "function"
    },
    {
      "inputs": [
        {
          "internalType": "address",
          "name": "owner",
          "type": "address"
        },
        {
          "internalType": "uint256",
          "name": "nonce",
          "type": "uint256"
        }
      ],
      "name": "$_useCheckedNonce",
      "outputs": [],
      "stateMutability": "nonpayable",
      "type": "function"
    },
    {
      "inputs": [
        {
          "internalType": "address",
          "name": "owner",
          "type": "address"
        }
      ],
      "name": "$_useNonce",
      "outputs": [
        {
          "internalType": "uint256",
          "name": "ret0",
          "type": "uint256"
        }
      ],
      "stateMutability": "nonpayable",
      "type": "function"
    },
    {
      "inputs": [
        {
          "internalType": "uint256",
          "name": "proposalId",
          "type": "uint256"
        },
        {
          "internalType": "bytes32",
          "name": "allowedStates",
          "type": "bytes32"
        }
      ],
      "name": "$_validateStateBitmap",
      "outputs": [
        {
          "internalType": "enum IGovernor.ProposalState",
          "name": "ret0",
          "type": "uint8"
        }
      ],
      "stateMutability": "view",
      "type": "function"
    },
    {
      "inputs": [
        {
          "internalType": "uint256",
          "name": "proposalId",
          "type": "uint256"
        }
      ],
      "name": "$_voteSucceeded",
      "outputs": [
        {
          "internalType": "bool",
          "name": "ret0",
          "type": "bool"
        }
      ],
      "stateMutability": "view",
      "type": "function"
    },
    {
      "inputs": [],
      "name": "BALLOT_TYPEHASH",
      "outputs": [
        {
          "internalType": "bytes32",
          "name": "",
          "type": "bytes32"
        }
      ],
      "stateMutability": "view",
      "type": "function"
    },
    {
      "inputs": [],
      "name": "CLOCK_MODE",
      "outputs": [
        {
          "internalType": "string",
          "name": "",
          "type": "string"
        }
      ],
      "stateMutability": "view",
      "type": "function"
    },
    {
      "inputs": [],
      "name": "COUNTING_MODE",
      "outputs": [
        {
          "internalType": "string",
          "name": "",
          "type": "string"
        }
      ],
      "stateMutability": "pure",
      "type": "function"
    },
    {
      "inputs": [],
      "name": "EXTENDED_BALLOT_TYPEHASH",
      "outputs": [
        {
          "internalType": "bytes32",
          "name": "",
          "type": "bytes32"
        }
      ],
      "stateMutability": "view",
      "type": "function"
    },
    {
      "inputs": [],
      "name": "__hh_exposed_bytecode_marker",
      "outputs": [
        {
          "internalType": "bytes32",
          "name": "",
          "type": "bytes32"
        }
      ],
      "stateMutability": "view",
      "type": "function"
    },
    {
      "inputs": [
        {
          "internalType": "address[]",
          "name": "targets",
          "type": "address[]"
        },
        {
          "internalType": "uint256[]",
          "name": "values",
          "type": "uint256[]"
        },
        {
          "internalType": "bytes[]",
          "name": "calldatas",
          "type": "bytes[]"
        },
        {
          "internalType": "bytes32",
          "name": "descriptionHash",
          "type": "bytes32"
        }
      ],
      "name": "cancel",
      "outputs": [
        {
          "internalType": "uint256",
          "name": "",
          "type": "uint256"
        }
      ],
      "stateMutability": "nonpayable",
      "type": "function"
    },
    {
      "inputs": [
        {
          "internalType": "uint256",
          "name": "proposalId",
          "type": "uint256"
        },
        {
          "internalType": "uint8",
          "name": "support",
          "type": "uint8"
        }
      ],
      "name": "castVote",
      "outputs": [
        {
          "internalType": "uint256",
          "name": "",
          "type": "uint256"
        }
      ],
      "stateMutability": "nonpayable",
      "type": "function"
    },
    {
      "inputs": [
        {
          "internalType": "uint256",
          "name": "proposalId",
          "type": "uint256"
        },
        {
          "internalType": "uint8",
          "name": "support",
          "type": "uint8"
        },
        {
          "internalType": "address",
          "name": "voter",
          "type": "address"
        },
        {
          "internalType": "bytes",
          "name": "signature",
          "type": "bytes"
        }
      ],
      "name": "castVoteBySig",
      "outputs": [
        {
          "internalType": "uint256",
          "name": "",
          "type": "uint256"
        }
      ],
      "stateMutability": "nonpayable",
      "type": "function"
    },
    {
      "inputs": [
        {
          "internalType": "uint256",
          "name": "proposalId",
          "type": "uint256"
        },
        {
          "internalType": "uint8",
          "name": "support",
          "type": "uint8"
        },
        {
          "internalType": "string",
          "name": "reason",
          "type": "string"
        }
      ],
      "name": "castVoteWithReason",
      "outputs": [
        {
          "internalType": "uint256",
          "name": "",
          "type": "uint256"
        }
      ],
      "stateMutability": "nonpayable",
      "type": "function"
    },
    {
      "inputs": [
        {
          "internalType": "uint256",
          "name": "proposalId",
          "type": "uint256"
        },
        {
          "internalType": "uint8",
          "name": "support",
          "type": "uint8"
        },
        {
          "internalType": "string",
          "name": "reason",
          "type": "string"
        },
        {
          "internalType": "bytes",
          "name": "params",
          "type": "bytes"
        }
      ],
      "name": "castVoteWithReasonAndParams",
      "outputs": [
        {
          "internalType": "uint256",
          "name": "",
          "type": "uint256"
        }
      ],
      "stateMutability": "nonpayable",
      "type": "function"
    },
    {
      "inputs": [
        {
          "internalType": "uint256",
          "name": "proposalId",
          "type": "uint256"
        },
        {
          "internalType": "uint8",
          "name": "support",
          "type": "uint8"
        },
        {
          "internalType": "address",
          "name": "voter",
          "type": "address"
        },
        {
          "internalType": "string",
          "name": "reason",
          "type": "string"
        },
        {
          "internalType": "bytes",
          "name": "params",
          "type": "bytes"
        },
        {
          "internalType": "bytes",
          "name": "signature",
          "type": "bytes"
        }
      ],
      "name": "castVoteWithReasonAndParamsBySig",
      "outputs": [
        {
          "internalType": "uint256",
          "name": "",
          "type": "uint256"
        }
      ],
      "stateMutability": "nonpayable",
      "type": "function"
    },
    {
      "inputs": [],
      "name": "clock",
      "outputs": [
        {
          "internalType": "uint48",
          "name": "",
          "type": "uint48"
        }
      ],
      "stateMutability": "view",
      "type": "function"
    },
    {
      "inputs": [],
      "name": "eip712Domain",
      "outputs": [
        {
          "internalType": "bytes1",
          "name": "fields",
          "type": "bytes1"
        },
        {
          "internalType": "string",
          "name": "name",
          "type": "string"
        },
        {
          "internalType": "string",
          "name": "version",
          "type": "string"
        },
        {
          "internalType": "uint256",
          "name": "chainId",
          "type": "uint256"
        },
        {
          "internalType": "address",
          "name": "verifyingContract",
          "type": "address"
        },
        {
          "internalType": "bytes32",
          "name": "salt",
          "type": "bytes32"
        },
        {
          "internalType": "uint256[]",
          "name": "extensions",
          "type": "uint256[]"
        }
      ],
      "stateMutability": "view",
      "type": "function"
    },
    {
      "inputs": [
        {
          "internalType": "address[]",
          "name": "targets",
          "type": "address[]"
        },
        {
          "internalType": "uint256[]",
          "name": "values",
          "type": "uint256[]"
        },
        {
          "internalType": "bytes[]",
          "name": "calldatas",
          "type": "bytes[]"
        },
        {
          "internalType": "bytes32",
          "name": "descriptionHash",
          "type": "bytes32"
        }
      ],
      "name": "execute",
      "outputs": [
        {
          "internalType": "uint256",
          "name": "",
          "type": "uint256"
        }
      ],
      "stateMutability": "payable",
      "type": "function"
    },
    {
      "inputs": [
        {
          "internalType": "address[]",
          "name": "targets",
          "type": "address[]"
        },
        {
          "internalType": "uint256[]",
          "name": "values",
          "type": "uint256[]"
        },
        {
          "internalType": "bytes[]",
          "name": "calldatas",
          "type": "bytes[]"
        },
        {
          "internalType": "bytes32",
          "name": "descriptionHash",
          "type": "bytes32"
        }
      ],
      "name": "getProposalId",
      "outputs": [
        {
          "internalType": "uint256",
          "name": "",
          "type": "uint256"
        }
      ],
      "stateMutability": "view",
      "type": "function"
    },
    {
      "inputs": [
        {
          "internalType": "address",
          "name": "account",
          "type": "address"
        },
        {
          "internalType": "uint256",
          "name": "timepoint",
          "type": "uint256"
        }
      ],
      "name": "getVotes",
      "outputs": [
        {
          "internalType": "uint256",
          "name": "",
          "type": "uint256"
        }
      ],
      "stateMutability": "view",
      "type": "function"
    },
    {
      "inputs": [
        {
          "internalType": "address",
          "name": "account",
          "type": "address"
        },
        {
          "internalType": "uint256",
          "name": "timepoint",
          "type": "uint256"
        },
        {
          "internalType": "bytes",
          "name": "params",
          "type": "bytes"
        }
      ],
      "name": "getVotesWithParams",
      "outputs": [
        {
          "internalType": "uint256",
          "name": "",
          "type": "uint256"
        }
      ],
      "stateMutability": "view",
      "type": "function"
    },
    {
      "inputs": [
        {
          "internalType": "uint256",
          "name": "proposalId",
          "type": "uint256"
        },
        {
          "internalType": "address",
          "name": "account",
          "type": "address"
        }
      ],
      "name": "hasVoted",
      "outputs": [
        {
          "internalType": "bool",
          "name": "",
          "type": "bool"
        }
      ],
      "stateMutability": "view",
      "type": "function"
    },
    {
      "inputs": [
        {
          "internalType": "address[]",
          "name": "targets",
          "type": "address[]"
        },
        {
          "internalType": "uint256[]",
          "name": "values",
          "type": "uint256[]"
        },
        {
          "internalType": "bytes[]",
          "name": "calldatas",
          "type": "bytes[]"
        },
        {
          "internalType": "bytes32",
          "name": "descriptionHash",
          "type": "bytes32"
        }
      ],
      "name": "hashProposal",
      "outputs": [
        {
          "internalType": "uint256",
          "name": "",
          "type": "uint256"
        }
      ],
      "stateMutability": "pure",
      "type": "function"
    },
    {
      "inputs": [],
      "name": "latestProposalId",
      "outputs": [
        {
          "internalType": "uint256",
          "name": "",
          "type": "uint256"
        }
      ],
      "stateMutability": "view",
      "type": "function"
    },
    {
      "inputs": [],
      "name": "name",
      "outputs": [
        {
          "internalType": "string",
          "name": "",
          "type": "string"
        }
      ],
      "stateMutability": "view",
      "type": "function"
    },
    {
      "inputs": [
        {
          "internalType": "address",
          "name": "owner",
          "type": "address"
        }
      ],
      "name": "nonces",
      "outputs": [
        {
          "internalType": "uint256",
          "name": "",
          "type": "uint256"
        }
      ],
      "stateMutability": "view",
      "type": "function"
    },
    {
      "inputs": [
        {
          "internalType": "address",
          "name": "",
          "type": "address"
        },
        {
          "internalType": "address",
          "name": "",
          "type": "address"
        },
        {
          "internalType": "uint256[]",
          "name": "",
          "type": "uint256[]"
        },
        {
          "internalType": "uint256[]",
          "name": "",
          "type": "uint256[]"
        },
        {
          "internalType": "bytes",
          "name": "",
          "type": "bytes"
        }
      ],
      "name": "onERC1155BatchReceived",
      "outputs": [
        {
          "internalType": "bytes4",
          "name": "",
          "type": "bytes4"
        }
      ],
      "stateMutability": "nonpayable",
      "type": "function"
    },
    {
      "inputs": [
        {
          "internalType": "address",
          "name": "",
          "type": "address"
        },
        {
          "internalType": "address",
          "name": "",
          "type": "address"
        },
        {
          "internalType": "uint256",
          "name": "",
          "type": "uint256"
        },
        {
          "internalType": "uint256",
          "name": "",
          "type": "uint256"
        },
        {
          "internalType": "bytes",
          "name": "",
          "type": "bytes"
        }
      ],
      "name": "onERC1155Received",
      "outputs": [
        {
          "internalType": "bytes4",
          "name": "",
          "type": "bytes4"
        }
      ],
      "stateMutability": "nonpayable",
      "type": "function"
    },
    {
      "inputs": [
        {
          "internalType": "address",
          "name": "",
          "type": "address"
        },
        {
          "internalType": "address",
          "name": "",
          "type": "address"
        },
        {
          "internalType": "uint256",
          "name": "",
          "type": "uint256"
        },
        {
          "internalType": "bytes",
          "name": "",
          "type": "bytes"
        }
      ],
      "name": "onERC721Received",
      "outputs": [
        {
          "internalType": "bytes4",
          "name": "",
          "type": "bytes4"
        }
      ],
      "stateMutability": "nonpayable",
      "type": "function"
    },
    {
      "inputs": [
        {
          "internalType": "uint256",
          "name": "proposalId",
          "type": "uint256"
        }
      ],
      "name": "proposalDeadline",
      "outputs": [
        {
          "internalType": "uint256",
          "name": "",
          "type": "uint256"
        }
      ],
      "stateMutability": "view",
      "type": "function"
    },
    {
      "inputs": [
        {
          "internalType": "uint256",
          "name": "proposalId",
          "type": "uint256"
        }
      ],
      "name": "proposalEta",
      "outputs": [
        {
          "internalType": "uint256",
          "name": "",
          "type": "uint256"
        }
      ],
      "stateMutability": "view",
      "type": "function"
    },
    {
      "inputs": [
        {
          "internalType": "uint256",
          "name": "",
          "type": "uint256"
        }
      ],
      "name": "proposalNeedsQueuing",
      "outputs": [
        {
          "internalType": "bool",
          "name": "",
          "type": "bool"
        }
      ],
      "stateMutability": "view",
      "type": "function"
    },
    {
      "inputs": [
        {
          "internalType": "uint256",
          "name": "proposalId",
          "type": "uint256"
        }
      ],
      "name": "proposalProposer",
      "outputs": [
        {
          "internalType": "address",
          "name": "",
          "type": "address"
        }
      ],
      "stateMutability": "view",
      "type": "function"
    },
    {
      "inputs": [
        {
          "internalType": "uint256",
          "name": "proposalId",
          "type": "uint256"
        }
      ],
      "name": "proposalSnapshot",
      "outputs": [
        {
          "internalType": "uint256",
          "name": "",
          "type": "uint256"
        }
      ],
      "stateMutability": "view",
      "type": "function"
    },
    {
      "inputs": [],
      "name": "proposalThreshold",
      "outputs": [
        {
          "internalType": "uint256",
          "name": "",
          "type": "uint256"
        }
      ],
      "stateMutability": "view",
      "type": "function"
    },
    {
      "inputs": [
        {
          "internalType": "uint256",
          "name": "proposalId",
          "type": "uint256"
        }
      ],
      "name": "proposalVotes",
      "outputs": [
        {
          "internalType": "uint256",
          "name": "againstVotes",
          "type": "uint256"
        },
        {
          "internalType": "uint256",
          "name": "forVotes",
          "type": "uint256"
        },
        {
          "internalType": "uint256",
          "name": "abstainVotes",
          "type": "uint256"
        }
      ],
      "stateMutability": "view",
      "type": "function"
    },
    {
      "inputs": [
        {
          "internalType": "address[]",
          "name": "targets",
          "type": "address[]"
        },
        {
          "internalType": "uint256[]",
          "name": "values",
          "type": "uint256[]"
        },
        {
          "internalType": "bytes[]",
          "name": "calldatas",
          "type": "bytes[]"
        },
        {
          "internalType": "string",
          "name": "description",
          "type": "string"
        }
      ],
      "name": "propose",
      "outputs": [
        {
          "internalType": "uint256",
          "name": "",
          "type": "uint256"
        }
      ],
      "stateMutability": "nonpayable",
      "type": "function"
    },
    {
      "inputs": [
        {
          "internalType": "address[]",
          "name": "targets",
          "type": "address[]"
        },
        {
          "internalType": "uint256[]",
          "name": "values",
          "type": "uint256[]"
        },
        {
          "internalType": "bytes[]",
          "name": "calldatas",
          "type": "bytes[]"
        },
        {
          "internalType": "bytes32",
          "name": "descriptionHash",
          "type": "bytes32"
        }
      ],
      "name": "queue",
      "outputs": [
        {
          "internalType": "uint256",
          "name": "",
          "type": "uint256"
        }
      ],
      "stateMutability": "nonpayable",
      "type": "function"
    },
    {
      "inputs": [
        {
          "internalType": "uint256",
          "name": "timepoint",
          "type": "uint256"
        }
      ],
      "name": "quorum",
      "outputs": [
        {
          "internalType": "uint256",
          "name": "",
          "type": "uint256"
        }
      ],
      "stateMutability": "view",
      "type": "function"
    },
    {
      "inputs": [],
      "name": "quorumDenominator",
      "outputs": [
        {
          "internalType": "uint256",
          "name": "",
          "type": "uint256"
        }
      ],
      "stateMutability": "view",
      "type": "function"
    },
    {
      "inputs": [
        {
          "internalType": "uint256",
          "name": "timepoint",
          "type": "uint256"
        }
      ],
      "name": "quorumNumerator",
      "outputs": [
        {
          "internalType": "uint256",
          "name": "",
          "type": "uint256"
        }
      ],
      "stateMutability": "view",
      "type": "function"
    },
    {
      "inputs": [],
      "name": "quorumNumerator",
      "outputs": [
        {
          "internalType": "uint256",
          "name": "",
          "type": "uint256"
        }
      ],
      "stateMutability": "view",
      "type": "function"
    },
    {
      "inputs": [
        {
          "internalType": "address",
          "name": "target",
          "type": "address"
        },
        {
          "internalType": "uint256",
          "name": "value",
          "type": "uint256"
        },
        {
          "internalType": "bytes",
          "name": "data",
          "type": "bytes"
        }
      ],
      "name": "relay",
      "outputs": [],
      "stateMutability": "payable",
      "type": "function"
    },
    {
      "inputs": [
        {
          "internalType": "uint256",
          "name": "newProposalThreshold",
          "type": "uint256"
        }
      ],
      "name": "setProposalThreshold",
      "outputs": [],
      "stateMutability": "nonpayable",
      "type": "function"
    },
    {
      "inputs": [
        {
          "internalType": "uint48",
          "name": "newVotingDelay",
          "type": "uint48"
        }
      ],
      "name": "setVotingDelay",
      "outputs": [],
      "stateMutability": "nonpayable",
      "type": "function"
    },
    {
      "inputs": [
        {
          "internalType": "uint32",
          "name": "newVotingPeriod",
          "type": "uint32"
        }
      ],
      "name": "setVotingPeriod",
      "outputs": [],
      "stateMutability": "nonpayable",
      "type": "function"
    },
    {
      "inputs": [
        {
          "internalType": "uint256",
          "name": "proposalId",
          "type": "uint256"
        }
      ],
      "name": "state",
      "outputs": [
        {
          "internalType": "enum IGovernor.ProposalState",
          "name": "",
          "type": "uint8"
        }
      ],
      "stateMutability": "view",
      "type": "function"
    },
    {
      "inputs": [
        {
          "internalType": "bytes4",
          "name": "interfaceId",
          "type": "bytes4"
        }
      ],
      "name": "supportsInterface",
      "outputs": [
        {
          "internalType": "bool",
          "name": "",
          "type": "bool"
        }
      ],
      "stateMutability": "view",
      "type": "function"
    },
    {
      "inputs": [],
      "name": "token",
      "outputs": [
        {
          "internalType": "contract IERC5805",
          "name": "",
          "type": "address"
        }
      ],
      "stateMutability": "view",
      "type": "function"
    },
    {
      "inputs": [
        {
          "internalType": "uint256",
          "name": "newQuorumNumerator",
          "type": "uint256"
        }
      ],
      "name": "updateQuorumNumerator",
      "outputs": [],
      "stateMutability": "nonpayable",
      "type": "function"
    },
    {
      "inputs": [],
      "name": "version",
      "outputs": [
        {
          "internalType": "string",
          "name": "",
          "type": "string"
        }
      ],
      "stateMutability": "view",
      "type": "function"
    },
    {
      "inputs": [],
      "name": "votingDelay",
      "outputs": [
        {
          "internalType": "uint256",
          "name": "",
          "type": "uint256"
        }
      ],
      "stateMutability": "view",
      "type": "function"
    },
    {
      "inputs": [],
      "name": "votingPeriod",
      "outputs": [
        {
          "internalType": "uint256",
          "name": "",
          "type": "uint256"
        }
      ],
      "stateMutability": "view",
      "type": "function"
    },
    {
      "stateMutability": "payable",
      "type": "receive"
    }
  ],
  "bytecode": "0x610180604052604051620056df380380620056df83398101604081905262000027916200071b565b80828686868a806200004d6040805180820190915260018152603160f81b602082015290565b62000059825f6200015a565b610120526200006a8160016200015a565b61014052815160208084019190912060e052815190820120610100524660a052620000f760e05161010051604080517f8b73c3c69bb8fe3d512ecc4cf759cc79239f7b179b0ffacaa9a75d522b39400f60208201529081019290925260608201524660808201523060a08201525f9060c00160405160208183030381529060405280519060200120905090565b60805250503060c05260036200010e8282620008a2565b506200011c90508362000192565b6200012782620001f8565b62000132816200029d565b5050506001600160a01b0316610160526200014d81620002de565b5050505050505062000a02565b5f602083511015620001795762000171836200037d565b90506200018c565b81620001868482620008a2565b5060ff90505b92915050565b6008546040805165ffffffffffff928316815291831660208301527fc565b045403dc03c2eea82b81a0465edad9e2e7fc4d97e11421c209da93d7a93910160405180910390a16008805465ffffffffffff191665ffffffffffff92909216919091179055565b8063ffffffff165f03620002265760405163f1cfbf0560e01b81525f60048201526024015b60405180910390fd5b6008546040805163ffffffff66010000000000009093048316815291831660208301527f7e3f7f0708a84de9203036abaa450dccc85ad5ff52f78c170f3edb55cf5e8828910160405180910390a16008805463ffffffff90921666010000000000000263ffffffff60301b19909216919091179055565b60075460408051918252602082018390527fccb45da8d5717e6c4544694297c4ba5cf151d455c9bb0ed4fc7a38411bc05461910160405180910390a1600755565b6064808211156200030d5760405163243e544560e01b815260048101839052602481018290526044016200021d565b5f62000318620003bf565b90506200033d62000328620003da565b62000333856200045b565b6009919062000494565b505060408051828152602081018590527f0553476bf02ef2726e8ce5ced78d63e26e602e4a2257b1f559418e24b4633997910160405180910390a1505050565b5f80829050601f81511115620003aa578260405163305a27a960e01b81526004016200021d91906200096e565b8051620003b782620009a2565b179392505050565b5f620003cc6009620004b0565b6001600160d01b0316905090565b5f620003e66101605190565b6001600160a01b03166391ddadf46040518163ffffffff1660e01b8152600401602060405180830381865afa92505050801562000442575060408051601f3d908101601f191682019092526200043f91810190620009c6565b60015b620004565762000451620004fd565b905090565b919050565b5f6001600160d01b0382111562000490576040516306dfcc6560e41b815260d06004820152602481018390526044016200021d565b5090565b5f80620004a385858562000509565b915091505b935093915050565b80545f908015620004f457620004da83620004cd600184620009e2565b5f91825260209091200190565b54660100000000000090046001600160d01b0316620004f6565b5f5b9392505050565b5f62000451436200066e565b82545f908190801562000610575f6200052987620004cd600185620009e2565b805490915065ffffffffffff80821691660100000000000090046001600160d01b03169088168211156200057057604051632520601d60e01b815260040160405180910390fd5b8765ffffffffffff168265ffffffffffff1603620005ae57825465ffffffffffff1666010000000000006001600160d01b0389160217835562000601565b6040805180820190915265ffffffffffff808a1682526001600160d01b03808a1660208085019182528d54600181018f555f8f815291909120945191519092166601000000000000029216919091179101555b9450859350620004a892505050565b50506040805180820190915265ffffffffffff80851682526001600160d01b0380851660208085019182528854600181018a555f8a8152918220955192519093166601000000000000029190931617920191909155905081620004a8565b5f65ffffffffffff82111562000490576040516306dfcc6560e41b815260306004820152602481018390526044016200021d565b634e487b7160e01b5f52604160045260245ffd5b5f5b83811015620006d2578181015183820152602001620006b8565b50505f910152565b805165ffffffffffff8116811462000456575f80fd5b805163ffffffff8116811462000456575f80fd5b80516001600160a01b038116811462000456575f80fd5b5f805f805f8060c0878903121562000731575f80fd5b86516001600160401b038082111562000748575f80fd5b818901915089601f8301126200075c575f80fd5b815181811115620007715762000771620006a2565b604051601f8201601f19908116603f011681019083821181831017156200079c576200079c620006a2565b816040528281528c6020848701011115620007b5575f80fd5b620007c8836020830160208801620006b6565b809a505050505050620007de60208801620006da565b9450620007ee60408801620006f0565b935060608701519250620008056080880162000704565b915060a087015190509295509295509295565b600181811c908216806200082d57607f821691505b6020821081036200084c57634e487b7160e01b5f52602260045260245ffd5b50919050565b601f8211156200089d57805f5260205f20601f840160051c81016020851015620008795750805b601f840160051c820191505b818110156200089a575f815560010162000885565b50505b505050565b81516001600160401b03811115620008be57620008be620006a2565b620008d681620008cf845462000818565b8462000852565b602080601f8311600181146200090c575f8415620008f45750858301515b5f19600386901b1c1916600185901b17855562000966565b5f85815260208120601f198616915b828110156200093c578886015182559484019460019091019084016200091b565b50858210156200095a57878501515f19600388901b60f8161c191681555b505060018460011b0185555b505050505050565b602081525f82518060208401526200098e816040850160208701620006b6565b601f01601f19169190910160400192915050565b805160208083015191908110156200084c575f1960209190910360031b1b16919050565b5f60208284031215620009d7575f80fd5b620004f682620006da565b818103818111156200018c57634e487b7160e01b5f52601160045260245ffd5b60805160a05160c05160e05161010051610120516101405161016051614c6562000a7a5f395f8181610ec90152818161155a01528181611cef015281816120c70152612ab601525f61236201525f6122d701525f6128cb01525f6128a301525f6127fe01525f61282801525f6128520152614c655ff3fe608060405260043610610466575f3560e01c80636b2f5df011610241578063b58131b011610134578063e488ade1116100b3578063f23a6e6111610078578063f23a6e6114610e52578063f7a2e6e114610e7d578063f8ce560a14610e9c578063fc0c546a14610ebb578063fc2e6e3c14610eed575f80fd5b8063e488ade114610db7578063e540d01d14610dd6578063e7fadc1614610df5578063eb9019d414610e14578063ece40cc114610e33575f80fd5b8063c59057e4116100f9578063c59057e414610ce2578063cbc1c5f314610d01578063daf80f5f14610d20578063dd4e2ba514610d3f578063deaaa7cc14610d84575f80fd5b8063b58131b014610c52578063bc197c8114610c66578063c01f9e3714610c91578063c242bfc714610cb0578063c28bc2fa14610ccf575f80fd5b806391ddadf4116101c0578063a15697c411610185578063a15697c414610bab578063a7713a7014610bca578063a8f8a66814610bde578063a9a9529414610bfd578063ab58fb8e14610c1c575f80fd5b806391ddadf414610b1257806397c3d33414610b3d5780639a802a6d14610b505780639e3db5e914610b6f578063a0710f0514610b8e575f80fd5b80637d5e81e2116102065780637d5e81e214610a655780637ecebe0014610a845780637f0edf3314610ab857806384b0196e14610acc5780638ff262e314610af3575f80fd5b80636b2f5df0146109ca5780636b4ac502146109e95780637235294514610a085780637905188714610a275780637b3c71d314610a46575f80fd5b8063342db7391161035957806354dc7b41116102d85780635c93b6ec1161029d5780635c93b6ec146109475780635f398a14146109665780635f8d5e741461098557806360c4247f1461099957806367354a84146109b8575f80fd5b806354dc7b41146108ad57806354fd4d50146108cc57806356781388146108f55780635b8d0e0d146109145780635c501ba814610933575f80fd5b80634724aa991161031e5780634724aa99146107f65780634abf4684146108085780634bf5d7e914610827578063506a6f0c1461083b578063544ffc9c1461085a575f80fd5b8063342db739146107225780633932abb1146107475780633e4f49e614610763578063438596321461078f578063452115d6146107d7575f80fd5b8063160cbed7116103e55780632e8fbee5116103aa5780632e8fbee51461067e5780632f2b6caa1461069d5780632fe3e261146106bc57806332cadf3c146106ef57806332f4dd9914610703575f80fd5b8063160cbed714610607578063174ccd82146106265780632656227d1461063a5780632904df291461064d5780632d63f6931461065f575f80fd5b80630d573cc41161042b5780630d573cc4146105265780630ede0bea146105455780631164d13b14610564578063143489d014610578578063150b7a02146105c4575f80fd5b806301ffc9a71461047357806302a251a3146104a757806304626344146104d257806306f3f9e6146104e657806306fdde0314610505575f80fd5b3661046f57005b005b5f80fd5b34801561047e575f80fd5b5061049261048d3660046138bd565b610f0c565b60405190151581526020015b60405180910390f35b3480156104b2575f80fd5b50600854600160301b900463ffffffff165b60405190815260200161049e565b3480156104dd575f80fd5b5061046d610f78565b3480156104f1575f80fd5b5061046d6105003660046138e4565b610f82565b348015610510575f80fd5b50610519610f93565b60405161049e9190613948565b348015610531575f80fd5b5061046d6105403660046138e4565b611023565b348015610550575f80fd5b5061046d61055f36600461395a565b61102c565b34801561056f575f80fd5b50610519611035565b348015610583575f80fd5b506105ac6105923660046138e4565b5f908152600460205260409020546001600160a01b031690565b6040516001600160a01b03909116815260200161049e565b3480156105cf575f80fd5b506105ee6105de366004613a56565b630a85bd0160e11b949350505050565b6040516001600160e01b0319909116815260200161049e565b348015610612575f80fd5b506104c4610621366004613c32565b611044565b348015610631575f80fd5b50610519611082565b6104c4610648366004613c32565b61108c565b348015610658575f80fd5b50336105ac565b34801561066a575f80fd5b506104c46106793660046138e4565b6111b4565b348015610689575f80fd5b506104c4610698366004613cbb565b6111d4565b3480156106a8575f80fd5b5061046d6106b7366004613d1b565b61121e565b3480156106c7575f80fd5b506104c47f3e83946653575f9a39005e1545185629e92736b7528ab20ca3816f315424a81181565b3480156106fa575f80fd5b506105196112a1565b34801561070e575f80fd5b506104c461071d366004613e0a565b6112de565b34801561072d575f80fd5b506104c46e1a185c991a185d0b595e1c1bdcd959608a1b81565b348015610752575f80fd5b5060085465ffffffffffff166104c4565b34801561076e575f80fd5b5061078261077d3660046138e4565b611399565b60405161049e9190613ed1565b34801561079a575f80fd5b506104926107a9366004613edf565b5f828152600a602090815260408083206001600160a01b038516845260030190915290205460ff1692915050565b3480156107e2575f80fd5b506104c46107f1366004613c32565b6114cf565b348015610801575f80fd5b50306105ac565b348015610813575f80fd5b506104926108223660046138e4565b61153b565b348015610832575f80fd5b50610519611556565b348015610846575f80fd5b506104c46108553660046138e4565b611616565b348015610865575f80fd5b506108926108743660046138e4565b5f908152600a60205260409020805460018201546002909201549092565b6040805193845260208401929092529082015260600161049e565b3480156108b8575f80fd5b506104926108c7366004613f09565b611620565b3480156108d7575f80fd5b506040805180820190915260018152603160f81b6020820152610519565b348015610900575f80fd5b506104c461090f366004613f57565b611668565b34801561091f575f80fd5b506104c461092e366004613f78565b611687565b34801561093e575f80fd5b506105196117c6565b348015610952575f80fd5b506104c4610961366004614028565b6117dc565b348015610971575f80fd5b506104c46109803660046140f1565b6118d4565b348015610990575f80fd5b506104c4611927565b3480156109a4575f80fd5b506104c46109b33660046138e4565b611930565b3480156109c3575f80fd5b505f6104c4565b3480156109d5575f80fd5b506104c46109e436600461416e565b6119bc565b3480156109f4575f80fd5b5061046d610a03366004614208565b611a68565b348015610a13575f80fd5b506104c4610a22366004614230565b611a76565b348015610a32575f80fd5b5061046d610a413660046142ac565b611aeb565b348015610a51575f80fd5b506104c4610a603660046142c7565b611afc565b348015610a70575f80fd5b506104c4610a7f36600461431c565b611b42565b348015610a8f575f80fd5b506104c4610a9e366004613cbb565b6001600160a01b03165f9081526002602052604090205490565b348015610ac3575f80fd5b50600b546104c4565b348015610ad7575f80fd5b50610ae0611bf8565b60405161049e9796959493929190614402565b348015610afe575f80fd5b506104c4610b0d366004614471565b611c3a565b348015610b1d575f80fd5b50610b26611cec565b60405165ffffffffffff909116815260200161049e565b348015610b48575f80fd5b5060646104c4565b348015610b5b575f80fd5b506104c4610b6a3660046144bc565b611d73565b348015610b7a575f80fd5b5061046d610b893660046138e4565b610f8a565b348015610b99575f80fd5b5061046d610ba83660046138e4565b50565b348015610bb6575f80fd5b506104c4610bc536600461450e565b611d86565b348015610bd5575f80fd5b506104c4611d90565b348015610be9575f80fd5b506104c4610bf8366004613c32565b611da9565b348015610c08575f80fd5b50610492610c173660046138e4565b505f90565b348015610c27575f80fd5b506104c4610c363660046138e4565b5f9081526004602052604090206001015465ffffffffffff1690565b348015610c5d575f80fd5b506104c4611dbf565b348015610c71575f80fd5b506105ee610c8036600461452c565b63bc197c8160e01b95945050505050565b348015610c9c575f80fd5b506104c4610cab3660046138e4565b611dc9565b348015610cbb575f80fd5b506104c4610cca3660046145b4565b611e0b565b61046d610cdd366004614626565b611e93565b348015610ced575f80fd5b506104c4610cfc366004613c32565b611f0f565b348015610d0c575f80fd5b506104c4610d1b366004614626565b611f48565b348015610d2b575f80fd5b50610492610d3a3660046138e4565b611f89565b348015610d4a575f80fd5b506040805180820190915260208082527f737570706f72743d627261766f2671756f72756d3d666f722c6162737461696e90820152610519565b348015610d8f575f80fd5b506104c47ff2aad550cf55f045cb27e9c559f9889fdfb6e6cdaa032301d6ea397784ae51d781565b348015610dc2575f80fd5b50610782610dd1366004614663565b611f93565b348015610de1575f80fd5b5061046d610df036600461395a565b611f9e565b348015610e00575f80fd5b5061046d610e0f3660046142ac565b611af3565b348015610e1f575f80fd5b506104c4610e2e366004614208565b611fa6565b348015610e3e575f80fd5b5061046d610e4d3660046138e4565b611fc5565b348015610e5d575f80fd5b506105ee610e6c366004614683565b63f23a6e6160e01b95945050505050565b348015610e88575f80fd5b50610b26610e97366004613d1b565b611fd6565b348015610ea7575f80fd5b506104c4610eb63660046138e4565b61209d565b348015610ec6575f80fd5b507f00000000000000000000000000000000000000000000000000000000000000006105ac565b348015610ef8575f80fd5b5061046d610f073660046138e4565b611fcd565b5f6001600160e01b031982166366defe7760e11b1480610f3c57506001600160e01b031982166332a2ad4360e11b145b80610f5757506001600160e01b03198216630271189760e51b145b80610f7257506301ffc9a760e01b6001600160e01b03198316145b92915050565b610f80612144565b565b610f8a612144565b610ba881612179565b606060038054610fa2906146e2565b80601f0160208091040260200160405190810160405280929190818152602001828054610fce906146e2565b80156110195780601f10610ff057610100808354040283529160200191611019565b820191905f5260205f20905b815481529060010190602001808311610ffc57829003601f168201915b5050505050905090565b610ba88161220e565b610ba881612234565b606061103f6122d0565b905090565b5f8061105286868686611da9565b90506110678161106260046122fc565b61231e565b505f604051634844252360e11b815260040160405180910390fd5b606061103f61235b565b5f8061109a86868686611da9565b90506110ba816110aa60056122fc565b6110b460046122fc565b1761231e565b505f818152600460205260409020805460ff60f01b1916600160f01b179055306110e13090565b6001600160a01b03161461116a575f5b865181101561116857306001600160a01b03168782815181106111165761111661471a565b60200260200101516001600160a01b031603611160576111608582815181106111415761114161471a565b602002602001015180519060200120600561238890919063ffffffff16565b6001016110f1565b505b61117781878787876123e9565b6040518181527f712ae1383f79ac853f8d882153778e0260ef8f03b504e2866e0593e04d2b291f906020015b60405180910390a195945050505050565b5f90815260046020526040902054600160a01b900465ffffffffffff1690565b5f6111de826124be565b90507f8d5c13b1cd528a3e1895fdc833368c4e3af5391250c736a28e94c4fa59b3cee48160405161121191815260200190565b60405180910390a1919050565b611297888888808060200260200160405190810160405280939291908181526020018383602002808284375f9201919091525050604080516020808c0282810182019093528b82529093508b92508a9182918501908490808284375f92019190915250611291925088915089905061472e565b856123e9565b5050505050505050565b60605f368080601f0160208091040260200160405190810160405280939291908181526020018383808284375f9201919091525092949350505050565b5f61135388888888888080601f0160208091040260200160405190810160405280939291908181526020018383808284375f9201919091525050604080516020601f8c018190048102820181019092528a815292508a91508990819084018382808284375f920191909152506124e092505050565b90507fbbc294ee3436818a3742886cdeae66253f76b5be8870371c691fc6998bd341d58160405161138691815260200190565b60405180910390a1979650505050505050565b5f818152600460205260408120805460ff600160f01b8204811691600160f81b90041681156113cd57506007949350505050565b80156113de57506002949350505050565b5f6113e8866111b4565b9050805f0361141257604051636ad0607560e01b8152600481018790526024015b60405180910390fd5b5f61141b611cec565b65ffffffffffff16905080821061143857505f9695505050505050565b5f61144288611dc9565b905081811061145957506001979650505050505050565b611462886125be565b158061148157505f888152600a60205260409020805460019091015411155b1561149457506003979650505050505050565b5f8881526004602052604090206001015465ffffffffffff165f036114c157506004979650505050505050565b506005979650505050505050565b5f806114dd86868686611da9565b90506114ec816110625f6122fc565b505f818152600460205260409020546001600160a01b031633146115255760405163233d98e360e01b8152336004820152602401611409565b611531868686866125f4565b9695505050505050565b5f818152600a60205260408120805460019091015411610f72565b60607f00000000000000000000000000000000000000000000000000000000000000006001600160a01b0316634bf5d7e96040518163ffffffff1660e01b81526004015f60405180830381865afa9250505080156115d557506040513d5f823e601f3d908101601f191682016040526115d2919081019061473a565b60015b611611575060408051808201909152601d81527f6d6f64653d626c6f636b6e756d6265722666726f6d3d64656661756c74000000602082015290565b919050565b5f610f72826126a3565b5f6116608484848080601f0160208091040260200160405190810160405280939291908181526020018383808284375f920191909152506126cf92505050565b949350505050565b5f8033905061166084828560405180602001604052805f815250612753565b5f8061174b876117457f3e83946653575f9a39005e1545185629e92736b7528ab20ca3816f315424a8118c8c8c6116bd8e6124be565b8d8d6040516116cd9291906147a2565b60405180910390208c8051906020012060405160200161172a9796959493929190968752602087019590955260ff9390931660408601526001600160a01b03919091166060850152608084015260a083015260c082015260e00190565b604051602081830303815290604052805190602001206126a3565b85612774565b905080611776576040516394ab6c0760e01b81526001600160a01b0388166004820152602401611409565b6117b989888a89898080601f0160208091040260200160405190810160405280939291908181526020018383808284375f920191909152508b92506124e0915050565b9998505050505050505050565b606061103f60408051602081019091525f815290565b5f61188c8a8a808060200260200160405190810160405280939291908181526020018383602002808284375f9201919091525050604080516020808e0282810182019093528d82529093508d92508c9182918501908490808284375f9201919091525061184f92508a91508b905061472e565b87878080601f0160208091040260200160405190810160405280939291908181526020018383808284375f920191909152508992506127e4915050565b90507f42716af29aa8f33be8115e9e3188a11f6a7e7d5be696f229f0762e50b2a8bda7816040516118bf91815260200190565b60405180910390a19998505050505050505050565b5f8033905061191c87828888888080601f0160208091040260200160405190810160405280939291908181526020018383808284375f920191909152508a92506124e0915050565b979650505050505050565b5f61103f6127f2565b600980545f9182906119436001846147c5565b815481106119535761195361471a565b5f918252602090912001805490915065ffffffffffff811690600160301b90046001600160d01b0316858211611995576001600160d01b031695945050505050565b6119a96119a18761291b565b600990612951565b6001600160d01b03169695505050505050565b5f611a358888808060200260200160405190810160405280939291908181526020018383602002808284375f9201919091525050604080516020808c0282810182019093528b82529093508b92508a9182918501908490808284375f92019190915250611a2f925088915089905061472e565b856125f4565b90507f1e0d283ef767dcb5f9efcfe0fbcac2701275d0c54fc3493502558dc018cc3ba28160405161138691815260200190565b611a728282612a00565b5050565b5f611ab886868686868080601f0160208091040260200160405190810160405280939291908181526020018383808284375f9201919091525061275392505050565b90507fdbf058c917126a478393ed3aa13dcdc461cc19db88c176507846e6f69ca627f9816040516111a391815260200190565b611af3612144565b610ba881612a43565b5f8033905061153186828787878080601f0160208091040260200160405190810160405280939291908181526020018383808284375f9201919091525061275392505050565b5f33611b4e81846126cf565b611b765760405163d9b3955760e01b81526001600160a01b0382166004820152602401611409565b5f611b7f611dbf565b90508015611beb575f611bad836001611b96611cec565b611ba091906147d8565b65ffffffffffff16611fa6565b905081811015611be957604051636121770b60e11b81526001600160a01b03841660048201526024810182905260448101839052606401611409565b505b61191c87878787866127e4565b5f6060805f805f6060611c096122d0565b611c1161235b565b604080515f80825260208201909252600f60f81b9b939a50919850469750309650945092509050565b5f80611ca7846117457ff2aad550cf55f045cb27e9c559f9889fdfb6e6cdaa032301d6ea397784ae51d7898989611c708b6124be565b60408051602081019690965285019390935260ff90911660608401526001600160a01b0316608083015260a082015260c00161172a565b905080611cd2576040516394ab6c0760e01b81526001600160a01b0385166004820152602401611409565b61153186858760405180602001604052805f815250612753565b5f7f00000000000000000000000000000000000000000000000000000000000000006001600160a01b03166391ddadf46040518163ffffffff1660e01b8152600401602060405180830381865afa925050508015611d67575060408051601f3d908101601f19168201909252611d64918101906147fe565b60015b6116115761103f612aa9565b5f611660848484612ab3565b9392505050565b5f610f72826122fc565b5f611d9b6009612b46565b6001600160d01b0316905090565b5f611db685858585612b7d565b95945050505050565b5f61103f60075490565b5f81815260046020526040812054611dfd90600160d01b810463ffffffff1690600160a01b900465ffffffffffff16614819565b65ffffffffffff1692915050565b5f611e4e8787878787878080601f0160208091040260200160405190810160405280939291908181526020018383808284375f92019190915250612bbe92505050565b90507fa17eff957f965c6ee26364f81c85c7f8c62294b8ae4ea17224d2ed00a9c882ae81604051611e8191815260200190565b60405180910390a19695505050505050565b611e9b612144565b5f80856001600160a01b0316858585604051611eb89291906147a2565b5f6040518083038185875af1925050503d805f8114611ef2576040519150601f19603f3d011682016040523d82523d5f602084013e611ef7565b606091505b5091509150611f068282612cba565b50505050505050565b5f84848484604051602001611f2794939291906148c8565b60408051601f19818403018152919052805160209091012095945050505050565b5f611db6858585858080601f0160208091040260200160405190810160405280939291908181526020018383808284375f92019190915250612ab392505050565b5f610f72826125be565b5f611d7f838361231e565b61102c612144565b5f611d7f8383611fc060408051602081019091525f815290565b612ab3565b611fcd612144565b610ba881612cd6565b5f612053898989808060200260200160405190810160405280939291908181526020018383602002808284375f9201919091525050604080516020808d0282810182019093528c82529093508c92508b9182918501908490808284375f9201919091525061204a92508991508a905061472e565b505f9392505050565b60405165ffffffffffff821681529091507fc7d48239722ab43f0d322d3bc5b9c80a10ed2b31ea774b6ac0852b9fdbd41fd09060200160405180910390a198975050505050505050565b5f60646120a983611930565b604051632394e7a360e21b8152600481018590526001600160a01b037f00000000000000000000000000000000000000000000000000000000000000001690638e539e8c90602401602060405180830381865afa15801561210c573d5f803e3d5ffd5b505050506040513d601f19601f820116820180604052508101906121309190614912565b61213a9190614929565b610f729190614954565b303314610f80576040516347096e4760e01b8152336004820152602401611409565b806121716005612d17565b036121665750565b6064808211156121a65760405163243e544560e01b81526004810183905260248101829052604401611409565b5f6121af611d90565b90506121ce6121bc611cec565b6121c585612d84565b60099190612db7565b505060408051828152602081018590527f0553476bf02ef2726e8ce5ced78d63e26e602e4a2257b1f559418e24b4633997910160405180910390a1505050565b600b541561222f576040516323b9bb0360e11b815260040160405180910390fd5b600b55565b8063ffffffff165f0361225c5760405163f1cfbf0560e01b81525f6004820152602401611409565b6008546040805163ffffffff600160301b9093048316815291831660208301527f7e3f7f0708a84de9203036abaa450dccc85ad5ff52f78c170f3edb55cf5e8828910160405180910390a16008805463ffffffff909216600160301b0269ffffffff00000000000019909216919091179055565b606061103f7f00000000000000000000000000000000000000000000000000000000000000005f612dd1565b5f81600781111561230f5761230f613e9d565b600160ff919091161b92915050565b5f8061232984611399565b90505f83612336836122fc565b1603611d7f578381846040516331b75e4d60e01b815260040161140993929190614973565b606061103f7f00000000000000000000000000000000000000000000000000000000000000006001612dd1565b81546001600160801b03600160801b8204811691811660018301909116036123b4576123b46041612e7a565b6001600160801b038082165f90815260018086016020526040909120939093558354919092018216600160801b029116179055565b5f5b84518110156124b6575f808683815181106124085761240861471a565b60200260200101516001600160a01b031686848151811061242b5761242b61471a565b60200260200101518685815181106124455761244561471a565b602002602001015160405161245a9190614995565b5f6040518083038185875af1925050503d805f8114612494576040519150601f19603f3d011682016040523d82523d5f602084013e612499565b606091505b50915091506124a88282612cba565b5050508060010190506123eb565b505050505050565b6001600160a01b03165f90815260026020526040902080546001810190915590565b5f6124ef8661106260016122fc565b505f612504866124fe896111b4565b85612ab3565b90505f6125148888888588612bbe565b905083515f0361256a57866001600160a01b03167fb8e138887d0aa13bab447e82de9d5c1777041ecd21ca36ba824ff1e6c07ddda48988848960405161255d94939291906149b0565b60405180910390a261191c565b866001600160a01b03167fe2babfbac5889a709b63bb7f598b324e08bc5a4fb9ec647fb3cbc9ec07eb871289888489896040516125ab9594939291906149d7565b60405180910390a2979650505050505050565b5f818152600a60205260408120600281015460018201546125df9190614a10565b6125eb610eb6856111b4565b11159392505050565b5f8061260286868686611da9565b90506126508161261260076122fc565b61261c60066122fc565b61262660026122fc565b6001612633600782614a23565b61263e906002614b1c565b61264891906147c5565b18181861231e565b505f818152600460205260409081902080546001600160f81b0316600160f81b179055517f789cf55be980739dad1d0699b93b58e806b51c9d96619bfa8fe0a28abaa7b30c906111a39083815260200190565b5f610f726126af6127f2565b8360405161190160f01b8152600281019290925260228201526042902090565b80515f9060348110156126e6576001915050610f72565b60131981840101516001600160b01b03198116692370726f706f7365723d60b01b1461271757600192505050610f72565b5f8061272786602a860386612e8b565b9150915081158061191c5750866001600160a01b0316816001600160a01b031614979650505050505050565b5f611db68585858561276f60408051602081019091525f815290565b6124e0565b5f836001600160a01b03163b5f036127d2575f806127928585612f34565b5090925090505f8160038111156127ab576127ab613e9d565b1480156127c95750856001600160a01b0316826001600160a01b0316145b92505050611d7f565b6127dd848484612f7d565b9050611d7f565b5f6115318686868686613053565b5f306001600160a01b037f00000000000000000000000000000000000000000000000000000000000000001614801561284a57507f000000000000000000000000000000000000000000000000000000000000000046145b1561287457507f000000000000000000000000000000000000000000000000000000000000000090565b61103f604080517f8b73c3c69bb8fe3d512ecc4cf759cc79239f7b179b0ffacaa9a75d522b39400f60208201527f0000000000000000000000000000000000000000000000000000000000000000918101919091527f000000000000000000000000000000000000000000000000000000000000000060608201524660808201523060a08201525f9060c00160405160208183030381529060405280519060200120905090565b5f65ffffffffffff82111561294d576040516306dfcc6560e41b81526030600482015260248101839052604401611409565b5090565b81545f90818160058111156129ad575f61296a846130bb565b61297490856147c5565b5f8881526020902090915081015465ffffffffffff908116908716101561299d578091506129ab565b6129a8816001614a10565b92505b505b5f6129ba87878585613213565b905080156129f4576129de876129d16001846147c5565b5f91825260209091200190565b54600160301b90046001600160d01b031661191c565b505f9695505050505050565b5f612a0a836124be565b9050808214612a3e576040516301d4b62360e61b81526001600160a01b038416600482015260248101829052604401611409565b505050565b6008546040805165ffffffffffff928316815291831660208301527fc565b045403dc03c2eea82b81a0465edad9e2e7fc4d97e11421c209da93d7a93910160405180910390a16008805465ffffffffffff191665ffffffffffff92909216919091179055565b5f61103f4361291b565b5f7f0000000000000000000000000000000000000000000000000000000000000000604051630748d63560e31b81526001600160a01b038681166004830152602482018690529190911690633a46b1a890604401602060405180830381865afa158015612b22573d5f803e3d5ffd5b505050506040513d601f19601f820116820180604052508101906116609190614912565b80545f908015612b7557612b5f836129d16001846147c5565b54600160301b90046001600160d01b0316611d7f565b5f9392505050565b5f80612b8b86868686611f0f565b5f818152600c602052604081205491925081900361153157604051636ad0607560e01b81525f6004820152602401611409565b5f858152600a602090815260408083206001600160a01b03881684526003810190925282205460ff1615612c10576040516371c6af4960e01b81526001600160a01b0387166004820152602401611409565b6001600160a01b0386165f9081526003820160205260409020805460ff1916600117905560ff8516612c595783815f015f828254612c4e9190614a10565b90915550612caf9050565b5f1960ff861601612c775783816001015f828254612c4e9190614a10565b60011960ff861601612c965783816002015f828254612c4e9190614a10565b6040516303599be160e11b815260040160405180910390fd5b509195945050505050565b606082612ccf57612cca82613272565b610f72565b5080610f72565b60075460408051918252602082018390527fccb45da8d5717e6c4544694297c4ba5cf151d455c9bb0ed4fc7a38411bc05461910160405180910390a1600755565b80545f906001600160801b0380821691600160801b9004168103612d3f57612d3f6031612e7a565b6001600160801b038181165f908152600185810160205260408220805492905585546fffffffffffffffffffffffffffffffff19169301909116919091179092555090565b5f6001600160d01b0382111561294d576040516306dfcc6560e41b815260d0600482015260248101839052604401611409565b5f80612dc485858561329b565b915091505b935093915050565b606060ff8314612deb57612de4836133eb565b9050610f72565b818054612df7906146e2565b80601f0160208091040260200160405190810160405280929190818152602001828054612e23906146e2565b8015612e6e5780601f10612e4557610100808354040283529160200191612e6e565b820191905f5260205f20905b815481529060010190602001808311612e5157829003601f168201915b50505050509050610f72565b634e487b715f52806020526024601cfd5b5f808451831180612e9b57508284115b15612eaa57505f905080612dc9565b5f612eb6856001614a10565b84118015612ede575061060f60f31b612ed28787016020015190565b6001600160f01b031916145b90505f612eee8215156002614929565b612ef9906028614a10565b905080612f0687876147c5565b03612f27575f80612f18898989613428565b9096509450612dc99350505050565b5f80935093505050612dc9565b5f805f8351604103612f6b576020840151604085015160608601515f1a612f5d888285856134e9565b955095509550505050612f76565b505081515f91506002905b9250925092565b5f805f856001600160a01b03168585604051602401612f9d929190614b2a565b60408051601f198184030181529181526020820180516001600160e01b0316630b135d3f60e11b17905251612fd29190614995565b5f60405180830381855afa9150503d805f811461300a576040519150601f19603f3d011682016040523d82523d5f602084013e61300f565b606091505b509150915081801561302357506020815110155b801561153157508051630b135d3f60e11b906130489083016020908101908401614912565b149695505050505050565b5f806130688787878780519060200120611f0f565b5f818152600c60205260408120549192508190036130a257600b5f815461308e90614b42565b91829055505f838152600c60205260409020555b6130af88888888886135b1565b98975050505050505050565b5f600182116130c8575090565b816001600160801b82106130e15760809190911c9060401b5b6801000000000000000082106130fc5760409190911c9060201b5b64010000000082106131135760209190911c9060101b5b6201000082106131285760109190911c9060081b5b610100821061313c5760089190911c9060041b5b6010821061314f5760049190911c9060021b5b6004821061315b5760011b5b600302600190811c9081858161317357613173614940565b048201901c9050600181858161318b5761318b614940565b048201901c905060018185816131a3576131a3614940565b048201901c905060018185816131bb576131bb614940565b048201901c905060018185816131d3576131d3614940565b048201901c905060018185816131eb576131eb614940565b048201901c905061320a81858161320457613204614940565b04821190565b90039392505050565b5f5b8183101561326a575f61322884846137d4565b5f8781526020902090915065ffffffffffff86169082015465ffffffffffff16111561325657809250613264565b613261816001614a10565b93505b50613215565b509392505050565b8051156132825780518082602001fd5b60405163d6bda27560e01b815260040160405180910390fd5b82545f9081908015613391575f6132b7876129d16001856147c5565b805490915065ffffffffffff80821691600160301b90046001600160d01b03169088168211156132fa57604051632520601d60e01b815260040160405180910390fd5b8765ffffffffffff168265ffffffffffff160361333357825465ffffffffffff16600160301b6001600160d01b03891602178355613383565b6040805180820190915265ffffffffffff808a1682526001600160d01b03808a1660208085019182528d54600181018f555f8f81529190912094519151909216600160301b029216919091179101555b9450859350612dc992505050565b50506040805180820190915265ffffffffffff80851682526001600160d01b0380851660208085019182528854600181018a555f8a815291822095519251909316600160301b029190931617920191909155905081612dc9565b60605f6133f7836137ee565b6040805160208082528183019092529192505f91906020820181803683375050509182525060208101929092525090565b5f808481613437866001614a10565b8511801561345f575061060f60f31b6134538388016020015190565b6001600160f01b031916145b90505f61346f8215156002614929565b90505f8061347d838a614a10565b90505b878110156134d8575f61349e6134998784016020015190565b613815565b9050600f8160ff1611156134bd575f8097509750505050505050612dc9565b6134c8601084614929565b60ff909116019150600101613480565b506001999098509650505050505050565b5f80807f7fffffffffffffffffffffffffffffff5d576e7357a4501ddfe92f46681b20a084111561352257505f915060039050826135a7565b604080515f808252602082018084528a905260ff891692820192909252606081018790526080810186905260019060a0016020604051602081039080840390855afa158015613573573d5f803e3d5ffd5b5050604051601f1901519150506001600160a01b03811661359e57505f9250600191508290506135a7565b92505f91508190505b9450945094915050565b5f6135c58686868680519060200120611da9565b9050845186511415806135da57508351865114155b806135e457508551155b1561361957855184518651604051630447b05d60e41b8152600481019390935260248301919091526044820152606401611409565b5f81815260046020526040902054600160a01b900465ffffffffffff1615613662578061364582611399565b6040516331b75e4d60e01b81526114099291905f90600401614973565b5f61367460085465ffffffffffff1690565b61367c611cec565b65ffffffffffff1661368e9190614a10565b90505f6136a860085463ffffffff600160301b9091041690565b5f84815260046020526040902080546001600160a01b0319166001600160a01b0387161781559091506136da8361291b565b815465ffffffffffff91909116600160a01b0265ffffffffffff60a01b199091161781556137078261388d565b815463ffffffff91909116600160d01b0263ffffffff60d01b1990911617815588517f7d84a6263ae0d98d3329bd7b46bb4e8d6f98cd35a7adb45c274c8b7fd5ebd5e090859087908c908c906001600160401b0381111561376a5761376a613993565b60405190808252806020026020018201604052801561379d57816020015b60608152602001906001900390816137885790505b508c896137aa8a82614a10565b8e6040516137c099989796959493929190614b5a565b60405180910390a150505095945050505050565b5f6137e26002848418614954565b611d7f90848416614a10565b5f60ff8216601f811115610f7257604051632cd44ac360e21b815260040160405180910390fd5b5f60f882901c602f8111801561382e5750603a8160ff16105b1561383c57602f1901610f72565b60608160ff16118015613852575060678160ff16105b156138605760561901610f72565b60408160ff16118015613876575060478160ff16105b156138845760361901610f72565b5060ff92915050565b5f63ffffffff82111561294d576040516306dfcc6560e41b81526020600482015260248101839052604401611409565b5f602082840312156138cd575f80fd5b81356001600160e01b031981168114611d7f575f80fd5b5f602082840312156138f4575f80fd5b5035919050565b5f5b838110156139155781810151838201526020016138fd565b50505f910152565b5f81518084526139348160208601602086016138fb565b601f01601f19169290920160200192915050565b602081525f611d7f602083018461391d565b5f6020828403121561396a575f80fd5b813563ffffffff81168114611d7f575f80fd5b80356001600160a01b0381168114611611575f80fd5b634e487b7160e01b5f52604160045260245ffd5b604051601f8201601f191681016001600160401b03811182821017156139cf576139cf613993565b604052919050565b5f6001600160401b038211156139ef576139ef613993565b50601f01601f191660200190565b5f613a0f613a0a846139d7565b6139a7565b9050828152838383011115613a22575f80fd5b828260208301375f602084830101529392505050565b5f82601f830112613a47575f80fd5b611d7f838335602085016139fd565b5f805f8060808587031215613a69575f80fd5b613a728561397d565b9350613a806020860161397d565b92506040850135915060608501356001600160401b03811115613aa1575f80fd5b613aad87828801613a38565b91505092959194509250565b5f6001600160401b03821115613ad157613ad1613993565b5060051b60200190565b5f82601f830112613aea575f80fd5b81356020613afa613a0a83613ab9565b8083825260208201915060208460051b870101935086841115613b1b575f80fd5b602086015b84811015613b3e57613b318161397d565b8352918301918301613b20565b509695505050505050565b5f82601f830112613b58575f80fd5b81356020613b68613a0a83613ab9565b8083825260208201915060208460051b870101935086841115613b89575f80fd5b602086015b84811015613b3e5780358352918301918301613b8e565b5f613bb2613a0a84613ab9565b8381529050602080820190600585901b840186811115613bd0575f80fd5b845b81811015613c095780356001600160401b03811115613bef575f80fd5b613bfb89828901613a38565b855250928201928201613bd2565b505050509392505050565b5f82601f830112613c23575f80fd5b611d7f83833560208501613ba5565b5f805f8060808587031215613c45575f80fd5b84356001600160401b0380821115613c5b575f80fd5b613c6788838901613adb565b95506020870135915080821115613c7c575f80fd5b613c8888838901613b49565b94506040870135915080821115613c9d575f80fd5b50613caa87828801613c14565b949793965093946060013593505050565b5f60208284031215613ccb575f80fd5b611d7f8261397d565b5f8083601f840112613ce4575f80fd5b5081356001600160401b03811115613cfa575f80fd5b6020830191508360208260051b8501011115613d14575f80fd5b9250929050565b5f805f805f805f8060a0898b031215613d32575f80fd5b8835975060208901356001600160401b0380821115613d4f575f80fd5b613d5b8c838d01613cd4565b909950975060408b0135915080821115613d73575f80fd5b613d7f8c838d01613cd4565b909750955060608b0135915080821115613d97575f80fd5b50613da48b828c01613cd4565b999c989b50969995989497949560800135949350505050565b803560ff81168114611611575f80fd5b5f8083601f840112613ddd575f80fd5b5081356001600160401b03811115613df3575f80fd5b602083019150836020828501011115613d14575f80fd5b5f805f805f805f60a0888a031215613e20575f80fd5b87359650613e306020890161397d565b9550613e3e60408901613dbd565b945060608801356001600160401b0380821115613e59575f80fd5b613e658b838c01613dcd565b909650945060808a0135915080821115613e7d575f80fd5b50613e8a8a828b01613dcd565b989b979a50959850939692959293505050565b634e487b7160e01b5f52602160045260245ffd5b60088110613ecd57634e487b7160e01b5f52602160045260245ffd5b9052565b60208101610f728284613eb1565b5f8060408385031215613ef0575f80fd5b82359150613f006020840161397d565b90509250929050565b5f805f60408486031215613f1b575f80fd5b613f248461397d565b925060208401356001600160401b03811115613f3e575f80fd5b613f4a86828701613dcd565b9497909650939450505050565b5f8060408385031215613f68575f80fd5b82359150613f0060208401613dbd565b5f805f805f805f60c0888a031215613f8e575f80fd5b87359650613f9e60208901613dbd565b9550613fac6040890161397d565b945060608801356001600160401b0380821115613fc7575f80fd5b613fd38b838c01613dcd565b909650945060808a0135915080821115613feb575f80fd5b613ff78b838c01613a38565b935060a08a013591508082111561400c575f80fd5b506140198a828b01613a38565b91505092959891949750929550565b5f805f805f805f805f60a08a8c031215614040575f80fd5b89356001600160401b0380821115614056575f80fd5b6140628d838e01613cd4565b909b50995060208c013591508082111561407a575f80fd5b6140868d838e01613cd4565b909950975060408c013591508082111561409e575f80fd5b6140aa8d838e01613cd4565b909750955060608c01359150808211156140c2575f80fd5b506140cf8c828d01613dcd565b90945092506140e2905060808b0161397d565b90509295985092959850929598565b5f805f805f60808688031215614105575f80fd5b8535945061411560208701613dbd565b935060408601356001600160401b0380821115614130575f80fd5b61413c89838a01613dcd565b90955093506060880135915080821115614154575f80fd5b5061416188828901613a38565b9150509295509295909350565b5f805f805f805f6080888a031215614184575f80fd5b87356001600160401b038082111561419a575f80fd5b6141a68b838c01613cd4565b909950975060208a01359150808211156141be575f80fd5b6141ca8b838c01613cd4565b909750955060408a01359150808211156141e2575f80fd5b506141ef8a828b01613cd4565b989b979a50959894979596606090950135949350505050565b5f8060408385031215614219575f80fd5b6142228361397d565b946020939093013593505050565b5f805f805f60808688031215614244575f80fd5b853594506142546020870161397d565b935061426260408701613dbd565b925060608601356001600160401b0381111561427c575f80fd5b61428888828901613dcd565b969995985093965092949392505050565b65ffffffffffff81168114610ba8575f80fd5b5f602082840312156142bc575f80fd5b8135611d7f81614299565b5f805f80606085870312156142da575f80fd5b843593506142ea60208601613dbd565b925060408501356001600160401b03811115614304575f80fd5b61431087828801613dcd565b95989497509550505050565b5f805f806080858703121561432f575f80fd5b84356001600160401b0380821115614345575f80fd5b61435188838901613adb565b95506020870135915080821115614366575f80fd5b61437288838901613b49565b94506040870135915080821115614387575f80fd5b61439388838901613c14565b935060608701359150808211156143a8575f80fd5b508501601f810187136143b9575f80fd5b613aad878235602084016139fd565b5f815180845260208085019450602084015f5b838110156143f7578151875295820195908201906001016143db565b509495945050505050565b60ff60f81b8816815260e060208201525f61442060e083018961391d565b8281036040840152614432818961391d565b606084018890526001600160a01b038716608085015260a0840186905283810360c0850152905061446381856143c8565b9a9950505050505050505050565b5f805f8060808587031215614484575f80fd5b8435935061449460208601613dbd565b92506144a26040860161397d565b915060608501356001600160401b03811115613aa1575f80fd5b5f805f606084860312156144ce575f80fd5b6144d78461397d565b92506020840135915060408401356001600160401b038111156144f8575f80fd5b61450486828701613a38565b9150509250925092565b5f6020828403121561451e575f80fd5b813560088110611d7f575f80fd5b5f805f805f60a08688031215614540575f80fd5b6145498661397d565b94506145576020870161397d565b935060408601356001600160401b0380821115614572575f80fd5b61457e89838a01613b49565b94506060880135915080821115614593575f80fd5b61459f89838a01613b49565b93506080880135915080821115614154575f80fd5b5f805f805f8060a087890312156145c9575f80fd5b863595506145d96020880161397d565b94506145e760408801613dbd565b93506060870135925060808701356001600160401b03811115614608575f80fd5b61461489828a01613dcd565b979a9699509497509295939492505050565b5f805f8060608587031215614639575f80fd5b6146428561397d565b93506020850135925060408501356001600160401b03811115614304575f80fd5b5f8060408385031215614674575f80fd5b50508035926020909101359150565b5f805f805f60a08688031215614697575f80fd5b6146a08661397d565b94506146ae6020870161397d565b9350604086013592506060860135915060808601356001600160401b038111156146d6575f80fd5b61416188828901613a38565b600181811c908216806146f657607f821691505b60208210810361471457634e487b7160e01b5f52602260045260245ffd5b50919050565b634e487b7160e01b5f52603260045260245ffd5b5f611d7f368484613ba5565b5f6020828403121561474a575f80fd5b81516001600160401b0381111561475f575f80fd5b8201601f8101841361476f575f80fd5b805161477d613a0a826139d7565b818152856020838501011115614791575f80fd5b611db68260208301602086016138fb565b818382375f9101908152919050565b634e487b7160e01b5f52601160045260245ffd5b81810381811115610f7257610f726147b1565b65ffffffffffff8281168282160390808211156147f7576147f76147b1565b5092915050565b5f6020828403121561480e575f80fd5b8151611d7f81614299565b65ffffffffffff8181168382160190808211156147f7576147f76147b1565b5f815180845260208085019450602084015f5b838110156143f75781516001600160a01b03168752958201959082019060010161484b565b5f8282518085526020808601955060208260051b840101602086015f5b848110156148bb57601f198684030189526148a983835161391d565b9884019892509083019060010161488d565b5090979650505050505050565b608081525f6148da6080830187614838565b82810360208401526148ec81876143c8565b905082810360408401526149008186614870565b91505082606083015295945050505050565b5f60208284031215614922575f80fd5b5051919050565b8082028115828204841417610f7257610f726147b1565b634e487b7160e01b5f52601260045260245ffd5b5f8261496e57634e487b7160e01b5f52601260045260245ffd5b500490565b838152606081016149876020830185613eb1565b826040830152949350505050565b5f82516149a68184602087016138fb565b9190910192915050565b84815260ff84166020820152826040820152608060608201525f611531608083018461391d565b85815260ff8516602082015283604082015260a060608201525f6149fe60a083018561391d565b82810360808401526130af818561391d565b80820180821115610f7257610f726147b1565b60ff8181168382160190811115610f7257610f726147b1565b600181815b80851115614a7657815f1904821115614a5c57614a5c6147b1565b80851615614a6957918102915b93841c9390800290614a41565b509250929050565b5f82614a8c57506001610f72565b81614a9857505f610f72565b8160018114614aae5760028114614ab857614ad4565b6001915050610f72565b60ff841115614ac957614ac96147b1565b50506001821b610f72565b5060208310610133831016604e8410600b8410161715614af7575081810a610f72565b614b018383614a3c565b805f1904821115614b1457614b146147b1565b029392505050565b5f611d7f60ff841683614a7e565b828152604060208201525f611660604083018461391d565b5f60018201614b5357614b536147b1565b5060010190565b5f6101208b8352602060018060a01b038c1681850152816040850152614b828285018c614838565b91508382036060850152614b96828b6143c8565b915083820360808501528189518084528284019150828160051b850101838c015f5b83811015614be657601f19878403018552614bd483835161391d565b94860194925090850190600101614bb8565b505086810360a0880152614bfa818c614870565b9450505050508560c08401528460e0840152828103610100840152614c1f818561391d565b9c9b50505050505050505050505056fea26469706673582212204f65672176847696fb6db5a31be59aa721fa9b489fede24a776b69eb61d7a74964736f6c63430008180033",
  "linkReferences": {},
  "deployedLinkReferences": {}
}