{
  "_format": "hh-sol-artifact-1",
  "contractName": "$CAIP10",
  "sourceName": "contracts-exposed/utils/CAIP10.sol",
  "abi": [
    {
      "inputs": [],
      "stateMutability": "payable",
      "type": "constructor"
    },
    {
      "inputs": [
        {
          "internalType": "uint256",
          "name": "value",
          "type": "uint256"
        },
        {
          "internalType": "uint256",
          "name": "length",
          "type": "uint256"
        }
      ],
      "name": "StringsInsufficientHexLength",
      "type": "error"
    },
    {
      "inputs": [
        {
          "internalType": "string",
          "name": "caip2",
          "type": "string"
        },
        {
          "internalType": "string",
          "name": "account",
          "type": "string"
        }
      ],
      "name": "$format",
      "outputs": [
        {
          "internalType": "string",
          "name": "ret0",
          "type": "string"
        }
      ],
      "stateMutability": "pure",
      "type": "function"
    },
    {
      "inputs": [
        {
          "internalType": "address",
          "name": "account",
          "type": "address"
        }
      ],
      "name": "$local",
      "outputs": [
        {
          "internalType": "string",
          "name": "ret0",
          "type": "string"
        }
      ],
      "stateMutability": "view",
      "type": "function"
    },
    {
      "inputs": [
        {
          "internalType": "string",
          "name": "caip10",
          "type": "string"
        }
      ],
      "name": "$parse",
      "outputs": [
        {
          "internalType": "string",
          "name": "caip2",
          "type": "string"
        },
        {
          "internalType": "string",
          "name": "account",
          "type": "string"
        }
      ],
      "stateMutability": "pure",
      "type": "function"
    },
    {
      "inputs": [],
      "name": "__hh_exposed_bytecode_marker",
      "outputs": [
        {
          "internalType": "bytes32",
          "name": "",
          "type": "bytes32"
        }
      ],
      "stateMutability": "view",
      "type": "function"
    },
    {
      "stateMutability": "payable",
      "type": "receive"
    }
  ],
  "bytecode": "0x60806040526109e8806100115f395ff3fe608060405260043610610041575f3560e01c8063342db7391461004c57806365993a1414610084578063dfa30927146100b0578063e3944c62146100dd575f80fd5b3661004857005b5f80fd5b348015610057575f80fd5b506100716e1a185c991a185d0b595e1c1bdcd959608a1b81565b6040519081526020015b60405180910390f35b34801561008f575f80fd5b506100a361009e36600461079a565b6100fc565b60405161007b919061084e565b3480156100bb575f80fd5b506100cf6100ca366004610860565b610178565b60405161007b92919061089f565b3480156100e8575f80fd5b506100a36100f73660046108c3565b6101c4565b606061016f85858080601f0160208091040260200160405190810160405280939291908181526020018383808284375f9201919091525050604080516020601f890181900481028201810190925287815292508791508690819084018382808284375f920191909152506101d592505050565b95945050505050565b6060806101b984848080601f0160208091040260200160405190810160405280939291908181526020018383808284375f9201919091525061020192505050565b909590945092505050565b60606101cf82610241565b92915050565b606082826040516020016101ea9291906108e9565b604051602081830303815290604052905092915050565b606080825f61021482601d60f91b610265565b9050610221825f83610279565b61023661022f836001610938565b84906102fd565b935093505050915091565b60606101cf61024e61030b565b610260846001600160a01b031661033d565b6101d5565b5f61027283835f196103eb565b9392505050565b8251606090610288838261044b565b9250610294848461044b565b93505f6102a1858561094b565b67ffffffffffffffff8111156102b9576102b961095e565b6040519080825280601f01601f1916602001820160405280156102e3576020820181803683370190505b509050848403602086018701602083015e95945050505050565b606061027283838551610279565b60606103386040518060400160405280600681526020016565697031353560d01b8152506102604661045a565b905090565b60605f610349836104ea565b6028602282012090915060601c60295b60018111156103e257600782600f1611801561038e5750606083828151811061038457610384610972565b016020015160f81c115b156103cb57602060f81b8382815181106103aa576103aa610972565b0160200180516001600160f81b0319908116909218909116905f82901a9053505b60049190911c906103db81610986565b9050610359565b50909392505050565b82515f90816103fd845f19840161044b565b60010190505b801561043f57601f81870101516001600160f81b03198616906001600160f81b03191603610437575f190191506102729050565b5f1901610403565b505f1995945050505050565b5f828218828410028218610272565b60605f61046683610500565b60010190505f8167ffffffffffffffff8111156104855761048561095e565b6040519080825280601f01601f1916602001820160405280156104af576020820181803683370190505b5090508181016020015b5f19016f181899199a1a9b1b9c1cb0b131b232b360811b600a86061a8153600a85049450846104b957509392505050565b60606101cf6001600160a01b03831660146105d7565b5f8072184f03e93ff9f4daa797ed6e38ed64bf6a1f0160401b831061053e5772184f03e93ff9f4daa797ed6e38ed64bf6a1f0160401b830492506040015b6d04ee2d6d415b85acef8100000000831061056a576d04ee2d6d415b85acef8100000000830492506020015b662386f26fc10000831061058857662386f26fc10000830492506010015b6305f5e10083106105a0576305f5e100830492506008015b61271083106105b457612710830492506004015b606483106105c6576064830492506002015b600a83106101cf5760010192915050565b6060825f6105e684600261099b565b6105f1906002610938565b67ffffffffffffffff8111156106095761060961095e565b6040519080825280601f01601f191660200182016040528015610633576020820181803683370190505b509050600360fc1b815f8151811061064d5761064d610972565b60200101906001600160f81b03191690815f1a905350600f60fb1b8160018151811061067b5761067b610972565b60200101906001600160f81b03191690815f1a9053505f61069d85600261099b565b6106a8906001610938565b90505b600181111561071f576f181899199a1a9b1b9c1cb0b131b232b360811b83600f16601081106106dc576106dc610972565b1a60f81b8282815181106106f2576106f2610972565b60200101906001600160f81b03191690815f1a90535060049290921c9161071881610986565b90506106ab565b50811561074d5760405163e22e27eb60e01b8152600481018690526024810185905260440160405180910390fd5b949350505050565b5f8083601f840112610765575f80fd5b50813567ffffffffffffffff81111561077c575f80fd5b602083019150836020828501011115610793575f80fd5b9250929050565b5f805f80604085870312156107ad575f80fd5b843567ffffffffffffffff808211156107c4575f80fd5b6107d088838901610755565b909650945060208701359150808211156107e8575f80fd5b506107f587828801610755565b95989497509550505050565b5f5b8381101561081b578181015183820152602001610803565b50505f910152565b5f815180845261083a816020860160208601610801565b601f01601f19169290920160200192915050565b602081525f6102726020830184610823565b5f8060208385031215610871575f80fd5b823567ffffffffffffffff811115610887575f80fd5b61089385828601610755565b90969095509350505050565b604081525f6108b16040830185610823565b828103602084015261016f8185610823565b5f602082840312156108d3575f80fd5b81356001600160a01b0381168114610272575f80fd5b5f83516108fa818460208801610801565b601d60f91b9083019081528351610918816001840160208801610801565b01600101949350505050565b634e487b7160e01b5f52601160045260245ffd5b808201808211156101cf576101cf610924565b818103818111156101cf576101cf610924565b634e487b7160e01b5f52604160045260245ffd5b634e487b7160e01b5f52603260045260245ffd5b5f8161099457610994610924565b505f190190565b80820281158282048414176101cf576101cf61092456fea2646970667358221220feaa22547893b6fcfb52ea143b31c54a663c8150742977c004326a2d60aab88064736f6c63430008180033",
  "linkReferences": {},
  "deployedLinkReferences": {}
}