{"contracts/lib/contracts/libraries/FixedPoint.sol":{"FixedPoint":{"abi":[{"inputs":[],"name":"Q112","outputs":[{"internalType":"uint256","name":"","type":"uint256"}],"stateMutability":"view","type":"function"},{"inputs":[],"name":"RESOLUTION","outputs":[{"internalType":"uint8","name":"","type":"uint8"}],"stateMutability":"view","type":"function"}],"evm":{"bytecode":{"linkReferences":{},"object":"60c4610025600b82828239805160001a60731461001857fe5b30600052607381538281f3fe7300000000000000000000000000000000000000003014608060405260043610603d5760003560e01c80633bf7a83e146042578063552f888a14605a575b600080fd5b60486076565b60408051918252519081900360200190f35b60606089565b6040805160ff9092168252519081900360200190f35b6e01000000000000000000000000000081565b60708156fea2646970667358221220b7ac42e3b892d2f89e163026737451e795e85769b97b171919f62f328c7cf31c64736f6c634300060c0033","opcodes":"PUSH1 0xC4 PUSH2 0x25 PUSH1 0xB DUP3 DUP3 DUP3 CODECOPY DUP1 MLOAD PUSH1 0x0 BYTE PUSH1 0x73 EQ PUSH2 0x18 JUMPI INVALID JUMPDEST ADDRESS PUSH1 0x0 MSTORE PUSH1 0x73 DUP2 MSTORE8 DUP3 DUP2 RETURN INVALID PUSH20 0x0 ADDRESS EQ PUSH1 0x80 PUSH1 0x40 MSTORE PUSH1 0x4 CALLDATASIZE LT PUSH1 0x3D JUMPI PUSH1 0x0 CALLDATALOAD PUSH1 0xE0 SHR DUP1 PUSH4 0x3BF7A83E EQ PUSH1 0x42 JUMPI DUP1 PUSH4 0x552F888A EQ PUSH1 0x5A JUMPI JUMPDEST PUSH1 0x0 DUP1 REVERT JUMPDEST PUSH1 0x48 PUSH1 0x76 JUMP JUMPDEST PUSH1 0x40 DUP1 MLOAD SWAP2 DUP3 MSTORE MLOAD SWAP1 DUP2 SWAP1 SUB PUSH1 0x20 ADD SWAP1 RETURN JUMPDEST PUSH1 0x60 PUSH1 0x89 JUMP JUMPDEST PUSH1 0x40 DUP1 MLOAD PUSH1 0xFF SWAP1 SWAP3 AND DUP3 MSTORE MLOAD SWAP1 DUP2 SWAP1 SUB PUSH1 0x20 ADD SWAP1 RETURN JUMPDEST PUSH15 0x10000000000000000000000000000 DUP2 JUMP JUMPDEST PUSH1 0x70 DUP2 JUMP INVALID LOG2 PUSH5 0x6970667358 0x22 SLT KECCAK256 0xB7 0xAC TIMESTAMP 0xE3 0xB8 SWAP3 0xD2 0xF8 SWAP15 AND ADDRESS 0x26 PUSH20 0x7451E795E85769B97B171919F62F328C7CF31C64 PUSH20 0x6F6C634300060C00330000000000000000000000 "},"methodIdentifiers":{"Q112()":"3bf7a83e","RESOLUTION()":"552f888a"}}}}}