{"contracts/lib/contracts/test/BitMathEchidnaTest.sol":{"BitMathEchidnaTest":{"abi":[{"inputs":[{"internalType":"uint256","name":"input","type":"uint256"}],"name":"leastSignificantBitInvariant","outputs":[],"stateMutability":"pure","type":"function"},{"inputs":[{"internalType":"uint256","name":"input","type":"uint256"}],"name":"mostSignificantBitInvariant","outputs":[],"stateMutability":"pure","type":"function"}],"evm":{"bytecode":{"linkReferences":{},"object":"608060405234801561001057600080fd5b50610366806100206000396000f3fe608060405234801561001057600080fd5b50600436106100365760003560e01c80632d711e0c1461003b578063f94ac90e1461005a575b600080fd5b6100586004803603602081101561005157600080fd5b5035610077565b005b6100586004803603602081101561007057600080fd5b50356100ab565b6000610082826100e8565b905060ff811660020a821661009357fe5b60001960ff821660020a018216156100a757fe5b5050565b60006100b68261020e565b90508060ff1660020a8210156100c857fe5b8060ff1660ff14806100e257508060010160ff1660020a82105b6100a757fe5b60008082116101285760405162461bcd60e51b815260040180806020018281038252602281526020018061030f6022913960400191505060405180910390fd5b5060ff6fffffffffffffffffffffffffffffffff82161561014c57607f1901610154565b608082901c91505b67ffffffffffffffff82161561016d57603f1901610175565b604082901c91505b63ffffffff82161561018a57601f1901610192565b602082901c91505b61ffff8216156101a557600f19016101ad565b601082901c91505b60ff8216156101bf57600719016101c7565b600882901c91505b600f8216156101d957600319016101e1565b600482901c91505b60038216156101f357600119016101fb565b600282901c91505b600182161561020957600019015b919050565b600080821161024e5760405162461bcd60e51b81526004018080602001828103825260218152602001806102ee6021913960400191505060405180910390fd5b700100000000000000000000000000000000821061026e57608091821c91015b68010000000000000000821061028657604091821c91015b640100000000821061029a57602091821c91015b6201000082106102ac57601091821c91015b61010082106102bd57600891821c91015b601082106102cd57600491821c91015b600482106102dd57600291821c91015b600282106102095760010191905056fe4269744d6174683a3a6d6f73745369676e69666963616e744269743a207a65726f4269744d6174683a3a6c656173745369676e69666963616e744269743a207a65726fa2646970667358221220cb6155535bcba26e66e2a815b0eb776b1dfce87d7118f339c352fb60a13130cb64736f6c634300060c0033","opcodes":"PUSH1 0x80 PUSH1 0x40 MSTORE CALLVALUE DUP1 ISZERO PUSH2 0x10 JUMPI PUSH1 0x0 DUP1 REVERT JUMPDEST POP PUSH2 0x366 DUP1 PUSH2 0x20 PUSH1 0x0 CODECOPY PUSH1 0x0 RETURN INVALID PUSH1 0x80 PUSH1 0x40 MSTORE CALLVALUE DUP1 ISZERO PUSH2 0x10 JUMPI PUSH1 0x0 DUP1 REVERT JUMPDEST POP PUSH1 0x4 CALLDATASIZE LT PUSH2 0x36 JUMPI PUSH1 0x0 CALLDATALOAD PUSH1 0xE0 SHR DUP1 PUSH4 0x2D711E0C EQ PUSH2 0x3B JUMPI DUP1 PUSH4 0xF94AC90E EQ PUSH2 0x5A JUMPI JUMPDEST PUSH1 0x0 DUP1 REVERT JUMPDEST PUSH2 0x58 PUSH1 0x4 DUP1 CALLDATASIZE SUB PUSH1 0x20 DUP2 LT ISZERO PUSH2 0x51 JUMPI PUSH1 0x0 DUP1 REVERT JUMPDEST POP CALLDATALOAD PUSH2 0x77 JUMP JUMPDEST STOP JUMPDEST PUSH2 0x58 PUSH1 0x4 DUP1 CALLDATASIZE SUB PUSH1 0x20 DUP2 LT ISZERO PUSH2 0x70 JUMPI PUSH1 0x0 DUP1 REVERT JUMPDEST POP CALLDATALOAD PUSH2 0xAB JUMP JUMPDEST PUSH1 0x0 PUSH2 0x82 DUP3 PUSH2 0xE8 JUMP JUMPDEST SWAP1 POP PUSH1 0xFF DUP2 AND PUSH1 0x2 EXP DUP3 AND PUSH2 0x93 JUMPI INVALID JUMPDEST PUSH1 0x0 NOT PUSH1 0xFF DUP3 AND PUSH1 0x2 EXP ADD DUP3 AND ISZERO PUSH2 0xA7 JUMPI INVALID JUMPDEST POP POP JUMP JUMPDEST PUSH1 0x0 PUSH2 0xB6 DUP3 PUSH2 0x20E JUMP JUMPDEST SWAP1 POP DUP1 PUSH1 0xFF AND PUSH1 0x2 EXP DUP3 LT ISZERO PUSH2 0xC8 JUMPI INVALID JUMPDEST DUP1 PUSH1 0xFF AND PUSH1 0xFF EQ DUP1 PUSH2 0xE2 JUMPI POP DUP1 PUSH1 0x1 ADD PUSH1 0xFF AND PUSH1 0x2 EXP DUP3 LT JUMPDEST PUSH2 0xA7 JUMPI INVALID JUMPDEST PUSH1 0x0 DUP1 DUP3 GT PUSH2 0x128 JUMPI PUSH1 0x40 MLOAD PUSH3 0x461BCD PUSH1 0xE5 SHL DUP2 MSTORE PUSH1 0x4 ADD DUP1 DUP1 PUSH1 0x20 ADD DUP3 DUP2 SUB DUP3 MSTORE PUSH1 0x22 DUP2 MSTORE PUSH1 0x20 ADD DUP1 PUSH2 0x30F PUSH1 0x22 SWAP2 CODECOPY PUSH1 0x40 ADD SWAP2 POP POP PUSH1 0x40 MLOAD DUP1 SWAP2 SUB SWAP1 REVERT JUMPDEST POP PUSH1 0xFF PUSH16 0xFFFFFFFFFFFFFFFFFFFFFFFFFFFFFFFF DUP3 AND ISZERO PUSH2 0x14C JUMPI PUSH1 0x7F NOT ADD PUSH2 0x154 JUMP JUMPDEST PUSH1 0x80 DUP3 SWAP1 SHR SWAP2 POP JUMPDEST PUSH8 0xFFFFFFFFFFFFFFFF DUP3 AND ISZERO PUSH2 0x16D JUMPI PUSH1 0x3F NOT ADD PUSH2 0x175 JUMP JUMPDEST PUSH1 0x40 DUP3 SWAP1 SHR SWAP2 POP JUMPDEST PUSH4 0xFFFFFFFF DUP3 AND ISZERO PUSH2 0x18A JUMPI PUSH1 0x1F NOT ADD PUSH2 0x192 JUMP JUMPDEST PUSH1 0x20 DUP3 SWAP1 SHR SWAP2 POP JUMPDEST PUSH2 0xFFFF DUP3 AND ISZERO PUSH2 0x1A5 JUMPI PUSH1 0xF NOT ADD PUSH2 0x1AD JUMP JUMPDEST PUSH1 0x10 DUP3 SWAP1 SHR SWAP2 POP JUMPDEST PUSH1 0xFF DUP3 AND ISZERO PUSH2 0x1BF JUMPI PUSH1 0x7 NOT ADD PUSH2 0x1C7 JUMP JUMPDEST PUSH1 0x8 DUP3 SWAP1 SHR SWAP2 POP JUMPDEST PUSH1 0xF DUP3 AND ISZERO PUSH2 0x1D9 JUMPI PUSH1 0x3 NOT ADD PUSH2 0x1E1 JUMP JUMPDEST PUSH1 0x4 DUP3 SWAP1 SHR SWAP2 POP JUMPDEST PUSH1 0x3 DUP3 AND ISZERO PUSH2 0x1F3 JUMPI PUSH1 0x1 NOT ADD PUSH2 0x1FB JUMP JUMPDEST PUSH1 0x2 DUP3 SWAP1 SHR SWAP2 POP JUMPDEST PUSH1 0x1 DUP3 AND ISZERO PUSH2 0x209 JUMPI PUSH1 0x0 NOT ADD JUMPDEST SWAP2 SWAP1 POP JUMP JUMPDEST PUSH1 0x0 DUP1 DUP3 GT PUSH2 0x24E JUMPI PUSH1 0x40 MLOAD PUSH3 0x461BCD PUSH1 0xE5 SHL DUP2 MSTORE PUSH1 0x4 ADD DUP1 DUP1 PUSH1 0x20 ADD DUP3 DUP2 SUB DUP3 MSTORE PUSH1 0x21 DUP2 MSTORE PUSH1 0x20 ADD DUP1 PUSH2 0x2EE PUSH1 0x21 SWAP2 CODECOPY PUSH1 0x40 ADD SWAP2 POP POP PUSH1 0x40 MLOAD DUP1 SWAP2 SUB SWAP1 REVERT JUMPDEST PUSH17 0x100000000000000000000000000000000 DUP3 LT PUSH2 0x26E JUMPI PUSH1 0x80 SWAP2 DUP3 SHR SWAP2 ADD JUMPDEST PUSH9 0x10000000000000000 DUP3 LT PUSH2 0x286 JUMPI PUSH1 0x40 SWAP2 DUP3 SHR SWAP2 ADD JUMPDEST PUSH5 0x100000000 DUP3 LT PUSH2 0x29A JUMPI PUSH1 0x20 SWAP2 DUP3 SHR SWAP2 ADD JUMPDEST PUSH3 0x10000 DUP3 LT PUSH2 0x2AC JUMPI PUSH1 0x10 SWAP2 DUP3 SHR SWAP2 ADD JUMPDEST PUSH2 0x100 DUP3 LT PUSH2 0x2BD JUMPI PUSH1 0x8 SWAP2 DUP3 SHR SWAP2 ADD JUMPDEST PUSH1 0x10 DUP3 LT PUSH2 0x2CD JUMPI PUSH1 0x4 SWAP2 DUP3 SHR SWAP2 ADD JUMPDEST PUSH1 0x4 DUP3 LT PUSH2 0x2DD JUMPI PUSH1 0x2 SWAP2 DUP3 SHR SWAP2 ADD JUMPDEST PUSH1 0x2 DUP3 LT PUSH2 0x209 JUMPI PUSH1 0x1 ADD SWAP2 SWAP1 POP JUMP INVALID TIMESTAMP PUSH10 0x744D6174683A3A6D6F73 PUSH21 0x5369676E69666963616E744269743A207A65726F42 PUSH10 0x744D6174683A3A6C6561 PUSH20 0x745369676E69666963616E744269743A207A6572 PUSH16 0xA2646970667358221220CB6155535BCB LOG2 PUSH15 0x66E2A815B0EB776B1DFCE87D7118F3 CODECOPY 0xC3 MSTORE 0xFB PUSH1 0xA1 BALANCE ADDRESS 0xCB PUSH5 0x736F6C6343 STOP MOD 0xC STOP CALLER "},"methodIdentifiers":{"leastSignificantBitInvariant(uint256)":"2d711e0c","mostSignificantBitInvariant(uint256)":"f94ac90e"}}}}}