{"contracts/lib/contracts/test/BitMathTest.sol":{"BitMathTest":{"abi":[{"inputs":[{"internalType":"uint256","name":"x","type":"uint256"}],"name":"getGasCostOfLeastSignificantBit","outputs":[{"internalType":"uint256","name":"","type":"uint256"}],"stateMutability":"view","type":"function"},{"inputs":[{"internalType":"uint256","name":"x","type":"uint256"}],"name":"getGasCostOfMostSignificantBit","outputs":[{"internalType":"uint256","name":"","type":"uint256"}],"stateMutability":"view","type":"function"},{"inputs":[{"internalType":"uint256","name":"x","type":"uint256"}],"name":"leastSignificantBit","outputs":[{"internalType":"uint8","name":"r","type":"uint8"}],"stateMutability":"pure","type":"function"},{"inputs":[{"internalType":"uint256","name":"x","type":"uint256"}],"name":"mostSignificantBit","outputs":[{"internalType":"uint8","name":"r","type":"uint8"}],"stateMutability":"pure","type":"function"}],"evm":{"bytecode":{"linkReferences":{},"object":"608060405234801561001057600080fd5b506103ab806100206000396000f3fe608060405234801561001057600080fd5b506004361061004b5760003560e01c806246b777146100505780636b83cf261461007f578063d230d23f1461009c578063e6bcbc65146100cf575b600080fd5b61006d6004803603602081101561006657600080fd5b50356100ec565b60408051918252519081900360200190f35b61006d6004803603602081101561009557600080fd5b5035610107565b6100b9600480360360208110156100b257600080fd5b5035610116565b6040805160ff9092168252519081900360200190f35b6100b9600480360360208110156100e557600080fd5b5035610127565b6000805a90506100fb8361012e565b505a900390505b919050565b6000805a90506100fb8361020d565b60006101218261020d565b92915050565b6000610121825b600080821161016e5760405162461bcd60e51b81526004018080602001828103825260218152602001806103336021913960400191505060405180910390fd5b700100000000000000000000000000000000821061018e57608091821c91015b6801000000000000000082106101a657604091821c91015b64010000000082106101ba57602091821c91015b6201000082106101cc57601091821c91015b61010082106101dd57600891821c91015b601082106101ed57600491821c91015b600482106101fd57600291821c91015b6002821061010257600101919050565b600080821161024d5760405162461bcd60e51b81526004018080602001828103825260228152602001806103546022913960400191505060405180910390fd5b5060ff6fffffffffffffffffffffffffffffffff82161561027157607f1901610279565b608082901c91505b67ffffffffffffffff82161561029257603f190161029a565b604082901c91505b63ffffffff8216156102af57601f19016102b7565b602082901c91505b61ffff8216156102ca57600f19016102d2565b601082901c91505b60ff8216156102e457600719016102ec565b600882901c91505b600f8216156102fe5760031901610306565b600482901c91505b60038216156103185760011901610320565b600282901c91505b6001821615610102576000190191905056fe4269744d6174683a3a6d6f73745369676e69666963616e744269743a207a65726f4269744d6174683a3a6c656173745369676e69666963616e744269743a207a65726fa2646970667358221220454b7118307859eff25f3a1ebdfafe5c38acfa341dcd0558a104a7109ab8d8d764736f6c634300060c0033","opcodes":"PUSH1 0x80 PUSH1 0x40 MSTORE CALLVALUE DUP1 ISZERO PUSH2 0x10 JUMPI PUSH1 0x0 DUP1 REVERT JUMPDEST POP PUSH2 0x3AB DUP1 PUSH2 0x20 PUSH1 0x0 CODECOPY PUSH1 0x0 RETURN INVALID PUSH1 0x80 PUSH1 0x40 MSTORE CALLVALUE DUP1 ISZERO PUSH2 0x10 JUMPI PUSH1 0x0 DUP1 REVERT JUMPDEST POP PUSH1 0x4 CALLDATASIZE LT PUSH2 0x4B JUMPI PUSH1 0x0 CALLDATALOAD PUSH1 0xE0 SHR DUP1 PUSH3 0x46B777 EQ PUSH2 0x50 JUMPI DUP1 PUSH4 0x6B83CF26 EQ PUSH2 0x7F JUMPI DUP1 PUSH4 0xD230D23F EQ PUSH2 0x9C JUMPI DUP1 PUSH4 0xE6BCBC65 EQ PUSH2 0xCF JUMPI JUMPDEST PUSH1 0x0 DUP1 REVERT JUMPDEST PUSH2 0x6D PUSH1 0x4 DUP1 CALLDATASIZE SUB PUSH1 0x20 DUP2 LT ISZERO PUSH2 0x66 JUMPI PUSH1 0x0 DUP1 REVERT JUMPDEST POP CALLDATALOAD PUSH2 0xEC JUMP JUMPDEST PUSH1 0x40 DUP1 MLOAD SWAP2 DUP3 MSTORE MLOAD SWAP1 DUP2 SWAP1 SUB PUSH1 0x20 ADD SWAP1 RETURN JUMPDEST PUSH2 0x6D PUSH1 0x4 DUP1 CALLDATASIZE SUB PUSH1 0x20 DUP2 LT ISZERO PUSH2 0x95 JUMPI PUSH1 0x0 DUP1 REVERT JUMPDEST POP CALLDATALOAD PUSH2 0x107 JUMP JUMPDEST PUSH2 0xB9 PUSH1 0x4 DUP1 CALLDATASIZE SUB PUSH1 0x20 DUP2 LT ISZERO PUSH2 0xB2 JUMPI PUSH1 0x0 DUP1 REVERT JUMPDEST POP CALLDATALOAD PUSH2 0x116 JUMP JUMPDEST PUSH1 0x40 DUP1 MLOAD PUSH1 0xFF SWAP1 SWAP3 AND DUP3 MSTORE MLOAD SWAP1 DUP2 SWAP1 SUB PUSH1 0x20 ADD SWAP1 RETURN JUMPDEST PUSH2 0xB9 PUSH1 0x4 DUP1 CALLDATASIZE SUB PUSH1 0x20 DUP2 LT ISZERO PUSH2 0xE5 JUMPI PUSH1 0x0 DUP1 REVERT JUMPDEST POP CALLDATALOAD PUSH2 0x127 JUMP JUMPDEST PUSH1 0x0 DUP1 GAS SWAP1 POP PUSH2 0xFB DUP4 PUSH2 0x12E JUMP JUMPDEST POP GAS SWAP1 SUB SWAP1 POP JUMPDEST SWAP2 SWAP1 POP JUMP JUMPDEST PUSH1 0x0 DUP1 GAS SWAP1 POP PUSH2 0xFB DUP4 PUSH2 0x20D JUMP JUMPDEST PUSH1 0x0 PUSH2 0x121 DUP3 PUSH2 0x20D JUMP JUMPDEST SWAP3 SWAP2 POP POP JUMP JUMPDEST PUSH1 0x0 PUSH2 0x121 DUP3 JUMPDEST PUSH1 0x0 DUP1 DUP3 GT PUSH2 0x16E JUMPI PUSH1 0x40 MLOAD PUSH3 0x461BCD PUSH1 0xE5 SHL DUP2 MSTORE PUSH1 0x4 ADD DUP1 DUP1 PUSH1 0x20 ADD DUP3 DUP2 SUB DUP3 MSTORE PUSH1 0x21 DUP2 MSTORE PUSH1 0x20 ADD DUP1 PUSH2 0x333 PUSH1 0x21 SWAP2 CODECOPY PUSH1 0x40 ADD SWAP2 POP POP PUSH1 0x40 MLOAD DUP1 SWAP2 SUB SWAP1 REVERT JUMPDEST PUSH17 0x100000000000000000000000000000000 DUP3 LT PUSH2 0x18E JUMPI PUSH1 0x80 SWAP2 DUP3 SHR SWAP2 ADD JUMPDEST PUSH9 0x10000000000000000 DUP3 LT PUSH2 0x1A6 JUMPI PUSH1 0x40 SWAP2 DUP3 SHR SWAP2 ADD JUMPDEST PUSH5 0x100000000 DUP3 LT PUSH2 0x1BA JUMPI PUSH1 0x20 SWAP2 DUP3 SHR SWAP2 ADD JUMPDEST PUSH3 0x10000 DUP3 LT PUSH2 0x1CC JUMPI PUSH1 0x10 SWAP2 DUP3 SHR SWAP2 ADD JUMPDEST PUSH2 0x100 DUP3 LT PUSH2 0x1DD JUMPI PUSH1 0x8 SWAP2 DUP3 SHR SWAP2 ADD JUMPDEST PUSH1 0x10 DUP3 LT PUSH2 0x1ED JUMPI PUSH1 0x4 SWAP2 DUP3 SHR SWAP2 ADD JUMPDEST PUSH1 0x4 DUP3 LT PUSH2 0x1FD JUMPI PUSH1 0x2 SWAP2 DUP3 SHR SWAP2 ADD JUMPDEST PUSH1 0x2 DUP3 LT PUSH2 0x102 JUMPI PUSH1 0x1 ADD SWAP2 SWAP1 POP JUMP JUMPDEST PUSH1 0x0 DUP1 DUP3 GT PUSH2 0x24D JUMPI PUSH1 0x40 MLOAD PUSH3 0x461BCD PUSH1 0xE5 SHL DUP2 MSTORE PUSH1 0x4 ADD DUP1 DUP1 PUSH1 0x20 ADD DUP3 DUP2 SUB DUP3 MSTORE PUSH1 0x22 DUP2 MSTORE PUSH1 0x20 ADD DUP1 PUSH2 0x354 PUSH1 0x22 SWAP2 CODECOPY PUSH1 0x40 ADD SWAP2 POP POP PUSH1 0x40 MLOAD DUP1 SWAP2 SUB SWAP1 REVERT JUMPDEST POP PUSH1 0xFF PUSH16 0xFFFFFFFFFFFFFFFFFFFFFFFFFFFFFFFF DUP3 AND ISZERO PUSH2 0x271 JUMPI PUSH1 0x7F NOT ADD PUSH2 0x279 JUMP JUMPDEST PUSH1 0x80 DUP3 SWAP1 SHR SWAP2 POP JUMPDEST PUSH8 0xFFFFFFFFFFFFFFFF DUP3 AND ISZERO PUSH2 0x292 JUMPI PUSH1 0x3F NOT ADD PUSH2 0x29A JUMP JUMPDEST PUSH1 0x40 DUP3 SWAP1 SHR SWAP2 POP JUMPDEST PUSH4 0xFFFFFFFF DUP3 AND ISZERO PUSH2 0x2AF JUMPI PUSH1 0x1F NOT ADD PUSH2 0x2B7 JUMP JUMPDEST PUSH1 0x20 DUP3 SWAP1 SHR SWAP2 POP JUMPDEST PUSH2 0xFFFF DUP3 AND ISZERO PUSH2 0x2CA JUMPI PUSH1 0xF NOT ADD PUSH2 0x2D2 JUMP JUMPDEST PUSH1 0x10 DUP3 SWAP1 SHR SWAP2 POP JUMPDEST PUSH1 0xFF DUP3 AND ISZERO PUSH2 0x2E4 JUMPI PUSH1 0x7 NOT ADD PUSH2 0x2EC JUMP JUMPDEST PUSH1 0x8 DUP3 SWAP1 SHR SWAP2 POP JUMPDEST PUSH1 0xF DUP3 AND ISZERO PUSH2 0x2FE JUMPI PUSH1 0x3 NOT ADD PUSH2 0x306 JUMP JUMPDEST PUSH1 0x4 DUP3 SWAP1 SHR SWAP2 POP JUMPDEST PUSH1 0x3 DUP3 AND ISZERO PUSH2 0x318 JUMPI PUSH1 0x1 NOT ADD PUSH2 0x320 JUMP JUMPDEST PUSH1 0x2 DUP3 SWAP1 SHR SWAP2 POP JUMPDEST PUSH1 0x1 DUP3 AND ISZERO PUSH2 0x102 JUMPI PUSH1 0x0 NOT ADD SWAP2 SWAP1 POP JUMP INVALID TIMESTAMP PUSH10 0x744D6174683A3A6D6F73 PUSH21 0x5369676E69666963616E744269743A207A65726F42 PUSH10 0x744D6174683A3A6C6561 PUSH20 0x745369676E69666963616E744269743A207A6572 PUSH16 0xA2646970667358221220454B71183078 MSIZE 0xEF CALLCODE 0x5F GASPRICE 0x1E 0xBD STATICCALL INVALID 0x5C CODESIZE 0xAC STATICCALL CALLVALUE SAR 0xCD SDIV PC LOG1 DIV 0xA7 LT SWAP11 0xB8 0xD8 0xD7 PUSH5 0x736F6C6343 STOP MOD 0xC STOP CALLER "},"methodIdentifiers":{"getGasCostOfLeastSignificantBit(uint256)":"6b83cf26","getGasCostOfMostSignificantBit(uint256)":"0046b777","leastSignificantBit(uint256)":"d230d23f","mostSignificantBit(uint256)":"e6bcbc65"}}}}}