{"contracts/lib/contracts/test/FixedPointTest.sol":{"FixedPointTest":{"abi":[{"inputs":[{"components":[{"internalType":"uint224","name":"_x","type":"uint224"}],"internalType":"struct FixedPoint.uq112x112","name":"self","type":"tuple"}],"name":"decode","outputs":[{"internalType":"uint112","name":"","type":"uint112"}],"stateMutability":"pure","type":"function"},{"inputs":[{"components":[{"internalType":"uint256","name":"_x","type":"uint256"}],"internalType":"struct FixedPoint.uq144x112","name":"self","type":"tuple"}],"name":"decode144","outputs":[{"internalType":"uint144","name":"","type":"uint144"}],"stateMutability":"pure","type":"function"},{"inputs":[{"components":[{"internalType":"uint224","name":"_x","type":"uint224"}],"internalType":"struct FixedPoint.uq112x112","name":"self","type":"tuple"},{"components":[{"internalType":"uint224","name":"_x","type":"uint224"}],"internalType":"struct FixedPoint.uq112x112","name":"other","type":"tuple"}],"name":"divuq","outputs":[{"components":[{"internalType":"uint224","name":"_x","type":"uint224"}],"internalType":"struct FixedPoint.uq112x112","name":"","type":"tuple"}],"stateMutability":"pure","type":"function"},{"inputs":[{"internalType":"uint112","name":"x","type":"uint112"}],"name":"encode","outputs":[{"components":[{"internalType":"uint224","name":"_x","type":"uint224"}],"internalType":"struct FixedPoint.uq112x112","name":"","type":"tuple"}],"stateMutability":"pure","type":"function"},{"inputs":[{"internalType":"uint144","name":"x","type":"uint144"}],"name":"encode144","outputs":[{"components":[{"internalType":"uint256","name":"_x","type":"uint256"}],"internalType":"struct FixedPoint.uq144x112","name":"","type":"tuple"}],"stateMutability":"pure","type":"function"},{"inputs":[{"internalType":"uint256","name":"numerator","type":"uint256"},{"internalType":"uint256","name":"denominator","type":"uint256"}],"name":"fraction","outputs":[{"components":[{"internalType":"uint224","name":"_x","type":"uint224"}],"internalType":"struct FixedPoint.uq112x112","name":"","type":"tuple"}],"stateMutability":"pure","type":"function"},{"inputs":[{"components":[{"internalType":"uint224","name":"_x","type":"uint224"}],"internalType":"struct FixedPoint.uq112x112","name":"self","type":"tuple"},{"components":[{"internalType":"uint224","name":"_x","type":"uint224"}],"internalType":"struct FixedPoint.uq112x112","name":"other","type":"tuple"}],"name":"getGasCostOfDivuq","outputs":[{"internalType":"uint256","name":"","type":"uint256"}],"stateMutability":"view","type":"function"},{"inputs":[{"internalType":"uint256","name":"numerator","type":"uint256"},{"internalType":"uint256","name":"denominator","type":"uint256"}],"name":"getGasCostOfFraction","outputs":[{"internalType":"uint256","name":"","type":"uint256"}],"stateMutability":"view","type":"function"},{"inputs":[{"components":[{"internalType":"uint224","name":"_x","type":"uint224"}],"internalType":"struct FixedPoint.uq112x112","name":"self","type":"tuple"},{"components":[{"internalType":"uint224","name":"_x","type":"uint224"}],"internalType":"struct FixedPoint.uq112x112","name":"other","type":"tuple"}],"name":"getGasCostOfMuluq","outputs":[{"internalType":"uint256","name":"","type":"uint256"}],"stateMutability":"view","type":"function"},{"inputs":[{"components":[{"internalType":"uint224","name":"_x","type":"uint224"}],"internalType":"struct FixedPoint.uq112x112","name":"self","type":"tuple"}],"name":"getGasCostOfSqrt","outputs":[{"internalType":"uint256","name":"","type":"uint256"}],"stateMutability":"view","type":"function"},{"inputs":[{"components":[{"internalType":"uint224","name":"_x","type":"uint224"}],"internalType":"struct FixedPoint.uq112x112","name":"self","type":"tuple"},{"internalType":"uint256","name":"y","type":"uint256"}],"name":"mul","outputs":[{"components":[{"internalType":"uint256","name":"_x","type":"uint256"}],"internalType":"struct FixedPoint.uq144x112","name":"","type":"tuple"}],"stateMutability":"pure","type":"function"},{"inputs":[{"components":[{"internalType":"uint224","name":"_x","type":"uint224"}],"internalType":"struct FixedPoint.uq112x112","name":"self","type":"tuple"},{"internalType":"int256","name":"y","type":"int256"}],"name":"muli","outputs":[{"internalType":"int256","name":"","type":"int256"}],"stateMutability":"pure","type":"function"},{"inputs":[{"components":[{"internalType":"uint224","name":"_x","type":"uint224"}],"internalType":"struct FixedPoint.uq112x112","name":"self","type":"tuple"},{"components":[{"internalType":"uint224","name":"_x","type":"uint224"}],"internalType":"struct FixedPoint.uq112x112","name":"other","type":"tuple"}],"name":"muluq","outputs":[{"components":[{"internalType":"uint224","name":"_x","type":"uint224"}],"internalType":"struct FixedPoint.uq112x112","name":"","type":"tuple"}],"stateMutability":"pure","type":"function"},{"inputs":[{"components":[{"internalType":"uint224","name":"_x","type":"uint224"}],"internalType":"struct FixedPoint.uq112x112","name":"self","type":"tuple"}],"name":"reciprocal","outputs":[{"components":[{"internalType":"uint224","name":"_x","type":"uint224"}],"internalType":"struct FixedPoint.uq112x112","name":"","type":"tuple"}],"stateMutability":"pure","type":"function"},{"inputs":[{"components":[{"internalType":"uint224","name":"_x","type":"uint224"}],"internalType":"struct FixedPoint.uq112x112","name":"self","type":"tuple"}],"name":"sqrt","outputs":[{"components":[{"internalType":"uint224","name":"_x","type":"uint224"}],"internalType":"struct FixedPoint.uq112x112","name":"","type":"tuple"}],"stateMutability":"pure","type":"function"}],"evm":{"bytecode":{"linkReferences":{},"object":"608060405234801561001057600080fd5b506113af806100206000396000f3fe608060405234801561001057600080fd5b50600436106100f55760003560e01c80636d173f7111610097578063c814e31411610066578063c814e31414610215578063ca2d029914610228578063ca74fcc01461023b578063d993d3791461024e576100f5565b80636d173f71146101bc57806389258451146101cf578063af35b769146101e2578063b1acad5c14610202576100f5565b80634fd04a40116100d35780634fd04a40146101495780635a606689146101695780635f9f4c3b1461017c578063644a478b1461019c576100f5565b80630f1530e4146100fa57806331f92b13146101235780633f1626c814610136575b600080fd5b61010d610108366004610f81565b610261565b60405161011a91906112fb565b60405180910390f35b61010d610131366004610e37565b61027c565b61010d610144366004610e37565b6102a3565b61015c610157366004610e37565b6102c2565b60405161011a9190611318565b61010d610177366004610e7c565b6102db565b61018f61018a366004610e37565b610309565b60405161011a9190611333565b6101af6101aa366004610f81565b610322565b60405161011a9190610fa2565b6101af6101ca366004610e7c565b61033d565b6101af6101dd366004610e52565b610364565b6101f56101f0366004610eb0565b61037e565b60405161011a919061130e565b6101af610210366004610e37565b61039e565b6101f5610223366004610f4f565b6103c0565b61010d610236366004610f21565b6103d1565b61010d610249366004610e7c565b6103e2565b6101af61025c366004610e7c565b610410565b610269610dfb565b6102738383610437565b90505b92915050565b610284610dfb565b61029b61029636849003840184610ec2565b61052e565b90505b919050565b6102ab610dfb565b61029b6102bd36849003840184610ec2565b6105dd565b600061029b6102d636849003840184610ec2565b6106bf565b6102e3610dfb565b6102736102f536859003850185610ec2565b61030436859003850185610ec2565b6106d6565b600061029b61031d36849003840184610efc565b610819565b6000805a90506103328484610437565b505a90039392505050565b6000805a905061033261035536869003860186610ec2565b61030436869003860186610ec2565b600061027361037836859003850185610ec2565b83610820565b610386610e0d565b61027361039836859003850185610ec2565b836108ad565b6000805a90506103b66102bd36859003850185610ec2565b505a900392915050565b6103c8610e0d565b61029b8261090c565b6103d9610dfb565b61029b8261093c565b6103ea610dfb565b6102736103fc36859003850185610ec2565b61040b36859003850185610ec2565b610979565b6000805a905061033261042836869003860186610ec2565b61040b36869003860186610ec2565b61043f610dfb565b600082116104685760405162461bcd60e51b815260040161045f906110d3565b60405180910390fd5b826104825750604080516020810190915260008152610276565b71ffffffffffffffffffffffffffffffffffff83116104f457600082607085901b816104aa57fe5b0490506001600160e01b038111156104d45760405162461bcd60e51b815260040161045f90611167565b6040518060200160405280826001600160e01b0316815250915050610276565b600061050584600160701b85610ac5565b90506001600160e01b038111156104d45760405162461bcd60e51b815260040161045f90611167565b610536610dfb565b81516001600160e01b031661055d5760405162461bcd60e51b815260040161045f9061129e565b81600001516001600160e01b03166001141561058b5760405162461bcd60e51b815260040161045f90611269565b604051806020016040528083600001516001600160e01b03167c0100000000000000000000000000000000000000000000000000000000816105c957fe5b046001600160e01b03168152509050919050565b6105e5610dfb565b815171ffffffffffffffffffffffffffffffffffff6001600160e01b039091161161064157604051806020016040528061062f607085600001516001600160e01b0316901b610b4b565b6001600160e01b03169052905061029e565b600061065983600001516001600160e01b0316610c9e565b60ff03905060028160ff168161066b57fe5b0681039050604051806020016040528060028360700360ff168161068b57fe5b0460ff166106ab8460ff1687600001516001600160e01b0316901b610b4b565b901b6001600160e01b031690529392505050565b5160701c6dffffffffffffffffffffffffffff1690565b6106de610dfb565b82516001600160e01b031615806106fd575081516001600160e01b0316155b156107175750604080516020810190915260008152610276565b825182516dffffffffffffffffffffffffffff607083811c8216938216929081901c82169190811690828502908285029083870290858702906001600160e01b03851611156107785760405162461bcd60e51b815260040161045f9061120c565b6000607060ff16846001600160e01b0316901c6001600160e01b0316826001600160e01b0316846001600160e01b0316607060ff16886001600160e01b0316901b6001600160e01b031601010190506000196001600160e01b03168111156107f25760405162461bcd60e51b815260040161045f9061119e565b60408051602081019091526001600160e01b0390911681529b9a5050505050505050505050565b5160701c90565b60008061085184600001516001600160e01b0316600085126108425784610847565b846000035b600160701b610ac5565b90507f800000000000000000000000000000000000000000000000000000000000000081106108925760405162461bcd60e51b815260040161045f906111d5565b600083126108a057806108a5565b806000035b949350505050565b6108b5610e0d565b60008215806108db57505082516001600160e01b0316828102908382816108d857fe5b04145b6108f75760405162461bcd60e51b815260040161045f9061109c565b60408051602081019091529081529392505050565b610914610e0d565b50604080516020810190915260709190911b6dffffffffffffffffffffffffffff1916815290565b610944610dfb565b50604080516020810190915260709190911b7bffffffffffffffffffffffffffff000000000000000000000000000016815290565b610981610dfb565b81516001600160e01b03166109a85760405162461bcd60e51b815260040161045f9061103f565b815183516001600160e01b03908116911614156109d757506040805160208101909152600160701b8152610276565b825171ffffffffffffffffffffffffffffffffffff6001600160e01b0390911611610a5257815183516000916001600160e01b03169060701b6dffffffffffffffffffffffffffff191681610a2857fe5b0490506001600160e01b038111156104d45760405162461bcd60e51b815260040161045f90611008565b6000610a7d600160701b85600001516001600160e01b031685600001516001600160e01b0316610ac5565b90506001600160e01b03811115610aa65760405162461bcd60e51b815260040161045f90611008565b60408051602081019091526001600160e01b0390911681529392505050565b6000806000610ad48686610d5e565b9150915060008480610ae257fe5b868809905082811115610af6576001820391505b918290039181610b1457848381610b0957fe5b049350505050610b44565b848210610b335760405162461bcd60e51b815260040161045f90611130565b610b3e838387610d8b565b93505050505b9392505050565b600081610b5a5750600061029e565b8160017001000000000000000000000000000000008210610b805760809190911c9060401b5b680100000000000000008210610b9b5760409190911c9060201b5b6401000000008210610bb25760209190911c9060101b5b620100008210610bc75760109190911c9060081b5b6101008210610bdb5760089190911c9060041b5b60108210610bee5760049190911c9060021b5b60088210610bfa5760011b5b6001818581610c0557fe5b048201901c90506001818581610c1757fe5b048201901c90506001818581610c2957fe5b048201901c90506001818581610c3b57fe5b048201901c90506001818581610c4d57fe5b048201901c90506001818581610c5f57fe5b048201901c90506001818581610c7157fe5b048201901c90506000818581610c8357fe5b049050808210610c935780610c95565b815b95945050505050565b6000808211610cbf5760405162461bcd60e51b815260040161045f90610fab565b7001000000000000000000000000000000008210610cdf57608091821c91015b680100000000000000008210610cf757604091821c91015b6401000000008210610d0b57602091821c91015b620100008210610d1d57601091821c91015b6101008210610d2e57600891821c91015b60108210610d3e57600491821c91015b60048210610d4e57600291821c91015b6002821061029e57600101919050565b6000808060001984860990508385029250828103915082811015610d83576001820391505b509250929050565b60008181038216808381610d9b57fe5b049250808581610da757fe5b049450808160000381610db657fe5b60028581038087028203028087028203028087028203028087028203028087028203028087028203029586029003909402930460010193909302939093010292915050565b60408051602081019091526000815290565b6040518060200160405280600081525090565b600060208284031215610e31578081fd5b50919050565b600060208284031215610e48578081fd5b6102738383610e20565b60008060408385031215610e64578081fd5b610e6e8484610e20565b946020939093013593505050565b60008060408385031215610e8e578182fd5b610e988484610e20565b9150610ea78460208501610e20565b90509250929050565b60008060408385031215610e64578182fd5b600060208284031215610ed3578081fd5b610edd6020611352565b82356001600160e01b0381168114610ef3578283fd5b81529392505050565b600060208284031215610f0d578081fd5b610f176020611352565b9135825250919050565b600060208284031215610f32578081fd5b81356dffffffffffffffffffffffffffff81168114610b44578182fd5b600060208284031215610f60578081fd5b813571ffffffffffffffffffffffffffffffffffff81168114610b44578182fd5b60008060408385031215610f93578182fd5b50508035926020909101359150565b90815260200190565b60208082526021908201527f4269744d6174683a3a6d6f73745369676e69666963616e744269743a207a657260408201527f6f00000000000000000000000000000000000000000000000000000000000000606082015260800190565b6020808252601b908201527f4669786564506f696e743a3a64697675713a206f766572666c6f770000000000604082015260600190565b60208082526023908201527f4669786564506f696e743a3a64697675713a206469766973696f6e206279207a60408201527f65726f0000000000000000000000000000000000000000000000000000000000606082015260800190565b60208082526019908201527f4669786564506f696e743a3a6d756c3a206f766572666c6f7700000000000000604082015260600190565b60208082526026908201527f4669786564506f696e743a3a6672616374696f6e3a206469766973696f6e206260408201527f79207a65726f0000000000000000000000000000000000000000000000000000606082015260800190565b6020808252601a908201527f46756c6c4d6174683a2046554c4c4449565f4f564552464c4f57000000000000604082015260600190565b6020808252601e908201527f4669786564506f696e743a3a6672616374696f6e3a206f766572666c6f770000604082015260600190565b6020808252601f908201527f4669786564506f696e743a3a6d756c75713a2073756d206f766572666c6f7700604082015260600190565b6020808252601a908201527f4669786564506f696e743a3a6d756c693a206f766572666c6f77000000000000604082015260600190565b60208082526021908201527f4669786564506f696e743a3a6d756c75713a207570706572206f766572666c6f60408201527f7700000000000000000000000000000000000000000000000000000000000000606082015260800190565b6020808252818101527f4669786564506f696e743a3a7265636970726f63616c3a206f766572666c6f77604082015260600190565b6020808252602a908201527f4669786564506f696e743a3a7265636970726f63616c3a207265636970726f6360408201527f616c206f66207a65726f00000000000000000000000000000000000000000000606082015260800190565b90516001600160e01b0316815260200190565b9051815260200190565b6dffffffffffffffffffffffffffff91909116815260200190565b71ffffffffffffffffffffffffffffffffffff91909116815260200190565b60405181810167ffffffffffffffff8111828210171561137157600080fd5b60405291905056fea2646970667358221220da52903df44cea98ad82103b0774022b0c8319a5a12485b4493e86eae19e8f3164736f6c634300060c0033","opcodes":"PUSH1 0x80 PUSH1 0x40 MSTORE CALLVALUE DUP1 ISZERO PUSH2 0x10 JUMPI PUSH1 0x0 DUP1 REVERT JUMPDEST POP PUSH2 0x13AF DUP1 PUSH2 0x20 PUSH1 0x0 CODECOPY PUSH1 0x0 RETURN INVALID PUSH1 0x80 PUSH1 0x40 MSTORE CALLVALUE DUP1 ISZERO PUSH2 0x10 JUMPI PUSH1 0x0 DUP1 REVERT JUMPDEST POP PUSH1 0x4 CALLDATASIZE LT PUSH2 0xF5 JUMPI PUSH1 0x0 CALLDATALOAD PUSH1 0xE0 SHR DUP1 PUSH4 0x6D173F71 GT PUSH2 0x97 JUMPI DUP1 PUSH4 0xC814E314 GT PUSH2 0x66 JUMPI DUP1 PUSH4 0xC814E314 EQ PUSH2 0x215 JUMPI DUP1 PUSH4 0xCA2D0299 EQ PUSH2 0x228 JUMPI DUP1 PUSH4 0xCA74FCC0 EQ PUSH2 0x23B JUMPI DUP1 PUSH4 0xD993D379 EQ PUSH2 0x24E JUMPI PUSH2 0xF5 JUMP JUMPDEST DUP1 PUSH4 0x6D173F71 EQ PUSH2 0x1BC JUMPI DUP1 PUSH4 0x89258451 EQ PUSH2 0x1CF JUMPI DUP1 PUSH4 0xAF35B769 EQ PUSH2 0x1E2 JUMPI DUP1 PUSH4 0xB1ACAD5C EQ PUSH2 0x202 JUMPI PUSH2 0xF5 JUMP JUMPDEST DUP1 PUSH4 0x4FD04A40 GT PUSH2 0xD3 JUMPI DUP1 PUSH4 0x4FD04A40 EQ PUSH2 0x149 JUMPI DUP1 PUSH4 0x5A606689 EQ PUSH2 0x169 JUMPI DUP1 PUSH4 0x5F9F4C3B EQ PUSH2 0x17C JUMPI DUP1 PUSH4 0x644A478B EQ PUSH2 0x19C JUMPI PUSH2 0xF5 JUMP JUMPDEST DUP1 PUSH4 0xF1530E4 EQ PUSH2 0xFA JUMPI DUP1 PUSH4 0x31F92B13 EQ PUSH2 0x123 JUMPI DUP1 PUSH4 0x3F1626C8 EQ PUSH2 0x136 JUMPI JUMPDEST PUSH1 0x0 DUP1 REVERT JUMPDEST PUSH2 0x10D PUSH2 0x108 CALLDATASIZE PUSH1 0x4 PUSH2 0xF81 JUMP JUMPDEST PUSH2 0x261 JUMP JUMPDEST PUSH1 0x40 MLOAD PUSH2 0x11A SWAP2 SWAP1 PUSH2 0x12FB JUMP JUMPDEST PUSH1 0x40 MLOAD DUP1 SWAP2 SUB SWAP1 RETURN JUMPDEST PUSH2 0x10D PUSH2 0x131 CALLDATASIZE PUSH1 0x4 PUSH2 0xE37 JUMP JUMPDEST PUSH2 0x27C JUMP JUMPDEST PUSH2 0x10D PUSH2 0x144 CALLDATASIZE PUSH1 0x4 PUSH2 0xE37 JUMP JUMPDEST PUSH2 0x2A3 JUMP JUMPDEST PUSH2 0x15C PUSH2 0x157 CALLDATASIZE PUSH1 0x4 PUSH2 0xE37 JUMP JUMPDEST PUSH2 0x2C2 JUMP JUMPDEST PUSH1 0x40 MLOAD PUSH2 0x11A SWAP2 SWAP1 PUSH2 0x1318 JUMP JUMPDEST PUSH2 0x10D PUSH2 0x177 CALLDATASIZE PUSH1 0x4 PUSH2 0xE7C JUMP JUMPDEST PUSH2 0x2DB JUMP JUMPDEST PUSH2 0x18F PUSH2 0x18A CALLDATASIZE PUSH1 0x4 PUSH2 0xE37 JUMP JUMPDEST PUSH2 0x309 JUMP JUMPDEST PUSH1 0x40 MLOAD PUSH2 0x11A SWAP2 SWAP1 PUSH2 0x1333 JUMP JUMPDEST PUSH2 0x1AF PUSH2 0x1AA CALLDATASIZE PUSH1 0x4 PUSH2 0xF81 JUMP JUMPDEST PUSH2 0x322 JUMP JUMPDEST PUSH1 0x40 MLOAD PUSH2 0x11A SWAP2 SWAP1 PUSH2 0xFA2 JUMP JUMPDEST PUSH2 0x1AF PUSH2 0x1CA CALLDATASIZE PUSH1 0x4 PUSH2 0xE7C JUMP JUMPDEST PUSH2 0x33D JUMP JUMPDEST PUSH2 0x1AF PUSH2 0x1DD CALLDATASIZE PUSH1 0x4 PUSH2 0xE52 JUMP JUMPDEST PUSH2 0x364 JUMP JUMPDEST PUSH2 0x1F5 PUSH2 0x1F0 CALLDATASIZE PUSH1 0x4 PUSH2 0xEB0 JUMP JUMPDEST PUSH2 0x37E JUMP JUMPDEST PUSH1 0x40 MLOAD PUSH2 0x11A SWAP2 SWAP1 PUSH2 0x130E JUMP JUMPDEST PUSH2 0x1AF PUSH2 0x210 CALLDATASIZE PUSH1 0x4 PUSH2 0xE37 JUMP JUMPDEST PUSH2 0x39E JUMP JUMPDEST PUSH2 0x1F5 PUSH2 0x223 CALLDATASIZE PUSH1 0x4 PUSH2 0xF4F JUMP JUMPDEST PUSH2 0x3C0 JUMP JUMPDEST PUSH2 0x10D PUSH2 0x236 CALLDATASIZE PUSH1 0x4 PUSH2 0xF21 JUMP JUMPDEST PUSH2 0x3D1 JUMP JUMPDEST PUSH2 0x10D PUSH2 0x249 CALLDATASIZE PUSH1 0x4 PUSH2 0xE7C JUMP JUMPDEST PUSH2 0x3E2 JUMP JUMPDEST PUSH2 0x1AF PUSH2 0x25C CALLDATASIZE PUSH1 0x4 PUSH2 0xE7C JUMP JUMPDEST PUSH2 0x410 JUMP JUMPDEST PUSH2 0x269 PUSH2 0xDFB JUMP JUMPDEST PUSH2 0x273 DUP4 DUP4 PUSH2 0x437 JUMP JUMPDEST SWAP1 POP JUMPDEST SWAP3 SWAP2 POP POP JUMP JUMPDEST PUSH2 0x284 PUSH2 0xDFB JUMP JUMPDEST PUSH2 0x29B PUSH2 0x296 CALLDATASIZE DUP5 SWAP1 SUB DUP5 ADD DUP5 PUSH2 0xEC2 JUMP JUMPDEST PUSH2 0x52E JUMP JUMPDEST SWAP1 POP JUMPDEST SWAP2 SWAP1 POP JUMP JUMPDEST PUSH2 0x2AB PUSH2 0xDFB JUMP JUMPDEST PUSH2 0x29B PUSH2 0x2BD CALLDATASIZE DUP5 SWAP1 SUB DUP5 ADD DUP5 PUSH2 0xEC2 JUMP JUMPDEST PUSH2 0x5DD JUMP JUMPDEST PUSH1 0x0 PUSH2 0x29B PUSH2 0x2D6 CALLDATASIZE DUP5 SWAP1 SUB DUP5 ADD DUP5 PUSH2 0xEC2 JUMP JUMPDEST PUSH2 0x6BF JUMP JUMPDEST PUSH2 0x2E3 PUSH2 0xDFB JUMP JUMPDEST PUSH2 0x273 PUSH2 0x2F5 CALLDATASIZE DUP6 SWAP1 SUB DUP6 ADD DUP6 PUSH2 0xEC2 JUMP JUMPDEST PUSH2 0x304 CALLDATASIZE DUP6 SWAP1 SUB DUP6 ADD DUP6 PUSH2 0xEC2 JUMP JUMPDEST PUSH2 0x6D6 JUMP JUMPDEST PUSH1 0x0 PUSH2 0x29B PUSH2 0x31D CALLDATASIZE DUP5 SWAP1 SUB DUP5 ADD DUP5 PUSH2 0xEFC JUMP JUMPDEST PUSH2 0x819 JUMP JUMPDEST PUSH1 0x0 DUP1 GAS SWAP1 POP PUSH2 0x332 DUP5 DUP5 PUSH2 0x437 JUMP JUMPDEST POP GAS SWAP1 SUB SWAP4 SWAP3 POP POP POP JUMP JUMPDEST PUSH1 0x0 DUP1 GAS SWAP1 POP PUSH2 0x332 PUSH2 0x355 CALLDATASIZE DUP7 SWAP1 SUB DUP7 ADD DUP7 PUSH2 0xEC2 JUMP JUMPDEST PUSH2 0x304 CALLDATASIZE DUP7 SWAP1 SUB DUP7 ADD DUP7 PUSH2 0xEC2 JUMP JUMPDEST PUSH1 0x0 PUSH2 0x273 PUSH2 0x378 CALLDATASIZE DUP6 SWAP1 SUB DUP6 ADD DUP6 PUSH2 0xEC2 JUMP JUMPDEST DUP4 PUSH2 0x820 JUMP JUMPDEST PUSH2 0x386 PUSH2 0xE0D JUMP JUMPDEST PUSH2 0x273 PUSH2 0x398 CALLDATASIZE DUP6 SWAP1 SUB DUP6 ADD DUP6 PUSH2 0xEC2 JUMP JUMPDEST DUP4 PUSH2 0x8AD JUMP JUMPDEST PUSH1 0x0 DUP1 GAS SWAP1 POP PUSH2 0x3B6 PUSH2 0x2BD CALLDATASIZE DUP6 SWAP1 SUB DUP6 ADD DUP6 PUSH2 0xEC2 JUMP JUMPDEST POP GAS SWAP1 SUB SWAP3 SWAP2 POP POP JUMP JUMPDEST PUSH2 0x3C8 PUSH2 0xE0D JUMP JUMPDEST PUSH2 0x29B DUP3 PUSH2 0x90C JUMP JUMPDEST PUSH2 0x3D9 PUSH2 0xDFB JUMP JUMPDEST PUSH2 0x29B DUP3 PUSH2 0x93C JUMP JUMPDEST PUSH2 0x3EA PUSH2 0xDFB JUMP JUMPDEST PUSH2 0x273 PUSH2 0x3FC CALLDATASIZE DUP6 SWAP1 SUB DUP6 ADD DUP6 PUSH2 0xEC2 JUMP JUMPDEST PUSH2 0x40B CALLDATASIZE DUP6 SWAP1 SUB DUP6 ADD DUP6 PUSH2 0xEC2 JUMP JUMPDEST PUSH2 0x979 JUMP JUMPDEST PUSH1 0x0 DUP1 GAS SWAP1 POP PUSH2 0x332 PUSH2 0x428 CALLDATASIZE DUP7 SWAP1 SUB DUP7 ADD DUP7 PUSH2 0xEC2 JUMP JUMPDEST PUSH2 0x40B CALLDATASIZE DUP7 SWAP1 SUB DUP7 ADD DUP7 PUSH2 0xEC2 JUMP JUMPDEST PUSH2 0x43F PUSH2 0xDFB JUMP JUMPDEST PUSH1 0x0 DUP3 GT PUSH2 0x468 JUMPI PUSH1 0x40 MLOAD PUSH3 0x461BCD PUSH1 0xE5 SHL DUP2 MSTORE PUSH1 0x4 ADD PUSH2 0x45F SWAP1 PUSH2 0x10D3 JUMP JUMPDEST PUSH1 0x40 MLOAD DUP1 SWAP2 SUB SWAP1 REVERT JUMPDEST DUP3 PUSH2 0x482 JUMPI POP PUSH1 0x40 DUP1 MLOAD PUSH1 0x20 DUP2 ADD SWAP1 SWAP2 MSTORE PUSH1 0x0 DUP2 MSTORE PUSH2 0x276 JUMP JUMPDEST PUSH18 0xFFFFFFFFFFFFFFFFFFFFFFFFFFFFFFFFFFFF DUP4 GT PUSH2 0x4F4 JUMPI PUSH1 0x0 DUP3 PUSH1 0x70 DUP6 SWAP1 SHL DUP2 PUSH2 0x4AA JUMPI INVALID JUMPDEST DIV SWAP1 POP PUSH1 0x1 PUSH1 0x1 PUSH1 0xE0 SHL SUB DUP2 GT ISZERO PUSH2 0x4D4 JUMPI PUSH1 0x40 MLOAD PUSH3 0x461BCD PUSH1 0xE5 SHL DUP2 MSTORE PUSH1 0x4 ADD PUSH2 0x45F SWAP1 PUSH2 0x1167 JUMP JUMPDEST PUSH1 0x40 MLOAD DUP1 PUSH1 0x20 ADD PUSH1 0x40 MSTORE DUP1 DUP3 PUSH1 0x1 PUSH1 0x1 PUSH1 0xE0 SHL SUB AND DUP2 MSTORE POP SWAP2 POP POP PUSH2 0x276 JUMP JUMPDEST PUSH1 0x0 PUSH2 0x505 DUP5 PUSH1 0x1 PUSH1 0x70 SHL DUP6 PUSH2 0xAC5 JUMP JUMPDEST SWAP1 POP PUSH1 0x1 PUSH1 0x1 PUSH1 0xE0 SHL SUB DUP2 GT ISZERO PUSH2 0x4D4 JUMPI PUSH1 0x40 MLOAD PUSH3 0x461BCD PUSH1 0xE5 SHL DUP2 MSTORE PUSH1 0x4 ADD PUSH2 0x45F SWAP1 PUSH2 0x1167 JUMP JUMPDEST PUSH2 0x536 PUSH2 0xDFB JUMP JUMPDEST DUP2 MLOAD PUSH1 0x1 PUSH1 0x1 PUSH1 0xE0 SHL SUB AND PUSH2 0x55D JUMPI PUSH1 0x40 MLOAD PUSH3 0x461BCD PUSH1 0xE5 SHL DUP2 MSTORE PUSH1 0x4 ADD PUSH2 0x45F SWAP1 PUSH2 0x129E JUMP JUMPDEST DUP2 PUSH1 0x0 ADD MLOAD PUSH1 0x1 PUSH1 0x1 PUSH1 0xE0 SHL SUB AND PUSH1 0x1 EQ ISZERO PUSH2 0x58B JUMPI PUSH1 0x40 MLOAD PUSH3 0x461BCD PUSH1 0xE5 SHL DUP2 MSTORE PUSH1 0x4 ADD PUSH2 0x45F SWAP1 PUSH2 0x1269 JUMP JUMPDEST PUSH1 0x40 MLOAD DUP1 PUSH1 0x20 ADD PUSH1 0x40 MSTORE DUP1 DUP4 PUSH1 0x0 ADD MLOAD PUSH1 0x1 PUSH1 0x1 PUSH1 0xE0 SHL SUB AND PUSH29 0x100000000000000000000000000000000000000000000000000000000 DUP2 PUSH2 0x5C9 JUMPI INVALID JUMPDEST DIV PUSH1 0x1 PUSH1 0x1 PUSH1 0xE0 SHL SUB AND DUP2 MSTORE POP SWAP1 POP SWAP2 SWAP1 POP JUMP JUMPDEST PUSH2 0x5E5 PUSH2 0xDFB JUMP JUMPDEST DUP2 MLOAD PUSH18 0xFFFFFFFFFFFFFFFFFFFFFFFFFFFFFFFFFFFF PUSH1 0x1 PUSH1 0x1 PUSH1 0xE0 SHL SUB SWAP1 SWAP2 AND GT PUSH2 0x641 JUMPI PUSH1 0x40 MLOAD DUP1 PUSH1 0x20 ADD PUSH1 0x40 MSTORE DUP1 PUSH2 0x62F PUSH1 0x70 DUP6 PUSH1 0x0 ADD MLOAD PUSH1 0x1 PUSH1 0x1 PUSH1 0xE0 SHL SUB AND SWAP1 SHL PUSH2 0xB4B JUMP JUMPDEST PUSH1 0x1 PUSH1 0x1 PUSH1 0xE0 SHL SUB AND SWAP1 MSTORE SWAP1 POP PUSH2 0x29E JUMP JUMPDEST PUSH1 0x0 PUSH2 0x659 DUP4 PUSH1 0x0 ADD MLOAD PUSH1 0x1 PUSH1 0x1 PUSH1 0xE0 SHL SUB AND PUSH2 0xC9E JUMP JUMPDEST PUSH1 0xFF SUB SWAP1 POP PUSH1 0x2 DUP2 PUSH1 0xFF AND DUP2 PUSH2 0x66B JUMPI INVALID JUMPDEST MOD DUP2 SUB SWAP1 POP PUSH1 0x40 MLOAD DUP1 PUSH1 0x20 ADD PUSH1 0x40 MSTORE DUP1 PUSH1 0x2 DUP4 PUSH1 0x70 SUB PUSH1 0xFF AND DUP2 PUSH2 0x68B JUMPI INVALID JUMPDEST DIV PUSH1 0xFF AND PUSH2 0x6AB DUP5 PUSH1 0xFF AND DUP8 PUSH1 0x0 ADD MLOAD PUSH1 0x1 PUSH1 0x1 PUSH1 0xE0 SHL SUB AND SWAP1 SHL PUSH2 0xB4B JUMP JUMPDEST SWAP1 SHL PUSH1 0x1 PUSH1 0x1 PUSH1 0xE0 SHL SUB AND SWAP1 MSTORE SWAP4 SWAP3 POP POP POP JUMP JUMPDEST MLOAD PUSH1 0x70 SHR PUSH14 0xFFFFFFFFFFFFFFFFFFFFFFFFFFFF AND SWAP1 JUMP JUMPDEST PUSH2 0x6DE PUSH2 0xDFB JUMP JUMPDEST DUP3 MLOAD PUSH1 0x1 PUSH1 0x1 PUSH1 0xE0 SHL SUB AND ISZERO DUP1 PUSH2 0x6FD JUMPI POP DUP2 MLOAD PUSH1 0x1 PUSH1 0x1 PUSH1 0xE0 SHL SUB AND ISZERO JUMPDEST ISZERO PUSH2 0x717 JUMPI POP PUSH1 0x40 DUP1 MLOAD PUSH1 0x20 DUP2 ADD SWAP1 SWAP2 MSTORE PUSH1 0x0 DUP2 MSTORE PUSH2 0x276 JUMP JUMPDEST DUP3 MLOAD DUP3 MLOAD PUSH14 0xFFFFFFFFFFFFFFFFFFFFFFFFFFFF PUSH1 0x70 DUP4 DUP2 SHR DUP3 AND SWAP4 DUP3 AND SWAP3 SWAP1 DUP2 SWAP1 SHR DUP3 AND SWAP2 SWAP1 DUP2 AND SWAP1 DUP3 DUP6 MUL SWAP1 DUP3 DUP6 MUL SWAP1 DUP4 DUP8 MUL SWAP1 DUP6 DUP8 MUL SWAP1 PUSH1 0x1 PUSH1 0x1 PUSH1 0xE0 SHL SUB DUP6 AND GT ISZERO PUSH2 0x778 JUMPI PUSH1 0x40 MLOAD PUSH3 0x461BCD PUSH1 0xE5 SHL DUP2 MSTORE PUSH1 0x4 ADD PUSH2 0x45F SWAP1 PUSH2 0x120C JUMP JUMPDEST PUSH1 0x0 PUSH1 0x70 PUSH1 0xFF AND DUP5 PUSH1 0x1 PUSH1 0x1 PUSH1 0xE0 SHL SUB AND SWAP1 SHR PUSH1 0x1 PUSH1 0x1 PUSH1 0xE0 SHL SUB AND DUP3 PUSH1 0x1 PUSH1 0x1 PUSH1 0xE0 SHL SUB AND DUP5 PUSH1 0x1 PUSH1 0x1 PUSH1 0xE0 SHL SUB AND PUSH1 0x70 PUSH1 0xFF AND DUP9 PUSH1 0x1 PUSH1 0x1 PUSH1 0xE0 SHL SUB AND SWAP1 SHL PUSH1 0x1 PUSH1 0x1 PUSH1 0xE0 SHL SUB AND ADD ADD ADD SWAP1 POP PUSH1 0x0 NOT PUSH1 0x1 PUSH1 0x1 PUSH1 0xE0 SHL SUB AND DUP2 GT ISZERO PUSH2 0x7F2 JUMPI PUSH1 0x40 MLOAD PUSH3 0x461BCD PUSH1 0xE5 SHL DUP2 MSTORE PUSH1 0x4 ADD PUSH2 0x45F SWAP1 PUSH2 0x119E JUMP JUMPDEST PUSH1 0x40 DUP1 MLOAD PUSH1 0x20 DUP2 ADD SWAP1 SWAP2 MSTORE PUSH1 0x1 PUSH1 0x1 PUSH1 0xE0 SHL SUB SWAP1 SWAP2 AND DUP2 MSTORE SWAP12 SWAP11 POP POP POP POP POP POP POP POP POP POP POP JUMP JUMPDEST MLOAD PUSH1 0x70 SHR SWAP1 JUMP JUMPDEST PUSH1 0x0 DUP1 PUSH2 0x851 DUP5 PUSH1 0x0 ADD MLOAD PUSH1 0x1 PUSH1 0x1 PUSH1 0xE0 SHL SUB AND PUSH1 0x0 DUP6 SLT PUSH2 0x842 JUMPI DUP5 PUSH2 0x847 JUMP JUMPDEST DUP5 PUSH1 0x0 SUB JUMPDEST PUSH1 0x1 PUSH1 0x70 SHL PUSH2 0xAC5 JUMP JUMPDEST SWAP1 POP PUSH32 0x8000000000000000000000000000000000000000000000000000000000000000 DUP2 LT PUSH2 0x892 JUMPI PUSH1 0x40 MLOAD PUSH3 0x461BCD PUSH1 0xE5 SHL DUP2 MSTORE PUSH1 0x4 ADD PUSH2 0x45F SWAP1 PUSH2 0x11D5 JUMP JUMPDEST PUSH1 0x0 DUP4 SLT PUSH2 0x8A0 JUMPI DUP1 PUSH2 0x8A5 JUMP JUMPDEST DUP1 PUSH1 0x0 SUB JUMPDEST SWAP5 SWAP4 POP POP POP POP JUMP JUMPDEST PUSH2 0x8B5 PUSH2 0xE0D JUMP JUMPDEST PUSH1 0x0 DUP3 ISZERO DUP1 PUSH2 0x8DB JUMPI POP POP DUP3 MLOAD PUSH1 0x1 PUSH1 0x1 PUSH1 0xE0 SHL SUB AND DUP3 DUP2 MUL SWAP1 DUP4 DUP3 DUP2 PUSH2 0x8D8 JUMPI INVALID JUMPDEST DIV EQ JUMPDEST PUSH2 0x8F7 JUMPI PUSH1 0x40 MLOAD PUSH3 0x461BCD PUSH1 0xE5 SHL DUP2 MSTORE PUSH1 0x4 ADD PUSH2 0x45F SWAP1 PUSH2 0x109C JUMP JUMPDEST PUSH1 0x40 DUP1 MLOAD PUSH1 0x20 DUP2 ADD SWAP1 SWAP2 MSTORE SWAP1 DUP2 MSTORE SWAP4 SWAP3 POP POP POP JUMP JUMPDEST PUSH2 0x914 PUSH2 0xE0D JUMP JUMPDEST POP PUSH1 0x40 DUP1 MLOAD PUSH1 0x20 DUP2 ADD SWAP1 SWAP2 MSTORE PUSH1 0x70 SWAP2 SWAP1 SWAP2 SHL PUSH14 0xFFFFFFFFFFFFFFFFFFFFFFFFFFFF NOT AND DUP2 MSTORE SWAP1 JUMP JUMPDEST PUSH2 0x944 PUSH2 0xDFB JUMP JUMPDEST POP PUSH1 0x40 DUP1 MLOAD PUSH1 0x20 DUP2 ADD SWAP1 SWAP2 MSTORE PUSH1 0x70 SWAP2 SWAP1 SWAP2 SHL PUSH28 0xFFFFFFFFFFFFFFFFFFFFFFFFFFFF0000000000000000000000000000 AND DUP2 MSTORE SWAP1 JUMP JUMPDEST PUSH2 0x981 PUSH2 0xDFB JUMP JUMPDEST DUP2 MLOAD PUSH1 0x1 PUSH1 0x1 PUSH1 0xE0 SHL SUB AND PUSH2 0x9A8 JUMPI PUSH1 0x40 MLOAD PUSH3 0x461BCD PUSH1 0xE5 SHL DUP2 MSTORE PUSH1 0x4 ADD PUSH2 0x45F SWAP1 PUSH2 0x103F JUMP JUMPDEST DUP2 MLOAD DUP4 MLOAD PUSH1 0x1 PUSH1 0x1 PUSH1 0xE0 SHL SUB SWAP1 DUP2 AND SWAP2 AND EQ ISZERO PUSH2 0x9D7 JUMPI POP PUSH1 0x40 DUP1 MLOAD PUSH1 0x20 DUP2 ADD SWAP1 SWAP2 MSTORE PUSH1 0x1 PUSH1 0x70 SHL DUP2 MSTORE PUSH2 0x276 JUMP JUMPDEST DUP3 MLOAD PUSH18 0xFFFFFFFFFFFFFFFFFFFFFFFFFFFFFFFFFFFF PUSH1 0x1 PUSH1 0x1 PUSH1 0xE0 SHL SUB SWAP1 SWAP2 AND GT PUSH2 0xA52 JUMPI DUP2 MLOAD DUP4 MLOAD PUSH1 0x0 SWAP2 PUSH1 0x1 PUSH1 0x1 PUSH1 0xE0 SHL SUB AND SWAP1 PUSH1 0x70 SHL PUSH14 0xFFFFFFFFFFFFFFFFFFFFFFFFFFFF NOT AND DUP2 PUSH2 0xA28 JUMPI INVALID JUMPDEST DIV SWAP1 POP PUSH1 0x1 PUSH1 0x1 PUSH1 0xE0 SHL SUB DUP2 GT ISZERO PUSH2 0x4D4 JUMPI PUSH1 0x40 MLOAD PUSH3 0x461BCD PUSH1 0xE5 SHL DUP2 MSTORE PUSH1 0x4 ADD PUSH2 0x45F SWAP1 PUSH2 0x1008 JUMP JUMPDEST PUSH1 0x0 PUSH2 0xA7D PUSH1 0x1 PUSH1 0x70 SHL DUP6 PUSH1 0x0 ADD MLOAD PUSH1 0x1 PUSH1 0x1 PUSH1 0xE0 SHL SUB AND DUP6 PUSH1 0x0 ADD MLOAD PUSH1 0x1 PUSH1 0x1 PUSH1 0xE0 SHL SUB AND PUSH2 0xAC5 JUMP JUMPDEST SWAP1 POP PUSH1 0x1 PUSH1 0x1 PUSH1 0xE0 SHL SUB DUP2 GT ISZERO PUSH2 0xAA6 JUMPI PUSH1 0x40 MLOAD PUSH3 0x461BCD PUSH1 0xE5 SHL DUP2 MSTORE PUSH1 0x4 ADD PUSH2 0x45F SWAP1 PUSH2 0x1008 JUMP JUMPDEST PUSH1 0x40 DUP1 MLOAD PUSH1 0x20 DUP2 ADD SWAP1 SWAP2 MSTORE PUSH1 0x1 PUSH1 0x1 PUSH1 0xE0 SHL SUB SWAP1 SWAP2 AND DUP2 MSTORE SWAP4 SWAP3 POP POP POP JUMP JUMPDEST PUSH1 0x0 DUP1 PUSH1 0x0 PUSH2 0xAD4 DUP7 DUP7 PUSH2 0xD5E JUMP JUMPDEST SWAP2 POP SWAP2 POP PUSH1 0x0 DUP5 DUP1 PUSH2 0xAE2 JUMPI INVALID JUMPDEST DUP7 DUP9 MULMOD SWAP1 POP DUP3 DUP2 GT ISZERO PUSH2 0xAF6 JUMPI PUSH1 0x1 DUP3 SUB SWAP2 POP JUMPDEST SWAP2 DUP3 SWAP1 SUB SWAP2 DUP2 PUSH2 0xB14 JUMPI DUP5 DUP4 DUP2 PUSH2 0xB09 JUMPI INVALID JUMPDEST DIV SWAP4 POP POP POP POP PUSH2 0xB44 JUMP JUMPDEST DUP5 DUP3 LT PUSH2 0xB33 JUMPI PUSH1 0x40 MLOAD PUSH3 0x461BCD PUSH1 0xE5 SHL DUP2 MSTORE PUSH1 0x4 ADD PUSH2 0x45F SWAP1 PUSH2 0x1130 JUMP JUMPDEST PUSH2 0xB3E DUP4 DUP4 DUP8 PUSH2 0xD8B JUMP JUMPDEST SWAP4 POP POP POP POP JUMPDEST SWAP4 SWAP3 POP POP POP JUMP JUMPDEST PUSH1 0x0 DUP2 PUSH2 0xB5A JUMPI POP PUSH1 0x0 PUSH2 0x29E JUMP JUMPDEST DUP2 PUSH1 0x1 PUSH17 0x100000000000000000000000000000000 DUP3 LT PUSH2 0xB80 JUMPI PUSH1 0x80 SWAP2 SWAP1 SWAP2 SHR SWAP1 PUSH1 0x40 SHL JUMPDEST PUSH9 0x10000000000000000 DUP3 LT PUSH2 0xB9B JUMPI PUSH1 0x40 SWAP2 SWAP1 SWAP2 SHR SWAP1 PUSH1 0x20 SHL JUMPDEST PUSH5 0x100000000 DUP3 LT PUSH2 0xBB2 JUMPI PUSH1 0x20 SWAP2 SWAP1 SWAP2 SHR SWAP1 PUSH1 0x10 SHL JUMPDEST PUSH3 0x10000 DUP3 LT PUSH2 0xBC7 JUMPI PUSH1 0x10 SWAP2 SWAP1 SWAP2 SHR SWAP1 PUSH1 0x8 SHL JUMPDEST PUSH2 0x100 DUP3 LT PUSH2 0xBDB JUMPI PUSH1 0x8 SWAP2 SWAP1 SWAP2 SHR SWAP1 PUSH1 0x4 SHL JUMPDEST PUSH1 0x10 DUP3 LT PUSH2 0xBEE JUMPI PUSH1 0x4 SWAP2 SWAP1 SWAP2 SHR SWAP1 PUSH1 0x2 SHL JUMPDEST PUSH1 0x8 DUP3 LT PUSH2 0xBFA JUMPI PUSH1 0x1 SHL JUMPDEST PUSH1 0x1 DUP2 DUP6 DUP2 PUSH2 0xC05 JUMPI INVALID JUMPDEST DIV DUP3 ADD SWAP1 SHR SWAP1 POP PUSH1 0x1 DUP2 DUP6 DUP2 PUSH2 0xC17 JUMPI INVALID JUMPDEST DIV DUP3 ADD SWAP1 SHR SWAP1 POP PUSH1 0x1 DUP2 DUP6 DUP2 PUSH2 0xC29 JUMPI INVALID JUMPDEST DIV DUP3 ADD SWAP1 SHR SWAP1 POP PUSH1 0x1 DUP2 DUP6 DUP2 PUSH2 0xC3B JUMPI INVALID JUMPDEST DIV DUP3 ADD SWAP1 SHR SWAP1 POP PUSH1 0x1 DUP2 DUP6 DUP2 PUSH2 0xC4D JUMPI INVALID JUMPDEST DIV DUP3 ADD SWAP1 SHR SWAP1 POP PUSH1 0x1 DUP2 DUP6 DUP2 PUSH2 0xC5F JUMPI INVALID JUMPDEST DIV DUP3 ADD SWAP1 SHR SWAP1 POP PUSH1 0x1 DUP2 DUP6 DUP2 PUSH2 0xC71 JUMPI INVALID JUMPDEST DIV DUP3 ADD SWAP1 SHR SWAP1 POP PUSH1 0x0 DUP2 DUP6 DUP2 PUSH2 0xC83 JUMPI INVALID JUMPDEST DIV SWAP1 POP DUP1 DUP3 LT PUSH2 0xC93 JUMPI DUP1 PUSH2 0xC95 JUMP JUMPDEST DUP2 JUMPDEST SWAP6 SWAP5 POP POP POP POP POP JUMP JUMPDEST PUSH1 0x0 DUP1 DUP3 GT PUSH2 0xCBF JUMPI PUSH1 0x40 MLOAD PUSH3 0x461BCD PUSH1 0xE5 SHL DUP2 MSTORE PUSH1 0x4 ADD PUSH2 0x45F SWAP1 PUSH2 0xFAB JUMP JUMPDEST PUSH17 0x100000000000000000000000000000000 DUP3 LT PUSH2 0xCDF JUMPI PUSH1 0x80 SWAP2 DUP3 SHR SWAP2 ADD JUMPDEST PUSH9 0x10000000000000000 DUP3 LT PUSH2 0xCF7 JUMPI PUSH1 0x40 SWAP2 DUP3 SHR SWAP2 ADD JUMPDEST PUSH5 0x100000000 DUP3 LT PUSH2 0xD0B JUMPI PUSH1 0x20 SWAP2 DUP3 SHR SWAP2 ADD JUMPDEST PUSH3 0x10000 DUP3 LT PUSH2 0xD1D JUMPI PUSH1 0x10 SWAP2 DUP3 SHR SWAP2 ADD JUMPDEST PUSH2 0x100 DUP3 LT PUSH2 0xD2E JUMPI PUSH1 0x8 SWAP2 DUP3 SHR SWAP2 ADD JUMPDEST PUSH1 0x10 DUP3 LT PUSH2 0xD3E JUMPI PUSH1 0x4 SWAP2 DUP3 SHR SWAP2 ADD JUMPDEST PUSH1 0x4 DUP3 LT PUSH2 0xD4E JUMPI PUSH1 0x2 SWAP2 DUP3 SHR SWAP2 ADD JUMPDEST PUSH1 0x2 DUP3 LT PUSH2 0x29E JUMPI PUSH1 0x1 ADD SWAP2 SWAP1 POP JUMP JUMPDEST PUSH1 0x0 DUP1 DUP1 PUSH1 0x0 NOT DUP5 DUP7 MULMOD SWAP1 POP DUP4 DUP6 MUL SWAP3 POP DUP3 DUP2 SUB SWAP2 POP DUP3 DUP2 LT ISZERO PUSH2 0xD83 JUMPI PUSH1 0x1 DUP3 SUB SWAP2 POP JUMPDEST POP SWAP3 POP SWAP3 SWAP1 POP JUMP JUMPDEST PUSH1 0x0 DUP2 DUP2 SUB DUP3 AND DUP1 DUP4 DUP2 PUSH2 0xD9B JUMPI INVALID JUMPDEST DIV SWAP3 POP DUP1 DUP6 DUP2 PUSH2 0xDA7 JUMPI INVALID JUMPDEST DIV SWAP5 POP DUP1 DUP2 PUSH1 0x0 SUB DUP2 PUSH2 0xDB6 JUMPI INVALID JUMPDEST PUSH1 0x2 DUP6 DUP2 SUB DUP1 DUP8 MUL DUP3 SUB MUL DUP1 DUP8 MUL DUP3 SUB MUL DUP1 DUP8 MUL DUP3 SUB MUL DUP1 DUP8 MUL DUP3 SUB MUL DUP1 DUP8 MUL DUP3 SUB MUL DUP1 DUP8 MUL DUP3 SUB MUL SWAP6 DUP7 MUL SWAP1 SUB SWAP1 SWAP5 MUL SWAP4 DIV PUSH1 0x1 ADD SWAP4 SWAP1 SWAP4 MUL SWAP4 SWAP1 SWAP4 ADD MUL SWAP3 SWAP2 POP POP JUMP JUMPDEST PUSH1 0x40 DUP1 MLOAD PUSH1 0x20 DUP2 ADD SWAP1 SWAP2 MSTORE PUSH1 0x0 DUP2 MSTORE SWAP1 JUMP JUMPDEST PUSH1 0x40 MLOAD DUP1 PUSH1 0x20 ADD PUSH1 0x40 MSTORE DUP1 PUSH1 0x0 DUP2 MSTORE POP SWAP1 JUMP JUMPDEST PUSH1 0x0 PUSH1 0x20 DUP3 DUP5 SUB SLT ISZERO PUSH2 0xE31 JUMPI DUP1 DUP2 REVERT JUMPDEST POP SWAP2 SWAP1 POP JUMP JUMPDEST PUSH1 0x0 PUSH1 0x20 DUP3 DUP5 SUB SLT ISZERO PUSH2 0xE48 JUMPI DUP1 DUP2 REVERT JUMPDEST PUSH2 0x273 DUP4 DUP4 PUSH2 0xE20 JUMP JUMPDEST PUSH1 0x0 DUP1 PUSH1 0x40 DUP4 DUP6 SUB SLT ISZERO PUSH2 0xE64 JUMPI DUP1 DUP2 REVERT JUMPDEST PUSH2 0xE6E DUP5 DUP5 PUSH2 0xE20 JUMP JUMPDEST SWAP5 PUSH1 0x20 SWAP4 SWAP1 SWAP4 ADD CALLDATALOAD SWAP4 POP POP POP JUMP JUMPDEST PUSH1 0x0 DUP1 PUSH1 0x40 DUP4 DUP6 SUB SLT ISZERO PUSH2 0xE8E JUMPI DUP2 DUP3 REVERT JUMPDEST PUSH2 0xE98 DUP5 DUP5 PUSH2 0xE20 JUMP JUMPDEST SWAP2 POP PUSH2 0xEA7 DUP5 PUSH1 0x20 DUP6 ADD PUSH2 0xE20 JUMP JUMPDEST SWAP1 POP SWAP3 POP SWAP3 SWAP1 POP JUMP JUMPDEST PUSH1 0x0 DUP1 PUSH1 0x40 DUP4 DUP6 SUB SLT ISZERO PUSH2 0xE64 JUMPI DUP2 DUP3 REVERT JUMPDEST PUSH1 0x0 PUSH1 0x20 DUP3 DUP5 SUB SLT ISZERO PUSH2 0xED3 JUMPI DUP1 DUP2 REVERT JUMPDEST PUSH2 0xEDD PUSH1 0x20 PUSH2 0x1352 JUMP JUMPDEST DUP3 CALLDATALOAD PUSH1 0x1 PUSH1 0x1 PUSH1 0xE0 SHL SUB DUP2 AND DUP2 EQ PUSH2 0xEF3 JUMPI DUP3 DUP4 REVERT JUMPDEST DUP2 MSTORE SWAP4 SWAP3 POP POP POP JUMP JUMPDEST PUSH1 0x0 PUSH1 0x20 DUP3 DUP5 SUB SLT ISZERO PUSH2 0xF0D JUMPI DUP1 DUP2 REVERT JUMPDEST PUSH2 0xF17 PUSH1 0x20 PUSH2 0x1352 JUMP JUMPDEST SWAP2 CALLDATALOAD DUP3 MSTORE POP SWAP2 SWAP1 POP JUMP JUMPDEST PUSH1 0x0 PUSH1 0x20 DUP3 DUP5 SUB SLT ISZERO PUSH2 0xF32 JUMPI DUP1 DUP2 REVERT JUMPDEST DUP2 CALLDATALOAD PUSH14 0xFFFFFFFFFFFFFFFFFFFFFFFFFFFF DUP2 AND DUP2 EQ PUSH2 0xB44 JUMPI DUP2 DUP3 REVERT JUMPDEST PUSH1 0x0 PUSH1 0x20 DUP3 DUP5 SUB SLT ISZERO PUSH2 0xF60 JUMPI DUP1 DUP2 REVERT JUMPDEST DUP2 CALLDATALOAD PUSH18 0xFFFFFFFFFFFFFFFFFFFFFFFFFFFFFFFFFFFF DUP2 AND DUP2 EQ PUSH2 0xB44 JUMPI DUP2 DUP3 REVERT JUMPDEST PUSH1 0x0 DUP1 PUSH1 0x40 DUP4 DUP6 SUB SLT ISZERO PUSH2 0xF93 JUMPI DUP2 DUP3 REVERT JUMPDEST POP POP DUP1 CALLDATALOAD SWAP3 PUSH1 0x20 SWAP1 SWAP2 ADD CALLDATALOAD SWAP2 POP JUMP JUMPDEST SWAP1 DUP2 MSTORE PUSH1 0x20 ADD SWAP1 JUMP JUMPDEST PUSH1 0x20 DUP1 DUP3 MSTORE PUSH1 0x21 SWAP1 DUP3 ADD MSTORE PUSH32 0x4269744D6174683A3A6D6F73745369676E69666963616E744269743A207A6572 PUSH1 0x40 DUP3 ADD MSTORE PUSH32 0x6F00000000000000000000000000000000000000000000000000000000000000 PUSH1 0x60 DUP3 ADD MSTORE PUSH1 0x80 ADD SWAP1 JUMP JUMPDEST PUSH1 0x20 DUP1 DUP3 MSTORE PUSH1 0x1B SWAP1 DUP3 ADD MSTORE PUSH32 0x4669786564506F696E743A3A64697675713A206F766572666C6F770000000000 PUSH1 0x40 DUP3 ADD MSTORE PUSH1 0x60 ADD SWAP1 JUMP JUMPDEST PUSH1 0x20 DUP1 DUP3 MSTORE PUSH1 0x23 SWAP1 DUP3 ADD MSTORE PUSH32 0x4669786564506F696E743A3A64697675713A206469766973696F6E206279207A PUSH1 0x40 DUP3 ADD MSTORE PUSH32 0x65726F0000000000000000000000000000000000000000000000000000000000 PUSH1 0x60 DUP3 ADD MSTORE PUSH1 0x80 ADD SWAP1 JUMP JUMPDEST PUSH1 0x20 DUP1 DUP3 MSTORE PUSH1 0x19 SWAP1 DUP3 ADD MSTORE PUSH32 0x4669786564506F696E743A3A6D756C3A206F766572666C6F7700000000000000 PUSH1 0x40 DUP3 ADD MSTORE PUSH1 0x60 ADD SWAP1 JUMP JUMPDEST PUSH1 0x20 DUP1 DUP3 MSTORE PUSH1 0x26 SWAP1 DUP3 ADD MSTORE PUSH32 0x4669786564506F696E743A3A6672616374696F6E3A206469766973696F6E2062 PUSH1 0x40 DUP3 ADD MSTORE PUSH32 0x79207A65726F0000000000000000000000000000000000000000000000000000 PUSH1 0x60 DUP3 ADD MSTORE PUSH1 0x80 ADD SWAP1 JUMP JUMPDEST PUSH1 0x20 DUP1 DUP3 MSTORE PUSH1 0x1A SWAP1 DUP3 ADD MSTORE PUSH32 0x46756C6C4D6174683A2046554C4C4449565F4F564552464C4F57000000000000 PUSH1 0x40 DUP3 ADD MSTORE PUSH1 0x60 ADD SWAP1 JUMP JUMPDEST PUSH1 0x20 DUP1 DUP3 MSTORE PUSH1 0x1E SWAP1 DUP3 ADD MSTORE PUSH32 0x4669786564506F696E743A3A6672616374696F6E3A206F766572666C6F770000 PUSH1 0x40 DUP3 ADD MSTORE PUSH1 0x60 ADD SWAP1 JUMP JUMPDEST PUSH1 0x20 DUP1 DUP3 MSTORE PUSH1 0x1F SWAP1 DUP3 ADD MSTORE PUSH32 0x4669786564506F696E743A3A6D756C75713A2073756D206F766572666C6F7700 PUSH1 0x40 DUP3 ADD MSTORE PUSH1 0x60 ADD SWAP1 JUMP JUMPDEST PUSH1 0x20 DUP1 DUP3 MSTORE PUSH1 0x1A SWAP1 DUP3 ADD MSTORE PUSH32 0x4669786564506F696E743A3A6D756C693A206F766572666C6F77000000000000 PUSH1 0x40 DUP3 ADD MSTORE PUSH1 0x60 ADD SWAP1 JUMP JUMPDEST PUSH1 0x20 DUP1 DUP3 MSTORE PUSH1 0x21 SWAP1 DUP3 ADD MSTORE PUSH32 0x4669786564506F696E743A3A6D756C75713A207570706572206F766572666C6F PUSH1 0x40 DUP3 ADD MSTORE PUSH32 0x7700000000000000000000000000000000000000000000000000000000000000 PUSH1 0x60 DUP3 ADD MSTORE PUSH1 0x80 ADD SWAP1 JUMP JUMPDEST PUSH1 0x20 DUP1 DUP3 MSTORE DUP2 DUP2 ADD MSTORE PUSH32 0x4669786564506F696E743A3A7265636970726F63616C3A206F766572666C6F77 PUSH1 0x40 DUP3 ADD MSTORE PUSH1 0x60 ADD SWAP1 JUMP JUMPDEST PUSH1 0x20 DUP1 DUP3 MSTORE PUSH1 0x2A SWAP1 DUP3 ADD MSTORE PUSH32 0x4669786564506F696E743A3A7265636970726F63616C3A207265636970726F63 PUSH1 0x40 DUP3 ADD MSTORE PUSH32 0x616C206F66207A65726F00000000000000000000000000000000000000000000 PUSH1 0x60 DUP3 ADD MSTORE PUSH1 0x80 ADD SWAP1 JUMP JUMPDEST SWAP1 MLOAD PUSH1 0x1 PUSH1 0x1 PUSH1 0xE0 SHL SUB AND DUP2 MSTORE PUSH1 0x20 ADD SWAP1 JUMP JUMPDEST SWAP1 MLOAD DUP2 MSTORE PUSH1 0x20 ADD SWAP1 JUMP JUMPDEST PUSH14 0xFFFFFFFFFFFFFFFFFFFFFFFFFFFF SWAP2 SWAP1 SWAP2 AND DUP2 MSTORE PUSH1 0x20 ADD SWAP1 JUMP JUMPDEST PUSH18 0xFFFFFFFFFFFFFFFFFFFFFFFFFFFFFFFFFFFF SWAP2 SWAP1 SWAP2 AND DUP2 MSTORE PUSH1 0x20 ADD SWAP1 JUMP JUMPDEST PUSH1 0x40 MLOAD DUP2 DUP2 ADD PUSH8 0xFFFFFFFFFFFFFFFF DUP2 GT DUP3 DUP3 LT OR ISZERO PUSH2 0x1371 JUMPI PUSH1 0x0 DUP1 REVERT JUMPDEST PUSH1 0x40 MSTORE SWAP2 SWAP1 POP JUMP INVALID LOG2 PUSH5 0x6970667358 0x22 SLT KECCAK256 0xDA MSTORE SWAP1 RETURNDATASIZE DELEGATECALL 0x4C 0xEA SWAP9 0xAD DUP3 LT EXTCODESIZE SMOD PUSH21 0x22B0C8319A5A12485B4493E86EAE19E8F3164736F PUSH13 0x634300060C0033000000000000 "},"methodIdentifiers":{"decode((uint224))":"4fd04a40","decode144((uint256))":"5f9f4c3b","divuq((uint224),(uint224))":"ca74fcc0","encode(uint112)":"ca2d0299","encode144(uint144)":"c814e314","fraction(uint256,uint256)":"0f1530e4","getGasCostOfDivuq((uint224),(uint224))":"d993d379","getGasCostOfFraction(uint256,uint256)":"644a478b","getGasCostOfMuluq((uint224),(uint224))":"6d173f71","getGasCostOfSqrt((uint224))":"b1acad5c","mul((uint224),uint256)":"af35b769","muli((uint224),int256)":"89258451","muluq((uint224),(uint224))":"5a606689","reciprocal((uint224))":"31f92b13","sqrt((uint224))":"3f1626c8"}}}}}