{"contracts/lib/contracts/test/SafeERC20NamerTest.sol":{"NamerTestFakeNoncompliantERC20":{"abi":[{"inputs":[{"internalType":"bytes32","name":"name_","type":"bytes32"},{"internalType":"bytes32","name":"symbol_","type":"bytes32"}],"stateMutability":"nonpayable","type":"constructor"},{"inputs":[],"name":"name","outputs":[{"internalType":"bytes32","name":"","type":"bytes32"}],"stateMutability":"view","type":"function"},{"inputs":[],"name":"symbol","outputs":[{"internalType":"bytes32","name":"","type":"bytes32"}],"stateMutability":"view","type":"function"}],"evm":{"bytecode":{"linkReferences":{},"object":"608060405234801561001057600080fd5b506040516100ea3803806100ea8339818101604052604081101561003357600080fd5b5080516020909101516000919091556001556097806100536000396000f3fe6080604052348015600f57600080fd5b506004361060325760003560e01c806306fdde0314603757806395d89b4114604f575b600080fd5b603d6055565b60408051918252519081900360200190f35b603d605b565b60005481565b6001548156fea26469706673582212201a36500fe6cd033e8ec78888af2aa749b0a8b63d6d28fe801c90f3bf828b2f2664736f6c634300060c0033","opcodes":"PUSH1 0x80 PUSH1 0x40 MSTORE CALLVALUE DUP1 ISZERO PUSH2 0x10 JUMPI PUSH1 0x0 DUP1 REVERT JUMPDEST POP PUSH1 0x40 MLOAD PUSH2 0xEA CODESIZE SUB DUP1 PUSH2 0xEA DUP4 CODECOPY DUP2 DUP2 ADD PUSH1 0x40 MSTORE PUSH1 0x40 DUP2 LT ISZERO PUSH2 0x33 JUMPI PUSH1 0x0 DUP1 REVERT JUMPDEST POP DUP1 MLOAD PUSH1 0x20 SWAP1 SWAP2 ADD MLOAD PUSH1 0x0 SWAP2 SWAP1 SWAP2 SSTORE PUSH1 0x1 SSTORE PUSH1 0x97 DUP1 PUSH2 0x53 PUSH1 0x0 CODECOPY PUSH1 0x0 RETURN INVALID PUSH1 0x80 PUSH1 0x40 MSTORE CALLVALUE DUP1 ISZERO PUSH1 0xF JUMPI PUSH1 0x0 DUP1 REVERT JUMPDEST POP PUSH1 0x4 CALLDATASIZE LT PUSH1 0x32 JUMPI PUSH1 0x0 CALLDATALOAD PUSH1 0xE0 SHR DUP1 PUSH4 0x6FDDE03 EQ PUSH1 0x37 JUMPI DUP1 PUSH4 0x95D89B41 EQ PUSH1 0x4F JUMPI JUMPDEST PUSH1 0x0 DUP1 REVERT JUMPDEST PUSH1 0x3D PUSH1 0x55 JUMP JUMPDEST PUSH1 0x40 DUP1 MLOAD SWAP2 DUP3 MSTORE MLOAD SWAP1 DUP2 SWAP1 SUB PUSH1 0x20 ADD SWAP1 RETURN JUMPDEST PUSH1 0x3D PUSH1 0x5B JUMP JUMPDEST PUSH1 0x0 SLOAD DUP2 JUMP JUMPDEST PUSH1 0x1 SLOAD DUP2 JUMP INVALID LOG2 PUSH5 0x6970667358 0x22 SLT KECCAK256 BYTE CALLDATASIZE POP 0xF 0xE6 0xCD SUB RETURNDATACOPY DUP15 0xC7 DUP9 DUP9 0xAF 0x2A 0xA7 0x49 0xB0 0xA8 0xB6 RETURNDATASIZE PUSH14 0x28FE801C90F3BF828B2F2664736F PUSH13 0x634300060C0033000000000000 "},"methodIdentifiers":{"name()":"06fdde03","symbol()":"95d89b41"}}}}}