{
  "_format": "hh-sol-artifact-1",
  "contractName": "BabylonianEchidnaTest",
  "sourceName": "contracts/lib/contracts/test/BabylonianEchidnaTest.sol",
  "abi": [
    {
      "inputs": [
        {
          "internalType": "uint8",
          "name": "index",
          "type": "uint8"
        }
      ],
      "name": "checkMaxForIndex",
      "outputs": [],
      "stateMutability": "pure",
      "type": "function"
    },
    {
      "inputs": [
        {
          "internalType": "uint256",
          "name": "input",
          "type": "uint256"
        }
      ],
      "name": "checkSqrt",
      "outputs": [],
      "stateMutability": "pure",
      "type": "function"
    }
  ],
  "bytecode": "0x608060405234801561001057600080fd5b5061028f806100206000396000f3fe608060405234801561001057600080fd5b50600436106100365760003560e01c8063922ab1e21461003b578063e4134de51461005a575b600080fd5b6100586004803603602081101561005157600080fd5b503561007a565b005b6100586004803603602081101561007057600080fd5b503560ff166100db565b600061008582610104565b905070010000000000000000000000000000000081106100a157fe5b816002820a11156100ae57fe5b816002826001010a11806100d157506fffffffffffffffffffffffffffffffff81145b6100d757fe5b5050565b6101018160ff1660ff146100f8578160010160ff1660020a6100fc565b6000195b61007a565b50565b60008161011357506000610254565b81600170010000000000000000000000000000000082106101395760809190911c9060401b5b6801000000000000000082106101545760409190911c9060201b5b640100000000821061016b5760209190911c9060101b5b6201000082106101805760109190911c9060081b5b61010082106101945760089190911c9060041b5b601082106101a75760049190911c9060021b5b600882106101b35760011b5b60018185816101be57fe5b048201901c905060018185816101d057fe5b048201901c905060018185816101e257fe5b048201901c905060018185816101f457fe5b048201901c9050600181858161020657fe5b048201901c9050600181858161021857fe5b048201901c9050600181858161022a57fe5b048201901c9050600081858161023c57fe5b04905080821061024c578061024e565b815b93505050505b91905056fea2646970667358221220138fc72dc04683789d764ddd48a3376eecff4eb721019d4cd9af2648c1eb7cd164736f6c634300060c0033",
  "linkReferences": {},
  "deployedLinkReferences": {}
}