{
  "_format": "hh-sol-artifact-1",
  "contractName": "$ERC20Wrapper",
  "sourceName": "contracts-exposed/token/ERC20/extensions/ERC20Wrapper.sol",
  "abi": [
    {
      "inputs": [
        {
          "internalType": "string",
          "name": "name_",
          "type": "string"
        },
        {
          "internalType": "string",
          "name": "symbol_",
          "type": "string"
        },
        {
          "internalType": "contract IERC20",
          "name": "underlyingToken",
          "type": "address"
        }
      ],
      "stateMutability": "payable",
      "type": "constructor"
    },
    {
      "inputs": [
        {
          "internalType": "address",
          "name": "spender",
          "type": "address"
        },
        {
          "internalType": "uint256",
          "name": "allowance",
          "type": "uint256"
        },
        {
          "internalType": "uint256",
          "name": "needed",
          "type": "uint256"
        }
      ],
      "name": "ERC20InsufficientAllowance",
      "type": "error"
    },
    {
      "inputs": [
        {
          "internalType": "address",
          "name": "sender",
          "type": "address"
        },
        {
          "internalType": "uint256",
          "name": "balance",
          "type": "uint256"
        },
        {
          "internalType": "uint256",
          "name": "needed",
          "type": "uint256"
        }
      ],
      "name": "ERC20InsufficientBalance",
      "type": "error"
    },
    {
      "inputs": [
        {
          "internalType": "address",
          "name": "approver",
          "type": "address"
        }
      ],
      "name": "ERC20InvalidApprover",
      "type": "error"
    },
    {
      "inputs": [
        {
          "internalType": "address",
          "name": "receiver",
          "type": "address"
        }
      ],
      "name": "ERC20InvalidReceiver",
      "type": "error"
    },
    {
      "inputs": [
        {
          "internalType": "address",
          "name": "sender",
          "type": "address"
        }
      ],
      "name": "ERC20InvalidSender",
      "type": "error"
    },
    {
      "inputs": [
        {
          "internalType": "address",
          "name": "spender",
          "type": "address"
        }
      ],
      "name": "ERC20InvalidSpender",
      "type": "error"
    },
    {
      "inputs": [
        {
          "internalType": "address",
          "name": "token",
          "type": "address"
        }
      ],
      "name": "ERC20InvalidUnderlying",
      "type": "error"
    },
    {
      "inputs": [
        {
          "internalType": "address",
          "name": "token",
          "type": "address"
        }
      ],
      "name": "SafeERC20FailedOperation",
      "type": "error"
    },
    {
      "anonymous": false,
      "inputs": [
        {
          "indexed": true,
          "internalType": "address",
          "name": "owner",
          "type": "address"
        },
        {
          "indexed": true,
          "internalType": "address",
          "name": "spender",
          "type": "address"
        },
        {
          "indexed": false,
          "internalType": "uint256",
          "name": "value",
          "type": "uint256"
        }
      ],
      "name": "Approval",
      "type": "event"
    },
    {
      "anonymous": false,
      "inputs": [
        {
          "indexed": true,
          "internalType": "address",
          "name": "from",
          "type": "address"
        },
        {
          "indexed": true,
          "internalType": "address",
          "name": "to",
          "type": "address"
        },
        {
          "indexed": false,
          "internalType": "uint256",
          "name": "value",
          "type": "uint256"
        }
      ],
      "name": "Transfer",
      "type": "event"
    },
    {
      "anonymous": false,
      "inputs": [
        {
          "indexed": false,
          "internalType": "uint256",
          "name": "ret0",
          "type": "uint256"
        }
      ],
      "name": "return$_recover",
      "type": "event"
    },
    {
      "inputs": [
        {
          "internalType": "address",
          "name": "owner",
          "type": "address"
        },
        {
          "internalType": "address",
          "name": "spender",
          "type": "address"
        },
        {
          "internalType": "uint256",
          "name": "value",
          "type": "uint256"
        },
        {
          "internalType": "bool",
          "name": "emitEvent",
          "type": "bool"
        }
      ],
      "name": "$_approve",
      "outputs": [],
      "stateMutability": "nonpayable",
      "type": "function"
    },
    {
      "inputs": [
        {
          "internalType": "address",
          "name": "owner",
          "type": "address"
        },
        {
          "internalType": "address",
          "name": "spender",
          "type": "address"
        },
        {
          "internalType": "uint256",
          "name": "value",
          "type": "uint256"
        }
      ],
      "name": "$_approve",
      "outputs": [],
      "stateMutability": "nonpayable",
      "type": "function"
    },
    {
      "inputs": [
        {
          "internalType": "address",
          "name": "account",
          "type": "address"
        },
        {
          "internalType": "uint256",
          "name": "value",
          "type": "uint256"
        }
      ],
      "name": "$_burn",
      "outputs": [],
      "stateMutability": "nonpayable",
      "type": "function"
    },
    {
      "inputs": [],
      "name": "$_contextSuffixLength",
      "outputs": [
        {
          "internalType": "uint256",
          "name": "ret0",
          "type": "uint256"
        }
      ],
      "stateMutability": "view",
      "type": "function"
    },
    {
      "inputs": [
        {
          "internalType": "address",
          "name": "account",
          "type": "address"
        },
        {
          "internalType": "uint256",
          "name": "value",
          "type": "uint256"
        }
      ],
      "name": "$_mint",
      "outputs": [],
      "stateMutability": "nonpayable",
      "type": "function"
    },
    {
      "inputs": [],
      "name": "$_msgData",
      "outputs": [
        {
          "internalType": "bytes",
          "name": "ret0",
          "type": "bytes"
        }
      ],
      "stateMutability": "view",
      "type": "function"
    },
    {
      "inputs": [],
      "name": "$_msgSender",
      "outputs": [
        {
          "internalType": "address",
          "name": "ret0",
          "type": "address"
        }
      ],
      "stateMutability": "view",
      "type": "function"
    },
    {
      "inputs": [
        {
          "internalType": "address",
          "name": "account",
          "type": "address"
        }
      ],
      "name": "$_recover",
      "outputs": [
        {
          "internalType": "uint256",
          "name": "ret0",
          "type": "uint256"
        }
      ],
      "stateMutability": "nonpayable",
      "type": "function"
    },
    {
      "inputs": [
        {
          "internalType": "address",
          "name": "owner",
          "type": "address"
        },
        {
          "internalType": "address",
          "name": "spender",
          "type": "address"
        },
        {
          "internalType": "uint256",
          "name": "value",
          "type": "uint256"
        }
      ],
      "name": "$_spendAllowance",
      "outputs": [],
      "stateMutability": "nonpayable",
      "type": "function"
    },
    {
      "inputs": [
        {
          "internalType": "address",
          "name": "from",
          "type": "address"
        },
        {
          "internalType": "address",
          "name": "to",
          "type": "address"
        },
        {
          "internalType": "uint256",
          "name": "value",
          "type": "uint256"
        }
      ],
      "name": "$_transfer",
      "outputs": [],
      "stateMutability": "nonpayable",
      "type": "function"
    },
    {
      "inputs": [
        {
          "internalType": "address",
          "name": "from",
          "type": "address"
        },
        {
          "internalType": "address",
          "name": "to",
          "type": "address"
        },
        {
          "internalType": "uint256",
          "name": "value",
          "type": "uint256"
        }
      ],
      "name": "$_update",
      "outputs": [],
      "stateMutability": "nonpayable",
      "type": "function"
    },
    {
      "inputs": [],
      "name": "__hh_exposed_bytecode_marker",
      "outputs": [
        {
          "internalType": "bytes32",
          "name": "",
          "type": "bytes32"
        }
      ],
      "stateMutability": "view",
      "type": "function"
    },
    {
      "inputs": [
        {
          "internalType": "address",
          "name": "owner",
          "type": "address"
        },
        {
          "internalType": "address",
          "name": "spender",
          "type": "address"
        }
      ],
      "name": "allowance",
      "outputs": [
        {
          "internalType": "uint256",
          "name": "",
          "type": "uint256"
        }
      ],
      "stateMutability": "view",
      "type": "function"
    },
    {
      "inputs": [
        {
          "internalType": "address",
          "name": "spender",
          "type": "address"
        },
        {
          "internalType": "uint256",
          "name": "value",
          "type": "uint256"
        }
      ],
      "name": "approve",
      "outputs": [
        {
          "internalType": "bool",
          "name": "",
          "type": "bool"
        }
      ],
      "stateMutability": "nonpayable",
      "type": "function"
    },
    {
      "inputs": [
        {
          "internalType": "address",
          "name": "account",
          "type": "address"
        }
      ],
      "name": "balanceOf",
      "outputs": [
        {
          "internalType": "uint256",
          "name": "",
          "type": "uint256"
        }
      ],
      "stateMutability": "view",
      "type": "function"
    },
    {
      "inputs": [],
      "name": "decimals",
      "outputs": [
        {
          "internalType": "uint8",
          "name": "",
          "type": "uint8"
        }
      ],
      "stateMutability": "view",
      "type": "function"
    },
    {
      "inputs": [
        {
          "internalType": "address",
          "name": "account",
          "type": "address"
        },
        {
          "internalType": "uint256",
          "name": "value",
          "type": "uint256"
        }
      ],
      "name": "depositFor",
      "outputs": [
        {
          "internalType": "bool",
          "name": "",
          "type": "bool"
        }
      ],
      "stateMutability": "nonpayable",
      "type": "function"
    },
    {
      "inputs": [],
      "name": "name",
      "outputs": [
        {
          "internalType": "string",
          "name": "",
          "type": "string"
        }
      ],
      "stateMutability": "view",
      "type": "function"
    },
    {
      "inputs": [],
      "name": "symbol",
      "outputs": [
        {
          "internalType": "string",
          "name": "",
          "type": "string"
        }
      ],
      "stateMutability": "view",
      "type": "function"
    },
    {
      "inputs": [],
      "name": "totalSupply",
      "outputs": [
        {
          "internalType": "uint256",
          "name": "",
          "type": "uint256"
        }
      ],
      "stateMutability": "view",
      "type": "function"
    },
    {
      "inputs": [
        {
          "internalType": "address",
          "name": "to",
          "type": "address"
        },
        {
          "internalType": "uint256",
          "name": "value",
          "type": "uint256"
        }
      ],
      "name": "transfer",
      "outputs": [
        {
          "internalType": "bool",
          "name": "",
          "type": "bool"
        }
      ],
      "stateMutability": "nonpayable",
      "type": "function"
    },
    {
      "inputs": [
        {
          "internalType": "address",
          "name": "from",
          "type": "address"
        },
        {
          "internalType": "address",
          "name": "to",
          "type": "address"
        },
        {
          "internalType": "uint256",
          "name": "value",
          "type": "uint256"
        }
      ],
      "name": "transferFrom",
      "outputs": [
        {
          "internalType": "bool",
          "name": "",
          "type": "bool"
        }
      ],
      "stateMutability": "nonpayable",
      "type": "function"
    },
    {
      "inputs": [],
      "name": "underlying",
      "outputs": [
        {
          "internalType": "contract IERC20",
          "name": "",
          "type": "address"
        }
      ],
      "stateMutability": "view",
      "type": "function"
    },
    {
      "inputs": [
        {
          "internalType": "address",
          "name": "account",
          "type": "address"
        },
        {
          "internalType": "uint256",
          "name": "value",
          "type": "uint256"
        }
      ],
      "name": "withdrawTo",
      "outputs": [
        {
          "internalType": "bool",
          "name": "",
          "type": "bool"
        }
      ],
      "stateMutability": "nonpayable",
      "type": "function"
    },
    {
      "stateMutability": "payable",
      "type": "receive"
    }
  ],
  "bytecode": "0x60a06040526040516200128038038062001280833981016040819052620000269162000151565b808383600362000037838262000262565b50600462000046828262000262565b5050306001600160a01b0383160390506200007a5760405163438d6fe360e01b815230600482015260240160405180910390fd5b6001600160a01b0316608052506200032e915050565b634e487b7160e01b5f52604160045260245ffd5b5f82601f830112620000b4575f80fd5b81516001600160401b0380821115620000d157620000d162000090565b604051601f8301601f19908116603f01168101908282118183101715620000fc57620000fc62000090565b816040528381526020925086602085880101111562000119575f80fd5b5f91505b838210156200013c57858201830151818301840152908201906200011d565b5f602085830101528094505050505092915050565b5f805f6060848603121562000164575f80fd5b83516001600160401b03808211156200017b575f80fd5b6200018987838801620000a4565b945060208601519150808211156200019f575f80fd5b50620001ae86828701620000a4565b604086015190935090506001600160a01b0381168114620001cd575f80fd5b809150509250925092565b600181811c90821680620001ed57607f821691505b6020821081036200020c57634e487b7160e01b5f52602260045260245ffd5b50919050565b601f8211156200025d57805f5260205f20601f840160051c81016020851015620002395750805b601f840160051c820191505b818110156200025a575f815560010162000245565b50505b505050565b81516001600160401b038111156200027e576200027e62000090565b62000296816200028f8454620001d8565b8462000212565b602080601f831160018114620002cc575f8415620002b45750858301515b5f19600386901b1c1916600185901b17855562000326565b5f85815260208120601f198616915b82811015620002fc57888601518255948401946001909101908401620002db565b50858210156200031a57878501515f19600388901b60f8161c191681555b505060018460011b0185555b505050505050565b608051610f1d620003635f395f818161032d01528181610589015281816106380152818161066c0152610ab80152610f1d5ff3fe60806040526004361061014a575f3560e01c806367354a84116100b3578063a9059cbb1161006d578063a9059cbb146103b8578063b2331d7d146103d7578063cc461d62146103f6578063dd62ed3e14610415578063e047838d14610459578063efb43b0714610478575f80fd5b806367354a84146102ee5780636855a178146103005780636f307dc31461031f57806370a0823114610351578063861e3d3d1461038557806395d89b41146103a4575f80fd5b80632f4f21e2116101045780632f4f21e214610230578063313ce5671461024f57806332bc74aa1461027557806332cadf3c14610296578063342db739146102aa5780636242b9d0146102cf575f80fd5b806306fdde0314610155578063095ea7b31461017f57806318160ddd146101ae578063205c2878146101cc57806323b872dd146101eb5780632904df291461020a575f80fd5b3661015157005b5f80fd5b348015610160575f80fd5b50610169610497565b6040516101769190610d14565b60405180910390f35b34801561018a575f80fd5b5061019e610199366004610d43565b610527565b6040519015158152602001610176565b3480156101b9575f80fd5b506002545b604051908152602001610176565b3480156101d7575f80fd5b5061019e6101e6366004610d43565b610540565b3480156101f6575f80fd5b5061019e610205366004610d6b565b6105b8565b348015610215575f80fd5b50335b6040516001600160a01b039091168152602001610176565b34801561023b575f80fd5b5061019e61024a366004610d43565b6105db565b34801561025a575f80fd5b50610263610669565b60405160ff9091168152602001610176565b348015610280575f80fd5b5061029461028f366004610da4565b6106f3565b005b3480156102a1575f80fd5b50610169610705565b3480156102b5575f80fd5b506101be6e1a185c991a185d0b595e1c1bdcd959608a1b81565b3480156102da575f80fd5b506101be6102e9366004610df4565b610742565b3480156102f9575f80fd5b505f6101be565b34801561030b575f80fd5b5061029461031a366004610d6b565b61078c565b34801561032a575f80fd5b507f0000000000000000000000000000000000000000000000000000000000000000610218565b34801561035c575f80fd5b506101be61036b366004610df4565b6001600160a01b03165f9081526020819052604090205490565b348015610390575f80fd5b5061029461039f366004610d6b565b61079c565b3480156103af575f80fd5b506101696107a7565b3480156103c3575f80fd5b5061019e6103d2366004610d43565b6107b6565b3480156103e2575f80fd5b506102946103f1366004610d6b565b6107c3565b348015610401575f80fd5b50610294610410366004610d43565b6107ce565b348015610420575f80fd5b506101be61042f366004610e0d565b6001600160a01b039182165f90815260016020908152604080832093909416825291909152205490565b348015610464575f80fd5b50610294610473366004610d43565b6107dc565b348015610483575f80fd5b50610294610492366004610d6b565b6107e6565b6060600380546104a690610e3e565b80601f01602080910402602001604051908101604052809291908181526020018280546104d290610e3e565b801561051d5780601f106104f45761010080835404028352916020019161051d565b820191905f5260205f20905b81548152906001019060200180831161050057829003601f168201915b5050505050905090565b5f336105348185856107f1565b60019150505b92915050565b5f306001600160a01b0384160361057a5760405163ec442f0560e01b81526001600160a01b03841660048201526024015b60405180910390fd5b61058433836107fe565b6105af7f00000000000000000000000000000000000000000000000000000000000000008484610832565b50600192915050565b5f336105c5858285610891565b6105d0858585610907565b506001949350505050565b5f333081036105ff57604051634b637e8f60e11b8152306004820152602401610571565b306001600160a01b038516036106335760405163ec442f0560e01b81526001600160a01b0385166004820152602401610571565b61065f7f0000000000000000000000000000000000000000000000000000000000000000823086610959565b6105348484610992565b5f7f00000000000000000000000000000000000000000000000000000000000000006001600160a01b031663313ce5676040518163ffffffff1660e01b8152600401602060405180830381865afa9250505080156106e4575060408051601f3d908101601f191682019092526106e191810190610e76565b60015b6106ee5750601290565b919050565b6106ff848484846109c6565b50505050565b60605f368080601f0160208091040260200160405190810160405280939291908181526020018383808284375f9201919091525092949350505050565b5f61074c82610a98565b90507f1abff978536966f470533a0a53cd23b392e2a9d1672b0e18941e1f57949e7cdc8160405161077f91815260200190565b60405180910390a1919050565b610797838383610b3f565b505050565b6107978383836107f1565b6060600480546104a690610e3e565b5f33610534818585610907565b610797838383610891565b6107d88282610992565b5050565b6107d882826107fe565b610797838383610907565b61079783838360016109c6565b6001600160a01b03821661082757604051634b637e8f60e11b81525f6004820152602401610571565b6107d8825f83610b3f565b6040516001600160a01b0383811660248301526044820183905261079791859182169063a9059cbb906064015b604051602081830303815290604052915060e01b6020820180516001600160e01b038381831617835250505050610c65565b6001600160a01b038381165f908152600160209081526040808320938616835292905220545f198110156106ff57818110156108f957604051637dc7a0d960e11b81526001600160a01b03841660048201526024810182905260448101839052606401610571565b6106ff84848484035f6109c6565b6001600160a01b03831661093057604051634b637e8f60e11b81525f6004820152602401610571565b6001600160a01b03821661078c5760405163ec442f0560e01b81525f6004820152602401610571565b6040516001600160a01b0384811660248301528381166044830152606482018390526106ff9186918216906323b872dd9060840161085f565b6001600160a01b0382166109bb5760405163ec442f0560e01b81525f6004820152602401610571565b6107d85f8383610b3f565b6001600160a01b0384166109ef5760405163e602df0560e01b81525f6004820152602401610571565b6001600160a01b038316610a1857604051634a1406b160e11b81525f6004820152602401610571565b6001600160a01b038085165f90815260016020908152604080832093871683529290522082905580156106ff57826001600160a01b0316846001600160a01b03167f8c5be1e5ebec7d5bd14f71427d1e84f3dd0314c0f7b2291e5b200ac8c7c3b92584604051610a8a91815260200190565b60405180910390a350505050565b5f80610aa360025490565b6040516370a0823160e01b81523060048201527f00000000000000000000000000000000000000000000000000000000000000006001600160a01b0316906370a0823190602401602060405180830381865afa158015610b05573d5f803e3d5ffd5b505050506040513d601f19601f82011682018060405250810190610b299190610e96565b610b339190610ec1565b905061053a8382610992565b6001600160a01b038316610b69578060025f828254610b5e9190610ed4565b90915550610bd99050565b6001600160a01b0383165f9081526020819052604090205481811015610bbb5760405163391434e360e21b81526001600160a01b03851660048201526024810182905260448101839052606401610571565b6001600160a01b0384165f9081526020819052604090209082900390555b6001600160a01b038216610bf557600280548290039055610c13565b6001600160a01b0382165f9081526020819052604090208054820190555b816001600160a01b0316836001600160a01b03167fddf252ad1be2c89b69c2b068fc378daa952ba7f163c4a11628f55a4df523b3ef83604051610c5891815260200190565b60405180910390a3505050565b5f8060205f8451602086015f885af180610c84576040513d5f823e3d81fd5b50505f513d91508115610c9b578060011415610ca8565b6001600160a01b0384163b155b156106ff57604051635274afe760e01b81526001600160a01b0385166004820152602401610571565b5f81518084525f5b81811015610cf557602081850181015186830182015201610cd9565b505f602082860101526020601f19601f83011685010191505092915050565b602081525f610d266020830184610cd1565b9392505050565b80356001600160a01b03811681146106ee575f80fd5b5f8060408385031215610d54575f80fd5b610d5d83610d2d565b946020939093013593505050565b5f805f60608486031215610d7d575f80fd5b610d8684610d2d565b9250610d9460208501610d2d565b9150604084013590509250925092565b5f805f8060808587031215610db7575f80fd5b610dc085610d2d565b9350610dce60208601610d2d565b92506040850135915060608501358015158114610de9575f80fd5b939692955090935050565b5f60208284031215610e04575f80fd5b610d2682610d2d565b5f8060408385031215610e1e575f80fd5b610e2783610d2d565b9150610e3560208401610d2d565b90509250929050565b600181811c90821680610e5257607f821691505b602082108103610e7057634e487b7160e01b5f52602260045260245ffd5b50919050565b5f60208284031215610e86575f80fd5b815160ff81168114610d26575f80fd5b5f60208284031215610ea6575f80fd5b5051919050565b634e487b7160e01b5f52601160045260245ffd5b8181038181111561053a5761053a610ead565b8082018082111561053a5761053a610ead56fea2646970667358221220430607d40150aa504f0ea768ed3cc6daae8c3ca8a5638c9c1a42cd7fedb6064064736f6c63430008180033",
  "linkReferences": {},
  "deployedLinkReferences": {}
}