{
  "_format": "hh-sol-artifact-1",
  "contractName": "$BatchCaller",
  "sourceName": "contracts-exposed/mocks/BatchCaller.sol",
  "abi": [
    {
      "inputs": [],
      "stateMutability": "payable",
      "type": "constructor"
    },
    {
      "inputs": [
        {
          "internalType": "address",
          "name": "target",
          "type": "address"
        }
      ],
      "name": "AddressEmptyCode",
      "type": "error"
    },
    {
      "inputs": [],
      "name": "FailedCall",
      "type": "error"
    },
    {
      "inputs": [
        {
          "internalType": "uint256",
          "name": "balance",
          "type": "uint256"
        },
        {
          "internalType": "uint256",
          "name": "needed",
          "type": "uint256"
        }
      ],
      "name": "InsufficientBalance",
      "type": "error"
    },
    {
      "inputs": [],
      "name": "__hh_exposed_bytecode_marker",
      "outputs": [
        {
          "internalType": "bytes32",
          "name": "",
          "type": "bytes32"
        }
      ],
      "stateMutability": "view",
      "type": "function"
    },
    {
      "inputs": [
        {
          "components": [
            {
              "internalType": "address",
              "name": "target",
              "type": "address"
            },
            {
              "internalType": "uint256",
              "name": "value",
              "type": "uint256"
            },
            {
              "internalType": "bytes",
              "name": "data",
              "type": "bytes"
            }
          ],
          "internalType": "struct BatchCaller.Call[]",
          "name": "calls",
          "type": "tuple[]"
        }
      ],
      "name": "execute",
      "outputs": [
        {
          "internalType": "bytes[]",
          "name": "",
          "type": "bytes[]"
        }
      ],
      "stateMutability": "nonpayable",
      "type": "function"
    },
    {
      "stateMutability": "payable",
      "type": "receive"
    }
  ],
  "bytecode": "0x608060405261051f806100115f395ff3fe60806040526004361061002b575f3560e01c8063342db739146100365780633f707e6b1461006e575f80fd5b3661003257005b5f80fd5b348015610041575f80fd5b5061005b6e1a185c991a185d0b595e1c1bdcd959608a1b81565b6040519081526020015b60405180910390f35b348015610079575f80fd5b5061008d610088366004610319565b61009a565b60405161006591906103aa565b60605f8267ffffffffffffffff8111156100b6576100b6610422565b6040519080825280602002602001820160405280156100e957816020015b60608152602001906001900390816100d45790505b5090505f5b838110156101e5576101c085858381811061010b5761010b610436565b905060200281019061011d919061044a565b61012b906020810190610468565b86868481811061013d5761013d610436565b905060200281019061014f919061044a565b61015d90604081019061048e565b8080601f0160208091040260200160405190810160405280939291908181526020018383808284375f920191909152508a92508991508690508181106101a5576101a5610436565b90506020028101906101b7919061044a565b602001356101ed565b8282815181106101d2576101d2610436565b60209081029190910101526001016100ee565b509392505050565b60608147101561021e5760405163cf47918160e01b8152476004820152602481018390526044015b60405180910390fd5b5f80856001600160a01b0316848660405161023991906104d8565b5f6040518083038185875af1925050503d805f8114610273576040519150601f19603f3d011682016040523d82523d5f602084013e610278565b606091505b5091509150610288868383610294565b925050505b9392505050565b6060826102a9576102a4826102f0565b61028d565b81511580156102c057506001600160a01b0384163b155b156102e957604051639996b31560e01b81526001600160a01b0385166004820152602401610215565b508061028d565b8051156103005780518082602001fd5b60405163d6bda27560e01b815260040160405180910390fd5b5f806020838503121561032a575f80fd5b823567ffffffffffffffff80821115610341575f80fd5b818501915085601f830112610354575f80fd5b813581811115610362575f80fd5b8660208260051b8501011115610376575f80fd5b60209290920196919550909350505050565b5f5b838110156103a257818101518382015260200161038a565b50505f910152565b5f602080830181845280855180835260408601915060408160051b87010192508387015f5b8281101561041557878503603f19018452815180518087526103f6818989018a8501610388565b601f01601f1916959095018601945092850192908501906001016103cf565b5092979650505050505050565b634e487b7160e01b5f52604160045260245ffd5b634e487b7160e01b5f52603260045260245ffd5b5f8235605e1983360301811261045e575f80fd5b9190910192915050565b5f60208284031215610478575f80fd5b81356001600160a01b038116811461028d575f80fd5b5f808335601e198436030181126104a3575f80fd5b83018035915067ffffffffffffffff8211156104bd575f80fd5b6020019150368190038213156104d1575f80fd5b9250929050565b5f825161045e81846020870161038856fea264697066735822122022a91cf03c0164026897c35dd844638622849b19ef2c03238bb41ca3d000452264736f6c63430008180033",
  "linkReferences": {},
  "deployedLinkReferences": {}
}