{
  "_format": "hh-sol-artifact-1",
  "contractName": "$CallReceiverMockTrustingForwarder",
  "sourceName": "contracts-exposed/mocks/CallReceiverMock.sol",
  "abi": [
    {
      "inputs": [
        {
          "internalType": "address",
          "name": "trustedForwarder_",
          "type": "address"
        }
      ],
      "stateMutability": "payable",
      "type": "constructor"
    },
    {
      "anonymous": false,
      "inputs": [],
      "name": "MockFunctionCalled",
      "type": "event"
    },
    {
      "anonymous": false,
      "inputs": [
        {
          "indexed": false,
          "internalType": "uint256",
          "name": "a",
          "type": "uint256"
        },
        {
          "indexed": false,
          "internalType": "uint256",
          "name": "b",
          "type": "uint256"
        }
      ],
      "name": "MockFunctionCalledWithArgs",
      "type": "event"
    },
    {
      "inputs": [],
      "name": "__hh_exposed_bytecode_marker",
      "outputs": [
        {
          "internalType": "bytes32",
          "name": "",
          "type": "bytes32"
        }
      ],
      "stateMutability": "view",
      "type": "function"
    },
    {
      "inputs": [
        {
          "internalType": "address",
          "name": "forwarder",
          "type": "address"
        }
      ],
      "name": "isTrustedForwarder",
      "outputs": [
        {
          "internalType": "bool",
          "name": "",
          "type": "bool"
        }
      ],
      "stateMutability": "view",
      "type": "function"
    },
    {
      "inputs": [],
      "name": "mockFunction",
      "outputs": [
        {
          "internalType": "string",
          "name": "",
          "type": "string"
        }
      ],
      "stateMutability": "payable",
      "type": "function"
    },
    {
      "inputs": [],
      "name": "mockFunctionEmptyReturn",
      "outputs": [],
      "stateMutability": "payable",
      "type": "function"
    },
    {
      "inputs": [],
      "name": "mockFunctionNonPayable",
      "outputs": [
        {
          "internalType": "string",
          "name": "",
          "type": "string"
        }
      ],
      "stateMutability": "nonpayable",
      "type": "function"
    },
    {
      "inputs": [],
      "name": "mockFunctionOutOfGas",
      "outputs": [],
      "stateMutability": "payable",
      "type": "function"
    },
    {
      "inputs": [],
      "name": "mockFunctionRevertsNoReason",
      "outputs": [],
      "stateMutability": "payable",
      "type": "function"
    },
    {
      "inputs": [],
      "name": "mockFunctionRevertsReason",
      "outputs": [],
      "stateMutability": "payable",
      "type": "function"
    },
    {
      "inputs": [],
      "name": "mockFunctionThrows",
      "outputs": [],
      "stateMutability": "payable",
      "type": "function"
    },
    {
      "inputs": [
        {
          "internalType": "uint256",
          "name": "a",
          "type": "uint256"
        },
        {
          "internalType": "uint256",
          "name": "b",
          "type": "uint256"
        }
      ],
      "name": "mockFunctionWithArgs",
      "outputs": [
        {
          "internalType": "string",
          "name": "",
          "type": "string"
        }
      ],
      "stateMutability": "payable",
      "type": "function"
    },
    {
      "inputs": [
        {
          "internalType": "bytes32",
          "name": "slot",
          "type": "bytes32"
        },
        {
          "internalType": "bytes32",
          "name": "value",
          "type": "bytes32"
        }
      ],
      "name": "mockFunctionWritesStorage",
      "outputs": [
        {
          "internalType": "string",
          "name": "",
          "type": "string"
        }
      ],
      "stateMutability": "nonpayable",
      "type": "function"
    },
    {
      "inputs": [],
      "name": "mockStaticFunction",
      "outputs": [
        {
          "internalType": "string",
          "name": "",
          "type": "string"
        }
      ],
      "stateMutability": "pure",
      "type": "function"
    },
    {
      "stateMutability": "payable",
      "type": "receive"
    }
  ],
  "bytecode": "0x60806040526040516104f33803806104f383398101604081905261002291610047565b600180546001600160a01b0319166001600160a01b0392909216919091179055610074565b5f60208284031215610057575f80fd5b81516001600160a01b038116811461006d575f80fd5b9392505050565b610472806100815f395ff3fe6080604052600436106100a8575f3560e01c8063425397a211610062578063425397a214610131578063572b6c051461016d578063a793ab47146101ab578063c292d81c146101b3578063c8fc7696146101bb578063fdb27325146101e9575f80fd5b80630c034968146100b35780630f63e42c146100bd5780632c81d638146100e7578063342db739146100ee5780633bcfaa14146101215780633e6fec0414610129575f80fd5b366100af57005b5f80fd5b6100bb6101fc565b005b3480156100c8575f80fd5b506100d1610248565b6040516100de919061036b565b60405180910390f35b6100bb5f80fd5b3480156100f9575f80fd5b506101136e1a185c991a185d0b595e1c1bdcd959608a1b81565b6040519081526020016100de565b6100bb610294565b6100d1610248565b34801561013c575f80fd5b506100d161014b3660046103b7565b90556040805180820190915260068152650c1e0c4c8ccd60d21b602082015290565b348015610178575f80fd5b5061019b6101873660046103d7565b6001546001600160a01b0391821691161490565b60405190151581526020016100de565b6100bb61029e565b6100bb6102e1565b3480156101c6575f80fd5b506040805180820190915260068152650c1e0c4c8ccd60d21b60208201526100d1565b6100d16101f73660046103b7565b61030b565b60405162461bcd60e51b815260206004820152601b60248201527f43616c6c52656365697665724d6f636b3a20726576657274696e670000000000604482015260640160405180910390fd5b6040516060907f52c66ed6ec9ca819cba26fe2b2650059270d8981b295af300187a964f54a8c23905f90a1506040805180820190915260068152650c1e0c4c8ccd60d21b602082015290565b61029c610404565b565b5f5b5f80546001810182559080527f290decd9548b62a8d60345a988386fc84ba6bc95484008f6362f93160ef3e563018190556102da81610418565b90506102a0565b6040517f52c66ed6ec9ca819cba26fe2b2650059270d8981b295af300187a964f54a8c23905f90a1565b60408051838152602081018390526060917f2b42b3c9af4187c86225f201736204c7597312c830cb5c2537dff6ef24b946ae910160405180910390a1506040805180820190915260068152650c1e0c4c8ccd60d21b602082015292915050565b5f602080835283518060208501525f5b818110156103975785810183015185820160400152820161037b565b505f604082860101526040601f19601f8301168501019250505092915050565b5f80604083850312156103c8575f80fd5b50508035926020909101359150565b5f602082840312156103e7575f80fd5b81356001600160a01b03811681146103fd575f80fd5b9392505050565b634e487b7160e01b5f52600160045260245ffd5b5f6001820161043557634e487b7160e01b5f52601160045260245ffd5b506001019056fea26469706673582212205be1da9dec5dbe6fb372455fd8df509b0aed2ebdd73ece77052bdf568eff1c8e64736f6c63430008180033",
  "linkReferences": {},
  "deployedLinkReferences": {}
}