{
  "_format": "hh-sol-artifact-1",
  "contractName": "$Clones",
  "sourceName": "contracts-exposed/proxy/Clones.sol",
  "abi": [
    {
      "inputs": [],
      "stateMutability": "payable",
      "type": "constructor"
    },
    {
      "inputs": [],
      "name": "CloneArgumentsTooLong",
      "type": "error"
    },
    {
      "inputs": [],
      "name": "Create2EmptyBytecode",
      "type": "error"
    },
    {
      "inputs": [],
      "name": "FailedDeployment",
      "type": "error"
    },
    {
      "inputs": [
        {
          "internalType": "uint256",
          "name": "balance",
          "type": "uint256"
        },
        {
          "internalType": "uint256",
          "name": "needed",
          "type": "uint256"
        }
      ],
      "name": "InsufficientBalance",
      "type": "error"
    },
    {
      "anonymous": false,
      "inputs": [
        {
          "indexed": false,
          "internalType": "address",
          "name": "instance",
          "type": "address"
        }
      ],
      "name": "return$cloneDeterministicWithImmutableArgs_address_bytes_bytes32",
      "type": "event"
    },
    {
      "anonymous": false,
      "inputs": [
        {
          "indexed": false,
          "internalType": "address",
          "name": "instance",
          "type": "address"
        }
      ],
      "name": "return$cloneDeterministicWithImmutableArgs_address_bytes_bytes32_uint256",
      "type": "event"
    },
    {
      "anonymous": false,
      "inputs": [
        {
          "indexed": false,
          "internalType": "address",
          "name": "instance",
          "type": "address"
        }
      ],
      "name": "return$cloneDeterministic_address_bytes32",
      "type": "event"
    },
    {
      "anonymous": false,
      "inputs": [
        {
          "indexed": false,
          "internalType": "address",
          "name": "instance",
          "type": "address"
        }
      ],
      "name": "return$cloneDeterministic_address_bytes32_uint256",
      "type": "event"
    },
    {
      "anonymous": false,
      "inputs": [
        {
          "indexed": false,
          "internalType": "address",
          "name": "instance",
          "type": "address"
        }
      ],
      "name": "return$cloneWithImmutableArgs_address_bytes",
      "type": "event"
    },
    {
      "anonymous": false,
      "inputs": [
        {
          "indexed": false,
          "internalType": "address",
          "name": "instance",
          "type": "address"
        }
      ],
      "name": "return$cloneWithImmutableArgs_address_bytes_uint256",
      "type": "event"
    },
    {
      "anonymous": false,
      "inputs": [
        {
          "indexed": false,
          "internalType": "address",
          "name": "instance",
          "type": "address"
        }
      ],
      "name": "return$clone_address",
      "type": "event"
    },
    {
      "anonymous": false,
      "inputs": [
        {
          "indexed": false,
          "internalType": "address",
          "name": "instance",
          "type": "address"
        }
      ],
      "name": "return$clone_address_uint256",
      "type": "event"
    },
    {
      "inputs": [
        {
          "internalType": "address",
          "name": "implementation",
          "type": "address"
        },
        {
          "internalType": "uint256",
          "name": "value",
          "type": "uint256"
        }
      ],
      "name": "$clone",
      "outputs": [
        {
          "internalType": "address",
          "name": "instance",
          "type": "address"
        }
      ],
      "stateMutability": "payable",
      "type": "function"
    },
    {
      "inputs": [
        {
          "internalType": "address",
          "name": "implementation",
          "type": "address"
        }
      ],
      "name": "$clone",
      "outputs": [
        {
          "internalType": "address",
          "name": "instance",
          "type": "address"
        }
      ],
      "stateMutability": "payable",
      "type": "function"
    },
    {
      "inputs": [
        {
          "internalType": "address",
          "name": "implementation",
          "type": "address"
        },
        {
          "internalType": "bytes32",
          "name": "salt",
          "type": "bytes32"
        },
        {
          "internalType": "uint256",
          "name": "value",
          "type": "uint256"
        }
      ],
      "name": "$cloneDeterministic",
      "outputs": [
        {
          "internalType": "address",
          "name": "instance",
          "type": "address"
        }
      ],
      "stateMutability": "payable",
      "type": "function"
    },
    {
      "inputs": [
        {
          "internalType": "address",
          "name": "implementation",
          "type": "address"
        },
        {
          "internalType": "bytes32",
          "name": "salt",
          "type": "bytes32"
        }
      ],
      "name": "$cloneDeterministic",
      "outputs": [
        {
          "internalType": "address",
          "name": "instance",
          "type": "address"
        }
      ],
      "stateMutability": "payable",
      "type": "function"
    },
    {
      "inputs": [
        {
          "internalType": "address",
          "name": "implementation",
          "type": "address"
        },
        {
          "internalType": "bytes",
          "name": "args",
          "type": "bytes"
        },
        {
          "internalType": "bytes32",
          "name": "salt",
          "type": "bytes32"
        }
      ],
      "name": "$cloneDeterministicWithImmutableArgs",
      "outputs": [
        {
          "internalType": "address",
          "name": "instance",
          "type": "address"
        }
      ],
      "stateMutability": "payable",
      "type": "function"
    },
    {
      "inputs": [
        {
          "internalType": "address",
          "name": "implementation",
          "type": "address"
        },
        {
          "internalType": "bytes",
          "name": "args",
          "type": "bytes"
        },
        {
          "internalType": "bytes32",
          "name": "salt",
          "type": "bytes32"
        },
        {
          "internalType": "uint256",
          "name": "value",
          "type": "uint256"
        }
      ],
      "name": "$cloneDeterministicWithImmutableArgs",
      "outputs": [
        {
          "internalType": "address",
          "name": "instance",
          "type": "address"
        }
      ],
      "stateMutability": "payable",
      "type": "function"
    },
    {
      "inputs": [
        {
          "internalType": "address",
          "name": "implementation",
          "type": "address"
        },
        {
          "internalType": "bytes",
          "name": "args",
          "type": "bytes"
        }
      ],
      "name": "$cloneWithImmutableArgs",
      "outputs": [
        {
          "internalType": "address",
          "name": "instance",
          "type": "address"
        }
      ],
      "stateMutability": "payable",
      "type": "function"
    },
    {
      "inputs": [
        {
          "internalType": "address",
          "name": "implementation",
          "type": "address"
        },
        {
          "internalType": "bytes",
          "name": "args",
          "type": "bytes"
        },
        {
          "internalType": "uint256",
          "name": "value",
          "type": "uint256"
        }
      ],
      "name": "$cloneWithImmutableArgs",
      "outputs": [
        {
          "internalType": "address",
          "name": "instance",
          "type": "address"
        }
      ],
      "stateMutability": "payable",
      "type": "function"
    },
    {
      "inputs": [
        {
          "internalType": "address",
          "name": "instance",
          "type": "address"
        }
      ],
      "name": "$fetchCloneArgs",
      "outputs": [
        {
          "internalType": "bytes",
          "name": "ret0",
          "type": "bytes"
        }
      ],
      "stateMutability": "view",
      "type": "function"
    },
    {
      "inputs": [
        {
          "internalType": "address",
          "name": "implementation",
          "type": "address"
        },
        {
          "internalType": "bytes32",
          "name": "salt",
          "type": "bytes32"
        }
      ],
      "name": "$predictDeterministicAddress",
      "outputs": [
        {
          "internalType": "address",
          "name": "predicted",
          "type": "address"
        }
      ],
      "stateMutability": "view",
      "type": "function"
    },
    {
      "inputs": [
        {
          "internalType": "address",
          "name": "implementation",
          "type": "address"
        },
        {
          "internalType": "bytes32",
          "name": "salt",
          "type": "bytes32"
        },
        {
          "internalType": "address",
          "name": "deployer",
          "type": "address"
        }
      ],
      "name": "$predictDeterministicAddress",
      "outputs": [
        {
          "internalType": "address",
          "name": "predicted",
          "type": "address"
        }
      ],
      "stateMutability": "pure",
      "type": "function"
    },
    {
      "inputs": [
        {
          "internalType": "address",
          "name": "implementation",
          "type": "address"
        },
        {
          "internalType": "bytes",
          "name": "args",
          "type": "bytes"
        },
        {
          "internalType": "bytes32",
          "name": "salt",
          "type": "bytes32"
        }
      ],
      "name": "$predictDeterministicAddressWithImmutableArgs",
      "outputs": [
        {
          "internalType": "address",
          "name": "predicted",
          "type": "address"
        }
      ],
      "stateMutability": "view",
      "type": "function"
    },
    {
      "inputs": [
        {
          "internalType": "address",
          "name": "implementation",
          "type": "address"
        },
        {
          "internalType": "bytes",
          "name": "args",
          "type": "bytes"
        },
        {
          "internalType": "bytes32",
          "name": "salt",
          "type": "bytes32"
        },
        {
          "internalType": "address",
          "name": "deployer",
          "type": "address"
        }
      ],
      "name": "$predictDeterministicAddressWithImmutableArgs",
      "outputs": [
        {
          "internalType": "address",
          "name": "predicted",
          "type": "address"
        }
      ],
      "stateMutability": "pure",
      "type": "function"
    },
    {
      "inputs": [],
      "name": "__hh_exposed_bytecode_marker",
      "outputs": [
        {
          "internalType": "bytes32",
          "name": "",
          "type": "bytes32"
        }
      ],
      "stateMutability": "view",
      "type": "function"
    },
    {
      "stateMutability": "payable",
      "type": "receive"
    }
  ],
  "bytecode": "0x6080604052610e81806100115f395ff3fe6080604052600436106100dc575f3560e01c806331f7e2681161007c57806376b4a7b41161005757806376b4a7b4146102125780637b53dbd11461022557806396c2f79614610238578063f38d28b41461024b575f80fd5b806331f7e268146101b9578063342db739146101cc57806370e699ae146101ff575f80fd5b8063110899ae116100b7578063110899ae1461014957806316e14c99146101685780632b621d171461017b5780632dac34cb1461019a575f80fd5b806303af71c9146100e757806307add39a14610117578063082a531f1461012a575f80fd5b366100e357005b5f80fd5b6100fa6100f5366004610b07565b610277565b6040516001600160a01b0390911681526020015b60405180910390f35b6100fa610125366004610b56565b6102fe565b348015610135575f80fd5b506100fa610144366004610b7e565b61034f565b348015610154575f80fd5b506100fa610163366004610b56565b61039a565b6100fa610176366004610b7e565b6103ac565b348015610186575f80fd5b506100fa610195366004610bd4565b610436565b3480156101a5575f80fd5b506100fa6101b4366004610c3d565b610484565b6100fa6101c7366004610b7e565b610498565b3480156101d7575f80fd5b506101f16e1a185c991a185d0b595e1c1bdcd959608a1b81565b60405190815260200161010e565b6100fa61020d366004610c76565b610516565b6100fa610220366004610ca6565b61055e565b6100fa610233366004610b56565b6105ac565b6100fa610246366004610cbf565b6105f3565b348015610256575f80fd5b5061026a610265366004610ca6565b61067f565b60405161010e9190610d41565b5f6102b78484848080601f0160208091040260200160405190810160405280939291908181526020018383808284375f9201919091525061069092505050565b6040516001600160a01b03821681529091507fffa737dd4c73c79b36fecd69381724b59ecf280f3ee859d95a9461c7f6d63f50906020015b60405180910390a19392505050565b5f610309838361069c565b6040516001600160a01b03821681529091507fb43d8555e4aa6e6cde3062b937cef6bbcea75635f13a94e963151532dbc353da906020015b60405180910390a192915050565b5f6103918585858080601f0160208091040260200160405190810160405280939291908181526020018383808284375f92019190915250879250610735915050565b95945050505050565b5f6103a58383610742565b9392505050565b5f6103ee8585858080601f0160208091040260200160405190810160405280939291908181526020018383808284375f9201919091525087925061074e915050565b6040516001600160a01b03821681529091507f6e1100c7beabd4db7a8f286c74084cdfbc13556c940808a11b727274b6d3fc6c906020015b60405180910390a1949350505050565b5f61047a8686868080601f0160208091040260200160405190810160405280939291908181526020018383808284375f920191909152508892508791506107bf9050565b9695505050505050565b5f6104908484846107df565b949350505050565b5f6104da8585858080601f0160208091040260200160405190810160405280939291908181526020018383808284375f92019190915250879250610844915050565b6040516001600160a01b03821681529091507f5f36acb6c4a81787ffd9c118e833227a6408ebbe605a1214faa2501717a9d64c90602001610426565b5f610522848484610851565b6040516001600160a01b03821681529091507f55e6b9e88f302c15ba1cb69ffc69c8e738f60f83c6c698aa0718cae65aa5f816906020016102ef565b5f610568826108e6565b6040516001600160a01b03821681529091507f4ab8e8e79e1cf25e8f5cb474e2fe45f44d19d2bf6d74bf801ca35cf5bdc1c2099060200160405180910390a1919050565b5f6105b783836108f1565b6040516001600160a01b03821681529091507fd9e45b4da6afa421f643cc0d5c5a4a6357c142de28bdd7cc72c16fa528084c0490602001610341565b5f6106378686868080601f0160208091040260200160405190810160405280939291908181526020018383808284375f920191909152508892508791506108fd9050565b6040516001600160a01b03821681529091507fdb6963d1cf34bb699a601b2e29d3ada26a45f69d87fb49f82a88e3f1029fb1149060200160405180910390a195945050505050565b606061068a82610916565b92915050565b5f6103a583835f61074e565b5f814710156106cc5760405163cf47918160e01b8152476004820152602481018390526044015b60405180910390fd5b763d602d80600a3d3981f3363d3d373d3d3d363d730000008360601b60e81c175f526e5af43d82803e903d91602b57fd5bf38360781b176020526037600983f090506001600160a01b03811661068a5760405163b06ebf3d60e01b815260040160405180910390fd5b5f610490848484306107bf565b5f6103a58383306107df565b5f814710156107795760405163cf47918160e01b8152476004820152602481018390526044016106c3565b5f6107848585610983565b905080516020820184f091506001600160a01b0382166107b75760405163b06ebf3d60e01b815260040160405180910390fd5b509392505050565b5f806107cb8686610983565b905061047a848280519060200120856109e1565b60405160388101919091526f5af43d82803e903d91602b57fd5bf3ff60248201526014810192909252733d602d80600a3d3981f3363d3d373d3d3d363d73825260588201526037600c820120607882015260556043909101206001600160a01b031690565b5f6104908484845f6108fd565b5f8147101561087c5760405163cf47918160e01b8152476004820152602481018390526044016106c3565b763d602d80600a3d3981f3363d3d373d3d3d363d730000008460601b60e81c175f526e5af43d82803e903d91602b57fd5bf38460781b17602052826037600984f590506001600160a01b0381166103a55760405163b06ebf3d60e01b815260040160405180910390fd5b5f61068a825f61069c565b5f6103a583835f610851565b5f806109098686610983565b905061047a838583610a13565b60605f61092e602d6001600160a01b0385163b610d87565b67ffffffffffffffff81111561094657610946610d9a565b6040519080825280601f01601f191660200182016040528015610970576020820181803683370190505b5090508051602d60208301853c92915050565b6060615fd3825111156109a95760405163250a241560e21b815260040160405180910390fd5b81516109b690602d610dae565b83836040516020016109ca93929190610dc1565b604051602081830303815290604052905092915050565b5f604051836040820152846020820152828152600b8101905060ff8153605590206001600160a01b0316949350505050565b5f83471015610a3e5760405163cf47918160e01b8152476004820152602481018590526044016106c3565b81515f03610a5f57604051631328927760e21b815260040160405180910390fd5b8282516020840186f590503d151981151615610a80576040513d5f823e3d81fd5b6001600160a01b0381166103a55760405163b06ebf3d60e01b815260040160405180910390fd5b80356001600160a01b0381168114610abd575f80fd5b919050565b5f8083601f840112610ad2575f80fd5b50813567ffffffffffffffff811115610ae9575f80fd5b602083019150836020828501011115610b00575f80fd5b9250929050565b5f805f60408486031215610b19575f80fd5b610b2284610aa7565b9250602084013567ffffffffffffffff811115610b3d575f80fd5b610b4986828701610ac2565b9497909650939450505050565b5f8060408385031215610b67575f80fd5b610b7083610aa7565b946020939093013593505050565b5f805f8060608587031215610b91575f80fd5b610b9a85610aa7565b9350602085013567ffffffffffffffff811115610bb5575f80fd5b610bc187828801610ac2565b9598909750949560400135949350505050565b5f805f805f60808688031215610be8575f80fd5b610bf186610aa7565b9450602086013567ffffffffffffffff811115610c0c575f80fd5b610c1888828901610ac2565b90955093505060408601359150610c3160608701610aa7565b90509295509295909350565b5f805f60608486031215610c4f575f80fd5b610c5884610aa7565b925060208401359150610c6d60408501610aa7565b90509250925092565b5f805f60608486031215610c88575f80fd5b610c9184610aa7565b95602085013595506040909401359392505050565b5f60208284031215610cb6575f80fd5b6103a582610aa7565b5f805f805f60808688031215610cd3575f80fd5b610cdc86610aa7565b9450602086013567ffffffffffffffff811115610cf7575f80fd5b610d0388828901610ac2565b9699909850959660408101359660609091013595509350505050565b5f5b83811015610d39578181015183820152602001610d21565b50505f910152565b602081525f8251806020840152610d5f816040850160208701610d1f565b601f01601f19169190910160400192915050565b634e487b7160e01b5f52601160045260245ffd5b8181038181111561068a5761068a610d73565b634e487b7160e01b5f52604160045260245ffd5b8082018082111561068a5761068a610d73565b606160f81b815260f084901b6001600160f01b0319166001820152703d81600a3d39f3363d3d373d3d3d363d7360781b6003820152606083901b6bffffffffffffffffffffffff191660148201526e5af43d82803e903d91602b57fd5bf360881b602882015281515f90610e3c816037850160208701610d1f565b9190910160370194935050505056fea2646970667358221220ac5eb60af5c50b595a066f01f77a57337a86f8f6c66df7f4df3ff3767269268d64736f6c63430008180033",
  "linkReferences": {},
  "deployedLinkReferences": {}
}