{
  "_format": "hh-sol-artifact-1",
  "contractName": "$ERC721Burnable",
  "sourceName": "contracts-exposed/token/ERC721/extensions/ERC721Burnable.sol",
  "abi": [
    {
      "inputs": [
        {
          "internalType": "string",
          "name": "name_",
          "type": "string"
        },
        {
          "internalType": "string",
          "name": "symbol_",
          "type": "string"
        }
      ],
      "stateMutability": "payable",
      "type": "constructor"
    },
    {
      "inputs": [
        {
          "internalType": "address",
          "name": "sender",
          "type": "address"
        },
        {
          "internalType": "uint256",
          "name": "tokenId",
          "type": "uint256"
        },
        {
          "internalType": "address",
          "name": "owner",
          "type": "address"
        }
      ],
      "name": "ERC721IncorrectOwner",
      "type": "error"
    },
    {
      "inputs": [
        {
          "internalType": "address",
          "name": "operator",
          "type": "address"
        },
        {
          "internalType": "uint256",
          "name": "tokenId",
          "type": "uint256"
        }
      ],
      "name": "ERC721InsufficientApproval",
      "type": "error"
    },
    {
      "inputs": [
        {
          "internalType": "address",
          "name": "approver",
          "type": "address"
        }
      ],
      "name": "ERC721InvalidApprover",
      "type": "error"
    },
    {
      "inputs": [
        {
          "internalType": "address",
          "name": "operator",
          "type": "address"
        }
      ],
      "name": "ERC721InvalidOperator",
      "type": "error"
    },
    {
      "inputs": [
        {
          "internalType": "address",
          "name": "owner",
          "type": "address"
        }
      ],
      "name": "ERC721InvalidOwner",
      "type": "error"
    },
    {
      "inputs": [
        {
          "internalType": "address",
          "name": "receiver",
          "type": "address"
        }
      ],
      "name": "ERC721InvalidReceiver",
      "type": "error"
    },
    {
      "inputs": [
        {
          "internalType": "address",
          "name": "sender",
          "type": "address"
        }
      ],
      "name": "ERC721InvalidSender",
      "type": "error"
    },
    {
      "inputs": [
        {
          "internalType": "uint256",
          "name": "tokenId",
          "type": "uint256"
        }
      ],
      "name": "ERC721NonexistentToken",
      "type": "error"
    },
    {
      "anonymous": false,
      "inputs": [
        {
          "indexed": true,
          "internalType": "address",
          "name": "owner",
          "type": "address"
        },
        {
          "indexed": true,
          "internalType": "address",
          "name": "approved",
          "type": "address"
        },
        {
          "indexed": true,
          "internalType": "uint256",
          "name": "tokenId",
          "type": "uint256"
        }
      ],
      "name": "Approval",
      "type": "event"
    },
    {
      "anonymous": false,
      "inputs": [
        {
          "indexed": true,
          "internalType": "address",
          "name": "owner",
          "type": "address"
        },
        {
          "indexed": true,
          "internalType": "address",
          "name": "operator",
          "type": "address"
        },
        {
          "indexed": false,
          "internalType": "bool",
          "name": "approved",
          "type": "bool"
        }
      ],
      "name": "ApprovalForAll",
      "type": "event"
    },
    {
      "anonymous": false,
      "inputs": [
        {
          "indexed": true,
          "internalType": "address",
          "name": "from",
          "type": "address"
        },
        {
          "indexed": true,
          "internalType": "address",
          "name": "to",
          "type": "address"
        },
        {
          "indexed": true,
          "internalType": "uint256",
          "name": "tokenId",
          "type": "uint256"
        }
      ],
      "name": "Transfer",
      "type": "event"
    },
    {
      "anonymous": false,
      "inputs": [
        {
          "indexed": false,
          "internalType": "address",
          "name": "ret0",
          "type": "address"
        }
      ],
      "name": "return$_update",
      "type": "event"
    },
    {
      "inputs": [
        {
          "internalType": "address",
          "name": "to",
          "type": "address"
        },
        {
          "internalType": "uint256",
          "name": "tokenId",
          "type": "uint256"
        },
        {
          "internalType": "address",
          "name": "auth",
          "type": "address"
        },
        {
          "internalType": "bool",
          "name": "emitEvent",
          "type": "bool"
        }
      ],
      "name": "$_approve",
      "outputs": [],
      "stateMutability": "nonpayable",
      "type": "function"
    },
    {
      "inputs": [
        {
          "internalType": "address",
          "name": "to",
          "type": "address"
        },
        {
          "internalType": "uint256",
          "name": "tokenId",
          "type": "uint256"
        },
        {
          "internalType": "address",
          "name": "auth",
          "type": "address"
        }
      ],
      "name": "$_approve",
      "outputs": [],
      "stateMutability": "nonpayable",
      "type": "function"
    },
    {
      "inputs": [],
      "name": "$_baseURI",
      "outputs": [
        {
          "internalType": "string",
          "name": "ret0",
          "type": "string"
        }
      ],
      "stateMutability": "view",
      "type": "function"
    },
    {
      "inputs": [
        {
          "internalType": "uint256",
          "name": "tokenId",
          "type": "uint256"
        }
      ],
      "name": "$_burn",
      "outputs": [],
      "stateMutability": "nonpayable",
      "type": "function"
    },
    {
      "inputs": [
        {
          "internalType": "address",
          "name": "owner",
          "type": "address"
        },
        {
          "internalType": "address",
          "name": "spender",
          "type": "address"
        },
        {
          "internalType": "uint256",
          "name": "tokenId",
          "type": "uint256"
        }
      ],
      "name": "$_checkAuthorized",
      "outputs": [],
      "stateMutability": "view",
      "type": "function"
    },
    {
      "inputs": [],
      "name": "$_contextSuffixLength",
      "outputs": [
        {
          "internalType": "uint256",
          "name": "ret0",
          "type": "uint256"
        }
      ],
      "stateMutability": "view",
      "type": "function"
    },
    {
      "inputs": [
        {
          "internalType": "uint256",
          "name": "tokenId",
          "type": "uint256"
        }
      ],
      "name": "$_getApproved",
      "outputs": [
        {
          "internalType": "address",
          "name": "ret0",
          "type": "address"
        }
      ],
      "stateMutability": "view",
      "type": "function"
    },
    {
      "inputs": [
        {
          "internalType": "address",
          "name": "account",
          "type": "address"
        },
        {
          "internalType": "uint128",
          "name": "value",
          "type": "uint128"
        }
      ],
      "name": "$_increaseBalance",
      "outputs": [],
      "stateMutability": "nonpayable",
      "type": "function"
    },
    {
      "inputs": [
        {
          "internalType": "address",
          "name": "owner",
          "type": "address"
        },
        {
          "internalType": "address",
          "name": "spender",
          "type": "address"
        },
        {
          "internalType": "uint256",
          "name": "tokenId",
          "type": "uint256"
        }
      ],
      "name": "$_isAuthorized",
      "outputs": [
        {
          "internalType": "bool",
          "name": "ret0",
          "type": "bool"
        }
      ],
      "stateMutability": "view",
      "type": "function"
    },
    {
      "inputs": [
        {
          "internalType": "address",
          "name": "to",
          "type": "address"
        },
        {
          "internalType": "uint256",
          "name": "tokenId",
          "type": "uint256"
        }
      ],
      "name": "$_mint",
      "outputs": [],
      "stateMutability": "nonpayable",
      "type": "function"
    },
    {
      "inputs": [],
      "name": "$_msgData",
      "outputs": [
        {
          "internalType": "bytes",
          "name": "ret0",
          "type": "bytes"
        }
      ],
      "stateMutability": "view",
      "type": "function"
    },
    {
      "inputs": [],
      "name": "$_msgSender",
      "outputs": [
        {
          "internalType": "address",
          "name": "ret0",
          "type": "address"
        }
      ],
      "stateMutability": "view",
      "type": "function"
    },
    {
      "inputs": [
        {
          "internalType": "uint256",
          "name": "tokenId",
          "type": "uint256"
        }
      ],
      "name": "$_ownerOf",
      "outputs": [
        {
          "internalType": "address",
          "name": "ret0",
          "type": "address"
        }
      ],
      "stateMutability": "view",
      "type": "function"
    },
    {
      "inputs": [
        {
          "internalType": "uint256",
          "name": "tokenId",
          "type": "uint256"
        }
      ],
      "name": "$_requireOwned",
      "outputs": [
        {
          "internalType": "address",
          "name": "ret0",
          "type": "address"
        }
      ],
      "stateMutability": "view",
      "type": "function"
    },
    {
      "inputs": [
        {
          "internalType": "address",
          "name": "to",
          "type": "address"
        },
        {
          "internalType": "uint256",
          "name": "tokenId",
          "type": "uint256"
        },
        {
          "internalType": "bytes",
          "name": "data",
          "type": "bytes"
        }
      ],
      "name": "$_safeMint",
      "outputs": [],
      "stateMutability": "nonpayable",
      "type": "function"
    },
    {
      "inputs": [
        {
          "internalType": "address",
          "name": "to",
          "type": "address"
        },
        {
          "internalType": "uint256",
          "name": "tokenId",
          "type": "uint256"
        }
      ],
      "name": "$_safeMint",
      "outputs": [],
      "stateMutability": "nonpayable",
      "type": "function"
    },
    {
      "inputs": [
        {
          "internalType": "address",
          "name": "from",
          "type": "address"
        },
        {
          "internalType": "address",
          "name": "to",
          "type": "address"
        },
        {
          "internalType": "uint256",
          "name": "tokenId",
          "type": "uint256"
        },
        {
          "internalType": "bytes",
          "name": "data",
          "type": "bytes"
        }
      ],
      "name": "$_safeTransfer",
      "outputs": [],
      "stateMutability": "nonpayable",
      "type": "function"
    },
    {
      "inputs": [
        {
          "internalType": "address",
          "name": "from",
          "type": "address"
        },
        {
          "internalType": "address",
          "name": "to",
          "type": "address"
        },
        {
          "internalType": "uint256",
          "name": "tokenId",
          "type": "uint256"
        }
      ],
      "name": "$_safeTransfer",
      "outputs": [],
      "stateMutability": "nonpayable",
      "type": "function"
    },
    {
      "inputs": [
        {
          "internalType": "address",
          "name": "owner",
          "type": "address"
        },
        {
          "internalType": "address",
          "name": "operator",
          "type": "address"
        },
        {
          "internalType": "bool",
          "name": "approved",
          "type": "bool"
        }
      ],
      "name": "$_setApprovalForAll",
      "outputs": [],
      "stateMutability": "nonpayable",
      "type": "function"
    },
    {
      "inputs": [
        {
          "internalType": "address",
          "name": "from",
          "type": "address"
        },
        {
          "internalType": "address",
          "name": "to",
          "type": "address"
        },
        {
          "internalType": "uint256",
          "name": "tokenId",
          "type": "uint256"
        }
      ],
      "name": "$_transfer",
      "outputs": [],
      "stateMutability": "nonpayable",
      "type": "function"
    },
    {
      "inputs": [
        {
          "internalType": "address",
          "name": "to",
          "type": "address"
        },
        {
          "internalType": "uint256",
          "name": "tokenId",
          "type": "uint256"
        },
        {
          "internalType": "address",
          "name": "auth",
          "type": "address"
        }
      ],
      "name": "$_update",
      "outputs": [
        {
          "internalType": "address",
          "name": "ret0",
          "type": "address"
        }
      ],
      "stateMutability": "nonpayable",
      "type": "function"
    },
    {
      "inputs": [],
      "name": "__hh_exposed_bytecode_marker",
      "outputs": [
        {
          "internalType": "bytes32",
          "name": "",
          "type": "bytes32"
        }
      ],
      "stateMutability": "view",
      "type": "function"
    },
    {
      "inputs": [
        {
          "internalType": "address",
          "name": "to",
          "type": "address"
        },
        {
          "internalType": "uint256",
          "name": "tokenId",
          "type": "uint256"
        }
      ],
      "name": "approve",
      "outputs": [],
      "stateMutability": "nonpayable",
      "type": "function"
    },
    {
      "inputs": [
        {
          "internalType": "address",
          "name": "owner",
          "type": "address"
        }
      ],
      "name": "balanceOf",
      "outputs": [
        {
          "internalType": "uint256",
          "name": "",
          "type": "uint256"
        }
      ],
      "stateMutability": "view",
      "type": "function"
    },
    {
      "inputs": [
        {
          "internalType": "uint256",
          "name": "tokenId",
          "type": "uint256"
        }
      ],
      "name": "burn",
      "outputs": [],
      "stateMutability": "nonpayable",
      "type": "function"
    },
    {
      "inputs": [
        {
          "internalType": "uint256",
          "name": "tokenId",
          "type": "uint256"
        }
      ],
      "name": "getApproved",
      "outputs": [
        {
          "internalType": "address",
          "name": "",
          "type": "address"
        }
      ],
      "stateMutability": "view",
      "type": "function"
    },
    {
      "inputs": [
        {
          "internalType": "address",
          "name": "owner",
          "type": "address"
        },
        {
          "internalType": "address",
          "name": "operator",
          "type": "address"
        }
      ],
      "name": "isApprovedForAll",
      "outputs": [
        {
          "internalType": "bool",
          "name": "",
          "type": "bool"
        }
      ],
      "stateMutability": "view",
      "type": "function"
    },
    {
      "inputs": [],
      "name": "name",
      "outputs": [
        {
          "internalType": "string",
          "name": "",
          "type": "string"
        }
      ],
      "stateMutability": "view",
      "type": "function"
    },
    {
      "inputs": [
        {
          "internalType": "uint256",
          "name": "tokenId",
          "type": "uint256"
        }
      ],
      "name": "ownerOf",
      "outputs": [
        {
          "internalType": "address",
          "name": "",
          "type": "address"
        }
      ],
      "stateMutability": "view",
      "type": "function"
    },
    {
      "inputs": [
        {
          "internalType": "address",
          "name": "from",
          "type": "address"
        },
        {
          "internalType": "address",
          "name": "to",
          "type": "address"
        },
        {
          "internalType": "uint256",
          "name": "tokenId",
          "type": "uint256"
        }
      ],
      "name": "safeTransferFrom",
      "outputs": [],
      "stateMutability": "nonpayable",
      "type": "function"
    },
    {
      "inputs": [
        {
          "internalType": "address",
          "name": "from",
          "type": "address"
        },
        {
          "internalType": "address",
          "name": "to",
          "type": "address"
        },
        {
          "internalType": "uint256",
          "name": "tokenId",
          "type": "uint256"
        },
        {
          "internalType": "bytes",
          "name": "data",
          "type": "bytes"
        }
      ],
      "name": "safeTransferFrom",
      "outputs": [],
      "stateMutability": "nonpayable",
      "type": "function"
    },
    {
      "inputs": [
        {
          "internalType": "address",
          "name": "operator",
          "type": "address"
        },
        {
          "internalType": "bool",
          "name": "approved",
          "type": "bool"
        }
      ],
      "name": "setApprovalForAll",
      "outputs": [],
      "stateMutability": "nonpayable",
      "type": "function"
    },
    {
      "inputs": [
        {
          "internalType": "bytes4",
          "name": "interfaceId",
          "type": "bytes4"
        }
      ],
      "name": "supportsInterface",
      "outputs": [
        {
          "internalType": "bool",
          "name": "",
          "type": "bool"
        }
      ],
      "stateMutability": "view",
      "type": "function"
    },
    {
      "inputs": [],
      "name": "symbol",
      "outputs": [
        {
          "internalType": "string",
          "name": "",
          "type": "string"
        }
      ],
      "stateMutability": "view",
      "type": "function"
    },
    {
      "inputs": [
        {
          "internalType": "uint256",
          "name": "tokenId",
          "type": "uint256"
        }
      ],
      "name": "tokenURI",
      "outputs": [
        {
          "internalType": "string",
          "name": "",
          "type": "string"
        }
      ],
      "stateMutability": "view",
      "type": "function"
    },
    {
      "inputs": [
        {
          "internalType": "address",
          "name": "from",
          "type": "address"
        },
        {
          "internalType": "address",
          "name": "to",
          "type": "address"
        },
        {
          "internalType": "uint256",
          "name": "tokenId",
          "type": "uint256"
        }
      ],
      "name": "transferFrom",
      "outputs": [],
      "stateMutability": "nonpayable",
      "type": "function"
    },
    {
      "stateMutability": "payable",
      "type": "receive"
    }
  ],
  "bytecode": "0x608060405260405162001b6e38038062001b6e833981016040819052620000269162000110565b81815f62000035838262000200565b50600162000044828262000200565b5050505050620002cc565b634e487b7160e01b5f52604160045260245ffd5b5f82601f83011262000073575f80fd5b81516001600160401b03808211156200009057620000906200004f565b604051601f8301601f19908116603f01168101908282118183101715620000bb57620000bb6200004f565b8160405283815260209250866020858801011115620000d8575f80fd5b5f91505b83821015620000fb5785820183015181830184015290820190620000dc565b5f602085830101528094505050505092915050565b5f806040838503121562000122575f80fd5b82516001600160401b038082111562000139575f80fd5b620001478683870162000063565b935060208501519150808211156200015d575f80fd5b506200016c8582860162000063565b9150509250929050565b600181811c908216806200018b57607f821691505b602082108103620001aa57634e487b7160e01b5f52602260045260245ffd5b50919050565b601f821115620001fb57805f5260205f20601f840160051c81016020851015620001d75750805b601f840160051c820191505b81811015620001f8575f8155600101620001e3565b50505b505050565b81516001600160401b038111156200021c576200021c6200004f565b62000234816200022d845462000176565b84620001b0565b602080601f8311600181146200026a575f8415620002525750858301515b5f19600386901b1c1916600185901b178555620002c4565b5f85815260208120601f198616915b828110156200029a5788860151825594840194600190910190840162000279565b5085821015620002b857878501515f19600388901b60f8161c191681555b505060018460011b0185555b505050505050565b61189480620002da5f395ff3fe60806040526004361061020a575f3560e01c806370a0823111610113578063c67072011161009d578063d261af541161006d578063d261af54146105e6578063d848383414610605578063e3cb9a4a14610624578063e985e9c514610643578063efb43b0714610662575f80fd5b8063c67072011461042d578063c87b56dd14610589578063cc461d62146105a8578063cfeea0d4146105c7575f80fd5b806395d89b41116100e357806395d89b41146104f95780639ff2f02d1461050d578063a22cb4651461052c578063a2373a821461054b578063b88d4fde1461056a575f80fd5b806370a082311461047d578063733555ec1461049c5780637a7be036146104bb57806390104b84146104da575f80fd5b806332cadf3c1161019457806342966c681161016457806342966c68146103ef578063458ee0021461040e5780636352211e1461042d57806367354a841461044c5780636884d58b1461045e575f80fd5b806332cadf3c1461036a578063342db7391461037e5780633451b14d146103b157806342842e0e146103d0575f80fd5b8063113efe1a116101da578063113efe1a146102c2578063161e977d1461030657806323b872dd1461031a5780632904df291461033957806330f3b0b51461034b575f80fd5b806301ffc9a71461021557806306fdde0314610249578063081812fc1461026a578063095ea7b3146102a1575f80fd5b3661021157005b5f80fd5b348015610220575f80fd5b5061023461022f36600461132b565b610681565b60405190151581526020015b60405180910390f35b348015610254575f80fd5b5061025d6106d2565b6040516102409190611393565b348015610275575f80fd5b506102896102843660046113a5565b610761565b6040516001600160a01b039091168152602001610240565b3480156102ac575f80fd5b506102c06102bb3660046113d7565b610788565b005b3480156102cd575f80fd5b506102c06102dc3660046113ff565b6001600160a01b0382165f90815260036020526040902080546001600160801b0383160190555050565b348015610311575f80fd5b5061025d610797565b348015610325575f80fd5b506102c061033436600461143f565b6107b2565b348015610344575f80fd5b5033610289565b348015610356575f80fd5b506102c0610365366004611487565b610840565b348015610375575f80fd5b5061025d61084c565b348015610389575f80fd5b506103a36e1a185c991a185d0b595e1c1bdcd959608a1b81565b604051908152602001610240565b3480156103bc575f80fd5b506102896103cb3660046113a5565b610889565b3480156103db575f80fd5b506102c06103ea36600461143f565b6108a5565b3480156103fa575f80fd5b506102c06104093660046113a5565b6108c4565b348015610419575f80fd5b506102896104283660046113a5565b6108cf565b348015610438575f80fd5b506102896104473660046113a5565b6108eb565b348015610457575f80fd5b505f6103a3565b348015610469575f80fd5b506102c061047836600461143f565b6108f5565b348015610488575f80fd5b506103a36104973660046114d1565b610900565b3480156104a7575f80fd5b506102c06104b636600461152f565b610945565b3480156104c6575f80fd5b506102346104d536600461143f565b61098d565b3480156104e5575f80fd5b506102c06104f4366004611599565b6109a1565b348015610504575f80fd5b5061025d6109ac565b348015610518575f80fd5b506102c06105273660046115d2565b6109bb565b348015610537575f80fd5b506102c0610546366004611628565b6109fb565b348015610556575f80fd5b506102c06105653660046113a5565b610a06565b348015610575575f80fd5b506102c061058436600461166d565b610a12565b348015610594575f80fd5b5061025d6105a33660046113a5565b610a2a565b3480156105b3575f80fd5b506102c06105c23660046113d7565b610a9b565b3480156105d2575f80fd5b506102c06105e1366004611742565b610aa5565b3480156105f1575f80fd5b506102c06106003660046113d7565b610ab0565b348015610610575f80fd5b506102c061061f36600461143f565b610aba565b34801561062f575f80fd5b5061028961063e366004611599565b610ac5565b34801561064e575f80fd5b5061023461065d366004611779565b610b17565b34801561066d575f80fd5b506102c061067c36600461143f565b610b44565b5f6001600160e01b031982166380ac58cd60e01b14806106b157506001600160e01b03198216635b5e139f60e01b145b806106cc57506301ffc9a760e01b6001600160e01b03198316145b92915050565b60605f80546106e0906117a1565b80601f016020809104026020016040519081016040528092919081815260200182805461070c906117a1565b80156107575780601f1061072e57610100808354040283529160200191610757565b820191905f5260205f20905b81548152906001019060200180831161073a57829003601f168201915b5050505050905090565b5f61076b82610b4f565b505f828152600460205260409020546001600160a01b03166106cc565b610793828233610b87565b5050565b60606107ad60408051602081019091525f815290565b905090565b6001600160a01b0382166107e057604051633250574960e11b81525f60048201526024015b60405180910390fd5b5f6107ec838333610b94565b9050836001600160a01b0316816001600160a01b03161461083a576040516364283d7b60e01b81526001600160a01b03808616600483015260248201849052821660448201526064016107d7565b50505050565b61083a84848484610c86565b60605f368080601f0160208091040260200160405190810160405280939291908181526020018383808284375f9201919091525092949350505050565b5f818152600460205260408120546001600160a01b03166106cc565b6108bf83838360405180602001604052805f815250610a12565b505050565b6107935f8233610b94565b5f818152600260205260408120546001600160a01b03166106cc565b5f6106cc82610b4f565b6108bf838383610d8a565b5f6001600160a01b03821661092a576040516322718ad960e21b81525f60048201526024016107d7565b506001600160a01b03165f9081526003602052604090205490565b61098685858585858080601f0160208091040260200160405190810160405280939291908181526020018383808284375f92019190915250610dee92505050565b5050505050565b5f610999848484610df9565b949350505050565b6108bf838383610b87565b6060600180546106e0906117a1565b61083a848484848080601f0160208091040260200160405190810160405280939291908181526020018383808284375f92019190915250610e5a92505050565b610793338383610e71565b610a0f81610f0f565b50565b610a1d8484846107b2565b61083a3385858585610f47565b6060610a3582610b4f565b505f610a4b60408051602081019091525f815290565b90505f815111610a695760405180602001604052805f815250610a94565b80610a738461106e565b604051602001610a849291906117d9565b6040516020818303038152906040525b9392505050565b61079382826110fe565b6108bf838383610e71565b610793828261115f565b6108bf838383611178565b5f610ad1848484610b94565b6040516001600160a01b03821681529091507ffc55619107f02333de2d9626fe994a6b9d0734bee4722e17698d6fa1b06c52009060200160405180910390a19392505050565b6001600160a01b039182165f90815260056020908152604080832093909416825291909152205460ff1690565b6108bf838383611192565b5f818152600260205260408120546001600160a01b0316806106cc57604051637e27328960e01b8152600481018490526024016107d7565b6108bf8383836001610c86565b5f828152600260205260408120546001600160a01b0390811690831615610bc057610bc0818486610d8a565b6001600160a01b03811615610bfa57610bdb5f855f80610c86565b6001600160a01b0381165f90815260036020526040902080545f190190555b6001600160a01b03851615610c28576001600160a01b0385165f908152600360205260409020805460010190555b5f8481526002602052604080822080546001600160a01b0319166001600160a01b0389811691821790925591518793918516917fddf252ad1be2c89b69c2b068fc378daa952ba7f163c4a11628f55a4df523b3ef91a4949350505050565b8080610c9a57506001600160a01b03821615155b15610d5b575f610ca984610b4f565b90506001600160a01b03831615801590610cd55750826001600160a01b0316816001600160a01b031614155b8015610ce85750610ce68184610b17565b155b15610d115760405163a9fbf51f60e01b81526001600160a01b03841660048201526024016107d7565b8115610d595783856001600160a01b0316826001600160a01b03167f8c5be1e5ebec7d5bd14f71427d1e84f3dd0314c0f7b2291e5b200ac8c7c3b92560405160405180910390a45b505b50505f90815260046020526040902080546001600160a01b0319166001600160a01b0392909216919091179055565b610d95838383610df9565b6108bf576001600160a01b038316610dc357604051637e27328960e01b8152600481018290526024016107d7565b60405163177e802f60e01b81526001600160a01b0383166004820152602481018290526044016107d7565b610a1d848484611192565b5f6001600160a01b038316158015906109995750826001600160a01b0316846001600160a01b03161480610e325750610e328484610b17565b806109995750505f908152600460205260409020546001600160a01b03908116911614919050565b610e6483836110fe565b6108bf335f858585610f47565b6001600160a01b038216610ea357604051630b61174360e31b81526001600160a01b03831660048201526024016107d7565b6001600160a01b038381165f81815260056020908152604080832094871680845294825291829020805460ff191686151590811790915591519182527f17307eab39ab6107e8899845ad3d59bd9653f200f220920489ca2b5937696c31910160405180910390a3505050565b5f610f1b5f835f610b94565b90506001600160a01b03811661079357604051637e27328960e01b8152600481018390526024016107d7565b6001600160a01b0383163b1561098657604051630a85bd0160e11b81526001600160a01b0384169063150b7a0290610f89908890889087908790600401611807565b6020604051808303815f875af1925050508015610fc3575060408051601f3d908101601f19168201909252610fc091810190611843565b60015b61102a573d808015610ff0576040519150601f19603f3d011682016040523d82523d5f602084013e610ff5565b606091505b5080515f0361102257604051633250574960e11b81526001600160a01b03851660048201526024016107d7565b805181602001fd5b6001600160e01b03198116630a85bd0160e11b1461106657604051633250574960e11b81526001600160a01b03851660048201526024016107d7565b505050505050565b60605f61107a8361123f565b60010190505f8167ffffffffffffffff81111561109957611099611659565b6040519080825280601f01601f1916602001820160405280156110c3576020820181803683370190505b5090508181016020015b5f19016f181899199a1a9b1b9c1cb0b131b232b360811b600a86061a8153600a85049450846110cd57509392505050565b6001600160a01b03821661112757604051633250574960e11b81525f60048201526024016107d7565b5f61113383835f610b94565b90506001600160a01b038116156108bf576040516339e3563760e11b81525f60048201526024016107d7565b610793828260405180602001604052805f815250610e5a565b6108bf83838360405180602001604052805f815250610dee565b6001600160a01b0382166111bb57604051633250574960e11b81525f60048201526024016107d7565b5f6111c783835f610b94565b90506001600160a01b0381166111f357604051637e27328960e01b8152600481018390526024016107d7565b836001600160a01b0316816001600160a01b03161461083a576040516364283d7b60e01b81526001600160a01b03808616600483015260248201849052821660448201526064016107d7565b5f8072184f03e93ff9f4daa797ed6e38ed64bf6a1f0160401b831061127d5772184f03e93ff9f4daa797ed6e38ed64bf6a1f0160401b830492506040015b6d04ee2d6d415b85acef810000000083106112a9576d04ee2d6d415b85acef8100000000830492506020015b662386f26fc1000083106112c757662386f26fc10000830492506010015b6305f5e10083106112df576305f5e100830492506008015b61271083106112f357612710830492506004015b60648310611305576064830492506002015b600a83106106cc5760010192915050565b6001600160e01b031981168114610a0f575f80fd5b5f6020828403121561133b575f80fd5b8135610a9481611316565b5f5b83811015611360578181015183820152602001611348565b50505f910152565b5f815180845261137f816020860160208601611346565b601f01601f19169290920160200192915050565b602081525f610a946020830184611368565b5f602082840312156113b5575f80fd5b5035919050565b80356001600160a01b03811681146113d2575f80fd5b919050565b5f80604083850312156113e8575f80fd5b6113f1836113bc565b946020939093013593505050565b5f8060408385031215611410575f80fd5b611419836113bc565b915060208301356001600160801b0381168114611434575f80fd5b809150509250929050565b5f805f60608486031215611451575f80fd5b61145a846113bc565b9250611468602085016113bc565b9150604084013590509250925092565b803580151581146113d2575f80fd5b5f805f806080858703121561149a575f80fd5b6114a3856113bc565b9350602085013592506114b8604086016113bc565b91506114c660608601611478565b905092959194509250565b5f602082840312156114e1575f80fd5b610a94826113bc565b5f8083601f8401126114fa575f80fd5b50813567ffffffffffffffff811115611511575f80fd5b602083019150836020828501011115611528575f80fd5b9250929050565b5f805f805f60808688031215611543575f80fd5b61154c866113bc565b945061155a602087016113bc565b935060408601359250606086013567ffffffffffffffff81111561157c575f80fd5b611588888289016114ea565b969995985093965092949392505050565b5f805f606084860312156115ab575f80fd5b6115b4846113bc565b9250602084013591506115c9604085016113bc565b90509250925092565b5f805f80606085870312156115e5575f80fd5b6115ee856113bc565b935060208501359250604085013567ffffffffffffffff811115611610575f80fd5b61161c878288016114ea565b95989497509550505050565b5f8060408385031215611639575f80fd5b611642836113bc565b915061165060208401611478565b90509250929050565b634e487b7160e01b5f52604160045260245ffd5b5f805f8060808587031215611680575f80fd5b611689856113bc565b9350611697602086016113bc565b925060408501359150606085013567ffffffffffffffff808211156116ba575f80fd5b818701915087601f8301126116cd575f80fd5b8135818111156116df576116df611659565b604051601f8201601f19908116603f0116810190838211818310171561170757611707611659565b816040528281528a602084870101111561171f575f80fd5b826020860160208301375f60208483010152809550505050505092959194509250565b5f805f60608486031215611754575f80fd5b61175d846113bc565b925061176b602085016113bc565b91506115c960408501611478565b5f806040838503121561178a575f80fd5b611793836113bc565b9150611650602084016113bc565b600181811c908216806117b557607f821691505b6020821081036117d357634e487b7160e01b5f52602260045260245ffd5b50919050565b5f83516117ea818460208801611346565b8351908301906117fe818360208801611346565b01949350505050565b6001600160a01b03858116825284166020820152604081018390526080606082018190525f9061183990830184611368565b9695505050505050565b5f60208284031215611853575f80fd5b8151610a948161131656fea26469706673582212201a15c22f74019b2823ce1c405715129ac76b7ddfa4f3dca18e2a1dfb6700f7d964736f6c63430008180033",
  "linkReferences": {},
  "deployedLinkReferences": {}
}