{
  "_format": "hh-sol-artifact-1",
  "contractName": "$ERC1363SpenderMock",
  "sourceName": "contracts-exposed/mocks/token/ERC1363SpenderMock.sol",
  "abi": [
    {
      "inputs": [],
      "stateMutability": "payable",
      "type": "constructor"
    },
    {
      "inputs": [
        {
          "internalType": "bytes4",
          "name": "",
          "type": "bytes4"
        }
      ],
      "name": "CustomError",
      "type": "error"
    },
    {
      "anonymous": false,
      "inputs": [
        {
          "indexed": false,
          "internalType": "address",
          "name": "owner",
          "type": "address"
        },
        {
          "indexed": false,
          "internalType": "uint256",
          "name": "value",
          "type": "uint256"
        },
        {
          "indexed": false,
          "internalType": "bytes",
          "name": "data",
          "type": "bytes"
        }
      ],
      "name": "Approved",
      "type": "event"
    },
    {
      "inputs": [],
      "name": "__hh_exposed_bytecode_marker",
      "outputs": [
        {
          "internalType": "bytes32",
          "name": "",
          "type": "bytes32"
        }
      ],
      "stateMutability": "view",
      "type": "function"
    },
    {
      "inputs": [
        {
          "internalType": "address",
          "name": "owner",
          "type": "address"
        },
        {
          "internalType": "uint256",
          "name": "value",
          "type": "uint256"
        },
        {
          "internalType": "bytes",
          "name": "data",
          "type": "bytes"
        }
      ],
      "name": "onApprovalReceived",
      "outputs": [
        {
          "internalType": "bytes4",
          "name": "",
          "type": "bytes4"
        }
      ],
      "stateMutability": "nonpayable",
      "type": "function"
    },
    {
      "inputs": [
        {
          "internalType": "bytes4",
          "name": "retval",
          "type": "bytes4"
        },
        {
          "internalType": "enum ERC1363SpenderMock.RevertType",
          "name": "error",
          "type": "uint8"
        }
      ],
      "name": "setUp",
      "outputs": [],
      "stateMutability": "nonpayable",
      "type": "function"
    },
    {
      "stateMutability": "payable",
      "type": "receive"
    }
  ],
  "bytecode": "0x60806040525f805464ffffffffff1916637b04a2d0179055610404806100245f395ff3fe608060405260043610610036575f3560e01c8063342db7391461004157806379317985146100795780637b04a2d01461009a575f80fd5b3661003d57005b5f80fd5b34801561004c575f80fd5b506100666e1a185c991a185d0b595e1c1bdcd959608a1b81565b6040519081526020015b60405180910390f35b348015610084575f80fd5b50610098610093366004610281565b6100d2565b005b3480156100a5575f80fd5b506100b96100b43660046102c7565b610113565b6040516001600160e01b03199091168152602001610070565b5f805460e084901c63ffffffff1982168117835583929164ffffffffff19161764010000000083600481111561010a5761010a610354565b02179055505050565b5f60015f54640100000000900460ff16600481111561013457610134610354565b0361013d575f80fd5b60025f54640100000000900460ff16600481111561015d5761015d610354565b036101af5760405162461bcd60e51b815260206004820152601d60248201527f455243313336335370656e6465724d6f636b3a20726576657274696e6700000060448201526064015b60405180910390fd5b60035f54640100000000900460ff1660048111156101cf576101cf610354565b03610203575f546040516301990d6f60e61b81526101a69160e01b906004016001600160e01b031991909116815260200190565b60045f54640100000000900460ff16600481111561022357610223610354565b03610236575f6102338180610368565b50505b7f1fa7af237aead0c77cd0a035a35b79014351b77f7edcf8d0d003cf14d90fc6318585858560405161026b9493929190610387565b60405180910390a1505f5460e01b949350505050565b5f8060408385031215610292575f80fd5b82356001600160e01b0319811681146102a9575f80fd5b91506020830135600581106102bc575f80fd5b809150509250929050565b5f805f80606085870312156102da575f80fd5b84356001600160a01b03811681146102f0575f80fd5b935060208501359250604085013567ffffffffffffffff80821115610313575f80fd5b818701915087601f830112610326575f80fd5b813581811115610334575f80fd5b886020828501011115610345575f80fd5b95989497505060200194505050565b634e487b7160e01b5f52602160045260245ffd5b5f8261038257634e487b7160e01b5f52601260045260245ffd5b500490565b6001600160a01b0385168152602081018490526060604082018190528101829052818360808301375f818301608090810191909152601f909201601f19160101939250505056fea26469706673582212201ffec14a5a2f8e64874d2a0680e65ebd25f0c1dec154f462e6b45be8f21e8a3264736f6c63430008180033",
  "linkReferences": {},
  "deployedLinkReferences": {}
}