{
  "_format": "hh-sol-artifact-1",
  "contractName": "$MyContract",
  "sourceName": "contracts-exposed/mocks/docs/access-control/MyContractOwnable.sol",
  "abi": [
    {
      "inputs": [
        {
          "internalType": "address",
          "name": "initialOwner",
          "type": "address"
        }
      ],
      "stateMutability": "payable",
      "type": "constructor"
    },
    {
      "inputs": [
        {
          "internalType": "address",
          "name": "owner",
          "type": "address"
        }
      ],
      "name": "OwnableInvalidOwner",
      "type": "error"
    },
    {
      "inputs": [
        {
          "internalType": "address",
          "name": "account",
          "type": "address"
        }
      ],
      "name": "OwnableUnauthorizedAccount",
      "type": "error"
    },
    {
      "anonymous": false,
      "inputs": [
        {
          "indexed": true,
          "internalType": "address",
          "name": "previousOwner",
          "type": "address"
        },
        {
          "indexed": true,
          "internalType": "address",
          "name": "newOwner",
          "type": "address"
        }
      ],
      "name": "OwnershipTransferred",
      "type": "event"
    },
    {
      "inputs": [],
      "name": "$_checkOwner",
      "outputs": [],
      "stateMutability": "view",
      "type": "function"
    },
    {
      "inputs": [],
      "name": "$_contextSuffixLength",
      "outputs": [
        {
          "internalType": "uint256",
          "name": "ret0",
          "type": "uint256"
        }
      ],
      "stateMutability": "view",
      "type": "function"
    },
    {
      "inputs": [],
      "name": "$_msgData",
      "outputs": [
        {
          "internalType": "bytes",
          "name": "ret0",
          "type": "bytes"
        }
      ],
      "stateMutability": "view",
      "type": "function"
    },
    {
      "inputs": [],
      "name": "$_msgSender",
      "outputs": [
        {
          "internalType": "address",
          "name": "ret0",
          "type": "address"
        }
      ],
      "stateMutability": "view",
      "type": "function"
    },
    {
      "inputs": [
        {
          "internalType": "address",
          "name": "newOwner",
          "type": "address"
        }
      ],
      "name": "$_transferOwnership",
      "outputs": [],
      "stateMutability": "nonpayable",
      "type": "function"
    },
    {
      "inputs": [],
      "name": "__hh_exposed_bytecode_marker",
      "outputs": [
        {
          "internalType": "bytes32",
          "name": "",
          "type": "bytes32"
        }
      ],
      "stateMutability": "view",
      "type": "function"
    },
    {
      "inputs": [],
      "name": "normalThing",
      "outputs": [],
      "stateMutability": "nonpayable",
      "type": "function"
    },
    {
      "inputs": [],
      "name": "owner",
      "outputs": [
        {
          "internalType": "address",
          "name": "",
          "type": "address"
        }
      ],
      "stateMutability": "view",
      "type": "function"
    },
    {
      "inputs": [],
      "name": "renounceOwnership",
      "outputs": [],
      "stateMutability": "nonpayable",
      "type": "function"
    },
    {
      "inputs": [],
      "name": "specialThing",
      "outputs": [],
      "stateMutability": "nonpayable",
      "type": "function"
    },
    {
      "inputs": [
        {
          "internalType": "address",
          "name": "newOwner",
          "type": "address"
        }
      ],
      "name": "transferOwnership",
      "outputs": [],
      "stateMutability": "nonpayable",
      "type": "function"
    },
    {
      "stateMutability": "payable",
      "type": "receive"
    }
  ],
  "bytecode": "0x6080604052604051610479380380610479833981016040819052610022916100b1565b80806001600160a01b03811661005157604051631e4fbdf760e01b81525f600482015260240160405180910390fd5b61005a81610062565b5050506100de565b5f80546001600160a01b038381166001600160a01b0319831681178455604051919092169283917f8be0079c531659141344cd1fd0a4f28419497f9722a3daafe3b4186f6b6457e09190a35050565b5f602082840312156100c1575f80fd5b81516001600160a01b03811681146100d7575f80fd5b9392505050565b61038e806100eb5f395ff3fe60806040526004361061009d575f3560e01c806367354a841161006257806367354a841461014a578063715018a61461015c5780638da5cb5b14610170578063ebcca70714610136578063f2fde38b1461018c578063fe1c9a24146101ab575f80fd5b8063163e1d93146100a85780632904df29146100b757806332cadf3c146100e2578063342db7391461010357806335fea8c914610136575f80fd5b366100a457005b5f80fd5b3480156100b3575f80fd5b505b005b3480156100c2575f80fd5b50335b6040516001600160a01b0390911681526020015b60405180910390f35b3480156100ed575f80fd5b506100f66101cc565b6040516100d991906102df565b34801561010e575f80fd5b506101286e1a185c991a185d0b595e1c1bdcd959608a1b81565b6040519081526020016100d9565b348015610141575f80fd5b506100b5610209565b348015610155575f80fd5b505f610128565b348015610167575f80fd5b506100b5610211565b34801561017b575f80fd5b505f546001600160a01b03166100c5565b348015610197575f80fd5b506100b56101a636600461032b565b610222565b3480156101b6575f80fd5b506100b56101c536600461032b565b610258565b565b60605f368080601f0160208091040260200160405190810160405280939291908181526020018383808284375f9201919091525092949350505050565b6101ca610264565b610219610264565b6101ca5f610290565b61022a610264565b6001600160a01b03811661025857604051631e4fbdf760e01b81525f60048201526024015b60405180910390fd5b61026181610290565b50565b5f546001600160a01b031633146101ca5760405163118cdaa760e01b815233600482015260240161024f565b5f80546001600160a01b038381166001600160a01b0319831681178455604051919092169283917f8be0079c531659141344cd1fd0a4f28419497f9722a3daafe3b4186f6b6457e09190a35050565b5f602080835283518060208501525f5b8181101561030b578581018301518582016040015282016102ef565b505f604082860101526040601f19601f8301168501019250505092915050565b5f6020828403121561033b575f80fd5b81356001600160a01b0381168114610351575f80fd5b939250505056fea26469706673582212206798777aa774c3d02235c2a6b389ac8f5bf44ae777698a2e39c4627f6a933c5064736f6c63430008180033",
  "linkReferences": {},
  "deployedLinkReferences": {}
}