{
  "_format": "hh-sol-artifact-1",
  "contractName": "$Multicall",
  "sourceName": "contracts-exposed/utils/Multicall.sol",
  "abi": [
    {
      "inputs": [],
      "stateMutability": "payable",
      "type": "constructor"
    },
    {
      "inputs": [
        {
          "internalType": "address",
          "name": "target",
          "type": "address"
        }
      ],
      "name": "AddressEmptyCode",
      "type": "error"
    },
    {
      "inputs": [],
      "name": "FailedCall",
      "type": "error"
    },
    {
      "inputs": [],
      "name": "$_contextSuffixLength",
      "outputs": [
        {
          "internalType": "uint256",
          "name": "ret0",
          "type": "uint256"
        }
      ],
      "stateMutability": "view",
      "type": "function"
    },
    {
      "inputs": [],
      "name": "$_msgData",
      "outputs": [
        {
          "internalType": "bytes",
          "name": "ret0",
          "type": "bytes"
        }
      ],
      "stateMutability": "view",
      "type": "function"
    },
    {
      "inputs": [],
      "name": "$_msgSender",
      "outputs": [
        {
          "internalType": "address",
          "name": "ret0",
          "type": "address"
        }
      ],
      "stateMutability": "view",
      "type": "function"
    },
    {
      "inputs": [],
      "name": "__hh_exposed_bytecode_marker",
      "outputs": [
        {
          "internalType": "bytes32",
          "name": "",
          "type": "bytes32"
        }
      ],
      "stateMutability": "view",
      "type": "function"
    },
    {
      "inputs": [
        {
          "internalType": "bytes[]",
          "name": "data",
          "type": "bytes[]"
        }
      ],
      "name": "multicall",
      "outputs": [
        {
          "internalType": "bytes[]",
          "name": "results",
          "type": "bytes[]"
        }
      ],
      "stateMutability": "nonpayable",
      "type": "function"
    },
    {
      "stateMutability": "payable",
      "type": "receive"
    }
  ],
  "bytecode": "0x6080604052610541806100115f395ff3fe60806040526004361061004c575f3560e01c80632904df291461005757806332cadf3c14610076578063342db7391461009757806367354a84146100ca578063ac9650d8146100dc575f80fd5b3661005357005b5f80fd5b348015610062575f80fd5b506040513381526020015b60405180910390f35b348015610081575f80fd5b5061008a610108565b60405161006d9190610376565b3480156100a2575f80fd5b506100bc6e1a185c991a185d0b595e1c1bdcd959608a1b81565b60405190815260200161006d565b3480156100d5575f80fd5b505f6100bc565b3480156100e7575f80fd5b506100fb6100f6366004610388565b610145565b60405161006d91906103f7565b60605f368080601f0160208091040260200160405190810160405280939291908181526020018383808284375f9201919091525092949350505050565b604080515f8152602081019091526060908267ffffffffffffffff81111561016f5761016f610459565b6040519080825280602002602001820160405280156101a257816020015b606081526020019060019003908161018d5790505b5091505f5b83811015610223576101fe308686848181106101c5576101c561046d565b90506020028101906101d79190610481565b856040516020016101ea939291906104cb565b60405160208183030381529060405261022b565b8382815181106102105761021061046d565b60209081029190910101526001016101a7565b505092915050565b60605f80846001600160a01b03168460405161024791906104f0565b5f60405180830381855af49150503d805f811461027f576040519150601f19603f3d011682016040523d82523d5f602084013e610284565b606091505b509150915061029485838361029d565b95945050505050565b6060826102b2576102ad82610300565b6102f9565b81511580156102c957506001600160a01b0384163b155b156102f657604051639996b31560e01b81526001600160a01b038516600482015260240160405180910390fd5b50805b9392505050565b8051156103105780518082602001fd5b60405163d6bda27560e01b815260040160405180910390fd5b5f5b8381101561034357818101518382015260200161032b565b50505f910152565b5f8151808452610362816020860160208601610329565b601f01601f19169290920160200192915050565b602081525f6102f9602083018461034b565b5f8060208385031215610399575f80fd5b823567ffffffffffffffff808211156103b0575f80fd5b818501915085601f8301126103c3575f80fd5b8135818111156103d1575f80fd5b8660208260051b85010111156103e5575f80fd5b60209290920196919550909350505050565b5f60208083016020845280855180835260408601915060408160051b8701019250602087015f5b8281101561044c57603f1988860301845261043a85835161034b565b9450928501929085019060010161041e565b5092979650505050505050565b634e487b7160e01b5f52604160045260245ffd5b634e487b7160e01b5f52603260045260245ffd5b5f808335601e19843603018112610496575f80fd5b83018035915067ffffffffffffffff8211156104b0575f80fd5b6020019150368190038213156104c4575f80fd5b9250929050565b828482375f8382015f815283516104e6818360208801610329565b0195945050505050565b5f8251610501818460208701610329565b919091019291505056fea26469706673582212203a41a377641ffb46272f0ed07a8a6f412ea6892130a856f6561714b7b8a2088764736f6c63430008180033",
  "linkReferences": {},
  "deployedLinkReferences": {}
}