{
  "_format": "hh-sol-artifact-1",
  "contractName": "$PausableMock",
  "sourceName": "contracts-exposed/mocks/PausableMock.sol",
  "abi": [
    {
      "inputs": [],
      "stateMutability": "payable",
      "type": "constructor"
    },
    {
      "inputs": [],
      "name": "EnforcedPause",
      "type": "error"
    },
    {
      "inputs": [],
      "name": "ExpectedPause",
      "type": "error"
    },
    {
      "anonymous": false,
      "inputs": [
        {
          "indexed": false,
          "internalType": "address",
          "name": "account",
          "type": "address"
        }
      ],
      "name": "Paused",
      "type": "event"
    },
    {
      "anonymous": false,
      "inputs": [
        {
          "indexed": false,
          "internalType": "address",
          "name": "account",
          "type": "address"
        }
      ],
      "name": "Unpaused",
      "type": "event"
    },
    {
      "inputs": [],
      "name": "$_contextSuffixLength",
      "outputs": [
        {
          "internalType": "uint256",
          "name": "ret0",
          "type": "uint256"
        }
      ],
      "stateMutability": "view",
      "type": "function"
    },
    {
      "inputs": [],
      "name": "$_msgData",
      "outputs": [
        {
          "internalType": "bytes",
          "name": "ret0",
          "type": "bytes"
        }
      ],
      "stateMutability": "view",
      "type": "function"
    },
    {
      "inputs": [],
      "name": "$_msgSender",
      "outputs": [
        {
          "internalType": "address",
          "name": "ret0",
          "type": "address"
        }
      ],
      "stateMutability": "view",
      "type": "function"
    },
    {
      "inputs": [],
      "name": "$_pause",
      "outputs": [],
      "stateMutability": "nonpayable",
      "type": "function"
    },
    {
      "inputs": [],
      "name": "$_requireNotPaused",
      "outputs": [],
      "stateMutability": "view",
      "type": "function"
    },
    {
      "inputs": [],
      "name": "$_requirePaused",
      "outputs": [],
      "stateMutability": "view",
      "type": "function"
    },
    {
      "inputs": [],
      "name": "$_unpause",
      "outputs": [],
      "stateMutability": "nonpayable",
      "type": "function"
    },
    {
      "inputs": [],
      "name": "__hh_exposed_bytecode_marker",
      "outputs": [
        {
          "internalType": "bytes32",
          "name": "",
          "type": "bytes32"
        }
      ],
      "stateMutability": "view",
      "type": "function"
    },
    {
      "inputs": [],
      "name": "count",
      "outputs": [
        {
          "internalType": "uint256",
          "name": "",
          "type": "uint256"
        }
      ],
      "stateMutability": "view",
      "type": "function"
    },
    {
      "inputs": [],
      "name": "drasticMeasure",
      "outputs": [],
      "stateMutability": "nonpayable",
      "type": "function"
    },
    {
      "inputs": [],
      "name": "drasticMeasureTaken",
      "outputs": [
        {
          "internalType": "bool",
          "name": "",
          "type": "bool"
        }
      ],
      "stateMutability": "view",
      "type": "function"
    },
    {
      "inputs": [],
      "name": "normalProcess",
      "outputs": [],
      "stateMutability": "nonpayable",
      "type": "function"
    },
    {
      "inputs": [],
      "name": "pause",
      "outputs": [],
      "stateMutability": "nonpayable",
      "type": "function"
    },
    {
      "inputs": [],
      "name": "paused",
      "outputs": [
        {
          "internalType": "bool",
          "name": "",
          "type": "bool"
        }
      ],
      "stateMutability": "view",
      "type": "function"
    },
    {
      "inputs": [],
      "name": "unpause",
      "outputs": [],
      "stateMutability": "nonpayable",
      "type": "function"
    },
    {
      "stateMutability": "payable",
      "type": "receive"
    }
  ],
  "bytecode": "0x60806040525f805461ffff191681556001556104528061001e5f395ff3fe6080604052600436106100e7575f3560e01c806367354a84116100875780639958f045116100575780639958f0451461021d578063b0a1fefa14610190578063e7651d7a14610231578063f85810a714610209575f80fd5b806367354a84146101c657806376657b8e146101d857806383812241146101f55780638456cb5914610209575f80fd5b806332cadf3c116100c257806332cadf3c1461014a578063342db7391461016b5780633f4ba83a146101905780635c975abb146101a4575f80fd5b806306661abd146100f25780632904df291461011a5780632c85c6e214610134575f80fd5b366100ee57005b5f80fd5b3480156100fd575f80fd5b5061010760015481565b6040519081526020015b60405180910390f35b348015610125575f80fd5b50604051338152602001610111565b34801561013f575f80fd5b50610148610245565b005b348015610155575f80fd5b5061015e61024f565b60405161011191906103ac565b348015610176575f80fd5b506101076e1a185c991a185d0b595e1c1bdcd959608a1b81565b34801561019b575f80fd5b5061014861028c565b3480156101af575f80fd5b505f5460ff165b6040519015158152602001610111565b3480156101d1575f80fd5b505f610107565b3480156101e3575f80fd5b505f546101b690610100900460ff1681565b348015610200575f80fd5b50610148610294565b348015610214575f80fd5b5061014861029c565b348015610228575f80fd5b506101486102a4565b34801561023c575f80fd5b506101486102bc565b61024d6102da565b565b60605f368080601f0160208091040260200160405190810160405280939291908181526020018383808284375f9201919091525092949350505050565b61024d6102fd565b61024d61034e565b61024d610370565b6102ac61034e565b5f805461ff001916610100179055565b6102c46102da565b60018054905f6102d3836103f8565b9190505550565b5f5460ff161561024d5760405163d93c066560e01b815260040160405180910390fd5b61030561034e565b5f805460ff191690557f5db9ee0a495bf2e6ff9c91a7834c1ba4fdd244a5e8aa4e537bd38aeae4b073aa335b6040516001600160a01b03909116815260200160405180910390a1565b5f5460ff1661024d57604051638dfc202b60e01b815260040160405180910390fd5b6103786102da565b5f805460ff191660011790557f62e78cea01bee320cd4e420270b5ea74000d11b0c9f74754ebdbfc544b05a2586103313390565b5f602080835283518060208501525f5b818110156103d8578581018301518582016040015282016103bc565b505f604082860101526040601f19601f8301168501019250505092915050565b5f6001820161041557634e487b7160e01b5f52601160045260245ffd5b506001019056fea264697066735822122021b5e690466831326a7439f31120445c40ab3c2b3ee2b399ac083b76d258b7db64736f6c63430008180033",
  "linkReferences": {},
  "deployedLinkReferences": {}
}