{
  "_format": "hh-sol-artifact-1",
  "contractName": "$Box",
  "sourceName": "contracts-exposed/mocks/docs/utilities/Multicall.sol",
  "abi": [
    {
      "inputs": [],
      "stateMutability": "payable",
      "type": "constructor"
    },
    {
      "inputs": [
        {
          "internalType": "address",
          "name": "target",
          "type": "address"
        }
      ],
      "name": "AddressEmptyCode",
      "type": "error"
    },
    {
      "inputs": [],
      "name": "FailedCall",
      "type": "error"
    },
    {
      "inputs": [],
      "name": "$_contextSuffixLength",
      "outputs": [
        {
          "internalType": "uint256",
          "name": "ret0",
          "type": "uint256"
        }
      ],
      "stateMutability": "view",
      "type": "function"
    },
    {
      "inputs": [],
      "name": "$_msgData",
      "outputs": [
        {
          "internalType": "bytes",
          "name": "ret0",
          "type": "bytes"
        }
      ],
      "stateMutability": "view",
      "type": "function"
    },
    {
      "inputs": [],
      "name": "$_msgSender",
      "outputs": [
        {
          "internalType": "address",
          "name": "ret0",
          "type": "address"
        }
      ],
      "stateMutability": "view",
      "type": "function"
    },
    {
      "inputs": [],
      "name": "__hh_exposed_bytecode_marker",
      "outputs": [
        {
          "internalType": "bytes32",
          "name": "",
          "type": "bytes32"
        }
      ],
      "stateMutability": "view",
      "type": "function"
    },
    {
      "inputs": [],
      "name": "bar",
      "outputs": [],
      "stateMutability": "nonpayable",
      "type": "function"
    },
    {
      "inputs": [],
      "name": "foo",
      "outputs": [],
      "stateMutability": "nonpayable",
      "type": "function"
    },
    {
      "inputs": [
        {
          "internalType": "bytes[]",
          "name": "data",
          "type": "bytes[]"
        }
      ],
      "name": "multicall",
      "outputs": [
        {
          "internalType": "bytes[]",
          "name": "results",
          "type": "bytes[]"
        }
      ],
      "stateMutability": "nonpayable",
      "type": "function"
    },
    {
      "stateMutability": "payable",
      "type": "receive"
    }
  ],
  "bytecode": "0x6080604052610573806100115f395ff3fe608060405260043610610071575f3560e01c806367354a841161004c57806367354a84146100ef578063ac9650d814610101578063c29855781461012d578063febb0f7e1461012d575f80fd5b80632904df291461007c57806332cadf3c1461009b578063342db739146100bc575f80fd5b3661007857005b5f80fd5b348015610087575f80fd5b506040513381526020015b60405180910390f35b3480156100a6575f80fd5b506100af61013a565b60405161009291906103a8565b3480156100c7575f80fd5b506100e16e1a185c991a185d0b595e1c1bdcd959608a1b81565b604051908152602001610092565b3480156100fa575f80fd5b505f6100e1565b34801561010c575f80fd5b5061012061011b3660046103ba565b610177565b6040516100929190610429565b348015610138575f80fd5b005b60605f368080601f0160208091040260200160405190810160405280939291908181526020018383808284375f9201919091525092949350505050565b604080515f8152602081019091526060908267ffffffffffffffff8111156101a1576101a161048b565b6040519080825280602002602001820160405280156101d457816020015b60608152602001906001900390816101bf5790505b5091505f5b8381101561025557610230308686848181106101f7576101f761049f565b905060200281019061020991906104b3565b8560405160200161021c939291906104fd565b60405160208183030381529060405261025d565b8382815181106102425761024261049f565b60209081029190910101526001016101d9565b505092915050565b60605f80846001600160a01b0316846040516102799190610522565b5f60405180830381855af49150503d805f81146102b1576040519150601f19603f3d011682016040523d82523d5f602084013e6102b6565b606091505b50915091506102c68583836102cf565b95945050505050565b6060826102e4576102df82610332565b61032b565b81511580156102fb57506001600160a01b0384163b155b1561032857604051639996b31560e01b81526001600160a01b038516600482015260240160405180910390fd5b50805b9392505050565b8051156103425780518082602001fd5b60405163d6bda27560e01b815260040160405180910390fd5b5f5b8381101561037557818101518382015260200161035d565b50505f910152565b5f815180845261039481602086016020860161035b565b601f01601f19169290920160200192915050565b602081525f61032b602083018461037d565b5f80602083850312156103cb575f80fd5b823567ffffffffffffffff808211156103e2575f80fd5b818501915085601f8301126103f5575f80fd5b813581811115610403575f80fd5b8660208260051b8501011115610417575f80fd5b60209290920196919550909350505050565b5f60208083016020845280855180835260408601915060408160051b8701019250602087015f5b8281101561047e57603f1988860301845261046c85835161037d565b94509285019290850190600101610450565b5092979650505050505050565b634e487b7160e01b5f52604160045260245ffd5b634e487b7160e01b5f52603260045260245ffd5b5f808335601e198436030181126104c8575f80fd5b83018035915067ffffffffffffffff8211156104e2575f80fd5b6020019150368190038213156104f6575f80fd5b9250929050565b828482375f8382015f8152835161051881836020880161035b565b0195945050505050565b5f825161053381846020870161035b565b919091019291505056fea264697066735822122066319bf2a6aac4719938a7cc43d4c4b5233b322af64b39ea00acb8ed96d0861564736f6c63430008180033",
  "linkReferences": {},
  "deployedLinkReferences": {}
}