{
  "_format": "hh-sol-artifact-1",
  "contractName": "ERC20Reentrant",
  "sourceName": "contracts/mocks/token/ERC20Reentrant.sol",
  "abi": [
    {
      "inputs": [
        {
          "internalType": "address",
          "name": "target",
          "type": "address"
        }
      ],
      "name": "AddressEmptyCode",
      "type": "error"
    },
    {
      "inputs": [
        {
          "internalType": "address",
          "name": "spender",
          "type": "address"
        },
        {
          "internalType": "uint256",
          "name": "allowance",
          "type": "uint256"
        },
        {
          "internalType": "uint256",
          "name": "needed",
          "type": "uint256"
        }
      ],
      "name": "ERC20InsufficientAllowance",
      "type": "error"
    },
    {
      "inputs": [
        {
          "internalType": "address",
          "name": "sender",
          "type": "address"
        },
        {
          "internalType": "uint256",
          "name": "balance",
          "type": "uint256"
        },
        {
          "internalType": "uint256",
          "name": "needed",
          "type": "uint256"
        }
      ],
      "name": "ERC20InsufficientBalance",
      "type": "error"
    },
    {
      "inputs": [
        {
          "internalType": "address",
          "name": "approver",
          "type": "address"
        }
      ],
      "name": "ERC20InvalidApprover",
      "type": "error"
    },
    {
      "inputs": [
        {
          "internalType": "address",
          "name": "receiver",
          "type": "address"
        }
      ],
      "name": "ERC20InvalidReceiver",
      "type": "error"
    },
    {
      "inputs": [
        {
          "internalType": "address",
          "name": "sender",
          "type": "address"
        }
      ],
      "name": "ERC20InvalidSender",
      "type": "error"
    },
    {
      "inputs": [
        {
          "internalType": "address",
          "name": "spender",
          "type": "address"
        }
      ],
      "name": "ERC20InvalidSpender",
      "type": "error"
    },
    {
      "inputs": [],
      "name": "FailedCall",
      "type": "error"
    },
    {
      "inputs": [
        {
          "internalType": "uint256",
          "name": "balance",
          "type": "uint256"
        },
        {
          "internalType": "uint256",
          "name": "needed",
          "type": "uint256"
        }
      ],
      "name": "InsufficientBalance",
      "type": "error"
    },
    {
      "anonymous": false,
      "inputs": [
        {
          "indexed": true,
          "internalType": "address",
          "name": "owner",
          "type": "address"
        },
        {
          "indexed": true,
          "internalType": "address",
          "name": "spender",
          "type": "address"
        },
        {
          "indexed": false,
          "internalType": "uint256",
          "name": "value",
          "type": "uint256"
        }
      ],
      "name": "Approval",
      "type": "event"
    },
    {
      "anonymous": false,
      "inputs": [
        {
          "indexed": true,
          "internalType": "address",
          "name": "from",
          "type": "address"
        },
        {
          "indexed": true,
          "internalType": "address",
          "name": "to",
          "type": "address"
        },
        {
          "indexed": false,
          "internalType": "uint256",
          "name": "value",
          "type": "uint256"
        }
      ],
      "name": "Transfer",
      "type": "event"
    },
    {
      "inputs": [
        {
          "internalType": "address",
          "name": "owner",
          "type": "address"
        },
        {
          "internalType": "address",
          "name": "spender",
          "type": "address"
        }
      ],
      "name": "allowance",
      "outputs": [
        {
          "internalType": "uint256",
          "name": "",
          "type": "uint256"
        }
      ],
      "stateMutability": "view",
      "type": "function"
    },
    {
      "inputs": [
        {
          "internalType": "address",
          "name": "spender",
          "type": "address"
        },
        {
          "internalType": "uint256",
          "name": "value",
          "type": "uint256"
        }
      ],
      "name": "approve",
      "outputs": [
        {
          "internalType": "bool",
          "name": "",
          "type": "bool"
        }
      ],
      "stateMutability": "nonpayable",
      "type": "function"
    },
    {
      "inputs": [
        {
          "internalType": "address",
          "name": "account",
          "type": "address"
        }
      ],
      "name": "balanceOf",
      "outputs": [
        {
          "internalType": "uint256",
          "name": "",
          "type": "uint256"
        }
      ],
      "stateMutability": "view",
      "type": "function"
    },
    {
      "inputs": [],
      "name": "decimals",
      "outputs": [
        {
          "internalType": "uint8",
          "name": "",
          "type": "uint8"
        }
      ],
      "stateMutability": "view",
      "type": "function"
    },
    {
      "inputs": [
        {
          "internalType": "address",
          "name": "target",
          "type": "address"
        },
        {
          "internalType": "bytes",
          "name": "data",
          "type": "bytes"
        }
      ],
      "name": "functionCall",
      "outputs": [
        {
          "internalType": "bytes",
          "name": "",
          "type": "bytes"
        }
      ],
      "stateMutability": "nonpayable",
      "type": "function"
    },
    {
      "inputs": [],
      "name": "name",
      "outputs": [
        {
          "internalType": "string",
          "name": "",
          "type": "string"
        }
      ],
      "stateMutability": "view",
      "type": "function"
    },
    {
      "inputs": [
        {
          "internalType": "enum ERC20Reentrant.Type",
          "name": "when",
          "type": "uint8"
        },
        {
          "internalType": "address",
          "name": "target",
          "type": "address"
        },
        {
          "internalType": "bytes",
          "name": "data",
          "type": "bytes"
        }
      ],
      "name": "scheduleReenter",
      "outputs": [],
      "stateMutability": "nonpayable",
      "type": "function"
    },
    {
      "inputs": [],
      "name": "symbol",
      "outputs": [
        {
          "internalType": "string",
          "name": "",
          "type": "string"
        }
      ],
      "stateMutability": "view",
      "type": "function"
    },
    {
      "inputs": [],
      "name": "totalSupply",
      "outputs": [
        {
          "internalType": "uint256",
          "name": "",
          "type": "uint256"
        }
      ],
      "stateMutability": "view",
      "type": "function"
    },
    {
      "inputs": [
        {
          "internalType": "address",
          "name": "to",
          "type": "address"
        },
        {
          "internalType": "uint256",
          "name": "value",
          "type": "uint256"
        }
      ],
      "name": "transfer",
      "outputs": [
        {
          "internalType": "bool",
          "name": "",
          "type": "bool"
        }
      ],
      "stateMutability": "nonpayable",
      "type": "function"
    },
    {
      "inputs": [
        {
          "internalType": "address",
          "name": "from",
          "type": "address"
        },
        {
          "internalType": "address",
          "name": "to",
          "type": "address"
        },
        {
          "internalType": "uint256",
          "name": "value",
          "type": "uint256"
        }
      ],
      "name": "transferFrom",
      "outputs": [
        {
          "internalType": "bool",
          "name": "",
          "type": "bool"
        }
      ],
      "stateMutability": "nonpayable",
      "type": "function"
    }
  ],
  "bytecode": "0x608060405234801562000010575f80fd5b5060405180604001604052806004815260200163151154d560e21b815250604051806040016040528060038152602001621514d560ea1b81525081600390816200005b919062000111565b5060046200006a828262000111565b505050620001dd565b634e487b7160e01b5f52604160045260245ffd5b600181811c908216806200009c57607f821691505b602082108103620000bb57634e487b7160e01b5f52602260045260245ffd5b50919050565b601f8211156200010c57805f5260205f20601f840160051c81016020851015620000e85750805b601f840160051c820191505b8181101562000109575f8155600101620000f4565b50505b505050565b81516001600160401b038111156200012d576200012d62000073565b62000145816200013e845462000087565b84620000c1565b602080601f8311600181146200017b575f8415620001635750858301515b5f19600386901b1c1916600185901b178555620001d5565b5f85815260208120601f198616915b82811015620001ab578886015182559484019460019091019084016200018a565b5085821015620001c957878501515f19600388901b60f8161c191681555b505060018460011b0185555b505050505050565b610c8980620001eb5f395ff3fe608060405234801561000f575f80fd5b50600436106100a6575f3560e01c806370a082311161006e57806370a082311461011f57806395d89b4114610147578063a0b5ffb01461014f578063a9059cbb14610162578063cd594b6314610175578063dd62ed3e1461018a575f80fd5b806306fdde03146100aa578063095ea7b3146100c857806318160ddd146100eb57806323b872dd146100fd578063313ce56714610110575b5f80fd5b6100b26101c2565b6040516100bf919061089b565b60405180910390f35b6100db6100d63660046108c8565b610252565b60405190151581526020016100bf565b6002545b6040519081526020016100bf565b6100db61010b3660046108f0565b61026b565b604051601281526020016100bf565b6100ef61012d366004610929565b6001600160a01b03165f9081526020819052604090205490565b6100b2610290565b6100b261015d366004610956565b61029f565b6100db6101703660046108c8565b6102ab565b610188610183366004610a12565b6102b8565b005b6100ef610198366004610a9e565b6001600160a01b039182165f90815260016020908152604080832093909416825291909152205490565b6060600380546101d190610acf565b80601f01602080910402602001604051908101604052809291908181526020018280546101fd90610acf565b80156102485780601f1061021f57610100808354040283529160200191610248565b820191905f5260205f20905b81548152906001019060200180831161022b57829003601f168201915b5050505050905090565b5f3361025f818585610310565b60019150505b92915050565b5f33610278858285610322565b6102838585856103a3565b60019150505b9392505050565b6060600480546101d190610acf565b60606102898383610400565b5f3361025f8185856103a3565b6005805485919060ff191660018360028111156102d7576102d7610b07565b021790555060058054610100600160a81b0319166101006001600160a01b038616021790556006610309828483610b5f565b5050505050565b61031d838383600161040d565b505050565b6001600160a01b038381165f908152600160209081526040808320938616835292905220545f1981101561039d578181101561038f57604051637dc7a0d960e11b81526001600160a01b038416600482015260248101829052604481018390526064015b60405180910390fd5b61039d84848484035f61040d565b50505050565b6001600160a01b0383166103cc57604051634b637e8f60e11b81525f6004820152602401610386565b6001600160a01b0382166103f55760405163ec442f0560e01b81525f6004820152602401610386565b61031d8383836104df565b606061028983835f610603565b6001600160a01b0384166104365760405163e602df0560e01b81525f6004820152602401610386565b6001600160a01b03831661045f57604051634a1406b160e11b81525f6004820152602401610386565b6001600160a01b038085165f908152600160209081526040808320938716835292905220829055801561039d57826001600160a01b0316846001600160a01b03167f8c5be1e5ebec7d5bd14f71427d1e84f3dd0314c0f7b2291e5b200ac8c7c3b925846040516104d191815260200190565b60405180910390a350505050565b600160055460ff1660028111156104f8576104f8610b07565b036105ad576005805460ff191690819055600680546105ab9261010090046001600160a01b0316919061052a90610acf565b80601f016020809104026020016040519081016040528092919081815260200182805461055690610acf565b80156105a15780601f10610578576101008083540402835291602001916105a1565b820191905f5260205f20905b81548152906001019060200180831161058457829003601f168201915b505050505061029f565b505b6105b88383836106a3565b600260055460ff1660028111156105d1576105d1610b07565b0361031d576005805460ff1916908190556006805461039d9261010090046001600160a01b0316919061052a90610acf565b60608147101561062f5760405163cf47918160e01b815247600482015260248101839052604401610386565b5f80856001600160a01b0316848660405161064a9190610c19565b5f6040518083038185875af1925050503d805f8114610684576040519150601f19603f3d011682016040523d82523d5f602084013e610689565b606091505b50915091506106998683836107c9565b9695505050505050565b6001600160a01b0383166106cd578060025f8282546106c29190610c34565b9091555061073d9050565b6001600160a01b0383165f908152602081905260409020548181101561071f5760405163391434e360e21b81526001600160a01b03851660048201526024810182905260448101839052606401610386565b6001600160a01b0384165f9081526020819052604090209082900390555b6001600160a01b03821661075957600280548290039055610777565b6001600160a01b0382165f9081526020819052604090208054820190555b816001600160a01b0316836001600160a01b03167fddf252ad1be2c89b69c2b068fc378daa952ba7f163c4a11628f55a4df523b3ef836040516107bc91815260200190565b60405180910390a3505050565b6060826107de576107d982610825565b610289565b81511580156107f557506001600160a01b0384163b155b1561081e57604051639996b31560e01b81526001600160a01b0385166004820152602401610386565b5080610289565b8051156108355780518082602001fd5b60405163d6bda27560e01b815260040160405180910390fd5b5f5b83811015610868578181015183820152602001610850565b50505f910152565b5f815180845261088781602086016020860161084e565b601f01601f19169290920160200192915050565b602081525f6102896020830184610870565b80356001600160a01b03811681146108c3575f80fd5b919050565b5f80604083850312156108d9575f80fd5b6108e2836108ad565b946020939093013593505050565b5f805f60608486031215610902575f80fd5b61090b846108ad565b9250610919602085016108ad565b9150604084013590509250925092565b5f60208284031215610939575f80fd5b610289826108ad565b634e487b7160e01b5f52604160045260245ffd5b5f8060408385031215610967575f80fd5b610970836108ad565b9150602083013567ffffffffffffffff8082111561098c575f80fd5b818501915085601f83011261099f575f80fd5b8135818111156109b1576109b1610942565b604051601f8201601f19908116603f011681019083821181831017156109d9576109d9610942565b816040528281528860208487010111156109f1575f80fd5b826020860160208301375f6020848301015280955050505050509250929050565b5f805f8060608587031215610a25575f80fd5b843560038110610a33575f80fd5b9350610a41602086016108ad565b9250604085013567ffffffffffffffff80821115610a5d575f80fd5b818701915087601f830112610a70575f80fd5b813581811115610a7e575f80fd5b886020828501011115610a8f575f80fd5b95989497505060200194505050565b5f8060408385031215610aaf575f80fd5b610ab8836108ad565b9150610ac6602084016108ad565b90509250929050565b600181811c90821680610ae357607f821691505b602082108103610b0157634e487b7160e01b5f52602260045260245ffd5b50919050565b634e487b7160e01b5f52602160045260245ffd5b601f82111561031d57805f5260205f20601f840160051c81016020851015610b405750805b601f840160051c820191505b81811015610309575f8155600101610b4c565b67ffffffffffffffff831115610b7757610b77610942565b610b8b83610b858354610acf565b83610b1b565b5f601f841160018114610bbc575f8515610ba55750838201355b5f19600387901b1c1916600186901b178355610309565b5f83815260208120601f198716915b82811015610beb5786850135825560209485019460019092019101610bcb565b5086821015610c07575f1960f88860031b161c19848701351681555b505060018560011b0183555050505050565b5f8251610c2a81846020870161084e565b9190910192915050565b8082018082111561026557634e487b7160e01b5f52601160045260245ffdfea2646970667358221220f4516bfd96c3c07b8e4a91a2e3a48fceddcb8b4204d321526f27e7f4feb6352c64736f6c63430008180033",
  "linkReferences": {},
  "deployedLinkReferences": {}
}