{
  "_format": "hh-sol-artifact-1",
  "contractName": "$Ownable2Step",
  "sourceName": "contracts-exposed/access/Ownable2Step.sol",
  "abi": [
    {
      "inputs": [
        {
          "internalType": "address",
          "name": "initialOwner",
          "type": "address"
        }
      ],
      "stateMutability": "payable",
      "type": "constructor"
    },
    {
      "inputs": [
        {
          "internalType": "address",
          "name": "owner",
          "type": "address"
        }
      ],
      "name": "OwnableInvalidOwner",
      "type": "error"
    },
    {
      "inputs": [
        {
          "internalType": "address",
          "name": "account",
          "type": "address"
        }
      ],
      "name": "OwnableUnauthorizedAccount",
      "type": "error"
    },
    {
      "anonymous": false,
      "inputs": [
        {
          "indexed": true,
          "internalType": "address",
          "name": "previousOwner",
          "type": "address"
        },
        {
          "indexed": true,
          "internalType": "address",
          "name": "newOwner",
          "type": "address"
        }
      ],
      "name": "OwnershipTransferStarted",
      "type": "event"
    },
    {
      "anonymous": false,
      "inputs": [
        {
          "indexed": true,
          "internalType": "address",
          "name": "previousOwner",
          "type": "address"
        },
        {
          "indexed": true,
          "internalType": "address",
          "name": "newOwner",
          "type": "address"
        }
      ],
      "name": "OwnershipTransferred",
      "type": "event"
    },
    {
      "inputs": [],
      "name": "$_checkOwner",
      "outputs": [],
      "stateMutability": "view",
      "type": "function"
    },
    {
      "inputs": [],
      "name": "$_contextSuffixLength",
      "outputs": [
        {
          "internalType": "uint256",
          "name": "ret0",
          "type": "uint256"
        }
      ],
      "stateMutability": "view",
      "type": "function"
    },
    {
      "inputs": [],
      "name": "$_msgData",
      "outputs": [
        {
          "internalType": "bytes",
          "name": "ret0",
          "type": "bytes"
        }
      ],
      "stateMutability": "view",
      "type": "function"
    },
    {
      "inputs": [],
      "name": "$_msgSender",
      "outputs": [
        {
          "internalType": "address",
          "name": "ret0",
          "type": "address"
        }
      ],
      "stateMutability": "view",
      "type": "function"
    },
    {
      "inputs": [
        {
          "internalType": "address",
          "name": "newOwner",
          "type": "address"
        }
      ],
      "name": "$_transferOwnership",
      "outputs": [],
      "stateMutability": "nonpayable",
      "type": "function"
    },
    {
      "inputs": [],
      "name": "__hh_exposed_bytecode_marker",
      "outputs": [
        {
          "internalType": "bytes32",
          "name": "",
          "type": "bytes32"
        }
      ],
      "stateMutability": "view",
      "type": "function"
    },
    {
      "inputs": [],
      "name": "acceptOwnership",
      "outputs": [],
      "stateMutability": "nonpayable",
      "type": "function"
    },
    {
      "inputs": [],
      "name": "owner",
      "outputs": [
        {
          "internalType": "address",
          "name": "",
          "type": "address"
        }
      ],
      "stateMutability": "view",
      "type": "function"
    },
    {
      "inputs": [],
      "name": "pendingOwner",
      "outputs": [
        {
          "internalType": "address",
          "name": "",
          "type": "address"
        }
      ],
      "stateMutability": "view",
      "type": "function"
    },
    {
      "inputs": [],
      "name": "renounceOwnership",
      "outputs": [],
      "stateMutability": "nonpayable",
      "type": "function"
    },
    {
      "inputs": [
        {
          "internalType": "address",
          "name": "newOwner",
          "type": "address"
        }
      ],
      "name": "transferOwnership",
      "outputs": [],
      "stateMutability": "nonpayable",
      "type": "function"
    },
    {
      "stateMutability": "payable",
      "type": "receive"
    }
  ],
  "bytecode": "0x6080604052604051610542380380610542833981016040819052610022916100cb565b806001600160a01b03811661005057604051631e4fbdf760e01b81525f600482015260240160405180910390fd5b61005981610060565b50506100f8565b600180546001600160a01b03191690556100798161007c565b50565b5f80546001600160a01b038381166001600160a01b0319831681178455604051919092169283917f8be0079c531659141344cd1fd0a4f28419497f9722a3daafe3b4186f6b6457e09190a35050565b5f602082840312156100db575f80fd5b81516001600160a01b03811681146100f1575f80fd5b9392505050565b61043d806101055f395ff3fe60806040526004361061009d575f3560e01c806379ba50971161006257806379ba50971461014f5780638da5cb5b14610163578063e30c39781461017f578063ebcca7071461019c578063f2fde38b146101b0578063fe1c9a24146101cf575f80fd5b80632904df29146100a857806332cadf3c146100d3578063342db739146100f457806367354a8414610127578063715018a614610139575f80fd5b366100a457005b5f80fd5b3480156100b3575f80fd5b50335b6040516001600160a01b0390911681526020015b60405180910390f35b3480156100de575f80fd5b506100e76101ee565b6040516100ca919061038e565b3480156100ff575f80fd5b506101196e1a185c991a185d0b595e1c1bdcd959608a1b81565b6040519081526020016100ca565b348015610132575f80fd5b505f610119565b348015610144575f80fd5b5061014d61022b565b005b34801561015a575f80fd5b5061014d61023e565b34801561016e575f80fd5b505f546001600160a01b03166100b6565b34801561018a575f80fd5b506001546001600160a01b03166100b6565b3480156101a7575f80fd5b5061014d610287565b3480156101bb575f80fd5b5061014d6101ca3660046103da565b61028f565b3480156101da575f80fd5b5061014d6101e93660046103da565b61027b565b60605f368080601f0160208091040260200160405190810160405280939291908181526020018383808284375f9201919091525092949350505050565b6102336102ff565b61023c5f61032b565b565b60015433906001600160a01b0316811461027b5760405163118cdaa760e01b81526001600160a01b03821660048201526024015b60405180910390fd5b6102848161032b565b50565b61023c6102ff565b6102976102ff565b600180546001600160a01b0383166001600160a01b031990911681179091556102c75f546001600160a01b031690565b6001600160a01b03167f38d16b8cac22d99fc7c124b9cd0de2d3fa1faef420bfe791d8c362d765e2270060405160405180910390a350565b5f546001600160a01b0316331461023c5760405163118cdaa760e01b8152336004820152602401610272565b600180546001600160a01b0319169055610284815f80546001600160a01b038381166001600160a01b0319831681178455604051919092169283917f8be0079c531659141344cd1fd0a4f28419497f9722a3daafe3b4186f6b6457e09190a35050565b5f602080835283518060208501525f5b818110156103ba5785810183015185820160400152820161039e565b505f604082860101526040601f19601f8301168501019250505092915050565b5f602082840312156103ea575f80fd5b81356001600160a01b0381168114610400575f80fd5b939250505056fea2646970667358221220684ed05ae9b72a8fc4fd2b686b4812cf5668a45cb487895c251defc94d56fde464736f6c63430008180033",
  "linkReferences": {},
  "deployedLinkReferences": {}
}