{
  "_format": "hh-sol-artifact-1",
  "contractName": "$ERC1155",
  "sourceName": "contracts-exposed/token/ERC1155/ERC1155.sol",
  "abi": [
    {
      "inputs": [
        {
          "internalType": "string",
          "name": "uri_",
          "type": "string"
        }
      ],
      "stateMutability": "payable",
      "type": "constructor"
    },
    {
      "inputs": [
        {
          "internalType": "address",
          "name": "sender",
          "type": "address"
        },
        {
          "internalType": "uint256",
          "name": "balance",
          "type": "uint256"
        },
        {
          "internalType": "uint256",
          "name": "needed",
          "type": "uint256"
        },
        {
          "internalType": "uint256",
          "name": "tokenId",
          "type": "uint256"
        }
      ],
      "name": "ERC1155InsufficientBalance",
      "type": "error"
    },
    {
      "inputs": [
        {
          "internalType": "address",
          "name": "approver",
          "type": "address"
        }
      ],
      "name": "ERC1155InvalidApprover",
      "type": "error"
    },
    {
      "inputs": [
        {
          "internalType": "uint256",
          "name": "idsLength",
          "type": "uint256"
        },
        {
          "internalType": "uint256",
          "name": "valuesLength",
          "type": "uint256"
        }
      ],
      "name": "ERC1155InvalidArrayLength",
      "type": "error"
    },
    {
      "inputs": [
        {
          "internalType": "address",
          "name": "operator",
          "type": "address"
        }
      ],
      "name": "ERC1155InvalidOperator",
      "type": "error"
    },
    {
      "inputs": [
        {
          "internalType": "address",
          "name": "receiver",
          "type": "address"
        }
      ],
      "name": "ERC1155InvalidReceiver",
      "type": "error"
    },
    {
      "inputs": [
        {
          "internalType": "address",
          "name": "sender",
          "type": "address"
        }
      ],
      "name": "ERC1155InvalidSender",
      "type": "error"
    },
    {
      "inputs": [
        {
          "internalType": "address",
          "name": "operator",
          "type": "address"
        },
        {
          "internalType": "address",
          "name": "owner",
          "type": "address"
        }
      ],
      "name": "ERC1155MissingApprovalForAll",
      "type": "error"
    },
    {
      "anonymous": false,
      "inputs": [
        {
          "indexed": true,
          "internalType": "address",
          "name": "account",
          "type": "address"
        },
        {
          "indexed": true,
          "internalType": "address",
          "name": "operator",
          "type": "address"
        },
        {
          "indexed": false,
          "internalType": "bool",
          "name": "approved",
          "type": "bool"
        }
      ],
      "name": "ApprovalForAll",
      "type": "event"
    },
    {
      "anonymous": false,
      "inputs": [
        {
          "indexed": true,
          "internalType": "address",
          "name": "operator",
          "type": "address"
        },
        {
          "indexed": true,
          "internalType": "address",
          "name": "from",
          "type": "address"
        },
        {
          "indexed": true,
          "internalType": "address",
          "name": "to",
          "type": "address"
        },
        {
          "indexed": false,
          "internalType": "uint256[]",
          "name": "ids",
          "type": "uint256[]"
        },
        {
          "indexed": false,
          "internalType": "uint256[]",
          "name": "values",
          "type": "uint256[]"
        }
      ],
      "name": "TransferBatch",
      "type": "event"
    },
    {
      "anonymous": false,
      "inputs": [
        {
          "indexed": true,
          "internalType": "address",
          "name": "operator",
          "type": "address"
        },
        {
          "indexed": true,
          "internalType": "address",
          "name": "from",
          "type": "address"
        },
        {
          "indexed": true,
          "internalType": "address",
          "name": "to",
          "type": "address"
        },
        {
          "indexed": false,
          "internalType": "uint256",
          "name": "id",
          "type": "uint256"
        },
        {
          "indexed": false,
          "internalType": "uint256",
          "name": "value",
          "type": "uint256"
        }
      ],
      "name": "TransferSingle",
      "type": "event"
    },
    {
      "anonymous": false,
      "inputs": [
        {
          "indexed": false,
          "internalType": "string",
          "name": "value",
          "type": "string"
        },
        {
          "indexed": true,
          "internalType": "uint256",
          "name": "id",
          "type": "uint256"
        }
      ],
      "name": "URI",
      "type": "event"
    },
    {
      "inputs": [
        {
          "internalType": "address",
          "name": "from",
          "type": "address"
        },
        {
          "internalType": "uint256",
          "name": "id",
          "type": "uint256"
        },
        {
          "internalType": "uint256",
          "name": "value",
          "type": "uint256"
        }
      ],
      "name": "$_burn",
      "outputs": [],
      "stateMutability": "nonpayable",
      "type": "function"
    },
    {
      "inputs": [
        {
          "internalType": "address",
          "name": "from",
          "type": "address"
        },
        {
          "internalType": "uint256[]",
          "name": "ids",
          "type": "uint256[]"
        },
        {
          "internalType": "uint256[]",
          "name": "values",
          "type": "uint256[]"
        }
      ],
      "name": "$_burnBatch",
      "outputs": [],
      "stateMutability": "nonpayable",
      "type": "function"
    },
    {
      "inputs": [],
      "name": "$_contextSuffixLength",
      "outputs": [
        {
          "internalType": "uint256",
          "name": "ret0",
          "type": "uint256"
        }
      ],
      "stateMutability": "view",
      "type": "function"
    },
    {
      "inputs": [
        {
          "internalType": "address",
          "name": "to",
          "type": "address"
        },
        {
          "internalType": "uint256",
          "name": "id",
          "type": "uint256"
        },
        {
          "internalType": "uint256",
          "name": "value",
          "type": "uint256"
        },
        {
          "internalType": "bytes",
          "name": "data",
          "type": "bytes"
        }
      ],
      "name": "$_mint",
      "outputs": [],
      "stateMutability": "nonpayable",
      "type": "function"
    },
    {
      "inputs": [
        {
          "internalType": "address",
          "name": "to",
          "type": "address"
        },
        {
          "internalType": "uint256[]",
          "name": "ids",
          "type": "uint256[]"
        },
        {
          "internalType": "uint256[]",
          "name": "values",
          "type": "uint256[]"
        },
        {
          "internalType": "bytes",
          "name": "data",
          "type": "bytes"
        }
      ],
      "name": "$_mintBatch",
      "outputs": [],
      "stateMutability": "nonpayable",
      "type": "function"
    },
    {
      "inputs": [],
      "name": "$_msgData",
      "outputs": [
        {
          "internalType": "bytes",
          "name": "ret0",
          "type": "bytes"
        }
      ],
      "stateMutability": "view",
      "type": "function"
    },
    {
      "inputs": [],
      "name": "$_msgSender",
      "outputs": [
        {
          "internalType": "address",
          "name": "ret0",
          "type": "address"
        }
      ],
      "stateMutability": "view",
      "type": "function"
    },
    {
      "inputs": [
        {
          "internalType": "address",
          "name": "from",
          "type": "address"
        },
        {
          "internalType": "address",
          "name": "to",
          "type": "address"
        },
        {
          "internalType": "uint256[]",
          "name": "ids",
          "type": "uint256[]"
        },
        {
          "internalType": "uint256[]",
          "name": "values",
          "type": "uint256[]"
        },
        {
          "internalType": "bytes",
          "name": "data",
          "type": "bytes"
        }
      ],
      "name": "$_safeBatchTransferFrom",
      "outputs": [],
      "stateMutability": "nonpayable",
      "type": "function"
    },
    {
      "inputs": [
        {
          "internalType": "address",
          "name": "from",
          "type": "address"
        },
        {
          "internalType": "address",
          "name": "to",
          "type": "address"
        },
        {
          "internalType": "uint256",
          "name": "id",
          "type": "uint256"
        },
        {
          "internalType": "uint256",
          "name": "value",
          "type": "uint256"
        },
        {
          "internalType": "bytes",
          "name": "data",
          "type": "bytes"
        }
      ],
      "name": "$_safeTransferFrom",
      "outputs": [],
      "stateMutability": "nonpayable",
      "type": "function"
    },
    {
      "inputs": [
        {
          "internalType": "address",
          "name": "owner",
          "type": "address"
        },
        {
          "internalType": "address",
          "name": "operator",
          "type": "address"
        },
        {
          "internalType": "bool",
          "name": "approved",
          "type": "bool"
        }
      ],
      "name": "$_setApprovalForAll",
      "outputs": [],
      "stateMutability": "nonpayable",
      "type": "function"
    },
    {
      "inputs": [
        {
          "internalType": "string",
          "name": "newuri",
          "type": "string"
        }
      ],
      "name": "$_setURI",
      "outputs": [],
      "stateMutability": "nonpayable",
      "type": "function"
    },
    {
      "inputs": [
        {
          "internalType": "address",
          "name": "from",
          "type": "address"
        },
        {
          "internalType": "address",
          "name": "to",
          "type": "address"
        },
        {
          "internalType": "uint256[]",
          "name": "ids",
          "type": "uint256[]"
        },
        {
          "internalType": "uint256[]",
          "name": "values",
          "type": "uint256[]"
        }
      ],
      "name": "$_update",
      "outputs": [],
      "stateMutability": "nonpayable",
      "type": "function"
    },
    {
      "inputs": [
        {
          "internalType": "address",
          "name": "from",
          "type": "address"
        },
        {
          "internalType": "address",
          "name": "to",
          "type": "address"
        },
        {
          "internalType": "uint256[]",
          "name": "ids",
          "type": "uint256[]"
        },
        {
          "internalType": "uint256[]",
          "name": "values",
          "type": "uint256[]"
        },
        {
          "internalType": "bytes",
          "name": "data",
          "type": "bytes"
        }
      ],
      "name": "$_updateWithAcceptanceCheck",
      "outputs": [],
      "stateMutability": "nonpayable",
      "type": "function"
    },
    {
      "inputs": [],
      "name": "__hh_exposed_bytecode_marker",
      "outputs": [
        {
          "internalType": "bytes32",
          "name": "",
          "type": "bytes32"
        }
      ],
      "stateMutability": "view",
      "type": "function"
    },
    {
      "inputs": [
        {
          "internalType": "address",
          "name": "account",
          "type": "address"
        },
        {
          "internalType": "uint256",
          "name": "id",
          "type": "uint256"
        }
      ],
      "name": "balanceOf",
      "outputs": [
        {
          "internalType": "uint256",
          "name": "",
          "type": "uint256"
        }
      ],
      "stateMutability": "view",
      "type": "function"
    },
    {
      "inputs": [
        {
          "internalType": "address[]",
          "name": "accounts",
          "type": "address[]"
        },
        {
          "internalType": "uint256[]",
          "name": "ids",
          "type": "uint256[]"
        }
      ],
      "name": "balanceOfBatch",
      "outputs": [
        {
          "internalType": "uint256[]",
          "name": "",
          "type": "uint256[]"
        }
      ],
      "stateMutability": "view",
      "type": "function"
    },
    {
      "inputs": [
        {
          "internalType": "address",
          "name": "account",
          "type": "address"
        },
        {
          "internalType": "address",
          "name": "operator",
          "type": "address"
        }
      ],
      "name": "isApprovedForAll",
      "outputs": [
        {
          "internalType": "bool",
          "name": "",
          "type": "bool"
        }
      ],
      "stateMutability": "view",
      "type": "function"
    },
    {
      "inputs": [
        {
          "internalType": "address",
          "name": "from",
          "type": "address"
        },
        {
          "internalType": "address",
          "name": "to",
          "type": "address"
        },
        {
          "internalType": "uint256[]",
          "name": "ids",
          "type": "uint256[]"
        },
        {
          "internalType": "uint256[]",
          "name": "values",
          "type": "uint256[]"
        },
        {
          "internalType": "bytes",
          "name": "data",
          "type": "bytes"
        }
      ],
      "name": "safeBatchTransferFrom",
      "outputs": [],
      "stateMutability": "nonpayable",
      "type": "function"
    },
    {
      "inputs": [
        {
          "internalType": "address",
          "name": "from",
          "type": "address"
        },
        {
          "internalType": "address",
          "name": "to",
          "type": "address"
        },
        {
          "internalType": "uint256",
          "name": "id",
          "type": "uint256"
        },
        {
          "internalType": "uint256",
          "name": "value",
          "type": "uint256"
        },
        {
          "internalType": "bytes",
          "name": "data",
          "type": "bytes"
        }
      ],
      "name": "safeTransferFrom",
      "outputs": [],
      "stateMutability": "nonpayable",
      "type": "function"
    },
    {
      "inputs": [
        {
          "internalType": "address",
          "name": "operator",
          "type": "address"
        },
        {
          "internalType": "bool",
          "name": "approved",
          "type": "bool"
        }
      ],
      "name": "setApprovalForAll",
      "outputs": [],
      "stateMutability": "nonpayable",
      "type": "function"
    },
    {
      "inputs": [
        {
          "internalType": "bytes4",
          "name": "interfaceId",
          "type": "bytes4"
        }
      ],
      "name": "supportsInterface",
      "outputs": [
        {
          "internalType": "bool",
          "name": "",
          "type": "bool"
        }
      ],
      "stateMutability": "view",
      "type": "function"
    },
    {
      "inputs": [
        {
          "internalType": "uint256",
          "name": "",
          "type": "uint256"
        }
      ],
      "name": "uri",
      "outputs": [
        {
          "internalType": "string",
          "name": "",
          "type": "string"
        }
      ],
      "stateMutability": "view",
      "type": "function"
    },
    {
      "stateMutability": "payable",
      "type": "receive"
    }
  ],
  "bytecode": "0x608060405260405162001fe138038062001fe1833981016040819052620000269162000060565b8062000032816200003a565b505062000284565b6002620000488282620001b8565b5050565b634e487b7160e01b5f52604160045260245ffd5b5f602080838503121562000072575f80fd5b82516001600160401b038082111562000089575f80fd5b818501915085601f8301126200009d575f80fd5b815181811115620000b257620000b26200004c565b604051601f8201601f19908116603f01168101908382118183101715620000dd57620000dd6200004c565b816040528281528886848701011115620000f5575f80fd5b5f93505b82841015620001185784840186015181850187015292850192620000f9565b5f86848301015280965050505050505092915050565b600181811c908216806200014357607f821691505b6020821081036200016257634e487b7160e01b5f52602260045260245ffd5b50919050565b601f821115620001b357805f5260205f20601f840160051c810160208510156200018f5750805b601f840160051c820191505b81811015620001b0575f81556001016200019b565b50505b505050565b81516001600160401b03811115620001d457620001d46200004c565b620001ec81620001e584546200012e565b8462000168565b602080601f83116001811462000222575f84156200020a5750858301515b5f19600386901b1c1916600185901b1785556200027c565b5f85815260208120601f198616915b82811015620002525788860151825594840194600190910190840162000231565b50858210156200027057878501515f19600388901b60f8161c191681555b505060018460011b0185555b505050505050565b611d4f80620002925f395ff3fe608060405260043610610133575f3560e01c806367354a84116100a8578063bf445cb81161006d578063bf445cb814610356578063cfeea0d414610375578063e985e9c514610394578063ec3016f7146103b3578063eebe6ab4146103d2578063f242432a146103f1575f80fd5b806367354a84146102c85780637dfd6d69146102da578063a22cb465146102f9578063af32f2f214610318578063b556c32814610337575f80fd5b80632d64f479116100f95780632d64f479146102065780632eb2c2d61461022557806332cadf3c14610244578063342db7391461025857806338106e251461027d5780634e1273f41461029c575f80fd5b8062fdd58e1461013e57806301ffc9a7146101705780630c3c37ae1461019f5780630e89341c146101c05780632904df29146101ec575f80fd5b3661013a57005b5f80fd5b348015610149575f80fd5b5061015d610158366004611212565b610410565b6040519081526020015b60405180910390f35b34801561017b575f80fd5b5061018f61018a366004611252565b610437565b6040519015158152602001610167565b3480156101aa575f80fd5b506101be6101b93660046112b8565b610486565b005b3480156101cb575f80fd5b506101df6101da36600461132a565b6104d0565b6040516101679190611384565b3480156101f7575f80fd5b50604051338152602001610167565b348015610211575f80fd5b506101be6102203660046113d6565b610562565b348015610230575f80fd5b506101be61023f3660046115c5565b61060c565b34801561024f575f80fd5b506101df610670565b348015610263575f80fd5b5061015d6e1a185c991a185d0b595e1c1bdcd959608a1b81565b348015610288575f80fd5b506101be610297366004611667565b6106ad565b3480156102a7575f80fd5b506102bb6102b63660046116e1565b610720565b60405161016791906117d4565b3480156102d3575f80fd5b505f61015d565b3480156102e5575f80fd5b506101be6102f43660046117e6565b6107ea565b348015610304575f80fd5b506101be610313366004611846565b61082b565b348015610323575f80fd5b506101be610332366004611877565b61083a565b348015610342575f80fd5b506101be6103513660046118ef565b6108a7565b348015610361575f80fd5b506101be61037036600461191f565b6108b7565b348015610380575f80fd5b506101be61038f3660046119c1565b61095f565b34801561039f575f80fd5b5061018f6103ae366004611a01565b61096a565b3480156103be575f80fd5b506101be6103cd366004611a29565b610997565b3480156103dd575f80fd5b506101be6103ec3660046113d6565b6109d5565b3480156103fc575f80fd5b506101be61040b366004611a67565b610a75565b5f818152602081815260408083206001600160a01b03861684529091529020545b92915050565b5f6001600160e01b03198216636cdb3d1360e11b148061046757506001600160e01b031982166303a24d0760e21b145b8061043157506301ffc9a760e01b6001600160e01b0319831614610431565b6104c88686868686868080601f0160208091040260200160405190810160405280939291908181526020018383808284375f92019190915250610ad092505050565b505050505050565b6060600280546104df90611ac6565b80601f016020809104026020016040519081016040528092919081815260200182805461050b90611ac6565b80156105565780601f1061052d57610100808354040283529160200191610556565b820191905f5260205f20905b81548152906001019060200180831161053957829003601f168201915b50505050509050919050565b61060288888888808060200260200160405190810160405280939291908181526020018383602002808284375f9201919091525050604080516020808c0282810182019093528b82529093508b92508a9182918501908490808284375f9201919091525050604080516020601f8b0181900481028201810190925289815292508991508890819084018382808284375f92019190915250610b4f92505050565b5050505050505050565b336001600160a01b038616811480159061062d575061062b868261096a565b155b156106635760405163711bec9160e11b81526001600160a01b038083166004830152871660248201526044015b60405180910390fd5b6104c88686868686610ba2565b60605f368080601f0160208091040260200160405190810160405280939291908181526020018383808284375f9201919091525092949350505050565b610719858585808060200260200160405190810160405280939291908181526020018383602002808284375f92019190915250506040805160208089028281018201909352888252909350889250879182918501908490808284375f92019190915250610c0092505050565b5050505050565b606081518351146107515781518351604051635b05999160e01b81526004810192909252602482015260440161065a565b5f83516001600160401b0381111561076b5761076b611488565b604051908082528060200260200182016040528015610794578160200160208202803683370190505b5090505f5b84518110156107e2576020808202860101516107bd90602080840287010151610410565b8282815181106107cf576107cf611afe565b6020908102919091010152600101610799565b509392505050565b61071985858585858080601f0160208091040260200160405190810160405280939291908181526020018383808284375f92019190915250610c4392505050565b610836338383610c9e565b5050565b6104c886868686808060200260200160405190810160405280939291908181526020018383602002808284375f9201919091525050604080516020808a028281018201909352898252909350899250889182918501908490808284375f92019190915250610d3292505050565b6108b2838383610f41565b505050565b610956878787808060200260200160405190810160405280939291908181526020018383602002808284375f9201919091525050604080516020808b0282810182019093528a82529093508a9250899182918501908490808284375f9201919091525050604080516020601f8a0181900481028201810190925288815292508891508790819084018382808284375f92019190915250610fa792505050565b50505050505050565b6108b2838383610c9e565b6001600160a01b039182165f90815260016020908152604080832093909416825291909152205460ff1690565b61083682828080601f0160208091040260200160405190810160405280939291908181526020018383808284375f92019190915250610fe392505050565b61060288888888808060200260200160405190810160405280939291908181526020018383602002808284375f9201919091525050604080516020808c0282810182019093528b82529093508b92508a9182918501908490808284375f9201919091525050604080516020601f8b0181900481028201810190925289815292508991508890819084018382808284375f92019190915250610ba292505050565b336001600160a01b0386168114801590610a965750610a94868261096a565b155b15610ac75760405163711bec9160e11b81526001600160a01b0380831660048301528716602482015260440161065a565b6104c886868686865b6001600160a01b038416610af957604051632bfa23e760e11b81525f600482015260240161065a565b6001600160a01b038516610b2157604051626a0d4560e21b81525f600482015260240161065a565b6040805160018082526020820186905281830190815260608201859052608082019092529061095687878484875b610b5b85858585610d32565b6001600160a01b038416156107195782513390600103610b945760208481015190840151610b8d838989858589610fef565b50506104c8565b6104c8818787878787611110565b6001600160a01b038416610bcb57604051632bfa23e760e11b81525f600482015260240161065a565b6001600160a01b038516610bf357604051626a0d4560e21b81525f600482015260240161065a565b6107198585858585610b4f565b6001600160a01b038316610c2857604051626a0d4560e21b81525f600482015260240161065a565b6108b2835f848460405180602001604052805f815250610b4f565b6001600160a01b038416610c6c57604051632bfa23e760e11b81525f600482015260240161065a565b604080516001808252602082018690528183019081526060820185905260808201909252906104c85f87848487610b4f565b6001600160a01b038216610cc65760405162ced3e160e81b81525f600482015260240161065a565b6001600160a01b038381165f81815260016020908152604080832094871680845294825291829020805460ff191686151590811790915591519182527f17307eab39ab6107e8899845ad3d59bd9653f200f220920489ca2b5937696c31910160405180910390a3505050565b8051825114610d615781518151604051635b05999160e01b81526004810192909252602482015260440161065a565b335f5b8351811015610e63576020818102858101820151908501909101516001600160a01b03881615610e15575f828152602081815260408083206001600160a01b038c16845290915290205481811015610def576040516303dee4c560e01b81526001600160a01b038a16600482015260248101829052604481018390526064810184905260840161065a565b5f838152602081815260408083206001600160a01b038d16845290915290209082900390555b6001600160a01b03871615610e59575f828152602081815260408083206001600160a01b038b16845290915281208054839290610e53908490611b12565b90915550505b5050600101610d64565b508251600103610ee35760208301515f906020840151909150856001600160a01b0316876001600160a01b0316846001600160a01b03167fc3d58168c5ae7397731d063d5bbf3d657854427343f4c083240f7aacaa2d0f628585604051610ed4929190918252602082015260400190565b60405180910390a45050610719565b836001600160a01b0316856001600160a01b0316826001600160a01b03167f4a39dc06d4c0dbc64b70af90fd698a233a518aa5d07e595d983b8c0526c8f7fb8686604051610f32929190611b31565b60405180910390a45050505050565b6001600160a01b038316610f6957604051626a0d4560e21b81525f600482015260240161065a565b604080516001808252602082018590528183019081526060820184905260a082019092525f6080820181815291929161071991879185908590610b4f565b6001600160a01b038416610fd057604051632bfa23e760e11b81525f600482015260240161065a565b610fdd5f85858585610b4f565b50505050565b60026108368282611ba2565b6001600160a01b0384163b156104c85760405163f23a6e6160e01b81526001600160a01b0385169063f23a6e61906110339089908990889088908890600401611c5d565b6020604051808303815f875af192505050801561106d575060408051601f3d908101601f1916820190925261106a91810190611ca1565b60015b6110d4573d80801561109a576040519150601f19603f3d011682016040523d82523d5f602084013e61109f565b606091505b5080515f036110cc57604051632bfa23e760e11b81526001600160a01b038616600482015260240161065a565b805181602001fd5b6001600160e01b0319811663f23a6e6160e01b1461095657604051632bfa23e760e11b81526001600160a01b038616600482015260240161065a565b6001600160a01b0384163b156104c85760405163bc197c8160e01b81526001600160a01b0385169063bc197c81906111549089908990889088908890600401611cbc565b6020604051808303815f875af192505050801561118e575060408051601f3d908101601f1916820190925261118b91810190611ca1565b60015b6111bb573d80801561109a576040519150601f19603f3d011682016040523d82523d5f602084013e61109f565b6001600160e01b0319811663bc197c8160e01b1461095657604051632bfa23e760e11b81526001600160a01b038616600482015260240161065a565b80356001600160a01b038116811461120d575f80fd5b919050565b5f8060408385031215611223575f80fd5b61122c836111f7565b946020939093013593505050565b6001600160e01b03198116811461124f575f80fd5b50565b5f60208284031215611262575f80fd5b813561126d8161123a565b9392505050565b5f8083601f840112611284575f80fd5b5081356001600160401b0381111561129a575f80fd5b6020830191508360208285010111156112b1575f80fd5b9250929050565b5f805f805f8060a087890312156112cd575f80fd5b6112d6876111f7565b95506112e4602088016111f7565b9450604087013593506060870135925060808701356001600160401b0381111561130c575f80fd5b61131889828a01611274565b979a9699509497509295939492505050565b5f6020828403121561133a575f80fd5b5035919050565b5f81518084525f5b8181101561136557602081850181015186830182015201611349565b505f602082860101526020601f19601f83011685010191505092915050565b602081525f61126d6020830184611341565b5f8083601f8401126113a6575f80fd5b5081356001600160401b038111156113bc575f80fd5b6020830191508360208260051b85010111156112b1575f80fd5b5f805f805f805f8060a0898b0312156113ed575f80fd5b6113f6896111f7565b975061140460208a016111f7565b965060408901356001600160401b038082111561141f575f80fd5b61142b8c838d01611396565b909850965060608b0135915080821115611443575f80fd5b61144f8c838d01611396565b909650945060808b0135915080821115611467575f80fd5b506114748b828c01611274565b999c989b5096995094979396929594505050565b634e487b7160e01b5f52604160045260245ffd5b604051601f8201601f191681016001600160401b03811182821017156114c4576114c4611488565b604052919050565b5f6001600160401b038211156114e4576114e4611488565b5060051b60200190565b5f82601f8301126114fd575f80fd5b8135602061151261150d836114cc565b61149c565b8083825260208201915060208460051b870101935086841115611533575f80fd5b602086015b8481101561154f5780358352918301918301611538565b509695505050505050565b5f82601f830112611569575f80fd5b81356001600160401b0381111561158257611582611488565b611595601f8201601f191660200161149c565b8181528460208386010111156115a9575f80fd5b816020850160208301375f918101602001919091529392505050565b5f805f805f60a086880312156115d9575f80fd5b6115e2866111f7565b94506115f0602087016111f7565b935060408601356001600160401b038082111561160b575f80fd5b61161789838a016114ee565b9450606088013591508082111561162c575f80fd5b61163889838a016114ee565b9350608088013591508082111561164d575f80fd5b5061165a8882890161155a565b9150509295509295909350565b5f805f805f6060868803121561167b575f80fd5b611684866111f7565b945060208601356001600160401b038082111561169f575f80fd5b6116ab89838a01611396565b909650945060408801359150808211156116c3575f80fd5b506116d088828901611396565b969995985093965092949392505050565b5f80604083850312156116f2575f80fd5b82356001600160401b0380821115611708575f80fd5b818501915085601f83011261171b575f80fd5b8135602061172b61150d836114cc565b82815260059290921b84018101918181019089841115611749575f80fd5b948201945b8386101561176e5761175f866111f7565b8252948201949082019061174e565b96505086013592505080821115611783575f80fd5b50611790858286016114ee565b9150509250929050565b5f815180845260208085019450602084015f5b838110156117c9578151875295820195908201906001016117ad565b509495945050505050565b602081525f61126d602083018461179a565b5f805f805f608086880312156117fa575f80fd5b611803866111f7565b9450602086013593506040860135925060608601356001600160401b0381111561182b575f80fd5b6116d088828901611274565b8035801515811461120d575f80fd5b5f8060408385031215611857575f80fd5b611860836111f7565b915061186e60208401611837565b90509250929050565b5f805f805f806080878903121561188c575f80fd5b611895876111f7565b95506118a3602088016111f7565b945060408701356001600160401b03808211156118be575f80fd5b6118ca8a838b01611396565b909650945060608901359150808211156118e2575f80fd5b5061131889828a01611396565b5f805f60608486031215611901575f80fd5b61190a846111f7565b95602085013595506040909401359392505050565b5f805f805f805f6080888a031215611935575f80fd5b61193e886111f7565b965060208801356001600160401b0380821115611959575f80fd5b6119658b838c01611396565b909850965060408a013591508082111561197d575f80fd5b6119898b838c01611396565b909650945060608a01359150808211156119a1575f80fd5b506119ae8a828b01611274565b989b979a50959850939692959293505050565b5f805f606084860312156119d3575f80fd5b6119dc846111f7565b92506119ea602085016111f7565b91506119f860408501611837565b90509250925092565b5f8060408385031215611a12575f80fd5b611a1b836111f7565b915061186e602084016111f7565b5f8060208385031215611a3a575f80fd5b82356001600160401b03811115611a4f575f80fd5b611a5b85828601611274565b90969095509350505050565b5f805f805f60a08688031215611a7b575f80fd5b611a84866111f7565b9450611a92602087016111f7565b9350604086013592506060860135915060808601356001600160401b03811115611aba575f80fd5b61165a8882890161155a565b600181811c90821680611ada57607f821691505b602082108103611af857634e487b7160e01b5f52602260045260245ffd5b50919050565b634e487b7160e01b5f52603260045260245ffd5b8082018082111561043157634e487b7160e01b5f52601160045260245ffd5b604081525f611b43604083018561179a565b8281036020840152611b55818561179a565b95945050505050565b601f8211156108b257805f5260205f20601f840160051c81016020851015611b835750805b601f840160051c820191505b81811015610719575f8155600101611b8f565b81516001600160401b03811115611bbb57611bbb611488565b611bcf81611bc98454611ac6565b84611b5e565b602080601f831160018114611c02575f8415611beb5750858301515b5f19600386901b1c1916600185901b1785556104c8565b5f85815260208120601f198616915b82811015611c3057888601518255948401946001909101908401611c11565b5085821015611c4d57878501515f19600388901b60f8161c191681555b5050505050600190811b01905550565b6001600160a01b03868116825285166020820152604081018490526060810183905260a0608082018190525f90611c9690830184611341565b979650505050505050565b5f60208284031215611cb1575f80fd5b815161126d8161123a565b6001600160a01b0386811682528516602082015260a0604082018190525f90611ce79083018661179a565b8281036060840152611cf9818661179a565b90508281036080840152611d0d8185611341565b9897505050505050505056fea26469706673582212205e02580120834f9b50ef79f11bc318c1e24e18ff36c872e76b1407d5611aa7a864736f6c63430008180033",
  "linkReferences": {},
  "deployedLinkReferences": {}
}