{
  "_format": "hh-sol-artifact-1",
  "contractName": "$ERC1155URIStorage",
  "sourceName": "contracts-exposed/token/ERC1155/extensions/ERC1155URIStorage.sol",
  "abi": [
    {
      "inputs": [
        {
          "internalType": "string",
          "name": "uri_",
          "type": "string"
        }
      ],
      "stateMutability": "payable",
      "type": "constructor"
    },
    {
      "inputs": [
        {
          "internalType": "address",
          "name": "sender",
          "type": "address"
        },
        {
          "internalType": "uint256",
          "name": "balance",
          "type": "uint256"
        },
        {
          "internalType": "uint256",
          "name": "needed",
          "type": "uint256"
        },
        {
          "internalType": "uint256",
          "name": "tokenId",
          "type": "uint256"
        }
      ],
      "name": "ERC1155InsufficientBalance",
      "type": "error"
    },
    {
      "inputs": [
        {
          "internalType": "address",
          "name": "approver",
          "type": "address"
        }
      ],
      "name": "ERC1155InvalidApprover",
      "type": "error"
    },
    {
      "inputs": [
        {
          "internalType": "uint256",
          "name": "idsLength",
          "type": "uint256"
        },
        {
          "internalType": "uint256",
          "name": "valuesLength",
          "type": "uint256"
        }
      ],
      "name": "ERC1155InvalidArrayLength",
      "type": "error"
    },
    {
      "inputs": [
        {
          "internalType": "address",
          "name": "operator",
          "type": "address"
        }
      ],
      "name": "ERC1155InvalidOperator",
      "type": "error"
    },
    {
      "inputs": [
        {
          "internalType": "address",
          "name": "receiver",
          "type": "address"
        }
      ],
      "name": "ERC1155InvalidReceiver",
      "type": "error"
    },
    {
      "inputs": [
        {
          "internalType": "address",
          "name": "sender",
          "type": "address"
        }
      ],
      "name": "ERC1155InvalidSender",
      "type": "error"
    },
    {
      "inputs": [
        {
          "internalType": "address",
          "name": "operator",
          "type": "address"
        },
        {
          "internalType": "address",
          "name": "owner",
          "type": "address"
        }
      ],
      "name": "ERC1155MissingApprovalForAll",
      "type": "error"
    },
    {
      "anonymous": false,
      "inputs": [
        {
          "indexed": true,
          "internalType": "address",
          "name": "account",
          "type": "address"
        },
        {
          "indexed": true,
          "internalType": "address",
          "name": "operator",
          "type": "address"
        },
        {
          "indexed": false,
          "internalType": "bool",
          "name": "approved",
          "type": "bool"
        }
      ],
      "name": "ApprovalForAll",
      "type": "event"
    },
    {
      "anonymous": false,
      "inputs": [
        {
          "indexed": true,
          "internalType": "address",
          "name": "operator",
          "type": "address"
        },
        {
          "indexed": true,
          "internalType": "address",
          "name": "from",
          "type": "address"
        },
        {
          "indexed": true,
          "internalType": "address",
          "name": "to",
          "type": "address"
        },
        {
          "indexed": false,
          "internalType": "uint256[]",
          "name": "ids",
          "type": "uint256[]"
        },
        {
          "indexed": false,
          "internalType": "uint256[]",
          "name": "values",
          "type": "uint256[]"
        }
      ],
      "name": "TransferBatch",
      "type": "event"
    },
    {
      "anonymous": false,
      "inputs": [
        {
          "indexed": true,
          "internalType": "address",
          "name": "operator",
          "type": "address"
        },
        {
          "indexed": true,
          "internalType": "address",
          "name": "from",
          "type": "address"
        },
        {
          "indexed": true,
          "internalType": "address",
          "name": "to",
          "type": "address"
        },
        {
          "indexed": false,
          "internalType": "uint256",
          "name": "id",
          "type": "uint256"
        },
        {
          "indexed": false,
          "internalType": "uint256",
          "name": "value",
          "type": "uint256"
        }
      ],
      "name": "TransferSingle",
      "type": "event"
    },
    {
      "anonymous": false,
      "inputs": [
        {
          "indexed": false,
          "internalType": "string",
          "name": "value",
          "type": "string"
        },
        {
          "indexed": true,
          "internalType": "uint256",
          "name": "id",
          "type": "uint256"
        }
      ],
      "name": "URI",
      "type": "event"
    },
    {
      "inputs": [
        {
          "internalType": "address",
          "name": "from",
          "type": "address"
        },
        {
          "internalType": "uint256",
          "name": "id",
          "type": "uint256"
        },
        {
          "internalType": "uint256",
          "name": "value",
          "type": "uint256"
        }
      ],
      "name": "$_burn",
      "outputs": [],
      "stateMutability": "nonpayable",
      "type": "function"
    },
    {
      "inputs": [
        {
          "internalType": "address",
          "name": "from",
          "type": "address"
        },
        {
          "internalType": "uint256[]",
          "name": "ids",
          "type": "uint256[]"
        },
        {
          "internalType": "uint256[]",
          "name": "values",
          "type": "uint256[]"
        }
      ],
      "name": "$_burnBatch",
      "outputs": [],
      "stateMutability": "nonpayable",
      "type": "function"
    },
    {
      "inputs": [],
      "name": "$_contextSuffixLength",
      "outputs": [
        {
          "internalType": "uint256",
          "name": "ret0",
          "type": "uint256"
        }
      ],
      "stateMutability": "view",
      "type": "function"
    },
    {
      "inputs": [
        {
          "internalType": "address",
          "name": "to",
          "type": "address"
        },
        {
          "internalType": "uint256",
          "name": "id",
          "type": "uint256"
        },
        {
          "internalType": "uint256",
          "name": "value",
          "type": "uint256"
        },
        {
          "internalType": "bytes",
          "name": "data",
          "type": "bytes"
        }
      ],
      "name": "$_mint",
      "outputs": [],
      "stateMutability": "nonpayable",
      "type": "function"
    },
    {
      "inputs": [
        {
          "internalType": "address",
          "name": "to",
          "type": "address"
        },
        {
          "internalType": "uint256[]",
          "name": "ids",
          "type": "uint256[]"
        },
        {
          "internalType": "uint256[]",
          "name": "values",
          "type": "uint256[]"
        },
        {
          "internalType": "bytes",
          "name": "data",
          "type": "bytes"
        }
      ],
      "name": "$_mintBatch",
      "outputs": [],
      "stateMutability": "nonpayable",
      "type": "function"
    },
    {
      "inputs": [],
      "name": "$_msgData",
      "outputs": [
        {
          "internalType": "bytes",
          "name": "ret0",
          "type": "bytes"
        }
      ],
      "stateMutability": "view",
      "type": "function"
    },
    {
      "inputs": [],
      "name": "$_msgSender",
      "outputs": [
        {
          "internalType": "address",
          "name": "ret0",
          "type": "address"
        }
      ],
      "stateMutability": "view",
      "type": "function"
    },
    {
      "inputs": [
        {
          "internalType": "address",
          "name": "from",
          "type": "address"
        },
        {
          "internalType": "address",
          "name": "to",
          "type": "address"
        },
        {
          "internalType": "uint256[]",
          "name": "ids",
          "type": "uint256[]"
        },
        {
          "internalType": "uint256[]",
          "name": "values",
          "type": "uint256[]"
        },
        {
          "internalType": "bytes",
          "name": "data",
          "type": "bytes"
        }
      ],
      "name": "$_safeBatchTransferFrom",
      "outputs": [],
      "stateMutability": "nonpayable",
      "type": "function"
    },
    {
      "inputs": [
        {
          "internalType": "address",
          "name": "from",
          "type": "address"
        },
        {
          "internalType": "address",
          "name": "to",
          "type": "address"
        },
        {
          "internalType": "uint256",
          "name": "id",
          "type": "uint256"
        },
        {
          "internalType": "uint256",
          "name": "value",
          "type": "uint256"
        },
        {
          "internalType": "bytes",
          "name": "data",
          "type": "bytes"
        }
      ],
      "name": "$_safeTransferFrom",
      "outputs": [],
      "stateMutability": "nonpayable",
      "type": "function"
    },
    {
      "inputs": [
        {
          "internalType": "address",
          "name": "owner",
          "type": "address"
        },
        {
          "internalType": "address",
          "name": "operator",
          "type": "address"
        },
        {
          "internalType": "bool",
          "name": "approved",
          "type": "bool"
        }
      ],
      "name": "$_setApprovalForAll",
      "outputs": [],
      "stateMutability": "nonpayable",
      "type": "function"
    },
    {
      "inputs": [
        {
          "internalType": "string",
          "name": "baseURI",
          "type": "string"
        }
      ],
      "name": "$_setBaseURI",
      "outputs": [],
      "stateMutability": "nonpayable",
      "type": "function"
    },
    {
      "inputs": [
        {
          "internalType": "uint256",
          "name": "tokenId",
          "type": "uint256"
        },
        {
          "internalType": "string",
          "name": "tokenURI",
          "type": "string"
        }
      ],
      "name": "$_setURI",
      "outputs": [],
      "stateMutability": "nonpayable",
      "type": "function"
    },
    {
      "inputs": [
        {
          "internalType": "string",
          "name": "newuri",
          "type": "string"
        }
      ],
      "name": "$_setURI",
      "outputs": [],
      "stateMutability": "nonpayable",
      "type": "function"
    },
    {
      "inputs": [
        {
          "internalType": "address",
          "name": "from",
          "type": "address"
        },
        {
          "internalType": "address",
          "name": "to",
          "type": "address"
        },
        {
          "internalType": "uint256[]",
          "name": "ids",
          "type": "uint256[]"
        },
        {
          "internalType": "uint256[]",
          "name": "values",
          "type": "uint256[]"
        }
      ],
      "name": "$_update",
      "outputs": [],
      "stateMutability": "nonpayable",
      "type": "function"
    },
    {
      "inputs": [
        {
          "internalType": "address",
          "name": "from",
          "type": "address"
        },
        {
          "internalType": "address",
          "name": "to",
          "type": "address"
        },
        {
          "internalType": "uint256[]",
          "name": "ids",
          "type": "uint256[]"
        },
        {
          "internalType": "uint256[]",
          "name": "values",
          "type": "uint256[]"
        },
        {
          "internalType": "bytes",
          "name": "data",
          "type": "bytes"
        }
      ],
      "name": "$_updateWithAcceptanceCheck",
      "outputs": [],
      "stateMutability": "nonpayable",
      "type": "function"
    },
    {
      "inputs": [],
      "name": "__hh_exposed_bytecode_marker",
      "outputs": [
        {
          "internalType": "bytes32",
          "name": "",
          "type": "bytes32"
        }
      ],
      "stateMutability": "view",
      "type": "function"
    },
    {
      "inputs": [
        {
          "internalType": "address",
          "name": "account",
          "type": "address"
        },
        {
          "internalType": "uint256",
          "name": "id",
          "type": "uint256"
        }
      ],
      "name": "balanceOf",
      "outputs": [
        {
          "internalType": "uint256",
          "name": "",
          "type": "uint256"
        }
      ],
      "stateMutability": "view",
      "type": "function"
    },
    {
      "inputs": [
        {
          "internalType": "address[]",
          "name": "accounts",
          "type": "address[]"
        },
        {
          "internalType": "uint256[]",
          "name": "ids",
          "type": "uint256[]"
        }
      ],
      "name": "balanceOfBatch",
      "outputs": [
        {
          "internalType": "uint256[]",
          "name": "",
          "type": "uint256[]"
        }
      ],
      "stateMutability": "view",
      "type": "function"
    },
    {
      "inputs": [
        {
          "internalType": "address",
          "name": "account",
          "type": "address"
        },
        {
          "internalType": "address",
          "name": "operator",
          "type": "address"
        }
      ],
      "name": "isApprovedForAll",
      "outputs": [
        {
          "internalType": "bool",
          "name": "",
          "type": "bool"
        }
      ],
      "stateMutability": "view",
      "type": "function"
    },
    {
      "inputs": [
        {
          "internalType": "address",
          "name": "from",
          "type": "address"
        },
        {
          "internalType": "address",
          "name": "to",
          "type": "address"
        },
        {
          "internalType": "uint256[]",
          "name": "ids",
          "type": "uint256[]"
        },
        {
          "internalType": "uint256[]",
          "name": "values",
          "type": "uint256[]"
        },
        {
          "internalType": "bytes",
          "name": "data",
          "type": "bytes"
        }
      ],
      "name": "safeBatchTransferFrom",
      "outputs": [],
      "stateMutability": "nonpayable",
      "type": "function"
    },
    {
      "inputs": [
        {
          "internalType": "address",
          "name": "from",
          "type": "address"
        },
        {
          "internalType": "address",
          "name": "to",
          "type": "address"
        },
        {
          "internalType": "uint256",
          "name": "id",
          "type": "uint256"
        },
        {
          "internalType": "uint256",
          "name": "value",
          "type": "uint256"
        },
        {
          "internalType": "bytes",
          "name": "data",
          "type": "bytes"
        }
      ],
      "name": "safeTransferFrom",
      "outputs": [],
      "stateMutability": "nonpayable",
      "type": "function"
    },
    {
      "inputs": [
        {
          "internalType": "address",
          "name": "operator",
          "type": "address"
        },
        {
          "internalType": "bool",
          "name": "approved",
          "type": "bool"
        }
      ],
      "name": "setApprovalForAll",
      "outputs": [],
      "stateMutability": "nonpayable",
      "type": "function"
    },
    {
      "inputs": [
        {
          "internalType": "bytes4",
          "name": "interfaceId",
          "type": "bytes4"
        }
      ],
      "name": "supportsInterface",
      "outputs": [
        {
          "internalType": "bool",
          "name": "",
          "type": "bool"
        }
      ],
      "stateMutability": "view",
      "type": "function"
    },
    {
      "inputs": [
        {
          "internalType": "uint256",
          "name": "tokenId",
          "type": "uint256"
        }
      ],
      "name": "uri",
      "outputs": [
        {
          "internalType": "string",
          "name": "",
          "type": "string"
        }
      ],
      "stateMutability": "view",
      "type": "function"
    },
    {
      "stateMutability": "payable",
      "type": "receive"
    }
  ],
  "bytecode": "0x60a06040525f608090815260039062000019908262000100565b50604051620022dd380380620022dd8339810160408190526200003c91620001cc565b80620000488162000050565b50506200029a565b60026200005e828262000100565b5050565b634e487b7160e01b5f52604160045260245ffd5b600181811c908216806200008b57607f821691505b602082108103620000aa57634e487b7160e01b5f52602260045260245ffd5b50919050565b601f821115620000fb57805f5260205f20601f840160051c81016020851015620000d75750805b601f840160051c820191505b81811015620000f8575f8155600101620000e3565b50505b505050565b81516001600160401b038111156200011c576200011c62000062565b62000134816200012d845462000076565b84620000b0565b602080601f8311600181146200016a575f8415620001525750858301515b5f19600386901b1c1916600185901b178555620001c4565b5f85815260208120601f198616915b828110156200019a5788860151825594840194600190910190840162000179565b5085821015620001b857878501515f19600388901b60f8161c191681555b505060018460011b0185555b505050505050565b5f6020808385031215620001de575f80fd5b82516001600160401b0380821115620001f5575f80fd5b818501915085601f83011262000209575f80fd5b8151818111156200021e576200021e62000062565b604051601f8201601f19908116603f0116810190838211818310171562000249576200024962000062565b81604052828152888684870101111562000261575f80fd5b5f93505b8284101562000284578484018601518185018701529285019262000265565b5f86848301015280965050505050505092915050565b61203580620002a85f395ff3fe608060405260043610610149575f3560e01c806367354a84116100b3578063cfeea0d41161006d578063cfeea0d4146103aa578063e985e9c5146103c9578063e9f8c252146103e8578063ec3016f714610407578063eebe6ab414610426578063f242432a14610445575f80fd5b806367354a84146102fd5780637dfd6d691461030f578063a22cb4651461032e578063af32f2f21461034d578063b556c3281461036c578063bf445cb81461038b575f80fd5b80632d64f479116101045780632d64f4791461023b5780632eb2c2d61461025a57806332cadf3c14610279578063342db7391461028d57806338106e25146102b25780634e1273f4146102d1575f80fd5b8062fdd58e1461015457806301ffc9a7146101865780630c3c37ae146101b55780630e89341c146101d65780631cb3e125146102025780632904df2914610221575f80fd5b3661015057005b5f80fd5b34801561015f575f80fd5b5061017361016e36600461142b565b610464565b6040519081526020015b60405180910390f35b348015610191575f80fd5b506101a56101a036600461146b565b61048b565b604051901515815260200161017d565b3480156101c0575f80fd5b506101d46101cf3660046114ca565b6104da565b005b3480156101e1575f80fd5b506101f56101f036600461153c565b610524565b60405161017d91906115a0565b34801561020d575f80fd5b506101d461021c3660046115b2565b610600565b34801561022c575f80fd5b5060405133815260200161017d565b348015610246575f80fd5b506101d4610255366004611630565b610642565b348015610265575f80fd5b506101d461027436600461181f565b6106ec565b348015610284575f80fd5b506101f5610750565b348015610298575f80fd5b506101736e1a185c991a185d0b595e1c1bdcd959608a1b81565b3480156102bd575f80fd5b506101d46102cc3660046118c1565b61078d565b3480156102dc575f80fd5b506102f06102eb36600461193b565b610800565b60405161017d9190611a2e565b348015610308575f80fd5b505f610173565b34801561031a575f80fd5b506101d4610329366004611a40565b6108ca565b348015610339575f80fd5b506101d4610348366004611aa0565b61090b565b348015610358575f80fd5b506101d4610367366004611ad1565b610916565b348015610377575f80fd5b506101d4610386366004611b49565b610983565b348015610396575f80fd5b506101d46103a5366004611b79565b610993565b3480156103b5575f80fd5b506101d46103c4366004611c1b565b610a3b565b3480156103d4575f80fd5b506101a56103e3366004611c5b565b610a46565b3480156103f3575f80fd5b506101d4610402366004611c83565b610a73565b348015610412575f80fd5b506101d46104213660046115b2565b610ab2565b348015610431575f80fd5b506101d4610440366004611630565b610af0565b348015610450575f80fd5b506101d461045f366004611cca565b610b90565b5f818152602081815260408083206001600160a01b03861684529091529020545b92915050565b5f6001600160e01b03198216636cdb3d1360e11b14806104bb57506001600160e01b031982166303a24d0760e21b145b8061048557506301ffc9a760e01b6001600160e01b0319831614610485565b61051c8686868686868080601f0160208091040260200160405190810160405280939291908181526020018383808284375f92019190915250610beb92505050565b505050505050565b5f8181526004602052604081208054606092919061054190611d29565b80601f016020809104026020016040519081016040528092919081815260200182805461056d90611d29565b80156105b85780601f1061058f576101008083540402835291602001916105b8565b820191905f5260205f20905b81548152906001019060200180831161059b57829003601f168201915b505050505090505f8151116105d5576105d083610c6e565b6105f9565b6003816040516020016105e9929190611d61565b6040516020818303038152906040525b9392505050565b61063e82828080601f0160208091040260200160405190810160405280939291908181526020018383808284375f92019190915250610d0092505050565b5050565b6106e288888888808060200260200160405190810160405280939291908181526020018383602002808284375f9201919091525050604080516020808c0282810182019093528b82529093508b92508a9182918501908490808284375f9201919091525050604080516020601f8b0181900481028201810190925289815292508991508890819084018382808284375f92019190915250610d0c92505050565b5050505050505050565b336001600160a01b038616811480159061070d575061070b8682610a46565b155b156107435760405163711bec9160e11b81526001600160a01b038083166004830152871660248201526044015b60405180910390fd5b61051c8686868686610d5f565b60605f368080601f0160208091040260200160405190810160405280939291908181526020018383808284375f9201919091525092949350505050565b6107f9858585808060200260200160405190810160405280939291908181526020018383602002808284375f92019190915250506040805160208089028281018201909352888252909350889250879182918501908490808284375f92019190915250610dbd92505050565b5050505050565b606081518351146108315781518351604051635b05999160e01b81526004810192909252602482015260440161073a565b5f83516001600160401b0381111561084b5761084b6116e2565b604051908082528060200260200182016040528015610874578160200160208202803683370190505b5090505f5b84518110156108c25760208082028601015161089d90602080840287010151610464565b8282815181106108af576108af611de4565b6020908102919091010152600101610879565b509392505050565b6107f985858585858080601f0160208091040260200160405190810160405280939291908181526020018383808284375f92019190915250610e0092505050565b61063e338383610e5b565b61051c86868686808060200260200160405190810160405280939291908181526020018383602002808284375f9201919091525050604080516020808a028281018201909352898252909350899250889182918501908490808284375f92019190915250610eef92505050565b61098e8383836110fe565b505050565b610a32878787808060200260200160405190810160405280939291908181526020018383602002808284375f9201919091525050604080516020808b0282810182019093528a82529093508a9250899182918501908490808284375f9201919091525050604080516020601f8a0181900481028201810190925288815292508891508790819084018382808284375f9201919091525061116492505050565b50505050505050565b61098e838383610e5b565b6001600160a01b039182165f90815260016020908152604080832093909416825291909152205460ff1690565b61098e8383838080601f0160208091040260200160405190810160405280939291908181526020018383808284375f920191909152506111a092505050565b61063e82828080601f0160208091040260200160405190810160405280939291908181526020018383808284375f920191909152506111fc92505050565b6106e288888888808060200260200160405190810160405280939291908181526020018383602002808284375f9201919091525050604080516020808c0282810182019093528b82529093508b92508a9182918501908490808284375f9201919091525050604080516020601f8b0181900481028201810190925289815292508991508890819084018382808284375f92019190915250610d5f92505050565b336001600160a01b0386168114801590610bb15750610baf8682610a46565b155b15610be25760405163711bec9160e11b81526001600160a01b0380831660048301528716602482015260440161073a565b61051c86868686865b6001600160a01b038416610c1457604051632bfa23e760e11b81525f600482015260240161073a565b6001600160a01b038516610c3c57604051626a0d4560e21b81525f600482015260240161073a565b60408051600180825260208201869052818301908152606082018590526080820190925290610a328787848487610d0c565b606060028054610c7d90611d29565b80601f0160208091040260200160405190810160405280929190818152602001828054610ca990611d29565b8015610cf45780601f10610ccb57610100808354040283529160200191610cf4565b820191905f5260205f20905b815481529060010190602001808311610cd757829003601f168201915b50505050509050919050565b600361063e8282611e3c565b610d1885858585610eef565b6001600160a01b038416156107f95782513390600103610d515760208481015190840151610d4a838989858589611208565b505061051c565b61051c818787878787611329565b6001600160a01b038416610d8857604051632bfa23e760e11b81525f600482015260240161073a565b6001600160a01b038516610db057604051626a0d4560e21b81525f600482015260240161073a565b6107f98585858585610d0c565b6001600160a01b038316610de557604051626a0d4560e21b81525f600482015260240161073a565b61098e835f848460405180602001604052805f815250610d0c565b6001600160a01b038416610e2957604051632bfa23e760e11b81525f600482015260240161073a565b6040805160018082526020820186905281830190815260608201859052608082019092529061051c5f87848487610d0c565b6001600160a01b038216610e835760405162ced3e160e81b81525f600482015260240161073a565b6001600160a01b038381165f81815260016020908152604080832094871680845294825291829020805460ff191686151590811790915591519182527f17307eab39ab6107e8899845ad3d59bd9653f200f220920489ca2b5937696c31910160405180910390a3505050565b8051825114610f1e5781518151604051635b05999160e01b81526004810192909252602482015260440161073a565b335f5b8351811015611020576020818102858101820151908501909101516001600160a01b03881615610fd2575f828152602081815260408083206001600160a01b038c16845290915290205481811015610fac576040516303dee4c560e01b81526001600160a01b038a16600482015260248101829052604481018390526064810184905260840161073a565b5f838152602081815260408083206001600160a01b038d16845290915290209082900390555b6001600160a01b03871615611016575f828152602081815260408083206001600160a01b038b16845290915281208054839290611010908490611ef7565b90915550505b5050600101610f21565b5082516001036110a05760208301515f906020840151909150856001600160a01b0316876001600160a01b0316846001600160a01b03167fc3d58168c5ae7397731d063d5bbf3d657854427343f4c083240f7aacaa2d0f628585604051611091929190918252602082015260400190565b60405180910390a450506107f9565b836001600160a01b0316856001600160a01b0316826001600160a01b03167f4a39dc06d4c0dbc64b70af90fd698a233a518aa5d07e595d983b8c0526c8f7fb86866040516110ef929190611f16565b60405180910390a45050505050565b6001600160a01b03831661112657604051626a0d4560e21b81525f600482015260240161073a565b604080516001808252602082018590528183019081526060820184905260a082019092525f608082018181529192916107f991879185908590610d0c565b6001600160a01b03841661118d57604051632bfa23e760e11b81525f600482015260240161073a565b61119a5f85858585610d0c565b50505050565b5f8281526004602052604090206111b78282611e3c565b50817f6bb7ff708619ba0610cba295a58592e0451dee2622938c8755667688daf3529b6111e384610524565b6040516111f091906115a0565b60405180910390a25050565b600261063e8282611e3c565b6001600160a01b0384163b1561051c5760405163f23a6e6160e01b81526001600160a01b0385169063f23a6e619061124c9089908990889088908890600401611f43565b6020604051808303815f875af1925050508015611286575060408051601f3d908101601f1916820190925261128391810190611f87565b60015b6112ed573d8080156112b3576040519150601f19603f3d011682016040523d82523d5f602084013e6112b8565b606091505b5080515f036112e557604051632bfa23e760e11b81526001600160a01b038616600482015260240161073a565b805181602001fd5b6001600160e01b0319811663f23a6e6160e01b14610a3257604051632bfa23e760e11b81526001600160a01b038616600482015260240161073a565b6001600160a01b0384163b1561051c5760405163bc197c8160e01b81526001600160a01b0385169063bc197c819061136d9089908990889088908890600401611fa2565b6020604051808303815f875af19250505080156113a7575060408051601f3d908101601f191682019092526113a491810190611f87565b60015b6113d4573d8080156112b3576040519150601f19603f3d011682016040523d82523d5f602084013e6112b8565b6001600160e01b0319811663bc197c8160e01b14610a3257604051632bfa23e760e11b81526001600160a01b038616600482015260240161073a565b80356001600160a01b0381168114611426575f80fd5b919050565b5f806040838503121561143c575f80fd5b61144583611410565b946020939093013593505050565b6001600160e01b031981168114611468575f80fd5b50565b5f6020828403121561147b575f80fd5b81356105f981611453565b5f8083601f840112611496575f80fd5b5081356001600160401b038111156114ac575f80fd5b6020830191508360208285010111156114c3575f80fd5b9250929050565b5f805f805f8060a087890312156114df575f80fd5b6114e887611410565b95506114f660208801611410565b9450604087013593506060870135925060808701356001600160401b0381111561151e575f80fd5b61152a89828a01611486565b979a9699509497509295939492505050565b5f6020828403121561154c575f80fd5b5035919050565b5f5b8381101561156d578181015183820152602001611555565b50505f910152565b5f815180845261158c816020860160208601611553565b601f01601f19169290920160200192915050565b602081525f6105f96020830184611575565b5f80602083850312156115c3575f80fd5b82356001600160401b038111156115d8575f80fd5b6115e485828601611486565b90969095509350505050565b5f8083601f840112611600575f80fd5b5081356001600160401b03811115611616575f80fd5b6020830191508360208260051b85010111156114c3575f80fd5b5f805f805f805f8060a0898b031215611647575f80fd5b61165089611410565b975061165e60208a01611410565b965060408901356001600160401b0380821115611679575f80fd5b6116858c838d016115f0565b909850965060608b013591508082111561169d575f80fd5b6116a98c838d016115f0565b909650945060808b01359150808211156116c1575f80fd5b506116ce8b828c01611486565b999c989b5096995094979396929594505050565b634e487b7160e01b5f52604160045260245ffd5b604051601f8201601f191681016001600160401b038111828210171561171e5761171e6116e2565b604052919050565b5f6001600160401b0382111561173e5761173e6116e2565b5060051b60200190565b5f82601f830112611757575f80fd5b8135602061176c61176783611726565b6116f6565b8083825260208201915060208460051b87010193508684111561178d575f80fd5b602086015b848110156117a95780358352918301918301611792565b509695505050505050565b5f82601f8301126117c3575f80fd5b81356001600160401b038111156117dc576117dc6116e2565b6117ef601f8201601f19166020016116f6565b818152846020838601011115611803575f80fd5b816020850160208301375f918101602001919091529392505050565b5f805f805f60a08688031215611833575f80fd5b61183c86611410565b945061184a60208701611410565b935060408601356001600160401b0380821115611865575f80fd5b61187189838a01611748565b94506060880135915080821115611886575f80fd5b61189289838a01611748565b935060808801359150808211156118a7575f80fd5b506118b4888289016117b4565b9150509295509295909350565b5f805f805f606086880312156118d5575f80fd5b6118de86611410565b945060208601356001600160401b03808211156118f9575f80fd5b61190589838a016115f0565b9096509450604088013591508082111561191d575f80fd5b5061192a888289016115f0565b969995985093965092949392505050565b5f806040838503121561194c575f80fd5b82356001600160401b0380821115611962575f80fd5b818501915085601f830112611975575f80fd5b8135602061198561176783611726565b82815260059290921b840181019181810190898411156119a3575f80fd5b948201945b838610156119c8576119b986611410565b825294820194908201906119a8565b965050860135925050808211156119dd575f80fd5b506119ea85828601611748565b9150509250929050565b5f815180845260208085019450602084015f5b83811015611a2357815187529582019590820190600101611a07565b509495945050505050565b602081525f6105f960208301846119f4565b5f805f805f60808688031215611a54575f80fd5b611a5d86611410565b9450602086013593506040860135925060608601356001600160401b03811115611a85575f80fd5b61192a88828901611486565b80358015158114611426575f80fd5b5f8060408385031215611ab1575f80fd5b611aba83611410565b9150611ac860208401611a91565b90509250929050565b5f805f805f8060808789031215611ae6575f80fd5b611aef87611410565b9550611afd60208801611410565b945060408701356001600160401b0380821115611b18575f80fd5b611b248a838b016115f0565b90965094506060890135915080821115611b3c575f80fd5b5061152a89828a016115f0565b5f805f60608486031215611b5b575f80fd5b611b6484611410565b95602085013595506040909401359392505050565b5f805f805f805f6080888a031215611b8f575f80fd5b611b9888611410565b965060208801356001600160401b0380821115611bb3575f80fd5b611bbf8b838c016115f0565b909850965060408a0135915080821115611bd7575f80fd5b611be38b838c016115f0565b909650945060608a0135915080821115611bfb575f80fd5b50611c088a828b01611486565b989b979a50959850939692959293505050565b5f805f60608486031215611c2d575f80fd5b611c3684611410565b9250611c4460208501611410565b9150611c5260408501611a91565b90509250925092565b5f8060408385031215611c6c575f80fd5b611c7583611410565b9150611ac860208401611410565b5f805f60408486031215611c95575f80fd5b8335925060208401356001600160401b03811115611cb1575f80fd5b611cbd86828701611486565b9497909650939450505050565b5f805f805f60a08688031215611cde575f80fd5b611ce786611410565b9450611cf560208701611410565b9350604086013592506060860135915060808601356001600160401b03811115611d1d575f80fd5b6118b4888289016117b4565b600181811c90821680611d3d57607f821691505b602082108103611d5b57634e487b7160e01b5f52602260045260245ffd5b50919050565b5f808454611d6e81611d29565b60018281168015611d865760018114611d9b57611dc7565b60ff1984168752821515830287019450611dc7565b885f526020805f205f5b85811015611dbe5781548a820152908401908201611da5565b50505082870194505b505050508351611ddb818360208801611553565b01949350505050565b634e487b7160e01b5f52603260045260245ffd5b601f82111561098e57805f5260205f20601f840160051c81016020851015611e1d5750805b601f840160051c820191505b818110156107f9575f8155600101611e29565b81516001600160401b03811115611e5557611e556116e2565b611e6981611e638454611d29565b84611df8565b602080601f831160018114611e9c575f8415611e855750858301515b5f19600386901b1c1916600185901b17855561051c565b5f85815260208120601f198616915b82811015611eca57888601518255948401946001909101908401611eab565b5085821015611ee757878501515f19600388901b60f8161c191681555b5050505050600190811b01905550565b8082018082111561048557634e487b7160e01b5f52601160045260245ffd5b604081525f611f2860408301856119f4565b8281036020840152611f3a81856119f4565b95945050505050565b6001600160a01b03868116825285166020820152604081018490526060810183905260a0608082018190525f90611f7c90830184611575565b979650505050505050565b5f60208284031215611f97575f80fd5b81516105f981611453565b6001600160a01b0386811682528516602082015260a0604082018190525f90611fcd908301866119f4565b8281036060840152611fdf81866119f4565b90508281036080840152611ff38185611575565b9897505050505050505056fea2646970667358221220af02b1f82d1bc7a1385468d65c14be94f29423fd0976f3ea972f59d1dd12240064736f6c63430008180033",
  "linkReferences": {},
  "deployedLinkReferences": {}
}