{
  "_format": "hh-sol-artifact-1",
  "contractName": "FixedPointTest",
  "sourceName": "contracts/lib/contracts/test/FixedPointTest.sol",
  "abi": [
    {
      "inputs": [
        {
          "components": [
            {
              "internalType": "uint224",
              "name": "_x",
              "type": "uint224"
            }
          ],
          "internalType": "struct FixedPoint.uq112x112",
          "name": "self",
          "type": "tuple"
        }
      ],
      "name": "decode",
      "outputs": [
        {
          "internalType": "uint112",
          "name": "",
          "type": "uint112"
        }
      ],
      "stateMutability": "pure",
      "type": "function"
    },
    {
      "inputs": [
        {
          "components": [
            {
              "internalType": "uint256",
              "name": "_x",
              "type": "uint256"
            }
          ],
          "internalType": "struct FixedPoint.uq144x112",
          "name": "self",
          "type": "tuple"
        }
      ],
      "name": "decode144",
      "outputs": [
        {
          "internalType": "uint144",
          "name": "",
          "type": "uint144"
        }
      ],
      "stateMutability": "pure",
      "type": "function"
    },
    {
      "inputs": [
        {
          "components": [
            {
              "internalType": "uint224",
              "name": "_x",
              "type": "uint224"
            }
          ],
          "internalType": "struct FixedPoint.uq112x112",
          "name": "self",
          "type": "tuple"
        },
        {
          "components": [
            {
              "internalType": "uint224",
              "name": "_x",
              "type": "uint224"
            }
          ],
          "internalType": "struct FixedPoint.uq112x112",
          "name": "other",
          "type": "tuple"
        }
      ],
      "name": "divuq",
      "outputs": [
        {
          "components": [
            {
              "internalType": "uint224",
              "name": "_x",
              "type": "uint224"
            }
          ],
          "internalType": "struct FixedPoint.uq112x112",
          "name": "",
          "type": "tuple"
        }
      ],
      "stateMutability": "pure",
      "type": "function"
    },
    {
      "inputs": [
        {
          "internalType": "uint112",
          "name": "x",
          "type": "uint112"
        }
      ],
      "name": "encode",
      "outputs": [
        {
          "components": [
            {
              "internalType": "uint224",
              "name": "_x",
              "type": "uint224"
            }
          ],
          "internalType": "struct FixedPoint.uq112x112",
          "name": "",
          "type": "tuple"
        }
      ],
      "stateMutability": "pure",
      "type": "function"
    },
    {
      "inputs": [
        {
          "internalType": "uint144",
          "name": "x",
          "type": "uint144"
        }
      ],
      "name": "encode144",
      "outputs": [
        {
          "components": [
            {
              "internalType": "uint256",
              "name": "_x",
              "type": "uint256"
            }
          ],
          "internalType": "struct FixedPoint.uq144x112",
          "name": "",
          "type": "tuple"
        }
      ],
      "stateMutability": "pure",
      "type": "function"
    },
    {
      "inputs": [
        {
          "internalType": "uint256",
          "name": "numerator",
          "type": "uint256"
        },
        {
          "internalType": "uint256",
          "name": "denominator",
          "type": "uint256"
        }
      ],
      "name": "fraction",
      "outputs": [
        {
          "components": [
            {
              "internalType": "uint224",
              "name": "_x",
              "type": "uint224"
            }
          ],
          "internalType": "struct FixedPoint.uq112x112",
          "name": "",
          "type": "tuple"
        }
      ],
      "stateMutability": "pure",
      "type": "function"
    },
    {
      "inputs": [
        {
          "components": [
            {
              "internalType": "uint224",
              "name": "_x",
              "type": "uint224"
            }
          ],
          "internalType": "struct FixedPoint.uq112x112",
          "name": "self",
          "type": "tuple"
        },
        {
          "components": [
            {
              "internalType": "uint224",
              "name": "_x",
              "type": "uint224"
            }
          ],
          "internalType": "struct FixedPoint.uq112x112",
          "name": "other",
          "type": "tuple"
        }
      ],
      "name": "getGasCostOfDivuq",
      "outputs": [
        {
          "internalType": "uint256",
          "name": "",
          "type": "uint256"
        }
      ],
      "stateMutability": "view",
      "type": "function"
    },
    {
      "inputs": [
        {
          "internalType": "uint256",
          "name": "numerator",
          "type": "uint256"
        },
        {
          "internalType": "uint256",
          "name": "denominator",
          "type": "uint256"
        }
      ],
      "name": "getGasCostOfFraction",
      "outputs": [
        {
          "internalType": "uint256",
          "name": "",
          "type": "uint256"
        }
      ],
      "stateMutability": "view",
      "type": "function"
    },
    {
      "inputs": [
        {
          "components": [
            {
              "internalType": "uint224",
              "name": "_x",
              "type": "uint224"
            }
          ],
          "internalType": "struct FixedPoint.uq112x112",
          "name": "self",
          "type": "tuple"
        },
        {
          "components": [
            {
              "internalType": "uint224",
              "name": "_x",
              "type": "uint224"
            }
          ],
          "internalType": "struct FixedPoint.uq112x112",
          "name": "other",
          "type": "tuple"
        }
      ],
      "name": "getGasCostOfMuluq",
      "outputs": [
        {
          "internalType": "uint256",
          "name": "",
          "type": "uint256"
        }
      ],
      "stateMutability": "view",
      "type": "function"
    },
    {
      "inputs": [
        {
          "components": [
            {
              "internalType": "uint224",
              "name": "_x",
              "type": "uint224"
            }
          ],
          "internalType": "struct FixedPoint.uq112x112",
          "name": "self",
          "type": "tuple"
        }
      ],
      "name": "getGasCostOfSqrt",
      "outputs": [
        {
          "internalType": "uint256",
          "name": "",
          "type": "uint256"
        }
      ],
      "stateMutability": "view",
      "type": "function"
    },
    {
      "inputs": [
        {
          "components": [
            {
              "internalType": "uint224",
              "name": "_x",
              "type": "uint224"
            }
          ],
          "internalType": "struct FixedPoint.uq112x112",
          "name": "self",
          "type": "tuple"
        },
        {
          "internalType": "uint256",
          "name": "y",
          "type": "uint256"
        }
      ],
      "name": "mul",
      "outputs": [
        {
          "components": [
            {
              "internalType": "uint256",
              "name": "_x",
              "type": "uint256"
            }
          ],
          "internalType": "struct FixedPoint.uq144x112",
          "name": "",
          "type": "tuple"
        }
      ],
      "stateMutability": "pure",
      "type": "function"
    },
    {
      "inputs": [
        {
          "components": [
            {
              "internalType": "uint224",
              "name": "_x",
              "type": "uint224"
            }
          ],
          "internalType": "struct FixedPoint.uq112x112",
          "name": "self",
          "type": "tuple"
        },
        {
          "internalType": "int256",
          "name": "y",
          "type": "int256"
        }
      ],
      "name": "muli",
      "outputs": [
        {
          "internalType": "int256",
          "name": "",
          "type": "int256"
        }
      ],
      "stateMutability": "pure",
      "type": "function"
    },
    {
      "inputs": [
        {
          "components": [
            {
              "internalType": "uint224",
              "name": "_x",
              "type": "uint224"
            }
          ],
          "internalType": "struct FixedPoint.uq112x112",
          "name": "self",
          "type": "tuple"
        },
        {
          "components": [
            {
              "internalType": "uint224",
              "name": "_x",
              "type": "uint224"
            }
          ],
          "internalType": "struct FixedPoint.uq112x112",
          "name": "other",
          "type": "tuple"
        }
      ],
      "name": "muluq",
      "outputs": [
        {
          "components": [
            {
              "internalType": "uint224",
              "name": "_x",
              "type": "uint224"
            }
          ],
          "internalType": "struct FixedPoint.uq112x112",
          "name": "",
          "type": "tuple"
        }
      ],
      "stateMutability": "pure",
      "type": "function"
    },
    {
      "inputs": [
        {
          "components": [
            {
              "internalType": "uint224",
              "name": "_x",
              "type": "uint224"
            }
          ],
          "internalType": "struct FixedPoint.uq112x112",
          "name": "self",
          "type": "tuple"
        }
      ],
      "name": "reciprocal",
      "outputs": [
        {
          "components": [
            {
              "internalType": "uint224",
              "name": "_x",
              "type": "uint224"
            }
          ],
          "internalType": "struct FixedPoint.uq112x112",
          "name": "",
          "type": "tuple"
        }
      ],
      "stateMutability": "pure",
      "type": "function"
    },
    {
      "inputs": [
        {
          "components": [
            {
              "internalType": "uint224",
              "name": "_x",
              "type": "uint224"
            }
          ],
          "internalType": "struct FixedPoint.uq112x112",
          "name": "self",
          "type": "tuple"
        }
      ],
      "name": "sqrt",
      "outputs": [
        {
          "components": [
            {
              "internalType": "uint224",
              "name": "_x",
              "type": "uint224"
            }
          ],
          "internalType": "struct FixedPoint.uq112x112",
          "name": "",
          "type": "tuple"
        }
      ],
      "stateMutability": "pure",
      "type": "function"
    }
  ],
  "bytecode": "0x608060405234801561001057600080fd5b506113af806100206000396000f3fe608060405234801561001057600080fd5b50600436106100f55760003560e01c80636d173f7111610097578063c814e31411610066578063c814e31414610215578063ca2d029914610228578063ca74fcc01461023b578063d993d3791461024e576100f5565b80636d173f71146101bc57806389258451146101cf578063af35b769146101e2578063b1acad5c14610202576100f5565b80634fd04a40116100d35780634fd04a40146101495780635a606689146101695780635f9f4c3b1461017c578063644a478b1461019c576100f5565b80630f1530e4146100fa57806331f92b13146101235780633f1626c814610136575b600080fd5b61010d610108366004610f81565b610261565b60405161011a91906112fb565b60405180910390f35b61010d610131366004610e37565b61027c565b61010d610144366004610e37565b6102a3565b61015c610157366004610e37565b6102c2565b60405161011a9190611318565b61010d610177366004610e7c565b6102db565b61018f61018a366004610e37565b610309565b60405161011a9190611333565b6101af6101aa366004610f81565b610322565b60405161011a9190610fa2565b6101af6101ca366004610e7c565b61033d565b6101af6101dd366004610e52565b610364565b6101f56101f0366004610eb0565b61037e565b60405161011a919061130e565b6101af610210366004610e37565b61039e565b6101f5610223366004610f4f565b6103c0565b61010d610236366004610f21565b6103d1565b61010d610249366004610e7c565b6103e2565b6101af61025c366004610e7c565b610410565b610269610dfb565b6102738383610437565b90505b92915050565b610284610dfb565b61029b61029636849003840184610ec2565b61052e565b90505b919050565b6102ab610dfb565b61029b6102bd36849003840184610ec2565b6105dd565b600061029b6102d636849003840184610ec2565b6106bf565b6102e3610dfb565b6102736102f536859003850185610ec2565b61030436859003850185610ec2565b6106d6565b600061029b61031d36849003840184610efc565b610819565b6000805a90506103328484610437565b505a90039392505050565b6000805a905061033261035536869003860186610ec2565b61030436869003860186610ec2565b600061027361037836859003850185610ec2565b83610820565b610386610e0d565b61027361039836859003850185610ec2565b836108ad565b6000805a90506103b66102bd36859003850185610ec2565b505a900392915050565b6103c8610e0d565b61029b8261090c565b6103d9610dfb565b61029b8261093c565b6103ea610dfb565b6102736103fc36859003850185610ec2565b61040b36859003850185610ec2565b610979565b6000805a905061033261042836869003860186610ec2565b61040b36869003860186610ec2565b61043f610dfb565b600082116104685760405162461bcd60e51b815260040161045f906110d3565b60405180910390fd5b826104825750604080516020810190915260008152610276565b71ffffffffffffffffffffffffffffffffffff83116104f457600082607085901b816104aa57fe5b0490506001600160e01b038111156104d45760405162461bcd60e51b815260040161045f90611167565b6040518060200160405280826001600160e01b0316815250915050610276565b600061050584600160701b85610ac5565b90506001600160e01b038111156104d45760405162461bcd60e51b815260040161045f90611167565b610536610dfb565b81516001600160e01b031661055d5760405162461bcd60e51b815260040161045f9061129e565b81600001516001600160e01b03166001141561058b5760405162461bcd60e51b815260040161045f90611269565b604051806020016040528083600001516001600160e01b03167c0100000000000000000000000000000000000000000000000000000000816105c957fe5b046001600160e01b03168152509050919050565b6105e5610dfb565b815171ffffffffffffffffffffffffffffffffffff6001600160e01b039091161161064157604051806020016040528061062f607085600001516001600160e01b0316901b610b4b565b6001600160e01b03169052905061029e565b600061065983600001516001600160e01b0316610c9e565b60ff03905060028160ff168161066b57fe5b0681039050604051806020016040528060028360700360ff168161068b57fe5b0460ff166106ab8460ff1687600001516001600160e01b0316901b610b4b565b901b6001600160e01b031690529392505050565b5160701c6dffffffffffffffffffffffffffff1690565b6106de610dfb565b82516001600160e01b031615806106fd575081516001600160e01b0316155b156107175750604080516020810190915260008152610276565b825182516dffffffffffffffffffffffffffff607083811c8216938216929081901c82169190811690828502908285029083870290858702906001600160e01b03851611156107785760405162461bcd60e51b815260040161045f9061120c565b6000607060ff16846001600160e01b0316901c6001600160e01b0316826001600160e01b0316846001600160e01b0316607060ff16886001600160e01b0316901b6001600160e01b031601010190506000196001600160e01b03168111156107f25760405162461bcd60e51b815260040161045f9061119e565b60408051602081019091526001600160e01b0390911681529b9a5050505050505050505050565b5160701c90565b60008061085184600001516001600160e01b0316600085126108425784610847565b846000035b600160701b610ac5565b90507f800000000000000000000000000000000000000000000000000000000000000081106108925760405162461bcd60e51b815260040161045f906111d5565b600083126108a057806108a5565b806000035b949350505050565b6108b5610e0d565b60008215806108db57505082516001600160e01b0316828102908382816108d857fe5b04145b6108f75760405162461bcd60e51b815260040161045f9061109c565b60408051602081019091529081529392505050565b610914610e0d565b50604080516020810190915260709190911b6dffffffffffffffffffffffffffff1916815290565b610944610dfb565b50604080516020810190915260709190911b7bffffffffffffffffffffffffffff000000000000000000000000000016815290565b610981610dfb565b81516001600160e01b03166109a85760405162461bcd60e51b815260040161045f9061103f565b815183516001600160e01b03908116911614156109d757506040805160208101909152600160701b8152610276565b825171ffffffffffffffffffffffffffffffffffff6001600160e01b0390911611610a5257815183516000916001600160e01b03169060701b6dffffffffffffffffffffffffffff191681610a2857fe5b0490506001600160e01b038111156104d45760405162461bcd60e51b815260040161045f90611008565b6000610a7d600160701b85600001516001600160e01b031685600001516001600160e01b0316610ac5565b90506001600160e01b03811115610aa65760405162461bcd60e51b815260040161045f90611008565b60408051602081019091526001600160e01b0390911681529392505050565b6000806000610ad48686610d5e565b9150915060008480610ae257fe5b868809905082811115610af6576001820391505b918290039181610b1457848381610b0957fe5b049350505050610b44565b848210610b335760405162461bcd60e51b815260040161045f90611130565b610b3e838387610d8b565b93505050505b9392505050565b600081610b5a5750600061029e565b8160017001000000000000000000000000000000008210610b805760809190911c9060401b5b680100000000000000008210610b9b5760409190911c9060201b5b6401000000008210610bb25760209190911c9060101b5b620100008210610bc75760109190911c9060081b5b6101008210610bdb5760089190911c9060041b5b60108210610bee5760049190911c9060021b5b60088210610bfa5760011b5b6001818581610c0557fe5b048201901c90506001818581610c1757fe5b048201901c90506001818581610c2957fe5b048201901c90506001818581610c3b57fe5b048201901c90506001818581610c4d57fe5b048201901c90506001818581610c5f57fe5b048201901c90506001818581610c7157fe5b048201901c90506000818581610c8357fe5b049050808210610c935780610c95565b815b95945050505050565b6000808211610cbf5760405162461bcd60e51b815260040161045f90610fab565b7001000000000000000000000000000000008210610cdf57608091821c91015b680100000000000000008210610cf757604091821c91015b6401000000008210610d0b57602091821c91015b620100008210610d1d57601091821c91015b6101008210610d2e57600891821c91015b60108210610d3e57600491821c91015b60048210610d4e57600291821c91015b6002821061029e57600101919050565b6000808060001984860990508385029250828103915082811015610d83576001820391505b509250929050565b60008181038216808381610d9b57fe5b049250808581610da757fe5b049450808160000381610db657fe5b60028581038087028203028087028203028087028203028087028203028087028203028087028203029586029003909402930460010193909302939093010292915050565b60408051602081019091526000815290565b6040518060200160405280600081525090565b600060208284031215610e31578081fd5b50919050565b600060208284031215610e48578081fd5b6102738383610e20565b60008060408385031215610e64578081fd5b610e6e8484610e20565b946020939093013593505050565b60008060408385031215610e8e578182fd5b610e988484610e20565b9150610ea78460208501610e20565b90509250929050565b60008060408385031215610e64578182fd5b600060208284031215610ed3578081fd5b610edd6020611352565b82356001600160e01b0381168114610ef3578283fd5b81529392505050565b600060208284031215610f0d578081fd5b610f176020611352565b9135825250919050565b600060208284031215610f32578081fd5b81356dffffffffffffffffffffffffffff81168114610b44578182fd5b600060208284031215610f60578081fd5b813571ffffffffffffffffffffffffffffffffffff81168114610b44578182fd5b60008060408385031215610f93578182fd5b50508035926020909101359150565b90815260200190565b60208082526021908201527f4269744d6174683a3a6d6f73745369676e69666963616e744269743a207a657260408201527f6f00000000000000000000000000000000000000000000000000000000000000606082015260800190565b6020808252601b908201527f4669786564506f696e743a3a64697675713a206f766572666c6f770000000000604082015260600190565b60208082526023908201527f4669786564506f696e743a3a64697675713a206469766973696f6e206279207a60408201527f65726f0000000000000000000000000000000000000000000000000000000000606082015260800190565b60208082526019908201527f4669786564506f696e743a3a6d756c3a206f766572666c6f7700000000000000604082015260600190565b60208082526026908201527f4669786564506f696e743a3a6672616374696f6e3a206469766973696f6e206260408201527f79207a65726f0000000000000000000000000000000000000000000000000000606082015260800190565b6020808252601a908201527f46756c6c4d6174683a2046554c4c4449565f4f564552464c4f57000000000000604082015260600190565b6020808252601e908201527f4669786564506f696e743a3a6672616374696f6e3a206f766572666c6f770000604082015260600190565b6020808252601f908201527f4669786564506f696e743a3a6d756c75713a2073756d206f766572666c6f7700604082015260600190565b6020808252601a908201527f4669786564506f696e743a3a6d756c693a206f766572666c6f77000000000000604082015260600190565b60208082526021908201527f4669786564506f696e743a3a6d756c75713a207570706572206f766572666c6f60408201527f7700000000000000000000000000000000000000000000000000000000000000606082015260800190565b6020808252818101527f4669786564506f696e743a3a7265636970726f63616c3a206f766572666c6f77604082015260600190565b6020808252602a908201527f4669786564506f696e743a3a7265636970726f63616c3a207265636970726f6360408201527f616c206f66207a65726f00000000000000000000000000000000000000000000606082015260800190565b90516001600160e01b0316815260200190565b9051815260200190565b6dffffffffffffffffffffffffffff91909116815260200190565b71ffffffffffffffffffffffffffffffffffff91909116815260200190565b60405181810167ffffffffffffffff8111828210171561137157600080fd5b60405291905056fea2646970667358221220da52903df44cea98ad82103b0774022b0c8319a5a12485b4493e86eae19e8f3164736f6c634300060c0033",
  "linkReferences": {},
  "deployedLinkReferences": {}
}