{
  "_format": "hh-sol-artifact-1",
  "contractName": "$ContextMock",
  "sourceName": "contracts-exposed/mocks/ContextMock.sol",
  "abi": [
    {
      "inputs": [],
      "stateMutability": "payable",
      "type": "constructor"
    },
    {
      "anonymous": false,
      "inputs": [
        {
          "indexed": false,
          "internalType": "bytes",
          "name": "data",
          "type": "bytes"
        },
        {
          "indexed": false,
          "internalType": "uint256",
          "name": "integerValue",
          "type": "uint256"
        },
        {
          "indexed": false,
          "internalType": "string",
          "name": "stringValue",
          "type": "string"
        }
      ],
      "name": "Data",
      "type": "event"
    },
    {
      "anonymous": false,
      "inputs": [
        {
          "indexed": false,
          "internalType": "bytes",
          "name": "data",
          "type": "bytes"
        }
      ],
      "name": "DataShort",
      "type": "event"
    },
    {
      "anonymous": false,
      "inputs": [
        {
          "indexed": false,
          "internalType": "address",
          "name": "sender",
          "type": "address"
        }
      ],
      "name": "Sender",
      "type": "event"
    },
    {
      "inputs": [],
      "name": "$_contextSuffixLength",
      "outputs": [
        {
          "internalType": "uint256",
          "name": "ret0",
          "type": "uint256"
        }
      ],
      "stateMutability": "view",
      "type": "function"
    },
    {
      "inputs": [],
      "name": "$_msgData",
      "outputs": [
        {
          "internalType": "bytes",
          "name": "ret0",
          "type": "bytes"
        }
      ],
      "stateMutability": "view",
      "type": "function"
    },
    {
      "inputs": [],
      "name": "$_msgSender",
      "outputs": [
        {
          "internalType": "address",
          "name": "ret0",
          "type": "address"
        }
      ],
      "stateMutability": "view",
      "type": "function"
    },
    {
      "inputs": [],
      "name": "__hh_exposed_bytecode_marker",
      "outputs": [
        {
          "internalType": "bytes32",
          "name": "",
          "type": "bytes32"
        }
      ],
      "stateMutability": "view",
      "type": "function"
    },
    {
      "inputs": [
        {
          "internalType": "uint256",
          "name": "integerValue",
          "type": "uint256"
        },
        {
          "internalType": "string",
          "name": "stringValue",
          "type": "string"
        }
      ],
      "name": "msgData",
      "outputs": [],
      "stateMutability": "nonpayable",
      "type": "function"
    },
    {
      "inputs": [],
      "name": "msgDataShort",
      "outputs": [],
      "stateMutability": "nonpayable",
      "type": "function"
    },
    {
      "inputs": [],
      "name": "msgSender",
      "outputs": [],
      "stateMutability": "nonpayable",
      "type": "function"
    },
    {
      "stateMutability": "payable",
      "type": "receive"
    }
  ],
  "bytecode": "0x6080604052610403806100115f395ff3fe608060405260043610610071575f3560e01c8063376bf2621161004c578063376bf262146100ef57806367354a8414610110578063d737d0c714610122578063ff5f6b5914610136575f80fd5b80632904df291461007c57806332cadf3c1461009b578063342db739146100bc575f80fd5b3661007857005b5f80fd5b348015610087575f80fd5b506040513381526020015b60405180910390f35b3480156100a6575f80fd5b506100af61014a565b6040516100929190610272565b3480156100c7575f80fd5b506100e16e1a185c991a185d0b595e1c1bdcd959608a1b81565b604051908152602001610092565b3480156100fa575f80fd5b5061010e61010936600461029f565b610187565b005b34801561011b575f80fd5b505f6100e1565b34801561012d575f80fd5b5061010e6101c8565b348015610141575f80fd5b5061010e6101fe565b60605f368080601f0160208091040260200160405190810160405280939291908181526020018383808284375f9201919091525092949350505050565b7faf235354a0a47c91ee171961326335cb2d1a8e55b8a89859b0e61eb049e50ea05f3684846040516101bc949392919061037c565b60405180910390a15050565b6040513381527fd6558c3ed910d959271054471fd1c326679d9fece99c5091b00ed89627cf2bfc906020015b60405180910390a1565b7f6d7cec71eba467294d92341ddc4e8634eb4d742a90e16f408f06e4b70bc4cd665f366040516101f49291906103b2565b5f81518084525f5b8181101561025357602081850181015186830182015201610237565b505f602082860101526020601f19601f83011685010191505092915050565b602081525f610284602083018461022f565b9392505050565b634e487b7160e01b5f52604160045260245ffd5b5f80604083850312156102b0575f80fd5b82359150602083013567ffffffffffffffff808211156102ce575f80fd5b818501915085601f8301126102e1575f80fd5b8135818111156102f3576102f361028b565b604051601f8201601f19908116603f0116810190838211818310171561031b5761031b61028b565b81604052828152886020848701011115610333575f80fd5b826020860160208301375f6020848301015280955050505050509250929050565b81835281816020850137505f828201602090810191909152601f909101601f19169091010190565b606081525f61038f606083018688610354565b84602084015282810360408401526103a7818561022f565b979650505050505050565b602081525f6103c5602083018486610354565b94935050505056fea2646970667358221220fa71b381b7a350228be5fb835dd7215bc9e66b68c30c3c449c6547de402f4f1c64736f6c63430008180033",
  "linkReferences": {},
  "deployedLinkReferences": {}
}