{
  "_format": "hh-sol-artifact-1",
  "contractName": "$VestingWallet",
  "sourceName": "contracts-exposed/finance/VestingWallet.sol",
  "abi": [
    {
      "inputs": [
        {
          "internalType": "address",
          "name": "beneficiary",
          "type": "address"
        },
        {
          "internalType": "uint64",
          "name": "startTimestamp",
          "type": "uint64"
        },
        {
          "internalType": "uint64",
          "name": "durationSeconds",
          "type": "uint64"
        }
      ],
      "stateMutability": "payable",
      "type": "constructor"
    },
    {
      "inputs": [],
      "name": "FailedCall",
      "type": "error"
    },
    {
      "inputs": [
        {
          "internalType": "uint256",
          "name": "balance",
          "type": "uint256"
        },
        {
          "internalType": "uint256",
          "name": "needed",
          "type": "uint256"
        }
      ],
      "name": "InsufficientBalance",
      "type": "error"
    },
    {
      "inputs": [
        {
          "internalType": "address",
          "name": "owner",
          "type": "address"
        }
      ],
      "name": "OwnableInvalidOwner",
      "type": "error"
    },
    {
      "inputs": [
        {
          "internalType": "address",
          "name": "account",
          "type": "address"
        }
      ],
      "name": "OwnableUnauthorizedAccount",
      "type": "error"
    },
    {
      "inputs": [
        {
          "internalType": "address",
          "name": "token",
          "type": "address"
        }
      ],
      "name": "SafeERC20FailedOperation",
      "type": "error"
    },
    {
      "anonymous": false,
      "inputs": [
        {
          "indexed": true,
          "internalType": "address",
          "name": "token",
          "type": "address"
        },
        {
          "indexed": false,
          "internalType": "uint256",
          "name": "amount",
          "type": "uint256"
        }
      ],
      "name": "ERC20Released",
      "type": "event"
    },
    {
      "anonymous": false,
      "inputs": [
        {
          "indexed": false,
          "internalType": "uint256",
          "name": "amount",
          "type": "uint256"
        }
      ],
      "name": "EtherReleased",
      "type": "event"
    },
    {
      "anonymous": false,
      "inputs": [
        {
          "indexed": true,
          "internalType": "address",
          "name": "previousOwner",
          "type": "address"
        },
        {
          "indexed": true,
          "internalType": "address",
          "name": "newOwner",
          "type": "address"
        }
      ],
      "name": "OwnershipTransferred",
      "type": "event"
    },
    {
      "inputs": [],
      "name": "$_checkOwner",
      "outputs": [],
      "stateMutability": "view",
      "type": "function"
    },
    {
      "inputs": [],
      "name": "$_contextSuffixLength",
      "outputs": [
        {
          "internalType": "uint256",
          "name": "ret0",
          "type": "uint256"
        }
      ],
      "stateMutability": "view",
      "type": "function"
    },
    {
      "inputs": [],
      "name": "$_msgData",
      "outputs": [
        {
          "internalType": "bytes",
          "name": "ret0",
          "type": "bytes"
        }
      ],
      "stateMutability": "view",
      "type": "function"
    },
    {
      "inputs": [],
      "name": "$_msgSender",
      "outputs": [
        {
          "internalType": "address",
          "name": "ret0",
          "type": "address"
        }
      ],
      "stateMutability": "view",
      "type": "function"
    },
    {
      "inputs": [
        {
          "internalType": "address",
          "name": "newOwner",
          "type": "address"
        }
      ],
      "name": "$_transferOwnership",
      "outputs": [],
      "stateMutability": "nonpayable",
      "type": "function"
    },
    {
      "inputs": [
        {
          "internalType": "uint256",
          "name": "totalAllocation",
          "type": "uint256"
        },
        {
          "internalType": "uint64",
          "name": "timestamp",
          "type": "uint64"
        }
      ],
      "name": "$_vestingSchedule",
      "outputs": [
        {
          "internalType": "uint256",
          "name": "ret0",
          "type": "uint256"
        }
      ],
      "stateMutability": "view",
      "type": "function"
    },
    {
      "inputs": [],
      "name": "__hh_exposed_bytecode_marker",
      "outputs": [
        {
          "internalType": "bytes32",
          "name": "",
          "type": "bytes32"
        }
      ],
      "stateMutability": "view",
      "type": "function"
    },
    {
      "inputs": [],
      "name": "duration",
      "outputs": [
        {
          "internalType": "uint256",
          "name": "",
          "type": "uint256"
        }
      ],
      "stateMutability": "view",
      "type": "function"
    },
    {
      "inputs": [],
      "name": "end",
      "outputs": [
        {
          "internalType": "uint256",
          "name": "",
          "type": "uint256"
        }
      ],
      "stateMutability": "view",
      "type": "function"
    },
    {
      "inputs": [],
      "name": "owner",
      "outputs": [
        {
          "internalType": "address",
          "name": "",
          "type": "address"
        }
      ],
      "stateMutability": "view",
      "type": "function"
    },
    {
      "inputs": [
        {
          "internalType": "address",
          "name": "token",
          "type": "address"
        }
      ],
      "name": "releasable",
      "outputs": [
        {
          "internalType": "uint256",
          "name": "",
          "type": "uint256"
        }
      ],
      "stateMutability": "view",
      "type": "function"
    },
    {
      "inputs": [],
      "name": "releasable",
      "outputs": [
        {
          "internalType": "uint256",
          "name": "",
          "type": "uint256"
        }
      ],
      "stateMutability": "view",
      "type": "function"
    },
    {
      "inputs": [
        {
          "internalType": "address",
          "name": "token",
          "type": "address"
        }
      ],
      "name": "release",
      "outputs": [],
      "stateMutability": "nonpayable",
      "type": "function"
    },
    {
      "inputs": [],
      "name": "release",
      "outputs": [],
      "stateMutability": "nonpayable",
      "type": "function"
    },
    {
      "inputs": [],
      "name": "released",
      "outputs": [
        {
          "internalType": "uint256",
          "name": "",
          "type": "uint256"
        }
      ],
      "stateMutability": "view",
      "type": "function"
    },
    {
      "inputs": [
        {
          "internalType": "address",
          "name": "token",
          "type": "address"
        }
      ],
      "name": "released",
      "outputs": [
        {
          "internalType": "uint256",
          "name": "",
          "type": "uint256"
        }
      ],
      "stateMutability": "view",
      "type": "function"
    },
    {
      "inputs": [],
      "name": "renounceOwnership",
      "outputs": [],
      "stateMutability": "nonpayable",
      "type": "function"
    },
    {
      "inputs": [],
      "name": "start",
      "outputs": [
        {
          "internalType": "uint256",
          "name": "",
          "type": "uint256"
        }
      ],
      "stateMutability": "view",
      "type": "function"
    },
    {
      "inputs": [
        {
          "internalType": "address",
          "name": "newOwner",
          "type": "address"
        }
      ],
      "name": "transferOwnership",
      "outputs": [],
      "stateMutability": "nonpayable",
      "type": "function"
    },
    {
      "inputs": [
        {
          "internalType": "uint64",
          "name": "timestamp",
          "type": "uint64"
        }
      ],
      "name": "vestedAmount",
      "outputs": [
        {
          "internalType": "uint256",
          "name": "",
          "type": "uint256"
        }
      ],
      "stateMutability": "view",
      "type": "function"
    },
    {
      "inputs": [
        {
          "internalType": "address",
          "name": "token",
          "type": "address"
        },
        {
          "internalType": "uint64",
          "name": "timestamp",
          "type": "uint64"
        }
      ],
      "name": "vestedAmount",
      "outputs": [
        {
          "internalType": "uint256",
          "name": "",
          "type": "uint256"
        }
      ],
      "stateMutability": "view",
      "type": "function"
    },
    {
      "stateMutability": "payable",
      "type": "receive"
    }
  ],
  "bytecode": "0x60c0604052604051610c8c380380610c8c833981016040819052610022916100e3565b828282826001600160a01b03811661005357604051631e4fbdf760e01b81525f600482015260240160405180910390fd5b61005c81610079565b506001600160401b039182166080521660a0525061013092505050565b5f80546001600160a01b038381166001600160a01b0319831681178455604051919092169283917f8be0079c531659141344cd1fd0a4f28419497f9722a3daafe3b4186f6b6457e09190a35050565b80516001600160401b03811681146100de575f80fd5b919050565b5f805f606084860312156100f5575f80fd5b83516001600160a01b038116811461010b575f80fd5b9250610119602085016100c8565b9150610127604085016100c8565b90509250925092565b60805160a051610b2d61015f5f395f81816101740152818161063c015261071501525f61060e0152610b2d5ff3fe608060405260043610610129575f3560e01c806386d1a69f116100a8578063be9a65551161006d578063be9a65551461032a578063ebcca7071461033e578063efbe1c1c14610352578063f2fde38b14610366578063fbccedae14610385578063fe1c9a2414610399575f80fd5b806386d1a69f146102935780638da5cb5b146102a757806396132521146102c35780639852595c146102d7578063a3f8eace1461030b575f80fd5b8063342db739116100ee578063342db7391461020a5780633f2979531461022f57806367354a841461024e578063715018a614610260578063810ec23b14610274575f80fd5b80630a17b06b146101345780630fb5a6b41461016657806319165587146101a25780632904df29146101c357806332cadf3c146101e9575f80fd5b3661013057005b5f80fd5b34801561013f575f80fd5b5061015361014e36600461098a565b6103b8565b6040519081526020015b60405180910390f35b348015610171575f80fd5b507f000000000000000000000000000000000000000000000000000000000000000067ffffffffffffffff16610153565b3480156101ad575f80fd5b506101c16101bc3660046109b9565b6103db565b005b3480156101ce575f80fd5b50335b6040516001600160a01b03909116815260200161015d565b3480156101f4575f80fd5b506101fd610478565b60405161015d91906109d2565b348015610215575f80fd5b506101536e1a185c991a185d0b595e1c1bdcd959608a1b81565b34801561023a575f80fd5b50610153610249366004610a1e565b6104b5565b348015610259575f80fd5b505f610153565b34801561026b575f80fd5b506101c16104c7565b34801561027f575f80fd5b5061015361028e366004610a48565b6104da565b34801561029e575f80fd5b506101c1610566565b3480156102b2575f80fd5b505f546001600160a01b03166101d1565b3480156102ce575f80fd5b50600154610153565b3480156102e2575f80fd5b506101536102f13660046109b9565b6001600160a01b03165f9081526002602052604090205490565b348015610316575f80fd5b506101536103253660046109b9565b6105d7565b348015610335575f80fd5b50610153610603565b348015610349575f80fd5b506101c1610631565b34801561035d575f80fd5b50610153610639565b348015610371575f80fd5b506101c16103803660046109b9565b610677565b348015610390575f80fd5b506101536106b6565b3480156103a4575f80fd5b506101c16103b33660046109b9565b6106ad565b5f6103d56103c560015490565b6103cf9047610a84565b836106d3565b92915050565b5f6103e5826105d7565b6001600160a01b0383165f90815260026020526040812080549293508392909190610411908490610a84565b90915550506040518181526001600160a01b038316907fc0e523490dd523c33b1878c9eb14ff46991e3f5b2cd33710918618f2a39cba1b9060200160405180910390a261046f826104695f546001600160a01b031690565b83610775565b5050565b905090565b60605f368080601f0160208091040260200160405190810160405280939291908181526020018383808284375f9201919091525092949350505050565b5f6104c083836106d3565b9392505050565b6104cf6107cc565b6104d85f6107f8565b565b6001600160a01b0382165f908152600260205260408120546104c0906040516370a0823160e01b81523060048201526001600160a01b038616906370a0823190602401602060405180830381865afa158015610538573d5f803e3d5ffd5b505050506040513d601f19601f8201168201806040525081019061055c9190610a97565b6103cf9190610a84565b5f61056f6106b6565b90508060015f8282546105829190610a84565b90915550506040518181527fda9d4e5f101b8b9b1c5b76d0c5a9f7923571acfc02376aa076b75a8c080c956b9060200160405180910390a16105d46105ce5f546001600160a01b031690565b82610847565b50565b6001600160a01b0381165f908152600260205260408120546105f983426104da565b6103d59190610aae565b67ffffffffffffffff7f00000000000000000000000000000000000000000000000000000000000000001690565b6104d86107cc565b5f7f000000000000000000000000000000000000000000000000000000000000000067ffffffffffffffff1661066d610603565b6104739190610a84565b61067f6107cc565b6001600160a01b0381166106ad57604051631e4fbdf760e01b81525f60048201526024015b60405180910390fd5b6105d4816107f8565b5f6106c060015490565b6106c9426103b8565b6104739190610aae565b5f6106dc610603565b8267ffffffffffffffff1610156106f457505f6103d5565b6106fc610639565b8267ffffffffffffffff16106107135750816103d5565b7f000000000000000000000000000000000000000000000000000000000000000067ffffffffffffffff16610746610603565b61075a9067ffffffffffffffff8516610aae565b6107649085610ac1565b61076e9190610ad8565b90506103d5565b604080516001600160a01b038416602482015260448082018490528251808303909101815260649091019091526020810180516001600160e01b031663a9059cbb60e01b1790526107c79084906108d9565b505050565b5f546001600160a01b031633146104d85760405163118cdaa760e01b81523360048201526024016106a4565b5f80546001600160a01b038381166001600160a01b0319831681178455604051919092169283917f8be0079c531659141344cd1fd0a4f28419497f9722a3daafe3b4186f6b6457e09190a35050565b804710156108715760405163cf47918160e01b8152476004820152602481018290526044016106a4565b5f80836001600160a01b0316836040515f6040518083038185875af1925050503d805f81146108bb576040519150601f19603f3d011682016040523d82523d5f602084013e6108c0565b606091505b5091509150816108d3576108d381610945565b50505050565b5f8060205f8451602086015f885af1806108f8576040513d5f823e3d81fd5b50505f513d9150811561090f57806001141561091c565b6001600160a01b0384163b155b156108d357604051635274afe760e01b81526001600160a01b03851660048201526024016106a4565b8051156109555780518082602001fd5b60405163d6bda27560e01b815260040160405180910390fd5b803567ffffffffffffffff81168114610985575f80fd5b919050565b5f6020828403121561099a575f80fd5b6104c08261096e565b80356001600160a01b0381168114610985575f80fd5b5f602082840312156109c9575f80fd5b6104c0826109a3565b5f602080835283518060208501525f5b818110156109fe578581018301518582016040015282016109e2565b505f604082860101526040601f19601f8301168501019250505092915050565b5f8060408385031215610a2f575f80fd5b82359150610a3f6020840161096e565b90509250929050565b5f8060408385031215610a59575f80fd5b610a62836109a3565b9150610a3f6020840161096e565b634e487b7160e01b5f52601160045260245ffd5b808201808211156103d5576103d5610a70565b5f60208284031215610aa7575f80fd5b5051919050565b818103818111156103d5576103d5610a70565b80820281158282048414176103d5576103d5610a70565b5f82610af257634e487b7160e01b5f52601260045260245ffd5b50049056fea26469706673582212205e729e9acbf9eaec4c3f31876a9a306fa3a53dd776ccacaebc91ad2d9248d8a264736f6c63430008180033",
  "linkReferences": {},
  "deployedLinkReferences": {}
}