{
  "_format": "hh-sol-artifact-1",
  "contractName": "$Ownable",
  "sourceName": "contracts-exposed/access/Ownable.sol",
  "abi": [
    {
      "inputs": [
        {
          "internalType": "address",
          "name": "initialOwner",
          "type": "address"
        }
      ],
      "stateMutability": "payable",
      "type": "constructor"
    },
    {
      "inputs": [
        {
          "internalType": "address",
          "name": "owner",
          "type": "address"
        }
      ],
      "name": "OwnableInvalidOwner",
      "type": "error"
    },
    {
      "inputs": [
        {
          "internalType": "address",
          "name": "account",
          "type": "address"
        }
      ],
      "name": "OwnableUnauthorizedAccount",
      "type": "error"
    },
    {
      "anonymous": false,
      "inputs": [
        {
          "indexed": true,
          "internalType": "address",
          "name": "previousOwner",
          "type": "address"
        },
        {
          "indexed": true,
          "internalType": "address",
          "name": "newOwner",
          "type": "address"
        }
      ],
      "name": "OwnershipTransferred",
      "type": "event"
    },
    {
      "inputs": [],
      "name": "$_checkOwner",
      "outputs": [],
      "stateMutability": "view",
      "type": "function"
    },
    {
      "inputs": [],
      "name": "$_contextSuffixLength",
      "outputs": [
        {
          "internalType": "uint256",
          "name": "ret0",
          "type": "uint256"
        }
      ],
      "stateMutability": "view",
      "type": "function"
    },
    {
      "inputs": [],
      "name": "$_msgData",
      "outputs": [
        {
          "internalType": "bytes",
          "name": "ret0",
          "type": "bytes"
        }
      ],
      "stateMutability": "view",
      "type": "function"
    },
    {
      "inputs": [],
      "name": "$_msgSender",
      "outputs": [
        {
          "internalType": "address",
          "name": "ret0",
          "type": "address"
        }
      ],
      "stateMutability": "view",
      "type": "function"
    },
    {
      "inputs": [
        {
          "internalType": "address",
          "name": "newOwner",
          "type": "address"
        }
      ],
      "name": "$_transferOwnership",
      "outputs": [],
      "stateMutability": "nonpayable",
      "type": "function"
    },
    {
      "inputs": [],
      "name": "__hh_exposed_bytecode_marker",
      "outputs": [
        {
          "internalType": "bytes32",
          "name": "",
          "type": "bytes32"
        }
      ],
      "stateMutability": "view",
      "type": "function"
    },
    {
      "inputs": [],
      "name": "owner",
      "outputs": [
        {
          "internalType": "address",
          "name": "",
          "type": "address"
        }
      ],
      "stateMutability": "view",
      "type": "function"
    },
    {
      "inputs": [],
      "name": "renounceOwnership",
      "outputs": [],
      "stateMutability": "nonpayable",
      "type": "function"
    },
    {
      "inputs": [
        {
          "internalType": "address",
          "name": "newOwner",
          "type": "address"
        }
      ],
      "name": "transferOwnership",
      "outputs": [],
      "stateMutability": "nonpayable",
      "type": "function"
    },
    {
      "stateMutability": "payable",
      "type": "receive"
    }
  ],
  "bytecode": "0x6080604052604051610454380380610454833981016040819052610022916100af565b806001600160a01b03811661005057604051631e4fbdf760e01b81525f600482015260240160405180910390fd5b61005981610060565b50506100dc565b5f80546001600160a01b038381166001600160a01b0319831681178455604051919092169283917f8be0079c531659141344cd1fd0a4f28419497f9722a3daafe3b4186f6b6457e09190a35050565b5f602082840312156100bf575f80fd5b81516001600160a01b03811681146100d5575f80fd5b9392505050565b61036b806100e95f395ff3fe608060405260043610610087575f3560e01c8063715018a611610057578063715018a6146101235780638da5cb5b14610139578063ebcca70714610155578063f2fde38b14610169578063fe1c9a2414610188575f80fd5b80632904df291461009257806332cadf3c146100bd578063342db739146100de57806367354a8414610111575f80fd5b3661008e57005b5f80fd5b34801561009d575f80fd5b50335b6040516001600160a01b0390911681526020015b60405180910390f35b3480156100c8575f80fd5b506100d16101a7565b6040516100b491906102bc565b3480156100e9575f80fd5b506101036e1a185c991a185d0b595e1c1bdcd959608a1b81565b6040519081526020016100b4565b34801561011c575f80fd5b505f610103565b34801561012e575f80fd5b506101376101e4565b005b348015610144575f80fd5b505f546001600160a01b03166100a0565b348015610160575f80fd5b506101376101f7565b348015610174575f80fd5b50610137610183366004610308565b6101ff565b348015610193575f80fd5b506101376101a2366004610308565b610235565b60605f368080601f0160208091040260200160405190810160405280939291908181526020018383808284375f9201919091525092949350505050565b6101ec610241565b6101f55f61026d565b565b6101f5610241565b610207610241565b6001600160a01b03811661023557604051631e4fbdf760e01b81525f60048201526024015b60405180910390fd5b61023e8161026d565b50565b5f546001600160a01b031633146101f55760405163118cdaa760e01b815233600482015260240161022c565b5f80546001600160a01b038381166001600160a01b0319831681178455604051919092169283917f8be0079c531659141344cd1fd0a4f28419497f9722a3daafe3b4186f6b6457e09190a35050565b5f602080835283518060208501525f5b818110156102e8578581018301518582016040015282016102cc565b505f604082860101526040601f19601f8301168501019250505092915050565b5f60208284031215610318575f80fd5b81356001600160a01b038116811461032e575f80fd5b939250505056fea264697066735822122076f37063b3b925e2e97e0757656ac54f423de2ab2164ccdba24c03514bb7be2864736f6c63430008180033",
  "linkReferences": {},
  "deployedLinkReferences": {}
}