{
  "_format": "hh-sol-artifact-1",
  "contractName": "$ERC721ConsecutiveEnumerableMock",
  "sourceName": "contracts-exposed/mocks/token/ERC721ConsecutiveEnumerableMock.sol",
  "abi": [
    {
      "inputs": [
        {
          "internalType": "string",
          "name": "name",
          "type": "string"
        },
        {
          "internalType": "string",
          "name": "symbol",
          "type": "string"
        },
        {
          "internalType": "address[]",
          "name": "receivers",
          "type": "address[]"
        },
        {
          "internalType": "uint96[]",
          "name": "amounts",
          "type": "uint96[]"
        }
      ],
      "stateMutability": "payable",
      "type": "constructor"
    },
    {
      "inputs": [],
      "name": "CheckpointUnorderedInsertion",
      "type": "error"
    },
    {
      "inputs": [],
      "name": "ERC721EnumerableForbiddenBatchMint",
      "type": "error"
    },
    {
      "inputs": [
        {
          "internalType": "uint256",
          "name": "batchSize",
          "type": "uint256"
        },
        {
          "internalType": "uint256",
          "name": "maxBatch",
          "type": "uint256"
        }
      ],
      "name": "ERC721ExceededMaxBatchMint",
      "type": "error"
    },
    {
      "inputs": [],
      "name": "ERC721ForbiddenBatchBurn",
      "type": "error"
    },
    {
      "inputs": [],
      "name": "ERC721ForbiddenBatchMint",
      "type": "error"
    },
    {
      "inputs": [],
      "name": "ERC721ForbiddenMint",
      "type": "error"
    },
    {
      "inputs": [
        {
          "internalType": "address",
          "name": "sender",
          "type": "address"
        },
        {
          "internalType": "uint256",
          "name": "tokenId",
          "type": "uint256"
        },
        {
          "internalType": "address",
          "name": "owner",
          "type": "address"
        }
      ],
      "name": "ERC721IncorrectOwner",
      "type": "error"
    },
    {
      "inputs": [
        {
          "internalType": "address",
          "name": "operator",
          "type": "address"
        },
        {
          "internalType": "uint256",
          "name": "tokenId",
          "type": "uint256"
        }
      ],
      "name": "ERC721InsufficientApproval",
      "type": "error"
    },
    {
      "inputs": [
        {
          "internalType": "address",
          "name": "approver",
          "type": "address"
        }
      ],
      "name": "ERC721InvalidApprover",
      "type": "error"
    },
    {
      "inputs": [
        {
          "internalType": "address",
          "name": "operator",
          "type": "address"
        }
      ],
      "name": "ERC721InvalidOperator",
      "type": "error"
    },
    {
      "inputs": [
        {
          "internalType": "address",
          "name": "owner",
          "type": "address"
        }
      ],
      "name": "ERC721InvalidOwner",
      "type": "error"
    },
    {
      "inputs": [
        {
          "internalType": "address",
          "name": "receiver",
          "type": "address"
        }
      ],
      "name": "ERC721InvalidReceiver",
      "type": "error"
    },
    {
      "inputs": [
        {
          "internalType": "address",
          "name": "sender",
          "type": "address"
        }
      ],
      "name": "ERC721InvalidSender",
      "type": "error"
    },
    {
      "inputs": [
        {
          "internalType": "uint256",
          "name": "tokenId",
          "type": "uint256"
        }
      ],
      "name": "ERC721NonexistentToken",
      "type": "error"
    },
    {
      "inputs": [
        {
          "internalType": "address",
          "name": "owner",
          "type": "address"
        },
        {
          "internalType": "uint256",
          "name": "index",
          "type": "uint256"
        }
      ],
      "name": "ERC721OutOfBoundsIndex",
      "type": "error"
    },
    {
      "anonymous": false,
      "inputs": [
        {
          "indexed": true,
          "internalType": "address",
          "name": "owner",
          "type": "address"
        },
        {
          "indexed": true,
          "internalType": "address",
          "name": "approved",
          "type": "address"
        },
        {
          "indexed": true,
          "internalType": "uint256",
          "name": "tokenId",
          "type": "uint256"
        }
      ],
      "name": "Approval",
      "type": "event"
    },
    {
      "anonymous": false,
      "inputs": [
        {
          "indexed": true,
          "internalType": "address",
          "name": "owner",
          "type": "address"
        },
        {
          "indexed": true,
          "internalType": "address",
          "name": "operator",
          "type": "address"
        },
        {
          "indexed": false,
          "internalType": "bool",
          "name": "approved",
          "type": "bool"
        }
      ],
      "name": "ApprovalForAll",
      "type": "event"
    },
    {
      "anonymous": false,
      "inputs": [
        {
          "indexed": true,
          "internalType": "uint256",
          "name": "fromTokenId",
          "type": "uint256"
        },
        {
          "indexed": false,
          "internalType": "uint256",
          "name": "toTokenId",
          "type": "uint256"
        },
        {
          "indexed": true,
          "internalType": "address",
          "name": "fromAddress",
          "type": "address"
        },
        {
          "indexed": true,
          "internalType": "address",
          "name": "toAddress",
          "type": "address"
        }
      ],
      "name": "ConsecutiveTransfer",
      "type": "event"
    },
    {
      "anonymous": false,
      "inputs": [
        {
          "indexed": true,
          "internalType": "address",
          "name": "from",
          "type": "address"
        },
        {
          "indexed": true,
          "internalType": "address",
          "name": "to",
          "type": "address"
        },
        {
          "indexed": true,
          "internalType": "uint256",
          "name": "tokenId",
          "type": "uint256"
        }
      ],
      "name": "Transfer",
      "type": "event"
    },
    {
      "anonymous": false,
      "inputs": [
        {
          "indexed": false,
          "internalType": "uint96",
          "name": "ret0",
          "type": "uint96"
        }
      ],
      "name": "return$_mintConsecutive",
      "type": "event"
    },
    {
      "anonymous": false,
      "inputs": [
        {
          "indexed": false,
          "internalType": "address",
          "name": "ret0",
          "type": "address"
        }
      ],
      "name": "return$_update",
      "type": "event"
    },
    {
      "inputs": [
        {
          "internalType": "address",
          "name": "to",
          "type": "address"
        },
        {
          "internalType": "uint256",
          "name": "tokenId",
          "type": "uint256"
        },
        {
          "internalType": "address",
          "name": "auth",
          "type": "address"
        },
        {
          "internalType": "bool",
          "name": "emitEvent",
          "type": "bool"
        }
      ],
      "name": "$_approve",
      "outputs": [],
      "stateMutability": "nonpayable",
      "type": "function"
    },
    {
      "inputs": [
        {
          "internalType": "address",
          "name": "to",
          "type": "address"
        },
        {
          "internalType": "uint256",
          "name": "tokenId",
          "type": "uint256"
        },
        {
          "internalType": "address",
          "name": "auth",
          "type": "address"
        }
      ],
      "name": "$_approve",
      "outputs": [],
      "stateMutability": "nonpayable",
      "type": "function"
    },
    {
      "inputs": [],
      "name": "$_baseURI",
      "outputs": [
        {
          "internalType": "string",
          "name": "ret0",
          "type": "string"
        }
      ],
      "stateMutability": "view",
      "type": "function"
    },
    {
      "inputs": [
        {
          "internalType": "uint256",
          "name": "tokenId",
          "type": "uint256"
        }
      ],
      "name": "$_burn",
      "outputs": [],
      "stateMutability": "nonpayable",
      "type": "function"
    },
    {
      "inputs": [
        {
          "internalType": "address",
          "name": "owner",
          "type": "address"
        },
        {
          "internalType": "address",
          "name": "spender",
          "type": "address"
        },
        {
          "internalType": "uint256",
          "name": "tokenId",
          "type": "uint256"
        }
      ],
      "name": "$_checkAuthorized",
      "outputs": [],
      "stateMutability": "view",
      "type": "function"
    },
    {
      "inputs": [],
      "name": "$_contextSuffixLength",
      "outputs": [
        {
          "internalType": "uint256",
          "name": "ret0",
          "type": "uint256"
        }
      ],
      "stateMutability": "view",
      "type": "function"
    },
    {
      "inputs": [],
      "name": "$_firstConsecutiveId",
      "outputs": [
        {
          "internalType": "uint96",
          "name": "ret0",
          "type": "uint96"
        }
      ],
      "stateMutability": "view",
      "type": "function"
    },
    {
      "inputs": [
        {
          "internalType": "uint256",
          "name": "tokenId",
          "type": "uint256"
        }
      ],
      "name": "$_getApproved",
      "outputs": [
        {
          "internalType": "address",
          "name": "ret0",
          "type": "address"
        }
      ],
      "stateMutability": "view",
      "type": "function"
    },
    {
      "inputs": [
        {
          "internalType": "address",
          "name": "account",
          "type": "address"
        },
        {
          "internalType": "uint128",
          "name": "amount",
          "type": "uint128"
        }
      ],
      "name": "$_increaseBalance",
      "outputs": [],
      "stateMutability": "nonpayable",
      "type": "function"
    },
    {
      "inputs": [
        {
          "internalType": "address",
          "name": "owner",
          "type": "address"
        },
        {
          "internalType": "address",
          "name": "spender",
          "type": "address"
        },
        {
          "internalType": "uint256",
          "name": "tokenId",
          "type": "uint256"
        }
      ],
      "name": "$_isAuthorized",
      "outputs": [
        {
          "internalType": "bool",
          "name": "ret0",
          "type": "bool"
        }
      ],
      "stateMutability": "view",
      "type": "function"
    },
    {
      "inputs": [],
      "name": "$_maxBatchSize",
      "outputs": [
        {
          "internalType": "uint96",
          "name": "ret0",
          "type": "uint96"
        }
      ],
      "stateMutability": "view",
      "type": "function"
    },
    {
      "inputs": [
        {
          "internalType": "address",
          "name": "to",
          "type": "address"
        },
        {
          "internalType": "uint256",
          "name": "tokenId",
          "type": "uint256"
        }
      ],
      "name": "$_mint",
      "outputs": [],
      "stateMutability": "nonpayable",
      "type": "function"
    },
    {
      "inputs": [
        {
          "internalType": "address",
          "name": "to",
          "type": "address"
        },
        {
          "internalType": "uint96",
          "name": "batchSize",
          "type": "uint96"
        }
      ],
      "name": "$_mintConsecutive",
      "outputs": [
        {
          "internalType": "uint96",
          "name": "ret0",
          "type": "uint96"
        }
      ],
      "stateMutability": "nonpayable",
      "type": "function"
    },
    {
      "inputs": [],
      "name": "$_msgData",
      "outputs": [
        {
          "internalType": "bytes",
          "name": "ret0",
          "type": "bytes"
        }
      ],
      "stateMutability": "view",
      "type": "function"
    },
    {
      "inputs": [],
      "name": "$_msgSender",
      "outputs": [
        {
          "internalType": "address",
          "name": "ret0",
          "type": "address"
        }
      ],
      "stateMutability": "view",
      "type": "function"
    },
    {
      "inputs": [
        {
          "internalType": "uint256",
          "name": "tokenId",
          "type": "uint256"
        }
      ],
      "name": "$_ownerOf",
      "outputs": [
        {
          "internalType": "address",
          "name": "ret0",
          "type": "address"
        }
      ],
      "stateMutability": "view",
      "type": "function"
    },
    {
      "inputs": [
        {
          "internalType": "uint256",
          "name": "tokenId",
          "type": "uint256"
        }
      ],
      "name": "$_requireOwned",
      "outputs": [
        {
          "internalType": "address",
          "name": "ret0",
          "type": "address"
        }
      ],
      "stateMutability": "view",
      "type": "function"
    },
    {
      "inputs": [
        {
          "internalType": "address",
          "name": "to",
          "type": "address"
        },
        {
          "internalType": "uint256",
          "name": "tokenId",
          "type": "uint256"
        },
        {
          "internalType": "bytes",
          "name": "data",
          "type": "bytes"
        }
      ],
      "name": "$_safeMint",
      "outputs": [],
      "stateMutability": "nonpayable",
      "type": "function"
    },
    {
      "inputs": [
        {
          "internalType": "address",
          "name": "to",
          "type": "address"
        },
        {
          "internalType": "uint256",
          "name": "tokenId",
          "type": "uint256"
        }
      ],
      "name": "$_safeMint",
      "outputs": [],
      "stateMutability": "nonpayable",
      "type": "function"
    },
    {
      "inputs": [
        {
          "internalType": "address",
          "name": "from",
          "type": "address"
        },
        {
          "internalType": "address",
          "name": "to",
          "type": "address"
        },
        {
          "internalType": "uint256",
          "name": "tokenId",
          "type": "uint256"
        },
        {
          "internalType": "bytes",
          "name": "data",
          "type": "bytes"
        }
      ],
      "name": "$_safeTransfer",
      "outputs": [],
      "stateMutability": "nonpayable",
      "type": "function"
    },
    {
      "inputs": [
        {
          "internalType": "address",
          "name": "from",
          "type": "address"
        },
        {
          "internalType": "address",
          "name": "to",
          "type": "address"
        },
        {
          "internalType": "uint256",
          "name": "tokenId",
          "type": "uint256"
        }
      ],
      "name": "$_safeTransfer",
      "outputs": [],
      "stateMutability": "nonpayable",
      "type": "function"
    },
    {
      "inputs": [
        {
          "internalType": "address",
          "name": "owner",
          "type": "address"
        },
        {
          "internalType": "address",
          "name": "operator",
          "type": "address"
        },
        {
          "internalType": "bool",
          "name": "approved",
          "type": "bool"
        }
      ],
      "name": "$_setApprovalForAll",
      "outputs": [],
      "stateMutability": "nonpayable",
      "type": "function"
    },
    {
      "inputs": [
        {
          "internalType": "address",
          "name": "from",
          "type": "address"
        },
        {
          "internalType": "address",
          "name": "to",
          "type": "address"
        },
        {
          "internalType": "uint256",
          "name": "tokenId",
          "type": "uint256"
        }
      ],
      "name": "$_transfer",
      "outputs": [],
      "stateMutability": "nonpayable",
      "type": "function"
    },
    {
      "inputs": [
        {
          "internalType": "address",
          "name": "to",
          "type": "address"
        },
        {
          "internalType": "uint256",
          "name": "tokenId",
          "type": "uint256"
        },
        {
          "internalType": "address",
          "name": "auth",
          "type": "address"
        }
      ],
      "name": "$_update",
      "outputs": [
        {
          "internalType": "address",
          "name": "ret0",
          "type": "address"
        }
      ],
      "stateMutability": "nonpayable",
      "type": "function"
    },
    {
      "inputs": [],
      "name": "__hh_exposed_bytecode_marker",
      "outputs": [
        {
          "internalType": "bytes32",
          "name": "",
          "type": "bytes32"
        }
      ],
      "stateMutability": "view",
      "type": "function"
    },
    {
      "inputs": [
        {
          "internalType": "address",
          "name": "to",
          "type": "address"
        },
        {
          "internalType": "uint256",
          "name": "tokenId",
          "type": "uint256"
        }
      ],
      "name": "approve",
      "outputs": [],
      "stateMutability": "nonpayable",
      "type": "function"
    },
    {
      "inputs": [
        {
          "internalType": "address",
          "name": "owner",
          "type": "address"
        }
      ],
      "name": "balanceOf",
      "outputs": [
        {
          "internalType": "uint256",
          "name": "",
          "type": "uint256"
        }
      ],
      "stateMutability": "view",
      "type": "function"
    },
    {
      "inputs": [
        {
          "internalType": "uint256",
          "name": "tokenId",
          "type": "uint256"
        }
      ],
      "name": "getApproved",
      "outputs": [
        {
          "internalType": "address",
          "name": "",
          "type": "address"
        }
      ],
      "stateMutability": "view",
      "type": "function"
    },
    {
      "inputs": [
        {
          "internalType": "address",
          "name": "owner",
          "type": "address"
        },
        {
          "internalType": "address",
          "name": "operator",
          "type": "address"
        }
      ],
      "name": "isApprovedForAll",
      "outputs": [
        {
          "internalType": "bool",
          "name": "",
          "type": "bool"
        }
      ],
      "stateMutability": "view",
      "type": "function"
    },
    {
      "inputs": [],
      "name": "name",
      "outputs": [
        {
          "internalType": "string",
          "name": "",
          "type": "string"
        }
      ],
      "stateMutability": "view",
      "type": "function"
    },
    {
      "inputs": [
        {
          "internalType": "uint256",
          "name": "tokenId",
          "type": "uint256"
        }
      ],
      "name": "ownerOf",
      "outputs": [
        {
          "internalType": "address",
          "name": "",
          "type": "address"
        }
      ],
      "stateMutability": "view",
      "type": "function"
    },
    {
      "inputs": [
        {
          "internalType": "address",
          "name": "from",
          "type": "address"
        },
        {
          "internalType": "address",
          "name": "to",
          "type": "address"
        },
        {
          "internalType": "uint256",
          "name": "tokenId",
          "type": "uint256"
        }
      ],
      "name": "safeTransferFrom",
      "outputs": [],
      "stateMutability": "nonpayable",
      "type": "function"
    },
    {
      "inputs": [
        {
          "internalType": "address",
          "name": "from",
          "type": "address"
        },
        {
          "internalType": "address",
          "name": "to",
          "type": "address"
        },
        {
          "internalType": "uint256",
          "name": "tokenId",
          "type": "uint256"
        },
        {
          "internalType": "bytes",
          "name": "data",
          "type": "bytes"
        }
      ],
      "name": "safeTransferFrom",
      "outputs": [],
      "stateMutability": "nonpayable",
      "type": "function"
    },
    {
      "inputs": [
        {
          "internalType": "address",
          "name": "operator",
          "type": "address"
        },
        {
          "internalType": "bool",
          "name": "approved",
          "type": "bool"
        }
      ],
      "name": "setApprovalForAll",
      "outputs": [],
      "stateMutability": "nonpayable",
      "type": "function"
    },
    {
      "inputs": [
        {
          "internalType": "bytes4",
          "name": "interfaceId",
          "type": "bytes4"
        }
      ],
      "name": "supportsInterface",
      "outputs": [
        {
          "internalType": "bool",
          "name": "",
          "type": "bool"
        }
      ],
      "stateMutability": "view",
      "type": "function"
    },
    {
      "inputs": [],
      "name": "symbol",
      "outputs": [
        {
          "internalType": "string",
          "name": "",
          "type": "string"
        }
      ],
      "stateMutability": "view",
      "type": "function"
    },
    {
      "inputs": [
        {
          "internalType": "uint256",
          "name": "index",
          "type": "uint256"
        }
      ],
      "name": "tokenByIndex",
      "outputs": [
        {
          "internalType": "uint256",
          "name": "",
          "type": "uint256"
        }
      ],
      "stateMutability": "view",
      "type": "function"
    },
    {
      "inputs": [
        {
          "internalType": "address",
          "name": "owner",
          "type": "address"
        },
        {
          "internalType": "uint256",
          "name": "index",
          "type": "uint256"
        }
      ],
      "name": "tokenOfOwnerByIndex",
      "outputs": [
        {
          "internalType": "uint256",
          "name": "",
          "type": "uint256"
        }
      ],
      "stateMutability": "view",
      "type": "function"
    },
    {
      "inputs": [
        {
          "internalType": "uint256",
          "name": "tokenId",
          "type": "uint256"
        }
      ],
      "name": "tokenURI",
      "outputs": [
        {
          "internalType": "string",
          "name": "",
          "type": "string"
        }
      ],
      "stateMutability": "view",
      "type": "function"
    },
    {
      "inputs": [],
      "name": "totalSupply",
      "outputs": [
        {
          "internalType": "uint256",
          "name": "",
          "type": "uint256"
        }
      ],
      "stateMutability": "view",
      "type": "function"
    },
    {
      "inputs": [
        {
          "internalType": "address",
          "name": "from",
          "type": "address"
        },
        {
          "internalType": "address",
          "name": "to",
          "type": "address"
        },
        {
          "internalType": "uint256",
          "name": "tokenId",
          "type": "uint256"
        }
      ],
      "name": "transferFrom",
      "outputs": [],
      "stateMutability": "nonpayable",
      "type": "function"
    },
    {
      "stateMutability": "payable",
      "type": "receive"
    }
  ],
  "bytecode": "0x608060405260405162002c6638038062002c66833981016040819052620000269162000635565b8383838383835f620000398382620007dd565b506001620000488282620007dd565b5050505f5b8251811015620000ab57620000a1838281518110620000705762000070620008a9565b60200260200101518383815181106200008d576200008d620008a9565b6020026020010151620000ba60201b60201c565b506001016200004d565b50505050505050505062000934565b5f80620000c662000205565b90506001600160601b03831615620001fc57303b15620000f9576040516329cfc83160e11b815260040160405180910390fd5b6001600160a01b0384166200012857604051633250574960e11b81525f60048201526024015b60405180910390fd5b6113886001600160601b03841681101562000169576040516308f58e5760e41b81526001600160601b0385166004820152602481018290526044016200011f565b5f6001620001788685620008d1565b620001849190620008fb565b905062000194600682886200023a565b50620001ac9050866001600160601b03871662000256565b6040516001600160601b0382811682526001600160a01b038816915f918616907fdeaa91b6123d068f5821d0fb0678463d1a8a6079fe8af5de3ce5e896dcf9133d9060200160405180910390a450505b90505b92915050565b5f808062000214600662000266565b50915091508162000226575f62000233565b62000233816001620008d1565b9250505090565b5f8062000249858585620002e2565b915091505b935093915050565b62000262828262000465565b5050565b80545f908190819080820362000286575f805f93509350935050620002db565b5f620002a686620002996001856200091e565b5f91825260209091200190565b54600195506001600160601b03811694506c0100000000000000000000000090046001600160a01b03169250620002db915050565b9193909250565b82545f908190801562000400575f6200030287620002996001856200091e565b80549091506001600160601b03808216916c0100000000000000000000000090046001600160a01b03169088168211156200035057604051632520601d60e01b815260040160405180910390fd5b876001600160601b0316826001600160601b031603620003975782546001600160601b03166c010000000000000000000000006001600160a01b03891602178355620003f1565b604080518082019091526001600160601b03808a1682526001600160a01b03808a1660208085019182528d54600181018f555f8f815291909120945191519092166c01000000000000000000000000029216919091179101555b94508593506200024e92505050565b5050604080518082019091526001600160601b0380851682526001600160a01b0380851660208085019182528854600181018a555f8a8152918220955192519093166c010000000000000000000000000291909316179201919091559050816200024e565b6001600160801b038116156200048e576040516359171fc160e01b815260040160405180910390fd5b6001600160a01b0382165f90815260036020526040902080546001600160801b0383160190555050565b634e487b7160e01b5f52604160045260245ffd5b604051601f8201601f191681016001600160401b0381118282101715620004f757620004f7620004b8565b604052919050565b5f82601f8301126200050f575f80fd5b81516001600160401b038111156200052b576200052b620004b8565b602062000541601f8301601f19168201620004cc565b828152858284870101111562000555575f80fd5b5f5b838110156200057457858101830151828201840152820162000557565b505f928101909101919091529392505050565b5f6001600160401b03821115620005a257620005a2620004b8565b5060051b60200190565b5f82601f830112620005bc575f80fd5b81516020620005d5620005cf8362000587565b620004cc565b8083825260208201915060208460051b870101935086841115620005f7575f80fd5b602086015b848110156200062a5780516001600160601b03811681146200061c575f80fd5b8352918301918301620005fc565b509695505050505050565b5f805f806080858703121562000649575f80fd5b84516001600160401b038082111562000660575f80fd5b6200066e88838901620004ff565b955060209150818701518181111562000685575f80fd5b6200069389828a01620004ff565b955050604087015181811115620006a8575f80fd5b8701601f81018913620006b9575f80fd5b8051620006ca620005cf8262000587565b81815260059190911b8201840190848101908b831115620006e9575f80fd5b928501925b828410156200071e5783516001600160a01b03811681146200070e575f80fd5b82529285019290850190620006ee565b60608b015190975094505050508082111562000738575f80fd5b506200074787828801620005ac565b91505092959194509250565b600181811c908216806200076857607f821691505b6020821081036200078757634e487b7160e01b5f52602260045260245ffd5b50919050565b601f821115620007d857805f5260205f20601f840160051c81016020851015620007b45750805b601f840160051c820191505b81811015620007d5575f8155600101620007c0565b50505b505050565b81516001600160401b03811115620007f957620007f9620004b8565b62000811816200080a845462000753565b846200078d565b602080601f83116001811462000847575f84156200082f5750858301515b5f19600386901b1c1916600185901b178555620008a1565b5f85815260208120601f198616915b82811015620008775788860151825594840194600190910190840162000856565b50858210156200089557878501515f19600388901b60f8161c191681555b505060018460011b0185555b505050505050565b634e487b7160e01b5f52603260045260245ffd5b634e487b7160e01b5f52601160045260245ffd5b6001600160601b03818116838216019080821115620008f457620008f4620008bd565b5092915050565b6001600160601b03828116828216039080821115620008f457620008f4620008bd565b81810381811115620001ff57620001ff620008bd565b61232480620009425f395ff3fe608060405260043610610241575f3560e01c806370a0823111610134578063c26838c5116100b3578063d261af5411610078578063d261af541461066e578063d84838341461068d578063e203000d146106ac578063e3cb9a4a146106be578063e985e9c5146106dd578063efb43b07146106fc575f80fd5b8063c26838c5146105f2578063c67072011461046e578063c87b56dd14610611578063cc461d6214610630578063cfeea0d41461064f575f80fd5b80639ff2f02d116100f95780639ff2f02d1461054e578063a22cb4651461056d578063a2373a821461058c578063b88d4fde146105ab578063b895757b146105ca575f80fd5b806370a08231146104be578063733555ec146104dd5780637a7be036146104fc57806390104b841461051b57806395d89b411461053a575f80fd5b806330f3b0b5116101c0578063458ee00211610185578063458ee002146104305780634f6ccce71461044f5780636352211e1461046e57806367354a841461048d5780636884d58b1461049f575f80fd5b806330f3b0b51461039a57806332cadf3c146103b9578063342db739146103cd5780633451b14d146103f257806342842e0e14610411575f80fd5b8063161e977d11610206578063161e977d1461031857806318160ddd1461032c57806323b872dd1461034a5780632904df29146103695780632f745c591461037b575f80fd5b806301ffc9a71461024c57806306fdde0314610280578063081812fc146102a1578063095ea7b3146102d8578063113efe1a146102f9575f80fd5b3661024857005b5f80fd5b348015610257575f80fd5b5061026b610266366004611cbe565b61071b565b60405190151581526020015b60405180910390f35b34801561028b575f80fd5b5061029461072b565b6040516102779190611d26565b3480156102ac575f80fd5b506102c06102bb366004611d38565b6107ba565b6040516001600160a01b039091168152602001610277565b3480156102e3575f80fd5b506102f76102f2366004611d6a565b6107e1565b005b348015610304575f80fd5b506102f7610313366004611d92565b6107f0565b348015610323575f80fd5b506102946107fa565b348015610337575f80fd5b50600a545b604051908152602001610277565b348015610355575f80fd5b506102f7610364366004611dd2565b610815565b348015610374575f80fd5b50336102c0565b348015610386575f80fd5b5061033c610395366004611d6a565b6108a3565b3480156103a5575f80fd5b506102f76103b4366004611e1a565b610906565b3480156103c4575f80fd5b50610294610912565b3480156103d8575f80fd5b5061033c6e1a185c991a185d0b595e1c1bdcd959608a1b81565b3480156103fd575f80fd5b506102c061040c366004611d38565b61094f565b34801561041c575f80fd5b506102f761042b366004611dd2565b61096b565b34801561043b575f80fd5b506102c061044a366004611d38565b61098a565b34801561045a575f80fd5b5061033c610469366004611d38565b610994565b348015610479575f80fd5b506102c0610488366004611d38565b6109e9565b348015610498575f80fd5b505f61033c565b3480156104aa575f80fd5b506102f76104b9366004611dd2565b6109f3565b3480156104c9575f80fd5b5061033c6104d8366004611e64565b6109fe565b3480156104e8575f80fd5b506102f76104f7366004611ec2565b610a43565b348015610507575f80fd5b5061026b610516366004611dd2565b610a8b565b348015610526575f80fd5b506102f7610535366004611f2c565b610a9f565b348015610545575f80fd5b50610294610aaa565b348015610559575f80fd5b506102f7610568366004611f65565b610ab9565b348015610578575f80fd5b506102f7610587366004611fbb565b610af9565b348015610597575f80fd5b506102f76105a6366004611d38565b610b04565b3480156105b6575f80fd5b506102f76105c5366004612000565b610b10565b3480156105d5575f80fd5b506113885b6040516001600160601b039091168152602001610277565b3480156105fd575f80fd5b506105da61060c3660046120d5565b610b28565b34801561061c575f80fd5b5061029461062b366004611d38565b610b78565b34801561063b575f80fd5b506102f761064a366004611d6a565b610be9565b34801561065a575f80fd5b506102f761066936600461210a565b610bf3565b348015610679575f80fd5b506102f7610688366004611d6a565b610bfe565b348015610698575f80fd5b506102f76106a7366004611dd2565b610c08565b3480156106b7575f80fd5b505f6105da565b3480156106c9575f80fd5b506102c06106d8366004611f2c565b610c13565b3480156106e8575f80fd5b5061026b6106f7366004612141565b610c65565b348015610707575f80fd5b506102f7610716366004611dd2565b610c92565b5f61072582610c9d565b92915050565b60605f805461073990612169565b80601f016020809104026020016040519081016040528092919081815260200182805461076590612169565b80156107b05780601f10610787576101008083540402835291602001916107b0565b820191905f5260205f20905b81548152906001019060200180831161079357829003601f168201915b5050505050905090565b5f6107c482610cc1565b505f828152600460205260409020546001600160a01b0316610725565b6107ec828233610cf8565b5050565b6107ec8282610d05565b606061081060408051602081019091525f815290565b905090565b6001600160a01b03821661084357604051633250574960e11b81525f60048201526024015b60405180910390fd5b5f61084f838333610d0f565b9050836001600160a01b0316816001600160a01b03161461089d576040516364283d7b60e01b81526001600160a01b038086166004830152602482018490528216604482015260640161083a565b50505050565b5f6108ad836109fe565b82106108de5760405163295f44f760e21b81526001600160a01b03841660048201526024810183905260440161083a565b506001600160a01b03919091165f908152600860209081526040808320938352929052205490565b61089d84848484610d1b565b60605f368080601f0160208091040260200160405190810160405280939291908181526020018383808284375f9201919091525092949350505050565b5f818152600460205260408120546001600160a01b0316610725565b61098583838360405180602001604052805f815250610b10565b505050565b5f61072582610e1f565b5f61099e600a5490565b82106109c65760405163295f44f760e21b81525f60048201526024810183905260440161083a565b600a82815481106109d9576109d96121a1565b905f5260205f2001549050919050565b5f61072582610cc1565b610985838383610e29565b5f6001600160a01b038216610a28576040516322718ad960e21b81525f600482015260240161083a565b506001600160a01b03165f9081526003602052604090205490565b610a8485858585858080601f0160208091040260200160405190810160405280939291908181526020018383808284375f92019190915250610e8d92505050565b5050505050565b5f610a97848484610e98565b949350505050565b610985838383610cf8565b60606001805461073990612169565b61089d848484848080601f0160208091040260200160405190810160405280939291908181526020018383808284375f92019190915250610ef992505050565b6107ec338383610f10565b610b0d81610fae565b50565b610b1b848484610815565b61089d3385858585610fe6565b5f610b33838361110d565b6040516001600160601b03821681529091507f7a8bfd5fd00523f8302cd69cdf99d84752006f3fe7b006851ec4cdd02fab58ad9060200160405180910390a192915050565b6060610b8382610cc1565b505f610b9960408051602081019091525f815290565b90505f815111610bb75760405180602001604052805f815250610be2565b80610bc184611240565b604051602001610bd29291906121b5565b6040516020818303038152906040525b9392505050565b6107ec82826112d0565b610985838383610f10565b6107ec8282611331565b61098583838361134a565b5f610c1f848484610d0f565b6040516001600160a01b03821681529091507ffc55619107f02333de2d9626fe994a6b9d0734bee4722e17698d6fa1b06c52009060200160405180910390a19392505050565b6001600160a01b039182165f90815260056020908152604080832093909416825291909152205460ff1690565b610985838383611364565b5f6001600160e01b0319821663780e9d6360e01b1480610725575061072582611411565b5f80610ccc83610e1f565b90506001600160a01b03811661072557604051637e27328960e01b81526004810184905260240161083a565b6109858383836001610d1b565b6107ec8282611460565b5f610a978484846114b2565b8080610d2f57506001600160a01b03821615155b15610df0575f610d3e84610cc1565b90506001600160a01b03831615801590610d6a5750826001600160a01b0316816001600160a01b031614155b8015610d7d5750610d7b8184610c65565b155b15610da65760405163a9fbf51f60e01b81526001600160a01b038416600482015260240161083a565b8115610dee5783856001600160a01b0316826001600160a01b03167f8c5be1e5ebec7d5bd14f71427d1e84f3dd0314c0f7b2291e5b200ac8c7c3b92560405160405180910390a45b505b50505f90815260046020526040902080546001600160a01b0319166001600160a01b0392909216919091179055565b5f6107258261157d565b610e34838383610e98565b610985576001600160a01b038316610e6257604051637e27328960e01b81526004810182905260240161083a565b60405163177e802f60e01b81526001600160a01b03831660048201526024810182905260440161083a565b610b1b848484611364565b5f6001600160a01b03831615801590610a975750826001600160a01b0316846001600160a01b03161480610ed15750610ed18484610c65565b80610a975750505f908152600460205260409020546001600160a01b03908116911614919050565b610f0383836112d0565b610985335f858585610fe6565b6001600160a01b038216610f4257604051630b61174360e31b81526001600160a01b038316600482015260240161083a565b6001600160a01b038381165f81815260056020908152604080832094871680845294825291829020805460ff191686151590811790915591519182527f17307eab39ab6107e8899845ad3d59bd9653f200f220920489ca2b5937696c31910160405180910390a3505050565b5f610fba5f835f610d0f565b90506001600160a01b0381166107ec57604051637e27328960e01b81526004810183905260240161083a565b6001600160a01b0383163b15610a8457604051630a85bd0160e11b81526001600160a01b0384169063150b7a02906110289088908890879087906004016121e3565b6020604051808303815f875af1925050508015611062575060408051601f3d908101601f1916820190925261105f9181019061221f565b60015b6110c9573d80801561108f576040519150601f19603f3d011682016040523d82523d5f602084013e611094565b606091505b5080515f036110c157604051633250574960e11b81526001600160a01b038516600482015260240161083a565b805181602001fd5b6001600160e01b03198116630a85bd0160e11b1461110557604051633250574960e11b81526001600160a01b038516600482015260240161083a565b505050505050565b5f806111176115f2565b90506001600160601b03831615610be257303b15611148576040516329cfc83160e11b815260040160405180910390fd5b6001600160a01b03841661117157604051633250574960e11b81525f600482015260240161083a565b6113886001600160601b0384168110156111b0576040516308f58e5760e41b81526001600160601b03851660048201526024810182905260440161083a565b5f60016111bd868561224e565b6111c79190612275565b90506111d560068288611621565b50506111ea86866001600160601b0316610d05565b6040516001600160601b0382811682526001600160a01b038816915f918616907fdeaa91b6123d068f5821d0fb0678463d1a8a6079fe8af5de3ce5e896dcf9133d9060200160405180910390a450509392505050565b60605f61124c8361163b565b60010190505f8167ffffffffffffffff81111561126b5761126b611fec565b6040519080825280601f01601f191660200182016040528015611295576020820181803683370190505b5090508181016020015b5f19016f181899199a1a9b1b9c1cb0b131b232b360811b600a86061a8153600a850494508461129f57509392505050565b6001600160a01b0382166112f957604051633250574960e11b81525f600482015260240161083a565b5f61130583835f610d0f565b90506001600160a01b03811615610985576040516339e3563760e11b81525f600482015260240161083a565b6107ec828260405180602001604052805f815250610ef9565b61098583838360405180602001604052805f815250610e8d565b6001600160a01b03821661138d57604051633250574960e11b81525f600482015260240161083a565b5f61139983835f610d0f565b90506001600160a01b0381166113c557604051637e27328960e01b81526004810183905260240161083a565b836001600160a01b0316816001600160a01b03161461089d576040516364283d7b60e01b81526001600160a01b038086166004830152602482018490528216604482015260640161083a565b5f6001600160e01b031982166380ac58cd60e01b148061144157506001600160e01b03198216635b5e139f60e01b145b8061072557506301ffc9a760e01b6001600160e01b0319831614610725565b6001600160801b03811615611488576040516359171fc160e01b815260040160405180910390fd5b6001600160a01b0382165f90815260036020526040902080546001600160801b0383160190555050565b5f806114bf858585611712565b90506001600160a01b03811661151b5761151684600a80545f838152600b60205260408120829055600182018355919091527fc65a7bb8d6351c1cf70c95a316cc6a92839c986682d98bc35f958f4883f9d2a80155565b61153e565b846001600160a01b0316816001600160a01b03161461153e5761153e81856117c7565b6001600160a01b03851661155a5761155584611844565b610a97565b846001600160a01b0316816001600160a01b031614610a9757610a9785856118eb565b5f818152600260205260408120546001600160a01b0316801515806115a857506001600160601b0383115b806115b057505f5b156115bb5792915050565b600883901c5f90815260076020526040902054600160ff85161b166115ea576115e5600684611939565b610be2565b5f9392505050565b5f805f6115ff600661197e565b50915091508161160f575f61161a565b61161a81600161224e565b9250505090565b5f8061162e8585856119eb565b915091505b935093915050565b5f8072184f03e93ff9f4daa797ed6e38ed64bf6a1f0160401b83106116795772184f03e93ff9f4daa797ed6e38ed64bf6a1f0160401b830492506040015b6d04ee2d6d415b85acef810000000083106116a5576d04ee2d6d415b85acef8100000000830492506020015b662386f26fc1000083106116c357662386f26fc10000830492506010015b6305f5e10083106116db576305f5e100830492506008015b61271083106116ef57612710830492506004015b60648310611701576064830492506002015b600a83106107255760010192915050565b5f8061171f858585611b41565b90506001600160a01b0381161580156117375750303b155b15611755576040516356c4a82960e11b815260040160405180910390fd5b6001600160a01b03851615801561177b575061176f6115f2565b6001600160601b031684105b801561179f5750600884901c5f90815260076020526040902054600160ff86161b16155b15610a9757600884901c5f9081526007602052604090208054600160ff87161b179055610a97565b5f6117d1836109fe565b5f838152600960209081526040808320546001600160a01b0388168452600890925290912091925090818314611826575f83815260208281526040808320548584528184208190558352600990915290208290555b5f938452600960209081526040808620869055938552525081205550565b600a545f9061185590600190612295565b5f838152600b6020526040812054600a805493945090928490811061187c5761187c6121a1565b905f5260205f200154905080600a838154811061189b5761189b6121a1565b5f918252602080832090910192909255828152600b9091526040808220849055858252812055600a8054806118d2576118d26122a8565b600190038181905f5260205f20015f9055905550505050565b5f60016118f7846109fe565b6119019190612295565b6001600160a01b039093165f908152600860209081526040808320868452825280832085905593825260099052919091209190915550565b81545f908161194a85858385611c2e565b9050818114611973575f85815260209020810154600160601b90046001600160a01b0316611975565b5f5b95945050505050565b80545f908190819080820361199c575f805f935093509350506119e4565b5f6119b9866119ac600185612295565b5f91825260209091200190565b54600195506001600160601b0381169450600160601b90046001600160a01b031692506119e4915050565b9193909250565b82545f9081908015611ae6575f611a07876119ac600185612295565b80549091506001600160601b0380821691600160601b90046001600160a01b0316908816821115611a4b57604051632520601d60e01b815260040160405180910390fd5b876001600160601b0316826001600160601b031603611a875782546001600160601b0316600160601b6001600160a01b03891602178355611ad8565b604080518082019091526001600160601b03808a1682526001600160a01b03808a1660208085019182528d54600181018f555f8f81529190912094519151909216600160601b029216919091179101555b945085935061163392505050565b5050604080518082019091526001600160601b0380851682526001600160a01b0380851660208085019182528854600181018a555f8a815291822095519251909316600160601b029190931617920191909155905081611633565b5f80611b4c84610e1f565b90506001600160a01b03831615611b6857611b68818486610e29565b6001600160a01b03811615611ba257611b835f855f80610d1b565b6001600160a01b0381165f90815260036020526040902080545f190190555b6001600160a01b03851615611bd0576001600160a01b0385165f908152600360205260409020805460010190555b5f8481526002602052604080822080546001600160a01b0319166001600160a01b0389811691821790925591518793918516917fddf252ad1be2c89b69c2b068fc378daa952ba7f163c4a11628f55a4df523b3ef91a4949350505050565b5f5b81831015611c87575f611c438484611c8f565b5f878152602090209091506001600160601b038616908201546001600160601b03161015611c7d57611c768160016122bc565b9350611c81565b8092505b50611c30565b509392505050565b5f611c9d60028484186122cf565b610be2908484166122bc565b6001600160e01b031981168114610b0d575f80fd5b5f60208284031215611cce575f80fd5b8135610be281611ca9565b5f5b83811015611cf3578181015183820152602001611cdb565b50505f910152565b5f8151808452611d12816020860160208601611cd9565b601f01601f19169290920160200192915050565b602081525f610be26020830184611cfb565b5f60208284031215611d48575f80fd5b5035919050565b80356001600160a01b0381168114611d65575f80fd5b919050565b5f8060408385031215611d7b575f80fd5b611d8483611d4f565b946020939093013593505050565b5f8060408385031215611da3575f80fd5b611dac83611d4f565b915060208301356001600160801b0381168114611dc7575f80fd5b809150509250929050565b5f805f60608486031215611de4575f80fd5b611ded84611d4f565b9250611dfb60208501611d4f565b9150604084013590509250925092565b80358015158114611d65575f80fd5b5f805f8060808587031215611e2d575f80fd5b611e3685611d4f565b935060208501359250611e4b60408601611d4f565b9150611e5960608601611e0b565b905092959194509250565b5f60208284031215611e74575f80fd5b610be282611d4f565b5f8083601f840112611e8d575f80fd5b50813567ffffffffffffffff811115611ea4575f80fd5b602083019150836020828501011115611ebb575f80fd5b9250929050565b5f805f805f60808688031215611ed6575f80fd5b611edf86611d4f565b9450611eed60208701611d4f565b935060408601359250606086013567ffffffffffffffff811115611f0f575f80fd5b611f1b88828901611e7d565b969995985093965092949392505050565b5f805f60608486031215611f3e575f80fd5b611f4784611d4f565b925060208401359150611f5c60408501611d4f565b90509250925092565b5f805f8060608587031215611f78575f80fd5b611f8185611d4f565b935060208501359250604085013567ffffffffffffffff811115611fa3575f80fd5b611faf87828801611e7d565b95989497509550505050565b5f8060408385031215611fcc575f80fd5b611fd583611d4f565b9150611fe360208401611e0b565b90509250929050565b634e487b7160e01b5f52604160045260245ffd5b5f805f8060808587031215612013575f80fd5b61201c85611d4f565b935061202a60208601611d4f565b925060408501359150606085013567ffffffffffffffff8082111561204d575f80fd5b818701915087601f830112612060575f80fd5b81358181111561207257612072611fec565b604051601f8201601f19908116603f0116810190838211818310171561209a5761209a611fec565b816040528281528a60208487010111156120b2575f80fd5b826020860160208301375f60208483010152809550505050505092959194509250565b5f80604083850312156120e6575f80fd5b6120ef83611d4f565b915060208301356001600160601b0381168114611dc7575f80fd5b5f805f6060848603121561211c575f80fd5b61212584611d4f565b925061213360208501611d4f565b9150611f5c60408501611e0b565b5f8060408385031215612152575f80fd5b61215b83611d4f565b9150611fe360208401611d4f565b600181811c9082168061217d57607f821691505b60208210810361219b57634e487b7160e01b5f52602260045260245ffd5b50919050565b634e487b7160e01b5f52603260045260245ffd5b5f83516121c6818460208801611cd9565b8351908301906121da818360208801611cd9565b01949350505050565b6001600160a01b03858116825284166020820152604081018390526080606082018190525f9061221590830184611cfb565b9695505050505050565b5f6020828403121561222f575f80fd5b8151610be281611ca9565b634e487b7160e01b5f52601160045260245ffd5b6001600160601b0381811683821601908082111561226e5761226e61223a565b5092915050565b6001600160601b0382811682821603908082111561226e5761226e61223a565b818103818111156107255761072561223a565b634e487b7160e01b5f52603160045260245ffd5b808201808211156107255761072561223a565b5f826122e957634e487b7160e01b5f52601260045260245ffd5b50049056fea26469706673582212209d8bf6391ba746664fc836907d60d4fef194a97faf21bca558aa6d120358336464736f6c63430008180033",
  "linkReferences": {},
  "deployedLinkReferences": {}
}