{
  "_format": "hh-sol-artifact-1",
  "contractName": "$MerkleTreeMock",
  "sourceName": "contracts-exposed/mocks/MerkleTreeMock.sol",
  "abi": [
    {
      "inputs": [],
      "stateMutability": "payable",
      "type": "constructor"
    },
    {
      "anonymous": false,
      "inputs": [
        {
          "indexed": false,
          "internalType": "bytes32",
          "name": "leaf",
          "type": "bytes32"
        },
        {
          "indexed": false,
          "internalType": "uint256",
          "name": "index",
          "type": "uint256"
        },
        {
          "indexed": false,
          "internalType": "bytes32",
          "name": "root",
          "type": "bytes32"
        }
      ],
      "name": "LeafInserted",
      "type": "event"
    },
    {
      "inputs": [],
      "name": "__hh_exposed_bytecode_marker",
      "outputs": [
        {
          "internalType": "bytes32",
          "name": "",
          "type": "bytes32"
        }
      ],
      "stateMutability": "view",
      "type": "function"
    },
    {
      "inputs": [],
      "name": "depth",
      "outputs": [
        {
          "internalType": "uint256",
          "name": "",
          "type": "uint256"
        }
      ],
      "stateMutability": "view",
      "type": "function"
    },
    {
      "inputs": [],
      "name": "nextLeafIndex",
      "outputs": [
        {
          "internalType": "uint256",
          "name": "",
          "type": "uint256"
        }
      ],
      "stateMutability": "view",
      "type": "function"
    },
    {
      "inputs": [
        {
          "internalType": "bytes32",
          "name": "leaf",
          "type": "bytes32"
        }
      ],
      "name": "push",
      "outputs": [],
      "stateMutability": "nonpayable",
      "type": "function"
    },
    {
      "inputs": [],
      "name": "root",
      "outputs": [
        {
          "internalType": "bytes32",
          "name": "",
          "type": "bytes32"
        }
      ],
      "stateMutability": "view",
      "type": "function"
    },
    {
      "inputs": [
        {
          "internalType": "uint8",
          "name": "_depth",
          "type": "uint8"
        },
        {
          "internalType": "bytes32",
          "name": "_zero",
          "type": "bytes32"
        }
      ],
      "name": "setup",
      "outputs": [],
      "stateMutability": "nonpayable",
      "type": "function"
    },
    {
      "inputs": [
        {
          "internalType": "uint256",
          "name": "i",
          "type": "uint256"
        }
      ],
      "name": "sides",
      "outputs": [
        {
          "internalType": "bytes32",
          "name": "",
          "type": "bytes32"
        }
      ],
      "stateMutability": "view",
      "type": "function"
    },
    {
      "inputs": [
        {
          "internalType": "uint256",
          "name": "i",
          "type": "uint256"
        }
      ],
      "name": "zeros",
      "outputs": [
        {
          "internalType": "bytes32",
          "name": "",
          "type": "bytes32"
        }
      ],
      "stateMutability": "view",
      "type": "function"
    },
    {
      "stateMutability": "payable",
      "type": "receive"
    }
  ],
  "bytecode": "0x60806040526104f3806100115f395ff3fe60806040526004361061007c575f3560e01c8063b3eb738a1161004c578063b3eb738a14610102578063b66987b614610121578063e829558814610140578063ebf0c7171461015f575f80fd5b80630be4f42214610087578063342db739146100a8578063631c56ef146100cd578063b298e36b146100e1575f80fd5b3661008357005b5f80fd5b348015610092575f80fd5b505f545b60405190815260200160405180910390f35b3480156100b3575f80fd5b506100966e1a185c991a185d0b595e1c1bdcd959608a1b81565b3480156100d8575f80fd5b50600254610096565b3480156100ec575f80fd5b506101006100fb3660046103f6565b610174565b005b34801561010d575f80fd5b5061009661011c3660046103f6565b6101cd565b34801561012c575f80fd5b5061010061013b36600461040d565b6101f3565b34801561014b575f80fd5b5061009661015a3660046103f6565b610205565b34801561016a575f80fd5b5061009660035481565b5f80610180818461021b565b604080518681526020810184905290810182905291935091507fd50e83984b64a106ac2ee6314d689ec4d2a656d5ece6d94c585796944b52240c9060600160405180910390a16003555050565b5f8060010182815481106101e3576101e361043c565b905f5260205f2001549050919050565b6101fe5f8383610235565b6003555050565b5f8060020182815481106101e3576101e361043c565b5f8061022a848461024c61027b565b915091509250929050565b5f61024484848461024c610366565b949350505050565b5f818310610266575f828152602084905260409020610274565b5f8381526020839052604090205b9392505050565b5f805f610289866002015490565b8654909150865f61029983610464565b9091555092506001811b83106102b3576102b360416103c6565b82855f5b838163ffffffff161015610359575f6102d160028561047c565b15905080156102f057826102ee8b6001018463ffffffff166103d7565b555b61033c816103115761030b8b6001018463ffffffff166103d7565b54610313565b835b8261031e5784610333565b6103318c6002018563ffffffff166103d7565b545b8a63ffffffff16565b9250600184901c93505080806103519061049b565b9150506102b7565b5092505050935093915050565b60ff83166001850181905560028501555f82815b8560ff168163ffffffff1610156103b8578161039f886002018363ffffffff166103d7565b556103ae828063ffffffff8716565b915060010161037a565b505f86559050949350505050565b634e487b715f52806020526024601cfd5b5f826102446103f3846103ef845f9081526020902090565b0190565b90565b5f60208284031215610406575f80fd5b5035919050565b5f806040838503121561041e575f80fd5b823560ff8116811461042e575f80fd5b946020939093013593505050565b634e487b7160e01b5f52603260045260245ffd5b634e487b7160e01b5f52601160045260245ffd5b5f6001820161047557610475610450565b5060010190565b5f8261049657634e487b7160e01b5f52601260045260245ffd5b500690565b5f63ffffffff8083168181036104b3576104b3610450565b600101939250505056fea26469706673582212207ea8f65f3f155095a95f1204a00e743c610234400d5e6a7b6a55fb25a4ec397264736f6c63430008180033",
  "linkReferences": {},
  "deployedLinkReferences": {}
}