{
  "_format": "hh-sol-artifact-1",
  "contractName": "ERC165InterfacesSupported",
  "sourceName": "contracts/mocks/ERC165/ERC165InterfacesSupported.sol",
  "abi": [
    {
      "inputs": [
        {
          "internalType": "bytes4[]",
          "name": "interfaceIds",
          "type": "bytes4[]"
        }
      ],
      "stateMutability": "nonpayable",
      "type": "constructor"
    },
    {
      "inputs": [],
      "name": "INTERFACE_ID_ERC165",
      "outputs": [
        {
          "internalType": "bytes4",
          "name": "",
          "type": "bytes4"
        }
      ],
      "stateMutability": "view",
      "type": "function"
    },
    {
      "inputs": [
        {
          "internalType": "bytes4",
          "name": "interfaceId",
          "type": "bytes4"
        }
      ],
      "name": "supportsInterface",
      "outputs": [
        {
          "internalType": "bool",
          "name": "",
          "type": "bool"
        }
      ],
      "stateMutability": "view",
      "type": "function"
    }
  ],
  "bytecode": "0x608060405234801561000f575f80fd5b5060405161032238038061032283398101604081905261002e9161014a565b61003e6301ffc9a760e01b610080565b5f5b81518110156100795761007182828151811061005e5761005e610209565b602002602001015161008060201b60201c565b600101610040565b505061021d565b6001600160e01b031980821690036100f65760405162461bcd60e51b815260206004820152602f60248201527f455243313635496e7465726661636573537570706f727465643a20696e76616c60448201526e1a59081a5b9d195c999858d9481a59608a1b606482015260840160405180910390fd5b6001600160e01b0319165f908152602081905260409020805460ff19166001179055565b634e487b7160e01b5f52604160045260245ffd5b80516001600160e01b031981168114610145575f80fd5b919050565b5f602080838503121561015b575f80fd5b82516001600160401b0380821115610171575f80fd5b818501915085601f830112610184575f80fd5b8151818111156101965761019661011a565b8060051b604051601f19603f830116810181811085821117156101bb576101bb61011a565b6040529182528482019250838101850191888311156101d8575f80fd5b938501935b828510156101fd576101ee8561012e565b845293850193928501926101dd565b98975050505050505050565b634e487b7160e01b5f52603260045260245ffd5b60f9806102295f395ff3fe6080604052348015600e575f80fd5b50600436106030575f3560e01c806301ffc9a714603457806334d7006c146072575b5f80fd5b605d603f3660046097565b6001600160e01b0319165f9081526020819052604090205460ff1690565b60405190151581526020015b60405180910390f35b607f6301ffc9a760e01b81565b6040516001600160e01b031990911681526020016069565b5f6020828403121560a6575f80fd5b81356001600160e01b03198116811460bc575f80fd5b939250505056fea2646970667358221220cec4ed6b778bf28101e263f6e5557a4de1bc2e4e9a078fd634cef3675ab9214564736f6c63430008180033",
  "linkReferences": {},
  "deployedLinkReferences": {}
}