{
  "_format": "hh-sol-artifact-1",
  "contractName": "DummyImplementation",
  "sourceName": "contracts/mocks/DummyImplementation.sol",
  "abi": [
    {
      "inputs": [],
      "name": "get",
      "outputs": [
        {
          "internalType": "bool",
          "name": "",
          "type": "bool"
        }
      ],
      "stateMutability": "pure",
      "type": "function"
    },
    {
      "inputs": [
        {
          "internalType": "uint256",
          "name": "_value",
          "type": "uint256"
        },
        {
          "internalType": "string",
          "name": "_text",
          "type": "string"
        },
        {
          "internalType": "uint256[]",
          "name": "_values",
          "type": "uint256[]"
        }
      ],
      "name": "initialize",
      "outputs": [],
      "stateMutability": "nonpayable",
      "type": "function"
    },
    {
      "inputs": [],
      "name": "initializeNonPayable",
      "outputs": [],
      "stateMutability": "nonpayable",
      "type": "function"
    },
    {
      "inputs": [
        {
          "internalType": "uint256",
          "name": "_value",
          "type": "uint256"
        }
      ],
      "name": "initializeNonPayableWithValue",
      "outputs": [],
      "stateMutability": "nonpayable",
      "type": "function"
    },
    {
      "inputs": [],
      "name": "initializePayable",
      "outputs": [],
      "stateMutability": "payable",
      "type": "function"
    },
    {
      "inputs": [
        {
          "internalType": "uint256",
          "name": "_value",
          "type": "uint256"
        }
      ],
      "name": "initializePayableWithValue",
      "outputs": [],
      "stateMutability": "payable",
      "type": "function"
    },
    {
      "inputs": [],
      "name": "reverts",
      "outputs": [],
      "stateMutability": "pure",
      "type": "function"
    },
    {
      "inputs": [],
      "name": "text",
      "outputs": [
        {
          "internalType": "string",
          "name": "",
          "type": "string"
        }
      ],
      "stateMutability": "view",
      "type": "function"
    },
    {
      "inputs": [
        {
          "internalType": "address",
          "name": "newAdmin",
          "type": "address"
        }
      ],
      "name": "unsafeOverrideAdmin",
      "outputs": [],
      "stateMutability": "nonpayable",
      "type": "function"
    },
    {
      "inputs": [],
      "name": "value",
      "outputs": [
        {
          "internalType": "uint256",
          "name": "",
          "type": "uint256"
        }
      ],
      "stateMutability": "view",
      "type": "function"
    },
    {
      "inputs": [
        {
          "internalType": "uint256",
          "name": "",
          "type": "uint256"
        }
      ],
      "name": "values",
      "outputs": [
        {
          "internalType": "uint256",
          "name": "",
          "type": "uint256"
        }
      ],
      "stateMutability": "view",
      "type": "function"
    },
    {
      "inputs": [],
      "name": "version",
      "outputs": [
        {
          "internalType": "string",
          "name": "",
          "type": "string"
        }
      ],
      "stateMutability": "pure",
      "type": "function"
    }
  ],
  "bytecode": "0x608060405234801561000f575f80fd5b506107358061001d5f395ff3fe6080604052600436106100a5575f3560e01c80635e383d21116100625780635e383d21146101a55780636d4ce63c146101c4578063763e2831146101df5780639fba1f9a146101fd578063d31f8b6b14610206578063e79f5bee14610225575f80fd5b806319af86e7146100a95780631f1bd69214610106578063227367d5146101305780633bccbbc9146101455780633fa4f2451461015957806354fd4d501461017b575b5f80fd5b3480156100b4575f80fd5b506101046100c33660046103b1565b7fb53127684a568b3173ae13b9f8a6016e243e63b6e8ee1178d6a717850b5d610380546001600160a01b0319166001600160a01b0392909216919091179055565b005b348015610111575f80fd5b5061011a610233565b60405161012791906103de565b60405180910390f35b34801561013b575f80fd5b50610104600a5f55565b348015610150575f80fd5b506101046102bf565b348015610164575f80fd5b5061016d5f5481565b604051908152602001610127565b348015610186575f80fd5b50604080518082019091526002815261563160f01b602082015261011a565b3480156101b0575f80fd5b5061016d6101bf36600461042a565b61030b565b3480156101cf575f80fd5b5060405160018152602001610127565b3480156101ea575f80fd5b506101046101f936600461042a565b5f55565b61010460645f55565b348015610211575f80fd5b50610104610220366004610503565b61032a565b6101046101f936600461042a565b60018054610240906105bb565b80601f016020809104026020016040519081016040528092919081815260200182805461026c906105bb565b80156102b75780601f1061028e576101008083540402835291602001916102b7565b820191905f5260205f20905b81548152906001019060200180831161029a57829003601f168201915b505050505081565b60405162461bcd60e51b815260206004820152601c60248201527f44756d6d79496d706c656d656e746174696f6e20726576657274656400000000604482015260640160405180910390fd5b6002818154811061031a575f80fd5b5f91825260209091200154905081565b5f839055600161033a838261063f565b50805161034e906002906020840190610354565b50505050565b828054828255905f5260205f2090810192821561038d579160200282015b8281111561038d578251825591602001919060010190610372565b5061039992915061039d565b5090565b5b80821115610399575f815560010161039e565b5f602082840312156103c1575f80fd5b81356001600160a01b03811681146103d7575f80fd5b9392505050565b5f602080835283518060208501525f5b8181101561040a578581018301518582016040015282016103ee565b505f604082860101526040601f19601f8301168501019250505092915050565b5f6020828403121561043a575f80fd5b5035919050565b634e487b7160e01b5f52604160045260245ffd5b604051601f8201601f1916810167ffffffffffffffff8111828210171561047e5761047e610441565b604052919050565b5f82601f830112610495575f80fd5b8135602067ffffffffffffffff8211156104b1576104b1610441565b8160051b6104c0828201610455565b92835284810182019282810190878511156104d9575f80fd5b83870192505b848310156104f8578235825291830191908301906104df565b979650505050505050565b5f805f60608486031215610515575f80fd5b8335925060208085013567ffffffffffffffff80821115610534575f80fd5b818701915087601f830112610547575f80fd5b81358181111561055957610559610441565b61056b601f8201601f19168501610455565b818152898583860101111561057e575f80fd5b81858501868301375f91810190940152919350604086013591808311156105a3575f80fd5b50506105b186828701610486565b9150509250925092565b600181811c908216806105cf57607f821691505b6020821081036105ed57634e487b7160e01b5f52602260045260245ffd5b50919050565b601f82111561063a57805f5260205f20601f840160051c810160208510156106185750805b601f840160051c820191505b81811015610637575f8155600101610624565b50505b505050565b815167ffffffffffffffff81111561065957610659610441565b61066d8161066784546105bb565b846105f3565b602080601f8311600181146106a0575f84156106895750858301515b5f19600386901b1c1916600185901b1785556106f7565b5f85815260208120601f198616915b828110156106ce578886015182559484019460019091019084016106af565b50858210156106eb57878501515f19600388901b60f8161c191681555b505060018460011b0185555b50505050505056fea2646970667358221220a5599897bf9573bc2e4e8b2c8dbedffddde727c0bfdf9c593c98e72ffd919a1c64736f6c63430008180033",
  "linkReferences": {},
  "deployedLinkReferences": {}
}