{
  "_format": "hh-sol-artifact-1",
  "contractName": "DummyImplementationV2",
  "sourceName": "contracts/mocks/DummyImplementation.sol",
  "abi": [
    {
      "inputs": [],
      "name": "get",
      "outputs": [
        {
          "internalType": "bool",
          "name": "",
          "type": "bool"
        }
      ],
      "stateMutability": "pure",
      "type": "function"
    },
    {
      "inputs": [
        {
          "internalType": "uint256",
          "name": "_value",
          "type": "uint256"
        },
        {
          "internalType": "string",
          "name": "_text",
          "type": "string"
        },
        {
          "internalType": "uint256[]",
          "name": "_values",
          "type": "uint256[]"
        }
      ],
      "name": "initialize",
      "outputs": [],
      "stateMutability": "nonpayable",
      "type": "function"
    },
    {
      "inputs": [],
      "name": "initializeNonPayable",
      "outputs": [],
      "stateMutability": "nonpayable",
      "type": "function"
    },
    {
      "inputs": [
        {
          "internalType": "uint256",
          "name": "_value",
          "type": "uint256"
        }
      ],
      "name": "initializeNonPayableWithValue",
      "outputs": [],
      "stateMutability": "nonpayable",
      "type": "function"
    },
    {
      "inputs": [],
      "name": "initializePayable",
      "outputs": [],
      "stateMutability": "payable",
      "type": "function"
    },
    {
      "inputs": [
        {
          "internalType": "uint256",
          "name": "_value",
          "type": "uint256"
        }
      ],
      "name": "initializePayableWithValue",
      "outputs": [],
      "stateMutability": "payable",
      "type": "function"
    },
    {
      "inputs": [
        {
          "internalType": "uint256",
          "name": "newVal",
          "type": "uint256"
        }
      ],
      "name": "migrate",
      "outputs": [],
      "stateMutability": "payable",
      "type": "function"
    },
    {
      "inputs": [],
      "name": "reverts",
      "outputs": [],
      "stateMutability": "pure",
      "type": "function"
    },
    {
      "inputs": [],
      "name": "text",
      "outputs": [
        {
          "internalType": "string",
          "name": "",
          "type": "string"
        }
      ],
      "stateMutability": "view",
      "type": "function"
    },
    {
      "inputs": [
        {
          "internalType": "address",
          "name": "newAdmin",
          "type": "address"
        }
      ],
      "name": "unsafeOverrideAdmin",
      "outputs": [],
      "stateMutability": "nonpayable",
      "type": "function"
    },
    {
      "inputs": [],
      "name": "value",
      "outputs": [
        {
          "internalType": "uint256",
          "name": "",
          "type": "uint256"
        }
      ],
      "stateMutability": "view",
      "type": "function"
    },
    {
      "inputs": [
        {
          "internalType": "uint256",
          "name": "",
          "type": "uint256"
        }
      ],
      "name": "values",
      "outputs": [
        {
          "internalType": "uint256",
          "name": "",
          "type": "uint256"
        }
      ],
      "stateMutability": "view",
      "type": "function"
    },
    {
      "inputs": [],
      "name": "version",
      "outputs": [
        {
          "internalType": "string",
          "name": "",
          "type": "string"
        }
      ],
      "stateMutability": "pure",
      "type": "function"
    }
  ],
  "bytecode": "0x608060405234801561000f575f80fd5b5061074f8061001d5f395ff3fe6080604052600436106100bf575f3560e01c806354fd4d501161007c578063763e283111610057578063763e28311461020b5780639fba1f9a14610225578063d31f8b6b1461022e578063e79f5bee14610195575f80fd5b806354fd4d50146101a75780635e383d21146101d15780636d4ce63c146101f0575f80fd5b806319af86e7146100c35780631f1bd69214610120578063227367d51461014a5780633bccbbc91461015f5780633fa4f24514610173578063454b060814610195575b5f80fd5b3480156100ce575f80fd5b5061011e6100dd3660046103cb565b7fb53127684a568b3173ae13b9f8a6016e243e63b6e8ee1178d6a717850b5d610380546001600160a01b0319166001600160a01b0392909216919091179055565b005b34801561012b575f80fd5b5061013461024d565b60405161014191906103f8565b60405180910390f35b348015610155575f80fd5b5061011e600a5f55565b34801561016a575f80fd5b5061011e6102d9565b34801561017e575f80fd5b506101875f5481565b604051908152602001610141565b61011e6101a3366004610444565b5f55565b3480156101b2575f80fd5b506040805180820190915260028152612b1960f11b6020820152610134565b3480156101dc575f80fd5b506101876101eb366004610444565b610325565b3480156101fb575f80fd5b5060405160018152602001610141565b348015610216575f80fd5b5061011e6101a3366004610444565b61011e60645f55565b348015610239575f80fd5b5061011e61024836600461051d565b610344565b6001805461025a906105d5565b80601f0160208091040260200160405190810160405280929190818152602001828054610286906105d5565b80156102d15780601f106102a8576101008083540402835291602001916102d1565b820191905f5260205f20905b8154815290600101906020018083116102b457829003601f168201915b505050505081565b60405162461bcd60e51b815260206004820152601c60248201527f44756d6d79496d706c656d656e746174696f6e20726576657274656400000000604482015260640160405180910390fd5b60028181548110610334575f80fd5b5f91825260209091200154905081565b5f83905560016103548382610659565b50805161036890600290602084019061036e565b50505050565b828054828255905f5260205f209081019282156103a7579160200282015b828111156103a757825182559160200191906001019061038c565b506103b39291506103b7565b5090565b5b808211156103b3575f81556001016103b8565b5f602082840312156103db575f80fd5b81356001600160a01b03811681146103f1575f80fd5b9392505050565b5f602080835283518060208501525f5b8181101561042457858101830151858201604001528201610408565b505f604082860101526040601f19601f8301168501019250505092915050565b5f60208284031215610454575f80fd5b5035919050565b634e487b7160e01b5f52604160045260245ffd5b604051601f8201601f1916810167ffffffffffffffff811182821017156104985761049861045b565b604052919050565b5f82601f8301126104af575f80fd5b8135602067ffffffffffffffff8211156104cb576104cb61045b565b8160051b6104da82820161046f565b92835284810182019282810190878511156104f3575f80fd5b83870192505b84831015610512578235825291830191908301906104f9565b979650505050505050565b5f805f6060848603121561052f575f80fd5b8335925060208085013567ffffffffffffffff8082111561054e575f80fd5b818701915087601f830112610561575f80fd5b8135818111156105735761057361045b565b610585601f8201601f1916850161046f565b8181528985838601011115610598575f80fd5b81858501868301375f91810190940152919350604086013591808311156105bd575f80fd5b50506105cb868287016104a0565b9150509250925092565b600181811c908216806105e957607f821691505b60208210810361060757634e487b7160e01b5f52602260045260245ffd5b50919050565b601f82111561065457805f5260205f20601f840160051c810160208510156106325750805b601f840160051c820191505b81811015610651575f815560010161063e565b50505b505050565b815167ffffffffffffffff8111156106735761067361045b565b6106878161068184546105d5565b8461060d565b602080601f8311600181146106ba575f84156106a35750858301515b5f19600386901b1c1916600185901b178555610711565b5f85815260208120601f198616915b828110156106e8578886015182559484019460019091019084016106c9565b508582101561070557878501515f19600388901b60f8161c191681555b505060018460011b0185555b50505050505056fea264697066735822122017b48192158640636c09e5345ce0d96f981812d68d8edcbe935b32e5e9970e1764736f6c63430008180033",
  "linkReferences": {},
  "deployedLinkReferences": {}
}