{
  "_format": "hh-sol-artifact-1",
  "contractName": "$ERC4626Mock",
  "sourceName": "contracts-exposed/mocks/token/ERC4626Mock.sol",
  "abi": [
    {
      "inputs": [
        {
          "internalType": "address",
          "name": "underlying",
          "type": "address"
        }
      ],
      "stateMutability": "payable",
      "type": "constructor"
    },
    {
      "inputs": [
        {
          "internalType": "address",
          "name": "spender",
          "type": "address"
        },
        {
          "internalType": "uint256",
          "name": "allowance",
          "type": "uint256"
        },
        {
          "internalType": "uint256",
          "name": "needed",
          "type": "uint256"
        }
      ],
      "name": "ERC20InsufficientAllowance",
      "type": "error"
    },
    {
      "inputs": [
        {
          "internalType": "address",
          "name": "sender",
          "type": "address"
        },
        {
          "internalType": "uint256",
          "name": "balance",
          "type": "uint256"
        },
        {
          "internalType": "uint256",
          "name": "needed",
          "type": "uint256"
        }
      ],
      "name": "ERC20InsufficientBalance",
      "type": "error"
    },
    {
      "inputs": [
        {
          "internalType": "address",
          "name": "approver",
          "type": "address"
        }
      ],
      "name": "ERC20InvalidApprover",
      "type": "error"
    },
    {
      "inputs": [
        {
          "internalType": "address",
          "name": "receiver",
          "type": "address"
        }
      ],
      "name": "ERC20InvalidReceiver",
      "type": "error"
    },
    {
      "inputs": [
        {
          "internalType": "address",
          "name": "sender",
          "type": "address"
        }
      ],
      "name": "ERC20InvalidSender",
      "type": "error"
    },
    {
      "inputs": [
        {
          "internalType": "address",
          "name": "spender",
          "type": "address"
        }
      ],
      "name": "ERC20InvalidSpender",
      "type": "error"
    },
    {
      "inputs": [
        {
          "internalType": "address",
          "name": "receiver",
          "type": "address"
        },
        {
          "internalType": "uint256",
          "name": "assets",
          "type": "uint256"
        },
        {
          "internalType": "uint256",
          "name": "max",
          "type": "uint256"
        }
      ],
      "name": "ERC4626ExceededMaxDeposit",
      "type": "error"
    },
    {
      "inputs": [
        {
          "internalType": "address",
          "name": "receiver",
          "type": "address"
        },
        {
          "internalType": "uint256",
          "name": "shares",
          "type": "uint256"
        },
        {
          "internalType": "uint256",
          "name": "max",
          "type": "uint256"
        }
      ],
      "name": "ERC4626ExceededMaxMint",
      "type": "error"
    },
    {
      "inputs": [
        {
          "internalType": "address",
          "name": "owner",
          "type": "address"
        },
        {
          "internalType": "uint256",
          "name": "shares",
          "type": "uint256"
        },
        {
          "internalType": "uint256",
          "name": "max",
          "type": "uint256"
        }
      ],
      "name": "ERC4626ExceededMaxRedeem",
      "type": "error"
    },
    {
      "inputs": [
        {
          "internalType": "address",
          "name": "owner",
          "type": "address"
        },
        {
          "internalType": "uint256",
          "name": "assets",
          "type": "uint256"
        },
        {
          "internalType": "uint256",
          "name": "max",
          "type": "uint256"
        }
      ],
      "name": "ERC4626ExceededMaxWithdraw",
      "type": "error"
    },
    {
      "inputs": [
        {
          "internalType": "address",
          "name": "token",
          "type": "address"
        }
      ],
      "name": "SafeERC20FailedOperation",
      "type": "error"
    },
    {
      "anonymous": false,
      "inputs": [
        {
          "indexed": true,
          "internalType": "address",
          "name": "owner",
          "type": "address"
        },
        {
          "indexed": true,
          "internalType": "address",
          "name": "spender",
          "type": "address"
        },
        {
          "indexed": false,
          "internalType": "uint256",
          "name": "value",
          "type": "uint256"
        }
      ],
      "name": "Approval",
      "type": "event"
    },
    {
      "anonymous": false,
      "inputs": [
        {
          "indexed": true,
          "internalType": "address",
          "name": "sender",
          "type": "address"
        },
        {
          "indexed": true,
          "internalType": "address",
          "name": "owner",
          "type": "address"
        },
        {
          "indexed": false,
          "internalType": "uint256",
          "name": "assets",
          "type": "uint256"
        },
        {
          "indexed": false,
          "internalType": "uint256",
          "name": "shares",
          "type": "uint256"
        }
      ],
      "name": "Deposit",
      "type": "event"
    },
    {
      "anonymous": false,
      "inputs": [
        {
          "indexed": true,
          "internalType": "address",
          "name": "from",
          "type": "address"
        },
        {
          "indexed": true,
          "internalType": "address",
          "name": "to",
          "type": "address"
        },
        {
          "indexed": false,
          "internalType": "uint256",
          "name": "value",
          "type": "uint256"
        }
      ],
      "name": "Transfer",
      "type": "event"
    },
    {
      "anonymous": false,
      "inputs": [
        {
          "indexed": true,
          "internalType": "address",
          "name": "sender",
          "type": "address"
        },
        {
          "indexed": true,
          "internalType": "address",
          "name": "receiver",
          "type": "address"
        },
        {
          "indexed": true,
          "internalType": "address",
          "name": "owner",
          "type": "address"
        },
        {
          "indexed": false,
          "internalType": "uint256",
          "name": "assets",
          "type": "uint256"
        },
        {
          "indexed": false,
          "internalType": "uint256",
          "name": "shares",
          "type": "uint256"
        }
      ],
      "name": "Withdraw",
      "type": "event"
    },
    {
      "inputs": [
        {
          "internalType": "address",
          "name": "owner",
          "type": "address"
        },
        {
          "internalType": "address",
          "name": "spender",
          "type": "address"
        },
        {
          "internalType": "uint256",
          "name": "value",
          "type": "uint256"
        },
        {
          "internalType": "bool",
          "name": "emitEvent",
          "type": "bool"
        }
      ],
      "name": "$_approve",
      "outputs": [],
      "stateMutability": "nonpayable",
      "type": "function"
    },
    {
      "inputs": [
        {
          "internalType": "address",
          "name": "owner",
          "type": "address"
        },
        {
          "internalType": "address",
          "name": "spender",
          "type": "address"
        },
        {
          "internalType": "uint256",
          "name": "value",
          "type": "uint256"
        }
      ],
      "name": "$_approve",
      "outputs": [],
      "stateMutability": "nonpayable",
      "type": "function"
    },
    {
      "inputs": [
        {
          "internalType": "address",
          "name": "account",
          "type": "address"
        },
        {
          "internalType": "uint256",
          "name": "value",
          "type": "uint256"
        }
      ],
      "name": "$_burn",
      "outputs": [],
      "stateMutability": "nonpayable",
      "type": "function"
    },
    {
      "inputs": [],
      "name": "$_contextSuffixLength",
      "outputs": [
        {
          "internalType": "uint256",
          "name": "ret0",
          "type": "uint256"
        }
      ],
      "stateMutability": "view",
      "type": "function"
    },
    {
      "inputs": [
        {
          "internalType": "uint256",
          "name": "shares",
          "type": "uint256"
        },
        {
          "internalType": "enum Math.Rounding",
          "name": "rounding",
          "type": "uint8"
        }
      ],
      "name": "$_convertToAssets",
      "outputs": [
        {
          "internalType": "uint256",
          "name": "ret0",
          "type": "uint256"
        }
      ],
      "stateMutability": "view",
      "type": "function"
    },
    {
      "inputs": [
        {
          "internalType": "uint256",
          "name": "assets",
          "type": "uint256"
        },
        {
          "internalType": "enum Math.Rounding",
          "name": "rounding",
          "type": "uint8"
        }
      ],
      "name": "$_convertToShares",
      "outputs": [
        {
          "internalType": "uint256",
          "name": "ret0",
          "type": "uint256"
        }
      ],
      "stateMutability": "view",
      "type": "function"
    },
    {
      "inputs": [],
      "name": "$_decimalsOffset",
      "outputs": [
        {
          "internalType": "uint8",
          "name": "ret0",
          "type": "uint8"
        }
      ],
      "stateMutability": "view",
      "type": "function"
    },
    {
      "inputs": [
        {
          "internalType": "address",
          "name": "caller",
          "type": "address"
        },
        {
          "internalType": "address",
          "name": "receiver",
          "type": "address"
        },
        {
          "internalType": "uint256",
          "name": "assets",
          "type": "uint256"
        },
        {
          "internalType": "uint256",
          "name": "shares",
          "type": "uint256"
        }
      ],
      "name": "$_deposit",
      "outputs": [],
      "stateMutability": "nonpayable",
      "type": "function"
    },
    {
      "inputs": [
        {
          "internalType": "address",
          "name": "account",
          "type": "address"
        },
        {
          "internalType": "uint256",
          "name": "value",
          "type": "uint256"
        }
      ],
      "name": "$_mint",
      "outputs": [],
      "stateMutability": "nonpayable",
      "type": "function"
    },
    {
      "inputs": [],
      "name": "$_msgData",
      "outputs": [
        {
          "internalType": "bytes",
          "name": "ret0",
          "type": "bytes"
        }
      ],
      "stateMutability": "view",
      "type": "function"
    },
    {
      "inputs": [],
      "name": "$_msgSender",
      "outputs": [
        {
          "internalType": "address",
          "name": "ret0",
          "type": "address"
        }
      ],
      "stateMutability": "view",
      "type": "function"
    },
    {
      "inputs": [
        {
          "internalType": "address",
          "name": "owner",
          "type": "address"
        },
        {
          "internalType": "address",
          "name": "spender",
          "type": "address"
        },
        {
          "internalType": "uint256",
          "name": "value",
          "type": "uint256"
        }
      ],
      "name": "$_spendAllowance",
      "outputs": [],
      "stateMutability": "nonpayable",
      "type": "function"
    },
    {
      "inputs": [
        {
          "internalType": "address",
          "name": "from",
          "type": "address"
        },
        {
          "internalType": "address",
          "name": "to",
          "type": "address"
        },
        {
          "internalType": "uint256",
          "name": "value",
          "type": "uint256"
        }
      ],
      "name": "$_transfer",
      "outputs": [],
      "stateMutability": "nonpayable",
      "type": "function"
    },
    {
      "inputs": [
        {
          "internalType": "address",
          "name": "from",
          "type": "address"
        },
        {
          "internalType": "address",
          "name": "to",
          "type": "address"
        },
        {
          "internalType": "uint256",
          "name": "value",
          "type": "uint256"
        }
      ],
      "name": "$_update",
      "outputs": [],
      "stateMutability": "nonpayable",
      "type": "function"
    },
    {
      "inputs": [
        {
          "internalType": "address",
          "name": "caller",
          "type": "address"
        },
        {
          "internalType": "address",
          "name": "receiver",
          "type": "address"
        },
        {
          "internalType": "address",
          "name": "owner",
          "type": "address"
        },
        {
          "internalType": "uint256",
          "name": "assets",
          "type": "uint256"
        },
        {
          "internalType": "uint256",
          "name": "shares",
          "type": "uint256"
        }
      ],
      "name": "$_withdraw",
      "outputs": [],
      "stateMutability": "nonpayable",
      "type": "function"
    },
    {
      "inputs": [],
      "name": "__hh_exposed_bytecode_marker",
      "outputs": [
        {
          "internalType": "bytes32",
          "name": "",
          "type": "bytes32"
        }
      ],
      "stateMutability": "view",
      "type": "function"
    },
    {
      "inputs": [
        {
          "internalType": "address",
          "name": "owner",
          "type": "address"
        },
        {
          "internalType": "address",
          "name": "spender",
          "type": "address"
        }
      ],
      "name": "allowance",
      "outputs": [
        {
          "internalType": "uint256",
          "name": "",
          "type": "uint256"
        }
      ],
      "stateMutability": "view",
      "type": "function"
    },
    {
      "inputs": [
        {
          "internalType": "address",
          "name": "spender",
          "type": "address"
        },
        {
          "internalType": "uint256",
          "name": "value",
          "type": "uint256"
        }
      ],
      "name": "approve",
      "outputs": [
        {
          "internalType": "bool",
          "name": "",
          "type": "bool"
        }
      ],
      "stateMutability": "nonpayable",
      "type": "function"
    },
    {
      "inputs": [],
      "name": "asset",
      "outputs": [
        {
          "internalType": "address",
          "name": "",
          "type": "address"
        }
      ],
      "stateMutability": "view",
      "type": "function"
    },
    {
      "inputs": [
        {
          "internalType": "address",
          "name": "account",
          "type": "address"
        }
      ],
      "name": "balanceOf",
      "outputs": [
        {
          "internalType": "uint256",
          "name": "",
          "type": "uint256"
        }
      ],
      "stateMutability": "view",
      "type": "function"
    },
    {
      "inputs": [
        {
          "internalType": "address",
          "name": "account",
          "type": "address"
        },
        {
          "internalType": "uint256",
          "name": "amount",
          "type": "uint256"
        }
      ],
      "name": "burn",
      "outputs": [],
      "stateMutability": "nonpayable",
      "type": "function"
    },
    {
      "inputs": [
        {
          "internalType": "uint256",
          "name": "shares",
          "type": "uint256"
        }
      ],
      "name": "convertToAssets",
      "outputs": [
        {
          "internalType": "uint256",
          "name": "",
          "type": "uint256"
        }
      ],
      "stateMutability": "view",
      "type": "function"
    },
    {
      "inputs": [
        {
          "internalType": "uint256",
          "name": "assets",
          "type": "uint256"
        }
      ],
      "name": "convertToShares",
      "outputs": [
        {
          "internalType": "uint256",
          "name": "",
          "type": "uint256"
        }
      ],
      "stateMutability": "view",
      "type": "function"
    },
    {
      "inputs": [],
      "name": "decimals",
      "outputs": [
        {
          "internalType": "uint8",
          "name": "",
          "type": "uint8"
        }
      ],
      "stateMutability": "view",
      "type": "function"
    },
    {
      "inputs": [
        {
          "internalType": "uint256",
          "name": "assets",
          "type": "uint256"
        },
        {
          "internalType": "address",
          "name": "receiver",
          "type": "address"
        }
      ],
      "name": "deposit",
      "outputs": [
        {
          "internalType": "uint256",
          "name": "",
          "type": "uint256"
        }
      ],
      "stateMutability": "nonpayable",
      "type": "function"
    },
    {
      "inputs": [
        {
          "internalType": "address",
          "name": "",
          "type": "address"
        }
      ],
      "name": "maxDeposit",
      "outputs": [
        {
          "internalType": "uint256",
          "name": "",
          "type": "uint256"
        }
      ],
      "stateMutability": "view",
      "type": "function"
    },
    {
      "inputs": [
        {
          "internalType": "address",
          "name": "",
          "type": "address"
        }
      ],
      "name": "maxMint",
      "outputs": [
        {
          "internalType": "uint256",
          "name": "",
          "type": "uint256"
        }
      ],
      "stateMutability": "view",
      "type": "function"
    },
    {
      "inputs": [
        {
          "internalType": "address",
          "name": "owner",
          "type": "address"
        }
      ],
      "name": "maxRedeem",
      "outputs": [
        {
          "internalType": "uint256",
          "name": "",
          "type": "uint256"
        }
      ],
      "stateMutability": "view",
      "type": "function"
    },
    {
      "inputs": [
        {
          "internalType": "address",
          "name": "owner",
          "type": "address"
        }
      ],
      "name": "maxWithdraw",
      "outputs": [
        {
          "internalType": "uint256",
          "name": "",
          "type": "uint256"
        }
      ],
      "stateMutability": "view",
      "type": "function"
    },
    {
      "inputs": [
        {
          "internalType": "address",
          "name": "account",
          "type": "address"
        },
        {
          "internalType": "uint256",
          "name": "amount",
          "type": "uint256"
        }
      ],
      "name": "mint",
      "outputs": [],
      "stateMutability": "nonpayable",
      "type": "function"
    },
    {
      "inputs": [
        {
          "internalType": "uint256",
          "name": "shares",
          "type": "uint256"
        },
        {
          "internalType": "address",
          "name": "receiver",
          "type": "address"
        }
      ],
      "name": "mint",
      "outputs": [
        {
          "internalType": "uint256",
          "name": "",
          "type": "uint256"
        }
      ],
      "stateMutability": "nonpayable",
      "type": "function"
    },
    {
      "inputs": [],
      "name": "name",
      "outputs": [
        {
          "internalType": "string",
          "name": "",
          "type": "string"
        }
      ],
      "stateMutability": "view",
      "type": "function"
    },
    {
      "inputs": [
        {
          "internalType": "uint256",
          "name": "assets",
          "type": "uint256"
        }
      ],
      "name": "previewDeposit",
      "outputs": [
        {
          "internalType": "uint256",
          "name": "",
          "type": "uint256"
        }
      ],
      "stateMutability": "view",
      "type": "function"
    },
    {
      "inputs": [
        {
          "internalType": "uint256",
          "name": "shares",
          "type": "uint256"
        }
      ],
      "name": "previewMint",
      "outputs": [
        {
          "internalType": "uint256",
          "name": "",
          "type": "uint256"
        }
      ],
      "stateMutability": "view",
      "type": "function"
    },
    {
      "inputs": [
        {
          "internalType": "uint256",
          "name": "shares",
          "type": "uint256"
        }
      ],
      "name": "previewRedeem",
      "outputs": [
        {
          "internalType": "uint256",
          "name": "",
          "type": "uint256"
        }
      ],
      "stateMutability": "view",
      "type": "function"
    },
    {
      "inputs": [
        {
          "internalType": "uint256",
          "name": "assets",
          "type": "uint256"
        }
      ],
      "name": "previewWithdraw",
      "outputs": [
        {
          "internalType": "uint256",
          "name": "",
          "type": "uint256"
        }
      ],
      "stateMutability": "view",
      "type": "function"
    },
    {
      "inputs": [
        {
          "internalType": "uint256",
          "name": "shares",
          "type": "uint256"
        },
        {
          "internalType": "address",
          "name": "receiver",
          "type": "address"
        },
        {
          "internalType": "address",
          "name": "owner",
          "type": "address"
        }
      ],
      "name": "redeem",
      "outputs": [
        {
          "internalType": "uint256",
          "name": "",
          "type": "uint256"
        }
      ],
      "stateMutability": "nonpayable",
      "type": "function"
    },
    {
      "inputs": [],
      "name": "symbol",
      "outputs": [
        {
          "internalType": "string",
          "name": "",
          "type": "string"
        }
      ],
      "stateMutability": "view",
      "type": "function"
    },
    {
      "inputs": [],
      "name": "totalAssets",
      "outputs": [
        {
          "internalType": "uint256",
          "name": "",
          "type": "uint256"
        }
      ],
      "stateMutability": "view",
      "type": "function"
    },
    {
      "inputs": [],
      "name": "totalSupply",
      "outputs": [
        {
          "internalType": "uint256",
          "name": "",
          "type": "uint256"
        }
      ],
      "stateMutability": "view",
      "type": "function"
    },
    {
      "inputs": [
        {
          "internalType": "address",
          "name": "to",
          "type": "address"
        },
        {
          "internalType": "uint256",
          "name": "value",
          "type": "uint256"
        }
      ],
      "name": "transfer",
      "outputs": [
        {
          "internalType": "bool",
          "name": "",
          "type": "bool"
        }
      ],
      "stateMutability": "nonpayable",
      "type": "function"
    },
    {
      "inputs": [
        {
          "internalType": "address",
          "name": "from",
          "type": "address"
        },
        {
          "internalType": "address",
          "name": "to",
          "type": "address"
        },
        {
          "internalType": "uint256",
          "name": "value",
          "type": "uint256"
        }
      ],
      "name": "transferFrom",
      "outputs": [
        {
          "internalType": "bool",
          "name": "",
          "type": "bool"
        }
      ],
      "stateMutability": "nonpayable",
      "type": "function"
    },
    {
      "inputs": [
        {
          "internalType": "uint256",
          "name": "assets",
          "type": "uint256"
        },
        {
          "internalType": "address",
          "name": "receiver",
          "type": "address"
        },
        {
          "internalType": "address",
          "name": "owner",
          "type": "address"
        }
      ],
      "name": "withdraw",
      "outputs": [
        {
          "internalType": "uint256",
          "name": "",
          "type": "uint256"
        }
      ],
      "stateMutability": "nonpayable",
      "type": "function"
    },
    {
      "stateMutability": "payable",
      "type": "receive"
    }
  ],
  "bytecode": "0x60c060405260405162001a8d38038062001a8d8339810160408190526200002691620001b1565b80806040518060400160405280600b81526020016a455243343632364d6f636b60a81b8152506040518060400160405280600681526020016545343632364d60d01b81525081600390816200007c91906200027e565b5060046200008b82826200027e565b5050505f80620000a183620000d260201b60201c565b9150915081620000b3576012620000b5565b805b60ff1660a05250506001600160a01b031660805250620003909050565b60408051600481526024810182526020810180516001600160e01b031663313ce56760e01b17905290515f918291829182916001600160a01b038716916200011a916200034a565b5f60405180830381855afa9150503d805f811462000154576040519150601f19603f3d011682016040523d82523d5f602084013e62000159565b606091505b50915091508180156200016e57506020815110155b15620001a5575f818060200190518101906200018b919062000378565b905060ff8111620001a3576001969095509350505050565b505b505f9485945092505050565b5f60208284031215620001c2575f80fd5b81516001600160a01b0381168114620001d9575f80fd5b9392505050565b634e487b7160e01b5f52604160045260245ffd5b600181811c908216806200020957607f821691505b6020821081036200022857634e487b7160e01b5f52602260045260245ffd5b50919050565b601f8211156200027957805f5260205f20601f840160051c81016020851015620002555750805b601f840160051c820191505b8181101562000276575f815560010162000261565b50505b505050565b81516001600160401b038111156200029a576200029a620001e0565b620002b281620002ab8454620001f4565b846200022e565b602080601f831160018114620002e8575f8415620002d05750858301515b5f19600386901b1c1916600185901b17855562000342565b5f85815260208120601f198616915b828110156200031857888601518255948401946001909101908401620002f7565b50858210156200033657878501515f19600388901b60f8161c191681555b505060018460011b0185555b505050505050565b5f82515f5b818110156200036b57602081860181015185830152016200034f565b505f920191825250919050565b5f6020828403121562000389575f80fd5b5051919050565b60805160a0516116c6620003c75f395f6108be01525f81816103fe0152818161074201528181610e540152610f0601526116c65ff3fe608060405260043610610257575f3560e01c8063861e3d3d1161013f578063c63d75b6116100b3578063d905777e11610078578063d905777e146106ab578063dd62ed3e146106ca578063e047838d14610594578063ef4f78d11461070e578063ef8b30f71461064e578063efb43b0714610720575f80fd5b8063c63d75b614610422578063c6e6f5921461064e578063ca10eca01461066d578063cc461d6214610442578063ce96cb771461068c575f80fd5b80639dc29fac116101045780639dc29fac14610594578063a9059cbb146105b3578063b2331d7d146105d2578063b3d7f6b9146105f1578063b460af9414610610578063ba0876521461062f575f80fd5b8063861e3d3d146105045780638b4e914a1461052357806394bf804d1461054257806395d89b41146105615780639c0b90c714610575575f80fd5b806332cadf3c116101d65780634cdad5061161019b5780634cdad506146102aa57806367354a84146104615780636855a178146104735780636e553f651461049257806370a08231146104b157806383b95579146104e5575f80fd5b806332cadf3c146103b7578063342db739146103cb57806338d52e0f146103f0578063402d267d1461042257806340c10f1914610442575f80fd5b806318160ddd1161021c57806318160ddd1461031757806323b872dd1461032b5780632904df291461034a578063313ce5671461037057806332bc74aa14610396575f80fd5b806301e1d1141461026257806306fdde031461028957806307a2d13a146102aa578063095ea7b3146102c95780630a28a477146102f8575f80fd5b3661025e57005b5f80fd5b34801561026d575f80fd5b5061027661073f565b6040519081526020015b60405180910390f35b348015610294575f80fd5b5061029d6107ce565b6040516102809190611243565b3480156102b5575f80fd5b506102766102c4366004611255565b61085e565b3480156102d4575f80fd5b506102e86102e3366004611287565b61086f565b6040519015158152602001610280565b348015610303575f80fd5b50610276610312366004611255565b610886565b348015610322575f80fd5b50600254610276565b348015610336575f80fd5b506102e86103453660046112af565b610892565b348015610355575f80fd5b50335b6040516001600160a01b039091168152602001610280565b34801561037b575f80fd5b506103846108b7565b60405160ff9091168152602001610280565b3480156103a1575f80fd5b506103b56103b03660046112e8565b6108e2565b005b3480156103c2575f80fd5b5061029d6108f4565b3480156103d6575f80fd5b506102766e1a185c991a185d0b595e1c1bdcd959608a1b81565b3480156103fb575f80fd5b507f0000000000000000000000000000000000000000000000000000000000000000610358565b34801561042d575f80fd5b5061027661043c366004611338565b505f1990565b34801561044d575f80fd5b506103b561045c366004611287565b610931565b34801561046c575f80fd5b505f610276565b34801561047e575f80fd5b506103b561048d3660046112af565b61093f565b34801561049d575f80fd5b506102766104ac366004611351565b61094f565b3480156104bc575f80fd5b506102766104cb366004611338565b6001600160a01b03165f9081526020819052604090205490565b3480156104f0575f80fd5b506103b56104ff36600461137b565b610980565b34801561050f575f80fd5b506103b561051e3660046112af565b610994565b34801561052e575f80fd5b5061027661053d3660046113cc565b61099f565b34801561054d575f80fd5b5061027661055c366004611351565b6109aa565b34801561056c575f80fd5b5061029d6109c5565b348015610580575f80fd5b506103b561058f3660046113fd565b6109d4565b34801561059f575f80fd5b506103b56105ae366004611287565b6109e0565b3480156105be575f80fd5b506102e86105cd366004611287565b6109ea565b3480156105dd575f80fd5b506103b56105ec3660046112af565b6109f7565b3480156105fc575f80fd5b5061027661060b366004611255565b610a02565b34801561061b575f80fd5b5061027661062a36600461143c565b610a0e565b34801561063a575f80fd5b5061027661064936600461143c565b610a64565b348015610659575f80fd5b50610276610668366004611255565b610ab1565b348015610678575f80fd5b506102766106873660046113cc565b610abc565b348015610697575f80fd5b506102766106a6366004611338565b610ac7565b3480156106b6575f80fd5b506102766106c5366004611338565b610ae9565b3480156106d5575f80fd5b506102766106e4366004611475565b6001600160a01b039182165f90815260016020908152604080832093909416825291909152205490565b348015610719575f80fd5b505f610384565b34801561072b575f80fd5b506103b561073a3660046112af565b610b06565b5f7f00000000000000000000000000000000000000000000000000000000000000006040516370a0823160e01b81523060048201526001600160a01b0391909116906370a0823190602401602060405180830381865afa1580156107a5573d5f803e3d5ffd5b505050506040513d601f19601f820116820180604052508101906107c9919061149d565b905090565b6060600380546107dd906114b4565b80601f0160208091040260200160405190810160405280929190818152602001828054610809906114b4565b80156108545780601f1061082b57610100808354040283529160200191610854565b820191905f5260205f20905b81548152906001019060200180831161083757829003601f168201915b5050505050905090565b5f610869825f610b11565b92915050565b5f3361087c818585610b49565b5060019392505050565b5f610869826001610b56565b5f3361089f858285610b85565b6108aa858585610be8565b60019150505b9392505050565b5f6107c9817f0000000000000000000000000000000000000000000000000000000000000000611500565b6108ee84848484610c3a565b50505050565b60605f368080601f0160208091040260200160405190810160405280939291908181526020018383808284375f9201919091525092949350505050565b61093b8282610d0c565b5050565b61094a838383610d3c565b505050565b5f5f19610960565b60405180910390fd5b5f61096a85610ab1565b905061097833858784610e4f565b949350505050565b61098d8585858585610ed3565b5050505050565b61094a838383610b49565b5f6108b08383610b56565b5f5f195f6109b785610a02565b905061097833858388610e4f565b6060600480546107dd906114b4565b6108ee84848484610e4f565b61093b8282610f93565b5f3361087c818585610be8565b61094a838383610b85565b5f610869826001610b11565b5f80610a1983610ac7565b905080851115610a4257828582604051633fa733bb60e21b815260040161095793929190611519565b5f610a4c86610886565b9050610a5b3386868985610ed3565b95945050505050565b5f80610a6f83610ae9565b905080851115610a9857828582604051632e52afbb60e21b815260040161095793929190611519565b5f610aa28661085e565b9050610a5b338686848a610ed3565b5f610869825f610b56565b5f6108b08383610b11565b6001600160a01b0381165f90815260208190526040812054610869905f610b11565b6001600160a01b0381165f90815260208190526040812054610869565b61094a838383610be8565b5f6108b0610b1d61073f565b610b2890600161153a565b610b335f600a61162d565b600254610b40919061153a565b85919085610fc7565b61094a8383836001610c3a565b5f6108b0610b6582600a61162d565b600254610b72919061153a565b610b7a61073f565b610b4090600161153a565b6001600160a01b038381165f908152600160209081526040808320938616835292905220545f198110156108ee5781811015610bda57828183604051637dc7a0d960e11b815260040161095793929190611519565b6108ee84848484035f610c3a565b6001600160a01b038316610c1157604051634b637e8f60e11b81525f6004820152602401610957565b6001600160a01b03821661093f5760405163ec442f0560e01b81525f6004820152602401610957565b6001600160a01b038416610c635760405163e602df0560e01b81525f6004820152602401610957565b6001600160a01b038316610c8c57604051634a1406b160e11b81525f6004820152602401610957565b6001600160a01b038085165f90815260016020908152604080832093871683529290522082905580156108ee57826001600160a01b0316846001600160a01b03167f8c5be1e5ebec7d5bd14f71427d1e84f3dd0314c0f7b2291e5b200ac8c7c3b92584604051610cfe91815260200190565b60405180910390a350505050565b6001600160a01b038216610d355760405163ec442f0560e01b81525f6004820152602401610957565b61093b5f83835b6001600160a01b038316610d66578060025f828254610d5b919061153a565b90915550610dc39050565b6001600160a01b0383165f9081526020819052604090205481811015610da55783818360405163391434e360e21b815260040161095793929190611519565b6001600160a01b0384165f9081526020819052604090209082900390555b6001600160a01b038216610ddf57600280548290039055610dfd565b6001600160a01b0382165f9081526020819052604090208054820190555b816001600160a01b0316836001600160a01b03167fddf252ad1be2c89b69c2b068fc378daa952ba7f163c4a11628f55a4df523b3ef83604051610e4291815260200190565b60405180910390a3505050565b610e7b7f0000000000000000000000000000000000000000000000000000000000000000853085611009565b610e858382610d0c565b826001600160a01b0316846001600160a01b03167fdcbc1c05240f31ff3ad067ef1ee35ce4997762752e3a095284754544f4c709d78484604051610cfe929190918252602082015260400190565b826001600160a01b0316856001600160a01b031614610ef757610ef7838683610b85565b610f018382610f93565b610f2c7f00000000000000000000000000000000000000000000000000000000000000008584611070565b826001600160a01b0316846001600160a01b0316866001600160a01b03167ffbde797d201c681b91056529119e0b02407c7bb96a4a2c75c01fc9667232c8db8585604051610f84929190918252602082015260400190565b60405180910390a45050505050565b6001600160a01b038216610fbc57604051634b637e8f60e11b81525f6004820152602401610957565b61093b825f83610d3c565b5f610ff4610fd4836110a1565b8015610fef57505f8480610fea57610fea61163b565b868809115b151590565b610fff8686866110cd565b610a5b919061153a565b6040516001600160a01b0384811660248301528381166044830152606482018390526108ee9186918216906323b872dd906084015b604051602081830303815290604052915060e01b6020820180516001600160e01b038381831617835250505050611183565b6040516001600160a01b0383811660248301526044820183905261094a91859182169063a9059cbb9060640161103e565b5f60028260038111156110b6576110b661164f565b6110c09190611663565b60ff166001149050919050565b5f838302815f1985870982811083820303915050805f03611101578382816110f7576110f761163b565b04925050506108b0565b8084116111185761111860038515026011186111ef565b5f848688095f868103871696879004966002600389028118808a02820302808a02820302808a02820302808a02820302808a02820302808a02909103029181900381900460010186841190950394909402919094039290920491909117919091029150509392505050565b5f8060205f8451602086015f885af1806111a2576040513d5f823e3d81fd5b50505f513d915081156111b95780600114156111c6565b6001600160a01b0384163b155b156108ee57604051635274afe760e01b81526001600160a01b0385166004820152602401610957565b634e487b715f52806020526024601cfd5b5f81518084525f5b8181101561122457602081850181015186830182015201611208565b505f602082860101526020601f19601f83011685010191505092915050565b602081525f6108b06020830184611200565b5f60208284031215611265575f80fd5b5035919050565b80356001600160a01b0381168114611282575f80fd5b919050565b5f8060408385031215611298575f80fd5b6112a18361126c565b946020939093013593505050565b5f805f606084860312156112c1575f80fd5b6112ca8461126c565b92506112d86020850161126c565b9150604084013590509250925092565b5f805f80608085870312156112fb575f80fd5b6113048561126c565b93506113126020860161126c565b9250604085013591506060850135801515811461132d575f80fd5b939692955090935050565b5f60208284031215611348575f80fd5b6108b08261126c565b5f8060408385031215611362575f80fd5b823591506113726020840161126c565b90509250929050565b5f805f805f60a0868803121561138f575f80fd5b6113988661126c565b94506113a66020870161126c565b93506113b46040870161126c565b94979396509394606081013594506080013592915050565b5f80604083850312156113dd575f80fd5b823591506020830135600481106113f2575f80fd5b809150509250929050565b5f805f8060808587031215611410575f80fd5b6114198561126c565b93506114276020860161126c565b93969395505050506040820135916060013590565b5f805f6060848603121561144e575f80fd5b8335925061145e6020850161126c565b915061146c6040850161126c565b90509250925092565b5f8060408385031215611486575f80fd5b61148f8361126c565b91506113726020840161126c565b5f602082840312156114ad575f80fd5b5051919050565b600181811c908216806114c857607f821691505b6020821081036114e657634e487b7160e01b5f52602260045260245ffd5b50919050565b634e487b7160e01b5f52601160045260245ffd5b60ff8181168382160190811115610869576108696114ec565b6001600160a01b039390931683526020830191909152604082015260600190565b80820180821115610869576108696114ec565b600181815b8085111561158757815f190482111561156d5761156d6114ec565b8085161561157a57918102915b93841c9390800290611552565b509250929050565b5f8261159d57506001610869565b816115a957505f610869565b81600181146115bf57600281146115c9576115e5565b6001915050610869565b60ff8411156115da576115da6114ec565b50506001821b610869565b5060208310610133831016604e8410600b8410161715611608575081810a610869565b611612838361154d565b805f1904821115611625576116256114ec565b029392505050565b5f6108b060ff84168361158f565b634e487b7160e01b5f52601260045260245ffd5b634e487b7160e01b5f52602160045260245ffd5b5f60ff83168061168157634e487b7160e01b5f52601260045260245ffd5b8060ff8416069150509291505056fea26469706673582212203ce9ff5969bc3f04b581685f239910071caa548a129a600abf890bbf05a4176d64736f6c63430008180033",
  "linkReferences": {},
  "deployedLinkReferences": {}
}