{
  "_format": "hh-sol-artifact-1",
  "contractName": "ERC4626Mock",
  "sourceName": "contracts/mocks/token/ERC4626Mock.sol",
  "abi": [
    {
      "inputs": [
        {
          "internalType": "address",
          "name": "underlying",
          "type": "address"
        }
      ],
      "stateMutability": "nonpayable",
      "type": "constructor"
    },
    {
      "inputs": [
        {
          "internalType": "address",
          "name": "spender",
          "type": "address"
        },
        {
          "internalType": "uint256",
          "name": "allowance",
          "type": "uint256"
        },
        {
          "internalType": "uint256",
          "name": "needed",
          "type": "uint256"
        }
      ],
      "name": "ERC20InsufficientAllowance",
      "type": "error"
    },
    {
      "inputs": [
        {
          "internalType": "address",
          "name": "sender",
          "type": "address"
        },
        {
          "internalType": "uint256",
          "name": "balance",
          "type": "uint256"
        },
        {
          "internalType": "uint256",
          "name": "needed",
          "type": "uint256"
        }
      ],
      "name": "ERC20InsufficientBalance",
      "type": "error"
    },
    {
      "inputs": [
        {
          "internalType": "address",
          "name": "approver",
          "type": "address"
        }
      ],
      "name": "ERC20InvalidApprover",
      "type": "error"
    },
    {
      "inputs": [
        {
          "internalType": "address",
          "name": "receiver",
          "type": "address"
        }
      ],
      "name": "ERC20InvalidReceiver",
      "type": "error"
    },
    {
      "inputs": [
        {
          "internalType": "address",
          "name": "sender",
          "type": "address"
        }
      ],
      "name": "ERC20InvalidSender",
      "type": "error"
    },
    {
      "inputs": [
        {
          "internalType": "address",
          "name": "spender",
          "type": "address"
        }
      ],
      "name": "ERC20InvalidSpender",
      "type": "error"
    },
    {
      "inputs": [
        {
          "internalType": "address",
          "name": "receiver",
          "type": "address"
        },
        {
          "internalType": "uint256",
          "name": "assets",
          "type": "uint256"
        },
        {
          "internalType": "uint256",
          "name": "max",
          "type": "uint256"
        }
      ],
      "name": "ERC4626ExceededMaxDeposit",
      "type": "error"
    },
    {
      "inputs": [
        {
          "internalType": "address",
          "name": "receiver",
          "type": "address"
        },
        {
          "internalType": "uint256",
          "name": "shares",
          "type": "uint256"
        },
        {
          "internalType": "uint256",
          "name": "max",
          "type": "uint256"
        }
      ],
      "name": "ERC4626ExceededMaxMint",
      "type": "error"
    },
    {
      "inputs": [
        {
          "internalType": "address",
          "name": "owner",
          "type": "address"
        },
        {
          "internalType": "uint256",
          "name": "shares",
          "type": "uint256"
        },
        {
          "internalType": "uint256",
          "name": "max",
          "type": "uint256"
        }
      ],
      "name": "ERC4626ExceededMaxRedeem",
      "type": "error"
    },
    {
      "inputs": [
        {
          "internalType": "address",
          "name": "owner",
          "type": "address"
        },
        {
          "internalType": "uint256",
          "name": "assets",
          "type": "uint256"
        },
        {
          "internalType": "uint256",
          "name": "max",
          "type": "uint256"
        }
      ],
      "name": "ERC4626ExceededMaxWithdraw",
      "type": "error"
    },
    {
      "inputs": [
        {
          "internalType": "address",
          "name": "token",
          "type": "address"
        }
      ],
      "name": "SafeERC20FailedOperation",
      "type": "error"
    },
    {
      "anonymous": false,
      "inputs": [
        {
          "indexed": true,
          "internalType": "address",
          "name": "owner",
          "type": "address"
        },
        {
          "indexed": true,
          "internalType": "address",
          "name": "spender",
          "type": "address"
        },
        {
          "indexed": false,
          "internalType": "uint256",
          "name": "value",
          "type": "uint256"
        }
      ],
      "name": "Approval",
      "type": "event"
    },
    {
      "anonymous": false,
      "inputs": [
        {
          "indexed": true,
          "internalType": "address",
          "name": "sender",
          "type": "address"
        },
        {
          "indexed": true,
          "internalType": "address",
          "name": "owner",
          "type": "address"
        },
        {
          "indexed": false,
          "internalType": "uint256",
          "name": "assets",
          "type": "uint256"
        },
        {
          "indexed": false,
          "internalType": "uint256",
          "name": "shares",
          "type": "uint256"
        }
      ],
      "name": "Deposit",
      "type": "event"
    },
    {
      "anonymous": false,
      "inputs": [
        {
          "indexed": true,
          "internalType": "address",
          "name": "from",
          "type": "address"
        },
        {
          "indexed": true,
          "internalType": "address",
          "name": "to",
          "type": "address"
        },
        {
          "indexed": false,
          "internalType": "uint256",
          "name": "value",
          "type": "uint256"
        }
      ],
      "name": "Transfer",
      "type": "event"
    },
    {
      "anonymous": false,
      "inputs": [
        {
          "indexed": true,
          "internalType": "address",
          "name": "sender",
          "type": "address"
        },
        {
          "indexed": true,
          "internalType": "address",
          "name": "receiver",
          "type": "address"
        },
        {
          "indexed": true,
          "internalType": "address",
          "name": "owner",
          "type": "address"
        },
        {
          "indexed": false,
          "internalType": "uint256",
          "name": "assets",
          "type": "uint256"
        },
        {
          "indexed": false,
          "internalType": "uint256",
          "name": "shares",
          "type": "uint256"
        }
      ],
      "name": "Withdraw",
      "type": "event"
    },
    {
      "inputs": [
        {
          "internalType": "address",
          "name": "owner",
          "type": "address"
        },
        {
          "internalType": "address",
          "name": "spender",
          "type": "address"
        }
      ],
      "name": "allowance",
      "outputs": [
        {
          "internalType": "uint256",
          "name": "",
          "type": "uint256"
        }
      ],
      "stateMutability": "view",
      "type": "function"
    },
    {
      "inputs": [
        {
          "internalType": "address",
          "name": "spender",
          "type": "address"
        },
        {
          "internalType": "uint256",
          "name": "value",
          "type": "uint256"
        }
      ],
      "name": "approve",
      "outputs": [
        {
          "internalType": "bool",
          "name": "",
          "type": "bool"
        }
      ],
      "stateMutability": "nonpayable",
      "type": "function"
    },
    {
      "inputs": [],
      "name": "asset",
      "outputs": [
        {
          "internalType": "address",
          "name": "",
          "type": "address"
        }
      ],
      "stateMutability": "view",
      "type": "function"
    },
    {
      "inputs": [
        {
          "internalType": "address",
          "name": "account",
          "type": "address"
        }
      ],
      "name": "balanceOf",
      "outputs": [
        {
          "internalType": "uint256",
          "name": "",
          "type": "uint256"
        }
      ],
      "stateMutability": "view",
      "type": "function"
    },
    {
      "inputs": [
        {
          "internalType": "address",
          "name": "account",
          "type": "address"
        },
        {
          "internalType": "uint256",
          "name": "amount",
          "type": "uint256"
        }
      ],
      "name": "burn",
      "outputs": [],
      "stateMutability": "nonpayable",
      "type": "function"
    },
    {
      "inputs": [
        {
          "internalType": "uint256",
          "name": "shares",
          "type": "uint256"
        }
      ],
      "name": "convertToAssets",
      "outputs": [
        {
          "internalType": "uint256",
          "name": "",
          "type": "uint256"
        }
      ],
      "stateMutability": "view",
      "type": "function"
    },
    {
      "inputs": [
        {
          "internalType": "uint256",
          "name": "assets",
          "type": "uint256"
        }
      ],
      "name": "convertToShares",
      "outputs": [
        {
          "internalType": "uint256",
          "name": "",
          "type": "uint256"
        }
      ],
      "stateMutability": "view",
      "type": "function"
    },
    {
      "inputs": [],
      "name": "decimals",
      "outputs": [
        {
          "internalType": "uint8",
          "name": "",
          "type": "uint8"
        }
      ],
      "stateMutability": "view",
      "type": "function"
    },
    {
      "inputs": [
        {
          "internalType": "uint256",
          "name": "assets",
          "type": "uint256"
        },
        {
          "internalType": "address",
          "name": "receiver",
          "type": "address"
        }
      ],
      "name": "deposit",
      "outputs": [
        {
          "internalType": "uint256",
          "name": "",
          "type": "uint256"
        }
      ],
      "stateMutability": "nonpayable",
      "type": "function"
    },
    {
      "inputs": [
        {
          "internalType": "address",
          "name": "",
          "type": "address"
        }
      ],
      "name": "maxDeposit",
      "outputs": [
        {
          "internalType": "uint256",
          "name": "",
          "type": "uint256"
        }
      ],
      "stateMutability": "view",
      "type": "function"
    },
    {
      "inputs": [
        {
          "internalType": "address",
          "name": "",
          "type": "address"
        }
      ],
      "name": "maxMint",
      "outputs": [
        {
          "internalType": "uint256",
          "name": "",
          "type": "uint256"
        }
      ],
      "stateMutability": "view",
      "type": "function"
    },
    {
      "inputs": [
        {
          "internalType": "address",
          "name": "owner",
          "type": "address"
        }
      ],
      "name": "maxRedeem",
      "outputs": [
        {
          "internalType": "uint256",
          "name": "",
          "type": "uint256"
        }
      ],
      "stateMutability": "view",
      "type": "function"
    },
    {
      "inputs": [
        {
          "internalType": "address",
          "name": "owner",
          "type": "address"
        }
      ],
      "name": "maxWithdraw",
      "outputs": [
        {
          "internalType": "uint256",
          "name": "",
          "type": "uint256"
        }
      ],
      "stateMutability": "view",
      "type": "function"
    },
    {
      "inputs": [
        {
          "internalType": "address",
          "name": "account",
          "type": "address"
        },
        {
          "internalType": "uint256",
          "name": "amount",
          "type": "uint256"
        }
      ],
      "name": "mint",
      "outputs": [],
      "stateMutability": "nonpayable",
      "type": "function"
    },
    {
      "inputs": [
        {
          "internalType": "uint256",
          "name": "shares",
          "type": "uint256"
        },
        {
          "internalType": "address",
          "name": "receiver",
          "type": "address"
        }
      ],
      "name": "mint",
      "outputs": [
        {
          "internalType": "uint256",
          "name": "",
          "type": "uint256"
        }
      ],
      "stateMutability": "nonpayable",
      "type": "function"
    },
    {
      "inputs": [],
      "name": "name",
      "outputs": [
        {
          "internalType": "string",
          "name": "",
          "type": "string"
        }
      ],
      "stateMutability": "view",
      "type": "function"
    },
    {
      "inputs": [
        {
          "internalType": "uint256",
          "name": "assets",
          "type": "uint256"
        }
      ],
      "name": "previewDeposit",
      "outputs": [
        {
          "internalType": "uint256",
          "name": "",
          "type": "uint256"
        }
      ],
      "stateMutability": "view",
      "type": "function"
    },
    {
      "inputs": [
        {
          "internalType": "uint256",
          "name": "shares",
          "type": "uint256"
        }
      ],
      "name": "previewMint",
      "outputs": [
        {
          "internalType": "uint256",
          "name": "",
          "type": "uint256"
        }
      ],
      "stateMutability": "view",
      "type": "function"
    },
    {
      "inputs": [
        {
          "internalType": "uint256",
          "name": "shares",
          "type": "uint256"
        }
      ],
      "name": "previewRedeem",
      "outputs": [
        {
          "internalType": "uint256",
          "name": "",
          "type": "uint256"
        }
      ],
      "stateMutability": "view",
      "type": "function"
    },
    {
      "inputs": [
        {
          "internalType": "uint256",
          "name": "assets",
          "type": "uint256"
        }
      ],
      "name": "previewWithdraw",
      "outputs": [
        {
          "internalType": "uint256",
          "name": "",
          "type": "uint256"
        }
      ],
      "stateMutability": "view",
      "type": "function"
    },
    {
      "inputs": [
        {
          "internalType": "uint256",
          "name": "shares",
          "type": "uint256"
        },
        {
          "internalType": "address",
          "name": "receiver",
          "type": "address"
        },
        {
          "internalType": "address",
          "name": "owner",
          "type": "address"
        }
      ],
      "name": "redeem",
      "outputs": [
        {
          "internalType": "uint256",
          "name": "",
          "type": "uint256"
        }
      ],
      "stateMutability": "nonpayable",
      "type": "function"
    },
    {
      "inputs": [],
      "name": "symbol",
      "outputs": [
        {
          "internalType": "string",
          "name": "",
          "type": "string"
        }
      ],
      "stateMutability": "view",
      "type": "function"
    },
    {
      "inputs": [],
      "name": "totalAssets",
      "outputs": [
        {
          "internalType": "uint256",
          "name": "",
          "type": "uint256"
        }
      ],
      "stateMutability": "view",
      "type": "function"
    },
    {
      "inputs": [],
      "name": "totalSupply",
      "outputs": [
        {
          "internalType": "uint256",
          "name": "",
          "type": "uint256"
        }
      ],
      "stateMutability": "view",
      "type": "function"
    },
    {
      "inputs": [
        {
          "internalType": "address",
          "name": "to",
          "type": "address"
        },
        {
          "internalType": "uint256",
          "name": "value",
          "type": "uint256"
        }
      ],
      "name": "transfer",
      "outputs": [
        {
          "internalType": "bool",
          "name": "",
          "type": "bool"
        }
      ],
      "stateMutability": "nonpayable",
      "type": "function"
    },
    {
      "inputs": [
        {
          "internalType": "address",
          "name": "from",
          "type": "address"
        },
        {
          "internalType": "address",
          "name": "to",
          "type": "address"
        },
        {
          "internalType": "uint256",
          "name": "value",
          "type": "uint256"
        }
      ],
      "name": "transferFrom",
      "outputs": [
        {
          "internalType": "bool",
          "name": "",
          "type": "bool"
        }
      ],
      "stateMutability": "nonpayable",
      "type": "function"
    },
    {
      "inputs": [
        {
          "internalType": "uint256",
          "name": "assets",
          "type": "uint256"
        },
        {
          "internalType": "address",
          "name": "receiver",
          "type": "address"
        },
        {
          "internalType": "address",
          "name": "owner",
          "type": "address"
        }
      ],
      "name": "withdraw",
      "outputs": [
        {
          "internalType": "uint256",
          "name": "",
          "type": "uint256"
        }
      ],
      "stateMutability": "nonpayable",
      "type": "function"
    }
  ],
  "bytecode": "0x60c060405234801562000010575f80fd5b506040516200157b3803806200157b8339810160408190526200003391620001bb565b806040518060400160405280600b81526020016a455243343632364d6f636b60a81b8152506040518060400160405280600681526020016545343632364d60d01b815250816003908162000088919062000288565b50600462000097828262000288565b5050505f80620000ad83620000dc60201b60201c565b9150915081620000bf576012620000c1565b805b60ff1660a05250506001600160a01b0316608052506200039a565b60408051600481526024810182526020810180516001600160e01b031663313ce56760e01b17905290515f918291829182916001600160a01b03871691620001249162000354565b5f60405180830381855afa9150503d805f81146200015e576040519150601f19603f3d011682016040523d82523d5f602084013e62000163565b606091505b50915091508180156200017857506020815110155b15620001af575f8180602001905181019062000195919062000382565b905060ff8111620001ad576001969095509350505050565b505b505f9485945092505050565b5f60208284031215620001cc575f80fd5b81516001600160a01b0381168114620001e3575f80fd5b9392505050565b634e487b7160e01b5f52604160045260245ffd5b600181811c908216806200021357607f821691505b6020821081036200023257634e487b7160e01b5f52602260045260245ffd5b50919050565b601f8211156200028357805f5260205f20601f840160051c810160208510156200025f5750805b601f840160051c820191505b8181101562000280575f81556001016200026b565b50505b505050565b81516001600160401b03811115620002a457620002a4620001ea565b620002bc81620002b58454620001fe565b8462000238565b602080601f831160018114620002f2575f8415620002da5750858301515b5f19600386901b1c1916600185901b1785556200034c565b5f85815260208120601f198616915b82811015620003225788860151825594840194600190910190840162000301565b50858210156200034057878501515f19600388901b60f8161c191681555b505060018460011b0185555b505050505050565b5f82515f5b8181101562000375576020818601810151858301520162000359565b505f920191825250919050565b5f6020828403121562000393575f80fd5b5051919050565b60805160a0516111aa620003d15f395f61055801525f8181610260015281816103dc0152818161086d015261096101526111aa5ff3fe608060405234801561000f575f80fd5b50600436106101a1575f3560e01c806370a08231116100f3578063ba08765211610093578063ce96cb771161006e578063ce96cb771461037b578063d905777e1461038e578063dd62ed3e146103a1578063ef8b30f714610368575f80fd5b8063ba08765214610355578063c63d75b61461028a578063c6e6f59214610368575f80fd5b80639dc29fac116100ce5780639dc29fac14610309578063a9059cbb1461031c578063b3d7f6b91461032f578063b460af9414610342575f80fd5b806370a08231146102c657806394bf804d146102ee57806395d89b4114610301575f80fd5b806323b872dd1161015e578063402d267d11610139578063402d267d1461028a57806340c10f191461029e5780634cdad506146101d55780636e553f65146102b3575f80fd5b806323b872dd14610226578063313ce5671461023957806338d52e0f14610253575f80fd5b806301e1d114146101a557806306fdde03146101c057806307a2d13a146101d5578063095ea7b3146101e85780630a28a4771461020b57806318160ddd1461021e575b5f80fd5b6101ad6103d9565b6040519081526020015b60405180910390f35b6101c8610468565b6040516101b79190610dfe565b6101ad6101e3366004610e4a565b6104f8565b6101fb6101f6366004610e7c565b610509565b60405190151581526020016101b7565b6101ad610219366004610e4a565b610520565b6002546101ad565b6101fb610234366004610ea4565b61052c565b610241610551565b60405160ff90911681526020016101b7565b6040516001600160a01b037f00000000000000000000000000000000000000000000000000000000000000001681526020016101b7565b6101ad610298366004610edd565b505f1990565b6102b16102ac366004610e7c565b61057c565b005b6101ad6102c1366004610ef6565b61058a565b6101ad6102d4366004610edd565b6001600160a01b03165f9081526020819052604090205490565b6101ad6102fc366004610ef6565b6105bb565b6101c86105d6565b6102b1610317366004610e7c565b6105e5565b6101fb61032a366004610e7c565b6105ef565b6101ad61033d366004610e4a565b6105fc565b6101ad610350366004610f20565b610608565b6101ad610363366004610f20565b61065e565b6101ad610376366004610e4a565b6106ab565b6101ad610389366004610edd565b6106b6565b6101ad61039c366004610edd565b6106d8565b6101ad6103af366004610f59565b6001600160a01b039182165f90815260016020908152604080832093909416825291909152205490565b5f7f00000000000000000000000000000000000000000000000000000000000000006040516370a0823160e01b81523060048201526001600160a01b0391909116906370a0823190602401602060405180830381865afa15801561043f573d5f803e3d5ffd5b505050506040513d601f19601f820116820180604052508101906104639190610f81565b905090565b60606003805461047790610f98565b80601f01602080910402602001604051908101604052809291908181526020018280546104a390610f98565b80156104ee5780601f106104c5576101008083540402835291602001916104ee565b820191905f5260205f20905b8154815290600101906020018083116104d157829003601f168201915b5050505050905090565b5f610503825f6106f5565b92915050565b5f3361051681858561072d565b5060019392505050565b5f61050382600161073f565b5f3361053985828561076e565b6105448585856107d7565b60019150505b9392505050565b5f610463817f0000000000000000000000000000000000000000000000000000000000000000610fe4565b6105868282610834565b5050565b5f5f1961059b565b60405180910390fd5b5f6105a5856106ab565b90506105b333858784610868565b949350505050565b5f5f195f6105c8856105fc565b90506105b333858388610868565b60606004805461047790610f98565b61058682826108fa565b5f336105168185856107d7565b5f6105038260016106f5565b5f80610613836106b6565b90508085111561063c57828582604051633fa733bb60e21b815260040161059293929190610ffd565b5f61064686610520565b9050610655338686898561092e565b95945050505050565b5f80610669836106d8565b90508085111561069257828582604051632e52afbb60e21b815260040161059293929190610ffd565b5f61069c866104f8565b9050610655338686848a61092e565b5f610503825f61073f565b6001600160a01b0381165f90815260208190526040812054610503905f6106f5565b6001600160a01b0381165f90815260208190526040812054610503565b5f61054a6107016103d9565b61070c90600161101e565b6107175f600a611111565b600254610724919061101e565b859190856109ee565b61073a8383836001610a30565b505050565b5f61054a61074e82600a611111565b60025461075b919061101e565b6107636103d9565b61072490600161101e565b6001600160a01b038381165f908152600160209081526040808320938616835292905220545f198110156107d157818110156107c357828183604051637dc7a0d960e11b815260040161059293929190610ffd565b6107d184848484035f610a30565b50505050565b6001600160a01b03831661080057604051634b637e8f60e11b81525f6004820152602401610592565b6001600160a01b0382166108295760405163ec442f0560e01b81525f6004820152602401610592565b61073a838383610af4565b6001600160a01b03821661085d5760405163ec442f0560e01b81525f6004820152602401610592565b6105865f8383610af4565b6108947f0000000000000000000000000000000000000000000000000000000000000000853085610c07565b61089e8382610834565b826001600160a01b0316846001600160a01b03167fdcbc1c05240f31ff3ad067ef1ee35ce4997762752e3a095284754544f4c709d784846040516108ec929190918252602082015260400190565b60405180910390a350505050565b6001600160a01b03821661092357604051634b637e8f60e11b81525f6004820152602401610592565b610586825f83610af4565b826001600160a01b0316856001600160a01b0316146109525761095283868361076e565b61095c83826108fa565b6109877f00000000000000000000000000000000000000000000000000000000000000008584610c6e565b826001600160a01b0316846001600160a01b0316866001600160a01b03167ffbde797d201c681b91056529119e0b02407c7bb96a4a2c75c01fc9667232c8db85856040516109df929190918252602082015260400190565b60405180910390a45050505050565b5f610a1b6109fb83610c9f565b8015610a1657505f8480610a1157610a1161111f565b868809115b151590565b610a26868686610ccb565b610655919061101e565b6001600160a01b038416610a595760405163e602df0560e01b81525f6004820152602401610592565b6001600160a01b038316610a8257604051634a1406b160e11b81525f6004820152602401610592565b6001600160a01b038085165f90815260016020908152604080832093871683529290522082905580156107d157826001600160a01b0316846001600160a01b03167f8c5be1e5ebec7d5bd14f71427d1e84f3dd0314c0f7b2291e5b200ac8c7c3b925846040516108ec91815260200190565b6001600160a01b038316610b1e578060025f828254610b13919061101e565b90915550610b7b9050565b6001600160a01b0383165f9081526020819052604090205481811015610b5d5783818360405163391434e360e21b815260040161059293929190610ffd565b6001600160a01b0384165f9081526020819052604090209082900390555b6001600160a01b038216610b9757600280548290039055610bb5565b6001600160a01b0382165f9081526020819052604090208054820190555b816001600160a01b0316836001600160a01b03167fddf252ad1be2c89b69c2b068fc378daa952ba7f163c4a11628f55a4df523b3ef83604051610bfa91815260200190565b60405180910390a3505050565b6040516001600160a01b0384811660248301528381166044830152606482018390526107d19186918216906323b872dd906084015b604051602081830303815290604052915060e01b6020820180516001600160e01b038381831617835250505050610d81565b6040516001600160a01b0383811660248301526044820183905261073a91859182169063a9059cbb90606401610c3c565b5f6002826003811115610cb457610cb4611133565b610cbe9190611147565b60ff166001149050919050565b5f838302815f1985870982811083820303915050805f03610cff57838281610cf557610cf561111f565b049250505061054a565b808411610d1657610d166003851502601118610ded565b5f848688095f868103871696879004966002600389028118808a02820302808a02820302808a02820302808a02820302808a02820302808a02909103029181900381900460010186841190950394909402919094039290920491909117919091029150509392505050565b5f8060205f8451602086015f885af180610da0576040513d5f823e3d81fd5b50505f513d91508115610db7578060011415610dc4565b6001600160a01b0384163b155b156107d157604051635274afe760e01b81526001600160a01b0385166004820152602401610592565b634e487b715f52806020526024601cfd5b5f602080835283518060208501525f5b81811015610e2a57858101830151858201604001528201610e0e565b505f604082860101526040601f19601f8301168501019250505092915050565b5f60208284031215610e5a575f80fd5b5035919050565b80356001600160a01b0381168114610e77575f80fd5b919050565b5f8060408385031215610e8d575f80fd5b610e9683610e61565b946020939093013593505050565b5f805f60608486031215610eb6575f80fd5b610ebf84610e61565b9250610ecd60208501610e61565b9150604084013590509250925092565b5f60208284031215610eed575f80fd5b61054a82610e61565b5f8060408385031215610f07575f80fd5b82359150610f1760208401610e61565b90509250929050565b5f805f60608486031215610f32575f80fd5b83359250610f4260208501610e61565b9150610f5060408501610e61565b90509250925092565b5f8060408385031215610f6a575f80fd5b610f7383610e61565b9150610f1760208401610e61565b5f60208284031215610f91575f80fd5b5051919050565b600181811c90821680610fac57607f821691505b602082108103610fca57634e487b7160e01b5f52602260045260245ffd5b50919050565b634e487b7160e01b5f52601160045260245ffd5b60ff818116838216019081111561050357610503610fd0565b6001600160a01b039390931683526020830191909152604082015260600190565b8082018082111561050357610503610fd0565b600181815b8085111561106b57815f190482111561105157611051610fd0565b8085161561105e57918102915b93841c9390800290611036565b509250929050565b5f8261108157506001610503565b8161108d57505f610503565b81600181146110a357600281146110ad576110c9565b6001915050610503565b60ff8411156110be576110be610fd0565b50506001821b610503565b5060208310610133831016604e8410600b84101617156110ec575081810a610503565b6110f68383611031565b805f190482111561110957611109610fd0565b029392505050565b5f61054a60ff841683611073565b634e487b7160e01b5f52601260045260245ffd5b634e487b7160e01b5f52602160045260245ffd5b5f60ff83168061116557634e487b7160e01b5f52601260045260245ffd5b8060ff8416069150509291505056fea2646970667358221220d90fa5ade4a59098ca65427b010afcca362f6349941735fb49acc3687a91ca9b64736f6c63430008180033",
  "linkReferences": {},
  "deployedLinkReferences": {}
}