{
  "_format": "hh-sol-artifact-1",
  "contractName": "GDVestingWallet",
  "sourceName": "contracts/GDVestingWallet.sol",
  "abi": [
    {
      "inputs": [
        {
          "internalType": "address",
          "name": "beneficiary",
          "type": "address"
        },
        {
          "internalType": "uint64",
          "name": "startTimestamp",
          "type": "uint64"
        },
        {
          "internalType": "uint64",
          "name": "durationSeconds",
          "type": "uint64"
        },
        {
          "internalType": "uint64",
          "name": "cliffSeconds",
          "type": "uint64"
        }
      ],
      "stateMutability": "nonpayable",
      "type": "constructor"
    },
    {
      "inputs": [],
      "name": "FailedCall",
      "type": "error"
    },
    {
      "inputs": [
        {
          "internalType": "uint256",
          "name": "balance",
          "type": "uint256"
        },
        {
          "internalType": "uint256",
          "name": "needed",
          "type": "uint256"
        }
      ],
      "name": "InsufficientBalance",
      "type": "error"
    },
    {
      "inputs": [
        {
          "internalType": "uint64",
          "name": "cliffSeconds",
          "type": "uint64"
        },
        {
          "internalType": "uint64",
          "name": "durationSeconds",
          "type": "uint64"
        }
      ],
      "name": "InvalidCliffDuration",
      "type": "error"
    },
    {
      "inputs": [
        {
          "internalType": "address",
          "name": "owner",
          "type": "address"
        }
      ],
      "name": "OwnableInvalidOwner",
      "type": "error"
    },
    {
      "inputs": [
        {
          "internalType": "address",
          "name": "account",
          "type": "address"
        }
      ],
      "name": "OwnableUnauthorizedAccount",
      "type": "error"
    },
    {
      "inputs": [
        {
          "internalType": "uint8",
          "name": "bits",
          "type": "uint8"
        },
        {
          "internalType": "uint256",
          "name": "value",
          "type": "uint256"
        }
      ],
      "name": "SafeCastOverflowedUintDowncast",
      "type": "error"
    },
    {
      "inputs": [
        {
          "internalType": "address",
          "name": "token",
          "type": "address"
        }
      ],
      "name": "SafeERC20FailedOperation",
      "type": "error"
    },
    {
      "anonymous": false,
      "inputs": [
        {
          "indexed": true,
          "internalType": "address",
          "name": "token",
          "type": "address"
        },
        {
          "indexed": false,
          "internalType": "uint256",
          "name": "amount",
          "type": "uint256"
        }
      ],
      "name": "ERC20Released",
      "type": "event"
    },
    {
      "anonymous": false,
      "inputs": [
        {
          "indexed": false,
          "internalType": "uint256",
          "name": "amount",
          "type": "uint256"
        }
      ],
      "name": "EtherReleased",
      "type": "event"
    },
    {
      "anonymous": false,
      "inputs": [
        {
          "indexed": true,
          "internalType": "address",
          "name": "previousOwner",
          "type": "address"
        },
        {
          "indexed": true,
          "internalType": "address",
          "name": "newOwner",
          "type": "address"
        }
      ],
      "name": "OwnershipTransferred",
      "type": "event"
    },
    {
      "inputs": [],
      "name": "cliff",
      "outputs": [
        {
          "internalType": "uint256",
          "name": "",
          "type": "uint256"
        }
      ],
      "stateMutability": "view",
      "type": "function"
    },
    {
      "inputs": [],
      "name": "duration",
      "outputs": [
        {
          "internalType": "uint256",
          "name": "",
          "type": "uint256"
        }
      ],
      "stateMutability": "view",
      "type": "function"
    },
    {
      "inputs": [],
      "name": "end",
      "outputs": [
        {
          "internalType": "uint256",
          "name": "",
          "type": "uint256"
        }
      ],
      "stateMutability": "view",
      "type": "function"
    },
    {
      "inputs": [],
      "name": "owner",
      "outputs": [
        {
          "internalType": "address",
          "name": "",
          "type": "address"
        }
      ],
      "stateMutability": "view",
      "type": "function"
    },
    {
      "inputs": [
        {
          "internalType": "address",
          "name": "token",
          "type": "address"
        }
      ],
      "name": "releasable",
      "outputs": [
        {
          "internalType": "uint256",
          "name": "",
          "type": "uint256"
        }
      ],
      "stateMutability": "view",
      "type": "function"
    },
    {
      "inputs": [],
      "name": "releasable",
      "outputs": [
        {
          "internalType": "uint256",
          "name": "",
          "type": "uint256"
        }
      ],
      "stateMutability": "view",
      "type": "function"
    },
    {
      "inputs": [
        {
          "internalType": "address",
          "name": "token",
          "type": "address"
        }
      ],
      "name": "release",
      "outputs": [],
      "stateMutability": "nonpayable",
      "type": "function"
    },
    {
      "inputs": [],
      "name": "release",
      "outputs": [],
      "stateMutability": "nonpayable",
      "type": "function"
    },
    {
      "inputs": [],
      "name": "released",
      "outputs": [
        {
          "internalType": "uint256",
          "name": "",
          "type": "uint256"
        }
      ],
      "stateMutability": "view",
      "type": "function"
    },
    {
      "inputs": [
        {
          "internalType": "address",
          "name": "token",
          "type": "address"
        }
      ],
      "name": "released",
      "outputs": [
        {
          "internalType": "uint256",
          "name": "",
          "type": "uint256"
        }
      ],
      "stateMutability": "view",
      "type": "function"
    },
    {
      "inputs": [],
      "name": "renounceOwnership",
      "outputs": [],
      "stateMutability": "nonpayable",
      "type": "function"
    },
    {
      "inputs": [],
      "name": "start",
      "outputs": [
        {
          "internalType": "uint256",
          "name": "",
          "type": "uint256"
        }
      ],
      "stateMutability": "view",
      "type": "function"
    },
    {
      "inputs": [
        {
          "internalType": "address",
          "name": "newOwner",
          "type": "address"
        }
      ],
      "name": "transferOwnership",
      "outputs": [],
      "stateMutability": "nonpayable",
      "type": "function"
    },
    {
      "inputs": [
        {
          "internalType": "uint64",
          "name": "timestamp",
          "type": "uint64"
        }
      ],
      "name": "vestedAmount",
      "outputs": [
        {
          "internalType": "uint256",
          "name": "",
          "type": "uint256"
        }
      ],
      "stateMutability": "view",
      "type": "function"
    },
    {
      "inputs": [
        {
          "internalType": "address",
          "name": "token",
          "type": "address"
        },
        {
          "internalType": "uint64",
          "name": "timestamp",
          "type": "uint64"
        }
      ],
      "name": "vestedAmount",
      "outputs": [
        {
          "internalType": "uint256",
          "name": "",
          "type": "uint256"
        }
      ],
      "stateMutability": "view",
      "type": "function"
    },
    {
      "stateMutability": "payable",
      "type": "receive"
    }
  ],
  "bytecode": "0x60e060405234801562000010575f80fd5b5060405162000c9838038062000c988339810160408190526200003391620001c7565b80848484826001600160a01b0381166200006757604051631e4fbdf760e01b81525f60048201526024015b60405180910390fd5b620000728162000121565b506001600160401b039182166080521660a08190529050816001600160401b03161115620000e55780620000b8620000b260a0516001600160401b031690565b62000170565b6040516303be3ef560e41b81526001600160401b039283166004820152911660248201526044016200005e565b80620000fd620000b26080516001600160401b031690565b6200010991906200022d565b6001600160401b031660c05250620002619350505050565b5f80546001600160a01b038381166001600160a01b0319831681178455604051919092169283917f8be0079c531659141344cd1fd0a4f28419497f9722a3daafe3b4186f6b6457e09190a35050565b5f6001600160401b03821115620001a757604080516306dfcc6560e41b81526004810191909152602481018390526044016200005e565b5090565b80516001600160401b0381168114620001c2575f80fd5b919050565b5f805f8060808587031215620001db575f80fd5b84516001600160a01b0381168114620001f2575f80fd5b93506200020260208601620001ab565b92506200021260408601620001ab565b91506200022260608601620001ab565b905092959194509250565b6001600160401b038181168382160190808211156200025a57634e487b7160e01b5f52601160045260245ffd5b5092915050565b60805160a05160c0516109f7620002a15f395f818161016e01526105ba01525f81816101320152818161051b01526107b001525f6104f501526109f75ff3fe6080604052600436106100e7575f3560e01c80638da5cb5b11610087578063be9a655511610057578063be9a655514610291578063efbe1c1c146102a5578063f2fde38b146102b9578063fbccedae146102d8575f80fd5b80638da5cb5b14610204578063961325211461022a5780639852595c1461023e578063a3f8eace14610272575f80fd5b806319165587116100c2578063191655871461019c578063715018a6146101bd578063810ec23b146101d157806386d1a69f146101f0575f80fd5b80630a17b06b146100f25780630fb5a6b41461012457806313d033c014610160575f80fd5b366100ee57005b5f80fd5b3480156100fd575f80fd5b5061011161010c3660046108c1565b6102ec565b6040519081526020015b60405180910390f35b34801561012f575f80fd5b507f000000000000000000000000000000000000000000000000000000000000000067ffffffffffffffff16610111565b34801561016b575f80fd5b507f000000000000000000000000000000000000000000000000000000000000000067ffffffffffffffff16610111565b3480156101a7575f80fd5b506101bb6101b63660046108f0565b61030f565b005b3480156101c8575f80fd5b506101bb6103a7565b3480156101dc575f80fd5b506101116101eb366004610909565b6103ba565b3480156101fb575f80fd5b506101bb61044d565b34801561020f575f80fd5b505f546040516001600160a01b03909116815260200161011b565b348015610235575f80fd5b50600154610111565b348015610249575f80fd5b506101116102583660046108f0565b6001600160a01b03165f9081526002602052604090205490565b34801561027d575f80fd5b5061011161028c3660046108f0565b6104be565b34801561029c575f80fd5b506101116104ea565b3480156102b0575f80fd5b50610111610518565b3480156102c4575f80fd5b506101bb6102d33660046108f0565b61055b565b3480156102e3575f80fd5b5061011161059a565b5f6103096102f960015490565b610303904761094e565b836105b7565b92915050565b5f610319826104be565b6001600160a01b0383165f9081526002602052604081208054929350839290919061034590849061094e565b90915550506040518181526001600160a01b038316907fc0e523490dd523c33b1878c9eb14ff46991e3f5b2cd33710918618f2a39cba1b9060200160405180910390a26103a38261039d5f546001600160a01b031690565b8361060a565b5050565b6103af610661565b6103b85f61068d565b565b6001600160a01b0382165f90815260026020526040812054610446906040516370a0823160e01b81523060048201526001600160a01b038616906370a0823190602401602060405180830381865afa158015610418573d5f803e3d5ffd5b505050506040513d601f19601f8201168201806040525081019061043c9190610961565b610303919061094e565b9392505050565b5f61045661059a565b90508060015f828254610469919061094e565b90915550506040518181527fda9d4e5f101b8b9b1c5b76d0c5a9f7923571acfc02376aa076b75a8c080c956b9060200160405180910390a16104bb6104b55f546001600160a01b031690565b826106dc565b50565b6001600160a01b0381165f908152600260205260408120546104e083426103ba565b6103099190610978565b67ffffffffffffffff7f00000000000000000000000000000000000000000000000000000000000000001690565b5f7f000000000000000000000000000000000000000000000000000000000000000067ffffffffffffffff1661054c6104ea565b610556919061094e565b905090565b610563610661565b6001600160a01b03811661059157604051631e4fbdf760e01b81525f60048201526024015b60405180910390fd5b6104bb8161068d565b5f6105a460015490565b6105ad426102ec565b6105569190610978565b5f7f000000000000000000000000000000000000000000000000000000000000000067ffffffffffffffff168267ffffffffffffffff1610610602576105fd838361076e565b610446565b505f92915050565b604080516001600160a01b038416602482015260448082018490528251808303909101815260649091019091526020810180516001600160e01b031663a9059cbb60e01b17905261065c908490610810565b505050565b5f546001600160a01b031633146103b85760405163118cdaa760e01b8152336004820152602401610588565b5f80546001600160a01b038381166001600160a01b0319831681178455604051919092169283917f8be0079c531659141344cd1fd0a4f28419497f9722a3daafe3b4186f6b6457e09190a35050565b804710156107065760405163cf47918160e01b815247600482015260248101829052604401610588565b5f80836001600160a01b0316836040515f6040518083038185875af1925050503d805f8114610750576040519150601f19603f3d011682016040523d82523d5f602084013e610755565b606091505b509150915081610768576107688161087c565b50505050565b5f6107776104ea565b8267ffffffffffffffff16101561078f57505f610309565b610797610518565b8267ffffffffffffffff16106107ae575081610309565b7f000000000000000000000000000000000000000000000000000000000000000067ffffffffffffffff166107e16104ea565b6107f59067ffffffffffffffff8516610978565b6107ff908561098b565b61080991906109a2565b9050610309565b5f8060205f8451602086015f885af18061082f576040513d5f823e3d81fd5b50505f513d91508115610846578060011415610853565b6001600160a01b0384163b155b1561076857604051635274afe760e01b81526001600160a01b0385166004820152602401610588565b80511561088c5780518082602001fd5b60405163d6bda27560e01b815260040160405180910390fd5b803567ffffffffffffffff811681146108bc575f80fd5b919050565b5f602082840312156108d1575f80fd5b610446826108a5565b80356001600160a01b03811681146108bc575f80fd5b5f60208284031215610900575f80fd5b610446826108da565b5f806040838503121561091a575f80fd5b610923836108da565b9150610931602084016108a5565b90509250929050565b634e487b7160e01b5f52601160045260245ffd5b808201808211156103095761030961093a565b5f60208284031215610971575f80fd5b5051919050565b818103818111156103095761030961093a565b80820281158282048414176103095761030961093a565b5f826109bc57634e487b7160e01b5f52601260045260245ffd5b50049056fea264697066735822122051d98f4bfb2b52bee4ba56f70f2fabe3f0c438e3e09a9c20782bcefdb2e1be0164736f6c63430008180033",
  "linkReferences": {},
  "deployedLinkReferences": {}
}