{
  "_format": "hh-sol-artifact-1",
  "contractName": "Box",
  "sourceName": "contracts/mocks/docs/utilities/Multicall.sol",
  "abi": [
    {
      "inputs": [
        {
          "internalType": "address",
          "name": "target",
          "type": "address"
        }
      ],
      "name": "AddressEmptyCode",
      "type": "error"
    },
    {
      "inputs": [],
      "name": "FailedCall",
      "type": "error"
    },
    {
      "inputs": [],
      "name": "bar",
      "outputs": [],
      "stateMutability": "nonpayable",
      "type": "function"
    },
    {
      "inputs": [],
      "name": "foo",
      "outputs": [],
      "stateMutability": "nonpayable",
      "type": "function"
    },
    {
      "inputs": [
        {
          "internalType": "bytes[]",
          "name": "data",
          "type": "bytes[]"
        }
      ],
      "name": "multicall",
      "outputs": [
        {
          "internalType": "bytes[]",
          "name": "results",
          "type": "bytes[]"
        }
      ],
      "stateMutability": "nonpayable",
      "type": "function"
    }
  ],
  "bytecode": "0x608060405234801561000f575f80fd5b506104438061001d5f395ff3fe608060405234801561000f575f80fd5b506004361061003f575f3560e01c8063ac9650d814610043578063c29855781461006c578063febb0f7e1461006c575b5f80fd5b610056610051366004610252565b61006e565b60405161006391906102e3565b60405180910390f35b005b604080515f8152602081019091526060908267ffffffffffffffff8111156100985761009861035b565b6040519080825280602002602001820160405280156100cb57816020015b60608152602001906001900390816100b65790505b5091505f5b8381101561014c57610127308686848181106100ee576100ee61036f565b90506020028101906101009190610383565b85604051602001610113939291906103cd565b604051602081830303815290604052610154565b8382815181106101395761013961036f565b60209081029190910101526001016100d0565b505092915050565b60605f80846001600160a01b03168460405161017091906103f2565b5f60405180830381855af49150503d805f81146101a8576040519150601f19603f3d011682016040523d82523d5f602084013e6101ad565b606091505b50915091506101bd8583836101c6565b95945050505050565b6060826101db576101d682610229565b610222565b81511580156101f257506001600160a01b0384163b155b1561021f57604051639996b31560e01b81526001600160a01b038516600482015260240160405180910390fd5b50805b9392505050565b8051156102395780518082602001fd5b60405163d6bda27560e01b815260040160405180910390fd5b5f8060208385031215610263575f80fd5b823567ffffffffffffffff8082111561027a575f80fd5b818501915085601f83011261028d575f80fd5b81358181111561029b575f80fd5b8660208260051b85010111156102af575f80fd5b60209290920196919550909350505050565b5f5b838110156102db5781810151838201526020016102c3565b50505f910152565b5f602080830181845280855180835260408601915060408160051b87010192508387015f5b8281101561034e57878503603f190184528151805180875261032f818989018a85016102c1565b601f01601f191695909501860194509285019290850190600101610308565b5092979650505050505050565b634e487b7160e01b5f52604160045260245ffd5b634e487b7160e01b5f52603260045260245ffd5b5f808335601e19843603018112610398575f80fd5b83018035915067ffffffffffffffff8211156103b2575f80fd5b6020019150368190038213156103c6575f80fd5b9250929050565b828482375f8382015f815283516103e88183602088016102c1565b0195945050505050565b5f82516104038184602087016102c1565b919091019291505056fea2646970667358221220a11188cc60295f41be19e1817bed7aba8c75cc0afa68157b999824774a4b07a964736f6c63430008180033",
  "linkReferences": {},
  "deployedLinkReferences": {}
}