{
  "_format": "hh-sol-artifact-1",
  "contractName": "AccessManagedERC20Mint",
  "sourceName": "contracts/mocks/docs/access-control/AccessManagedERC20MintBase.sol",
  "abi": [
    {
      "inputs": [
        {
          "internalType": "address",
          "name": "manager",
          "type": "address"
        }
      ],
      "stateMutability": "nonpayable",
      "type": "constructor"
    },
    {
      "inputs": [
        {
          "internalType": "address",
          "name": "authority",
          "type": "address"
        }
      ],
      "name": "AccessManagedInvalidAuthority",
      "type": "error"
    },
    {
      "inputs": [
        {
          "internalType": "address",
          "name": "caller",
          "type": "address"
        },
        {
          "internalType": "uint32",
          "name": "delay",
          "type": "uint32"
        }
      ],
      "name": "AccessManagedRequiredDelay",
      "type": "error"
    },
    {
      "inputs": [
        {
          "internalType": "address",
          "name": "caller",
          "type": "address"
        }
      ],
      "name": "AccessManagedUnauthorized",
      "type": "error"
    },
    {
      "inputs": [
        {
          "internalType": "address",
          "name": "spender",
          "type": "address"
        },
        {
          "internalType": "uint256",
          "name": "allowance",
          "type": "uint256"
        },
        {
          "internalType": "uint256",
          "name": "needed",
          "type": "uint256"
        }
      ],
      "name": "ERC20InsufficientAllowance",
      "type": "error"
    },
    {
      "inputs": [
        {
          "internalType": "address",
          "name": "sender",
          "type": "address"
        },
        {
          "internalType": "uint256",
          "name": "balance",
          "type": "uint256"
        },
        {
          "internalType": "uint256",
          "name": "needed",
          "type": "uint256"
        }
      ],
      "name": "ERC20InsufficientBalance",
      "type": "error"
    },
    {
      "inputs": [
        {
          "internalType": "address",
          "name": "approver",
          "type": "address"
        }
      ],
      "name": "ERC20InvalidApprover",
      "type": "error"
    },
    {
      "inputs": [
        {
          "internalType": "address",
          "name": "receiver",
          "type": "address"
        }
      ],
      "name": "ERC20InvalidReceiver",
      "type": "error"
    },
    {
      "inputs": [
        {
          "internalType": "address",
          "name": "sender",
          "type": "address"
        }
      ],
      "name": "ERC20InvalidSender",
      "type": "error"
    },
    {
      "inputs": [
        {
          "internalType": "address",
          "name": "spender",
          "type": "address"
        }
      ],
      "name": "ERC20InvalidSpender",
      "type": "error"
    },
    {
      "anonymous": false,
      "inputs": [
        {
          "indexed": true,
          "internalType": "address",
          "name": "owner",
          "type": "address"
        },
        {
          "indexed": true,
          "internalType": "address",
          "name": "spender",
          "type": "address"
        },
        {
          "indexed": false,
          "internalType": "uint256",
          "name": "value",
          "type": "uint256"
        }
      ],
      "name": "Approval",
      "type": "event"
    },
    {
      "anonymous": false,
      "inputs": [
        {
          "indexed": false,
          "internalType": "address",
          "name": "authority",
          "type": "address"
        }
      ],
      "name": "AuthorityUpdated",
      "type": "event"
    },
    {
      "anonymous": false,
      "inputs": [
        {
          "indexed": true,
          "internalType": "address",
          "name": "from",
          "type": "address"
        },
        {
          "indexed": true,
          "internalType": "address",
          "name": "to",
          "type": "address"
        },
        {
          "indexed": false,
          "internalType": "uint256",
          "name": "value",
          "type": "uint256"
        }
      ],
      "name": "Transfer",
      "type": "event"
    },
    {
      "inputs": [
        {
          "internalType": "address",
          "name": "owner",
          "type": "address"
        },
        {
          "internalType": "address",
          "name": "spender",
          "type": "address"
        }
      ],
      "name": "allowance",
      "outputs": [
        {
          "internalType": "uint256",
          "name": "",
          "type": "uint256"
        }
      ],
      "stateMutability": "view",
      "type": "function"
    },
    {
      "inputs": [
        {
          "internalType": "address",
          "name": "spender",
          "type": "address"
        },
        {
          "internalType": "uint256",
          "name": "value",
          "type": "uint256"
        }
      ],
      "name": "approve",
      "outputs": [
        {
          "internalType": "bool",
          "name": "",
          "type": "bool"
        }
      ],
      "stateMutability": "nonpayable",
      "type": "function"
    },
    {
      "inputs": [],
      "name": "authority",
      "outputs": [
        {
          "internalType": "address",
          "name": "",
          "type": "address"
        }
      ],
      "stateMutability": "view",
      "type": "function"
    },
    {
      "inputs": [
        {
          "internalType": "address",
          "name": "account",
          "type": "address"
        }
      ],
      "name": "balanceOf",
      "outputs": [
        {
          "internalType": "uint256",
          "name": "",
          "type": "uint256"
        }
      ],
      "stateMutability": "view",
      "type": "function"
    },
    {
      "inputs": [],
      "name": "decimals",
      "outputs": [
        {
          "internalType": "uint8",
          "name": "",
          "type": "uint8"
        }
      ],
      "stateMutability": "view",
      "type": "function"
    },
    {
      "inputs": [],
      "name": "isConsumingScheduledOp",
      "outputs": [
        {
          "internalType": "bytes4",
          "name": "",
          "type": "bytes4"
        }
      ],
      "stateMutability": "view",
      "type": "function"
    },
    {
      "inputs": [
        {
          "internalType": "address",
          "name": "to",
          "type": "address"
        },
        {
          "internalType": "uint256",
          "name": "amount",
          "type": "uint256"
        }
      ],
      "name": "mint",
      "outputs": [],
      "stateMutability": "nonpayable",
      "type": "function"
    },
    {
      "inputs": [],
      "name": "name",
      "outputs": [
        {
          "internalType": "string",
          "name": "",
          "type": "string"
        }
      ],
      "stateMutability": "view",
      "type": "function"
    },
    {
      "inputs": [
        {
          "internalType": "address",
          "name": "newAuthority",
          "type": "address"
        }
      ],
      "name": "setAuthority",
      "outputs": [],
      "stateMutability": "nonpayable",
      "type": "function"
    },
    {
      "inputs": [],
      "name": "symbol",
      "outputs": [
        {
          "internalType": "string",
          "name": "",
          "type": "string"
        }
      ],
      "stateMutability": "view",
      "type": "function"
    },
    {
      "inputs": [],
      "name": "totalSupply",
      "outputs": [
        {
          "internalType": "uint256",
          "name": "",
          "type": "uint256"
        }
      ],
      "stateMutability": "view",
      "type": "function"
    },
    {
      "inputs": [
        {
          "internalType": "address",
          "name": "to",
          "type": "address"
        },
        {
          "internalType": "uint256",
          "name": "value",
          "type": "uint256"
        }
      ],
      "name": "transfer",
      "outputs": [
        {
          "internalType": "bool",
          "name": "",
          "type": "bool"
        }
      ],
      "stateMutability": "nonpayable",
      "type": "function"
    },
    {
      "inputs": [
        {
          "internalType": "address",
          "name": "from",
          "type": "address"
        },
        {
          "internalType": "address",
          "name": "to",
          "type": "address"
        },
        {
          "internalType": "uint256",
          "name": "value",
          "type": "uint256"
        }
      ],
      "name": "transferFrom",
      "outputs": [
        {
          "internalType": "bool",
          "name": "",
          "type": "bool"
        }
      ],
      "stateMutability": "nonpayable",
      "type": "function"
    }
  ],
  "bytecode": "0x608060405234801562000010575f80fd5b5060405162000e9938038062000e99833981016040819052620000339162000100565b806040518060400160405280600781526020016626bcaa37b5b2b760c91b815250604051806040016040528060038152602001622a25a760e91b8152508160039081620000819190620001cd565b506004620000908282620001cd565b505050620000a481620000ac60201b60201c565b505062000299565b600580546001600160a01b0319166001600160a01b0383169081179091556040519081527f2f658b440c35314f52658ea8a740e05b284cdc84dc9ae01e891f21b8933e7cad9060200160405180910390a150565b5f6020828403121562000111575f80fd5b81516001600160a01b038116811462000128575f80fd5b9392505050565b634e487b7160e01b5f52604160045260245ffd5b600181811c908216806200015857607f821691505b6020821081036200017757634e487b7160e01b5f52602260045260245ffd5b50919050565b601f821115620001c857805f5260205f20601f840160051c81016020851015620001a45750805b601f840160051c820191505b81811015620001c5575f8155600101620001b0565b50505b505050565b81516001600160401b03811115620001e957620001e96200012f565b6200020181620001fa845462000143565b846200017d565b602080601f83116001811462000237575f84156200021f5750858301515b5f19600386901b1c1916600185901b17855562000291565b5f85815260208120601f198616915b82811015620002675788860151825594840194600190910190840162000246565b50858210156200028557878501515f19600388901b60f8161c191681555b505060018460011b0185555b505050505050565b610bf280620002a75f395ff3fe608060405234801561000f575f80fd5b50600436106100cb575f3560e01c806370a082311161008857806395d89b411161006357806395d89b41146101b5578063a9059cbb146101bd578063bf7e214f146101d0578063dd62ed3e146101eb575f80fd5b806370a08231146101595780637a9e5e4b146101815780638fb3603714610194575f80fd5b806306fdde03146100cf578063095ea7b3146100ed57806318160ddd1461011057806323b872dd14610122578063313ce5671461013557806340c10f1914610144575b5f80fd5b6100d7610223565b6040516100e49190610950565b60405180910390f35b6101006100fb36600461099d565b6102b3565b60405190151581526020016100e4565b6002545b6040519081526020016100e4565b6101006101303660046109c5565b6102cc565b604051601281526020016100e4565b61015761015236600461099d565b6102ef565b005b6101146101673660046109fe565b6001600160a01b03165f9081526020819052604090205490565b61015761018f3660046109fe565b610308565b61019c610382565b6040516001600160e01b031990911681526020016100e4565b6100d76103a6565b6101006101cb36600461099d565b6103b5565b6005546040516001600160a01b0390911681526020016100e4565b6101146101f9366004610a1e565b6001600160a01b039182165f90815260016020908152604080832093909416825291909152205490565b60606003805461023290610a4f565b80601f016020809104026020016040519081016040528092919081815260200182805461025e90610a4f565b80156102a95780601f10610280576101008083540402835291602001916102a9565b820191905f5260205f20905b81548152906001019060200180831161028c57829003601f168201915b5050505050905090565b5f336102c08185856103c2565b60019150505b92915050565b5f336102d98582856103d4565b6102e4858585610450565b506001949350505050565b6102fa335f366104ad565b61030482826105a6565b5050565b60055433906001600160a01b031681146103445760405162d1953b60e31b81526001600160a01b03821660048201526024015b60405180910390fd5b816001600160a01b03163b5f03610379576040516361798f2f60e11b81526001600160a01b038316600482015260240161033b565b610304826105da565b6005545f90600160a01b900460ff1661039a57505f90565b50638fb3603760e01b90565b60606004805461023290610a4f565b5f336102c0818585610450565b6103cf838383600161062e565b505050565b6001600160a01b038381165f908152600160209081526040808320938616835292905220545f1981101561044a578181101561043c57604051637dc7a0d960e11b81526001600160a01b0384166004820152602481018290526044810183905260640161033b565b61044a84848484035f61062e565b50505050565b6001600160a01b03831661047957604051634b637e8f60e11b81525f600482015260240161033b565b6001600160a01b0382166104a25760405163ec442f0560e01b81525f600482015260240161033b565b6103cf838383610700565b5f806104e16104c46005546001600160a01b031690565b86306104d360045f898b610a87565b6104dc91610aae565b610826565b915091508161059f5763ffffffff81161561057c576005805460ff60a01b198116600160a01b17909155604051634a63ebf760e11b81526001600160a01b03909116906394c7d7ee9061053c90889088908890600401610ade565b5f604051808303815f87803b158015610553575f80fd5b505af1158015610565573d5f803e3d5ffd5b50506005805460ff60a01b191690555061059f9050565b60405162d1953b60e31b81526001600160a01b038616600482015260240161033b565b5050505050565b6001600160a01b0382166105cf5760405163ec442f0560e01b81525f600482015260240161033b565b6103045f8383610700565b600580546001600160a01b0319166001600160a01b0383169081179091556040519081527f2f658b440c35314f52658ea8a740e05b284cdc84dc9ae01e891f21b8933e7cad9060200160405180910390a150565b6001600160a01b0384166106575760405163e602df0560e01b81525f600482015260240161033b565b6001600160a01b03831661068057604051634a1406b160e11b81525f600482015260240161033b565b6001600160a01b038085165f908152600160209081526040808320938716835292905220829055801561044a57826001600160a01b0316846001600160a01b03167f8c5be1e5ebec7d5bd14f71427d1e84f3dd0314c0f7b2291e5b200ac8c7c3b925846040516106f291815260200190565b60405180910390a350505050565b6001600160a01b03831661072a578060025f82825461071f9190610b1d565b9091555061079a9050565b6001600160a01b0383165f908152602081905260409020548181101561077c5760405163391434e360e21b81526001600160a01b0385166004820152602481018290526044810183905260640161033b565b6001600160a01b0384165f9081526020819052604090209082900390555b6001600160a01b0382166107b6576002805482900390556107d4565b6001600160a01b0382165f9081526020819052604090208054820190555b816001600160a01b0316836001600160a01b03167fddf252ad1be2c89b69c2b068fc378daa952ba7f163c4a11628f55a4df523b3ef8360405161081991815260200190565b60405180910390a3505050565b6040516001600160a01b03848116602483015283811660448301526001600160e01b0319831660648301525f9182918291829189169060840160408051601f198184030181529181526020820180516001600160e01b031663b700961360e01b179052516108949190610b3c565b5f60405180830381855afa9150503d805f81146108cc576040519150601f19603f3d011682016040523d82523d5f602084013e6108d1565b606091505b5091509150811561092357604081511061090357808060200190518101906108f99190610b66565b9094509250610923565b602081511061092357808060200190518101906109209190610ba3565b93505b505094509492505050565b5f5b83811015610948578181015183820152602001610930565b50505f910152565b602081525f825180602084015261096e81604085016020870161092e565b601f01601f19169190910160400192915050565b80356001600160a01b0381168114610998575f80fd5b919050565b5f80604083850312156109ae575f80fd5b6109b783610982565b946020939093013593505050565b5f805f606084860312156109d7575f80fd5b6109e084610982565b92506109ee60208501610982565b9150604084013590509250925092565b5f60208284031215610a0e575f80fd5b610a1782610982565b9392505050565b5f8060408385031215610a2f575f80fd5b610a3883610982565b9150610a4660208401610982565b90509250929050565b600181811c90821680610a6357607f821691505b602082108103610a8157634e487b7160e01b5f52602260045260245ffd5b50919050565b5f8085851115610a95575f80fd5b83861115610aa1575f80fd5b5050820193919092039150565b6001600160e01b03198135818116916004851015610ad65780818660040360031b1b83161692505b505092915050565b6001600160a01b03841681526040602082018190528101829052818360608301375f818301606090810191909152601f909201601f1916010192915050565b808201808211156102c657634e487b7160e01b5f52601160045260245ffd5b5f8251610b4d81846020870161092e565b9190910192915050565b80518015158114610998575f80fd5b5f8060408385031215610b77575f80fd5b610b8083610b57565b9150602083015163ffffffff81168114610b98575f80fd5b809150509250929050565b5f60208284031215610bb3575f80fd5b610a1782610b5756fea2646970667358221220190616cdfb502df740bf648822a64ab143718632266df9c2d1ed647867a74c2364736f6c63430008180033",
  "linkReferences": {},
  "deployedLinkReferences": {}
}