{
  "_format": "hh-sol-artifact-1",
  "contractName": "$RSA",
  "sourceName": "contracts-exposed/utils/cryptography/RSA.sol",
  "abi": [
    {
      "inputs": [],
      "stateMutability": "payable",
      "type": "constructor"
    },
    {
      "inputs": [
        {
          "internalType": "bytes32",
          "name": "digest",
          "type": "bytes32"
        },
        {
          "internalType": "bytes",
          "name": "s",
          "type": "bytes"
        },
        {
          "internalType": "bytes",
          "name": "e",
          "type": "bytes"
        },
        {
          "internalType": "bytes",
          "name": "n",
          "type": "bytes"
        }
      ],
      "name": "$pkcs1Sha256",
      "outputs": [
        {
          "internalType": "bool",
          "name": "ret0",
          "type": "bool"
        }
      ],
      "stateMutability": "view",
      "type": "function"
    },
    {
      "inputs": [
        {
          "internalType": "bytes",
          "name": "data",
          "type": "bytes"
        },
        {
          "internalType": "bytes",
          "name": "s",
          "type": "bytes"
        },
        {
          "internalType": "bytes",
          "name": "e",
          "type": "bytes"
        },
        {
          "internalType": "bytes",
          "name": "n",
          "type": "bytes"
        }
      ],
      "name": "$pkcs1Sha256",
      "outputs": [
        {
          "internalType": "bool",
          "name": "ret0",
          "type": "bool"
        }
      ],
      "stateMutability": "view",
      "type": "function"
    },
    {
      "inputs": [],
      "name": "__hh_exposed_bytecode_marker",
      "outputs": [
        {
          "internalType": "bytes32",
          "name": "",
          "type": "bytes32"
        }
      ],
      "stateMutability": "view",
      "type": "function"
    },
    {
      "stateMutability": "payable",
      "type": "receive"
    }
  ],
  "bytecode": "0x6080604052610812806100115f395ff3fe608060405260043610610036575f3560e01c8063342db7391461004157806399a60fa314610079578063eff429b5146100a8575f80fd5b3661003d57005b5f80fd5b34801561004c575f80fd5b506100666e1a185c991a185d0b595e1c1bdcd959608a1b81565b6040519081526020015b60405180910390f35b348015610084575f80fd5b506100986100933660046105f3565b6100c7565b6040519015158152602001610070565b3480156100b3575f80fd5b506100986100c236600461068f565b610179565b5f61016d8888888080601f0160208091040260200160405190810160405280939291908181526020018383808284375f9201919091525050604080516020601f8c018190048102820181019092528a815292508a91508990819084018382808284375f9201919091525050604080516020601f8b0181900481028201810190925289815292508991508890819084018382808284375f9201919091525061025e92505050565b98975050505050505050565b5f61025189898080601f0160208091040260200160405190810160405280939291908181526020018383808284375f9201919091525050604080516020601f8d018190048102820181019092528b815292508b91508a90819084018382808284375f9201919091525050604080516020601f8c018190048102820181019092528a815292508a91508990819084018382808284375f9201919091525050604080516020601f8b0181900481028201810190925289815292508991508890819084018382808284375f9201919091525061044492505050565b9998505050505050505050565b80515f90610100811080610273575084518114155b15610281575f91505061043c565b5f5b818110156102f8575f61029982602085036104a7565b90505f6102a98883016020015190565b90505f6102b98784016020015190565b9050808210156102cb575050506102f8565b808211806102db57506020850383145b156102ed575f9550505050505061043c565b505050602001610283565b505f6103058686866104b9565b90505f805f61031a8460328703016020015190565b6001600160f81b031916603160f81b0361035f5750720181898068304b0432400b281820100828002160651b91506bffffffffffffffffffffffff19905060346103b9565b600f1985850101516001600160f81b031916602f60f81b036103ac5750700181798058304b0432400b28182010082160751b91506dffffffffffffffffffffffffffff19905060326103b9565b5f9550505050505061043c565b80850360025b818110156103f657602081870101516001600160f81b0319908116146103ee575f97505050505050505061043c565b6001016103bf565b5060208501516001600160f01b031916600160f01b1480156104255750826104218683016020015190565b1684145b80156104335750858501518b145b96505050505050505b949350505050565b5f61049e6002866040516104589190610777565b602060405180830381855afa158015610473573d5f803e3d5ffd5b5050506040513d601f19601f820116820180604052508101906104969190610782565b85858561025e565b95945050505050565b5f8282188284100282185b9392505050565b60605f806104c88686866104db565b915091508161049e5761049e6012610552565b5f60606104e783610563565b15610502575050604080515f8082526020820190925261054a565b82518551855160405161052192919084908a908a908a90602001610799565b604051602081830303815290604052915060208201818184518360055afa828452910160405291505b935093915050565b634e487b715f52806020526024601cfd5b5f805b82518110156105a557828181518110610581576105816107c8565b01602001516001600160f81b0319161561059d57505f92915050565b600101610566565b50600192915050565b5f8083601f8401126105be575f80fd5b50813567ffffffffffffffff8111156105d5575f80fd5b6020830191508360208285010111156105ec575f80fd5b9250929050565b5f805f805f805f6080888a031215610609575f80fd5b87359650602088013567ffffffffffffffff80821115610627575f80fd5b6106338b838c016105ae565b909850965060408a013591508082111561064b575f80fd5b6106578b838c016105ae565b909650945060608a013591508082111561066f575f80fd5b5061067c8a828b016105ae565b989b979a50959850939692959293505050565b5f805f805f805f806080898b0312156106a6575f80fd5b883567ffffffffffffffff808211156106bd575f80fd5b6106c98c838d016105ae565b909a50985060208b01359150808211156106e1575f80fd5b6106ed8c838d016105ae565b909850965060408b0135915080821115610705575f80fd5b6107118c838d016105ae565b909650945060608b0135915080821115610729575f80fd5b506107368b828c016105ae565b999c989b5096995094979396929594505050565b5f81515f5b81811015610769576020818501810151868301520161074f565b505f93019283525090919050565b5f6104b2828461074a565b5f60208284031215610792575f80fd5b5051919050565b8681528560208201528460408201525f61016d6107c26107bc606085018861074a565b8661074a565b8461074a565b634e487b7160e01b5f52603260045260245ffdfea2646970667358221220df96d393607f9630965518d23d586b86461334acde4275ed2137debbd6c7fbe464736f6c63430008180033",
  "linkReferences": {},
  "deployedLinkReferences": {}
}