{
  "_format": "hh-sol-artifact-1",
  "contractName": "$ERC721ConsecutiveMock",
  "sourceName": "contracts-exposed/mocks/token/ERC721ConsecutiveMock.sol",
  "abi": [
    {
      "inputs": [
        {
          "internalType": "string",
          "name": "name",
          "type": "string"
        },
        {
          "internalType": "string",
          "name": "symbol",
          "type": "string"
        },
        {
          "internalType": "uint96",
          "name": "offset",
          "type": "uint96"
        },
        {
          "internalType": "address[]",
          "name": "delegates",
          "type": "address[]"
        },
        {
          "internalType": "address[]",
          "name": "receivers",
          "type": "address[]"
        },
        {
          "internalType": "uint96[]",
          "name": "amounts",
          "type": "uint96[]"
        }
      ],
      "stateMutability": "payable",
      "type": "constructor"
    },
    {
      "inputs": [],
      "name": "CheckpointUnorderedInsertion",
      "type": "error"
    },
    {
      "inputs": [],
      "name": "ECDSAInvalidSignature",
      "type": "error"
    },
    {
      "inputs": [
        {
          "internalType": "uint256",
          "name": "length",
          "type": "uint256"
        }
      ],
      "name": "ECDSAInvalidSignatureLength",
      "type": "error"
    },
    {
      "inputs": [
        {
          "internalType": "bytes32",
          "name": "s",
          "type": "bytes32"
        }
      ],
      "name": "ECDSAInvalidSignatureS",
      "type": "error"
    },
    {
      "inputs": [
        {
          "internalType": "uint256",
          "name": "timepoint",
          "type": "uint256"
        },
        {
          "internalType": "uint48",
          "name": "clock",
          "type": "uint48"
        }
      ],
      "name": "ERC5805FutureLookup",
      "type": "error"
    },
    {
      "inputs": [],
      "name": "ERC6372InconsistentClock",
      "type": "error"
    },
    {
      "inputs": [
        {
          "internalType": "uint256",
          "name": "batchSize",
          "type": "uint256"
        },
        {
          "internalType": "uint256",
          "name": "maxBatch",
          "type": "uint256"
        }
      ],
      "name": "ERC721ExceededMaxBatchMint",
      "type": "error"
    },
    {
      "inputs": [],
      "name": "ERC721ForbiddenBatchBurn",
      "type": "error"
    },
    {
      "inputs": [],
      "name": "ERC721ForbiddenBatchMint",
      "type": "error"
    },
    {
      "inputs": [],
      "name": "ERC721ForbiddenMint",
      "type": "error"
    },
    {
      "inputs": [
        {
          "internalType": "address",
          "name": "sender",
          "type": "address"
        },
        {
          "internalType": "uint256",
          "name": "tokenId",
          "type": "uint256"
        },
        {
          "internalType": "address",
          "name": "owner",
          "type": "address"
        }
      ],
      "name": "ERC721IncorrectOwner",
      "type": "error"
    },
    {
      "inputs": [
        {
          "internalType": "address",
          "name": "operator",
          "type": "address"
        },
        {
          "internalType": "uint256",
          "name": "tokenId",
          "type": "uint256"
        }
      ],
      "name": "ERC721InsufficientApproval",
      "type": "error"
    },
    {
      "inputs": [
        {
          "internalType": "address",
          "name": "approver",
          "type": "address"
        }
      ],
      "name": "ERC721InvalidApprover",
      "type": "error"
    },
    {
      "inputs": [
        {
          "internalType": "address",
          "name": "operator",
          "type": "address"
        }
      ],
      "name": "ERC721InvalidOperator",
      "type": "error"
    },
    {
      "inputs": [
        {
          "internalType": "address",
          "name": "owner",
          "type": "address"
        }
      ],
      "name": "ERC721InvalidOwner",
      "type": "error"
    },
    {
      "inputs": [
        {
          "internalType": "address",
          "name": "receiver",
          "type": "address"
        }
      ],
      "name": "ERC721InvalidReceiver",
      "type": "error"
    },
    {
      "inputs": [
        {
          "internalType": "address",
          "name": "sender",
          "type": "address"
        }
      ],
      "name": "ERC721InvalidSender",
      "type": "error"
    },
    {
      "inputs": [
        {
          "internalType": "uint256",
          "name": "tokenId",
          "type": "uint256"
        }
      ],
      "name": "ERC721NonexistentToken",
      "type": "error"
    },
    {
      "inputs": [],
      "name": "EnforcedPause",
      "type": "error"
    },
    {
      "inputs": [],
      "name": "ExpectedPause",
      "type": "error"
    },
    {
      "inputs": [
        {
          "internalType": "address",
          "name": "account",
          "type": "address"
        },
        {
          "internalType": "uint256",
          "name": "currentNonce",
          "type": "uint256"
        }
      ],
      "name": "InvalidAccountNonce",
      "type": "error"
    },
    {
      "inputs": [],
      "name": "InvalidShortString",
      "type": "error"
    },
    {
      "inputs": [
        {
          "internalType": "uint8",
          "name": "bits",
          "type": "uint8"
        },
        {
          "internalType": "uint256",
          "name": "value",
          "type": "uint256"
        }
      ],
      "name": "SafeCastOverflowedUintDowncast",
      "type": "error"
    },
    {
      "inputs": [
        {
          "internalType": "string",
          "name": "str",
          "type": "string"
        }
      ],
      "name": "StringTooLong",
      "type": "error"
    },
    {
      "inputs": [
        {
          "internalType": "uint256",
          "name": "expiry",
          "type": "uint256"
        }
      ],
      "name": "VotesExpiredSignature",
      "type": "error"
    },
    {
      "anonymous": false,
      "inputs": [
        {
          "indexed": true,
          "internalType": "address",
          "name": "owner",
          "type": "address"
        },
        {
          "indexed": true,
          "internalType": "address",
          "name": "approved",
          "type": "address"
        },
        {
          "indexed": true,
          "internalType": "uint256",
          "name": "tokenId",
          "type": "uint256"
        }
      ],
      "name": "Approval",
      "type": "event"
    },
    {
      "anonymous": false,
      "inputs": [
        {
          "indexed": true,
          "internalType": "address",
          "name": "owner",
          "type": "address"
        },
        {
          "indexed": true,
          "internalType": "address",
          "name": "operator",
          "type": "address"
        },
        {
          "indexed": false,
          "internalType": "bool",
          "name": "approved",
          "type": "bool"
        }
      ],
      "name": "ApprovalForAll",
      "type": "event"
    },
    {
      "anonymous": false,
      "inputs": [
        {
          "indexed": true,
          "internalType": "uint256",
          "name": "fromTokenId",
          "type": "uint256"
        },
        {
          "indexed": false,
          "internalType": "uint256",
          "name": "toTokenId",
          "type": "uint256"
        },
        {
          "indexed": true,
          "internalType": "address",
          "name": "fromAddress",
          "type": "address"
        },
        {
          "indexed": true,
          "internalType": "address",
          "name": "toAddress",
          "type": "address"
        }
      ],
      "name": "ConsecutiveTransfer",
      "type": "event"
    },
    {
      "anonymous": false,
      "inputs": [
        {
          "indexed": true,
          "internalType": "address",
          "name": "delegator",
          "type": "address"
        },
        {
          "indexed": true,
          "internalType": "address",
          "name": "fromDelegate",
          "type": "address"
        },
        {
          "indexed": true,
          "internalType": "address",
          "name": "toDelegate",
          "type": "address"
        }
      ],
      "name": "DelegateChanged",
      "type": "event"
    },
    {
      "anonymous": false,
      "inputs": [
        {
          "indexed": true,
          "internalType": "address",
          "name": "delegate",
          "type": "address"
        },
        {
          "indexed": false,
          "internalType": "uint256",
          "name": "previousVotes",
          "type": "uint256"
        },
        {
          "indexed": false,
          "internalType": "uint256",
          "name": "newVotes",
          "type": "uint256"
        }
      ],
      "name": "DelegateVotesChanged",
      "type": "event"
    },
    {
      "anonymous": false,
      "inputs": [],
      "name": "EIP712DomainChanged",
      "type": "event"
    },
    {
      "anonymous": false,
      "inputs": [
        {
          "indexed": false,
          "internalType": "address",
          "name": "account",
          "type": "address"
        }
      ],
      "name": "Paused",
      "type": "event"
    },
    {
      "anonymous": false,
      "inputs": [
        {
          "indexed": true,
          "internalType": "address",
          "name": "from",
          "type": "address"
        },
        {
          "indexed": true,
          "internalType": "address",
          "name": "to",
          "type": "address"
        },
        {
          "indexed": true,
          "internalType": "uint256",
          "name": "tokenId",
          "type": "uint256"
        }
      ],
      "name": "Transfer",
      "type": "event"
    },
    {
      "anonymous": false,
      "inputs": [
        {
          "indexed": false,
          "internalType": "address",
          "name": "account",
          "type": "address"
        }
      ],
      "name": "Unpaused",
      "type": "event"
    },
    {
      "anonymous": false,
      "inputs": [
        {
          "indexed": false,
          "internalType": "uint96",
          "name": "ret0",
          "type": "uint96"
        }
      ],
      "name": "return$_mintConsecutive",
      "type": "event"
    },
    {
      "anonymous": false,
      "inputs": [
        {
          "indexed": false,
          "internalType": "address",
          "name": "ret0",
          "type": "address"
        }
      ],
      "name": "return$_update",
      "type": "event"
    },
    {
      "anonymous": false,
      "inputs": [
        {
          "indexed": false,
          "internalType": "uint256",
          "name": "ret0",
          "type": "uint256"
        }
      ],
      "name": "return$_useNonce",
      "type": "event"
    },
    {
      "inputs": [],
      "name": "$_EIP712Name",
      "outputs": [
        {
          "internalType": "string",
          "name": "ret0",
          "type": "string"
        }
      ],
      "stateMutability": "view",
      "type": "function"
    },
    {
      "inputs": [],
      "name": "$_EIP712Version",
      "outputs": [
        {
          "internalType": "string",
          "name": "ret0",
          "type": "string"
        }
      ],
      "stateMutability": "view",
      "type": "function"
    },
    {
      "inputs": [
        {
          "internalType": "address",
          "name": "to",
          "type": "address"
        },
        {
          "internalType": "uint256",
          "name": "tokenId",
          "type": "uint256"
        },
        {
          "internalType": "address",
          "name": "auth",
          "type": "address"
        },
        {
          "internalType": "bool",
          "name": "emitEvent",
          "type": "bool"
        }
      ],
      "name": "$_approve",
      "outputs": [],
      "stateMutability": "nonpayable",
      "type": "function"
    },
    {
      "inputs": [
        {
          "internalType": "address",
          "name": "to",
          "type": "address"
        },
        {
          "internalType": "uint256",
          "name": "tokenId",
          "type": "uint256"
        },
        {
          "internalType": "address",
          "name": "auth",
          "type": "address"
        }
      ],
      "name": "$_approve",
      "outputs": [],
      "stateMutability": "nonpayable",
      "type": "function"
    },
    {
      "inputs": [],
      "name": "$_baseURI",
      "outputs": [
        {
          "internalType": "string",
          "name": "ret0",
          "type": "string"
        }
      ],
      "stateMutability": "view",
      "type": "function"
    },
    {
      "inputs": [
        {
          "internalType": "uint256",
          "name": "tokenId",
          "type": "uint256"
        }
      ],
      "name": "$_burn",
      "outputs": [],
      "stateMutability": "nonpayable",
      "type": "function"
    },
    {
      "inputs": [
        {
          "internalType": "address",
          "name": "owner",
          "type": "address"
        },
        {
          "internalType": "address",
          "name": "spender",
          "type": "address"
        },
        {
          "internalType": "uint256",
          "name": "tokenId",
          "type": "uint256"
        }
      ],
      "name": "$_checkAuthorized",
      "outputs": [],
      "stateMutability": "view",
      "type": "function"
    },
    {
      "inputs": [
        {
          "internalType": "address",
          "name": "account",
          "type": "address"
        },
        {
          "internalType": "uint32",
          "name": "pos",
          "type": "uint32"
        }
      ],
      "name": "$_checkpoints",
      "outputs": [
        {
          "components": [
            {
              "internalType": "uint48",
              "name": "_key",
              "type": "uint48"
            },
            {
              "internalType": "uint208",
              "name": "_value",
              "type": "uint208"
            }
          ],
          "internalType": "struct Checkpoints.Checkpoint208",
          "name": "ret0",
          "type": "tuple"
        }
      ],
      "stateMutability": "view",
      "type": "function"
    },
    {
      "inputs": [],
      "name": "$_contextSuffixLength",
      "outputs": [
        {
          "internalType": "uint256",
          "name": "ret0",
          "type": "uint256"
        }
      ],
      "stateMutability": "view",
      "type": "function"
    },
    {
      "inputs": [
        {
          "internalType": "address",
          "name": "account",
          "type": "address"
        },
        {
          "internalType": "address",
          "name": "delegatee",
          "type": "address"
        }
      ],
      "name": "$_delegate",
      "outputs": [],
      "stateMutability": "nonpayable",
      "type": "function"
    },
    {
      "inputs": [],
      "name": "$_domainSeparatorV4",
      "outputs": [
        {
          "internalType": "bytes32",
          "name": "ret0",
          "type": "bytes32"
        }
      ],
      "stateMutability": "view",
      "type": "function"
    },
    {
      "inputs": [],
      "name": "$_firstConsecutiveId",
      "outputs": [
        {
          "internalType": "uint96",
          "name": "ret0",
          "type": "uint96"
        }
      ],
      "stateMutability": "view",
      "type": "function"
    },
    {
      "inputs": [
        {
          "internalType": "uint256",
          "name": "tokenId",
          "type": "uint256"
        }
      ],
      "name": "$_getApproved",
      "outputs": [
        {
          "internalType": "address",
          "name": "ret0",
          "type": "address"
        }
      ],
      "stateMutability": "view",
      "type": "function"
    },
    {
      "inputs": [],
      "name": "$_getTotalSupply",
      "outputs": [
        {
          "internalType": "uint256",
          "name": "ret0",
          "type": "uint256"
        }
      ],
      "stateMutability": "view",
      "type": "function"
    },
    {
      "inputs": [
        {
          "internalType": "address",
          "name": "account",
          "type": "address"
        }
      ],
      "name": "$_getVotingUnits",
      "outputs": [
        {
          "internalType": "uint256",
          "name": "ret0",
          "type": "uint256"
        }
      ],
      "stateMutability": "view",
      "type": "function"
    },
    {
      "inputs": [
        {
          "internalType": "bytes32",
          "name": "structHash",
          "type": "bytes32"
        }
      ],
      "name": "$_hashTypedDataV4",
      "outputs": [
        {
          "internalType": "bytes32",
          "name": "ret0",
          "type": "bytes32"
        }
      ],
      "stateMutability": "view",
      "type": "function"
    },
    {
      "inputs": [
        {
          "internalType": "address",
          "name": "account",
          "type": "address"
        },
        {
          "internalType": "uint128",
          "name": "amount",
          "type": "uint128"
        }
      ],
      "name": "$_increaseBalance",
      "outputs": [],
      "stateMutability": "nonpayable",
      "type": "function"
    },
    {
      "inputs": [
        {
          "internalType": "address",
          "name": "owner",
          "type": "address"
        },
        {
          "internalType": "address",
          "name": "spender",
          "type": "address"
        },
        {
          "internalType": "uint256",
          "name": "tokenId",
          "type": "uint256"
        }
      ],
      "name": "$_isAuthorized",
      "outputs": [
        {
          "internalType": "bool",
          "name": "ret0",
          "type": "bool"
        }
      ],
      "stateMutability": "view",
      "type": "function"
    },
    {
      "inputs": [],
      "name": "$_maxBatchSize",
      "outputs": [
        {
          "internalType": "uint96",
          "name": "ret0",
          "type": "uint96"
        }
      ],
      "stateMutability": "view",
      "type": "function"
    },
    {
      "inputs": [
        {
          "internalType": "address",
          "name": "to",
          "type": "address"
        },
        {
          "internalType": "uint256",
          "name": "tokenId",
          "type": "uint256"
        }
      ],
      "name": "$_mint",
      "outputs": [],
      "stateMutability": "nonpayable",
      "type": "function"
    },
    {
      "inputs": [
        {
          "internalType": "address",
          "name": "to",
          "type": "address"
        },
        {
          "internalType": "uint96",
          "name": "batchSize",
          "type": "uint96"
        }
      ],
      "name": "$_mintConsecutive",
      "outputs": [
        {
          "internalType": "uint96",
          "name": "ret0",
          "type": "uint96"
        }
      ],
      "stateMutability": "nonpayable",
      "type": "function"
    },
    {
      "inputs": [
        {
          "internalType": "address",
          "name": "from",
          "type": "address"
        },
        {
          "internalType": "address",
          "name": "to",
          "type": "address"
        },
        {
          "internalType": "uint256",
          "name": "amount",
          "type": "uint256"
        }
      ],
      "name": "$_moveDelegateVotes",
      "outputs": [],
      "stateMutability": "nonpayable",
      "type": "function"
    },
    {
      "inputs": [],
      "name": "$_msgData",
      "outputs": [
        {
          "internalType": "bytes",
          "name": "ret0",
          "type": "bytes"
        }
      ],
      "stateMutability": "view",
      "type": "function"
    },
    {
      "inputs": [],
      "name": "$_msgSender",
      "outputs": [
        {
          "internalType": "address",
          "name": "ret0",
          "type": "address"
        }
      ],
      "stateMutability": "view",
      "type": "function"
    },
    {
      "inputs": [
        {
          "internalType": "address",
          "name": "account",
          "type": "address"
        }
      ],
      "name": "$_numCheckpoints",
      "outputs": [
        {
          "internalType": "uint32",
          "name": "ret0",
          "type": "uint32"
        }
      ],
      "stateMutability": "view",
      "type": "function"
    },
    {
      "inputs": [
        {
          "internalType": "uint256",
          "name": "tokenId",
          "type": "uint256"
        }
      ],
      "name": "$_ownerOf",
      "outputs": [
        {
          "internalType": "address",
          "name": "ret0",
          "type": "address"
        }
      ],
      "stateMutability": "view",
      "type": "function"
    },
    {
      "inputs": [],
      "name": "$_pause",
      "outputs": [],
      "stateMutability": "nonpayable",
      "type": "function"
    },
    {
      "inputs": [],
      "name": "$_requireNotPaused",
      "outputs": [],
      "stateMutability": "view",
      "type": "function"
    },
    {
      "inputs": [
        {
          "internalType": "uint256",
          "name": "tokenId",
          "type": "uint256"
        }
      ],
      "name": "$_requireOwned",
      "outputs": [
        {
          "internalType": "address",
          "name": "ret0",
          "type": "address"
        }
      ],
      "stateMutability": "view",
      "type": "function"
    },
    {
      "inputs": [],
      "name": "$_requirePaused",
      "outputs": [],
      "stateMutability": "view",
      "type": "function"
    },
    {
      "inputs": [
        {
          "internalType": "address",
          "name": "to",
          "type": "address"
        },
        {
          "internalType": "uint256",
          "name": "tokenId",
          "type": "uint256"
        },
        {
          "internalType": "bytes",
          "name": "data",
          "type": "bytes"
        }
      ],
      "name": "$_safeMint",
      "outputs": [],
      "stateMutability": "nonpayable",
      "type": "function"
    },
    {
      "inputs": [
        {
          "internalType": "address",
          "name": "to",
          "type": "address"
        },
        {
          "internalType": "uint256",
          "name": "tokenId",
          "type": "uint256"
        }
      ],
      "name": "$_safeMint",
      "outputs": [],
      "stateMutability": "nonpayable",
      "type": "function"
    },
    {
      "inputs": [
        {
          "internalType": "address",
          "name": "from",
          "type": "address"
        },
        {
          "internalType": "address",
          "name": "to",
          "type": "address"
        },
        {
          "internalType": "uint256",
          "name": "tokenId",
          "type": "uint256"
        },
        {
          "internalType": "bytes",
          "name": "data",
          "type": "bytes"
        }
      ],
      "name": "$_safeTransfer",
      "outputs": [],
      "stateMutability": "nonpayable",
      "type": "function"
    },
    {
      "inputs": [
        {
          "internalType": "address",
          "name": "from",
          "type": "address"
        },
        {
          "internalType": "address",
          "name": "to",
          "type": "address"
        },
        {
          "internalType": "uint256",
          "name": "tokenId",
          "type": "uint256"
        }
      ],
      "name": "$_safeTransfer",
      "outputs": [],
      "stateMutability": "nonpayable",
      "type": "function"
    },
    {
      "inputs": [
        {
          "internalType": "address",
          "name": "owner",
          "type": "address"
        },
        {
          "internalType": "address",
          "name": "operator",
          "type": "address"
        },
        {
          "internalType": "bool",
          "name": "approved",
          "type": "bool"
        }
      ],
      "name": "$_setApprovalForAll",
      "outputs": [],
      "stateMutability": "nonpayable",
      "type": "function"
    },
    {
      "inputs": [
        {
          "internalType": "address",
          "name": "from",
          "type": "address"
        },
        {
          "internalType": "address",
          "name": "to",
          "type": "address"
        },
        {
          "internalType": "uint256",
          "name": "tokenId",
          "type": "uint256"
        }
      ],
      "name": "$_transfer",
      "outputs": [],
      "stateMutability": "nonpayable",
      "type": "function"
    },
    {
      "inputs": [
        {
          "internalType": "address",
          "name": "from",
          "type": "address"
        },
        {
          "internalType": "address",
          "name": "to",
          "type": "address"
        },
        {
          "internalType": "uint256",
          "name": "amount",
          "type": "uint256"
        }
      ],
      "name": "$_transferVotingUnits",
      "outputs": [],
      "stateMutability": "nonpayable",
      "type": "function"
    },
    {
      "inputs": [],
      "name": "$_unpause",
      "outputs": [],
      "stateMutability": "nonpayable",
      "type": "function"
    },
    {
      "inputs": [
        {
          "internalType": "address",
          "name": "to",
          "type": "address"
        },
        {
          "internalType": "uint256",
          "name": "tokenId",
          "type": "uint256"
        },
        {
          "internalType": "address",
          "name": "auth",
          "type": "address"
        }
      ],
      "name": "$_update",
      "outputs": [
        {
          "internalType": "address",
          "name": "ret0",
          "type": "address"
        }
      ],
      "stateMutability": "nonpayable",
      "type": "function"
    },
    {
      "inputs": [
        {
          "internalType": "address",
          "name": "owner",
          "type": "address"
        },
        {
          "internalType": "uint256",
          "name": "nonce",
          "type": "uint256"
        }
      ],
      "name": "$_useCheckedNonce",
      "outputs": [],
      "stateMutability": "nonpayable",
      "type": "function"
    },
    {
      "inputs": [
        {
          "internalType": "address",
          "name": "owner",
          "type": "address"
        }
      ],
      "name": "$_useNonce",
      "outputs": [
        {
          "internalType": "uint256",
          "name": "ret0",
          "type": "uint256"
        }
      ],
      "stateMutability": "nonpayable",
      "type": "function"
    },
    {
      "inputs": [
        {
          "internalType": "uint256",
          "name": "timepoint",
          "type": "uint256"
        }
      ],
      "name": "$_validateTimepoint",
      "outputs": [
        {
          "internalType": "uint48",
          "name": "ret0",
          "type": "uint48"
        }
      ],
      "stateMutability": "view",
      "type": "function"
    },
    {
      "inputs": [],
      "name": "CLOCK_MODE",
      "outputs": [
        {
          "internalType": "string",
          "name": "",
          "type": "string"
        }
      ],
      "stateMutability": "view",
      "type": "function"
    },
    {
      "inputs": [],
      "name": "__hh_exposed_bytecode_marker",
      "outputs": [
        {
          "internalType": "bytes32",
          "name": "",
          "type": "bytes32"
        }
      ],
      "stateMutability": "view",
      "type": "function"
    },
    {
      "inputs": [
        {
          "internalType": "address",
          "name": "to",
          "type": "address"
        },
        {
          "internalType": "uint256",
          "name": "tokenId",
          "type": "uint256"
        }
      ],
      "name": "approve",
      "outputs": [],
      "stateMutability": "nonpayable",
      "type": "function"
    },
    {
      "inputs": [
        {
          "internalType": "address",
          "name": "owner",
          "type": "address"
        }
      ],
      "name": "balanceOf",
      "outputs": [
        {
          "internalType": "uint256",
          "name": "",
          "type": "uint256"
        }
      ],
      "stateMutability": "view",
      "type": "function"
    },
    {
      "inputs": [],
      "name": "clock",
      "outputs": [
        {
          "internalType": "uint48",
          "name": "",
          "type": "uint48"
        }
      ],
      "stateMutability": "view",
      "type": "function"
    },
    {
      "inputs": [
        {
          "internalType": "address",
          "name": "delegatee",
          "type": "address"
        }
      ],
      "name": "delegate",
      "outputs": [],
      "stateMutability": "nonpayable",
      "type": "function"
    },
    {
      "inputs": [
        {
          "internalType": "address",
          "name": "delegatee",
          "type": "address"
        },
        {
          "internalType": "uint256",
          "name": "nonce",
          "type": "uint256"
        },
        {
          "internalType": "uint256",
          "name": "expiry",
          "type": "uint256"
        },
        {
          "internalType": "uint8",
          "name": "v",
          "type": "uint8"
        },
        {
          "internalType": "bytes32",
          "name": "r",
          "type": "bytes32"
        },
        {
          "internalType": "bytes32",
          "name": "s",
          "type": "bytes32"
        }
      ],
      "name": "delegateBySig",
      "outputs": [],
      "stateMutability": "nonpayable",
      "type": "function"
    },
    {
      "inputs": [
        {
          "internalType": "address",
          "name": "account",
          "type": "address"
        }
      ],
      "name": "delegates",
      "outputs": [
        {
          "internalType": "address",
          "name": "",
          "type": "address"
        }
      ],
      "stateMutability": "view",
      "type": "function"
    },
    {
      "inputs": [],
      "name": "eip712Domain",
      "outputs": [
        {
          "internalType": "bytes1",
          "name": "fields",
          "type": "bytes1"
        },
        {
          "internalType": "string",
          "name": "name",
          "type": "string"
        },
        {
          "internalType": "string",
          "name": "version",
          "type": "string"
        },
        {
          "internalType": "uint256",
          "name": "chainId",
          "type": "uint256"
        },
        {
          "internalType": "address",
          "name": "verifyingContract",
          "type": "address"
        },
        {
          "internalType": "bytes32",
          "name": "salt",
          "type": "bytes32"
        },
        {
          "internalType": "uint256[]",
          "name": "extensions",
          "type": "uint256[]"
        }
      ],
      "stateMutability": "view",
      "type": "function"
    },
    {
      "inputs": [
        {
          "internalType": "uint256",
          "name": "tokenId",
          "type": "uint256"
        }
      ],
      "name": "getApproved",
      "outputs": [
        {
          "internalType": "address",
          "name": "",
          "type": "address"
        }
      ],
      "stateMutability": "view",
      "type": "function"
    },
    {
      "inputs": [
        {
          "internalType": "uint256",
          "name": "timepoint",
          "type": "uint256"
        }
      ],
      "name": "getPastTotalSupply",
      "outputs": [
        {
          "internalType": "uint256",
          "name": "",
          "type": "uint256"
        }
      ],
      "stateMutability": "view",
      "type": "function"
    },
    {
      "inputs": [
        {
          "internalType": "address",
          "name": "account",
          "type": "address"
        },
        {
          "internalType": "uint256",
          "name": "timepoint",
          "type": "uint256"
        }
      ],
      "name": "getPastVotes",
      "outputs": [
        {
          "internalType": "uint256",
          "name": "",
          "type": "uint256"
        }
      ],
      "stateMutability": "view",
      "type": "function"
    },
    {
      "inputs": [
        {
          "internalType": "address",
          "name": "account",
          "type": "address"
        }
      ],
      "name": "getVotes",
      "outputs": [
        {
          "internalType": "uint256",
          "name": "",
          "type": "uint256"
        }
      ],
      "stateMutability": "view",
      "type": "function"
    },
    {
      "inputs": [
        {
          "internalType": "address",
          "name": "owner",
          "type": "address"
        },
        {
          "internalType": "address",
          "name": "operator",
          "type": "address"
        }
      ],
      "name": "isApprovedForAll",
      "outputs": [
        {
          "internalType": "bool",
          "name": "",
          "type": "bool"
        }
      ],
      "stateMutability": "view",
      "type": "function"
    },
    {
      "inputs": [],
      "name": "name",
      "outputs": [
        {
          "internalType": "string",
          "name": "",
          "type": "string"
        }
      ],
      "stateMutability": "view",
      "type": "function"
    },
    {
      "inputs": [
        {
          "internalType": "address",
          "name": "owner",
          "type": "address"
        }
      ],
      "name": "nonces",
      "outputs": [
        {
          "internalType": "uint256",
          "name": "",
          "type": "uint256"
        }
      ],
      "stateMutability": "view",
      "type": "function"
    },
    {
      "inputs": [
        {
          "internalType": "uint256",
          "name": "tokenId",
          "type": "uint256"
        }
      ],
      "name": "ownerOf",
      "outputs": [
        {
          "internalType": "address",
          "name": "",
          "type": "address"
        }
      ],
      "stateMutability": "view",
      "type": "function"
    },
    {
      "inputs": [],
      "name": "paused",
      "outputs": [
        {
          "internalType": "bool",
          "name": "",
          "type": "bool"
        }
      ],
      "stateMutability": "view",
      "type": "function"
    },
    {
      "inputs": [
        {
          "internalType": "address",
          "name": "from",
          "type": "address"
        },
        {
          "internalType": "address",
          "name": "to",
          "type": "address"
        },
        {
          "internalType": "uint256",
          "name": "tokenId",
          "type": "uint256"
        }
      ],
      "name": "safeTransferFrom",
      "outputs": [],
      "stateMutability": "nonpayable",
      "type": "function"
    },
    {
      "inputs": [
        {
          "internalType": "address",
          "name": "from",
          "type": "address"
        },
        {
          "internalType": "address",
          "name": "to",
          "type": "address"
        },
        {
          "internalType": "uint256",
          "name": "tokenId",
          "type": "uint256"
        },
        {
          "internalType": "bytes",
          "name": "data",
          "type": "bytes"
        }
      ],
      "name": "safeTransferFrom",
      "outputs": [],
      "stateMutability": "nonpayable",
      "type": "function"
    },
    {
      "inputs": [
        {
          "internalType": "address",
          "name": "operator",
          "type": "address"
        },
        {
          "internalType": "bool",
          "name": "approved",
          "type": "bool"
        }
      ],
      "name": "setApprovalForAll",
      "outputs": [],
      "stateMutability": "nonpayable",
      "type": "function"
    },
    {
      "inputs": [
        {
          "internalType": "bytes4",
          "name": "interfaceId",
          "type": "bytes4"
        }
      ],
      "name": "supportsInterface",
      "outputs": [
        {
          "internalType": "bool",
          "name": "",
          "type": "bool"
        }
      ],
      "stateMutability": "view",
      "type": "function"
    },
    {
      "inputs": [],
      "name": "symbol",
      "outputs": [
        {
          "internalType": "string",
          "name": "",
          "type": "string"
        }
      ],
      "stateMutability": "view",
      "type": "function"
    },
    {
      "inputs": [
        {
          "internalType": "uint256",
          "name": "tokenId",
          "type": "uint256"
        }
      ],
      "name": "tokenURI",
      "outputs": [
        {
          "internalType": "string",
          "name": "",
          "type": "string"
        }
      ],
      "stateMutability": "view",
      "type": "function"
    },
    {
      "inputs": [
        {
          "internalType": "address",
          "name": "from",
          "type": "address"
        },
        {
          "internalType": "address",
          "name": "to",
          "type": "address"
        },
        {
          "internalType": "uint256",
          "name": "tokenId",
          "type": "uint256"
        }
      ],
      "name": "transferFrom",
      "outputs": [],
      "stateMutability": "nonpayable",
      "type": "function"
    },
    {
      "stateMutability": "payable",
      "type": "receive"
    }
  ],
  "bytecode": "0x6101806040526040516200498a3803806200498a833981016040819052620000279162000dc9565b85858585858585604051806040016040528060018152602001603160f81b8152508787815f90816200005a919062000f3b565b50600162000069828262000f3b565b50506008805460ff1916905550620000838260096200020b565b610120526200009481600a6200020b565b61014052815160208084019190912060e052815190820120610100524660a0526200012160e05161010051604080517f8b73c3c69bb8fe3d512ecc4cf759cc79239f7b179b0ffacaa9a75d522b39400f60208201529081019290925260608201524660808201523060a08201525f9060c00160405160208183030381529060405280519060200120905090565b60805250503060c0526001600160601b038416610160525f5b835181101562000197576200018e8482815181106200015d576200015d62001007565b60200260200101518583815181106200017a576200017a62001007565b60200260200101516200024360201b60201c565b6001016200013a565b505f5b8251811015620001f857620001ee838281518110620001bd57620001bd62001007565b6020026020010151838381518110620001da57620001da62001007565b6020026020010151620002bd60201b60201c565b506001016200019a565b5050505050505050505050505062001130565b5f6020835110156200022a57620002228362000406565b90506200023d565b8162000237848262000f3b565b5060ff90505b92915050565b6001600160a01b038281165f818152600c602052604080822080548686166001600160a01b0319821681179092559151919094169392849290917f3134e8a2e6d97e929a7e54011ea5485d7d196dd5f0ba4d4ef95803e8e3fc257f9190a4620002b88183620002b28662000448565b62000454565b505050565b5f80620002c9620005bc565b90506001600160601b03831615620003ff57303b15620002fc576040516329cfc83160e11b815260040160405180910390fd5b6001600160a01b0384166200032b57604051633250574960e11b81525f60048201526024015b60405180910390fd5b6113886001600160601b0384168110156200036c576040516308f58e5760e41b81526001600160601b03851660048201526024810182905260440162000322565b5f60016200037b86856200102f565b62000387919062001059565b90506200039760068288620005f4565b50620003af9050866001600160601b03871662000610565b6040516001600160601b0382811682526001600160a01b038816915f918616907fdeaa91b6123d068f5821d0fb0678463d1a8a6079fe8af5de3ce5e896dcf9133d9060200160405180910390a450505b9392505050565b5f80829050601f8151111562000433578260405163305a27a960e01b81526004016200032291906200107c565b80516200044082620010b0565b179392505050565b5f6200023d8262000620565b816001600160a01b0316836001600160a01b0316141580156200047657505f81115b15620002b8576001600160a01b038316156200051d576001600160a01b0383165f908152600d6020908152604082208291620004c9919062000667901b6200144c17620004c38662000674565b620006ad565b6001600160d01b031691506001600160d01b03169150846001600160a01b03165f805160206200496a833981519152838360405162000512929190918252602082015260400190565b60405180910390a250505b6001600160a01b03821615620002b8576001600160a01b0382165f908152600d6020908152604082208291620005649190620006dc901b6200145717620004c38662000674565b6001600160d01b031691506001600160d01b03169150836001600160a01b03165f805160206200496a8339815191528383604051620005ad929190918252602082015260400190565b60405180910390a25050505050565b5f8080620005cb6006620006e9565b509150915081620005e05761016051620005ed565b620005ed8160016200102f565b9250505090565b5f806200060385858562000765565b915091505b935093915050565b6200061c8282620008e8565b5050565b5f6001600160a01b0382166200064c576040516322718ad960e21b81525f600482015260240162000322565b506001600160a01b03165f9081526003602052604090205490565b5f620003ff8284620010d4565b5f6001600160d01b03821115620006a9576040516306dfcc6560e41b815260d060048201526024810183905260440162000322565b5090565b5f8062000603620006bd62000924565b620006d3620006cc8862000934565b868860201c565b87919062000973565b5f620003ff8284620010f7565b80545f908190819080820362000709575f805f935093509350506200075e565b5f62000729866200071c6001856200111a565b5f91825260209091200190565b54600195506001600160601b03811694506c0100000000000000000000000090046001600160a01b031692506200075e915050565b9193909250565b82545f908190801562000883575f62000785876200071c6001856200111a565b80549091506001600160601b03808216916c0100000000000000000000000090046001600160a01b0316908816821115620007d357604051632520601d60e01b815260040160405180910390fd5b876001600160601b0316826001600160601b0316036200081a5782546001600160601b03166c010000000000000000000000006001600160a01b0389160217835562000874565b604080518082019091526001600160601b03808a1682526001600160a01b03808a1660208085019182528d54600181018f555f8f815291909120945191519092166c01000000000000000000000000029216919091179101555b94508593506200060892505050565b5050604080518082019091526001600160601b0380851682526001600160a01b0380851660208085019182528854600181018a555f8a8152918220955192519093166c0100000000000000000000000002919093161792019190915590508162000608565b6001600160a01b0382165f90815260036020526040902080546001600160801b0383160190556200061c5f836001600160801b03841662000982565b5f6200092f62000a13565b905090565b80545f9080156200096b5762000951836200071c6001846200111a565b54660100000000000090046001600160d01b0316620003ff565b5f9392505050565b5f806200060385858562000a1f565b6001600160a01b038316620009b157620009ae600e62001457620006dc60201b17620004c38462000674565b50505b6001600160a01b038216620009e057620009dd600e6200144c6200066760201b17620004c38462000674565b50505b6001600160a01b038381165f908152600c6020526040808220548584168352912054620002b89291821691168362000454565b5f6200092f4362000b83565b82545f908190801562000b25575f62000a3f876200071c6001856200111a565b805490915065ffffffffffff80821691660100000000000090046001600160d01b031690881682111562000a8657604051632520601d60e01b815260040160405180910390fd5b8765ffffffffffff168265ffffffffffff160362000ac457825465ffffffffffff1666010000000000006001600160d01b0389160217835562000874565b6040805180820190915265ffffffffffff808a1682526001600160d01b03808a1660208085019182528d54600181018f555f8f8152919091209451915190921666010000000000000292169190911791015594508593506200060892505050565b50506040805180820190915265ffffffffffff80851682526001600160d01b0380851660208085019182528854600181018a555f8a815291822095519251909316660100000000000002919093161792019190915590508162000608565b5f65ffffffffffff821115620006a9576040516306dfcc6560e41b8152603060048201526024810183905260440162000322565b634e487b7160e01b5f52604160045260245ffd5b604051601f8201601f191681016001600160401b038111828210171562000bf65762000bf662000bb7565b604052919050565b5f5b8381101562000c1a57818101518382015260200162000c00565b50505f910152565b5f82601f83011262000c32575f80fd5b81516001600160401b0381111562000c4e5762000c4e62000bb7565b62000c63601f8201601f191660200162000bcb565b81815284602083860101111562000c78575f80fd5b62000c8b82602083016020870162000bfe565b949350505050565b80516001600160601b038116811462000caa575f80fd5b919050565b5f6001600160401b0382111562000cca5762000cca62000bb7565b5060051b60200190565b5f82601f83011262000ce4575f80fd5b8151602062000cfd62000cf78362000caf565b62000bcb565b8083825260208201915060208460051b87010193508684111562000d1f575f80fd5b602086015b8481101562000d525780516001600160a01b038116811462000d44575f80fd5b835291830191830162000d24565b509695505050505050565b5f82601f83011262000d6d575f80fd5b8151602062000d8062000cf78362000caf565b8083825260208201915060208460051b87010193508684111562000da2575f80fd5b602086015b8481101562000d525762000dbb8162000c93565b835291830191830162000da7565b5f805f805f8060c0878903121562000ddf575f80fd5b86516001600160401b038082111562000df6575f80fd5b62000e048a838b0162000c22565b9750602089015191508082111562000e1a575f80fd5b62000e288a838b0162000c22565b965062000e3860408a0162000c93565b9550606089015191508082111562000e4e575f80fd5b62000e5c8a838b0162000cd4565b9450608089015191508082111562000e72575f80fd5b62000e808a838b0162000cd4565b935060a089015191508082111562000e96575f80fd5b5062000ea589828a0162000d5d565b9150509295509295509295565b600181811c9082168062000ec757607f821691505b60208210810362000ee657634e487b7160e01b5f52602260045260245ffd5b50919050565b601f821115620002b857805f5260205f20601f840160051c8101602085101562000f135750805b601f840160051c820191505b8181101562000f34575f815560010162000f1f565b5050505050565b81516001600160401b0381111562000f575762000f5762000bb7565b62000f6f8162000f68845462000eb2565b8462000eec565b602080601f83116001811462000fa5575f841562000f8d5750858301515b5f19600386901b1c1916600185901b17855562000fff565b5f85815260208120601f198616915b8281101562000fd55788860151825594840194600190910190840162000fb4565b508582101562000ff357878501515f19600388901b60f8161c191681555b505060018460011b0185555b505050505050565b634e487b7160e01b5f52603260045260245ffd5b634e487b7160e01b5f52601160045260245ffd5b6001600160601b038181168382160190808211156200105257620010526200101b565b5092915050565b6001600160601b038281168282160390808211156200105257620010526200101b565b602081525f82518060208401526200109c81604085016020870162000bfe565b601f01601f19169190910160400192915050565b8051602080830151919081101562000ee6575f1960209190910360031b1b16919050565b6001600160d01b038281168282160390808211156200105257620010526200101b565b6001600160d01b038181168382160190808211156200105257620010526200101b565b818103818111156200023d576200023d6200101b565b60805160a05160c05160e051610100516101205161014051610160516137d06200119a5f395f8181610b68015281816125d9015261272f01525f61155501525f61152801525f61195901525f61193101525f61188c01525f6118b601525f6118e001526137d05ff3fe6080604052600436106103d6575f3560e01c80636b4ac502116101ff578063b88d4fde11610113578063d261af54116100a8578063e3cb9a4a11610078578063e3cb9a4a14610b8c578063e42b0f4814610bab578063e985e9c514610bca578063efb43b0714610be9578063f85810a714610c08575f80fd5b8063d261af5414610ae8578063d41ecac314610b07578063d848383414610b3b578063e203000d14610b5a575f80fd5b8063c6707201116100e3578063c6707201146107b6578063c87b56dd14610a8b578063cc461d6214610aaa578063cfeea0d414610ac9575f80fd5b8063b88d4fde14610a06578063b895757b14610a25578063c26838c514610a4d578063c3cda52014610a6c575f80fd5b806390104b84116101945780639ff2f02d116101645780639ff2f02d14610976578063a22cb46514610995578063a2373a82146109b4578063b0a1fefa146109d3578063b3068e41146109e7575f80fd5b806390104b841461091057806391ddadf41461092f57806395d89b41146109435780639ab24eb014610957575f80fd5b80637ecebe00116101cf5780637ecebe001461088257806383812241146108b657806384b0196e146108ca5780638e539e8c146108f1575f80fd5b80636b4ac5021461080657806370a0823114610825578063733555ec146108445780637a7be03614610863575f80fd5b8063342db739116102f6578063587cde1e1161028b5780635f8d5e741161025b5780635f8d5e741461075757806361f5b5301461076b5780636352211e146107b657806367354a84146107d55780636884d58b146107e7575f80fd5b8063587cde1e146106cb5780635b28e1e8146107025780635c19a95c146107215780635c975abb14610740575f80fd5b8063458ee002116102c6578063458ee002146106655780634bf5d7e914610684578063506a6f0c14610698578063535de334146106b7575f80fd5b8063342db739146105e35780633451b14d146106085780633a46b1a81461062757806342842e0e14610646575f80fd5b8063174ccd821161036c5780632e8fbee51161033c5780632e8fbee51461054d57806330f3b0b51461057a57806330ff12bf1461059957806332cadf3c146105cf575f80fd5b8063174ccd82146104f457806323b872dd146105085780632904df29146105275780632c85c6e214610539575f80fd5b8063095ea7b3116103a7578063095ea7b31461048e578063113efe1a146104ad5780631164d13b146104cc578063161e977d146104e0575f80fd5b8062cae220146103e157806301ffc9a71461040257806306fdde0314610436578063081812fc14610457575f80fd5b366103dd57005b5f80fd5b3480156103ec575f80fd5b506104006103fb366004612ff8565b610c1c565b005b34801561040d575f80fd5b5061042161041c36600461303e565b610c2a565b60405190151581526020015b60405180910390f35b348015610441575f80fd5b5061044a610c7b565b60405161042d91906130a6565b348015610462575f80fd5b506104766104713660046130b8565b610d0a565b6040516001600160a01b03909116815260200161042d565b348015610499575f80fd5b506104006104a83660046130cf565b610d31565b3480156104b8575f80fd5b506104006104c73660046130f7565b610d3c565b3480156104d7575f80fd5b5061044a610d46565b3480156104eb575f80fd5b5061044a610d55565b3480156104ff575f80fd5b5061044a610d6b565b348015610513575f80fd5b50610400610522366004613137565b610d75565b348015610532575f80fd5b5033610476565b348015610544575f80fd5b50610400610e03565b348015610558575f80fd5b5061056c610567366004613170565b610e0d565b60405190815260200161042d565b348015610585575f80fd5b50610400610594366004613198565b610e6d565b3480156105a4575f80fd5b506105b86105b33660046130b8565b610e79565b60405165ffffffffffff909116815260200161042d565b3480156105da575f80fd5b5061044a610e83565b3480156105ee575f80fd5b5061056c6e1a185c991a185d0b595e1c1bdcd959608a1b81565b348015610613575f80fd5b506104766106223660046130b8565b610ec0565b348015610632575f80fd5b5061056c6106413660046130cf565b610edc565b348015610651575f80fd5b50610400610660366004613137565b610f16565b348015610670575f80fd5b5061047661067f3660046130b8565b610f35565b34801561068f575f80fd5b5061044a610f3f565b3480156106a3575f80fd5b5061056c6106b23660046130b8565b610fb7565b3480156106c2575f80fd5b5061056c610fc1565b3480156106d6575f80fd5b506104766106e5366004613170565b6001600160a01b039081165f908152600c60205260409020541690565b34801561070d575f80fd5b5061040061071c366004613137565b610fca565b34801561072c575f80fd5b5061040061073b366004613170565b610fd5565b34801561074b575f80fd5b5060085460ff16610421565b348015610762575f80fd5b5061056c610fe0565b348015610776575f80fd5b5061078a6107853660046131e2565b610fe9565b60408051825165ffffffffffff1681526020928301516001600160d01b0316928101929092520161042d565b3480156107c1575f80fd5b506104766107d03660046130b8565b61100d565b3480156107e0575f80fd5b505f61056c565b3480156107f2575f80fd5b50610400610801366004613137565b611017565b348015610811575f80fd5b506104006108203660046130cf565b611022565b348015610830575f80fd5b5061056c61083f366004613170565b61102c565b34801561084f575f80fd5b5061040061085e366004613259565b611071565b34801561086e575f80fd5b5061042161087d366004613137565b6110b9565b34801561088d575f80fd5b5061056c61089c366004613170565b6001600160a01b03165f908152600b602052604090205490565b3480156108c1575f80fd5b506104006110cd565b3480156108d5575f80fd5b506108de6110d5565b60405161042d97969594939291906132c3565b3480156108fc575f80fd5b5061056c61090b3660046130b8565b611117565b34801561091b575f80fd5b5061040061092a36600461335a565b61113b565b34801561093a575f80fd5b506105b8611146565b34801561094e575f80fd5b5061044a61114f565b348015610962575f80fd5b5061056c610971366004613170565b61115e565b348015610981575f80fd5b50610400610990366004613393565b61117e565b3480156109a0575f80fd5b506104006109af3660046133e9565b6111be565b3480156109bf575f80fd5b506104006109ce3660046130b8565b6111c9565b3480156109de575f80fd5b506104006111d5565b3480156109f2575f80fd5b5061056c610a01366004613170565b6111dd565b348015610a11575f80fd5b50610400610a20366004613425565b6111e7565b348015610a30575f80fd5b506113885b6040516001600160601b03909116815260200161042d565b348015610a58575f80fd5b50610a35610a673660046134fa565b6111ff565b348015610a77575f80fd5b50610400610a8636600461352f565b61124f565b348015610a96575f80fd5b5061044a610aa53660046130b8565b61130b565b348015610ab5575f80fd5b50610400610ac43660046130cf565b61137b565b348015610ad4575f80fd5b50610400610ae336600461358a565b611385565b348015610af3575f80fd5b50610400610b023660046130cf565b611390565b348015610b12575f80fd5b50610b26610b21366004613170565b61139a565b60405163ffffffff909116815260200161042d565b348015610b46575f80fd5b50610400610b55366004613137565b6113a4565b348015610b65575f80fd5b507f0000000000000000000000000000000000000000000000000000000000000000610a35565b348015610b97575f80fd5b50610476610ba636600461335a565b6113af565b348015610bb6575f80fd5b50610400610bc5366004613137565b611401565b348015610bd5575f80fd5b50610421610be4366004612ff8565b61140c565b348015610bf4575f80fd5b50610400610c03366004613137565b611439565b348015610c13575f80fd5b50610400611444565b610c268282611462565b5050565b5f6001600160e01b031982166380ac58cd60e01b1480610c5a57506001600160e01b03198216635b5e139f60e01b145b80610c7557506301ffc9a760e01b6001600160e01b03198316145b92915050565b60605f8054610c89906135c1565b80601f0160208091040260200160405190810160405280929190818152602001828054610cb5906135c1565b8015610d005780601f10610cd757610100808354040283529160200191610d00565b820191905f5260205f20905b815481529060010190602001808311610ce357829003601f168201915b5050505050905090565b5f610d14826114d3565b505f828152600460205260409020546001600160a01b0316610c75565b610c2682823361150a565b610c268282611517565b6060610d50611521565b905090565b6060610d5060408051602081019091525f815290565b6060610d5061154e565b6001600160a01b038216610da357604051633250574960e11b81525f60048201526024015b60405180910390fd5b5f610daf83833361157b565b9050836001600160a01b0316816001600160a01b031614610dfd576040516364283d7b60e01b81526001600160a01b0380861660048301526024820184905282166044820152606401610d9a565b50505050565b610e0b611587565b565b6001600160a01b0381165f908152600b6020526040812080546001810190915590507f8d5c13b1cd528a3e1895fdc833368c4e3af5391250c736a28e94c4fa59b3cee481604051610e6091815260200190565b60405180910390a1919050565b610dfd848484846115ab565b5f610c75826116af565b60605f368080601f0160208091040260200160405190810160405280939291908181526020018383808284375f9201919091525092949350505050565b5f818152600460205260408120546001600160a01b0316610c75565b5f610f06610ee9836116af565b6001600160a01b0385165f908152600d60205260409020906116fd565b6001600160d01b03169392505050565b610f3083838360405180602001604052805f8152506111e7565b505050565b5f610c75826117ad565b6060610f496117b7565b65ffffffffffff16610f59611146565b65ffffffffffff1614610f7f576040516301bfc1c560e61b815260040160405180910390fd5b5060408051808201909152601d81527f6d6f64653d626c6f636b6e756d6265722666726f6d3d64656661756c74000000602082015290565b5f610c75826117c1565b5f610d506117ed565b610f30838383611806565b33610c268183611462565b5f610d50611880565b604080518082019091525f808252602082015261100683836119a9565b9392505050565b5f610c75826114d3565b610f308383836119dd565b610c268282611a41565b5f6001600160a01b038216611056576040516322718ad960e21b81525f6004820152602401610d9a565b506001600160a01b03165f9081526003602052604090205490565b6110b285858585858080601f0160208091040260200160405190810160405280939291908181526020018383808284375f92019190915250611a9392505050565b5050505050565b5f6110c5848484611a9e565b949350505050565b610e0b611aff565b5f6060805f805f60606110e6611521565b6110ee61154e565b604080515f80825260208201909252600f60f81b9b939a50919850469750309650945092509050565b5f61112c611124836116af565b600e906116fd565b6001600160d01b031692915050565b610f3083838361150a565b5f610d506117b7565b606060018054610c89906135c1565b6001600160a01b0381165f908152600d6020526040812061112c90611b22565b610dfd848484848080601f0160208091040260200160405190810160405280939291908181526020018383808284375f92019190915250611b5992505050565b610c26338383611b70565b6111d281611c0e565b50565b610e0b611c46565b5f610c7582611c98565b6111f2848484610d75565b610dfd3385858585611ca2565b5f61120a8383611dc9565b6040516001600160601b03821681529091507f7a8bfd5fd00523f8302cd69cdf99d84752006f3fe7b006851ec4cdd02fab58ad9060200160405180910390a192915050565b8342111561127357604051632341d78760e11b815260048101859052602401610d9a565b604080517fe48329057bfd03d55e49b547132e39cffd9c1820ad7b9d4c5307691425d15adf60208201526001600160a01b0388169181019190915260608101869052608081018590525f906112ec906112e49060a001604051602081830303815290604052805190602001206117c1565b858585611efc565b90506112f88187611a41565b6113028188611462565b50505050505050565b6060611316826114d3565b505f61132c60408051602081019091525f815290565b90505f81511161134a5760405180602001604052805f815250611006565b8061135484611f28565b6040516020016113659291906135f9565b6040516020818303038152906040529392505050565b610c268282611fb8565b610f30838383611b70565b610c268282612019565b5f610c7582612032565b610f30838383612053565b5f6113bb84848461157b565b6040516001600160a01b03821681529091507ffc55619107f02333de2d9626fe994a6b9d0734bee4722e17698d6fa1b06c52009060200160405180910390a19392505050565b610f3083838361206d565b6001600160a01b039182165f90815260056020908152604080832093909416825291909152205460ff1690565b610f308383836121d1565b610e0b61227e565b5f611006828461363b565b5f6110068284613662565b6001600160a01b038281165f818152600c602052604080822080548686166001600160a01b0319821681179092559151919094169392849290917f3134e8a2e6d97e929a7e54011ea5485d7d196dd5f0ba4d4ef95803e8e3fc257f9190a4610f3081836114ce86611c98565b61206d565b5f806114de836117ad565b90506001600160a01b038116610c7557604051637e27328960e01b815260048101849052602401610d9a565b610f3083838360016115ab565b610c2682826122bb565b6060610d507f000000000000000000000000000000000000000000000000000000000000000060096122f5565b6060610d507f0000000000000000000000000000000000000000000000000000000000000000600a6122f5565b5f6110c584848461239e565b60085460ff1615610e0b5760405163d93c066560e01b815260040160405180910390fd5b80806115bf57506001600160a01b03821615155b15611680575f6115ce846114d3565b90506001600160a01b038316158015906115fa5750826001600160a01b0316816001600160a01b031614155b801561160d575061160b818461140c565b155b156116365760405163a9fbf51f60e01b81526001600160a01b0384166004820152602401610d9a565b811561167e5783856001600160a01b0316826001600160a01b03167f8c5be1e5ebec7d5bd14f71427d1e84f3dd0314c0f7b2291e5b200ac8c7c3b92560405160405180910390a45b505b50505f90815260046020526040902080546001600160a01b0319166001600160a01b0392909216919091179055565b5f806116b9611146565b90508065ffffffffffff1683106116f457604051637669fc0f60e11b81526004810184905265ffffffffffff82166024820152604401610d9a565b611006836123b9565b81545f9081816005811115611759575f611716846123ef565b6117209085613682565b5f8881526020902090915081015465ffffffffffff908116908716101561174957809150611757565b611754816001613695565b92505b505b5f61176687878585612547565b905080156117a05761178a8761177d600184613682565b5f91825260209091200190565b54600160301b90046001600160d01b03166117a2565b5f5b979650505050505050565b5f610c75826125a6565b5f610d50436123b9565b5f610c756117cd611880565b8360405161190160f01b8152600281019290925260228201526042902090565b5f6117f8600e611b22565b6001600160d01b0316905090565b6001600160a01b03831661182d5761182a600e6114576118258461263e565b612671565b50505b6001600160a01b03821661184f5761184c600e61144c6118258461263e565b50505b6001600160a01b038381165f908152600c6020526040808220548584168352912054610f309291821691168361206d565b5f306001600160a01b037f0000000000000000000000000000000000000000000000000000000000000000161480156118d857507f000000000000000000000000000000000000000000000000000000000000000046145b1561190257507f000000000000000000000000000000000000000000000000000000000000000090565b610d50604080517f8b73c3c69bb8fe3d512ecc4cf759cc79239f7b179b0ffacaa9a75d522b39400f60208201527f0000000000000000000000000000000000000000000000000000000000000000918101919091527f000000000000000000000000000000000000000000000000000000000000000060608201524660808201523060a08201525f9060c00160405160208183030381529060405280519060200120905090565b604080518082019091525f80825260208201526001600160a01b0383165f908152600d6020526040902061100690836126a9565b6119e8838383611a9e565b610f30576001600160a01b038316611a1657604051637e27328960e01b815260048101829052602401610d9a565b60405163177e802f60e01b81526001600160a01b038316600482015260248101829052604401610d9a565b6001600160a01b0382165f908152600b60205260409020805460018101909155818114610f30576040516301d4b62360e61b81526001600160a01b038416600482015260248101829052604401610d9a565b6111f28484846121d1565b5f6001600160a01b038316158015906110c55750826001600160a01b0316846001600160a01b03161480611ad75750611ad7848461140c565b806110c55750505f908152600460205260409020546001600160a01b03908116911614919050565b60085460ff16610e0b57604051638dfc202b60e01b815260040160405180910390fd5b80545f908015611b5157611b3b8361177d600184613682565b54600160301b90046001600160d01b0316611006565b5f9392505050565b611b638383611fb8565b610f30335f858585611ca2565b6001600160a01b038216611ba257604051630b61174360e31b81526001600160a01b0383166004820152602401610d9a565b6001600160a01b038381165f81815260056020908152604080832094871680845294825291829020805460ff191686151590811790915591519182527f17307eab39ab6107e8899845ad3d59bd9653f200f220920489ca2b5937696c31910160405180910390a3505050565b5f611c1a5f835f61157b565b90506001600160a01b038116610c2657604051637e27328960e01b815260048101839052602401610d9a565b611c4e611aff565b6008805460ff191690557f5db9ee0a495bf2e6ff9c91a7834c1ba4fdd244a5e8aa4e537bd38aeae4b073aa335b6040516001600160a01b03909116815260200160405180910390a1565b5f610c758261102c565b6001600160a01b0383163b156110b257604051630a85bd0160e11b81526001600160a01b0384169063150b7a0290611ce49088908890879087906004016136a8565b6020604051808303815f875af1925050508015611d1e575060408051601f3d908101601f19168201909252611d1b918101906136e4565b60015b611d85573d808015611d4b576040519150601f19603f3d011682016040523d82523d5f602084013e611d50565b606091505b5080515f03611d7d57604051633250574960e11b81526001600160a01b0385166004820152602401610d9a565b805181602001fd5b6001600160e01b03198116630a85bd0160e11b14611dc157604051633250574960e11b81526001600160a01b0385166004820152602401610d9a565b505050505050565b5f80611dd3612716565b90506001600160601b0383161561100657303b15611e04576040516329cfc83160e11b815260040160405180910390fd5b6001600160a01b038416611e2d57604051633250574960e11b81525f6004820152602401610d9a565b6113886001600160601b038416811015611e6c576040516308f58e5760e41b81526001600160601b038516600482015260248101829052604401610d9a565b5f6001611e7986856136ff565b611e83919061371f565b9050611e9160068288612765565b5050611ea686866001600160601b0316611517565b6040516001600160601b0382811682526001600160a01b038816915f918616907fdeaa91b6123d068f5821d0fb0678463d1a8a6079fe8af5de3ce5e896dcf9133d9060200160405180910390a450509392505050565b5f805f80611f0c88888888612772565b925092509250611f1c828261283a565b50909695505050505050565b60605f611f34836128f2565b60010190505f8167ffffffffffffffff811115611f5357611f53613411565b6040519080825280601f01601f191660200182016040528015611f7d576020820181803683370190505b5090508181016020015b5f19016f181899199a1a9b1b9c1cb0b131b232b360811b600a86061a8153600a8504945084611f8757509392505050565b6001600160a01b038216611fe157604051633250574960e11b81525f6004820152602401610d9a565b5f611fed83835f61157b565b90506001600160a01b03811615610f30576040516339e3563760e11b81525f6004820152602401610d9a565b610c26828260405180602001604052805f815250611b59565b6001600160a01b0381165f908152600d6020526040812054610c75906129c9565b610f3083838360405180602001604052805f815250611a93565b816001600160a01b0316836001600160a01b03161415801561208e57505f81115b15610f30576001600160a01b03831615612130576001600160a01b0383165f908152600d6020526040812081906120cb9061144c6118258661263e565b6001600160d01b031691506001600160d01b03169150846001600160a01b03167fdec2bacdd2f05b59de34da9b523dff8be42e5e38e818c82fdb0bae774387a7248383604051612125929190918252602082015260400190565b60405180910390a250505b6001600160a01b03821615610f30576001600160a01b0382165f908152600d602052604081208190612168906114576118258661263e565b6001600160d01b031691506001600160d01b03169150836001600160a01b03167fdec2bacdd2f05b59de34da9b523dff8be42e5e38e818c82fdb0bae774387a72483836040516121c2929190918252602082015260400190565b60405180910390a25050505050565b6001600160a01b0382166121fa57604051633250574960e11b81525f6004820152602401610d9a565b5f61220683835f61157b565b90506001600160a01b03811661223257604051637e27328960e01b815260048101839052602401610d9a565b836001600160a01b0316816001600160a01b031614610dfd576040516364283d7b60e01b81526001600160a01b0380861660048301526024820184905282166044820152606401610d9a565b612286611587565b6008805460ff191660011790557f62e78cea01bee320cd4e420270b5ea74000d11b0c9f74754ebdbfc544b05a258611c7b3390565b6001600160a01b0382165f90815260036020526040902080546001600160801b038316019055610c265f83836001600160801b0316611806565b606060ff831461230f57612308836129f9565b9050610c75565b81805461231b906135c1565b80601f0160208091040260200160405190810160405280929190818152602001828054612347906135c1565b80156123925780601f1061236957610100808354040283529160200191612392565b820191905f5260205f20905b81548152906001019060200180831161237557829003601f168201915b50505050509050610c75565b5f806123ab858585612a36565b90506110c581866001611806565b5f65ffffffffffff8211156123eb576040516306dfcc6560e41b81526030600482015260248101839052604401610d9a565b5090565b5f600182116123fc575090565b816001600160801b82106124155760809190911c9060401b5b6801000000000000000082106124305760409190911c9060201b5b64010000000082106124475760209190911c9060101b5b62010000821061245c5760109190911c9060081b5b61010082106124705760089190911c9060041b5b601082106124835760049190911c9060021b5b6004821061248f5760011b5b600302600190811c908185816124a7576124a761373f565b048201901c905060018185816124bf576124bf61373f565b048201901c905060018185816124d7576124d761373f565b048201901c905060018185816124ef576124ef61373f565b048201901c905060018185816125075761250761373f565b048201901c9050600181858161251f5761251f61373f565b048201901c905061253e8185816125385761253861373f565b04821190565b90039392505050565b5f5b8183101561259e575f61255c8484612a4a565b5f8781526020902090915065ffffffffffff86169082015465ffffffffffff16111561258a57809250612598565b612595816001613695565b93505b50612549565b509392505050565b5f818152600260205260408120546001600160a01b0316801515806125d157506001600160601b0383115b8061260457507f00000000000000000000000000000000000000000000000000000000000000006001600160601b031683105b1561260f5792915050565b600883901c5f90815260076020526040902054600160ff85161b16611b5157612639600684612a64565b611006565b5f6001600160d01b038211156123eb576040516306dfcc6560e41b815260d0600482015260248101839052604401610d9a565b5f8061269c61267e611146565b61269461268a88611b22565b868863ffffffff16565b879190612aa9565b915091505b935093915050565b604080518082019091525f8082526020820152825f018263ffffffff16815481106126d6576126d6613753565b5f9182526020918290206040805180820190915291015465ffffffffffff81168252600160301b90046001600160d01b0316918101919091529392505050565b5f805f6127236006612ab6565b509150915081612753577f000000000000000000000000000000000000000000000000000000000000000061275e565b61275e8160016136ff565b9250505090565b5f8061269c858585612b16565b5f80807f7fffffffffffffffffffffffffffffff5d576e7357a4501ddfe92f46681b20a08411156127ab57505f91506003905082612830565b604080515f808252602082018084528a905260ff891692820192909252606081018790526080810186905260019060a0016020604051602081039080840390855afa1580156127fc573d5f803e3d5ffd5b5050604051601f1901519150506001600160a01b03811661282757505f925060019150829050612830565b92505f91508190505b9450945094915050565b5f82600381111561284d5761284d613767565b03612856575050565b600182600381111561286a5761286a613767565b036128885760405163f645eedf60e01b815260040160405180910390fd5b600282600381111561289c5761289c613767565b036128bd5760405163fce698f760e01b815260048101829052602401610d9a565b60038260038111156128d1576128d1613767565b03610c26576040516335e2f38360e21b815260048101829052602401610d9a565b5f8072184f03e93ff9f4daa797ed6e38ed64bf6a1f0160401b83106129305772184f03e93ff9f4daa797ed6e38ed64bf6a1f0160401b830492506040015b6d04ee2d6d415b85acef8100000000831061295c576d04ee2d6d415b85acef8100000000830492506020015b662386f26fc10000831061297a57662386f26fc10000830492506010015b6305f5e1008310612992576305f5e100830492506008015b61271083106129a657612710830492506004015b606483106129b8576064830492506002015b600a8310610c755760010192915050565b5f63ffffffff8211156123eb576040516306dfcc6560e41b81526020600482015260248101839052604401610d9a565b60605f612a0583612c6c565b6040805160208082528183019092529192505f91906020820181803683375050509182525060208101929092525090565b5f612a3f611587565b6110c5848484612c93565b5f612a58600284841861377b565b61100690848416613695565b81545f9081612a7585858385612d48565b9050818114612a9e575f85815260209020810154600160601b90046001600160a01b0316612aa0565b5f5b95945050505050565b5f8061269c858585612da1565b80545f9081908190808203612ad4575f805f93509350935050612b0f565b5f612ae48661177d600185613682565b54600195506001600160601b0381169450600160601b90046001600160a01b03169250612b0f915050565b9193909250565b82545f9081908015612c11575f612b328761177d600185613682565b80549091506001600160601b0380821691600160601b90046001600160a01b0316908816821115612b7657604051632520601d60e01b815260040160405180910390fd5b876001600160601b0316826001600160601b031603612bb25782546001600160601b0316600160601b6001600160a01b03891602178355612c03565b604080518082019091526001600160601b03808a1682526001600160a01b03808a1660208085019182528d54600181018f555f8f81529190912094519151909216600160601b029216919091179101555b94508593506126a192505050565b5050604080518082019091526001600160601b0380851682526001600160a01b0380851660208085019182528854600181018a555f8a815291822095519251909316600160601b0291909316179201919091559050816126a1565b5f60ff8216601f811115610c7557604051632cd44ac360e21b815260040160405180910390fd5b5f80612ca0858585612ef0565b90506001600160a01b038116158015612cb85750303b155b15612cd6576040516356c4a82960e11b815260040160405180910390fd5b6001600160a01b038516158015612cfc5750612cf0612716565b6001600160601b031684105b8015612d205750600884901c5f90815260076020526040902054600160ff86161b16155b156110c557600884901c5f9081526007602052604090208054600160ff87161b1790556110c5565b5f5b8183101561259e575f612d5d8484612a4a565b5f878152602090209091506001600160601b038616908201546001600160601b03161015612d9757612d90816001613695565b9350612d9b565b8092505b50612d4a565b82545f9081908015612e96575f612dbd8761177d600185613682565b805490915065ffffffffffff80821691600160301b90046001600160d01b0316908816821115612e0057604051632520601d60e01b815260040160405180910390fd5b8765ffffffffffff168265ffffffffffff1603612e3957825465ffffffffffff16600160301b6001600160d01b03891602178355612c03565b6040805180820190915265ffffffffffff808a1682526001600160d01b03808a1660208085019182528d54600181018f555f8f81529190912094519151909216600160301b0292169190911791015594508593506126a192505050565b50506040805180820190915265ffffffffffff80851682526001600160d01b0380851660208085019182528854600181018a555f8a815291822095519251909316600160301b0291909316179201919091559050816126a1565b5f80612efb846117ad565b90506001600160a01b03831615612f1757612f178184866119dd565b6001600160a01b03811615612f5157612f325f855f806115ab565b6001600160a01b0381165f90815260036020526040902080545f190190555b6001600160a01b03851615612f7f576001600160a01b0385165f908152600360205260409020805460010190555b5f8481526002602052604080822080546001600160a01b0319166001600160a01b0389811691821790925591518793918516917fddf252ad1be2c89b69c2b068fc378daa952ba7f163c4a11628f55a4df523b3ef91a4949350505050565b80356001600160a01b0381168114612ff3575f80fd5b919050565b5f8060408385031215613009575f80fd5b61301283612fdd565b915061302060208401612fdd565b90509250929050565b6001600160e01b0319811681146111d2575f80fd5b5f6020828403121561304e575f80fd5b813561100681613029565b5f5b8381101561307357818101518382015260200161305b565b50505f910152565b5f8151808452613092816020860160208601613059565b601f01601f19169290920160200192915050565b602081525f611006602083018461307b565b5f602082840312156130c8575f80fd5b5035919050565b5f80604083850312156130e0575f80fd5b6130e983612fdd565b946020939093013593505050565b5f8060408385031215613108575f80fd5b61311183612fdd565b915060208301356001600160801b038116811461312c575f80fd5b809150509250929050565b5f805f60608486031215613149575f80fd5b61315284612fdd565b925061316060208501612fdd565b9150604084013590509250925092565b5f60208284031215613180575f80fd5b61100682612fdd565b80358015158114612ff3575f80fd5b5f805f80608085870312156131ab575f80fd5b6131b485612fdd565b9350602085013592506131c960408601612fdd565b91506131d760608601613189565b905092959194509250565b5f80604083850312156131f3575f80fd5b6131fc83612fdd565b9150602083013563ffffffff8116811461312c575f80fd5b5f8083601f840112613224575f80fd5b50813567ffffffffffffffff81111561323b575f80fd5b602083019150836020828501011115613252575f80fd5b9250929050565b5f805f805f6080868803121561326d575f80fd5b61327686612fdd565b945061328460208701612fdd565b935060408601359250606086013567ffffffffffffffff8111156132a6575f80fd5b6132b288828901613214565b969995985093965092949392505050565b60ff60f81b881681525f602060e060208401526132e360e084018a61307b565b83810360408501526132f5818a61307b565b606085018990526001600160a01b038816608086015260a0850187905284810360c0860152855180825260208088019350909101905f5b818110156133485783518352928401929184019160010161332c565b50909c9b505050505050505050505050565b5f805f6060848603121561336c575f80fd5b61337584612fdd565b92506020840135915061338a60408501612fdd565b90509250925092565b5f805f80606085870312156133a6575f80fd5b6133af85612fdd565b935060208501359250604085013567ffffffffffffffff8111156133d1575f80fd5b6133dd87828801613214565b95989497509550505050565b5f80604083850312156133fa575f80fd5b61340383612fdd565b915061302060208401613189565b634e487b7160e01b5f52604160045260245ffd5b5f805f8060808587031215613438575f80fd5b61344185612fdd565b935061344f60208601612fdd565b925060408501359150606085013567ffffffffffffffff80821115613472575f80fd5b818701915087601f830112613485575f80fd5b81358181111561349757613497613411565b604051601f8201601f19908116603f011681019083821181831017156134bf576134bf613411565b816040528281528a60208487010111156134d7575f80fd5b826020860160208301375f60208483010152809550505050505092959194509250565b5f806040838503121561350b575f80fd5b61351483612fdd565b915060208301356001600160601b038116811461312c575f80fd5b5f805f805f8060c08789031215613544575f80fd5b61354d87612fdd565b95506020870135945060408701359350606087013560ff81168114613570575f80fd5b9598949750929560808101359460a0909101359350915050565b5f805f6060848603121561359c575f80fd5b6135a584612fdd565b92506135b360208501612fdd565b915061338a60408501613189565b600181811c908216806135d557607f821691505b6020821081036135f357634e487b7160e01b5f52602260045260245ffd5b50919050565b5f835161360a818460208801613059565b83519083019061361e818360208801613059565b01949350505050565b634e487b7160e01b5f52601160045260245ffd5b6001600160d01b0382811682821603908082111561365b5761365b613627565b5092915050565b6001600160d01b0381811683821601908082111561365b5761365b613627565b81810381811115610c7557610c75613627565b80820180821115610c7557610c75613627565b6001600160a01b03858116825284166020820152604081018390526080606082018190525f906136da9083018461307b565b9695505050505050565b5f602082840312156136f4575f80fd5b815161100681613029565b6001600160601b0381811683821601908082111561365b5761365b613627565b6001600160601b0382811682821603908082111561365b5761365b613627565b634e487b7160e01b5f52601260045260245ffd5b634e487b7160e01b5f52603260045260245ffd5b634e487b7160e01b5f52602160045260245ffd5b5f8261379557634e487b7160e01b5f52601260045260245ffd5b50049056fea2646970667358221220d91720d487743caec0029483b44dd4f48b9394d20667358e7ceda115a7184ad064736f6c63430008180033dec2bacdd2f05b59de34da9b523dff8be42e5e38e818c82fdb0bae774387a724",
  "linkReferences": {},
  "deployedLinkReferences": {}
}