{
  "_format": "hh-sol-artifact-1",
  "contractName": "$ERC721ConsecutiveNoConstructorMintMock",
  "sourceName": "contracts-exposed/mocks/token/ERC721ConsecutiveMock.sol",
  "abi": [
    {
      "inputs": [
        {
          "internalType": "string",
          "name": "name",
          "type": "string"
        },
        {
          "internalType": "string",
          "name": "symbol",
          "type": "string"
        }
      ],
      "stateMutability": "payable",
      "type": "constructor"
    },
    {
      "inputs": [],
      "name": "CheckpointUnorderedInsertion",
      "type": "error"
    },
    {
      "inputs": [
        {
          "internalType": "uint256",
          "name": "batchSize",
          "type": "uint256"
        },
        {
          "internalType": "uint256",
          "name": "maxBatch",
          "type": "uint256"
        }
      ],
      "name": "ERC721ExceededMaxBatchMint",
      "type": "error"
    },
    {
      "inputs": [],
      "name": "ERC721ForbiddenBatchBurn",
      "type": "error"
    },
    {
      "inputs": [],
      "name": "ERC721ForbiddenBatchMint",
      "type": "error"
    },
    {
      "inputs": [],
      "name": "ERC721ForbiddenMint",
      "type": "error"
    },
    {
      "inputs": [
        {
          "internalType": "address",
          "name": "sender",
          "type": "address"
        },
        {
          "internalType": "uint256",
          "name": "tokenId",
          "type": "uint256"
        },
        {
          "internalType": "address",
          "name": "owner",
          "type": "address"
        }
      ],
      "name": "ERC721IncorrectOwner",
      "type": "error"
    },
    {
      "inputs": [
        {
          "internalType": "address",
          "name": "operator",
          "type": "address"
        },
        {
          "internalType": "uint256",
          "name": "tokenId",
          "type": "uint256"
        }
      ],
      "name": "ERC721InsufficientApproval",
      "type": "error"
    },
    {
      "inputs": [
        {
          "internalType": "address",
          "name": "approver",
          "type": "address"
        }
      ],
      "name": "ERC721InvalidApprover",
      "type": "error"
    },
    {
      "inputs": [
        {
          "internalType": "address",
          "name": "operator",
          "type": "address"
        }
      ],
      "name": "ERC721InvalidOperator",
      "type": "error"
    },
    {
      "inputs": [
        {
          "internalType": "address",
          "name": "owner",
          "type": "address"
        }
      ],
      "name": "ERC721InvalidOwner",
      "type": "error"
    },
    {
      "inputs": [
        {
          "internalType": "address",
          "name": "receiver",
          "type": "address"
        }
      ],
      "name": "ERC721InvalidReceiver",
      "type": "error"
    },
    {
      "inputs": [
        {
          "internalType": "address",
          "name": "sender",
          "type": "address"
        }
      ],
      "name": "ERC721InvalidSender",
      "type": "error"
    },
    {
      "inputs": [
        {
          "internalType": "uint256",
          "name": "tokenId",
          "type": "uint256"
        }
      ],
      "name": "ERC721NonexistentToken",
      "type": "error"
    },
    {
      "anonymous": false,
      "inputs": [
        {
          "indexed": true,
          "internalType": "address",
          "name": "owner",
          "type": "address"
        },
        {
          "indexed": true,
          "internalType": "address",
          "name": "approved",
          "type": "address"
        },
        {
          "indexed": true,
          "internalType": "uint256",
          "name": "tokenId",
          "type": "uint256"
        }
      ],
      "name": "Approval",
      "type": "event"
    },
    {
      "anonymous": false,
      "inputs": [
        {
          "indexed": true,
          "internalType": "address",
          "name": "owner",
          "type": "address"
        },
        {
          "indexed": true,
          "internalType": "address",
          "name": "operator",
          "type": "address"
        },
        {
          "indexed": false,
          "internalType": "bool",
          "name": "approved",
          "type": "bool"
        }
      ],
      "name": "ApprovalForAll",
      "type": "event"
    },
    {
      "anonymous": false,
      "inputs": [
        {
          "indexed": true,
          "internalType": "uint256",
          "name": "fromTokenId",
          "type": "uint256"
        },
        {
          "indexed": false,
          "internalType": "uint256",
          "name": "toTokenId",
          "type": "uint256"
        },
        {
          "indexed": true,
          "internalType": "address",
          "name": "fromAddress",
          "type": "address"
        },
        {
          "indexed": true,
          "internalType": "address",
          "name": "toAddress",
          "type": "address"
        }
      ],
      "name": "ConsecutiveTransfer",
      "type": "event"
    },
    {
      "anonymous": false,
      "inputs": [
        {
          "indexed": true,
          "internalType": "address",
          "name": "from",
          "type": "address"
        },
        {
          "indexed": true,
          "internalType": "address",
          "name": "to",
          "type": "address"
        },
        {
          "indexed": true,
          "internalType": "uint256",
          "name": "tokenId",
          "type": "uint256"
        }
      ],
      "name": "Transfer",
      "type": "event"
    },
    {
      "anonymous": false,
      "inputs": [
        {
          "indexed": false,
          "internalType": "uint96",
          "name": "ret0",
          "type": "uint96"
        }
      ],
      "name": "return$_mintConsecutive",
      "type": "event"
    },
    {
      "anonymous": false,
      "inputs": [
        {
          "indexed": false,
          "internalType": "address",
          "name": "ret0",
          "type": "address"
        }
      ],
      "name": "return$_update",
      "type": "event"
    },
    {
      "inputs": [
        {
          "internalType": "address",
          "name": "to",
          "type": "address"
        },
        {
          "internalType": "uint256",
          "name": "tokenId",
          "type": "uint256"
        },
        {
          "internalType": "address",
          "name": "auth",
          "type": "address"
        },
        {
          "internalType": "bool",
          "name": "emitEvent",
          "type": "bool"
        }
      ],
      "name": "$_approve",
      "outputs": [],
      "stateMutability": "nonpayable",
      "type": "function"
    },
    {
      "inputs": [
        {
          "internalType": "address",
          "name": "to",
          "type": "address"
        },
        {
          "internalType": "uint256",
          "name": "tokenId",
          "type": "uint256"
        },
        {
          "internalType": "address",
          "name": "auth",
          "type": "address"
        }
      ],
      "name": "$_approve",
      "outputs": [],
      "stateMutability": "nonpayable",
      "type": "function"
    },
    {
      "inputs": [],
      "name": "$_baseURI",
      "outputs": [
        {
          "internalType": "string",
          "name": "ret0",
          "type": "string"
        }
      ],
      "stateMutability": "view",
      "type": "function"
    },
    {
      "inputs": [
        {
          "internalType": "uint256",
          "name": "tokenId",
          "type": "uint256"
        }
      ],
      "name": "$_burn",
      "outputs": [],
      "stateMutability": "nonpayable",
      "type": "function"
    },
    {
      "inputs": [
        {
          "internalType": "address",
          "name": "owner",
          "type": "address"
        },
        {
          "internalType": "address",
          "name": "spender",
          "type": "address"
        },
        {
          "internalType": "uint256",
          "name": "tokenId",
          "type": "uint256"
        }
      ],
      "name": "$_checkAuthorized",
      "outputs": [],
      "stateMutability": "view",
      "type": "function"
    },
    {
      "inputs": [],
      "name": "$_contextSuffixLength",
      "outputs": [
        {
          "internalType": "uint256",
          "name": "ret0",
          "type": "uint256"
        }
      ],
      "stateMutability": "view",
      "type": "function"
    },
    {
      "inputs": [],
      "name": "$_firstConsecutiveId",
      "outputs": [
        {
          "internalType": "uint96",
          "name": "ret0",
          "type": "uint96"
        }
      ],
      "stateMutability": "view",
      "type": "function"
    },
    {
      "inputs": [
        {
          "internalType": "uint256",
          "name": "tokenId",
          "type": "uint256"
        }
      ],
      "name": "$_getApproved",
      "outputs": [
        {
          "internalType": "address",
          "name": "ret0",
          "type": "address"
        }
      ],
      "stateMutability": "view",
      "type": "function"
    },
    {
      "inputs": [
        {
          "internalType": "address",
          "name": "account",
          "type": "address"
        },
        {
          "internalType": "uint128",
          "name": "value",
          "type": "uint128"
        }
      ],
      "name": "$_increaseBalance",
      "outputs": [],
      "stateMutability": "nonpayable",
      "type": "function"
    },
    {
      "inputs": [
        {
          "internalType": "address",
          "name": "owner",
          "type": "address"
        },
        {
          "internalType": "address",
          "name": "spender",
          "type": "address"
        },
        {
          "internalType": "uint256",
          "name": "tokenId",
          "type": "uint256"
        }
      ],
      "name": "$_isAuthorized",
      "outputs": [
        {
          "internalType": "bool",
          "name": "ret0",
          "type": "bool"
        }
      ],
      "stateMutability": "view",
      "type": "function"
    },
    {
      "inputs": [],
      "name": "$_maxBatchSize",
      "outputs": [
        {
          "internalType": "uint96",
          "name": "ret0",
          "type": "uint96"
        }
      ],
      "stateMutability": "view",
      "type": "function"
    },
    {
      "inputs": [
        {
          "internalType": "address",
          "name": "to",
          "type": "address"
        },
        {
          "internalType": "uint256",
          "name": "tokenId",
          "type": "uint256"
        }
      ],
      "name": "$_mint",
      "outputs": [],
      "stateMutability": "nonpayable",
      "type": "function"
    },
    {
      "inputs": [
        {
          "internalType": "address",
          "name": "to",
          "type": "address"
        },
        {
          "internalType": "uint96",
          "name": "batchSize",
          "type": "uint96"
        }
      ],
      "name": "$_mintConsecutive",
      "outputs": [
        {
          "internalType": "uint96",
          "name": "ret0",
          "type": "uint96"
        }
      ],
      "stateMutability": "nonpayable",
      "type": "function"
    },
    {
      "inputs": [],
      "name": "$_msgData",
      "outputs": [
        {
          "internalType": "bytes",
          "name": "ret0",
          "type": "bytes"
        }
      ],
      "stateMutability": "view",
      "type": "function"
    },
    {
      "inputs": [],
      "name": "$_msgSender",
      "outputs": [
        {
          "internalType": "address",
          "name": "ret0",
          "type": "address"
        }
      ],
      "stateMutability": "view",
      "type": "function"
    },
    {
      "inputs": [
        {
          "internalType": "uint256",
          "name": "tokenId",
          "type": "uint256"
        }
      ],
      "name": "$_ownerOf",
      "outputs": [
        {
          "internalType": "address",
          "name": "ret0",
          "type": "address"
        }
      ],
      "stateMutability": "view",
      "type": "function"
    },
    {
      "inputs": [
        {
          "internalType": "uint256",
          "name": "tokenId",
          "type": "uint256"
        }
      ],
      "name": "$_requireOwned",
      "outputs": [
        {
          "internalType": "address",
          "name": "ret0",
          "type": "address"
        }
      ],
      "stateMutability": "view",
      "type": "function"
    },
    {
      "inputs": [
        {
          "internalType": "address",
          "name": "to",
          "type": "address"
        },
        {
          "internalType": "uint256",
          "name": "tokenId",
          "type": "uint256"
        },
        {
          "internalType": "bytes",
          "name": "data",
          "type": "bytes"
        }
      ],
      "name": "$_safeMint",
      "outputs": [],
      "stateMutability": "nonpayable",
      "type": "function"
    },
    {
      "inputs": [
        {
          "internalType": "address",
          "name": "to",
          "type": "address"
        },
        {
          "internalType": "uint256",
          "name": "tokenId",
          "type": "uint256"
        }
      ],
      "name": "$_safeMint",
      "outputs": [],
      "stateMutability": "nonpayable",
      "type": "function"
    },
    {
      "inputs": [
        {
          "internalType": "address",
          "name": "from",
          "type": "address"
        },
        {
          "internalType": "address",
          "name": "to",
          "type": "address"
        },
        {
          "internalType": "uint256",
          "name": "tokenId",
          "type": "uint256"
        },
        {
          "internalType": "bytes",
          "name": "data",
          "type": "bytes"
        }
      ],
      "name": "$_safeTransfer",
      "outputs": [],
      "stateMutability": "nonpayable",
      "type": "function"
    },
    {
      "inputs": [
        {
          "internalType": "address",
          "name": "from",
          "type": "address"
        },
        {
          "internalType": "address",
          "name": "to",
          "type": "address"
        },
        {
          "internalType": "uint256",
          "name": "tokenId",
          "type": "uint256"
        }
      ],
      "name": "$_safeTransfer",
      "outputs": [],
      "stateMutability": "nonpayable",
      "type": "function"
    },
    {
      "inputs": [
        {
          "internalType": "address",
          "name": "owner",
          "type": "address"
        },
        {
          "internalType": "address",
          "name": "operator",
          "type": "address"
        },
        {
          "internalType": "bool",
          "name": "approved",
          "type": "bool"
        }
      ],
      "name": "$_setApprovalForAll",
      "outputs": [],
      "stateMutability": "nonpayable",
      "type": "function"
    },
    {
      "inputs": [
        {
          "internalType": "address",
          "name": "from",
          "type": "address"
        },
        {
          "internalType": "address",
          "name": "to",
          "type": "address"
        },
        {
          "internalType": "uint256",
          "name": "tokenId",
          "type": "uint256"
        }
      ],
      "name": "$_transfer",
      "outputs": [],
      "stateMutability": "nonpayable",
      "type": "function"
    },
    {
      "inputs": [
        {
          "internalType": "address",
          "name": "to",
          "type": "address"
        },
        {
          "internalType": "uint256",
          "name": "tokenId",
          "type": "uint256"
        },
        {
          "internalType": "address",
          "name": "auth",
          "type": "address"
        }
      ],
      "name": "$_update",
      "outputs": [
        {
          "internalType": "address",
          "name": "ret0",
          "type": "address"
        }
      ],
      "stateMutability": "nonpayable",
      "type": "function"
    },
    {
      "inputs": [],
      "name": "__hh_exposed_bytecode_marker",
      "outputs": [
        {
          "internalType": "bytes32",
          "name": "",
          "type": "bytes32"
        }
      ],
      "stateMutability": "view",
      "type": "function"
    },
    {
      "inputs": [
        {
          "internalType": "address",
          "name": "to",
          "type": "address"
        },
        {
          "internalType": "uint256",
          "name": "tokenId",
          "type": "uint256"
        }
      ],
      "name": "approve",
      "outputs": [],
      "stateMutability": "nonpayable",
      "type": "function"
    },
    {
      "inputs": [
        {
          "internalType": "address",
          "name": "owner",
          "type": "address"
        }
      ],
      "name": "balanceOf",
      "outputs": [
        {
          "internalType": "uint256",
          "name": "",
          "type": "uint256"
        }
      ],
      "stateMutability": "view",
      "type": "function"
    },
    {
      "inputs": [
        {
          "internalType": "uint256",
          "name": "tokenId",
          "type": "uint256"
        }
      ],
      "name": "getApproved",
      "outputs": [
        {
          "internalType": "address",
          "name": "",
          "type": "address"
        }
      ],
      "stateMutability": "view",
      "type": "function"
    },
    {
      "inputs": [
        {
          "internalType": "address",
          "name": "owner",
          "type": "address"
        },
        {
          "internalType": "address",
          "name": "operator",
          "type": "address"
        }
      ],
      "name": "isApprovedForAll",
      "outputs": [
        {
          "internalType": "bool",
          "name": "",
          "type": "bool"
        }
      ],
      "stateMutability": "view",
      "type": "function"
    },
    {
      "inputs": [],
      "name": "name",
      "outputs": [
        {
          "internalType": "string",
          "name": "",
          "type": "string"
        }
      ],
      "stateMutability": "view",
      "type": "function"
    },
    {
      "inputs": [
        {
          "internalType": "uint256",
          "name": "tokenId",
          "type": "uint256"
        }
      ],
      "name": "ownerOf",
      "outputs": [
        {
          "internalType": "address",
          "name": "",
          "type": "address"
        }
      ],
      "stateMutability": "view",
      "type": "function"
    },
    {
      "inputs": [
        {
          "internalType": "address",
          "name": "from",
          "type": "address"
        },
        {
          "internalType": "address",
          "name": "to",
          "type": "address"
        },
        {
          "internalType": "uint256",
          "name": "tokenId",
          "type": "uint256"
        }
      ],
      "name": "safeTransferFrom",
      "outputs": [],
      "stateMutability": "nonpayable",
      "type": "function"
    },
    {
      "inputs": [
        {
          "internalType": "address",
          "name": "from",
          "type": "address"
        },
        {
          "internalType": "address",
          "name": "to",
          "type": "address"
        },
        {
          "internalType": "uint256",
          "name": "tokenId",
          "type": "uint256"
        },
        {
          "internalType": "bytes",
          "name": "data",
          "type": "bytes"
        }
      ],
      "name": "safeTransferFrom",
      "outputs": [],
      "stateMutability": "nonpayable",
      "type": "function"
    },
    {
      "inputs": [
        {
          "internalType": "address",
          "name": "operator",
          "type": "address"
        },
        {
          "internalType": "bool",
          "name": "approved",
          "type": "bool"
        }
      ],
      "name": "setApprovalForAll",
      "outputs": [],
      "stateMutability": "nonpayable",
      "type": "function"
    },
    {
      "inputs": [
        {
          "internalType": "bytes4",
          "name": "interfaceId",
          "type": "bytes4"
        }
      ],
      "name": "supportsInterface",
      "outputs": [
        {
          "internalType": "bool",
          "name": "",
          "type": "bool"
        }
      ],
      "stateMutability": "view",
      "type": "function"
    },
    {
      "inputs": [],
      "name": "symbol",
      "outputs": [
        {
          "internalType": "string",
          "name": "",
          "type": "string"
        }
      ],
      "stateMutability": "view",
      "type": "function"
    },
    {
      "inputs": [
        {
          "internalType": "uint256",
          "name": "tokenId",
          "type": "uint256"
        }
      ],
      "name": "tokenURI",
      "outputs": [
        {
          "internalType": "string",
          "name": "",
          "type": "string"
        }
      ],
      "stateMutability": "view",
      "type": "function"
    },
    {
      "inputs": [
        {
          "internalType": "address",
          "name": "from",
          "type": "address"
        },
        {
          "internalType": "address",
          "name": "to",
          "type": "address"
        },
        {
          "internalType": "uint256",
          "name": "tokenId",
          "type": "uint256"
        }
      ],
      "name": "transferFrom",
      "outputs": [],
      "stateMutability": "nonpayable",
      "type": "function"
    },
    {
      "stateMutability": "payable",
      "type": "receive"
    }
  ],
  "bytecode": "0x608060405260405162002924380380620029248339810160408190526200002691620007b0565b818181815f6200003783826200089f565b5060016200004682826200089f565b5050506200005b335f6200006560201b60201c565b50505050620009f5565b6001600160a01b0382166200009457604051633250574960e11b81525f60048201526024015b60405180910390fd5b5f620000a2838383620000d5565b90506001600160a01b03811615620000d0576040516339e3563760e11b81525f60048201526024016200008b565b505050565b5f80620000e485858562000189565b90506001600160a01b038116158015620000fd5750303b155b156200011c576040516356c4a82960e11b815260040160405180910390fd5b6001600160a01b038516158015620001455750620001396200027f565b6001600160601b031684105b80156200015c57506200015a600785620002b4565b155b156200018157600884901c5f9081526007602052604090208054600160ff87161b1790555b949350505050565b5f806200019684620002d8565b90506001600160a01b03831615620001b557620001b581848662000347565b6001600160a01b03811615620001f257620001d35f858180620003b1565b6001600160a01b0381165f90815260036020526040902080545f190190555b6001600160a01b0385161562000221576001600160a01b0385165f908152600360205260409020805460010190555b5f8481526002602052604080822080546001600160a01b0319166001600160a01b0389811691821790925591518793918516917fddf252ad1be2c89b69c2b068fc378daa952ba7f163c4a11628f55a4df523b3ef91a4949350505050565b5f80806200028e6006620004dc565b509150915081620002a0575f620002ad565b620002ad8160016200097f565b9250505090565b600881901c5f90815260208390526040902054600160ff83161b1615155b92915050565b5f818152600260205260408120546001600160a01b0316801515806200030457506001600160601b0383115b806200030d57505f5b15620003195792915050565b62000326600784620002b4565b6200033e576200033860068462000558565b62000340565b5f5b9392505050565b62000354838383620005aa565b620000d0576001600160a01b0383166200038557604051637e27328960e01b8152600481018290526024016200008b565b60405163177e802f60e01b81526001600160a01b0383166004820152602481018290526044016200008b565b8080620003c657506001600160a01b03821615155b15620004ad575f620003d8846200062d565b90506001600160a01b03831615801590620004055750826001600160a01b0316816001600160a01b031614155b80156200043757506001600160a01b038082165f9081526005602090815260408083209387168352929052205460ff16155b15620004625760405163a9fbf51f60e01b81526001600160a01b03841660048201526024016200008b565b8115620004ab5783856001600160a01b0316826001600160a01b03167f8c5be1e5ebec7d5bd14f71427d1e84f3dd0314c0f7b2291e5b200ac8c7c3b92560405160405180910390a45b505b50505f90815260046020526040902080546001600160a01b0319166001600160a01b0392909216919091179055565b80545f9081908190808203620004fc575f805f9350935093505062000551565b5f6200051c866200050f600185620009a9565b5f91825260209091200190565b54600195506001600160601b03811694506c0100000000000000000000000090046001600160a01b0316925062000551915050565b9193909250565b81545f90816200056b8585838562000668565b90508181146200059f575f858152602090208101546c0100000000000000000000000090046001600160a01b0316620005a1565b5f5b95945050505050565b5f6001600160a01b03831615801590620001815750826001600160a01b0316846001600160a01b031614806200060457506001600160a01b038085165f9081526005602090815260408083209387168352929052205460ff165b80620001815750505f908152600460205260409020546001600160a01b03908116911614919050565b5f806200063a83620002d8565b90506001600160a01b038116620002d257604051637e27328960e01b8152600481018490526024016200008b565b5f5b81831015620006c9575f620006808484620006d1565b5f878152602090209091506001600160601b038616908201546001600160601b03161015620006be57620006b6816001620009bf565b9350620006c2565b8092505b506200066a565b509392505050565b5f620006e16002848418620009d5565b6200034090848416620009bf565b634e487b7160e01b5f52604160045260245ffd5b5f82601f83011262000713575f80fd5b81516001600160401b0380821115620007305762000730620006ef565b604051601f8301601f19908116603f011681019082821181831017156200075b576200075b620006ef565b816040528381526020925086602085880101111562000778575f80fd5b5f91505b838210156200079b57858201830151818301840152908201906200077c565b5f602085830101528094505050505092915050565b5f8060408385031215620007c2575f80fd5b82516001600160401b0380821115620007d9575f80fd5b620007e78683870162000703565b93506020850151915080821115620007fd575f80fd5b506200080c8582860162000703565b9150509250929050565b600181811c908216806200082b57607f821691505b6020821081036200084a57634e487b7160e01b5f52602260045260245ffd5b50919050565b601f821115620000d057805f5260205f20601f840160051c81016020851015620008775750805b601f840160051c820191505b8181101562000898575f815560010162000883565b5050505050565b81516001600160401b03811115620008bb57620008bb620006ef565b620008d381620008cc845462000816565b8462000850565b602080601f83116001811462000909575f8415620008f15750858301515b5f19600386901b1c1916600185901b17855562000963565b5f85815260208120601f198616915b82811015620009395788860151825594840194600190910190840162000918565b50858210156200095757878501515f19600388901b60f8161c191681555b505060018460011b0185555b505050505050565b634e487b7160e01b5f52601160045260245ffd5b6001600160601b03818116838216019080821115620009a257620009a26200096b565b5092915050565b81810381811115620002d257620002d26200096b565b80820180821115620002d257620002d26200096b565b5f82620009f057634e487b7160e01b5f52601260045260245ffd5b500490565b611f218062000a035f395ff3fe608060405260043610610220575f3560e01c80637a7be0361161011e578063c6707201116100a8578063d84838341161006d578063d84838341461061e578063e203000d1461063d578063e3cb9a4a1461064f578063e985e9c51461066e578063efb43b071461068d575f80fd5b8063c6707201146103ff578063c87b56dd146105a2578063cc461d62146105c1578063cfeea0d4146105e0578063d261af54146105ff575f80fd5b8063a22cb465116100ee578063a22cb465146104fe578063a2373a821461051d578063b88d4fde1461053c578063b895757b1461055b578063c26838c514610583575f80fd5b80637a7be0361461048d57806390104b84146104ac57806395d89b41146104cb5780639ff2f02d146104df575f80fd5b806332cadf3c116101aa5780636352211e1161016f5780636352211e146103ff57806367354a841461041e5780636884d58b1461043057806370a082311461044f578063733555ec1461046e575f80fd5b806332cadf3c1461035b578063342db7391461036f5780633451b14d146103a257806342842e0e146103c1578063458ee002146103e0575f80fd5b8063113efe1a116101f0578063113efe1a146102d8578063161e977d146102f757806323b872dd1461030b5780632904df291461032a57806330f3b0b51461033c575f80fd5b806301ffc9a71461022b57806306fdde031461025f578063081812fc14610280578063095ea7b3146102b7575f80fd5b3661022757005b5f80fd5b348015610236575f80fd5b5061024a6102453660046118e3565b6106ac565b60405190151581526020015b60405180910390f35b34801561026a575f80fd5b506102736106fd565b604051610256919061194b565b34801561028b575f80fd5b5061029f61029a36600461195d565b61078c565b6040516001600160a01b039091168152602001610256565b3480156102c2575f80fd5b506102d66102d136600461198f565b6107b3565b005b3480156102e3575f80fd5b506102d66102f23660046119b7565b6107c2565b348015610302575f80fd5b506102736107cc565b348015610316575f80fd5b506102d66103253660046119f7565b6107e7565b348015610335575f80fd5b503361029f565b348015610347575f80fd5b506102d6610356366004611a3f565b610875565b348015610366575f80fd5b50610273610881565b34801561037a575f80fd5b506103946e1a185c991a185d0b595e1c1bdcd959608a1b81565b604051908152602001610256565b3480156103ad575f80fd5b5061029f6103bc36600461195d565b6108be565b3480156103cc575f80fd5b506102d66103db3660046119f7565b6108da565b3480156103eb575f80fd5b5061029f6103fa36600461195d565b6108f9565b34801561040a575f80fd5b5061029f61041936600461195d565b610903565b348015610429575f80fd5b505f610394565b34801561043b575f80fd5b506102d661044a3660046119f7565b61090d565b34801561045a575f80fd5b50610394610469366004611a89565b610918565b348015610479575f80fd5b506102d6610488366004611ae7565b61095d565b348015610498575f80fd5b5061024a6104a73660046119f7565b6109a5565b3480156104b7575f80fd5b506102d66104c6366004611b51565b6109b9565b3480156104d6575f80fd5b506102736109c4565b3480156104ea575f80fd5b506102d66104f9366004611b8a565b6109d3565b348015610509575f80fd5b506102d6610518366004611be0565b610a13565b348015610528575f80fd5b506102d661053736600461195d565b610a1e565b348015610547575f80fd5b506102d6610556366004611c25565b610a2a565b348015610566575f80fd5b506113885b6040516001600160601b039091168152602001610256565b34801561058e575f80fd5b5061056b61059d366004611cfa565b610a42565b3480156105ad575f80fd5b506102736105bc36600461195d565b610a92565b3480156105cc575f80fd5b506102d66105db36600461198f565b610b03565b3480156105eb575f80fd5b506102d66105fa366004611d2f565b610b0d565b34801561060a575f80fd5b506102d661061936600461198f565b610b18565b348015610629575f80fd5b506102d66106383660046119f7565b610b22565b348015610648575f80fd5b505f61056b565b34801561065a575f80fd5b5061029f610669366004611b51565b610b2d565b348015610679575f80fd5b5061024a610688366004611d66565b610b7f565b348015610698575f80fd5b506102d66106a73660046119f7565b610bac565b5f6001600160e01b031982166380ac58cd60e01b14806106dc57506001600160e01b03198216635b5e139f60e01b145b806106f757506301ffc9a760e01b6001600160e01b03198316145b92915050565b60605f805461070b90611d8e565b80601f016020809104026020016040519081016040528092919081815260200182805461073790611d8e565b80156107825780601f1061075957610100808354040283529160200191610782565b820191905f5260205f20905b81548152906001019060200180831161076557829003601f168201915b5050505050905090565b5f61079682610bb7565b505f828152600460205260409020546001600160a01b03166106f7565b6107be828233610bee565b5050565b6107be8282610bfb565b60606107e260408051602081019091525f815290565b905090565b6001600160a01b03821661081557604051633250574960e11b81525f60048201526024015b60405180910390fd5b5f610821838333610c28565b9050836001600160a01b0316816001600160a01b03161461086f576040516364283d7b60e01b81526001600160a01b038086166004830152602482018490528216604482015260640161080c565b50505050565b61086f84848484610cdd565b60605f368080601f0160208091040260200160405190810160405280939291908181526020018383808284375f9201919091525092949350505050565b5f818152600460205260408120546001600160a01b03166106f7565b6108f483838360405180602001604052805f815250610a2a565b505050565b5f6106f782610de1565b5f6106f782610bb7565b6108f4838383610e56565b5f6001600160a01b038216610942576040516322718ad960e21b81525f600482015260240161080c565b506001600160a01b03165f9081526003602052604090205490565b61099e85858585858080601f0160208091040260200160405190810160405280939291908181526020018383808284375f92019190915250610eba92505050565b5050505050565b5f6109b1848484610ec5565b949350505050565b6108f4838383610bee565b60606001805461070b90611d8e565b61086f848484848080601f0160208091040260200160405190810160405280939291908181526020018383808284375f92019190915250610f2692505050565b6107be338383610f3d565b610a2781610fdb565b50565b610a358484846107e7565b61086f3385858585611013565b5f610a4d838361113a565b6040516001600160601b03821681529091507f7a8bfd5fd00523f8302cd69cdf99d84752006f3fe7b006851ec4cdd02fab58ad9060200160405180910390a192915050565b6060610a9d82610bb7565b505f610ab360408051602081019091525f815290565b90505f815111610ad15760405180602001604052805f815250610afc565b80610adb8461126d565b604051602001610aec929190611dc6565b6040516020818303038152906040525b9392505050565b6107be82826112fd565b6108f4838383610f3d565b6107be828261135e565b6108f4838383611377565b5f610b39848484610c28565b6040516001600160a01b03821681529091507ffc55619107f02333de2d9626fe994a6b9d0734bee4722e17698d6fa1b06c52009060200160405180910390a19392505050565b6001600160a01b039182165f90815260056020908152604080832093909416825291909152205460ff1690565b6108f4838383611391565b5f80610bc283610de1565b90506001600160a01b0381166106f757604051637e27328960e01b81526004810184905260240161080c565b6108f48383836001610cdd565b6001600160a01b039091165f90815260036020526040902080546001600160801b03909216919091019055565b5f80610c3585858561143e565b90506001600160a01b038116158015610c4d5750303b155b15610c6b576040516356c4a82960e11b815260040160405180910390fd5b6001600160a01b038516158015610c915750610c8561152b565b6001600160601b031684105b8015610cb55750600884901c5f90815260076020526040902054600160ff86161b16155b156109b157600884901c5f9081526007602052604090208054600160ff87161b1790556109b1565b8080610cf157506001600160a01b03821615155b15610db2575f610d0084610bb7565b90506001600160a01b03831615801590610d2c5750826001600160a01b0316816001600160a01b031614155b8015610d3f5750610d3d8184610b7f565b155b15610d685760405163a9fbf51f60e01b81526001600160a01b038416600482015260240161080c565b8115610db05783856001600160a01b0316826001600160a01b03167f8c5be1e5ebec7d5bd14f71427d1e84f3dd0314c0f7b2291e5b200ac8c7c3b92560405160405180910390a45b505b50505f90815260046020526040902080546001600160a01b0319166001600160a01b0392909216919091179055565b5f818152600260205260408120546001600160a01b031680151580610e0c57506001600160601b0383115b80610e1457505f5b15610e1f5792915050565b600883901c5f90815260076020526040902054600160ff85161b16610e4e57610e4960068461155a565b610afc565b5f9392505050565b610e61838383610ec5565b6108f4576001600160a01b038316610e8f57604051637e27328960e01b81526004810182905260240161080c565b60405163177e802f60e01b81526001600160a01b03831660048201526024810182905260440161080c565b610a35848484611391565b5f6001600160a01b038316158015906109b15750826001600160a01b0316846001600160a01b03161480610efe5750610efe8484610b7f565b806109b15750505f908152600460205260409020546001600160a01b03908116911614919050565b610f3083836112fd565b6108f4335f858585611013565b6001600160a01b038216610f6f57604051630b61174360e31b81526001600160a01b038316600482015260240161080c565b6001600160a01b038381165f81815260056020908152604080832094871680845294825291829020805460ff191686151590811790915591519182527f17307eab39ab6107e8899845ad3d59bd9653f200f220920489ca2b5937696c31910160405180910390a3505050565b5f610fe75f835f610c28565b90506001600160a01b0381166107be57604051637e27328960e01b81526004810183905260240161080c565b6001600160a01b0383163b1561099e57604051630a85bd0160e11b81526001600160a01b0384169063150b7a0290611055908890889087908790600401611df4565b6020604051808303815f875af192505050801561108f575060408051601f3d908101601f1916820190925261108c91810190611e30565b60015b6110f6573d8080156110bc576040519150601f19603f3d011682016040523d82523d5f602084013e6110c1565b606091505b5080515f036110ee57604051633250574960e11b81526001600160a01b038516600482015260240161080c565b805181602001fd5b6001600160e01b03198116630a85bd0160e11b1461113257604051633250574960e11b81526001600160a01b038516600482015260240161080c565b505050505050565b5f8061114461152b565b90506001600160601b03831615610afc57303b15611175576040516329cfc83160e11b815260040160405180910390fd5b6001600160a01b03841661119e57604051633250574960e11b81525f600482015260240161080c565b6113886001600160601b0384168110156111dd576040516308f58e5760e41b81526001600160601b03851660048201526024810182905260440161080c565b5f60016111ea8685611e5f565b6111f49190611e86565b90506112026006828861159f565b505061121786866001600160601b0316610bfb565b6040516001600160601b0382811682526001600160a01b038816915f918616907fdeaa91b6123d068f5821d0fb0678463d1a8a6079fe8af5de3ce5e896dcf9133d9060200160405180910390a450509392505050565b60605f611279836115b9565b60010190505f8167ffffffffffffffff81111561129857611298611c11565b6040519080825280601f01601f1916602001820160405280156112c2576020820181803683370190505b5090508181016020015b5f19016f181899199a1a9b1b9c1cb0b131b232b360811b600a86061a8153600a85049450846112cc57509392505050565b6001600160a01b03821661132657604051633250574960e11b81525f600482015260240161080c565b5f61133283835f610c28565b90506001600160a01b038116156108f4576040516339e3563760e11b81525f600482015260240161080c565b6107be828260405180602001604052805f815250610f26565b6108f483838360405180602001604052805f815250610eba565b6001600160a01b0382166113ba57604051633250574960e11b81525f600482015260240161080c565b5f6113c683835f610c28565b90506001600160a01b0381166113f257604051637e27328960e01b81526004810183905260240161080c565b836001600160a01b0316816001600160a01b03161461086f576040516364283d7b60e01b81526001600160a01b038086166004830152602482018490528216604482015260640161080c565b5f8061144984610de1565b90506001600160a01b0383161561146557611465818486610e56565b6001600160a01b0381161561149f576114805f855f80610cdd565b6001600160a01b0381165f90815260036020526040902080545f190190555b6001600160a01b038516156114cd576001600160a01b0385165f908152600360205260409020805460010190555b5f8481526002602052604080822080546001600160a01b0319166001600160a01b0389811691821790925591518793918516917fddf252ad1be2c89b69c2b068fc378daa952ba7f163c4a11628f55a4df523b3ef91a4949350505050565b5f805f6115386006611690565b509150915081611548575f611553565b611553816001611e5f565b9250505090565b81545f908161156b858583856116fd565b9050818114611594575f85815260209020810154600160601b90046001600160a01b0316611596565b5f5b95945050505050565b5f806115ac85858561175e565b915091505b935093915050565b5f8072184f03e93ff9f4daa797ed6e38ed64bf6a1f0160401b83106115f75772184f03e93ff9f4daa797ed6e38ed64bf6a1f0160401b830492506040015b6d04ee2d6d415b85acef81000000008310611623576d04ee2d6d415b85acef8100000000830492506020015b662386f26fc10000831061164157662386f26fc10000830492506010015b6305f5e1008310611659576305f5e100830492506008015b612710831061166d57612710830492506004015b6064831061167f576064830492506002015b600a83106106f75760010192915050565b80545f90819081908082036116ae575f805f935093509350506116f6565b5f6116cb866116be600185611ea6565b5f91825260209091200190565b54600195506001600160601b0381169450600160601b90046001600160a01b031692506116f6915050565b9193909250565b5f5b81831015611756575f61171284846118b4565b5f878152602090209091506001600160601b038616908201546001600160601b0316101561174c57611745816001611eb9565b9350611750565b8092505b506116ff565b509392505050565b82545f9081908015611859575f61177a876116be600185611ea6565b80549091506001600160601b0380821691600160601b90046001600160a01b03169088168211156117be57604051632520601d60e01b815260040160405180910390fd5b876001600160601b0316826001600160601b0316036117fa5782546001600160601b0316600160601b6001600160a01b0389160217835561184b565b604080518082019091526001600160601b03808a1682526001600160a01b03808a1660208085019182528d54600181018f555f8f81529190912094519151909216600160601b029216919091179101555b94508593506115b192505050565b5050604080518082019091526001600160601b0380851682526001600160a01b0380851660208085019182528854600181018a555f8a815291822095519251909316600160601b0291909316179201919091559050816115b1565b5f6118c26002848418611ecc565b610afc90848416611eb9565b6001600160e01b031981168114610a27575f80fd5b5f602082840312156118f3575f80fd5b8135610afc816118ce565b5f5b83811015611918578181015183820152602001611900565b50505f910152565b5f81518084526119378160208601602086016118fe565b601f01601f19169290920160200192915050565b602081525f610afc6020830184611920565b5f6020828403121561196d575f80fd5b5035919050565b80356001600160a01b038116811461198a575f80fd5b919050565b5f80604083850312156119a0575f80fd5b6119a983611974565b946020939093013593505050565b5f80604083850312156119c8575f80fd5b6119d183611974565b915060208301356001600160801b03811681146119ec575f80fd5b809150509250929050565b5f805f60608486031215611a09575f80fd5b611a1284611974565b9250611a2060208501611974565b9150604084013590509250925092565b8035801515811461198a575f80fd5b5f805f8060808587031215611a52575f80fd5b611a5b85611974565b935060208501359250611a7060408601611974565b9150611a7e60608601611a30565b905092959194509250565b5f60208284031215611a99575f80fd5b610afc82611974565b5f8083601f840112611ab2575f80fd5b50813567ffffffffffffffff811115611ac9575f80fd5b602083019150836020828501011115611ae0575f80fd5b9250929050565b5f805f805f60808688031215611afb575f80fd5b611b0486611974565b9450611b1260208701611974565b935060408601359250606086013567ffffffffffffffff811115611b34575f80fd5b611b4088828901611aa2565b969995985093965092949392505050565b5f805f60608486031215611b63575f80fd5b611b6c84611974565b925060208401359150611b8160408501611974565b90509250925092565b5f805f8060608587031215611b9d575f80fd5b611ba685611974565b935060208501359250604085013567ffffffffffffffff811115611bc8575f80fd5b611bd487828801611aa2565b95989497509550505050565b5f8060408385031215611bf1575f80fd5b611bfa83611974565b9150611c0860208401611a30565b90509250929050565b634e487b7160e01b5f52604160045260245ffd5b5f805f8060808587031215611c38575f80fd5b611c4185611974565b9350611c4f60208601611974565b925060408501359150606085013567ffffffffffffffff80821115611c72575f80fd5b818701915087601f830112611c85575f80fd5b813581811115611c9757611c97611c11565b604051601f8201601f19908116603f01168101908382118183101715611cbf57611cbf611c11565b816040528281528a6020848701011115611cd7575f80fd5b826020860160208301375f60208483010152809550505050505092959194509250565b5f8060408385031215611d0b575f80fd5b611d1483611974565b915060208301356001600160601b03811681146119ec575f80fd5b5f805f60608486031215611d41575f80fd5b611d4a84611974565b9250611d5860208501611974565b9150611b8160408501611a30565b5f8060408385031215611d77575f80fd5b611d8083611974565b9150611c0860208401611974565b600181811c90821680611da257607f821691505b602082108103611dc057634e487b7160e01b5f52602260045260245ffd5b50919050565b5f8351611dd78184602088016118fe565b835190830190611deb8183602088016118fe565b01949350505050565b6001600160a01b03858116825284166020820152604081018390526080606082018190525f90611e2690830184611920565b9695505050505050565b5f60208284031215611e40575f80fd5b8151610afc816118ce565b634e487b7160e01b5f52601160045260245ffd5b6001600160601b03818116838216019080821115611e7f57611e7f611e4b565b5092915050565b6001600160601b03828116828216039080821115611e7f57611e7f611e4b565b818103818111156106f7576106f7611e4b565b808201808211156106f7576106f7611e4b565b5f82611ee657634e487b7160e01b5f52601260045260245ffd5b50049056fea264697066735822122040132df8b0acbe1f63e8b876d2e442984df97241662a0081836f0ec94789252d64736f6c63430008180033",
  "linkReferences": {},
  "deployedLinkReferences": {}
}