{
  "_format": "hh-sol-artifact-1",
  "contractName": "$VotesExtendedTimestampMock",
  "sourceName": "contracts-exposed/mocks/VotesExtendedMock.sol",
  "abi": [
    {
      "inputs": [
        {
          "internalType": "string",
          "name": "name",
          "type": "string"
        },
        {
          "internalType": "string",
          "name": "version",
          "type": "string"
        }
      ],
      "stateMutability": "payable",
      "type": "constructor"
    },
    {
      "inputs": [],
      "name": "CheckpointUnorderedInsertion",
      "type": "error"
    },
    {
      "inputs": [],
      "name": "ECDSAInvalidSignature",
      "type": "error"
    },
    {
      "inputs": [
        {
          "internalType": "uint256",
          "name": "length",
          "type": "uint256"
        }
      ],
      "name": "ECDSAInvalidSignatureLength",
      "type": "error"
    },
    {
      "inputs": [
        {
          "internalType": "bytes32",
          "name": "s",
          "type": "bytes32"
        }
      ],
      "name": "ECDSAInvalidSignatureS",
      "type": "error"
    },
    {
      "inputs": [
        {
          "internalType": "uint256",
          "name": "timepoint",
          "type": "uint256"
        },
        {
          "internalType": "uint48",
          "name": "clock",
          "type": "uint48"
        }
      ],
      "name": "ERC5805FutureLookup",
      "type": "error"
    },
    {
      "inputs": [],
      "name": "ERC6372InconsistentClock",
      "type": "error"
    },
    {
      "inputs": [
        {
          "internalType": "address",
          "name": "account",
          "type": "address"
        },
        {
          "internalType": "uint256",
          "name": "currentNonce",
          "type": "uint256"
        }
      ],
      "name": "InvalidAccountNonce",
      "type": "error"
    },
    {
      "inputs": [],
      "name": "InvalidShortString",
      "type": "error"
    },
    {
      "inputs": [
        {
          "internalType": "uint8",
          "name": "bits",
          "type": "uint8"
        },
        {
          "internalType": "uint256",
          "name": "value",
          "type": "uint256"
        }
      ],
      "name": "SafeCastOverflowedUintDowncast",
      "type": "error"
    },
    {
      "inputs": [
        {
          "internalType": "string",
          "name": "str",
          "type": "string"
        }
      ],
      "name": "StringTooLong",
      "type": "error"
    },
    {
      "inputs": [
        {
          "internalType": "uint256",
          "name": "expiry",
          "type": "uint256"
        }
      ],
      "name": "VotesExpiredSignature",
      "type": "error"
    },
    {
      "anonymous": false,
      "inputs": [
        {
          "indexed": true,
          "internalType": "address",
          "name": "delegator",
          "type": "address"
        },
        {
          "indexed": true,
          "internalType": "address",
          "name": "fromDelegate",
          "type": "address"
        },
        {
          "indexed": true,
          "internalType": "address",
          "name": "toDelegate",
          "type": "address"
        }
      ],
      "name": "DelegateChanged",
      "type": "event"
    },
    {
      "anonymous": false,
      "inputs": [
        {
          "indexed": true,
          "internalType": "address",
          "name": "delegate",
          "type": "address"
        },
        {
          "indexed": false,
          "internalType": "uint256",
          "name": "previousVotes",
          "type": "uint256"
        },
        {
          "indexed": false,
          "internalType": "uint256",
          "name": "newVotes",
          "type": "uint256"
        }
      ],
      "name": "DelegateVotesChanged",
      "type": "event"
    },
    {
      "anonymous": false,
      "inputs": [],
      "name": "EIP712DomainChanged",
      "type": "event"
    },
    {
      "anonymous": false,
      "inputs": [
        {
          "indexed": false,
          "internalType": "uint256",
          "name": "ret0",
          "type": "uint256"
        }
      ],
      "name": "return$_useNonce",
      "type": "event"
    },
    {
      "inputs": [],
      "name": "$_EIP712Name",
      "outputs": [
        {
          "internalType": "string",
          "name": "ret0",
          "type": "string"
        }
      ],
      "stateMutability": "view",
      "type": "function"
    },
    {
      "inputs": [],
      "name": "$_EIP712Version",
      "outputs": [
        {
          "internalType": "string",
          "name": "ret0",
          "type": "string"
        }
      ],
      "stateMutability": "view",
      "type": "function"
    },
    {
      "inputs": [
        {
          "internalType": "address",
          "name": "account",
          "type": "address"
        },
        {
          "internalType": "uint256",
          "name": "votes",
          "type": "uint256"
        }
      ],
      "name": "$_burn",
      "outputs": [],
      "stateMutability": "nonpayable",
      "type": "function"
    },
    {
      "inputs": [
        {
          "internalType": "address",
          "name": "account",
          "type": "address"
        },
        {
          "internalType": "uint32",
          "name": "pos",
          "type": "uint32"
        }
      ],
      "name": "$_checkpoints",
      "outputs": [
        {
          "components": [
            {
              "internalType": "uint48",
              "name": "_key",
              "type": "uint48"
            },
            {
              "internalType": "uint208",
              "name": "_value",
              "type": "uint208"
            }
          ],
          "internalType": "struct Checkpoints.Checkpoint208",
          "name": "ret0",
          "type": "tuple"
        }
      ],
      "stateMutability": "view",
      "type": "function"
    },
    {
      "inputs": [],
      "name": "$_contextSuffixLength",
      "outputs": [
        {
          "internalType": "uint256",
          "name": "ret0",
          "type": "uint256"
        }
      ],
      "stateMutability": "view",
      "type": "function"
    },
    {
      "inputs": [
        {
          "internalType": "address",
          "name": "account",
          "type": "address"
        },
        {
          "internalType": "address",
          "name": "delegatee",
          "type": "address"
        }
      ],
      "name": "$_delegate",
      "outputs": [],
      "stateMutability": "nonpayable",
      "type": "function"
    },
    {
      "inputs": [],
      "name": "$_domainSeparatorV4",
      "outputs": [
        {
          "internalType": "bytes32",
          "name": "ret0",
          "type": "bytes32"
        }
      ],
      "stateMutability": "view",
      "type": "function"
    },
    {
      "inputs": [],
      "name": "$_getTotalSupply",
      "outputs": [
        {
          "internalType": "uint256",
          "name": "ret0",
          "type": "uint256"
        }
      ],
      "stateMutability": "view",
      "type": "function"
    },
    {
      "inputs": [
        {
          "internalType": "address",
          "name": "account",
          "type": "address"
        }
      ],
      "name": "$_getVotingUnits",
      "outputs": [
        {
          "internalType": "uint256",
          "name": "ret0",
          "type": "uint256"
        }
      ],
      "stateMutability": "view",
      "type": "function"
    },
    {
      "inputs": [
        {
          "internalType": "bytes32",
          "name": "structHash",
          "type": "bytes32"
        }
      ],
      "name": "$_hashTypedDataV4",
      "outputs": [
        {
          "internalType": "bytes32",
          "name": "ret0",
          "type": "bytes32"
        }
      ],
      "stateMutability": "view",
      "type": "function"
    },
    {
      "inputs": [
        {
          "internalType": "address",
          "name": "account",
          "type": "address"
        },
        {
          "internalType": "uint256",
          "name": "votes",
          "type": "uint256"
        }
      ],
      "name": "$_mint",
      "outputs": [],
      "stateMutability": "nonpayable",
      "type": "function"
    },
    {
      "inputs": [
        {
          "internalType": "address",
          "name": "from",
          "type": "address"
        },
        {
          "internalType": "address",
          "name": "to",
          "type": "address"
        },
        {
          "internalType": "uint256",
          "name": "amount",
          "type": "uint256"
        }
      ],
      "name": "$_moveDelegateVotes",
      "outputs": [],
      "stateMutability": "nonpayable",
      "type": "function"
    },
    {
      "inputs": [],
      "name": "$_msgData",
      "outputs": [
        {
          "internalType": "bytes",
          "name": "ret0",
          "type": "bytes"
        }
      ],
      "stateMutability": "view",
      "type": "function"
    },
    {
      "inputs": [],
      "name": "$_msgSender",
      "outputs": [
        {
          "internalType": "address",
          "name": "ret0",
          "type": "address"
        }
      ],
      "stateMutability": "view",
      "type": "function"
    },
    {
      "inputs": [
        {
          "internalType": "address",
          "name": "account",
          "type": "address"
        }
      ],
      "name": "$_numCheckpoints",
      "outputs": [
        {
          "internalType": "uint32",
          "name": "ret0",
          "type": "uint32"
        }
      ],
      "stateMutability": "view",
      "type": "function"
    },
    {
      "inputs": [
        {
          "internalType": "address",
          "name": "from",
          "type": "address"
        },
        {
          "internalType": "address",
          "name": "to",
          "type": "address"
        },
        {
          "internalType": "uint256",
          "name": "amount",
          "type": "uint256"
        }
      ],
      "name": "$_transferVotingUnits",
      "outputs": [],
      "stateMutability": "nonpayable",
      "type": "function"
    },
    {
      "inputs": [
        {
          "internalType": "address",
          "name": "owner",
          "type": "address"
        },
        {
          "internalType": "uint256",
          "name": "nonce",
          "type": "uint256"
        }
      ],
      "name": "$_useCheckedNonce",
      "outputs": [],
      "stateMutability": "nonpayable",
      "type": "function"
    },
    {
      "inputs": [
        {
          "internalType": "address",
          "name": "owner",
          "type": "address"
        }
      ],
      "name": "$_useNonce",
      "outputs": [
        {
          "internalType": "uint256",
          "name": "ret0",
          "type": "uint256"
        }
      ],
      "stateMutability": "nonpayable",
      "type": "function"
    },
    {
      "inputs": [
        {
          "internalType": "uint256",
          "name": "timepoint",
          "type": "uint256"
        }
      ],
      "name": "$_validateTimepoint",
      "outputs": [
        {
          "internalType": "uint48",
          "name": "ret0",
          "type": "uint48"
        }
      ],
      "stateMutability": "view",
      "type": "function"
    },
    {
      "inputs": [],
      "name": "CLOCK_MODE",
      "outputs": [
        {
          "internalType": "string",
          "name": "",
          "type": "string"
        }
      ],
      "stateMutability": "view",
      "type": "function"
    },
    {
      "inputs": [],
      "name": "__hh_exposed_bytecode_marker",
      "outputs": [
        {
          "internalType": "bytes32",
          "name": "",
          "type": "bytes32"
        }
      ],
      "stateMutability": "view",
      "type": "function"
    },
    {
      "inputs": [],
      "name": "clock",
      "outputs": [
        {
          "internalType": "uint48",
          "name": "",
          "type": "uint48"
        }
      ],
      "stateMutability": "view",
      "type": "function"
    },
    {
      "inputs": [
        {
          "internalType": "address",
          "name": "delegatee",
          "type": "address"
        }
      ],
      "name": "delegate",
      "outputs": [],
      "stateMutability": "nonpayable",
      "type": "function"
    },
    {
      "inputs": [
        {
          "internalType": "address",
          "name": "account",
          "type": "address"
        },
        {
          "internalType": "address",
          "name": "newDelegation",
          "type": "address"
        }
      ],
      "name": "delegate",
      "outputs": [],
      "stateMutability": "nonpayable",
      "type": "function"
    },
    {
      "inputs": [
        {
          "internalType": "address",
          "name": "delegatee",
          "type": "address"
        },
        {
          "internalType": "uint256",
          "name": "nonce",
          "type": "uint256"
        },
        {
          "internalType": "uint256",
          "name": "expiry",
          "type": "uint256"
        },
        {
          "internalType": "uint8",
          "name": "v",
          "type": "uint8"
        },
        {
          "internalType": "bytes32",
          "name": "r",
          "type": "bytes32"
        },
        {
          "internalType": "bytes32",
          "name": "s",
          "type": "bytes32"
        }
      ],
      "name": "delegateBySig",
      "outputs": [],
      "stateMutability": "nonpayable",
      "type": "function"
    },
    {
      "inputs": [
        {
          "internalType": "address",
          "name": "account",
          "type": "address"
        }
      ],
      "name": "delegates",
      "outputs": [
        {
          "internalType": "address",
          "name": "",
          "type": "address"
        }
      ],
      "stateMutability": "view",
      "type": "function"
    },
    {
      "inputs": [],
      "name": "eip712Domain",
      "outputs": [
        {
          "internalType": "bytes1",
          "name": "fields",
          "type": "bytes1"
        },
        {
          "internalType": "string",
          "name": "name",
          "type": "string"
        },
        {
          "internalType": "string",
          "name": "version",
          "type": "string"
        },
        {
          "internalType": "uint256",
          "name": "chainId",
          "type": "uint256"
        },
        {
          "internalType": "address",
          "name": "verifyingContract",
          "type": "address"
        },
        {
          "internalType": "bytes32",
          "name": "salt",
          "type": "bytes32"
        },
        {
          "internalType": "uint256[]",
          "name": "extensions",
          "type": "uint256[]"
        }
      ],
      "stateMutability": "view",
      "type": "function"
    },
    {
      "inputs": [
        {
          "internalType": "address",
          "name": "account",
          "type": "address"
        },
        {
          "internalType": "uint256",
          "name": "timepoint",
          "type": "uint256"
        }
      ],
      "name": "getPastBalanceOf",
      "outputs": [
        {
          "internalType": "uint256",
          "name": "",
          "type": "uint256"
        }
      ],
      "stateMutability": "view",
      "type": "function"
    },
    {
      "inputs": [
        {
          "internalType": "address",
          "name": "account",
          "type": "address"
        },
        {
          "internalType": "uint256",
          "name": "timepoint",
          "type": "uint256"
        }
      ],
      "name": "getPastDelegate",
      "outputs": [
        {
          "internalType": "address",
          "name": "",
          "type": "address"
        }
      ],
      "stateMutability": "view",
      "type": "function"
    },
    {
      "inputs": [
        {
          "internalType": "uint256",
          "name": "timepoint",
          "type": "uint256"
        }
      ],
      "name": "getPastTotalSupply",
      "outputs": [
        {
          "internalType": "uint256",
          "name": "",
          "type": "uint256"
        }
      ],
      "stateMutability": "view",
      "type": "function"
    },
    {
      "inputs": [
        {
          "internalType": "address",
          "name": "account",
          "type": "address"
        },
        {
          "internalType": "uint256",
          "name": "timepoint",
          "type": "uint256"
        }
      ],
      "name": "getPastVotes",
      "outputs": [
        {
          "internalType": "uint256",
          "name": "",
          "type": "uint256"
        }
      ],
      "stateMutability": "view",
      "type": "function"
    },
    {
      "inputs": [],
      "name": "getTotalSupply",
      "outputs": [
        {
          "internalType": "uint256",
          "name": "",
          "type": "uint256"
        }
      ],
      "stateMutability": "view",
      "type": "function"
    },
    {
      "inputs": [
        {
          "internalType": "address",
          "name": "account",
          "type": "address"
        }
      ],
      "name": "getVotes",
      "outputs": [
        {
          "internalType": "uint256",
          "name": "",
          "type": "uint256"
        }
      ],
      "stateMutability": "view",
      "type": "function"
    },
    {
      "inputs": [
        {
          "internalType": "address",
          "name": "owner",
          "type": "address"
        }
      ],
      "name": "nonces",
      "outputs": [
        {
          "internalType": "uint256",
          "name": "",
          "type": "uint256"
        }
      ],
      "stateMutability": "view",
      "type": "function"
    },
    {
      "stateMutability": "payable",
      "type": "receive"
    }
  ],
  "bytecode": "0x610160604052604051620023033803806200230383398101604081905262000027916200022e565b818162000035825f620000e5565b6101205262000046816001620000e5565b61014052815160208084019190912060e052815190820120610100524660a052620000d360e05161010051604080517f8b73c3c69bb8fe3d512ecc4cf759cc79239f7b179b0ffacaa9a75d522b39400f60208201529081019290925260608201524660808201523060a08201525f9060c00160405160208183030381529060405280519060200120905090565b60805250503060c05250620004429050565b5f6020835110156200010457620000fc836200011d565b905062000117565b816200011184826200031e565b5060ff90505b92915050565b5f80829050601f8151111562000153578260405163305a27a960e01b81526004016200014a9190620003ea565b60405180910390fd5b805162000160826200041e565b179392505050565b634e487b7160e01b5f52604160045260245ffd5b5f5b83811015620001985781810151838201526020016200017e565b50505f910152565b5f82601f830112620001b0575f80fd5b81516001600160401b0380821115620001cd57620001cd62000168565b604051601f8301601f19908116603f01168101908282118183101715620001f857620001f862000168565b8160405283815286602085880101111562000211575f80fd5b620002248460208301602089016200017c565b9695505050505050565b5f806040838503121562000240575f80fd5b82516001600160401b038082111562000257575f80fd5b6200026586838701620001a0565b935060208501519150808211156200027b575f80fd5b506200028a85828601620001a0565b9150509250929050565b600181811c90821680620002a957607f821691505b602082108103620002c857634e487b7160e01b5f52602260045260245ffd5b50919050565b601f8211156200031957805f5260205f20601f840160051c81016020851015620002f55750805b601f840160051c820191505b8181101562000316575f815560010162000301565b50505b505050565b81516001600160401b038111156200033a576200033a62000168565b62000352816200034b845462000294565b84620002ce565b602080601f83116001811462000388575f8415620003705750858301515b5f19600386901b1c1916600185901b178555620003e2565b5f85815260208120601f198616915b82811015620003b85788860151825594840194600190910190840162000397565b5085821015620003d657878501515f19600388901b60f8161c191681555b505060018460011b0185555b505050505050565b602081525f82518060208401526200040a8160408501602087016200017c565b601f01601f19169190910160400192915050565b80516020808301519190811015620002c8575f1960209190910360031b1b16919050565b60805160a05160c05160e051610100516101205161014051611e6f620004945f395f610a2d01525f610a0101525f610d3c01525f610d1401525f610c6f01525f610c9901525f610cc30152611e6f5ff3fe6080604052600436106101f3575f3560e01c806367354a8411610108578063b3068e411161009d578063cc461d621161006d578063cc461d62146105b4578063d41ecac3146105d3578063d7b7d40514610607578063e047838d14610626578063e42b0f4814610645575f80fd5b8063b3068e4114610557578063b369460c14610576578063c3cda52014610595578063c4e41b2214610393575f80fd5b80638ab65686116100d85780638ab65686146101fe5780638e539e8c1461050757806391ddadf4146105265780639ab24eb014610538575f80fd5b806367354a841461047b5780636b4ac5021461048d5780637ecebe00146104ac57806384b0196e146104e0575f80fd5b80633a46b1a811610189578063587cde1e11610159578063587cde1e146103a75780635b28e1e8146103de5780635c19a95c146103fd5780635f8d5e741461041c57806361f5b53014610430575f80fd5b80633a46b1a81461031f5780634bf5d7e91461033e578063506a6f0c14610374578063535de33414610393575f80fd5b80632e8fbee5116101c45780632e8fbee51461028357806330ff12bf146102b057806332cadf3c146102e6578063342db739146102fa575f80fd5b8062cae220146101fe5780631164d13b1461021f578063174ccd82146102495780632904df291461025d575f80fd5b366101fa57005b5f80fd5b348015610209575f80fd5b5061021d610218366004611adf565b610664565b005b34801561022a575f80fd5b50610233610672565b6040516102409190611b53565b60405180910390f35b348015610254575f80fd5b50610233610681565b348015610268575f80fd5b50335b6040516001600160a01b039091168152602001610240565b34801561028e575f80fd5b506102a261029d366004611b65565b61068b565b604051908152602001610240565b3480156102bb575f80fd5b506102cf6102ca366004611b7e565b6106eb565b60405165ffffffffffff9091168152602001610240565b3480156102f1575f80fd5b506102336106fb565b348015610305575f80fd5b506102a26e1a185c991a185d0b595e1c1bdcd959608a1b81565b34801561032a575f80fd5b506102a2610339366004611b95565b610738565b348015610349575f80fd5b5060408051808201909152600e81526d06d6f64653d74696d657374616d760941b6020820152610233565b34801561037f575f80fd5b506102a261038e366004611b7e565b610772565b34801561039e575f80fd5b506102a261077c565b3480156103b2575f80fd5b5061026b6103c1366004611b65565b6001600160a01b039081165f908152600360205260409020541690565b3480156103e9575f80fd5b5061021d6103f8366004611bbd565b610785565b348015610408575f80fd5b5061021d610417366004611b65565b610795565b348015610427575f80fd5b506102a26107a0565b34801561043b575f80fd5b5061044f61044a366004611bf6565b6107a9565b60408051825165ffffffffffff1681526020928301516001600160d01b03169281019290925201610240565b348015610486575f80fd5b505f6102a2565b348015610498575f80fd5b5061021d6104a7366004611b95565b6107cd565b3480156104b7575f80fd5b506102a26104c6366004611b65565b6001600160a01b03165f9081526002602052604090205490565b3480156104eb575f80fd5b506104f46107d7565b6040516102409796959493929190611c33565b348015610512575f80fd5b506102a2610521366004611b7e565b610819565b348015610531575f80fd5b50426102cf565b348015610543575f80fd5b506102a2610552366004611b65565b61083d565b348015610562575f80fd5b506102a2610571366004611b65565b61085d565b348015610581575f80fd5b5061026b610590366004611b95565b61087a565b3480156105a0575f80fd5b5061021d6105af366004611cca565b6108ac565b3480156105bf575f80fd5b5061021d6105ce366004611b95565b61096d565b3480156105de575f80fd5b506105f26105ed366004611b65565b610977565b60405163ffffffff9091168152602001610240565b348015610612575f80fd5b506102a2610621366004611b95565b610981565b348015610631575f80fd5b5061021d610640366004611b95565b6109ab565b348015610650575f80fd5b5061021d61065f366004611bbd565b6109b5565b61066e82826109c0565b5050565b606061067c6109fa565b905090565b606061067c610a26565b6001600160a01b0381165f90815260026020526040812080546001810190915590507f8d5c13b1cd528a3e1895fdc833368c4e3af5391250c736a28e94c4fa59b3cee4816040516106de91815260200190565b60405180910390a1919050565b5f6106f582610a53565b92915050565b60605f368080601f0160208091040260200160405190810160405280939291908181526020018383808284375f9201919091525092949350505050565b5f61076261074583610a53565b6001600160a01b0385165f90815260046020526040902090610a97565b6001600160d01b03169392505050565b5f6106f582610b47565b5f61067c610b73565b610790838383610b8c565b505050565b3361066e81836109c0565b5f61067c610c63565b604080518082019091525f80825260208201526107c68383610d8c565b9392505050565b61066e8282610dc0565b5f6060805f805f60606107e86109fa565b6107f0610a26565b604080515f80825260208201909252600f60f81b9b939a50919850469750309650945092509050565b5f61082e61082683610a53565b600590610a97565b6001600160d01b031692915050565b6001600160a01b0381165f90815260046020526040812061082e90610e12565b6001600160a01b0381165f908152600860205260408120546106f5565b5f6107c661088783610a53565b6001600160a01b0385165f9081526006602052604090209065ffffffffffff16610e49565b834211156108d557604051632341d78760e11b8152600481018590526024015b60405180910390fd5b604080517fe48329057bfd03d55e49b547132e39cffd9c1820ad7b9d4c5307691425d15adf60208201526001600160a01b0388169181019190915260608101869052608081018590525f9061094e906109469060a00160405160208183030381529060405280519060200120610b47565b858585610ee0565b905061095a8187610dc0565b61096481886109c0565b50505050505050565b61066e8282610f0c565b5f6106f582610f44565b5f61076261098e83610a53565b6001600160a01b0385165f90815260076020526040902090610a97565b61066e8282610f65565b610790838383610f9d565b6109ca8282611106565b6109f4426001600160a01b0384165f9081526006602052604090209065ffffffffffff168361118c565b50505050565b606061067c7f00000000000000000000000000000000000000000000000000000000000000005f6111a6565b606061067c7f000000000000000000000000000000000000000000000000000000000000000060016111a6565b5f4265ffffffffffff81168310610a8e57604051637669fc0f60e11b81526004810184905265ffffffffffff821660248201526044016108cc565b6107c68361124f565b81545f9081816005811115610af3575f610ab084611285565b610aba9085611d39565b5f8881526020902090915081015465ffffffffffff9081169087161015610ae357809150610af1565b610aee816001611d4c565b92505b505b5f610b00878785856113dd565b90508015610b3a57610b2487610b17600184611d39565b5f91825260209091200190565b54600160301b90046001600160d01b0316610b3c565b5f5b979650505050505050565b5f6106f5610b53610c63565b8360405161190160f01b8152600281019290925260228201526042902090565b5f610b7e6005610e12565b6001600160d01b0316905090565b610b9783838361143c565b816001600160a01b0316836001600160a01b031614610790576001600160a01b03831615610c0a57610c0742610be9610be4866001600160a01b03165f9081526008602052604090205490565b6114b1565b6001600160a01b0386165f90815260076020526040902091906114e4565b50505b6001600160a01b0382161561079057610c5c42610c3e610be4856001600160a01b03165f9081526008602052604090205490565b6001600160a01b0385165f90815260076020526040902091906114e4565b5050505050565b5f306001600160a01b037f000000000000000000000000000000000000000000000000000000000000000016148015610cbb57507f000000000000000000000000000000000000000000000000000000000000000046145b15610ce557507f000000000000000000000000000000000000000000000000000000000000000090565b61067c604080517f8b73c3c69bb8fe3d512ecc4cf759cc79239f7b179b0ffacaa9a75d522b39400f60208201527f0000000000000000000000000000000000000000000000000000000000000000918101919091527f000000000000000000000000000000000000000000000000000000000000000060608201524660808201523060a08201525f9060c00160405160208183030381529060405280519060200120905090565b604080518082019091525f80825260208201526001600160a01b0383165f9081526004602052604090206107c690836114f1565b6001600160a01b0382165f908152600260205260409020805460018101909155818114610790576040516301d4b62360e61b81526001600160a01b0384166004820152602481018290526044016108cc565b80545f908015610e4157610e2b83610b17600184611d39565b54600160301b90046001600160d01b03166107c6565b5f9392505050565b81545f9081816005811115610ea6575f610e6284611285565b610e6c9085611d39565b5f888152602090209091508101546001600160601b039081169087161015610e9657809150610ea4565b610ea1816001611d4c565b92505b505b5f610eb38787858561155e565b90508015610b3a57610eca87610b17600184611d39565b54600160601b90046001600160a01b0316610b3c565b5f805f80610ef0888888886115b7565b925092509250610f00828261167f565b50909695505050505050565b6001600160a01b0382165f9081526008602052604081208054839290610f33908490611d4c565b9091555061066e90505f8383610b8c565b6001600160a01b0381165f908152600460205260408120546106f590611737565b6001600160a01b0382165f9081526008602052604081208054839290610f8c908490611d4c565b9091555061066e9050825f83610b8c565b816001600160a01b0316836001600160a01b031614158015610fbe57505f81115b15610790576001600160a01b03831615611065576001600160a01b0383165f908152600460205260408120819061100090611767610ffb866114b1565b611772565b6001600160d01b031691506001600160d01b03169150846001600160a01b03167fdec2bacdd2f05b59de34da9b523dff8be42e5e38e818c82fdb0bae774387a724838360405161105a929190918252602082015260400190565b60405180910390a250505b6001600160a01b03821615610790576001600160a01b0382165f908152600460205260408120819061109d90611796610ffb866114b1565b6001600160d01b031691506001600160d01b03169150836001600160a01b03167fdec2bacdd2f05b59de34da9b523dff8be42e5e38e818c82fdb0bae774387a72483836040516110f7929190918252602082015260400190565b60405180910390a25050505050565b6001600160a01b038281165f8181526003602052604080822080548686166001600160a01b0319821681179092559151919094169392849290917f3134e8a2e6d97e929a7e54011ea5485d7d196dd5f0ba4d4ef95803e8e3fc257f9190a46107908183611187866001600160a01b03165f9081526008602052604090205490565b610f9d565b5f806111998585856117a1565b915091505b935093915050565b606060ff83146111c0576111b9836118f7565b90506106f5565b8180546111cc90611d5f565b80601f01602080910402602001604051908101604052809291908181526020018280546111f890611d5f565b80156112435780601f1061121a57610100808354040283529160200191611243565b820191905f5260205f20905b81548152906001019060200180831161122657829003601f168201915b505050505090506106f5565b5f65ffffffffffff821115611281576040516306dfcc6560e41b815260306004820152602481018390526044016108cc565b5090565b5f60018211611292575090565b816001600160801b82106112ab5760809190911c9060401b5b6801000000000000000082106112c65760409190911c9060201b5b64010000000082106112dd5760209190911c9060101b5b6201000082106112f25760109190911c9060081b5b61010082106113065760089190911c9060041b5b601082106113195760049190911c9060021b5b600482106113255760011b5b600302600190811c9081858161133d5761133d611d97565b048201901c9050600181858161135557611355611d97565b048201901c9050600181858161136d5761136d611d97565b048201901c9050600181858161138557611385611d97565b048201901c9050600181858161139d5761139d611d97565b048201901c905060018185816113b5576113b5611d97565b048201901c90506113d48185816113ce576113ce611d97565b04821190565b90039392505050565b5f5b81831015611434575f6113f28484611934565b5f8781526020902090915065ffffffffffff86169082015465ffffffffffff1611156114205780925061142e565b61142b816001611d4c565b93505b506113df565b509392505050565b6001600160a01b03831661145e5761145b6005611796610ffb846114b1565b50505b6001600160a01b0382166114805761147d6005611767610ffb846114b1565b50505b6001600160a01b038381165f9081526003602052604080822054858416835291205461079092918216911683610f9d565b5f6001600160d01b03821115611281576040516306dfcc6560e41b815260d06004820152602481018390526044016108cc565b5f8061119985858561194e565b604080518082019091525f8082526020820152825f018263ffffffff168154811061151e5761151e611dab565b5f9182526020918290206040805180820190915291015465ffffffffffff81168252600160301b90046001600160d01b0316918101919091529392505050565b5f5b81831015611434575f6115738484611934565b5f878152602090209091506001600160601b038616908201546001600160601b031611156115a3578092506115b1565b6115ae816001611d4c565b93505b50611560565b5f80807f7fffffffffffffffffffffffffffffff5d576e7357a4501ddfe92f46681b20a08411156115f057505f91506003905082611675565b604080515f808252602082018084528a905260ff891692820192909252606081018790526080810186905260019060a0016020604051602081039080840390855afa158015611641573d5f803e3d5ffd5b5050604051601f1901519150506001600160a01b03811661166c57505f925060019150829050611675565b92505f91508190505b9450945094915050565b5f82600381111561169257611692611dbf565b0361169b575050565b60018260038111156116af576116af611dbf565b036116cd5760405163f645eedf60e01b815260040160405180910390fd5b60028260038111156116e1576116e1611dbf565b036117025760405163fce698f760e01b8152600481018290526024016108cc565b600382600381111561171657611716611dbf565b0361066e576040516335e2f38360e21b8152600481018290526024016108cc565b5f63ffffffff821115611281576040516306dfcc6560e41b815260206004820152602481018390526044016108cc565b5f6107c68284611dd3565b5f806111994261178e61178488610e12565b868863ffffffff16565b8791906114e4565b5f6107c68284611dfa565b82545f908190801561189c575f6117bd87610b17600185611d39565b80549091506001600160601b0380821691600160601b90046001600160a01b031690881682111561180157604051632520601d60e01b815260040160405180910390fd5b876001600160601b0316826001600160601b03160361183d5782546001600160601b0316600160601b6001600160a01b0389160217835561188e565b604080518082019091526001600160601b03808a1682526001600160a01b03808a1660208085019182528d54600181018f555f8f81529190912094519151909216600160601b029216919091179101555b945085935061119e92505050565b5050604080518082019091526001600160601b0380851682526001600160a01b0380851660208085019182528854600181018a555f8a815291822095519251909316600160601b02919093161792019190915590508161119e565b60605f61190383611a9d565b6040805160208082528183019092529192505f91906020820181803683375050509182525060208101929092525090565b5f6119426002848418611e1a565b6107c690848416611d4c565b82545f9081908015611a43575f61196a87610b17600185611d39565b805490915065ffffffffffff80821691600160301b90046001600160d01b03169088168211156119ad57604051632520601d60e01b815260040160405180910390fd5b8765ffffffffffff168265ffffffffffff16036119e657825465ffffffffffff16600160301b6001600160d01b0389160217835561188e565b6040805180820190915265ffffffffffff808a1682526001600160d01b03808a1660208085019182528d54600181018f555f8f81529190912094519151909216600160301b02921691909117910155945085935061119e92505050565b50506040805180820190915265ffffffffffff80851682526001600160d01b0380851660208085019182528854600181018a555f8a815291822095519251909316600160301b02919093161792019190915590508161119e565b5f60ff8216601f8111156106f557604051632cd44ac360e21b815260040160405180910390fd5b80356001600160a01b0381168114611ada575f80fd5b919050565b5f8060408385031215611af0575f80fd5b611af983611ac4565b9150611b0760208401611ac4565b90509250929050565b5f81518084525f5b81811015611b3457602081850181015186830182015201611b18565b505f602082860101526020601f19601f83011685010191505092915050565b602081525f6107c66020830184611b10565b5f60208284031215611b75575f80fd5b6107c682611ac4565b5f60208284031215611b8e575f80fd5b5035919050565b5f8060408385031215611ba6575f80fd5b611baf83611ac4565b946020939093013593505050565b5f805f60608486031215611bcf575f80fd5b611bd884611ac4565b9250611be660208501611ac4565b9150604084013590509250925092565b5f8060408385031215611c07575f80fd5b611c1083611ac4565b9150602083013563ffffffff81168114611c28575f80fd5b809150509250929050565b60ff60f81b881681525f602060e06020840152611c5360e084018a611b10565b8381036040850152611c65818a611b10565b606085018990526001600160a01b038816608086015260a0850187905284810360c0860152855180825260208088019350909101905f5b81811015611cb857835183529284019291840191600101611c9c565b50909c9b505050505050505050505050565b5f805f805f8060c08789031215611cdf575f80fd5b611ce887611ac4565b95506020870135945060408701359350606087013560ff81168114611d0b575f80fd5b9598949750929560808101359460a0909101359350915050565b634e487b7160e01b5f52601160045260245ffd5b818103818111156106f5576106f5611d25565b808201808211156106f5576106f5611d25565b600181811c90821680611d7357607f821691505b602082108103611d9157634e487b7160e01b5f52602260045260245ffd5b50919050565b634e487b7160e01b5f52601260045260245ffd5b634e487b7160e01b5f52603260045260245ffd5b634e487b7160e01b5f52602160045260245ffd5b6001600160d01b03828116828216039080821115611df357611df3611d25565b5092915050565b6001600160d01b03818116838216019080821115611df357611df3611d25565b5f82611e3457634e487b7160e01b5f52601260045260245ffd5b50049056fea2646970667358221220b779a4651f7cf4e404a775b71244530767ba7fa863412fd90cfd79a485e79c3564736f6c63430008180033",
  "linkReferences": {},
  "deployedLinkReferences": {}
}