{
  "_format": "hh-sol-artifact-1",
  "contractName": "$VotesExtendedMock",
  "sourceName": "contracts-exposed/mocks/VotesExtendedMock.sol",
  "abi": [
    {
      "inputs": [
        {
          "internalType": "string",
          "name": "name",
          "type": "string"
        },
        {
          "internalType": "string",
          "name": "version",
          "type": "string"
        }
      ],
      "stateMutability": "payable",
      "type": "constructor"
    },
    {
      "inputs": [],
      "name": "CheckpointUnorderedInsertion",
      "type": "error"
    },
    {
      "inputs": [],
      "name": "ECDSAInvalidSignature",
      "type": "error"
    },
    {
      "inputs": [
        {
          "internalType": "uint256",
          "name": "length",
          "type": "uint256"
        }
      ],
      "name": "ECDSAInvalidSignatureLength",
      "type": "error"
    },
    {
      "inputs": [
        {
          "internalType": "bytes32",
          "name": "s",
          "type": "bytes32"
        }
      ],
      "name": "ECDSAInvalidSignatureS",
      "type": "error"
    },
    {
      "inputs": [
        {
          "internalType": "uint256",
          "name": "timepoint",
          "type": "uint256"
        },
        {
          "internalType": "uint48",
          "name": "clock",
          "type": "uint48"
        }
      ],
      "name": "ERC5805FutureLookup",
      "type": "error"
    },
    {
      "inputs": [],
      "name": "ERC6372InconsistentClock",
      "type": "error"
    },
    {
      "inputs": [
        {
          "internalType": "address",
          "name": "account",
          "type": "address"
        },
        {
          "internalType": "uint256",
          "name": "currentNonce",
          "type": "uint256"
        }
      ],
      "name": "InvalidAccountNonce",
      "type": "error"
    },
    {
      "inputs": [],
      "name": "InvalidShortString",
      "type": "error"
    },
    {
      "inputs": [
        {
          "internalType": "uint8",
          "name": "bits",
          "type": "uint8"
        },
        {
          "internalType": "uint256",
          "name": "value",
          "type": "uint256"
        }
      ],
      "name": "SafeCastOverflowedUintDowncast",
      "type": "error"
    },
    {
      "inputs": [
        {
          "internalType": "string",
          "name": "str",
          "type": "string"
        }
      ],
      "name": "StringTooLong",
      "type": "error"
    },
    {
      "inputs": [
        {
          "internalType": "uint256",
          "name": "expiry",
          "type": "uint256"
        }
      ],
      "name": "VotesExpiredSignature",
      "type": "error"
    },
    {
      "anonymous": false,
      "inputs": [
        {
          "indexed": true,
          "internalType": "address",
          "name": "delegator",
          "type": "address"
        },
        {
          "indexed": true,
          "internalType": "address",
          "name": "fromDelegate",
          "type": "address"
        },
        {
          "indexed": true,
          "internalType": "address",
          "name": "toDelegate",
          "type": "address"
        }
      ],
      "name": "DelegateChanged",
      "type": "event"
    },
    {
      "anonymous": false,
      "inputs": [
        {
          "indexed": true,
          "internalType": "address",
          "name": "delegate",
          "type": "address"
        },
        {
          "indexed": false,
          "internalType": "uint256",
          "name": "previousVotes",
          "type": "uint256"
        },
        {
          "indexed": false,
          "internalType": "uint256",
          "name": "newVotes",
          "type": "uint256"
        }
      ],
      "name": "DelegateVotesChanged",
      "type": "event"
    },
    {
      "anonymous": false,
      "inputs": [],
      "name": "EIP712DomainChanged",
      "type": "event"
    },
    {
      "anonymous": false,
      "inputs": [
        {
          "indexed": false,
          "internalType": "uint256",
          "name": "ret0",
          "type": "uint256"
        }
      ],
      "name": "return$_useNonce",
      "type": "event"
    },
    {
      "inputs": [],
      "name": "$_EIP712Name",
      "outputs": [
        {
          "internalType": "string",
          "name": "ret0",
          "type": "string"
        }
      ],
      "stateMutability": "view",
      "type": "function"
    },
    {
      "inputs": [],
      "name": "$_EIP712Version",
      "outputs": [
        {
          "internalType": "string",
          "name": "ret0",
          "type": "string"
        }
      ],
      "stateMutability": "view",
      "type": "function"
    },
    {
      "inputs": [
        {
          "internalType": "address",
          "name": "account",
          "type": "address"
        },
        {
          "internalType": "uint256",
          "name": "votes",
          "type": "uint256"
        }
      ],
      "name": "$_burn",
      "outputs": [],
      "stateMutability": "nonpayable",
      "type": "function"
    },
    {
      "inputs": [
        {
          "internalType": "address",
          "name": "account",
          "type": "address"
        },
        {
          "internalType": "uint32",
          "name": "pos",
          "type": "uint32"
        }
      ],
      "name": "$_checkpoints",
      "outputs": [
        {
          "components": [
            {
              "internalType": "uint48",
              "name": "_key",
              "type": "uint48"
            },
            {
              "internalType": "uint208",
              "name": "_value",
              "type": "uint208"
            }
          ],
          "internalType": "struct Checkpoints.Checkpoint208",
          "name": "ret0",
          "type": "tuple"
        }
      ],
      "stateMutability": "view",
      "type": "function"
    },
    {
      "inputs": [],
      "name": "$_contextSuffixLength",
      "outputs": [
        {
          "internalType": "uint256",
          "name": "ret0",
          "type": "uint256"
        }
      ],
      "stateMutability": "view",
      "type": "function"
    },
    {
      "inputs": [
        {
          "internalType": "address",
          "name": "account",
          "type": "address"
        },
        {
          "internalType": "address",
          "name": "delegatee",
          "type": "address"
        }
      ],
      "name": "$_delegate",
      "outputs": [],
      "stateMutability": "nonpayable",
      "type": "function"
    },
    {
      "inputs": [],
      "name": "$_domainSeparatorV4",
      "outputs": [
        {
          "internalType": "bytes32",
          "name": "ret0",
          "type": "bytes32"
        }
      ],
      "stateMutability": "view",
      "type": "function"
    },
    {
      "inputs": [],
      "name": "$_getTotalSupply",
      "outputs": [
        {
          "internalType": "uint256",
          "name": "ret0",
          "type": "uint256"
        }
      ],
      "stateMutability": "view",
      "type": "function"
    },
    {
      "inputs": [
        {
          "internalType": "address",
          "name": "account",
          "type": "address"
        }
      ],
      "name": "$_getVotingUnits",
      "outputs": [
        {
          "internalType": "uint256",
          "name": "ret0",
          "type": "uint256"
        }
      ],
      "stateMutability": "view",
      "type": "function"
    },
    {
      "inputs": [
        {
          "internalType": "bytes32",
          "name": "structHash",
          "type": "bytes32"
        }
      ],
      "name": "$_hashTypedDataV4",
      "outputs": [
        {
          "internalType": "bytes32",
          "name": "ret0",
          "type": "bytes32"
        }
      ],
      "stateMutability": "view",
      "type": "function"
    },
    {
      "inputs": [
        {
          "internalType": "address",
          "name": "account",
          "type": "address"
        },
        {
          "internalType": "uint256",
          "name": "votes",
          "type": "uint256"
        }
      ],
      "name": "$_mint",
      "outputs": [],
      "stateMutability": "nonpayable",
      "type": "function"
    },
    {
      "inputs": [
        {
          "internalType": "address",
          "name": "from",
          "type": "address"
        },
        {
          "internalType": "address",
          "name": "to",
          "type": "address"
        },
        {
          "internalType": "uint256",
          "name": "amount",
          "type": "uint256"
        }
      ],
      "name": "$_moveDelegateVotes",
      "outputs": [],
      "stateMutability": "nonpayable",
      "type": "function"
    },
    {
      "inputs": [],
      "name": "$_msgData",
      "outputs": [
        {
          "internalType": "bytes",
          "name": "ret0",
          "type": "bytes"
        }
      ],
      "stateMutability": "view",
      "type": "function"
    },
    {
      "inputs": [],
      "name": "$_msgSender",
      "outputs": [
        {
          "internalType": "address",
          "name": "ret0",
          "type": "address"
        }
      ],
      "stateMutability": "view",
      "type": "function"
    },
    {
      "inputs": [
        {
          "internalType": "address",
          "name": "account",
          "type": "address"
        }
      ],
      "name": "$_numCheckpoints",
      "outputs": [
        {
          "internalType": "uint32",
          "name": "ret0",
          "type": "uint32"
        }
      ],
      "stateMutability": "view",
      "type": "function"
    },
    {
      "inputs": [
        {
          "internalType": "address",
          "name": "from",
          "type": "address"
        },
        {
          "internalType": "address",
          "name": "to",
          "type": "address"
        },
        {
          "internalType": "uint256",
          "name": "amount",
          "type": "uint256"
        }
      ],
      "name": "$_transferVotingUnits",
      "outputs": [],
      "stateMutability": "nonpayable",
      "type": "function"
    },
    {
      "inputs": [
        {
          "internalType": "address",
          "name": "owner",
          "type": "address"
        },
        {
          "internalType": "uint256",
          "name": "nonce",
          "type": "uint256"
        }
      ],
      "name": "$_useCheckedNonce",
      "outputs": [],
      "stateMutability": "nonpayable",
      "type": "function"
    },
    {
      "inputs": [
        {
          "internalType": "address",
          "name": "owner",
          "type": "address"
        }
      ],
      "name": "$_useNonce",
      "outputs": [
        {
          "internalType": "uint256",
          "name": "ret0",
          "type": "uint256"
        }
      ],
      "stateMutability": "nonpayable",
      "type": "function"
    },
    {
      "inputs": [
        {
          "internalType": "uint256",
          "name": "timepoint",
          "type": "uint256"
        }
      ],
      "name": "$_validateTimepoint",
      "outputs": [
        {
          "internalType": "uint48",
          "name": "ret0",
          "type": "uint48"
        }
      ],
      "stateMutability": "view",
      "type": "function"
    },
    {
      "inputs": [],
      "name": "CLOCK_MODE",
      "outputs": [
        {
          "internalType": "string",
          "name": "",
          "type": "string"
        }
      ],
      "stateMutability": "view",
      "type": "function"
    },
    {
      "inputs": [],
      "name": "__hh_exposed_bytecode_marker",
      "outputs": [
        {
          "internalType": "bytes32",
          "name": "",
          "type": "bytes32"
        }
      ],
      "stateMutability": "view",
      "type": "function"
    },
    {
      "inputs": [],
      "name": "clock",
      "outputs": [
        {
          "internalType": "uint48",
          "name": "",
          "type": "uint48"
        }
      ],
      "stateMutability": "view",
      "type": "function"
    },
    {
      "inputs": [
        {
          "internalType": "address",
          "name": "delegatee",
          "type": "address"
        }
      ],
      "name": "delegate",
      "outputs": [],
      "stateMutability": "nonpayable",
      "type": "function"
    },
    {
      "inputs": [
        {
          "internalType": "address",
          "name": "account",
          "type": "address"
        },
        {
          "internalType": "address",
          "name": "newDelegation",
          "type": "address"
        }
      ],
      "name": "delegate",
      "outputs": [],
      "stateMutability": "nonpayable",
      "type": "function"
    },
    {
      "inputs": [
        {
          "internalType": "address",
          "name": "delegatee",
          "type": "address"
        },
        {
          "internalType": "uint256",
          "name": "nonce",
          "type": "uint256"
        },
        {
          "internalType": "uint256",
          "name": "expiry",
          "type": "uint256"
        },
        {
          "internalType": "uint8",
          "name": "v",
          "type": "uint8"
        },
        {
          "internalType": "bytes32",
          "name": "r",
          "type": "bytes32"
        },
        {
          "internalType": "bytes32",
          "name": "s",
          "type": "bytes32"
        }
      ],
      "name": "delegateBySig",
      "outputs": [],
      "stateMutability": "nonpayable",
      "type": "function"
    },
    {
      "inputs": [
        {
          "internalType": "address",
          "name": "account",
          "type": "address"
        }
      ],
      "name": "delegates",
      "outputs": [
        {
          "internalType": "address",
          "name": "",
          "type": "address"
        }
      ],
      "stateMutability": "view",
      "type": "function"
    },
    {
      "inputs": [],
      "name": "eip712Domain",
      "outputs": [
        {
          "internalType": "bytes1",
          "name": "fields",
          "type": "bytes1"
        },
        {
          "internalType": "string",
          "name": "name",
          "type": "string"
        },
        {
          "internalType": "string",
          "name": "version",
          "type": "string"
        },
        {
          "internalType": "uint256",
          "name": "chainId",
          "type": "uint256"
        },
        {
          "internalType": "address",
          "name": "verifyingContract",
          "type": "address"
        },
        {
          "internalType": "bytes32",
          "name": "salt",
          "type": "bytes32"
        },
        {
          "internalType": "uint256[]",
          "name": "extensions",
          "type": "uint256[]"
        }
      ],
      "stateMutability": "view",
      "type": "function"
    },
    {
      "inputs": [
        {
          "internalType": "address",
          "name": "account",
          "type": "address"
        },
        {
          "internalType": "uint256",
          "name": "timepoint",
          "type": "uint256"
        }
      ],
      "name": "getPastBalanceOf",
      "outputs": [
        {
          "internalType": "uint256",
          "name": "",
          "type": "uint256"
        }
      ],
      "stateMutability": "view",
      "type": "function"
    },
    {
      "inputs": [
        {
          "internalType": "address",
          "name": "account",
          "type": "address"
        },
        {
          "internalType": "uint256",
          "name": "timepoint",
          "type": "uint256"
        }
      ],
      "name": "getPastDelegate",
      "outputs": [
        {
          "internalType": "address",
          "name": "",
          "type": "address"
        }
      ],
      "stateMutability": "view",
      "type": "function"
    },
    {
      "inputs": [
        {
          "internalType": "uint256",
          "name": "timepoint",
          "type": "uint256"
        }
      ],
      "name": "getPastTotalSupply",
      "outputs": [
        {
          "internalType": "uint256",
          "name": "",
          "type": "uint256"
        }
      ],
      "stateMutability": "view",
      "type": "function"
    },
    {
      "inputs": [
        {
          "internalType": "address",
          "name": "account",
          "type": "address"
        },
        {
          "internalType": "uint256",
          "name": "timepoint",
          "type": "uint256"
        }
      ],
      "name": "getPastVotes",
      "outputs": [
        {
          "internalType": "uint256",
          "name": "",
          "type": "uint256"
        }
      ],
      "stateMutability": "view",
      "type": "function"
    },
    {
      "inputs": [],
      "name": "getTotalSupply",
      "outputs": [
        {
          "internalType": "uint256",
          "name": "",
          "type": "uint256"
        }
      ],
      "stateMutability": "view",
      "type": "function"
    },
    {
      "inputs": [
        {
          "internalType": "address",
          "name": "account",
          "type": "address"
        }
      ],
      "name": "getVotes",
      "outputs": [
        {
          "internalType": "uint256",
          "name": "",
          "type": "uint256"
        }
      ],
      "stateMutability": "view",
      "type": "function"
    },
    {
      "inputs": [
        {
          "internalType": "address",
          "name": "owner",
          "type": "address"
        }
      ],
      "name": "nonces",
      "outputs": [
        {
          "internalType": "uint256",
          "name": "",
          "type": "uint256"
        }
      ],
      "stateMutability": "view",
      "type": "function"
    },
    {
      "stateMutability": "payable",
      "type": "receive"
    }
  ],
  "bytecode": "0x610160604052604051620023943803806200239483398101604081905262000027916200022e565b818162000035825f620000e5565b6101205262000046816001620000e5565b61014052815160208084019190912060e052815190820120610100524660a052620000d360e05161010051604080517f8b73c3c69bb8fe3d512ecc4cf759cc79239f7b179b0ffacaa9a75d522b39400f60208201529081019290925260608201524660808201523060a08201525f9060c00160405160208183030381529060405280519060200120905090565b60805250503060c05250620004429050565b5f6020835110156200010457620000fc836200011d565b905062000117565b816200011184826200031e565b5060ff90505b92915050565b5f80829050601f8151111562000153578260405163305a27a960e01b81526004016200014a9190620003ea565b60405180910390fd5b805162000160826200041e565b179392505050565b634e487b7160e01b5f52604160045260245ffd5b5f5b83811015620001985781810151838201526020016200017e565b50505f910152565b5f82601f830112620001b0575f80fd5b81516001600160401b0380821115620001cd57620001cd62000168565b604051601f8301601f19908116603f01168101908282118183101715620001f857620001f862000168565b8160405283815286602085880101111562000211575f80fd5b620002248460208301602089016200017c565b9695505050505050565b5f806040838503121562000240575f80fd5b82516001600160401b038082111562000257575f80fd5b6200026586838701620001a0565b935060208501519150808211156200027b575f80fd5b506200028a85828601620001a0565b9150509250929050565b600181811c90821680620002a957607f821691505b602082108103620002c857634e487b7160e01b5f52602260045260245ffd5b50919050565b601f8211156200031957805f5260205f20601f840160051c81016020851015620002f55750805b601f840160051c820191505b8181101562000316575f815560010162000301565b50505b505050565b81516001600160401b038111156200033a576200033a62000168565b62000352816200034b845462000294565b84620002ce565b602080601f83116001811462000388575f8415620003705750858301515b5f19600386901b1c1916600185901b178555620003e2565b5f85815260208120601f198616915b82811015620003b85788860151825594840194600190910190840162000397565b5085821015620003d657878501515f19600388901b60f8161c191681555b505060018460011b0185555b505050505050565b602081525f82518060208401526200040a8160408501602087016200017c565b601f01601f19169190910160400192915050565b80516020808301519190811015620002c8575f1960209190910360031b1b16919050565b60805160a05160c05160e051610100516101205161014051611f00620004945f395f610a9501525f610a6901525f610dc601525f610d9e01525f610cf901525f610d2301525f610d4d0152611f005ff3fe6080604052600436106101f3575f3560e01c806367354a8411610108578063b3068e411161009d578063cc461d621161006d578063cc461d6214610594578063d41ecac3146105b3578063d7b7d405146105e7578063e047838d14610606578063e42b0f4814610625575f80fd5b8063b3068e4114610537578063b369460c14610556578063c3cda52014610575578063c4e41b2214610371575f80fd5b80638ab65686116100d85780638ab65686146101fe5780638e539e8c146104e557806391ddadf4146105045780639ab24eb014610518575f80fd5b806367354a84146104595780636b4ac5021461046b5780637ecebe001461048a57806384b0196e146104be575f80fd5b80633a46b1a811610189578063587cde1e11610159578063587cde1e146103855780635b28e1e8146103bc5780635c19a95c146103db5780635f8d5e74146103fa57806361f5b5301461040e575f80fd5b80633a46b1a81461031f5780634bf5d7e91461033e578063506a6f0c14610352578063535de33414610371575f80fd5b80632e8fbee5116101c45780632e8fbee51461028357806330ff12bf146102b057806332cadf3c146102e6578063342db739146102fa575f80fd5b8062cae220146101fe5780631164d13b1461021f578063174ccd82146102495780632904df291461025d575f80fd5b366101fa57005b5f80fd5b348015610209575f80fd5b5061021d610218366004611b70565b610644565b005b34801561022a575f80fd5b50610233610652565b6040516102409190611be4565b60405180910390f35b348015610254575f80fd5b50610233610661565b348015610268575f80fd5b50335b6040516001600160a01b039091168152602001610240565b34801561028e575f80fd5b506102a261029d366004611bf6565b61066b565b604051908152602001610240565b3480156102bb575f80fd5b506102cf6102ca366004611c0f565b6106cb565b60405165ffffffffffff9091168152602001610240565b3480156102f1575f80fd5b506102336106db565b348015610305575f80fd5b506102a26e1a185c991a185d0b595e1c1bdcd959608a1b81565b34801561032a575f80fd5b506102a2610339366004611c26565b610718565b348015610349575f80fd5b50610233610752565b34801561035d575f80fd5b506102a261036c366004611c0f565b6107ca565b34801561037c575f80fd5b506102a26107d4565b348015610390575f80fd5b5061026b61039f366004611bf6565b6001600160a01b039081165f908152600360205260409020541690565b3480156103c7575f80fd5b5061021d6103d6366004611c4e565b6107dd565b3480156103e6575f80fd5b5061021d6103f5366004611bf6565b6107ed565b348015610405575f80fd5b506102a26107f8565b348015610419575f80fd5b5061042d610428366004611c87565b610801565b60408051825165ffffffffffff1681526020928301516001600160d01b03169281019290925201610240565b348015610464575f80fd5b505f6102a2565b348015610476575f80fd5b5061021d610485366004611c26565b610825565b348015610495575f80fd5b506102a26104a4366004611bf6565b6001600160a01b03165f9081526002602052604090205490565b3480156104c9575f80fd5b506104d261082f565b6040516102409796959493929190611cc4565b3480156104f0575f80fd5b506102a26104ff366004611c0f565b610871565b34801561050f575f80fd5b506102cf610895565b348015610523575f80fd5b506102a2610532366004611bf6565b61089e565b348015610542575f80fd5b506102a2610551366004611bf6565b6108be565b348015610561575f80fd5b5061026b610570366004611c26565b6108db565b348015610580575f80fd5b5061021d61058f366004611d5b565b61090d565b34801561059f575f80fd5b5061021d6105ae366004611c26565b6109ce565b3480156105be575f80fd5b506105d26105cd366004611bf6565b6109d8565b60405163ffffffff9091168152602001610240565b3480156105f2575f80fd5b506102a2610601366004611c26565b6109e2565b348015610611575f80fd5b5061021d610620366004611c26565b610a0c565b348015610630575f80fd5b5061021d61063f366004611c4e565b610a16565b61064e8282610a21565b5050565b606061065c610a62565b905090565b606061065c610a8e565b6001600160a01b0381165f90815260026020526040812080546001810190915590507f8d5c13b1cd528a3e1895fdc833368c4e3af5391250c736a28e94c4fa59b3cee4816040516106be91815260200190565b60405180910390a1919050565b5f6106d582610abb565b92915050565b60605f368080601f0160208091040260200160405190810160405280939291908181526020018383808284375f9201919091525092949350505050565b5f61074261072583610abb565b6001600160a01b0385165f90815260046020526040902090610b09565b6001600160d01b03169392505050565b606061075c610bb9565b65ffffffffffff1661076c610895565b65ffffffffffff1614610792576040516301bfc1c560e61b815260040160405180910390fd5b5060408051808201909152601d81527f6d6f64653d626c6f636b6e756d6265722666726f6d3d64656661756c74000000602082015290565b5f6106d582610bc3565b5f61065c610bef565b6107e8838383610c08565b505050565b3361064e8183610a21565b5f61065c610ced565b604080518082019091525f808252602082015261081e8383610e16565b9392505050565b61064e8282610e4a565b5f6060805f805f6060610840610a62565b610848610a8e565b604080515f80825260208201909252600f60f81b9b939a50919850469750309650945092509050565b5f61088661087e83610abb565b600590610b09565b6001600160d01b031692915050565b5f61065c610bb9565b6001600160a01b0381165f90815260046020526040812061088690610e9c565b6001600160a01b0381165f908152600860205260408120546106d5565b5f61081e6108e883610abb565b6001600160a01b0385165f9081526006602052604090209065ffffffffffff16610ed3565b8342111561093657604051632341d78760e11b8152600481018590526024015b60405180910390fd5b604080517fe48329057bfd03d55e49b547132e39cffd9c1820ad7b9d4c5307691425d15adf60208201526001600160a01b0388169181019190915260608101869052608081018590525f906109af906109a79060a00160405160208183030381529060405280519060200120610bc3565b858585610f6a565b90506109bb8187610e4a565b6109c58188610a21565b50505050505050565b61064e8282610f96565b5f6106d582610fce565b5f6107426109ef83610abb565b6001600160a01b0385165f90815260076020526040902090610b09565b61064e8282610fef565b6107e8838383611027565b610a2b8282611190565b610a5c610a36610895565b6001600160a01b0384165f9081526006602052604090209065ffffffffffff1683611216565b50505050565b606061065c7f00000000000000000000000000000000000000000000000000000000000000005f611230565b606061065c7f00000000000000000000000000000000000000000000000000000000000000006001611230565b5f80610ac5610895565b90508065ffffffffffff168310610b0057604051637669fc0f60e11b81526004810184905265ffffffffffff8216602482015260440161092d565b61081e836112d9565b81545f9081816005811115610b65575f610b228461130f565b610b2c9085611dca565b5f8881526020902090915081015465ffffffffffff9081169087161015610b5557809150610b63565b610b60816001611ddd565b92505b505b5f610b7287878585611467565b90508015610bac57610b9687610b89600184611dca565b5f91825260209091200190565b54600160301b90046001600160d01b0316610bae565b5f5b979650505050505050565b5f61065c436112d9565b5f6106d5610bcf610ced565b8360405161190160f01b8152600281019290925260228201526042902090565b5f610bfa6005610e9c565b6001600160d01b0316905090565b610c138383836114c6565b816001600160a01b0316836001600160a01b0316146107e8576001600160a01b03831615610c8d57610c8a610c46610895565b610c6c610c67866001600160a01b03165f9081526008602052604090205490565b61153b565b6001600160a01b0386165f908152600760205260409020919061156e565b50505b6001600160a01b038216156107e857610ce6610ca7610895565b610cc8610c67856001600160a01b03165f9081526008602052604090205490565b6001600160a01b0385165f908152600760205260409020919061156e565b5050505050565b5f306001600160a01b037f000000000000000000000000000000000000000000000000000000000000000016148015610d4557507f000000000000000000000000000000000000000000000000000000000000000046145b15610d6f57507f000000000000000000000000000000000000000000000000000000000000000090565b61065c604080517f8b73c3c69bb8fe3d512ecc4cf759cc79239f7b179b0ffacaa9a75d522b39400f60208201527f0000000000000000000000000000000000000000000000000000000000000000918101919091527f000000000000000000000000000000000000000000000000000000000000000060608201524660808201523060a08201525f9060c00160405160208183030381529060405280519060200120905090565b604080518082019091525f80825260208201526001600160a01b0383165f90815260046020526040902061081e908361157b565b6001600160a01b0382165f9081526002602052604090208054600181019091558181146107e8576040516301d4b62360e61b81526001600160a01b03841660048201526024810182905260440161092d565b80545f908015610ecb57610eb583610b89600184611dca565b54600160301b90046001600160d01b031661081e565b5f9392505050565b81545f9081816005811115610f30575f610eec8461130f565b610ef69085611dca565b5f888152602090209091508101546001600160601b039081169087161015610f2057809150610f2e565b610f2b816001611ddd565b92505b505b5f610f3d878785856115e8565b90508015610bac57610f5487610b89600184611dca565b54600160601b90046001600160a01b0316610bae565b5f805f80610f7a88888888611641565b925092509250610f8a8282611709565b50909695505050505050565b6001600160a01b0382165f9081526008602052604081208054839290610fbd908490611ddd565b9091555061064e90505f8383610c08565b6001600160a01b0381165f908152600460205260408120546106d5906117c1565b6001600160a01b0382165f9081526008602052604081208054839290611016908490611ddd565b9091555061064e9050825f83610c08565b816001600160a01b0316836001600160a01b03161415801561104857505f81115b156107e8576001600160a01b038316156110ef576001600160a01b0383165f908152600460205260408120819061108a906117f16110858661153b565b6117fc565b6001600160d01b031691506001600160d01b03169150846001600160a01b03167fdec2bacdd2f05b59de34da9b523dff8be42e5e38e818c82fdb0bae774387a72483836040516110e4929190918252602082015260400190565b60405180910390a250505b6001600160a01b038216156107e8576001600160a01b0382165f9081526004602052604081208190611127906118276110858661153b565b6001600160d01b031691506001600160d01b03169150836001600160a01b03167fdec2bacdd2f05b59de34da9b523dff8be42e5e38e818c82fdb0bae774387a7248383604051611181929190918252602082015260400190565b60405180910390a25050505050565b6001600160a01b038281165f8181526003602052604080822080548686166001600160a01b0319821681179092559151919094169392849290917f3134e8a2e6d97e929a7e54011ea5485d7d196dd5f0ba4d4ef95803e8e3fc257f9190a46107e88183611211866001600160a01b03165f9081526008602052604090205490565b611027565b5f80611223858585611832565b915091505b935093915050565b606060ff831461124a5761124383611988565b90506106d5565b81805461125690611df0565b80601f016020809104026020016040519081016040528092919081815260200182805461128290611df0565b80156112cd5780601f106112a4576101008083540402835291602001916112cd565b820191905f5260205f20905b8154815290600101906020018083116112b057829003601f168201915b505050505090506106d5565b5f65ffffffffffff82111561130b576040516306dfcc6560e41b8152603060048201526024810183905260440161092d565b5090565b5f6001821161131c575090565b816001600160801b82106113355760809190911c9060401b5b6801000000000000000082106113505760409190911c9060201b5b64010000000082106113675760209190911c9060101b5b62010000821061137c5760109190911c9060081b5b61010082106113905760089190911c9060041b5b601082106113a35760049190911c9060021b5b600482106113af5760011b5b600302600190811c908185816113c7576113c7611e28565b048201901c905060018185816113df576113df611e28565b048201901c905060018185816113f7576113f7611e28565b048201901c9050600181858161140f5761140f611e28565b048201901c9050600181858161142757611427611e28565b048201901c9050600181858161143f5761143f611e28565b048201901c905061145e81858161145857611458611e28565b04821190565b90039392505050565b5f5b818310156114be575f61147c84846119c5565b5f8781526020902090915065ffffffffffff86169082015465ffffffffffff1611156114aa578092506114b8565b6114b5816001611ddd565b93505b50611469565b509392505050565b6001600160a01b0383166114e8576114e560056118276110858461153b565b50505b6001600160a01b03821661150a5761150760056117f16110858461153b565b50505b6001600160a01b038381165f908152600360205260408082205485841683529120546107e892918216911683611027565b5f6001600160d01b0382111561130b576040516306dfcc6560e41b815260d060048201526024810183905260440161092d565b5f806112238585856119df565b604080518082019091525f8082526020820152825f018263ffffffff16815481106115a8576115a8611e3c565b5f9182526020918290206040805180820190915291015465ffffffffffff81168252600160301b90046001600160d01b0316918101919091529392505050565b5f5b818310156114be575f6115fd84846119c5565b5f878152602090209091506001600160601b038616908201546001600160601b0316111561162d5780925061163b565b611638816001611ddd565b93505b506115ea565b5f80807f7fffffffffffffffffffffffffffffff5d576e7357a4501ddfe92f46681b20a084111561167a57505f915060039050826116ff565b604080515f808252602082018084528a905260ff891692820192909252606081018790526080810186905260019060a0016020604051602081039080840390855afa1580156116cb573d5f803e3d5ffd5b5050604051601f1901519150506001600160a01b0381166116f657505f9250600191508290506116ff565b92505f91508190505b9450945094915050565b5f82600381111561171c5761171c611e50565b03611725575050565b600182600381111561173957611739611e50565b036117575760405163f645eedf60e01b815260040160405180910390fd5b600282600381111561176b5761176b611e50565b0361178c5760405163fce698f760e01b81526004810182905260240161092d565b60038260038111156117a0576117a0611e50565b0361064e576040516335e2f38360e21b81526004810182905260240161092d565b5f63ffffffff82111561130b576040516306dfcc6560e41b8152602060048201526024810183905260440161092d565b5f61081e8284611e64565b5f80611223611809610895565b61181f61181588610e9c565b868863ffffffff16565b87919061156e565b5f61081e8284611e8b565b82545f908190801561192d575f61184e87610b89600185611dca565b80549091506001600160601b0380821691600160601b90046001600160a01b031690881682111561189257604051632520601d60e01b815260040160405180910390fd5b876001600160601b0316826001600160601b0316036118ce5782546001600160601b0316600160601b6001600160a01b0389160217835561191f565b604080518082019091526001600160601b03808a1682526001600160a01b03808a1660208085019182528d54600181018f555f8f81529190912094519151909216600160601b029216919091179101555b945085935061122892505050565b5050604080518082019091526001600160601b0380851682526001600160a01b0380851660208085019182528854600181018a555f8a815291822095519251909316600160601b029190931617920191909155905081611228565b60605f61199483611b2e565b6040805160208082528183019092529192505f91906020820181803683375050509182525060208101929092525090565b5f6119d36002848418611eab565b61081e90848416611ddd565b82545f9081908015611ad4575f6119fb87610b89600185611dca565b805490915065ffffffffffff80821691600160301b90046001600160d01b0316908816821115611a3e57604051632520601d60e01b815260040160405180910390fd5b8765ffffffffffff168265ffffffffffff1603611a7757825465ffffffffffff16600160301b6001600160d01b0389160217835561191f565b6040805180820190915265ffffffffffff808a1682526001600160d01b03808a1660208085019182528d54600181018f555f8f81529190912094519151909216600160301b02921691909117910155945085935061122892505050565b50506040805180820190915265ffffffffffff80851682526001600160d01b0380851660208085019182528854600181018a555f8a815291822095519251909316600160301b029190931617920191909155905081611228565b5f60ff8216601f8111156106d557604051632cd44ac360e21b815260040160405180910390fd5b80356001600160a01b0381168114611b6b575f80fd5b919050565b5f8060408385031215611b81575f80fd5b611b8a83611b55565b9150611b9860208401611b55565b90509250929050565b5f81518084525f5b81811015611bc557602081850181015186830182015201611ba9565b505f602082860101526020601f19601f83011685010191505092915050565b602081525f61081e6020830184611ba1565b5f60208284031215611c06575f80fd5b61081e82611b55565b5f60208284031215611c1f575f80fd5b5035919050565b5f8060408385031215611c37575f80fd5b611c4083611b55565b946020939093013593505050565b5f805f60608486031215611c60575f80fd5b611c6984611b55565b9250611c7760208501611b55565b9150604084013590509250925092565b5f8060408385031215611c98575f80fd5b611ca183611b55565b9150602083013563ffffffff81168114611cb9575f80fd5b809150509250929050565b60ff60f81b881681525f602060e06020840152611ce460e084018a611ba1565b8381036040850152611cf6818a611ba1565b606085018990526001600160a01b038816608086015260a0850187905284810360c0860152855180825260208088019350909101905f5b81811015611d4957835183529284019291840191600101611d2d565b50909c9b505050505050505050505050565b5f805f805f8060c08789031215611d70575f80fd5b611d7987611b55565b95506020870135945060408701359350606087013560ff81168114611d9c575f80fd5b9598949750929560808101359460a0909101359350915050565b634e487b7160e01b5f52601160045260245ffd5b818103818111156106d5576106d5611db6565b808201808211156106d5576106d5611db6565b600181811c90821680611e0457607f821691505b602082108103611e2257634e487b7160e01b5f52602260045260245ffd5b50919050565b634e487b7160e01b5f52601260045260245ffd5b634e487b7160e01b5f52603260045260245ffd5b634e487b7160e01b5f52602160045260245ffd5b6001600160d01b03828116828216039080821115611e8457611e84611db6565b5092915050565b6001600160d01b03818116838216019080821115611e8457611e84611db6565b5f82611ec557634e487b7160e01b5f52601260045260245ffd5b50049056fea26469706673582212204e80c83b4cbe0baec5f9ab7eaaaca92e8a668e974ed6ab479fcdd73ac7eac0eb64736f6c63430008180033",
  "linkReferences": {},
  "deployedLinkReferences": {}
}