{
  "_format": "hh-sol-artifact-1",
  "contractName": "$ERC1363NoReturnMock",
  "sourceName": "contracts-exposed/mocks/token/ERC1363NoReturnMock.sol",
  "abi": [
    {
      "inputs": [
        {
          "internalType": "string",
          "name": "name_",
          "type": "string"
        },
        {
          "internalType": "string",
          "name": "symbol_",
          "type": "string"
        }
      ],
      "stateMutability": "payable",
      "type": "constructor"
    },
    {
      "inputs": [
        {
          "internalType": "address",
          "name": "spender",
          "type": "address"
        },
        {
          "internalType": "uint256",
          "name": "value",
          "type": "uint256"
        }
      ],
      "name": "ERC1363ApproveFailed",
      "type": "error"
    },
    {
      "inputs": [
        {
          "internalType": "address",
          "name": "receiver",
          "type": "address"
        }
      ],
      "name": "ERC1363InvalidReceiver",
      "type": "error"
    },
    {
      "inputs": [
        {
          "internalType": "address",
          "name": "spender",
          "type": "address"
        }
      ],
      "name": "ERC1363InvalidSpender",
      "type": "error"
    },
    {
      "inputs": [
        {
          "internalType": "address",
          "name": "receiver",
          "type": "address"
        },
        {
          "internalType": "uint256",
          "name": "value",
          "type": "uint256"
        }
      ],
      "name": "ERC1363TransferFailed",
      "type": "error"
    },
    {
      "inputs": [
        {
          "internalType": "address",
          "name": "sender",
          "type": "address"
        },
        {
          "internalType": "address",
          "name": "receiver",
          "type": "address"
        },
        {
          "internalType": "uint256",
          "name": "value",
          "type": "uint256"
        }
      ],
      "name": "ERC1363TransferFromFailed",
      "type": "error"
    },
    {
      "inputs": [
        {
          "internalType": "address",
          "name": "spender",
          "type": "address"
        },
        {
          "internalType": "uint256",
          "name": "allowance",
          "type": "uint256"
        },
        {
          "internalType": "uint256",
          "name": "needed",
          "type": "uint256"
        }
      ],
      "name": "ERC20InsufficientAllowance",
      "type": "error"
    },
    {
      "inputs": [
        {
          "internalType": "address",
          "name": "sender",
          "type": "address"
        },
        {
          "internalType": "uint256",
          "name": "balance",
          "type": "uint256"
        },
        {
          "internalType": "uint256",
          "name": "needed",
          "type": "uint256"
        }
      ],
      "name": "ERC20InsufficientBalance",
      "type": "error"
    },
    {
      "inputs": [
        {
          "internalType": "address",
          "name": "approver",
          "type": "address"
        }
      ],
      "name": "ERC20InvalidApprover",
      "type": "error"
    },
    {
      "inputs": [
        {
          "internalType": "address",
          "name": "receiver",
          "type": "address"
        }
      ],
      "name": "ERC20InvalidReceiver",
      "type": "error"
    },
    {
      "inputs": [
        {
          "internalType": "address",
          "name": "sender",
          "type": "address"
        }
      ],
      "name": "ERC20InvalidSender",
      "type": "error"
    },
    {
      "inputs": [
        {
          "internalType": "address",
          "name": "spender",
          "type": "address"
        }
      ],
      "name": "ERC20InvalidSpender",
      "type": "error"
    },
    {
      "anonymous": false,
      "inputs": [
        {
          "indexed": true,
          "internalType": "address",
          "name": "owner",
          "type": "address"
        },
        {
          "indexed": true,
          "internalType": "address",
          "name": "spender",
          "type": "address"
        },
        {
          "indexed": false,
          "internalType": "uint256",
          "name": "value",
          "type": "uint256"
        }
      ],
      "name": "Approval",
      "type": "event"
    },
    {
      "anonymous": false,
      "inputs": [
        {
          "indexed": true,
          "internalType": "address",
          "name": "from",
          "type": "address"
        },
        {
          "indexed": true,
          "internalType": "address",
          "name": "to",
          "type": "address"
        },
        {
          "indexed": false,
          "internalType": "uint256",
          "name": "value",
          "type": "uint256"
        }
      ],
      "name": "Transfer",
      "type": "event"
    },
    {
      "inputs": [
        {
          "internalType": "address",
          "name": "owner",
          "type": "address"
        },
        {
          "internalType": "address",
          "name": "spender",
          "type": "address"
        },
        {
          "internalType": "uint256",
          "name": "value",
          "type": "uint256"
        },
        {
          "internalType": "bool",
          "name": "emitEvent",
          "type": "bool"
        }
      ],
      "name": "$_approve",
      "outputs": [],
      "stateMutability": "nonpayable",
      "type": "function"
    },
    {
      "inputs": [
        {
          "internalType": "address",
          "name": "owner",
          "type": "address"
        },
        {
          "internalType": "address",
          "name": "spender",
          "type": "address"
        },
        {
          "internalType": "uint256",
          "name": "value",
          "type": "uint256"
        }
      ],
      "name": "$_approve",
      "outputs": [],
      "stateMutability": "nonpayable",
      "type": "function"
    },
    {
      "inputs": [
        {
          "internalType": "address",
          "name": "account",
          "type": "address"
        },
        {
          "internalType": "uint256",
          "name": "value",
          "type": "uint256"
        }
      ],
      "name": "$_burn",
      "outputs": [],
      "stateMutability": "nonpayable",
      "type": "function"
    },
    {
      "inputs": [],
      "name": "$_contextSuffixLength",
      "outputs": [
        {
          "internalType": "uint256",
          "name": "ret0",
          "type": "uint256"
        }
      ],
      "stateMutability": "view",
      "type": "function"
    },
    {
      "inputs": [
        {
          "internalType": "address",
          "name": "account",
          "type": "address"
        },
        {
          "internalType": "uint256",
          "name": "value",
          "type": "uint256"
        }
      ],
      "name": "$_mint",
      "outputs": [],
      "stateMutability": "nonpayable",
      "type": "function"
    },
    {
      "inputs": [],
      "name": "$_msgData",
      "outputs": [
        {
          "internalType": "bytes",
          "name": "ret0",
          "type": "bytes"
        }
      ],
      "stateMutability": "view",
      "type": "function"
    },
    {
      "inputs": [],
      "name": "$_msgSender",
      "outputs": [
        {
          "internalType": "address",
          "name": "ret0",
          "type": "address"
        }
      ],
      "stateMutability": "view",
      "type": "function"
    },
    {
      "inputs": [
        {
          "internalType": "address",
          "name": "owner",
          "type": "address"
        },
        {
          "internalType": "address",
          "name": "spender",
          "type": "address"
        },
        {
          "internalType": "uint256",
          "name": "value",
          "type": "uint256"
        }
      ],
      "name": "$_spendAllowance",
      "outputs": [],
      "stateMutability": "nonpayable",
      "type": "function"
    },
    {
      "inputs": [
        {
          "internalType": "address",
          "name": "from",
          "type": "address"
        },
        {
          "internalType": "address",
          "name": "to",
          "type": "address"
        },
        {
          "internalType": "uint256",
          "name": "value",
          "type": "uint256"
        }
      ],
      "name": "$_transfer",
      "outputs": [],
      "stateMutability": "nonpayable",
      "type": "function"
    },
    {
      "inputs": [
        {
          "internalType": "address",
          "name": "from",
          "type": "address"
        },
        {
          "internalType": "address",
          "name": "to",
          "type": "address"
        },
        {
          "internalType": "uint256",
          "name": "value",
          "type": "uint256"
        }
      ],
      "name": "$_update",
      "outputs": [],
      "stateMutability": "nonpayable",
      "type": "function"
    },
    {
      "inputs": [],
      "name": "__hh_exposed_bytecode_marker",
      "outputs": [
        {
          "internalType": "bytes32",
          "name": "",
          "type": "bytes32"
        }
      ],
      "stateMutability": "view",
      "type": "function"
    },
    {
      "inputs": [
        {
          "internalType": "address",
          "name": "owner",
          "type": "address"
        },
        {
          "internalType": "address",
          "name": "spender",
          "type": "address"
        }
      ],
      "name": "allowance",
      "outputs": [
        {
          "internalType": "uint256",
          "name": "",
          "type": "uint256"
        }
      ],
      "stateMutability": "view",
      "type": "function"
    },
    {
      "inputs": [
        {
          "internalType": "address",
          "name": "spender",
          "type": "address"
        },
        {
          "internalType": "uint256",
          "name": "value",
          "type": "uint256"
        }
      ],
      "name": "approve",
      "outputs": [
        {
          "internalType": "bool",
          "name": "",
          "type": "bool"
        }
      ],
      "stateMutability": "nonpayable",
      "type": "function"
    },
    {
      "inputs": [
        {
          "internalType": "address",
          "name": "spender",
          "type": "address"
        },
        {
          "internalType": "uint256",
          "name": "value",
          "type": "uint256"
        }
      ],
      "name": "approveAndCall",
      "outputs": [
        {
          "internalType": "bool",
          "name": "",
          "type": "bool"
        }
      ],
      "stateMutability": "nonpayable",
      "type": "function"
    },
    {
      "inputs": [
        {
          "internalType": "address",
          "name": "spender",
          "type": "address"
        },
        {
          "internalType": "uint256",
          "name": "value",
          "type": "uint256"
        },
        {
          "internalType": "bytes",
          "name": "data",
          "type": "bytes"
        }
      ],
      "name": "approveAndCall",
      "outputs": [
        {
          "internalType": "bool",
          "name": "",
          "type": "bool"
        }
      ],
      "stateMutability": "nonpayable",
      "type": "function"
    },
    {
      "inputs": [
        {
          "internalType": "address",
          "name": "account",
          "type": "address"
        }
      ],
      "name": "balanceOf",
      "outputs": [
        {
          "internalType": "uint256",
          "name": "",
          "type": "uint256"
        }
      ],
      "stateMutability": "view",
      "type": "function"
    },
    {
      "inputs": [],
      "name": "decimals",
      "outputs": [
        {
          "internalType": "uint8",
          "name": "",
          "type": "uint8"
        }
      ],
      "stateMutability": "view",
      "type": "function"
    },
    {
      "inputs": [],
      "name": "name",
      "outputs": [
        {
          "internalType": "string",
          "name": "",
          "type": "string"
        }
      ],
      "stateMutability": "view",
      "type": "function"
    },
    {
      "inputs": [
        {
          "internalType": "bytes4",
          "name": "interfaceId",
          "type": "bytes4"
        }
      ],
      "name": "supportsInterface",
      "outputs": [
        {
          "internalType": "bool",
          "name": "",
          "type": "bool"
        }
      ],
      "stateMutability": "view",
      "type": "function"
    },
    {
      "inputs": [],
      "name": "symbol",
      "outputs": [
        {
          "internalType": "string",
          "name": "",
          "type": "string"
        }
      ],
      "stateMutability": "view",
      "type": "function"
    },
    {
      "inputs": [],
      "name": "totalSupply",
      "outputs": [
        {
          "internalType": "uint256",
          "name": "",
          "type": "uint256"
        }
      ],
      "stateMutability": "view",
      "type": "function"
    },
    {
      "inputs": [
        {
          "internalType": "address",
          "name": "to",
          "type": "address"
        },
        {
          "internalType": "uint256",
          "name": "value",
          "type": "uint256"
        }
      ],
      "name": "transfer",
      "outputs": [
        {
          "internalType": "bool",
          "name": "",
          "type": "bool"
        }
      ],
      "stateMutability": "nonpayable",
      "type": "function"
    },
    {
      "inputs": [
        {
          "internalType": "address",
          "name": "to",
          "type": "address"
        },
        {
          "internalType": "uint256",
          "name": "value",
          "type": "uint256"
        }
      ],
      "name": "transferAndCall",
      "outputs": [
        {
          "internalType": "bool",
          "name": "",
          "type": "bool"
        }
      ],
      "stateMutability": "nonpayable",
      "type": "function"
    },
    {
      "inputs": [
        {
          "internalType": "address",
          "name": "to",
          "type": "address"
        },
        {
          "internalType": "uint256",
          "name": "value",
          "type": "uint256"
        },
        {
          "internalType": "bytes",
          "name": "data",
          "type": "bytes"
        }
      ],
      "name": "transferAndCall",
      "outputs": [
        {
          "internalType": "bool",
          "name": "",
          "type": "bool"
        }
      ],
      "stateMutability": "nonpayable",
      "type": "function"
    },
    {
      "inputs": [
        {
          "internalType": "address",
          "name": "from",
          "type": "address"
        },
        {
          "internalType": "address",
          "name": "to",
          "type": "address"
        },
        {
          "internalType": "uint256",
          "name": "value",
          "type": "uint256"
        }
      ],
      "name": "transferFrom",
      "outputs": [
        {
          "internalType": "bool",
          "name": "",
          "type": "bool"
        }
      ],
      "stateMutability": "nonpayable",
      "type": "function"
    },
    {
      "inputs": [
        {
          "internalType": "address",
          "name": "from",
          "type": "address"
        },
        {
          "internalType": "address",
          "name": "to",
          "type": "address"
        },
        {
          "internalType": "uint256",
          "name": "value",
          "type": "uint256"
        },
        {
          "internalType": "bytes",
          "name": "data",
          "type": "bytes"
        }
      ],
      "name": "transferFromAndCall",
      "outputs": [
        {
          "internalType": "bool",
          "name": "",
          "type": "bool"
        }
      ],
      "stateMutability": "nonpayable",
      "type": "function"
    },
    {
      "inputs": [
        {
          "internalType": "address",
          "name": "from",
          "type": "address"
        },
        {
          "internalType": "address",
          "name": "to",
          "type": "address"
        },
        {
          "internalType": "uint256",
          "name": "value",
          "type": "uint256"
        }
      ],
      "name": "transferFromAndCall",
      "outputs": [
        {
          "internalType": "bool",
          "name": "",
          "type": "bool"
        }
      ],
      "stateMutability": "nonpayable",
      "type": "function"
    },
    {
      "stateMutability": "payable",
      "type": "receive"
    }
  ],
  "bytecode": "0x6080604052604051620014c9380380620014c9833981016040819052620000269162000111565b8181600362000036838262000201565b50600462000045828262000201565b5050505050620002cd565b634e487b7160e01b5f52604160045260245ffd5b5f82601f83011262000074575f80fd5b81516001600160401b038082111562000091576200009162000050565b604051601f8301601f19908116603f01168101908282118183101715620000bc57620000bc62000050565b8160405283815260209250866020858801011115620000d9575f80fd5b5f91505b83821015620000fc5785820183015181830184015290820190620000dd565b5f602085830101528094505050505092915050565b5f806040838503121562000123575f80fd5b82516001600160401b03808211156200013a575f80fd5b620001488683870162000064565b935060208501519150808211156200015e575f80fd5b506200016d8582860162000064565b9150509250929050565b600181811c908216806200018c57607f821691505b602082108103620001ab57634e487b7160e01b5f52602260045260245ffd5b50919050565b601f821115620001fc57805f5260205f20601f840160051c81016020851015620001d85750805b601f840160051c820191505b81811015620001f9575f8155600101620001e4565b50505b505050565b81516001600160401b038111156200021d576200021d62000050565b62000235816200022e845462000177565b84620001b1565b602080601f8311600181146200026b575f8415620002535750858301515b5f19600386901b1c1916600185901b178555620002c5565b5f85815260208120601f198616915b828110156200029b578886015182559484019460019091019084016200027a565b5085821015620002b957878501515f19600388901b60f8161c191681555b505060018460011b0185555b505050505050565b6111ee80620002db5f395ff3fe608060405260043610610198575f3560e01c806367354a84116100e7578063c1d34b8911610087578063d8fbe99411610062578063d8fbe99414610473578063dd62ed3e14610492578063e047838d146104d6578063efb43b07146104f5575f80fd5b8063c1d34b8914610416578063cae9ca5114610435578063cc461d6214610454575f80fd5b8063861e3d3d116100c2578063861e3d3d146103a557806395d89b41146103c4578063a9059cbb146103d8578063b2331d7d146103f7575f80fd5b806367354a84146103405780636855a1781461035257806370a0823114610371575f80fd5b80632904df291161015257806332bc74aa1161012d57806332bc74aa146102c757806332cadf3c146102e8578063342db739146102fc5780634000aea014610321575f80fd5b80632904df2914610273578063313ce5671461028d5780633177029f146102a8575f80fd5b806301ffc9a7146101a357806306fdde03146101d7578063095ea7b3146101f85780631296ee621461021757806318160ddd1461023657806323b872dd14610254575f80fd5b3661019f57005b5f80fd5b3480156101ae575f80fd5b506101c26101bd366004610e01565b610514565b60405190151581526020015b60405180910390f35b3480156101e2575f80fd5b506101eb61054a565b6040516101ce9190610e5f565b348015610203575f80fd5b506101c2610212366004610e8c565b6105da565b348015610222575f80fd5b506101c2610231366004610e8c565b6105f1565b348015610241575f80fd5b506002545b6040519081526020016101ce565b34801561025f575f80fd5b506101c261026e366004610eb4565b610612565b34801561027e575f80fd5b506040513381526020016101ce565b348015610298575f80fd5b50604051601281526020016101ce565b3480156102b3575f80fd5b506101c26102c2366004610e8c565b610635565b3480156102d2575f80fd5b506102e66102e1366004610eed565b61064f565b005b3480156102f3575f80fd5b506101eb610661565b348015610307575f80fd5b506102466e1a185c991a185d0b595e1c1bdcd959608a1b81565b34801561032c575f80fd5b506101c261033b366004610fda565b61069e565b34801561034b575f80fd5b505f610246565b34801561035d575f80fd5b506102e661036c366004610eb4565b6106aa565b34801561037c575f80fd5b5061024661038b36600461102d565b6001600160a01b03165f9081526020819052604090205490565b3480156103b0575f80fd5b506102e66103bf366004610eb4565b6106ba565b3480156103cf575f80fd5b506101eb6106c5565b3480156103e3575f80fd5b506101c26103f2366004610e8c565b6106d4565b348015610402575f80fd5b506102e6610411366004610eb4565b6106e1565b348015610421575f80fd5b506101c2610430366004611046565b6106ec565b348015610440575f80fd5b506101c261044f366004610fda565b6106f9565b34801561045f575f80fd5b506102e661046e366004610e8c565b610705565b34801561047e575f80fd5b506101c261048d366004610eb4565b610713565b34801561049d575f80fd5b506102466104ac3660046110aa565b6001600160a01b039182165f90815260016020908152604080832093909416825291909152205490565b3480156104e1575f80fd5b506102e66104f0366004610e8c565b610736565b348015610500575f80fd5b506102e661050f366004610eb4565b610740565b5f6001600160e01b0319821663b0202a1160e01b148061054457506301ffc9a760e01b6001600160e01b03198316145b92915050565b606060038054610559906110db565b80601f0160208091040260200160405190810160405280929190818152602001828054610585906110db565b80156105d05780601f106105a7576101008083540402835291602001916105d0565b820191905f5260205f20905b8154815290600101906020018083116105b357829003601f168201915b5050505050905090565b5f336105e781858561074b565b5060019392505050565b5f61060b838360405180602001604052805f81525061069e565b9392505050565b5f3361061f858285610758565b61062a8585856107d3565b506001949350505050565b5f61060b838360405180602001604052805f8152506106f9565b61065b84848484610825565b50505050565b60605f368080601f0160208091040260200160405190810160405280939291908181526020018383808284375f9201919091525092949350505050565b5f6102e68484846108f7565b6106b583838361093e565b505050565b6106b583838361074b565b606060048054610559906110db565b5f336105e78185856107d3565b6106b5838383610758565b5f6102e685858585610a64565b5f6102e6848484610ab4565b61070f8282610afa565b5050565b5f61072e84848460405180602001604052805f8152506106ec565b949350505050565b61070f8282610b2e565b6106b58383836107d3565b6106b58383836001610825565b6001600160a01b038381165f908152600160209081526040808320938616835292905220545f1981101561065b57818110156107c557604051637dc7a0d960e11b81526001600160a01b038416600482015260248101829052604481018390526064015b60405180910390fd5b61065b84848484035f610825565b6001600160a01b0383166107fc57604051634b637e8f60e11b81525f60048201526024016107bc565b6001600160a01b0382166106aa5760405163ec442f0560e01b81525f60048201526024016107bc565b6001600160a01b03841661084e5760405163e602df0560e01b81525f60048201526024016107bc565b6001600160a01b03831661087757604051634a1406b160e11b81525f60048201526024016107bc565b6001600160a01b038085165f908152600160209081526040808320938716835292905220829055801561065b57826001600160a01b0316846001600160a01b03167f8c5be1e5ebec7d5bd14f71427d1e84f3dd0314c0f7b2291e5b200ac8c7c3b925846040516108e991815260200190565b60405180910390a350505050565b5f61090284846106d4565b6109315760405163118d81d760e11b81526001600160a01b0385166004820152602481018490526044016107bc565b6105e73333868686610b62565b6001600160a01b038316610968578060025f82825461095d9190611113565b909155506109d89050565b6001600160a01b0383165f90815260208190526040902054818110156109ba5760405163391434e360e21b81526001600160a01b038516600482015260248101829052604481018390526064016107bc565b6001600160a01b0384165f9081526020819052604090209082900390555b6001600160a01b0382166109f457600280548290039055610a12565b6001600160a01b0382165f9081526020819052604090208054820190555b816001600160a01b0316836001600160a01b03167fddf252ad1be2c89b69c2b068fc378daa952ba7f163c4a11628f55a4df523b3ef83604051610a5791815260200190565b60405180910390a3505050565b5f610a70858585610612565b610aa757604051635ab42af360e11b81526001600160a01b03808716600483015285166024820152604481018490526064016107bc565b61062a3386868686610b62565b5f610abf84846105da565b610aee57604051631439557160e21b81526001600160a01b0385166004820152602481018490526044016107bc565b6105e733858585610caf565b6001600160a01b038216610b235760405163ec442f0560e01b81525f60048201526024016107bc565b61070f5f838361093e565b6001600160a01b038216610b5757604051634b637e8f60e11b81525f60048201526024016107bc565b61070f825f8361093e565b826001600160a01b03163b5f03610b97576040516322a5b36760e21b81526001600160a01b03841660048201526024016107bc565b604051632229f29760e21b81526001600160a01b038416906388a7ca5c90610bc9908890889087908790600401611132565b6020604051808303815f875af1925050508015610c03575060408051601f3d908101601f19168201909252610c009181019061116e565b60015b610c6a573d808015610c30576040519150601f19603f3d011682016040523d82523d5f602084013e610c35565b606091505b5080515f03610c62576040516322a5b36760e21b81526001600160a01b03851660048201526024016107bc565b805181602001fd5b6001600160e01b03198116632229f29760e21b14610ca6576040516322a5b36760e21b81526001600160a01b03851660048201526024016107bc565b505b5050505050565b826001600160a01b03163b5f03610ce45760405163deb6d3ed60e01b81526001600160a01b03841660048201526024016107bc565b6040516307b04a2d60e41b81526001600160a01b03841690637b04a2d090610d1490879086908690600401611189565b6020604051808303815f875af1925050508015610d4e575060408051601f3d908101601f19168201909252610d4b9181019061116e565b60015b610dad573d808015610d7b576040519150601f19603f3d011682016040523d82523d5f602084013e610d80565b606091505b5080515f03610c625760405163deb6d3ed60e01b81526001600160a01b03851660048201526024016107bc565b6001600160e01b031981166307b04a2d60e41b14610ca85760405163deb6d3ed60e01b81526001600160a01b03851660048201526024016107bc565b6001600160e01b031981168114610dfe575f80fd5b50565b5f60208284031215610e11575f80fd5b813561060b81610de9565b5f81518084525f5b81811015610e4057602081850181015186830182015201610e24565b505f602082860101526020601f19601f83011685010191505092915050565b602081525f61060b6020830184610e1c565b80356001600160a01b0381168114610e87575f80fd5b919050565b5f8060408385031215610e9d575f80fd5b610ea683610e71565b946020939093013593505050565b5f805f60608486031215610ec6575f80fd5b610ecf84610e71565b9250610edd60208501610e71565b9150604084013590509250925092565b5f805f8060808587031215610f00575f80fd5b610f0985610e71565b9350610f1760208601610e71565b92506040850135915060608501358015158114610f32575f80fd5b939692955090935050565b634e487b7160e01b5f52604160045260245ffd5b5f82601f830112610f60575f80fd5b813567ffffffffffffffff80821115610f7b57610f7b610f3d565b604051601f8301601f19908116603f01168101908282118183101715610fa357610fa3610f3d565b81604052838152866020858801011115610fbb575f80fd5b836020870160208301375f602085830101528094505050505092915050565b5f805f60608486031215610fec575f80fd5b610ff584610e71565b925060208401359150604084013567ffffffffffffffff811115611017575f80fd5b61102386828701610f51565b9150509250925092565b5f6020828403121561103d575f80fd5b61060b82610e71565b5f805f8060808587031215611059575f80fd5b61106285610e71565b935061107060208601610e71565b925060408501359150606085013567ffffffffffffffff811115611092575f80fd5b61109e87828801610f51565b91505092959194509250565b5f80604083850312156110bb575f80fd5b6110c483610e71565b91506110d260208401610e71565b90509250929050565b600181811c908216806110ef57607f821691505b60208210810361110d57634e487b7160e01b5f52602260045260245ffd5b50919050565b8082018082111561054457634e487b7160e01b5f52601160045260245ffd5b6001600160a01b03858116825284166020820152604081018390526080606082018190525f9061116490830184610e1c565b9695505050505050565b5f6020828403121561117e575f80fd5b815161060b81610de9565b60018060a01b0384168152826020820152606060408201525f6111af6060830184610e1c565b9594505050505056fea26469706673582212200ed4a04e17856ba08ac498a3a9ee68148365e609a33e6d22d01b9aa4f78a458064736f6c63430008180033",
  "linkReferences": {},
  "deployedLinkReferences": {}
}