{
  "_format": "hh-sol-artifact-1",
  "contractName": "$ReentrancyAttack",
  "sourceName": "contracts-exposed/mocks/ReentrancyAttack.sol",
  "abi": [
    {
      "inputs": [],
      "stateMutability": "payable",
      "type": "constructor"
    },
    {
      "inputs": [],
      "name": "$_contextSuffixLength",
      "outputs": [
        {
          "internalType": "uint256",
          "name": "ret0",
          "type": "uint256"
        }
      ],
      "stateMutability": "view",
      "type": "function"
    },
    {
      "inputs": [],
      "name": "$_msgData",
      "outputs": [
        {
          "internalType": "bytes",
          "name": "ret0",
          "type": "bytes"
        }
      ],
      "stateMutability": "view",
      "type": "function"
    },
    {
      "inputs": [],
      "name": "$_msgSender",
      "outputs": [
        {
          "internalType": "address",
          "name": "ret0",
          "type": "address"
        }
      ],
      "stateMutability": "view",
      "type": "function"
    },
    {
      "inputs": [],
      "name": "__hh_exposed_bytecode_marker",
      "outputs": [
        {
          "internalType": "bytes32",
          "name": "",
          "type": "bytes32"
        }
      ],
      "stateMutability": "view",
      "type": "function"
    },
    {
      "inputs": [
        {
          "internalType": "bytes",
          "name": "data",
          "type": "bytes"
        }
      ],
      "name": "callSender",
      "outputs": [],
      "stateMutability": "nonpayable",
      "type": "function"
    },
    {
      "stateMutability": "payable",
      "type": "receive"
    }
  ],
  "bytecode": "0x60806040526102ea806100115f395ff3fe60806040526004361061004c575f3560e01c80632904df291461005757806332cadf3c14610076578063342db7391461009757806367354a84146100ca578063f8123dd5146100dc575f80fd5b3661005357005b5f80fd5b348015610062575f80fd5b506040513381526020015b60405180910390f35b348015610081575f80fd5b5061008a6100fd565b60405161006d91906101ed565b3480156100a2575f80fd5b506100bc6e1a185c991a185d0b595e1c1bdcd959608a1b81565b60405190815260200161006d565b3480156100d5575f80fd5b505f6100bc565b3480156100e7575f80fd5b506100fb6100f6366004610239565b61013a565b005b60605f368080601f0160208091040260200160405190810160405280939291908181526020018383808284375f9201919091525092949350505050565b5f336001600160a01b031683836040516101559291906102a5565b5f604051808303815f865af19150503d805f811461018e576040519150601f19603f3d011682016040523d82523d5f602084013e610193565b606091505b50509050806101e85760405162461bcd60e51b815260206004820152601d60248201527f5265656e7472616e637941747461636b3a206661696c65642063616c6c000000604482015260640160405180910390fd5b505050565b5f602080835283518060208501525f5b81811015610219578581018301518582016040015282016101fd565b505f604082860101526040601f19601f8301168501019250505092915050565b5f806020838503121561024a575f80fd5b823567ffffffffffffffff80821115610261575f80fd5b818501915085601f830112610274575f80fd5b813581811115610282575f80fd5b866020828501011115610293575f80fd5b60209290920196919550909350505050565b818382375f910190815291905056fea2646970667358221220375e94cd3c5bd7ee125bfc204599ccc65a458b07af2d7361c5f805b209ab57db64736f6c63430008180033",
  "linkReferences": {},
  "deployedLinkReferences": {}
}