{
  "_format": "hh-sol-artifact-1",
  "contractName": "$AccessControlEnumerable",
  "sourceName": "contracts-exposed/access/extensions/AccessControlEnumerable.sol",
  "abi": [
    {
      "inputs": [],
      "stateMutability": "payable",
      "type": "constructor"
    },
    {
      "inputs": [],
      "name": "AccessControlBadConfirmation",
      "type": "error"
    },
    {
      "inputs": [
        {
          "internalType": "address",
          "name": "account",
          "type": "address"
        },
        {
          "internalType": "bytes32",
          "name": "neededRole",
          "type": "bytes32"
        }
      ],
      "name": "AccessControlUnauthorizedAccount",
      "type": "error"
    },
    {
      "anonymous": false,
      "inputs": [
        {
          "indexed": true,
          "internalType": "bytes32",
          "name": "role",
          "type": "bytes32"
        },
        {
          "indexed": true,
          "internalType": "bytes32",
          "name": "previousAdminRole",
          "type": "bytes32"
        },
        {
          "indexed": true,
          "internalType": "bytes32",
          "name": "newAdminRole",
          "type": "bytes32"
        }
      ],
      "name": "RoleAdminChanged",
      "type": "event"
    },
    {
      "anonymous": false,
      "inputs": [
        {
          "indexed": true,
          "internalType": "bytes32",
          "name": "role",
          "type": "bytes32"
        },
        {
          "indexed": true,
          "internalType": "address",
          "name": "account",
          "type": "address"
        },
        {
          "indexed": true,
          "internalType": "address",
          "name": "sender",
          "type": "address"
        }
      ],
      "name": "RoleGranted",
      "type": "event"
    },
    {
      "anonymous": false,
      "inputs": [
        {
          "indexed": true,
          "internalType": "bytes32",
          "name": "role",
          "type": "bytes32"
        },
        {
          "indexed": true,
          "internalType": "address",
          "name": "account",
          "type": "address"
        },
        {
          "indexed": true,
          "internalType": "address",
          "name": "sender",
          "type": "address"
        }
      ],
      "name": "RoleRevoked",
      "type": "event"
    },
    {
      "anonymous": false,
      "inputs": [
        {
          "indexed": false,
          "internalType": "bool",
          "name": "ret0",
          "type": "bool"
        }
      ],
      "name": "return$_grantRole",
      "type": "event"
    },
    {
      "anonymous": false,
      "inputs": [
        {
          "indexed": false,
          "internalType": "bool",
          "name": "ret0",
          "type": "bool"
        }
      ],
      "name": "return$_revokeRole",
      "type": "event"
    },
    {
      "inputs": [
        {
          "internalType": "bytes32",
          "name": "role",
          "type": "bytes32"
        },
        {
          "internalType": "address",
          "name": "account",
          "type": "address"
        }
      ],
      "name": "$_checkRole",
      "outputs": [],
      "stateMutability": "view",
      "type": "function"
    },
    {
      "inputs": [
        {
          "internalType": "bytes32",
          "name": "role",
          "type": "bytes32"
        }
      ],
      "name": "$_checkRole",
      "outputs": [],
      "stateMutability": "view",
      "type": "function"
    },
    {
      "inputs": [],
      "name": "$_contextSuffixLength",
      "outputs": [
        {
          "internalType": "uint256",
          "name": "ret0",
          "type": "uint256"
        }
      ],
      "stateMutability": "view",
      "type": "function"
    },
    {
      "inputs": [
        {
          "internalType": "bytes32",
          "name": "role",
          "type": "bytes32"
        },
        {
          "internalType": "address",
          "name": "account",
          "type": "address"
        }
      ],
      "name": "$_grantRole",
      "outputs": [
        {
          "internalType": "bool",
          "name": "ret0",
          "type": "bool"
        }
      ],
      "stateMutability": "nonpayable",
      "type": "function"
    },
    {
      "inputs": [],
      "name": "$_msgData",
      "outputs": [
        {
          "internalType": "bytes",
          "name": "ret0",
          "type": "bytes"
        }
      ],
      "stateMutability": "view",
      "type": "function"
    },
    {
      "inputs": [],
      "name": "$_msgSender",
      "outputs": [
        {
          "internalType": "address",
          "name": "ret0",
          "type": "address"
        }
      ],
      "stateMutability": "view",
      "type": "function"
    },
    {
      "inputs": [
        {
          "internalType": "bytes32",
          "name": "role",
          "type": "bytes32"
        },
        {
          "internalType": "address",
          "name": "account",
          "type": "address"
        }
      ],
      "name": "$_revokeRole",
      "outputs": [
        {
          "internalType": "bool",
          "name": "ret0",
          "type": "bool"
        }
      ],
      "stateMutability": "nonpayable",
      "type": "function"
    },
    {
      "inputs": [
        {
          "internalType": "bytes32",
          "name": "role",
          "type": "bytes32"
        },
        {
          "internalType": "bytes32",
          "name": "adminRole",
          "type": "bytes32"
        }
      ],
      "name": "$_setRoleAdmin",
      "outputs": [],
      "stateMutability": "nonpayable",
      "type": "function"
    },
    {
      "inputs": [],
      "name": "DEFAULT_ADMIN_ROLE",
      "outputs": [
        {
          "internalType": "bytes32",
          "name": "",
          "type": "bytes32"
        }
      ],
      "stateMutability": "view",
      "type": "function"
    },
    {
      "inputs": [],
      "name": "__hh_exposed_bytecode_marker",
      "outputs": [
        {
          "internalType": "bytes32",
          "name": "",
          "type": "bytes32"
        }
      ],
      "stateMutability": "view",
      "type": "function"
    },
    {
      "inputs": [
        {
          "internalType": "bytes32",
          "name": "role",
          "type": "bytes32"
        }
      ],
      "name": "getRoleAdmin",
      "outputs": [
        {
          "internalType": "bytes32",
          "name": "",
          "type": "bytes32"
        }
      ],
      "stateMutability": "view",
      "type": "function"
    },
    {
      "inputs": [
        {
          "internalType": "bytes32",
          "name": "role",
          "type": "bytes32"
        },
        {
          "internalType": "uint256",
          "name": "index",
          "type": "uint256"
        }
      ],
      "name": "getRoleMember",
      "outputs": [
        {
          "internalType": "address",
          "name": "",
          "type": "address"
        }
      ],
      "stateMutability": "view",
      "type": "function"
    },
    {
      "inputs": [
        {
          "internalType": "bytes32",
          "name": "role",
          "type": "bytes32"
        }
      ],
      "name": "getRoleMemberCount",
      "outputs": [
        {
          "internalType": "uint256",
          "name": "",
          "type": "uint256"
        }
      ],
      "stateMutability": "view",
      "type": "function"
    },
    {
      "inputs": [
        {
          "internalType": "bytes32",
          "name": "role",
          "type": "bytes32"
        }
      ],
      "name": "getRoleMembers",
      "outputs": [
        {
          "internalType": "address[]",
          "name": "",
          "type": "address[]"
        }
      ],
      "stateMutability": "view",
      "type": "function"
    },
    {
      "inputs": [
        {
          "internalType": "bytes32",
          "name": "role",
          "type": "bytes32"
        },
        {
          "internalType": "address",
          "name": "account",
          "type": "address"
        }
      ],
      "name": "grantRole",
      "outputs": [],
      "stateMutability": "nonpayable",
      "type": "function"
    },
    {
      "inputs": [
        {
          "internalType": "bytes32",
          "name": "role",
          "type": "bytes32"
        },
        {
          "internalType": "address",
          "name": "account",
          "type": "address"
        }
      ],
      "name": "hasRole",
      "outputs": [
        {
          "internalType": "bool",
          "name": "",
          "type": "bool"
        }
      ],
      "stateMutability": "view",
      "type": "function"
    },
    {
      "inputs": [
        {
          "internalType": "bytes32",
          "name": "role",
          "type": "bytes32"
        },
        {
          "internalType": "address",
          "name": "callerConfirmation",
          "type": "address"
        }
      ],
      "name": "renounceRole",
      "outputs": [],
      "stateMutability": "nonpayable",
      "type": "function"
    },
    {
      "inputs": [
        {
          "internalType": "bytes32",
          "name": "role",
          "type": "bytes32"
        },
        {
          "internalType": "address",
          "name": "account",
          "type": "address"
        }
      ],
      "name": "revokeRole",
      "outputs": [],
      "stateMutability": "nonpayable",
      "type": "function"
    },
    {
      "inputs": [
        {
          "internalType": "bytes4",
          "name": "interfaceId",
          "type": "bytes4"
        }
      ],
      "name": "supportsInterface",
      "outputs": [
        {
          "internalType": "bool",
          "name": "",
          "type": "bool"
        }
      ],
      "stateMutability": "view",
      "type": "function"
    },
    {
      "stateMutability": "payable",
      "type": "receive"
    }
  ],
  "bytecode": "0x6080604052610b6c806100115f395ff3fe608060405260043610610113575f3560e01c80634286d2f11161009d578063a217fddf11610062578063a217fddf14610306578063a3246ad314610319578063ca15c87314610345578063d547741f14610364578063d7bdcee914610383575f80fd5b80634286d2f11461027857806367354a84146102975780639010d07c146102a957806391d14854146102c857806398dd54c1146102e7575f80fd5b80632f2ff15d116100e35780632f2ff15d146101d357806332cadf3c146101f4578063342db7391461021557806336568abe1461023a57806341b45f7114610259575f80fd5b806301ffc9a71461011e578063248a9ca314610152578063270db8741461018e5780632904df29146101ad575f80fd5b3661011a57005b5f80fd5b348015610129575f80fd5b5061013d6101383660046109c0565b6103a2565b60405190151581526020015b60405180910390f35b34801561015d575f80fd5b5061018061016c3660046109e7565b5f9081526020819052604090206001015490565b604051908152602001610149565b348015610199575f80fd5b5061013d6101a83660046109fe565b6103cc565b3480156101b8575f80fd5b50335b6040516001600160a01b039091168152602001610149565b3480156101de575f80fd5b506101f26101ed3660046109fe565b61041a565b005b3480156101ff575f80fd5b50610208610444565b6040516101499190610a37565b348015610220575f80fd5b506101806e1a185c991a185d0b595e1c1bdcd959608a1b81565b348015610245575f80fd5b506101f26102543660046109fe565b610481565b348015610264575f80fd5b506101f26102733660046109fe565b6104b9565b348015610283575f80fd5b5061013d6102923660046109fe565b6104c7565b3480156102a2575f80fd5b505f610180565b3480156102b4575f80fd5b506101bb6102c3366004610a83565b610507565b3480156102d3575f80fd5b5061013d6102e23660046109fe565b610525565b3480156102f2575f80fd5b506101f26103013660046109e7565b61054d565b348015610311575f80fd5b506101805f81565b348015610324575f80fd5b506103386103333660046109e7565b610559565b6040516101499190610aa3565b348015610350575f80fd5b5061018061035f3660046109e7565b610572565b34801561036f575f80fd5b506101f261037e3660046109fe565b610588565b34801561038e575f80fd5b506101f261039d366004610a83565b6105ac565b5f6001600160e01b03198216635a05180f60e01b14806103c657506103c6826105b6565b92915050565b5f6103d783836105ea565b90507f370ef10a740e8e7931c19225ec88cd0e2e6bd52365a53489c401385c558287338160405161040c911515815260200190565b60405180910390a192915050565b5f828152602081905260409020600101546104348161061d565b61043e83836105ea565b50505050565b60605f368080601f0160208091040260200160405190810160405280939291908181526020018383808284375f9201919091525092949350505050565b6001600160a01b03811633146104aa5760405163334bd91960e11b815260040160405180910390fd5b6104b48282610627565b505050565b6104c38282610652565b5050565b5f6104d28383610627565b90507fe404ca92845347e354d44ac6f2449eba6681424c1f6f1d34173ac2f49c6996b38160405161040c911515815260200190565b5f82815260016020526040812061051e908361068f565b9392505050565b5f918252602082815260408084206001600160a01b0393909316845291905290205460ff1690565b6105568161061d565b50565b5f8181526001602052604090206060906103c69061069a565b5f8181526001602052604081206103c6906106a6565b5f828152602081905260409020600101546105a28161061d565b61043e8383610627565b6104c382826106af565b5f6001600160e01b03198216637965db0b60e01b14806103c657506301ffc9a760e01b6001600160e01b03198316146103c6565b5f806105f684846106f9565b9050801561051e575f8481526001602052604090206106159084610788565b509392505050565b6105568133610652565b5f80610633848461079c565b9050801561051e575f8481526001602052604090206106159084610805565b61065c8282610525565b6104c35760405163e2517d3f60e01b81526001600160a01b03821660048201526024810183905260440160405180910390fd5b5f61051e8383610819565b60605f61051e8361083f565b5f6103c6825490565b5f82815260208190526040808220600101805490849055905190918391839186917fbd79b86ffe0ab8e8776151514217cd7cacd52c909f66475c3af44e129f0b00ff9190a4505050565b5f6107048383610525565b610781575f838152602081815260408083206001600160a01b03861684529091529020805460ff191660011790556107393390565b6001600160a01b0316826001600160a01b0316847f2f8788117e7eff1d82e926ec794901d17c78024a50270940304540a733656f0d60405160405180910390a45060016103c6565b505f6103c6565b5f61051e836001600160a01b038416610898565b5f6107a78383610525565b15610781575f838152602081815260408083206001600160a01b0386168085529252808320805460ff1916905551339286917ff6391f5c32d9c69d2a47ea670b442974b53935d1edc7fd64eb21e047a839171b9190a45060016103c6565b5f61051e836001600160a01b0384166108dd565b5f825f01828154811061082e5761082e610aef565b905f5260205f200154905092915050565b6060815f0180548060200260200160405190810160405280929190818152602001828054801561088c57602002820191905f5260205f20905b815481526020019060010190808311610878575b50505050509050919050565b5f81815260018301602052604081205461078157508154600181810184555f8481526020808220909301849055845484825282860190935260409020919091556103c6565b5f81815260018301602052604081205480156109b7575f6108ff600183610b03565b85549091505f9061091290600190610b03565b9050808214610971575f865f01828154811061093057610930610aef565b905f5260205f200154905080875f01848154811061095057610950610aef565b5f918252602080832090910192909255918252600188019052604090208390555b855486908061098257610982610b22565b600190038181905f5260205f20015f90559055856001015f8681526020019081526020015f205f9055600193505050506103c6565b5f9150506103c6565b5f602082840312156109d0575f80fd5b81356001600160e01b03198116811461051e575f80fd5b5f602082840312156109f7575f80fd5b5035919050565b5f8060408385031215610a0f575f80fd5b8235915060208301356001600160a01b0381168114610a2c575f80fd5b809150509250929050565b5f602080835283518060208501525f5b81811015610a6357858101830151858201604001528201610a47565b505f604082860101526040601f19601f8301168501019250505092915050565b5f8060408385031215610a94575f80fd5b50508035926020909101359150565b602080825282518282018190525f9190848201906040850190845b81811015610ae35783516001600160a01b031683529284019291840191600101610abe565b50909695505050505050565b634e487b7160e01b5f52603260045260245ffd5b818103818111156103c657634e487b7160e01b5f52601160045260245ffd5b634e487b7160e01b5f52603160045260245ffdfea2646970667358221220bbe2441c527400879b28278e0fdc9265bba43c340ed034b4a41edbaa4df23a5d64736f6c63430008180033",
  "linkReferences": {},
  "deployedLinkReferences": {}
}