{
  "_format": "hh-sol-artifact-1",
  "contractName": "BitMathTest",
  "sourceName": "contracts/lib/contracts/test/BitMathTest.sol",
  "abi": [
    {
      "inputs": [
        {
          "internalType": "uint256",
          "name": "x",
          "type": "uint256"
        }
      ],
      "name": "getGasCostOfLeastSignificantBit",
      "outputs": [
        {
          "internalType": "uint256",
          "name": "",
          "type": "uint256"
        }
      ],
      "stateMutability": "view",
      "type": "function"
    },
    {
      "inputs": [
        {
          "internalType": "uint256",
          "name": "x",
          "type": "uint256"
        }
      ],
      "name": "getGasCostOfMostSignificantBit",
      "outputs": [
        {
          "internalType": "uint256",
          "name": "",
          "type": "uint256"
        }
      ],
      "stateMutability": "view",
      "type": "function"
    },
    {
      "inputs": [
        {
          "internalType": "uint256",
          "name": "x",
          "type": "uint256"
        }
      ],
      "name": "leastSignificantBit",
      "outputs": [
        {
          "internalType": "uint8",
          "name": "r",
          "type": "uint8"
        }
      ],
      "stateMutability": "pure",
      "type": "function"
    },
    {
      "inputs": [
        {
          "internalType": "uint256",
          "name": "x",
          "type": "uint256"
        }
      ],
      "name": "mostSignificantBit",
      "outputs": [
        {
          "internalType": "uint8",
          "name": "r",
          "type": "uint8"
        }
      ],
      "stateMutability": "pure",
      "type": "function"
    }
  ],
  "bytecode": "0x608060405234801561001057600080fd5b506103ab806100206000396000f3fe608060405234801561001057600080fd5b506004361061004b5760003560e01c806246b777146100505780636b83cf261461007f578063d230d23f1461009c578063e6bcbc65146100cf575b600080fd5b61006d6004803603602081101561006657600080fd5b50356100ec565b60408051918252519081900360200190f35b61006d6004803603602081101561009557600080fd5b5035610107565b6100b9600480360360208110156100b257600080fd5b5035610116565b6040805160ff9092168252519081900360200190f35b6100b9600480360360208110156100e557600080fd5b5035610127565b6000805a90506100fb8361012e565b505a900390505b919050565b6000805a90506100fb8361020d565b60006101218261020d565b92915050565b6000610121825b600080821161016e5760405162461bcd60e51b81526004018080602001828103825260218152602001806103336021913960400191505060405180910390fd5b700100000000000000000000000000000000821061018e57608091821c91015b6801000000000000000082106101a657604091821c91015b64010000000082106101ba57602091821c91015b6201000082106101cc57601091821c91015b61010082106101dd57600891821c91015b601082106101ed57600491821c91015b600482106101fd57600291821c91015b6002821061010257600101919050565b600080821161024d5760405162461bcd60e51b81526004018080602001828103825260228152602001806103546022913960400191505060405180910390fd5b5060ff6fffffffffffffffffffffffffffffffff82161561027157607f1901610279565b608082901c91505b67ffffffffffffffff82161561029257603f190161029a565b604082901c91505b63ffffffff8216156102af57601f19016102b7565b602082901c91505b61ffff8216156102ca57600f19016102d2565b601082901c91505b60ff8216156102e457600719016102ec565b600882901c91505b600f8216156102fe5760031901610306565b600482901c91505b60038216156103185760011901610320565b600282901c91505b6001821615610102576000190191905056fe4269744d6174683a3a6d6f73745369676e69666963616e744269743a207a65726f4269744d6174683a3a6c656173745369676e69666963616e744269743a207a65726fa2646970667358221220454b7118307859eff25f3a1ebdfafe5c38acfa341dcd0558a104a7109ab8d8d764736f6c634300060c0033",
  "linkReferences": {},
  "deployedLinkReferences": {}
}