{
  "_format": "hh-sol-artifact-1",
  "contractName": "$GovernorWithParamsMock",
  "sourceName": "contracts-exposed/mocks/governance/GovernorWithParamsMock.sol",
  "abi": [
    {
      "inputs": [
        {
          "internalType": "string",
          "name": "name_",
          "type": "string"
        },
        {
          "internalType": "contract IVotes",
          "name": "tokenAddress",
          "type": "address"
        }
      ],
      "stateMutability": "payable",
      "type": "constructor"
    },
    {
      "inputs": [],
      "name": "FailedCall",
      "type": "error"
    },
    {
      "inputs": [
        {
          "internalType": "address",
          "name": "voter",
          "type": "address"
        }
      ],
      "name": "GovernorAlreadyCastVote",
      "type": "error"
    },
    {
      "inputs": [
        {
          "internalType": "uint256",
          "name": "proposalId",
          "type": "uint256"
        }
      ],
      "name": "GovernorAlreadyQueuedProposal",
      "type": "error"
    },
    {
      "inputs": [],
      "name": "GovernorDisabledDeposit",
      "type": "error"
    },
    {
      "inputs": [
        {
          "internalType": "address",
          "name": "proposer",
          "type": "address"
        },
        {
          "internalType": "uint256",
          "name": "votes",
          "type": "uint256"
        },
        {
          "internalType": "uint256",
          "name": "threshold",
          "type": "uint256"
        }
      ],
      "name": "GovernorInsufficientProposerVotes",
      "type": "error"
    },
    {
      "inputs": [
        {
          "internalType": "uint256",
          "name": "targets",
          "type": "uint256"
        },
        {
          "internalType": "uint256",
          "name": "calldatas",
          "type": "uint256"
        },
        {
          "internalType": "uint256",
          "name": "values",
          "type": "uint256"
        }
      ],
      "name": "GovernorInvalidProposalLength",
      "type": "error"
    },
    {
      "inputs": [
        {
          "internalType": "address",
          "name": "voter",
          "type": "address"
        }
      ],
      "name": "GovernorInvalidSignature",
      "type": "error"
    },
    {
      "inputs": [],
      "name": "GovernorInvalidVoteParams",
      "type": "error"
    },
    {
      "inputs": [],
      "name": "GovernorInvalidVoteType",
      "type": "error"
    },
    {
      "inputs": [
        {
          "internalType": "uint256",
          "name": "votingPeriod",
          "type": "uint256"
        }
      ],
      "name": "GovernorInvalidVotingPeriod",
      "type": "error"
    },
    {
      "inputs": [
        {
          "internalType": "uint256",
          "name": "proposalId",
          "type": "uint256"
        }
      ],
      "name": "GovernorNonexistentProposal",
      "type": "error"
    },
    {
      "inputs": [
        {
          "internalType": "uint256",
          "name": "proposalId",
          "type": "uint256"
        }
      ],
      "name": "GovernorNotQueuedProposal",
      "type": "error"
    },
    {
      "inputs": [
        {
          "internalType": "address",
          "name": "account",
          "type": "address"
        }
      ],
      "name": "GovernorOnlyExecutor",
      "type": "error"
    },
    {
      "inputs": [
        {
          "internalType": "address",
          "name": "account",
          "type": "address"
        }
      ],
      "name": "GovernorOnlyProposer",
      "type": "error"
    },
    {
      "inputs": [],
      "name": "GovernorQueueNotImplemented",
      "type": "error"
    },
    {
      "inputs": [
        {
          "internalType": "address",
          "name": "proposer",
          "type": "address"
        }
      ],
      "name": "GovernorRestrictedProposer",
      "type": "error"
    },
    {
      "inputs": [
        {
          "internalType": "uint256",
          "name": "proposalId",
          "type": "uint256"
        },
        {
          "internalType": "enum IGovernor.ProposalState",
          "name": "current",
          "type": "uint8"
        },
        {
          "internalType": "bytes32",
          "name": "expectedStates",
          "type": "bytes32"
        }
      ],
      "name": "GovernorUnexpectedProposalState",
      "type": "error"
    },
    {
      "inputs": [
        {
          "internalType": "address",
          "name": "account",
          "type": "address"
        },
        {
          "internalType": "uint256",
          "name": "currentNonce",
          "type": "uint256"
        }
      ],
      "name": "InvalidAccountNonce",
      "type": "error"
    },
    {
      "inputs": [],
      "name": "InvalidShortString",
      "type": "error"
    },
    {
      "inputs": [
        {
          "internalType": "uint8",
          "name": "bits",
          "type": "uint8"
        },
        {
          "internalType": "uint256",
          "name": "value",
          "type": "uint256"
        }
      ],
      "name": "SafeCastOverflowedUintDowncast",
      "type": "error"
    },
    {
      "inputs": [
        {
          "internalType": "string",
          "name": "str",
          "type": "string"
        }
      ],
      "name": "StringTooLong",
      "type": "error"
    },
    {
      "anonymous": false,
      "inputs": [
        {
          "indexed": false,
          "internalType": "uint256",
          "name": "uintParam",
          "type": "uint256"
        },
        {
          "indexed": false,
          "internalType": "string",
          "name": "strParam",
          "type": "string"
        }
      ],
      "name": "CountParams",
      "type": "event"
    },
    {
      "anonymous": false,
      "inputs": [],
      "name": "EIP712DomainChanged",
      "type": "event"
    },
    {
      "anonymous": false,
      "inputs": [
        {
          "indexed": false,
          "internalType": "uint256",
          "name": "proposalId",
          "type": "uint256"
        }
      ],
      "name": "ProposalCanceled",
      "type": "event"
    },
    {
      "anonymous": false,
      "inputs": [
        {
          "indexed": false,
          "internalType": "uint256",
          "name": "proposalId",
          "type": "uint256"
        },
        {
          "indexed": false,
          "internalType": "address",
          "name": "proposer",
          "type": "address"
        },
        {
          "indexed": false,
          "internalType": "address[]",
          "name": "targets",
          "type": "address[]"
        },
        {
          "indexed": false,
          "internalType": "uint256[]",
          "name": "values",
          "type": "uint256[]"
        },
        {
          "indexed": false,
          "internalType": "string[]",
          "name": "signatures",
          "type": "string[]"
        },
        {
          "indexed": false,
          "internalType": "bytes[]",
          "name": "calldatas",
          "type": "bytes[]"
        },
        {
          "indexed": false,
          "internalType": "uint256",
          "name": "voteStart",
          "type": "uint256"
        },
        {
          "indexed": false,
          "internalType": "uint256",
          "name": "voteEnd",
          "type": "uint256"
        },
        {
          "indexed": false,
          "internalType": "string",
          "name": "description",
          "type": "string"
        }
      ],
      "name": "ProposalCreated",
      "type": "event"
    },
    {
      "anonymous": false,
      "inputs": [
        {
          "indexed": false,
          "internalType": "uint256",
          "name": "proposalId",
          "type": "uint256"
        }
      ],
      "name": "ProposalExecuted",
      "type": "event"
    },
    {
      "anonymous": false,
      "inputs": [
        {
          "indexed": false,
          "internalType": "uint256",
          "name": "proposalId",
          "type": "uint256"
        },
        {
          "indexed": false,
          "internalType": "uint256",
          "name": "etaSeconds",
          "type": "uint256"
        }
      ],
      "name": "ProposalQueued",
      "type": "event"
    },
    {
      "anonymous": false,
      "inputs": [
        {
          "indexed": true,
          "internalType": "address",
          "name": "voter",
          "type": "address"
        },
        {
          "indexed": false,
          "internalType": "uint256",
          "name": "proposalId",
          "type": "uint256"
        },
        {
          "indexed": false,
          "internalType": "uint8",
          "name": "support",
          "type": "uint8"
        },
        {
          "indexed": false,
          "internalType": "uint256",
          "name": "weight",
          "type": "uint256"
        },
        {
          "indexed": false,
          "internalType": "string",
          "name": "reason",
          "type": "string"
        }
      ],
      "name": "VoteCast",
      "type": "event"
    },
    {
      "anonymous": false,
      "inputs": [
        {
          "indexed": true,
          "internalType": "address",
          "name": "voter",
          "type": "address"
        },
        {
          "indexed": false,
          "internalType": "uint256",
          "name": "proposalId",
          "type": "uint256"
        },
        {
          "indexed": false,
          "internalType": "uint8",
          "name": "support",
          "type": "uint8"
        },
        {
          "indexed": false,
          "internalType": "uint256",
          "name": "weight",
          "type": "uint256"
        },
        {
          "indexed": false,
          "internalType": "string",
          "name": "reason",
          "type": "string"
        },
        {
          "indexed": false,
          "internalType": "bytes",
          "name": "params",
          "type": "bytes"
        }
      ],
      "name": "VoteCastWithParams",
      "type": "event"
    },
    {
      "anonymous": false,
      "inputs": [
        {
          "indexed": false,
          "internalType": "uint256",
          "name": "ret0",
          "type": "uint256"
        }
      ],
      "name": "return$_cancel",
      "type": "event"
    },
    {
      "anonymous": false,
      "inputs": [
        {
          "indexed": false,
          "internalType": "uint256",
          "name": "ret0",
          "type": "uint256"
        }
      ],
      "name": "return$_castVote_uint256_address_uint8_string",
      "type": "event"
    },
    {
      "anonymous": false,
      "inputs": [
        {
          "indexed": false,
          "internalType": "uint256",
          "name": "ret0",
          "type": "uint256"
        }
      ],
      "name": "return$_castVote_uint256_address_uint8_string_bytes",
      "type": "event"
    },
    {
      "anonymous": false,
      "inputs": [
        {
          "indexed": false,
          "internalType": "uint256",
          "name": "ret0",
          "type": "uint256"
        }
      ],
      "name": "return$_countVote",
      "type": "event"
    },
    {
      "anonymous": false,
      "inputs": [
        {
          "indexed": false,
          "internalType": "uint256",
          "name": "proposalId",
          "type": "uint256"
        }
      ],
      "name": "return$_propose",
      "type": "event"
    },
    {
      "anonymous": false,
      "inputs": [
        {
          "indexed": false,
          "internalType": "uint48",
          "name": "ret0",
          "type": "uint48"
        }
      ],
      "name": "return$_queueOperations",
      "type": "event"
    },
    {
      "anonymous": false,
      "inputs": [
        {
          "indexed": false,
          "internalType": "uint256",
          "name": "ret0",
          "type": "uint256"
        }
      ],
      "name": "return$_useNonce",
      "type": "event"
    },
    {
      "inputs": [],
      "name": "$_EIP712Name",
      "outputs": [
        {
          "internalType": "string",
          "name": "ret0",
          "type": "string"
        }
      ],
      "stateMutability": "view",
      "type": "function"
    },
    {
      "inputs": [],
      "name": "$_EIP712Version",
      "outputs": [
        {
          "internalType": "string",
          "name": "ret0",
          "type": "string"
        }
      ],
      "stateMutability": "view",
      "type": "function"
    },
    {
      "inputs": [
        {
          "internalType": "address[]",
          "name": "targets",
          "type": "address[]"
        },
        {
          "internalType": "uint256[]",
          "name": "values",
          "type": "uint256[]"
        },
        {
          "internalType": "bytes[]",
          "name": "calldatas",
          "type": "bytes[]"
        },
        {
          "internalType": "bytes32",
          "name": "descriptionHash",
          "type": "bytes32"
        }
      ],
      "name": "$_cancel",
      "outputs": [
        {
          "internalType": "uint256",
          "name": "ret0",
          "type": "uint256"
        }
      ],
      "stateMutability": "nonpayable",
      "type": "function"
    },
    {
      "inputs": [
        {
          "internalType": "uint256",
          "name": "proposalId",
          "type": "uint256"
        },
        {
          "internalType": "address",
          "name": "account",
          "type": "address"
        },
        {
          "internalType": "uint8",
          "name": "support",
          "type": "uint8"
        },
        {
          "internalType": "string",
          "name": "reason",
          "type": "string"
        },
        {
          "internalType": "bytes",
          "name": "params",
          "type": "bytes"
        }
      ],
      "name": "$_castVote",
      "outputs": [
        {
          "internalType": "uint256",
          "name": "ret0",
          "type": "uint256"
        }
      ],
      "stateMutability": "nonpayable",
      "type": "function"
    },
    {
      "inputs": [
        {
          "internalType": "uint256",
          "name": "proposalId",
          "type": "uint256"
        },
        {
          "internalType": "address",
          "name": "account",
          "type": "address"
        },
        {
          "internalType": "uint8",
          "name": "support",
          "type": "uint8"
        },
        {
          "internalType": "string",
          "name": "reason",
          "type": "string"
        }
      ],
      "name": "$_castVote",
      "outputs": [
        {
          "internalType": "uint256",
          "name": "ret0",
          "type": "uint256"
        }
      ],
      "stateMutability": "nonpayable",
      "type": "function"
    },
    {
      "inputs": [],
      "name": "$_checkGovernance",
      "outputs": [],
      "stateMutability": "nonpayable",
      "type": "function"
    },
    {
      "inputs": [],
      "name": "$_contextSuffixLength",
      "outputs": [
        {
          "internalType": "uint256",
          "name": "ret0",
          "type": "uint256"
        }
      ],
      "stateMutability": "view",
      "type": "function"
    },
    {
      "inputs": [
        {
          "internalType": "uint256",
          "name": "proposalId",
          "type": "uint256"
        },
        {
          "internalType": "address",
          "name": "account",
          "type": "address"
        },
        {
          "internalType": "uint8",
          "name": "support",
          "type": "uint8"
        },
        {
          "internalType": "uint256",
          "name": "weight",
          "type": "uint256"
        },
        {
          "internalType": "bytes",
          "name": "params",
          "type": "bytes"
        }
      ],
      "name": "$_countVote",
      "outputs": [
        {
          "internalType": "uint256",
          "name": "ret0",
          "type": "uint256"
        }
      ],
      "stateMutability": "nonpayable",
      "type": "function"
    },
    {
      "inputs": [],
      "name": "$_defaultParams",
      "outputs": [
        {
          "internalType": "bytes",
          "name": "ret0",
          "type": "bytes"
        }
      ],
      "stateMutability": "view",
      "type": "function"
    },
    {
      "inputs": [],
      "name": "$_domainSeparatorV4",
      "outputs": [
        {
          "internalType": "bytes32",
          "name": "ret0",
          "type": "bytes32"
        }
      ],
      "stateMutability": "view",
      "type": "function"
    },
    {
      "inputs": [
        {
          "internalType": "enum IGovernor.ProposalState",
          "name": "proposalState",
          "type": "uint8"
        }
      ],
      "name": "$_encodeStateBitmap",
      "outputs": [
        {
          "internalType": "bytes32",
          "name": "ret0",
          "type": "bytes32"
        }
      ],
      "stateMutability": "pure",
      "type": "function"
    },
    {
      "inputs": [
        {
          "internalType": "uint256",
          "name": "arg0",
          "type": "uint256"
        },
        {
          "internalType": "address[]",
          "name": "targets",
          "type": "address[]"
        },
        {
          "internalType": "uint256[]",
          "name": "values",
          "type": "uint256[]"
        },
        {
          "internalType": "bytes[]",
          "name": "calldatas",
          "type": "bytes[]"
        },
        {
          "internalType": "bytes32",
          "name": "arg4",
          "type": "bytes32"
        }
      ],
      "name": "$_executeOperations",
      "outputs": [],
      "stateMutability": "nonpayable",
      "type": "function"
    },
    {
      "inputs": [],
      "name": "$_executor",
      "outputs": [
        {
          "internalType": "address",
          "name": "ret0",
          "type": "address"
        }
      ],
      "stateMutability": "view",
      "type": "function"
    },
    {
      "inputs": [
        {
          "internalType": "address",
          "name": "account",
          "type": "address"
        },
        {
          "internalType": "uint256",
          "name": "blockNumber",
          "type": "uint256"
        },
        {
          "internalType": "bytes",
          "name": "params",
          "type": "bytes"
        }
      ],
      "name": "$_getVotes",
      "outputs": [
        {
          "internalType": "uint256",
          "name": "ret0",
          "type": "uint256"
        }
      ],
      "stateMutability": "view",
      "type": "function"
    },
    {
      "inputs": [
        {
          "internalType": "bytes32",
          "name": "structHash",
          "type": "bytes32"
        }
      ],
      "name": "$_hashTypedDataV4",
      "outputs": [
        {
          "internalType": "bytes32",
          "name": "ret0",
          "type": "bytes32"
        }
      ],
      "stateMutability": "view",
      "type": "function"
    },
    {
      "inputs": [
        {
          "internalType": "address",
          "name": "proposer",
          "type": "address"
        },
        {
          "internalType": "string",
          "name": "description",
          "type": "string"
        }
      ],
      "name": "$_isValidDescriptionForProposer",
      "outputs": [
        {
          "internalType": "bool",
          "name": "ret0",
          "type": "bool"
        }
      ],
      "stateMutability": "view",
      "type": "function"
    },
    {
      "inputs": [],
      "name": "$_msgData",
      "outputs": [
        {
          "internalType": "bytes",
          "name": "ret0",
          "type": "bytes"
        }
      ],
      "stateMutability": "view",
      "type": "function"
    },
    {
      "inputs": [],
      "name": "$_msgSender",
      "outputs": [
        {
          "internalType": "address",
          "name": "ret0",
          "type": "address"
        }
      ],
      "stateMutability": "view",
      "type": "function"
    },
    {
      "inputs": [
        {
          "internalType": "address[]",
          "name": "targets",
          "type": "address[]"
        },
        {
          "internalType": "uint256[]",
          "name": "values",
          "type": "uint256[]"
        },
        {
          "internalType": "bytes[]",
          "name": "calldatas",
          "type": "bytes[]"
        },
        {
          "internalType": "string",
          "name": "description",
          "type": "string"
        },
        {
          "internalType": "address",
          "name": "proposer",
          "type": "address"
        }
      ],
      "name": "$_propose",
      "outputs": [
        {
          "internalType": "uint256",
          "name": "proposalId",
          "type": "uint256"
        }
      ],
      "stateMutability": "nonpayable",
      "type": "function"
    },
    {
      "inputs": [
        {
          "internalType": "uint256",
          "name": "arg0",
          "type": "uint256"
        },
        {
          "internalType": "address[]",
          "name": "arg1",
          "type": "address[]"
        },
        {
          "internalType": "uint256[]",
          "name": "arg2",
          "type": "uint256[]"
        },
        {
          "internalType": "bytes[]",
          "name": "arg3",
          "type": "bytes[]"
        },
        {
          "internalType": "bytes32",
          "name": "arg4",
          "type": "bytes32"
        }
      ],
      "name": "$_queueOperations",
      "outputs": [
        {
          "internalType": "uint48",
          "name": "ret0",
          "type": "uint48"
        }
      ],
      "stateMutability": "nonpayable",
      "type": "function"
    },
    {
      "inputs": [
        {
          "internalType": "uint256",
          "name": "proposalId",
          "type": "uint256"
        }
      ],
      "name": "$_quorumReached",
      "outputs": [
        {
          "internalType": "bool",
          "name": "ret0",
          "type": "bool"
        }
      ],
      "stateMutability": "view",
      "type": "function"
    },
    {
      "inputs": [
        {
          "internalType": "uint256",
          "name": "proposalId",
          "type": "uint256"
        }
      ],
      "name": "$_tallyUpdated",
      "outputs": [],
      "stateMutability": "nonpayable",
      "type": "function"
    },
    {
      "inputs": [
        {
          "internalType": "address",
          "name": "owner",
          "type": "address"
        },
        {
          "internalType": "uint256",
          "name": "nonce",
          "type": "uint256"
        }
      ],
      "name": "$_useCheckedNonce",
      "outputs": [],
      "stateMutability": "nonpayable",
      "type": "function"
    },
    {
      "inputs": [
        {
          "internalType": "address",
          "name": "owner",
          "type": "address"
        }
      ],
      "name": "$_useNonce",
      "outputs": [
        {
          "internalType": "uint256",
          "name": "ret0",
          "type": "uint256"
        }
      ],
      "stateMutability": "nonpayable",
      "type": "function"
    },
    {
      "inputs": [
        {
          "internalType": "uint256",
          "name": "proposalId",
          "type": "uint256"
        },
        {
          "internalType": "bytes32",
          "name": "allowedStates",
          "type": "bytes32"
        }
      ],
      "name": "$_validateStateBitmap",
      "outputs": [
        {
          "internalType": "enum IGovernor.ProposalState",
          "name": "ret0",
          "type": "uint8"
        }
      ],
      "stateMutability": "view",
      "type": "function"
    },
    {
      "inputs": [
        {
          "internalType": "uint256",
          "name": "proposalId",
          "type": "uint256"
        }
      ],
      "name": "$_voteSucceeded",
      "outputs": [
        {
          "internalType": "bool",
          "name": "ret0",
          "type": "bool"
        }
      ],
      "stateMutability": "view",
      "type": "function"
    },
    {
      "inputs": [],
      "name": "BALLOT_TYPEHASH",
      "outputs": [
        {
          "internalType": "bytes32",
          "name": "",
          "type": "bytes32"
        }
      ],
      "stateMutability": "view",
      "type": "function"
    },
    {
      "inputs": [],
      "name": "CLOCK_MODE",
      "outputs": [
        {
          "internalType": "string",
          "name": "",
          "type": "string"
        }
      ],
      "stateMutability": "view",
      "type": "function"
    },
    {
      "inputs": [],
      "name": "COUNTING_MODE",
      "outputs": [
        {
          "internalType": "string",
          "name": "",
          "type": "string"
        }
      ],
      "stateMutability": "pure",
      "type": "function"
    },
    {
      "inputs": [],
      "name": "EXTENDED_BALLOT_TYPEHASH",
      "outputs": [
        {
          "internalType": "bytes32",
          "name": "",
          "type": "bytes32"
        }
      ],
      "stateMutability": "view",
      "type": "function"
    },
    {
      "inputs": [],
      "name": "__hh_exposed_bytecode_marker",
      "outputs": [
        {
          "internalType": "bytes32",
          "name": "",
          "type": "bytes32"
        }
      ],
      "stateMutability": "view",
      "type": "function"
    },
    {
      "inputs": [
        {
          "internalType": "address[]",
          "name": "targets",
          "type": "address[]"
        },
        {
          "internalType": "uint256[]",
          "name": "values",
          "type": "uint256[]"
        },
        {
          "internalType": "bytes[]",
          "name": "calldatas",
          "type": "bytes[]"
        },
        {
          "internalType": "bytes32",
          "name": "descriptionHash",
          "type": "bytes32"
        }
      ],
      "name": "cancel",
      "outputs": [
        {
          "internalType": "uint256",
          "name": "",
          "type": "uint256"
        }
      ],
      "stateMutability": "nonpayable",
      "type": "function"
    },
    {
      "inputs": [
        {
          "internalType": "uint256",
          "name": "proposalId",
          "type": "uint256"
        },
        {
          "internalType": "uint8",
          "name": "support",
          "type": "uint8"
        }
      ],
      "name": "castVote",
      "outputs": [
        {
          "internalType": "uint256",
          "name": "",
          "type": "uint256"
        }
      ],
      "stateMutability": "nonpayable",
      "type": "function"
    },
    {
      "inputs": [
        {
          "internalType": "uint256",
          "name": "proposalId",
          "type": "uint256"
        },
        {
          "internalType": "uint8",
          "name": "support",
          "type": "uint8"
        },
        {
          "internalType": "address",
          "name": "voter",
          "type": "address"
        },
        {
          "internalType": "bytes",
          "name": "signature",
          "type": "bytes"
        }
      ],
      "name": "castVoteBySig",
      "outputs": [
        {
          "internalType": "uint256",
          "name": "",
          "type": "uint256"
        }
      ],
      "stateMutability": "nonpayable",
      "type": "function"
    },
    {
      "inputs": [
        {
          "internalType": "uint256",
          "name": "proposalId",
          "type": "uint256"
        },
        {
          "internalType": "uint8",
          "name": "support",
          "type": "uint8"
        },
        {
          "internalType": "string",
          "name": "reason",
          "type": "string"
        }
      ],
      "name": "castVoteWithReason",
      "outputs": [
        {
          "internalType": "uint256",
          "name": "",
          "type": "uint256"
        }
      ],
      "stateMutability": "nonpayable",
      "type": "function"
    },
    {
      "inputs": [
        {
          "internalType": "uint256",
          "name": "proposalId",
          "type": "uint256"
        },
        {
          "internalType": "uint8",
          "name": "support",
          "type": "uint8"
        },
        {
          "internalType": "string",
          "name": "reason",
          "type": "string"
        },
        {
          "internalType": "bytes",
          "name": "params",
          "type": "bytes"
        }
      ],
      "name": "castVoteWithReasonAndParams",
      "outputs": [
        {
          "internalType": "uint256",
          "name": "",
          "type": "uint256"
        }
      ],
      "stateMutability": "nonpayable",
      "type": "function"
    },
    {
      "inputs": [
        {
          "internalType": "uint256",
          "name": "proposalId",
          "type": "uint256"
        },
        {
          "internalType": "uint8",
          "name": "support",
          "type": "uint8"
        },
        {
          "internalType": "address",
          "name": "voter",
          "type": "address"
        },
        {
          "internalType": "string",
          "name": "reason",
          "type": "string"
        },
        {
          "internalType": "bytes",
          "name": "params",
          "type": "bytes"
        },
        {
          "internalType": "bytes",
          "name": "signature",
          "type": "bytes"
        }
      ],
      "name": "castVoteWithReasonAndParamsBySig",
      "outputs": [
        {
          "internalType": "uint256",
          "name": "",
          "type": "uint256"
        }
      ],
      "stateMutability": "nonpayable",
      "type": "function"
    },
    {
      "inputs": [],
      "name": "clock",
      "outputs": [
        {
          "internalType": "uint48",
          "name": "",
          "type": "uint48"
        }
      ],
      "stateMutability": "view",
      "type": "function"
    },
    {
      "inputs": [],
      "name": "eip712Domain",
      "outputs": [
        {
          "internalType": "bytes1",
          "name": "fields",
          "type": "bytes1"
        },
        {
          "internalType": "string",
          "name": "name",
          "type": "string"
        },
        {
          "internalType": "string",
          "name": "version",
          "type": "string"
        },
        {
          "internalType": "uint256",
          "name": "chainId",
          "type": "uint256"
        },
        {
          "internalType": "address",
          "name": "verifyingContract",
          "type": "address"
        },
        {
          "internalType": "bytes32",
          "name": "salt",
          "type": "bytes32"
        },
        {
          "internalType": "uint256[]",
          "name": "extensions",
          "type": "uint256[]"
        }
      ],
      "stateMutability": "view",
      "type": "function"
    },
    {
      "inputs": [
        {
          "internalType": "address[]",
          "name": "targets",
          "type": "address[]"
        },
        {
          "internalType": "uint256[]",
          "name": "values",
          "type": "uint256[]"
        },
        {
          "internalType": "bytes[]",
          "name": "calldatas",
          "type": "bytes[]"
        },
        {
          "internalType": "bytes32",
          "name": "descriptionHash",
          "type": "bytes32"
        }
      ],
      "name": "execute",
      "outputs": [
        {
          "internalType": "uint256",
          "name": "",
          "type": "uint256"
        }
      ],
      "stateMutability": "payable",
      "type": "function"
    },
    {
      "inputs": [
        {
          "internalType": "address[]",
          "name": "targets",
          "type": "address[]"
        },
        {
          "internalType": "uint256[]",
          "name": "values",
          "type": "uint256[]"
        },
        {
          "internalType": "bytes[]",
          "name": "calldatas",
          "type": "bytes[]"
        },
        {
          "internalType": "bytes32",
          "name": "descriptionHash",
          "type": "bytes32"
        }
      ],
      "name": "getProposalId",
      "outputs": [
        {
          "internalType": "uint256",
          "name": "",
          "type": "uint256"
        }
      ],
      "stateMutability": "view",
      "type": "function"
    },
    {
      "inputs": [
        {
          "internalType": "address",
          "name": "account",
          "type": "address"
        },
        {
          "internalType": "uint256",
          "name": "timepoint",
          "type": "uint256"
        }
      ],
      "name": "getVotes",
      "outputs": [
        {
          "internalType": "uint256",
          "name": "",
          "type": "uint256"
        }
      ],
      "stateMutability": "view",
      "type": "function"
    },
    {
      "inputs": [
        {
          "internalType": "address",
          "name": "account",
          "type": "address"
        },
        {
          "internalType": "uint256",
          "name": "timepoint",
          "type": "uint256"
        },
        {
          "internalType": "bytes",
          "name": "params",
          "type": "bytes"
        }
      ],
      "name": "getVotesWithParams",
      "outputs": [
        {
          "internalType": "uint256",
          "name": "",
          "type": "uint256"
        }
      ],
      "stateMutability": "view",
      "type": "function"
    },
    {
      "inputs": [
        {
          "internalType": "uint256",
          "name": "proposalId",
          "type": "uint256"
        },
        {
          "internalType": "address",
          "name": "account",
          "type": "address"
        }
      ],
      "name": "hasVoted",
      "outputs": [
        {
          "internalType": "bool",
          "name": "",
          "type": "bool"
        }
      ],
      "stateMutability": "view",
      "type": "function"
    },
    {
      "inputs": [
        {
          "internalType": "address[]",
          "name": "targets",
          "type": "address[]"
        },
        {
          "internalType": "uint256[]",
          "name": "values",
          "type": "uint256[]"
        },
        {
          "internalType": "bytes[]",
          "name": "calldatas",
          "type": "bytes[]"
        },
        {
          "internalType": "bytes32",
          "name": "descriptionHash",
          "type": "bytes32"
        }
      ],
      "name": "hashProposal",
      "outputs": [
        {
          "internalType": "uint256",
          "name": "",
          "type": "uint256"
        }
      ],
      "stateMutability": "pure",
      "type": "function"
    },
    {
      "inputs": [],
      "name": "name",
      "outputs": [
        {
          "internalType": "string",
          "name": "",
          "type": "string"
        }
      ],
      "stateMutability": "view",
      "type": "function"
    },
    {
      "inputs": [
        {
          "internalType": "address",
          "name": "owner",
          "type": "address"
        }
      ],
      "name": "nonces",
      "outputs": [
        {
          "internalType": "uint256",
          "name": "",
          "type": "uint256"
        }
      ],
      "stateMutability": "view",
      "type": "function"
    },
    {
      "inputs": [
        {
          "internalType": "address",
          "name": "",
          "type": "address"
        },
        {
          "internalType": "address",
          "name": "",
          "type": "address"
        },
        {
          "internalType": "uint256[]",
          "name": "",
          "type": "uint256[]"
        },
        {
          "internalType": "uint256[]",
          "name": "",
          "type": "uint256[]"
        },
        {
          "internalType": "bytes",
          "name": "",
          "type": "bytes"
        }
      ],
      "name": "onERC1155BatchReceived",
      "outputs": [
        {
          "internalType": "bytes4",
          "name": "",
          "type": "bytes4"
        }
      ],
      "stateMutability": "nonpayable",
      "type": "function"
    },
    {
      "inputs": [
        {
          "internalType": "address",
          "name": "",
          "type": "address"
        },
        {
          "internalType": "address",
          "name": "",
          "type": "address"
        },
        {
          "internalType": "uint256",
          "name": "",
          "type": "uint256"
        },
        {
          "internalType": "uint256",
          "name": "",
          "type": "uint256"
        },
        {
          "internalType": "bytes",
          "name": "",
          "type": "bytes"
        }
      ],
      "name": "onERC1155Received",
      "outputs": [
        {
          "internalType": "bytes4",
          "name": "",
          "type": "bytes4"
        }
      ],
      "stateMutability": "nonpayable",
      "type": "function"
    },
    {
      "inputs": [
        {
          "internalType": "address",
          "name": "",
          "type": "address"
        },
        {
          "internalType": "address",
          "name": "",
          "type": "address"
        },
        {
          "internalType": "uint256",
          "name": "",
          "type": "uint256"
        },
        {
          "internalType": "bytes",
          "name": "",
          "type": "bytes"
        }
      ],
      "name": "onERC721Received",
      "outputs": [
        {
          "internalType": "bytes4",
          "name": "",
          "type": "bytes4"
        }
      ],
      "stateMutability": "nonpayable",
      "type": "function"
    },
    {
      "inputs": [
        {
          "internalType": "uint256",
          "name": "proposalId",
          "type": "uint256"
        }
      ],
      "name": "proposalDeadline",
      "outputs": [
        {
          "internalType": "uint256",
          "name": "",
          "type": "uint256"
        }
      ],
      "stateMutability": "view",
      "type": "function"
    },
    {
      "inputs": [
        {
          "internalType": "uint256",
          "name": "proposalId",
          "type": "uint256"
        }
      ],
      "name": "proposalEta",
      "outputs": [
        {
          "internalType": "uint256",
          "name": "",
          "type": "uint256"
        }
      ],
      "stateMutability": "view",
      "type": "function"
    },
    {
      "inputs": [
        {
          "internalType": "uint256",
          "name": "",
          "type": "uint256"
        }
      ],
      "name": "proposalNeedsQueuing",
      "outputs": [
        {
          "internalType": "bool",
          "name": "",
          "type": "bool"
        }
      ],
      "stateMutability": "view",
      "type": "function"
    },
    {
      "inputs": [
        {
          "internalType": "uint256",
          "name": "proposalId",
          "type": "uint256"
        }
      ],
      "name": "proposalProposer",
      "outputs": [
        {
          "internalType": "address",
          "name": "",
          "type": "address"
        }
      ],
      "stateMutability": "view",
      "type": "function"
    },
    {
      "inputs": [
        {
          "internalType": "uint256",
          "name": "proposalId",
          "type": "uint256"
        }
      ],
      "name": "proposalSnapshot",
      "outputs": [
        {
          "internalType": "uint256",
          "name": "",
          "type": "uint256"
        }
      ],
      "stateMutability": "view",
      "type": "function"
    },
    {
      "inputs": [],
      "name": "proposalThreshold",
      "outputs": [
        {
          "internalType": "uint256",
          "name": "",
          "type": "uint256"
        }
      ],
      "stateMutability": "view",
      "type": "function"
    },
    {
      "inputs": [
        {
          "internalType": "uint256",
          "name": "proposalId",
          "type": "uint256"
        }
      ],
      "name": "proposalVotes",
      "outputs": [
        {
          "internalType": "uint256",
          "name": "againstVotes",
          "type": "uint256"
        },
        {
          "internalType": "uint256",
          "name": "forVotes",
          "type": "uint256"
        },
        {
          "internalType": "uint256",
          "name": "abstainVotes",
          "type": "uint256"
        }
      ],
      "stateMutability": "view",
      "type": "function"
    },
    {
      "inputs": [
        {
          "internalType": "address[]",
          "name": "targets",
          "type": "address[]"
        },
        {
          "internalType": "uint256[]",
          "name": "values",
          "type": "uint256[]"
        },
        {
          "internalType": "bytes[]",
          "name": "calldatas",
          "type": "bytes[]"
        },
        {
          "internalType": "string",
          "name": "description",
          "type": "string"
        }
      ],
      "name": "propose",
      "outputs": [
        {
          "internalType": "uint256",
          "name": "",
          "type": "uint256"
        }
      ],
      "stateMutability": "nonpayable",
      "type": "function"
    },
    {
      "inputs": [
        {
          "internalType": "address[]",
          "name": "targets",
          "type": "address[]"
        },
        {
          "internalType": "uint256[]",
          "name": "values",
          "type": "uint256[]"
        },
        {
          "internalType": "bytes[]",
          "name": "calldatas",
          "type": "bytes[]"
        },
        {
          "internalType": "bytes32",
          "name": "descriptionHash",
          "type": "bytes32"
        }
      ],
      "name": "queue",
      "outputs": [
        {
          "internalType": "uint256",
          "name": "",
          "type": "uint256"
        }
      ],
      "stateMutability": "nonpayable",
      "type": "function"
    },
    {
      "inputs": [
        {
          "internalType": "uint256",
          "name": "",
          "type": "uint256"
        }
      ],
      "name": "quorum",
      "outputs": [
        {
          "internalType": "uint256",
          "name": "",
          "type": "uint256"
        }
      ],
      "stateMutability": "pure",
      "type": "function"
    },
    {
      "inputs": [
        {
          "internalType": "address",
          "name": "target",
          "type": "address"
        },
        {
          "internalType": "uint256",
          "name": "value",
          "type": "uint256"
        },
        {
          "internalType": "bytes",
          "name": "data",
          "type": "bytes"
        }
      ],
      "name": "relay",
      "outputs": [],
      "stateMutability": "payable",
      "type": "function"
    },
    {
      "inputs": [
        {
          "internalType": "uint256",
          "name": "proposalId",
          "type": "uint256"
        }
      ],
      "name": "state",
      "outputs": [
        {
          "internalType": "enum IGovernor.ProposalState",
          "name": "",
          "type": "uint8"
        }
      ],
      "stateMutability": "view",
      "type": "function"
    },
    {
      "inputs": [
        {
          "internalType": "bytes4",
          "name": "interfaceId",
          "type": "bytes4"
        }
      ],
      "name": "supportsInterface",
      "outputs": [
        {
          "internalType": "bool",
          "name": "",
          "type": "bool"
        }
      ],
      "stateMutability": "view",
      "type": "function"
    },
    {
      "inputs": [],
      "name": "token",
      "outputs": [
        {
          "internalType": "contract IERC5805",
          "name": "",
          "type": "address"
        }
      ],
      "stateMutability": "view",
      "type": "function"
    },
    {
      "inputs": [],
      "name": "version",
      "outputs": [
        {
          "internalType": "string",
          "name": "",
          "type": "string"
        }
      ],
      "stateMutability": "view",
      "type": "function"
    },
    {
      "inputs": [],
      "name": "votingDelay",
      "outputs": [
        {
          "internalType": "uint256",
          "name": "",
          "type": "uint256"
        }
      ],
      "stateMutability": "pure",
      "type": "function"
    },
    {
      "inputs": [],
      "name": "votingPeriod",
      "outputs": [
        {
          "internalType": "uint256",
          "name": "",
          "type": "uint256"
        }
      ],
      "stateMutability": "pure",
      "type": "function"
    },
    {
      "stateMutability": "payable",
      "type": "receive"
    }
  ],
  "bytecode": "0x61018060405260405162004623380380620046238339810160408190526200002791620001f9565b808280620000496040805180820190915260018152603160f81b602082015290565b62000055825f62000122565b610120526200006681600162000122565b61014052815160208084019190912060e052815190820120610100524660a052620000f360e05161010051604080517f8b73c3c69bb8fe3d512ecc4cf759cc79239f7b179b0ffacaa9a75d522b39400f60208201529081019290925260608201524660808201523060a08201525f9060c00160405160208183030381529060405280519060200120905090565b60805250503060c05260036200010a82826200034b565b50506001600160a01b031661016052506200046f9050565b5f602083511015620001415762000139836200015a565b905062000154565b816200014e84826200034b565b5060ff90505b92915050565b5f80829050601f8151111562000190578260405163305a27a960e01b815260040162000187919062000417565b60405180910390fd5b80516200019d826200044b565b179392505050565b634e487b7160e01b5f52604160045260245ffd5b5f5b83811015620001d5578181015183820152602001620001bb565b50505f910152565b80516001600160a01b0381168114620001f4575f80fd5b919050565b5f80604083850312156200020b575f80fd5b82516001600160401b038082111562000222575f80fd5b818501915085601f83011262000236575f80fd5b8151818111156200024b576200024b620001a5565b604051601f8201601f19908116603f01168101908382118183101715620002765762000276620001a5565b816040528281528860208487010111156200028f575f80fd5b620002a2836020830160208801620001b9565b8096505050505050620002b860208401620001dd565b90509250929050565b600181811c90821680620002d657607f821691505b602082108103620002f557634e487b7160e01b5f52602260045260245ffd5b50919050565b601f8211156200034657805f5260205f20601f840160051c81016020851015620003225750805b601f840160051c820191505b8181101562000343575f81556001016200032e565b50505b505050565b81516001600160401b03811115620003675762000367620001a5565b6200037f81620003788454620002c1565b84620002fb565b602080601f831160018114620003b5575f84156200039d5750858301515b5f19600386901b1c1916600185901b1785556200040f565b5f85815260208120601f198616915b82811015620003e557888601518255948401946001909101908401620003c4565b50858210156200040357878501515f19600388901b60f8161c191681555b505060018460011b0185555b505050505050565b602081525f825180602084015262000437816040850160208701620001b9565b601f01601f19169190910160400192915050565b80516020808301519190811015620002f5575f1960209190910360031b1b16919050565b60805160a05160c05160e05161010051610120516101405161016051614143620004e05f395f8181610cb8015281816113070152818161198b01526129d801525f611dc401525f611d3901525f61251e01525f6124f601525f61245101525f61247b01525f6124a501526141435ff3fe6080604052600436106103d7575f3560e01c80635f398a14116101ff578063ab58fb8e11610113578063daf80f5f116100a8578063eb9019d411610078578063eb9019d414610c27578063f23a6e6114610c46578063f7a2e6e114610c71578063f8ce560a14610c90578063fc0c546a14610caa575f80fd5b8063daf80f5f14610b71578063dd4e2ba514610b90578063deaaa7cc14610bd5578063e488ade114610c08575f80fd5b8063c242bfc7116100e3578063c242bfc714610b01578063c28bc2fa14610b20578063c59057e414610b33578063cbc1c5f314610b52575f80fd5b8063ab58fb8e14610a81578063b58131b014610896578063bc197c8114610ab7578063c01f9e3714610ae2575f80fd5b80637ecebe00116101945780639a802a6d116101645780639a802a6d146109e8578063a0710f0514610a07578063a15697c414610a24578063a8f8a66814610a43578063a9a9529414610a62575f80fd5b80637ecebe001461094357806384b0196e146109775780638ff262e31461099e57806391ddadf4146109bd575f80fd5b80636b4ac502116101cf5780636b4ac502146108c757806372352945146108e65780637b3c71d3146109055780637d5e81e214610924575f80fd5b80635f398a14146108635780635f8d5e741461088257806367354a84146108965780636b2f5df0146108a8575f80fd5b806332f4dd99116102f65780634bf5d7e91161028b57806354fd4d501161025b57806354fd4d50146107c957806356781388146107f25780635b8d0e0d146108115780635c501ba8146108305780635c93b6ec14610844575f80fd5b80634bf5d7e914610724578063506a6f0c14610738578063544ffc9c1461075757806354dc7b41146107aa575f80fd5b806343859632116102c6578063438596321461068c578063452115d6146106d45780634724aa99146106f35780634abf468414610705575f80fd5b806332f4dd9914610609578063342db739146106285780633932abb11461064d5780633e4f49e614610660575f80fd5b8063174ccd821161036c5780632e8fbee51161033c5780632e8fbee5146105845780632f2b6caa146105a35780632fe3e261146105c257806332cadf3c146105f5575f80fd5b8063174ccd821461052c5780632656227d146105405780632904df29146105535780632d63f69314610565575f80fd5b80631164d13b116103a75780631164d13b1461046a578063143489d01461047e578063150b7a02146104ca578063160cbed71461050d575f80fd5b806301ffc9a7146103e457806302a251a314610418578063046263441461043557806306fdde0314610449575f80fd5b366103e057005b005b5f80fd5b3480156103ef575f80fd5b506104036103fe366004612df2565b610cdc565b60405190151581526020015b60405180910390f35b348015610423575f80fd5b5060105b60405190815260200161040f565b348015610440575f80fd5b506103de610d48565b348015610454575f80fd5b5061045d610d52565b60405161040f9190612e66565b348015610475575f80fd5b5061045d610de2565b348015610489575f80fd5b506104b2610498366004612e78565b5f908152600460205260409020546001600160a01b031690565b6040516001600160a01b03909116815260200161040f565b3480156104d5575f80fd5b506104f46104e4366004612f68565b630a85bd0160e11b949350505050565b6040516001600160e01b0319909116815260200161040f565b348015610518575f80fd5b50610427610527366004613144565b610df1565b348015610537575f80fd5b5061045d610e2f565b61042761054e366004613144565b610e39565b34801561055e575f80fd5b50336104b2565b348015610570575f80fd5b5061042761057f366004612e78565b610f61565b34801561058f575f80fd5b5061042761059e3660046131cd565b610f81565b3480156105ae575f80fd5b506103de6105bd36600461322d565b610fcb565b3480156105cd575f80fd5b506104277f3e83946653575f9a39005e1545185629e92736b7528ab20ca3816f315424a81181565b348015610600575f80fd5b5061045d61104e565b348015610614575f80fd5b5061042761062336600461331c565b61108b565b348015610633575f80fd5b506104276e1a185c991a185d0b595e1c1bdcd959608a1b81565b348015610658575f80fd5b506004610427565b34801561066b575f80fd5b5061067f61067a366004612e78565b611146565b60405161040f91906133e3565b348015610697575f80fd5b506104036106a63660046133f1565b5f8281526007602090815260408083206001600160a01b038516845260030190915290205460ff1692915050565b3480156106df575f80fd5b506104276106ee366004613144565b61127c565b3480156106fe575f80fd5b50306104b2565b348015610710575f80fd5b5061040361071f366004612e78565b6112e8565b34801561072f575f80fd5b5061045d611303565b348015610743575f80fd5b50610427610752366004612e78565b6113c3565b348015610762575f80fd5b5061078f610771366004612e78565b5f908152600760205260409020805460018201546002909201549092565b6040805193845260208401929092529082015260600161040f565b3480156107b5575f80fd5b506104036107c436600461341b565b6113cd565b3480156107d4575f80fd5b506040805180820190915260018152603160f81b602082015261045d565b3480156107fd575f80fd5b5061042761080c366004613469565b611415565b34801561081c575f80fd5b5061042761082b36600461348a565b611434565b34801561083b575f80fd5b5061045d611573565b34801561084f575f80fd5b5061042761085e36600461353a565b611589565b34801561086e575f80fd5b5061042761087d366004613603565b611681565b34801561088d575f80fd5b506104276116d4565b3480156108a1575f80fd5b505f610427565b3480156108b3575f80fd5b506104276108c2366004613680565b6116dd565b3480156108d2575f80fd5b506103de6108e136600461371a565b611789565b3480156108f1575f80fd5b50610427610900366004613742565b611797565b348015610910575f80fd5b5061042761091f3660046137ab565b61180c565b34801561092f575f80fd5b5061042761093e366004613800565b611852565b34801561094e575f80fd5b5061042761095d3660046131cd565b6001600160a01b03165f9081526002602052604090205490565b348015610982575f80fd5b5061098b611894565b60405161040f97969594939291906138e6565b3480156109a9575f80fd5b506104276109b8366004613955565b6118d6565b3480156109c8575f80fd5b506109d1611988565b60405165ffffffffffff909116815260200161040f565b3480156109f3575f80fd5b50610427610a023660046139a0565b611a0f565b348015610a12575f80fd5b506103de610a21366004612e78565b50565b348015610a2f575f80fd5b50610427610a3e3660046139f2565b611a22565b348015610a4e575f80fd5b50610427610a5d366004613144565b611a2c565b348015610a6d575f80fd5b50610403610a7c366004612e78565b505f90565b348015610a8c575f80fd5b50610427610a9b366004612e78565b5f9081526004602052604090206001015465ffffffffffff1690565b348015610ac2575f80fd5b506104f4610ad1366004613a10565b63bc197c8160e01b95945050505050565b348015610aed575f80fd5b50610427610afc366004612e78565b611a42565b348015610b0c575f80fd5b50610427610b1b366004613a98565b611a84565b6103de610b2e366004613b0a565b611b0c565b348015610b3e575f80fd5b50610427610b4d366004613144565b611b88565b348015610b5d575f80fd5b50610427610b6c366004613b0a565b611bc1565b348015610b7c575f80fd5b50610403610b8b366004612e78565b611c02565b348015610b9b575f80fd5b506040805180820190915260208082527f737570706f72743d627261766f2671756f72756d3d666f722c6162737461696e9082015261045d565b348015610be0575f80fd5b506104277ff2aad550cf55f045cb27e9c559f9889fdfb6e6cdaa032301d6ea397784ae51d781565b348015610c13575f80fd5b5061067f610c22366004613b47565b611c0c565b348015610c32575f80fd5b50610427610c4136600461371a565b611c17565b348015610c51575f80fd5b506104f4610c60366004613b67565b63f23a6e6160e01b95945050505050565b348015610c7c575f80fd5b506109d1610c8b36600461322d565b611c36565b348015610c9b575f80fd5b50610427610a7c366004612e78565b348015610cb5575f80fd5b507f00000000000000000000000000000000000000000000000000000000000000006104b2565b5f6001600160e01b031982166366defe7760e11b1480610d0c57506001600160e01b031982166332a2ad4360e11b145b80610d2757506001600160e01b03198216630271189760e51b145b80610d4257506301ffc9a760e01b6001600160e01b03198316145b92915050565b610d50611cfd565b565b606060038054610d6190613bc6565b80601f0160208091040260200160405190810160405280929190818152602001828054610d8d90613bc6565b8015610dd85780601f10610daf57610100808354040283529160200191610dd8565b820191905f5260205f20905b815481529060010190602001808311610dbb57829003601f168201915b5050505050905090565b6060610dec611d32565b905090565b5f80610dff86868686611a2c565b9050610e1481610e0f6004611d5e565b611d80565b505f604051634844252360e11b815260040160405180910390fd5b6060610dec611dbd565b5f80610e4786868686611a2c565b9050610e6781610e576005611d5e565b610e616004611d5e565b17611d80565b505f818152600460205260409020805460ff60f01b1916600160f01b17905530610e8e3090565b6001600160a01b031614610f17575f5b8651811015610f1557306001600160a01b0316878281518110610ec357610ec3613bfe565b60200260200101516001600160a01b031603610f0d57610f0d858281518110610eee57610eee613bfe565b6020026020010151805190602001206005611dea90919063ffffffff16565b600101610e9e565b505b610f248187878787611e4b565b6040518181527f712ae1383f79ac853f8d882153778e0260ef8f03b504e2866e0593e04d2b291f906020015b60405180910390a195945050505050565b5f90815260046020526040902054600160a01b900465ffffffffffff1690565b5f610f8b82611f20565b90507f8d5c13b1cd528a3e1895fdc833368c4e3af5391250c736a28e94c4fa59b3cee481604051610fbe91815260200190565b60405180910390a1919050565b611044888888808060200260200160405190810160405280939291908181526020018383602002808284375f9201919091525050604080516020808c0282810182019093528b82529093508b92508a9182918501908490808284375f9201919091525061103e9250889150899050613c12565b85611e4b565b5050505050505050565b60605f368080601f0160208091040260200160405190810160405280939291908181526020018383808284375f9201919091525092949350505050565b5f61110088888888888080601f0160208091040260200160405190810160405280939291908181526020018383808284375f9201919091525050604080516020601f8c018190048102820181019092528a815292508a91508990819084018382808284375f92019190915250611f4292505050565b90507fbbc294ee3436818a3742886cdeae66253f76b5be8870371c691fc6998bd341d58160405161113391815260200190565b60405180910390a1979650505050505050565b5f818152600460205260408120805460ff600160f01b8204811691600160f81b900416811561117a57506007949350505050565b801561118b57506002949350505050565b5f61119586610f61565b9050805f036111bf57604051636ad0607560e01b8152600481018790526024015b60405180910390fd5b5f6111c8611988565b65ffffffffffff1690508082106111e557505f9695505050505050565b5f6111ef88611a42565b905081811061120657506001979650505050505050565b61120f88612020565b158061122e57505f888152600760205260409020805460019091015411155b1561124157506003979650505050505050565b5f8881526004602052604090206001015465ffffffffffff165f0361126e57506004979650505050505050565b506005979650505050505050565b5f8061128a86868686611a2c565b905061129981610e0f5f611d5e565b505f818152600460205260409020546001600160a01b031633146112d25760405163233d98e360e01b81523360048201526024016111b6565b6112de86868686612056565b9695505050505050565b5f818152600760205260408120805460019091015411610d42565b60607f00000000000000000000000000000000000000000000000000000000000000006001600160a01b0316634bf5d7e96040518163ffffffff1660e01b81526004015f60405180830381865afa92505050801561138257506040513d5f823e601f3d908101601f1916820160405261137f9190810190613c60565b60015b6113be575060408051808201909152601d81527f6d6f64653d626c6f636b6e756d6265722666726f6d3d64656661756c74000000602082015290565b919050565b5f610d4282612105565b5f61140d8484848080601f0160208091040260200160405190810160405280939291908181526020018383808284375f9201919091525061213192505050565b949350505050565b5f8033905061140d84828560405180602001604052805f8152506121b5565b5f806114f8876114f27f3e83946653575f9a39005e1545185629e92736b7528ab20ca3816f315424a8118c8c8c61146a8e611f20565b8d8d60405161147a929190613c91565b60405180910390208c805190602001206040516020016114d79796959493929190968752602087019590955260ff9390931660408601526001600160a01b03919091166060850152608084015260a083015260c082015260e00190565b60405160208183030381529060405280519060200120612105565b856121d6565b905080611523576040516394ab6c0760e01b81526001600160a01b03881660048201526024016111b6565b61156689888a89898080601f0160208091040260200160405190810160405280939291908181526020018383808284375f920191909152508b9250611f42915050565b9998505050505050505050565b6060610dec60408051602081019091525f815290565b5f6116398a8a808060200260200160405190810160405280939291908181526020018383602002808284375f9201919091525050604080516020808e0282810182019093528d82529093508d92508c9182918501908490808284375f920191909152506115fc92508a91508b9050613c12565b87878080601f0160208091040260200160405190810160405280939291908181526020018383808284375f92019190915250899250612246915050565b90507f42716af29aa8f33be8115e9e3188a11f6a7e7d5be696f229f0762e50b2a8bda78160405161166c91815260200190565b60405180910390a19998505050505050505050565b5f803390506116c987828888888080601f0160208091040260200160405190810160405280939291908181526020018383808284375f920191909152508a9250611f42915050565b979650505050505050565b5f610dec612445565b5f6117568888808060200260200160405190810160405280939291908181526020018383602002808284375f9201919091525050604080516020808c0282810182019093528b82529093508b92508a9182918501908490808284375f920191909152506117509250889150899050613c12565b85612056565b90507f1e0d283ef767dcb5f9efcfe0fbcac2701275d0c54fc3493502558dc018cc3ba28160405161113391815260200190565b611793828261256e565b5050565b5f6117d986868686868080601f0160208091040260200160405190810160405280939291908181526020018383808284375f920191909152506121b592505050565b90507fdbf058c917126a478393ed3aa13dcdc461cc19db88c176507846e6f69ca627f981604051610f5091815260200190565b5f803390506112de86828787878080601f0160208091040260200160405190810160405280939291908181526020018383808284375f920191909152506121b592505050565b5f3361185e8184612131565b6118865760405163d9b3955760e01b81526001600160a01b03821660048201526024016111b6565b5f6116c98787878786612246565b5f6060805f805f60606118a5611d32565b6118ad611dbd565b604080515f80825260208201909252600f60f81b9b939a50919850469750309650945092509050565b5f80611943846114f27ff2aad550cf55f045cb27e9c559f9889fdfb6e6cdaa032301d6ea397784ae51d789898961190c8b611f20565b60408051602081019690965285019390935260ff90911660608401526001600160a01b0316608083015260a082015260c0016114d7565b90508061196e576040516394ab6c0760e01b81526001600160a01b03851660048201526024016111b6565b6112de86858760405180602001604052805f8152506121b5565b5f7f00000000000000000000000000000000000000000000000000000000000000006001600160a01b03166391ddadf46040518163ffffffff1660e01b8152600401602060405180830381865afa925050508015611a03575060408051601f3d908101601f19168201909252611a0091810190613cbb565b60015b6113be57610dec6125b1565b5f61140d8484846125bb565b9392505050565b5f610d4282611d5e565b5f611a3985858585611b88565b95945050505050565b5f81815260046020526040812054611a7690600160d01b810463ffffffff1690600160a01b900465ffffffffffff16613ce0565b65ffffffffffff1692915050565b5f611ac78787878787878080601f0160208091040260200160405190810160405280939291908181526020018383808284375f920191909152506125f492505050565b90507fa17eff957f965c6ee26364f81c85c7f8c62294b8ae4ea17224d2ed00a9c882ae81604051611afa91815260200190565b60405180910390a19695505050505050565b611b14611cfd565b5f80856001600160a01b0316858585604051611b31929190613c91565b5f6040518083038185875af1925050503d805f8114611b6b576040519150601f19603f3d011682016040523d82523d5f602084013e611b70565b606091505b5091509150611b7f8282612660565b50505050505050565b5f84848484604051602001611ba09493929190613d8f565b60408051601f19818403018152919052805160209091012095945050505050565b5f611a39858585858080601f0160208091040260200160405190810160405280939291908181526020018383808284375f920191909152506125bb92505050565b5f610d4282612020565b5f611a1b8383611d80565b5f611a1b8383611c3160408051602081019091525f815290565b6125bb565b5f611cb3898989808060200260200160405190810160405280939291908181526020018383602002808284375f9201919091525050604080516020808d0282810182019093528c82529093508c92508b9182918501908490808284375f92019190915250611caa92508991508a9050613c12565b505f9392505050565b60405165ffffffffffff821681529091507fc7d48239722ab43f0d322d3bc5b9c80a10ed2b31ea774b6ac0852b9fdbd41fd09060200160405180910390a198975050505050505050565b303314610d50576040516347096e4760e01b81523360048201526024016111b6565b80611d2a600561267c565b03611d1f5750565b6060610dec7f00000000000000000000000000000000000000000000000000000000000000005f6126e9565b5f816007811115611d7157611d716133af565b600160ff919091161b92915050565b5f80611d8b84611146565b90505f83611d9883611d5e565b1603611a1b578381846040516331b75e4d60e01b81526004016111b693929190613dd9565b6060610dec7f000000000000000000000000000000000000000000000000000000000000000060016126e9565b81546001600160801b03600160801b820481169181166001830190911603611e1657611e166041612792565b6001600160801b038082165f90815260018086016020526040909120939093558354919092018216600160801b029116179055565b5f5b8451811015611f18575f80868381518110611e6a57611e6a613bfe565b60200260200101516001600160a01b0316868481518110611e8d57611e8d613bfe565b6020026020010151868581518110611ea757611ea7613bfe565b6020026020010151604051611ebc9190613dfb565b5f6040518083038185875af1925050503d805f8114611ef6576040519150601f19603f3d011682016040523d82523d5f602084013e611efb565b606091505b5091509150611f0a8282612660565b505050806001019050611e4d565b505050505050565b6001600160a01b03165f90815260026020526040902080546001810190915590565b5f611f5186610e0f6001611d5e565b505f611f6686611f6089610f61565b856125bb565b90505f611f7688888885886125f4565b905083515f03611fcc57866001600160a01b03167fb8e138887d0aa13bab447e82de9d5c1777041ecd21ca36ba824ff1e6c07ddda489888489604051611fbf9493929190613e16565b60405180910390a26116c9565b866001600160a01b03167fe2babfbac5889a709b63bb7f598b324e08bc5a4fb9ec647fb3cbc9ec07eb8712898884898960405161200d959493929190613e3d565b60405180910390a2979650505050505050565b5f818152600760205260408120600281015460018201546120419190613e82565b61204d610a7c85610f61565b11159392505050565b5f8061206486868686611a2c565b90506120b2816120746007611d5e565b61207e6006611d5e565b6120886002611d5e565b6001612095600782613e95565b6120a0906002613f8e565b6120aa9190613f9c565b181818611d80565b505f818152600460205260409081902080546001600160f81b0316600160f81b179055517f789cf55be980739dad1d0699b93b58e806b51c9d96619bfa8fe0a28abaa7b30c90610f509083815260200190565b5f610d42612111612445565b8360405161190160f01b8152600281019290925260228201526042902090565b80515f906034811015612148576001915050610d42565b60131981840101516001600160b01b03198116692370726f706f7365723d60b01b1461217957600192505050610d42565b5f8061218986602a8603866127a3565b915091508115806116c95750866001600160a01b0316816001600160a01b031614979650505050505050565b5f611a39858585856121d160408051602081019091525f815290565b611f42565b5f836001600160a01b03163b5f03612234575f806121f48585612850565b5090925090505f81600381111561220d5761220d6133af565b14801561222b5750856001600160a01b0316826001600160a01b0316145b92505050611a1b565b61223f848484612899565b9050611a1b565b5f61225a8686868680519060200120611a2c565b90508451865114158061226f57508351865114155b8061227957508551155b156122ae57855184518651604051630447b05d60e41b81526004810193909352602483019190915260448201526064016111b6565b5f81815260046020526040902054600160a01b900465ffffffffffff16156122f757806122da82611146565b6040516331b75e4d60e01b81526111b69291905f90600401613dd9565b5f6004612302611988565b65ffffffffffff166123149190613e82565b90505f60105f84815260046020526040902080546001600160a01b0319166001600160a01b03871617815590915061234b8361296f565b815465ffffffffffff91909116600160a01b0265ffffffffffff60a01b19909116178155612378826129a5565b815463ffffffff91909116600160d01b0263ffffffff60d01b1990911617815588517f7d84a6263ae0d98d3329bd7b46bb4e8d6f98cd35a7adb45c274c8b7fd5ebd5e090859087908c908c906001600160401b038111156123db576123db612ea5565b60405190808252806020026020018201604052801561240e57816020015b60608152602001906001900390816123f95790505b508c8961241b8a82613e82565b8e60405161243199989796959493929190613faf565b60405180910390a150505095945050505050565b5f306001600160a01b037f00000000000000000000000000000000000000000000000000000000000000001614801561249d57507f000000000000000000000000000000000000000000000000000000000000000046145b156124c757507f000000000000000000000000000000000000000000000000000000000000000090565b610dec604080517f8b73c3c69bb8fe3d512ecc4cf759cc79239f7b179b0ffacaa9a75d522b39400f60208201527f0000000000000000000000000000000000000000000000000000000000000000918101919091527f000000000000000000000000000000000000000000000000000000000000000060608201524660808201523060a08201525f9060c00160405160208183030381529060405280519060200120905090565b5f61257883611f20565b90508082146125ac576040516301d4b62360e61b81526001600160a01b0384166004820152602481018290526044016111b6565b505050565b5f610dec4361296f565b80515f908190156125de57828060200190518101906125da9190614084565b5090505b806125ea8686866129d5565b611a399190613f9c565b80515f9015612653575f80838060200190518101906126139190614084565b915091507f94b59a4daf412d4eaa215a1de4584cbae5ad56712ec7d4cec4f9ed4dce2cfa2082826040516126489291906140c7565b60405180910390a150505b6112de8686868686612a68565b6060826126755761267082612b64565b610d42565b5080610d42565b80545f906001600160801b0380821691600160801b90041681036126a4576126a46031612792565b6001600160801b038181165f908152600185810160205260408220805492905585546fffffffffffffffffffffffffffffffff19169301909116919091179092555090565b606060ff8314612703576126fc83612b8d565b9050610d42565b81805461270f90613bc6565b80601f016020809104026020016040519081016040528092919081815260200182805461273b90613bc6565b80156127865780601f1061275d57610100808354040283529160200191612786565b820191905f5260205f20905b81548152906001019060200180831161276957829003601f168201915b50505050509050610d42565b634e487b715f52806020526024601cfd5b5f8084518311806127b357508284115b156127c257505f905080612848565b5f6127ce856001613e82565b841180156127f6575061060f60f31b6127ea8787016020015190565b6001600160f01b031916145b90505f61280682151560026140df565b612811906028613e82565b90508061281e8787613f9c565b0361283f575f80612830898989612bca565b90965094506128489350505050565b5f809350935050505b935093915050565b5f805f8351604103612887576020840151604085015160608601515f1a61287988828585612c8b565b955095509550505050612892565b505081515f91506002905b9250925092565b5f805f856001600160a01b031685856040516024016128b99291906140c7565b60408051601f198184030181529181526020820180516001600160e01b0316630b135d3f60e11b179052516128ee9190613dfb565b5f60405180830381855afa9150503d805f8114612926576040519150601f19603f3d011682016040523d82523d5f602084013e61292b565b606091505b509150915081801561293f57506020815110155b80156112de57508051630b135d3f60e11b9061296490830160209081019084016140f6565b149695505050505050565b5f65ffffffffffff8211156129a1576040516306dfcc6560e41b815260306004820152602481018390526044016111b6565b5090565b5f63ffffffff8211156129a1576040516306dfcc6560e41b815260206004820152602481018390526044016111b6565b5f7f0000000000000000000000000000000000000000000000000000000000000000604051630748d63560e31b81526001600160a01b038681166004830152602482018690529190911690633a46b1a890604401602060405180830381865afa158015612a44573d5f803e3d5ffd5b505050506040513d601f19601f8201168201806040525081019061140d91906140f6565b5f8581526007602090815260408083206001600160a01b03881684526003810190925282205460ff1615612aba576040516371c6af4960e01b81526001600160a01b03871660048201526024016111b6565b6001600160a01b0386165f9081526003820160205260409020805460ff1916600117905560ff8516612b035783815f015f828254612af89190613e82565b90915550612b599050565b5f1960ff861601612b215783816001015f828254612af89190613e82565b60011960ff861601612b405783816002015f828254612af89190613e82565b6040516303599be160e11b815260040160405180910390fd5b509195945050505050565b805115612b745780518082602001fd5b60405163d6bda27560e01b815260040160405180910390fd5b60605f612b9983612d53565b6040805160208082528183019092529192505f91906020820181803683375050509182525060208101929092525090565b5f808481612bd9866001613e82565b85118015612c01575061060f60f31b612bf58388016020015190565b6001600160f01b031916145b90505f612c1182151560026140df565b90505f80612c1f838a613e82565b90505b87811015612c7a575f612c40612c3b8784016020015190565b612d7a565b9050600f8160ff161115612c5f575f8097509750505050505050612848565b612c6a6010846140df565b60ff909116019150600101612c22565b506001999098509650505050505050565b5f80807f7fffffffffffffffffffffffffffffff5d576e7357a4501ddfe92f46681b20a0841115612cc457505f91506003905082612d49565b604080515f808252602082018084528a905260ff891692820192909252606081018790526080810186905260019060a0016020604051602081039080840390855afa158015612d15573d5f803e3d5ffd5b5050604051601f1901519150506001600160a01b038116612d4057505f925060019150829050612d49565b92505f91508190505b9450945094915050565b5f60ff8216601f811115610d4257604051632cd44ac360e21b815260040160405180910390fd5b5f60f882901c602f81118015612d935750603a8160ff16105b15612da157602f1901610d42565b60608160ff16118015612db7575060678160ff16105b15612dc55760561901610d42565b60408160ff16118015612ddb575060478160ff16105b15612de95760361901610d42565b5060ff92915050565b5f60208284031215612e02575f80fd5b81356001600160e01b031981168114611a1b575f80fd5b5f5b83811015612e33578181015183820152602001612e1b565b50505f910152565b5f8151808452612e52816020860160208601612e19565b601f01601f19169290920160200192915050565b602081525f611a1b6020830184612e3b565b5f60208284031215612e88575f80fd5b5035919050565b80356001600160a01b03811681146113be575f80fd5b634e487b7160e01b5f52604160045260245ffd5b604051601f8201601f191681016001600160401b0381118282101715612ee157612ee1612ea5565b604052919050565b5f6001600160401b03821115612f0157612f01612ea5565b50601f01601f191660200190565b5f612f21612f1c84612ee9565b612eb9565b9050828152838383011115612f34575f80fd5b828260208301375f602084830101529392505050565b5f82601f830112612f59575f80fd5b611a1b83833560208501612f0f565b5f805f8060808587031215612f7b575f80fd5b612f8485612e8f565b9350612f9260208601612e8f565b92506040850135915060608501356001600160401b03811115612fb3575f80fd5b612fbf87828801612f4a565b91505092959194509250565b5f6001600160401b03821115612fe357612fe3612ea5565b5060051b60200190565b5f82601f830112612ffc575f80fd5b8135602061300c612f1c83612fcb565b8083825260208201915060208460051b87010193508684111561302d575f80fd5b602086015b848110156130505761304381612e8f565b8352918301918301613032565b509695505050505050565b5f82601f83011261306a575f80fd5b8135602061307a612f1c83612fcb565b8083825260208201915060208460051b87010193508684111561309b575f80fd5b602086015b8481101561305057803583529183019183016130a0565b5f6130c4612f1c84612fcb565b8381529050602080820190600585901b8401868111156130e2575f80fd5b845b8181101561311b5780356001600160401b03811115613101575f80fd5b61310d89828901612f4a565b8552509282019282016130e4565b505050509392505050565b5f82601f830112613135575f80fd5b611a1b838335602085016130b7565b5f805f8060808587031215613157575f80fd5b84356001600160401b038082111561316d575f80fd5b61317988838901612fed565b9550602087013591508082111561318e575f80fd5b61319a8883890161305b565b945060408701359150808211156131af575f80fd5b506131bc87828801613126565b949793965093946060013593505050565b5f602082840312156131dd575f80fd5b611a1b82612e8f565b5f8083601f8401126131f6575f80fd5b5081356001600160401b0381111561320c575f80fd5b6020830191508360208260051b8501011115613226575f80fd5b9250929050565b5f805f805f805f8060a0898b031215613244575f80fd5b8835975060208901356001600160401b0380821115613261575f80fd5b61326d8c838d016131e6565b909950975060408b0135915080821115613285575f80fd5b6132918c838d016131e6565b909750955060608b01359150808211156132a9575f80fd5b506132b68b828c016131e6565b999c989b50969995989497949560800135949350505050565b803560ff811681146113be575f80fd5b5f8083601f8401126132ef575f80fd5b5081356001600160401b03811115613305575f80fd5b602083019150836020828501011115613226575f80fd5b5f805f805f805f60a0888a031215613332575f80fd5b8735965061334260208901612e8f565b9550613350604089016132cf565b945060608801356001600160401b038082111561336b575f80fd5b6133778b838c016132df565b909650945060808a013591508082111561338f575f80fd5b5061339c8a828b016132df565b989b979a50959850939692959293505050565b634e487b7160e01b5f52602160045260245ffd5b600881106133df57634e487b7160e01b5f52602160045260245ffd5b9052565b60208101610d4282846133c3565b5f8060408385031215613402575f80fd5b8235915061341260208401612e8f565b90509250929050565b5f805f6040848603121561342d575f80fd5b61343684612e8f565b925060208401356001600160401b03811115613450575f80fd5b61345c868287016132df565b9497909650939450505050565b5f806040838503121561347a575f80fd5b82359150613412602084016132cf565b5f805f805f805f60c0888a0312156134a0575f80fd5b873596506134b0602089016132cf565b95506134be60408901612e8f565b945060608801356001600160401b03808211156134d9575f80fd5b6134e58b838c016132df565b909650945060808a01359150808211156134fd575f80fd5b6135098b838c01612f4a565b935060a08a013591508082111561351e575f80fd5b5061352b8a828b01612f4a565b91505092959891949750929550565b5f805f805f805f805f60a08a8c031215613552575f80fd5b89356001600160401b0380821115613568575f80fd5b6135748d838e016131e6565b909b50995060208c013591508082111561358c575f80fd5b6135988d838e016131e6565b909950975060408c01359150808211156135b0575f80fd5b6135bc8d838e016131e6565b909750955060608c01359150808211156135d4575f80fd5b506135e18c828d016132df565b90945092506135f4905060808b01612e8f565b90509295985092959850929598565b5f805f805f60808688031215613617575f80fd5b85359450613627602087016132cf565b935060408601356001600160401b0380821115613642575f80fd5b61364e89838a016132df565b90955093506060880135915080821115613666575f80fd5b5061367388828901612f4a565b9150509295509295909350565b5f805f805f805f6080888a031215613696575f80fd5b87356001600160401b03808211156136ac575f80fd5b6136b88b838c016131e6565b909950975060208a01359150808211156136d0575f80fd5b6136dc8b838c016131e6565b909750955060408a01359150808211156136f4575f80fd5b506137018a828b016131e6565b989b979a50959894979596606090950135949350505050565b5f806040838503121561372b575f80fd5b61373483612e8f565b946020939093013593505050565b5f805f805f60808688031215613756575f80fd5b8535945061376660208701612e8f565b9350613774604087016132cf565b925060608601356001600160401b0381111561378e575f80fd5b61379a888289016132df565b969995985093965092949392505050565b5f805f80606085870312156137be575f80fd5b843593506137ce602086016132cf565b925060408501356001600160401b038111156137e8575f80fd5b6137f4878288016132df565b95989497509550505050565b5f805f8060808587031215613813575f80fd5b84356001600160401b0380821115613829575f80fd5b61383588838901612fed565b9550602087013591508082111561384a575f80fd5b6138568883890161305b565b9450604087013591508082111561386b575f80fd5b61387788838901613126565b9350606087013591508082111561388c575f80fd5b508501601f8101871361389d575f80fd5b612fbf87823560208401612f0f565b5f815180845260208085019450602084015f5b838110156138db578151875295820195908201906001016138bf565b509495945050505050565b60ff60f81b8816815260e060208201525f61390460e0830189612e3b565b82810360408401526139168189612e3b565b606084018890526001600160a01b038716608085015260a0840186905283810360c0850152905061394781856138ac565b9a9950505050505050505050565b5f805f8060808587031215613968575f80fd5b84359350613978602086016132cf565b925061398660408601612e8f565b915060608501356001600160401b03811115612fb3575f80fd5b5f805f606084860312156139b2575f80fd5b6139bb84612e8f565b92506020840135915060408401356001600160401b038111156139dc575f80fd5b6139e886828701612f4a565b9150509250925092565b5f60208284031215613a02575f80fd5b813560088110611a1b575f80fd5b5f805f805f60a08688031215613a24575f80fd5b613a2d86612e8f565b9450613a3b60208701612e8f565b935060408601356001600160401b0380821115613a56575f80fd5b613a6289838a0161305b565b94506060880135915080821115613a77575f80fd5b613a8389838a0161305b565b93506080880135915080821115613666575f80fd5b5f805f805f8060a08789031215613aad575f80fd5b86359550613abd60208801612e8f565b9450613acb604088016132cf565b93506060870135925060808701356001600160401b03811115613aec575f80fd5b613af889828a016132df565b979a9699509497509295939492505050565b5f805f8060608587031215613b1d575f80fd5b613b2685612e8f565b93506020850135925060408501356001600160401b038111156137e8575f80fd5b5f8060408385031215613b58575f80fd5b50508035926020909101359150565b5f805f805f60a08688031215613b7b575f80fd5b613b8486612e8f565b9450613b9260208701612e8f565b9350604086013592506060860135915060808601356001600160401b03811115613bba575f80fd5b61367388828901612f4a565b600181811c90821680613bda57607f821691505b602082108103613bf857634e487b7160e01b5f52602260045260245ffd5b50919050565b634e487b7160e01b5f52603260045260245ffd5b5f611a1b3684846130b7565b5f82601f830112613c2d575f80fd5b8151613c3b612f1c82612ee9565b818152846020838601011115613c4f575f80fd5b61140d826020830160208701612e19565b5f60208284031215613c70575f80fd5b81516001600160401b03811115613c85575f80fd5b61140d84828501613c1e565b818382375f9101908152919050565b634e487b7160e01b5f52601160045260245ffd5b5092915050565b5f60208284031215613ccb575f80fd5b815165ffffffffffff81168114611a1b575f80fd5b65ffffffffffff818116838216019080821115613cb457613cb4613ca0565b5f815180845260208085019450602084015f5b838110156138db5781516001600160a01b031687529582019590820190600101613d12565b5f8282518085526020808601955060208260051b840101602086015f5b84811015613d8257601f19868403018952613d70838351612e3b565b98840198925090830190600101613d54565b5090979650505050505050565b608081525f613da16080830187613cff565b8281036020840152613db381876138ac565b90508281036040840152613dc78186613d37565b91505082606083015295945050505050565b83815260608101613ded60208301856133c3565b826040830152949350505050565b5f8251613e0c818460208701612e19565b9190910192915050565b84815260ff84166020820152826040820152608060608201525f6112de6080830184612e3b565b85815260ff8516602082015283604082015260a060608201525f613e6460a0830185612e3b565b8281036080840152613e768185612e3b565b98975050505050505050565b80820180821115610d4257610d42613ca0565b60ff8181168382160190811115610d4257610d42613ca0565b600181815b80851115613ee857815f1904821115613ece57613ece613ca0565b80851615613edb57918102915b93841c9390800290613eb3565b509250929050565b5f82613efe57506001610d42565b81613f0a57505f610d42565b8160018114613f205760028114613f2a57613f46565b6001915050610d42565b60ff841115613f3b57613f3b613ca0565b50506001821b610d42565b5060208310610133831016604e8410600b8410161715613f69575081810a610d42565b613f738383613eae565b805f1904821115613f8657613f86613ca0565b029392505050565b5f611a1b60ff841683613ef0565b81810381811115610d4257610d42613ca0565b5f6101208b8352602060018060a01b038c1681850152816040850152613fd78285018c613cff565b91508382036060850152613feb828b6138ac565b915083820360808501528189518084528284019150828160051b850101838c015f5b8381101561403b57601f19878403018552614029838351612e3b565b9486019492509085019060010161400d565b505086810360a088015261404f818c613d37565b9450505050508560c08401528460e08401528281036101008401526140748185612e3b565b9c9b505050505050505050505050565b5f8060408385031215614095575f80fd5b8251915060208301516001600160401b038111156140b1575f80fd5b6140bd85828601613c1e565b9150509250929050565b828152604060208201525f61140d6040830184612e3b565b8082028115828204841417610d4257610d42613ca0565b5f60208284031215614106575f80fd5b505191905056fea264697066735822122079e2d91786a8a1256e99805cdaa738b9add223363a0b105665b5e0f9ca7a5a2064736f6c63430008180033",
  "linkReferences": {},
  "deployedLinkReferences": {}
}