{
  "_format": "hh-sol-artifact-1",
  "contractName": "$ERC721URIStorageMock",
  "sourceName": "contracts-exposed/mocks/token/ERC721URIStorageMock.sol",
  "abi": [
    {
      "inputs": [
        {
          "internalType": "string",
          "name": "name_",
          "type": "string"
        },
        {
          "internalType": "string",
          "name": "symbol_",
          "type": "string"
        }
      ],
      "stateMutability": "payable",
      "type": "constructor"
    },
    {
      "inputs": [
        {
          "internalType": "address",
          "name": "sender",
          "type": "address"
        },
        {
          "internalType": "uint256",
          "name": "tokenId",
          "type": "uint256"
        },
        {
          "internalType": "address",
          "name": "owner",
          "type": "address"
        }
      ],
      "name": "ERC721IncorrectOwner",
      "type": "error"
    },
    {
      "inputs": [
        {
          "internalType": "address",
          "name": "operator",
          "type": "address"
        },
        {
          "internalType": "uint256",
          "name": "tokenId",
          "type": "uint256"
        }
      ],
      "name": "ERC721InsufficientApproval",
      "type": "error"
    },
    {
      "inputs": [
        {
          "internalType": "address",
          "name": "approver",
          "type": "address"
        }
      ],
      "name": "ERC721InvalidApprover",
      "type": "error"
    },
    {
      "inputs": [
        {
          "internalType": "address",
          "name": "operator",
          "type": "address"
        }
      ],
      "name": "ERC721InvalidOperator",
      "type": "error"
    },
    {
      "inputs": [
        {
          "internalType": "address",
          "name": "owner",
          "type": "address"
        }
      ],
      "name": "ERC721InvalidOwner",
      "type": "error"
    },
    {
      "inputs": [
        {
          "internalType": "address",
          "name": "receiver",
          "type": "address"
        }
      ],
      "name": "ERC721InvalidReceiver",
      "type": "error"
    },
    {
      "inputs": [
        {
          "internalType": "address",
          "name": "sender",
          "type": "address"
        }
      ],
      "name": "ERC721InvalidSender",
      "type": "error"
    },
    {
      "inputs": [
        {
          "internalType": "uint256",
          "name": "tokenId",
          "type": "uint256"
        }
      ],
      "name": "ERC721NonexistentToken",
      "type": "error"
    },
    {
      "anonymous": false,
      "inputs": [
        {
          "indexed": true,
          "internalType": "address",
          "name": "owner",
          "type": "address"
        },
        {
          "indexed": true,
          "internalType": "address",
          "name": "approved",
          "type": "address"
        },
        {
          "indexed": true,
          "internalType": "uint256",
          "name": "tokenId",
          "type": "uint256"
        }
      ],
      "name": "Approval",
      "type": "event"
    },
    {
      "anonymous": false,
      "inputs": [
        {
          "indexed": true,
          "internalType": "address",
          "name": "owner",
          "type": "address"
        },
        {
          "indexed": true,
          "internalType": "address",
          "name": "operator",
          "type": "address"
        },
        {
          "indexed": false,
          "internalType": "bool",
          "name": "approved",
          "type": "bool"
        }
      ],
      "name": "ApprovalForAll",
      "type": "event"
    },
    {
      "anonymous": false,
      "inputs": [
        {
          "indexed": false,
          "internalType": "uint256",
          "name": "_fromTokenId",
          "type": "uint256"
        },
        {
          "indexed": false,
          "internalType": "uint256",
          "name": "_toTokenId",
          "type": "uint256"
        }
      ],
      "name": "BatchMetadataUpdate",
      "type": "event"
    },
    {
      "anonymous": false,
      "inputs": [
        {
          "indexed": false,
          "internalType": "uint256",
          "name": "_tokenId",
          "type": "uint256"
        }
      ],
      "name": "MetadataUpdate",
      "type": "event"
    },
    {
      "anonymous": false,
      "inputs": [
        {
          "indexed": true,
          "internalType": "address",
          "name": "from",
          "type": "address"
        },
        {
          "indexed": true,
          "internalType": "address",
          "name": "to",
          "type": "address"
        },
        {
          "indexed": true,
          "internalType": "uint256",
          "name": "tokenId",
          "type": "uint256"
        }
      ],
      "name": "Transfer",
      "type": "event"
    },
    {
      "anonymous": false,
      "inputs": [
        {
          "indexed": false,
          "internalType": "address",
          "name": "ret0",
          "type": "address"
        }
      ],
      "name": "return$_update",
      "type": "event"
    },
    {
      "inputs": [
        {
          "internalType": "address",
          "name": "to",
          "type": "address"
        },
        {
          "internalType": "uint256",
          "name": "tokenId",
          "type": "uint256"
        },
        {
          "internalType": "address",
          "name": "auth",
          "type": "address"
        },
        {
          "internalType": "bool",
          "name": "emitEvent",
          "type": "bool"
        }
      ],
      "name": "$_approve",
      "outputs": [],
      "stateMutability": "nonpayable",
      "type": "function"
    },
    {
      "inputs": [
        {
          "internalType": "address",
          "name": "to",
          "type": "address"
        },
        {
          "internalType": "uint256",
          "name": "tokenId",
          "type": "uint256"
        },
        {
          "internalType": "address",
          "name": "auth",
          "type": "address"
        }
      ],
      "name": "$_approve",
      "outputs": [],
      "stateMutability": "nonpayable",
      "type": "function"
    },
    {
      "inputs": [],
      "name": "$_baseURI",
      "outputs": [
        {
          "internalType": "string",
          "name": "ret0",
          "type": "string"
        }
      ],
      "stateMutability": "view",
      "type": "function"
    },
    {
      "inputs": [
        {
          "internalType": "uint256",
          "name": "tokenId",
          "type": "uint256"
        }
      ],
      "name": "$_burn",
      "outputs": [],
      "stateMutability": "nonpayable",
      "type": "function"
    },
    {
      "inputs": [
        {
          "internalType": "address",
          "name": "owner",
          "type": "address"
        },
        {
          "internalType": "address",
          "name": "spender",
          "type": "address"
        },
        {
          "internalType": "uint256",
          "name": "tokenId",
          "type": "uint256"
        }
      ],
      "name": "$_checkAuthorized",
      "outputs": [],
      "stateMutability": "view",
      "type": "function"
    },
    {
      "inputs": [],
      "name": "$_contextSuffixLength",
      "outputs": [
        {
          "internalType": "uint256",
          "name": "ret0",
          "type": "uint256"
        }
      ],
      "stateMutability": "view",
      "type": "function"
    },
    {
      "inputs": [
        {
          "internalType": "uint256",
          "name": "tokenId",
          "type": "uint256"
        }
      ],
      "name": "$_getApproved",
      "outputs": [
        {
          "internalType": "address",
          "name": "ret0",
          "type": "address"
        }
      ],
      "stateMutability": "view",
      "type": "function"
    },
    {
      "inputs": [
        {
          "internalType": "address",
          "name": "account",
          "type": "address"
        },
        {
          "internalType": "uint128",
          "name": "value",
          "type": "uint128"
        }
      ],
      "name": "$_increaseBalance",
      "outputs": [],
      "stateMutability": "nonpayable",
      "type": "function"
    },
    {
      "inputs": [
        {
          "internalType": "address",
          "name": "owner",
          "type": "address"
        },
        {
          "internalType": "address",
          "name": "spender",
          "type": "address"
        },
        {
          "internalType": "uint256",
          "name": "tokenId",
          "type": "uint256"
        }
      ],
      "name": "$_isAuthorized",
      "outputs": [
        {
          "internalType": "bool",
          "name": "ret0",
          "type": "bool"
        }
      ],
      "stateMutability": "view",
      "type": "function"
    },
    {
      "inputs": [
        {
          "internalType": "address",
          "name": "to",
          "type": "address"
        },
        {
          "internalType": "uint256",
          "name": "tokenId",
          "type": "uint256"
        }
      ],
      "name": "$_mint",
      "outputs": [],
      "stateMutability": "nonpayable",
      "type": "function"
    },
    {
      "inputs": [],
      "name": "$_msgData",
      "outputs": [
        {
          "internalType": "bytes",
          "name": "ret0",
          "type": "bytes"
        }
      ],
      "stateMutability": "view",
      "type": "function"
    },
    {
      "inputs": [],
      "name": "$_msgSender",
      "outputs": [
        {
          "internalType": "address",
          "name": "ret0",
          "type": "address"
        }
      ],
      "stateMutability": "view",
      "type": "function"
    },
    {
      "inputs": [
        {
          "internalType": "uint256",
          "name": "tokenId",
          "type": "uint256"
        }
      ],
      "name": "$_ownerOf",
      "outputs": [
        {
          "internalType": "address",
          "name": "ret0",
          "type": "address"
        }
      ],
      "stateMutability": "view",
      "type": "function"
    },
    {
      "inputs": [
        {
          "internalType": "uint256",
          "name": "tokenId",
          "type": "uint256"
        }
      ],
      "name": "$_requireOwned",
      "outputs": [
        {
          "internalType": "address",
          "name": "ret0",
          "type": "address"
        }
      ],
      "stateMutability": "view",
      "type": "function"
    },
    {
      "inputs": [
        {
          "internalType": "address",
          "name": "to",
          "type": "address"
        },
        {
          "internalType": "uint256",
          "name": "tokenId",
          "type": "uint256"
        },
        {
          "internalType": "bytes",
          "name": "data",
          "type": "bytes"
        }
      ],
      "name": "$_safeMint",
      "outputs": [],
      "stateMutability": "nonpayable",
      "type": "function"
    },
    {
      "inputs": [
        {
          "internalType": "address",
          "name": "to",
          "type": "address"
        },
        {
          "internalType": "uint256",
          "name": "tokenId",
          "type": "uint256"
        }
      ],
      "name": "$_safeMint",
      "outputs": [],
      "stateMutability": "nonpayable",
      "type": "function"
    },
    {
      "inputs": [
        {
          "internalType": "address",
          "name": "from",
          "type": "address"
        },
        {
          "internalType": "address",
          "name": "to",
          "type": "address"
        },
        {
          "internalType": "uint256",
          "name": "tokenId",
          "type": "uint256"
        },
        {
          "internalType": "bytes",
          "name": "data",
          "type": "bytes"
        }
      ],
      "name": "$_safeTransfer",
      "outputs": [],
      "stateMutability": "nonpayable",
      "type": "function"
    },
    {
      "inputs": [
        {
          "internalType": "address",
          "name": "from",
          "type": "address"
        },
        {
          "internalType": "address",
          "name": "to",
          "type": "address"
        },
        {
          "internalType": "uint256",
          "name": "tokenId",
          "type": "uint256"
        }
      ],
      "name": "$_safeTransfer",
      "outputs": [],
      "stateMutability": "nonpayable",
      "type": "function"
    },
    {
      "inputs": [
        {
          "internalType": "address",
          "name": "owner",
          "type": "address"
        },
        {
          "internalType": "address",
          "name": "operator",
          "type": "address"
        },
        {
          "internalType": "bool",
          "name": "approved",
          "type": "bool"
        }
      ],
      "name": "$_setApprovalForAll",
      "outputs": [],
      "stateMutability": "nonpayable",
      "type": "function"
    },
    {
      "inputs": [
        {
          "internalType": "uint256",
          "name": "tokenId",
          "type": "uint256"
        },
        {
          "internalType": "string",
          "name": "_tokenURI",
          "type": "string"
        }
      ],
      "name": "$_setTokenURI",
      "outputs": [],
      "stateMutability": "nonpayable",
      "type": "function"
    },
    {
      "inputs": [
        {
          "internalType": "address",
          "name": "from",
          "type": "address"
        },
        {
          "internalType": "address",
          "name": "to",
          "type": "address"
        },
        {
          "internalType": "uint256",
          "name": "tokenId",
          "type": "uint256"
        }
      ],
      "name": "$_transfer",
      "outputs": [],
      "stateMutability": "nonpayable",
      "type": "function"
    },
    {
      "inputs": [
        {
          "internalType": "address",
          "name": "to",
          "type": "address"
        },
        {
          "internalType": "uint256",
          "name": "tokenId",
          "type": "uint256"
        },
        {
          "internalType": "address",
          "name": "auth",
          "type": "address"
        }
      ],
      "name": "$_update",
      "outputs": [
        {
          "internalType": "address",
          "name": "ret0",
          "type": "address"
        }
      ],
      "stateMutability": "nonpayable",
      "type": "function"
    },
    {
      "inputs": [],
      "name": "__hh_exposed_bytecode_marker",
      "outputs": [
        {
          "internalType": "bytes32",
          "name": "",
          "type": "bytes32"
        }
      ],
      "stateMutability": "view",
      "type": "function"
    },
    {
      "inputs": [
        {
          "internalType": "address",
          "name": "to",
          "type": "address"
        },
        {
          "internalType": "uint256",
          "name": "tokenId",
          "type": "uint256"
        }
      ],
      "name": "approve",
      "outputs": [],
      "stateMutability": "nonpayable",
      "type": "function"
    },
    {
      "inputs": [
        {
          "internalType": "address",
          "name": "owner",
          "type": "address"
        }
      ],
      "name": "balanceOf",
      "outputs": [
        {
          "internalType": "uint256",
          "name": "",
          "type": "uint256"
        }
      ],
      "stateMutability": "view",
      "type": "function"
    },
    {
      "inputs": [
        {
          "internalType": "uint256",
          "name": "tokenId",
          "type": "uint256"
        }
      ],
      "name": "getApproved",
      "outputs": [
        {
          "internalType": "address",
          "name": "",
          "type": "address"
        }
      ],
      "stateMutability": "view",
      "type": "function"
    },
    {
      "inputs": [
        {
          "internalType": "address",
          "name": "owner",
          "type": "address"
        },
        {
          "internalType": "address",
          "name": "operator",
          "type": "address"
        }
      ],
      "name": "isApprovedForAll",
      "outputs": [
        {
          "internalType": "bool",
          "name": "",
          "type": "bool"
        }
      ],
      "stateMutability": "view",
      "type": "function"
    },
    {
      "inputs": [],
      "name": "name",
      "outputs": [
        {
          "internalType": "string",
          "name": "",
          "type": "string"
        }
      ],
      "stateMutability": "view",
      "type": "function"
    },
    {
      "inputs": [
        {
          "internalType": "uint256",
          "name": "tokenId",
          "type": "uint256"
        }
      ],
      "name": "ownerOf",
      "outputs": [
        {
          "internalType": "address",
          "name": "",
          "type": "address"
        }
      ],
      "stateMutability": "view",
      "type": "function"
    },
    {
      "inputs": [
        {
          "internalType": "address",
          "name": "from",
          "type": "address"
        },
        {
          "internalType": "address",
          "name": "to",
          "type": "address"
        },
        {
          "internalType": "uint256",
          "name": "tokenId",
          "type": "uint256"
        }
      ],
      "name": "safeTransferFrom",
      "outputs": [],
      "stateMutability": "nonpayable",
      "type": "function"
    },
    {
      "inputs": [
        {
          "internalType": "address",
          "name": "from",
          "type": "address"
        },
        {
          "internalType": "address",
          "name": "to",
          "type": "address"
        },
        {
          "internalType": "uint256",
          "name": "tokenId",
          "type": "uint256"
        },
        {
          "internalType": "bytes",
          "name": "data",
          "type": "bytes"
        }
      ],
      "name": "safeTransferFrom",
      "outputs": [],
      "stateMutability": "nonpayable",
      "type": "function"
    },
    {
      "inputs": [
        {
          "internalType": "address",
          "name": "operator",
          "type": "address"
        },
        {
          "internalType": "bool",
          "name": "approved",
          "type": "bool"
        }
      ],
      "name": "setApprovalForAll",
      "outputs": [],
      "stateMutability": "nonpayable",
      "type": "function"
    },
    {
      "inputs": [
        {
          "internalType": "string",
          "name": "newBaseTokenURI",
          "type": "string"
        }
      ],
      "name": "setBaseURI",
      "outputs": [],
      "stateMutability": "nonpayable",
      "type": "function"
    },
    {
      "inputs": [
        {
          "internalType": "bytes4",
          "name": "interfaceId",
          "type": "bytes4"
        }
      ],
      "name": "supportsInterface",
      "outputs": [
        {
          "internalType": "bool",
          "name": "",
          "type": "bool"
        }
      ],
      "stateMutability": "view",
      "type": "function"
    },
    {
      "inputs": [],
      "name": "symbol",
      "outputs": [
        {
          "internalType": "string",
          "name": "",
          "type": "string"
        }
      ],
      "stateMutability": "view",
      "type": "function"
    },
    {
      "inputs": [
        {
          "internalType": "uint256",
          "name": "tokenId",
          "type": "uint256"
        }
      ],
      "name": "tokenURI",
      "outputs": [
        {
          "internalType": "string",
          "name": "",
          "type": "string"
        }
      ],
      "stateMutability": "view",
      "type": "function"
    },
    {
      "inputs": [
        {
          "internalType": "address",
          "name": "from",
          "type": "address"
        },
        {
          "internalType": "address",
          "name": "to",
          "type": "address"
        },
        {
          "internalType": "uint256",
          "name": "tokenId",
          "type": "uint256"
        }
      ],
      "name": "transferFrom",
      "outputs": [],
      "stateMutability": "nonpayable",
      "type": "function"
    },
    {
      "stateMutability": "payable",
      "type": "receive"
    }
  ],
  "bytecode": "0x608060405260405162001f7f38038062001f7f833981016040819052620000269162000110565b81815f62000035838262000200565b50600162000044828262000200565b5050505050620002cc565b634e487b7160e01b5f52604160045260245ffd5b5f82601f83011262000073575f80fd5b81516001600160401b03808211156200009057620000906200004f565b604051601f8301601f19908116603f01168101908282118183101715620000bb57620000bb6200004f565b8160405283815260209250866020858801011115620000d8575f80fd5b5f91505b83821015620000fb5785820183015181830184015290820190620000dc565b5f602085830101528094505050505092915050565b5f806040838503121562000122575f80fd5b82516001600160401b038082111562000139575f80fd5b620001478683870162000063565b935060208501519150808211156200015d575f80fd5b506200016c8582860162000063565b9150509250929050565b600181811c908216806200018b57607f821691505b602082108103620001aa57634e487b7160e01b5f52602260045260245ffd5b50919050565b601f821115620001fb57805f5260205f20601f840160051c81016020851015620001d75750805b601f840160051c820191505b81811015620001f8575f8155600101620001e3565b50505b505050565b81516001600160401b038111156200021c576200021c6200004f565b62000234816200022d845462000176565b84620001b0565b602080601f8311600181146200026a575f8415620002525750858301515b5f19600386901b1c1916600185901b178555620002c4565b5f85815260208120601f198616915b828110156200029a5788860151825594840194600190910190840162000279565b5085821015620002b857878501515f19600388901b60f8161c191681555b505060018460011b0185555b505050505050565b611ca580620002da5f395ff3fe608060405260043610610215575f3560e01c806370a082311161011e578063c6707201116100a8578063d84838341161006d578063d848383414610610578063e3cb9a4a1461062f578063e985e9c51461064e578063efb43b071461066d578063f604b1021461068c575f80fd5b8063c670720114610438578063c87b56dd14610594578063cc461d62146105b3578063cfeea0d4146105d2578063d261af54146105f1575f80fd5b806395d89b41116100ee57806395d89b41146105045780639ff2f02d14610518578063a22cb46514610537578063a2373a8214610556578063b88d4fde14610575575f80fd5b806370a0823114610488578063733555ec146104a75780637a7be036146104c657806390104b84146104e5575f80fd5b806332cadf3c1161019f578063458ee0021161016f578063458ee002146103fa57806355f804b3146104195780636352211e1461043857806367354a84146104575780636884d58b14610469575f80fd5b806332cadf3c14610375578063342db739146103895780633451b14d146103bc57806342842e0e146103db575f80fd5b8063113efe1a116101e5578063113efe1a146102cd578063161e977d1461031157806323b872dd146103255780632904df291461034457806330f3b0b514610356575f80fd5b806301ffc9a71461022057806306fdde0314610254578063081812fc14610275578063095ea7b3146102ac575f80fd5b3661021c57005b5f80fd5b34801561022b575f80fd5b5061023f61023a3660046114fb565b6106ab565b60405190151581526020015b60405180910390f35b34801561025f575f80fd5b506102686106d5565b60405161024b9190611563565b348015610280575f80fd5b5061029461028f366004611575565b610764565b6040516001600160a01b03909116815260200161024b565b3480156102b7575f80fd5b506102cb6102c63660046115a7565b61078b565b005b3480156102d8575f80fd5b506102cb6102e73660046115cf565b6001600160a01b0382165f90815260036020526040902080546001600160801b0383160190555050565b34801561031c575f80fd5b5061026861079a565b348015610330575f80fd5b506102cb61033f36600461160f565b6107a9565b34801561034f575f80fd5b5033610294565b348015610361575f80fd5b506102cb610370366004611657565b610837565b348015610380575f80fd5b50610268610843565b348015610394575f80fd5b506103ae6e1a185c991a185d0b595e1c1bdcd959608a1b81565b60405190815260200161024b565b3480156103c7575f80fd5b506102946103d6366004611575565b610880565b3480156103e6575f80fd5b506102cb6103f536600461160f565b61089c565b348015610405575f80fd5b50610294610414366004611575565b6108bb565b348015610424575f80fd5b506102cb6104333660046116e6565b6108d7565b348015610443575f80fd5b50610294610452366004611575565b6108e4565b348015610462575f80fd5b505f6103ae565b348015610474575f80fd5b506102cb61048336600461160f565b6108ee565b348015610493575f80fd5b506103ae6104a2366004611725565b6108f9565b3480156104b2575f80fd5b506102cb6104c136600461173e565b61093e565b3480156104d1575f80fd5b5061023f6104e036600461160f565b610986565b3480156104f0575f80fd5b506102cb6104ff3660046117a8565b61099a565b34801561050f575f80fd5b506102686109a5565b348015610523575f80fd5b506102cb6105323660046117e1565b6109b4565b348015610542575f80fd5b506102cb610551366004611837565b6109f4565b348015610561575f80fd5b506102cb610570366004611575565b6109ff565b348015610580575f80fd5b506102cb61058f36600461187c565b610a0b565b34801561059f575f80fd5b506102686105ae366004611575565b610a23565b3480156105be575f80fd5b506102cb6105cd3660046115a7565b610b1a565b3480156105dd575f80fd5b506102cb6105ec366004611951565b610b24565b3480156105fc575f80fd5b506102cb61060b3660046115a7565b610b2f565b34801561061b575f80fd5b506102cb61062a36600461160f565b610b39565b34801561063a575f80fd5b506102946106493660046117a8565b610b44565b348015610659575f80fd5b5061023f610668366004611988565b610b96565b348015610678575f80fd5b506102cb61068736600461160f565b610bc3565b348015610697575f80fd5b506102cb6106a63660046119b0565b610bce565b5f6001600160e01b03198216632483248360e11b14806106cf57506106cf82610c0d565b92915050565b60605f80546106e3906119f8565b80601f016020809104026020016040519081016040528092919081815260200182805461070f906119f8565b801561075a5780601f106107315761010080835404028352916020019161075a565b820191905f5260205f20905b81548152906001019060200180831161073d57829003601f168201915b5050505050905090565b5f61076e82610c5c565b505f828152600460205260409020546001600160a01b03166106cf565b610796828233610c94565b5050565b60606107a4610ca1565b905090565b6001600160a01b0382166107d757604051633250574960e11b81525f60048201526024015b60405180910390fd5b5f6107e3838333610cb0565b9050836001600160a01b0316816001600160a01b031614610831576040516364283d7b60e01b81526001600160a01b03808616600483015260248201849052821660448201526064016107ce565b50505050565b61083184848484610da2565b60605f368080601f0160208091040260200160405190810160405280939291908181526020018383808284375f9201919091525092949350505050565b5f818152600460205260408120546001600160a01b03166106cf565b6108b683838360405180602001604052805f815250610a0b565b505050565b5f818152600260205260408120546001600160a01b03166106cf565b60076108b6828483611a74565b5f6106cf82610c5c565b6108b6838383610ea6565b5f6001600160a01b038216610923576040516322718ad960e21b81525f60048201526024016107ce565b506001600160a01b03165f9081526003602052604090205490565b61097f85858585858080601f0160208091040260200160405190810160405280939291908181526020018383808284375f92019190915250610f0a92505050565b5050505050565b5f610992848484610f15565b949350505050565b6108b6838383610c94565b6060600180546106e3906119f8565b610831848484848080601f0160208091040260200160405190810160405280939291908181526020018383808284375f92019190915250610f7692505050565b610796338383610f8d565b610a088161102b565b50565b610a168484846107a9565b6108313385858585611063565b6060610a2e82610c5c565b505f8281526006602052604081208054610a47906119f8565b80601f0160208091040260200160405190810160405280929190818152602001828054610a73906119f8565b8015610abe5780601f10610a9557610100808354040283529160200191610abe565b820191905f5260205f20905b815481529060010190602001808311610aa157829003601f168201915b505050505090505f610ace610ca1565b905080515f03610adf575092915050565b815115610b11578082604051602001610af9929190611b2e565b60405160208183030381529060405292505050919050565b6109928461118a565b61079682826111ef565b6108b6838383610f8d565b6107968282611250565b6108b6838383611269565b5f610b50848484610cb0565b6040516001600160a01b03821681529091507ffc55619107f02333de2d9626fe994a6b9d0734bee4722e17698d6fa1b06c52009060200160405180910390a19392505050565b6001600160a01b039182165f90815260056020908152604080832093909416825291909152205460ff1690565b6108b6838383611283565b6108b68383838080601f0160208091040260200160405190810160405280939291908181526020018383808284375f9201919091525061133092505050565b5f6001600160e01b031982166380ac58cd60e01b1480610c3d57506001600160e01b03198216635b5e139f60e01b145b806106cf57506301ffc9a760e01b6001600160e01b03198316146106cf565b5f818152600260205260408120546001600160a01b0316806106cf57604051637e27328960e01b8152600481018490526024016107ce565b6108b68383836001610da2565b6060600780546106e3906119f8565b5f828152600260205260408120546001600160a01b0390811690831615610cdc57610cdc818486610ea6565b6001600160a01b03811615610d1657610cf75f855f80610da2565b6001600160a01b0381165f90815260036020526040902080545f190190555b6001600160a01b03851615610d44576001600160a01b0385165f908152600360205260409020805460010190555b5f8481526002602052604080822080546001600160a01b0319166001600160a01b0389811691821790925591518793918516917fddf252ad1be2c89b69c2b068fc378daa952ba7f163c4a11628f55a4df523b3ef91a4949350505050565b8080610db657506001600160a01b03821615155b15610e77575f610dc584610c5c565b90506001600160a01b03831615801590610df15750826001600160a01b0316816001600160a01b031614155b8015610e045750610e028184610b96565b155b15610e2d5760405163a9fbf51f60e01b81526001600160a01b03841660048201526024016107ce565b8115610e755783856001600160a01b0316826001600160a01b03167f8c5be1e5ebec7d5bd14f71427d1e84f3dd0314c0f7b2291e5b200ac8c7c3b92560405160405180910390a45b505b50505f90815260046020526040902080546001600160a01b0319166001600160a01b0392909216919091179055565b610eb1838383610f15565b6108b6576001600160a01b038316610edf57604051637e27328960e01b8152600481018290526024016107ce565b60405163177e802f60e01b81526001600160a01b0383166004820152602481018290526044016107ce565b610a16848484611283565b5f6001600160a01b038316158015906109925750826001600160a01b0316846001600160a01b03161480610f4e5750610f4e8484610b96565b806109925750505f908152600460205260409020546001600160a01b03908116911614919050565b610f8083836111ef565b6108b6335f858585611063565b6001600160a01b038216610fbf57604051630b61174360e31b81526001600160a01b03831660048201526024016107ce565b6001600160a01b038381165f81815260056020908152604080832094871680845294825291829020805460ff191686151590811790915591519182527f17307eab39ab6107e8899845ad3d59bd9653f200f220920489ca2b5937696c31910160405180910390a3505050565b5f6110375f835f610cb0565b90506001600160a01b03811661079657604051637e27328960e01b8152600481018390526024016107ce565b6001600160a01b0383163b1561097f57604051630a85bd0160e11b81526001600160a01b0384169063150b7a02906110a5908890889087908790600401611b5c565b6020604051808303815f875af19250505080156110df575060408051601f3d908101601f191682019092526110dc91810190611b98565b60015b611146573d80801561110c576040519150601f19603f3d011682016040523d82523d5f602084013e611111565b606091505b5080515f0361113e57604051633250574960e11b81526001600160a01b03851660048201526024016107ce565b805181602001fd5b6001600160e01b03198116630a85bd0160e11b1461118257604051633250574960e11b81526001600160a01b03851660048201526024016107ce565b505050505050565b606061119582610c5c565b505f61119f610ca1565b90505f8151116111bd5760405180602001604052805f8152506111e8565b806111c78461137f565b6040516020016111d8929190611b2e565b6040516020818303038152906040525b9392505050565b6001600160a01b03821661121857604051633250574960e11b81525f60048201526024016107ce565b5f61122483835f610cb0565b90506001600160a01b038116156108b6576040516339e3563760e11b81525f60048201526024016107ce565b610796828260405180602001604052805f815250610f76565b6108b683838360405180602001604052805f815250610f0a565b6001600160a01b0382166112ac57604051633250574960e11b81525f60048201526024016107ce565b5f6112b883835f610cb0565b90506001600160a01b0381166112e457604051637e27328960e01b8152600481018390526024016107ce565b836001600160a01b0316816001600160a01b031614610831576040516364283d7b60e01b81526001600160a01b03808616600483015260248201849052821660448201526064016107ce565b5f8281526006602052604090206113478282611bb3565b506040518281527ff8e1a15aba9398e019f0b49df1a4fde98ee17ae345cb5f6b5e2c27f5033e8ce79060200160405180910390a15050565b60605f61138b8361140f565b60010190505f8167ffffffffffffffff8111156113aa576113aa611868565b6040519080825280601f01601f1916602001820160405280156113d4576020820181803683370190505b5090508181016020015b5f19016f181899199a1a9b1b9c1cb0b131b232b360811b600a86061a8153600a85049450846113de57509392505050565b5f8072184f03e93ff9f4daa797ed6e38ed64bf6a1f0160401b831061144d5772184f03e93ff9f4daa797ed6e38ed64bf6a1f0160401b830492506040015b6d04ee2d6d415b85acef81000000008310611479576d04ee2d6d415b85acef8100000000830492506020015b662386f26fc10000831061149757662386f26fc10000830492506010015b6305f5e10083106114af576305f5e100830492506008015b61271083106114c357612710830492506004015b606483106114d5576064830492506002015b600a83106106cf5760010192915050565b6001600160e01b031981168114610a08575f80fd5b5f6020828403121561150b575f80fd5b81356111e8816114e6565b5f5b83811015611530578181015183820152602001611518565b50505f910152565b5f815180845261154f816020860160208601611516565b601f01601f19169290920160200192915050565b602081525f6111e86020830184611538565b5f60208284031215611585575f80fd5b5035919050565b80356001600160a01b03811681146115a2575f80fd5b919050565b5f80604083850312156115b8575f80fd5b6115c18361158c565b946020939093013593505050565b5f80604083850312156115e0575f80fd5b6115e98361158c565b915060208301356001600160801b0381168114611604575f80fd5b809150509250929050565b5f805f60608486031215611621575f80fd5b61162a8461158c565b92506116386020850161158c565b9150604084013590509250925092565b803580151581146115a2575f80fd5b5f805f806080858703121561166a575f80fd5b6116738561158c565b9350602085013592506116886040860161158c565b915061169660608601611648565b905092959194509250565b5f8083601f8401126116b1575f80fd5b50813567ffffffffffffffff8111156116c8575f80fd5b6020830191508360208285010111156116df575f80fd5b9250929050565b5f80602083850312156116f7575f80fd5b823567ffffffffffffffff81111561170d575f80fd5b611719858286016116a1565b90969095509350505050565b5f60208284031215611735575f80fd5b6111e88261158c565b5f805f805f60808688031215611752575f80fd5b61175b8661158c565b94506117696020870161158c565b935060408601359250606086013567ffffffffffffffff81111561178b575f80fd5b611797888289016116a1565b969995985093965092949392505050565b5f805f606084860312156117ba575f80fd5b6117c38461158c565b9250602084013591506117d86040850161158c565b90509250925092565b5f805f80606085870312156117f4575f80fd5b6117fd8561158c565b935060208501359250604085013567ffffffffffffffff81111561181f575f80fd5b61182b878288016116a1565b95989497509550505050565b5f8060408385031215611848575f80fd5b6118518361158c565b915061185f60208401611648565b90509250929050565b634e487b7160e01b5f52604160045260245ffd5b5f805f806080858703121561188f575f80fd5b6118988561158c565b93506118a66020860161158c565b925060408501359150606085013567ffffffffffffffff808211156118c9575f80fd5b818701915087601f8301126118dc575f80fd5b8135818111156118ee576118ee611868565b604051601f8201601f19908116603f0116810190838211818310171561191657611916611868565b816040528281528a602084870101111561192e575f80fd5b826020860160208301375f60208483010152809550505050505092959194509250565b5f805f60608486031215611963575f80fd5b61196c8461158c565b925061197a6020850161158c565b91506117d860408501611648565b5f8060408385031215611999575f80fd5b6119a28361158c565b915061185f6020840161158c565b5f805f604084860312156119c2575f80fd5b83359250602084013567ffffffffffffffff8111156119df575f80fd5b6119eb868287016116a1565b9497909650939450505050565b600181811c90821680611a0c57607f821691505b602082108103611a2a57634e487b7160e01b5f52602260045260245ffd5b50919050565b601f8211156108b657805f5260205f20601f840160051c81016020851015611a555750805b601f840160051c820191505b8181101561097f575f8155600101611a61565b67ffffffffffffffff831115611a8c57611a8c611868565b611aa083611a9a83546119f8565b83611a30565b5f601f841160018114611ad1575f8515611aba5750838201355b5f19600387901b1c1916600186901b17835561097f565b5f83815260208120601f198716915b82811015611b005786850135825560209485019460019092019101611ae0565b5086821015611b1c575f1960f88860031b161c19848701351681555b505060018560011b0183555050505050565b5f8351611b3f818460208801611516565b835190830190611b53818360208801611516565b01949350505050565b6001600160a01b03858116825284166020820152604081018390526080606082018190525f90611b8e90830184611538565b9695505050505050565b5f60208284031215611ba8575f80fd5b81516111e8816114e6565b815167ffffffffffffffff811115611bcd57611bcd611868565b611be181611bdb84546119f8565b84611a30565b602080601f831160018114611c14575f8415611bfd5750858301515b5f19600386901b1c1916600185901b178555611182565b5f85815260208120601f198616915b82811015611c4257888601518255948401946001909101908401611c23565b5085821015611c5f57878501515f19600388901b60f8161c191681555b5050505050600190811b0190555056fea2646970667358221220d4ba8edaaca35701d3c112824c2e0a08e86a4b21e748d0ee884711f1fffbfb1c64736f6c63430008180033",
  "linkReferences": {},
  "deployedLinkReferences": {}
}