{
  "_format": "hh-sol-artifact-1",
  "contractName": "ERC2771ContextMock",
  "sourceName": "contracts/mocks/ERC2771ContextMock.sol",
  "abi": [
    {
      "inputs": [
        {
          "internalType": "address",
          "name": "trustedForwarder",
          "type": "address"
        }
      ],
      "stateMutability": "nonpayable",
      "type": "constructor"
    },
    {
      "inputs": [
        {
          "internalType": "address",
          "name": "target",
          "type": "address"
        }
      ],
      "name": "AddressEmptyCode",
      "type": "error"
    },
    {
      "inputs": [],
      "name": "FailedCall",
      "type": "error"
    },
    {
      "anonymous": false,
      "inputs": [
        {
          "indexed": false,
          "internalType": "bytes",
          "name": "data",
          "type": "bytes"
        },
        {
          "indexed": false,
          "internalType": "uint256",
          "name": "integerValue",
          "type": "uint256"
        },
        {
          "indexed": false,
          "internalType": "string",
          "name": "stringValue",
          "type": "string"
        }
      ],
      "name": "Data",
      "type": "event"
    },
    {
      "anonymous": false,
      "inputs": [
        {
          "indexed": false,
          "internalType": "bytes",
          "name": "data",
          "type": "bytes"
        }
      ],
      "name": "DataShort",
      "type": "event"
    },
    {
      "anonymous": false,
      "inputs": [
        {
          "indexed": false,
          "internalType": "address",
          "name": "sender",
          "type": "address"
        }
      ],
      "name": "Sender",
      "type": "event"
    },
    {
      "inputs": [
        {
          "internalType": "address",
          "name": "forwarder",
          "type": "address"
        }
      ],
      "name": "isTrustedForwarder",
      "outputs": [
        {
          "internalType": "bool",
          "name": "",
          "type": "bool"
        }
      ],
      "stateMutability": "view",
      "type": "function"
    },
    {
      "inputs": [
        {
          "internalType": "uint256",
          "name": "integerValue",
          "type": "uint256"
        },
        {
          "internalType": "string",
          "name": "stringValue",
          "type": "string"
        }
      ],
      "name": "msgData",
      "outputs": [],
      "stateMutability": "nonpayable",
      "type": "function"
    },
    {
      "inputs": [],
      "name": "msgDataShort",
      "outputs": [],
      "stateMutability": "nonpayable",
      "type": "function"
    },
    {
      "inputs": [],
      "name": "msgSender",
      "outputs": [],
      "stateMutability": "nonpayable",
      "type": "function"
    },
    {
      "inputs": [
        {
          "internalType": "bytes[]",
          "name": "data",
          "type": "bytes[]"
        }
      ],
      "name": "multicall",
      "outputs": [
        {
          "internalType": "bytes[]",
          "name": "results",
          "type": "bytes[]"
        }
      ],
      "stateMutability": "nonpayable",
      "type": "function"
    },
    {
      "inputs": [],
      "name": "trustedForwarder",
      "outputs": [
        {
          "internalType": "address",
          "name": "",
          "type": "address"
        }
      ],
      "stateMutability": "view",
      "type": "function"
    }
  ],
  "bytecode": "0x60a060405234801561000f575f80fd5b50604051610ab4380380610ab483398101604081905261002e91610108565b6001600160a01b0381166080527fd6558c3ed910d959271054471fd1c326679d9fece99c5091b00ed89627cf2bfc610064610085565b6040516001600160a01b03909116815260200160405180910390a1506101b1565b5f61008e610093565b905090565b5f3660146100a0336100e3565b80156100ac5750808210155b156100db575f366100bd8385610135565b6100c892829061015a565b6100d191610181565b60601c9250505090565b339250505090565b5f6100ed60805190565b6001600160a01b0316826001600160a01b0316149050919050565b5f60208284031215610118575f80fd5b81516001600160a01b038116811461012e575f80fd5b9392505050565b8181038181111561015457634e487b7160e01b5f52601160045260245ffd5b92915050565b5f8085851115610168575f80fd5b83861115610174575f80fd5b5050820193919092039150565b6001600160601b031981358181169160148510156101a95780818660140360031b1b83161692505b505092915050565b6080516108e56101cf5f395f818160ae015261015101526108e55ff3fe608060405234801561000f575f80fd5b5060043610610060575f3560e01c8063376bf26214610064578063572b6c05146100795780637da0a877146100a1578063ac9650d8146100d8578063d737d0c7146100f8578063ff5f6b5914610100575b5f80fd5b610077610072366004610526565b610108565b005b61008c6100873660046105db565b61014f565b60405190151581526020015b60405180910390f35b6040516001600160a01b037f0000000000000000000000000000000000000000000000000000000000000000168152602001610098565b6100eb6100e6366004610601565b610181565b60405161009891906106bd565b6100776102dc565b610077610323565b7faf235354a0a47c91ee171961326335cb2d1a8e55b8a89859b0e61eb049e50ea061013161035a565b84846040516101439493929190610747565b60405180910390a15050565b7f00000000000000000000000000000000000000000000000000000000000000006001600160a01b0390811691161490565b60605f61018c61036c565b6001600160a01b0316336001600160a01b0316146101f5575f366101b160148261077d565b6101bc92829061079c565b8080601f0160208091040260200160405190810160405280939291908181526020018383808284375f9201919091525061020492505050565b604080515f8152602081019091525b90508267ffffffffffffffff81111561021f5761021f610512565b60405190808252806020026020018201604052801561025257816020015b606081526020019060019003908161023d5790505b5091505f5b838110156102d3576102ae30868684818110610275576102756107c3565b905060200281019061028791906107d7565b8560405160200161029a93929190610821565b60405160208183030381529060405261037a565b8382815181106102c0576102c06107c3565b6020908102919091010152600101610257565b50505b92915050565b7fd6558c3ed910d959271054471fd1c326679d9fece99c5091b00ed89627cf2bfc61030561036c565b6040516001600160a01b0390911681526020015b60405180910390a1565b7f6d7cec71eba467294d92341ddc4e8634eb4d742a90e16f408f06e4b70bc4cd6661034c61035a565b604051610319929190610846565b365f6103646103ec565b915091509091565b5f610375610436565b905090565b60605f80846001600160a01b0316846040516103969190610861565b5f60405180830381855af49150503d805f81146103ce576040519150601f19603f3d011682016040523d82523d5f602084013e6103d3565b606091505b50915091506103e3858383610486565b95945050505050565b365f8160146103fa3361014f565b80156104065750808210155b1561042f575f8036610418848661077d565b926104259392919061079c565b9350935050509091565b5f36610425565b5f3660146104433361014f565b801561044f5750808210155b1561047e575f36610460838561077d565b61046b92829061079c565b6104749161087c565b60601c9250505090565b339250505090565b60608261049b57610496826104e9565b6104e2565b81511580156104b257506001600160a01b0384163b155b156104df57604051639996b31560e01b81526001600160a01b038516600482015260240160405180910390fd5b50805b9392505050565b8051156104f95780518082602001fd5b60405163d6bda27560e01b815260040160405180910390fd5b634e487b7160e01b5f52604160045260245ffd5b5f8060408385031215610537575f80fd5b82359150602083013567ffffffffffffffff80821115610555575f80fd5b818501915085601f830112610568575f80fd5b81358181111561057a5761057a610512565b604051601f8201601f19908116603f011681019083821181831017156105a2576105a2610512565b816040528281528860208487010111156105ba575f80fd5b826020860160208301375f6020848301015280955050505050509250929050565b5f602082840312156105eb575f80fd5b81356001600160a01b03811681146104e2575f80fd5b5f8060208385031215610612575f80fd5b823567ffffffffffffffff80821115610629575f80fd5b818501915085601f83011261063c575f80fd5b81358181111561064a575f80fd5b8660208260051b850101111561065e575f80fd5b60209290920196919550909350505050565b5f5b8381101561068a578181015183820152602001610672565b50505f910152565b5f81518084526106a9816020860160208601610670565b601f01601f19169290920160200192915050565b5f60208083016020845280855180835260408601915060408160051b8701019250602087015f5b8281101561071257603f19888603018452610700858351610692565b945092850192908501906001016106e4565b5092979650505050505050565b81835281816020850137505f828201602090810191909152601f909101601f19169091010190565b606081525f61075a60608301868861071f565b84602084015282810360408401526107728185610692565b979650505050505050565b818103818111156102d657634e487b7160e01b5f52601160045260245ffd5b5f80858511156107aa575f80fd5b838611156107b6575f80fd5b5050820193919092039150565b634e487b7160e01b5f52603260045260245ffd5b5f808335601e198436030181126107ec575f80fd5b83018035915067ffffffffffffffff821115610806575f80fd5b60200191503681900382131561081a575f80fd5b9250929050565b828482375f8382015f8152835161083c818360208801610670565b0195945050505050565b602081525f61085960208301848661071f565b949350505050565b5f8251610872818460208701610670565b9190910192915050565b6bffffffffffffffffffffffff1981358181169160148510156102d35760149490940360031b84901b169092169291505056fea2646970667358221220af670cbd1671adfe08dfaa545619111e39aea213ec151965a2d9209191698d4464736f6c63430008180033",
  "linkReferences": {},
  "deployedLinkReferences": {}
}