{
  "_format": "hh-sol-artifact-1",
  "contractName": "$GovernorPreventLateQuorumMock",
  "sourceName": "contracts-exposed/mocks/governance/GovernorPreventLateQuorumMock.sol",
  "abi": [
    {
      "inputs": [
        {
          "internalType": "string",
          "name": "name_",
          "type": "string"
        },
        {
          "internalType": "uint48",
          "name": "initialVotingDelay",
          "type": "uint48"
        },
        {
          "internalType": "uint32",
          "name": "initialVotingPeriod",
          "type": "uint32"
        },
        {
          "internalType": "uint256",
          "name": "initialProposalThreshold",
          "type": "uint256"
        },
        {
          "internalType": "contract IVotes",
          "name": "tokenAddress",
          "type": "address"
        },
        {
          "internalType": "uint48",
          "name": "initialVoteExtension",
          "type": "uint48"
        },
        {
          "internalType": "uint256",
          "name": "quorum_",
          "type": "uint256"
        }
      ],
      "stateMutability": "payable",
      "type": "constructor"
    },
    {
      "inputs": [],
      "name": "FailedCall",
      "type": "error"
    },
    {
      "inputs": [
        {
          "internalType": "address",
          "name": "voter",
          "type": "address"
        }
      ],
      "name": "GovernorAlreadyCastVote",
      "type": "error"
    },
    {
      "inputs": [
        {
          "internalType": "uint256",
          "name": "proposalId",
          "type": "uint256"
        }
      ],
      "name": "GovernorAlreadyQueuedProposal",
      "type": "error"
    },
    {
      "inputs": [],
      "name": "GovernorDisabledDeposit",
      "type": "error"
    },
    {
      "inputs": [
        {
          "internalType": "address",
          "name": "proposer",
          "type": "address"
        },
        {
          "internalType": "uint256",
          "name": "votes",
          "type": "uint256"
        },
        {
          "internalType": "uint256",
          "name": "threshold",
          "type": "uint256"
        }
      ],
      "name": "GovernorInsufficientProposerVotes",
      "type": "error"
    },
    {
      "inputs": [
        {
          "internalType": "uint256",
          "name": "targets",
          "type": "uint256"
        },
        {
          "internalType": "uint256",
          "name": "calldatas",
          "type": "uint256"
        },
        {
          "internalType": "uint256",
          "name": "values",
          "type": "uint256"
        }
      ],
      "name": "GovernorInvalidProposalLength",
      "type": "error"
    },
    {
      "inputs": [
        {
          "internalType": "address",
          "name": "voter",
          "type": "address"
        }
      ],
      "name": "GovernorInvalidSignature",
      "type": "error"
    },
    {
      "inputs": [],
      "name": "GovernorInvalidVoteParams",
      "type": "error"
    },
    {
      "inputs": [],
      "name": "GovernorInvalidVoteType",
      "type": "error"
    },
    {
      "inputs": [
        {
          "internalType": "uint256",
          "name": "votingPeriod",
          "type": "uint256"
        }
      ],
      "name": "GovernorInvalidVotingPeriod",
      "type": "error"
    },
    {
      "inputs": [
        {
          "internalType": "uint256",
          "name": "proposalId",
          "type": "uint256"
        }
      ],
      "name": "GovernorNonexistentProposal",
      "type": "error"
    },
    {
      "inputs": [
        {
          "internalType": "uint256",
          "name": "proposalId",
          "type": "uint256"
        }
      ],
      "name": "GovernorNotQueuedProposal",
      "type": "error"
    },
    {
      "inputs": [
        {
          "internalType": "address",
          "name": "account",
          "type": "address"
        }
      ],
      "name": "GovernorOnlyExecutor",
      "type": "error"
    },
    {
      "inputs": [
        {
          "internalType": "address",
          "name": "account",
          "type": "address"
        }
      ],
      "name": "GovernorOnlyProposer",
      "type": "error"
    },
    {
      "inputs": [],
      "name": "GovernorQueueNotImplemented",
      "type": "error"
    },
    {
      "inputs": [
        {
          "internalType": "address",
          "name": "proposer",
          "type": "address"
        }
      ],
      "name": "GovernorRestrictedProposer",
      "type": "error"
    },
    {
      "inputs": [
        {
          "internalType": "uint256",
          "name": "proposalId",
          "type": "uint256"
        },
        {
          "internalType": "enum IGovernor.ProposalState",
          "name": "current",
          "type": "uint8"
        },
        {
          "internalType": "bytes32",
          "name": "expectedStates",
          "type": "bytes32"
        }
      ],
      "name": "GovernorUnexpectedProposalState",
      "type": "error"
    },
    {
      "inputs": [
        {
          "internalType": "address",
          "name": "account",
          "type": "address"
        },
        {
          "internalType": "uint256",
          "name": "currentNonce",
          "type": "uint256"
        }
      ],
      "name": "InvalidAccountNonce",
      "type": "error"
    },
    {
      "inputs": [],
      "name": "InvalidShortString",
      "type": "error"
    },
    {
      "inputs": [
        {
          "internalType": "uint8",
          "name": "bits",
          "type": "uint8"
        },
        {
          "internalType": "uint256",
          "name": "value",
          "type": "uint256"
        }
      ],
      "name": "SafeCastOverflowedUintDowncast",
      "type": "error"
    },
    {
      "inputs": [
        {
          "internalType": "string",
          "name": "str",
          "type": "string"
        }
      ],
      "name": "StringTooLong",
      "type": "error"
    },
    {
      "anonymous": false,
      "inputs": [],
      "name": "EIP712DomainChanged",
      "type": "event"
    },
    {
      "anonymous": false,
      "inputs": [
        {
          "indexed": false,
          "internalType": "uint64",
          "name": "oldVoteExtension",
          "type": "uint64"
        },
        {
          "indexed": false,
          "internalType": "uint64",
          "name": "newVoteExtension",
          "type": "uint64"
        }
      ],
      "name": "LateQuorumVoteExtensionSet",
      "type": "event"
    },
    {
      "anonymous": false,
      "inputs": [
        {
          "indexed": false,
          "internalType": "uint256",
          "name": "proposalId",
          "type": "uint256"
        }
      ],
      "name": "ProposalCanceled",
      "type": "event"
    },
    {
      "anonymous": false,
      "inputs": [
        {
          "indexed": false,
          "internalType": "uint256",
          "name": "proposalId",
          "type": "uint256"
        },
        {
          "indexed": false,
          "internalType": "address",
          "name": "proposer",
          "type": "address"
        },
        {
          "indexed": false,
          "internalType": "address[]",
          "name": "targets",
          "type": "address[]"
        },
        {
          "indexed": false,
          "internalType": "uint256[]",
          "name": "values",
          "type": "uint256[]"
        },
        {
          "indexed": false,
          "internalType": "string[]",
          "name": "signatures",
          "type": "string[]"
        },
        {
          "indexed": false,
          "internalType": "bytes[]",
          "name": "calldatas",
          "type": "bytes[]"
        },
        {
          "indexed": false,
          "internalType": "uint256",
          "name": "voteStart",
          "type": "uint256"
        },
        {
          "indexed": false,
          "internalType": "uint256",
          "name": "voteEnd",
          "type": "uint256"
        },
        {
          "indexed": false,
          "internalType": "string",
          "name": "description",
          "type": "string"
        }
      ],
      "name": "ProposalCreated",
      "type": "event"
    },
    {
      "anonymous": false,
      "inputs": [
        {
          "indexed": false,
          "internalType": "uint256",
          "name": "proposalId",
          "type": "uint256"
        }
      ],
      "name": "ProposalExecuted",
      "type": "event"
    },
    {
      "anonymous": false,
      "inputs": [
        {
          "indexed": true,
          "internalType": "uint256",
          "name": "proposalId",
          "type": "uint256"
        },
        {
          "indexed": false,
          "internalType": "uint64",
          "name": "extendedDeadline",
          "type": "uint64"
        }
      ],
      "name": "ProposalExtended",
      "type": "event"
    },
    {
      "anonymous": false,
      "inputs": [
        {
          "indexed": false,
          "internalType": "uint256",
          "name": "proposalId",
          "type": "uint256"
        },
        {
          "indexed": false,
          "internalType": "uint256",
          "name": "etaSeconds",
          "type": "uint256"
        }
      ],
      "name": "ProposalQueued",
      "type": "event"
    },
    {
      "anonymous": false,
      "inputs": [
        {
          "indexed": false,
          "internalType": "uint256",
          "name": "oldProposalThreshold",
          "type": "uint256"
        },
        {
          "indexed": false,
          "internalType": "uint256",
          "name": "newProposalThreshold",
          "type": "uint256"
        }
      ],
      "name": "ProposalThresholdSet",
      "type": "event"
    },
    {
      "anonymous": false,
      "inputs": [
        {
          "indexed": true,
          "internalType": "address",
          "name": "voter",
          "type": "address"
        },
        {
          "indexed": false,
          "internalType": "uint256",
          "name": "proposalId",
          "type": "uint256"
        },
        {
          "indexed": false,
          "internalType": "uint8",
          "name": "support",
          "type": "uint8"
        },
        {
          "indexed": false,
          "internalType": "uint256",
          "name": "weight",
          "type": "uint256"
        },
        {
          "indexed": false,
          "internalType": "string",
          "name": "reason",
          "type": "string"
        }
      ],
      "name": "VoteCast",
      "type": "event"
    },
    {
      "anonymous": false,
      "inputs": [
        {
          "indexed": true,
          "internalType": "address",
          "name": "voter",
          "type": "address"
        },
        {
          "indexed": false,
          "internalType": "uint256",
          "name": "proposalId",
          "type": "uint256"
        },
        {
          "indexed": false,
          "internalType": "uint8",
          "name": "support",
          "type": "uint8"
        },
        {
          "indexed": false,
          "internalType": "uint256",
          "name": "weight",
          "type": "uint256"
        },
        {
          "indexed": false,
          "internalType": "string",
          "name": "reason",
          "type": "string"
        },
        {
          "indexed": false,
          "internalType": "bytes",
          "name": "params",
          "type": "bytes"
        }
      ],
      "name": "VoteCastWithParams",
      "type": "event"
    },
    {
      "anonymous": false,
      "inputs": [
        {
          "indexed": false,
          "internalType": "uint256",
          "name": "oldVotingDelay",
          "type": "uint256"
        },
        {
          "indexed": false,
          "internalType": "uint256",
          "name": "newVotingDelay",
          "type": "uint256"
        }
      ],
      "name": "VotingDelaySet",
      "type": "event"
    },
    {
      "anonymous": false,
      "inputs": [
        {
          "indexed": false,
          "internalType": "uint256",
          "name": "oldVotingPeriod",
          "type": "uint256"
        },
        {
          "indexed": false,
          "internalType": "uint256",
          "name": "newVotingPeriod",
          "type": "uint256"
        }
      ],
      "name": "VotingPeriodSet",
      "type": "event"
    },
    {
      "anonymous": false,
      "inputs": [
        {
          "indexed": false,
          "internalType": "uint256",
          "name": "ret0",
          "type": "uint256"
        }
      ],
      "name": "return$_cancel",
      "type": "event"
    },
    {
      "anonymous": false,
      "inputs": [
        {
          "indexed": false,
          "internalType": "uint256",
          "name": "ret0",
          "type": "uint256"
        }
      ],
      "name": "return$_castVote_uint256_address_uint8_string",
      "type": "event"
    },
    {
      "anonymous": false,
      "inputs": [
        {
          "indexed": false,
          "internalType": "uint256",
          "name": "ret0",
          "type": "uint256"
        }
      ],
      "name": "return$_castVote_uint256_address_uint8_string_bytes",
      "type": "event"
    },
    {
      "anonymous": false,
      "inputs": [
        {
          "indexed": false,
          "internalType": "uint256",
          "name": "ret0",
          "type": "uint256"
        }
      ],
      "name": "return$_countVote",
      "type": "event"
    },
    {
      "anonymous": false,
      "inputs": [
        {
          "indexed": false,
          "internalType": "uint256",
          "name": "proposalId",
          "type": "uint256"
        }
      ],
      "name": "return$_propose",
      "type": "event"
    },
    {
      "anonymous": false,
      "inputs": [
        {
          "indexed": false,
          "internalType": "uint48",
          "name": "ret0",
          "type": "uint48"
        }
      ],
      "name": "return$_queueOperations",
      "type": "event"
    },
    {
      "anonymous": false,
      "inputs": [
        {
          "indexed": false,
          "internalType": "uint256",
          "name": "ret0",
          "type": "uint256"
        }
      ],
      "name": "return$_useNonce",
      "type": "event"
    },
    {
      "inputs": [],
      "name": "$_EIP712Name",
      "outputs": [
        {
          "internalType": "string",
          "name": "ret0",
          "type": "string"
        }
      ],
      "stateMutability": "view",
      "type": "function"
    },
    {
      "inputs": [],
      "name": "$_EIP712Version",
      "outputs": [
        {
          "internalType": "string",
          "name": "ret0",
          "type": "string"
        }
      ],
      "stateMutability": "view",
      "type": "function"
    },
    {
      "inputs": [
        {
          "internalType": "address[]",
          "name": "targets",
          "type": "address[]"
        },
        {
          "internalType": "uint256[]",
          "name": "values",
          "type": "uint256[]"
        },
        {
          "internalType": "bytes[]",
          "name": "calldatas",
          "type": "bytes[]"
        },
        {
          "internalType": "bytes32",
          "name": "descriptionHash",
          "type": "bytes32"
        }
      ],
      "name": "$_cancel",
      "outputs": [
        {
          "internalType": "uint256",
          "name": "ret0",
          "type": "uint256"
        }
      ],
      "stateMutability": "nonpayable",
      "type": "function"
    },
    {
      "inputs": [
        {
          "internalType": "uint256",
          "name": "proposalId",
          "type": "uint256"
        },
        {
          "internalType": "address",
          "name": "account",
          "type": "address"
        },
        {
          "internalType": "uint8",
          "name": "support",
          "type": "uint8"
        },
        {
          "internalType": "string",
          "name": "reason",
          "type": "string"
        },
        {
          "internalType": "bytes",
          "name": "params",
          "type": "bytes"
        }
      ],
      "name": "$_castVote",
      "outputs": [
        {
          "internalType": "uint256",
          "name": "ret0",
          "type": "uint256"
        }
      ],
      "stateMutability": "nonpayable",
      "type": "function"
    },
    {
      "inputs": [
        {
          "internalType": "uint256",
          "name": "proposalId",
          "type": "uint256"
        },
        {
          "internalType": "address",
          "name": "account",
          "type": "address"
        },
        {
          "internalType": "uint8",
          "name": "support",
          "type": "uint8"
        },
        {
          "internalType": "string",
          "name": "reason",
          "type": "string"
        }
      ],
      "name": "$_castVote",
      "outputs": [
        {
          "internalType": "uint256",
          "name": "ret0",
          "type": "uint256"
        }
      ],
      "stateMutability": "nonpayable",
      "type": "function"
    },
    {
      "inputs": [],
      "name": "$_checkGovernance",
      "outputs": [],
      "stateMutability": "nonpayable",
      "type": "function"
    },
    {
      "inputs": [],
      "name": "$_contextSuffixLength",
      "outputs": [
        {
          "internalType": "uint256",
          "name": "ret0",
          "type": "uint256"
        }
      ],
      "stateMutability": "view",
      "type": "function"
    },
    {
      "inputs": [
        {
          "internalType": "uint256",
          "name": "proposalId",
          "type": "uint256"
        },
        {
          "internalType": "address",
          "name": "account",
          "type": "address"
        },
        {
          "internalType": "uint8",
          "name": "support",
          "type": "uint8"
        },
        {
          "internalType": "uint256",
          "name": "totalWeight",
          "type": "uint256"
        },
        {
          "internalType": "bytes",
          "name": "arg4",
          "type": "bytes"
        }
      ],
      "name": "$_countVote",
      "outputs": [
        {
          "internalType": "uint256",
          "name": "ret0",
          "type": "uint256"
        }
      ],
      "stateMutability": "nonpayable",
      "type": "function"
    },
    {
      "inputs": [],
      "name": "$_defaultParams",
      "outputs": [
        {
          "internalType": "bytes",
          "name": "ret0",
          "type": "bytes"
        }
      ],
      "stateMutability": "view",
      "type": "function"
    },
    {
      "inputs": [],
      "name": "$_domainSeparatorV4",
      "outputs": [
        {
          "internalType": "bytes32",
          "name": "ret0",
          "type": "bytes32"
        }
      ],
      "stateMutability": "view",
      "type": "function"
    },
    {
      "inputs": [
        {
          "internalType": "enum IGovernor.ProposalState",
          "name": "proposalState",
          "type": "uint8"
        }
      ],
      "name": "$_encodeStateBitmap",
      "outputs": [
        {
          "internalType": "bytes32",
          "name": "ret0",
          "type": "bytes32"
        }
      ],
      "stateMutability": "pure",
      "type": "function"
    },
    {
      "inputs": [
        {
          "internalType": "uint256",
          "name": "arg0",
          "type": "uint256"
        },
        {
          "internalType": "address[]",
          "name": "targets",
          "type": "address[]"
        },
        {
          "internalType": "uint256[]",
          "name": "values",
          "type": "uint256[]"
        },
        {
          "internalType": "bytes[]",
          "name": "calldatas",
          "type": "bytes[]"
        },
        {
          "internalType": "bytes32",
          "name": "arg4",
          "type": "bytes32"
        }
      ],
      "name": "$_executeOperations",
      "outputs": [],
      "stateMutability": "nonpayable",
      "type": "function"
    },
    {
      "inputs": [],
      "name": "$_executor",
      "outputs": [
        {
          "internalType": "address",
          "name": "ret0",
          "type": "address"
        }
      ],
      "stateMutability": "view",
      "type": "function"
    },
    {
      "inputs": [
        {
          "internalType": "address",
          "name": "account",
          "type": "address"
        },
        {
          "internalType": "uint256",
          "name": "timepoint",
          "type": "uint256"
        },
        {
          "internalType": "bytes",
          "name": "arg2",
          "type": "bytes"
        }
      ],
      "name": "$_getVotes",
      "outputs": [
        {
          "internalType": "uint256",
          "name": "ret0",
          "type": "uint256"
        }
      ],
      "stateMutability": "view",
      "type": "function"
    },
    {
      "inputs": [
        {
          "internalType": "bytes32",
          "name": "structHash",
          "type": "bytes32"
        }
      ],
      "name": "$_hashTypedDataV4",
      "outputs": [
        {
          "internalType": "bytes32",
          "name": "ret0",
          "type": "bytes32"
        }
      ],
      "stateMutability": "view",
      "type": "function"
    },
    {
      "inputs": [
        {
          "internalType": "address",
          "name": "proposer",
          "type": "address"
        },
        {
          "internalType": "string",
          "name": "description",
          "type": "string"
        }
      ],
      "name": "$_isValidDescriptionForProposer",
      "outputs": [
        {
          "internalType": "bool",
          "name": "ret0",
          "type": "bool"
        }
      ],
      "stateMutability": "view",
      "type": "function"
    },
    {
      "inputs": [],
      "name": "$_msgData",
      "outputs": [
        {
          "internalType": "bytes",
          "name": "ret0",
          "type": "bytes"
        }
      ],
      "stateMutability": "view",
      "type": "function"
    },
    {
      "inputs": [],
      "name": "$_msgSender",
      "outputs": [
        {
          "internalType": "address",
          "name": "ret0",
          "type": "address"
        }
      ],
      "stateMutability": "view",
      "type": "function"
    },
    {
      "inputs": [
        {
          "internalType": "address[]",
          "name": "targets",
          "type": "address[]"
        },
        {
          "internalType": "uint256[]",
          "name": "values",
          "type": "uint256[]"
        },
        {
          "internalType": "bytes[]",
          "name": "calldatas",
          "type": "bytes[]"
        },
        {
          "internalType": "string",
          "name": "description",
          "type": "string"
        },
        {
          "internalType": "address",
          "name": "proposer",
          "type": "address"
        }
      ],
      "name": "$_propose",
      "outputs": [
        {
          "internalType": "uint256",
          "name": "proposalId",
          "type": "uint256"
        }
      ],
      "stateMutability": "nonpayable",
      "type": "function"
    },
    {
      "inputs": [
        {
          "internalType": "uint256",
          "name": "arg0",
          "type": "uint256"
        },
        {
          "internalType": "address[]",
          "name": "arg1",
          "type": "address[]"
        },
        {
          "internalType": "uint256[]",
          "name": "arg2",
          "type": "uint256[]"
        },
        {
          "internalType": "bytes[]",
          "name": "arg3",
          "type": "bytes[]"
        },
        {
          "internalType": "bytes32",
          "name": "arg4",
          "type": "bytes32"
        }
      ],
      "name": "$_queueOperations",
      "outputs": [
        {
          "internalType": "uint48",
          "name": "ret0",
          "type": "uint48"
        }
      ],
      "stateMutability": "nonpayable",
      "type": "function"
    },
    {
      "inputs": [
        {
          "internalType": "uint256",
          "name": "proposalId",
          "type": "uint256"
        }
      ],
      "name": "$_quorumReached",
      "outputs": [
        {
          "internalType": "bool",
          "name": "ret0",
          "type": "bool"
        }
      ],
      "stateMutability": "view",
      "type": "function"
    },
    {
      "inputs": [
        {
          "internalType": "uint48",
          "name": "newVoteExtension",
          "type": "uint48"
        }
      ],
      "name": "$_setLateQuorumVoteExtension",
      "outputs": [],
      "stateMutability": "nonpayable",
      "type": "function"
    },
    {
      "inputs": [
        {
          "internalType": "uint256",
          "name": "newProposalThreshold",
          "type": "uint256"
        }
      ],
      "name": "$_setProposalThreshold",
      "outputs": [],
      "stateMutability": "nonpayable",
      "type": "function"
    },
    {
      "inputs": [
        {
          "internalType": "uint48",
          "name": "newVotingDelay",
          "type": "uint48"
        }
      ],
      "name": "$_setVotingDelay",
      "outputs": [],
      "stateMutability": "nonpayable",
      "type": "function"
    },
    {
      "inputs": [
        {
          "internalType": "uint32",
          "name": "newVotingPeriod",
          "type": "uint32"
        }
      ],
      "name": "$_setVotingPeriod",
      "outputs": [],
      "stateMutability": "nonpayable",
      "type": "function"
    },
    {
      "inputs": [
        {
          "internalType": "uint256",
          "name": "proposalId",
          "type": "uint256"
        }
      ],
      "name": "$_tallyUpdated",
      "outputs": [],
      "stateMutability": "nonpayable",
      "type": "function"
    },
    {
      "inputs": [
        {
          "internalType": "address",
          "name": "owner",
          "type": "address"
        },
        {
          "internalType": "uint256",
          "name": "nonce",
          "type": "uint256"
        }
      ],
      "name": "$_useCheckedNonce",
      "outputs": [],
      "stateMutability": "nonpayable",
      "type": "function"
    },
    {
      "inputs": [
        {
          "internalType": "address",
          "name": "owner",
          "type": "address"
        }
      ],
      "name": "$_useNonce",
      "outputs": [
        {
          "internalType": "uint256",
          "name": "ret0",
          "type": "uint256"
        }
      ],
      "stateMutability": "nonpayable",
      "type": "function"
    },
    {
      "inputs": [
        {
          "internalType": "uint256",
          "name": "proposalId",
          "type": "uint256"
        },
        {
          "internalType": "bytes32",
          "name": "allowedStates",
          "type": "bytes32"
        }
      ],
      "name": "$_validateStateBitmap",
      "outputs": [
        {
          "internalType": "enum IGovernor.ProposalState",
          "name": "ret0",
          "type": "uint8"
        }
      ],
      "stateMutability": "view",
      "type": "function"
    },
    {
      "inputs": [
        {
          "internalType": "uint256",
          "name": "proposalId",
          "type": "uint256"
        }
      ],
      "name": "$_voteSucceeded",
      "outputs": [
        {
          "internalType": "bool",
          "name": "ret0",
          "type": "bool"
        }
      ],
      "stateMutability": "view",
      "type": "function"
    },
    {
      "inputs": [],
      "name": "BALLOT_TYPEHASH",
      "outputs": [
        {
          "internalType": "bytes32",
          "name": "",
          "type": "bytes32"
        }
      ],
      "stateMutability": "view",
      "type": "function"
    },
    {
      "inputs": [],
      "name": "CLOCK_MODE",
      "outputs": [
        {
          "internalType": "string",
          "name": "",
          "type": "string"
        }
      ],
      "stateMutability": "view",
      "type": "function"
    },
    {
      "inputs": [],
      "name": "COUNTING_MODE",
      "outputs": [
        {
          "internalType": "string",
          "name": "",
          "type": "string"
        }
      ],
      "stateMutability": "pure",
      "type": "function"
    },
    {
      "inputs": [],
      "name": "EXTENDED_BALLOT_TYPEHASH",
      "outputs": [
        {
          "internalType": "bytes32",
          "name": "",
          "type": "bytes32"
        }
      ],
      "stateMutability": "view",
      "type": "function"
    },
    {
      "inputs": [],
      "name": "__hh_exposed_bytecode_marker",
      "outputs": [
        {
          "internalType": "bytes32",
          "name": "",
          "type": "bytes32"
        }
      ],
      "stateMutability": "view",
      "type": "function"
    },
    {
      "inputs": [
        {
          "internalType": "address[]",
          "name": "targets",
          "type": "address[]"
        },
        {
          "internalType": "uint256[]",
          "name": "values",
          "type": "uint256[]"
        },
        {
          "internalType": "bytes[]",
          "name": "calldatas",
          "type": "bytes[]"
        },
        {
          "internalType": "bytes32",
          "name": "descriptionHash",
          "type": "bytes32"
        }
      ],
      "name": "cancel",
      "outputs": [
        {
          "internalType": "uint256",
          "name": "",
          "type": "uint256"
        }
      ],
      "stateMutability": "nonpayable",
      "type": "function"
    },
    {
      "inputs": [
        {
          "internalType": "uint256",
          "name": "proposalId",
          "type": "uint256"
        },
        {
          "internalType": "uint8",
          "name": "support",
          "type": "uint8"
        }
      ],
      "name": "castVote",
      "outputs": [
        {
          "internalType": "uint256",
          "name": "",
          "type": "uint256"
        }
      ],
      "stateMutability": "nonpayable",
      "type": "function"
    },
    {
      "inputs": [
        {
          "internalType": "uint256",
          "name": "proposalId",
          "type": "uint256"
        },
        {
          "internalType": "uint8",
          "name": "support",
          "type": "uint8"
        },
        {
          "internalType": "address",
          "name": "voter",
          "type": "address"
        },
        {
          "internalType": "bytes",
          "name": "signature",
          "type": "bytes"
        }
      ],
      "name": "castVoteBySig",
      "outputs": [
        {
          "internalType": "uint256",
          "name": "",
          "type": "uint256"
        }
      ],
      "stateMutability": "nonpayable",
      "type": "function"
    },
    {
      "inputs": [
        {
          "internalType": "uint256",
          "name": "proposalId",
          "type": "uint256"
        },
        {
          "internalType": "uint8",
          "name": "support",
          "type": "uint8"
        },
        {
          "internalType": "string",
          "name": "reason",
          "type": "string"
        }
      ],
      "name": "castVoteWithReason",
      "outputs": [
        {
          "internalType": "uint256",
          "name": "",
          "type": "uint256"
        }
      ],
      "stateMutability": "nonpayable",
      "type": "function"
    },
    {
      "inputs": [
        {
          "internalType": "uint256",
          "name": "proposalId",
          "type": "uint256"
        },
        {
          "internalType": "uint8",
          "name": "support",
          "type": "uint8"
        },
        {
          "internalType": "string",
          "name": "reason",
          "type": "string"
        },
        {
          "internalType": "bytes",
          "name": "params",
          "type": "bytes"
        }
      ],
      "name": "castVoteWithReasonAndParams",
      "outputs": [
        {
          "internalType": "uint256",
          "name": "",
          "type": "uint256"
        }
      ],
      "stateMutability": "nonpayable",
      "type": "function"
    },
    {
      "inputs": [
        {
          "internalType": "uint256",
          "name": "proposalId",
          "type": "uint256"
        },
        {
          "internalType": "uint8",
          "name": "support",
          "type": "uint8"
        },
        {
          "internalType": "address",
          "name": "voter",
          "type": "address"
        },
        {
          "internalType": "string",
          "name": "reason",
          "type": "string"
        },
        {
          "internalType": "bytes",
          "name": "params",
          "type": "bytes"
        },
        {
          "internalType": "bytes",
          "name": "signature",
          "type": "bytes"
        }
      ],
      "name": "castVoteWithReasonAndParamsBySig",
      "outputs": [
        {
          "internalType": "uint256",
          "name": "",
          "type": "uint256"
        }
      ],
      "stateMutability": "nonpayable",
      "type": "function"
    },
    {
      "inputs": [],
      "name": "clock",
      "outputs": [
        {
          "internalType": "uint48",
          "name": "",
          "type": "uint48"
        }
      ],
      "stateMutability": "view",
      "type": "function"
    },
    {
      "inputs": [],
      "name": "eip712Domain",
      "outputs": [
        {
          "internalType": "bytes1",
          "name": "fields",
          "type": "bytes1"
        },
        {
          "internalType": "string",
          "name": "name",
          "type": "string"
        },
        {
          "internalType": "string",
          "name": "version",
          "type": "string"
        },
        {
          "internalType": "uint256",
          "name": "chainId",
          "type": "uint256"
        },
        {
          "internalType": "address",
          "name": "verifyingContract",
          "type": "address"
        },
        {
          "internalType": "bytes32",
          "name": "salt",
          "type": "bytes32"
        },
        {
          "internalType": "uint256[]",
          "name": "extensions",
          "type": "uint256[]"
        }
      ],
      "stateMutability": "view",
      "type": "function"
    },
    {
      "inputs": [
        {
          "internalType": "address[]",
          "name": "targets",
          "type": "address[]"
        },
        {
          "internalType": "uint256[]",
          "name": "values",
          "type": "uint256[]"
        },
        {
          "internalType": "bytes[]",
          "name": "calldatas",
          "type": "bytes[]"
        },
        {
          "internalType": "bytes32",
          "name": "descriptionHash",
          "type": "bytes32"
        }
      ],
      "name": "execute",
      "outputs": [
        {
          "internalType": "uint256",
          "name": "",
          "type": "uint256"
        }
      ],
      "stateMutability": "payable",
      "type": "function"
    },
    {
      "inputs": [
        {
          "internalType": "address[]",
          "name": "targets",
          "type": "address[]"
        },
        {
          "internalType": "uint256[]",
          "name": "values",
          "type": "uint256[]"
        },
        {
          "internalType": "bytes[]",
          "name": "calldatas",
          "type": "bytes[]"
        },
        {
          "internalType": "bytes32",
          "name": "descriptionHash",
          "type": "bytes32"
        }
      ],
      "name": "getProposalId",
      "outputs": [
        {
          "internalType": "uint256",
          "name": "",
          "type": "uint256"
        }
      ],
      "stateMutability": "view",
      "type": "function"
    },
    {
      "inputs": [
        {
          "internalType": "address",
          "name": "account",
          "type": "address"
        },
        {
          "internalType": "uint256",
          "name": "timepoint",
          "type": "uint256"
        }
      ],
      "name": "getVotes",
      "outputs": [
        {
          "internalType": "uint256",
          "name": "",
          "type": "uint256"
        }
      ],
      "stateMutability": "view",
      "type": "function"
    },
    {
      "inputs": [
        {
          "internalType": "address",
          "name": "account",
          "type": "address"
        },
        {
          "internalType": "uint256",
          "name": "timepoint",
          "type": "uint256"
        },
        {
          "internalType": "bytes",
          "name": "params",
          "type": "bytes"
        }
      ],
      "name": "getVotesWithParams",
      "outputs": [
        {
          "internalType": "uint256",
          "name": "",
          "type": "uint256"
        }
      ],
      "stateMutability": "view",
      "type": "function"
    },
    {
      "inputs": [
        {
          "internalType": "uint256",
          "name": "proposalId",
          "type": "uint256"
        },
        {
          "internalType": "address",
          "name": "account",
          "type": "address"
        }
      ],
      "name": "hasVoted",
      "outputs": [
        {
          "internalType": "bool",
          "name": "",
          "type": "bool"
        }
      ],
      "stateMutability": "view",
      "type": "function"
    },
    {
      "inputs": [
        {
          "internalType": "address[]",
          "name": "targets",
          "type": "address[]"
        },
        {
          "internalType": "uint256[]",
          "name": "values",
          "type": "uint256[]"
        },
        {
          "internalType": "bytes[]",
          "name": "calldatas",
          "type": "bytes[]"
        },
        {
          "internalType": "bytes32",
          "name": "descriptionHash",
          "type": "bytes32"
        }
      ],
      "name": "hashProposal",
      "outputs": [
        {
          "internalType": "uint256",
          "name": "",
          "type": "uint256"
        }
      ],
      "stateMutability": "pure",
      "type": "function"
    },
    {
      "inputs": [],
      "name": "lateQuorumVoteExtension",
      "outputs": [
        {
          "internalType": "uint48",
          "name": "",
          "type": "uint48"
        }
      ],
      "stateMutability": "view",
      "type": "function"
    },
    {
      "inputs": [],
      "name": "name",
      "outputs": [
        {
          "internalType": "string",
          "name": "",
          "type": "string"
        }
      ],
      "stateMutability": "view",
      "type": "function"
    },
    {
      "inputs": [
        {
          "internalType": "address",
          "name": "owner",
          "type": "address"
        }
      ],
      "name": "nonces",
      "outputs": [
        {
          "internalType": "uint256",
          "name": "",
          "type": "uint256"
        }
      ],
      "stateMutability": "view",
      "type": "function"
    },
    {
      "inputs": [
        {
          "internalType": "address",
          "name": "",
          "type": "address"
        },
        {
          "internalType": "address",
          "name": "",
          "type": "address"
        },
        {
          "internalType": "uint256[]",
          "name": "",
          "type": "uint256[]"
        },
        {
          "internalType": "uint256[]",
          "name": "",
          "type": "uint256[]"
        },
        {
          "internalType": "bytes",
          "name": "",
          "type": "bytes"
        }
      ],
      "name": "onERC1155BatchReceived",
      "outputs": [
        {
          "internalType": "bytes4",
          "name": "",
          "type": "bytes4"
        }
      ],
      "stateMutability": "nonpayable",
      "type": "function"
    },
    {
      "inputs": [
        {
          "internalType": "address",
          "name": "",
          "type": "address"
        },
        {
          "internalType": "address",
          "name": "",
          "type": "address"
        },
        {
          "internalType": "uint256",
          "name": "",
          "type": "uint256"
        },
        {
          "internalType": "uint256",
          "name": "",
          "type": "uint256"
        },
        {
          "internalType": "bytes",
          "name": "",
          "type": "bytes"
        }
      ],
      "name": "onERC1155Received",
      "outputs": [
        {
          "internalType": "bytes4",
          "name": "",
          "type": "bytes4"
        }
      ],
      "stateMutability": "nonpayable",
      "type": "function"
    },
    {
      "inputs": [
        {
          "internalType": "address",
          "name": "",
          "type": "address"
        },
        {
          "internalType": "address",
          "name": "",
          "type": "address"
        },
        {
          "internalType": "uint256",
          "name": "",
          "type": "uint256"
        },
        {
          "internalType": "bytes",
          "name": "",
          "type": "bytes"
        }
      ],
      "name": "onERC721Received",
      "outputs": [
        {
          "internalType": "bytes4",
          "name": "",
          "type": "bytes4"
        }
      ],
      "stateMutability": "nonpayable",
      "type": "function"
    },
    {
      "inputs": [
        {
          "internalType": "uint256",
          "name": "proposalId",
          "type": "uint256"
        }
      ],
      "name": "proposalDeadline",
      "outputs": [
        {
          "internalType": "uint256",
          "name": "",
          "type": "uint256"
        }
      ],
      "stateMutability": "view",
      "type": "function"
    },
    {
      "inputs": [
        {
          "internalType": "uint256",
          "name": "proposalId",
          "type": "uint256"
        }
      ],
      "name": "proposalEta",
      "outputs": [
        {
          "internalType": "uint256",
          "name": "",
          "type": "uint256"
        }
      ],
      "stateMutability": "view",
      "type": "function"
    },
    {
      "inputs": [
        {
          "internalType": "uint256",
          "name": "",
          "type": "uint256"
        }
      ],
      "name": "proposalNeedsQueuing",
      "outputs": [
        {
          "internalType": "bool",
          "name": "",
          "type": "bool"
        }
      ],
      "stateMutability": "view",
      "type": "function"
    },
    {
      "inputs": [
        {
          "internalType": "uint256",
          "name": "proposalId",
          "type": "uint256"
        }
      ],
      "name": "proposalProposer",
      "outputs": [
        {
          "internalType": "address",
          "name": "",
          "type": "address"
        }
      ],
      "stateMutability": "view",
      "type": "function"
    },
    {
      "inputs": [
        {
          "internalType": "uint256",
          "name": "proposalId",
          "type": "uint256"
        }
      ],
      "name": "proposalSnapshot",
      "outputs": [
        {
          "internalType": "uint256",
          "name": "",
          "type": "uint256"
        }
      ],
      "stateMutability": "view",
      "type": "function"
    },
    {
      "inputs": [],
      "name": "proposalThreshold",
      "outputs": [
        {
          "internalType": "uint256",
          "name": "",
          "type": "uint256"
        }
      ],
      "stateMutability": "view",
      "type": "function"
    },
    {
      "inputs": [
        {
          "internalType": "uint256",
          "name": "proposalId",
          "type": "uint256"
        }
      ],
      "name": "proposalVotes",
      "outputs": [
        {
          "internalType": "uint256",
          "name": "againstVotes",
          "type": "uint256"
        },
        {
          "internalType": "uint256",
          "name": "forVotes",
          "type": "uint256"
        },
        {
          "internalType": "uint256",
          "name": "abstainVotes",
          "type": "uint256"
        }
      ],
      "stateMutability": "view",
      "type": "function"
    },
    {
      "inputs": [
        {
          "internalType": "address[]",
          "name": "targets",
          "type": "address[]"
        },
        {
          "internalType": "uint256[]",
          "name": "values",
          "type": "uint256[]"
        },
        {
          "internalType": "bytes[]",
          "name": "calldatas",
          "type": "bytes[]"
        },
        {
          "internalType": "string",
          "name": "description",
          "type": "string"
        }
      ],
      "name": "propose",
      "outputs": [
        {
          "internalType": "uint256",
          "name": "",
          "type": "uint256"
        }
      ],
      "stateMutability": "nonpayable",
      "type": "function"
    },
    {
      "inputs": [
        {
          "internalType": "address[]",
          "name": "targets",
          "type": "address[]"
        },
        {
          "internalType": "uint256[]",
          "name": "values",
          "type": "uint256[]"
        },
        {
          "internalType": "bytes[]",
          "name": "calldatas",
          "type": "bytes[]"
        },
        {
          "internalType": "bytes32",
          "name": "descriptionHash",
          "type": "bytes32"
        }
      ],
      "name": "queue",
      "outputs": [
        {
          "internalType": "uint256",
          "name": "",
          "type": "uint256"
        }
      ],
      "stateMutability": "nonpayable",
      "type": "function"
    },
    {
      "inputs": [
        {
          "internalType": "uint256",
          "name": "",
          "type": "uint256"
        }
      ],
      "name": "quorum",
      "outputs": [
        {
          "internalType": "uint256",
          "name": "",
          "type": "uint256"
        }
      ],
      "stateMutability": "view",
      "type": "function"
    },
    {
      "inputs": [
        {
          "internalType": "address",
          "name": "target",
          "type": "address"
        },
        {
          "internalType": "uint256",
          "name": "value",
          "type": "uint256"
        },
        {
          "internalType": "bytes",
          "name": "data",
          "type": "bytes"
        }
      ],
      "name": "relay",
      "outputs": [],
      "stateMutability": "payable",
      "type": "function"
    },
    {
      "inputs": [
        {
          "internalType": "uint48",
          "name": "newVoteExtension",
          "type": "uint48"
        }
      ],
      "name": "setLateQuorumVoteExtension",
      "outputs": [],
      "stateMutability": "nonpayable",
      "type": "function"
    },
    {
      "inputs": [
        {
          "internalType": "uint256",
          "name": "newProposalThreshold",
          "type": "uint256"
        }
      ],
      "name": "setProposalThreshold",
      "outputs": [],
      "stateMutability": "nonpayable",
      "type": "function"
    },
    {
      "inputs": [
        {
          "internalType": "uint48",
          "name": "newVotingDelay",
          "type": "uint48"
        }
      ],
      "name": "setVotingDelay",
      "outputs": [],
      "stateMutability": "nonpayable",
      "type": "function"
    },
    {
      "inputs": [
        {
          "internalType": "uint32",
          "name": "newVotingPeriod",
          "type": "uint32"
        }
      ],
      "name": "setVotingPeriod",
      "outputs": [],
      "stateMutability": "nonpayable",
      "type": "function"
    },
    {
      "inputs": [
        {
          "internalType": "uint256",
          "name": "proposalId",
          "type": "uint256"
        }
      ],
      "name": "state",
      "outputs": [
        {
          "internalType": "enum IGovernor.ProposalState",
          "name": "",
          "type": "uint8"
        }
      ],
      "stateMutability": "view",
      "type": "function"
    },
    {
      "inputs": [
        {
          "internalType": "bytes4",
          "name": "interfaceId",
          "type": "bytes4"
        }
      ],
      "name": "supportsInterface",
      "outputs": [
        {
          "internalType": "bool",
          "name": "",
          "type": "bool"
        }
      ],
      "stateMutability": "view",
      "type": "function"
    },
    {
      "inputs": [],
      "name": "token",
      "outputs": [
        {
          "internalType": "contract IERC5805",
          "name": "",
          "type": "address"
        }
      ],
      "stateMutability": "view",
      "type": "function"
    },
    {
      "inputs": [],
      "name": "version",
      "outputs": [
        {
          "internalType": "string",
          "name": "",
          "type": "string"
        }
      ],
      "stateMutability": "view",
      "type": "function"
    },
    {
      "inputs": [],
      "name": "votingDelay",
      "outputs": [
        {
          "internalType": "uint256",
          "name": "",
          "type": "uint256"
        }
      ],
      "stateMutability": "view",
      "type": "function"
    },
    {
      "inputs": [],
      "name": "votingPeriod",
      "outputs": [
        {
          "internalType": "uint256",
          "name": "",
          "type": "uint256"
        }
      ],
      "stateMutability": "view",
      "type": "function"
    },
    {
      "stateMutability": "payable",
      "type": "receive"
    }
  ],
  "bytecode": "0x61018060405260405162004d4e38038062004d4e83398101604081905262000027916200040a565b8082848888888c806200004e6040805180820190915260018152603160f81b602082015290565b6200005a825f62000160565b610120526200006b81600162000160565b61014052815160208084019190912060e052815190820120610100524660a052620000f860e05161010051604080517f8b73c3c69bb8fe3d512ecc4cf759cc79239f7b179b0ffacaa9a75d522b39400f60208201529081019290925260608201524660808201523060a08201525f9060c00160405160208183030381529060405280519060200120905090565b60805250503060c05260036200010f8282620005a4565b506200011d90508362000198565b6200012882620001fe565b6200013381620002a3565b5050506001600160a01b0316610160526200014e81620002e4565b50600c5550620006c895505050505050565b5f6020835110156200017f5762000177836200034a565b905062000192565b816200018c8482620005a4565b5060ff90505b92915050565b6008546040805165ffffffffffff928316815291831660208301527fc565b045403dc03c2eea82b81a0465edad9e2e7fc4d97e11421c209da93d7a93910160405180910390a16008805465ffffffffffff191665ffffffffffff92909216919091179055565b8063ffffffff165f036200022c5760405163f1cfbf0560e01b81525f60048201526024015b60405180910390fd5b6008546040805163ffffffff66010000000000009093048316815291831660208301527f7e3f7f0708a84de9203036abaa450dccc85ad5ff52f78c170f3edb55cf5e8828910160405180910390a16008805463ffffffff90921666010000000000000263ffffffff60301b19909216919091179055565b60075460408051918252602082018390527fccb45da8d5717e6c4544694297c4ba5cf151d455c9bb0ed4fc7a38411bc05461910160405180910390a1600755565b600a546040805165ffffffffffff928316815291831660208301527f7ca4ac117ed3cdce75c1161d8207c440389b1a15d69d096831664657c07dafc2910160405180910390a1600a805465ffffffffffff191665ffffffffffff92909216919091179055565b5f80829050601f8151111562000377578260405163305a27a960e01b815260040162000223919062000670565b80516200038482620006a4565b179392505050565b634e487b7160e01b5f52604160045260245ffd5b5f5b83811015620003bc578181015183820152602001620003a2565b50505f910152565b805165ffffffffffff81168114620003da575f80fd5b919050565b805163ffffffff81168114620003da575f80fd5b80516001600160a01b0381168114620003da575f80fd5b5f805f805f805f60e0888a03121562000421575f80fd5b87516001600160401b038082111562000438575f80fd5b818a0191508a601f8301126200044c575f80fd5b8151818111156200046157620004616200038c565b604051601f8201601f19908116603f011681019083821181831017156200048c576200048c6200038c565b816040528281528d6020848701011115620004a5575f80fd5b620004b8836020830160208801620003a0565b809b505050505050620004ce60208901620003c4565b9550620004de60408901620003df565b945060608801519350620004f560808901620003f3565b92506200050560a08901620003c4565b915060c0880151905092959891949750929550565b600181811c908216806200052f57607f821691505b6020821081036200054e57634e487b7160e01b5f52602260045260245ffd5b50919050565b601f8211156200059f57805f5260205f20601f840160051c810160208510156200057b5750805b601f840160051c820191505b818110156200059c575f815560010162000587565b50505b505050565b81516001600160401b03811115620005c057620005c06200038c565b620005d881620005d184546200051a565b8462000554565b602080601f8311600181146200060e575f8415620005f65750858301515b5f19600386901b1c1916600185901b17855562000668565b5f85815260208120601f198616915b828110156200063e578886015182559484019460019091019084016200061d565b50858210156200065c57878501515f19600388901b60f8161c191681555b505060018460011b0185555b505050505050565b602081525f825180602084015262000690816040850160208701620003a0565b601f01601f19169190910160400192915050565b805160208083015191908110156200054e575f1960209190910360031b1b16919050565b60805160a05160c05160e05161010051610120516101405161016051614615620007395f395f8181610e40015281816114cb01528181611bd4015261298601525f61209d01525f61201201525f61288001525f61285801525f6127b301525f6127dd01525f61280701526146155ff3fe60806040526004361061043a575f3560e01c806367354a841161022b578063bc197c8111610129578063e488ade1116100b3578063f23a6e6111610078578063f23a6e6114610dc7578063f7a2e6e114610df2578063f8ce560a14610e11578063fc0c546a14610e32578063fc2e6e3c14610e64575f80fd5b8063e488ade114610d2c578063e540d01d14610d4b578063e7fadc1614610d6a578063eb9019d414610d89578063ece40cc114610da8575f80fd5b8063c59057e4116100f9578063c59057e414610c57578063cbc1c5f314610c76578063daf80f5f14610c95578063dd4e2ba514610cb4578063deaaa7cc14610cf9575f80fd5b8063bc197c8114610bdb578063c01f9e3714610c06578063c242bfc714610c25578063c28bc2fa14610c44575f80fd5b806385bf3b0b116101b5578063a15697c41161017a578063a15697c414610b34578063a8f8a66814610b53578063a9a9529414610b72578063ab58fb8e14610b91578063b58131b014610bc7575f80fd5b806385bf3b0b14610aa45780638ff262e314610ac357806391ddadf414610ae25780639a802a6d14610af6578063a0710f0514610b15575f80fd5b806379051887116101fb57806379051887146109ec5780637b3c71d314610a0b5780637d5e81e214610a2a5780637ecebe0014610a4957806384b0196e14610a7d575f80fd5b806367354a841461097d5780636b2f5df01461098f5780636b4ac502146109ae57806372352945146109cd575f80fd5b8063330df7ff11610338578063506a6f0c116102c25780635b8d0e0d116102875780635b8d0e0d146108f85780635c501ba8146109175780635c93b6ec1461092b5780635f398a141461094a5780635f8d5e7414610969575f80fd5b8063506a6f0c1461081f578063544ffc9c1461083e57806354dc7b411461089157806354fd4d50146108b057806356781388146108d9575f80fd5b806343859632116103085780634385963214610773578063452115d6146107bb5780634724aa99146107da5780634abf4684146107ec5780634bf5d7e91461080b575f80fd5b8063330df7ff146106e7578063342db739146107065780633932abb11461072b5780633e4f49e614610747575f80fd5b8063174ccd82116103c45780632f2b6caa116103895780632f2b6caa146106335780632fe3e2611461065257806332b8113e1461068557806332cadf3c146106b457806332f4dd99146106c8575f80fd5b8063174ccd82146105bc5780632656227d146105d05780632904df29146105e35780632d63f693146105f55780632e8fbee514610614575f80fd5b80630ede0bea1161040a5780630ede0bea146104db5780631164d13b146104fa578063143489d01461050e578063150b7a021461055a578063160cbed71461059d575f80fd5b806301ffc9a71461044757806302a251a31461047b57806304626344146104a657806306fdde03146104ba575f80fd5b3661044357005b005b5f80fd5b348015610452575f80fd5b506104666104613660046132ac565b610e83565b60405190151581526020015b60405180910390f35b348015610486575f80fd5b50600854600160301b900463ffffffff165b604051908152602001610472565b3480156104b1575f80fd5b50610441610eef565b3480156104c5575f80fd5b506104ce610ef9565b6040516104729190613320565b3480156104e6575f80fd5b506104416104f5366004613332565b610f89565b348015610505575f80fd5b506104ce610f95565b348015610519575f80fd5b50610542610528366004613355565b5f908152600460205260409020546001600160a01b031690565b6040516001600160a01b039091168152602001610472565b348015610565575f80fd5b50610584610574366004613445565b630a85bd0160e11b949350505050565b6040516001600160e01b03199091168152602001610472565b3480156105a8575f80fd5b506104986105b7366004613621565b610fa4565b3480156105c7575f80fd5b506104ce610fe2565b6104986105de366004613621565b610fec565b3480156105ee575f80fd5b5033610542565b348015610600575f80fd5b5061049861060f366004613355565b611114565b34801561061f575f80fd5b5061049861062e3660046136aa565b611134565b34801561063e575f80fd5b5061044161064d36600461370a565b61117e565b34801561065d575f80fd5b506104987f3e83946653575f9a39005e1545185629e92736b7528ab20ca3816f315424a81181565b348015610690575f80fd5b50600a5465ffffffffffff165b60405165ffffffffffff9091168152602001610472565b3480156106bf575f80fd5b506104ce611201565b3480156106d3575f80fd5b506104986106e23660046137f9565b61123e565b3480156106f2575f80fd5b5061044161070136600461389f565b6112f9565b348015610711575f80fd5b506104986e1a185c991a185d0b595e1c1bdcd959608a1b81565b348015610736575f80fd5b5060085465ffffffffffff16610498565b348015610752575f80fd5b50610766610761366004613355565b61130a565b60405161047291906138ee565b34801561077e575f80fd5b5061046661078d3660046138fc565b5f8281526009602090815260408083206001600160a01b038516845260030190915290205460ff1692915050565b3480156107c6575f80fd5b506104986107d5366004613621565b611440565b3480156107e5575f80fd5b5030610542565b3480156107f7575f80fd5b50610466610806366004613355565b6114ac565b348015610816575f80fd5b506104ce6114c7565b34801561082a575f80fd5b50610498610839366004613355565b611587565b348015610849575f80fd5b50610876610858366004613355565b5f908152600960205260409020805460018201546002909201549092565b60408051938452602084019290925290820152606001610472565b34801561089c575f80fd5b506104666108ab366004613926565b611591565b3480156108bb575f80fd5b506040805180820190915260018152603160f81b60208201526104ce565b3480156108e4575f80fd5b506104986108f3366004613974565b6115d9565b348015610903575f80fd5b50610498610912366004613995565b6115f8565b348015610922575f80fd5b506104ce611737565b348015610936575f80fd5b50610498610945366004613a45565b61174d565b348015610955575f80fd5b50610498610964366004613b0e565b611845565b348015610974575f80fd5b50610498611898565b348015610988575f80fd5b505f610498565b34801561099a575f80fd5b506104986109a9366004613b8b565b6118a1565b3480156109b9575f80fd5b506104416109c8366004613c25565b61194d565b3480156109d8575f80fd5b506104986109e7366004613c4d565b61195b565b3480156109f7575f80fd5b50610441610a0636600461389f565b6119d0565b348015610a16575f80fd5b50610498610a25366004613cb6565b6119e1565b348015610a35575f80fd5b50610498610a44366004613d0b565b611a27565b348015610a54575f80fd5b50610498610a633660046136aa565b6001600160a01b03165f9081526002602052604090205490565b348015610a88575f80fd5b50610a91611add565b6040516104729796959493929190613df1565b348015610aaf575f80fd5b50610441610abe36600461389f565b611301565b348015610ace575f80fd5b50610498610add366004613e60565b611b1f565b348015610aed575f80fd5b5061069d611bd1565b348015610b01575f80fd5b50610498610b10366004613eab565b611c58565b348015610b20575f80fd5b50610441610b2f366004613355565b611c6b565b348015610b3f575f80fd5b50610498610b4e366004613efd565b611c74565b348015610b5e575f80fd5b50610498610b6d366004613621565b611c7e565b348015610b7d575f80fd5b50610466610b8c366004613355565b505f90565b348015610b9c575f80fd5b50610498610bab366004613355565b5f9081526004602052604090206001015465ffffffffffff1690565b348015610bd2575f80fd5b50610498611c94565b348015610be6575f80fd5b50610584610bf5366004613f1b565b63bc197c8160e01b95945050505050565b348015610c11575f80fd5b50610498610c20366004613355565b611c9e565b348015610c30575f80fd5b50610498610c3f366004613fa3565b611ca8565b610441610c52366004614015565b611d30565b348015610c62575f80fd5b50610498610c71366004613621565b611dac565b348015610c81575f80fd5b50610498610c90366004614015565b611de5565b348015610ca0575f80fd5b50610466610caf366004613355565b611e26565b348015610cbf575f80fd5b506040805180820190915260208082527f737570706f72743d627261766f2671756f72756d3d666f722c6162737461696e908201526104ce565b348015610d04575f80fd5b506104987ff2aad550cf55f045cb27e9c559f9889fdfb6e6cdaa032301d6ea397784ae51d781565b348015610d37575f80fd5b50610766610d46366004614052565b611e30565b348015610d56575f80fd5b50610441610d65366004613332565b611e3b565b348015610d75575f80fd5b50610441610d8436600461389f565b6119d8565b348015610d94575f80fd5b50610498610da3366004613c25565b611e43565b348015610db3575f80fd5b50610441610dc2366004613355565b611e62565b348015610dd2575f80fd5b50610584610de1366004614072565b63f23a6e6160e01b95945050505050565b348015610dfd575f80fd5b5061069d610e0c36600461370a565b611e73565b348015610e1c575f80fd5b50610498610e2b366004613355565b50600c5490565b348015610e3d575f80fd5b507f0000000000000000000000000000000000000000000000000000000000000000610542565b348015610e6f575f80fd5b50610441610e7e366004613355565b611e6a565b5f6001600160e01b031982166366defe7760e11b1480610eb357506001600160e01b031982166332a2ad4360e11b145b80610ece57506001600160e01b03198216630271189760e51b145b80610ee957506301ffc9a760e01b6001600160e01b03198316145b92915050565b610ef7611f3a565b565b606060038054610f08906140d1565b80601f0160208091040260200160405190810160405280929190818152602001828054610f34906140d1565b8015610f7f5780601f10610f5657610100808354040283529160200191610f7f565b820191905f5260205f20905b815481529060010190602001808311610f6257829003601f168201915b5050505050905090565b610f9281611f6f565b50565b6060610f9f61200b565b905090565b5f80610fb286868686611c7e565b9050610fc781610fc26004612037565b612059565b505f604051634844252360e11b815260040160405180910390fd5b6060610f9f612096565b5f80610ffa86868686611c7e565b905061101a8161100a6005612037565b6110146004612037565b17612059565b505f818152600460205260409020805460ff60f01b1916600160f01b179055306110413090565b6001600160a01b0316146110ca575f5b86518110156110c857306001600160a01b031687828151811061107657611076614109565b60200260200101516001600160a01b0316036110c0576110c08582815181106110a1576110a1614109565b60200260200101518051906020012060056120c390919063ffffffff16565b600101611051565b505b6110d78187878787612124565b6040518181527f712ae1383f79ac853f8d882153778e0260ef8f03b504e2866e0593e04d2b291f906020015b60405180910390a195945050505050565b5f90815260046020526040902054600160a01b900465ffffffffffff1690565b5f61113e826121f9565b90507f8d5c13b1cd528a3e1895fdc833368c4e3af5391250c736a28e94c4fa59b3cee48160405161117191815260200190565b60405180910390a1919050565b6111f7888888808060200260200160405190810160405280939291908181526020018383602002808284375f9201919091525050604080516020808c0282810182019093528b82529093508b92508a9182918501908490808284375f920191909152506111f1925088915089905061411d565b85612124565b5050505050505050565b60605f368080601f0160208091040260200160405190810160405280939291908181526020018383808284375f9201919091525092949350505050565b5f6112b388888888888080601f0160208091040260200160405190810160405280939291908181526020018383808284375f9201919091525050604080516020601f8c018190048102820181019092528a815292508a91508990819084018382808284375f9201919091525061221b92505050565b90507fbbc294ee3436818a3742886cdeae66253f76b5be8870371c691fc6998bd341d5816040516112e691815260200190565b60405180910390a1979650505050505050565b611301611f3a565b610f92816122f8565b5f818152600460205260408120805460ff600160f01b8204811691600160f81b900416811561133e57506007949350505050565b801561134f57506002949350505050565b5f61135986611114565b9050805f0361138357604051636ad0607560e01b8152600481018790526024015b60405180910390fd5b5f61138c611bd1565b65ffffffffffff1690508082106113a957505f9695505050505050565b5f6113b388611c9e565b90508181106113ca57506001979650505050505050565b6113d38861235e565b15806113f257505f888152600960205260409020805460019091015411155b1561140557506003979650505050505050565b5f8881526004602052604090206001015465ffffffffffff165f0361143257506004979650505050505050565b506005979650505050505050565b5f8061144e86868686611c7e565b905061145d81610fc25f612037565b505f818152600460205260409020546001600160a01b031633146114965760405163233d98e360e01b815233600482015260240161137a565b6114a286868686612394565b9695505050505050565b5f818152600960205260408120805460019091015411610ee9565b60607f00000000000000000000000000000000000000000000000000000000000000006001600160a01b0316634bf5d7e96040518163ffffffff1660e01b81526004015f60405180830381865afa92505050801561154657506040513d5f823e601f3d908101601f191682016040526115439190810190614129565b60015b611582575060408051808201909152601d81527f6d6f64653d626c6f636b6e756d6265722666726f6d3d64656661756c74000000602082015290565b919050565b5f610ee982612443565b5f6115d18484848080601f0160208091040260200160405190810160405280939291908181526020018383808284375f9201919091525061246f92505050565b949350505050565b5f803390506115d184828560405180602001604052805f8152506124f3565b5f806116bc876116b67f3e83946653575f9a39005e1545185629e92736b7528ab20ca3816f315424a8118c8c8c61162e8e6121f9565b8d8d60405161163e929190614191565b60405180910390208c8051906020012060405160200161169b9796959493929190968752602087019590955260ff9390931660408601526001600160a01b03919091166060850152608084015260a083015260c082015260e00190565b60405160208183030381529060405280519060200120612443565b85612514565b9050806116e7576040516394ab6c0760e01b81526001600160a01b038816600482015260240161137a565b61172a89888a89898080601f0160208091040260200160405190810160405280939291908181526020018383808284375f920191909152508b925061221b915050565b9998505050505050505050565b6060610f9f60408051602081019091525f815290565b5f6117fd8a8a808060200260200160405190810160405280939291908181526020018383602002808284375f9201919091525050604080516020808e0282810182019093528d82529093508d92508c9182918501908490808284375f920191909152506117c092508a91508b905061411d565b87878080601f0160208091040260200160405190810160405280939291908181526020018383808284375f92019190915250899250612584915050565b90507f42716af29aa8f33be8115e9e3188a11f6a7e7d5be696f229f0762e50b2a8bda78160405161183091815260200190565b60405180910390a19998505050505050505050565b5f8033905061188d87828888888080601f0160208091040260200160405190810160405280939291908181526020018383808284375f920191909152508a925061221b915050565b979650505050505050565b5f610f9f6127a7565b5f61191a8888808060200260200160405190810160405280939291908181526020018383602002808284375f9201919091525050604080516020808c0282810182019093528b82529093508b92508a9182918501908490808284375f92019190915250611914925088915089905061411d565b85612394565b90507f1e0d283ef767dcb5f9efcfe0fbcac2701275d0c54fc3493502558dc018cc3ba2816040516112e691815260200190565b61195782826128d0565b5050565b5f61199d86868686868080601f0160208091040260200160405190810160405280939291908181526020018383808284375f920191909152506124f392505050565b90507fdbf058c917126a478393ed3aa13dcdc461cc19db88c176507846e6f69ca627f98160405161110391815260200190565b6119d8611f3a565b610f9281612913565b5f803390506114a286828787878080601f0160208091040260200160405190810160405280939291908181526020018383808284375f920191909152506124f392505050565b5f33611a33818461246f565b611a5b5760405163d9b3955760e01b81526001600160a01b038216600482015260240161137a565b5f611a64611c94565b90508015611ad0575f611a92836001611a7b611bd1565b611a8591906141b4565b65ffffffffffff16611e43565b905081811015611ace57604051636121770b60e11b81526001600160a01b0384166004820152602481018290526044810183905260640161137a565b505b61188d8787878786612584565b5f6060805f805f6060611aee61200b565b611af6612096565b604080515f80825260208201909252600f60f81b9b939a50919850469750309650945092509050565b5f80611b8c846116b67ff2aad550cf55f045cb27e9c559f9889fdfb6e6cdaa032301d6ea397784ae51d7898989611b558b6121f9565b60408051602081019690965285019390935260ff90911660608401526001600160a01b0316608083015260a082015260c00161169b565b905080611bb7576040516394ab6c0760e01b81526001600160a01b038516600482015260240161137a565b6114a286858760405180602001604052805f8152506124f3565b5f7f00000000000000000000000000000000000000000000000000000000000000006001600160a01b03166391ddadf46040518163ffffffff1660e01b8152600401602060405180830381865afa925050508015611c4c575060408051601f3d908101601f19168201909252611c49918101906141da565b60015b61158257610f9f612979565b5f6115d1848484612983565b9392505050565b610f9281612a16565b5f610ee982612037565b5f611c8b85858585611dac565b95945050505050565b5f610f9f60075490565b5f610ee982612a1f565b5f611ceb8787878787878080601f0160208091040260200160405190810160405280939291908181526020018383808284375f92019190915250612a4792505050565b90507fa17eff957f965c6ee26364f81c85c7f8c62294b8ae4ea17224d2ed00a9c882ae81604051611d1e91815260200190565b60405180910390a19695505050505050565b611d38611f3a565b5f80856001600160a01b0316858585604051611d55929190614191565b5f6040518083038185875af1925050503d805f8114611d8f576040519150601f19603f3d011682016040523d82523d5f602084013e611d94565b606091505b5091509150611da38282612b43565b50505050505050565b5f84848484604051602001611dc49493929190614285565b60408051601f19818403018152919052805160209091012095945050505050565b5f611c8b858585858080601f0160208091040260200160405190810160405280939291908181526020018383808284375f9201919091525061298392505050565b5f610ee98261235e565b5f611c648383612059565b610f89611f3a565b5f611c648383611e5d60408051602081019091525f815290565b612983565b611e6a611f3a565b610f9281612b5f565b5f611ef0898989808060200260200160405190810160405280939291908181526020018383602002808284375f9201919091525050604080516020808d0282810182019093528c82529093508c92508b9182918501908490808284375f92019190915250611ee792508991508a905061411d565b505f9392505050565b60405165ffffffffffff821681529091507fc7d48239722ab43f0d322d3bc5b9c80a10ed2b31ea774b6ac0852b9fdbd41fd09060200160405180910390a198975050505050505050565b303314610ef7576040516347096e4760e01b815233600482015260240161137a565b80611f676005612ba0565b03611f5c5750565b8063ffffffff165f03611f975760405163f1cfbf0560e01b81525f600482015260240161137a565b6008546040805163ffffffff600160301b9093048316815291831660208301527f7e3f7f0708a84de9203036abaa450dccc85ad5ff52f78c170f3edb55cf5e8828910160405180910390a16008805463ffffffff909216600160301b0269ffffffff00000000000019909216919091179055565b6060610f9f7f00000000000000000000000000000000000000000000000000000000000000005f612c0d565b5f81600781111561204a5761204a6138ba565b600160ff919091161b92915050565b5f806120648461130a565b90505f8361207183612037565b1603611c64578381846040516331b75e4d60e01b815260040161137a939291906142cf565b6060610f9f7f00000000000000000000000000000000000000000000000000000000000000006001612c0d565b81546001600160801b03600160801b8204811691811660018301909116036120ef576120ef6041612cb6565b6001600160801b038082165f90815260018086016020526040909120939093558354919092018216600160801b029116179055565b5f5b84518110156121f1575f8086838151811061214357612143614109565b60200260200101516001600160a01b031686848151811061216657612166614109565b602002602001015186858151811061218057612180614109565b602002602001015160405161219591906142f1565b5f6040518083038185875af1925050503d805f81146121cf576040519150601f19603f3d011682016040523d82523d5f602084013e6121d4565b606091505b50915091506121e38282612b43565b505050806001019050612126565b505050505050565b6001600160a01b03165f90815260026020526040902080546001810190915590565b5f61222a86610fc26001612037565b505f61223f8661223989611114565b85612983565b90505f61224f8888888588612a47565b905083515f036122a557866001600160a01b03167fb8e138887d0aa13bab447e82de9d5c1777041ecd21ca36ba824ff1e6c07ddda489888489604051612298949392919061430c565b60405180910390a26122ef565b866001600160a01b03167fe2babfbac5889a709b63bb7f598b324e08bc5a4fb9ec647fb3cbc9ec07eb871289888489896040516122e6959493929190614333565b60405180910390a25b61188d88612a16565b600a546040805165ffffffffffff928316815291831660208301527f7ca4ac117ed3cdce75c1161d8207c440389b1a15d69d096831664657c07dafc2910160405180910390a1600a805465ffffffffffff191665ffffffffffff92909216919091179055565b5f8181526009602052604081206002810154600182015461237f9190614378565b61238b610e2b85611114565b11159392505050565b5f806123a286868686611c7e565b90506123f0816123b26007612037565b6123bc6006612037565b6123c66002612037565b60016123d360078261438b565b6123de906002614484565b6123e89190614492565b181818612059565b505f818152600460205260409081902080546001600160f81b0316600160f81b179055517f789cf55be980739dad1d0699b93b58e806b51c9d96619bfa8fe0a28abaa7b30c906111039083815260200190565b5f610ee961244f6127a7565b8360405161190160f01b8152600281019290925260228201526042902090565b80515f906034811015612486576001915050610ee9565b60131981840101516001600160b01b03198116692370726f706f7365723d60b01b146124b757600192505050610ee9565b5f806124c786602a860386612cc7565b9150915081158061188d5750866001600160a01b0316816001600160a01b031614979650505050505050565b5f611c8b8585858561250f60408051602081019091525f815290565b61221b565b5f836001600160a01b03163b5f03612572575f806125328585612d74565b5090925090505f81600381111561254b5761254b6138ba565b1480156125695750856001600160a01b0316826001600160a01b0316145b92505050611c64565b61257d848484612dbd565b9050611c64565b5f6125988686868680519060200120611c7e565b9050845186511415806125ad57508351865114155b806125b757508551155b156125ec57855184518651604051630447b05d60e41b815260048101939093526024830191909152604482015260640161137a565b5f81815260046020526040902054600160a01b900465ffffffffffff161561263557806126188261130a565b6040516331b75e4d60e01b815261137a9291905f906004016142cf565b5f61264760085465ffffffffffff1690565b61264f611bd1565b65ffffffffffff166126619190614378565b90505f61267b60085463ffffffff600160301b9091041690565b5f84815260046020526040902080546001600160a01b0319166001600160a01b0387161781559091506126ad83612e93565b815465ffffffffffff91909116600160a01b0265ffffffffffff60a01b199091161781556126da82612ec9565b815463ffffffff91909116600160d01b0263ffffffff60d01b1990911617815588517f7d84a6263ae0d98d3329bd7b46bb4e8d6f98cd35a7adb45c274c8b7fd5ebd5e090859087908c908c906001600160401b0381111561273d5761273d613382565b60405190808252806020026020018201604052801561277057816020015b606081526020019060019003908161275b5790505b508c8961277d8a82614378565b8e604051612793999897969594939291906144a5565b60405180910390a150505095945050505050565b5f306001600160a01b037f0000000000000000000000000000000000000000000000000000000000000000161480156127ff57507f000000000000000000000000000000000000000000000000000000000000000046145b1561282957507f000000000000000000000000000000000000000000000000000000000000000090565b610f9f604080517f8b73c3c69bb8fe3d512ecc4cf759cc79239f7b179b0ffacaa9a75d522b39400f60208201527f0000000000000000000000000000000000000000000000000000000000000000918101919091527f000000000000000000000000000000000000000000000000000000000000000060608201524660808201523060a08201525f9060c00160405160208183030381529060405280519060200120905090565b5f6128da836121f9565b905080821461290e576040516301d4b62360e61b81526001600160a01b03841660048201526024810182905260440161137a565b505050565b6008546040805165ffffffffffff928316815291831660208301527fc565b045403dc03c2eea82b81a0465edad9e2e7fc4d97e11421c209da93d7a93910160405180910390a16008805465ffffffffffff191665ffffffffffff92909216919091179055565b5f610f9f43612e93565b5f7f0000000000000000000000000000000000000000000000000000000000000000604051630748d63560e31b81526001600160a01b038681166004830152602482018690529190911690633a46b1a890604401602060405180830381865afa1580156129f2573d5f803e3d5ffd5b505050506040513d601f19601f820116820180604052508101906115d1919061457a565b610f9281612ef9565b5f610ee9612a2c83612fcd565b5f848152600b602052604090205465ffffffffffff1661300f565b5f8581526009602090815260408083206001600160a01b03881684526003810190925282205460ff1615612a99576040516371c6af4960e01b81526001600160a01b038716600482015260240161137a565b6001600160a01b0386165f9081526003820160205260409020805460ff1916600117905560ff8516612ae25783815f015f828254612ad79190614378565b90915550612b389050565b5f1960ff861601612b005783816001015f828254612ad79190614378565b60011960ff861601612b1f5783816002015f828254612ad79190614378565b6040516303599be160e11b815260040160405180910390fd5b509195945050505050565b606082612b5857612b538261301e565b610ee9565b5080610ee9565b60075460408051918252602082018390527fccb45da8d5717e6c4544694297c4ba5cf151d455c9bb0ed4fc7a38411bc05461910160405180910390a1600755565b80545f906001600160801b0380821691600160801b9004168103612bc857612bc86031612cb6565b6001600160801b038181165f908152600185810160205260408220805492905585546fffffffffffffffffffffffffffffffff19169301909116919091179092555090565b606060ff8314612c2757612c2083613047565b9050610ee9565b818054612c33906140d1565b80601f0160208091040260200160405190810160405280929190818152602001828054612c5f906140d1565b8015612caa5780601f10612c8157610100808354040283529160200191612caa565b820191905f5260205f20905b815481529060010190602001808311612c8d57829003601f168201915b50505050509050610ee9565b634e487b715f52806020526024601cfd5b5f808451831180612cd757508284115b15612ce657505f905080612d6c565b5f612cf2856001614378565b84118015612d1a575061060f60f31b612d0e8787016020015190565b6001600160f01b031916145b90505f612d2a8215156002614591565b612d35906028614378565b905080612d428787614492565b03612d63575f80612d54898989613084565b9096509450612d6c9350505050565b5f809350935050505b935093915050565b5f805f8351604103612dab576020840151604085015160608601515f1a612d9d88828585613145565b955095509550505050612db6565b505081515f91506002905b9250925092565b5f805f856001600160a01b03168585604051602401612ddd9291906145a8565b60408051601f198184030181529181526020820180516001600160e01b0316630b135d3f60e11b17905251612e1291906142f1565b5f60405180830381855afa9150503d805f8114612e4a576040519150601f19603f3d011682016040523d82523d5f602084013e612e4f565b606091505b5091509150818015612e6357506020815110155b80156114a257508051630b135d3f60e11b90612e88908301602090810190840161457a565b149695505050505050565b5f65ffffffffffff821115612ec5576040516306dfcc6560e41b8152603060048201526024810183905260440161137a565b5090565b5f63ffffffff821115612ec5576040516306dfcc6560e41b8152602060048201526024810183905260440161137a565b5f818152600b602052604090205465ffffffffffff16158015612f205750612f208161235e565b15610f92575f612f37600a5465ffffffffffff1690565b612f3f611bd1565b612f4991906145c0565b9050612f5482611c9e565b8165ffffffffffff161115612fa15760405165ffffffffffff8216815282907f541f725fb9f7c98a30cc9c0ff32fbb14358cd7159c847a3aa20a2bdc442ba5119060200160405180910390a25b5f918252600b6020526040909120805465ffffffffffff191665ffffffffffff92909216919091179055565b5f8181526004602052604081205461300190600160d01b810463ffffffff1690600160a01b900465ffffffffffff166145c0565b65ffffffffffff1692915050565b5f828218828411028218611c64565b80511561302e5780518082602001fd5b60405163d6bda27560e01b815260040160405180910390fd5b60605f6130538361320d565b6040805160208082528183019092529192505f91906020820181803683375050509182525060208101929092525090565b5f808481613093866001614378565b851180156130bb575061060f60f31b6130af8388016020015190565b6001600160f01b031916145b90505f6130cb8215156002614591565b90505f806130d9838a614378565b90505b87811015613134575f6130fa6130f58784016020015190565b613234565b9050600f8160ff161115613119575f8097509750505050505050612d6c565b613124601084614591565b60ff9091160191506001016130dc565b506001999098509650505050505050565b5f80807f7fffffffffffffffffffffffffffffff5d576e7357a4501ddfe92f46681b20a084111561317e57505f91506003905082613203565b604080515f808252602082018084528a905260ff891692820192909252606081018790526080810186905260019060a0016020604051602081039080840390855afa1580156131cf573d5f803e3d5ffd5b5050604051601f1901519150506001600160a01b0381166131fa57505f925060019150829050613203565b92505f91508190505b9450945094915050565b5f60ff8216601f811115610ee957604051632cd44ac360e21b815260040160405180910390fd5b5f60f882901c602f8111801561324d5750603a8160ff16105b1561325b57602f1901610ee9565b60608160ff16118015613271575060678160ff16105b1561327f5760561901610ee9565b60408160ff16118015613295575060478160ff16105b156132a35760361901610ee9565b5060ff92915050565b5f602082840312156132bc575f80fd5b81356001600160e01b031981168114611c64575f80fd5b5f5b838110156132ed5781810151838201526020016132d5565b50505f910152565b5f815180845261330c8160208601602086016132d3565b601f01601f19169290920160200192915050565b602081525f611c6460208301846132f5565b5f60208284031215613342575f80fd5b813563ffffffff81168114611c64575f80fd5b5f60208284031215613365575f80fd5b5035919050565b80356001600160a01b0381168114611582575f80fd5b634e487b7160e01b5f52604160045260245ffd5b604051601f8201601f191681016001600160401b03811182821017156133be576133be613382565b604052919050565b5f6001600160401b038211156133de576133de613382565b50601f01601f191660200190565b5f6133fe6133f9846133c6565b613396565b9050828152838383011115613411575f80fd5b828260208301375f602084830101529392505050565b5f82601f830112613436575f80fd5b611c64838335602085016133ec565b5f805f8060808587031215613458575f80fd5b6134618561336c565b935061346f6020860161336c565b92506040850135915060608501356001600160401b03811115613490575f80fd5b61349c87828801613427565b91505092959194509250565b5f6001600160401b038211156134c0576134c0613382565b5060051b60200190565b5f82601f8301126134d9575f80fd5b813560206134e96133f9836134a8565b8083825260208201915060208460051b87010193508684111561350a575f80fd5b602086015b8481101561352d576135208161336c565b835291830191830161350f565b509695505050505050565b5f82601f830112613547575f80fd5b813560206135576133f9836134a8565b8083825260208201915060208460051b870101935086841115613578575f80fd5b602086015b8481101561352d578035835291830191830161357d565b5f6135a16133f9846134a8565b8381529050602080820190600585901b8401868111156135bf575f80fd5b845b818110156135f85780356001600160401b038111156135de575f80fd5b6135ea89828901613427565b8552509282019282016135c1565b505050509392505050565b5f82601f830112613612575f80fd5b611c6483833560208501613594565b5f805f8060808587031215613634575f80fd5b84356001600160401b038082111561364a575f80fd5b613656888389016134ca565b9550602087013591508082111561366b575f80fd5b61367788838901613538565b9450604087013591508082111561368c575f80fd5b5061369987828801613603565b949793965093946060013593505050565b5f602082840312156136ba575f80fd5b611c648261336c565b5f8083601f8401126136d3575f80fd5b5081356001600160401b038111156136e9575f80fd5b6020830191508360208260051b8501011115613703575f80fd5b9250929050565b5f805f805f805f8060a0898b031215613721575f80fd5b8835975060208901356001600160401b038082111561373e575f80fd5b61374a8c838d016136c3565b909950975060408b0135915080821115613762575f80fd5b61376e8c838d016136c3565b909750955060608b0135915080821115613786575f80fd5b506137938b828c016136c3565b999c989b50969995989497949560800135949350505050565b803560ff81168114611582575f80fd5b5f8083601f8401126137cc575f80fd5b5081356001600160401b038111156137e2575f80fd5b602083019150836020828501011115613703575f80fd5b5f805f805f805f60a0888a03121561380f575f80fd5b8735965061381f6020890161336c565b955061382d604089016137ac565b945060608801356001600160401b0380821115613848575f80fd5b6138548b838c016137bc565b909650945060808a013591508082111561386c575f80fd5b506138798a828b016137bc565b989b979a50959850939692959293505050565b65ffffffffffff81168114610f92575f80fd5b5f602082840312156138af575f80fd5b8135611c648161388c565b634e487b7160e01b5f52602160045260245ffd5b600881106138ea57634e487b7160e01b5f52602160045260245ffd5b9052565b60208101610ee982846138ce565b5f806040838503121561390d575f80fd5b8235915061391d6020840161336c565b90509250929050565b5f805f60408486031215613938575f80fd5b6139418461336c565b925060208401356001600160401b0381111561395b575f80fd5b613967868287016137bc565b9497909650939450505050565b5f8060408385031215613985575f80fd5b8235915061391d602084016137ac565b5f805f805f805f60c0888a0312156139ab575f80fd5b873596506139bb602089016137ac565b95506139c96040890161336c565b945060608801356001600160401b03808211156139e4575f80fd5b6139f08b838c016137bc565b909650945060808a0135915080821115613a08575f80fd5b613a148b838c01613427565b935060a08a0135915080821115613a29575f80fd5b50613a368a828b01613427565b91505092959891949750929550565b5f805f805f805f805f60a08a8c031215613a5d575f80fd5b89356001600160401b0380821115613a73575f80fd5b613a7f8d838e016136c3565b909b50995060208c0135915080821115613a97575f80fd5b613aa38d838e016136c3565b909950975060408c0135915080821115613abb575f80fd5b613ac78d838e016136c3565b909750955060608c0135915080821115613adf575f80fd5b50613aec8c828d016137bc565b9094509250613aff905060808b0161336c565b90509295985092959850929598565b5f805f805f60808688031215613b22575f80fd5b85359450613b32602087016137ac565b935060408601356001600160401b0380821115613b4d575f80fd5b613b5989838a016137bc565b90955093506060880135915080821115613b71575f80fd5b50613b7e88828901613427565b9150509295509295909350565b5f805f805f805f6080888a031215613ba1575f80fd5b87356001600160401b0380821115613bb7575f80fd5b613bc38b838c016136c3565b909950975060208a0135915080821115613bdb575f80fd5b613be78b838c016136c3565b909750955060408a0135915080821115613bff575f80fd5b50613c0c8a828b016136c3565b989b979a50959894979596606090950135949350505050565b5f8060408385031215613c36575f80fd5b613c3f8361336c565b946020939093013593505050565b5f805f805f60808688031215613c61575f80fd5b85359450613c716020870161336c565b9350613c7f604087016137ac565b925060608601356001600160401b03811115613c99575f80fd5b613ca5888289016137bc565b969995985093965092949392505050565b5f805f8060608587031215613cc9575f80fd5b84359350613cd9602086016137ac565b925060408501356001600160401b03811115613cf3575f80fd5b613cff878288016137bc565b95989497509550505050565b5f805f8060808587031215613d1e575f80fd5b84356001600160401b0380821115613d34575f80fd5b613d40888389016134ca565b95506020870135915080821115613d55575f80fd5b613d6188838901613538565b94506040870135915080821115613d76575f80fd5b613d8288838901613603565b93506060870135915080821115613d97575f80fd5b508501601f81018713613da8575f80fd5b61349c878235602084016133ec565b5f815180845260208085019450602084015f5b83811015613de657815187529582019590820190600101613dca565b509495945050505050565b60ff60f81b8816815260e060208201525f613e0f60e08301896132f5565b8281036040840152613e2181896132f5565b606084018890526001600160a01b038716608085015260a0840186905283810360c08501529050613e528185613db7565b9a9950505050505050505050565b5f805f8060808587031215613e73575f80fd5b84359350613e83602086016137ac565b9250613e916040860161336c565b915060608501356001600160401b03811115613490575f80fd5b5f805f60608486031215613ebd575f80fd5b613ec68461336c565b92506020840135915060408401356001600160401b03811115613ee7575f80fd5b613ef386828701613427565b9150509250925092565b5f60208284031215613f0d575f80fd5b813560088110611c64575f80fd5b5f805f805f60a08688031215613f2f575f80fd5b613f388661336c565b9450613f466020870161336c565b935060408601356001600160401b0380821115613f61575f80fd5b613f6d89838a01613538565b94506060880135915080821115613f82575f80fd5b613f8e89838a01613538565b93506080880135915080821115613b71575f80fd5b5f805f805f8060a08789031215613fb8575f80fd5b86359550613fc86020880161336c565b9450613fd6604088016137ac565b93506060870135925060808701356001600160401b03811115613ff7575f80fd5b61400389828a016137bc565b979a9699509497509295939492505050565b5f805f8060608587031215614028575f80fd5b6140318561336c565b93506020850135925060408501356001600160401b03811115613cf3575f80fd5b5f8060408385031215614063575f80fd5b50508035926020909101359150565b5f805f805f60a08688031215614086575f80fd5b61408f8661336c565b945061409d6020870161336c565b9350604086013592506060860135915060808601356001600160401b038111156140c5575f80fd5b613b7e88828901613427565b600181811c908216806140e557607f821691505b60208210810361410357634e487b7160e01b5f52602260045260245ffd5b50919050565b634e487b7160e01b5f52603260045260245ffd5b5f611c64368484613594565b5f60208284031215614139575f80fd5b81516001600160401b0381111561414e575f80fd5b8201601f8101841361415e575f80fd5b805161416c6133f9826133c6565b818152856020838501011115614180575f80fd5b611c8b8260208301602086016132d3565b818382375f9101908152919050565b634e487b7160e01b5f52601160045260245ffd5b65ffffffffffff8281168282160390808211156141d3576141d36141a0565b5092915050565b5f602082840312156141ea575f80fd5b8151611c648161388c565b5f815180845260208085019450602084015f5b83811015613de65781516001600160a01b031687529582019590820190600101614208565b5f8282518085526020808601955060208260051b840101602086015f5b8481101561427857601f198684030189526142668383516132f5565b9884019892509083019060010161424a565b5090979650505050505050565b608081525f61429760808301876141f5565b82810360208401526142a98187613db7565b905082810360408401526142bd818661422d565b91505082606083015295945050505050565b838152606081016142e360208301856138ce565b826040830152949350505050565b5f82516143028184602087016132d3565b9190910192915050565b84815260ff84166020820152826040820152608060608201525f6114a260808301846132f5565b85815260ff8516602082015283604082015260a060608201525f61435a60a08301856132f5565b828103608084015261436c81856132f5565b98975050505050505050565b80820180821115610ee957610ee96141a0565b60ff8181168382160190811115610ee957610ee96141a0565b600181815b808511156143de57815f19048211156143c4576143c46141a0565b808516156143d157918102915b93841c93908002906143a9565b509250929050565b5f826143f457506001610ee9565b8161440057505f610ee9565b816001811461441657600281146144205761443c565b6001915050610ee9565b60ff841115614431576144316141a0565b50506001821b610ee9565b5060208310610133831016604e8410600b841016171561445f575081810a610ee9565b61446983836143a4565b805f190482111561447c5761447c6141a0565b029392505050565b5f611c6460ff8416836143e6565b81810381811115610ee957610ee96141a0565b5f6101208b8352602060018060a01b038c16818501528160408501526144cd8285018c6141f5565b915083820360608501526144e1828b613db7565b915083820360808501528189518084528284019150828160051b850101838c015f5b8381101561453157601f1987840301855261451f8383516132f5565b94860194925090850190600101614503565b505086810360a0880152614545818c61422d565b9450505050508560c08401528460e084015282810361010084015261456a81856132f5565b9c9b505050505050505050505050565b5f6020828403121561458a575f80fd5b5051919050565b8082028115828204841417610ee957610ee96141a0565b828152604060208201525f6115d160408301846132f5565b65ffffffffffff8181168382160190808211156141d3576141d36141a056fea2646970667358221220e3b82b5128e80391bd9b596e3b8ff348c763a30b2412e410b8b52ab578f1086264736f6c63430008180033",
  "linkReferences": {},
  "deployedLinkReferences": {}
}