{
  "_format": "hh-sol-artifact-1",
  "contractName": "$TimelockController",
  "sourceName": "contracts-exposed/governance/TimelockController.sol",
  "abi": [
    {
      "inputs": [
        {
          "internalType": "uint256",
          "name": "minDelay",
          "type": "uint256"
        },
        {
          "internalType": "address[]",
          "name": "proposers",
          "type": "address[]"
        },
        {
          "internalType": "address[]",
          "name": "executors",
          "type": "address[]"
        },
        {
          "internalType": "address",
          "name": "admin",
          "type": "address"
        }
      ],
      "stateMutability": "payable",
      "type": "constructor"
    },
    {
      "inputs": [],
      "name": "AccessControlBadConfirmation",
      "type": "error"
    },
    {
      "inputs": [
        {
          "internalType": "address",
          "name": "account",
          "type": "address"
        },
        {
          "internalType": "bytes32",
          "name": "neededRole",
          "type": "bytes32"
        }
      ],
      "name": "AccessControlUnauthorizedAccount",
      "type": "error"
    },
    {
      "inputs": [],
      "name": "FailedCall",
      "type": "error"
    },
    {
      "inputs": [
        {
          "internalType": "uint256",
          "name": "delay",
          "type": "uint256"
        },
        {
          "internalType": "uint256",
          "name": "minDelay",
          "type": "uint256"
        }
      ],
      "name": "TimelockInsufficientDelay",
      "type": "error"
    },
    {
      "inputs": [
        {
          "internalType": "uint256",
          "name": "targets",
          "type": "uint256"
        },
        {
          "internalType": "uint256",
          "name": "payloads",
          "type": "uint256"
        },
        {
          "internalType": "uint256",
          "name": "values",
          "type": "uint256"
        }
      ],
      "name": "TimelockInvalidOperationLength",
      "type": "error"
    },
    {
      "inputs": [
        {
          "internalType": "address",
          "name": "caller",
          "type": "address"
        }
      ],
      "name": "TimelockUnauthorizedCaller",
      "type": "error"
    },
    {
      "inputs": [
        {
          "internalType": "bytes32",
          "name": "predecessorId",
          "type": "bytes32"
        }
      ],
      "name": "TimelockUnexecutedPredecessor",
      "type": "error"
    },
    {
      "inputs": [
        {
          "internalType": "bytes32",
          "name": "operationId",
          "type": "bytes32"
        },
        {
          "internalType": "bytes32",
          "name": "expectedStates",
          "type": "bytes32"
        }
      ],
      "name": "TimelockUnexpectedOperationState",
      "type": "error"
    },
    {
      "anonymous": false,
      "inputs": [
        {
          "indexed": true,
          "internalType": "bytes32",
          "name": "id",
          "type": "bytes32"
        },
        {
          "indexed": true,
          "internalType": "uint256",
          "name": "index",
          "type": "uint256"
        },
        {
          "indexed": false,
          "internalType": "address",
          "name": "target",
          "type": "address"
        },
        {
          "indexed": false,
          "internalType": "uint256",
          "name": "value",
          "type": "uint256"
        },
        {
          "indexed": false,
          "internalType": "bytes",
          "name": "data",
          "type": "bytes"
        }
      ],
      "name": "CallExecuted",
      "type": "event"
    },
    {
      "anonymous": false,
      "inputs": [
        {
          "indexed": true,
          "internalType": "bytes32",
          "name": "id",
          "type": "bytes32"
        },
        {
          "indexed": false,
          "internalType": "bytes32",
          "name": "salt",
          "type": "bytes32"
        }
      ],
      "name": "CallSalt",
      "type": "event"
    },
    {
      "anonymous": false,
      "inputs": [
        {
          "indexed": true,
          "internalType": "bytes32",
          "name": "id",
          "type": "bytes32"
        },
        {
          "indexed": true,
          "internalType": "uint256",
          "name": "index",
          "type": "uint256"
        },
        {
          "indexed": false,
          "internalType": "address",
          "name": "target",
          "type": "address"
        },
        {
          "indexed": false,
          "internalType": "uint256",
          "name": "value",
          "type": "uint256"
        },
        {
          "indexed": false,
          "internalType": "bytes",
          "name": "data",
          "type": "bytes"
        },
        {
          "indexed": false,
          "internalType": "bytes32",
          "name": "predecessor",
          "type": "bytes32"
        },
        {
          "indexed": false,
          "internalType": "uint256",
          "name": "delay",
          "type": "uint256"
        }
      ],
      "name": "CallScheduled",
      "type": "event"
    },
    {
      "anonymous": false,
      "inputs": [
        {
          "indexed": true,
          "internalType": "bytes32",
          "name": "id",
          "type": "bytes32"
        }
      ],
      "name": "Cancelled",
      "type": "event"
    },
    {
      "anonymous": false,
      "inputs": [
        {
          "indexed": false,
          "internalType": "uint256",
          "name": "oldDuration",
          "type": "uint256"
        },
        {
          "indexed": false,
          "internalType": "uint256",
          "name": "newDuration",
          "type": "uint256"
        }
      ],
      "name": "MinDelayChange",
      "type": "event"
    },
    {
      "anonymous": false,
      "inputs": [
        {
          "indexed": true,
          "internalType": "bytes32",
          "name": "role",
          "type": "bytes32"
        },
        {
          "indexed": true,
          "internalType": "bytes32",
          "name": "previousAdminRole",
          "type": "bytes32"
        },
        {
          "indexed": true,
          "internalType": "bytes32",
          "name": "newAdminRole",
          "type": "bytes32"
        }
      ],
      "name": "RoleAdminChanged",
      "type": "event"
    },
    {
      "anonymous": false,
      "inputs": [
        {
          "indexed": true,
          "internalType": "bytes32",
          "name": "role",
          "type": "bytes32"
        },
        {
          "indexed": true,
          "internalType": "address",
          "name": "account",
          "type": "address"
        },
        {
          "indexed": true,
          "internalType": "address",
          "name": "sender",
          "type": "address"
        }
      ],
      "name": "RoleGranted",
      "type": "event"
    },
    {
      "anonymous": false,
      "inputs": [
        {
          "indexed": true,
          "internalType": "bytes32",
          "name": "role",
          "type": "bytes32"
        },
        {
          "indexed": true,
          "internalType": "address",
          "name": "account",
          "type": "address"
        },
        {
          "indexed": true,
          "internalType": "address",
          "name": "sender",
          "type": "address"
        }
      ],
      "name": "RoleRevoked",
      "type": "event"
    },
    {
      "anonymous": false,
      "inputs": [
        {
          "indexed": false,
          "internalType": "bool",
          "name": "ret0",
          "type": "bool"
        }
      ],
      "name": "return$_grantRole",
      "type": "event"
    },
    {
      "anonymous": false,
      "inputs": [
        {
          "indexed": false,
          "internalType": "bool",
          "name": "ret0",
          "type": "bool"
        }
      ],
      "name": "return$_revokeRole",
      "type": "event"
    },
    {
      "inputs": [],
      "name": "$_DONE_TIMESTAMP",
      "outputs": [
        {
          "internalType": "uint256",
          "name": "",
          "type": "uint256"
        }
      ],
      "stateMutability": "pure",
      "type": "function"
    },
    {
      "inputs": [
        {
          "internalType": "bytes32",
          "name": "role",
          "type": "bytes32"
        },
        {
          "internalType": "address",
          "name": "account",
          "type": "address"
        }
      ],
      "name": "$_checkRole",
      "outputs": [],
      "stateMutability": "view",
      "type": "function"
    },
    {
      "inputs": [
        {
          "internalType": "bytes32",
          "name": "role",
          "type": "bytes32"
        }
      ],
      "name": "$_checkRole",
      "outputs": [],
      "stateMutability": "view",
      "type": "function"
    },
    {
      "inputs": [],
      "name": "$_contextSuffixLength",
      "outputs": [
        {
          "internalType": "uint256",
          "name": "ret0",
          "type": "uint256"
        }
      ],
      "stateMutability": "view",
      "type": "function"
    },
    {
      "inputs": [
        {
          "internalType": "enum TimelockController.OperationState",
          "name": "operationState",
          "type": "uint8"
        }
      ],
      "name": "$_encodeStateBitmap",
      "outputs": [
        {
          "internalType": "bytes32",
          "name": "ret0",
          "type": "bytes32"
        }
      ],
      "stateMutability": "pure",
      "type": "function"
    },
    {
      "inputs": [
        {
          "internalType": "address",
          "name": "target",
          "type": "address"
        },
        {
          "internalType": "uint256",
          "name": "value",
          "type": "uint256"
        },
        {
          "internalType": "bytes",
          "name": "data",
          "type": "bytes"
        }
      ],
      "name": "$_execute",
      "outputs": [],
      "stateMutability": "nonpayable",
      "type": "function"
    },
    {
      "inputs": [
        {
          "internalType": "bytes32",
          "name": "role",
          "type": "bytes32"
        },
        {
          "internalType": "address",
          "name": "account",
          "type": "address"
        }
      ],
      "name": "$_grantRole",
      "outputs": [
        {
          "internalType": "bool",
          "name": "ret0",
          "type": "bool"
        }
      ],
      "stateMutability": "nonpayable",
      "type": "function"
    },
    {
      "inputs": [],
      "name": "$_msgData",
      "outputs": [
        {
          "internalType": "bytes",
          "name": "ret0",
          "type": "bytes"
        }
      ],
      "stateMutability": "view",
      "type": "function"
    },
    {
      "inputs": [],
      "name": "$_msgSender",
      "outputs": [
        {
          "internalType": "address",
          "name": "ret0",
          "type": "address"
        }
      ],
      "stateMutability": "view",
      "type": "function"
    },
    {
      "inputs": [
        {
          "internalType": "bytes32",
          "name": "role",
          "type": "bytes32"
        },
        {
          "internalType": "address",
          "name": "account",
          "type": "address"
        }
      ],
      "name": "$_revokeRole",
      "outputs": [
        {
          "internalType": "bool",
          "name": "ret0",
          "type": "bool"
        }
      ],
      "stateMutability": "nonpayable",
      "type": "function"
    },
    {
      "inputs": [
        {
          "internalType": "bytes32",
          "name": "role",
          "type": "bytes32"
        },
        {
          "internalType": "bytes32",
          "name": "adminRole",
          "type": "bytes32"
        }
      ],
      "name": "$_setRoleAdmin",
      "outputs": [],
      "stateMutability": "nonpayable",
      "type": "function"
    },
    {
      "inputs": [],
      "name": "CANCELLER_ROLE",
      "outputs": [
        {
          "internalType": "bytes32",
          "name": "",
          "type": "bytes32"
        }
      ],
      "stateMutability": "view",
      "type": "function"
    },
    {
      "inputs": [],
      "name": "DEFAULT_ADMIN_ROLE",
      "outputs": [
        {
          "internalType": "bytes32",
          "name": "",
          "type": "bytes32"
        }
      ],
      "stateMutability": "view",
      "type": "function"
    },
    {
      "inputs": [],
      "name": "EXECUTOR_ROLE",
      "outputs": [
        {
          "internalType": "bytes32",
          "name": "",
          "type": "bytes32"
        }
      ],
      "stateMutability": "view",
      "type": "function"
    },
    {
      "inputs": [],
      "name": "PROPOSER_ROLE",
      "outputs": [
        {
          "internalType": "bytes32",
          "name": "",
          "type": "bytes32"
        }
      ],
      "stateMutability": "view",
      "type": "function"
    },
    {
      "inputs": [],
      "name": "__hh_exposed_bytecode_marker",
      "outputs": [
        {
          "internalType": "bytes32",
          "name": "",
          "type": "bytes32"
        }
      ],
      "stateMutability": "view",
      "type": "function"
    },
    {
      "inputs": [
        {
          "internalType": "bytes32",
          "name": "id",
          "type": "bytes32"
        }
      ],
      "name": "cancel",
      "outputs": [],
      "stateMutability": "nonpayable",
      "type": "function"
    },
    {
      "inputs": [
        {
          "internalType": "address",
          "name": "target",
          "type": "address"
        },
        {
          "internalType": "uint256",
          "name": "value",
          "type": "uint256"
        },
        {
          "internalType": "bytes",
          "name": "payload",
          "type": "bytes"
        },
        {
          "internalType": "bytes32",
          "name": "predecessor",
          "type": "bytes32"
        },
        {
          "internalType": "bytes32",
          "name": "salt",
          "type": "bytes32"
        }
      ],
      "name": "execute",
      "outputs": [],
      "stateMutability": "payable",
      "type": "function"
    },
    {
      "inputs": [
        {
          "internalType": "address[]",
          "name": "targets",
          "type": "address[]"
        },
        {
          "internalType": "uint256[]",
          "name": "values",
          "type": "uint256[]"
        },
        {
          "internalType": "bytes[]",
          "name": "payloads",
          "type": "bytes[]"
        },
        {
          "internalType": "bytes32",
          "name": "predecessor",
          "type": "bytes32"
        },
        {
          "internalType": "bytes32",
          "name": "salt",
          "type": "bytes32"
        }
      ],
      "name": "executeBatch",
      "outputs": [],
      "stateMutability": "payable",
      "type": "function"
    },
    {
      "inputs": [],
      "name": "getMinDelay",
      "outputs": [
        {
          "internalType": "uint256",
          "name": "",
          "type": "uint256"
        }
      ],
      "stateMutability": "view",
      "type": "function"
    },
    {
      "inputs": [
        {
          "internalType": "bytes32",
          "name": "id",
          "type": "bytes32"
        }
      ],
      "name": "getOperationState",
      "outputs": [
        {
          "internalType": "enum TimelockController.OperationState",
          "name": "",
          "type": "uint8"
        }
      ],
      "stateMutability": "view",
      "type": "function"
    },
    {
      "inputs": [
        {
          "internalType": "bytes32",
          "name": "role",
          "type": "bytes32"
        }
      ],
      "name": "getRoleAdmin",
      "outputs": [
        {
          "internalType": "bytes32",
          "name": "",
          "type": "bytes32"
        }
      ],
      "stateMutability": "view",
      "type": "function"
    },
    {
      "inputs": [
        {
          "internalType": "bytes32",
          "name": "id",
          "type": "bytes32"
        }
      ],
      "name": "getTimestamp",
      "outputs": [
        {
          "internalType": "uint256",
          "name": "",
          "type": "uint256"
        }
      ],
      "stateMutability": "view",
      "type": "function"
    },
    {
      "inputs": [
        {
          "internalType": "bytes32",
          "name": "role",
          "type": "bytes32"
        },
        {
          "internalType": "address",
          "name": "account",
          "type": "address"
        }
      ],
      "name": "grantRole",
      "outputs": [],
      "stateMutability": "nonpayable",
      "type": "function"
    },
    {
      "inputs": [
        {
          "internalType": "bytes32",
          "name": "role",
          "type": "bytes32"
        },
        {
          "internalType": "address",
          "name": "account",
          "type": "address"
        }
      ],
      "name": "hasRole",
      "outputs": [
        {
          "internalType": "bool",
          "name": "",
          "type": "bool"
        }
      ],
      "stateMutability": "view",
      "type": "function"
    },
    {
      "inputs": [
        {
          "internalType": "address",
          "name": "target",
          "type": "address"
        },
        {
          "internalType": "uint256",
          "name": "value",
          "type": "uint256"
        },
        {
          "internalType": "bytes",
          "name": "data",
          "type": "bytes"
        },
        {
          "internalType": "bytes32",
          "name": "predecessor",
          "type": "bytes32"
        },
        {
          "internalType": "bytes32",
          "name": "salt",
          "type": "bytes32"
        }
      ],
      "name": "hashOperation",
      "outputs": [
        {
          "internalType": "bytes32",
          "name": "",
          "type": "bytes32"
        }
      ],
      "stateMutability": "pure",
      "type": "function"
    },
    {
      "inputs": [
        {
          "internalType": "address[]",
          "name": "targets",
          "type": "address[]"
        },
        {
          "internalType": "uint256[]",
          "name": "values",
          "type": "uint256[]"
        },
        {
          "internalType": "bytes[]",
          "name": "payloads",
          "type": "bytes[]"
        },
        {
          "internalType": "bytes32",
          "name": "predecessor",
          "type": "bytes32"
        },
        {
          "internalType": "bytes32",
          "name": "salt",
          "type": "bytes32"
        }
      ],
      "name": "hashOperationBatch",
      "outputs": [
        {
          "internalType": "bytes32",
          "name": "",
          "type": "bytes32"
        }
      ],
      "stateMutability": "pure",
      "type": "function"
    },
    {
      "inputs": [
        {
          "internalType": "bytes32",
          "name": "id",
          "type": "bytes32"
        }
      ],
      "name": "isOperation",
      "outputs": [
        {
          "internalType": "bool",
          "name": "",
          "type": "bool"
        }
      ],
      "stateMutability": "view",
      "type": "function"
    },
    {
      "inputs": [
        {
          "internalType": "bytes32",
          "name": "id",
          "type": "bytes32"
        }
      ],
      "name": "isOperationDone",
      "outputs": [
        {
          "internalType": "bool",
          "name": "",
          "type": "bool"
        }
      ],
      "stateMutability": "view",
      "type": "function"
    },
    {
      "inputs": [
        {
          "internalType": "bytes32",
          "name": "id",
          "type": "bytes32"
        }
      ],
      "name": "isOperationPending",
      "outputs": [
        {
          "internalType": "bool",
          "name": "",
          "type": "bool"
        }
      ],
      "stateMutability": "view",
      "type": "function"
    },
    {
      "inputs": [
        {
          "internalType": "bytes32",
          "name": "id",
          "type": "bytes32"
        }
      ],
      "name": "isOperationReady",
      "outputs": [
        {
          "internalType": "bool",
          "name": "",
          "type": "bool"
        }
      ],
      "stateMutability": "view",
      "type": "function"
    },
    {
      "inputs": [
        {
          "internalType": "address",
          "name": "",
          "type": "address"
        },
        {
          "internalType": "address",
          "name": "",
          "type": "address"
        },
        {
          "internalType": "uint256[]",
          "name": "",
          "type": "uint256[]"
        },
        {
          "internalType": "uint256[]",
          "name": "",
          "type": "uint256[]"
        },
        {
          "internalType": "bytes",
          "name": "",
          "type": "bytes"
        }
      ],
      "name": "onERC1155BatchReceived",
      "outputs": [
        {
          "internalType": "bytes4",
          "name": "",
          "type": "bytes4"
        }
      ],
      "stateMutability": "nonpayable",
      "type": "function"
    },
    {
      "inputs": [
        {
          "internalType": "address",
          "name": "",
          "type": "address"
        },
        {
          "internalType": "address",
          "name": "",
          "type": "address"
        },
        {
          "internalType": "uint256",
          "name": "",
          "type": "uint256"
        },
        {
          "internalType": "uint256",
          "name": "",
          "type": "uint256"
        },
        {
          "internalType": "bytes",
          "name": "",
          "type": "bytes"
        }
      ],
      "name": "onERC1155Received",
      "outputs": [
        {
          "internalType": "bytes4",
          "name": "",
          "type": "bytes4"
        }
      ],
      "stateMutability": "nonpayable",
      "type": "function"
    },
    {
      "inputs": [
        {
          "internalType": "address",
          "name": "",
          "type": "address"
        },
        {
          "internalType": "address",
          "name": "",
          "type": "address"
        },
        {
          "internalType": "uint256",
          "name": "",
          "type": "uint256"
        },
        {
          "internalType": "bytes",
          "name": "",
          "type": "bytes"
        }
      ],
      "name": "onERC721Received",
      "outputs": [
        {
          "internalType": "bytes4",
          "name": "",
          "type": "bytes4"
        }
      ],
      "stateMutability": "nonpayable",
      "type": "function"
    },
    {
      "inputs": [
        {
          "internalType": "bytes32",
          "name": "role",
          "type": "bytes32"
        },
        {
          "internalType": "address",
          "name": "callerConfirmation",
          "type": "address"
        }
      ],
      "name": "renounceRole",
      "outputs": [],
      "stateMutability": "nonpayable",
      "type": "function"
    },
    {
      "inputs": [
        {
          "internalType": "bytes32",
          "name": "role",
          "type": "bytes32"
        },
        {
          "internalType": "address",
          "name": "account",
          "type": "address"
        }
      ],
      "name": "revokeRole",
      "outputs": [],
      "stateMutability": "nonpayable",
      "type": "function"
    },
    {
      "inputs": [
        {
          "internalType": "address",
          "name": "target",
          "type": "address"
        },
        {
          "internalType": "uint256",
          "name": "value",
          "type": "uint256"
        },
        {
          "internalType": "bytes",
          "name": "data",
          "type": "bytes"
        },
        {
          "internalType": "bytes32",
          "name": "predecessor",
          "type": "bytes32"
        },
        {
          "internalType": "bytes32",
          "name": "salt",
          "type": "bytes32"
        },
        {
          "internalType": "uint256",
          "name": "delay",
          "type": "uint256"
        }
      ],
      "name": "schedule",
      "outputs": [],
      "stateMutability": "nonpayable",
      "type": "function"
    },
    {
      "inputs": [
        {
          "internalType": "address[]",
          "name": "targets",
          "type": "address[]"
        },
        {
          "internalType": "uint256[]",
          "name": "values",
          "type": "uint256[]"
        },
        {
          "internalType": "bytes[]",
          "name": "payloads",
          "type": "bytes[]"
        },
        {
          "internalType": "bytes32",
          "name": "predecessor",
          "type": "bytes32"
        },
        {
          "internalType": "bytes32",
          "name": "salt",
          "type": "bytes32"
        },
        {
          "internalType": "uint256",
          "name": "delay",
          "type": "uint256"
        }
      ],
      "name": "scheduleBatch",
      "outputs": [],
      "stateMutability": "nonpayable",
      "type": "function"
    },
    {
      "inputs": [
        {
          "internalType": "bytes4",
          "name": "interfaceId",
          "type": "bytes4"
        }
      ],
      "name": "supportsInterface",
      "outputs": [
        {
          "internalType": "bool",
          "name": "",
          "type": "bool"
        }
      ],
      "stateMutability": "view",
      "type": "function"
    },
    {
      "inputs": [
        {
          "internalType": "uint256",
          "name": "newDelay",
          "type": "uint256"
        }
      ],
      "name": "updateDelay",
      "outputs": [],
      "stateMutability": "nonpayable",
      "type": "function"
    },
    {
      "stateMutability": "payable",
      "type": "receive"
    }
  ],
  "bytecode": "0x6080604052604051620021503803806200215083398101604081905262000026916200031b565b83838383620000365f3062000192565b506001600160a01b038116156200005557620000535f8262000192565b505b5f5b8351811015620000f457620000af7fb09aa5aeb3702cfd50b6b62bc4532604938f21248a27a1d5ca736082b6819cc18583815181106200009b576200009b6200039d565b60200260200101516200019260201b60201c565b50620000ea7ffd643c72710c63c0180259aba6b2d05451e3591a24e58b62239378085726f7838583815181106200009b576200009b6200039d565b5060010162000057565b505f5b825181101562000145576200013b7fd8aa0f3194971a2a116679f7c2090f6939c8d4e01a2a8d7e41d55e5351469e638483815181106200009b576200009b6200039d565b50600101620000f7565b506002849055604080515f8152602081018690527f11c24f4ead16507c69ac467fbd5e4eed5fb5c699626d2cc6d66421df253886d5910160405180910390a15050505050505050620003b1565b5f828152602081815260408083206001600160a01b038516845290915281205460ff1662000235575f838152602081815260408083206001600160a01b03861684529091529020805460ff19166001179055620001ec3390565b6001600160a01b0316826001600160a01b0316847f2f8788117e7eff1d82e926ec794901d17c78024a50270940304540a733656f0d60405160405180910390a450600162000238565b505f5b92915050565b634e487b7160e01b5f52604160045260245ffd5b80516001600160a01b038116811462000269575f80fd5b919050565b5f82601f8301126200027e575f80fd5b815160206001600160401b03808311156200029d576200029d6200023e565b8260051b604051601f19603f83011681018181108482111715620002c557620002c56200023e565b6040529384526020818701810194908101925087851115620002e5575f80fd5b6020870191505b848210156200031057620003008262000252565b83529183019190830190620002ec565b979650505050505050565b5f805f80608085870312156200032f575f80fd5b845160208601519094506001600160401b03808211156200034e575f80fd5b6200035c888389016200026e565b9450604087015191508082111562000372575f80fd5b5062000381878288016200026e565b925050620003926060860162000252565b905092959194509250565b634e487b7160e01b5f52603260045260245ffd5b611d9180620003bf5f395ff3fe608060405260043610610236575f3560e01c806364d6235311610129578063b08e51c0116100a8578063d547741f1161006d578063d547741f14610709578063d7bdcee914610728578063e38335e514610747578063f23a6e611461075a578063f27a0c9214610785575f80fd5b8063b08e51c014610642578063b1c5f42714610675578063bc197c8114610694578063c4d252f5146106bf578063d45c4435146106de575f80fd5b80638f61f4f5116100ee5780638f61f4f51461059f57806391d14854146105d257806398dd54c1146105f1578063a15697c414610610578063a217fddf1461062f575f80fd5b806364d623531461050457806367354a84146105235780637958004c146105355780638065657f146105615780638f2a0bb014610580575f80fd5b80632ab0f529116101b557806336568abe1161017a57806336568abe1461047557806341b45f71146104945780634286d2f1146104b357806351597ae2146104d2578063584b153e146104e5575f80fd5b80632ab0f529146103d25780632f2ff15d146103f157806331d507501461041057806332cadf3c1461042f578063342db73914610450575f80fd5b806313bc9f20116101fb57806313bc9f2014610309578063150b7a0214610328578063248a9ca31461036b578063270db874146103995780632904df29146103b8575f80fd5b806301d5062a1461024157806301ffc9a714610262578063036fea181461029657806307bd0265146102b5578063134008d3146102f6575f80fd5b3661023d57005b5f80fd5b34801561024c575f80fd5b5061026061025b36600461148d565b610799565b005b34801561026d575f80fd5b5061028161027c3660046114fb565b61086d565b60405190151581526020015b60405180910390f35b3480156102a1575f80fd5b506102606102b0366004611522565b61087d565b3480156102c0575f80fd5b506102e87fd8aa0f3194971a2a116679f7c2090f6939c8d4e01a2a8d7e41d55e5351469e6381565b60405190815260200161028d565b610260610304366004611577565b61088f565b348015610314575f80fd5b506102816103233660046115dd565b610941565b348015610333575f80fd5b506103526103423660046116a3565b630a85bd0160e11b949350505050565b6040516001600160e01b0319909116815260200161028d565b348015610376575f80fd5b506102e86103853660046115dd565b5f9081526020819052604090206001015490565b3480156103a4575f80fd5b506102816103b3366004611706565b610966565b3480156103c3575f80fd5b5060405133815260200161028d565b3480156103dd575f80fd5b506102816103ec3660046115dd565b6109b4565b3480156103fc575f80fd5b5061026061040b366004611706565b6109bc565b34801561041b575f80fd5b5061028161042a3660046115dd565b6109e0565b34801561043a575f80fd5b50610443610a04565b60405161028d9190611730565b34801561045b575f80fd5b506102e86e1a185c991a185d0b595e1c1bdcd959608a1b81565b348015610480575f80fd5b5061026061048f366004611706565b610a41565b34801561049f575f80fd5b506102606104ae366004611706565b610a79565b3480156104be575f80fd5b506102816104cd366004611706565b610a87565b3480156104dd575f80fd5b5060016102e8565b3480156104f0575f80fd5b506102816104ff3660046115dd565b610ac7565b34801561050f575f80fd5b5061026061051e3660046115dd565b610b0c565b34801561052e575f80fd5b505f6102e8565b348015610540575f80fd5b5061055461054f3660046115dd565b610b7f565b60405161028d9190611790565b34801561056c575f80fd5b506102e861057b366004611577565b610bc7565b34801561058b575f80fd5b5061026061059a3660046117f6565b610c05565b3480156105aa575f80fd5b506102e87fb09aa5aeb3702cfd50b6b62bc4532604938f21248a27a1d5ca736082b6819cc181565b3480156105dd575f80fd5b506102816105ec366004611706565b610d91565b3480156105fc575f80fd5b5061026061060b3660046115dd565b610db9565b34801561061b575f80fd5b506102e861062a36600461189e565b610dc5565b34801561063a575f80fd5b506102e85f81565b34801561064d575f80fd5b506102e87ffd643c72710c63c0180259aba6b2d05451e3591a24e58b62239378085726f78381565b348015610680575f80fd5b506102e861068f3660046118bc565b610dcf565b34801561069f575f80fd5b506103526106ae3660046119d8565b63bc197c8160e01b95945050505050565b3480156106ca575f80fd5b506102606106d93660046115dd565b610e13565b3480156106e9575f80fd5b506102e86106f83660046115dd565b5f9081526001602052604090205490565b348015610714575f80fd5b50610260610723366004611706565b610ebd565b348015610733575f80fd5b50610260610742366004611a7a565b610ee1565b6102606107553660046118bc565b610eeb565b348015610765575f80fd5b50610352610774366004611a9a565b63f23a6e6160e01b95945050505050565b348015610790575f80fd5b506002546102e8565b7fb09aa5aeb3702cfd50b6b62bc4532604938f21248a27a1d5ca736082b6819cc16107c38161106c565b5f6107d2898989898989610bc7565b90506107de8184611076565b5f817f4cf4410cc57040e44862ef0f45f3dd5a5e02db8eb8add648d4b0e236f1d07dca8b8b8b8b8b8a60405161081996959493929190611b21565b60405180910390a3831561086257807f20fda5fd27a1ea7bf5b9567f143ac5470bb059374a27e8f67cb44f946f6d03878560405161085991815260200190565b60405180910390a25b505050505050505050565b5f61087782611107565b92915050565b6108898484848461112b565b50505050565b7fd8aa0f3194971a2a116679f7c2090f6939c8d4e01a2a8d7e41d55e5351469e636108ba815f610d91565b6108c8576108c8813361119f565b5f6108d7888888888888610bc7565b90506108e381856111d8565b6108ef8888888861112b565b5f817fc2617efa69bab66782fa219543714338489c4e9e178271560a91b82c3f612b588a8a8a8a6040516109269493929190611b5d565b60405180910390a361093781611226565b5050505050505050565b5f60025b61094e83610b7f565b600381111561095f5761095f61177c565b1492915050565b5f6109718383611251565b90507f370ef10a740e8e7931c19225ec88cd0e2e6bd52365a53489c401385c55828733816040516109a6911515815260200190565b60405180910390a192915050565b5f6003610945565b5f828152602081905260409020600101546109d68161106c565b6108898383611251565b5f806109eb83610b7f565b60038111156109fc576109fc61177c565b141592915050565b60605f368080601f0160208091040260200160405190810160405280939291908181526020018383808284375f9201919091525092949350505050565b6001600160a01b0381163314610a6a5760405163334bd91960e11b815260040160405180910390fd5b610a7482826112e0565b505050565b610a83828261119f565b5050565b5f610a9283836112e0565b90507fe404ca92845347e354d44ac6f2449eba6681424c1f6f1d34173ac2f49c6996b3816040516109a6911515815260200190565b5f80610ad283610b7f565b90506001816003811115610ae857610ae861177c565b1480610b0557506002816003811115610b0357610b0361177c565b145b9392505050565b33308114610b3d5760405163e2850c5960e01b81526001600160a01b03821660048201526024015b60405180910390fd5b60025460408051918252602082018490527f11c24f4ead16507c69ac467fbd5e4eed5fb5c699626d2cc6d66421df253886d5910160405180910390a150600255565b5f81815260016020526040812054805f03610b9c57505f92915050565b60018103610bad5750600392915050565b42811115610bbe5750600192915050565b50600292915050565b5f868686868686604051602001610be396959493929190611b21565b6040516020818303038152906040528051906020012090509695505050505050565b7fb09aa5aeb3702cfd50b6b62bc4532604938f21248a27a1d5ca736082b6819cc1610c2f8161106c565b8887141580610c3e5750888514155b15610c70576040516001624fcdef60e01b03198152600481018a90526024810186905260448101889052606401610b34565b5f610c818b8b8b8b8b8b8b8b610dcf565b9050610c8d8184611076565b5f5b8a811015610d425780827f4cf4410cc57040e44862ef0f45f3dd5a5e02db8eb8add648d4b0e236f1d07dca8e8e85818110610ccc57610ccc611b8e565b9050602002016020810190610ce19190611ba2565b8d8d86818110610cf357610cf3611b8e565b905060200201358c8c87818110610d0c57610d0c611b8e565b9050602002810190610d1e9190611bbb565b8c8b604051610d3296959493929190611b21565b60405180910390a3600101610c8f565b508315610d8457807f20fda5fd27a1ea7bf5b9567f143ac5470bb059374a27e8f67cb44f946f6d038785604051610d7b91815260200190565b60405180910390a25b5050505050505050505050565b5f918252602082815260408084206001600160a01b0393909316845291905290205460ff1690565b610dc28161106c565b50565b5f61087782611349565b5f8888888888888888604051602001610def989796959493929190611c8e565b60405160208183030381529060405280519060200120905098975050505050505050565b7ffd643c72710c63c0180259aba6b2d05451e3591a24e58b62239378085726f783610e3d8161106c565b610e4682610ac7565b610e825781610e556002611349565b610e5f6001611349565b604051635ead8eb560e01b81526004810193909352176024820152604401610b34565b5f828152600160205260408082208290555183917fbaa1eb22f2a492ba1a5fea61b8df4d27c6c8b5f3971e63bb58fa14ff72eedb7091a25050565b5f82815260208190526040902060010154610ed78161106c565b61088983836112e0565b610a83828261136b565b7fd8aa0f3194971a2a116679f7c2090f6939c8d4e01a2a8d7e41d55e5351469e63610f16815f610d91565b610f2457610f24813361119f565b8786141580610f335750878414155b15610f65576040516001624fcdef60e01b03198152600481018990526024810185905260448101879052606401610b34565b5f610f768a8a8a8a8a8a8a8a610dcf565b9050610f8281856111d8565b5f5b89811015611056575f8b8b83818110610f9f57610f9f611b8e565b9050602002016020810190610fb49190611ba2565b90505f8a8a84818110610fc957610fc9611b8e565b905060200201359050365f8a8a86818110610fe657610fe6611b8e565b9050602002810190610ff89190611bbb565b915091506110088484848461112b565b84867fc2617efa69bab66782fa219543714338489c4e9e178271560a91b82c3f612b588686868660405161103f9493929190611b5d565b60405180910390a350505050806001019050610f84565b5061106081611226565b50505050505050505050565b610dc2813361119f565b61107f826109e0565b156110b0578161108e5f611349565b604051635ead8eb560e01b815260048101929092526024820152604401610b34565b5f6110ba60025490565b9050808210156110e757604051635433660960e01b81526004810183905260248101829052604401610b34565b6110f18242611d2d565b5f93845260016020526040909320929092555050565b5f6001600160e01b03198216630271189760e51b14806108775750610877826113b5565b5f80856001600160a01b0316858585604051611148929190611d4c565b5f6040518083038185875af1925050503d805f8114611182576040519150601f19603f3d011682016040523d82523d5f602084013e611187565b606091505b509150915061119682826113e9565b50505050505050565b6111a98282610d91565b610a835760405163e2517d3f60e01b81526001600160a01b038216600482015260248101839052604401610b34565b6111e182610941565b6111f0578161108e6002611349565b80158015906112055750611203816109b4565b155b15610a835760405163121534c360e31b815260048101829052602401610b34565b61122f81610941565b61123e578061108e6002611349565b5f90815260016020819052604090912055565b5f61125c8383610d91565b6112d9575f838152602081815260408083206001600160a01b03861684529091529020805460ff191660011790556112913390565b6001600160a01b0316826001600160a01b0316847f2f8788117e7eff1d82e926ec794901d17c78024a50270940304540a733656f0d60405160405180910390a4506001610877565b505f610877565b5f6112eb8383610d91565b156112d9575f838152602081815260408083206001600160a01b0386168085529252808320805460ff1916905551339286917ff6391f5c32d9c69d2a47ea670b442974b53935d1edc7fd64eb21e047a839171b9190a4506001610877565b5f81600381111561135c5761135c61177c565b600160ff919091161b92915050565b5f82815260208190526040808220600101805490849055905190918391839186917fbd79b86ffe0ab8e8776151514217cd7cacd52c909f66475c3af44e129f0b00ff9190a4505050565b5f6001600160e01b03198216637965db0b60e01b148061087757506301ffc9a760e01b6001600160e01b0319831614610877565b6060826113fe576113f982611405565b610877565b5080610877565b8051156114155780518082602001fd5b60405163d6bda27560e01b815260040160405180910390fd5b80356001600160a01b0381168114611444575f80fd5b919050565b5f8083601f840112611459575f80fd5b5081356001600160401b0381111561146f575f80fd5b602083019150836020828501011115611486575f80fd5b9250929050565b5f805f805f805f60c0888a0312156114a3575f80fd5b6114ac8861142e565b96506020880135955060408801356001600160401b038111156114cd575f80fd5b6114d98a828b01611449565b989b979a50986060810135976080820135975060a09091013595509350505050565b5f6020828403121561150b575f80fd5b81356001600160e01b031981168114610b05575f80fd5b5f805f8060608587031215611535575f80fd5b61153e8561142e565b93506020850135925060408501356001600160401b0381111561155f575f80fd5b61156b87828801611449565b95989497509550505050565b5f805f805f8060a0878903121561158c575f80fd5b6115958761142e565b95506020870135945060408701356001600160401b038111156115b6575f80fd5b6115c289828a01611449565b979a9699509760608101359660809091013595509350505050565b5f602082840312156115ed575f80fd5b5035919050565b634e487b7160e01b5f52604160045260245ffd5b604051601f8201601f191681016001600160401b0381118282101715611630576116306115f4565b604052919050565b5f82601f830112611647575f80fd5b81356001600160401b03811115611660576116606115f4565b611673601f8201601f1916602001611608565b818152846020838601011115611687575f80fd5b816020850160208301375f918101602001919091529392505050565b5f805f80608085870312156116b6575f80fd5b6116bf8561142e565b93506116cd6020860161142e565b92506040850135915060608501356001600160401b038111156116ee575f80fd5b6116fa87828801611638565b91505092959194509250565b5f8060408385031215611717575f80fd5b823591506117276020840161142e565b90509250929050565b5f602080835283518060208501525f5b8181101561175c57858101830151858201604001528201611740565b505f604082860101526040601f19601f8301168501019250505092915050565b634e487b7160e01b5f52602160045260245ffd5b60208101600483106117b057634e487b7160e01b5f52602160045260245ffd5b91905290565b5f8083601f8401126117c6575f80fd5b5081356001600160401b038111156117dc575f80fd5b6020830191508360208260051b8501011115611486575f80fd5b5f805f805f805f805f60c08a8c03121561180e575f80fd5b89356001600160401b0380821115611824575f80fd5b6118308d838e016117b6565b909b50995060208c0135915080821115611848575f80fd5b6118548d838e016117b6565b909950975060408c013591508082111561186c575f80fd5b506118798c828d016117b6565b9a9d999c50979a969997986060880135976080810135975060a0013595509350505050565b5f602082840312156118ae575f80fd5b813560048110610b05575f80fd5b5f805f805f805f8060a0898b0312156118d3575f80fd5b88356001600160401b03808211156118e9575f80fd5b6118f58c838d016117b6565b909a50985060208b013591508082111561190d575f80fd5b6119198c838d016117b6565b909850965060408b0135915080821115611931575f80fd5b5061193e8b828c016117b6565b999c989b509699959896976060870135966080013595509350505050565b5f82601f83011261196b575f80fd5b813560206001600160401b03821115611986576119866115f4565b8160051b611995828201611608565b92835284810182019282810190878511156119ae575f80fd5b83870192505b848310156119cd578235825291830191908301906119b4565b979650505050505050565b5f805f805f60a086880312156119ec575f80fd5b6119f58661142e565b9450611a036020870161142e565b935060408601356001600160401b0380821115611a1e575f80fd5b611a2a89838a0161195c565b94506060880135915080821115611a3f575f80fd5b611a4b89838a0161195c565b93506080880135915080821115611a60575f80fd5b50611a6d88828901611638565b9150509295509295909350565b5f8060408385031215611a8b575f80fd5b50508035926020909101359150565b5f805f805f60a08688031215611aae575f80fd5b611ab78661142e565b9450611ac56020870161142e565b9350604086013592506060860135915060808601356001600160401b03811115611aed575f80fd5b611a6d88828901611638565b81835281816020850137505f828201602090810191909152601f909101601f19169091010190565b60018060a01b038716815285602082015260a060408201525f611b4860a083018688611af9565b60608301949094525060800152949350505050565b60018060a01b0385168152836020820152606060408201525f611b84606083018486611af9565b9695505050505050565b634e487b7160e01b5f52603260045260245ffd5b5f60208284031215611bb2575f80fd5b610b058261142e565b5f808335601e19843603018112611bd0575f80fd5b8301803591506001600160401b03821115611be9575f80fd5b602001915036819003821315611486575f80fd5b5f838385526020808601955060208560051b830101845f5b87811015611c8157848303601f19018952813536889003601e19018112611c3a575f80fd5b870184810190356001600160401b03811115611c54575f80fd5b803603821315611c62575f80fd5b611c6d858284611af9565b9a86019a9450505090830190600101611c15565b5090979650505050505050565b60a080825281018890525f8960c08301825b8b811015611cce576001600160a01b03611cb98461142e565b16825260209283019290910190600101611ca0565b5083810360208501528881526001600160fb1b03891115611ced575f80fd5b8860051b9150818a60208301370182810360209081016040850152611d159082018789611bfd565b60608401959095525050608001529695505050505050565b8082018082111561087757634e487b7160e01b5f52601160045260245ffd5b818382375f910190815291905056fea26469706673582212201bd650d26fd45020f2470edca92877b56097318e3dba6f4a47964797fa01db5e64736f6c63430008180033",
  "linkReferences": {},
  "deployedLinkReferences": {}
}