{
  "_format": "hh-sol-artifact-1",
  "contractName": "$Math",
  "sourceName": "contracts-exposed/utils/math/Math.sol",
  "abi": [
    {
      "inputs": [],
      "stateMutability": "payable",
      "type": "constructor"
    },
    {
      "inputs": [
        {
          "internalType": "uint256",
          "name": "a",
          "type": "uint256"
        },
        {
          "internalType": "uint256",
          "name": "b",
          "type": "uint256"
        }
      ],
      "name": "$average",
      "outputs": [
        {
          "internalType": "uint256",
          "name": "ret0",
          "type": "uint256"
        }
      ],
      "stateMutability": "pure",
      "type": "function"
    },
    {
      "inputs": [
        {
          "internalType": "uint256",
          "name": "a",
          "type": "uint256"
        },
        {
          "internalType": "uint256",
          "name": "b",
          "type": "uint256"
        }
      ],
      "name": "$ceilDiv",
      "outputs": [
        {
          "internalType": "uint256",
          "name": "ret0",
          "type": "uint256"
        }
      ],
      "stateMutability": "pure",
      "type": "function"
    },
    {
      "inputs": [
        {
          "internalType": "uint256",
          "name": "a",
          "type": "uint256"
        },
        {
          "internalType": "uint256",
          "name": "n",
          "type": "uint256"
        }
      ],
      "name": "$invMod",
      "outputs": [
        {
          "internalType": "uint256",
          "name": "ret0",
          "type": "uint256"
        }
      ],
      "stateMutability": "pure",
      "type": "function"
    },
    {
      "inputs": [
        {
          "internalType": "uint256",
          "name": "a",
          "type": "uint256"
        },
        {
          "internalType": "uint256",
          "name": "p",
          "type": "uint256"
        }
      ],
      "name": "$invModPrime",
      "outputs": [
        {
          "internalType": "uint256",
          "name": "ret0",
          "type": "uint256"
        }
      ],
      "stateMutability": "view",
      "type": "function"
    },
    {
      "inputs": [
        {
          "internalType": "uint256",
          "name": "value",
          "type": "uint256"
        },
        {
          "internalType": "enum Math.Rounding",
          "name": "rounding",
          "type": "uint8"
        }
      ],
      "name": "$log10",
      "outputs": [
        {
          "internalType": "uint256",
          "name": "ret0",
          "type": "uint256"
        }
      ],
      "stateMutability": "pure",
      "type": "function"
    },
    {
      "inputs": [
        {
          "internalType": "uint256",
          "name": "value",
          "type": "uint256"
        }
      ],
      "name": "$log10",
      "outputs": [
        {
          "internalType": "uint256",
          "name": "ret0",
          "type": "uint256"
        }
      ],
      "stateMutability": "pure",
      "type": "function"
    },
    {
      "inputs": [
        {
          "internalType": "uint256",
          "name": "x",
          "type": "uint256"
        }
      ],
      "name": "$log2",
      "outputs": [
        {
          "internalType": "uint256",
          "name": "r",
          "type": "uint256"
        }
      ],
      "stateMutability": "pure",
      "type": "function"
    },
    {
      "inputs": [
        {
          "internalType": "uint256",
          "name": "value",
          "type": "uint256"
        },
        {
          "internalType": "enum Math.Rounding",
          "name": "rounding",
          "type": "uint8"
        }
      ],
      "name": "$log2",
      "outputs": [
        {
          "internalType": "uint256",
          "name": "ret0",
          "type": "uint256"
        }
      ],
      "stateMutability": "pure",
      "type": "function"
    },
    {
      "inputs": [
        {
          "internalType": "uint256",
          "name": "value",
          "type": "uint256"
        },
        {
          "internalType": "enum Math.Rounding",
          "name": "rounding",
          "type": "uint8"
        }
      ],
      "name": "$log256",
      "outputs": [
        {
          "internalType": "uint256",
          "name": "ret0",
          "type": "uint256"
        }
      ],
      "stateMutability": "pure",
      "type": "function"
    },
    {
      "inputs": [
        {
          "internalType": "uint256",
          "name": "x",
          "type": "uint256"
        }
      ],
      "name": "$log256",
      "outputs": [
        {
          "internalType": "uint256",
          "name": "r",
          "type": "uint256"
        }
      ],
      "stateMutability": "pure",
      "type": "function"
    },
    {
      "inputs": [
        {
          "internalType": "uint256",
          "name": "a",
          "type": "uint256"
        },
        {
          "internalType": "uint256",
          "name": "b",
          "type": "uint256"
        }
      ],
      "name": "$max",
      "outputs": [
        {
          "internalType": "uint256",
          "name": "ret0",
          "type": "uint256"
        }
      ],
      "stateMutability": "pure",
      "type": "function"
    },
    {
      "inputs": [
        {
          "internalType": "uint256",
          "name": "a",
          "type": "uint256"
        },
        {
          "internalType": "uint256",
          "name": "b",
          "type": "uint256"
        }
      ],
      "name": "$min",
      "outputs": [
        {
          "internalType": "uint256",
          "name": "ret0",
          "type": "uint256"
        }
      ],
      "stateMutability": "pure",
      "type": "function"
    },
    {
      "inputs": [
        {
          "internalType": "bytes",
          "name": "b",
          "type": "bytes"
        },
        {
          "internalType": "bytes",
          "name": "e",
          "type": "bytes"
        },
        {
          "internalType": "bytes",
          "name": "m",
          "type": "bytes"
        }
      ],
      "name": "$modExp",
      "outputs": [
        {
          "internalType": "bytes",
          "name": "ret0",
          "type": "bytes"
        }
      ],
      "stateMutability": "view",
      "type": "function"
    },
    {
      "inputs": [
        {
          "internalType": "uint256",
          "name": "b",
          "type": "uint256"
        },
        {
          "internalType": "uint256",
          "name": "e",
          "type": "uint256"
        },
        {
          "internalType": "uint256",
          "name": "m",
          "type": "uint256"
        }
      ],
      "name": "$modExp",
      "outputs": [
        {
          "internalType": "uint256",
          "name": "ret0",
          "type": "uint256"
        }
      ],
      "stateMutability": "view",
      "type": "function"
    },
    {
      "inputs": [
        {
          "internalType": "uint256",
          "name": "x",
          "type": "uint256"
        },
        {
          "internalType": "uint256",
          "name": "y",
          "type": "uint256"
        },
        {
          "internalType": "uint256",
          "name": "denominator",
          "type": "uint256"
        },
        {
          "internalType": "enum Math.Rounding",
          "name": "rounding",
          "type": "uint8"
        }
      ],
      "name": "$mulDiv",
      "outputs": [
        {
          "internalType": "uint256",
          "name": "ret0",
          "type": "uint256"
        }
      ],
      "stateMutability": "pure",
      "type": "function"
    },
    {
      "inputs": [
        {
          "internalType": "uint256",
          "name": "x",
          "type": "uint256"
        },
        {
          "internalType": "uint256",
          "name": "y",
          "type": "uint256"
        },
        {
          "internalType": "uint256",
          "name": "denominator",
          "type": "uint256"
        }
      ],
      "name": "$mulDiv",
      "outputs": [
        {
          "internalType": "uint256",
          "name": "result",
          "type": "uint256"
        }
      ],
      "stateMutability": "pure",
      "type": "function"
    },
    {
      "inputs": [
        {
          "internalType": "uint256",
          "name": "a",
          "type": "uint256"
        },
        {
          "internalType": "enum Math.Rounding",
          "name": "rounding",
          "type": "uint8"
        }
      ],
      "name": "$sqrt",
      "outputs": [
        {
          "internalType": "uint256",
          "name": "ret0",
          "type": "uint256"
        }
      ],
      "stateMutability": "pure",
      "type": "function"
    },
    {
      "inputs": [
        {
          "internalType": "uint256",
          "name": "a",
          "type": "uint256"
        }
      ],
      "name": "$sqrt",
      "outputs": [
        {
          "internalType": "uint256",
          "name": "ret0",
          "type": "uint256"
        }
      ],
      "stateMutability": "pure",
      "type": "function"
    },
    {
      "inputs": [
        {
          "internalType": "bool",
          "name": "condition",
          "type": "bool"
        },
        {
          "internalType": "uint256",
          "name": "a",
          "type": "uint256"
        },
        {
          "internalType": "uint256",
          "name": "b",
          "type": "uint256"
        }
      ],
      "name": "$ternary",
      "outputs": [
        {
          "internalType": "uint256",
          "name": "ret0",
          "type": "uint256"
        }
      ],
      "stateMutability": "pure",
      "type": "function"
    },
    {
      "inputs": [
        {
          "internalType": "uint256",
          "name": "a",
          "type": "uint256"
        },
        {
          "internalType": "uint256",
          "name": "b",
          "type": "uint256"
        }
      ],
      "name": "$tryAdd",
      "outputs": [
        {
          "internalType": "bool",
          "name": "success",
          "type": "bool"
        },
        {
          "internalType": "uint256",
          "name": "result",
          "type": "uint256"
        }
      ],
      "stateMutability": "pure",
      "type": "function"
    },
    {
      "inputs": [
        {
          "internalType": "uint256",
          "name": "a",
          "type": "uint256"
        },
        {
          "internalType": "uint256",
          "name": "b",
          "type": "uint256"
        }
      ],
      "name": "$tryDiv",
      "outputs": [
        {
          "internalType": "bool",
          "name": "success",
          "type": "bool"
        },
        {
          "internalType": "uint256",
          "name": "result",
          "type": "uint256"
        }
      ],
      "stateMutability": "pure",
      "type": "function"
    },
    {
      "inputs": [
        {
          "internalType": "uint256",
          "name": "a",
          "type": "uint256"
        },
        {
          "internalType": "uint256",
          "name": "b",
          "type": "uint256"
        }
      ],
      "name": "$tryMod",
      "outputs": [
        {
          "internalType": "bool",
          "name": "success",
          "type": "bool"
        },
        {
          "internalType": "uint256",
          "name": "result",
          "type": "uint256"
        }
      ],
      "stateMutability": "pure",
      "type": "function"
    },
    {
      "inputs": [
        {
          "internalType": "uint256",
          "name": "b",
          "type": "uint256"
        },
        {
          "internalType": "uint256",
          "name": "e",
          "type": "uint256"
        },
        {
          "internalType": "uint256",
          "name": "m",
          "type": "uint256"
        }
      ],
      "name": "$tryModExp",
      "outputs": [
        {
          "internalType": "bool",
          "name": "success",
          "type": "bool"
        },
        {
          "internalType": "uint256",
          "name": "result",
          "type": "uint256"
        }
      ],
      "stateMutability": "view",
      "type": "function"
    },
    {
      "inputs": [
        {
          "internalType": "bytes",
          "name": "b",
          "type": "bytes"
        },
        {
          "internalType": "bytes",
          "name": "e",
          "type": "bytes"
        },
        {
          "internalType": "bytes",
          "name": "m",
          "type": "bytes"
        }
      ],
      "name": "$tryModExp",
      "outputs": [
        {
          "internalType": "bool",
          "name": "success",
          "type": "bool"
        },
        {
          "internalType": "bytes",
          "name": "result",
          "type": "bytes"
        }
      ],
      "stateMutability": "view",
      "type": "function"
    },
    {
      "inputs": [
        {
          "internalType": "uint256",
          "name": "a",
          "type": "uint256"
        },
        {
          "internalType": "uint256",
          "name": "b",
          "type": "uint256"
        }
      ],
      "name": "$tryMul",
      "outputs": [
        {
          "internalType": "bool",
          "name": "success",
          "type": "bool"
        },
        {
          "internalType": "uint256",
          "name": "result",
          "type": "uint256"
        }
      ],
      "stateMutability": "pure",
      "type": "function"
    },
    {
      "inputs": [
        {
          "internalType": "uint256",
          "name": "a",
          "type": "uint256"
        },
        {
          "internalType": "uint256",
          "name": "b",
          "type": "uint256"
        }
      ],
      "name": "$trySub",
      "outputs": [
        {
          "internalType": "bool",
          "name": "success",
          "type": "bool"
        },
        {
          "internalType": "uint256",
          "name": "result",
          "type": "uint256"
        }
      ],
      "stateMutability": "pure",
      "type": "function"
    },
    {
      "inputs": [
        {
          "internalType": "enum Math.Rounding",
          "name": "rounding",
          "type": "uint8"
        }
      ],
      "name": "$unsignedRoundsUp",
      "outputs": [
        {
          "internalType": "bool",
          "name": "ret0",
          "type": "bool"
        }
      ],
      "stateMutability": "pure",
      "type": "function"
    },
    {
      "inputs": [],
      "name": "__hh_exposed_bytecode_marker",
      "outputs": [
        {
          "internalType": "bytes32",
          "name": "",
          "type": "bytes32"
        }
      ],
      "stateMutability": "view",
      "type": "function"
    },
    {
      "stateMutability": "payable",
      "type": "receive"
    }
  ],
  "bytecode": "0x60806040526113b9806100115f395ff3fe6080604052600436106101b2575f3560e01c80638297669e116100e7578063bed59e3f11610087578063d7343fc511610062578063d7343fc5146104f2578063da803e2e14610511578063ef36d71214610530578063f2e5c9071461055d575f80fd5b8063bed59e3f14610495578063c7e099df146104b4578063d3165dad146104d3575f80fd5b80639198059c116100c25780639198059c146104195780639abb0446146104385780639cb9837514610457578063b30b5c5414610476575f80fd5b80638297669e146103bc578063879f1a90146103db5780638c9f9553146103fa575f80fd5b8063342db7391161015257806356f58b261161012d57806356f58b2614610340578063697b8df51461035f5780636fe4501c1461037e5780637ec960031461039d575f80fd5b8063342db739146102dd578063421cc11e146103025780635155814514610321575f80fd5b80631eb4adde1161018d5780631eb4adde14610244578063257b616d1461026357806328eae6a8146102925780632ba83cb0146102be575f80fd5b806309475312146101bd5780631c71f2b9146101ef5780631c822c5c14610225575f80fd5b366101b957005b5f80fd5b3480156101c8575f80fd5b506101dc6101d7366004611022565b61057c565b6040519081526020015b60405180910390f35b3480156101fa575f80fd5b5061020e610209366004611022565b61058e565b6040805192151583526020830191909152016101e6565b348015610230575f80fd5b506101dc61023f366004611055565b6105a5565b34801561024f575f80fd5b5061020e61025e366004611022565b6105bb565b34801561026e575f80fd5b5061028261027d366004611091565b6105c7565b60405190151581526020016101e6565b34801561029d575f80fd5b506102b16102ac3660046110e8565b6105d7565b6040516101e691906111c8565b3480156102c9575f80fd5b506101dc6102d83660046111da565b610688565b3480156102e8575f80fd5b506101dc6e1a185c991a185d0b595e1c1bdcd959608a1b81565b34801561030d575f80fd5b506101dc61031c366004611022565b61069c565b34801561032c575f80fd5b5061020e61033b366004611022565b6106a7565b34801561034b575f80fd5b506101dc61035a366004611203565b6106b3565b34801561036a575f80fd5b506101dc610379366004611022565b6106be565b348015610389575f80fd5b5061020e6103983660046111da565b6106c9565b3480156103a8575f80fd5b506101dc6103b73660046111da565b6106e2565b3480156103c7575f80fd5b506101dc6103d636600461122d565b6106ee565b3480156103e6575f80fd5b506101dc6103f536600461122d565b6106f8565b348015610405575f80fd5b5061020e610414366004611022565b610702565b348015610424575f80fd5b506101dc610433366004611022565b61070e565b348015610443575f80fd5b506101dc610452366004611022565b610719565b348015610462575f80fd5b506101dc610471366004611203565b610724565b348015610481575f80fd5b506101dc610490366004611203565b61072f565b3480156104a0575f80fd5b506101dc6104af36600461122d565b61073a565b3480156104bf575f80fd5b506101dc6104ce366004611022565b610744565b3480156104de575f80fd5b5061020e6104ed366004611022565b61074f565b3480156104fd575f80fd5b506101dc61050c366004611203565b61075b565b34801561051c575f80fd5b506101dc61052b366004611244565b610766565b34801561053b575f80fd5b5061054f61054a3660046110e8565b610775565b6040516101e692919061127a565b348015610568575f80fd5b506101dc61057736600461122d565b61082b565b5f6105878383610835565b9392505050565b5f8061059a848461084f565b909590945092505050565b5f6105b285858585610873565b95945050505050565b5f8061059a84846108b5565b5f6105d1826108e5565b92915050565b606061067d87878080601f0160208091040260200160405190810160405280939291908181526020018383808284375f9201919091525050604080516020601f8b0181900481028201810190925289815292508991508890819084018382808284375f9201919091525050604080516020601f8a0181900481028201810190925288815292508891508790819084018382808284375f9201919091525061091192505050565b979650505050505050565b5f610694848484610933565b949350505050565b5f6105878383610941565b5f8061059a8484610950565b5f6105878383610980565b5f61058783836109b3565b5f806106d68585856109c2565b90969095509350505050565b5f610694848484610a15565b5f6105d182610acb565b5f6105d182610b3b565b5f8061059a8484610c12565b5f6105878383610c57565b5f6105878383610c66565b5f6105878383610cdf565b5f6105878383610d08565b5f6105d182610d35565b5f6105878383610d84565b5f8061059a8484610db7565b5f6105878383610dd0565b5f831515828418028218610694565b5f606061081c88888080601f0160208091040260200160405190810160405280939291908181526020018383808284375f9201919091525050604080516020601f8c018190048102820181019092528a815292508a91508990819084018382808284375f9201919091525050604080516020601f8b0181900481028201810190925289815292508991508890819084018382808284375f92019190915250610df892505050565b90999098509650505050505050565b5f6105d182610e6e565b5f61084360028484186112a8565b610587908484166112bb565b5f808383111561086357505f90508061086c565b50600190508183035b9250929050565b5f6108a0610880836108e5565b801561089b57505f848061089657610896611294565b868809115b151590565b6108ab868686610a15565b6105b291906112bb565b5f80825f036108c857505f90508061086c565b60018385816108d9576108d9611294565b06915091509250929050565b5f60028260038111156108fa576108fa6112da565b61090491906112ee565b60ff166001149050919050565b60605f80610920868686610df8565b91509150816105b2576105b26012610fc6565b5f805f6109208686866109c2565b5f828218828411028218610587565b5f80825f0361096357505f90508061086c565b600183858161097457610974611294565b04915091509250929050565b5f8061098b84610b3b565b90506109ab610999846108e5565b801561089b57508482600a0a10151590565b019392505050565b5f610587836002840384610933565b5f80825f036109d557505f905080610a0d565b60405160208152602080820152602060408201528560608201528460808201528360a082015260205f60c08360055afa9250505f5190505b935093915050565b5f838302815f1985870982811083820303915050805f03610a4957838281610a3f57610a3f611294565b0492505050610587565b808411610a6057610a606003851502601118610fc6565b5f848688095f868103871696879004966002600389028118808a02820302808a02820302808a02820302808a02820302808a02820302808a02909103029181900381900460010186841190950394909402919094039290920491909117919091029150509392505050565b5f60076001600160801b038311901b9050600667ffffffffffffffff83831c11901b17600563ffffffff83831c11901b17600461ffff83831c11901b17600360ff83831c11901b176002600f83831c116d010102020202030303030303030360801b911b9190911791821c1a1790565b5f8072184f03e93ff9f4daa797ed6e38ed64bf6a1f0160401b8310610b795772184f03e93ff9f4daa797ed6e38ed64bf6a1f0160401b830492506040015b6d04ee2d6d415b85acef81000000008310610ba5576d04ee2d6d415b85acef8100000000830492506020015b662386f26fc100008310610bc357662386f26fc10000830492506010015b6305f5e1008310610bdb576305f5e100830492506008015b6127108310610bef57612710830492506004015b60648310610c01576064830492506002015b600a83106105d15760010192915050565b5f80835f03610c265750600190505f61086c565b83830283858281610c3957610c39611294565b0414610c4b575f80925092505061086c565b60019590945092505050565b5f828218828410028218610587565b5f815f03610c7557505f6105d1565b5f828481610c8557610c85611294565b069050825f60015b8315610cbb575f848481610ca357610ca3611294565b04858102909403949391929183029091039050610c8d565b82600114610ccf575f9450505050506105d1565b85820182185f831202821861067d565b5f80610cea84610acb565b90506109ab610cf8846108e5565b801561089b57506001821b851190565b5f80610d1384610d35565b90506109ab610d21846108e5565b801561089b57506001600383901b1b851190565b5f60076001600160801b038311901b9050600667ffffffffffffffff83831c11901b17600563ffffffff83831c11901b17600461ffff83831c11901b1760ff82821c1160039190911c17919050565b5f815f03610d9657610d966012610fc6565b816001840381610da857610da8611294565b04600101831515029392505050565b5f8083830184811015610c4b575f80925092505061086c565b5f80610ddb84610e6e565b90506109ab610de9846108e5565b801561089b5750818002851190565b5f6060610e0483610fd7565b15610e1f575050604080515f80825260208201909252610a0d565b825185518551604051610e3e92919084908a908a908a9060200161130f565b604051602081830303815290604052915060208201818184518360055afa82845291016040529150935093915050565b5f60018211610e7b575090565b816001600160801b8210610e945760809190911c9060401b5b680100000000000000008210610eaf5760409190911c9060201b5b6401000000008210610ec65760209190911c9060101b5b620100008210610edb5760109190911c9060081b5b6101008210610eef5760089190911c9060041b5b60108210610f025760049190911c9060021b5b60048210610f0e5760011b5b600302600190811c90818581610f2657610f26611294565b048201901c90506001818581610f3e57610f3e611294565b048201901c90506001818581610f5657610f56611294565b048201901c90506001818581610f6e57610f6e611294565b048201901c90506001818581610f8657610f86611294565b048201901c90506001818581610f9e57610f9e611294565b048201901c9050610fbd818581610fb757610fb7611294565b04821190565b90039392505050565b634e487b715f52806020526024601cfd5b5f805b825181101561101957828181518110610ff557610ff561136f565b01602001516001600160f81b0319161561101157505f92915050565b600101610fda565b50600192915050565b5f8060408385031215611033575f80fd5b50508035926020909101359150565b803560048110611050575f80fd5b919050565b5f805f8060808587031215611068575f80fd5b84359350602085013592506040850135915061108660608601611042565b905092959194509250565b5f602082840312156110a1575f80fd5b61058782611042565b5f8083601f8401126110ba575f80fd5b50813567ffffffffffffffff8111156110d1575f80fd5b60208301915083602082850101111561086c575f80fd5b5f805f805f80606087890312156110fd575f80fd5b863567ffffffffffffffff80821115611114575f80fd5b6111208a838b016110aa565b90985096506020890135915080821115611138575f80fd5b6111448a838b016110aa565b9096509450604089013591508082111561115c575f80fd5b5061116989828a016110aa565b979a9699509497509295939492505050565b5f5b8381101561119557818101518382015260200161117d565b50505f910152565b5f81518084526111b481602086016020860161117b565b601f01601f19169290920160200192915050565b602081525f610587602083018461119d565b5f805f606084860312156111ec575f80fd5b505081359360208301359350604090920135919050565b5f8060408385031215611214575f80fd5b8235915061122460208401611042565b90509250929050565b5f6020828403121561123d575f80fd5b5035919050565b5f805f60608486031215611256575f80fd5b83358015158114611265575f80fd5b95602085013595506040909401359392505050565b8215158152604060208201525f610694604083018461119d565b634e487b7160e01b5f52601260045260245ffd5b5f826112b6576112b6611294565b500490565b808201808211156105d157634e487b7160e01b5f52601160045260245ffd5b634e487b7160e01b5f52602160045260245ffd5b5f60ff83168061130057611300611294565b8060ff84160691505092915050565b8681528560208201528460408201525f845161133281606085016020890161117b565b84519083019061134981606084016020890161117b565b845191019061135f81606084016020880161117b565b0160600198975050505050505050565b634e487b7160e01b5f52603260045260245ffdfea26469706673582212209f0b9f154ee8d5f263d654c15836035c51a94832e9720f124f23b84af037e21d64736f6c63430008180033",
  "linkReferences": {},
  "deployedLinkReferences": {}
}