{
  "_format": "hh-sol-artifact-1",
  "contractName": "Implementation3",
  "sourceName": "contracts/mocks/RegressionImplementation.sol",
  "abi": [
    {
      "inputs": [],
      "name": "InvalidInitialization",
      "type": "error"
    },
    {
      "inputs": [],
      "name": "NotInitializing",
      "type": "error"
    },
    {
      "anonymous": false,
      "inputs": [
        {
          "indexed": false,
          "internalType": "uint64",
          "name": "version",
          "type": "uint64"
        }
      ],
      "name": "Initialized",
      "type": "event"
    },
    {
      "inputs": [
        {
          "internalType": "uint256",
          "name": "_number",
          "type": "uint256"
        }
      ],
      "name": "getValue",
      "outputs": [
        {
          "internalType": "uint256",
          "name": "",
          "type": "uint256"
        }
      ],
      "stateMutability": "view",
      "type": "function"
    },
    {
      "inputs": [],
      "name": "initialize",
      "outputs": [],
      "stateMutability": "nonpayable",
      "type": "function"
    },
    {
      "inputs": [
        {
          "internalType": "uint256",
          "name": "_number",
          "type": "uint256"
        }
      ],
      "name": "setValue",
      "outputs": [],
      "stateMutability": "nonpayable",
      "type": "function"
    }
  ],
  "bytecode": "0x608060405234801561000f575f80fd5b506102088061001d5f395ff3fe608060405234801561000f575f80fd5b506004361061003f575f3560e01c80630ff4c9161461004357806355241077146100685780638129fc1c1461007c575b5f80fd5b61005661005136600461019c565b610084565b60405190815260200160405180910390f35b61007a61007636600461019c565b5f55565b005b61007a610098565b5f815f5461009291906101b3565b92915050565b7ff0c57e16840df040f15088dc2f81fe391c3923bec73e23a9662efc9c229c6a008054600160401b810460ff16159067ffffffffffffffff165f811580156100dd5750825b90505f8267ffffffffffffffff1660011480156100f95750303b155b905081158015610107575080155b156101255760405163f92ee8a960e01b815260040160405180910390fd5b845467ffffffffffffffff19166001178555831561014f57845460ff60401b1916600160401b1785555b831561019557845460ff60401b19168555604051600181527fc7f505b2f371ae2175ee4913f4499e1f2633a7b5936321eed1cdaeb6115181d29060200160405180910390a15b5050505050565b5f602082840312156101ac575f80fd5b5035919050565b8082018082111561009257634e487b7160e01b5f52601160045260245ffdfea26469706673582212206c7da6c145ecf266c719cd71e3e114226d520f48f2f1206e085027defda1c78664736f6c63430008180033",
  "linkReferences": {},
  "deployedLinkReferences": {}
}