{
  "_format": "hh-sol-artifact-1",
  "contractName": "Implementation1",
  "sourceName": "contracts/mocks/RegressionImplementation.sol",
  "abi": [
    {
      "inputs": [],
      "name": "InvalidInitialization",
      "type": "error"
    },
    {
      "inputs": [],
      "name": "NotInitializing",
      "type": "error"
    },
    {
      "anonymous": false,
      "inputs": [
        {
          "indexed": false,
          "internalType": "uint64",
          "name": "version",
          "type": "uint64"
        }
      ],
      "name": "Initialized",
      "type": "event"
    },
    {
      "inputs": [],
      "name": "initialize",
      "outputs": [],
      "stateMutability": "nonpayable",
      "type": "function"
    },
    {
      "inputs": [
        {
          "internalType": "uint256",
          "name": "_number",
          "type": "uint256"
        }
      ],
      "name": "setValue",
      "outputs": [],
      "stateMutability": "nonpayable",
      "type": "function"
    }
  ],
  "bytecode": "0x608060405234801561000f575f80fd5b506101a28061001d5f395ff3fe608060405234801561000f575f80fd5b5060043610610034575f3560e01c806355241077146100385780638129fc1c1461004c575b5f80fd5b61004a610046366004610155565b5f55565b005b7ff0c57e16840df040f15088dc2f81fe391c3923bec73e23a9662efc9c229c6a00805461004a9190600160401b810460ff16159067ffffffffffffffff165f811580156100965750825b90505f8267ffffffffffffffff1660011480156100b25750303b155b9050811580156100c0575080155b156100de5760405163f92ee8a960e01b815260040160405180910390fd5b845467ffffffffffffffff19166001178555831561010857845460ff60401b1916600160401b1785555b831561014e57845460ff60401b19168555604051600181527fc7f505b2f371ae2175ee4913f4499e1f2633a7b5936321eed1cdaeb6115181d29060200160405180910390a15b5050505050565b5f60208284031215610165575f80fd5b503591905056fea2646970667358221220a781972403f0092a23852f544d97f84af8958fc31d0e17d1177734ce8a05b7fd64736f6c63430008180033",
  "linkReferences": {},
  "deployedLinkReferences": {}
}