{"contracts/swap-router-contracts/lens/TokenValidator.sol":{"TokenValidator":{"abi":[{"inputs":[{"internalType":"address","name":"_factoryV2","type":"address"},{"internalType":"address","name":"_positionManager","type":"address"}],"stateMutability":"nonpayable","type":"constructor"},{"inputs":[{"internalType":"address[]","name":"tokens","type":"address[]"},{"internalType":"address[]","name":"baseTokens","type":"address[]"},{"internalType":"uint256","name":"amountToBorrow","type":"uint256"}],"name":"batchValidate","outputs":[{"internalType":"enum ITokenValidator.Status[]","name":"isFotResults","type":"uint8[]"}],"stateMutability":"nonpayable","type":"function"},{"inputs":[],"name":"factoryV2","outputs":[{"internalType":"address","name":"","type":"address"}],"stateMutability":"view","type":"function"},{"inputs":[],"name":"positionManager","outputs":[{"internalType":"address","name":"","type":"address"}],"stateMutability":"view","type":"function"},{"inputs":[{"internalType":"address","name":"","type":"address"},{"internalType":"uint256","name":"amount0","type":"uint256"},{"internalType":"uint256","name":"","type":"uint256"},{"internalType":"bytes","name":"data","type":"bytes"}],"name":"uniswapV2Call","outputs":[],"stateMutability":"view","type":"function"},{"inputs":[{"internalType":"address","name":"token","type":"address"},{"internalType":"address[]","name":"baseTokens","type":"address[]"},{"internalType":"uint256","name":"amountToBorrow","type":"uint256"}],"name":"validate","outputs":[{"internalType":"enum ITokenValidator.Status","name":"","type":"uint8"}],"stateMutability":"nonpayable","type":"function"}],"evm":{"bytecode":{"linkReferences":{},"object":"60c060405234801561001057600080fd5b506040516110e03803806110e083398101604081905261002f91610069565b6001600160601b0319606092831b8116608052911b1660a05261009b565b80516001600160a01b038116811461006457600080fd5b919050565b6000806040838503121561007b578182fd5b6100848361004d565b91506100926020840161004d565b90509250929050565b60805160601c60a05160601c61101c6100c4600039806103f65250806103d2525061101c6000f3fe608060405234801561001057600080fd5b50600436106100675760003560e01c806368e0d4e11161005057806368e0d4e1146100aa578063791b98bc146100bf578063be7672e5146100c757610067565b80630143aace1461006c57806310d1e85c14610095575b600080fd5b61007f61007a366004610b75565b6100e7565b60405161008c9190610dea565b60405180910390f35b6100a86100a3366004610bcf565b61016c565b005b6100b26103d0565b60405161008c9190610d7e565b6100b26103f4565b6100da6100d5366004610c60565b610418565b60405161008c9190610d9f565b6000805b8381101561015e5760006101208787878581811061010557fe5b905060200201602081019061011a9190610b3d565b866104d6565b9050600181600281111561013057fe5b14806101475750600281600281111561014557fe5b145b156101555791506101649050565b506001016100eb565b50600090505b949350505050565b60003390506000808273ffffffffffffffffffffffffffffffffffffffff16630dfe16816040518163ffffffff1660e01b815260040160206040518083038186803b1580156101ba57600080fd5b505afa1580156101ce573d6000803e3d6000fd5b505050506040513d601f19601f820116820180604052508101906101f29190610b59565b8373ffffffffffffffffffffffffffffffffffffffff1663d21220a76040518163ffffffff1660e01b815260040160206040518083038186803b15801561023857600080fd5b505afa15801561024c573d6000803e3d6000fd5b505050506040513d601f19601f820116820180604052508101906102709190610b59565b9150915060008088116102835781610285565b825b905060008061029687890189610ce9565b915091506000828473ffffffffffffffffffffffffffffffffffffffff166370a08231306040518263ffffffff1660e01b81526004016102d69190610d7e565b60206040518083038186803b1580156102ee57600080fd5b505afa158015610302573d6000803e3d6000fd5b505050506040513d601f19601f820116820180604052508101906103269190610cd1565b03905081811461039e57604080518082018252600381527f464f540000000000000000000000000000000000000000000000000000000000602082015290517f08c379a00000000000000000000000000000000000000000000000000000000081526103959190600401610dfe565b60405180910390fd5b6040517f08c379a000000000000000000000000000000000000000000000000000000000815260040161039590610e11565b7f000000000000000000000000000000000000000000000000000000000000000081565b7f000000000000000000000000000000000000000000000000000000000000000081565b60608467ffffffffffffffff8111801561043157600080fd5b5060405190808252806020026020018201604052801561045b578160200160208202803683370190505b50905060005b858110156104cc5761049587878381811061047857fe5b905060200201602081019061048d9190610b3d565b8686866100e7565b8282815181106104a157fe5b602002602001019060028111156104b457fe5b908160028111156104c157fe5b905250600101610461565b5095945050505050565b60008273ffffffffffffffffffffffffffffffffffffffff168473ffffffffffffffffffffffffffffffffffffffff16141561051457506000610895565b600061059e3073ffffffffffffffffffffffffffffffffffffffff166368e0d4e16040518163ffffffff1660e01b815260040160206040518083038186803b15801561055f57600080fd5b505afa158015610573573d6000803e3d6000fd5b505050506040513d601f19601f820116820180604052508101906105979190610b59565b868661089c565b60408051600481526024810182526020810180517bffffffffffffffffffffffffffffffffffffffffffffffffffffffff167f0dfe168100000000000000000000000000000000000000000000000000000000179052905191925060009173ffffffffffffffffffffffffffffffffffffffff84169161061d91610d62565b6000604051808303816000865af19150503d806000811461065a576040519150601f19603f3d011682016040523d82523d6000602084013e61065f565b606091505b5091505080516000141561067857600092505050610895565b60008180602001905181019061068e9190610b59565b90506000808273ffffffffffffffffffffffffffffffffffffffff168973ffffffffffffffffffffffffffffffffffffffff16146106ce576000876106d2565b8660005b9150915060008973ffffffffffffffffffffffffffffffffffffffff166370a08231306040518263ffffffff1660e01b81526004016107119190610d7e565b60206040518083038186803b15801561072957600080fd5b505afa15801561073d573d6000803e3d6000fd5b505050506040513d601f19601f820116820180604052508101906107619190610cd1565b905060008690508073ffffffffffffffffffffffffffffffffffffffff1663022c0d9f858530868e60405160200161079a929190610e7f565b6040516020818303038152906040526040518563ffffffff1660e01b81526004016107c89493929190610e8d565b600060405180830381600087803b1580156107e257600080fd5b505af19250505080156107f3575060015b610863576107ff610f08565b8061080a5750610859565b61081381610987565b1561082957600198505050505050505050610895565b610832816109ea565b1561084857600298505050505050505050610895565b600098505050505050505050610895565b3d6000803e3d6000fd5b6040517f08c379a000000000000000000000000000000000000000000000000000000000815260040161039590610e48565b9392505050565b60008060006108ab8585610a56565b604080517fffffffffffffffffffffffffffffffffffffffff000000000000000000000000606094851b811660208084019190915293851b81166034830152825160288184030181526048830184528051908501207fff0000000000000000000000000000000000000000000000000000000000000060688401529a90941b9093166069840152607d8301989098527f96e8ac4277198ff8b6f785478aa9a39f403cb768dd02cbee326c3e7da348845f609d808401919091528851808403909101815260bd909201909752805196019590952095945050505050565b60408051808201909152600381527f464f5400000000000000000000000000000000000000000000000000000000006020918201528151908201207f0d441c7cb74abc94cc606c98870ca9174ef5b167b2f7ffed505658cf4574b003145b919050565b60408051808201909152600f8082527f5452414e534645525f4641494c45440000000000000000000000000000000000602083015282516000929180821015610a3957600093505050506109e5565b602092830181902091819003850190920191909120149050919050565b6000808273ffffffffffffffffffffffffffffffffffffffff168473ffffffffffffffffffffffffffffffffffffffff161415610a9257600080fd5b8273ffffffffffffffffffffffffffffffffffffffff168473ffffffffffffffffffffffffffffffffffffffff1610610acc578284610acf565b83835b909250905073ffffffffffffffffffffffffffffffffffffffff8216610af457600080fd5b9250929050565b60008083601f840112610b0c578182fd5b50813567ffffffffffffffff811115610b23578182fd5b6020830191508360208083028501011115610af457600080fd5b600060208284031215610b4e578081fd5b813561089581610fea565b600060208284031215610b6a578081fd5b815161089581610fea565b60008060008060608587031215610b8a578283fd5b8435610b9581610fea565b9350602085013567ffffffffffffffff811115610bb0578384fd5b610bbc87828801610afb565b9598909750949560400135949350505050565b600080600080600060808688031215610be6578081fd5b8535610bf181610fea565b94506020860135935060408601359250606086013567ffffffffffffffff80821115610c1b578283fd5b818801915088601f830112610c2e578283fd5b813581811115610c3c578384fd5b896020828501011115610c4d578384fd5b9699959850939650602001949392505050565b600080600080600060608688031215610c77578081fd5b853567ffffffffffffffff80821115610c8e578283fd5b610c9a89838a01610afb565b90975095506020880135915080821115610cb2578283fd5b50610cbf88828901610afb565b96999598509660400135949350505050565b600060208284031215610ce2578081fd5b5051919050565b60008060408385031215610cfb578182fd5b50508035926020909101359150565b60008151808452610d22816020860160208601610ed2565b601f017fffffffffffffffffffffffffffffffffffffffffffffffffffffffffffffffe0169290920160200192915050565b60038110610d5e57fe5b9052565b60008251610d74818460208701610ed2565b9190910192915050565b73ffffffffffffffffffffffffffffffffffffffff91909116815260200190565b6020808252825182820181905260009190848201906040850190845b81811015610dde57610dce838551610d54565b9284019291840191600101610dbb565b50909695505050505050565b60208101610df88284610d54565b92915050565b6000602082526108956020830184610d0a565b60208082526007908201527f556e6b6e6f776e00000000000000000000000000000000000000000000000000604082015260600190565b60208082526010908201527f556e6578706563746564206572726f7200000000000000000000000000000000604082015260600190565b918252602082015260400190565b600085825284602083015273ffffffffffffffffffffffffffffffffffffffff8416604083015260806060830152610ec86080830184610d0a565b9695505050505050565b60005b83811015610eed578181015183820152602001610ed5565b83811115610efc576000848401525b50505050565b60e01c90565b600060443d1015610f1857610fe7565b600481823e6308c379a0610f2c8251610f02565b14610f3657610fe7565b6040517ffffffffffffffffffffffffffffffffffffffffffffffffffffffffffffffffc3d016004823e80513d67ffffffffffffffff8160248401118184111715610f845750505050610fe7565b82840192508251915080821115610f9e5750505050610fe7565b503d83016020828401011115610fb657505050610fe7565b601f017fffffffffffffffffffffffffffffffffffffffffffffffffffffffffffffffe01681016020016040529150505b90565b73ffffffffffffffffffffffffffffffffffffffff8116811461100c57600080fd5b5056fea164736f6c6343000706000a","opcodes":"PUSH1 0xC0 PUSH1 0x40 MSTORE CALLVALUE DUP1 ISZERO PUSH2 0x10 JUMPI PUSH1 0x0 DUP1 REVERT JUMPDEST POP PUSH1 0x40 MLOAD PUSH2 0x10E0 CODESIZE SUB DUP1 PUSH2 0x10E0 DUP4 CODECOPY DUP2 ADD PUSH1 0x40 DUP2 SWAP1 MSTORE PUSH2 0x2F SWAP2 PUSH2 0x69 JUMP JUMPDEST PUSH1 0x1 PUSH1 0x1 PUSH1 0x60 SHL SUB NOT PUSH1 0x60 SWAP3 DUP4 SHL DUP2 AND PUSH1 0x80 MSTORE SWAP2 SHL AND PUSH1 0xA0 MSTORE PUSH2 0x9B JUMP JUMPDEST DUP1 MLOAD PUSH1 0x1 PUSH1 0x1 PUSH1 0xA0 SHL SUB DUP2 AND DUP2 EQ PUSH2 0x64 JUMPI PUSH1 0x0 DUP1 REVERT JUMPDEST SWAP2 SWAP1 POP JUMP JUMPDEST PUSH1 0x0 DUP1 PUSH1 0x40 DUP4 DUP6 SUB SLT ISZERO PUSH2 0x7B JUMPI DUP2 DUP3 REVERT JUMPDEST PUSH2 0x84 DUP4 PUSH2 0x4D JUMP JUMPDEST SWAP2 POP PUSH2 0x92 PUSH1 0x20 DUP5 ADD PUSH2 0x4D JUMP JUMPDEST SWAP1 POP SWAP3 POP SWAP3 SWAP1 POP JUMP JUMPDEST PUSH1 0x80 MLOAD PUSH1 0x60 SHR PUSH1 0xA0 MLOAD PUSH1 0x60 SHR PUSH2 0x101C PUSH2 0xC4 PUSH1 0x0 CODECOPY DUP1 PUSH2 0x3F6 MSTORE POP DUP1 PUSH2 0x3D2 MSTORE POP PUSH2 0x101C PUSH1 0x0 RETURN INVALID PUSH1 0x80 PUSH1 0x40 MSTORE CALLVALUE DUP1 ISZERO PUSH2 0x10 JUMPI PUSH1 0x0 DUP1 REVERT JUMPDEST POP PUSH1 0x4 CALLDATASIZE LT PUSH2 0x67 JUMPI PUSH1 0x0 CALLDATALOAD PUSH1 0xE0 SHR DUP1 PUSH4 0x68E0D4E1 GT PUSH2 0x50 JUMPI DUP1 PUSH4 0x68E0D4E1 EQ PUSH2 0xAA JUMPI DUP1 PUSH4 0x791B98BC EQ PUSH2 0xBF JUMPI DUP1 PUSH4 0xBE7672E5 EQ PUSH2 0xC7 JUMPI PUSH2 0x67 JUMP JUMPDEST DUP1 PUSH4 0x143AACE EQ PUSH2 0x6C JUMPI DUP1 PUSH4 0x10D1E85C EQ PUSH2 0x95 JUMPI JUMPDEST PUSH1 0x0 DUP1 REVERT JUMPDEST PUSH2 0x7F PUSH2 0x7A CALLDATASIZE PUSH1 0x4 PUSH2 0xB75 JUMP JUMPDEST PUSH2 0xE7 JUMP JUMPDEST PUSH1 0x40 MLOAD PUSH2 0x8C SWAP2 SWAP1 PUSH2 0xDEA JUMP JUMPDEST PUSH1 0x40 MLOAD DUP1 SWAP2 SUB SWAP1 RETURN JUMPDEST PUSH2 0xA8 PUSH2 0xA3 CALLDATASIZE PUSH1 0x4 PUSH2 0xBCF JUMP JUMPDEST PUSH2 0x16C JUMP JUMPDEST STOP JUMPDEST PUSH2 0xB2 PUSH2 0x3D0 JUMP JUMPDEST PUSH1 0x40 MLOAD PUSH2 0x8C SWAP2 SWAP1 PUSH2 0xD7E JUMP JUMPDEST PUSH2 0xB2 PUSH2 0x3F4 JUMP JUMPDEST PUSH2 0xDA PUSH2 0xD5 CALLDATASIZE PUSH1 0x4 PUSH2 0xC60 JUMP JUMPDEST PUSH2 0x418 JUMP JUMPDEST PUSH1 0x40 MLOAD PUSH2 0x8C SWAP2 SWAP1 PUSH2 0xD9F JUMP JUMPDEST PUSH1 0x0 DUP1 JUMPDEST DUP4 DUP2 LT ISZERO PUSH2 0x15E JUMPI PUSH1 0x0 PUSH2 0x120 DUP8 DUP8 DUP8 DUP6 DUP2 DUP2 LT PUSH2 0x105 JUMPI INVALID JUMPDEST SWAP1 POP PUSH1 0x20 MUL ADD PUSH1 0x20 DUP2 ADD SWAP1 PUSH2 0x11A SWAP2 SWAP1 PUSH2 0xB3D JUMP JUMPDEST DUP7 PUSH2 0x4D6 JUMP JUMPDEST SWAP1 POP PUSH1 0x1 DUP2 PUSH1 0x2 DUP2 GT ISZERO PUSH2 0x130 JUMPI INVALID JUMPDEST EQ DUP1 PUSH2 0x147 JUMPI POP PUSH1 0x2 DUP2 PUSH1 0x2 DUP2 GT ISZERO PUSH2 0x145 JUMPI INVALID JUMPDEST EQ JUMPDEST ISZERO PUSH2 0x155 JUMPI SWAP2 POP PUSH2 0x164 SWAP1 POP JUMP JUMPDEST POP PUSH1 0x1 ADD PUSH2 0xEB JUMP JUMPDEST POP PUSH1 0x0 SWAP1 POP JUMPDEST SWAP5 SWAP4 POP POP POP POP JUMP JUMPDEST PUSH1 0x0 CALLER SWAP1 POP PUSH1 0x0 DUP1 DUP3 PUSH20 0xFFFFFFFFFFFFFFFFFFFFFFFFFFFFFFFFFFFFFFFF AND PUSH4 0xDFE1681 PUSH1 0x40 MLOAD DUP2 PUSH4 0xFFFFFFFF AND PUSH1 0xE0 SHL DUP2 MSTORE PUSH1 0x4 ADD PUSH1 0x20 PUSH1 0x40 MLOAD DUP1 DUP4 SUB DUP2 DUP7 DUP1 EXTCODESIZE ISZERO DUP1 ISZERO PUSH2 0x1BA JUMPI PUSH1 0x0 DUP1 REVERT JUMPDEST POP GAS STATICCALL ISZERO DUP1 ISZERO PUSH2 0x1CE JUMPI RETURNDATASIZE PUSH1 0x0 DUP1 RETURNDATACOPY RETURNDATASIZE PUSH1 0x0 REVERT JUMPDEST POP POP POP POP PUSH1 0x40 MLOAD RETURNDATASIZE PUSH1 0x1F NOT PUSH1 0x1F DUP3 ADD AND DUP3 ADD DUP1 PUSH1 0x40 MSTORE POP DUP2 ADD SWAP1 PUSH2 0x1F2 SWAP2 SWAP1 PUSH2 0xB59 JUMP JUMPDEST DUP4 PUSH20 0xFFFFFFFFFFFFFFFFFFFFFFFFFFFFFFFFFFFFFFFF AND PUSH4 0xD21220A7 PUSH1 0x40 MLOAD DUP2 PUSH4 0xFFFFFFFF AND PUSH1 0xE0 SHL DUP2 MSTORE PUSH1 0x4 ADD PUSH1 0x20 PUSH1 0x40 MLOAD DUP1 DUP4 SUB DUP2 DUP7 DUP1 EXTCODESIZE ISZERO DUP1 ISZERO PUSH2 0x238 JUMPI PUSH1 0x0 DUP1 REVERT JUMPDEST POP GAS STATICCALL ISZERO DUP1 ISZERO PUSH2 0x24C JUMPI RETURNDATASIZE PUSH1 0x0 DUP1 RETURNDATACOPY RETURNDATASIZE PUSH1 0x0 REVERT JUMPDEST POP POP POP POP PUSH1 0x40 MLOAD RETURNDATASIZE PUSH1 0x1F NOT PUSH1 0x1F DUP3 ADD AND DUP3 ADD DUP1 PUSH1 0x40 MSTORE POP DUP2 ADD SWAP1 PUSH2 0x270 SWAP2 SWAP1 PUSH2 0xB59 JUMP JUMPDEST SWAP2 POP SWAP2 POP PUSH1 0x0 DUP1 DUP9 GT PUSH2 0x283 JUMPI DUP2 PUSH2 0x285 JUMP JUMPDEST DUP3 JUMPDEST SWAP1 POP PUSH1 0x0 DUP1 PUSH2 0x296 DUP8 DUP10 ADD DUP10 PUSH2 0xCE9 JUMP JUMPDEST SWAP2 POP SWAP2 POP PUSH1 0x0 DUP3 DUP5 PUSH20 0xFFFFFFFFFFFFFFFFFFFFFFFFFFFFFFFFFFFFFFFF AND PUSH4 0x70A08231 ADDRESS PUSH1 0x40 MLOAD DUP3 PUSH4 0xFFFFFFFF AND PUSH1 0xE0 SHL DUP2 MSTORE PUSH1 0x4 ADD PUSH2 0x2D6 SWAP2 SWAP1 PUSH2 0xD7E JUMP JUMPDEST PUSH1 0x20 PUSH1 0x40 MLOAD DUP1 DUP4 SUB DUP2 DUP7 DUP1 EXTCODESIZE ISZERO DUP1 ISZERO PUSH2 0x2EE JUMPI PUSH1 0x0 DUP1 REVERT JUMPDEST POP GAS STATICCALL ISZERO DUP1 ISZERO PUSH2 0x302 JUMPI RETURNDATASIZE PUSH1 0x0 DUP1 RETURNDATACOPY RETURNDATASIZE PUSH1 0x0 REVERT JUMPDEST POP POP POP POP PUSH1 0x40 MLOAD RETURNDATASIZE PUSH1 0x1F NOT PUSH1 0x1F DUP3 ADD AND DUP3 ADD DUP1 PUSH1 0x40 MSTORE POP DUP2 ADD SWAP1 PUSH2 0x326 SWAP2 SWAP1 PUSH2 0xCD1 JUMP JUMPDEST SUB SWAP1 POP DUP2 DUP2 EQ PUSH2 0x39E JUMPI PUSH1 0x40 DUP1 MLOAD DUP1 DUP3 ADD DUP3 MSTORE PUSH1 0x3 DUP2 MSTORE PUSH32 0x464F540000000000000000000000000000000000000000000000000000000000 PUSH1 0x20 DUP3 ADD MSTORE SWAP1 MLOAD PUSH32 0x8C379A000000000000000000000000000000000000000000000000000000000 DUP2 MSTORE PUSH2 0x395 SWAP2 SWAP1 PUSH1 0x4 ADD PUSH2 0xDFE JUMP JUMPDEST PUSH1 0x40 MLOAD DUP1 SWAP2 SUB SWAP1 REVERT JUMPDEST PUSH1 0x40 MLOAD PUSH32 0x8C379A000000000000000000000000000000000000000000000000000000000 DUP2 MSTORE PUSH1 0x4 ADD PUSH2 0x395 SWAP1 PUSH2 0xE11 JUMP JUMPDEST PUSH32 0x0 DUP2 JUMP JUMPDEST PUSH32 0x0 DUP2 JUMP JUMPDEST PUSH1 0x60 DUP5 PUSH8 0xFFFFFFFFFFFFFFFF DUP2 GT DUP1 ISZERO PUSH2 0x431 JUMPI PUSH1 0x0 DUP1 REVERT JUMPDEST POP PUSH1 0x40 MLOAD SWAP1 DUP1 DUP3 MSTORE DUP1 PUSH1 0x20 MUL PUSH1 0x20 ADD DUP3 ADD PUSH1 0x40 MSTORE DUP1 ISZERO PUSH2 0x45B JUMPI DUP2 PUSH1 0x20 ADD PUSH1 0x20 DUP3 MUL DUP1 CALLDATASIZE DUP4 CALLDATACOPY ADD SWAP1 POP JUMPDEST POP SWAP1 POP PUSH1 0x0 JUMPDEST DUP6 DUP2 LT ISZERO PUSH2 0x4CC JUMPI PUSH2 0x495 DUP8 DUP8 DUP4 DUP2 DUP2 LT PUSH2 0x478 JUMPI INVALID JUMPDEST SWAP1 POP PUSH1 0x20 MUL ADD PUSH1 0x20 DUP2 ADD SWAP1 PUSH2 0x48D SWAP2 SWAP1 PUSH2 0xB3D JUMP JUMPDEST DUP7 DUP7 DUP7 PUSH2 0xE7 JUMP JUMPDEST DUP3 DUP3 DUP2 MLOAD DUP2 LT PUSH2 0x4A1 JUMPI INVALID JUMPDEST PUSH1 0x20 MUL PUSH1 0x20 ADD ADD SWAP1 PUSH1 0x2 DUP2 GT ISZERO PUSH2 0x4B4 JUMPI INVALID JUMPDEST SWAP1 DUP2 PUSH1 0x2 DUP2 GT ISZERO PUSH2 0x4C1 JUMPI INVALID JUMPDEST SWAP1 MSTORE POP PUSH1 0x1 ADD PUSH2 0x461 JUMP JUMPDEST POP SWAP6 SWAP5 POP POP POP POP POP JUMP JUMPDEST PUSH1 0x0 DUP3 PUSH20 0xFFFFFFFFFFFFFFFFFFFFFFFFFFFFFFFFFFFFFFFF AND DUP5 PUSH20 0xFFFFFFFFFFFFFFFFFFFFFFFFFFFFFFFFFFFFFFFF AND EQ ISZERO PUSH2 0x514 JUMPI POP PUSH1 0x0 PUSH2 0x895 JUMP JUMPDEST PUSH1 0x0 PUSH2 0x59E ADDRESS PUSH20 0xFFFFFFFFFFFFFFFFFFFFFFFFFFFFFFFFFFFFFFFF AND PUSH4 0x68E0D4E1 PUSH1 0x40 MLOAD DUP2 PUSH4 0xFFFFFFFF AND PUSH1 0xE0 SHL DUP2 MSTORE PUSH1 0x4 ADD PUSH1 0x20 PUSH1 0x40 MLOAD DUP1 DUP4 SUB DUP2 DUP7 DUP1 EXTCODESIZE ISZERO DUP1 ISZERO PUSH2 0x55F JUMPI PUSH1 0x0 DUP1 REVERT JUMPDEST POP GAS STATICCALL ISZERO DUP1 ISZERO PUSH2 0x573 JUMPI RETURNDATASIZE PUSH1 0x0 DUP1 RETURNDATACOPY RETURNDATASIZE PUSH1 0x0 REVERT JUMPDEST POP POP POP POP PUSH1 0x40 MLOAD RETURNDATASIZE PUSH1 0x1F NOT PUSH1 0x1F DUP3 ADD AND DUP3 ADD DUP1 PUSH1 0x40 MSTORE POP DUP2 ADD SWAP1 PUSH2 0x597 SWAP2 SWAP1 PUSH2 0xB59 JUMP JUMPDEST DUP7 DUP7 PUSH2 0x89C JUMP JUMPDEST PUSH1 0x40 DUP1 MLOAD PUSH1 0x4 DUP2 MSTORE PUSH1 0x24 DUP2 ADD DUP3 MSTORE PUSH1 0x20 DUP2 ADD DUP1 MLOAD PUSH28 0xFFFFFFFFFFFFFFFFFFFFFFFFFFFFFFFFFFFFFFFFFFFFFFFFFFFFFFFF AND PUSH32 0xDFE168100000000000000000000000000000000000000000000000000000000 OR SWAP1 MSTORE SWAP1 MLOAD SWAP2 SWAP3 POP PUSH1 0x0 SWAP2 PUSH20 0xFFFFFFFFFFFFFFFFFFFFFFFFFFFFFFFFFFFFFFFF DUP5 AND SWAP2 PUSH2 0x61D SWAP2 PUSH2 0xD62 JUMP JUMPDEST PUSH1 0x0 PUSH1 0x40 MLOAD DUP1 DUP4 SUB DUP2 PUSH1 0x0 DUP7 GAS CALL SWAP2 POP POP RETURNDATASIZE DUP1 PUSH1 0x0 DUP2 EQ PUSH2 0x65A JUMPI PUSH1 0x40 MLOAD SWAP2 POP PUSH1 0x1F NOT PUSH1 0x3F RETURNDATASIZE ADD AND DUP3 ADD PUSH1 0x40 MSTORE RETURNDATASIZE DUP3 MSTORE RETURNDATASIZE PUSH1 0x0 PUSH1 0x20 DUP5 ADD RETURNDATACOPY PUSH2 0x65F JUMP JUMPDEST PUSH1 0x60 SWAP2 POP JUMPDEST POP SWAP2 POP POP DUP1 MLOAD PUSH1 0x0 EQ ISZERO PUSH2 0x678 JUMPI PUSH1 0x0 SWAP3 POP POP POP PUSH2 0x895 JUMP JUMPDEST PUSH1 0x0 DUP2 DUP1 PUSH1 0x20 ADD SWAP1 MLOAD DUP2 ADD SWAP1 PUSH2 0x68E SWAP2 SWAP1 PUSH2 0xB59 JUMP JUMPDEST SWAP1 POP PUSH1 0x0 DUP1 DUP3 PUSH20 0xFFFFFFFFFFFFFFFFFFFFFFFFFFFFFFFFFFFFFFFF AND DUP10 PUSH20 0xFFFFFFFFFFFFFFFFFFFFFFFFFFFFFFFFFFFFFFFF AND EQ PUSH2 0x6CE JUMPI PUSH1 0x0 DUP8 PUSH2 0x6D2 JUMP JUMPDEST DUP7 PUSH1 0x0 JUMPDEST SWAP2 POP SWAP2 POP PUSH1 0x0 DUP10 PUSH20 0xFFFFFFFFFFFFFFFFFFFFFFFFFFFFFFFFFFFFFFFF AND PUSH4 0x70A08231 ADDRESS PUSH1 0x40 MLOAD DUP3 PUSH4 0xFFFFFFFF AND PUSH1 0xE0 SHL DUP2 MSTORE PUSH1 0x4 ADD PUSH2 0x711 SWAP2 SWAP1 PUSH2 0xD7E JUMP JUMPDEST PUSH1 0x20 PUSH1 0x40 MLOAD DUP1 DUP4 SUB DUP2 DUP7 DUP1 EXTCODESIZE ISZERO DUP1 ISZERO PUSH2 0x729 JUMPI PUSH1 0x0 DUP1 REVERT JUMPDEST POP GAS STATICCALL ISZERO DUP1 ISZERO PUSH2 0x73D JUMPI RETURNDATASIZE PUSH1 0x0 DUP1 RETURNDATACOPY RETURNDATASIZE PUSH1 0x0 REVERT JUMPDEST POP POP POP POP PUSH1 0x40 MLOAD RETURNDATASIZE PUSH1 0x1F NOT PUSH1 0x1F DUP3 ADD AND DUP3 ADD DUP1 PUSH1 0x40 MSTORE POP DUP2 ADD SWAP1 PUSH2 0x761 SWAP2 SWAP1 PUSH2 0xCD1 JUMP JUMPDEST SWAP1 POP PUSH1 0x0 DUP7 SWAP1 POP DUP1 PUSH20 0xFFFFFFFFFFFFFFFFFFFFFFFFFFFFFFFFFFFFFFFF AND PUSH4 0x22C0D9F DUP6 DUP6 ADDRESS DUP7 DUP15 PUSH1 0x40 MLOAD PUSH1 0x20 ADD PUSH2 0x79A SWAP3 SWAP2 SWAP1 PUSH2 0xE7F JUMP JUMPDEST PUSH1 0x40 MLOAD PUSH1 0x20 DUP2 DUP4 SUB SUB DUP2 MSTORE SWAP1 PUSH1 0x40 MSTORE PUSH1 0x40 MLOAD DUP6 PUSH4 0xFFFFFFFF AND PUSH1 0xE0 SHL DUP2 MSTORE PUSH1 0x4 ADD PUSH2 0x7C8 SWAP5 SWAP4 SWAP3 SWAP2 SWAP1 PUSH2 0xE8D JUMP JUMPDEST PUSH1 0x0 PUSH1 0x40 MLOAD DUP1 DUP4 SUB DUP2 PUSH1 0x0 DUP8 DUP1 EXTCODESIZE ISZERO DUP1 ISZERO PUSH2 0x7E2 JUMPI PUSH1 0x0 DUP1 REVERT JUMPDEST POP GAS CALL SWAP3 POP POP POP DUP1 ISZERO PUSH2 0x7F3 JUMPI POP PUSH1 0x1 JUMPDEST PUSH2 0x863 JUMPI PUSH2 0x7FF PUSH2 0xF08 JUMP JUMPDEST DUP1 PUSH2 0x80A JUMPI POP PUSH2 0x859 JUMP JUMPDEST PUSH2 0x813 DUP2 PUSH2 0x987 JUMP JUMPDEST ISZERO PUSH2 0x829 JUMPI PUSH1 0x1 SWAP9 POP POP POP POP POP POP POP POP POP PUSH2 0x895 JUMP JUMPDEST PUSH2 0x832 DUP2 PUSH2 0x9EA JUMP JUMPDEST ISZERO PUSH2 0x848 JUMPI PUSH1 0x2 SWAP9 POP POP POP POP POP POP POP POP POP PUSH2 0x895 JUMP JUMPDEST PUSH1 0x0 SWAP9 POP POP POP POP POP POP POP POP POP PUSH2 0x895 JUMP JUMPDEST RETURNDATASIZE PUSH1 0x0 DUP1 RETURNDATACOPY RETURNDATASIZE PUSH1 0x0 REVERT JUMPDEST PUSH1 0x40 MLOAD PUSH32 0x8C379A000000000000000000000000000000000000000000000000000000000 DUP2 MSTORE PUSH1 0x4 ADD PUSH2 0x395 SWAP1 PUSH2 0xE48 JUMP JUMPDEST SWAP4 SWAP3 POP POP POP JUMP JUMPDEST PUSH1 0x0 DUP1 PUSH1 0x0 PUSH2 0x8AB DUP6 DUP6 PUSH2 0xA56 JUMP JUMPDEST PUSH1 0x40 DUP1 MLOAD PUSH32 0xFFFFFFFFFFFFFFFFFFFFFFFFFFFFFFFFFFFFFFFF000000000000000000000000 PUSH1 0x60 SWAP5 DUP6 SHL DUP2 AND PUSH1 0x20 DUP1 DUP5 ADD SWAP2 SWAP1 SWAP2 MSTORE SWAP4 DUP6 SHL DUP2 AND PUSH1 0x34 DUP4 ADD MSTORE DUP3 MLOAD PUSH1 0x28 DUP2 DUP5 SUB ADD DUP2 MSTORE PUSH1 0x48 DUP4 ADD DUP5 MSTORE DUP1 MLOAD SWAP1 DUP6 ADD KECCAK256 PUSH32 0xFF00000000000000000000000000000000000000000000000000000000000000 PUSH1 0x68 DUP5 ADD MSTORE SWAP11 SWAP1 SWAP5 SHL SWAP1 SWAP4 AND PUSH1 0x69 DUP5 ADD MSTORE PUSH1 0x7D DUP4 ADD SWAP9 SWAP1 SWAP9 MSTORE PUSH32 0x96E8AC4277198FF8B6F785478AA9A39F403CB768DD02CBEE326C3E7DA348845F PUSH1 0x9D DUP1 DUP5 ADD SWAP2 SWAP1 SWAP2 MSTORE DUP9 MLOAD DUP1 DUP5 SUB SWAP1 SWAP2 ADD DUP2 MSTORE PUSH1 0xBD SWAP1 SWAP3 ADD SWAP1 SWAP8 MSTORE DUP1 MLOAD SWAP7 ADD SWAP6 SWAP1 SWAP6 KECCAK256 SWAP6 SWAP5 POP POP POP POP POP JUMP JUMPDEST PUSH1 0x40 DUP1 MLOAD DUP1 DUP3 ADD SWAP1 SWAP2 MSTORE PUSH1 0x3 DUP2 MSTORE PUSH32 0x464F540000000000000000000000000000000000000000000000000000000000 PUSH1 0x20 SWAP2 DUP3 ADD MSTORE DUP2 MLOAD SWAP1 DUP3 ADD KECCAK256 PUSH32 0xD441C7CB74ABC94CC606C98870CA9174EF5B167B2F7FFED505658CF4574B003 EQ JUMPDEST SWAP2 SWAP1 POP JUMP JUMPDEST PUSH1 0x40 DUP1 MLOAD DUP1 DUP3 ADD SWAP1 SWAP2 MSTORE PUSH1 0xF DUP1 DUP3 MSTORE PUSH32 0x5452414E534645525F4641494C45440000000000000000000000000000000000 PUSH1 0x20 DUP4 ADD MSTORE DUP3 MLOAD PUSH1 0x0 SWAP3 SWAP2 DUP1 DUP3 LT ISZERO PUSH2 0xA39 JUMPI PUSH1 0x0 SWAP4 POP POP POP POP PUSH2 0x9E5 JUMP JUMPDEST PUSH1 0x20 SWAP3 DUP4 ADD DUP2 SWAP1 KECCAK256 SWAP2 DUP2 SWAP1 SUB DUP6 ADD SWAP1 SWAP3 ADD SWAP2 SWAP1 SWAP2 KECCAK256 EQ SWAP1 POP SWAP2 SWAP1 POP JUMP JUMPDEST PUSH1 0x0 DUP1 DUP3 PUSH20 0xFFFFFFFFFFFFFFFFFFFFFFFFFFFFFFFFFFFFFFFF AND DUP5 PUSH20 0xFFFFFFFFFFFFFFFFFFFFFFFFFFFFFFFFFFFFFFFF AND EQ ISZERO PUSH2 0xA92 JUMPI PUSH1 0x0 DUP1 REVERT JUMPDEST DUP3 PUSH20 0xFFFFFFFFFFFFFFFFFFFFFFFFFFFFFFFFFFFFFFFF AND DUP5 PUSH20 0xFFFFFFFFFFFFFFFFFFFFFFFFFFFFFFFFFFFFFFFF AND LT PUSH2 0xACC JUMPI DUP3 DUP5 PUSH2 0xACF JUMP JUMPDEST DUP4 DUP4 JUMPDEST SWAP1 SWAP3 POP SWAP1 POP PUSH20 0xFFFFFFFFFFFFFFFFFFFFFFFFFFFFFFFFFFFFFFFF DUP3 AND PUSH2 0xAF4 JUMPI PUSH1 0x0 DUP1 REVERT JUMPDEST SWAP3 POP SWAP3 SWAP1 POP JUMP JUMPDEST PUSH1 0x0 DUP1 DUP4 PUSH1 0x1F DUP5 ADD SLT PUSH2 0xB0C JUMPI DUP2 DUP3 REVERT JUMPDEST POP DUP2 CALLDATALOAD PUSH8 0xFFFFFFFFFFFFFFFF DUP2 GT ISZERO PUSH2 0xB23 JUMPI DUP2 DUP3 REVERT JUMPDEST PUSH1 0x20 DUP4 ADD SWAP2 POP DUP4 PUSH1 0x20 DUP1 DUP4 MUL DUP6 ADD ADD GT ISZERO PUSH2 0xAF4 JUMPI PUSH1 0x0 DUP1 REVERT JUMPDEST PUSH1 0x0 PUSH1 0x20 DUP3 DUP5 SUB SLT ISZERO PUSH2 0xB4E JUMPI DUP1 DUP2 REVERT JUMPDEST DUP2 CALLDATALOAD PUSH2 0x895 DUP2 PUSH2 0xFEA JUMP JUMPDEST PUSH1 0x0 PUSH1 0x20 DUP3 DUP5 SUB SLT ISZERO PUSH2 0xB6A JUMPI DUP1 DUP2 REVERT JUMPDEST DUP2 MLOAD PUSH2 0x895 DUP2 PUSH2 0xFEA JUMP JUMPDEST PUSH1 0x0 DUP1 PUSH1 0x0 DUP1 PUSH1 0x60 DUP6 DUP8 SUB SLT ISZERO PUSH2 0xB8A JUMPI DUP3 DUP4 REVERT JUMPDEST DUP5 CALLDATALOAD PUSH2 0xB95 DUP2 PUSH2 0xFEA JUMP JUMPDEST SWAP4 POP PUSH1 0x20 DUP6 ADD CALLDATALOAD PUSH8 0xFFFFFFFFFFFFFFFF DUP2 GT ISZERO PUSH2 0xBB0 JUMPI DUP4 DUP5 REVERT JUMPDEST PUSH2 0xBBC DUP8 DUP3 DUP9 ADD PUSH2 0xAFB JUMP JUMPDEST SWAP6 SWAP9 SWAP1 SWAP8 POP SWAP5 SWAP6 PUSH1 0x40 ADD CALLDATALOAD SWAP5 SWAP4 POP POP POP POP JUMP JUMPDEST PUSH1 0x0 DUP1 PUSH1 0x0 DUP1 PUSH1 0x0 PUSH1 0x80 DUP7 DUP9 SUB SLT ISZERO PUSH2 0xBE6 JUMPI DUP1 DUP2 REVERT JUMPDEST DUP6 CALLDATALOAD PUSH2 0xBF1 DUP2 PUSH2 0xFEA JUMP JUMPDEST SWAP5 POP PUSH1 0x20 DUP7 ADD CALLDATALOAD SWAP4 POP PUSH1 0x40 DUP7 ADD CALLDATALOAD SWAP3 POP PUSH1 0x60 DUP7 ADD CALLDATALOAD PUSH8 0xFFFFFFFFFFFFFFFF DUP1 DUP3 GT ISZERO PUSH2 0xC1B JUMPI DUP3 DUP4 REVERT JUMPDEST DUP2 DUP9 ADD SWAP2 POP DUP9 PUSH1 0x1F DUP4 ADD SLT PUSH2 0xC2E JUMPI DUP3 DUP4 REVERT JUMPDEST DUP2 CALLDATALOAD DUP2 DUP2 GT ISZERO PUSH2 0xC3C JUMPI DUP4 DUP5 REVERT JUMPDEST DUP10 PUSH1 0x20 DUP3 DUP6 ADD ADD GT ISZERO PUSH2 0xC4D JUMPI DUP4 DUP5 REVERT JUMPDEST SWAP7 SWAP10 SWAP6 SWAP9 POP SWAP4 SWAP7 POP PUSH1 0x20 ADD SWAP5 SWAP4 SWAP3 POP POP POP JUMP JUMPDEST PUSH1 0x0 DUP1 PUSH1 0x0 DUP1 PUSH1 0x0 PUSH1 0x60 DUP7 DUP9 SUB SLT ISZERO PUSH2 0xC77 JUMPI DUP1 DUP2 REVERT JUMPDEST DUP6 CALLDATALOAD PUSH8 0xFFFFFFFFFFFFFFFF DUP1 DUP3 GT ISZERO PUSH2 0xC8E JUMPI DUP3 DUP4 REVERT JUMPDEST PUSH2 0xC9A DUP10 DUP4 DUP11 ADD PUSH2 0xAFB JUMP JUMPDEST SWAP1 SWAP8 POP SWAP6 POP PUSH1 0x20 DUP9 ADD CALLDATALOAD SWAP2 POP DUP1 DUP3 GT ISZERO PUSH2 0xCB2 JUMPI DUP3 DUP4 REVERT JUMPDEST POP PUSH2 0xCBF DUP9 DUP3 DUP10 ADD PUSH2 0xAFB JUMP JUMPDEST SWAP7 SWAP10 SWAP6 SWAP9 POP SWAP7 PUSH1 0x40 ADD CALLDATALOAD SWAP5 SWAP4 POP POP POP POP JUMP JUMPDEST PUSH1 0x0 PUSH1 0x20 DUP3 DUP5 SUB SLT ISZERO PUSH2 0xCE2 JUMPI DUP1 DUP2 REVERT JUMPDEST POP MLOAD SWAP2 SWAP1 POP JUMP JUMPDEST PUSH1 0x0 DUP1 PUSH1 0x40 DUP4 DUP6 SUB SLT ISZERO PUSH2 0xCFB JUMPI DUP2 DUP3 REVERT JUMPDEST POP POP DUP1 CALLDATALOAD SWAP3 PUSH1 0x20 SWAP1 SWAP2 ADD CALLDATALOAD SWAP2 POP JUMP JUMPDEST PUSH1 0x0 DUP2 MLOAD DUP1 DUP5 MSTORE PUSH2 0xD22 DUP2 PUSH1 0x20 DUP7 ADD PUSH1 0x20 DUP7 ADD PUSH2 0xED2 JUMP JUMPDEST PUSH1 0x1F ADD PUSH32 0xFFFFFFFFFFFFFFFFFFFFFFFFFFFFFFFFFFFFFFFFFFFFFFFFFFFFFFFFFFFFFFE0 AND SWAP3 SWAP1 SWAP3 ADD PUSH1 0x20 ADD SWAP3 SWAP2 POP POP JUMP JUMPDEST PUSH1 0x3 DUP2 LT PUSH2 0xD5E JUMPI INVALID JUMPDEST SWAP1 MSTORE JUMP JUMPDEST PUSH1 0x0 DUP3 MLOAD PUSH2 0xD74 DUP2 DUP5 PUSH1 0x20 DUP8 ADD PUSH2 0xED2 JUMP JUMPDEST SWAP2 SWAP1 SWAP2 ADD SWAP3 SWAP2 POP POP JUMP JUMPDEST PUSH20 0xFFFFFFFFFFFFFFFFFFFFFFFFFFFFFFFFFFFFFFFF SWAP2 SWAP1 SWAP2 AND DUP2 MSTORE PUSH1 0x20 ADD SWAP1 JUMP JUMPDEST PUSH1 0x20 DUP1 DUP3 MSTORE DUP3 MLOAD DUP3 DUP3 ADD DUP2 SWAP1 MSTORE PUSH1 0x0 SWAP2 SWAP1 DUP5 DUP3 ADD SWAP1 PUSH1 0x40 DUP6 ADD SWAP1 DUP5 JUMPDEST DUP2 DUP2 LT ISZERO PUSH2 0xDDE JUMPI PUSH2 0xDCE DUP4 DUP6 MLOAD PUSH2 0xD54 JUMP JUMPDEST SWAP3 DUP5 ADD SWAP3 SWAP2 DUP5 ADD SWAP2 PUSH1 0x1 ADD PUSH2 0xDBB JUMP JUMPDEST POP SWAP1 SWAP7 SWAP6 POP POP POP POP POP POP JUMP JUMPDEST PUSH1 0x20 DUP2 ADD PUSH2 0xDF8 DUP3 DUP5 PUSH2 0xD54 JUMP JUMPDEST SWAP3 SWAP2 POP POP JUMP JUMPDEST PUSH1 0x0 PUSH1 0x20 DUP3 MSTORE PUSH2 0x895 PUSH1 0x20 DUP4 ADD DUP5 PUSH2 0xD0A JUMP JUMPDEST PUSH1 0x20 DUP1 DUP3 MSTORE PUSH1 0x7 SWAP1 DUP3 ADD MSTORE PUSH32 0x556E6B6E6F776E00000000000000000000000000000000000000000000000000 PUSH1 0x40 DUP3 ADD MSTORE PUSH1 0x60 ADD SWAP1 JUMP JUMPDEST PUSH1 0x20 DUP1 DUP3 MSTORE PUSH1 0x10 SWAP1 DUP3 ADD MSTORE PUSH32 0x556E6578706563746564206572726F7200000000000000000000000000000000 PUSH1 0x40 DUP3 ADD MSTORE PUSH1 0x60 ADD SWAP1 JUMP JUMPDEST SWAP2 DUP3 MSTORE PUSH1 0x20 DUP3 ADD MSTORE PUSH1 0x40 ADD SWAP1 JUMP JUMPDEST PUSH1 0x0 DUP6 DUP3 MSTORE DUP5 PUSH1 0x20 DUP4 ADD MSTORE PUSH20 0xFFFFFFFFFFFFFFFFFFFFFFFFFFFFFFFFFFFFFFFF DUP5 AND PUSH1 0x40 DUP4 ADD MSTORE PUSH1 0x80 PUSH1 0x60 DUP4 ADD MSTORE PUSH2 0xEC8 PUSH1 0x80 DUP4 ADD DUP5 PUSH2 0xD0A JUMP JUMPDEST SWAP7 SWAP6 POP POP POP POP POP POP JUMP JUMPDEST PUSH1 0x0 JUMPDEST DUP4 DUP2 LT ISZERO PUSH2 0xEED JUMPI DUP2 DUP2 ADD MLOAD DUP4 DUP3 ADD MSTORE PUSH1 0x20 ADD PUSH2 0xED5 JUMP JUMPDEST DUP4 DUP2 GT ISZERO PUSH2 0xEFC JUMPI PUSH1 0x0 DUP5 DUP5 ADD MSTORE JUMPDEST POP POP POP POP JUMP JUMPDEST PUSH1 0xE0 SHR SWAP1 JUMP JUMPDEST PUSH1 0x0 PUSH1 0x44 RETURNDATASIZE LT ISZERO PUSH2 0xF18 JUMPI PUSH2 0xFE7 JUMP JUMPDEST PUSH1 0x4 DUP2 DUP3 RETURNDATACOPY PUSH4 0x8C379A0 PUSH2 0xF2C DUP3 MLOAD PUSH2 0xF02 JUMP JUMPDEST EQ PUSH2 0xF36 JUMPI PUSH2 0xFE7 JUMP JUMPDEST PUSH1 0x40 MLOAD PUSH32 0xFFFFFFFFFFFFFFFFFFFFFFFFFFFFFFFFFFFFFFFFFFFFFFFFFFFFFFFFFFFFFFFC RETURNDATASIZE ADD PUSH1 0x4 DUP3 RETURNDATACOPY DUP1 MLOAD RETURNDATASIZE PUSH8 0xFFFFFFFFFFFFFFFF DUP2 PUSH1 0x24 DUP5 ADD GT DUP2 DUP5 GT OR ISZERO PUSH2 0xF84 JUMPI POP POP POP POP PUSH2 0xFE7 JUMP JUMPDEST DUP3 DUP5 ADD SWAP3 POP DUP3 MLOAD SWAP2 POP DUP1 DUP3 GT ISZERO PUSH2 0xF9E JUMPI POP POP POP POP PUSH2 0xFE7 JUMP JUMPDEST POP RETURNDATASIZE DUP4 ADD PUSH1 0x20 DUP3 DUP5 ADD ADD GT ISZERO PUSH2 0xFB6 JUMPI POP POP POP PUSH2 0xFE7 JUMP JUMPDEST PUSH1 0x1F ADD PUSH32 0xFFFFFFFFFFFFFFFFFFFFFFFFFFFFFFFFFFFFFFFFFFFFFFFFFFFFFFFFFFFFFFE0 AND DUP2 ADD PUSH1 0x20 ADD PUSH1 0x40 MSTORE SWAP2 POP POP JUMPDEST SWAP1 JUMP JUMPDEST PUSH20 0xFFFFFFFFFFFFFFFFFFFFFFFFFFFFFFFFFFFFFFFF DUP2 AND DUP2 EQ PUSH2 0x100C JUMPI PUSH1 0x0 DUP1 REVERT JUMPDEST POP JUMP INVALID LOG1 PUSH5 0x736F6C6343 STOP SMOD MOD STOP EXP "},"methodIdentifiers":{"batchValidate(address[],address[],uint256)":"be7672e5","factoryV2()":"68e0d4e1","positionManager()":"791b98bc","uniswapV2Call(address,uint256,uint256,bytes)":"10d1e85c","validate(address,address[],uint256)":"0143aace"}}}}}