{
  "_format": "hh-sol-artifact-1",
  "contractName": "ERC1363ReceiverMock",
  "sourceName": "contracts/mocks/token/ERC1363ReceiverMock.sol",
  "abi": [
    {
      "inputs": [],
      "stateMutability": "nonpayable",
      "type": "constructor"
    },
    {
      "inputs": [
        {
          "internalType": "bytes4",
          "name": "",
          "type": "bytes4"
        }
      ],
      "name": "CustomError",
      "type": "error"
    },
    {
      "anonymous": false,
      "inputs": [
        {
          "indexed": false,
          "internalType": "address",
          "name": "operator",
          "type": "address"
        },
        {
          "indexed": false,
          "internalType": "address",
          "name": "from",
          "type": "address"
        },
        {
          "indexed": false,
          "internalType": "uint256",
          "name": "value",
          "type": "uint256"
        },
        {
          "indexed": false,
          "internalType": "bytes",
          "name": "data",
          "type": "bytes"
        }
      ],
      "name": "Received",
      "type": "event"
    },
    {
      "inputs": [
        {
          "internalType": "address",
          "name": "operator",
          "type": "address"
        },
        {
          "internalType": "address",
          "name": "from",
          "type": "address"
        },
        {
          "internalType": "uint256",
          "name": "value",
          "type": "uint256"
        },
        {
          "internalType": "bytes",
          "name": "data",
          "type": "bytes"
        }
      ],
      "name": "onTransferReceived",
      "outputs": [
        {
          "internalType": "bytes4",
          "name": "",
          "type": "bytes4"
        }
      ],
      "stateMutability": "nonpayable",
      "type": "function"
    },
    {
      "inputs": [
        {
          "internalType": "bytes4",
          "name": "retval",
          "type": "bytes4"
        },
        {
          "internalType": "enum ERC1363ReceiverMock.RevertType",
          "name": "error",
          "type": "uint8"
        }
      ],
      "name": "setUp",
      "outputs": [],
      "stateMutability": "nonpayable",
      "type": "function"
    }
  ],
  "bytecode": "0x608060405234801561000f575f80fd5b505f805464ffffffffff19166388a7ca5c1790556103dd806100305f395ff3fe608060405234801561000f575f80fd5b5060043610610034575f3560e01c8063793179851461003857806388a7ca5c1461004d575b5f80fd5b61004b61004636600461022e565b61007d565b005b61006061005b36600461028f565b6100be565b6040516001600160e01b0319909116815260200160405180910390f35b5f805460e084901c63ffffffff1982168117835583929164ffffffffff1916176401000000008360048111156100b5576100b5610322565b02179055505050565b5f60015f54640100000000900460ff1660048111156100df576100df610322565b036100e8575f80fd5b60025f54640100000000900460ff16600481111561010857610108610322565b0361015a5760405162461bcd60e51b815260206004820152601e60248201527f4552433133363352656365697665724d6f636b3a20726576657274696e67000060448201526064015b60405180910390fd5b60035f54640100000000900460ff16600481111561017a5761017a610322565b036101ae575f546040516301990d6f60e61b81526101519160e01b906004016001600160e01b031991909116815260200190565b60045f54640100000000900460ff1660048111156101ce576101ce610322565b036101e1575f6101de8180610336565b50505b7ed9411ae77b2bacabe5cbe62a2abdbeb78992a0182c6f3c83e0029c7615d6b68686868686604051610217959493929190610355565b60405180910390a1505f5460e01b95945050505050565b5f806040838503121561023f575f80fd5b82356001600160e01b031981168114610256575f80fd5b9150602083013560058110610269575f80fd5b809150509250929050565b80356001600160a01b038116811461028a575f80fd5b919050565b5f805f805f608086880312156102a3575f80fd5b6102ac86610274565b94506102ba60208701610274565b935060408601359250606086013567ffffffffffffffff808211156102dd575f80fd5b818801915088601f8301126102f0575f80fd5b8135818111156102fe575f80fd5b89602082850101111561030f575f80fd5b9699959850939650602001949392505050565b634e487b7160e01b5f52602160045260245ffd5b5f8261035057634e487b7160e01b5f52601260045260245ffd5b500490565b6001600160a01b038681168252851660208201526040810184905260806060820181905281018290525f828460a08401375f60a0848401015260a0601f19601f8501168301019050969550505050505056fea2646970667358221220930da55142f738331c3d45ae6373e069704169e7404f294bf9268766d53a012164736f6c63430008180033",
  "linkReferences": {},
  "deployedLinkReferences": {}
}