{
  "_format": "hh-sol-artifact-1",
  "contractName": "$SampleGramps",
  "sourceName": "contracts-exposed/mocks/MultipleInheritanceInitializableMocks.sol",
  "abi": [
    {
      "inputs": [
        {
          "internalType": "string",
          "name": "value",
          "type": "string"
        }
      ],
      "stateMutability": "payable",
      "type": "constructor"
    },
    {
      "inputs": [],
      "name": "InvalidInitialization",
      "type": "error"
    },
    {
      "inputs": [],
      "name": "NotInitializing",
      "type": "error"
    },
    {
      "anonymous": false,
      "inputs": [
        {
          "indexed": false,
          "internalType": "uint64",
          "name": "version",
          "type": "uint64"
        }
      ],
      "name": "Initialized",
      "type": "event"
    },
    {
      "inputs": [
        {
          "internalType": "string",
          "name": "value",
          "type": "string"
        }
      ],
      "name": "$__SampleGramps_init",
      "outputs": [],
      "stateMutability": "nonpayable",
      "type": "function"
    },
    {
      "inputs": [
        {
          "internalType": "string",
          "name": "value",
          "type": "string"
        }
      ],
      "name": "$__SampleGramps_init_unchained",
      "outputs": [],
      "stateMutability": "nonpayable",
      "type": "function"
    },
    {
      "inputs": [],
      "name": "$__SampleHuman_init",
      "outputs": [],
      "stateMutability": "nonpayable",
      "type": "function"
    },
    {
      "inputs": [],
      "name": "$__SampleHuman_init_unchained",
      "outputs": [],
      "stateMutability": "nonpayable",
      "type": "function"
    },
    {
      "inputs": [],
      "name": "$_checkInitializing",
      "outputs": [],
      "stateMutability": "view",
      "type": "function"
    },
    {
      "inputs": [],
      "name": "$_disableInitializers",
      "outputs": [],
      "stateMutability": "nonpayable",
      "type": "function"
    },
    {
      "inputs": [],
      "name": "$_getInitializedVersion",
      "outputs": [
        {
          "internalType": "uint64",
          "name": "ret0",
          "type": "uint64"
        }
      ],
      "stateMutability": "view",
      "type": "function"
    },
    {
      "inputs": [],
      "name": "$_isInitializing",
      "outputs": [
        {
          "internalType": "bool",
          "name": "ret0",
          "type": "bool"
        }
      ],
      "stateMutability": "view",
      "type": "function"
    },
    {
      "inputs": [],
      "name": "__hh_exposed_bytecode_marker",
      "outputs": [
        {
          "internalType": "bytes32",
          "name": "",
          "type": "bytes32"
        }
      ],
      "stateMutability": "view",
      "type": "function"
    },
    {
      "inputs": [],
      "name": "gramps",
      "outputs": [
        {
          "internalType": "string",
          "name": "",
          "type": "string"
        }
      ],
      "stateMutability": "view",
      "type": "function"
    },
    {
      "inputs": [],
      "name": "initialize",
      "outputs": [],
      "stateMutability": "nonpayable",
      "type": "function"
    },
    {
      "inputs": [
        {
          "internalType": "string",
          "name": "value",
          "type": "string"
        }
      ],
      "name": "initialize",
      "outputs": [],
      "stateMutability": "nonpayable",
      "type": "function"
    },
    {
      "inputs": [],
      "name": "isHuman",
      "outputs": [
        {
          "internalType": "bool",
          "name": "",
          "type": "bool"
        }
      ],
      "stateMutability": "view",
      "type": "function"
    },
    {
      "stateMutability": "payable",
      "type": "receive"
    }
  ],
  "bytecode": "0x608060405260405162000e2138038062000e21833981016040819052620000269162000216565b7ff0c57e16840df040f15088dc2f81fe391c3923bec73e23a9662efc9c229c6a00805468010000000000000000810460ff1615906001600160401b03165f81158015620000705750825b90505f826001600160401b031660011480156200008c5750303b155b9050811580156200009b575080155b15620000ba5760405163f92ee8a960e01b815260040160405180910390fd5b84546001600160401b03191660011785558315620000e957845460ff60401b1916680100000000000000001785555b620000f48662000147565b83156200013b57845460ff60401b19168555604051600181527fc7f505b2f371ae2175ee4913f4499e1f2633a7b5936321eed1cdaeb6115181d29060200160405180910390a15b5050505050506200043a565b6200015162000169565b6200015b620001ba565b6200016681620001ce565b50565b7ff0c57e16840df040f15088dc2f81fe391c3923bec73e23a9662efc9c229c6a005468010000000000000000900460ff16620001b857604051631afcd79f60e31b815260040160405180910390fd5b565b620001c462000169565b620001b8620001ea565b620001d862000169565b6001620001e682826200036e565b5050565b620001f462000169565b5f805460ff19166001179055565b634e487b7160e01b5f52604160045260245ffd5b5f602080838503121562000228575f80fd5b82516001600160401b03808211156200023f575f80fd5b818501915085601f83011262000253575f80fd5b81518181111562000268576200026862000202565b604051601f8201601f19908116603f0116810190838211818310171562000293576200029362000202565b816040528281528886848701011115620002ab575f80fd5b5f93505b82841015620002ce5784840186015181850187015292850192620002af565b5f86848301015280965050505050505092915050565b600181811c90821680620002f957607f821691505b6020821081036200031857634e487b7160e01b5f52602260045260245ffd5b50919050565b601f8211156200036957805f5260205f20601f840160051c81016020851015620003455750805b601f840160051c820191505b8181101562000366575f815560010162000351565b50505b505050565b81516001600160401b038111156200038a576200038a62000202565b620003a2816200039b8454620002e4565b846200031e565b602080601f831160018114620003d8575f8415620003c05750858301515b5f19600386901b1c1916600185901b17855562000432565b5f85815260208120601f198616915b828110156200040857888601518255948401946001909101908401620003e7565b50858210156200042657878501515f19600388901b60f8161c191681555b505060018460011b0185555b505050505050565b6109d980620004485f395ff3fe6080604052600436106100c2575f3560e01c80638129fc1c1161007c578063f5f1bec011610057578063f5f1bec014610200578063f62d188814610214578063fa171c9214610233578063fa39851f14610247575f80fd5b80638129fc1c146101ae578063c9eb0571146101c2578063e883dee8146101ec575f80fd5b8063342db739146100cd5780633e114d00146101055780634457e6d5146101265780634a6c9db6146101455780634fd5303d1461016d5780636e33593e1461019a575f80fd5b366100c957005b5f80fd5b3480156100d8575f80fd5b506100f26e1a185c991a185d0b595e1c1bdcd959608a1b81565b6040519081526020015b60405180910390f35b348015610110575f80fd5b5061012461011f3660046106cf565b610268565b005b348015610131575f80fd5b506101246101403660046106cf565b6102aa565b348015610150575f80fd5b505f5461015d9060ff1681565b60405190151581526020016100fc565b348015610178575f80fd5b506101816102e8565b60405167ffffffffffffffff90911681526020016100fc565b3480156101a5575f80fd5b5061012461030d565b3480156101b9575f80fd5b50610124610317565b3480156101cd575f80fd5b505f8051602061098483398151915254600160401b900460ff1661015d565b3480156101f7575f80fd5b50610124610410565b34801561020b575f80fd5b50610124610418565b34801561021f575f80fd5b5061012461022e36600461074f565b610420565b34801561023e575f80fd5b5061012461051b565b348015610252575f80fd5b5061025b610523565b6040516100fc91906107fa565b6102a682828080601f0160208091040260200160405190810160405280939291908181526020018383808284375f920191909152506105af92505050565b5050565b6102a682828080601f0160208091040260200160405190810160405280939291908181526020018383808284375f920191909152506105cb92505050565b5f6103085f805160206109848339815191525467ffffffffffffffff1690565b905090565b6103156105df565b565b5f805160206109848339815191528054600160401b810460ff16159067ffffffffffffffff165f811580156103495750825b90505f8267ffffffffffffffff1660011480156103655750303b155b905081158015610373575080155b156103915760405163f92ee8a960e01b815260040160405180910390fd5b845467ffffffffffffffff1916600117855583156103bb57845460ff60401b1916600160401b1785555b6103c36105f5565b831561040957845460ff60401b19168555604051600181527fc7f505b2f371ae2175ee4913f4499e1f2633a7b5936321eed1cdaeb6115181d29060200160405180910390a15b5050505050565b6103156105f5565b6103156105fd565b5f805160206109848339815191528054600160401b810460ff16159067ffffffffffffffff165f811580156104525750825b90505f8267ffffffffffffffff16600114801561046e5750303b155b90508115801561047c575080155b1561049a5760405163f92ee8a960e01b815260040160405180910390fd5b845467ffffffffffffffff1916600117855583156104c457845460ff60401b1916600160401b1785555b6104cd866105af565b831561051357845460ff60401b19168555604051600181527fc7f505b2f371ae2175ee4913f4499e1f2633a7b5936321eed1cdaeb6115181d29060200160405180910390a15b505050505050565b610315610699565b6001805461053090610846565b80601f016020809104026020016040519081016040528092919081815260200182805461055c90610846565b80156105a75780601f1061057e576101008083540402835291602001916105a7565b820191905f5260205f20905b81548152906001019060200180831161058a57829003601f168201915b505050505081565b6105b7610699565b6105bf6105f5565b6105c8816105cb565b50565b6105d3610699565b60016102a682826108c7565b6105e7610699565b5f805460ff19166001179055565b61030d610699565b5f805160206109848339815191528054600160401b900460ff16156106355760405163f92ee8a960e01b815260040160405180910390fd5b805467ffffffffffffffff908116146105c857805467ffffffffffffffff191667ffffffffffffffff90811782556040519081527fc7f505b2f371ae2175ee4913f4499e1f2633a7b5936321eed1cdaeb6115181d29060200160405180910390a150565b5f8051602061098483398151915254600160401b900460ff1661031557604051631afcd79f60e31b815260040160405180910390fd5b5f80602083850312156106e0575f80fd5b823567ffffffffffffffff808211156106f7575f80fd5b818501915085601f83011261070a575f80fd5b813581811115610718575f80fd5b866020828501011115610729575f80fd5b60209290920196919550909350505050565b634e487b7160e01b5f52604160045260245ffd5b5f6020828403121561075f575f80fd5b813567ffffffffffffffff80821115610776575f80fd5b818401915084601f830112610789575f80fd5b81358181111561079b5761079b61073b565b604051601f8201601f19908116603f011681019083821181831017156107c3576107c361073b565b816040528281528760208487010111156107db575f80fd5b826020860160208301375f928101602001929092525095945050505050565b5f602080835283518060208501525f5b818110156108265785810183015185820160400152820161080a565b505f604082860101526040601f19601f8301168501019250505092915050565b600181811c9082168061085a57607f821691505b60208210810361087857634e487b7160e01b5f52602260045260245ffd5b50919050565b601f8211156108c257805f5260205f20601f840160051c810160208510156108a35750805b601f840160051c820191505b81811015610409575f81556001016108af565b505050565b815167ffffffffffffffff8111156108e1576108e161073b565b6108f5816108ef8454610846565b8461087e565b602080601f831160018114610928575f84156109115750858301515b5f19600386901b1c1916600185901b178555610513565b5f85815260208120601f198616915b8281101561095657888601518255948401946001909101908401610937565b508582101561097357878501515f19600388901b60f8161c191681555b5050505050600190811b0190555056fef0c57e16840df040f15088dc2f81fe391c3923bec73e23a9662efc9c229c6a00a2646970667358221220915df2a7ce431b20443cecac5d9cc38bc04053c8e1e4eb0a1bcf62bed3ce32fd64736f6c63430008180033",
  "linkReferences": {},
  "deployedLinkReferences": {}
}