{
  "_format": "hh-sol-artifact-1",
  "contractName": "$SampleMother",
  "sourceName": "contracts-exposed/mocks/MultipleInheritanceInitializableMocks.sol",
  "abi": [
    {
      "inputs": [
        {
          "internalType": "uint256",
          "name": "value",
          "type": "uint256"
        }
      ],
      "stateMutability": "payable",
      "type": "constructor"
    },
    {
      "inputs": [],
      "name": "InvalidInitialization",
      "type": "error"
    },
    {
      "inputs": [],
      "name": "NotInitializing",
      "type": "error"
    },
    {
      "anonymous": false,
      "inputs": [
        {
          "indexed": false,
          "internalType": "uint64",
          "name": "version",
          "type": "uint64"
        }
      ],
      "name": "Initialized",
      "type": "event"
    },
    {
      "inputs": [],
      "name": "$__SampleHuman_init",
      "outputs": [],
      "stateMutability": "nonpayable",
      "type": "function"
    },
    {
      "inputs": [],
      "name": "$__SampleHuman_init_unchained",
      "outputs": [],
      "stateMutability": "nonpayable",
      "type": "function"
    },
    {
      "inputs": [
        {
          "internalType": "uint256",
          "name": "value",
          "type": "uint256"
        }
      ],
      "name": "$__SampleMother_init",
      "outputs": [],
      "stateMutability": "nonpayable",
      "type": "function"
    },
    {
      "inputs": [
        {
          "internalType": "uint256",
          "name": "value",
          "type": "uint256"
        }
      ],
      "name": "$__SampleMother_init_unchained",
      "outputs": [],
      "stateMutability": "nonpayable",
      "type": "function"
    },
    {
      "inputs": [],
      "name": "$_checkInitializing",
      "outputs": [],
      "stateMutability": "view",
      "type": "function"
    },
    {
      "inputs": [],
      "name": "$_disableInitializers",
      "outputs": [],
      "stateMutability": "nonpayable",
      "type": "function"
    },
    {
      "inputs": [],
      "name": "$_getInitializedVersion",
      "outputs": [
        {
          "internalType": "uint64",
          "name": "ret0",
          "type": "uint64"
        }
      ],
      "stateMutability": "view",
      "type": "function"
    },
    {
      "inputs": [],
      "name": "$_isInitializing",
      "outputs": [
        {
          "internalType": "bool",
          "name": "ret0",
          "type": "bool"
        }
      ],
      "stateMutability": "view",
      "type": "function"
    },
    {
      "inputs": [],
      "name": "__hh_exposed_bytecode_marker",
      "outputs": [
        {
          "internalType": "bytes32",
          "name": "",
          "type": "bytes32"
        }
      ],
      "stateMutability": "view",
      "type": "function"
    },
    {
      "inputs": [],
      "name": "initialize",
      "outputs": [],
      "stateMutability": "nonpayable",
      "type": "function"
    },
    {
      "inputs": [
        {
          "internalType": "uint256",
          "name": "value",
          "type": "uint256"
        }
      ],
      "name": "initialize",
      "outputs": [],
      "stateMutability": "nonpayable",
      "type": "function"
    },
    {
      "inputs": [],
      "name": "isHuman",
      "outputs": [
        {
          "internalType": "bool",
          "name": "",
          "type": "bool"
        }
      ],
      "stateMutability": "view",
      "type": "function"
    },
    {
      "inputs": [],
      "name": "mother",
      "outputs": [
        {
          "internalType": "uint256",
          "name": "",
          "type": "uint256"
        }
      ],
      "stateMutability": "view",
      "type": "function"
    },
    {
      "stateMutability": "payable",
      "type": "receive"
    }
  ],
  "bytecode": "0x6080604052604051610823380380610823833981016040819052610022916101d9565b7ff0c57e16840df040f15088dc2f81fe391c3923bec73e23a9662efc9c229c6a00805468010000000000000000810460ff1615906001600160401b03165f8115801561006b5750825b90505f826001600160401b031660011480156100865750303b155b905081158015610094575080155b156100b25760405163f92ee8a960e01b815260040160405180910390fd5b84546001600160401b031916600117855583156100e057845460ff60401b1916680100000000000000001785555b6100e98661013a565b831561012f57845460ff60401b19168555604051600181527fc7f505b2f371ae2175ee4913f4499e1f2633a7b5936321eed1cdaeb6115181d29060200160405180910390a15b5050505050506101f0565b610142610156565b61014a6101a6565b610153816101b6565b50565b7ff0c57e16840df040f15088dc2f81fe391c3923bec73e23a9662efc9c229c6a005468010000000000000000900460ff166101a457604051631afcd79f60e31b815260040160405180910390fd5b565b6101ae610156565b6101a46101c3565b6101be610156565b600155565b6101cb610156565b5f805460ff19166001179055565b5f602082840312156101e9575f80fd5b5051919050565b610626806101fd5f395ff3fe6080604052600436106100c2575f3560e01c80638129fc1c1161007c578063ed7dfee311610057578063ed7dfee314610200578063f5f1bec014610215578063fa171c9214610229578063fe4b84df1461023d575f80fd5b80638129fc1c146101ae578063c9eb0571146101c2578063e883dee8146101ec575f80fd5b806316c9da3b146100cd578063342db739146100ee5780634a6c9db6146101265780634fd5303d1461014e5780636b1da91a1461017b5780636e33593e1461019a575f80fd5b366100c957005b5f80fd5b3480156100d8575f80fd5b506100ec6100e73660046105b9565b61025c565b005b3480156100f9575f80fd5b506101136e1a185c991a185d0b595e1c1bdcd959608a1b81565b6040519081526020015b60405180910390f35b348015610131575f80fd5b505f5461013e9060ff1681565b604051901515815260200161011d565b348015610159575f80fd5b50610162610268565b60405167ffffffffffffffff909116815260200161011d565b348015610186575f80fd5b506100ec6101953660046105b9565b61028d565b3480156101a5575f80fd5b506100ec610296565b3480156101b9575f80fd5b506100ec6102a0565b3480156101cd575f80fd5b505f805160206105d183398151915254600160401b900460ff1661013e565b3480156101f7575f80fd5b506100ec610399565b34801561020b575f80fd5b5061011360015481565b348015610220575f80fd5b506100ec6103a1565b348015610234575f80fd5b506100ec6103a9565b348015610248575f80fd5b506100ec6102573660046105b9565b6103b1565b610265816104ac565b50565b5f6102885f805160206105d18339815191525467ffffffffffffffff1690565b905090565b610265816104b9565b61029e6104c9565b565b5f805160206105d18339815191528054600160401b810460ff16159067ffffffffffffffff165f811580156102d25750825b90505f8267ffffffffffffffff1660011480156102ee5750303b155b9050811580156102fc575080155b1561031a5760405163f92ee8a960e01b815260040160405180910390fd5b845467ffffffffffffffff19166001178555831561034457845460ff60401b1916600160401b1785555b61034c6104df565b831561039257845460ff60401b19168555604051600181527fc7f505b2f371ae2175ee4913f4499e1f2633a7b5936321eed1cdaeb6115181d29060200160405180910390a15b5050505050565b61029e6104df565b61029e6104e7565b61029e610583565b5f805160206105d18339815191528054600160401b810460ff16159067ffffffffffffffff165f811580156103e35750825b90505f8267ffffffffffffffff1660011480156103ff5750303b155b90508115801561040d575080155b1561042b5760405163f92ee8a960e01b815260040160405180910390fd5b845467ffffffffffffffff19166001178555831561045557845460ff60401b1916600160401b1785555b61045e866104b9565b83156104a457845460ff60401b19168555604051600181527fc7f505b2f371ae2175ee4913f4499e1f2633a7b5936321eed1cdaeb6115181d29060200160405180910390a15b505050505050565b6104b4610583565b600155565b6104c1610583565b61025c6104df565b6104d1610583565b5f805460ff19166001179055565b610296610583565b5f805160206105d18339815191528054600160401b900460ff161561051f5760405163f92ee8a960e01b815260040160405180910390fd5b805467ffffffffffffffff9081161461026557805467ffffffffffffffff191667ffffffffffffffff90811782556040519081527fc7f505b2f371ae2175ee4913f4499e1f2633a7b5936321eed1cdaeb6115181d29060200160405180910390a150565b5f805160206105d183398151915254600160401b900460ff1661029e57604051631afcd79f60e31b815260040160405180910390fd5b5f602082840312156105c9575f80fd5b503591905056fef0c57e16840df040f15088dc2f81fe391c3923bec73e23a9662efc9c229c6a00a2646970667358221220786087f9a7b2ce6723022ff10942b007627805dffad9624bb2eef7c1583581a564736f6c63430008180033",
  "linkReferences": {},
  "deployedLinkReferences": {}
}