{
  "_format": "hh-sol-artifact-1",
  "contractName": "$SampleFather",
  "sourceName": "contracts-exposed/mocks/MultipleInheritanceInitializableMocks.sol",
  "abi": [
    {
      "inputs": [
        {
          "internalType": "string",
          "name": "_gramps",
          "type": "string"
        },
        {
          "internalType": "uint256",
          "name": "_father",
          "type": "uint256"
        }
      ],
      "stateMutability": "payable",
      "type": "constructor"
    },
    {
      "inputs": [],
      "name": "InvalidInitialization",
      "type": "error"
    },
    {
      "inputs": [],
      "name": "NotInitializing",
      "type": "error"
    },
    {
      "anonymous": false,
      "inputs": [
        {
          "indexed": false,
          "internalType": "uint64",
          "name": "version",
          "type": "uint64"
        }
      ],
      "name": "Initialized",
      "type": "event"
    },
    {
      "inputs": [
        {
          "internalType": "string",
          "name": "_gramps",
          "type": "string"
        },
        {
          "internalType": "uint256",
          "name": "_father",
          "type": "uint256"
        }
      ],
      "name": "$__SampleFather_init",
      "outputs": [],
      "stateMutability": "nonpayable",
      "type": "function"
    },
    {
      "inputs": [
        {
          "internalType": "uint256",
          "name": "_father",
          "type": "uint256"
        }
      ],
      "name": "$__SampleFather_init_unchained",
      "outputs": [],
      "stateMutability": "nonpayable",
      "type": "function"
    },
    {
      "inputs": [
        {
          "internalType": "string",
          "name": "value",
          "type": "string"
        }
      ],
      "name": "$__SampleGramps_init",
      "outputs": [],
      "stateMutability": "nonpayable",
      "type": "function"
    },
    {
      "inputs": [
        {
          "internalType": "string",
          "name": "value",
          "type": "string"
        }
      ],
      "name": "$__SampleGramps_init_unchained",
      "outputs": [],
      "stateMutability": "nonpayable",
      "type": "function"
    },
    {
      "inputs": [],
      "name": "$__SampleHuman_init",
      "outputs": [],
      "stateMutability": "nonpayable",
      "type": "function"
    },
    {
      "inputs": [],
      "name": "$__SampleHuman_init_unchained",
      "outputs": [],
      "stateMutability": "nonpayable",
      "type": "function"
    },
    {
      "inputs": [],
      "name": "$_checkInitializing",
      "outputs": [],
      "stateMutability": "view",
      "type": "function"
    },
    {
      "inputs": [],
      "name": "$_disableInitializers",
      "outputs": [],
      "stateMutability": "nonpayable",
      "type": "function"
    },
    {
      "inputs": [],
      "name": "$_getInitializedVersion",
      "outputs": [
        {
          "internalType": "uint64",
          "name": "ret0",
          "type": "uint64"
        }
      ],
      "stateMutability": "view",
      "type": "function"
    },
    {
      "inputs": [],
      "name": "$_isInitializing",
      "outputs": [
        {
          "internalType": "bool",
          "name": "ret0",
          "type": "bool"
        }
      ],
      "stateMutability": "view",
      "type": "function"
    },
    {
      "inputs": [],
      "name": "__hh_exposed_bytecode_marker",
      "outputs": [
        {
          "internalType": "bytes32",
          "name": "",
          "type": "bytes32"
        }
      ],
      "stateMutability": "view",
      "type": "function"
    },
    {
      "inputs": [],
      "name": "father",
      "outputs": [
        {
          "internalType": "uint256",
          "name": "",
          "type": "uint256"
        }
      ],
      "stateMutability": "view",
      "type": "function"
    },
    {
      "inputs": [],
      "name": "gramps",
      "outputs": [
        {
          "internalType": "string",
          "name": "",
          "type": "string"
        }
      ],
      "stateMutability": "view",
      "type": "function"
    },
    {
      "inputs": [],
      "name": "initialize",
      "outputs": [],
      "stateMutability": "nonpayable",
      "type": "function"
    },
    {
      "inputs": [
        {
          "internalType": "string",
          "name": "_gramps",
          "type": "string"
        },
        {
          "internalType": "uint256",
          "name": "_father",
          "type": "uint256"
        }
      ],
      "name": "initialize",
      "outputs": [],
      "stateMutability": "nonpayable",
      "type": "function"
    },
    {
      "inputs": [
        {
          "internalType": "string",
          "name": "value",
          "type": "string"
        }
      ],
      "name": "initialize",
      "outputs": [],
      "stateMutability": "nonpayable",
      "type": "function"
    },
    {
      "inputs": [],
      "name": "isHuman",
      "outputs": [
        {
          "internalType": "bool",
          "name": "",
          "type": "bool"
        }
      ],
      "stateMutability": "view",
      "type": "function"
    },
    {
      "stateMutability": "payable",
      "type": "receive"
    }
  ],
  "bytecode": "0x60806040526040516200110238038062001102833981016040819052620000269162000247565b7ff0c57e16840df040f15088dc2f81fe391c3923bec73e23a9662efc9c229c6a00805468010000000000000000810460ff1615906001600160401b03165f81158015620000705750825b90505f826001600160401b031660011480156200008c5750303b155b9050811580156200009b575080155b15620000ba5760405163f92ee8a960e01b815260040160405180910390fd5b84546001600160401b03191660011785558315620000e957845460ff60401b1916680100000000000000001785555b620000f5878762000149565b83156200013c57845460ff60401b19168555604051600181527fc7f505b2f371ae2175ee4913f4499e1f2633a7b5936321eed1cdaeb6115181d29060200160405180910390a15b5050505050505062000471565b620001536200016d565b6200015e82620001be565b6200016981620001e0565b5050565b7ff0c57e16840df040f15088dc2f81fe391c3923bec73e23a9662efc9c229c6a005468010000000000000000900460ff16620001bc57604051631afcd79f60e31b815260040160405180910390fd5b565b620001c86200016d565b620001d2620001ef565b620001dd8162000203565b50565b620001ea6200016d565b600255565b620001f96200016d565b620001bc6200021b565b6200020d6200016d565b6001620001698282620003a5565b620002256200016d565b5f805460ff19166001179055565b634e487b7160e01b5f52604160045260245ffd5b5f806040838503121562000259575f80fd5b82516001600160401b038082111562000270575f80fd5b818501915085601f83011262000284575f80fd5b81518181111562000299576200029962000233565b604051601f8201601f19908116603f01168101908382118183101715620002c457620002c462000233565b81604052828152602093508884848701011115620002e0575f80fd5b5f91505b82821015620003035784820184015181830185015290830190620002e4565b5f928101840192909252509401519395939450505050565b600181811c908216806200033057607f821691505b6020821081036200034f57634e487b7160e01b5f52602260045260245ffd5b50919050565b601f821115620003a057805f5260205f20601f840160051c810160208510156200037c5750805b601f840160051c820191505b818110156200039d575f815560010162000388565b50505b505050565b81516001600160401b03811115620003c157620003c162000233565b620003d981620003d284546200031b565b8462000355565b602080601f8311600181146200040f575f8415620003f75750858301515b5f19600386901b1c1916600185901b17855562000469565b5f85815260208120601f198616915b828110156200043f578886015182559484019460019091019084016200041e565b50858210156200045d57878501515f19600388901b60f8161c191681555b505060018460011b0185555b505050505050565b610c83806200047f5f395ff3fe6080604052600436106100fd575f3560e01c80638129fc1c11610092578063e883dee811610062578063e883dee814610298578063f5f1bec0146102ac578063f62d1888146102c0578063fa171c92146102df578063fa39851f146102f3575f80fd5b80638129fc1c1461021c5780638beaf7d714610230578063c9eb05711461024f578063d35c4ad214610279575f80fd5b80634457e6d5116100cd5780634457e6d5146101955780634a6c9db6146101b45780634fd5303d146101dc5780636e33593e14610208575f80fd5b80630a7cd83a146101085780631c8aca3b14610129578063342db739146101515780633e114d0014610176575f80fd5b3661010457005b5f80fd5b348015610113575f80fd5b506101276101223660046108d8565b610314565b005b348015610134575f80fd5b5061013e60025481565b6040519081526020015b60405180910390f35b34801561015c575f80fd5b5061013e6e1a185c991a185d0b595e1c1bdcd959608a1b81565b348015610181575f80fd5b5061012761019036600461091f565b610359565b3480156101a0575f80fd5b506101276101af36600461091f565b61039b565b3480156101bf575f80fd5b505f546101cc9060ff1681565b6040519015158152602001610148565b3480156101e7575f80fd5b506101f06103d9565b6040516001600160401b039091168152602001610148565b348015610213575f80fd5b506101276103fd565b348015610227575f80fd5b50610127610407565b34801561023b575f80fd5b5061012761024a3660046109f9565b6104eb565b34801561025a575f80fd5b505f80516020610c2e83398151915254600160401b900460ff166101cc565b348015610284575f80fd5b50610127610293366004610a3a565b6105d3565b3480156102a3575f80fd5b506101276105df565b3480156102b7575f80fd5b506101276105e7565b3480156102cb575f80fd5b506101276102da366004610a51565b6105ef565b3480156102ea575f80fd5b506101276106d5565b3480156102fe575f80fd5b506103076106dd565b6040516101489190610a8a565b61035483838080601f0160208091040260200160405190810160405280939291908181526020018383808284375f92019190915250859250610769915050565b505050565b61039782828080601f0160208091040260200160405190810160405280939291908181526020018383808284375f9201919091525061078392505050565b5050565b61039782828080601f0160208091040260200160405190810160405280939291908181526020018383808284375f9201919091525061079892505050565b5f6103f85f80516020610c2e833981519152546001600160401b031690565b905090565b6104056107ac565b565b5f80516020610c2e8339815191528054600160401b810460ff1615906001600160401b03165f811580156104385750825b90505f826001600160401b031660011480156104535750303b155b905081158015610461575080155b1561047f5760405163f92ee8a960e01b815260040160405180910390fd5b845467ffffffffffffffff1916600117855583156104a957845460ff60401b1916600160401b1785555b6104b16107c2565b83156104e457845460ff60401b19168555604051600181525f80516020610c0e8339815191529060200160405180910390a15b5050505050565b5f80516020610c2e8339815191528054600160401b810460ff1615906001600160401b03165f8115801561051c5750825b90505f826001600160401b031660011480156105375750303b155b905081158015610545575080155b156105635760405163f92ee8a960e01b815260040160405180910390fd5b845467ffffffffffffffff19166001178555831561058d57845460ff60401b1916600160401b1785555b6105978787610769565b83156105ca57845460ff60401b19168555604051600181525f80516020610c0e8339815191529060200160405180910390a15b50505050505050565b6105dc816107ca565b50565b6104056107c2565b6104056107d7565b5f80516020610c2e8339815191528054600160401b810460ff1615906001600160401b03165f811580156106205750825b90505f826001600160401b0316600114801561063b5750303b155b905081158015610649575080155b156106675760405163f92ee8a960e01b815260040160405180910390fd5b845467ffffffffffffffff19166001178555831561069157845460ff60401b1916600160401b1785555b61069a86610783565b83156106cd57845460ff60401b19168555604051600181525f80516020610c0e8339815191529060200160405180910390a15b505050505050565b61040561085e565b600180546106ea90610ad6565b80601f016020809104026020016040519081016040528092919081815260200182805461071690610ad6565b80156107615780601f1061073857610100808354040283529160200191610761565b820191905f5260205f20905b81548152906001019060200180831161074457829003601f168201915b505050505081565b61077161085e565b61077a82610783565b610397816107ca565b61078b61085e565b6107936107c2565b6105dc815b6107a061085e565b60016103978282610b52565b6107b461085e565b5f805460ff19166001179055565b6103fd61085e565b6107d261085e565b600255565b5f80516020610c2e8339815191528054600160401b900460ff161561080f5760405163f92ee8a960e01b815260040160405180910390fd5b80546001600160401b03908116146105dc57805467ffffffffffffffff19166001600160401b0390811782556040519081525f80516020610c0e8339815191529060200160405180910390a150565b5f80516020610c2e83398151915254600160401b900460ff1661040557604051631afcd79f60e31b815260040160405180910390fd5b5f8083601f8401126108a4575f80fd5b5081356001600160401b038111156108ba575f80fd5b6020830191508360208285010111156108d1575f80fd5b9250929050565b5f805f604084860312156108ea575f80fd5b83356001600160401b038111156108ff575f80fd5b61090b86828701610894565b909790965060209590950135949350505050565b5f8060208385031215610930575f80fd5b82356001600160401b03811115610945575f80fd5b61095185828601610894565b90969095509350505050565b634e487b7160e01b5f52604160045260245ffd5b5f82601f830112610980575f80fd5b81356001600160401b038082111561099a5761099a61095d565b604051601f8301601f19908116603f011681019082821181831017156109c2576109c261095d565b816040528381528660208588010111156109da575f80fd5b836020870160208301375f602085830101528094505050505092915050565b5f8060408385031215610a0a575f80fd5b82356001600160401b03811115610a1f575f80fd5b610a2b85828601610971565b95602094909401359450505050565b5f60208284031215610a4a575f80fd5b5035919050565b5f60208284031215610a61575f80fd5b81356001600160401b03811115610a76575f80fd5b610a8284828501610971565b949350505050565b5f602080835283518060208501525f5b81811015610ab657858101830151858201604001528201610a9a565b505f604082860101526040601f19601f8301168501019250505092915050565b600181811c90821680610aea57607f821691505b602082108103610b0857634e487b7160e01b5f52602260045260245ffd5b50919050565b601f82111561035457805f5260205f20601f840160051c81016020851015610b335750805b601f840160051c820191505b818110156104e4575f8155600101610b3f565b81516001600160401b03811115610b6b57610b6b61095d565b610b7f81610b798454610ad6565b84610b0e565b602080601f831160018114610bb2575f8415610b9b5750858301515b5f19600386901b1c1916600185901b1785556106cd565b5f85815260208120601f198616915b82811015610be057888601518255948401946001909101908401610bc1565b5085821015610bfd57878501515f19600388901b60f8161c191681555b5050505050600190811b0190555056fec7f505b2f371ae2175ee4913f4499e1f2633a7b5936321eed1cdaeb6115181d2f0c57e16840df040f15088dc2f81fe391c3923bec73e23a9662efc9c229c6a00a26469706673582212200b5fec2b08910ff35eed81fbbb6e531597c5d251894f0f4df3b3d25401ebefc464736f6c63430008180033",
  "linkReferences": {},
  "deployedLinkReferences": {}
}