{
  "_format": "hh-sol-artifact-1",
  "contractName": "$SampleChild",
  "sourceName": "contracts-exposed/mocks/MultipleInheritanceInitializableMocks.sol",
  "abi": [
    {
      "inputs": [
        {
          "internalType": "uint256",
          "name": "_mother",
          "type": "uint256"
        },
        {
          "internalType": "string",
          "name": "_gramps",
          "type": "string"
        },
        {
          "internalType": "uint256",
          "name": "_father",
          "type": "uint256"
        },
        {
          "internalType": "uint256",
          "name": "_child",
          "type": "uint256"
        }
      ],
      "stateMutability": "payable",
      "type": "constructor"
    },
    {
      "inputs": [],
      "name": "InvalidInitialization",
      "type": "error"
    },
    {
      "inputs": [],
      "name": "NotInitializing",
      "type": "error"
    },
    {
      "anonymous": false,
      "inputs": [
        {
          "indexed": false,
          "internalType": "uint64",
          "name": "version",
          "type": "uint64"
        }
      ],
      "name": "Initialized",
      "type": "event"
    },
    {
      "inputs": [
        {
          "internalType": "uint256",
          "name": "_mother",
          "type": "uint256"
        },
        {
          "internalType": "string",
          "name": "_gramps",
          "type": "string"
        },
        {
          "internalType": "uint256",
          "name": "_father",
          "type": "uint256"
        },
        {
          "internalType": "uint256",
          "name": "_child",
          "type": "uint256"
        }
      ],
      "name": "$__SampleChild_init",
      "outputs": [],
      "stateMutability": "nonpayable",
      "type": "function"
    },
    {
      "inputs": [
        {
          "internalType": "uint256",
          "name": "_child",
          "type": "uint256"
        }
      ],
      "name": "$__SampleChild_init_unchained",
      "outputs": [],
      "stateMutability": "nonpayable",
      "type": "function"
    },
    {
      "inputs": [
        {
          "internalType": "string",
          "name": "_gramps",
          "type": "string"
        },
        {
          "internalType": "uint256",
          "name": "_father",
          "type": "uint256"
        }
      ],
      "name": "$__SampleFather_init",
      "outputs": [],
      "stateMutability": "nonpayable",
      "type": "function"
    },
    {
      "inputs": [
        {
          "internalType": "uint256",
          "name": "_father",
          "type": "uint256"
        }
      ],
      "name": "$__SampleFather_init_unchained",
      "outputs": [],
      "stateMutability": "nonpayable",
      "type": "function"
    },
    {
      "inputs": [
        {
          "internalType": "string",
          "name": "value",
          "type": "string"
        }
      ],
      "name": "$__SampleGramps_init",
      "outputs": [],
      "stateMutability": "nonpayable",
      "type": "function"
    },
    {
      "inputs": [
        {
          "internalType": "string",
          "name": "value",
          "type": "string"
        }
      ],
      "name": "$__SampleGramps_init_unchained",
      "outputs": [],
      "stateMutability": "nonpayable",
      "type": "function"
    },
    {
      "inputs": [],
      "name": "$__SampleHuman_init",
      "outputs": [],
      "stateMutability": "nonpayable",
      "type": "function"
    },
    {
      "inputs": [],
      "name": "$__SampleHuman_init_unchained",
      "outputs": [],
      "stateMutability": "nonpayable",
      "type": "function"
    },
    {
      "inputs": [
        {
          "internalType": "uint256",
          "name": "value",
          "type": "uint256"
        }
      ],
      "name": "$__SampleMother_init",
      "outputs": [],
      "stateMutability": "nonpayable",
      "type": "function"
    },
    {
      "inputs": [
        {
          "internalType": "uint256",
          "name": "value",
          "type": "uint256"
        }
      ],
      "name": "$__SampleMother_init_unchained",
      "outputs": [],
      "stateMutability": "nonpayable",
      "type": "function"
    },
    {
      "inputs": [],
      "name": "$_checkInitializing",
      "outputs": [],
      "stateMutability": "view",
      "type": "function"
    },
    {
      "inputs": [],
      "name": "$_disableInitializers",
      "outputs": [],
      "stateMutability": "nonpayable",
      "type": "function"
    },
    {
      "inputs": [],
      "name": "$_getInitializedVersion",
      "outputs": [
        {
          "internalType": "uint64",
          "name": "ret0",
          "type": "uint64"
        }
      ],
      "stateMutability": "view",
      "type": "function"
    },
    {
      "inputs": [],
      "name": "$_isInitializing",
      "outputs": [
        {
          "internalType": "bool",
          "name": "ret0",
          "type": "bool"
        }
      ],
      "stateMutability": "view",
      "type": "function"
    },
    {
      "inputs": [],
      "name": "__hh_exposed_bytecode_marker",
      "outputs": [
        {
          "internalType": "bytes32",
          "name": "",
          "type": "bytes32"
        }
      ],
      "stateMutability": "view",
      "type": "function"
    },
    {
      "inputs": [],
      "name": "child",
      "outputs": [
        {
          "internalType": "uint256",
          "name": "",
          "type": "uint256"
        }
      ],
      "stateMutability": "view",
      "type": "function"
    },
    {
      "inputs": [],
      "name": "father",
      "outputs": [
        {
          "internalType": "uint256",
          "name": "",
          "type": "uint256"
        }
      ],
      "stateMutability": "view",
      "type": "function"
    },
    {
      "inputs": [],
      "name": "gramps",
      "outputs": [
        {
          "internalType": "string",
          "name": "",
          "type": "string"
        }
      ],
      "stateMutability": "view",
      "type": "function"
    },
    {
      "inputs": [
        {
          "internalType": "uint256",
          "name": "_mother",
          "type": "uint256"
        },
        {
          "internalType": "string",
          "name": "_gramps",
          "type": "string"
        },
        {
          "internalType": "uint256",
          "name": "_father",
          "type": "uint256"
        },
        {
          "internalType": "uint256",
          "name": "_child",
          "type": "uint256"
        }
      ],
      "name": "initialize",
      "outputs": [],
      "stateMutability": "nonpayable",
      "type": "function"
    },
    {
      "inputs": [],
      "name": "initialize",
      "outputs": [],
      "stateMutability": "nonpayable",
      "type": "function"
    },
    {
      "inputs": [
        {
          "internalType": "string",
          "name": "_gramps",
          "type": "string"
        },
        {
          "internalType": "uint256",
          "name": "_father",
          "type": "uint256"
        }
      ],
      "name": "initialize",
      "outputs": [],
      "stateMutability": "nonpayable",
      "type": "function"
    },
    {
      "inputs": [
        {
          "internalType": "string",
          "name": "value",
          "type": "string"
        }
      ],
      "name": "initialize",
      "outputs": [],
      "stateMutability": "nonpayable",
      "type": "function"
    },
    {
      "inputs": [
        {
          "internalType": "uint256",
          "name": "value",
          "type": "uint256"
        }
      ],
      "name": "initialize",
      "outputs": [],
      "stateMutability": "nonpayable",
      "type": "function"
    },
    {
      "inputs": [],
      "name": "isHuman",
      "outputs": [
        {
          "internalType": "bool",
          "name": "",
          "type": "bool"
        }
      ],
      "stateMutability": "view",
      "type": "function"
    },
    {
      "inputs": [],
      "name": "mother",
      "outputs": [
        {
          "internalType": "uint256",
          "name": "",
          "type": "uint256"
        }
      ],
      "stateMutability": "view",
      "type": "function"
    },
    {
      "stateMutability": "payable",
      "type": "receive"
    }
  ],
  "bytecode": "0x6080604052604051620015cd380380620015cd8339810160408190526200002691620002ba565b7ff0c57e16840df040f15088dc2f81fe391c3923bec73e23a9662efc9c229c6a00805468010000000000000000810460ff1615906001600160401b03165f81158015620000705750825b90505f826001600160401b031660011480156200008c5750303b155b9050811580156200009b575080155b15620000ba5760405163f92ee8a960e01b815260040160405180910390fd5b84546001600160401b03191660011785558315620000e957845460ff60401b1916680100000000000000001785555b620000f7898989896200014d565b83156200013e57845460ff60401b19168555604051600181527fc7f505b2f371ae2175ee4913f4499e1f2633a7b5936321eed1cdaeb6115181d29060200160405180910390a15b505050505050505050620004f8565b620001576200017f565b6200016284620001d0565b6200016e8383620001f2565b620001798162000216565b50505050565b7ff0c57e16840df040f15088dc2f81fe391c3923bec73e23a9662efc9c229c6a005468010000000000000000900460ff16620001ce57604051631afcd79f60e31b815260040160405180910390fd5b565b620001da6200017f565b620001e462000225565b620001ef8162000239565b50565b620001fc6200017f565b620002078262000248565b620002128162000267565b5050565b620002206200017f565b600455565b6200022f6200017f565b620001ce62000276565b620002436200017f565b600155565b620002526200017f565b6200025c62000225565b620001ef816200028e565b620002716200017f565b600355565b620002806200017f565b5f805460ff19166001179055565b620002986200017f565b60026200021282826200042c565b634e487b7160e01b5f52604160045260245ffd5b5f805f8060808587031215620002ce575f80fd5b8451602080870151919550906001600160401b0380821115620002ef575f80fd5b818801915088601f83011262000303575f80fd5b815181811115620003185762000318620002a6565b604051601f8201601f19908116603f01168101908382118183101715620003435762000343620002a6565b816040528281528b868487010111156200035b575f80fd5b5f93505b828410156200037e57848401860151818501870152928501926200035f565b5f928101909501919091525050506040860151606090960151949790965092505050565b600181811c90821680620003b757607f821691505b602082108103620003d657634e487b7160e01b5f52602260045260245ffd5b50919050565b601f8211156200042757805f5260205f20601f840160051c81016020851015620004035750805b601f840160051c820191505b8181101562000424575f81556001016200040f565b50505b505050565b81516001600160401b03811115620004485762000448620002a6565b6200046081620004598454620003a2565b84620003dc565b602080601f83116001811462000496575f84156200047e5750858301515b5f19600386901b1c1916600185901b178555620004f0565b5f85815260208120601f198616915b82811015620004c657888601518255948401946001909101908401620004a5565b5085821015620004e457878501515f19600388901b60f8161c191681555b505060018460011b0185555b505050505050565b6110c780620005065f395ff3fe608060405260043610610164575f3560e01c80636f2edbd2116100cd578063e883dee811610087578063f62d188811610062578063f62d1888146103ec578063fa171c921461040b578063fa39851f1461041f578063fe4b84df14610440575f80fd5b8063e883dee8146103af578063ed7dfee3146103c3578063f5f1bec0146103d8575f80fd5b80636f2edbd2146102f55780638129fc1c146103145780638beaf7d714610328578063a7d4582b14610347578063c9eb057114610366578063d35c4ad214610390575f80fd5b80634457e6d51161011e5780634457e6d5146102305780634a6c9db61461024f5780634fd5303d14610277578063555d9f79146102a35780636b1da91a146102c25780636e33593e146102e1575f80fd5b80630a7cd83a1461016f57806316c9da3b146101905780631c8aca3b146101af578063237b5e96146101d7578063342db739146101ec5780633e114d0014610211575f80fd5b3661016b57005b5f80fd5b34801561017a575f80fd5b5061018e610189366004610c72565b61045f565b005b34801561019b575f80fd5b5061018e6101aa366004610cb9565b6104a4565b3480156101ba575f80fd5b506101c460035481565b6040519081526020015b60405180910390f35b3480156101e2575f80fd5b506101c460045481565b3480156101f7575f80fd5b506101c46e1a185c991a185d0b595e1c1bdcd959608a1b81565b34801561021c575f80fd5b5061018e61022b366004610cd0565b6104b0565b34801561023b575f80fd5b5061018e61024a366004610cd0565b6104f2565b34801561025a575f80fd5b505f546102679060ff1681565b60405190151581526020016101ce565b348015610282575f80fd5b5061028b610530565b6040516001600160401b0390911681526020016101ce565b3480156102ae575f80fd5b5061018e6102bd366004610d0e565b610554565b3480156102cd575f80fd5b5061018e6102dc366004610cb9565b61059e565b3480156102ec575f80fd5b5061018e6105a7565b348015610300575f80fd5b5061018e61030f366004610e02565b6105b1565b34801561031f575f80fd5b5061018e61069d565b348015610333575f80fd5b5061018e610342366004610e54565b610780565b348015610352575f80fd5b5061018e610361366004610cb9565b610868565b348015610371575f80fd5b505f8051602061107283398151915254600160401b900460ff16610267565b34801561039b575f80fd5b5061018e6103aa366004610cb9565b610871565b3480156103ba575f80fd5b5061018e61087a565b3480156103ce575f80fd5b506101c460015481565b3480156103e3575f80fd5b5061018e610882565b3480156103f7575f80fd5b5061018e610406366004610e95565b61088a565b348015610416575f80fd5b5061018e610970565b34801561042a575f80fd5b50610433610978565b6040516101ce9190610ece565b34801561044b575f80fd5b5061018e61045a366004610cb9565b610a04565b61049f83838080601f0160208091040260200160405190810160405280939291908181526020018383808284375f92019190915250859250610aaf915050565b505050565b6104ad81610ac9565b50565b6104ee82828080601f0160208091040260200160405190810160405280939291908181526020018383808284375f92019190915250610ad692505050565b5050565b6104ee82828080601f0160208091040260200160405190810160405280939291908181526020018383808284375f92019190915250610aeb92505050565b5f61054f5f80516020611072833981519152546001600160401b031690565b905090565b6105978585858080601f0160208091040260200160405190810160405280939291908181526020018383808284375f92019190915250879250869150610aff9050565b5050505050565b6104ad81610b29565b6105af610b39565b565b5f805160206110728339815191528054600160401b810460ff1615906001600160401b03165f811580156105e25750825b90505f826001600160401b031660011480156105fd5750303b155b90508115801561060b575080155b156106295760405163f92ee8a960e01b815260040160405180910390fd5b845467ffffffffffffffff19166001178555831561065357845460ff60401b1916600160401b1785555b61065f89898989610aff565b831561069257845460ff60401b19168555604051600181525f805160206110528339815191529060200160405180910390a15b505050505050505050565b5f805160206110728339815191528054600160401b810460ff1615906001600160401b03165f811580156106ce5750825b90505f826001600160401b031660011480156106e95750303b155b9050811580156106f7575080155b156107155760405163f92ee8a960e01b815260040160405180910390fd5b845467ffffffffffffffff19166001178555831561073f57845460ff60401b1916600160401b1785555b610747610b4f565b831561059757845460ff60401b19168555604051600181525f805160206110528339815191529060200160405180910390a15050505050565b5f805160206110728339815191528054600160401b810460ff1615906001600160401b03165f811580156107b15750825b90505f826001600160401b031660011480156107cc5750303b155b9050811580156107da575080155b156107f85760405163f92ee8a960e01b815260040160405180910390fd5b845467ffffffffffffffff19166001178555831561082257845460ff60401b1916600160401b1785555b61082c8787610aaf565b831561085f57845460ff60401b19168555604051600181525f805160206110528339815191529060200160405180910390a15b50505050505050565b6104ad81610b57565b6104ad81610b64565b6105af610b4f565b6105af610b71565b5f805160206110728339815191528054600160401b810460ff1615906001600160401b03165f811580156108bb5750825b90505f826001600160401b031660011480156108d65750303b155b9050811580156108e4575080155b156109025760405163f92ee8a960e01b815260040160405180910390fd5b845467ffffffffffffffff19166001178555831561092c57845460ff60401b1916600160401b1785555b61093586610ad6565b831561096857845460ff60401b19168555604051600181525f805160206110528339815191529060200160405180910390a15b505050505050565b6105af610bf8565b6002805461098590610f1a565b80601f01602080910402602001604051908101604052809291908181526020018280546109b190610f1a565b80156109fc5780601f106109d3576101008083540402835291602001916109fc565b820191905f5260205f20905b8154815290600101906020018083116109df57829003601f168201915b505050505081565b5f805160206110728339815191528054600160401b810460ff1615906001600160401b03165f81158015610a355750825b90505f826001600160401b03166001148015610a505750303b155b905081158015610a5e575080155b15610a7c5760405163f92ee8a960e01b815260040160405180910390fd5b845467ffffffffffffffff191660011785558315610aa657845460ff60401b1916600160401b1785555b61093586610b29565b610ab7610bf8565b610ac082610ad6565b6104ee81610b64565b610ad1610bf8565b600155565b610ade610bf8565b610ae6610b4f565b6104ad815b610af3610bf8565b60026104ee8282610f96565b610b07610bf8565b610b1084610b29565b610b1a8383610aaf565b610b2381610b57565b50505050565b610b31610bf8565b6104a4610b4f565b610b41610bf8565b5f805460ff19166001179055565b6105a7610bf8565b610b5f610bf8565b600455565b610b6c610bf8565b600355565b5f805160206110728339815191528054600160401b900460ff1615610ba95760405163f92ee8a960e01b815260040160405180910390fd5b80546001600160401b03908116146104ad57805467ffffffffffffffff19166001600160401b0390811782556040519081525f805160206110528339815191529060200160405180910390a150565b5f8051602061107283398151915254600160401b900460ff166105af57604051631afcd79f60e31b815260040160405180910390fd5b5f8083601f840112610c3e575f80fd5b5081356001600160401b03811115610c54575f80fd5b602083019150836020828501011115610c6b575f80fd5b9250929050565b5f805f60408486031215610c84575f80fd5b83356001600160401b03811115610c99575f80fd5b610ca586828701610c2e565b909790965060209590950135949350505050565b5f60208284031215610cc9575f80fd5b5035919050565b5f8060208385031215610ce1575f80fd5b82356001600160401b03811115610cf6575f80fd5b610d0285828601610c2e565b90969095509350505050565b5f805f805f60808688031215610d22575f80fd5b8535945060208601356001600160401b03811115610d3e575f80fd5b610d4a88828901610c2e565b9699909850959660408101359660609091013595509350505050565b634e487b7160e01b5f52604160045260245ffd5b5f82601f830112610d89575f80fd5b81356001600160401b0380821115610da357610da3610d66565b604051601f8301601f19908116603f01168101908282118183101715610dcb57610dcb610d66565b81604052838152866020858801011115610de3575f80fd5b836020870160208301375f602085830101528094505050505092915050565b5f805f8060808587031215610e15575f80fd5b8435935060208501356001600160401b03811115610e31575f80fd5b610e3d87828801610d7a565b949794965050505060408301359260600135919050565b5f8060408385031215610e65575f80fd5b82356001600160401b03811115610e7a575f80fd5b610e8685828601610d7a565b95602094909401359450505050565b5f60208284031215610ea5575f80fd5b81356001600160401b03811115610eba575f80fd5b610ec684828501610d7a565b949350505050565b5f602080835283518060208501525f5b81811015610efa57858101830151858201604001528201610ede565b505f604082860101526040601f19601f8301168501019250505092915050565b600181811c90821680610f2e57607f821691505b602082108103610f4c57634e487b7160e01b5f52602260045260245ffd5b50919050565b601f82111561049f57805f5260205f20601f840160051c81016020851015610f775750805b601f840160051c820191505b81811015610597575f8155600101610f83565b81516001600160401b03811115610faf57610faf610d66565b610fc381610fbd8454610f1a565b84610f52565b602080601f831160018114610ff6575f8415610fdf5750858301515b5f19600386901b1c1916600185901b178555610968565b5f85815260208120601f198616915b8281101561102457888601518255948401946001909101908401611005565b508582101561104157878501515f19600388901b60f8161c191681555b5050505050600190811b0190555056fec7f505b2f371ae2175ee4913f4499e1f2633a7b5936321eed1cdaeb6115181d2f0c57e16840df040f15088dc2f81fe391c3923bec73e23a9662efc9c229c6a00a26469706673582212209f1b2521a31f50f4775361281ca59896412253d32df7698acae3527c7886f99464736f6c63430008180033",
  "linkReferences": {},
  "deployedLinkReferences": {}
}