{
  "_format": "hh-sol-artifact-1",
  "contractName": "$SampleHuman",
  "sourceName": "contracts-exposed/mocks/MultipleInheritanceInitializableMocks.sol",
  "abi": [
    {
      "inputs": [],
      "stateMutability": "payable",
      "type": "constructor"
    },
    {
      "inputs": [],
      "name": "InvalidInitialization",
      "type": "error"
    },
    {
      "inputs": [],
      "name": "NotInitializing",
      "type": "error"
    },
    {
      "anonymous": false,
      "inputs": [
        {
          "indexed": false,
          "internalType": "uint64",
          "name": "version",
          "type": "uint64"
        }
      ],
      "name": "Initialized",
      "type": "event"
    },
    {
      "inputs": [],
      "name": "$__SampleHuman_init",
      "outputs": [],
      "stateMutability": "nonpayable",
      "type": "function"
    },
    {
      "inputs": [],
      "name": "$__SampleHuman_init_unchained",
      "outputs": [],
      "stateMutability": "nonpayable",
      "type": "function"
    },
    {
      "inputs": [],
      "name": "$_checkInitializing",
      "outputs": [],
      "stateMutability": "view",
      "type": "function"
    },
    {
      "inputs": [],
      "name": "$_disableInitializers",
      "outputs": [],
      "stateMutability": "nonpayable",
      "type": "function"
    },
    {
      "inputs": [],
      "name": "$_getInitializedVersion",
      "outputs": [
        {
          "internalType": "uint64",
          "name": "ret0",
          "type": "uint64"
        }
      ],
      "stateMutability": "view",
      "type": "function"
    },
    {
      "inputs": [],
      "name": "$_isInitializing",
      "outputs": [
        {
          "internalType": "bool",
          "name": "ret0",
          "type": "bool"
        }
      ],
      "stateMutability": "view",
      "type": "function"
    },
    {
      "inputs": [],
      "name": "__hh_exposed_bytecode_marker",
      "outputs": [
        {
          "internalType": "bytes32",
          "name": "",
          "type": "bytes32"
        }
      ],
      "stateMutability": "view",
      "type": "function"
    },
    {
      "inputs": [],
      "name": "initialize",
      "outputs": [],
      "stateMutability": "nonpayable",
      "type": "function"
    },
    {
      "inputs": [],
      "name": "isHuman",
      "outputs": [
        {
          "internalType": "bool",
          "name": "",
          "type": "bool"
        }
      ],
      "stateMutability": "view",
      "type": "function"
    },
    {
      "stateMutability": "payable",
      "type": "receive"
    }
  ],
  "bytecode": "0x60806040527ff0c57e16840df040f15088dc2f81fe391c3923bec73e23a9662efc9c229c6a00805468010000000000000000810460ff1615906001600160401b03165f8115801561004d5750825b90505f826001600160401b031660011480156100685750303b155b905081158015610076575080155b156100945760405163f92ee8a960e01b815260040160405180910390fd5b84546001600160401b031916600117855583156100c257845460ff60401b1916680100000000000000001785555b6100ca61011a565b831561011057845460ff60401b19168555604051600181527fc7f505b2f371ae2175ee4913f4499e1f2633a7b5936321eed1cdaeb6115181d29060200160405180910390a15b5050505050610190565b61012261012c565b61012a61017a565b565b7ff0c57e16840df040f15088dc2f81fe391c3923bec73e23a9662efc9c229c6a005468010000000000000000900460ff1661012a57604051631afcd79f60e31b815260040160405180910390fd5b61018261012c565b5f805460ff19166001179055565b6104368061019d5f395ff3fe608060405260043610610087575f3560e01c80638129fc1c116100575780638129fc1c14610135578063c9eb057114610149578063e883dee814610173578063f5f1bec014610187578063fa171c921461019b575f80fd5b8063342db739146100925780634a6c9db6146100ca5780634fd5303d146100f25780636e33593e1461011f575f80fd5b3661008e57005b5f80fd5b34801561009d575f80fd5b506100b76e1a185c991a185d0b595e1c1bdcd959608a1b81565b6040519081526020015b60405180910390f35b3480156100d5575f80fd5b505f546100e29060ff1681565b60405190151581526020016100c1565b3480156100fd575f80fd5b506101066101af565b60405167ffffffffffffffff90911681526020016100c1565b34801561012a575f80fd5b506101336101d4565b005b348015610140575f80fd5b506101336101de565b348015610154575f80fd5b505f805160206103e183398151915254600160401b900460ff166100e2565b34801561017e575f80fd5b506101336102d7565b348015610192575f80fd5b506101336102df565b3480156101a6575f80fd5b506101336102e7565b5f6101cf5f805160206103e18339815191525467ffffffffffffffff1690565b905090565b6101dc6102ef565b565b5f805160206103e18339815191528054600160401b810460ff16159067ffffffffffffffff165f811580156102105750825b90505f8267ffffffffffffffff16600114801561022c5750303b155b90508115801561023a575080155b156102585760405163f92ee8a960e01b815260040160405180910390fd5b845467ffffffffffffffff19166001178555831561028257845460ff60401b1916600160401b1785555b61028a610305565b83156102d057845460ff60401b19168555604051600181527fc7f505b2f371ae2175ee4913f4499e1f2633a7b5936321eed1cdaeb6115181d29060200160405180910390a15b5050505050565b6101dc610305565b6101dc61030d565b6101dc6103aa565b6102f76103aa565b5f805460ff19166001179055565b6101d46103aa565b5f805160206103e18339815191528054600160401b900460ff16156103455760405163f92ee8a960e01b815260040160405180910390fd5b805467ffffffffffffffff908116146103a757805467ffffffffffffffff191667ffffffffffffffff90811782556040519081527fc7f505b2f371ae2175ee4913f4499e1f2633a7b5936321eed1cdaeb6115181d29060200160405180910390a15b50565b5f805160206103e183398151915254600160401b900460ff166101dc57604051631afcd79f60e31b815260040160405180910390fdfef0c57e16840df040f15088dc2f81fe391c3923bec73e23a9662efc9c229c6a00a264697066735822122041e5b06a9219dce76b0d9f17ff1fa1c252588f4fda678efbfda5217a1e33faf064736f6c63430008180033",
  "linkReferences": {},
  "deployedLinkReferences": {}
}