{
  "_format": "hh-sol-artifact-1",
  "contractName": "$ERC20Burnable",
  "sourceName": "contracts-exposed/token/ERC20/extensions/ERC20Burnable.sol",
  "abi": [
    {
      "inputs": [
        {
          "internalType": "string",
          "name": "name_",
          "type": "string"
        },
        {
          "internalType": "string",
          "name": "symbol_",
          "type": "string"
        }
      ],
      "stateMutability": "payable",
      "type": "constructor"
    },
    {
      "inputs": [
        {
          "internalType": "address",
          "name": "spender",
          "type": "address"
        },
        {
          "internalType": "uint256",
          "name": "allowance",
          "type": "uint256"
        },
        {
          "internalType": "uint256",
          "name": "needed",
          "type": "uint256"
        }
      ],
      "name": "ERC20InsufficientAllowance",
      "type": "error"
    },
    {
      "inputs": [
        {
          "internalType": "address",
          "name": "sender",
          "type": "address"
        },
        {
          "internalType": "uint256",
          "name": "balance",
          "type": "uint256"
        },
        {
          "internalType": "uint256",
          "name": "needed",
          "type": "uint256"
        }
      ],
      "name": "ERC20InsufficientBalance",
      "type": "error"
    },
    {
      "inputs": [
        {
          "internalType": "address",
          "name": "approver",
          "type": "address"
        }
      ],
      "name": "ERC20InvalidApprover",
      "type": "error"
    },
    {
      "inputs": [
        {
          "internalType": "address",
          "name": "receiver",
          "type": "address"
        }
      ],
      "name": "ERC20InvalidReceiver",
      "type": "error"
    },
    {
      "inputs": [
        {
          "internalType": "address",
          "name": "sender",
          "type": "address"
        }
      ],
      "name": "ERC20InvalidSender",
      "type": "error"
    },
    {
      "inputs": [
        {
          "internalType": "address",
          "name": "spender",
          "type": "address"
        }
      ],
      "name": "ERC20InvalidSpender",
      "type": "error"
    },
    {
      "anonymous": false,
      "inputs": [
        {
          "indexed": true,
          "internalType": "address",
          "name": "owner",
          "type": "address"
        },
        {
          "indexed": true,
          "internalType": "address",
          "name": "spender",
          "type": "address"
        },
        {
          "indexed": false,
          "internalType": "uint256",
          "name": "value",
          "type": "uint256"
        }
      ],
      "name": "Approval",
      "type": "event"
    },
    {
      "anonymous": false,
      "inputs": [
        {
          "indexed": true,
          "internalType": "address",
          "name": "from",
          "type": "address"
        },
        {
          "indexed": true,
          "internalType": "address",
          "name": "to",
          "type": "address"
        },
        {
          "indexed": false,
          "internalType": "uint256",
          "name": "value",
          "type": "uint256"
        }
      ],
      "name": "Transfer",
      "type": "event"
    },
    {
      "inputs": [
        {
          "internalType": "address",
          "name": "owner",
          "type": "address"
        },
        {
          "internalType": "address",
          "name": "spender",
          "type": "address"
        },
        {
          "internalType": "uint256",
          "name": "value",
          "type": "uint256"
        },
        {
          "internalType": "bool",
          "name": "emitEvent",
          "type": "bool"
        }
      ],
      "name": "$_approve",
      "outputs": [],
      "stateMutability": "nonpayable",
      "type": "function"
    },
    {
      "inputs": [
        {
          "internalType": "address",
          "name": "owner",
          "type": "address"
        },
        {
          "internalType": "address",
          "name": "spender",
          "type": "address"
        },
        {
          "internalType": "uint256",
          "name": "value",
          "type": "uint256"
        }
      ],
      "name": "$_approve",
      "outputs": [],
      "stateMutability": "nonpayable",
      "type": "function"
    },
    {
      "inputs": [
        {
          "internalType": "address",
          "name": "account",
          "type": "address"
        },
        {
          "internalType": "uint256",
          "name": "value",
          "type": "uint256"
        }
      ],
      "name": "$_burn",
      "outputs": [],
      "stateMutability": "nonpayable",
      "type": "function"
    },
    {
      "inputs": [],
      "name": "$_contextSuffixLength",
      "outputs": [
        {
          "internalType": "uint256",
          "name": "ret0",
          "type": "uint256"
        }
      ],
      "stateMutability": "view",
      "type": "function"
    },
    {
      "inputs": [
        {
          "internalType": "address",
          "name": "account",
          "type": "address"
        },
        {
          "internalType": "uint256",
          "name": "value",
          "type": "uint256"
        }
      ],
      "name": "$_mint",
      "outputs": [],
      "stateMutability": "nonpayable",
      "type": "function"
    },
    {
      "inputs": [],
      "name": "$_msgData",
      "outputs": [
        {
          "internalType": "bytes",
          "name": "ret0",
          "type": "bytes"
        }
      ],
      "stateMutability": "view",
      "type": "function"
    },
    {
      "inputs": [],
      "name": "$_msgSender",
      "outputs": [
        {
          "internalType": "address",
          "name": "ret0",
          "type": "address"
        }
      ],
      "stateMutability": "view",
      "type": "function"
    },
    {
      "inputs": [
        {
          "internalType": "address",
          "name": "owner",
          "type": "address"
        },
        {
          "internalType": "address",
          "name": "spender",
          "type": "address"
        },
        {
          "internalType": "uint256",
          "name": "value",
          "type": "uint256"
        }
      ],
      "name": "$_spendAllowance",
      "outputs": [],
      "stateMutability": "nonpayable",
      "type": "function"
    },
    {
      "inputs": [
        {
          "internalType": "address",
          "name": "from",
          "type": "address"
        },
        {
          "internalType": "address",
          "name": "to",
          "type": "address"
        },
        {
          "internalType": "uint256",
          "name": "value",
          "type": "uint256"
        }
      ],
      "name": "$_transfer",
      "outputs": [],
      "stateMutability": "nonpayable",
      "type": "function"
    },
    {
      "inputs": [
        {
          "internalType": "address",
          "name": "from",
          "type": "address"
        },
        {
          "internalType": "address",
          "name": "to",
          "type": "address"
        },
        {
          "internalType": "uint256",
          "name": "value",
          "type": "uint256"
        }
      ],
      "name": "$_update",
      "outputs": [],
      "stateMutability": "nonpayable",
      "type": "function"
    },
    {
      "inputs": [],
      "name": "__hh_exposed_bytecode_marker",
      "outputs": [
        {
          "internalType": "bytes32",
          "name": "",
          "type": "bytes32"
        }
      ],
      "stateMutability": "view",
      "type": "function"
    },
    {
      "inputs": [
        {
          "internalType": "address",
          "name": "owner",
          "type": "address"
        },
        {
          "internalType": "address",
          "name": "spender",
          "type": "address"
        }
      ],
      "name": "allowance",
      "outputs": [
        {
          "internalType": "uint256",
          "name": "",
          "type": "uint256"
        }
      ],
      "stateMutability": "view",
      "type": "function"
    },
    {
      "inputs": [
        {
          "internalType": "address",
          "name": "spender",
          "type": "address"
        },
        {
          "internalType": "uint256",
          "name": "value",
          "type": "uint256"
        }
      ],
      "name": "approve",
      "outputs": [
        {
          "internalType": "bool",
          "name": "",
          "type": "bool"
        }
      ],
      "stateMutability": "nonpayable",
      "type": "function"
    },
    {
      "inputs": [
        {
          "internalType": "address",
          "name": "account",
          "type": "address"
        }
      ],
      "name": "balanceOf",
      "outputs": [
        {
          "internalType": "uint256",
          "name": "",
          "type": "uint256"
        }
      ],
      "stateMutability": "view",
      "type": "function"
    },
    {
      "inputs": [
        {
          "internalType": "uint256",
          "name": "value",
          "type": "uint256"
        }
      ],
      "name": "burn",
      "outputs": [],
      "stateMutability": "nonpayable",
      "type": "function"
    },
    {
      "inputs": [
        {
          "internalType": "address",
          "name": "account",
          "type": "address"
        },
        {
          "internalType": "uint256",
          "name": "value",
          "type": "uint256"
        }
      ],
      "name": "burnFrom",
      "outputs": [],
      "stateMutability": "nonpayable",
      "type": "function"
    },
    {
      "inputs": [],
      "name": "decimals",
      "outputs": [
        {
          "internalType": "uint8",
          "name": "",
          "type": "uint8"
        }
      ],
      "stateMutability": "view",
      "type": "function"
    },
    {
      "inputs": [],
      "name": "name",
      "outputs": [
        {
          "internalType": "string",
          "name": "",
          "type": "string"
        }
      ],
      "stateMutability": "view",
      "type": "function"
    },
    {
      "inputs": [],
      "name": "symbol",
      "outputs": [
        {
          "internalType": "string",
          "name": "",
          "type": "string"
        }
      ],
      "stateMutability": "view",
      "type": "function"
    },
    {
      "inputs": [],
      "name": "totalSupply",
      "outputs": [
        {
          "internalType": "uint256",
          "name": "",
          "type": "uint256"
        }
      ],
      "stateMutability": "view",
      "type": "function"
    },
    {
      "inputs": [
        {
          "internalType": "address",
          "name": "to",
          "type": "address"
        },
        {
          "internalType": "uint256",
          "name": "value",
          "type": "uint256"
        }
      ],
      "name": "transfer",
      "outputs": [
        {
          "internalType": "bool",
          "name": "",
          "type": "bool"
        }
      ],
      "stateMutability": "nonpayable",
      "type": "function"
    },
    {
      "inputs": [
        {
          "internalType": "address",
          "name": "from",
          "type": "address"
        },
        {
          "internalType": "address",
          "name": "to",
          "type": "address"
        },
        {
          "internalType": "uint256",
          "name": "value",
          "type": "uint256"
        }
      ],
      "name": "transferFrom",
      "outputs": [
        {
          "internalType": "bool",
          "name": "",
          "type": "bool"
        }
      ],
      "stateMutability": "nonpayable",
      "type": "function"
    },
    {
      "stateMutability": "payable",
      "type": "receive"
    }
  ],
  "bytecode": "0x608060405260405162000dd838038062000dd8833981016040819052620000269162000111565b8181600362000036838262000201565b50600462000045828262000201565b5050505050620002cd565b634e487b7160e01b5f52604160045260245ffd5b5f82601f83011262000074575f80fd5b81516001600160401b038082111562000091576200009162000050565b604051601f8301601f19908116603f01168101908282118183101715620000bc57620000bc62000050565b8160405283815260209250866020858801011115620000d9575f80fd5b5f91505b83821015620000fc5785820183015181830184015290820190620000dd565b5f602085830101528094505050505092915050565b5f806040838503121562000123575f80fd5b82516001600160401b03808211156200013a575f80fd5b620001488683870162000064565b935060208501519150808211156200015e575f80fd5b506200016d8582860162000064565b9150509250929050565b600181811c908216806200018c57607f821691505b602082108103620001ab57634e487b7160e01b5f52602260045260245ffd5b50919050565b601f821115620001fc57805f5260205f20601f840160051c81016020851015620001d85750805b601f840160051c820191505b81811015620001f9575f8155600101620001e4565b50505b505050565b81516001600160401b038111156200021d576200021d62000050565b62000235816200022e845462000177565b84620001b1565b602080601f8311600181146200026b575f8415620002535750858301515b5f19600386901b1c1916600185901b178555620002c5565b5f85815260208120601f198616915b828110156200029b578886015182559484019460019091019084016200027a565b5085821015620002b957878501515f19600388901b60f8161c191681555b505060018460011b0185555b505050505050565b610afd80620002db5f395ff3fe608060405260043610610134575f3560e01c80636855a178116100a8578063a9059cbb1161006d578063a9059cbb1461033a578063b2331d7d14610359578063cc461d6214610378578063dd62ed3e14610397578063e047838d146103db578063efb43b07146103fa575f80fd5b80636855a1781461029557806370a08231146102b457806379cc6790146102e8578063861e3d3d1461030757806395d89b4114610326575f80fd5b8063313ce567116100f9578063313ce567146101ef57806332bc74aa1461020a57806332cadf3c1461022b578063342db7391461023f57806342966c681461026457806367354a8414610283575f80fd5b806306fdde031461013f578063095ea7b31461016957806318160ddd1461019857806323b872dd146101b65780632904df29146101d5575f80fd5b3661013b57005b5f80fd5b34801561014a575f80fd5b50610153610419565b604051610160919061092a565b60405180910390f35b348015610174575f80fd5b5061018861018336600461095e565b6104a9565b6040519015158152602001610160565b3480156101a3575f80fd5b506002545b604051908152602001610160565b3480156101c1575f80fd5b506101886101d0366004610986565b6104c2565b3480156101e0575f80fd5b50604051338152602001610160565b3480156101fa575f80fd5b5060405160128152602001610160565b348015610215575f80fd5b506102296102243660046109bf565b6104e5565b005b348015610236575f80fd5b506101536104f7565b34801561024a575f80fd5b506101a86e1a185c991a185d0b595e1c1bdcd959608a1b81565b34801561026f575f80fd5b5061022961027e366004610a0f565b610534565b34801561028e575f80fd5b505f6101a8565b3480156102a0575f80fd5b506102296102af366004610986565b610541565b3480156102bf575f80fd5b506101a86102ce366004610a26565b6001600160a01b03165f9081526020819052604090205490565b3480156102f3575f80fd5b5061022961030236600461095e565b610551565b348015610312575f80fd5b50610229610321366004610986565b61056a565b348015610331575f80fd5b50610153610575565b348015610345575f80fd5b5061018861035436600461095e565b610584565b348015610364575f80fd5b50610229610373366004610986565b610591565b348015610383575f80fd5b5061022961039236600461095e565b61059c565b3480156103a2575f80fd5b506101a86103b1366004610a3f565b6001600160a01b039182165f90815260016020908152604080832093909416825291909152205490565b3480156103e6575f80fd5b506102296103f536600461095e565b61055c565b348015610405575f80fd5b50610229610414366004610986565b6105a6565b60606003805461042890610a70565b80601f016020809104026020016040519081016040528092919081815260200182805461045490610a70565b801561049f5780601f106104765761010080835404028352916020019161049f565b820191905f5260205f20905b81548152906001019060200180831161048257829003601f168201915b5050505050905090565b5f336104b68185856105b1565b60019150505b92915050565b5f336104cf8582856105be565b6104da858585610639565b506001949350505050565b6104f18484848461068b565b50505050565b60605f368080601f0160208091040260200160405190810160405280939291908181526020018383808284375f9201919091525092949350505050565b61053e338261075d565b50565b61054c83838361078d565b505050565b61055c8233836105be565b610566828261075d565b5050565b61054c8383836105b1565b60606004805461042890610a70565b5f336104b6818585610639565b61054c8383836105be565b61056682826108b3565b61054c838383610639565b61054c838383600161068b565b6001600160a01b038381165f908152600160209081526040808320938616835292905220545f198110156104f1578181101561062b57604051637dc7a0d960e11b81526001600160a01b038416600482015260248101829052604481018390526064015b60405180910390fd5b6104f184848484035f61068b565b6001600160a01b03831661066257604051634b637e8f60e11b81525f6004820152602401610622565b6001600160a01b0382166105415760405163ec442f0560e01b81525f6004820152602401610622565b6001600160a01b0384166106b45760405163e602df0560e01b81525f6004820152602401610622565b6001600160a01b0383166106dd57604051634a1406b160e11b81525f6004820152602401610622565b6001600160a01b038085165f90815260016020908152604080832093871683529290522082905580156104f157826001600160a01b0316846001600160a01b03167f8c5be1e5ebec7d5bd14f71427d1e84f3dd0314c0f7b2291e5b200ac8c7c3b9258460405161074f91815260200190565b60405180910390a350505050565b6001600160a01b03821661078657604051634b637e8f60e11b81525f6004820152602401610622565b610566825f835b6001600160a01b0383166107b7578060025f8282546107ac9190610aa8565b909155506108279050565b6001600160a01b0383165f90815260208190526040902054818110156108095760405163391434e360e21b81526001600160a01b03851660048201526024810182905260448101839052606401610622565b6001600160a01b0384165f9081526020819052604090209082900390555b6001600160a01b03821661084357600280548290039055610861565b6001600160a01b0382165f9081526020819052604090208054820190555b816001600160a01b0316836001600160a01b03167fddf252ad1be2c89b69c2b068fc378daa952ba7f163c4a11628f55a4df523b3ef836040516108a691815260200190565b60405180910390a3505050565b6001600160a01b0382166108dc5760405163ec442f0560e01b81525f6004820152602401610622565b6105665f838361078d565b5f81518084525f5b8181101561090b576020818501810151868301820152016108ef565b505f602082860101526020601f19601f83011685010191505092915050565b602081525f61093c60208301846108e7565b9392505050565b80356001600160a01b0381168114610959575f80fd5b919050565b5f806040838503121561096f575f80fd5b61097883610943565b946020939093013593505050565b5f805f60608486031215610998575f80fd5b6109a184610943565b92506109af60208501610943565b9150604084013590509250925092565b5f805f80608085870312156109d2575f80fd5b6109db85610943565b93506109e960208601610943565b92506040850135915060608501358015158114610a04575f80fd5b939692955090935050565b5f60208284031215610a1f575f80fd5b5035919050565b5f60208284031215610a36575f80fd5b61093c82610943565b5f8060408385031215610a50575f80fd5b610a5983610943565b9150610a6760208401610943565b90509250929050565b600181811c90821680610a8457607f821691505b602082108103610aa257634e487b7160e01b5f52602260045260245ffd5b50919050565b808201808211156104bc57634e487b7160e01b5f52601160045260245ffdfea26469706673582212206acd4a1b7396d73b1a2b083f7ce26294ab5f6ff62ca94bdb0e6f7bcbce7edb0964736f6c63430008180033",
  "linkReferences": {},
  "deployedLinkReferences": {}
}