{
  "_format": "hh-sol-artifact-1",
  "contractName": "ChildConstructorInitializableMock",
  "sourceName": "contracts/mocks/InitializableMock.sol",
  "abi": [
    {
      "inputs": [],
      "stateMutability": "nonpayable",
      "type": "constructor"
    },
    {
      "inputs": [],
      "name": "InvalidInitialization",
      "type": "error"
    },
    {
      "inputs": [],
      "name": "NotInitializing",
      "type": "error"
    },
    {
      "anonymous": false,
      "inputs": [
        {
          "indexed": false,
          "internalType": "uint64",
          "name": "version",
          "type": "uint64"
        }
      ],
      "name": "Initialized",
      "type": "event"
    },
    {
      "inputs": [],
      "name": "childInitialize",
      "outputs": [],
      "stateMutability": "nonpayable",
      "type": "function"
    },
    {
      "inputs": [],
      "name": "childInitializerRan",
      "outputs": [
        {
          "internalType": "bool",
          "name": "",
          "type": "bool"
        }
      ],
      "stateMutability": "view",
      "type": "function"
    },
    {
      "inputs": [],
      "name": "initialize",
      "outputs": [],
      "stateMutability": "nonpayable",
      "type": "function"
    },
    {
      "inputs": [],
      "name": "initializeOnlyInitializing",
      "outputs": [],
      "stateMutability": "nonpayable",
      "type": "function"
    },
    {
      "inputs": [],
      "name": "initializerRan",
      "outputs": [
        {
          "internalType": "bool",
          "name": "",
          "type": "bool"
        }
      ],
      "stateMutability": "view",
      "type": "function"
    },
    {
      "inputs": [],
      "name": "onlyInitializingRan",
      "outputs": [
        {
          "internalType": "bool",
          "name": "",
          "type": "bool"
        }
      ],
      "stateMutability": "view",
      "type": "function"
    }
  ],
  "bytecode": "0x608060405234801561000f575f80fd5b505f805160206107da833981519152805468010000000000000000810460ff1615906001600160401b03165f811580156100465750825b90505f826001600160401b031660011480156100615750303b155b90508115801561006f575080155b1561008d5760405163f92ee8a960e01b815260040160405180910390fd5b84546001600160401b031916600117855583156100bb57845460ff60401b1916680100000000000000001785555b6100c3610208565b6100cb6102fa565b83156100fe57845460ff60401b19168555604051600181525f805160206107ba8339815191529060200160405180910390a15b50505050505f6101126101f760201b60201c565b805490915060ff6801000000000000000082041615906001600160401b03165f8115801561013d5750825b90505f826001600160401b031660011480156101585750303b155b905081158015610166575080155b156101845760405163f92ee8a960e01b815260040160405180910390fd5b84546001600160401b031916600117855583156101b257845460ff60401b1916680100000000000000001785555b6101ba610312565b83156101ed57845460ff60401b19168555604051600181525f805160206107ba8339815191529060200160405180910390a15b5050505050610439565b5f805160206107da83398151915290565b5f805160206107da833981519152805468010000000000000000810460ff1615906001600160401b03165f8115801561023e5750825b90505f826001600160401b031660011480156102595750303b155b905081158015610267575080155b156102855760405163f92ee8a960e01b815260040160405180910390fd5b84546001600160401b031916600117855583156102b357845460ff60401b1916680100000000000000001785555b5f805460ff1916600117905583156102f357845460ff60401b19168555604051600181525f805160206107ba833981519152906020015b60405180910390a15b5050505050565b6103026103fc565b5f805461ff001916610100179055565b5f805160206107da833981519152805468010000000000000000810460ff1615906001600160401b03165f811580156103485750825b90505f826001600160401b031660011480156103635750303b155b905081158015610371575080155b1561038f5760405163f92ee8a960e01b815260040160405180910390fd5b84546001600160401b031916600117855583156103bd57845460ff60401b1916680100000000000000001785555b5f805462ff000019166201000017905583156102f357845460ff60401b19168555604051600181525f805160206107ba833981519152906020016102ea565b5f805160206107da8339815191525468010000000000000000900460ff1661043757604051631afcd79f60e31b815260040160405180910390fd5b565b610374806104465f395ff3fe608060405234801561000f575f80fd5b5060043610610060575f3560e01c806310065ed2146100645780637cffe97a1461006e5780638129fc1c14610093578063b23d810b1461009b578063c3b8ef2a146100ad578063de74c703146100b9575b5f80fd5b61006c6100c1565b005b5f5461007f90610100900460ff1681565b604051901515815260200160405180910390f35b61006c6100d9565b5f5461007f9062010000900460ff1681565b5f5461007f9060ff1681565b61006c6101ea565b6100c96102f3565b5f805461ff001916610100179055565b7ff0c57e16840df040f15088dc2f81fe391c3923bec73e23a9662efc9c229c6a008054600160401b810460ff16159067ffffffffffffffff165f8115801561011e5750825b90505f8267ffffffffffffffff16600114801561013a5750303b155b905081158015610148575080155b156101665760405163f92ee8a960e01b815260040160405180910390fd5b845467ffffffffffffffff19166001178555831561019057845460ff60401b1916600160401b1785555b5f805460ff1916600117905583156101e357845460ff60401b19168555604051600181527fc7f505b2f371ae2175ee4913f4499e1f2633a7b5936321eed1cdaeb6115181d2906020015b60405180910390a15b5050505050565b7ff0c57e16840df040f15088dc2f81fe391c3923bec73e23a9662efc9c229c6a008054600160401b810460ff16159067ffffffffffffffff165f8115801561022f5750825b90505f8267ffffffffffffffff16600114801561024b5750303b155b905081158015610259575080155b156102775760405163f92ee8a960e01b815260040160405180910390fd5b845467ffffffffffffffff1916600117855583156102a157845460ff60401b1916600160401b1785555b5f805462ff000019166201000017905583156101e357845460ff60401b19168555604051600181527fc7f505b2f371ae2175ee4913f4499e1f2633a7b5936321eed1cdaeb6115181d2906020016101da565b7ff0c57e16840df040f15088dc2f81fe391c3923bec73e23a9662efc9c229c6a0054600160401b900460ff1661033c57604051631afcd79f60e31b815260040160405180910390fd5b56fea26469706673582212207896770ef7cdea86c9672581dd8c8e83a1b5c25a61e55aaaafd622ec6611245264736f6c63430008180033c7f505b2f371ae2175ee4913f4499e1f2633a7b5936321eed1cdaeb6115181d2f0c57e16840df040f15088dc2f81fe391c3923bec73e23a9662efc9c229c6a00",
  "linkReferences": {},
  "deployedLinkReferences": {}
}