{
  "_format": "hh-sol-artifact-1",
  "contractName": "ConstructorInitializableMock",
  "sourceName": "contracts/mocks/InitializableMock.sol",
  "abi": [
    {
      "inputs": [],
      "stateMutability": "nonpayable",
      "type": "constructor"
    },
    {
      "inputs": [],
      "name": "InvalidInitialization",
      "type": "error"
    },
    {
      "inputs": [],
      "name": "NotInitializing",
      "type": "error"
    },
    {
      "anonymous": false,
      "inputs": [
        {
          "indexed": false,
          "internalType": "uint64",
          "name": "version",
          "type": "uint64"
        }
      ],
      "name": "Initialized",
      "type": "event"
    },
    {
      "inputs": [],
      "name": "initialize",
      "outputs": [],
      "stateMutability": "nonpayable",
      "type": "function"
    },
    {
      "inputs": [],
      "name": "initializeOnlyInitializing",
      "outputs": [],
      "stateMutability": "nonpayable",
      "type": "function"
    },
    {
      "inputs": [],
      "name": "initializerRan",
      "outputs": [
        {
          "internalType": "bool",
          "name": "",
          "type": "bool"
        }
      ],
      "stateMutability": "view",
      "type": "function"
    },
    {
      "inputs": [],
      "name": "onlyInitializingRan",
      "outputs": [
        {
          "internalType": "bool",
          "name": "",
          "type": "bool"
        }
      ],
      "stateMutability": "view",
      "type": "function"
    }
  ],
  "bytecode": "0x608060405234801561000f575f80fd5b505f805160206104b5833981519152805468010000000000000000810460ff1615906001600160401b03165f811580156100465750825b90505f826001600160401b031660011480156100615750303b155b90508115801561006f575080155b1561008d5760405163f92ee8a960e01b815260040160405180910390fd5b84546001600160401b031916600117855583156100bb57845460ff60401b1916680100000000000000001785555b6100c3610108565b6100cb6101f9565b83156100fe57845460ff60401b19168555604051600181525f805160206104958339815191529060200160405180910390a15b505050505061024e565b5f805160206104b5833981519152805468010000000000000000810460ff1615906001600160401b03165f8115801561013e5750825b90505f826001600160401b031660011480156101595750303b155b905081158015610167575080155b156101855760405163f92ee8a960e01b815260040160405180910390fd5b84546001600160401b031916600117855583156101b357845460ff60401b1916680100000000000000001785555b5f805460ff1916600117905583156101f257845460ff60401b19168555604051600181525f805160206104958339815191529060200160405180910390a15b5050505050565b610201610211565b5f805461ff001916610100179055565b5f805160206104b58339815191525468010000000000000000900460ff1661024c57604051631afcd79f60e31b815260040160405180910390fd5b565b61023a8061025b5f395ff3fe608060405234801561000f575f80fd5b506004361061004a575f3560e01c806310065ed21461004e5780637cffe97a146100585780638129fc1c1461007d578063c3b8ef2a14610085575b5f80fd5b610056610091565b005b5f5461006990610100900460ff1681565b604051901515815260200160405180910390f35b6100566100a9565b5f546100699060ff1681565b6100996101b9565b5f805461ff001916610100179055565b7ff0c57e16840df040f15088dc2f81fe391c3923bec73e23a9662efc9c229c6a008054600160401b810460ff16159067ffffffffffffffff165f811580156100ee5750825b90505f8267ffffffffffffffff16600114801561010a5750303b155b905081158015610118575080155b156101365760405163f92ee8a960e01b815260040160405180910390fd5b845467ffffffffffffffff19166001178555831561016057845460ff60401b1916600160401b1785555b5f805460ff1916600117905583156101b257845460ff60401b19168555604051600181527fc7f505b2f371ae2175ee4913f4499e1f2633a7b5936321eed1cdaeb6115181d29060200160405180910390a15b5050505050565b7ff0c57e16840df040f15088dc2f81fe391c3923bec73e23a9662efc9c229c6a0054600160401b900460ff1661020257604051631afcd79f60e31b815260040160405180910390fd5b56fea2646970667358221220f89a713bebae412dea1cdc21e0d79f3d80415cecc5e7d70c1922fe12b69881c964736f6c63430008180033c7f505b2f371ae2175ee4913f4499e1f2633a7b5936321eed1cdaeb6115181d2f0c57e16840df040f15088dc2f81fe391c3923bec73e23a9662efc9c229c6a00",
  "linkReferences": {},
  "deployedLinkReferences": {}
}