{
  "_format": "hh-sol-artifact-1",
  "contractName": "ReinitializerMock",
  "sourceName": "contracts/mocks/InitializableMock.sol",
  "abi": [
    {
      "inputs": [],
      "name": "InvalidInitialization",
      "type": "error"
    },
    {
      "inputs": [],
      "name": "NotInitializing",
      "type": "error"
    },
    {
      "anonymous": false,
      "inputs": [
        {
          "indexed": false,
          "internalType": "uint64",
          "name": "version",
          "type": "uint64"
        }
      ],
      "name": "Initialized",
      "type": "event"
    },
    {
      "inputs": [
        {
          "internalType": "uint64",
          "name": "i",
          "type": "uint64"
        },
        {
          "internalType": "uint64",
          "name": "j",
          "type": "uint64"
        }
      ],
      "name": "chainReinitialize",
      "outputs": [],
      "stateMutability": "nonpayable",
      "type": "function"
    },
    {
      "inputs": [],
      "name": "counter",
      "outputs": [
        {
          "internalType": "uint256",
          "name": "",
          "type": "uint256"
        }
      ],
      "stateMutability": "view",
      "type": "function"
    },
    {
      "inputs": [],
      "name": "disableInitializers",
      "outputs": [],
      "stateMutability": "nonpayable",
      "type": "function"
    },
    {
      "inputs": [],
      "name": "doStuff",
      "outputs": [],
      "stateMutability": "nonpayable",
      "type": "function"
    },
    {
      "inputs": [],
      "name": "getInitializedVersion",
      "outputs": [
        {
          "internalType": "uint64",
          "name": "",
          "type": "uint64"
        }
      ],
      "stateMutability": "view",
      "type": "function"
    },
    {
      "inputs": [],
      "name": "initialize",
      "outputs": [],
      "stateMutability": "nonpayable",
      "type": "function"
    },
    {
      "inputs": [
        {
          "internalType": "uint64",
          "name": "i",
          "type": "uint64"
        },
        {
          "internalType": "uint64",
          "name": "j",
          "type": "uint64"
        }
      ],
      "name": "nestedReinitialize",
      "outputs": [],
      "stateMutability": "nonpayable",
      "type": "function"
    },
    {
      "inputs": [
        {
          "internalType": "uint64",
          "name": "i",
          "type": "uint64"
        }
      ],
      "name": "reinitialize",
      "outputs": [],
      "stateMutability": "nonpayable",
      "type": "function"
    }
  ],
  "bytecode": "0x608060405234801561000f575f80fd5b5061058c8061001d5f395ff3fe608060405234801561000f575f80fd5b5060043610610085575f3560e01c80639a1b97df116100585780639a1b97df146100be578063b3c65015146100d1578063b5f214c0146100f1578063ff57ab7414610104575f80fd5b806331f449001461008957806361bc221a146100935780638129fc1c146100ae578063874f33a1146100b6575b5f80fd5b610091610117565b005b61009b5f5481565b6040519081526020015b60405180910390f35b610091610121565b610091610205565b6100916100cc3660046104a1565b610222565b6100d96102d7565b6040516001600160401b0390911681526020016100a5565b6100916100ff3660046104c1565b6102fb565b6100916101123660046104c1565b610311565b61011f6103c8565b565b5f805160206105378339815191528054600160401b810460ff1615906001600160401b03165f811580156101525750825b90505f826001600160401b0316600114801561016d5750303b155b90508115801561017b575080155b156101995760405163f92ee8a960e01b815260040160405180910390fd5b845467ffffffffffffffff1916600117855583156101c357845460ff60401b1916600160401b1785555b6101cb610205565b83156101fe57845460ff60401b19168555604051600181525f805160206105178339815191529060200160405180910390a15b5050505050565b61020d610450565b5f8054908061021b836104f2565b9190505550565b5f805160206105378339815191528054829190600160401b900460ff1680610257575080546001600160401b03808416911610155b156102755760405163f92ee8a960e01b815260040160405180910390fd5b805468ffffffffffffffffff19166001600160401b03831617600160401b17815561029e610205565b805460ff60401b191681556040516001600160401b03831681525f805160206105178339815191529060200160405180910390a1505050565b5f6102f65f80516020610537833981519152546001600160401b031690565b905090565b61030482610222565b61030d81610222565b5050565b5f805160206105378339815191528054839190600160401b900460ff1680610346575080546001600160401b03808416911610155b156103645760405163f92ee8a960e01b815260040160405180910390fd5b805468ffffffffffffffffff19166001600160401b03831617600160401b17815561038e83610222565b805460ff60401b191681556040516001600160401b03831681525f805160206105178339815191529060200160405180910390a150505050565b5f805160206105378339815191528054600160401b900460ff16156104005760405163f92ee8a960e01b815260040160405180910390fd5b80546001600160401b039081161461044d57805467ffffffffffffffff19166001600160401b0390811782556040519081525f805160206105178339815191529060200160405180910390a15b50565b5f8051602061053783398151915254600160401b900460ff1661011f57604051631afcd79f60e31b815260040160405180910390fd5b80356001600160401b038116811461049c575f80fd5b919050565b5f602082840312156104b1575f80fd5b6104ba82610486565b9392505050565b5f80604083850312156104d2575f80fd5b6104db83610486565b91506104e960208401610486565b90509250929050565b5f6001820161050f57634e487b7160e01b5f52601160045260245ffd5b506001019056fec7f505b2f371ae2175ee4913f4499e1f2633a7b5936321eed1cdaeb6115181d2f0c57e16840df040f15088dc2f81fe391c3923bec73e23a9662efc9c229c6a00a264697066735822122009f539c773500f64a4f7f2213a49bc6006159bea9b12ab2379e6476444ca7c7b64736f6c63430008180033",
  "linkReferences": {},
  "deployedLinkReferences": {}
}