{
  "_format": "hh-sol-artifact-1",
  "contractName": "MulticallHelper",
  "sourceName": "contracts/mocks/MulticallHelper.sol",
  "abi": [
    {
      "inputs": [
        {
          "internalType": "contract ERC20MulticallMock",
          "name": "multicallToken",
          "type": "address"
        },
        {
          "internalType": "address[]",
          "name": "recipients",
          "type": "address[]"
        },
        {
          "internalType": "uint256[]",
          "name": "amounts",
          "type": "uint256[]"
        }
      ],
      "name": "checkReturnValues",
      "outputs": [],
      "stateMutability": "nonpayable",
      "type": "function"
    }
  ],
  "bytecode": "0x608060405234801561000f575f80fd5b506105718061001d5f395ff3fe608060405234801561000f575f80fd5b5060043610610029575f3560e01c8063b568d0161461002d575b5f80fd5b61004061003b36600461027e565b610042565b005b5f8367ffffffffffffffff81111561005c5761005c6102fb565b60405190808252806020026020018201604052801561008f57816020015b606081526020019060019003908161007a5790505b5090505f5b8481101561015a57866001600160a01b031663a9059cbb8787848181106100bd576100bd61030f565b90506020020160208101906100d29190610323565b8686858181106100e4576100e461030f565b6040516001600160a01b0390941660248501526020029190910135604483015250606401604051602081830303815290604052915060e01b6020820180516001600160e01b0383818316178352505050508282815181106101475761014761030f565b6020908102919091010152600101610094565b50604051631592ca1b60e31b81525f906001600160a01b0388169063ac9650d890610189908590600401610367565b5f604051808303815f875af11580156101a4573d5f803e3d5ffd5b505050506040513d5f823e601f3d908101601f191682016040526101cb9190810190610410565b90505f5b8151811015610215578181815181106101ea576101ea61030f565b6020026020010151806020019051810190610205919061051c565b61020d575f80fd5b6001016101cf565b5050505050505050565b6001600160a01b0381168114610233575f80fd5b50565b5f8083601f840112610246575f80fd5b50813567ffffffffffffffff81111561025d575f80fd5b6020830191508360208260051b8501011115610277575f80fd5b9250929050565b5f805f805f60608688031215610292575f80fd5b853561029d8161021f565b9450602086013567ffffffffffffffff808211156102b9575f80fd5b6102c589838a01610236565b909650945060408801359150808211156102dd575f80fd5b506102ea88828901610236565b969995985093965092949392505050565b634e487b7160e01b5f52604160045260245ffd5b634e487b7160e01b5f52603260045260245ffd5b5f60208284031215610333575f80fd5b813561033e8161021f565b9392505050565b5f5b8381101561035f578181015183820152602001610347565b50505f910152565b5f602080830181845280855180835260408601915060408160051b87010192508387015f5b828110156103d257878503603f19018452815180518087526103b3818989018a8501610345565b601f01601f19169590950186019450928501929085019060010161038c565b5092979650505050505050565b604051601f8201601f1916810167ffffffffffffffff81118282101715610408576104086102fb565b604052919050565b5f6020808385031215610421575f80fd5b825167ffffffffffffffff80821115610438575f80fd5b8185019150601f86601f84011261044d575f80fd5b82518281111561045f5761045f6102fb565b8060051b61046e8682016103df565b918252848101860191868101908a841115610487575f80fd5b87870192505b8383101561050e578251868111156104a3575f80fd5b8701603f81018c136104b3575f80fd5b888101516040888211156104c9576104c96102fb565b6104da828901601f19168c016103df565b8281528e828486010111156104ed575f80fd5b6104fc838d8301848701610345565b8552505050918701919087019061048d565b9a9950505050505050505050565b5f6020828403121561052c575f80fd5b8151801515811461033e575f80fdfea2646970667358221220dd54b0a48a15b59ff942a85c74b9c088b3ef6b6454ba13f370f33109b1eab3e264736f6c63430008180033",
  "linkReferences": {},
  "deployedLinkReferences": {}
}