{
  "_format": "hh-sol-artifact-1",
  "contractName": "$ERC1155Supply",
  "sourceName": "contracts-exposed/token/ERC1155/extensions/ERC1155Supply.sol",
  "abi": [
    {
      "inputs": [
        {
          "internalType": "string",
          "name": "uri_",
          "type": "string"
        }
      ],
      "stateMutability": "payable",
      "type": "constructor"
    },
    {
      "inputs": [
        {
          "internalType": "address",
          "name": "sender",
          "type": "address"
        },
        {
          "internalType": "uint256",
          "name": "balance",
          "type": "uint256"
        },
        {
          "internalType": "uint256",
          "name": "needed",
          "type": "uint256"
        },
        {
          "internalType": "uint256",
          "name": "tokenId",
          "type": "uint256"
        }
      ],
      "name": "ERC1155InsufficientBalance",
      "type": "error"
    },
    {
      "inputs": [
        {
          "internalType": "address",
          "name": "approver",
          "type": "address"
        }
      ],
      "name": "ERC1155InvalidApprover",
      "type": "error"
    },
    {
      "inputs": [
        {
          "internalType": "uint256",
          "name": "idsLength",
          "type": "uint256"
        },
        {
          "internalType": "uint256",
          "name": "valuesLength",
          "type": "uint256"
        }
      ],
      "name": "ERC1155InvalidArrayLength",
      "type": "error"
    },
    {
      "inputs": [
        {
          "internalType": "address",
          "name": "operator",
          "type": "address"
        }
      ],
      "name": "ERC1155InvalidOperator",
      "type": "error"
    },
    {
      "inputs": [
        {
          "internalType": "address",
          "name": "receiver",
          "type": "address"
        }
      ],
      "name": "ERC1155InvalidReceiver",
      "type": "error"
    },
    {
      "inputs": [
        {
          "internalType": "address",
          "name": "sender",
          "type": "address"
        }
      ],
      "name": "ERC1155InvalidSender",
      "type": "error"
    },
    {
      "inputs": [
        {
          "internalType": "address",
          "name": "operator",
          "type": "address"
        },
        {
          "internalType": "address",
          "name": "owner",
          "type": "address"
        }
      ],
      "name": "ERC1155MissingApprovalForAll",
      "type": "error"
    },
    {
      "anonymous": false,
      "inputs": [
        {
          "indexed": true,
          "internalType": "address",
          "name": "account",
          "type": "address"
        },
        {
          "indexed": true,
          "internalType": "address",
          "name": "operator",
          "type": "address"
        },
        {
          "indexed": false,
          "internalType": "bool",
          "name": "approved",
          "type": "bool"
        }
      ],
      "name": "ApprovalForAll",
      "type": "event"
    },
    {
      "anonymous": false,
      "inputs": [
        {
          "indexed": true,
          "internalType": "address",
          "name": "operator",
          "type": "address"
        },
        {
          "indexed": true,
          "internalType": "address",
          "name": "from",
          "type": "address"
        },
        {
          "indexed": true,
          "internalType": "address",
          "name": "to",
          "type": "address"
        },
        {
          "indexed": false,
          "internalType": "uint256[]",
          "name": "ids",
          "type": "uint256[]"
        },
        {
          "indexed": false,
          "internalType": "uint256[]",
          "name": "values",
          "type": "uint256[]"
        }
      ],
      "name": "TransferBatch",
      "type": "event"
    },
    {
      "anonymous": false,
      "inputs": [
        {
          "indexed": true,
          "internalType": "address",
          "name": "operator",
          "type": "address"
        },
        {
          "indexed": true,
          "internalType": "address",
          "name": "from",
          "type": "address"
        },
        {
          "indexed": true,
          "internalType": "address",
          "name": "to",
          "type": "address"
        },
        {
          "indexed": false,
          "internalType": "uint256",
          "name": "id",
          "type": "uint256"
        },
        {
          "indexed": false,
          "internalType": "uint256",
          "name": "value",
          "type": "uint256"
        }
      ],
      "name": "TransferSingle",
      "type": "event"
    },
    {
      "anonymous": false,
      "inputs": [
        {
          "indexed": false,
          "internalType": "string",
          "name": "value",
          "type": "string"
        },
        {
          "indexed": true,
          "internalType": "uint256",
          "name": "id",
          "type": "uint256"
        }
      ],
      "name": "URI",
      "type": "event"
    },
    {
      "inputs": [
        {
          "internalType": "address",
          "name": "from",
          "type": "address"
        },
        {
          "internalType": "uint256",
          "name": "id",
          "type": "uint256"
        },
        {
          "internalType": "uint256",
          "name": "value",
          "type": "uint256"
        }
      ],
      "name": "$_burn",
      "outputs": [],
      "stateMutability": "nonpayable",
      "type": "function"
    },
    {
      "inputs": [
        {
          "internalType": "address",
          "name": "from",
          "type": "address"
        },
        {
          "internalType": "uint256[]",
          "name": "ids",
          "type": "uint256[]"
        },
        {
          "internalType": "uint256[]",
          "name": "values",
          "type": "uint256[]"
        }
      ],
      "name": "$_burnBatch",
      "outputs": [],
      "stateMutability": "nonpayable",
      "type": "function"
    },
    {
      "inputs": [],
      "name": "$_contextSuffixLength",
      "outputs": [
        {
          "internalType": "uint256",
          "name": "ret0",
          "type": "uint256"
        }
      ],
      "stateMutability": "view",
      "type": "function"
    },
    {
      "inputs": [
        {
          "internalType": "address",
          "name": "to",
          "type": "address"
        },
        {
          "internalType": "uint256",
          "name": "id",
          "type": "uint256"
        },
        {
          "internalType": "uint256",
          "name": "value",
          "type": "uint256"
        },
        {
          "internalType": "bytes",
          "name": "data",
          "type": "bytes"
        }
      ],
      "name": "$_mint",
      "outputs": [],
      "stateMutability": "nonpayable",
      "type": "function"
    },
    {
      "inputs": [
        {
          "internalType": "address",
          "name": "to",
          "type": "address"
        },
        {
          "internalType": "uint256[]",
          "name": "ids",
          "type": "uint256[]"
        },
        {
          "internalType": "uint256[]",
          "name": "values",
          "type": "uint256[]"
        },
        {
          "internalType": "bytes",
          "name": "data",
          "type": "bytes"
        }
      ],
      "name": "$_mintBatch",
      "outputs": [],
      "stateMutability": "nonpayable",
      "type": "function"
    },
    {
      "inputs": [],
      "name": "$_msgData",
      "outputs": [
        {
          "internalType": "bytes",
          "name": "ret0",
          "type": "bytes"
        }
      ],
      "stateMutability": "view",
      "type": "function"
    },
    {
      "inputs": [],
      "name": "$_msgSender",
      "outputs": [
        {
          "internalType": "address",
          "name": "ret0",
          "type": "address"
        }
      ],
      "stateMutability": "view",
      "type": "function"
    },
    {
      "inputs": [
        {
          "internalType": "address",
          "name": "from",
          "type": "address"
        },
        {
          "internalType": "address",
          "name": "to",
          "type": "address"
        },
        {
          "internalType": "uint256[]",
          "name": "ids",
          "type": "uint256[]"
        },
        {
          "internalType": "uint256[]",
          "name": "values",
          "type": "uint256[]"
        },
        {
          "internalType": "bytes",
          "name": "data",
          "type": "bytes"
        }
      ],
      "name": "$_safeBatchTransferFrom",
      "outputs": [],
      "stateMutability": "nonpayable",
      "type": "function"
    },
    {
      "inputs": [
        {
          "internalType": "address",
          "name": "from",
          "type": "address"
        },
        {
          "internalType": "address",
          "name": "to",
          "type": "address"
        },
        {
          "internalType": "uint256",
          "name": "id",
          "type": "uint256"
        },
        {
          "internalType": "uint256",
          "name": "value",
          "type": "uint256"
        },
        {
          "internalType": "bytes",
          "name": "data",
          "type": "bytes"
        }
      ],
      "name": "$_safeTransferFrom",
      "outputs": [],
      "stateMutability": "nonpayable",
      "type": "function"
    },
    {
      "inputs": [
        {
          "internalType": "address",
          "name": "owner",
          "type": "address"
        },
        {
          "internalType": "address",
          "name": "operator",
          "type": "address"
        },
        {
          "internalType": "bool",
          "name": "approved",
          "type": "bool"
        }
      ],
      "name": "$_setApprovalForAll",
      "outputs": [],
      "stateMutability": "nonpayable",
      "type": "function"
    },
    {
      "inputs": [
        {
          "internalType": "string",
          "name": "newuri",
          "type": "string"
        }
      ],
      "name": "$_setURI",
      "outputs": [],
      "stateMutability": "nonpayable",
      "type": "function"
    },
    {
      "inputs": [
        {
          "internalType": "address",
          "name": "from",
          "type": "address"
        },
        {
          "internalType": "address",
          "name": "to",
          "type": "address"
        },
        {
          "internalType": "uint256[]",
          "name": "ids",
          "type": "uint256[]"
        },
        {
          "internalType": "uint256[]",
          "name": "values",
          "type": "uint256[]"
        }
      ],
      "name": "$_update",
      "outputs": [],
      "stateMutability": "nonpayable",
      "type": "function"
    },
    {
      "inputs": [
        {
          "internalType": "address",
          "name": "from",
          "type": "address"
        },
        {
          "internalType": "address",
          "name": "to",
          "type": "address"
        },
        {
          "internalType": "uint256[]",
          "name": "ids",
          "type": "uint256[]"
        },
        {
          "internalType": "uint256[]",
          "name": "values",
          "type": "uint256[]"
        },
        {
          "internalType": "bytes",
          "name": "data",
          "type": "bytes"
        }
      ],
      "name": "$_updateWithAcceptanceCheck",
      "outputs": [],
      "stateMutability": "nonpayable",
      "type": "function"
    },
    {
      "inputs": [],
      "name": "__hh_exposed_bytecode_marker",
      "outputs": [
        {
          "internalType": "bytes32",
          "name": "",
          "type": "bytes32"
        }
      ],
      "stateMutability": "view",
      "type": "function"
    },
    {
      "inputs": [
        {
          "internalType": "address",
          "name": "account",
          "type": "address"
        },
        {
          "internalType": "uint256",
          "name": "id",
          "type": "uint256"
        }
      ],
      "name": "balanceOf",
      "outputs": [
        {
          "internalType": "uint256",
          "name": "",
          "type": "uint256"
        }
      ],
      "stateMutability": "view",
      "type": "function"
    },
    {
      "inputs": [
        {
          "internalType": "address[]",
          "name": "accounts",
          "type": "address[]"
        },
        {
          "internalType": "uint256[]",
          "name": "ids",
          "type": "uint256[]"
        }
      ],
      "name": "balanceOfBatch",
      "outputs": [
        {
          "internalType": "uint256[]",
          "name": "",
          "type": "uint256[]"
        }
      ],
      "stateMutability": "view",
      "type": "function"
    },
    {
      "inputs": [
        {
          "internalType": "uint256",
          "name": "id",
          "type": "uint256"
        }
      ],
      "name": "exists",
      "outputs": [
        {
          "internalType": "bool",
          "name": "",
          "type": "bool"
        }
      ],
      "stateMutability": "view",
      "type": "function"
    },
    {
      "inputs": [
        {
          "internalType": "address",
          "name": "account",
          "type": "address"
        },
        {
          "internalType": "address",
          "name": "operator",
          "type": "address"
        }
      ],
      "name": "isApprovedForAll",
      "outputs": [
        {
          "internalType": "bool",
          "name": "",
          "type": "bool"
        }
      ],
      "stateMutability": "view",
      "type": "function"
    },
    {
      "inputs": [
        {
          "internalType": "address",
          "name": "from",
          "type": "address"
        },
        {
          "internalType": "address",
          "name": "to",
          "type": "address"
        },
        {
          "internalType": "uint256[]",
          "name": "ids",
          "type": "uint256[]"
        },
        {
          "internalType": "uint256[]",
          "name": "values",
          "type": "uint256[]"
        },
        {
          "internalType": "bytes",
          "name": "data",
          "type": "bytes"
        }
      ],
      "name": "safeBatchTransferFrom",
      "outputs": [],
      "stateMutability": "nonpayable",
      "type": "function"
    },
    {
      "inputs": [
        {
          "internalType": "address",
          "name": "from",
          "type": "address"
        },
        {
          "internalType": "address",
          "name": "to",
          "type": "address"
        },
        {
          "internalType": "uint256",
          "name": "id",
          "type": "uint256"
        },
        {
          "internalType": "uint256",
          "name": "value",
          "type": "uint256"
        },
        {
          "internalType": "bytes",
          "name": "data",
          "type": "bytes"
        }
      ],
      "name": "safeTransferFrom",
      "outputs": [],
      "stateMutability": "nonpayable",
      "type": "function"
    },
    {
      "inputs": [
        {
          "internalType": "address",
          "name": "operator",
          "type": "address"
        },
        {
          "internalType": "bool",
          "name": "approved",
          "type": "bool"
        }
      ],
      "name": "setApprovalForAll",
      "outputs": [],
      "stateMutability": "nonpayable",
      "type": "function"
    },
    {
      "inputs": [
        {
          "internalType": "bytes4",
          "name": "interfaceId",
          "type": "bytes4"
        }
      ],
      "name": "supportsInterface",
      "outputs": [
        {
          "internalType": "bool",
          "name": "",
          "type": "bool"
        }
      ],
      "stateMutability": "view",
      "type": "function"
    },
    {
      "inputs": [],
      "name": "totalSupply",
      "outputs": [
        {
          "internalType": "uint256",
          "name": "",
          "type": "uint256"
        }
      ],
      "stateMutability": "view",
      "type": "function"
    },
    {
      "inputs": [
        {
          "internalType": "uint256",
          "name": "id",
          "type": "uint256"
        }
      ],
      "name": "totalSupply",
      "outputs": [
        {
          "internalType": "uint256",
          "name": "",
          "type": "uint256"
        }
      ],
      "stateMutability": "view",
      "type": "function"
    },
    {
      "inputs": [
        {
          "internalType": "uint256",
          "name": "",
          "type": "uint256"
        }
      ],
      "name": "uri",
      "outputs": [
        {
          "internalType": "string",
          "name": "",
          "type": "string"
        }
      ],
      "stateMutability": "view",
      "type": "function"
    },
    {
      "stateMutability": "payable",
      "type": "receive"
    }
  ],
  "bytecode": "0x60806040526040516200215f3803806200215f833981016040819052620000269162000060565b8062000032816200003a565b505062000284565b6002620000488282620001b8565b5050565b634e487b7160e01b5f52604160045260245ffd5b5f602080838503121562000072575f80fd5b82516001600160401b038082111562000089575f80fd5b818501915085601f8301126200009d575f80fd5b815181811115620000b257620000b26200004c565b604051601f8201601f19908116603f01168101908382118183101715620000dd57620000dd6200004c565b816040528281528886848701011115620000f5575f80fd5b5f93505b82841015620001185784840186015181850187015292850192620000f9565b5f86848301015280965050505050505092915050565b600181811c908216806200014357607f821691505b6020821081036200016257634e487b7160e01b5f52602260045260245ffd5b50919050565b601f821115620001b357805f5260205f20601f840160051c810160208510156200018f5750805b601f840160051c820191505b81811015620001b0575f81556001016200019b565b50505b505050565b81516001600160401b03811115620001d457620001d46200004c565b620001ec81620001e584546200012e565b8462000168565b602080601f83116001811462000222575f84156200020a5750858301515b5f19600386901b1c1916600185901b1785556200027c565b5f85815260208120601f198616915b82811015620002525788860151825594840194600190910190840162000231565b50858210156200027057878501515f19600388901b60f8161c191681555b505060018460011b0185555b505050505050565b611ecd80620002925f395ff3fe608060405260043610610163575f3560e01c80634f558e79116100cd578063bd85b03911610087578063e985e9c511610062578063e985e9c514610430578063ec3016f71461044f578063eebe6ab41461046e578063f242432a1461048d575f80fd5b8063bd85b039146103c7578063bf445cb8146103f2578063cfeea0d414610411575f80fd5b80634f558e791461030c57806367354a84146103395780637dfd6d691461034b578063a22cb4651461036a578063af32f2f214610389578063b556c328146103a8575f80fd5b80632d64f4791161011e5780632d64f4791461024a5780632eb2c2d61461026957806332cadf3c14610288578063342db7391461029c57806338106e25146102c15780634e1273f4146102e0575f80fd5b8062fdd58e1461016e57806301ffc9a7146101a05780630c3c37ae146101cf5780630e89341c146101f057806318160ddd1461021c5780632904df2914610230575f80fd5b3661016a57005b5f80fd5b348015610179575f80fd5b5061018d610188366004611390565b6104ac565b6040519081526020015b60405180910390f35b3480156101ab575f80fd5b506101bf6101ba3660046113d0565b6104d3565b6040519015158152602001610197565b3480156101da575f80fd5b506101ee6101e9366004611436565b610522565b005b3480156101fb575f80fd5b5061020f61020a3660046114a8565b61056c565b6040516101979190611502565b348015610227575f80fd5b5060045461018d565b34801561023b575f80fd5b50604051338152602001610197565b348015610255575f80fd5b506101ee610264366004611554565b6105fe565b348015610274575f80fd5b506101ee610283366004611743565b6106a8565b348015610293575f80fd5b5061020f61070c565b3480156102a7575f80fd5b5061018d6e1a185c991a185d0b595e1c1bdcd959608a1b81565b3480156102cc575f80fd5b506101ee6102db3660046117e5565b610749565b3480156102eb575f80fd5b506102ff6102fa36600461185f565b6107bc565b6040516101979190611952565b348015610317575f80fd5b506101bf6103263660046114a8565b5f90815260036020526040902054151590565b348015610344575f80fd5b505f61018d565b348015610356575f80fd5b506101ee610365366004611964565b610886565b348015610375575f80fd5b506101ee6103843660046119c4565b6108c7565b348015610394575f80fd5b506101ee6103a33660046119f5565b6108d6565b3480156103b3575f80fd5b506101ee6103c2366004611a6d565b610943565b3480156103d2575f80fd5b5061018d6103e13660046114a8565b5f9081526003602052604090205490565b3480156103fd575f80fd5b506101ee61040c366004611a9d565b610953565b34801561041c575f80fd5b506101ee61042b366004611b3f565b6109fb565b34801561043b575f80fd5b506101bf61044a366004611b7f565b610a06565b34801561045a575f80fd5b506101ee610469366004611ba7565b610a33565b348015610479575f80fd5b506101ee610488366004611554565b610a71565b348015610498575f80fd5b506101ee6104a7366004611be5565b610b11565b5f818152602081815260408083206001600160a01b03861684529091529020545b92915050565b5f6001600160e01b03198216636cdb3d1360e11b148061050357506001600160e01b031982166303a24d0760e21b145b806104cd57506301ffc9a760e01b6001600160e01b03198316146104cd565b6105648686868686868080601f0160208091040260200160405190810160405280939291908181526020018383808284375f92019190915250610b6c92505050565b505050505050565b60606002805461057b90611c44565b80601f01602080910402602001604051908101604052809291908181526020018280546105a790611c44565b80156105f25780601f106105c9576101008083540402835291602001916105f2565b820191905f5260205f20905b8154815290600101906020018083116105d557829003601f168201915b50505050509050919050565b61069e88888888808060200260200160405190810160405280939291908181526020018383602002808284375f9201919091525050604080516020808c0282810182019093528b82529093508b92508a9182918501908490808284375f9201919091525050604080516020601f8b0181900481028201810190925289815292508991508890819084018382808284375f92019190915250610beb92505050565b5050505050505050565b336001600160a01b03861681148015906106c957506106c78682610a06565b155b156106ff5760405163711bec9160e11b81526001600160a01b038083166004830152871660248201526044015b60405180910390fd5b6105648686868686610c3e565b60605f368080601f0160208091040260200160405190810160405280939291908181526020018383808284375f9201919091525092949350505050565b6107b5858585808060200260200160405190810160405280939291908181526020018383602002808284375f92019190915250506040805160208089028281018201909352888252909350889250879182918501908490808284375f92019190915250610c9c92505050565b5050505050565b606081518351146107ed5781518351604051635b05999160e01b8152600481019290925260248201526044016106f6565b5f83516001600160401b0381111561080757610807611606565b604051908082528060200260200182016040528015610830578160200160208202803683370190505b5090505f5b845181101561087e57602080820286010151610859906020808402870101516104ac565b82828151811061086b5761086b611c7c565b6020908102919091010152600101610835565b509392505050565b6107b585858585858080601f0160208091040260200160405190810160405280939291908181526020018383808284375f92019190915250610cdf92505050565b6108d2338383610d3a565b5050565b61056486868686808060200260200160405190810160405280939291908181526020018383602002808284375f9201919091525050604080516020808a028281018201909352898252909350899250889182918501908490808284375f92019190915250610dce92505050565b61094e838383610eb6565b505050565b6109f2878787808060200260200160405190810160405280939291908181526020018383602002808284375f9201919091525050604080516020808b0282810182019093528a82529093508a9250899182918501908490808284375f9201919091525050604080516020601f8a0181900481028201810190925288815292508891508790819084018382808284375f92019190915250610f1c92505050565b50505050505050565b61094e838383610d3a565b6001600160a01b039182165f90815260016020908152604080832093909416825291909152205460ff1690565b6108d282828080601f0160208091040260200160405190810160405280939291908181526020018383808284375f92019190915250610f5292505050565b61069e88888888808060200260200160405190810160405280939291908181526020018383602002808284375f9201919091525050604080516020808c0282810182019093528b82529093508b92508a9182918501908490808284375f9201919091525050604080516020601f8b0181900481028201810190925289815292508991508890819084018382808284375f92019190915250610c3e92505050565b336001600160a01b0386168114801590610b325750610b308682610a06565b155b15610b635760405163711bec9160e11b81526001600160a01b038083166004830152871660248201526044016106f6565b61056486868686865b6001600160a01b038416610b9557604051632bfa23e760e11b81525f60048201526024016106f6565b6001600160a01b038516610bbd57604051626a0d4560e21b81525f60048201526024016106f6565b604080516001808252602082018690528183019081526060820185905260808201909252906109f287878484875b610bf785858585610dce565b6001600160a01b038416156107b55782513390600103610c305760208481015190840151610c29838989858589610f5e565b5050610564565b61056481878787878761107f565b6001600160a01b038416610c6757604051632bfa23e760e11b81525f60048201526024016106f6565b6001600160a01b038516610c8f57604051626a0d4560e21b81525f60048201526024016106f6565b6107b58585858585610beb565b6001600160a01b038316610cc457604051626a0d4560e21b81525f60048201526024016106f6565b61094e835f848460405180602001604052805f815250610beb565b6001600160a01b038416610d0857604051632bfa23e760e11b81525f60048201526024016106f6565b604080516001808252602082018690528183019081526060820185905260808201909252906105645f87848487610beb565b6001600160a01b038216610d625760405162ced3e160e81b81525f60048201526024016106f6565b6001600160a01b038381165f81815260016020908152604080832094871680845294825291829020805460ff191686151590811790915591519182527f17307eab39ab6107e8899845ad3d59bd9653f200f220920489ca2b5937696c31910160405180910390a3505050565b610dda84848484611166565b6001600160a01b038416610e57575f805b8351811015610e3e5760208181028481018201519086018201515f908152600390925260408220805491928392610e23908490611c90565b90915550610e3390508184611c90565b925050600101610deb565b508060045f828254610e509190611c90565b9091555050505b6001600160a01b038316610eb0575f805b8351811015610ea45760208181028481018201519086018201515f90815260039092526040909120805482900390559190910190600101610e68565b50600480549190910390555b50505050565b6001600160a01b038316610ede57604051626a0d4560e21b81525f60048201526024016106f6565b604080516001808252602082018590528183019081526060820184905260a082019092525f608082018181529192916107b591879185908590610beb565b6001600160a01b038416610f4557604051632bfa23e760e11b81525f60048201526024016106f6565b610eb05f85858585610beb565b60026108d28282611cf3565b6001600160a01b0384163b156105645760405163f23a6e6160e01b81526001600160a01b0385169063f23a6e6190610fa29089908990889088908890600401611dae565b6020604051808303815f875af1925050508015610fdc575060408051601f3d908101601f19168201909252610fd991810190611df2565b60015b611043573d808015611009576040519150601f19603f3d011682016040523d82523d5f602084013e61100e565b606091505b5080515f0361103b57604051632bfa23e760e11b81526001600160a01b03861660048201526024016106f6565b805181602001fd5b6001600160e01b0319811663f23a6e6160e01b146109f257604051632bfa23e760e11b81526001600160a01b03861660048201526024016106f6565b6001600160a01b0384163b156105645760405163bc197c8160e01b81526001600160a01b0385169063bc197c81906110c39089908990889088908890600401611e0d565b6020604051808303815f875af19250505080156110fd575060408051601f3d908101601f191682019092526110fa91810190611df2565b60015b61112a573d808015611009576040519150601f19603f3d011682016040523d82523d5f602084013e61100e565b6001600160e01b0319811663bc197c8160e01b146109f257604051632bfa23e760e11b81526001600160a01b03861660048201526024016106f6565b80518251146111955781518151604051635b05999160e01b8152600481019290925260248201526044016106f6565b335f5b8351811015611297576020818102858101820151908501909101516001600160a01b03881615611249575f828152602081815260408083206001600160a01b038c16845290915290205481811015611223576040516303dee4c560e01b81526001600160a01b038a1660048201526024810182905260448101839052606481018490526084016106f6565b5f838152602081815260408083206001600160a01b038d16845290915290209082900390555b6001600160a01b0387161561128d575f828152602081815260408083206001600160a01b038b16845290915281208054839290611287908490611c90565b90915550505b5050600101611198565b5082516001036113175760208301515f906020840151909150856001600160a01b0316876001600160a01b0316846001600160a01b03167fc3d58168c5ae7397731d063d5bbf3d657854427343f4c083240f7aacaa2d0f628585604051611308929190918252602082015260400190565b60405180910390a450506107b5565b836001600160a01b0316856001600160a01b0316826001600160a01b03167f4a39dc06d4c0dbc64b70af90fd698a233a518aa5d07e595d983b8c0526c8f7fb8686604051611366929190611e6a565b60405180910390a45050505050565b80356001600160a01b038116811461138b575f80fd5b919050565b5f80604083850312156113a1575f80fd5b6113aa83611375565b946020939093013593505050565b6001600160e01b0319811681146113cd575f80fd5b50565b5f602082840312156113e0575f80fd5b81356113eb816113b8565b9392505050565b5f8083601f840112611402575f80fd5b5081356001600160401b03811115611418575f80fd5b60208301915083602082850101111561142f575f80fd5b9250929050565b5f805f805f8060a0878903121561144b575f80fd5b61145487611375565b955061146260208801611375565b9450604087013593506060870135925060808701356001600160401b0381111561148a575f80fd5b61149689828a016113f2565b979a9699509497509295939492505050565b5f602082840312156114b8575f80fd5b5035919050565b5f81518084525f5b818110156114e3576020818501810151868301820152016114c7565b505f602082860101526020601f19601f83011685010191505092915050565b602081525f6113eb60208301846114bf565b5f8083601f840112611524575f80fd5b5081356001600160401b0381111561153a575f80fd5b6020830191508360208260051b850101111561142f575f80fd5b5f805f805f805f8060a0898b03121561156b575f80fd5b61157489611375565b975061158260208a01611375565b965060408901356001600160401b038082111561159d575f80fd5b6115a98c838d01611514565b909850965060608b01359150808211156115c1575f80fd5b6115cd8c838d01611514565b909650945060808b01359150808211156115e5575f80fd5b506115f28b828c016113f2565b999c989b5096995094979396929594505050565b634e487b7160e01b5f52604160045260245ffd5b604051601f8201601f191681016001600160401b038111828210171561164257611642611606565b604052919050565b5f6001600160401b0382111561166257611662611606565b5060051b60200190565b5f82601f83011261167b575f80fd5b8135602061169061168b8361164a565b61161a565b8083825260208201915060208460051b8701019350868411156116b1575f80fd5b602086015b848110156116cd57803583529183019183016116b6565b509695505050505050565b5f82601f8301126116e7575f80fd5b81356001600160401b0381111561170057611700611606565b611713601f8201601f191660200161161a565b818152846020838601011115611727575f80fd5b816020850160208301375f918101602001919091529392505050565b5f805f805f60a08688031215611757575f80fd5b61176086611375565b945061176e60208701611375565b935060408601356001600160401b0380821115611789575f80fd5b61179589838a0161166c565b945060608801359150808211156117aa575f80fd5b6117b689838a0161166c565b935060808801359150808211156117cb575f80fd5b506117d8888289016116d8565b9150509295509295909350565b5f805f805f606086880312156117f9575f80fd5b61180286611375565b945060208601356001600160401b038082111561181d575f80fd5b61182989838a01611514565b90965094506040880135915080821115611841575f80fd5b5061184e88828901611514565b969995985093965092949392505050565b5f8060408385031215611870575f80fd5b82356001600160401b0380821115611886575f80fd5b818501915085601f830112611899575f80fd5b813560206118a961168b8361164a565b82815260059290921b840181019181810190898411156118c7575f80fd5b948201945b838610156118ec576118dd86611375565b825294820194908201906118cc565b96505086013592505080821115611901575f80fd5b5061190e8582860161166c565b9150509250929050565b5f815180845260208085019450602084015f5b838110156119475781518752958201959082019060010161192b565b509495945050505050565b602081525f6113eb6020830184611918565b5f805f805f60808688031215611978575f80fd5b61198186611375565b9450602086013593506040860135925060608601356001600160401b038111156119a9575f80fd5b61184e888289016113f2565b8035801515811461138b575f80fd5b5f80604083850312156119d5575f80fd5b6119de83611375565b91506119ec602084016119b5565b90509250929050565b5f805f805f8060808789031215611a0a575f80fd5b611a1387611375565b9550611a2160208801611375565b945060408701356001600160401b0380821115611a3c575f80fd5b611a488a838b01611514565b90965094506060890135915080821115611a60575f80fd5b5061149689828a01611514565b5f805f60608486031215611a7f575f80fd5b611a8884611375565b95602085013595506040909401359392505050565b5f805f805f805f6080888a031215611ab3575f80fd5b611abc88611375565b965060208801356001600160401b0380821115611ad7575f80fd5b611ae38b838c01611514565b909850965060408a0135915080821115611afb575f80fd5b611b078b838c01611514565b909650945060608a0135915080821115611b1f575f80fd5b50611b2c8a828b016113f2565b989b979a50959850939692959293505050565b5f805f60608486031215611b51575f80fd5b611b5a84611375565b9250611b6860208501611375565b9150611b76604085016119b5565b90509250925092565b5f8060408385031215611b90575f80fd5b611b9983611375565b91506119ec60208401611375565b5f8060208385031215611bb8575f80fd5b82356001600160401b03811115611bcd575f80fd5b611bd9858286016113f2565b90969095509350505050565b5f805f805f60a08688031215611bf9575f80fd5b611c0286611375565b9450611c1060208701611375565b9350604086013592506060860135915060808601356001600160401b03811115611c38575f80fd5b6117d8888289016116d8565b600181811c90821680611c5857607f821691505b602082108103611c7657634e487b7160e01b5f52602260045260245ffd5b50919050565b634e487b7160e01b5f52603260045260245ffd5b808201808211156104cd57634e487b7160e01b5f52601160045260245ffd5b601f82111561094e57805f5260205f20601f840160051c81016020851015611cd45750805b601f840160051c820191505b818110156107b5575f8155600101611ce0565b81516001600160401b03811115611d0c57611d0c611606565b611d2081611d1a8454611c44565b84611caf565b602080601f831160018114611d53575f8415611d3c5750858301515b5f19600386901b1c1916600185901b178555610564565b5f85815260208120601f198616915b82811015611d8157888601518255948401946001909101908401611d62565b5085821015611d9e57878501515f19600388901b60f8161c191681555b5050505050600190811b01905550565b6001600160a01b03868116825285166020820152604081018490526060810183905260a0608082018190525f90611de7908301846114bf565b979650505050505050565b5f60208284031215611e02575f80fd5b81516113eb816113b8565b6001600160a01b0386811682528516602082015260a0604082018190525f90611e3890830186611918565b8281036060840152611e4a8186611918565b90508281036080840152611e5e81856114bf565b98975050505050505050565b604081525f611e7c6040830185611918565b8281036020840152611e8e8185611918565b9594505050505056fea2646970667358221220304aef03a5555b3ca8386b7384e5ecad4313c8518d29b43ab2c7f1ec534e7b3564736f6c63430008180033",
  "linkReferences": {},
  "deployedLinkReferences": {}
}