{
  "_format": "hh-sol-artifact-1",
  "contractName": "$ERC20Reentrant",
  "sourceName": "contracts-exposed/mocks/token/ERC20Reentrant.sol",
  "abi": [
    {
      "inputs": [],
      "stateMutability": "payable",
      "type": "constructor"
    },
    {
      "inputs": [
        {
          "internalType": "address",
          "name": "target",
          "type": "address"
        }
      ],
      "name": "AddressEmptyCode",
      "type": "error"
    },
    {
      "inputs": [
        {
          "internalType": "address",
          "name": "spender",
          "type": "address"
        },
        {
          "internalType": "uint256",
          "name": "allowance",
          "type": "uint256"
        },
        {
          "internalType": "uint256",
          "name": "needed",
          "type": "uint256"
        }
      ],
      "name": "ERC20InsufficientAllowance",
      "type": "error"
    },
    {
      "inputs": [
        {
          "internalType": "address",
          "name": "sender",
          "type": "address"
        },
        {
          "internalType": "uint256",
          "name": "balance",
          "type": "uint256"
        },
        {
          "internalType": "uint256",
          "name": "needed",
          "type": "uint256"
        }
      ],
      "name": "ERC20InsufficientBalance",
      "type": "error"
    },
    {
      "inputs": [
        {
          "internalType": "address",
          "name": "approver",
          "type": "address"
        }
      ],
      "name": "ERC20InvalidApprover",
      "type": "error"
    },
    {
      "inputs": [
        {
          "internalType": "address",
          "name": "receiver",
          "type": "address"
        }
      ],
      "name": "ERC20InvalidReceiver",
      "type": "error"
    },
    {
      "inputs": [
        {
          "internalType": "address",
          "name": "sender",
          "type": "address"
        }
      ],
      "name": "ERC20InvalidSender",
      "type": "error"
    },
    {
      "inputs": [
        {
          "internalType": "address",
          "name": "spender",
          "type": "address"
        }
      ],
      "name": "ERC20InvalidSpender",
      "type": "error"
    },
    {
      "inputs": [],
      "name": "FailedCall",
      "type": "error"
    },
    {
      "inputs": [
        {
          "internalType": "uint256",
          "name": "balance",
          "type": "uint256"
        },
        {
          "internalType": "uint256",
          "name": "needed",
          "type": "uint256"
        }
      ],
      "name": "InsufficientBalance",
      "type": "error"
    },
    {
      "anonymous": false,
      "inputs": [
        {
          "indexed": true,
          "internalType": "address",
          "name": "owner",
          "type": "address"
        },
        {
          "indexed": true,
          "internalType": "address",
          "name": "spender",
          "type": "address"
        },
        {
          "indexed": false,
          "internalType": "uint256",
          "name": "value",
          "type": "uint256"
        }
      ],
      "name": "Approval",
      "type": "event"
    },
    {
      "anonymous": false,
      "inputs": [
        {
          "indexed": true,
          "internalType": "address",
          "name": "from",
          "type": "address"
        },
        {
          "indexed": true,
          "internalType": "address",
          "name": "to",
          "type": "address"
        },
        {
          "indexed": false,
          "internalType": "uint256",
          "name": "value",
          "type": "uint256"
        }
      ],
      "name": "Transfer",
      "type": "event"
    },
    {
      "inputs": [
        {
          "internalType": "address",
          "name": "owner",
          "type": "address"
        },
        {
          "internalType": "address",
          "name": "spender",
          "type": "address"
        },
        {
          "internalType": "uint256",
          "name": "value",
          "type": "uint256"
        },
        {
          "internalType": "bool",
          "name": "emitEvent",
          "type": "bool"
        }
      ],
      "name": "$_approve",
      "outputs": [],
      "stateMutability": "nonpayable",
      "type": "function"
    },
    {
      "inputs": [
        {
          "internalType": "address",
          "name": "owner",
          "type": "address"
        },
        {
          "internalType": "address",
          "name": "spender",
          "type": "address"
        },
        {
          "internalType": "uint256",
          "name": "value",
          "type": "uint256"
        }
      ],
      "name": "$_approve",
      "outputs": [],
      "stateMutability": "nonpayable",
      "type": "function"
    },
    {
      "inputs": [
        {
          "internalType": "address",
          "name": "account",
          "type": "address"
        },
        {
          "internalType": "uint256",
          "name": "value",
          "type": "uint256"
        }
      ],
      "name": "$_burn",
      "outputs": [],
      "stateMutability": "nonpayable",
      "type": "function"
    },
    {
      "inputs": [],
      "name": "$_contextSuffixLength",
      "outputs": [
        {
          "internalType": "uint256",
          "name": "ret0",
          "type": "uint256"
        }
      ],
      "stateMutability": "view",
      "type": "function"
    },
    {
      "inputs": [
        {
          "internalType": "address",
          "name": "account",
          "type": "address"
        },
        {
          "internalType": "uint256",
          "name": "value",
          "type": "uint256"
        }
      ],
      "name": "$_mint",
      "outputs": [],
      "stateMutability": "nonpayable",
      "type": "function"
    },
    {
      "inputs": [],
      "name": "$_msgData",
      "outputs": [
        {
          "internalType": "bytes",
          "name": "ret0",
          "type": "bytes"
        }
      ],
      "stateMutability": "view",
      "type": "function"
    },
    {
      "inputs": [],
      "name": "$_msgSender",
      "outputs": [
        {
          "internalType": "address",
          "name": "ret0",
          "type": "address"
        }
      ],
      "stateMutability": "view",
      "type": "function"
    },
    {
      "inputs": [
        {
          "internalType": "address",
          "name": "owner",
          "type": "address"
        },
        {
          "internalType": "address",
          "name": "spender",
          "type": "address"
        },
        {
          "internalType": "uint256",
          "name": "value",
          "type": "uint256"
        }
      ],
      "name": "$_spendAllowance",
      "outputs": [],
      "stateMutability": "nonpayable",
      "type": "function"
    },
    {
      "inputs": [
        {
          "internalType": "address",
          "name": "from",
          "type": "address"
        },
        {
          "internalType": "address",
          "name": "to",
          "type": "address"
        },
        {
          "internalType": "uint256",
          "name": "value",
          "type": "uint256"
        }
      ],
      "name": "$_transfer",
      "outputs": [],
      "stateMutability": "nonpayable",
      "type": "function"
    },
    {
      "inputs": [
        {
          "internalType": "address",
          "name": "from",
          "type": "address"
        },
        {
          "internalType": "address",
          "name": "to",
          "type": "address"
        },
        {
          "internalType": "uint256",
          "name": "amount",
          "type": "uint256"
        }
      ],
      "name": "$_update",
      "outputs": [],
      "stateMutability": "nonpayable",
      "type": "function"
    },
    {
      "inputs": [],
      "name": "__hh_exposed_bytecode_marker",
      "outputs": [
        {
          "internalType": "bytes32",
          "name": "",
          "type": "bytes32"
        }
      ],
      "stateMutability": "view",
      "type": "function"
    },
    {
      "inputs": [
        {
          "internalType": "address",
          "name": "owner",
          "type": "address"
        },
        {
          "internalType": "address",
          "name": "spender",
          "type": "address"
        }
      ],
      "name": "allowance",
      "outputs": [
        {
          "internalType": "uint256",
          "name": "",
          "type": "uint256"
        }
      ],
      "stateMutability": "view",
      "type": "function"
    },
    {
      "inputs": [
        {
          "internalType": "address",
          "name": "spender",
          "type": "address"
        },
        {
          "internalType": "uint256",
          "name": "value",
          "type": "uint256"
        }
      ],
      "name": "approve",
      "outputs": [
        {
          "internalType": "bool",
          "name": "",
          "type": "bool"
        }
      ],
      "stateMutability": "nonpayable",
      "type": "function"
    },
    {
      "inputs": [
        {
          "internalType": "address",
          "name": "account",
          "type": "address"
        }
      ],
      "name": "balanceOf",
      "outputs": [
        {
          "internalType": "uint256",
          "name": "",
          "type": "uint256"
        }
      ],
      "stateMutability": "view",
      "type": "function"
    },
    {
      "inputs": [],
      "name": "decimals",
      "outputs": [
        {
          "internalType": "uint8",
          "name": "",
          "type": "uint8"
        }
      ],
      "stateMutability": "view",
      "type": "function"
    },
    {
      "inputs": [
        {
          "internalType": "address",
          "name": "target",
          "type": "address"
        },
        {
          "internalType": "bytes",
          "name": "data",
          "type": "bytes"
        }
      ],
      "name": "functionCall",
      "outputs": [
        {
          "internalType": "bytes",
          "name": "",
          "type": "bytes"
        }
      ],
      "stateMutability": "nonpayable",
      "type": "function"
    },
    {
      "inputs": [],
      "name": "name",
      "outputs": [
        {
          "internalType": "string",
          "name": "",
          "type": "string"
        }
      ],
      "stateMutability": "view",
      "type": "function"
    },
    {
      "inputs": [
        {
          "internalType": "enum ERC20Reentrant.Type",
          "name": "when",
          "type": "uint8"
        },
        {
          "internalType": "address",
          "name": "target",
          "type": "address"
        },
        {
          "internalType": "bytes",
          "name": "data",
          "type": "bytes"
        }
      ],
      "name": "scheduleReenter",
      "outputs": [],
      "stateMutability": "nonpayable",
      "type": "function"
    },
    {
      "inputs": [],
      "name": "symbol",
      "outputs": [
        {
          "internalType": "string",
          "name": "",
          "type": "string"
        }
      ],
      "stateMutability": "view",
      "type": "function"
    },
    {
      "inputs": [],
      "name": "totalSupply",
      "outputs": [
        {
          "internalType": "uint256",
          "name": "",
          "type": "uint256"
        }
      ],
      "stateMutability": "view",
      "type": "function"
    },
    {
      "inputs": [
        {
          "internalType": "address",
          "name": "to",
          "type": "address"
        },
        {
          "internalType": "uint256",
          "name": "value",
          "type": "uint256"
        }
      ],
      "name": "transfer",
      "outputs": [
        {
          "internalType": "bool",
          "name": "",
          "type": "bool"
        }
      ],
      "stateMutability": "nonpayable",
      "type": "function"
    },
    {
      "inputs": [
        {
          "internalType": "address",
          "name": "from",
          "type": "address"
        },
        {
          "internalType": "address",
          "name": "to",
          "type": "address"
        },
        {
          "internalType": "uint256",
          "name": "value",
          "type": "uint256"
        }
      ],
      "name": "transferFrom",
      "outputs": [
        {
          "internalType": "bool",
          "name": "",
          "type": "bool"
        }
      ],
      "stateMutability": "nonpayable",
      "type": "function"
    },
    {
      "stateMutability": "payable",
      "type": "receive"
    }
  ],
  "bytecode": "0x6004608090815263151154d560e21b60a052610100604052600360c0818152621514d560ea1b60e05290620000358382620000eb565b506004620000448282620000eb565b505050620001b7565b634e487b7160e01b5f52604160045260245ffd5b600181811c908216806200007657607f821691505b6020821081036200009557634e487b7160e01b5f52602260045260245ffd5b50919050565b601f821115620000e657805f5260205f20601f840160051c81016020851015620000c25750805b601f840160051c820191505b81811015620000e3575f8155600101620000ce565b50505b505050565b81516001600160401b038111156200010757620001076200004d565b6200011f8162000118845462000061565b846200009b565b602080601f83116001811462000155575f84156200013d5750858301515b5f19600386901b1c1916600185901b178555620001af565b5f85815260208120601f198616915b82811015620001855788860151825594840194600190910190840162000164565b5085821015620001a357878501515f19600388901b60f8161c191681555b505060018460011b0185555b505050505050565b61101a80620001c55f395ff3fe608060405260043610610134575f3560e01c806370a08231116100a8578063b2331d7d1161006d578063b2331d7d1461033a578063cc461d6214610359578063cd594b6314610378578063dd62ed3e14610397578063e047838d146103db578063efb43b07146103fa575f80fd5b806370a0823114610295578063861e3d3d146102c957806395d89b41146102e8578063a0b5ffb0146102fc578063a9059cbb1461031b575f80fd5b8063313ce567116100f9578063313ce567146101ef57806332bc74aa1461020a57806332cadf3c1461022b578063342db7391461023f57806367354a84146102645780636855a17814610276575f80fd5b806306fdde031461013f578063095ea7b31461016957806318160ddd1461019857806323b872dd146101b65780632904df29146101d5575f80fd5b3661013b57005b5f80fd5b34801561014a575f80fd5b50610153610419565b6040516101609190610bdc565b60405180910390f35b348015610174575f80fd5b50610188610183366004610c09565b6104a9565b6040519015158152602001610160565b3480156101a3575f80fd5b506002545b604051908152602001610160565b3480156101c1575f80fd5b506101886101d0366004610c31565b6104c2565b3480156101e0575f80fd5b50604051338152602001610160565b3480156101fa575f80fd5b5060405160128152602001610160565b348015610215575f80fd5b50610229610224366004610c6a565b6104e7565b005b348015610236575f80fd5b506101536104f9565b34801561024a575f80fd5b506101a86e1a185c991a185d0b595e1c1bdcd959608a1b81565b34801561026f575f80fd5b505f6101a8565b348015610281575f80fd5b50610229610290366004610c31565b610536565b3480156102a0575f80fd5b506101a86102af366004610cba565b6001600160a01b03165f9081526020819052604090205490565b3480156102d4575f80fd5b506102296102e3366004610c31565b610546565b3480156102f3575f80fd5b50610153610551565b348015610307575f80fd5b50610153610316366004610ce7565b610560565b348015610326575f80fd5b50610188610335366004610c09565b61056c565b348015610345575f80fd5b50610229610354366004610c31565b610579565b348015610364575f80fd5b50610229610373366004610c09565b610584565b348015610383575f80fd5b50610229610392366004610da3565b610592565b3480156103a2575f80fd5b506101a86103b1366004610e2f565b6001600160a01b039182165f90815260016020908152604080832093909416825291909152205490565b3480156103e6575f80fd5b506102296103f5366004610c09565b6105ea565b348015610405575f80fd5b50610229610414366004610c31565b6105f4565b60606003805461042890610e60565b80601f016020809104026020016040519081016040528092919081815260200182805461045490610e60565b801561049f5780601f106104765761010080835404028352916020019161049f565b820191905f5260205f20905b81548152906001019060200180831161048257829003601f168201915b5050505050905090565b5f336104b68185856105ff565b60019150505b92915050565b5f336104cf85828561060c565b6104da858585610687565b60019150505b9392505050565b6104f3848484846106d9565b50505050565b60605f368080601f0160208091040260200160405190810160405280939291908181526020018383808284375f9201919091525092949350505050565b6105418383836107ab565b505050565b6105418383836105ff565b60606004805461042890610e60565b60606104e083836108cf565b5f336104b6818585610687565b61054183838361060c565b61058e82826108dc565b5050565b6005805485919060ff191660018360028111156105b1576105b1610e98565b021790555060058054610100600160a81b0319166101006001600160a01b0386160217905560066105e3828483610ef0565b5050505050565b61058e8282610910565b610541838383610687565b61054183838360016106d9565b6001600160a01b038381165f908152600160209081526040808320938616835292905220545f198110156104f3578181101561067957604051637dc7a0d960e11b81526001600160a01b038416600482015260248101829052604481018390526064015b60405180910390fd5b6104f384848484035f6106d9565b6001600160a01b0383166106b057604051634b637e8f60e11b81525f6004820152602401610670565b6001600160a01b0382166105365760405163ec442f0560e01b81525f6004820152602401610670565b6001600160a01b0384166107025760405163e602df0560e01b81525f6004820152602401610670565b6001600160a01b03831661072b57604051634a1406b160e11b81525f6004820152602401610670565b6001600160a01b038085165f90815260016020908152604080832093871683529290522082905580156104f357826001600160a01b0316846001600160a01b03167f8c5be1e5ebec7d5bd14f71427d1e84f3dd0314c0f7b2291e5b200ac8c7c3b9258460405161079d91815260200190565b60405180910390a350505050565b600160055460ff1660028111156107c4576107c4610e98565b03610879576005805460ff191690819055600680546108779261010090046001600160a01b031691906107f690610e60565b80601f016020809104026020016040519081016040528092919081815260200182805461082290610e60565b801561086d5780601f106108445761010080835404028352916020019161086d565b820191905f5260205f20905b81548152906001019060200180831161085057829003601f168201915b5050505050610560565b505b610884838383610944565b600260055460ff16600281111561089d5761089d610e98565b03610541576005805460ff191690819055600680546104f39261010090046001600160a01b031691906107f690610e60565b60606104e083835f610a6a565b6001600160a01b0382166109055760405163ec442f0560e01b81525f6004820152602401610670565b61058e5f83836107ab565b6001600160a01b03821661093957604051634b637e8f60e11b81525f6004820152602401610670565b61058e825f836107ab565b6001600160a01b03831661096e578060025f8282546109639190610faa565b909155506109de9050565b6001600160a01b0383165f90815260208190526040902054818110156109c05760405163391434e360e21b81526001600160a01b03851660048201526024810182905260448101839052606401610670565b6001600160a01b0384165f9081526020819052604090209082900390555b6001600160a01b0382166109fa57600280548290039055610a18565b6001600160a01b0382165f9081526020819052604090208054820190555b816001600160a01b0316836001600160a01b03167fddf252ad1be2c89b69c2b068fc378daa952ba7f163c4a11628f55a4df523b3ef83604051610a5d91815260200190565b60405180910390a3505050565b606081471015610a965760405163cf47918160e01b815247600482015260248101839052604401610670565b5f80856001600160a01b03168486604051610ab19190610fc9565b5f6040518083038185875af1925050503d805f8114610aeb576040519150601f19603f3d011682016040523d82523d5f602084013e610af0565b606091505b5091509150610b00868383610b0a565b9695505050505050565b606082610b1f57610b1a82610b66565b6104e0565b8151158015610b3657506001600160a01b0384163b155b15610b5f57604051639996b31560e01b81526001600160a01b0385166004820152602401610670565b50806104e0565b805115610b765780518082602001fd5b60405163d6bda27560e01b815260040160405180910390fd5b5f5b83811015610ba9578181015183820152602001610b91565b50505f910152565b5f8151808452610bc8816020860160208601610b8f565b601f01601f19169290920160200192915050565b602081525f6104e06020830184610bb1565b80356001600160a01b0381168114610c04575f80fd5b919050565b5f8060408385031215610c1a575f80fd5b610c2383610bee565b946020939093013593505050565b5f805f60608486031215610c43575f80fd5b610c4c84610bee565b9250610c5a60208501610bee565b9150604084013590509250925092565b5f805f8060808587031215610c7d575f80fd5b610c8685610bee565b9350610c9460208601610bee565b92506040850135915060608501358015158114610caf575f80fd5b939692955090935050565b5f60208284031215610cca575f80fd5b6104e082610bee565b634e487b7160e01b5f52604160045260245ffd5b5f8060408385031215610cf8575f80fd5b610d0183610bee565b9150602083013567ffffffffffffffff80821115610d1d575f80fd5b818501915085601f830112610d30575f80fd5b813581811115610d4257610d42610cd3565b604051601f8201601f19908116603f01168101908382118183101715610d6a57610d6a610cd3565b81604052828152886020848701011115610d82575f80fd5b826020860160208301375f6020848301015280955050505050509250929050565b5f805f8060608587031215610db6575f80fd5b843560038110610dc4575f80fd5b9350610dd260208601610bee565b9250604085013567ffffffffffffffff80821115610dee575f80fd5b818701915087601f830112610e01575f80fd5b813581811115610e0f575f80fd5b886020828501011115610e20575f80fd5b95989497505060200194505050565b5f8060408385031215610e40575f80fd5b610e4983610bee565b9150610e5760208401610bee565b90509250929050565b600181811c90821680610e7457607f821691505b602082108103610e9257634e487b7160e01b5f52602260045260245ffd5b50919050565b634e487b7160e01b5f52602160045260245ffd5b601f82111561054157805f5260205f20601f840160051c81016020851015610ed15750805b601f840160051c820191505b818110156105e3575f8155600101610edd565b67ffffffffffffffff831115610f0857610f08610cd3565b610f1c83610f168354610e60565b83610eac565b5f601f841160018114610f4d575f8515610f365750838201355b5f19600387901b1c1916600186901b1783556105e3565b5f83815260208120601f198716915b82811015610f7c5786850135825560209485019460019092019101610f5c565b5086821015610f98575f1960f88860031b161c19848701351681555b505060018560011b0183555050505050565b808201808211156104bc57634e487b7160e01b5f52601160045260245ffd5b5f8251610fda818460208701610b8f565b919091019291505056fea264697066735822122052e415523c613e963d86a7ac08503e96d4ca5dcf1d63e5f44a8f3bfa5bf0805264736f6c63430008180033",
  "linkReferences": {},
  "deployedLinkReferences": {}
}