{
  "_format": "hh-sol-artifact-1",
  "contractName": "$GameItems",
  "sourceName": "contracts-exposed/mocks/docs/token/ERC1155/GameItems.sol",
  "abi": [
    {
      "inputs": [],
      "stateMutability": "payable",
      "type": "constructor"
    },
    {
      "inputs": [
        {
          "internalType": "address",
          "name": "sender",
          "type": "address"
        },
        {
          "internalType": "uint256",
          "name": "balance",
          "type": "uint256"
        },
        {
          "internalType": "uint256",
          "name": "needed",
          "type": "uint256"
        },
        {
          "internalType": "uint256",
          "name": "tokenId",
          "type": "uint256"
        }
      ],
      "name": "ERC1155InsufficientBalance",
      "type": "error"
    },
    {
      "inputs": [
        {
          "internalType": "address",
          "name": "approver",
          "type": "address"
        }
      ],
      "name": "ERC1155InvalidApprover",
      "type": "error"
    },
    {
      "inputs": [
        {
          "internalType": "uint256",
          "name": "idsLength",
          "type": "uint256"
        },
        {
          "internalType": "uint256",
          "name": "valuesLength",
          "type": "uint256"
        }
      ],
      "name": "ERC1155InvalidArrayLength",
      "type": "error"
    },
    {
      "inputs": [
        {
          "internalType": "address",
          "name": "operator",
          "type": "address"
        }
      ],
      "name": "ERC1155InvalidOperator",
      "type": "error"
    },
    {
      "inputs": [
        {
          "internalType": "address",
          "name": "receiver",
          "type": "address"
        }
      ],
      "name": "ERC1155InvalidReceiver",
      "type": "error"
    },
    {
      "inputs": [
        {
          "internalType": "address",
          "name": "sender",
          "type": "address"
        }
      ],
      "name": "ERC1155InvalidSender",
      "type": "error"
    },
    {
      "inputs": [
        {
          "internalType": "address",
          "name": "operator",
          "type": "address"
        },
        {
          "internalType": "address",
          "name": "owner",
          "type": "address"
        }
      ],
      "name": "ERC1155MissingApprovalForAll",
      "type": "error"
    },
    {
      "anonymous": false,
      "inputs": [
        {
          "indexed": true,
          "internalType": "address",
          "name": "account",
          "type": "address"
        },
        {
          "indexed": true,
          "internalType": "address",
          "name": "operator",
          "type": "address"
        },
        {
          "indexed": false,
          "internalType": "bool",
          "name": "approved",
          "type": "bool"
        }
      ],
      "name": "ApprovalForAll",
      "type": "event"
    },
    {
      "anonymous": false,
      "inputs": [
        {
          "indexed": true,
          "internalType": "address",
          "name": "operator",
          "type": "address"
        },
        {
          "indexed": true,
          "internalType": "address",
          "name": "from",
          "type": "address"
        },
        {
          "indexed": true,
          "internalType": "address",
          "name": "to",
          "type": "address"
        },
        {
          "indexed": false,
          "internalType": "uint256[]",
          "name": "ids",
          "type": "uint256[]"
        },
        {
          "indexed": false,
          "internalType": "uint256[]",
          "name": "values",
          "type": "uint256[]"
        }
      ],
      "name": "TransferBatch",
      "type": "event"
    },
    {
      "anonymous": false,
      "inputs": [
        {
          "indexed": true,
          "internalType": "address",
          "name": "operator",
          "type": "address"
        },
        {
          "indexed": true,
          "internalType": "address",
          "name": "from",
          "type": "address"
        },
        {
          "indexed": true,
          "internalType": "address",
          "name": "to",
          "type": "address"
        },
        {
          "indexed": false,
          "internalType": "uint256",
          "name": "id",
          "type": "uint256"
        },
        {
          "indexed": false,
          "internalType": "uint256",
          "name": "value",
          "type": "uint256"
        }
      ],
      "name": "TransferSingle",
      "type": "event"
    },
    {
      "anonymous": false,
      "inputs": [
        {
          "indexed": false,
          "internalType": "string",
          "name": "value",
          "type": "string"
        },
        {
          "indexed": true,
          "internalType": "uint256",
          "name": "id",
          "type": "uint256"
        }
      ],
      "name": "URI",
      "type": "event"
    },
    {
      "inputs": [
        {
          "internalType": "address",
          "name": "from",
          "type": "address"
        },
        {
          "internalType": "uint256",
          "name": "id",
          "type": "uint256"
        },
        {
          "internalType": "uint256",
          "name": "value",
          "type": "uint256"
        }
      ],
      "name": "$_burn",
      "outputs": [],
      "stateMutability": "nonpayable",
      "type": "function"
    },
    {
      "inputs": [
        {
          "internalType": "address",
          "name": "from",
          "type": "address"
        },
        {
          "internalType": "uint256[]",
          "name": "ids",
          "type": "uint256[]"
        },
        {
          "internalType": "uint256[]",
          "name": "values",
          "type": "uint256[]"
        }
      ],
      "name": "$_burnBatch",
      "outputs": [],
      "stateMutability": "nonpayable",
      "type": "function"
    },
    {
      "inputs": [],
      "name": "$_contextSuffixLength",
      "outputs": [
        {
          "internalType": "uint256",
          "name": "ret0",
          "type": "uint256"
        }
      ],
      "stateMutability": "view",
      "type": "function"
    },
    {
      "inputs": [
        {
          "internalType": "address",
          "name": "to",
          "type": "address"
        },
        {
          "internalType": "uint256",
          "name": "id",
          "type": "uint256"
        },
        {
          "internalType": "uint256",
          "name": "value",
          "type": "uint256"
        },
        {
          "internalType": "bytes",
          "name": "data",
          "type": "bytes"
        }
      ],
      "name": "$_mint",
      "outputs": [],
      "stateMutability": "nonpayable",
      "type": "function"
    },
    {
      "inputs": [
        {
          "internalType": "address",
          "name": "to",
          "type": "address"
        },
        {
          "internalType": "uint256[]",
          "name": "ids",
          "type": "uint256[]"
        },
        {
          "internalType": "uint256[]",
          "name": "values",
          "type": "uint256[]"
        },
        {
          "internalType": "bytes",
          "name": "data",
          "type": "bytes"
        }
      ],
      "name": "$_mintBatch",
      "outputs": [],
      "stateMutability": "nonpayable",
      "type": "function"
    },
    {
      "inputs": [],
      "name": "$_msgData",
      "outputs": [
        {
          "internalType": "bytes",
          "name": "ret0",
          "type": "bytes"
        }
      ],
      "stateMutability": "view",
      "type": "function"
    },
    {
      "inputs": [],
      "name": "$_msgSender",
      "outputs": [
        {
          "internalType": "address",
          "name": "ret0",
          "type": "address"
        }
      ],
      "stateMutability": "view",
      "type": "function"
    },
    {
      "inputs": [
        {
          "internalType": "address",
          "name": "from",
          "type": "address"
        },
        {
          "internalType": "address",
          "name": "to",
          "type": "address"
        },
        {
          "internalType": "uint256[]",
          "name": "ids",
          "type": "uint256[]"
        },
        {
          "internalType": "uint256[]",
          "name": "values",
          "type": "uint256[]"
        },
        {
          "internalType": "bytes",
          "name": "data",
          "type": "bytes"
        }
      ],
      "name": "$_safeBatchTransferFrom",
      "outputs": [],
      "stateMutability": "nonpayable",
      "type": "function"
    },
    {
      "inputs": [
        {
          "internalType": "address",
          "name": "from",
          "type": "address"
        },
        {
          "internalType": "address",
          "name": "to",
          "type": "address"
        },
        {
          "internalType": "uint256",
          "name": "id",
          "type": "uint256"
        },
        {
          "internalType": "uint256",
          "name": "value",
          "type": "uint256"
        },
        {
          "internalType": "bytes",
          "name": "data",
          "type": "bytes"
        }
      ],
      "name": "$_safeTransferFrom",
      "outputs": [],
      "stateMutability": "nonpayable",
      "type": "function"
    },
    {
      "inputs": [
        {
          "internalType": "address",
          "name": "owner",
          "type": "address"
        },
        {
          "internalType": "address",
          "name": "operator",
          "type": "address"
        },
        {
          "internalType": "bool",
          "name": "approved",
          "type": "bool"
        }
      ],
      "name": "$_setApprovalForAll",
      "outputs": [],
      "stateMutability": "nonpayable",
      "type": "function"
    },
    {
      "inputs": [
        {
          "internalType": "string",
          "name": "newuri",
          "type": "string"
        }
      ],
      "name": "$_setURI",
      "outputs": [],
      "stateMutability": "nonpayable",
      "type": "function"
    },
    {
      "inputs": [
        {
          "internalType": "address",
          "name": "from",
          "type": "address"
        },
        {
          "internalType": "address",
          "name": "to",
          "type": "address"
        },
        {
          "internalType": "uint256[]",
          "name": "ids",
          "type": "uint256[]"
        },
        {
          "internalType": "uint256[]",
          "name": "values",
          "type": "uint256[]"
        }
      ],
      "name": "$_update",
      "outputs": [],
      "stateMutability": "nonpayable",
      "type": "function"
    },
    {
      "inputs": [
        {
          "internalType": "address",
          "name": "from",
          "type": "address"
        },
        {
          "internalType": "address",
          "name": "to",
          "type": "address"
        },
        {
          "internalType": "uint256[]",
          "name": "ids",
          "type": "uint256[]"
        },
        {
          "internalType": "uint256[]",
          "name": "values",
          "type": "uint256[]"
        },
        {
          "internalType": "bytes",
          "name": "data",
          "type": "bytes"
        }
      ],
      "name": "$_updateWithAcceptanceCheck",
      "outputs": [],
      "stateMutability": "nonpayable",
      "type": "function"
    },
    {
      "inputs": [],
      "name": "GOLD",
      "outputs": [
        {
          "internalType": "uint256",
          "name": "",
          "type": "uint256"
        }
      ],
      "stateMutability": "view",
      "type": "function"
    },
    {
      "inputs": [],
      "name": "SHIELD",
      "outputs": [
        {
          "internalType": "uint256",
          "name": "",
          "type": "uint256"
        }
      ],
      "stateMutability": "view",
      "type": "function"
    },
    {
      "inputs": [],
      "name": "SILVER",
      "outputs": [
        {
          "internalType": "uint256",
          "name": "",
          "type": "uint256"
        }
      ],
      "stateMutability": "view",
      "type": "function"
    },
    {
      "inputs": [],
      "name": "SWORD",
      "outputs": [
        {
          "internalType": "uint256",
          "name": "",
          "type": "uint256"
        }
      ],
      "stateMutability": "view",
      "type": "function"
    },
    {
      "inputs": [],
      "name": "THORS_HAMMER",
      "outputs": [
        {
          "internalType": "uint256",
          "name": "",
          "type": "uint256"
        }
      ],
      "stateMutability": "view",
      "type": "function"
    },
    {
      "inputs": [],
      "name": "__hh_exposed_bytecode_marker",
      "outputs": [
        {
          "internalType": "bytes32",
          "name": "",
          "type": "bytes32"
        }
      ],
      "stateMutability": "view",
      "type": "function"
    },
    {
      "inputs": [
        {
          "internalType": "address",
          "name": "account",
          "type": "address"
        },
        {
          "internalType": "uint256",
          "name": "id",
          "type": "uint256"
        }
      ],
      "name": "balanceOf",
      "outputs": [
        {
          "internalType": "uint256",
          "name": "",
          "type": "uint256"
        }
      ],
      "stateMutability": "view",
      "type": "function"
    },
    {
      "inputs": [
        {
          "internalType": "address[]",
          "name": "accounts",
          "type": "address[]"
        },
        {
          "internalType": "uint256[]",
          "name": "ids",
          "type": "uint256[]"
        }
      ],
      "name": "balanceOfBatch",
      "outputs": [
        {
          "internalType": "uint256[]",
          "name": "",
          "type": "uint256[]"
        }
      ],
      "stateMutability": "view",
      "type": "function"
    },
    {
      "inputs": [
        {
          "internalType": "address",
          "name": "account",
          "type": "address"
        },
        {
          "internalType": "address",
          "name": "operator",
          "type": "address"
        }
      ],
      "name": "isApprovedForAll",
      "outputs": [
        {
          "internalType": "bool",
          "name": "",
          "type": "bool"
        }
      ],
      "stateMutability": "view",
      "type": "function"
    },
    {
      "inputs": [
        {
          "internalType": "address",
          "name": "from",
          "type": "address"
        },
        {
          "internalType": "address",
          "name": "to",
          "type": "address"
        },
        {
          "internalType": "uint256[]",
          "name": "ids",
          "type": "uint256[]"
        },
        {
          "internalType": "uint256[]",
          "name": "values",
          "type": "uint256[]"
        },
        {
          "internalType": "bytes",
          "name": "data",
          "type": "bytes"
        }
      ],
      "name": "safeBatchTransferFrom",
      "outputs": [],
      "stateMutability": "nonpayable",
      "type": "function"
    },
    {
      "inputs": [
        {
          "internalType": "address",
          "name": "from",
          "type": "address"
        },
        {
          "internalType": "address",
          "name": "to",
          "type": "address"
        },
        {
          "internalType": "uint256",
          "name": "id",
          "type": "uint256"
        },
        {
          "internalType": "uint256",
          "name": "value",
          "type": "uint256"
        },
        {
          "internalType": "bytes",
          "name": "data",
          "type": "bytes"
        }
      ],
      "name": "safeTransferFrom",
      "outputs": [],
      "stateMutability": "nonpayable",
      "type": "function"
    },
    {
      "inputs": [
        {
          "internalType": "address",
          "name": "operator",
          "type": "address"
        },
        {
          "internalType": "bool",
          "name": "approved",
          "type": "bool"
        }
      ],
      "name": "setApprovalForAll",
      "outputs": [],
      "stateMutability": "nonpayable",
      "type": "function"
    },
    {
      "inputs": [
        {
          "internalType": "bytes4",
          "name": "interfaceId",
          "type": "bytes4"
        }
      ],
      "name": "supportsInterface",
      "outputs": [
        {
          "internalType": "bool",
          "name": "",
          "type": "bool"
        }
      ],
      "stateMutability": "view",
      "type": "function"
    },
    {
      "inputs": [
        {
          "internalType": "uint256",
          "name": "",
          "type": "uint256"
        }
      ],
      "name": "uri",
      "outputs": [
        {
          "internalType": "string",
          "name": "",
          "type": "string"
        }
      ],
      "stateMutability": "view",
      "type": "function"
    },
    {
      "stateMutability": "payable",
      "type": "receive"
    }
  ],
  "bytecode": "0x60e060405260276080818152906200274f60a0396200001e81620000f0565b5062000049335f670de0b6b3a764000060405180602001604052805f8152506200010260201b60201c565b620000783360016b033b2e3c9fd0803ce800000060405180602001604052805f8152506200010260201b60201c565b6200009c336002600160405180602001604052805f8152506200010260201b60201c565b620000c3336003633b9aca0060405180602001604052805f8152506200010260201b60201c565b620000ea336004633b9aca0060405180602001604052805f8152506200010260201b60201c565b6200092b565b6002620000fe8282620006b2565b5050565b6001600160a01b0384166200013157604051632bfa23e760e11b81525f60048201526024015b60405180910390fd5b60408051600180825260208201869052818301908152606082018590526080820190925290620001655f878484876200016d565b505050505050565b6200017b85858585620001d0565b6001600160a01b03841615620001c95782513390600103620001b95760208481015190840151620001b1838989858589620003ee565b505062000165565b6200016581878787878762000525565b5050505050565b8051825114620002015781518151604051635b05999160e01b81526004810192909252602482015260440162000128565b335f5b83518110156200030b576020818102858101820151908501909101516001600160a01b03881615620002b9575f828152602081815260408083206001600160a01b038c1684529091529020548181101562000293576040516303dee4c560e01b81526001600160a01b038a16600482015260248101829052604481018390526064810184905260840162000128565b5f838152602081815260408083206001600160a01b038d16845290915290209082900390555b6001600160a01b0387161562000300575f828152602081815260408083206001600160a01b038b16845290915281208054839290620002fa9084906200077a565b90915550505b505060010162000204565b5082516001036200038e5760208301515f906020840151909150856001600160a01b0316876001600160a01b0316846001600160a01b03167fc3d58168c5ae7397731d063d5bbf3d657854427343f4c083240f7aacaa2d0f6285856040516200037e929190918252602082015260400190565b60405180910390a45050620001c9565b836001600160a01b0316856001600160a01b0316826001600160a01b03167f4a39dc06d4c0dbc64b70af90fd698a233a518aa5d07e595d983b8c0526c8f7fb8686604051620003df929190620007dc565b60405180910390a45050505050565b6001600160a01b0384163b15620001655760405163f23a6e6160e01b81526001600160a01b0385169063f23a6e619062000435908990899088908890889060040162000852565b6020604051808303815f875af192505050801562000472575060408051601f3d908101601f191682019092526200046f9181019062000898565b60015b620004de573d808015620004a2576040519150601f19603f3d011682016040523d82523d5f602084013e620004a7565b606091505b5080515f03620004d657604051632bfa23e760e11b81526001600160a01b038616600482015260240162000128565b805181602001fd5b6001600160e01b0319811663f23a6e6160e01b146200051c57604051632bfa23e760e11b81526001600160a01b038616600482015260240162000128565b50505050505050565b6001600160a01b0384163b15620001655760405163bc197c8160e01b81526001600160a01b0385169063bc197c81906200056c9089908990889088908890600401620008c8565b6020604051808303815f875af1925050508015620005a9575060408051601f3d908101601f19168201909252620005a69181019062000898565b60015b620005d9573d808015620004a2576040519150601f19603f3d011682016040523d82523d5f602084013e620004a7565b6001600160e01b0319811663bc197c8160e01b146200051c57604051632bfa23e760e11b81526001600160a01b038616600482015260240162000128565b634e487b7160e01b5f52604160045260245ffd5b600181811c908216806200064057607f821691505b6020821081036200065f57634e487b7160e01b5f52602260045260245ffd5b50919050565b601f821115620006ad57805f5260205f20601f840160051c810160208510156200068c5750805b601f840160051c820191505b81811015620001c9575f815560010162000698565b505050565b81516001600160401b03811115620006ce57620006ce62000617565b620006e681620006df84546200062b565b8462000665565b602080601f8311600181146200071c575f8415620007045750858301515b5f19600386901b1c1916600185901b17855562000165565b5f85815260208120601f198616915b828110156200074c578886015182559484019460019091019084016200072b565b50858210156200076a57878501515f19600388901b60f8161c191681555b5050505050600190811b01905550565b808201808211156200079a57634e487b7160e01b5f52601160045260245ffd5b92915050565b5f815180845260208085019450602084015f5b83811015620007d157815187529582019590820190600101620007b3565b509495945050505050565b604081525f620007f06040830185620007a0565b8281036020840152620008048185620007a0565b95945050505050565b5f81518084525f5b81811015620008335760208185018101518683018201520162000815565b505f602082860101526020601f19601f83011685010191505092915050565b6001600160a01b03868116825285166020820152604081018490526060810183905260a0608082018190525f906200088d908301846200080d565b979650505050505050565b5f60208284031215620008a9575f80fd5b81516001600160e01b031981168114620008c1575f80fd5b9392505050565b6001600160a01b0386811682528516602082015260a0604082018190525f90620008f590830186620007a0565b8281036060840152620009098186620007a0565b905082810360808401526200091f81856200080d565b98975050505050505050565b611e1680620009395f395ff3fe608060405260043610610197575f3560e01c80635b2725ed116100e7578063cfeea0d411610087578063e985e9c511610062578063e985e9c51461045b578063ec3016f71461047a578063eebe6ab414610499578063f242432a146104b8575f80fd5b8063cfeea0d414610414578063d562e20414610433578063e3e55f0814610447575f80fd5b8063a22cb465116100c2578063a22cb46514610398578063af32f2f2146103b7578063b556c328146103d6578063bf445cb8146103f5575f80fd5b80635b2725ed1461035357806367354a84146103675780637dfd6d6914610379575f80fd5b80632d64f47911610152578063342db7391161012d578063342db739146102d057806338106e25146102f55780633e4bee38146103145780634e1273f414610327575f80fd5b80632d64f4791461027e5780632eb2c2d61461029d57806332cadf3c146102bc575f80fd5b8062fdd58e146101a257806301ffc9a7146101d45780630c3c37ae146102035780630e89341c1461022457806313dc989f146102505780632904df2914610264575f80fd5b3661019e57005b5f80fd5b3480156101ad575f80fd5b506101c16101bc3660046112d9565b6104d7565b6040519081526020015b60405180910390f35b3480156101df575f80fd5b506101f36101ee366004611319565b6104fe565b60405190151581526020016101cb565b34801561020e575f80fd5b5061022261021d36600461137f565b61054d565b005b34801561022f575f80fd5b5061024361023e3660046113f1565b610597565b6040516101cb919061144b565b34801561025b575f80fd5b506101c1600381565b34801561026f575f80fd5b506040513381526020016101cb565b348015610289575f80fd5b5061022261029836600461149d565b610629565b3480156102a8575f80fd5b506102226102b736600461168c565b6106d3565b3480156102c7575f80fd5b50610243610737565b3480156102db575f80fd5b506101c16e1a185c991a185d0b595e1c1bdcd959608a1b81565b348015610300575f80fd5b5061022261030f36600461172e565b610774565b34801561031f575f80fd5b506101c15f81565b348015610332575f80fd5b506103466103413660046117a8565b6107e7565b6040516101cb919061189b565b34801561035e575f80fd5b506101c1600481565b348015610372575f80fd5b505f6101c1565b348015610384575f80fd5b506102226103933660046118ad565b6108b1565b3480156103a3575f80fd5b506102226103b236600461190d565b6108f2565b3480156103c2575f80fd5b506102226103d136600461193e565b610901565b3480156103e1575f80fd5b506102226103f03660046119b6565b61096e565b348015610400575f80fd5b5061022261040f3660046119e6565b61097e565b34801561041f575f80fd5b5061022261042e366004611a88565b610a26565b34801561043e575f80fd5b506101c1600281565b348015610452575f80fd5b506101c1600181565b348015610466575f80fd5b506101f3610475366004611ac8565b610a31565b348015610485575f80fd5b50610222610494366004611af0565b610a5e565b3480156104a4575f80fd5b506102226104b336600461149d565b610a9c565b3480156104c3575f80fd5b506102226104d2366004611b2e565b610b3c565b5f818152602081815260408083206001600160a01b03861684529091529020545b92915050565b5f6001600160e01b03198216636cdb3d1360e11b148061052e57506001600160e01b031982166303a24d0760e21b145b806104f857506301ffc9a760e01b6001600160e01b03198316146104f8565b61058f8686868686868080601f0160208091040260200160405190810160405280939291908181526020018383808284375f92019190915250610b9792505050565b505050505050565b6060600280546105a690611b8d565b80601f01602080910402602001604051908101604052809291908181526020018280546105d290611b8d565b801561061d5780601f106105f45761010080835404028352916020019161061d565b820191905f5260205f20905b81548152906001019060200180831161060057829003601f168201915b50505050509050919050565b6106c988888888808060200260200160405190810160405280939291908181526020018383602002808284375f9201919091525050604080516020808c0282810182019093528b82529093508b92508a9182918501908490808284375f9201919091525050604080516020601f8b0181900481028201810190925289815292508991508890819084018382808284375f92019190915250610c1692505050565b5050505050505050565b336001600160a01b03861681148015906106f457506106f28682610a31565b155b1561072a5760405163711bec9160e11b81526001600160a01b038083166004830152871660248201526044015b60405180910390fd5b61058f8686868686610c69565b60605f368080601f0160208091040260200160405190810160405280939291908181526020018383808284375f9201919091525092949350505050565b6107e0858585808060200260200160405190810160405280939291908181526020018383602002808284375f92019190915250506040805160208089028281018201909352888252909350889250879182918501908490808284375f92019190915250610cc792505050565b5050505050565b606081518351146108185781518351604051635b05999160e01b815260048101929092526024820152604401610721565b5f83516001600160401b038111156108325761083261154f565b60405190808252806020026020018201604052801561085b578160200160208202803683370190505b5090505f5b84518110156108a957602080820286010151610884906020808402870101516104d7565b82828151811061089657610896611bc5565b6020908102919091010152600101610860565b509392505050565b6107e085858585858080601f0160208091040260200160405190810160405280939291908181526020018383808284375f92019190915250610d0a92505050565b6108fd338383610d65565b5050565b61058f86868686808060200260200160405190810160405280939291908181526020018383602002808284375f9201919091525050604080516020808a028281018201909352898252909350899250889182918501908490808284375f92019190915250610df992505050565b610979838383611008565b505050565b610a1d878787808060200260200160405190810160405280939291908181526020018383602002808284375f9201919091525050604080516020808b0282810182019093528a82529093508a9250899182918501908490808284375f9201919091525050604080516020601f8a0181900481028201810190925288815292508891508790819084018382808284375f9201919091525061106e92505050565b50505050505050565b610979838383610d65565b6001600160a01b039182165f90815260016020908152604080832093909416825291909152205460ff1690565b6108fd82828080601f0160208091040260200160405190810160405280939291908181526020018383808284375f920191909152506110aa92505050565b6106c988888888808060200260200160405190810160405280939291908181526020018383602002808284375f9201919091525050604080516020808c0282810182019093528b82529093508b92508a9182918501908490808284375f9201919091525050604080516020601f8b0181900481028201810190925289815292508991508890819084018382808284375f92019190915250610c6992505050565b336001600160a01b0386168114801590610b5d5750610b5b8682610a31565b155b15610b8e5760405163711bec9160e11b81526001600160a01b03808316600483015287166024820152604401610721565b61058f86868686865b6001600160a01b038416610bc057604051632bfa23e760e11b81525f6004820152602401610721565b6001600160a01b038516610be857604051626a0d4560e21b81525f6004820152602401610721565b60408051600180825260208201869052818301908152606082018590526080820190925290610a1d87878484875b610c2285858585610df9565b6001600160a01b038416156107e05782513390600103610c5b5760208481015190840151610c548389898585896110b6565b505061058f565b61058f8187878787876111d7565b6001600160a01b038416610c9257604051632bfa23e760e11b81525f6004820152602401610721565b6001600160a01b038516610cba57604051626a0d4560e21b81525f6004820152602401610721565b6107e08585858585610c16565b6001600160a01b038316610cef57604051626a0d4560e21b81525f6004820152602401610721565b610979835f848460405180602001604052805f815250610c16565b6001600160a01b038416610d3357604051632bfa23e760e11b81525f6004820152602401610721565b6040805160018082526020820186905281830190815260608201859052608082019092529061058f5f87848487610c16565b6001600160a01b038216610d8d5760405162ced3e160e81b81525f6004820152602401610721565b6001600160a01b038381165f81815260016020908152604080832094871680845294825291829020805460ff191686151590811790915591519182527f17307eab39ab6107e8899845ad3d59bd9653f200f220920489ca2b5937696c31910160405180910390a3505050565b8051825114610e285781518151604051635b05999160e01b815260048101929092526024820152604401610721565b335f5b8351811015610f2a576020818102858101820151908501909101516001600160a01b03881615610edc575f828152602081815260408083206001600160a01b038c16845290915290205481811015610eb6576040516303dee4c560e01b81526001600160a01b038a166004820152602481018290526044810183905260648101849052608401610721565b5f838152602081815260408083206001600160a01b038d16845290915290209082900390555b6001600160a01b03871615610f20575f828152602081815260408083206001600160a01b038b16845290915281208054839290610f1a908490611bd9565b90915550505b5050600101610e2b565b508251600103610faa5760208301515f906020840151909150856001600160a01b0316876001600160a01b0316846001600160a01b03167fc3d58168c5ae7397731d063d5bbf3d657854427343f4c083240f7aacaa2d0f628585604051610f9b929190918252602082015260400190565b60405180910390a450506107e0565b836001600160a01b0316856001600160a01b0316826001600160a01b03167f4a39dc06d4c0dbc64b70af90fd698a233a518aa5d07e595d983b8c0526c8f7fb8686604051610ff9929190611bf8565b60405180910390a45050505050565b6001600160a01b03831661103057604051626a0d4560e21b81525f6004820152602401610721565b604080516001808252602082018590528183019081526060820184905260a082019092525f608082018181529192916107e091879185908590610c16565b6001600160a01b03841661109757604051632bfa23e760e11b81525f6004820152602401610721565b6110a45f85858585610c16565b50505050565b60026108fd8282611c69565b6001600160a01b0384163b1561058f5760405163f23a6e6160e01b81526001600160a01b0385169063f23a6e61906110fa9089908990889088908890600401611d24565b6020604051808303815f875af1925050508015611134575060408051601f3d908101601f1916820190925261113191810190611d68565b60015b61119b573d808015611161576040519150601f19603f3d011682016040523d82523d5f602084013e611166565b606091505b5080515f0361119357604051632bfa23e760e11b81526001600160a01b0386166004820152602401610721565b805181602001fd5b6001600160e01b0319811663f23a6e6160e01b14610a1d57604051632bfa23e760e11b81526001600160a01b0386166004820152602401610721565b6001600160a01b0384163b1561058f5760405163bc197c8160e01b81526001600160a01b0385169063bc197c819061121b9089908990889088908890600401611d83565b6020604051808303815f875af1925050508015611255575060408051601f3d908101601f1916820190925261125291810190611d68565b60015b611282573d808015611161576040519150601f19603f3d011682016040523d82523d5f602084013e611166565b6001600160e01b0319811663bc197c8160e01b14610a1d57604051632bfa23e760e11b81526001600160a01b0386166004820152602401610721565b80356001600160a01b03811681146112d4575f80fd5b919050565b5f80604083850312156112ea575f80fd5b6112f3836112be565b946020939093013593505050565b6001600160e01b031981168114611316575f80fd5b50565b5f60208284031215611329575f80fd5b813561133481611301565b9392505050565b5f8083601f84011261134b575f80fd5b5081356001600160401b03811115611361575f80fd5b602083019150836020828501011115611378575f80fd5b9250929050565b5f805f805f8060a08789031215611394575f80fd5b61139d876112be565b95506113ab602088016112be565b9450604087013593506060870135925060808701356001600160401b038111156113d3575f80fd5b6113df89828a0161133b565b979a9699509497509295939492505050565b5f60208284031215611401575f80fd5b5035919050565b5f81518084525f5b8181101561142c57602081850181015186830182015201611410565b505f602082860101526020601f19601f83011685010191505092915050565b602081525f6113346020830184611408565b5f8083601f84011261146d575f80fd5b5081356001600160401b03811115611483575f80fd5b6020830191508360208260051b8501011115611378575f80fd5b5f805f805f805f8060a0898b0312156114b4575f80fd5b6114bd896112be565b97506114cb60208a016112be565b965060408901356001600160401b03808211156114e6575f80fd5b6114f28c838d0161145d565b909850965060608b013591508082111561150a575f80fd5b6115168c838d0161145d565b909650945060808b013591508082111561152e575f80fd5b5061153b8b828c0161133b565b999c989b5096995094979396929594505050565b634e487b7160e01b5f52604160045260245ffd5b604051601f8201601f191681016001600160401b038111828210171561158b5761158b61154f565b604052919050565b5f6001600160401b038211156115ab576115ab61154f565b5060051b60200190565b5f82601f8301126115c4575f80fd5b813560206115d96115d483611593565b611563565b8083825260208201915060208460051b8701019350868411156115fa575f80fd5b602086015b8481101561161657803583529183019183016115ff565b509695505050505050565b5f82601f830112611630575f80fd5b81356001600160401b038111156116495761164961154f565b61165c601f8201601f1916602001611563565b818152846020838601011115611670575f80fd5b816020850160208301375f918101602001919091529392505050565b5f805f805f60a086880312156116a0575f80fd5b6116a9866112be565b94506116b7602087016112be565b935060408601356001600160401b03808211156116d2575f80fd5b6116de89838a016115b5565b945060608801359150808211156116f3575f80fd5b6116ff89838a016115b5565b93506080880135915080821115611714575f80fd5b5061172188828901611621565b9150509295509295909350565b5f805f805f60608688031215611742575f80fd5b61174b866112be565b945060208601356001600160401b0380821115611766575f80fd5b61177289838a0161145d565b9096509450604088013591508082111561178a575f80fd5b506117978882890161145d565b969995985093965092949392505050565b5f80604083850312156117b9575f80fd5b82356001600160401b03808211156117cf575f80fd5b818501915085601f8301126117e2575f80fd5b813560206117f26115d483611593565b82815260059290921b84018101918181019089841115611810575f80fd5b948201945b8386101561183557611826866112be565b82529482019490820190611815565b9650508601359250508082111561184a575f80fd5b50611857858286016115b5565b9150509250929050565b5f815180845260208085019450602084015f5b8381101561189057815187529582019590820190600101611874565b509495945050505050565b602081525f6113346020830184611861565b5f805f805f608086880312156118c1575f80fd5b6118ca866112be565b9450602086013593506040860135925060608601356001600160401b038111156118f2575f80fd5b6117978882890161133b565b803580151581146112d4575f80fd5b5f806040838503121561191e575f80fd5b611927836112be565b9150611935602084016118fe565b90509250929050565b5f805f805f8060808789031215611953575f80fd5b61195c876112be565b955061196a602088016112be565b945060408701356001600160401b0380821115611985575f80fd5b6119918a838b0161145d565b909650945060608901359150808211156119a9575f80fd5b506113df89828a0161145d565b5f805f606084860312156119c8575f80fd5b6119d1846112be565b95602085013595506040909401359392505050565b5f805f805f805f6080888a0312156119fc575f80fd5b611a05886112be565b965060208801356001600160401b0380821115611a20575f80fd5b611a2c8b838c0161145d565b909850965060408a0135915080821115611a44575f80fd5b611a508b838c0161145d565b909650945060608a0135915080821115611a68575f80fd5b50611a758a828b0161133b565b989b979a50959850939692959293505050565b5f805f60608486031215611a9a575f80fd5b611aa3846112be565b9250611ab1602085016112be565b9150611abf604085016118fe565b90509250925092565b5f8060408385031215611ad9575f80fd5b611ae2836112be565b9150611935602084016112be565b5f8060208385031215611b01575f80fd5b82356001600160401b03811115611b16575f80fd5b611b228582860161133b565b90969095509350505050565b5f805f805f60a08688031215611b42575f80fd5b611b4b866112be565b9450611b59602087016112be565b9350604086013592506060860135915060808601356001600160401b03811115611b81575f80fd5b61172188828901611621565b600181811c90821680611ba157607f821691505b602082108103611bbf57634e487b7160e01b5f52602260045260245ffd5b50919050565b634e487b7160e01b5f52603260045260245ffd5b808201808211156104f857634e487b7160e01b5f52601160045260245ffd5b604081525f611c0a6040830185611861565b8281036020840152611c1c8185611861565b95945050505050565b601f82111561097957805f5260205f20601f840160051c81016020851015611c4a5750805b601f840160051c820191505b818110156107e0575f8155600101611c56565b81516001600160401b03811115611c8257611c8261154f565b611c9681611c908454611b8d565b84611c25565b602080601f831160018114611cc9575f8415611cb25750858301515b5f19600386901b1c1916600185901b17855561058f565b5f85815260208120601f198616915b82811015611cf757888601518255948401946001909101908401611cd8565b5085821015611d1457878501515f19600388901b60f8161c191681555b5050505050600190811b01905550565b6001600160a01b03868116825285166020820152604081018490526060810183905260a0608082018190525f90611d5d90830184611408565b979650505050505050565b5f60208284031215611d78575f80fd5b815161133481611301565b6001600160a01b0386811682528516602082015260a0604082018190525f90611dae90830186611861565b8281036060840152611dc08186611861565b90508281036080840152611dd48185611408565b9897505050505050505056fea2646970667358221220376cad3392a1f587086662b5ade89813e73928cace015cefb61430200f973bb164736f6c6343000818003368747470733a2f2f67616d652e6578616d706c652f6170692f6974656d2f7b69647d2e6a736f6e",
  "linkReferences": {},
  "deployedLinkReferences": {}
}