{
  "_format": "hh-sol-artifact-1",
  "contractName": "$ERC721VotesTimestampMock",
  "sourceName": "contracts-exposed/mocks/token/ERC20VotesTimestampMock.sol",
  "abi": [
    {
      "inputs": [
        {
          "internalType": "string",
          "name": "name_",
          "type": "string"
        },
        {
          "internalType": "string",
          "name": "symbol_",
          "type": "string"
        },
        {
          "internalType": "string",
          "name": "name",
          "type": "string"
        },
        {
          "internalType": "string",
          "name": "version",
          "type": "string"
        }
      ],
      "stateMutability": "payable",
      "type": "constructor"
    },
    {
      "inputs": [],
      "name": "CheckpointUnorderedInsertion",
      "type": "error"
    },
    {
      "inputs": [],
      "name": "ECDSAInvalidSignature",
      "type": "error"
    },
    {
      "inputs": [
        {
          "internalType": "uint256",
          "name": "length",
          "type": "uint256"
        }
      ],
      "name": "ECDSAInvalidSignatureLength",
      "type": "error"
    },
    {
      "inputs": [
        {
          "internalType": "bytes32",
          "name": "s",
          "type": "bytes32"
        }
      ],
      "name": "ECDSAInvalidSignatureS",
      "type": "error"
    },
    {
      "inputs": [
        {
          "internalType": "uint256",
          "name": "timepoint",
          "type": "uint256"
        },
        {
          "internalType": "uint48",
          "name": "clock",
          "type": "uint48"
        }
      ],
      "name": "ERC5805FutureLookup",
      "type": "error"
    },
    {
      "inputs": [],
      "name": "ERC6372InconsistentClock",
      "type": "error"
    },
    {
      "inputs": [
        {
          "internalType": "address",
          "name": "sender",
          "type": "address"
        },
        {
          "internalType": "uint256",
          "name": "tokenId",
          "type": "uint256"
        },
        {
          "internalType": "address",
          "name": "owner",
          "type": "address"
        }
      ],
      "name": "ERC721IncorrectOwner",
      "type": "error"
    },
    {
      "inputs": [
        {
          "internalType": "address",
          "name": "operator",
          "type": "address"
        },
        {
          "internalType": "uint256",
          "name": "tokenId",
          "type": "uint256"
        }
      ],
      "name": "ERC721InsufficientApproval",
      "type": "error"
    },
    {
      "inputs": [
        {
          "internalType": "address",
          "name": "approver",
          "type": "address"
        }
      ],
      "name": "ERC721InvalidApprover",
      "type": "error"
    },
    {
      "inputs": [
        {
          "internalType": "address",
          "name": "operator",
          "type": "address"
        }
      ],
      "name": "ERC721InvalidOperator",
      "type": "error"
    },
    {
      "inputs": [
        {
          "internalType": "address",
          "name": "owner",
          "type": "address"
        }
      ],
      "name": "ERC721InvalidOwner",
      "type": "error"
    },
    {
      "inputs": [
        {
          "internalType": "address",
          "name": "receiver",
          "type": "address"
        }
      ],
      "name": "ERC721InvalidReceiver",
      "type": "error"
    },
    {
      "inputs": [
        {
          "internalType": "address",
          "name": "sender",
          "type": "address"
        }
      ],
      "name": "ERC721InvalidSender",
      "type": "error"
    },
    {
      "inputs": [
        {
          "internalType": "uint256",
          "name": "tokenId",
          "type": "uint256"
        }
      ],
      "name": "ERC721NonexistentToken",
      "type": "error"
    },
    {
      "inputs": [
        {
          "internalType": "address",
          "name": "account",
          "type": "address"
        },
        {
          "internalType": "uint256",
          "name": "currentNonce",
          "type": "uint256"
        }
      ],
      "name": "InvalidAccountNonce",
      "type": "error"
    },
    {
      "inputs": [],
      "name": "InvalidShortString",
      "type": "error"
    },
    {
      "inputs": [
        {
          "internalType": "uint8",
          "name": "bits",
          "type": "uint8"
        },
        {
          "internalType": "uint256",
          "name": "value",
          "type": "uint256"
        }
      ],
      "name": "SafeCastOverflowedUintDowncast",
      "type": "error"
    },
    {
      "inputs": [
        {
          "internalType": "string",
          "name": "str",
          "type": "string"
        }
      ],
      "name": "StringTooLong",
      "type": "error"
    },
    {
      "inputs": [
        {
          "internalType": "uint256",
          "name": "expiry",
          "type": "uint256"
        }
      ],
      "name": "VotesExpiredSignature",
      "type": "error"
    },
    {
      "anonymous": false,
      "inputs": [
        {
          "indexed": true,
          "internalType": "address",
          "name": "owner",
          "type": "address"
        },
        {
          "indexed": true,
          "internalType": "address",
          "name": "approved",
          "type": "address"
        },
        {
          "indexed": true,
          "internalType": "uint256",
          "name": "tokenId",
          "type": "uint256"
        }
      ],
      "name": "Approval",
      "type": "event"
    },
    {
      "anonymous": false,
      "inputs": [
        {
          "indexed": true,
          "internalType": "address",
          "name": "owner",
          "type": "address"
        },
        {
          "indexed": true,
          "internalType": "address",
          "name": "operator",
          "type": "address"
        },
        {
          "indexed": false,
          "internalType": "bool",
          "name": "approved",
          "type": "bool"
        }
      ],
      "name": "ApprovalForAll",
      "type": "event"
    },
    {
      "anonymous": false,
      "inputs": [
        {
          "indexed": true,
          "internalType": "address",
          "name": "delegator",
          "type": "address"
        },
        {
          "indexed": true,
          "internalType": "address",
          "name": "fromDelegate",
          "type": "address"
        },
        {
          "indexed": true,
          "internalType": "address",
          "name": "toDelegate",
          "type": "address"
        }
      ],
      "name": "DelegateChanged",
      "type": "event"
    },
    {
      "anonymous": false,
      "inputs": [
        {
          "indexed": true,
          "internalType": "address",
          "name": "delegate",
          "type": "address"
        },
        {
          "indexed": false,
          "internalType": "uint256",
          "name": "previousVotes",
          "type": "uint256"
        },
        {
          "indexed": false,
          "internalType": "uint256",
          "name": "newVotes",
          "type": "uint256"
        }
      ],
      "name": "DelegateVotesChanged",
      "type": "event"
    },
    {
      "anonymous": false,
      "inputs": [],
      "name": "EIP712DomainChanged",
      "type": "event"
    },
    {
      "anonymous": false,
      "inputs": [
        {
          "indexed": true,
          "internalType": "address",
          "name": "from",
          "type": "address"
        },
        {
          "indexed": true,
          "internalType": "address",
          "name": "to",
          "type": "address"
        },
        {
          "indexed": true,
          "internalType": "uint256",
          "name": "tokenId",
          "type": "uint256"
        }
      ],
      "name": "Transfer",
      "type": "event"
    },
    {
      "anonymous": false,
      "inputs": [
        {
          "indexed": false,
          "internalType": "address",
          "name": "ret0",
          "type": "address"
        }
      ],
      "name": "return$_update",
      "type": "event"
    },
    {
      "anonymous": false,
      "inputs": [
        {
          "indexed": false,
          "internalType": "uint256",
          "name": "ret0",
          "type": "uint256"
        }
      ],
      "name": "return$_useNonce",
      "type": "event"
    },
    {
      "inputs": [],
      "name": "$_EIP712Name",
      "outputs": [
        {
          "internalType": "string",
          "name": "ret0",
          "type": "string"
        }
      ],
      "stateMutability": "view",
      "type": "function"
    },
    {
      "inputs": [],
      "name": "$_EIP712Version",
      "outputs": [
        {
          "internalType": "string",
          "name": "ret0",
          "type": "string"
        }
      ],
      "stateMutability": "view",
      "type": "function"
    },
    {
      "inputs": [
        {
          "internalType": "address",
          "name": "to",
          "type": "address"
        },
        {
          "internalType": "uint256",
          "name": "tokenId",
          "type": "uint256"
        },
        {
          "internalType": "address",
          "name": "auth",
          "type": "address"
        },
        {
          "internalType": "bool",
          "name": "emitEvent",
          "type": "bool"
        }
      ],
      "name": "$_approve",
      "outputs": [],
      "stateMutability": "nonpayable",
      "type": "function"
    },
    {
      "inputs": [
        {
          "internalType": "address",
          "name": "to",
          "type": "address"
        },
        {
          "internalType": "uint256",
          "name": "tokenId",
          "type": "uint256"
        },
        {
          "internalType": "address",
          "name": "auth",
          "type": "address"
        }
      ],
      "name": "$_approve",
      "outputs": [],
      "stateMutability": "nonpayable",
      "type": "function"
    },
    {
      "inputs": [],
      "name": "$_baseURI",
      "outputs": [
        {
          "internalType": "string",
          "name": "ret0",
          "type": "string"
        }
      ],
      "stateMutability": "view",
      "type": "function"
    },
    {
      "inputs": [
        {
          "internalType": "uint256",
          "name": "tokenId",
          "type": "uint256"
        }
      ],
      "name": "$_burn",
      "outputs": [],
      "stateMutability": "nonpayable",
      "type": "function"
    },
    {
      "inputs": [
        {
          "internalType": "address",
          "name": "owner",
          "type": "address"
        },
        {
          "internalType": "address",
          "name": "spender",
          "type": "address"
        },
        {
          "internalType": "uint256",
          "name": "tokenId",
          "type": "uint256"
        }
      ],
      "name": "$_checkAuthorized",
      "outputs": [],
      "stateMutability": "view",
      "type": "function"
    },
    {
      "inputs": [
        {
          "internalType": "address",
          "name": "account",
          "type": "address"
        },
        {
          "internalType": "uint32",
          "name": "pos",
          "type": "uint32"
        }
      ],
      "name": "$_checkpoints",
      "outputs": [
        {
          "components": [
            {
              "internalType": "uint48",
              "name": "_key",
              "type": "uint48"
            },
            {
              "internalType": "uint208",
              "name": "_value",
              "type": "uint208"
            }
          ],
          "internalType": "struct Checkpoints.Checkpoint208",
          "name": "ret0",
          "type": "tuple"
        }
      ],
      "stateMutability": "view",
      "type": "function"
    },
    {
      "inputs": [],
      "name": "$_contextSuffixLength",
      "outputs": [
        {
          "internalType": "uint256",
          "name": "ret0",
          "type": "uint256"
        }
      ],
      "stateMutability": "view",
      "type": "function"
    },
    {
      "inputs": [
        {
          "internalType": "address",
          "name": "account",
          "type": "address"
        },
        {
          "internalType": "address",
          "name": "delegatee",
          "type": "address"
        }
      ],
      "name": "$_delegate",
      "outputs": [],
      "stateMutability": "nonpayable",
      "type": "function"
    },
    {
      "inputs": [],
      "name": "$_domainSeparatorV4",
      "outputs": [
        {
          "internalType": "bytes32",
          "name": "ret0",
          "type": "bytes32"
        }
      ],
      "stateMutability": "view",
      "type": "function"
    },
    {
      "inputs": [
        {
          "internalType": "uint256",
          "name": "tokenId",
          "type": "uint256"
        }
      ],
      "name": "$_getApproved",
      "outputs": [
        {
          "internalType": "address",
          "name": "ret0",
          "type": "address"
        }
      ],
      "stateMutability": "view",
      "type": "function"
    },
    {
      "inputs": [],
      "name": "$_getTotalSupply",
      "outputs": [
        {
          "internalType": "uint256",
          "name": "ret0",
          "type": "uint256"
        }
      ],
      "stateMutability": "view",
      "type": "function"
    },
    {
      "inputs": [
        {
          "internalType": "address",
          "name": "account",
          "type": "address"
        }
      ],
      "name": "$_getVotingUnits",
      "outputs": [
        {
          "internalType": "uint256",
          "name": "ret0",
          "type": "uint256"
        }
      ],
      "stateMutability": "view",
      "type": "function"
    },
    {
      "inputs": [
        {
          "internalType": "bytes32",
          "name": "structHash",
          "type": "bytes32"
        }
      ],
      "name": "$_hashTypedDataV4",
      "outputs": [
        {
          "internalType": "bytes32",
          "name": "ret0",
          "type": "bytes32"
        }
      ],
      "stateMutability": "view",
      "type": "function"
    },
    {
      "inputs": [
        {
          "internalType": "address",
          "name": "account",
          "type": "address"
        },
        {
          "internalType": "uint128",
          "name": "amount",
          "type": "uint128"
        }
      ],
      "name": "$_increaseBalance",
      "outputs": [],
      "stateMutability": "nonpayable",
      "type": "function"
    },
    {
      "inputs": [
        {
          "internalType": "address",
          "name": "owner",
          "type": "address"
        },
        {
          "internalType": "address",
          "name": "spender",
          "type": "address"
        },
        {
          "internalType": "uint256",
          "name": "tokenId",
          "type": "uint256"
        }
      ],
      "name": "$_isAuthorized",
      "outputs": [
        {
          "internalType": "bool",
          "name": "ret0",
          "type": "bool"
        }
      ],
      "stateMutability": "view",
      "type": "function"
    },
    {
      "inputs": [
        {
          "internalType": "address",
          "name": "to",
          "type": "address"
        },
        {
          "internalType": "uint256",
          "name": "tokenId",
          "type": "uint256"
        }
      ],
      "name": "$_mint",
      "outputs": [],
      "stateMutability": "nonpayable",
      "type": "function"
    },
    {
      "inputs": [
        {
          "internalType": "address",
          "name": "from",
          "type": "address"
        },
        {
          "internalType": "address",
          "name": "to",
          "type": "address"
        },
        {
          "internalType": "uint256",
          "name": "amount",
          "type": "uint256"
        }
      ],
      "name": "$_moveDelegateVotes",
      "outputs": [],
      "stateMutability": "nonpayable",
      "type": "function"
    },
    {
      "inputs": [],
      "name": "$_msgData",
      "outputs": [
        {
          "internalType": "bytes",
          "name": "ret0",
          "type": "bytes"
        }
      ],
      "stateMutability": "view",
      "type": "function"
    },
    {
      "inputs": [],
      "name": "$_msgSender",
      "outputs": [
        {
          "internalType": "address",
          "name": "ret0",
          "type": "address"
        }
      ],
      "stateMutability": "view",
      "type": "function"
    },
    {
      "inputs": [
        {
          "internalType": "address",
          "name": "account",
          "type": "address"
        }
      ],
      "name": "$_numCheckpoints",
      "outputs": [
        {
          "internalType": "uint32",
          "name": "ret0",
          "type": "uint32"
        }
      ],
      "stateMutability": "view",
      "type": "function"
    },
    {
      "inputs": [
        {
          "internalType": "uint256",
          "name": "tokenId",
          "type": "uint256"
        }
      ],
      "name": "$_ownerOf",
      "outputs": [
        {
          "internalType": "address",
          "name": "ret0",
          "type": "address"
        }
      ],
      "stateMutability": "view",
      "type": "function"
    },
    {
      "inputs": [
        {
          "internalType": "uint256",
          "name": "tokenId",
          "type": "uint256"
        }
      ],
      "name": "$_requireOwned",
      "outputs": [
        {
          "internalType": "address",
          "name": "ret0",
          "type": "address"
        }
      ],
      "stateMutability": "view",
      "type": "function"
    },
    {
      "inputs": [
        {
          "internalType": "address",
          "name": "to",
          "type": "address"
        },
        {
          "internalType": "uint256",
          "name": "tokenId",
          "type": "uint256"
        },
        {
          "internalType": "bytes",
          "name": "data",
          "type": "bytes"
        }
      ],
      "name": "$_safeMint",
      "outputs": [],
      "stateMutability": "nonpayable",
      "type": "function"
    },
    {
      "inputs": [
        {
          "internalType": "address",
          "name": "to",
          "type": "address"
        },
        {
          "internalType": "uint256",
          "name": "tokenId",
          "type": "uint256"
        }
      ],
      "name": "$_safeMint",
      "outputs": [],
      "stateMutability": "nonpayable",
      "type": "function"
    },
    {
      "inputs": [
        {
          "internalType": "address",
          "name": "from",
          "type": "address"
        },
        {
          "internalType": "address",
          "name": "to",
          "type": "address"
        },
        {
          "internalType": "uint256",
          "name": "tokenId",
          "type": "uint256"
        },
        {
          "internalType": "bytes",
          "name": "data",
          "type": "bytes"
        }
      ],
      "name": "$_safeTransfer",
      "outputs": [],
      "stateMutability": "nonpayable",
      "type": "function"
    },
    {
      "inputs": [
        {
          "internalType": "address",
          "name": "from",
          "type": "address"
        },
        {
          "internalType": "address",
          "name": "to",
          "type": "address"
        },
        {
          "internalType": "uint256",
          "name": "tokenId",
          "type": "uint256"
        }
      ],
      "name": "$_safeTransfer",
      "outputs": [],
      "stateMutability": "nonpayable",
      "type": "function"
    },
    {
      "inputs": [
        {
          "internalType": "address",
          "name": "owner",
          "type": "address"
        },
        {
          "internalType": "address",
          "name": "operator",
          "type": "address"
        },
        {
          "internalType": "bool",
          "name": "approved",
          "type": "bool"
        }
      ],
      "name": "$_setApprovalForAll",
      "outputs": [],
      "stateMutability": "nonpayable",
      "type": "function"
    },
    {
      "inputs": [
        {
          "internalType": "address",
          "name": "from",
          "type": "address"
        },
        {
          "internalType": "address",
          "name": "to",
          "type": "address"
        },
        {
          "internalType": "uint256",
          "name": "tokenId",
          "type": "uint256"
        }
      ],
      "name": "$_transfer",
      "outputs": [],
      "stateMutability": "nonpayable",
      "type": "function"
    },
    {
      "inputs": [
        {
          "internalType": "address",
          "name": "from",
          "type": "address"
        },
        {
          "internalType": "address",
          "name": "to",
          "type": "address"
        },
        {
          "internalType": "uint256",
          "name": "amount",
          "type": "uint256"
        }
      ],
      "name": "$_transferVotingUnits",
      "outputs": [],
      "stateMutability": "nonpayable",
      "type": "function"
    },
    {
      "inputs": [
        {
          "internalType": "address",
          "name": "to",
          "type": "address"
        },
        {
          "internalType": "uint256",
          "name": "tokenId",
          "type": "uint256"
        },
        {
          "internalType": "address",
          "name": "auth",
          "type": "address"
        }
      ],
      "name": "$_update",
      "outputs": [
        {
          "internalType": "address",
          "name": "ret0",
          "type": "address"
        }
      ],
      "stateMutability": "nonpayable",
      "type": "function"
    },
    {
      "inputs": [
        {
          "internalType": "address",
          "name": "owner",
          "type": "address"
        },
        {
          "internalType": "uint256",
          "name": "nonce",
          "type": "uint256"
        }
      ],
      "name": "$_useCheckedNonce",
      "outputs": [],
      "stateMutability": "nonpayable",
      "type": "function"
    },
    {
      "inputs": [
        {
          "internalType": "address",
          "name": "owner",
          "type": "address"
        }
      ],
      "name": "$_useNonce",
      "outputs": [
        {
          "internalType": "uint256",
          "name": "ret0",
          "type": "uint256"
        }
      ],
      "stateMutability": "nonpayable",
      "type": "function"
    },
    {
      "inputs": [
        {
          "internalType": "uint256",
          "name": "timepoint",
          "type": "uint256"
        }
      ],
      "name": "$_validateTimepoint",
      "outputs": [
        {
          "internalType": "uint48",
          "name": "ret0",
          "type": "uint48"
        }
      ],
      "stateMutability": "view",
      "type": "function"
    },
    {
      "inputs": [],
      "name": "CLOCK_MODE",
      "outputs": [
        {
          "internalType": "string",
          "name": "",
          "type": "string"
        }
      ],
      "stateMutability": "view",
      "type": "function"
    },
    {
      "inputs": [],
      "name": "__hh_exposed_bytecode_marker",
      "outputs": [
        {
          "internalType": "bytes32",
          "name": "",
          "type": "bytes32"
        }
      ],
      "stateMutability": "view",
      "type": "function"
    },
    {
      "inputs": [
        {
          "internalType": "address",
          "name": "to",
          "type": "address"
        },
        {
          "internalType": "uint256",
          "name": "tokenId",
          "type": "uint256"
        }
      ],
      "name": "approve",
      "outputs": [],
      "stateMutability": "nonpayable",
      "type": "function"
    },
    {
      "inputs": [
        {
          "internalType": "address",
          "name": "owner",
          "type": "address"
        }
      ],
      "name": "balanceOf",
      "outputs": [
        {
          "internalType": "uint256",
          "name": "",
          "type": "uint256"
        }
      ],
      "stateMutability": "view",
      "type": "function"
    },
    {
      "inputs": [],
      "name": "clock",
      "outputs": [
        {
          "internalType": "uint48",
          "name": "",
          "type": "uint48"
        }
      ],
      "stateMutability": "view",
      "type": "function"
    },
    {
      "inputs": [
        {
          "internalType": "address",
          "name": "delegatee",
          "type": "address"
        }
      ],
      "name": "delegate",
      "outputs": [],
      "stateMutability": "nonpayable",
      "type": "function"
    },
    {
      "inputs": [
        {
          "internalType": "address",
          "name": "delegatee",
          "type": "address"
        },
        {
          "internalType": "uint256",
          "name": "nonce",
          "type": "uint256"
        },
        {
          "internalType": "uint256",
          "name": "expiry",
          "type": "uint256"
        },
        {
          "internalType": "uint8",
          "name": "v",
          "type": "uint8"
        },
        {
          "internalType": "bytes32",
          "name": "r",
          "type": "bytes32"
        },
        {
          "internalType": "bytes32",
          "name": "s",
          "type": "bytes32"
        }
      ],
      "name": "delegateBySig",
      "outputs": [],
      "stateMutability": "nonpayable",
      "type": "function"
    },
    {
      "inputs": [
        {
          "internalType": "address",
          "name": "account",
          "type": "address"
        }
      ],
      "name": "delegates",
      "outputs": [
        {
          "internalType": "address",
          "name": "",
          "type": "address"
        }
      ],
      "stateMutability": "view",
      "type": "function"
    },
    {
      "inputs": [],
      "name": "eip712Domain",
      "outputs": [
        {
          "internalType": "bytes1",
          "name": "fields",
          "type": "bytes1"
        },
        {
          "internalType": "string",
          "name": "name",
          "type": "string"
        },
        {
          "internalType": "string",
          "name": "version",
          "type": "string"
        },
        {
          "internalType": "uint256",
          "name": "chainId",
          "type": "uint256"
        },
        {
          "internalType": "address",
          "name": "verifyingContract",
          "type": "address"
        },
        {
          "internalType": "bytes32",
          "name": "salt",
          "type": "bytes32"
        },
        {
          "internalType": "uint256[]",
          "name": "extensions",
          "type": "uint256[]"
        }
      ],
      "stateMutability": "view",
      "type": "function"
    },
    {
      "inputs": [
        {
          "internalType": "uint256",
          "name": "tokenId",
          "type": "uint256"
        }
      ],
      "name": "getApproved",
      "outputs": [
        {
          "internalType": "address",
          "name": "",
          "type": "address"
        }
      ],
      "stateMutability": "view",
      "type": "function"
    },
    {
      "inputs": [
        {
          "internalType": "uint256",
          "name": "timepoint",
          "type": "uint256"
        }
      ],
      "name": "getPastTotalSupply",
      "outputs": [
        {
          "internalType": "uint256",
          "name": "",
          "type": "uint256"
        }
      ],
      "stateMutability": "view",
      "type": "function"
    },
    {
      "inputs": [
        {
          "internalType": "address",
          "name": "account",
          "type": "address"
        },
        {
          "internalType": "uint256",
          "name": "timepoint",
          "type": "uint256"
        }
      ],
      "name": "getPastVotes",
      "outputs": [
        {
          "internalType": "uint256",
          "name": "",
          "type": "uint256"
        }
      ],
      "stateMutability": "view",
      "type": "function"
    },
    {
      "inputs": [
        {
          "internalType": "address",
          "name": "account",
          "type": "address"
        }
      ],
      "name": "getVotes",
      "outputs": [
        {
          "internalType": "uint256",
          "name": "",
          "type": "uint256"
        }
      ],
      "stateMutability": "view",
      "type": "function"
    },
    {
      "inputs": [
        {
          "internalType": "address",
          "name": "owner",
          "type": "address"
        },
        {
          "internalType": "address",
          "name": "operator",
          "type": "address"
        }
      ],
      "name": "isApprovedForAll",
      "outputs": [
        {
          "internalType": "bool",
          "name": "",
          "type": "bool"
        }
      ],
      "stateMutability": "view",
      "type": "function"
    },
    {
      "inputs": [],
      "name": "name",
      "outputs": [
        {
          "internalType": "string",
          "name": "",
          "type": "string"
        }
      ],
      "stateMutability": "view",
      "type": "function"
    },
    {
      "inputs": [
        {
          "internalType": "address",
          "name": "owner",
          "type": "address"
        }
      ],
      "name": "nonces",
      "outputs": [
        {
          "internalType": "uint256",
          "name": "",
          "type": "uint256"
        }
      ],
      "stateMutability": "view",
      "type": "function"
    },
    {
      "inputs": [
        {
          "internalType": "uint256",
          "name": "tokenId",
          "type": "uint256"
        }
      ],
      "name": "ownerOf",
      "outputs": [
        {
          "internalType": "address",
          "name": "",
          "type": "address"
        }
      ],
      "stateMutability": "view",
      "type": "function"
    },
    {
      "inputs": [
        {
          "internalType": "address",
          "name": "from",
          "type": "address"
        },
        {
          "internalType": "address",
          "name": "to",
          "type": "address"
        },
        {
          "internalType": "uint256",
          "name": "tokenId",
          "type": "uint256"
        }
      ],
      "name": "safeTransferFrom",
      "outputs": [],
      "stateMutability": "nonpayable",
      "type": "function"
    },
    {
      "inputs": [
        {
          "internalType": "address",
          "name": "from",
          "type": "address"
        },
        {
          "internalType": "address",
          "name": "to",
          "type": "address"
        },
        {
          "internalType": "uint256",
          "name": "tokenId",
          "type": "uint256"
        },
        {
          "internalType": "bytes",
          "name": "data",
          "type": "bytes"
        }
      ],
      "name": "safeTransferFrom",
      "outputs": [],
      "stateMutability": "nonpayable",
      "type": "function"
    },
    {
      "inputs": [
        {
          "internalType": "address",
          "name": "operator",
          "type": "address"
        },
        {
          "internalType": "bool",
          "name": "approved",
          "type": "bool"
        }
      ],
      "name": "setApprovalForAll",
      "outputs": [],
      "stateMutability": "nonpayable",
      "type": "function"
    },
    {
      "inputs": [
        {
          "internalType": "bytes4",
          "name": "interfaceId",
          "type": "bytes4"
        }
      ],
      "name": "supportsInterface",
      "outputs": [
        {
          "internalType": "bool",
          "name": "",
          "type": "bool"
        }
      ],
      "stateMutability": "view",
      "type": "function"
    },
    {
      "inputs": [],
      "name": "symbol",
      "outputs": [
        {
          "internalType": "string",
          "name": "",
          "type": "string"
        }
      ],
      "stateMutability": "view",
      "type": "function"
    },
    {
      "inputs": [
        {
          "internalType": "uint256",
          "name": "tokenId",
          "type": "uint256"
        }
      ],
      "name": "tokenURI",
      "outputs": [
        {
          "internalType": "string",
          "name": "",
          "type": "string"
        }
      ],
      "stateMutability": "view",
      "type": "function"
    },
    {
      "inputs": [
        {
          "internalType": "address",
          "name": "from",
          "type": "address"
        },
        {
          "internalType": "address",
          "name": "to",
          "type": "address"
        },
        {
          "internalType": "uint256",
          "name": "tokenId",
          "type": "uint256"
        }
      ],
      "name": "transferFrom",
      "outputs": [],
      "stateMutability": "nonpayable",
      "type": "function"
    },
    {
      "stateMutability": "payable",
      "type": "receive"
    }
  ],
  "bytecode": "0x6101606040526040516200343738038062003437833981016040819052620000279162000254565b818185855f62000038838262000390565b50600162000047828262000390565b5062000059915083905060066200010b565b610120526200006a8160076200010b565b61014052815160208084019190912060e052815190820120610100524660a052620000f760e05161010051604080517f8b73c3c69bb8fe3d512ecc4cf759cc79239f7b179b0ffacaa9a75d522b39400f60208201529081019290925260608201524660808201523060a08201525f9060c00160405160208183030381529060405280519060200120905090565b60805250503060c05250620004b492505050565b5f6020835110156200012a57620001228362000143565b90506200013d565b8162000137848262000390565b5060ff90505b92915050565b5f80829050601f8151111562000179578260405163305a27a960e01b81526004016200017091906200045c565b60405180910390fd5b8051620001868262000490565b179392505050565b634e487b7160e01b5f52604160045260245ffd5b5f5b83811015620001be578181015183820152602001620001a4565b50505f910152565b5f82601f830112620001d6575f80fd5b81516001600160401b0380821115620001f357620001f36200018e565b604051601f8301601f19908116603f011681019082821181831017156200021e576200021e6200018e565b8160405283815286602085880101111562000237575f80fd5b6200024a846020830160208901620001a2565b9695505050505050565b5f805f806080858703121562000268575f80fd5b84516001600160401b03808211156200027f575f80fd5b6200028d88838901620001c6565b95506020870151915080821115620002a3575f80fd5b620002b188838901620001c6565b94506040870151915080821115620002c7575f80fd5b620002d588838901620001c6565b93506060870151915080821115620002eb575f80fd5b50620002fa87828801620001c6565b91505092959194509250565b600181811c908216806200031b57607f821691505b6020821081036200033a57634e487b7160e01b5f52602260045260245ffd5b50919050565b601f8211156200038b57805f5260205f20601f840160051c81016020851015620003675750805b601f840160051c820191505b8181101562000388575f815560010162000373565b50505b505050565b81516001600160401b03811115620003ac57620003ac6200018e565b620003c481620003bd845462000306565b8462000340565b602080601f831160018114620003fa575f8415620003e25750858301515b5f19600386901b1c1916600185901b17855562000454565b5f85815260208120601f198616915b828110156200042a5788860151825594840194600190910190840162000409565b50858210156200044857878501515f19600388901b60f8161c191681555b505060018460011b0185555b505050505050565b602081525f82518060208401526200047c816040850160208701620001a2565b601f01601f19169190910160400192915050565b805160208083015191908110156200033a575f1960209190910360031b1b16919050565b60805160a05160c05160e051610100516101205161014051612f31620005065f395f61138301525f61135601525f61175e01525f61173601525f61169101525f6116bb01525f6116e50152612f315ff3fe60806040526004361061037e575f3560e01c806367354a84116101d3578063a2373a82116100fd578063cfeea0d41161009d578063e3cb9a4a1161006d578063e3cb9a4a14610a8a578063e42b0f4814610aa9578063e985e9c514610ac8578063efb43b0714610ae7575f80fd5b8063cfeea0d4146109f9578063d261af5414610a18578063d41ecac314610a37578063d848383414610a6b575f80fd5b8063c3cda520116100d8578063c3cda5201461099c578063c670720114610755578063c87b56dd146109bb578063cc461d62146109da575f80fd5b8063a2373a821461093f578063b3068e411461095e578063b88d4fde1461097d575f80fd5b806384b0196e1161017357806395d89b411161014357806395d89b41146108ce5780639ab24eb0146108e25780639ff2f02d14610901578063a22cb46514610920575f80fd5b806384b0196e146108555780638e539e8c1461087c57806390104b841461089b57806391ddadf4146108ba575f80fd5b806370a08231116101ae57806370a08231146107c4578063733555ec146107e35780637a7be036146108025780637ecebe0014610821575f80fd5b806367354a84146107745780636884d58b146107865780636b4ac502146107a5575f80fd5b806332cadf3c116102b4578063506a6f0c116102545780635c19a95c116102245780635c19a95c146106d75780635f8d5e74146106f657806361f5b5301461070a5780636352211e14610755575f80fd5b8063506a6f0c1461064e578063535de3341461066d578063587cde1e146106815780635b28e1e8146106b8575f80fd5b80633a46b1a81161028f5780633a46b1a8146105bb57806342842e0e146105da578063458ee002146105f95780634bf5d7e914610618575f80fd5b806332cadf3c14610563578063342db739146105775780633451b14d1461059c575f80fd5b8063161e977d1161031f5780632904df29116102fa5780632904df29146104cf5780632e8fbee5146104e157806330f3b0b51461050e57806330ff12bf1461052d575f80fd5b8063161e977d14610488578063174ccd821461049c57806323b872dd146104b0575f80fd5b8063081812fc1161035a578063081812fc146103ff578063095ea7b314610436578063113efe1a146104555780631164d13b14610474575f80fd5b8062cae2201461038957806301ffc9a7146103aa57806306fdde03146103de575f80fd5b3661038557005b5f80fd5b348015610394575f80fd5b506103a86103a33660046127ce565b610b06565b005b3480156103b5575f80fd5b506103c96103c4366004612814565b610b14565b60405190151581526020015b60405180910390f35b3480156103e9575f80fd5b506103f2610b65565b6040516103d5919061287c565b34801561040a575f80fd5b5061041e61041936600461288e565b610bf4565b6040516001600160a01b0390911681526020016103d5565b348015610441575f80fd5b506103a86104503660046128a5565b610c1b565b348015610460575f80fd5b506103a861046f3660046128cd565b610c26565b34801561047f575f80fd5b506103f2610c30565b348015610493575f80fd5b506103f2610c3f565b3480156104a7575f80fd5b506103f2610c55565b3480156104bb575f80fd5b506103a86104ca36600461290d565b610c5f565b3480156104da575f80fd5b503361041e565b3480156104ec575f80fd5b506105006104fb366004612946565b610ced565b6040519081526020016103d5565b348015610519575f80fd5b506103a861052836600461296e565b610d4d565b348015610538575f80fd5b5061054c61054736600461288e565b610d59565b60405165ffffffffffff90911681526020016103d5565b34801561056e575f80fd5b506103f2610d63565b348015610582575f80fd5b506105006e1a185c991a185d0b595e1c1bdcd959608a1b81565b3480156105a7575f80fd5b5061041e6105b636600461288e565b610da0565b3480156105c6575f80fd5b506105006105d53660046128a5565b610dbc565b3480156105e5575f80fd5b506103a86105f436600461290d565b610df6565b348015610604575f80fd5b5061041e61061336600461288e565b610e15565b348015610623575f80fd5b5060408051808201909152600e81526d06d6f64653d74696d657374616d760941b60208201526103f2565b348015610659575f80fd5b5061050061066836600461288e565b610e31565b348015610678575f80fd5b50610500610e3b565b34801561068c575f80fd5b5061041e61069b366004612946565b6001600160a01b039081165f908152600960205260409020541690565b3480156106c3575f80fd5b506103a86106d236600461290d565b610e44565b3480156106e2575f80fd5b506103a86106f1366004612946565b610e4f565b348015610701575f80fd5b50610500610e5a565b348015610715575f80fd5b506107296107243660046129b8565b610e63565b60408051825165ffffffffffff1681526020928301516001600160d01b031692810192909252016103d5565b348015610760575f80fd5b5061041e61076f36600461288e565b610e87565b34801561077f575f80fd5b505f610500565b348015610791575f80fd5b506103a86107a036600461290d565b610e91565b3480156107b0575f80fd5b506103a86107bf3660046128a5565b610e9c565b3480156107cf575f80fd5b506105006107de366004612946565b610ea6565b3480156107ee575f80fd5b506103a86107fd366004612a2f565b610eeb565b34801561080d575f80fd5b506103c961081c36600461290d565b610f33565b34801561082c575f80fd5b5061050061083b366004612946565b6001600160a01b03165f9081526008602052604090205490565b348015610860575f80fd5b50610869610f47565b6040516103d59796959493929190612a99565b348015610887575f80fd5b5061050061089636600461288e565b610f89565b3480156108a6575f80fd5b506103a86108b5366004612b30565b610fad565b3480156108c5575f80fd5b5061054c610fb8565b3480156108d9575f80fd5b506103f2610fc2565b3480156108ed575f80fd5b506105006108fc366004612946565b610fd1565b34801561090c575f80fd5b506103a861091b366004612b69565b610ff1565b34801561092b575f80fd5b506103a861093a366004612bbf565b611031565b34801561094a575f80fd5b506103a861095936600461288e565b61103c565b348015610969575f80fd5b50610500610978366004612946565b611048565b348015610988575f80fd5b506103a8610997366004612bfb565b611052565b3480156109a7575f80fd5b506103a86109b6366004612cd0565b61106a565b3480156109c6575f80fd5b506103f26109d536600461288e565b611126565b3480156109e5575f80fd5b506103a86109f43660046128a5565b611196565b348015610a04575f80fd5b506103a8610a13366004612d2b565b6111a0565b348015610a23575f80fd5b506103a8610a323660046128a5565b6111ab565b348015610a42575f80fd5b50610a56610a51366004612946565b6111b5565b60405163ffffffff90911681526020016103d5565b348015610a76575f80fd5b506103a8610a8536600461290d565b6111bf565b348015610a95575f80fd5b5061041e610aa4366004612b30565b6111ca565b348015610ab4575f80fd5b506103a8610ac336600461290d565b61121c565b348015610ad3575f80fd5b506103c9610ae23660046127ce565b611227565b348015610af2575f80fd5b506103a8610b0136600461290d565b611254565b610b10828261125f565b5050565b5f6001600160e01b031982166380ac58cd60e01b1480610b4457506001600160e01b03198216635b5e139f60e01b145b80610b5f57506301ffc9a760e01b6001600160e01b03198316145b92915050565b60605f8054610b7390612d62565b80601f0160208091040260200160405190810160405280929190818152602001828054610b9f90612d62565b8015610bea5780601f10610bc157610100808354040283529160200191610bea565b820191905f5260205f20905b815481529060010190602001808311610bcd57829003601f168201915b5050505050905090565b5f610bfe826112d0565b505f828152600460205260409020546001600160a01b0316610b5f565b610b10828233611308565b610b108282611315565b6060610c3a61134f565b905090565b6060610c3a60408051602081019091525f815290565b6060610c3a61137c565b6001600160a01b038216610c8d57604051633250574960e11b81525f60048201526024015b60405180910390fd5b5f610c998383336113a9565b9050836001600160a01b0316816001600160a01b031614610ce7576040516364283d7b60e01b81526001600160a01b0380861660048301526024820184905282166044820152606401610c84565b50505050565b6001600160a01b0381165f90815260086020526040812080546001810190915590507f8d5c13b1cd528a3e1895fdc833368c4e3af5391250c736a28e94c4fa59b3cee481604051610d4091815260200190565b60405180910390a1919050565b610ce7848484846113c4565b5f610b5f826114c8565b60605f368080601f0160208091040260200160405190810160405280939291908181526020018383808284375f9201919091525092949350505050565b5f818152600460205260408120546001600160a01b0316610b5f565b5f610de6610dc9836114c8565b6001600160a01b0385165f908152600a6020526040902090611516565b6001600160d01b03169392505050565b610e1083838360405180602001604052805f815250611052565b505050565b5f818152600260205260408120546001600160a01b0316610b5f565b5f610b5f826115c6565b5f610c3a6115f2565b610e1083838361160b565b33610b10818361125f565b5f610c3a611685565b604080518082019091525f8082526020820152610e8083836117ae565b9392505050565b5f610b5f826112d0565b610e108383836117e2565b610b108282611846565b5f6001600160a01b038216610ed0576040516322718ad960e21b81525f6004820152602401610c84565b506001600160a01b03165f9081526003602052604090205490565b610f2c85858585858080601f0160208091040260200160405190810160405280939291908181526020018383808284375f9201919091525061189892505050565b5050505050565b5f610f3f8484846118a3565b949350505050565b5f6060805f805f6060610f5861134f565b610f6061137c565b604080515f80825260208201909252600f60f81b9b939a50919850469750309650945092509050565b5f610f9e610f96836114c8565b600b90611516565b6001600160d01b031692915050565b610e10838383611308565b5f610c3a42611904565b606060018054610b7390612d62565b6001600160a01b0381165f908152600a60205260408120610f9e9061193a565b610ce7848484848080601f0160208091040260200160405190810160405280939291908181526020018383808284375f9201919091525061197192505050565b610b10338383611988565b61104581611a26565b50565b5f610b5f82611a5e565b61105d848484610c5f565b610ce73385858585611a68565b8342111561108e57604051632341d78760e11b815260048101859052602401610c84565b604080517fe48329057bfd03d55e49b547132e39cffd9c1820ad7b9d4c5307691425d15adf60208201526001600160a01b0388169181019190915260608101869052608081018590525f90611107906110ff9060a001604051602081830303815290604052805190602001206115c6565b858585611b8f565b90506111138187611846565b61111d818861125f565b50505050505050565b6060611131826112d0565b505f61114760408051602081019091525f815290565b90505f8151116111655760405180602001604052805f815250610e80565b8061116f84611bbb565b604051602001611180929190612d9a565b6040516020818303038152906040529392505050565b610b108282611c4b565b610e10838383611988565b610b108282611cac565b5f610b5f82611cc5565b610e10838383611ce6565b5f6111d68484846113a9565b6040516001600160a01b03821681529091507ffc55619107f02333de2d9626fe994a6b9d0734bee4722e17698d6fa1b06c52009060200160405180910390a19392505050565b610e10838383611d00565b6001600160a01b039182165f90815260056020908152604080832093909416825291909152205460ff1690565b610e10838383611e64565b6001600160a01b038281165f8181526009602052604080822080548686166001600160a01b0319821681179092559151919094169392849290917f3134e8a2e6d97e929a7e54011ea5485d7d196dd5f0ba4d4ef95803e8e3fc257f9190a4610e1081836112cb86611a5e565b611d00565b5f818152600260205260408120546001600160a01b031680610b5f57604051637e27328960e01b815260048101849052602401610c84565b610e1083838360016113c4565b6001600160a01b0382165f90815260036020526040902080546001600160801b038316019055610b105f83836001600160801b031661160b565b6060610c3a7f00000000000000000000000000000000000000000000000000000000000000006006611f11565b6060610c3a7f00000000000000000000000000000000000000000000000000000000000000006007611f11565b5f806113b6858585611fba565b9050610f3f8186600161160b565b80806113d857506001600160a01b03821615155b15611499575f6113e7846112d0565b90506001600160a01b038316158015906114135750826001600160a01b0316816001600160a01b031614155b801561142657506114248184611227565b155b1561144f5760405163a9fbf51f60e01b81526001600160a01b0384166004820152602401610c84565b81156114975783856001600160a01b0316826001600160a01b03167f8c5be1e5ebec7d5bd14f71427d1e84f3dd0314c0f7b2291e5b200ac8c7c3b92560405160405180910390a45b505b50505f90815260046020526040902080546001600160a01b0319166001600160a01b0392909216919091179055565b5f806114d2610fb8565b90508065ffffffffffff16831061150d57604051637669fc0f60e11b81526004810184905265ffffffffffff82166024820152604401610c84565b610e8083611904565b81545f9081816005811115611572575f61152f846120ac565b6115399085612ddc565b5f8881526020902090915081015465ffffffffffff908116908716101561156257809150611570565b61156d816001612def565b92505b505b5f61157f87878585612204565b905080156115b9576115a387611596600184612ddc565b5f91825260209091200190565b54600160301b90046001600160d01b03166115bb565b5f5b979650505050505050565b5f610b5f6115d2611685565b8360405161190160f01b8152600281019290925260228201526042902090565b5f6115fd600b61193a565b6001600160d01b0316905090565b6001600160a01b0383166116325761162f600b61226361162a8461226e565b6122a1565b50505b6001600160a01b03821661165457611651600b6122d961162a8461226e565b50505b6001600160a01b038381165f90815260096020526040808220548584168352912054610e1092918216911683611d00565b5f306001600160a01b037f0000000000000000000000000000000000000000000000000000000000000000161480156116dd57507f000000000000000000000000000000000000000000000000000000000000000046145b1561170757507f000000000000000000000000000000000000000000000000000000000000000090565b610c3a604080517f8b73c3c69bb8fe3d512ecc4cf759cc79239f7b179b0ffacaa9a75d522b39400f60208201527f0000000000000000000000000000000000000000000000000000000000000000918101919091527f000000000000000000000000000000000000000000000000000000000000000060608201524660808201523060a08201525f9060c00160405160208183030381529060405280519060200120905090565b604080518082019091525f80825260208201526001600160a01b0383165f908152600a60205260409020610e8090836122e4565b6117ed8383836118a3565b610e10576001600160a01b03831661181b57604051637e27328960e01b815260048101829052602401610c84565b60405163177e802f60e01b81526001600160a01b038316600482015260248101829052604401610c84565b6001600160a01b0382165f908152600860205260409020805460018101909155818114610e10576040516301d4b62360e61b81526001600160a01b038416600482015260248101829052604401610c84565b61105d848484611e64565b5f6001600160a01b03831615801590610f3f5750826001600160a01b0316846001600160a01b031614806118dc57506118dc8484611227565b80610f3f5750505f908152600460205260409020546001600160a01b03908116911614919050565b5f65ffffffffffff821115611936576040516306dfcc6560e41b81526030600482015260248101839052604401610c84565b5090565b80545f9080156119695761195383611596600184612ddc565b54600160301b90046001600160d01b0316610e80565b5f9392505050565b61197b8383611c4b565b610e10335f858585611a68565b6001600160a01b0382166119ba57604051630b61174360e31b81526001600160a01b0383166004820152602401610c84565b6001600160a01b038381165f81815260056020908152604080832094871680845294825291829020805460ff191686151590811790915591519182527f17307eab39ab6107e8899845ad3d59bd9653f200f220920489ca2b5937696c31910160405180910390a3505050565b5f611a325f835f6113a9565b90506001600160a01b038116610b1057604051637e27328960e01b815260048101839052602401610c84565b5f610b5f82610ea6565b6001600160a01b0383163b15610f2c57604051630a85bd0160e11b81526001600160a01b0384169063150b7a0290611aaa908890889087908790600401612e02565b6020604051808303815f875af1925050508015611ae4575060408051601f3d908101601f19168201909252611ae191810190612e3e565b60015b611b4b573d808015611b11576040519150601f19603f3d011682016040523d82523d5f602084013e611b16565b606091505b5080515f03611b4357604051633250574960e11b81526001600160a01b0385166004820152602401610c84565b805181602001fd5b6001600160e01b03198116630a85bd0160e11b14611b8757604051633250574960e11b81526001600160a01b0385166004820152602401610c84565b505050505050565b5f805f80611b9f88888888612351565b925092509250611baf8282612419565b50909695505050505050565b60605f611bc7836124d1565b60010190505f8167ffffffffffffffff811115611be657611be6612be7565b6040519080825280601f01601f191660200182016040528015611c10576020820181803683370190505b5090508181016020015b5f19016f181899199a1a9b1b9c1cb0b131b232b360811b600a86061a8153600a8504945084611c1a57509392505050565b6001600160a01b038216611c7457604051633250574960e11b81525f6004820152602401610c84565b5f611c8083835f6113a9565b90506001600160a01b03811615610e10576040516339e3563760e11b81525f6004820152602401610c84565b610b10828260405180602001604052805f815250611971565b6001600160a01b0381165f908152600a6020526040812054610b5f906125a8565b610e1083838360405180602001604052805f815250611898565b816001600160a01b0316836001600160a01b031614158015611d2157505f81115b15610e10576001600160a01b03831615611dc3576001600160a01b0383165f908152600a602052604081208190611d5e906122d961162a8661226e565b6001600160d01b031691506001600160d01b03169150846001600160a01b03167fdec2bacdd2f05b59de34da9b523dff8be42e5e38e818c82fdb0bae774387a7248383604051611db8929190918252602082015260400190565b60405180910390a250505b6001600160a01b03821615610e10576001600160a01b0382165f908152600a602052604081208190611dfb9061226361162a8661226e565b6001600160d01b031691506001600160d01b03169150836001600160a01b03167fdec2bacdd2f05b59de34da9b523dff8be42e5e38e818c82fdb0bae774387a7248383604051611e55929190918252602082015260400190565b60405180910390a25050505050565b6001600160a01b038216611e8d57604051633250574960e11b81525f6004820152602401610c84565b5f611e9983835f6113a9565b90506001600160a01b038116611ec557604051637e27328960e01b815260048101839052602401610c84565b836001600160a01b0316816001600160a01b031614610ce7576040516364283d7b60e01b81526001600160a01b0380861660048301526024820184905282166044820152606401610c84565b606060ff8314611f2b57611f24836125d8565b9050610b5f565b818054611f3790612d62565b80601f0160208091040260200160405190810160405280929190818152602001828054611f6390612d62565b8015611fae5780601f10611f8557610100808354040283529160200191611fae565b820191905f5260205f20905b815481529060010190602001808311611f9157829003601f168201915b50505050509050610b5f565b5f828152600260205260408120546001600160a01b0390811690831615611fe657611fe68184866117e2565b6001600160a01b03811615612020576120015f855f806113c4565b6001600160a01b0381165f90815260036020526040902080545f190190555b6001600160a01b0385161561204e576001600160a01b0385165f908152600360205260409020805460010190555b5f8481526002602052604080822080546001600160a01b0319166001600160a01b0389811691821790925591518793918516917fddf252ad1be2c89b69c2b068fc378daa952ba7f163c4a11628f55a4df523b3ef91a4949350505050565b5f600182116120b9575090565b816001600160801b82106120d25760809190911c9060401b5b6801000000000000000082106120ed5760409190911c9060201b5b64010000000082106121045760209190911c9060101b5b6201000082106121195760109190911c9060081b5b610100821061212d5760089190911c9060041b5b601082106121405760049190911c9060021b5b6004821061214c5760011b5b600302600190811c9081858161216457612164612e59565b048201901c9050600181858161217c5761217c612e59565b048201901c9050600181858161219457612194612e59565b048201901c905060018185816121ac576121ac612e59565b048201901c905060018185816121c4576121c4612e59565b048201901c905060018185816121dc576121dc612e59565b048201901c90506121fb8185816121f5576121f5612e59565b04821190565b90039392505050565b5f5b8183101561225b575f6122198484612615565b5f8781526020902090915065ffffffffffff86169082015465ffffffffffff16111561224757809250612255565b612252816001612def565b93505b50612206565b509392505050565b5f610e808284612e6d565b5f6001600160d01b03821115611936576040516306dfcc6560e41b815260d0600482015260248101839052604401610c84565b5f806122cc6122ae610fb8565b6122c46122ba8861193a565b868863ffffffff16565b87919061262f565b915091505b935093915050565b5f610e808284612e94565b604080518082019091525f8082526020820152825f018263ffffffff168154811061231157612311612eb4565b5f9182526020918290206040805180820190915291015465ffffffffffff81168252600160301b90046001600160d01b0316918101919091529392505050565b5f80807f7fffffffffffffffffffffffffffffff5d576e7357a4501ddfe92f46681b20a084111561238a57505f9150600390508261240f565b604080515f808252602082018084528a905260ff891692820192909252606081018790526080810186905260019060a0016020604051602081039080840390855afa1580156123db573d5f803e3d5ffd5b5050604051601f1901519150506001600160a01b03811661240657505f92506001915082905061240f565b92505f91508190505b9450945094915050565b5f82600381111561242c5761242c612ec8565b03612435575050565b600182600381111561244957612449612ec8565b036124675760405163f645eedf60e01b815260040160405180910390fd5b600282600381111561247b5761247b612ec8565b0361249c5760405163fce698f760e01b815260048101829052602401610c84565b60038260038111156124b0576124b0612ec8565b03610b10576040516335e2f38360e21b815260048101829052602401610c84565b5f8072184f03e93ff9f4daa797ed6e38ed64bf6a1f0160401b831061250f5772184f03e93ff9f4daa797ed6e38ed64bf6a1f0160401b830492506040015b6d04ee2d6d415b85acef8100000000831061253b576d04ee2d6d415b85acef8100000000830492506020015b662386f26fc10000831061255957662386f26fc10000830492506010015b6305f5e1008310612571576305f5e100830492506008015b612710831061258557612710830492506004015b60648310612597576064830492506002015b600a8310610b5f5760010192915050565b5f63ffffffff821115611936576040516306dfcc6560e41b81526020600482015260248101839052604401610c84565b60605f6125e48361263c565b6040805160208082528183019092529192505f91906020820181803683375050509182525060208101929092525090565b5f6126236002848418612edc565b610e8090848416612def565b5f806122cc858585612663565b5f60ff8216601f811115610b5f57604051632cd44ac360e21b815260040160405180910390fd5b82545f9081908015612759575f61267f87611596600185612ddc565b805490915065ffffffffffff80821691600160301b90046001600160d01b03169088168211156126c257604051632520601d60e01b815260040160405180910390fd5b8765ffffffffffff168265ffffffffffff16036126fb57825465ffffffffffff16600160301b6001600160d01b0389160217835561274b565b6040805180820190915265ffffffffffff808a1682526001600160d01b03808a1660208085019182528d54600181018f555f8f81529190912094519151909216600160301b029216919091179101555b94508593506122d192505050565b50506040805180820190915265ffffffffffff80851682526001600160d01b0380851660208085019182528854600181018a555f8a815291822095519251909316600160301b0291909316179201919091559050816122d1565b80356001600160a01b03811681146127c9575f80fd5b919050565b5f80604083850312156127df575f80fd5b6127e8836127b3565b91506127f6602084016127b3565b90509250929050565b6001600160e01b031981168114611045575f80fd5b5f60208284031215612824575f80fd5b8135610e80816127ff565b5f5b83811015612849578181015183820152602001612831565b50505f910152565b5f815180845261286881602086016020860161282f565b601f01601f19169290920160200192915050565b602081525f610e806020830184612851565b5f6020828403121561289e575f80fd5b5035919050565b5f80604083850312156128b6575f80fd5b6128bf836127b3565b946020939093013593505050565b5f80604083850312156128de575f80fd5b6128e7836127b3565b915060208301356001600160801b0381168114612902575f80fd5b809150509250929050565b5f805f6060848603121561291f575f80fd5b612928846127b3565b9250612936602085016127b3565b9150604084013590509250925092565b5f60208284031215612956575f80fd5b610e80826127b3565b803580151581146127c9575f80fd5b5f805f8060808587031215612981575f80fd5b61298a856127b3565b93506020850135925061299f604086016127b3565b91506129ad6060860161295f565b905092959194509250565b5f80604083850312156129c9575f80fd5b6129d2836127b3565b9150602083013563ffffffff81168114612902575f80fd5b5f8083601f8401126129fa575f80fd5b50813567ffffffffffffffff811115612a11575f80fd5b602083019150836020828501011115612a28575f80fd5b9250929050565b5f805f805f60808688031215612a43575f80fd5b612a4c866127b3565b9450612a5a602087016127b3565b935060408601359250606086013567ffffffffffffffff811115612a7c575f80fd5b612a88888289016129ea565b969995985093965092949392505050565b60ff60f81b881681525f602060e06020840152612ab960e084018a612851565b8381036040850152612acb818a612851565b606085018990526001600160a01b038816608086015260a0850187905284810360c0860152855180825260208088019350909101905f5b81811015612b1e57835183529284019291840191600101612b02565b50909c9b505050505050505050505050565b5f805f60608486031215612b42575f80fd5b612b4b846127b3565b925060208401359150612b60604085016127b3565b90509250925092565b5f805f8060608587031215612b7c575f80fd5b612b85856127b3565b935060208501359250604085013567ffffffffffffffff811115612ba7575f80fd5b612bb3878288016129ea565b95989497509550505050565b5f8060408385031215612bd0575f80fd5b612bd9836127b3565b91506127f66020840161295f565b634e487b7160e01b5f52604160045260245ffd5b5f805f8060808587031215612c0e575f80fd5b612c17856127b3565b9350612c25602086016127b3565b925060408501359150606085013567ffffffffffffffff80821115612c48575f80fd5b818701915087601f830112612c5b575f80fd5b813581811115612c6d57612c6d612be7565b604051601f8201601f19908116603f01168101908382118183101715612c9557612c95612be7565b816040528281528a6020848701011115612cad575f80fd5b826020860160208301375f60208483010152809550505050505092959194509250565b5f805f805f8060c08789031215612ce5575f80fd5b612cee876127b3565b95506020870135945060408701359350606087013560ff81168114612d11575f80fd5b9598949750929560808101359460a0909101359350915050565b5f805f60608486031215612d3d575f80fd5b612d46846127b3565b9250612d54602085016127b3565b9150612b606040850161295f565b600181811c90821680612d7657607f821691505b602082108103612d9457634e487b7160e01b5f52602260045260245ffd5b50919050565b5f8351612dab81846020880161282f565b835190830190612dbf81836020880161282f565b01949350505050565b634e487b7160e01b5f52601160045260245ffd5b81810381811115610b5f57610b5f612dc8565b80820180821115610b5f57610b5f612dc8565b6001600160a01b03858116825284166020820152604081018390526080606082018190525f90612e3490830184612851565b9695505050505050565b5f60208284031215612e4e575f80fd5b8151610e80816127ff565b634e487b7160e01b5f52601260045260245ffd5b6001600160d01b03818116838216019080821115612e8d57612e8d612dc8565b5092915050565b6001600160d01b03828116828216039080821115612e8d57612e8d612dc8565b634e487b7160e01b5f52603260045260245ffd5b634e487b7160e01b5f52602160045260245ffd5b5f82612ef657634e487b7160e01b5f52601260045260245ffd5b50049056fea2646970667358221220625986d76b3a95eeaf6e74a466daa6c55b7aab42137dd329372057e0b011e3d364736f6c63430008180033",
  "linkReferences": {},
  "deployedLinkReferences": {}
}