{
  "_format": "hh-sol-artifact-1",
  "contractName": "$GameItem",
  "sourceName": "contracts-exposed/mocks/docs/token/ERC721/GameItem.sol",
  "abi": [
    {
      "inputs": [],
      "stateMutability": "payable",
      "type": "constructor"
    },
    {
      "inputs": [
        {
          "internalType": "address",
          "name": "sender",
          "type": "address"
        },
        {
          "internalType": "uint256",
          "name": "tokenId",
          "type": "uint256"
        },
        {
          "internalType": "address",
          "name": "owner",
          "type": "address"
        }
      ],
      "name": "ERC721IncorrectOwner",
      "type": "error"
    },
    {
      "inputs": [
        {
          "internalType": "address",
          "name": "operator",
          "type": "address"
        },
        {
          "internalType": "uint256",
          "name": "tokenId",
          "type": "uint256"
        }
      ],
      "name": "ERC721InsufficientApproval",
      "type": "error"
    },
    {
      "inputs": [
        {
          "internalType": "address",
          "name": "approver",
          "type": "address"
        }
      ],
      "name": "ERC721InvalidApprover",
      "type": "error"
    },
    {
      "inputs": [
        {
          "internalType": "address",
          "name": "operator",
          "type": "address"
        }
      ],
      "name": "ERC721InvalidOperator",
      "type": "error"
    },
    {
      "inputs": [
        {
          "internalType": "address",
          "name": "owner",
          "type": "address"
        }
      ],
      "name": "ERC721InvalidOwner",
      "type": "error"
    },
    {
      "inputs": [
        {
          "internalType": "address",
          "name": "receiver",
          "type": "address"
        }
      ],
      "name": "ERC721InvalidReceiver",
      "type": "error"
    },
    {
      "inputs": [
        {
          "internalType": "address",
          "name": "sender",
          "type": "address"
        }
      ],
      "name": "ERC721InvalidSender",
      "type": "error"
    },
    {
      "inputs": [
        {
          "internalType": "uint256",
          "name": "tokenId",
          "type": "uint256"
        }
      ],
      "name": "ERC721NonexistentToken",
      "type": "error"
    },
    {
      "anonymous": false,
      "inputs": [
        {
          "indexed": true,
          "internalType": "address",
          "name": "owner",
          "type": "address"
        },
        {
          "indexed": true,
          "internalType": "address",
          "name": "approved",
          "type": "address"
        },
        {
          "indexed": true,
          "internalType": "uint256",
          "name": "tokenId",
          "type": "uint256"
        }
      ],
      "name": "Approval",
      "type": "event"
    },
    {
      "anonymous": false,
      "inputs": [
        {
          "indexed": true,
          "internalType": "address",
          "name": "owner",
          "type": "address"
        },
        {
          "indexed": true,
          "internalType": "address",
          "name": "operator",
          "type": "address"
        },
        {
          "indexed": false,
          "internalType": "bool",
          "name": "approved",
          "type": "bool"
        }
      ],
      "name": "ApprovalForAll",
      "type": "event"
    },
    {
      "anonymous": false,
      "inputs": [
        {
          "indexed": false,
          "internalType": "uint256",
          "name": "_fromTokenId",
          "type": "uint256"
        },
        {
          "indexed": false,
          "internalType": "uint256",
          "name": "_toTokenId",
          "type": "uint256"
        }
      ],
      "name": "BatchMetadataUpdate",
      "type": "event"
    },
    {
      "anonymous": false,
      "inputs": [
        {
          "indexed": false,
          "internalType": "uint256",
          "name": "_tokenId",
          "type": "uint256"
        }
      ],
      "name": "MetadataUpdate",
      "type": "event"
    },
    {
      "anonymous": false,
      "inputs": [
        {
          "indexed": true,
          "internalType": "address",
          "name": "from",
          "type": "address"
        },
        {
          "indexed": true,
          "internalType": "address",
          "name": "to",
          "type": "address"
        },
        {
          "indexed": true,
          "internalType": "uint256",
          "name": "tokenId",
          "type": "uint256"
        }
      ],
      "name": "Transfer",
      "type": "event"
    },
    {
      "anonymous": false,
      "inputs": [
        {
          "indexed": false,
          "internalType": "address",
          "name": "ret0",
          "type": "address"
        }
      ],
      "name": "return$_update",
      "type": "event"
    },
    {
      "inputs": [
        {
          "internalType": "address",
          "name": "to",
          "type": "address"
        },
        {
          "internalType": "uint256",
          "name": "tokenId",
          "type": "uint256"
        },
        {
          "internalType": "address",
          "name": "auth",
          "type": "address"
        },
        {
          "internalType": "bool",
          "name": "emitEvent",
          "type": "bool"
        }
      ],
      "name": "$_approve",
      "outputs": [],
      "stateMutability": "nonpayable",
      "type": "function"
    },
    {
      "inputs": [
        {
          "internalType": "address",
          "name": "to",
          "type": "address"
        },
        {
          "internalType": "uint256",
          "name": "tokenId",
          "type": "uint256"
        },
        {
          "internalType": "address",
          "name": "auth",
          "type": "address"
        }
      ],
      "name": "$_approve",
      "outputs": [],
      "stateMutability": "nonpayable",
      "type": "function"
    },
    {
      "inputs": [],
      "name": "$_baseURI",
      "outputs": [
        {
          "internalType": "string",
          "name": "ret0",
          "type": "string"
        }
      ],
      "stateMutability": "view",
      "type": "function"
    },
    {
      "inputs": [
        {
          "internalType": "uint256",
          "name": "tokenId",
          "type": "uint256"
        }
      ],
      "name": "$_burn",
      "outputs": [],
      "stateMutability": "nonpayable",
      "type": "function"
    },
    {
      "inputs": [
        {
          "internalType": "address",
          "name": "owner",
          "type": "address"
        },
        {
          "internalType": "address",
          "name": "spender",
          "type": "address"
        },
        {
          "internalType": "uint256",
          "name": "tokenId",
          "type": "uint256"
        }
      ],
      "name": "$_checkAuthorized",
      "outputs": [],
      "stateMutability": "view",
      "type": "function"
    },
    {
      "inputs": [],
      "name": "$_contextSuffixLength",
      "outputs": [
        {
          "internalType": "uint256",
          "name": "ret0",
          "type": "uint256"
        }
      ],
      "stateMutability": "view",
      "type": "function"
    },
    {
      "inputs": [
        {
          "internalType": "uint256",
          "name": "tokenId",
          "type": "uint256"
        }
      ],
      "name": "$_getApproved",
      "outputs": [
        {
          "internalType": "address",
          "name": "ret0",
          "type": "address"
        }
      ],
      "stateMutability": "view",
      "type": "function"
    },
    {
      "inputs": [
        {
          "internalType": "address",
          "name": "account",
          "type": "address"
        },
        {
          "internalType": "uint128",
          "name": "value",
          "type": "uint128"
        }
      ],
      "name": "$_increaseBalance",
      "outputs": [],
      "stateMutability": "nonpayable",
      "type": "function"
    },
    {
      "inputs": [
        {
          "internalType": "address",
          "name": "owner",
          "type": "address"
        },
        {
          "internalType": "address",
          "name": "spender",
          "type": "address"
        },
        {
          "internalType": "uint256",
          "name": "tokenId",
          "type": "uint256"
        }
      ],
      "name": "$_isAuthorized",
      "outputs": [
        {
          "internalType": "bool",
          "name": "ret0",
          "type": "bool"
        }
      ],
      "stateMutability": "view",
      "type": "function"
    },
    {
      "inputs": [
        {
          "internalType": "address",
          "name": "to",
          "type": "address"
        },
        {
          "internalType": "uint256",
          "name": "tokenId",
          "type": "uint256"
        }
      ],
      "name": "$_mint",
      "outputs": [],
      "stateMutability": "nonpayable",
      "type": "function"
    },
    {
      "inputs": [],
      "name": "$_msgData",
      "outputs": [
        {
          "internalType": "bytes",
          "name": "ret0",
          "type": "bytes"
        }
      ],
      "stateMutability": "view",
      "type": "function"
    },
    {
      "inputs": [],
      "name": "$_msgSender",
      "outputs": [
        {
          "internalType": "address",
          "name": "ret0",
          "type": "address"
        }
      ],
      "stateMutability": "view",
      "type": "function"
    },
    {
      "inputs": [
        {
          "internalType": "uint256",
          "name": "tokenId",
          "type": "uint256"
        }
      ],
      "name": "$_ownerOf",
      "outputs": [
        {
          "internalType": "address",
          "name": "ret0",
          "type": "address"
        }
      ],
      "stateMutability": "view",
      "type": "function"
    },
    {
      "inputs": [
        {
          "internalType": "uint256",
          "name": "tokenId",
          "type": "uint256"
        }
      ],
      "name": "$_requireOwned",
      "outputs": [
        {
          "internalType": "address",
          "name": "ret0",
          "type": "address"
        }
      ],
      "stateMutability": "view",
      "type": "function"
    },
    {
      "inputs": [
        {
          "internalType": "address",
          "name": "to",
          "type": "address"
        },
        {
          "internalType": "uint256",
          "name": "tokenId",
          "type": "uint256"
        },
        {
          "internalType": "bytes",
          "name": "data",
          "type": "bytes"
        }
      ],
      "name": "$_safeMint",
      "outputs": [],
      "stateMutability": "nonpayable",
      "type": "function"
    },
    {
      "inputs": [
        {
          "internalType": "address",
          "name": "to",
          "type": "address"
        },
        {
          "internalType": "uint256",
          "name": "tokenId",
          "type": "uint256"
        }
      ],
      "name": "$_safeMint",
      "outputs": [],
      "stateMutability": "nonpayable",
      "type": "function"
    },
    {
      "inputs": [
        {
          "internalType": "address",
          "name": "from",
          "type": "address"
        },
        {
          "internalType": "address",
          "name": "to",
          "type": "address"
        },
        {
          "internalType": "uint256",
          "name": "tokenId",
          "type": "uint256"
        },
        {
          "internalType": "bytes",
          "name": "data",
          "type": "bytes"
        }
      ],
      "name": "$_safeTransfer",
      "outputs": [],
      "stateMutability": "nonpayable",
      "type": "function"
    },
    {
      "inputs": [
        {
          "internalType": "address",
          "name": "from",
          "type": "address"
        },
        {
          "internalType": "address",
          "name": "to",
          "type": "address"
        },
        {
          "internalType": "uint256",
          "name": "tokenId",
          "type": "uint256"
        }
      ],
      "name": "$_safeTransfer",
      "outputs": [],
      "stateMutability": "nonpayable",
      "type": "function"
    },
    {
      "inputs": [
        {
          "internalType": "address",
          "name": "owner",
          "type": "address"
        },
        {
          "internalType": "address",
          "name": "operator",
          "type": "address"
        },
        {
          "internalType": "bool",
          "name": "approved",
          "type": "bool"
        }
      ],
      "name": "$_setApprovalForAll",
      "outputs": [],
      "stateMutability": "nonpayable",
      "type": "function"
    },
    {
      "inputs": [
        {
          "internalType": "uint256",
          "name": "tokenId",
          "type": "uint256"
        },
        {
          "internalType": "string",
          "name": "_tokenURI",
          "type": "string"
        }
      ],
      "name": "$_setTokenURI",
      "outputs": [],
      "stateMutability": "nonpayable",
      "type": "function"
    },
    {
      "inputs": [
        {
          "internalType": "address",
          "name": "from",
          "type": "address"
        },
        {
          "internalType": "address",
          "name": "to",
          "type": "address"
        },
        {
          "internalType": "uint256",
          "name": "tokenId",
          "type": "uint256"
        }
      ],
      "name": "$_transfer",
      "outputs": [],
      "stateMutability": "nonpayable",
      "type": "function"
    },
    {
      "inputs": [
        {
          "internalType": "address",
          "name": "to",
          "type": "address"
        },
        {
          "internalType": "uint256",
          "name": "tokenId",
          "type": "uint256"
        },
        {
          "internalType": "address",
          "name": "auth",
          "type": "address"
        }
      ],
      "name": "$_update",
      "outputs": [
        {
          "internalType": "address",
          "name": "ret0",
          "type": "address"
        }
      ],
      "stateMutability": "nonpayable",
      "type": "function"
    },
    {
      "inputs": [],
      "name": "__hh_exposed_bytecode_marker",
      "outputs": [
        {
          "internalType": "bytes32",
          "name": "",
          "type": "bytes32"
        }
      ],
      "stateMutability": "view",
      "type": "function"
    },
    {
      "inputs": [
        {
          "internalType": "address",
          "name": "to",
          "type": "address"
        },
        {
          "internalType": "uint256",
          "name": "tokenId",
          "type": "uint256"
        }
      ],
      "name": "approve",
      "outputs": [],
      "stateMutability": "nonpayable",
      "type": "function"
    },
    {
      "inputs": [
        {
          "internalType": "address",
          "name": "player",
          "type": "address"
        },
        {
          "internalType": "string",
          "name": "tokenURI",
          "type": "string"
        }
      ],
      "name": "awardItem",
      "outputs": [
        {
          "internalType": "uint256",
          "name": "",
          "type": "uint256"
        }
      ],
      "stateMutability": "nonpayable",
      "type": "function"
    },
    {
      "inputs": [
        {
          "internalType": "address",
          "name": "owner",
          "type": "address"
        }
      ],
      "name": "balanceOf",
      "outputs": [
        {
          "internalType": "uint256",
          "name": "",
          "type": "uint256"
        }
      ],
      "stateMutability": "view",
      "type": "function"
    },
    {
      "inputs": [
        {
          "internalType": "uint256",
          "name": "tokenId",
          "type": "uint256"
        }
      ],
      "name": "getApproved",
      "outputs": [
        {
          "internalType": "address",
          "name": "",
          "type": "address"
        }
      ],
      "stateMutability": "view",
      "type": "function"
    },
    {
      "inputs": [
        {
          "internalType": "address",
          "name": "owner",
          "type": "address"
        },
        {
          "internalType": "address",
          "name": "operator",
          "type": "address"
        }
      ],
      "name": "isApprovedForAll",
      "outputs": [
        {
          "internalType": "bool",
          "name": "",
          "type": "bool"
        }
      ],
      "stateMutability": "view",
      "type": "function"
    },
    {
      "inputs": [],
      "name": "name",
      "outputs": [
        {
          "internalType": "string",
          "name": "",
          "type": "string"
        }
      ],
      "stateMutability": "view",
      "type": "function"
    },
    {
      "inputs": [
        {
          "internalType": "uint256",
          "name": "tokenId",
          "type": "uint256"
        }
      ],
      "name": "ownerOf",
      "outputs": [
        {
          "internalType": "address",
          "name": "",
          "type": "address"
        }
      ],
      "stateMutability": "view",
      "type": "function"
    },
    {
      "inputs": [
        {
          "internalType": "address",
          "name": "from",
          "type": "address"
        },
        {
          "internalType": "address",
          "name": "to",
          "type": "address"
        },
        {
          "internalType": "uint256",
          "name": "tokenId",
          "type": "uint256"
        }
      ],
      "name": "safeTransferFrom",
      "outputs": [],
      "stateMutability": "nonpayable",
      "type": "function"
    },
    {
      "inputs": [
        {
          "internalType": "address",
          "name": "from",
          "type": "address"
        },
        {
          "internalType": "address",
          "name": "to",
          "type": "address"
        },
        {
          "internalType": "uint256",
          "name": "tokenId",
          "type": "uint256"
        },
        {
          "internalType": "bytes",
          "name": "data",
          "type": "bytes"
        }
      ],
      "name": "safeTransferFrom",
      "outputs": [],
      "stateMutability": "nonpayable",
      "type": "function"
    },
    {
      "inputs": [
        {
          "internalType": "address",
          "name": "operator",
          "type": "address"
        },
        {
          "internalType": "bool",
          "name": "approved",
          "type": "bool"
        }
      ],
      "name": "setApprovalForAll",
      "outputs": [],
      "stateMutability": "nonpayable",
      "type": "function"
    },
    {
      "inputs": [
        {
          "internalType": "bytes4",
          "name": "interfaceId",
          "type": "bytes4"
        }
      ],
      "name": "supportsInterface",
      "outputs": [
        {
          "internalType": "bool",
          "name": "",
          "type": "bool"
        }
      ],
      "stateMutability": "view",
      "type": "function"
    },
    {
      "inputs": [],
      "name": "symbol",
      "outputs": [
        {
          "internalType": "string",
          "name": "",
          "type": "string"
        }
      ],
      "stateMutability": "view",
      "type": "function"
    },
    {
      "inputs": [
        {
          "internalType": "uint256",
          "name": "tokenId",
          "type": "uint256"
        }
      ],
      "name": "tokenURI",
      "outputs": [
        {
          "internalType": "string",
          "name": "",
          "type": "string"
        }
      ],
      "stateMutability": "view",
      "type": "function"
    },
    {
      "inputs": [
        {
          "internalType": "address",
          "name": "from",
          "type": "address"
        },
        {
          "internalType": "address",
          "name": "to",
          "type": "address"
        },
        {
          "internalType": "uint256",
          "name": "tokenId",
          "type": "uint256"
        }
      ],
      "name": "transferFrom",
      "outputs": [],
      "stateMutability": "nonpayable",
      "type": "function"
    },
    {
      "stateMutability": "payable",
      "type": "receive"
    }
  ],
  "bytecode": "0x600860809081526747616d654974656d60c01b60a052610100604052600360c09081526249544d60e81b60e0525f620000398382620000ef565b506001620000488282620000ef565b505050620001bb565b634e487b7160e01b5f52604160045260245ffd5b600181811c908216806200007a57607f821691505b6020821081036200009957634e487b7160e01b5f52602260045260245ffd5b50919050565b601f821115620000ea57805f5260205f20601f840160051c81016020851015620000c65750805b601f840160051c820191505b81811015620000e7575f8155600101620000d2565b50505b505050565b81516001600160401b038111156200010b576200010b62000051565b62000123816200011c845462000065565b846200009f565b602080601f83116001811462000159575f8415620001415750858301515b5f19600386901b1c1916600185901b178555620001b3565b5f85815260208120601f198616915b82811015620001895788860151825594840194600190910190840162000168565b5085821015620001a757878501515f19600388901b60f8161c191681555b505060018460011b0185555b505050505050565b611c7e80620001c95f395ff3fe608060405260043610610215575f3560e01c8063733555ec1161011e578063c87b56dd116100a8578063d84838341161006d578063d848383414610610578063e3cb9a4a1461062f578063e985e9c51461064e578063efb43b071461066d578063f604b1021461068c575f80fd5b8063c87b56dd14610575578063cc461d6214610594578063cf378343146105b3578063cfeea0d4146105d2578063d261af54146105f1575f80fd5b80639ff2f02d116100ee5780639ff2f02d146104f9578063a22cb46514610518578063a2373a8214610537578063b88d4fde14610556578063c670720114610419575f80fd5b8063733555ec146104885780637a7be036146104a757806390104b84146104c657806395d89b41146104e5575f80fd5b806332cadf3c1161019f578063458ee0021161016f578063458ee002146103fa5780636352211e1461041957806367354a84146104385780636884d58b1461044a57806370a0823114610469575f80fd5b806332cadf3c14610375578063342db739146103895780633451b14d146103bc57806342842e0e146103db575f80fd5b8063113efe1a116101e5578063113efe1a146102cd578063161e977d1461031157806323b872dd146103255780632904df291461034457806330f3b0b514610356575f80fd5b806301ffc9a71461022057806306fdde0314610254578063081812fc14610275578063095ea7b3146102ac575f80fd5b3661021c57005b5f80fd5b34801561022b575f80fd5b5061023f61023a366004611536565b6106ab565b60405190151581526020015b60405180910390f35b34801561025f575f80fd5b506102686106d5565b60405161024b919061159e565b348015610280575f80fd5b5061029461028f3660046115b0565b610764565b6040516001600160a01b03909116815260200161024b565b3480156102b7575f80fd5b506102cb6102c63660046115e2565b61078b565b005b3480156102d8575f80fd5b506102cb6102e736600461160a565b6001600160a01b0382165f90815260036020526040902080546001600160801b0383160190555050565b34801561031c575f80fd5b5061026861079a565b348015610330575f80fd5b506102cb61033f36600461164a565b6107b5565b34801561034f575f80fd5b5033610294565b348015610361575f80fd5b506102cb610370366004611692565b610843565b348015610380575f80fd5b5061026861084f565b348015610394575f80fd5b506103ae6e1a185c991a185d0b595e1c1bdcd959608a1b81565b60405190815260200161024b565b3480156103c7575f80fd5b506102946103d63660046115b0565b61088c565b3480156103e6575f80fd5b506102cb6103f536600461164a565b6108a8565b348015610405575f80fd5b506102946104143660046115b0565b6108c7565b348015610424575f80fd5b506102946104333660046115b0565b6108e3565b348015610443575f80fd5b505f6103ae565b348015610455575f80fd5b506102cb61046436600461164a565b6108ed565b348015610474575f80fd5b506103ae6104833660046116dc565b6108f8565b348015610493575f80fd5b506102cb6104a236600461173a565b61093d565b3480156104b2575f80fd5b5061023f6104c136600461164a565b610985565b3480156104d1575f80fd5b506102cb6104e03660046117a4565b610999565b3480156104f0575f80fd5b506102686109a4565b348015610504575f80fd5b506102cb6105133660046117dd565b6109b3565b348015610523575f80fd5b506102cb610532366004611833565b6109f3565b348015610542575f80fd5b506102cb6105513660046115b0565b6109fe565b348015610561575f80fd5b506102cb6105703660046118eb565b610a0a565b348015610580575f80fd5b5061026861058f3660046115b0565b610a22565b34801561059f575f80fd5b506102cb6105ae3660046115e2565b610b25565b3480156105be575f80fd5b506103ae6105cd366004611962565b610b2f565b3480156105dd575f80fd5b506102cb6105ec3660046119c0565b610b63565b3480156105fc575f80fd5b506102cb61060b3660046115e2565b610b6e565b34801561061b575f80fd5b506102cb61062a36600461164a565b610b78565b34801561063a575f80fd5b506102946106493660046117a4565b610b83565b348015610659575f80fd5b5061023f6106683660046119f7565b610bd5565b348015610678575f80fd5b506102cb61068736600461164a565b610c02565b348015610697575f80fd5b506102cb6106a6366004611a1f565b610c0d565b5f6001600160e01b03198216632483248360e11b14806106cf57506106cf82610c4c565b92915050565b60605f80546106e390611a67565b80601f016020809104026020016040519081016040528092919081815260200182805461070f90611a67565b801561075a5780601f106107315761010080835404028352916020019161075a565b820191905f5260205f20905b81548152906001019060200180831161073d57829003601f168201915b5050505050905090565b5f61076e82610c9b565b505f828152600460205260409020546001600160a01b03166106cf565b610796828233610cd3565b5050565b60606107b060408051602081019091525f815290565b905090565b6001600160a01b0382166107e357604051633250574960e11b81525f60048201526024015b60405180910390fd5b5f6107ef838333610ce0565b9050836001600160a01b0316816001600160a01b03161461083d576040516364283d7b60e01b81526001600160a01b03808616600483015260248201849052821660448201526064016107da565b50505050565b61083d84848484610dd2565b60605f368080601f0160208091040260200160405190810160405280939291908181526020018383808284375f9201919091525092949350505050565b5f818152600460205260408120546001600160a01b03166106cf565b6108c283838360405180602001604052805f815250610a0a565b505050565b5f818152600260205260408120546001600160a01b03166106cf565b5f6106cf82610c9b565b6108c2838383610ed6565b5f6001600160a01b038216610922576040516322718ad960e21b81525f60048201526024016107da565b506001600160a01b03165f9081526003602052604090205490565b61097e85858585858080601f0160208091040260200160405190810160405280939291908181526020018383808284375f92019190915250610f3a92505050565b5050505050565b5f610991848484610f45565b949350505050565b6108c2838383610cd3565b6060600180546106e390611a67565b61083d848484848080601f0160208091040260200160405190810160405280939291908181526020018383808284375f92019190915250610fa692505050565b610796338383610fbd565b610a078161105b565b50565b610a158484846107b5565b61083d3385858585611093565b6060610a2d82610c9b565b505f8281526006602052604081208054610a4690611a67565b80601f0160208091040260200160405190810160405280929190818152602001828054610a7290611a67565b8015610abd5780601f10610a9457610100808354040283529160200191610abd565b820191905f5260205f20905b815481529060010190602001808311610aa057829003601f168201915b505050505090505f610ad960408051602081019091525f815290565b905080515f03610aea575092915050565b815115610b1c578082604051602001610b04929190611a9f565b60405160208183030381529060405292505050919050565b610991846111ba565b610796828261122a565b600780545f9182919082610b4283611acd565b919050559050610b52848261122a565b610b5c818461128b565b9392505050565b6108c2838383610fbd565b61079682826112da565b6108c28383836112f3565b5f610b8f848484610ce0565b6040516001600160a01b03821681529091507ffc55619107f02333de2d9626fe994a6b9d0734bee4722e17698d6fa1b06c52009060200160405180910390a19392505050565b6001600160a01b039182165f90815260056020908152604080832093909416825291909152205460ff1690565b6108c283838361130d565b6108c28383838080601f0160208091040260200160405190810160405280939291908181526020018383808284375f9201919091525061128b92505050565b5f6001600160e01b031982166380ac58cd60e01b1480610c7c57506001600160e01b03198216635b5e139f60e01b145b806106cf57506301ffc9a760e01b6001600160e01b03198316146106cf565b5f818152600260205260408120546001600160a01b0316806106cf57604051637e27328960e01b8152600481018490526024016107da565b6108c28383836001610dd2565b5f828152600260205260408120546001600160a01b0390811690831615610d0c57610d0c818486610ed6565b6001600160a01b03811615610d4657610d275f855f80610dd2565b6001600160a01b0381165f90815260036020526040902080545f190190555b6001600160a01b03851615610d74576001600160a01b0385165f908152600360205260409020805460010190555b5f8481526002602052604080822080546001600160a01b0319166001600160a01b0389811691821790925591518793918516917fddf252ad1be2c89b69c2b068fc378daa952ba7f163c4a11628f55a4df523b3ef91a4949350505050565b8080610de657506001600160a01b03821615155b15610ea7575f610df584610c9b565b90506001600160a01b03831615801590610e215750826001600160a01b0316816001600160a01b031614155b8015610e345750610e328184610bd5565b155b15610e5d5760405163a9fbf51f60e01b81526001600160a01b03841660048201526024016107da565b8115610ea55783856001600160a01b0316826001600160a01b03167f8c5be1e5ebec7d5bd14f71427d1e84f3dd0314c0f7b2291e5b200ac8c7c3b92560405160405180910390a45b505b50505f90815260046020526040902080546001600160a01b0319166001600160a01b0392909216919091179055565b610ee1838383610f45565b6108c2576001600160a01b038316610f0f57604051637e27328960e01b8152600481018290526024016107da565b60405163177e802f60e01b81526001600160a01b0383166004820152602481018290526044016107da565b610a1584848461130d565b5f6001600160a01b038316158015906109915750826001600160a01b0316846001600160a01b03161480610f7e5750610f7e8484610bd5565b806109915750505f908152600460205260409020546001600160a01b03908116911614919050565b610fb0838361122a565b6108c2335f858585611093565b6001600160a01b038216610fef57604051630b61174360e31b81526001600160a01b03831660048201526024016107da565b6001600160a01b038381165f81815260056020908152604080832094871680845294825291829020805460ff191686151590811790915591519182527f17307eab39ab6107e8899845ad3d59bd9653f200f220920489ca2b5937696c31910160405180910390a3505050565b5f6110675f835f610ce0565b90506001600160a01b03811661079657604051637e27328960e01b8152600481018390526024016107da565b6001600160a01b0383163b1561097e57604051630a85bd0160e11b81526001600160a01b0384169063150b7a02906110d5908890889087908790600401611af1565b6020604051808303815f875af192505050801561110f575060408051601f3d908101601f1916820190925261110c91810190611b2d565b60015b611176573d80801561113c576040519150601f19603f3d011682016040523d82523d5f602084013e611141565b606091505b5080515f0361116e57604051633250574960e11b81526001600160a01b03851660048201526024016107da565b805181602001fd5b6001600160e01b03198116630a85bd0160e11b146111b257604051633250574960e11b81526001600160a01b03851660048201526024016107da565b505050505050565b60606111c582610c9b565b505f6111db60408051602081019091525f815290565b90505f8151116111f95760405180602001604052805f815250610b5c565b80611203846113ba565b604051602001611214929190611a9f565b6040516020818303038152906040529392505050565b6001600160a01b03821661125357604051633250574960e11b81525f60048201526024016107da565b5f61125f83835f610ce0565b90506001600160a01b038116156108c2576040516339e3563760e11b81525f60048201526024016107da565b5f8281526006602052604090206112a28282611b8c565b506040518281527ff8e1a15aba9398e019f0b49df1a4fde98ee17ae345cb5f6b5e2c27f5033e8ce79060200160405180910390a15050565b610796828260405180602001604052805f815250610fa6565b6108c283838360405180602001604052805f815250610f3a565b6001600160a01b03821661133657604051633250574960e11b81525f60048201526024016107da565b5f61134283835f610ce0565b90506001600160a01b03811661136e57604051637e27328960e01b8152600481018390526024016107da565b836001600160a01b0316816001600160a01b03161461083d576040516364283d7b60e01b81526001600160a01b03808616600483015260248201849052821660448201526064016107da565b60605f6113c68361144a565b60010190505f8167ffffffffffffffff8111156113e5576113e5611864565b6040519080825280601f01601f19166020018201604052801561140f576020820181803683370190505b5090508181016020015b5f19016f181899199a1a9b1b9c1cb0b131b232b360811b600a86061a8153600a850494508461141957509392505050565b5f8072184f03e93ff9f4daa797ed6e38ed64bf6a1f0160401b83106114885772184f03e93ff9f4daa797ed6e38ed64bf6a1f0160401b830492506040015b6d04ee2d6d415b85acef810000000083106114b4576d04ee2d6d415b85acef8100000000830492506020015b662386f26fc1000083106114d257662386f26fc10000830492506010015b6305f5e10083106114ea576305f5e100830492506008015b61271083106114fe57612710830492506004015b60648310611510576064830492506002015b600a83106106cf5760010192915050565b6001600160e01b031981168114610a07575f80fd5b5f60208284031215611546575f80fd5b8135610b5c81611521565b5f5b8381101561156b578181015183820152602001611553565b50505f910152565b5f815180845261158a816020860160208601611551565b601f01601f19169290920160200192915050565b602081525f610b5c6020830184611573565b5f602082840312156115c0575f80fd5b5035919050565b80356001600160a01b03811681146115dd575f80fd5b919050565b5f80604083850312156115f3575f80fd5b6115fc836115c7565b946020939093013593505050565b5f806040838503121561161b575f80fd5b611624836115c7565b915060208301356001600160801b038116811461163f575f80fd5b809150509250929050565b5f805f6060848603121561165c575f80fd5b611665846115c7565b9250611673602085016115c7565b9150604084013590509250925092565b803580151581146115dd575f80fd5b5f805f80608085870312156116a5575f80fd5b6116ae856115c7565b9350602085013592506116c3604086016115c7565b91506116d160608601611683565b905092959194509250565b5f602082840312156116ec575f80fd5b610b5c826115c7565b5f8083601f840112611705575f80fd5b50813567ffffffffffffffff81111561171c575f80fd5b602083019150836020828501011115611733575f80fd5b9250929050565b5f805f805f6080868803121561174e575f80fd5b611757866115c7565b9450611765602087016115c7565b935060408601359250606086013567ffffffffffffffff811115611787575f80fd5b611793888289016116f5565b969995985093965092949392505050565b5f805f606084860312156117b6575f80fd5b6117bf846115c7565b9250602084013591506117d4604085016115c7565b90509250925092565b5f805f80606085870312156117f0575f80fd5b6117f9856115c7565b935060208501359250604085013567ffffffffffffffff81111561181b575f80fd5b611827878288016116f5565b95989497509550505050565b5f8060408385031215611844575f80fd5b61184d836115c7565b915061185b60208401611683565b90509250929050565b634e487b7160e01b5f52604160045260245ffd5b5f67ffffffffffffffff8084111561189257611892611864565b604051601f8501601f19908116603f011681019082821181831017156118ba576118ba611864565b816040528093508581528686860111156118d2575f80fd5b858560208301375f602087830101525050509392505050565b5f805f80608085870312156118fe575f80fd5b611907856115c7565b9350611915602086016115c7565b925060408501359150606085013567ffffffffffffffff811115611937575f80fd5b8501601f81018713611947575f80fd5b61195687823560208401611878565b91505092959194509250565b5f8060408385031215611973575f80fd5b61197c836115c7565b9150602083013567ffffffffffffffff811115611997575f80fd5b8301601f810185136119a7575f80fd5b6119b685823560208401611878565b9150509250929050565b5f805f606084860312156119d2575f80fd5b6119db846115c7565b92506119e9602085016115c7565b91506117d460408501611683565b5f8060408385031215611a08575f80fd5b611a11836115c7565b915061185b602084016115c7565b5f805f60408486031215611a31575f80fd5b83359250602084013567ffffffffffffffff811115611a4e575f80fd5b611a5a868287016116f5565b9497909650939450505050565b600181811c90821680611a7b57607f821691505b602082108103611a9957634e487b7160e01b5f52602260045260245ffd5b50919050565b5f8351611ab0818460208801611551565b835190830190611ac4818360208801611551565b01949350505050565b5f60018201611aea57634e487b7160e01b5f52601160045260245ffd5b5060010190565b6001600160a01b03858116825284166020820152604081018390526080606082018190525f90611b2390830184611573565b9695505050505050565b5f60208284031215611b3d575f80fd5b8151610b5c81611521565b601f8211156108c257805f5260205f20601f840160051c81016020851015611b6d5750805b601f840160051c820191505b8181101561097e575f8155600101611b79565b815167ffffffffffffffff811115611ba657611ba6611864565b611bba81611bb48454611a67565b84611b48565b602080601f831160018114611bed575f8415611bd65750858301515b5f19600386901b1c1916600185901b1785556111b2565b5f85815260208120601f198616915b82811015611c1b57888601518255948401946001909101908401611bfc565b5085821015611c3857878501515f19600388901b60f8161c191681555b5050505050600190811b0190555056fea2646970667358221220c508230334ae3bce0301f515bd2b51cb84b2d9686141746e200eca9cecd2943f64736f6c63430008180033",
  "linkReferences": {},
  "deployedLinkReferences": {}
}