{
  "_format": "hh-sol-artifact-1",
  "contractName": "$ERC1155Pausable",
  "sourceName": "contracts-exposed/token/ERC1155/extensions/ERC1155Pausable.sol",
  "abi": [
    {
      "inputs": [
        {
          "internalType": "string",
          "name": "uri_",
          "type": "string"
        }
      ],
      "stateMutability": "payable",
      "type": "constructor"
    },
    {
      "inputs": [
        {
          "internalType": "address",
          "name": "sender",
          "type": "address"
        },
        {
          "internalType": "uint256",
          "name": "balance",
          "type": "uint256"
        },
        {
          "internalType": "uint256",
          "name": "needed",
          "type": "uint256"
        },
        {
          "internalType": "uint256",
          "name": "tokenId",
          "type": "uint256"
        }
      ],
      "name": "ERC1155InsufficientBalance",
      "type": "error"
    },
    {
      "inputs": [
        {
          "internalType": "address",
          "name": "approver",
          "type": "address"
        }
      ],
      "name": "ERC1155InvalidApprover",
      "type": "error"
    },
    {
      "inputs": [
        {
          "internalType": "uint256",
          "name": "idsLength",
          "type": "uint256"
        },
        {
          "internalType": "uint256",
          "name": "valuesLength",
          "type": "uint256"
        }
      ],
      "name": "ERC1155InvalidArrayLength",
      "type": "error"
    },
    {
      "inputs": [
        {
          "internalType": "address",
          "name": "operator",
          "type": "address"
        }
      ],
      "name": "ERC1155InvalidOperator",
      "type": "error"
    },
    {
      "inputs": [
        {
          "internalType": "address",
          "name": "receiver",
          "type": "address"
        }
      ],
      "name": "ERC1155InvalidReceiver",
      "type": "error"
    },
    {
      "inputs": [
        {
          "internalType": "address",
          "name": "sender",
          "type": "address"
        }
      ],
      "name": "ERC1155InvalidSender",
      "type": "error"
    },
    {
      "inputs": [
        {
          "internalType": "address",
          "name": "operator",
          "type": "address"
        },
        {
          "internalType": "address",
          "name": "owner",
          "type": "address"
        }
      ],
      "name": "ERC1155MissingApprovalForAll",
      "type": "error"
    },
    {
      "inputs": [],
      "name": "EnforcedPause",
      "type": "error"
    },
    {
      "inputs": [],
      "name": "ExpectedPause",
      "type": "error"
    },
    {
      "anonymous": false,
      "inputs": [
        {
          "indexed": true,
          "internalType": "address",
          "name": "account",
          "type": "address"
        },
        {
          "indexed": true,
          "internalType": "address",
          "name": "operator",
          "type": "address"
        },
        {
          "indexed": false,
          "internalType": "bool",
          "name": "approved",
          "type": "bool"
        }
      ],
      "name": "ApprovalForAll",
      "type": "event"
    },
    {
      "anonymous": false,
      "inputs": [
        {
          "indexed": false,
          "internalType": "address",
          "name": "account",
          "type": "address"
        }
      ],
      "name": "Paused",
      "type": "event"
    },
    {
      "anonymous": false,
      "inputs": [
        {
          "indexed": true,
          "internalType": "address",
          "name": "operator",
          "type": "address"
        },
        {
          "indexed": true,
          "internalType": "address",
          "name": "from",
          "type": "address"
        },
        {
          "indexed": true,
          "internalType": "address",
          "name": "to",
          "type": "address"
        },
        {
          "indexed": false,
          "internalType": "uint256[]",
          "name": "ids",
          "type": "uint256[]"
        },
        {
          "indexed": false,
          "internalType": "uint256[]",
          "name": "values",
          "type": "uint256[]"
        }
      ],
      "name": "TransferBatch",
      "type": "event"
    },
    {
      "anonymous": false,
      "inputs": [
        {
          "indexed": true,
          "internalType": "address",
          "name": "operator",
          "type": "address"
        },
        {
          "indexed": true,
          "internalType": "address",
          "name": "from",
          "type": "address"
        },
        {
          "indexed": true,
          "internalType": "address",
          "name": "to",
          "type": "address"
        },
        {
          "indexed": false,
          "internalType": "uint256",
          "name": "id",
          "type": "uint256"
        },
        {
          "indexed": false,
          "internalType": "uint256",
          "name": "value",
          "type": "uint256"
        }
      ],
      "name": "TransferSingle",
      "type": "event"
    },
    {
      "anonymous": false,
      "inputs": [
        {
          "indexed": false,
          "internalType": "string",
          "name": "value",
          "type": "string"
        },
        {
          "indexed": true,
          "internalType": "uint256",
          "name": "id",
          "type": "uint256"
        }
      ],
      "name": "URI",
      "type": "event"
    },
    {
      "anonymous": false,
      "inputs": [
        {
          "indexed": false,
          "internalType": "address",
          "name": "account",
          "type": "address"
        }
      ],
      "name": "Unpaused",
      "type": "event"
    },
    {
      "inputs": [
        {
          "internalType": "address",
          "name": "from",
          "type": "address"
        },
        {
          "internalType": "uint256",
          "name": "id",
          "type": "uint256"
        },
        {
          "internalType": "uint256",
          "name": "value",
          "type": "uint256"
        }
      ],
      "name": "$_burn",
      "outputs": [],
      "stateMutability": "nonpayable",
      "type": "function"
    },
    {
      "inputs": [
        {
          "internalType": "address",
          "name": "from",
          "type": "address"
        },
        {
          "internalType": "uint256[]",
          "name": "ids",
          "type": "uint256[]"
        },
        {
          "internalType": "uint256[]",
          "name": "values",
          "type": "uint256[]"
        }
      ],
      "name": "$_burnBatch",
      "outputs": [],
      "stateMutability": "nonpayable",
      "type": "function"
    },
    {
      "inputs": [],
      "name": "$_contextSuffixLength",
      "outputs": [
        {
          "internalType": "uint256",
          "name": "ret0",
          "type": "uint256"
        }
      ],
      "stateMutability": "view",
      "type": "function"
    },
    {
      "inputs": [
        {
          "internalType": "address",
          "name": "to",
          "type": "address"
        },
        {
          "internalType": "uint256",
          "name": "id",
          "type": "uint256"
        },
        {
          "internalType": "uint256",
          "name": "value",
          "type": "uint256"
        },
        {
          "internalType": "bytes",
          "name": "data",
          "type": "bytes"
        }
      ],
      "name": "$_mint",
      "outputs": [],
      "stateMutability": "nonpayable",
      "type": "function"
    },
    {
      "inputs": [
        {
          "internalType": "address",
          "name": "to",
          "type": "address"
        },
        {
          "internalType": "uint256[]",
          "name": "ids",
          "type": "uint256[]"
        },
        {
          "internalType": "uint256[]",
          "name": "values",
          "type": "uint256[]"
        },
        {
          "internalType": "bytes",
          "name": "data",
          "type": "bytes"
        }
      ],
      "name": "$_mintBatch",
      "outputs": [],
      "stateMutability": "nonpayable",
      "type": "function"
    },
    {
      "inputs": [],
      "name": "$_msgData",
      "outputs": [
        {
          "internalType": "bytes",
          "name": "ret0",
          "type": "bytes"
        }
      ],
      "stateMutability": "view",
      "type": "function"
    },
    {
      "inputs": [],
      "name": "$_msgSender",
      "outputs": [
        {
          "internalType": "address",
          "name": "ret0",
          "type": "address"
        }
      ],
      "stateMutability": "view",
      "type": "function"
    },
    {
      "inputs": [],
      "name": "$_pause",
      "outputs": [],
      "stateMutability": "nonpayable",
      "type": "function"
    },
    {
      "inputs": [],
      "name": "$_requireNotPaused",
      "outputs": [],
      "stateMutability": "view",
      "type": "function"
    },
    {
      "inputs": [],
      "name": "$_requirePaused",
      "outputs": [],
      "stateMutability": "view",
      "type": "function"
    },
    {
      "inputs": [
        {
          "internalType": "address",
          "name": "from",
          "type": "address"
        },
        {
          "internalType": "address",
          "name": "to",
          "type": "address"
        },
        {
          "internalType": "uint256[]",
          "name": "ids",
          "type": "uint256[]"
        },
        {
          "internalType": "uint256[]",
          "name": "values",
          "type": "uint256[]"
        },
        {
          "internalType": "bytes",
          "name": "data",
          "type": "bytes"
        }
      ],
      "name": "$_safeBatchTransferFrom",
      "outputs": [],
      "stateMutability": "nonpayable",
      "type": "function"
    },
    {
      "inputs": [
        {
          "internalType": "address",
          "name": "from",
          "type": "address"
        },
        {
          "internalType": "address",
          "name": "to",
          "type": "address"
        },
        {
          "internalType": "uint256",
          "name": "id",
          "type": "uint256"
        },
        {
          "internalType": "uint256",
          "name": "value",
          "type": "uint256"
        },
        {
          "internalType": "bytes",
          "name": "data",
          "type": "bytes"
        }
      ],
      "name": "$_safeTransferFrom",
      "outputs": [],
      "stateMutability": "nonpayable",
      "type": "function"
    },
    {
      "inputs": [
        {
          "internalType": "address",
          "name": "owner",
          "type": "address"
        },
        {
          "internalType": "address",
          "name": "operator",
          "type": "address"
        },
        {
          "internalType": "bool",
          "name": "approved",
          "type": "bool"
        }
      ],
      "name": "$_setApprovalForAll",
      "outputs": [],
      "stateMutability": "nonpayable",
      "type": "function"
    },
    {
      "inputs": [
        {
          "internalType": "string",
          "name": "newuri",
          "type": "string"
        }
      ],
      "name": "$_setURI",
      "outputs": [],
      "stateMutability": "nonpayable",
      "type": "function"
    },
    {
      "inputs": [],
      "name": "$_unpause",
      "outputs": [],
      "stateMutability": "nonpayable",
      "type": "function"
    },
    {
      "inputs": [
        {
          "internalType": "address",
          "name": "from",
          "type": "address"
        },
        {
          "internalType": "address",
          "name": "to",
          "type": "address"
        },
        {
          "internalType": "uint256[]",
          "name": "ids",
          "type": "uint256[]"
        },
        {
          "internalType": "uint256[]",
          "name": "values",
          "type": "uint256[]"
        }
      ],
      "name": "$_update",
      "outputs": [],
      "stateMutability": "nonpayable",
      "type": "function"
    },
    {
      "inputs": [
        {
          "internalType": "address",
          "name": "from",
          "type": "address"
        },
        {
          "internalType": "address",
          "name": "to",
          "type": "address"
        },
        {
          "internalType": "uint256[]",
          "name": "ids",
          "type": "uint256[]"
        },
        {
          "internalType": "uint256[]",
          "name": "values",
          "type": "uint256[]"
        },
        {
          "internalType": "bytes",
          "name": "data",
          "type": "bytes"
        }
      ],
      "name": "$_updateWithAcceptanceCheck",
      "outputs": [],
      "stateMutability": "nonpayable",
      "type": "function"
    },
    {
      "inputs": [],
      "name": "__hh_exposed_bytecode_marker",
      "outputs": [
        {
          "internalType": "bytes32",
          "name": "",
          "type": "bytes32"
        }
      ],
      "stateMutability": "view",
      "type": "function"
    },
    {
      "inputs": [
        {
          "internalType": "address",
          "name": "account",
          "type": "address"
        },
        {
          "internalType": "uint256",
          "name": "id",
          "type": "uint256"
        }
      ],
      "name": "balanceOf",
      "outputs": [
        {
          "internalType": "uint256",
          "name": "",
          "type": "uint256"
        }
      ],
      "stateMutability": "view",
      "type": "function"
    },
    {
      "inputs": [
        {
          "internalType": "address[]",
          "name": "accounts",
          "type": "address[]"
        },
        {
          "internalType": "uint256[]",
          "name": "ids",
          "type": "uint256[]"
        }
      ],
      "name": "balanceOfBatch",
      "outputs": [
        {
          "internalType": "uint256[]",
          "name": "",
          "type": "uint256[]"
        }
      ],
      "stateMutability": "view",
      "type": "function"
    },
    {
      "inputs": [
        {
          "internalType": "address",
          "name": "account",
          "type": "address"
        },
        {
          "internalType": "address",
          "name": "operator",
          "type": "address"
        }
      ],
      "name": "isApprovedForAll",
      "outputs": [
        {
          "internalType": "bool",
          "name": "",
          "type": "bool"
        }
      ],
      "stateMutability": "view",
      "type": "function"
    },
    {
      "inputs": [],
      "name": "paused",
      "outputs": [
        {
          "internalType": "bool",
          "name": "",
          "type": "bool"
        }
      ],
      "stateMutability": "view",
      "type": "function"
    },
    {
      "inputs": [
        {
          "internalType": "address",
          "name": "from",
          "type": "address"
        },
        {
          "internalType": "address",
          "name": "to",
          "type": "address"
        },
        {
          "internalType": "uint256[]",
          "name": "ids",
          "type": "uint256[]"
        },
        {
          "internalType": "uint256[]",
          "name": "values",
          "type": "uint256[]"
        },
        {
          "internalType": "bytes",
          "name": "data",
          "type": "bytes"
        }
      ],
      "name": "safeBatchTransferFrom",
      "outputs": [],
      "stateMutability": "nonpayable",
      "type": "function"
    },
    {
      "inputs": [
        {
          "internalType": "address",
          "name": "from",
          "type": "address"
        },
        {
          "internalType": "address",
          "name": "to",
          "type": "address"
        },
        {
          "internalType": "uint256",
          "name": "id",
          "type": "uint256"
        },
        {
          "internalType": "uint256",
          "name": "value",
          "type": "uint256"
        },
        {
          "internalType": "bytes",
          "name": "data",
          "type": "bytes"
        }
      ],
      "name": "safeTransferFrom",
      "outputs": [],
      "stateMutability": "nonpayable",
      "type": "function"
    },
    {
      "inputs": [
        {
          "internalType": "address",
          "name": "operator",
          "type": "address"
        },
        {
          "internalType": "bool",
          "name": "approved",
          "type": "bool"
        }
      ],
      "name": "setApprovalForAll",
      "outputs": [],
      "stateMutability": "nonpayable",
      "type": "function"
    },
    {
      "inputs": [
        {
          "internalType": "bytes4",
          "name": "interfaceId",
          "type": "bytes4"
        }
      ],
      "name": "supportsInterface",
      "outputs": [
        {
          "internalType": "bool",
          "name": "",
          "type": "bool"
        }
      ],
      "stateMutability": "view",
      "type": "function"
    },
    {
      "inputs": [
        {
          "internalType": "uint256",
          "name": "",
          "type": "uint256"
        }
      ],
      "name": "uri",
      "outputs": [
        {
          "internalType": "string",
          "name": "",
          "type": "string"
        }
      ],
      "stateMutability": "view",
      "type": "function"
    },
    {
      "stateMutability": "payable",
      "type": "receive"
    }
  ],
  "bytecode": "0x6080604052604051620021ca380380620021ca83398101604081905262000026916200006a565b80620000328162000044565b50506003805460ff191690556200028e565b6002620000528282620001c2565b5050565b634e487b7160e01b5f52604160045260245ffd5b5f60208083850312156200007c575f80fd5b82516001600160401b038082111562000093575f80fd5b818501915085601f830112620000a7575f80fd5b815181811115620000bc57620000bc62000056565b604051601f8201601f19908116603f01168101908382118183101715620000e757620000e762000056565b816040528281528886848701011115620000ff575f80fd5b5f93505b8284101562000122578484018601518185018701529285019262000103565b5f86848301015280965050505050505092915050565b600181811c908216806200014d57607f821691505b6020821081036200016c57634e487b7160e01b5f52602260045260245ffd5b50919050565b601f821115620001bd57805f5260205f20601f840160051c81016020851015620001995750805b601f840160051c820191505b81811015620001ba575f8155600101620001a5565b50505b505050565b81516001600160401b03811115620001de57620001de62000056565b620001f681620001ef845462000138565b8462000172565b602080601f8311600181146200022c575f8415620002145750858301515b5f19600386901b1c1916600185901b17855562000286565b5f85815260208120601f198616915b828110156200025c578886015182559484019460019091019084016200023b565b50858210156200027a57878501515f19600388901b60f8161c191681555b505060018460011b0185555b505050505050565b611f2e806200029c5f395ff3fe608060405260043610610197575f3560e01c806367354a84116100e7578063bf445cb811610087578063ec3016f711610062578063ec3016f71461046a578063eebe6ab414610489578063f242432a146104a8578063f85810a7146104c7575f80fd5b8063bf445cb81461040d578063cfeea0d41461042c578063e985e9c51461044b575f80fd5b8063a22cb465116100c2578063a22cb4651461039c578063af32f2f2146103bb578063b0a1fefa146103da578063b556c328146103ee575f80fd5b806367354a84146103575780637dfd6d69146103695780638381224114610388575f80fd5b80632d64f47911610152578063342db7391161012d578063342db739146102d057806338106e25146102f55780634e1273f4146103145780635c975abb14610340575f80fd5b80632d64f4791461027e5780632eb2c2d61461029d57806332cadf3c146102bc575f80fd5b8062fdd58e146101a257806301ffc9a7146101d45780630c3c37ae146102035780630e89341c146102245780632904df29146102505780632c85c6e21461026a575f80fd5b3661019e57005b5f80fd5b3480156101ad575f80fd5b506101c16101bc3660046113f1565b6104db565b6040519081526020015b60405180910390f35b3480156101df575f80fd5b506101f36101ee366004611431565b610502565b60405190151581526020016101cb565b34801561020e575f80fd5b5061022261021d366004611497565b610551565b005b34801561022f575f80fd5b5061024361023e366004611509565b61059b565b6040516101cb9190611563565b34801561025b575f80fd5b506040513381526020016101cb565b348015610275575f80fd5b5061022261062d565b348015610289575f80fd5b506102226102983660046115b5565b610637565b3480156102a8575f80fd5b506102226102b73660046117a4565b6106e1565b3480156102c7575f80fd5b50610243610745565b3480156102db575f80fd5b506101c16e1a185c991a185d0b595e1c1bdcd959608a1b81565b348015610300575f80fd5b5061022261030f366004611846565b610782565b34801561031f575f80fd5b5061033361032e3660046118c0565b6107f5565b6040516101cb91906119b3565b34801561034b575f80fd5b5060035460ff166101f3565b348015610362575f80fd5b505f6101c1565b348015610374575f80fd5b506102226103833660046119c5565b6108bf565b348015610393575f80fd5b50610222610900565b3480156103a7575f80fd5b506102226103b6366004611a25565b610908565b3480156103c6575f80fd5b506102226103d5366004611a56565b610917565b3480156103e5575f80fd5b50610222610984565b3480156103f9575f80fd5b50610222610408366004611ace565b61098c565b348015610418575f80fd5b50610222610427366004611afe565b61099c565b348015610437575f80fd5b50610222610446366004611ba0565b610a44565b348015610456575f80fd5b506101f3610465366004611be0565b610a4f565b348015610475575f80fd5b50610222610484366004611c08565b610a7c565b348015610494575f80fd5b506102226104a33660046115b5565b610aba565b3480156104b3575f80fd5b506102226104c2366004611c46565b610b5a565b3480156104d2575f80fd5b50610222610bb9565b5f818152602081815260408083206001600160a01b03861684529091529020545b92915050565b5f6001600160e01b03198216636cdb3d1360e11b148061053257506001600160e01b031982166303a24d0760e21b145b806104fc57506301ffc9a760e01b6001600160e01b03198316146104fc565b6105938686868686868080601f0160208091040260200160405190810160405280939291908181526020018383808284375f92019190915250610bc192505050565b505050505050565b6060600280546105aa90611ca5565b80601f01602080910402602001604051908101604052809291908181526020018280546105d690611ca5565b80156106215780601f106105f857610100808354040283529160200191610621565b820191905f5260205f20905b81548152906001019060200180831161060457829003601f168201915b50505050509050919050565b610635610c44565b565b6106d788888888808060200260200160405190810160405280939291908181526020018383602002808284375f9201919091525050604080516020808c0282810182019093528b82529093508b92508a9182918501908490808284375f9201919091525050604080516020601f8b0181900481028201810190925289815292508991508890819084018382808284375f92019190915250610c6892505050565b5050505050505050565b336001600160a01b038616811480159061070257506107008682610a4f565b155b156107385760405163711bec9160e11b81526001600160a01b038083166004830152871660248201526044015b60405180910390fd5b6105938686868686610cbb565b60605f368080601f0160208091040260200160405190810160405280939291908181526020018383808284375f9201919091525092949350505050565b6107ee858585808060200260200160405190810160405280939291908181526020018383602002808284375f92019190915250506040805160208089028281018201909352888252909350889250879182918501908490808284375f92019190915250610d1992505050565b5050505050565b606081518351146108265781518351604051635b05999160e01b81526004810192909252602482015260440161072f565b5f83516001600160401b0381111561084057610840611667565b604051908082528060200260200182016040528015610869578160200160208202803683370190505b5090505f5b84518110156108b757602080820286010151610892906020808402870101516104db565b8282815181106108a4576108a4611cdd565b602090810291909101015260010161086e565b509392505050565b6107ee85858585858080601f0160208091040260200160405190810160405280939291908181526020018383808284375f92019190915250610d5c92505050565b610635610db7565b610913338383610dda565b5050565b61059386868686808060200260200160405190810160405280939291908181526020018383602002808284375f9201919091525050604080516020808a028281018201909352898252909350899250889182918501908490808284375f92019190915250610e6e92505050565b610635610e88565b610997838383610eda565b505050565b610a3b878787808060200260200160405190810160405280939291908181526020018383602002808284375f9201919091525050604080516020808b0282810182019093528a82529093508a9250899182918501908490808284375f9201919091525050604080516020601f8a0181900481028201810190925288815292508891508790819084018382808284375f92019190915250610f4092505050565b50505050505050565b610997838383610dda565b6001600160a01b039182165f90815260016020908152604080832093909416825291909152205460ff1690565b61091382828080601f0160208091040260200160405190810160405280939291908181526020018383808284375f92019190915250610f7692505050565b6106d788888888808060200260200160405190810160405280939291908181526020018383602002808284375f9201919091525050604080516020808c0282810182019093528b82529093508b92508a9182918501908490808284375f9201919091525050604080516020601f8b0181900481028201810190925289815292508991508890819084018382808284375f92019190915250610cbb92505050565b336001600160a01b0386168114801590610b7b5750610b798682610a4f565b155b15610bac5760405163711bec9160e11b81526001600160a01b0380831660048301528716602482015260440161072f565b6105938686868686610bc1565b610635610f82565b6001600160a01b038416610bea57604051632bfa23e760e11b81525f600482015260240161072f565b6001600160a01b038516610c1257604051626a0d4560e21b81525f600482015260240161072f565b60408051600180825260208201869052818301908152606082018590526080820190925290610a3b8787848487610c68565b60035460ff16156106355760405163d93c066560e01b815260040160405180910390fd5b610c7485858585610e6e565b6001600160a01b038416156107ee5782513390600103610cad5760208481015190840151610ca6838989858589610fbf565b5050610593565b6105938187878787876110e0565b6001600160a01b038416610ce457604051632bfa23e760e11b81525f600482015260240161072f565b6001600160a01b038516610d0c57604051626a0d4560e21b81525f600482015260240161072f565b6107ee8585858585610c68565b6001600160a01b038316610d4157604051626a0d4560e21b81525f600482015260240161072f565b610997835f848460405180602001604052805f815250610c68565b6001600160a01b038416610d8557604051632bfa23e760e11b81525f600482015260240161072f565b604080516001808252602082018690528183019081526060820185905260808201909252906105935f87848487610c68565b60035460ff1661063557604051638dfc202b60e01b815260040160405180910390fd5b6001600160a01b038216610e025760405162ced3e160e81b81525f600482015260240161072f565b6001600160a01b038381165f81815260016020908152604080832094871680845294825291829020805460ff191686151590811790915591519182527f17307eab39ab6107e8899845ad3d59bd9653f200f220920489ca2b5937696c31910160405180910390a3505050565b610e76610c44565b610e82848484846111c7565b50505050565b610e90610db7565b6003805460ff191690557f5db9ee0a495bf2e6ff9c91a7834c1ba4fdd244a5e8aa4e537bd38aeae4b073aa335b6040516001600160a01b03909116815260200160405180910390a1565b6001600160a01b038316610f0257604051626a0d4560e21b81525f600482015260240161072f565b604080516001808252602082018590528183019081526060820184905260a082019092525f608082018181529192916107ee91879185908590610c68565b6001600160a01b038416610f6957604051632bfa23e760e11b81525f600482015260240161072f565b610e825f85858585610c68565b60026109138282611d35565b610f8a610c44565b6003805460ff191660011790557f62e78cea01bee320cd4e420270b5ea74000d11b0c9f74754ebdbfc544b05a258610ebd3390565b6001600160a01b0384163b156105935760405163f23a6e6160e01b81526001600160a01b0385169063f23a6e61906110039089908990889088908890600401611df0565b6020604051808303815f875af192505050801561103d575060408051601f3d908101601f1916820190925261103a91810190611e34565b60015b6110a4573d80801561106a576040519150601f19603f3d011682016040523d82523d5f602084013e61106f565b606091505b5080515f0361109c57604051632bfa23e760e11b81526001600160a01b038616600482015260240161072f565b805181602001fd5b6001600160e01b0319811663f23a6e6160e01b14610a3b57604051632bfa23e760e11b81526001600160a01b038616600482015260240161072f565b6001600160a01b0384163b156105935760405163bc197c8160e01b81526001600160a01b0385169063bc197c81906111249089908990889088908890600401611e4f565b6020604051808303815f875af192505050801561115e575060408051601f3d908101601f1916820190925261115b91810190611e34565b60015b61118b573d80801561106a576040519150601f19603f3d011682016040523d82523d5f602084013e61106f565b6001600160e01b0319811663bc197c8160e01b14610a3b57604051632bfa23e760e11b81526001600160a01b038616600482015260240161072f565b80518251146111f65781518151604051635b05999160e01b81526004810192909252602482015260440161072f565b335f5b83518110156112f8576020818102858101820151908501909101516001600160a01b038816156112aa575f828152602081815260408083206001600160a01b038c16845290915290205481811015611284576040516303dee4c560e01b81526001600160a01b038a16600482015260248101829052604481018390526064810184905260840161072f565b5f838152602081815260408083206001600160a01b038d16845290915290209082900390555b6001600160a01b038716156112ee575f828152602081815260408083206001600160a01b038b168452909152812080548392906112e8908490611eac565b90915550505b50506001016111f9565b5082516001036113785760208301515f906020840151909150856001600160a01b0316876001600160a01b0316846001600160a01b03167fc3d58168c5ae7397731d063d5bbf3d657854427343f4c083240f7aacaa2d0f628585604051611369929190918252602082015260400190565b60405180910390a450506107ee565b836001600160a01b0316856001600160a01b0316826001600160a01b03167f4a39dc06d4c0dbc64b70af90fd698a233a518aa5d07e595d983b8c0526c8f7fb86866040516113c7929190611ecb565b60405180910390a45050505050565b80356001600160a01b03811681146113ec575f80fd5b919050565b5f8060408385031215611402575f80fd5b61140b836113d6565b946020939093013593505050565b6001600160e01b03198116811461142e575f80fd5b50565b5f60208284031215611441575f80fd5b813561144c81611419565b9392505050565b5f8083601f840112611463575f80fd5b5081356001600160401b03811115611479575f80fd5b602083019150836020828501011115611490575f80fd5b9250929050565b5f805f805f8060a087890312156114ac575f80fd5b6114b5876113d6565b95506114c3602088016113d6565b9450604087013593506060870135925060808701356001600160401b038111156114eb575f80fd5b6114f789828a01611453565b979a9699509497509295939492505050565b5f60208284031215611519575f80fd5b5035919050565b5f81518084525f5b8181101561154457602081850181015186830182015201611528565b505f602082860101526020601f19601f83011685010191505092915050565b602081525f61144c6020830184611520565b5f8083601f840112611585575f80fd5b5081356001600160401b0381111561159b575f80fd5b6020830191508360208260051b8501011115611490575f80fd5b5f805f805f805f8060a0898b0312156115cc575f80fd5b6115d5896113d6565b97506115e360208a016113d6565b965060408901356001600160401b03808211156115fe575f80fd5b61160a8c838d01611575565b909850965060608b0135915080821115611622575f80fd5b61162e8c838d01611575565b909650945060808b0135915080821115611646575f80fd5b506116538b828c01611453565b999c989b5096995094979396929594505050565b634e487b7160e01b5f52604160045260245ffd5b604051601f8201601f191681016001600160401b03811182821017156116a3576116a3611667565b604052919050565b5f6001600160401b038211156116c3576116c3611667565b5060051b60200190565b5f82601f8301126116dc575f80fd5b813560206116f16116ec836116ab565b61167b565b8083825260208201915060208460051b870101935086841115611712575f80fd5b602086015b8481101561172e5780358352918301918301611717565b509695505050505050565b5f82601f830112611748575f80fd5b81356001600160401b0381111561176157611761611667565b611774601f8201601f191660200161167b565b818152846020838601011115611788575f80fd5b816020850160208301375f918101602001919091529392505050565b5f805f805f60a086880312156117b8575f80fd5b6117c1866113d6565b94506117cf602087016113d6565b935060408601356001600160401b03808211156117ea575f80fd5b6117f689838a016116cd565b9450606088013591508082111561180b575f80fd5b61181789838a016116cd565b9350608088013591508082111561182c575f80fd5b5061183988828901611739565b9150509295509295909350565b5f805f805f6060868803121561185a575f80fd5b611863866113d6565b945060208601356001600160401b038082111561187e575f80fd5b61188a89838a01611575565b909650945060408801359150808211156118a2575f80fd5b506118af88828901611575565b969995985093965092949392505050565b5f80604083850312156118d1575f80fd5b82356001600160401b03808211156118e7575f80fd5b818501915085601f8301126118fa575f80fd5b8135602061190a6116ec836116ab565b82815260059290921b84018101918181019089841115611928575f80fd5b948201945b8386101561194d5761193e866113d6565b8252948201949082019061192d565b96505086013592505080821115611962575f80fd5b5061196f858286016116cd565b9150509250929050565b5f815180845260208085019450602084015f5b838110156119a85781518752958201959082019060010161198c565b509495945050505050565b602081525f61144c6020830184611979565b5f805f805f608086880312156119d9575f80fd5b6119e2866113d6565b9450602086013593506040860135925060608601356001600160401b03811115611a0a575f80fd5b6118af88828901611453565b803580151581146113ec575f80fd5b5f8060408385031215611a36575f80fd5b611a3f836113d6565b9150611a4d60208401611a16565b90509250929050565b5f805f805f8060808789031215611a6b575f80fd5b611a74876113d6565b9550611a82602088016113d6565b945060408701356001600160401b0380821115611a9d575f80fd5b611aa98a838b01611575565b90965094506060890135915080821115611ac1575f80fd5b506114f789828a01611575565b5f805f60608486031215611ae0575f80fd5b611ae9846113d6565b95602085013595506040909401359392505050565b5f805f805f805f6080888a031215611b14575f80fd5b611b1d886113d6565b965060208801356001600160401b0380821115611b38575f80fd5b611b448b838c01611575565b909850965060408a0135915080821115611b5c575f80fd5b611b688b838c01611575565b909650945060608a0135915080821115611b80575f80fd5b50611b8d8a828b01611453565b989b979a50959850939692959293505050565b5f805f60608486031215611bb2575f80fd5b611bbb846113d6565b9250611bc9602085016113d6565b9150611bd760408501611a16565b90509250925092565b5f8060408385031215611bf1575f80fd5b611bfa836113d6565b9150611a4d602084016113d6565b5f8060208385031215611c19575f80fd5b82356001600160401b03811115611c2e575f80fd5b611c3a85828601611453565b90969095509350505050565b5f805f805f60a08688031215611c5a575f80fd5b611c63866113d6565b9450611c71602087016113d6565b9350604086013592506060860135915060808601356001600160401b03811115611c99575f80fd5b61183988828901611739565b600181811c90821680611cb957607f821691505b602082108103611cd757634e487b7160e01b5f52602260045260245ffd5b50919050565b634e487b7160e01b5f52603260045260245ffd5b601f82111561099757805f5260205f20601f840160051c81016020851015611d165750805b601f840160051c820191505b818110156107ee575f8155600101611d22565b81516001600160401b03811115611d4e57611d4e611667565b611d6281611d5c8454611ca5565b84611cf1565b602080601f831160018114611d95575f8415611d7e5750858301515b5f19600386901b1c1916600185901b178555610593565b5f85815260208120601f198616915b82811015611dc357888601518255948401946001909101908401611da4565b5085821015611de057878501515f19600388901b60f8161c191681555b5050505050600190811b01905550565b6001600160a01b03868116825285166020820152604081018490526060810183905260a0608082018190525f90611e2990830184611520565b979650505050505050565b5f60208284031215611e44575f80fd5b815161144c81611419565b6001600160a01b0386811682528516602082015260a0604082018190525f90611e7a90830186611979565b8281036060840152611e8c8186611979565b90508281036080840152611ea08185611520565b98975050505050505050565b808201808211156104fc57634e487b7160e01b5f52601160045260245ffd5b604081525f611edd6040830185611979565b8281036020840152611eef8185611979565b9594505050505056fea2646970667358221220e1a84d1901c599993ab76ee0e8a64d9ee17494bc6de33300b71268b5d00fe2a864736f6c63430008180033",
  "linkReferences": {},
  "deployedLinkReferences": {}
}