{
  "_format": "hh-sol-artifact-1",
  "contractName": "$ERC4626LimitsMock",
  "sourceName": "contracts-exposed/mocks/token/ERC4626LimitsMock.sol",
  "abi": [
    {
      "inputs": [
        {
          "internalType": "string",
          "name": "name_",
          "type": "string"
        },
        {
          "internalType": "string",
          "name": "symbol_",
          "type": "string"
        },
        {
          "internalType": "contract IERC20",
          "name": "asset_",
          "type": "address"
        }
      ],
      "stateMutability": "payable",
      "type": "constructor"
    },
    {
      "inputs": [
        {
          "internalType": "address",
          "name": "spender",
          "type": "address"
        },
        {
          "internalType": "uint256",
          "name": "allowance",
          "type": "uint256"
        },
        {
          "internalType": "uint256",
          "name": "needed",
          "type": "uint256"
        }
      ],
      "name": "ERC20InsufficientAllowance",
      "type": "error"
    },
    {
      "inputs": [
        {
          "internalType": "address",
          "name": "sender",
          "type": "address"
        },
        {
          "internalType": "uint256",
          "name": "balance",
          "type": "uint256"
        },
        {
          "internalType": "uint256",
          "name": "needed",
          "type": "uint256"
        }
      ],
      "name": "ERC20InsufficientBalance",
      "type": "error"
    },
    {
      "inputs": [
        {
          "internalType": "address",
          "name": "approver",
          "type": "address"
        }
      ],
      "name": "ERC20InvalidApprover",
      "type": "error"
    },
    {
      "inputs": [
        {
          "internalType": "address",
          "name": "receiver",
          "type": "address"
        }
      ],
      "name": "ERC20InvalidReceiver",
      "type": "error"
    },
    {
      "inputs": [
        {
          "internalType": "address",
          "name": "sender",
          "type": "address"
        }
      ],
      "name": "ERC20InvalidSender",
      "type": "error"
    },
    {
      "inputs": [
        {
          "internalType": "address",
          "name": "spender",
          "type": "address"
        }
      ],
      "name": "ERC20InvalidSpender",
      "type": "error"
    },
    {
      "inputs": [
        {
          "internalType": "address",
          "name": "receiver",
          "type": "address"
        },
        {
          "internalType": "uint256",
          "name": "assets",
          "type": "uint256"
        },
        {
          "internalType": "uint256",
          "name": "max",
          "type": "uint256"
        }
      ],
      "name": "ERC4626ExceededMaxDeposit",
      "type": "error"
    },
    {
      "inputs": [
        {
          "internalType": "address",
          "name": "receiver",
          "type": "address"
        },
        {
          "internalType": "uint256",
          "name": "shares",
          "type": "uint256"
        },
        {
          "internalType": "uint256",
          "name": "max",
          "type": "uint256"
        }
      ],
      "name": "ERC4626ExceededMaxMint",
      "type": "error"
    },
    {
      "inputs": [
        {
          "internalType": "address",
          "name": "owner",
          "type": "address"
        },
        {
          "internalType": "uint256",
          "name": "shares",
          "type": "uint256"
        },
        {
          "internalType": "uint256",
          "name": "max",
          "type": "uint256"
        }
      ],
      "name": "ERC4626ExceededMaxRedeem",
      "type": "error"
    },
    {
      "inputs": [
        {
          "internalType": "address",
          "name": "owner",
          "type": "address"
        },
        {
          "internalType": "uint256",
          "name": "assets",
          "type": "uint256"
        },
        {
          "internalType": "uint256",
          "name": "max",
          "type": "uint256"
        }
      ],
      "name": "ERC4626ExceededMaxWithdraw",
      "type": "error"
    },
    {
      "inputs": [
        {
          "internalType": "address",
          "name": "token",
          "type": "address"
        }
      ],
      "name": "SafeERC20FailedOperation",
      "type": "error"
    },
    {
      "anonymous": false,
      "inputs": [
        {
          "indexed": true,
          "internalType": "address",
          "name": "owner",
          "type": "address"
        },
        {
          "indexed": true,
          "internalType": "address",
          "name": "spender",
          "type": "address"
        },
        {
          "indexed": false,
          "internalType": "uint256",
          "name": "value",
          "type": "uint256"
        }
      ],
      "name": "Approval",
      "type": "event"
    },
    {
      "anonymous": false,
      "inputs": [
        {
          "indexed": true,
          "internalType": "address",
          "name": "sender",
          "type": "address"
        },
        {
          "indexed": true,
          "internalType": "address",
          "name": "owner",
          "type": "address"
        },
        {
          "indexed": false,
          "internalType": "uint256",
          "name": "assets",
          "type": "uint256"
        },
        {
          "indexed": false,
          "internalType": "uint256",
          "name": "shares",
          "type": "uint256"
        }
      ],
      "name": "Deposit",
      "type": "event"
    },
    {
      "anonymous": false,
      "inputs": [
        {
          "indexed": true,
          "internalType": "address",
          "name": "from",
          "type": "address"
        },
        {
          "indexed": true,
          "internalType": "address",
          "name": "to",
          "type": "address"
        },
        {
          "indexed": false,
          "internalType": "uint256",
          "name": "value",
          "type": "uint256"
        }
      ],
      "name": "Transfer",
      "type": "event"
    },
    {
      "anonymous": false,
      "inputs": [
        {
          "indexed": true,
          "internalType": "address",
          "name": "sender",
          "type": "address"
        },
        {
          "indexed": true,
          "internalType": "address",
          "name": "receiver",
          "type": "address"
        },
        {
          "indexed": true,
          "internalType": "address",
          "name": "owner",
          "type": "address"
        },
        {
          "indexed": false,
          "internalType": "uint256",
          "name": "assets",
          "type": "uint256"
        },
        {
          "indexed": false,
          "internalType": "uint256",
          "name": "shares",
          "type": "uint256"
        }
      ],
      "name": "Withdraw",
      "type": "event"
    },
    {
      "inputs": [
        {
          "internalType": "address",
          "name": "owner",
          "type": "address"
        },
        {
          "internalType": "address",
          "name": "spender",
          "type": "address"
        },
        {
          "internalType": "uint256",
          "name": "value",
          "type": "uint256"
        },
        {
          "internalType": "bool",
          "name": "emitEvent",
          "type": "bool"
        }
      ],
      "name": "$_approve",
      "outputs": [],
      "stateMutability": "nonpayable",
      "type": "function"
    },
    {
      "inputs": [
        {
          "internalType": "address",
          "name": "owner",
          "type": "address"
        },
        {
          "internalType": "address",
          "name": "spender",
          "type": "address"
        },
        {
          "internalType": "uint256",
          "name": "value",
          "type": "uint256"
        }
      ],
      "name": "$_approve",
      "outputs": [],
      "stateMutability": "nonpayable",
      "type": "function"
    },
    {
      "inputs": [
        {
          "internalType": "address",
          "name": "account",
          "type": "address"
        },
        {
          "internalType": "uint256",
          "name": "value",
          "type": "uint256"
        }
      ],
      "name": "$_burn",
      "outputs": [],
      "stateMutability": "nonpayable",
      "type": "function"
    },
    {
      "inputs": [],
      "name": "$_contextSuffixLength",
      "outputs": [
        {
          "internalType": "uint256",
          "name": "ret0",
          "type": "uint256"
        }
      ],
      "stateMutability": "view",
      "type": "function"
    },
    {
      "inputs": [
        {
          "internalType": "uint256",
          "name": "shares",
          "type": "uint256"
        },
        {
          "internalType": "enum Math.Rounding",
          "name": "rounding",
          "type": "uint8"
        }
      ],
      "name": "$_convertToAssets",
      "outputs": [
        {
          "internalType": "uint256",
          "name": "ret0",
          "type": "uint256"
        }
      ],
      "stateMutability": "view",
      "type": "function"
    },
    {
      "inputs": [
        {
          "internalType": "uint256",
          "name": "assets",
          "type": "uint256"
        },
        {
          "internalType": "enum Math.Rounding",
          "name": "rounding",
          "type": "uint8"
        }
      ],
      "name": "$_convertToShares",
      "outputs": [
        {
          "internalType": "uint256",
          "name": "ret0",
          "type": "uint256"
        }
      ],
      "stateMutability": "view",
      "type": "function"
    },
    {
      "inputs": [],
      "name": "$_decimalsOffset",
      "outputs": [
        {
          "internalType": "uint8",
          "name": "ret0",
          "type": "uint8"
        }
      ],
      "stateMutability": "view",
      "type": "function"
    },
    {
      "inputs": [
        {
          "internalType": "address",
          "name": "caller",
          "type": "address"
        },
        {
          "internalType": "address",
          "name": "receiver",
          "type": "address"
        },
        {
          "internalType": "uint256",
          "name": "assets",
          "type": "uint256"
        },
        {
          "internalType": "uint256",
          "name": "shares",
          "type": "uint256"
        }
      ],
      "name": "$_deposit",
      "outputs": [],
      "stateMutability": "nonpayable",
      "type": "function"
    },
    {
      "inputs": [],
      "name": "$_maxDeposit",
      "outputs": [
        {
          "internalType": "uint256",
          "name": "",
          "type": "uint256"
        }
      ],
      "stateMutability": "view",
      "type": "function"
    },
    {
      "inputs": [],
      "name": "$_maxMint",
      "outputs": [
        {
          "internalType": "uint256",
          "name": "",
          "type": "uint256"
        }
      ],
      "stateMutability": "view",
      "type": "function"
    },
    {
      "inputs": [
        {
          "internalType": "address",
          "name": "account",
          "type": "address"
        },
        {
          "internalType": "uint256",
          "name": "value",
          "type": "uint256"
        }
      ],
      "name": "$_mint",
      "outputs": [],
      "stateMutability": "nonpayable",
      "type": "function"
    },
    {
      "inputs": [],
      "name": "$_msgData",
      "outputs": [
        {
          "internalType": "bytes",
          "name": "ret0",
          "type": "bytes"
        }
      ],
      "stateMutability": "view",
      "type": "function"
    },
    {
      "inputs": [],
      "name": "$_msgSender",
      "outputs": [
        {
          "internalType": "address",
          "name": "ret0",
          "type": "address"
        }
      ],
      "stateMutability": "view",
      "type": "function"
    },
    {
      "inputs": [
        {
          "internalType": "address",
          "name": "owner",
          "type": "address"
        },
        {
          "internalType": "address",
          "name": "spender",
          "type": "address"
        },
        {
          "internalType": "uint256",
          "name": "value",
          "type": "uint256"
        }
      ],
      "name": "$_spendAllowance",
      "outputs": [],
      "stateMutability": "nonpayable",
      "type": "function"
    },
    {
      "inputs": [
        {
          "internalType": "address",
          "name": "from",
          "type": "address"
        },
        {
          "internalType": "address",
          "name": "to",
          "type": "address"
        },
        {
          "internalType": "uint256",
          "name": "value",
          "type": "uint256"
        }
      ],
      "name": "$_transfer",
      "outputs": [],
      "stateMutability": "nonpayable",
      "type": "function"
    },
    {
      "inputs": [
        {
          "internalType": "address",
          "name": "from",
          "type": "address"
        },
        {
          "internalType": "address",
          "name": "to",
          "type": "address"
        },
        {
          "internalType": "uint256",
          "name": "value",
          "type": "uint256"
        }
      ],
      "name": "$_update",
      "outputs": [],
      "stateMutability": "nonpayable",
      "type": "function"
    },
    {
      "inputs": [
        {
          "internalType": "address",
          "name": "caller",
          "type": "address"
        },
        {
          "internalType": "address",
          "name": "receiver",
          "type": "address"
        },
        {
          "internalType": "address",
          "name": "owner",
          "type": "address"
        },
        {
          "internalType": "uint256",
          "name": "assets",
          "type": "uint256"
        },
        {
          "internalType": "uint256",
          "name": "shares",
          "type": "uint256"
        }
      ],
      "name": "$_withdraw",
      "outputs": [],
      "stateMutability": "nonpayable",
      "type": "function"
    },
    {
      "inputs": [],
      "name": "__hh_exposed_bytecode_marker",
      "outputs": [
        {
          "internalType": "bytes32",
          "name": "",
          "type": "bytes32"
        }
      ],
      "stateMutability": "view",
      "type": "function"
    },
    {
      "inputs": [
        {
          "internalType": "address",
          "name": "owner",
          "type": "address"
        },
        {
          "internalType": "address",
          "name": "spender",
          "type": "address"
        }
      ],
      "name": "allowance",
      "outputs": [
        {
          "internalType": "uint256",
          "name": "",
          "type": "uint256"
        }
      ],
      "stateMutability": "view",
      "type": "function"
    },
    {
      "inputs": [
        {
          "internalType": "address",
          "name": "spender",
          "type": "address"
        },
        {
          "internalType": "uint256",
          "name": "value",
          "type": "uint256"
        }
      ],
      "name": "approve",
      "outputs": [
        {
          "internalType": "bool",
          "name": "",
          "type": "bool"
        }
      ],
      "stateMutability": "nonpayable",
      "type": "function"
    },
    {
      "inputs": [],
      "name": "asset",
      "outputs": [
        {
          "internalType": "address",
          "name": "",
          "type": "address"
        }
      ],
      "stateMutability": "view",
      "type": "function"
    },
    {
      "inputs": [
        {
          "internalType": "address",
          "name": "account",
          "type": "address"
        }
      ],
      "name": "balanceOf",
      "outputs": [
        {
          "internalType": "uint256",
          "name": "",
          "type": "uint256"
        }
      ],
      "stateMutability": "view",
      "type": "function"
    },
    {
      "inputs": [
        {
          "internalType": "uint256",
          "name": "shares",
          "type": "uint256"
        }
      ],
      "name": "convertToAssets",
      "outputs": [
        {
          "internalType": "uint256",
          "name": "",
          "type": "uint256"
        }
      ],
      "stateMutability": "view",
      "type": "function"
    },
    {
      "inputs": [
        {
          "internalType": "uint256",
          "name": "assets",
          "type": "uint256"
        }
      ],
      "name": "convertToShares",
      "outputs": [
        {
          "internalType": "uint256",
          "name": "",
          "type": "uint256"
        }
      ],
      "stateMutability": "view",
      "type": "function"
    },
    {
      "inputs": [],
      "name": "decimals",
      "outputs": [
        {
          "internalType": "uint8",
          "name": "",
          "type": "uint8"
        }
      ],
      "stateMutability": "view",
      "type": "function"
    },
    {
      "inputs": [
        {
          "internalType": "uint256",
          "name": "assets",
          "type": "uint256"
        },
        {
          "internalType": "address",
          "name": "receiver",
          "type": "address"
        }
      ],
      "name": "deposit",
      "outputs": [
        {
          "internalType": "uint256",
          "name": "",
          "type": "uint256"
        }
      ],
      "stateMutability": "nonpayable",
      "type": "function"
    },
    {
      "inputs": [
        {
          "internalType": "address",
          "name": "",
          "type": "address"
        }
      ],
      "name": "maxDeposit",
      "outputs": [
        {
          "internalType": "uint256",
          "name": "",
          "type": "uint256"
        }
      ],
      "stateMutability": "view",
      "type": "function"
    },
    {
      "inputs": [
        {
          "internalType": "address",
          "name": "",
          "type": "address"
        }
      ],
      "name": "maxMint",
      "outputs": [
        {
          "internalType": "uint256",
          "name": "",
          "type": "uint256"
        }
      ],
      "stateMutability": "view",
      "type": "function"
    },
    {
      "inputs": [
        {
          "internalType": "address",
          "name": "owner",
          "type": "address"
        }
      ],
      "name": "maxRedeem",
      "outputs": [
        {
          "internalType": "uint256",
          "name": "",
          "type": "uint256"
        }
      ],
      "stateMutability": "view",
      "type": "function"
    },
    {
      "inputs": [
        {
          "internalType": "address",
          "name": "owner",
          "type": "address"
        }
      ],
      "name": "maxWithdraw",
      "outputs": [
        {
          "internalType": "uint256",
          "name": "",
          "type": "uint256"
        }
      ],
      "stateMutability": "view",
      "type": "function"
    },
    {
      "inputs": [
        {
          "internalType": "uint256",
          "name": "shares",
          "type": "uint256"
        },
        {
          "internalType": "address",
          "name": "receiver",
          "type": "address"
        }
      ],
      "name": "mint",
      "outputs": [
        {
          "internalType": "uint256",
          "name": "",
          "type": "uint256"
        }
      ],
      "stateMutability": "nonpayable",
      "type": "function"
    },
    {
      "inputs": [],
      "name": "name",
      "outputs": [
        {
          "internalType": "string",
          "name": "",
          "type": "string"
        }
      ],
      "stateMutability": "view",
      "type": "function"
    },
    {
      "inputs": [
        {
          "internalType": "uint256",
          "name": "assets",
          "type": "uint256"
        }
      ],
      "name": "previewDeposit",
      "outputs": [
        {
          "internalType": "uint256",
          "name": "",
          "type": "uint256"
        }
      ],
      "stateMutability": "view",
      "type": "function"
    },
    {
      "inputs": [
        {
          "internalType": "uint256",
          "name": "shares",
          "type": "uint256"
        }
      ],
      "name": "previewMint",
      "outputs": [
        {
          "internalType": "uint256",
          "name": "",
          "type": "uint256"
        }
      ],
      "stateMutability": "view",
      "type": "function"
    },
    {
      "inputs": [
        {
          "internalType": "uint256",
          "name": "shares",
          "type": "uint256"
        }
      ],
      "name": "previewRedeem",
      "outputs": [
        {
          "internalType": "uint256",
          "name": "",
          "type": "uint256"
        }
      ],
      "stateMutability": "view",
      "type": "function"
    },
    {
      "inputs": [
        {
          "internalType": "uint256",
          "name": "assets",
          "type": "uint256"
        }
      ],
      "name": "previewWithdraw",
      "outputs": [
        {
          "internalType": "uint256",
          "name": "",
          "type": "uint256"
        }
      ],
      "stateMutability": "view",
      "type": "function"
    },
    {
      "inputs": [
        {
          "internalType": "uint256",
          "name": "shares",
          "type": "uint256"
        },
        {
          "internalType": "address",
          "name": "receiver",
          "type": "address"
        },
        {
          "internalType": "address",
          "name": "owner",
          "type": "address"
        }
      ],
      "name": "redeem",
      "outputs": [
        {
          "internalType": "uint256",
          "name": "",
          "type": "uint256"
        }
      ],
      "stateMutability": "nonpayable",
      "type": "function"
    },
    {
      "inputs": [],
      "name": "symbol",
      "outputs": [
        {
          "internalType": "string",
          "name": "",
          "type": "string"
        }
      ],
      "stateMutability": "view",
      "type": "function"
    },
    {
      "inputs": [],
      "name": "totalAssets",
      "outputs": [
        {
          "internalType": "uint256",
          "name": "",
          "type": "uint256"
        }
      ],
      "stateMutability": "view",
      "type": "function"
    },
    {
      "inputs": [],
      "name": "totalSupply",
      "outputs": [
        {
          "internalType": "uint256",
          "name": "",
          "type": "uint256"
        }
      ],
      "stateMutability": "view",
      "type": "function"
    },
    {
      "inputs": [
        {
          "internalType": "address",
          "name": "to",
          "type": "address"
        },
        {
          "internalType": "uint256",
          "name": "value",
          "type": "uint256"
        }
      ],
      "name": "transfer",
      "outputs": [
        {
          "internalType": "bool",
          "name": "",
          "type": "bool"
        }
      ],
      "stateMutability": "nonpayable",
      "type": "function"
    },
    {
      "inputs": [
        {
          "internalType": "address",
          "name": "from",
          "type": "address"
        },
        {
          "internalType": "address",
          "name": "to",
          "type": "address"
        },
        {
          "internalType": "uint256",
          "name": "value",
          "type": "uint256"
        }
      ],
      "name": "transferFrom",
      "outputs": [
        {
          "internalType": "bool",
          "name": "",
          "type": "bool"
        }
      ],
      "stateMutability": "nonpayable",
      "type": "function"
    },
    {
      "inputs": [
        {
          "internalType": "uint256",
          "name": "assets",
          "type": "uint256"
        },
        {
          "internalType": "address",
          "name": "receiver",
          "type": "address"
        },
        {
          "internalType": "address",
          "name": "owner",
          "type": "address"
        }
      ],
      "name": "withdraw",
      "outputs": [
        {
          "internalType": "uint256",
          "name": "",
          "type": "uint256"
        }
      ],
      "stateMutability": "nonpayable",
      "type": "function"
    },
    {
      "stateMutability": "payable",
      "type": "receive"
    }
  ],
  "bytecode": "0x60c060405260405162001bfe38038062001bfe833981016040819052620000269162000244565b808383600362000037838262000355565b50600462000046828262000355565b5050505f806200005c836200009f60201b60201c565b91509150816200006e57601262000070565b805b60ff1660a05250506001600160a01b0316608052505068056bc75e2d6310000060058190556006555062000456565b60408051600481526024810182526020810180516001600160e01b031663313ce56760e01b17905290515f918291829182916001600160a01b03871691620000e79162000421565b5f60405180830381855afa9150503d805f811462000121576040519150601f19603f3d011682016040523d82523d5f602084013e62000126565b606091505b50915091508180156200013b57506020815110155b1562000172575f818060200190518101906200015891906200043e565b905060ff811162000170576001969095509350505050565b505b505f9485945092505050565b634e487b7160e01b5f52604160045260245ffd5b5f5b83811015620001ae57818101518382015260200162000194565b50505f910152565b5f82601f830112620001c6575f80fd5b81516001600160401b0380821115620001e357620001e36200017e565b604051601f8301601f19908116603f011681019082821181831017156200020e576200020e6200017e565b8160405283815286602085880101111562000227575f80fd5b6200023a84602083016020890162000192565b9695505050505050565b5f805f6060848603121562000257575f80fd5b83516001600160401b03808211156200026e575f80fd5b6200027c87838801620001b6565b9450602086015191508082111562000292575f80fd5b50620002a186828701620001b6565b604086015190935090506001600160a01b0381168114620002c0575f80fd5b809150509250925092565b600181811c90821680620002e057607f821691505b602082108103620002ff57634e487b7160e01b5f52602260045260245ffd5b50919050565b601f8211156200035057805f5260205f20601f840160051c810160208510156200032c5750805b601f840160051c820191505b818110156200034d575f815560010162000338565b50505b505050565b81516001600160401b038111156200037157620003716200017e565b6200038981620003828454620002cb565b8462000305565b602080601f831160018114620003bf575f8415620003a75750858301515b5f19600386901b1c1916600185901b17855562000419565b5f85815260208120601f198616915b82811015620003ef57888601518255948401946001909101908401620003ce565b50858210156200040d57878501515f19600388901b60f8161c191681555b505060018460011b0185555b505050505050565b5f82516200043481846020870162000192565b9190910192915050565b5f602082840312156200044f575f80fd5b5051919050565b60805160a0516117716200048d5f395f61090801525f81816103fe0152818161078c01528181610ecb0152610f7d01526117715ff3fe608060405260043610610257575f3560e01c80638b4e914a1161013f578063c6e6f592116100b3578063d905777e11610078578063d905777e146106d6578063dd62ed3e146106f5578063e047838d14610739578063ef4f78d114610758578063ef8b30f714610646578063efb43b071461076a575f80fd5b8063c6e6f59214610646578063ca10eca014610665578063cc461d6214610684578063ce18d3ff146106a3578063ce96cb77146106b7575f80fd5b8063b2331d7d11610104578063b2331d7d14610595578063b3d7f6b9146105b4578063b460af94146105d3578063ba087652146105f2578063c63d75b614610611578063c6b3d64814610632575f80fd5b80638b4e914a1461050557806394bf804d1461052457806395d89b41146105435780639c0b90c714610557578063a9059cbb14610576575f80fd5b806332cadf3c116101d657806367354a841161019b57806367354a84146104435780636855a178146104555780636e553f651461047457806370a082311461049357806383b95579146104c7578063861e3d3d146104e6575f80fd5b806332cadf3c146103b7578063342db739146103cb57806338d52e0f146103f0578063402d267d146104225780634cdad506146102aa575f80fd5b806318160ddd1161021c57806318160ddd1461031757806323b872dd1461032b5780632904df291461034a578063313ce5671461037057806332bc74aa14610396575f80fd5b806301e1d1141461026257806306fdde031461028957806307a2d13a146102aa578063095ea7b3146102c95780630a28a477146102f8575f80fd5b3661025e57005b5f80fd5b34801561026d575f80fd5b50610276610789565b6040519081526020015b60405180910390f35b348015610294575f80fd5b5061029d610818565b60405161028091906112ee565b3480156102b5575f80fd5b506102766102c4366004611300565b6108a8565b3480156102d4575f80fd5b506102e86102e3366004611332565b6108b9565b6040519015158152602001610280565b348015610303575f80fd5b50610276610312366004611300565b6108d0565b348015610322575f80fd5b50600254610276565b348015610336575f80fd5b506102e861034536600461135a565b6108dc565b348015610355575f80fd5b50335b6040516001600160a01b039091168152602001610280565b34801561037b575f80fd5b50610384610901565b60405160ff9091168152602001610280565b3480156103a1575f80fd5b506103b56103b0366004611393565b61092c565b005b3480156103c2575f80fd5b5061029d61093e565b3480156103d6575f80fd5b506102766e1a185c991a185d0b595e1c1bdcd959608a1b81565b3480156103fb575f80fd5b507f0000000000000000000000000000000000000000000000000000000000000000610358565b34801561042d575f80fd5b5061027661043c3660046113e3565b5060055490565b34801561044e575f80fd5b505f610276565b348015610460575f80fd5b506103b561046f36600461135a565b61097b565b34801561047f575f80fd5b5061027661048e3660046113fc565b61098b565b34801561049e575f80fd5b506102766104ad3660046113e3565b6001600160a01b03165f9081526020819052604090205490565b3480156104d2575f80fd5b506103b56104e1366004611426565b6109e8565b3480156104f1575f80fd5b506103b561050036600461135a565b6109fc565b348015610510575f80fd5b5061027661051f366004611477565b610a07565b34801561052f575f80fd5b5061027661053e3660046113fc565b610a12565b34801561054e575f80fd5b5061029d610a5e565b348015610562575f80fd5b506103b56105713660046114a8565b610a6d565b348015610581575f80fd5b506102e8610590366004611332565b610a79565b3480156105a0575f80fd5b506103b56105af36600461135a565b610a86565b3480156105bf575f80fd5b506102766105ce366004611300565b610a91565b3480156105de575f80fd5b506102766105ed3660046114e7565b610a9d565b3480156105fd575f80fd5b5061027661060c3660046114e7565b610af3565b34801561061c575f80fd5b5061027661062b3660046113e3565b5060065490565b34801561063d575f80fd5b50600654610276565b348015610651575f80fd5b50610276610660366004611300565b610b40565b348015610670575f80fd5b5061027661067f366004611477565b610b4b565b34801561068f575f80fd5b506103b561069e366004611332565b610b56565b3480156106ae575f80fd5b50600554610276565b3480156106c2575f80fd5b506102766106d13660046113e3565b610b64565b3480156106e1575f80fd5b506102766106f03660046113e3565b610b86565b348015610700575f80fd5b5061027661070f366004611520565b6001600160a01b039182165f90815260016020908152604080832093909416825291909152205490565b348015610744575f80fd5b506103b5610753366004611332565b610ba3565b348015610763575f80fd5b505f610384565b348015610775575f80fd5b506103b561078436600461135a565b610bad565b5f7f00000000000000000000000000000000000000000000000000000000000000006040516370a0823160e01b81523060048201526001600160a01b0391909116906370a0823190602401602060405180830381865afa1580156107ef573d5f803e3d5ffd5b505050506040513d601f19601f820116820180604052508101906108139190611548565b905090565b6060600380546108279061155f565b80601f01602080910402602001604051908101604052809291908181526020018280546108539061155f565b801561089e5780601f106108755761010080835404028352916020019161089e565b820191905f5260205f20905b81548152906001019060200180831161088157829003601f168201915b5050505050905090565b5f6108b3825f610bb8565b92915050565b5f336108c6818585610bf0565b5060019392505050565b5f6108b3826001610bfd565b5f336108e9858285610c2c565b6108f4858585610c8f565b60019150505b9392505050565b5f610813817f00000000000000000000000000000000000000000000000000000000000000006115ab565b61093884848484610ce1565b50505050565b60605f368080601f0160208091040260200160405190810160405280939291908181526020018383808284375f9201919091525092949350505050565b610986838383610db3565b505050565b5f8061099660055490565b9050808411156109c857828482604051633c8097d960e11b81526004016109bf939291906115c4565b60405180910390fd5b5f6109d285610b40565b90506109e033858784610ec6565b949350505050565b6109f58585858585610f4a565b5050505050565b610986838383610bf0565b5f6108fa8383610bfd565b5f80610a1d60065490565b905080841115610a465782848260405163284ff66760e01b81526004016109bf939291906115c4565b5f610a5085610a91565b90506109e033858388610ec6565b6060600480546108279061155f565b61093884848484610ec6565b5f336108c6818585610c8f565b610986838383610c2c565b5f6108b3826001610bb8565b5f80610aa883610b64565b905080851115610ad157828582604051633fa733bb60e21b81526004016109bf939291906115c4565b5f610adb866108d0565b9050610aea3386868985610f4a565b95945050505050565b5f80610afe83610b86565b905080851115610b2757828582604051632e52afbb60e21b81526004016109bf939291906115c4565b5f610b31866108a8565b9050610aea338686848a610f4a565b5f6108b3825f610bfd565b5f6108fa8383610bb8565b610b60828261100a565b5050565b6001600160a01b0381165f908152602081905260408120546108b3905f610bb8565b6001600160a01b0381165f908152602081905260408120546108b3565b610b60828261103e565b610986838383610c8f565b5f6108fa610bc4610789565b610bcf9060016115e5565b610bda5f600a6116d8565b600254610be791906115e5565b85919085611072565b6109868383836001610ce1565b5f6108fa610c0c82600a6116d8565b600254610c1991906115e5565b610c21610789565b610be79060016115e5565b6001600160a01b038381165f908152600160209081526040808320938616835292905220545f198110156109385781811015610c8157828183604051637dc7a0d960e11b81526004016109bf939291906115c4565b61093884848484035f610ce1565b6001600160a01b038316610cb857604051634b637e8f60e11b81525f60048201526024016109bf565b6001600160a01b03821661097b5760405163ec442f0560e01b81525f60048201526024016109bf565b6001600160a01b038416610d0a5760405163e602df0560e01b81525f60048201526024016109bf565b6001600160a01b038316610d3357604051634a1406b160e11b81525f60048201526024016109bf565b6001600160a01b038085165f908152600160209081526040808320938716835292905220829055801561093857826001600160a01b0316846001600160a01b03167f8c5be1e5ebec7d5bd14f71427d1e84f3dd0314c0f7b2291e5b200ac8c7c3b92584604051610da591815260200190565b60405180910390a350505050565b6001600160a01b038316610ddd578060025f828254610dd291906115e5565b90915550610e3a9050565b6001600160a01b0383165f9081526020819052604090205481811015610e1c5783818360405163391434e360e21b81526004016109bf939291906115c4565b6001600160a01b0384165f9081526020819052604090209082900390555b6001600160a01b038216610e5657600280548290039055610e74565b6001600160a01b0382165f9081526020819052604090208054820190555b816001600160a01b0316836001600160a01b03167fddf252ad1be2c89b69c2b068fc378daa952ba7f163c4a11628f55a4df523b3ef83604051610eb991815260200190565b60405180910390a3505050565b610ef27f00000000000000000000000000000000000000000000000000000000000000008530856110b4565b610efc838261100a565b826001600160a01b0316846001600160a01b03167fdcbc1c05240f31ff3ad067ef1ee35ce4997762752e3a095284754544f4c709d78484604051610da5929190918252602082015260400190565b826001600160a01b0316856001600160a01b031614610f6e57610f6e838683610c2c565b610f78838261103e565b610fa37f0000000000000000000000000000000000000000000000000000000000000000858461111b565b826001600160a01b0316846001600160a01b0316866001600160a01b03167ffbde797d201c681b91056529119e0b02407c7bb96a4a2c75c01fc9667232c8db8585604051610ffb929190918252602082015260400190565b60405180910390a45050505050565b6001600160a01b0382166110335760405163ec442f0560e01b81525f60048201526024016109bf565b610b605f8383610db3565b6001600160a01b03821661106757604051634b637e8f60e11b81525f60048201526024016109bf565b610b60825f83610db3565b5f61109f61107f8361114c565b801561109a57505f8480611095576110956116e6565b868809115b151590565b6110aa868686611178565b610aea91906115e5565b6040516001600160a01b0384811660248301528381166044830152606482018390526109389186918216906323b872dd906084015b604051602081830303815290604052915060e01b6020820180516001600160e01b03838183161783525050505061122e565b6040516001600160a01b0383811660248301526044820183905261098691859182169063a9059cbb906064016110e9565b5f6002826003811115611161576111616116fa565b61116b919061170e565b60ff166001149050919050565b5f838302815f1985870982811083820303915050805f036111ac578382816111a2576111a26116e6565b04925050506108fa565b8084116111c3576111c3600385150260111861129a565b5f848688095f868103871696879004966002600389028118808a02820302808a02820302808a02820302808a02820302808a02820302808a02909103029181900381900460010186841190950394909402919094039290920491909117919091029150509392505050565b5f8060205f8451602086015f885af18061124d576040513d5f823e3d81fd5b50505f513d91508115611264578060011415611271565b6001600160a01b0384163b155b1561093857604051635274afe760e01b81526001600160a01b03851660048201526024016109bf565b634e487b715f52806020526024601cfd5b5f81518084525f5b818110156112cf576020818501810151868301820152016112b3565b505f602082860101526020601f19601f83011685010191505092915050565b602081525f6108fa60208301846112ab565b5f60208284031215611310575f80fd5b5035919050565b80356001600160a01b038116811461132d575f80fd5b919050565b5f8060408385031215611343575f80fd5b61134c83611317565b946020939093013593505050565b5f805f6060848603121561136c575f80fd5b61137584611317565b925061138360208501611317565b9150604084013590509250925092565b5f805f80608085870312156113a6575f80fd5b6113af85611317565b93506113bd60208601611317565b925060408501359150606085013580151581146113d8575f80fd5b939692955090935050565b5f602082840312156113f3575f80fd5b6108fa82611317565b5f806040838503121561140d575f80fd5b8235915061141d60208401611317565b90509250929050565b5f805f805f60a0868803121561143a575f80fd5b61144386611317565b945061145160208701611317565b935061145f60408701611317565b94979396509394606081013594506080013592915050565b5f8060408385031215611488575f80fd5b8235915060208301356004811061149d575f80fd5b809150509250929050565b5f805f80608085870312156114bb575f80fd5b6114c485611317565b93506114d260208601611317565b93969395505050506040820135916060013590565b5f805f606084860312156114f9575f80fd5b8335925061150960208501611317565b915061151760408501611317565b90509250925092565b5f8060408385031215611531575f80fd5b61153a83611317565b915061141d60208401611317565b5f60208284031215611558575f80fd5b5051919050565b600181811c9082168061157357607f821691505b60208210810361159157634e487b7160e01b5f52602260045260245ffd5b50919050565b634e487b7160e01b5f52601160045260245ffd5b60ff81811683821601908111156108b3576108b3611597565b6001600160a01b039390931683526020830191909152604082015260600190565b808201808211156108b3576108b3611597565b600181815b8085111561163257815f190482111561161857611618611597565b8085161561162557918102915b93841c93908002906115fd565b509250929050565b5f82611648575060016108b3565b8161165457505f6108b3565b816001811461166a576002811461167457611690565b60019150506108b3565b60ff84111561168557611685611597565b50506001821b6108b3565b5060208310610133831016604e8410600b84101617156116b3575081810a6108b3565b6116bd83836115f8565b805f19048211156116d0576116d0611597565b029392505050565b5f6108fa60ff84168361163a565b634e487b7160e01b5f52601260045260245ffd5b634e487b7160e01b5f52602160045260245ffd5b5f60ff83168061172c57634e487b7160e01b5f52601260045260245ffd5b8060ff8416069150509291505056fea2646970667358221220bfee3acd38fe3e531130a1ae0c4b04fd879bb02a40c3ce0bdd83fea4998d34b564736f6c63430008180033",
  "linkReferences": {},
  "deployedLinkReferences": {}
}