{
  "_format": "hh-sol-artifact-1",
  "contractName": "$TimelockReentrant",
  "sourceName": "contracts-exposed/mocks/TimelockReentrant.sol",
  "abi": [
    {
      "inputs": [],
      "stateMutability": "payable",
      "type": "constructor"
    },
    {
      "inputs": [
        {
          "internalType": "address",
          "name": "target",
          "type": "address"
        }
      ],
      "name": "AddressEmptyCode",
      "type": "error"
    },
    {
      "inputs": [],
      "name": "FailedCall",
      "type": "error"
    },
    {
      "inputs": [
        {
          "internalType": "uint256",
          "name": "balance",
          "type": "uint256"
        },
        {
          "internalType": "uint256",
          "name": "needed",
          "type": "uint256"
        }
      ],
      "name": "InsufficientBalance",
      "type": "error"
    },
    {
      "inputs": [],
      "name": "$_reentered",
      "outputs": [
        {
          "internalType": "bool",
          "name": "",
          "type": "bool"
        }
      ],
      "stateMutability": "view",
      "type": "function"
    },
    {
      "inputs": [],
      "name": "__hh_exposed_bytecode_marker",
      "outputs": [
        {
          "internalType": "bytes32",
          "name": "",
          "type": "bytes32"
        }
      ],
      "stateMutability": "view",
      "type": "function"
    },
    {
      "inputs": [],
      "name": "disableReentrancy",
      "outputs": [],
      "stateMutability": "nonpayable",
      "type": "function"
    },
    {
      "inputs": [
        {
          "internalType": "address",
          "name": "target",
          "type": "address"
        },
        {
          "internalType": "bytes",
          "name": "data",
          "type": "bytes"
        }
      ],
      "name": "enableRentrancy",
      "outputs": [],
      "stateMutability": "nonpayable",
      "type": "function"
    },
    {
      "inputs": [],
      "name": "reenter",
      "outputs": [],
      "stateMutability": "nonpayable",
      "type": "function"
    },
    {
      "stateMutability": "payable",
      "type": "receive"
    }
  ],
  "bytecode": "0x6080604052610569806100115f395ff3fe60806040526004361061004c575f3560e01c8063342db739146100575780633654421b1461008f57806360a7a272146100b0578063a0fe97e3146100d2578063cc23fb1c146100e6575f80fd5b3661005357005b5f80fd5b348015610062575f80fd5b5061007c6e1a185c991a185d0b595e1c1bdcd959608a1b81565b6040519081526020015b60405180910390f35b34801561009a575f80fd5b506100ae6100a936600461032c565b610104565b005b3480156100bb575f80fd5b5060025460ff166040519015158152602001610086565b3480156100dd575f80fd5b506100ae610131565b3480156100f1575f80fd5b506100ae6002805460ff19166001179055565b5f80546001600160a01b0319166001600160a01b038516179055600161012b82848361044d565b50505050565b60025460ff166101ec576002805460ff191660019081179091555f5481546101ea926001600160a01b039092169190610169906103c9565b80601f0160208091040260200160405190810160405280929190818152602001828054610195906103c9565b80156101e05780601f106101b7576101008083540402835291602001916101e0565b820191905f5260205f20905b8154815290600101906020018083116101c357829003601f168201915b50505050506101ee565b505b565b60606101fb83835f610202565b9392505050565b6060814710156102335760405163cf47918160e01b8152476004820152602481018390526044015b60405180910390fd5b5f80856001600160a01b0316848660405161024e9190610507565b5f6040518083038185875af1925050503d805f8114610288576040519150601f19603f3d011682016040523d82523d5f602084013e61028d565b606091505b509150915061029d8683836102a7565b9695505050505050565b6060826102bc576102b782610303565b6101fb565b81511580156102d357506001600160a01b0384163b155b156102fc57604051639996b31560e01b81526001600160a01b038516600482015260240161022a565b50806101fb565b8051156103135780518082602001fd5b60405163d6bda27560e01b815260040160405180910390fd5b5f805f6040848603121561033e575f80fd5b83356001600160a01b0381168114610354575f80fd5b9250602084013567ffffffffffffffff80821115610370575f80fd5b818601915086601f830112610383575f80fd5b813581811115610391575f80fd5b8760208285010111156103a2575f80fd5b6020830194508093505050509250925092565b634e487b7160e01b5f52604160045260245ffd5b600181811c908216806103dd57607f821691505b6020821081036103fb57634e487b7160e01b5f52602260045260245ffd5b50919050565b601f82111561044857805f5260205f20601f840160051c810160208510156104265750805b601f840160051c820191505b81811015610445575f8155600101610432565b50505b505050565b67ffffffffffffffff831115610465576104656103b5565b6104798361047383546103c9565b83610401565b5f601f8411600181146104aa575f85156104935750838201355b5f19600387901b1c1916600186901b178355610445565b5f83815260208120601f198716915b828110156104d957868501358255602094850194600190920191016104b9565b50868210156104f5575f1960f88860031b161c19848701351681555b505060018560011b0183555050505050565b5f82515f5b81811015610526576020818601810151858301520161050c565b505f92019182525091905056fea264697066735822122080a9e4f86ba1f4c0ceaec137423d41f50ae34b64827ddcc8e71fad7d1a17d92f64736f6c63430008180033",
  "linkReferences": {},
  "deployedLinkReferences": {}
}