{
  "_format": "hh-sol-artifact-1",
  "contractName": "$ChildConstructorInitializableMock",
  "sourceName": "contracts-exposed/mocks/InitializableMock.sol",
  "abi": [
    {
      "inputs": [],
      "stateMutability": "payable",
      "type": "constructor"
    },
    {
      "inputs": [],
      "name": "InvalidInitialization",
      "type": "error"
    },
    {
      "inputs": [],
      "name": "NotInitializing",
      "type": "error"
    },
    {
      "anonymous": false,
      "inputs": [
        {
          "indexed": false,
          "internalType": "uint64",
          "name": "version",
          "type": "uint64"
        }
      ],
      "name": "Initialized",
      "type": "event"
    },
    {
      "inputs": [],
      "name": "$_checkInitializing",
      "outputs": [],
      "stateMutability": "view",
      "type": "function"
    },
    {
      "inputs": [],
      "name": "$_disableInitializers",
      "outputs": [],
      "stateMutability": "nonpayable",
      "type": "function"
    },
    {
      "inputs": [],
      "name": "$_getInitializedVersion",
      "outputs": [
        {
          "internalType": "uint64",
          "name": "ret0",
          "type": "uint64"
        }
      ],
      "stateMutability": "view",
      "type": "function"
    },
    {
      "inputs": [],
      "name": "$_isInitializing",
      "outputs": [
        {
          "internalType": "bool",
          "name": "ret0",
          "type": "bool"
        }
      ],
      "stateMutability": "view",
      "type": "function"
    },
    {
      "inputs": [],
      "name": "__hh_exposed_bytecode_marker",
      "outputs": [
        {
          "internalType": "bytes32",
          "name": "",
          "type": "bytes32"
        }
      ],
      "stateMutability": "view",
      "type": "function"
    },
    {
      "inputs": [],
      "name": "childInitialize",
      "outputs": [],
      "stateMutability": "nonpayable",
      "type": "function"
    },
    {
      "inputs": [],
      "name": "childInitializerRan",
      "outputs": [
        {
          "internalType": "bool",
          "name": "",
          "type": "bool"
        }
      ],
      "stateMutability": "view",
      "type": "function"
    },
    {
      "inputs": [],
      "name": "initialize",
      "outputs": [],
      "stateMutability": "nonpayable",
      "type": "function"
    },
    {
      "inputs": [],
      "name": "initializeOnlyInitializing",
      "outputs": [],
      "stateMutability": "nonpayable",
      "type": "function"
    },
    {
      "inputs": [],
      "name": "initializerRan",
      "outputs": [
        {
          "internalType": "bool",
          "name": "",
          "type": "bool"
        }
      ],
      "stateMutability": "view",
      "type": "function"
    },
    {
      "inputs": [],
      "name": "onlyInitializingRan",
      "outputs": [
        {
          "internalType": "bool",
          "name": "",
          "type": "bool"
        }
      ],
      "stateMutability": "view",
      "type": "function"
    },
    {
      "stateMutability": "payable",
      "type": "receive"
    }
  ],
  "bytecode": "0x60806040525f805160206109c2833981519152805468010000000000000000810460ff1615906001600160401b03165f8115801561003a5750825b90505f826001600160401b031660011480156100555750303b155b905081158015610063575080155b156100815760405163f92ee8a960e01b815260040160405180910390fd5b84546001600160401b031916600117855583156100af57845460ff60401b1916680100000000000000001785555b6100b76101fc565b6100bf6102ee565b83156100f257845460ff60401b19168555604051600181525f805160206109a28339815191529060200160405180910390a15b50505050505f6101066101eb60201b60201c565b805490915060ff6801000000000000000082041615906001600160401b03165f811580156101315750825b90505f826001600160401b0316600114801561014c5750303b155b90508115801561015a575080155b156101785760405163f92ee8a960e01b815260040160405180910390fd5b84546001600160401b031916600117855583156101a657845460ff60401b1916680100000000000000001785555b6101ae610306565b83156101e157845460ff60401b19168555604051600181525f805160206109a28339815191529060200160405180910390a15b505050505061042d565b5f805160206109c283398151915290565b5f805160206109c2833981519152805468010000000000000000810460ff1615906001600160401b03165f811580156102325750825b90505f826001600160401b0316600114801561024d5750303b155b90508115801561025b575080155b156102795760405163f92ee8a960e01b815260040160405180910390fd5b84546001600160401b031916600117855583156102a757845460ff60401b1916680100000000000000001785555b5f805460ff1916600117905583156102e757845460ff60401b19168555604051600181525f805160206109a2833981519152906020015b60405180910390a15b5050505050565b6102f66103f0565b5f805461ff001916610100179055565b5f805160206109c2833981519152805468010000000000000000810460ff1615906001600160401b03165f8115801561033c5750825b90505f826001600160401b031660011480156103575750303b155b905081158015610365575080155b156103835760405163f92ee8a960e01b815260040160405180910390fd5b84546001600160401b031916600117855583156103b157845460ff60401b1916680100000000000000001785555b5f805462ff000019166201000017905583156102e757845460ff60401b19168555604051600181525f805160206109a2833981519152906020016102de565b5f805160206109c28339815191525468010000000000000000900460ff1661042b57604051631afcd79f60e31b815260040160405180910390fd5b565b6105688061043a5f395ff3fe60806040526004361061009d575f3560e01c8063b23d810b11610062578063b23d810b14610164578063c3b8ef2a14610182578063c9eb05711461019a578063de74c703146101c4578063f5f1bec0146101d8578063fa171c92146101ec575f80fd5b806310065ed2146100a8578063342db739146100be5780634fd5303d146100f65780637cffe97a146101235780638129fc1c14610150575f80fd5b366100a457005b5f80fd5b3480156100b3575f80fd5b506100bc610200565b005b3480156100c9575f80fd5b506100e36e1a185c991a185d0b595e1c1bdcd959608a1b81565b6040519081526020015b60405180910390f35b348015610101575f80fd5b5061010a610218565b60405167ffffffffffffffff90911681526020016100ed565b34801561012e575f80fd5b505f5461014090610100900460ff1681565b60405190151581526020016100ed565b34801561015b575f80fd5b506100bc61023d565b34801561016f575f80fd5b505f546101409062010000900460ff1681565b34801561018d575f80fd5b505f546101409060ff1681565b3480156101a5575f80fd5b505f8051602061051383398151915254600160401b900460ff16610140565b3480156101cf575f80fd5b506100bc61033b565b3480156101e3575f80fd5b506100bc610431565b3480156101f7575f80fd5b506100bc61043b565b61020861043f565b5f805461ff001916610100179055565b5f6102385f805160206105138339815191525467ffffffffffffffff1690565b905090565b5f805160206105138339815191528054600160401b810460ff16159067ffffffffffffffff165f8115801561026f5750825b90505f8267ffffffffffffffff16600114801561028b5750303b155b905081158015610299575080155b156102b75760405163f92ee8a960e01b815260040160405180910390fd5b845467ffffffffffffffff1916600117855583156102e157845460ff60401b1916600160401b1785555b5f805460ff19166001179055831561033457845460ff60401b19168555604051600181527fc7f505b2f371ae2175ee4913f4499e1f2633a7b5936321eed1cdaeb6115181d2906020015b60405180910390a15b5050505050565b5f805160206105138339815191528054600160401b810460ff16159067ffffffffffffffff165f8115801561036d5750825b90505f8267ffffffffffffffff1660011480156103895750303b155b905081158015610397575080155b156103b55760405163f92ee8a960e01b815260040160405180910390fd5b845467ffffffffffffffff1916600117855583156103df57845460ff60401b1916600160401b1785555b5f805462ff0000191662010000179055831561033457845460ff60401b19168555604051600181527fc7f505b2f371ae2175ee4913f4499e1f2633a7b5936321eed1cdaeb6115181d29060200161032b565b610439610475565b565b6104395b5f8051602061051383398151915254600160401b900460ff1661043957604051631afcd79f60e31b815260040160405180910390fd5b5f805160206105138339815191528054600160401b900460ff16156104ad5760405163f92ee8a960e01b815260040160405180910390fd5b805467ffffffffffffffff9081161461050f57805467ffffffffffffffff191667ffffffffffffffff90811782556040519081527fc7f505b2f371ae2175ee4913f4499e1f2633a7b5936321eed1cdaeb6115181d29060200160405180910390a15b5056fef0c57e16840df040f15088dc2f81fe391c3923bec73e23a9662efc9c229c6a00a26469706673582212202fb6401a3b29e5650743d8d8ea3576aaac5e7684da8118b511153693566a81f364736f6c63430008180033c7f505b2f371ae2175ee4913f4499e1f2633a7b5936321eed1cdaeb6115181d2f0c57e16840df040f15088dc2f81fe391c3923bec73e23a9662efc9c229c6a00",
  "linkReferences": {},
  "deployedLinkReferences": {}
}