{
  "_format": "hh-sol-artifact-1",
  "contractName": "$ConstructorInitializableMock",
  "sourceName": "contracts-exposed/mocks/InitializableMock.sol",
  "abi": [
    {
      "inputs": [],
      "stateMutability": "payable",
      "type": "constructor"
    },
    {
      "inputs": [],
      "name": "InvalidInitialization",
      "type": "error"
    },
    {
      "inputs": [],
      "name": "NotInitializing",
      "type": "error"
    },
    {
      "anonymous": false,
      "inputs": [
        {
          "indexed": false,
          "internalType": "uint64",
          "name": "version",
          "type": "uint64"
        }
      ],
      "name": "Initialized",
      "type": "event"
    },
    {
      "inputs": [],
      "name": "$_checkInitializing",
      "outputs": [],
      "stateMutability": "view",
      "type": "function"
    },
    {
      "inputs": [],
      "name": "$_disableInitializers",
      "outputs": [],
      "stateMutability": "nonpayable",
      "type": "function"
    },
    {
      "inputs": [],
      "name": "$_getInitializedVersion",
      "outputs": [
        {
          "internalType": "uint64",
          "name": "ret0",
          "type": "uint64"
        }
      ],
      "stateMutability": "view",
      "type": "function"
    },
    {
      "inputs": [],
      "name": "$_isInitializing",
      "outputs": [
        {
          "internalType": "bool",
          "name": "ret0",
          "type": "bool"
        }
      ],
      "stateMutability": "view",
      "type": "function"
    },
    {
      "inputs": [],
      "name": "__hh_exposed_bytecode_marker",
      "outputs": [
        {
          "internalType": "bytes32",
          "name": "",
          "type": "bytes32"
        }
      ],
      "stateMutability": "view",
      "type": "function"
    },
    {
      "inputs": [],
      "name": "initialize",
      "outputs": [],
      "stateMutability": "nonpayable",
      "type": "function"
    },
    {
      "inputs": [],
      "name": "initializeOnlyInitializing",
      "outputs": [],
      "stateMutability": "nonpayable",
      "type": "function"
    },
    {
      "inputs": [],
      "name": "initializerRan",
      "outputs": [
        {
          "internalType": "bool",
          "name": "",
          "type": "bool"
        }
      ],
      "stateMutability": "view",
      "type": "function"
    },
    {
      "inputs": [],
      "name": "onlyInitializingRan",
      "outputs": [
        {
          "internalType": "bool",
          "name": "",
          "type": "bool"
        }
      ],
      "stateMutability": "view",
      "type": "function"
    },
    {
      "stateMutability": "payable",
      "type": "receive"
    }
  ],
  "bytecode": "0x60806040525f80516020610698833981519152805468010000000000000000810460ff1615906001600160401b03165f8115801561003a5750825b90505f826001600160401b031660011480156100555750303b155b905081158015610063575080155b156100815760405163f92ee8a960e01b815260040160405180910390fd5b84546001600160401b031916600117855583156100af57845460ff60401b1916680100000000000000001785555b6100b76100fc565b6100bf6101ed565b83156100f257845460ff60401b19168555604051600181525f805160206106788339815191529060200160405180910390a15b5050505050610242565b5f80516020610698833981519152805468010000000000000000810460ff1615906001600160401b03165f811580156101325750825b90505f826001600160401b0316600114801561014d5750303b155b90508115801561015b575080155b156101795760405163f92ee8a960e01b815260040160405180910390fd5b84546001600160401b031916600117855583156101a757845460ff60401b1916680100000000000000001785555b5f805460ff1916600117905583156101e657845460ff60401b19168555604051600181525f805160206106788339815191529060200160405180910390a15b5050505050565b6101f5610205565b5f805461ff001916610100179055565b5f805160206106988339815191525468010000000000000000900460ff1661024057604051631afcd79f60e31b815260040160405180910390fd5b565b6104298061024f5f395ff3fe608060405260043610610087575f3560e01c80638129fc1c116100575780638129fc1c1461013a578063c3b8ef2a1461014e578063c9eb057114610166578063f5f1bec014610190578063fa171c92146101a4575f80fd5b806310065ed214610092578063342db739146100a85780634fd5303d146100e05780637cffe97a1461010d575f80fd5b3661008e57005b5f80fd5b34801561009d575f80fd5b506100a66101b8565b005b3480156100b3575f80fd5b506100cd6e1a185c991a185d0b595e1c1bdcd959608a1b81565b6040519081526020015b60405180910390f35b3480156100eb575f80fd5b506100f46101d0565b60405167ffffffffffffffff90911681526020016100d7565b348015610118575f80fd5b505f5461012a90610100900460ff1681565b60405190151581526020016100d7565b348015610145575f80fd5b506100a66101f5565b348015610159575f80fd5b505f5461012a9060ff1681565b348015610171575f80fd5b505f805160206103d483398151915254600160401b900460ff1661012a565b34801561019b575f80fd5b506100a66102f2565b3480156101af575f80fd5b506100a66102fc565b6101c0610300565b5f805461ff001916610100179055565b5f6101f05f805160206103d48339815191525467ffffffffffffffff1690565b905090565b5f805160206103d48339815191528054600160401b810460ff16159067ffffffffffffffff165f811580156102275750825b90505f8267ffffffffffffffff1660011480156102435750303b155b905081158015610251575080155b1561026f5760405163f92ee8a960e01b815260040160405180910390fd5b845467ffffffffffffffff19166001178555831561029957845460ff60401b1916600160401b1785555b5f805460ff1916600117905583156102eb57845460ff60401b19168555604051600181527fc7f505b2f371ae2175ee4913f4499e1f2633a7b5936321eed1cdaeb6115181d29060200160405180910390a15b5050505050565b6102fa610336565b565b6102fa5b5f805160206103d483398151915254600160401b900460ff166102fa57604051631afcd79f60e31b815260040160405180910390fd5b5f805160206103d48339815191528054600160401b900460ff161561036e5760405163f92ee8a960e01b815260040160405180910390fd5b805467ffffffffffffffff908116146103d057805467ffffffffffffffff191667ffffffffffffffff90811782556040519081527fc7f505b2f371ae2175ee4913f4499e1f2633a7b5936321eed1cdaeb6115181d29060200160405180910390a15b5056fef0c57e16840df040f15088dc2f81fe391c3923bec73e23a9662efc9c229c6a00a2646970667358221220c22d7c93d0a2cd1ba3df22ef6c64c76529d660e34cf1a09e5e3045ac359f44a064736f6c63430008180033c7f505b2f371ae2175ee4913f4499e1f2633a7b5936321eed1cdaeb6115181d2f0c57e16840df040f15088dc2f81fe391c3923bec73e23a9662efc9c229c6a00",
  "linkReferences": {},
  "deployedLinkReferences": {}
}