{
  "_format": "hh-sol-artifact-1",
  "contractName": "$DisableOk",
  "sourceName": "contracts-exposed/mocks/InitializableMock.sol",
  "abi": [
    {
      "inputs": [],
      "stateMutability": "payable",
      "type": "constructor"
    },
    {
      "inputs": [],
      "name": "InvalidInitialization",
      "type": "error"
    },
    {
      "inputs": [],
      "name": "NotInitializing",
      "type": "error"
    },
    {
      "anonymous": false,
      "inputs": [
        {
          "indexed": false,
          "internalType": "uint64",
          "name": "version",
          "type": "uint64"
        }
      ],
      "name": "Initialized",
      "type": "event"
    },
    {
      "inputs": [],
      "name": "$_checkInitializing",
      "outputs": [],
      "stateMutability": "view",
      "type": "function"
    },
    {
      "inputs": [],
      "name": "$_disableInitializers",
      "outputs": [],
      "stateMutability": "nonpayable",
      "type": "function"
    },
    {
      "inputs": [],
      "name": "$_getInitializedVersion",
      "outputs": [
        {
          "internalType": "uint64",
          "name": "ret0",
          "type": "uint64"
        }
      ],
      "stateMutability": "view",
      "type": "function"
    },
    {
      "inputs": [],
      "name": "$_isInitializing",
      "outputs": [
        {
          "internalType": "bool",
          "name": "ret0",
          "type": "bool"
        }
      ],
      "stateMutability": "view",
      "type": "function"
    },
    {
      "inputs": [],
      "name": "__hh_exposed_bytecode_marker",
      "outputs": [
        {
          "internalType": "bytes32",
          "name": "",
          "type": "bytes32"
        }
      ],
      "stateMutability": "view",
      "type": "function"
    },
    {
      "stateMutability": "payable",
      "type": "receive"
    }
  ],
  "bytecode": "0x60806040527ff0c57e16840df040f15088dc2f81fe391c3923bec73e23a9662efc9c229c6a00805468010000000000000000810460ff1615906001600160401b03165f8115801561004d5750825b90505f826001600160401b031660011480156100685750303b155b905081158015610076575080155b156100945760405163f92ee8a960e01b815260040160405180910390fd5b84546001600160401b031916600117855583156100c257845460ff60401b1916680100000000000000001785555b83156100f557845460ff60401b19168555604051600181525f805160206104348339815191529060200160405180910390a15b505050505061010861010d60201b60201c565b6101ac565b7ff0c57e16840df040f15088dc2f81fe391c3923bec73e23a9662efc9c229c6a00805468010000000000000000900460ff161561015d5760405163f92ee8a960e01b815260040160405180910390fd5b80546001600160401b03908116146101a95780546001600160401b0319166001600160401b0390811782556040519081525f805160206104348339815191529060200160405180910390a15b50565b61027b806101b95f395ff3fe60806040526004361061004c575f3560e01c8063342db739146100575780634fd5303d1461008f578063c9eb0571146100bc578063f5f1bec0146100f1578063fa171c9214610107575f80fd5b3661005357005b5f80fd5b348015610062575f80fd5b5061007c6e1a185c991a185d0b595e1c1bdcd959608a1b81565b6040519081526020015b60405180910390f35b34801561009a575f80fd5b506100a361011b565b60405167ffffffffffffffff9091168152602001610086565b3480156100c7575f80fd5b505f8051602061022683398151915254600160401b900460ff166040519015158152602001610086565b3480156100fc575f80fd5b50610105610140565b005b348015610112575f80fd5b5061010561014a565b5f61013b5f805160206102268339815191525467ffffffffffffffff1690565b905090565b610148610152565b565b6101486101ef565b5f805160206102268339815191528054600160401b900460ff161561018a5760405163f92ee8a960e01b815260040160405180910390fd5b805467ffffffffffffffff908116146101ec57805467ffffffffffffffff191667ffffffffffffffff90811782556040519081527fc7f505b2f371ae2175ee4913f4499e1f2633a7b5936321eed1cdaeb6115181d29060200160405180910390a15b50565b5f8051602061022683398151915254600160401b900460ff1661014857604051631afcd79f60e31b815260040160405180910390fdfef0c57e16840df040f15088dc2f81fe391c3923bec73e23a9662efc9c229c6a00a26469706673582212207524872321c747c3643131dbf8707818a73fa5d4c6edd3e0316895e346557bac64736f6c63430008180033c7f505b2f371ae2175ee4913f4499e1f2633a7b5936321eed1cdaeb6115181d2",
  "linkReferences": {},
  "deployedLinkReferences": {}
}