{
  "_format": "hh-sol-artifact-1",
  "contractName": "$InitializableMock",
  "sourceName": "contracts-exposed/mocks/InitializableMock.sol",
  "abi": [
    {
      "inputs": [],
      "stateMutability": "payable",
      "type": "constructor"
    },
    {
      "inputs": [],
      "name": "InvalidInitialization",
      "type": "error"
    },
    {
      "inputs": [],
      "name": "NotInitializing",
      "type": "error"
    },
    {
      "anonymous": false,
      "inputs": [
        {
          "indexed": false,
          "internalType": "uint64",
          "name": "version",
          "type": "uint64"
        }
      ],
      "name": "Initialized",
      "type": "event"
    },
    {
      "inputs": [],
      "name": "$_checkInitializing",
      "outputs": [],
      "stateMutability": "view",
      "type": "function"
    },
    {
      "inputs": [],
      "name": "$_disableInitializers",
      "outputs": [],
      "stateMutability": "nonpayable",
      "type": "function"
    },
    {
      "inputs": [],
      "name": "$_getInitializedVersion",
      "outputs": [
        {
          "internalType": "uint64",
          "name": "ret0",
          "type": "uint64"
        }
      ],
      "stateMutability": "view",
      "type": "function"
    },
    {
      "inputs": [],
      "name": "$_isInitializing",
      "outputs": [
        {
          "internalType": "bool",
          "name": "ret0",
          "type": "bool"
        }
      ],
      "stateMutability": "view",
      "type": "function"
    },
    {
      "inputs": [],
      "name": "__hh_exposed_bytecode_marker",
      "outputs": [
        {
          "internalType": "bytes32",
          "name": "",
          "type": "bytes32"
        }
      ],
      "stateMutability": "view",
      "type": "function"
    },
    {
      "inputs": [],
      "name": "fail",
      "outputs": [],
      "stateMutability": "pure",
      "type": "function"
    },
    {
      "inputs": [],
      "name": "initialize",
      "outputs": [],
      "stateMutability": "nonpayable",
      "type": "function"
    },
    {
      "inputs": [],
      "name": "initializeOnlyInitializing",
      "outputs": [],
      "stateMutability": "nonpayable",
      "type": "function"
    },
    {
      "inputs": [
        {
          "internalType": "uint256",
          "name": "_x",
          "type": "uint256"
        }
      ],
      "name": "initializeWithX",
      "outputs": [],
      "stateMutability": "payable",
      "type": "function"
    },
    {
      "inputs": [],
      "name": "initializerNested",
      "outputs": [],
      "stateMutability": "nonpayable",
      "type": "function"
    },
    {
      "inputs": [],
      "name": "initializerRan",
      "outputs": [
        {
          "internalType": "bool",
          "name": "",
          "type": "bool"
        }
      ],
      "stateMutability": "view",
      "type": "function"
    },
    {
      "inputs": [],
      "name": "isInitializing",
      "outputs": [
        {
          "internalType": "bool",
          "name": "",
          "type": "bool"
        }
      ],
      "stateMutability": "view",
      "type": "function"
    },
    {
      "inputs": [
        {
          "internalType": "uint256",
          "name": "_x",
          "type": "uint256"
        }
      ],
      "name": "nonInitializable",
      "outputs": [],
      "stateMutability": "payable",
      "type": "function"
    },
    {
      "inputs": [],
      "name": "onlyInitializingNested",
      "outputs": [],
      "stateMutability": "nonpayable",
      "type": "function"
    },
    {
      "inputs": [],
      "name": "onlyInitializingRan",
      "outputs": [
        {
          "internalType": "bool",
          "name": "",
          "type": "bool"
        }
      ],
      "stateMutability": "view",
      "type": "function"
    },
    {
      "inputs": [],
      "name": "x",
      "outputs": [
        {
          "internalType": "uint256",
          "name": "",
          "type": "uint256"
        }
      ],
      "stateMutability": "view",
      "type": "function"
    },
    {
      "stateMutability": "payable",
      "type": "receive"
    }
  ],
  "bytecode": "0x60806040526107cb806100115f395ff3fe6080604052600436106100f1575f3560e01c80637cffe97a11610087578063c9eb057111610057578063c9eb057114610172578063e955c9ec1461025a578063f5f1bec01461026d578063fa171c9214610281575f80fd5b80637cffe97a146101fd5780638129fc1c1461021a578063a9cc47181461022e578063c3b8ef2a14610242575f80fd5b80633ec91f05116100c25780633ec91f05146101725780634fd5303d146101a857806368449d1b146101d557806376268ae8146101e9575f80fd5b806218eaa8146100fc5780630c55699c1461011157806310065ed214610139578063342db7391461014d575f80fd5b366100f857005b5f80fd5b61010f61010a36600461073e565b610295565b005b34801561011c575f80fd5b5061012660015481565b6040519081526020015b60405180910390f35b348015610144575f80fd5b5061010f610379565b348015610158575f80fd5b506101266e1a185c991a185d0b595e1c1bdcd959608a1b81565b34801561017d575f80fd5b505f8051602061077683398151915254600160401b900460ff165b6040519015158152602001610130565b3480156101b3575f80fd5b506101bc610396565b60405167ffffffffffffffff9091168152602001610130565b3480156101e0575f80fd5b5061010f6103b6565b3480156101f4575f80fd5b5061010f61049d565b348015610208575f80fd5b505f5461019890610100900460ff1681565b348015610225575f80fd5b5061010f610545565b348015610239575f80fd5b5061010f610624565b34801561024d575f80fd5b505f546101989060ff1681565b61010f61026836600461073e565b600155565b348015610278575f80fd5b5061010f610672565b34801561028c575f80fd5b5061010f61067a565b5f805160206107768339815191528054600160401b810460ff16159067ffffffffffffffff165f811580156102c75750825b90505f8267ffffffffffffffff1660011480156102e35750303b155b9050811580156102f1575080155b1561030f5760405163f92ee8a960e01b815260040160405180910390fd5b845467ffffffffffffffff19166001178555831561033957845460ff60401b1916600160401b1785555b6001869055831561037157845460ff60401b19168555604051600181525f805160206107568339815191529060200160405180910390a15b505050505050565b61038161067e565b5f805461ff001916610100179055565b905090565b5f6103915f805160206107768339815191525467ffffffffffffffff1690565b5f805160206107768339815191528054600160401b810460ff16159067ffffffffffffffff165f811580156103e85750825b90505f8267ffffffffffffffff1660011480156104045750303b155b905081158015610412575080155b156104305760405163f92ee8a960e01b815260040160405180910390fd5b845467ffffffffffffffff19166001178555831561045a57845460ff60401b1916600160401b1785555b610462610379565b831561049657845460ff60401b19168555604051600181525f80516020610756833981519152906020015b60405180910390a15b5050505050565b5f805160206107768339815191528054600160401b810460ff16159067ffffffffffffffff165f811580156104cf5750825b90505f8267ffffffffffffffff1660011480156104eb5750303b155b9050811580156104f9575080155b156105175760405163f92ee8a960e01b815260040160405180910390fd5b845467ffffffffffffffff19166001178555831561054157845460ff60401b1916600160401b1785555b6104625b5f805160206107768339815191528054600160401b810460ff16159067ffffffffffffffff165f811580156105775750825b90505f8267ffffffffffffffff1660011480156105935750303b155b9050811580156105a1575080155b156105bf5760405163f92ee8a960e01b815260040160405180910390fd5b845467ffffffffffffffff1916600117855583156105e957845460ff60401b1916600160401b1785555b5f805460ff19166001179055831561049657845460ff60401b19168555604051600181525f805160206107568339815191529060200161048d565b60405162461bcd60e51b815260206004820181905260248201527f496e697469616c697a61626c654d6f636b20666f72636564206661696c757265604482015260640160405180910390fd5b565b6106706106b4565b6106705b5f8051602061077683398151915254600160401b900460ff1661067057604051631afcd79f60e31b815260040160405180910390fd5b5f805160206107768339815191528054600160401b900460ff16156106ec5760405163f92ee8a960e01b815260040160405180910390fd5b805467ffffffffffffffff9081161461073b57805467ffffffffffffffff191667ffffffffffffffff90811782556040519081525f805160206107568339815191529060200160405180910390a15b50565b5f6020828403121561074e575f80fd5b503591905056fec7f505b2f371ae2175ee4913f4499e1f2633a7b5936321eed1cdaeb6115181d2f0c57e16840df040f15088dc2f81fe391c3923bec73e23a9662efc9c229c6a00a264697066735822122039a2e81d71f603f49051fce22da65bfd143429d0693423b54468af5db084141764736f6c63430008180033",
  "linkReferences": {},
  "deployedLinkReferences": {}
}