{
  "_format": "hh-sol-artifact-1",
  "contractName": "$ReinitializerMock",
  "sourceName": "contracts-exposed/mocks/InitializableMock.sol",
  "abi": [
    {
      "inputs": [],
      "stateMutability": "payable",
      "type": "constructor"
    },
    {
      "inputs": [],
      "name": "InvalidInitialization",
      "type": "error"
    },
    {
      "inputs": [],
      "name": "NotInitializing",
      "type": "error"
    },
    {
      "anonymous": false,
      "inputs": [
        {
          "indexed": false,
          "internalType": "uint64",
          "name": "version",
          "type": "uint64"
        }
      ],
      "name": "Initialized",
      "type": "event"
    },
    {
      "inputs": [],
      "name": "$_checkInitializing",
      "outputs": [],
      "stateMutability": "view",
      "type": "function"
    },
    {
      "inputs": [],
      "name": "$_disableInitializers",
      "outputs": [],
      "stateMutability": "nonpayable",
      "type": "function"
    },
    {
      "inputs": [],
      "name": "$_getInitializedVersion",
      "outputs": [
        {
          "internalType": "uint64",
          "name": "ret0",
          "type": "uint64"
        }
      ],
      "stateMutability": "view",
      "type": "function"
    },
    {
      "inputs": [],
      "name": "$_isInitializing",
      "outputs": [
        {
          "internalType": "bool",
          "name": "ret0",
          "type": "bool"
        }
      ],
      "stateMutability": "view",
      "type": "function"
    },
    {
      "inputs": [],
      "name": "__hh_exposed_bytecode_marker",
      "outputs": [
        {
          "internalType": "bytes32",
          "name": "",
          "type": "bytes32"
        }
      ],
      "stateMutability": "view",
      "type": "function"
    },
    {
      "inputs": [
        {
          "internalType": "uint64",
          "name": "i",
          "type": "uint64"
        },
        {
          "internalType": "uint64",
          "name": "j",
          "type": "uint64"
        }
      ],
      "name": "chainReinitialize",
      "outputs": [],
      "stateMutability": "nonpayable",
      "type": "function"
    },
    {
      "inputs": [],
      "name": "counter",
      "outputs": [
        {
          "internalType": "uint256",
          "name": "",
          "type": "uint256"
        }
      ],
      "stateMutability": "view",
      "type": "function"
    },
    {
      "inputs": [],
      "name": "disableInitializers",
      "outputs": [],
      "stateMutability": "nonpayable",
      "type": "function"
    },
    {
      "inputs": [],
      "name": "doStuff",
      "outputs": [],
      "stateMutability": "nonpayable",
      "type": "function"
    },
    {
      "inputs": [],
      "name": "getInitializedVersion",
      "outputs": [
        {
          "internalType": "uint64",
          "name": "",
          "type": "uint64"
        }
      ],
      "stateMutability": "view",
      "type": "function"
    },
    {
      "inputs": [],
      "name": "initialize",
      "outputs": [],
      "stateMutability": "nonpayable",
      "type": "function"
    },
    {
      "inputs": [
        {
          "internalType": "uint64",
          "name": "i",
          "type": "uint64"
        },
        {
          "internalType": "uint64",
          "name": "j",
          "type": "uint64"
        }
      ],
      "name": "nestedReinitialize",
      "outputs": [],
      "stateMutability": "nonpayable",
      "type": "function"
    },
    {
      "inputs": [
        {
          "internalType": "uint64",
          "name": "i",
          "type": "uint64"
        }
      ],
      "name": "reinitialize",
      "outputs": [],
      "stateMutability": "nonpayable",
      "type": "function"
    },
    {
      "stateMutability": "payable",
      "type": "receive"
    }
  ],
  "bytecode": "0x60806040526106a6806100115f395ff3fe6080604052600436106100c2575f3560e01c80639a1b97df1161007c578063c9eb057111610057578063c9eb0571146101c1578063f5f1bec0146100cd578063fa171c92146101f6578063ff57ab741461020a575f80fd5b80639a1b97df14610183578063b3c650151461011b578063b5f214c0146101a2575f80fd5b806331f44900146100cd578063342db739146100e35780634fd5303d1461011b57806361bc221a146101475780638129fc1c1461015b578063874f33a11461016f575f80fd5b366100c957005b5f80fd5b3480156100d8575f80fd5b506100e1610229565b005b3480156100ee575f80fd5b506101086e1a185c991a185d0b595e1c1bdcd959608a1b81565b6040519081526020015b60405180910390f35b348015610126575f80fd5b5061012f610233565b6040516001600160401b039091168152602001610112565b348015610152575f80fd5b506101085f5481565b348015610166575f80fd5b506100e1610257565b34801561017a575f80fd5b506100e161033b565b34801561018e575f80fd5b506100e161019d3660046105bb565b610358565b3480156101ad575f80fd5b506100e16101bc3660046105db565b61040d565b3480156101cc575f80fd5b505f8051602061065183398151915254600160401b900460ff166040519015158152602001610112565b348015610201575f80fd5b506100e1610423565b348015610215575f80fd5b506100e16102243660046105db565b61042b565b6102316104e2565b565b5f6102525f80516020610651833981519152546001600160401b031690565b905090565b5f805160206106518339815191528054600160401b810460ff1615906001600160401b03165f811580156102885750825b90505f826001600160401b031660011480156102a35750303b155b9050811580156102b1575080155b156102cf5760405163f92ee8a960e01b815260040160405180910390fd5b845467ffffffffffffffff1916600117855583156102f957845460ff60401b1916600160401b1785555b61030161033b565b831561033457845460ff60401b19168555604051600181525f805160206106318339815191529060200160405180910390a15b5050505050565b61034361056a565b5f805490806103518361060c565b9190505550565b5f805160206106518339815191528054829190600160401b900460ff168061038d575080546001600160401b03808416911610155b156103ab5760405163f92ee8a960e01b815260040160405180910390fd5b805468ffffffffffffffffff19166001600160401b03831617600160401b1781556103d461033b565b805460ff60401b191681556040516001600160401b03831681525f805160206106318339815191529060200160405180910390a1505050565b61041682610358565b61041f81610358565b5050565b61023161056a565b5f805160206106518339815191528054839190600160401b900460ff1680610460575080546001600160401b03808416911610155b1561047e5760405163f92ee8a960e01b815260040160405180910390fd5b805468ffffffffffffffffff19166001600160401b03831617600160401b1781556104a883610358565b805460ff60401b191681556040516001600160401b03831681525f805160206106318339815191529060200160405180910390a150505050565b5f805160206106518339815191528054600160401b900460ff161561051a5760405163f92ee8a960e01b815260040160405180910390fd5b80546001600160401b039081161461056757805467ffffffffffffffff19166001600160401b0390811782556040519081525f805160206106318339815191529060200160405180910390a15b50565b5f8051602061065183398151915254600160401b900460ff1661023157604051631afcd79f60e31b815260040160405180910390fd5b80356001600160401b03811681146105b6575f80fd5b919050565b5f602082840312156105cb575f80fd5b6105d4826105a0565b9392505050565b5f80604083850312156105ec575f80fd5b6105f5836105a0565b9150610603602084016105a0565b90509250929050565b5f6001820161062957634e487b7160e01b5f52601160045260245ffd5b506001019056fec7f505b2f371ae2175ee4913f4499e1f2633a7b5936321eed1cdaeb6115181d2f0c57e16840df040f15088dc2f81fe391c3923bec73e23a9662efc9c229c6a00a2646970667358221220dc4b5df2a80d90999a040f362d4f546906243734232daf728e02c88d4851e03464736f6c63430008180033",
  "linkReferences": {},
  "deployedLinkReferences": {}
}