{
  "_format": "hh-sol-artifact-1",
  "contractName": "$AccessControlERC20MintMissing",
  "sourceName": "contracts-exposed/mocks/docs/access-control/AccessControlERC20MintMissing.sol",
  "abi": [
    {
      "inputs": [],
      "stateMutability": "payable",
      "type": "constructor"
    },
    {
      "inputs": [],
      "name": "AccessControlBadConfirmation",
      "type": "error"
    },
    {
      "inputs": [
        {
          "internalType": "address",
          "name": "account",
          "type": "address"
        },
        {
          "internalType": "bytes32",
          "name": "neededRole",
          "type": "bytes32"
        }
      ],
      "name": "AccessControlUnauthorizedAccount",
      "type": "error"
    },
    {
      "inputs": [
        {
          "internalType": "address",
          "name": "spender",
          "type": "address"
        },
        {
          "internalType": "uint256",
          "name": "allowance",
          "type": "uint256"
        },
        {
          "internalType": "uint256",
          "name": "needed",
          "type": "uint256"
        }
      ],
      "name": "ERC20InsufficientAllowance",
      "type": "error"
    },
    {
      "inputs": [
        {
          "internalType": "address",
          "name": "sender",
          "type": "address"
        },
        {
          "internalType": "uint256",
          "name": "balance",
          "type": "uint256"
        },
        {
          "internalType": "uint256",
          "name": "needed",
          "type": "uint256"
        }
      ],
      "name": "ERC20InsufficientBalance",
      "type": "error"
    },
    {
      "inputs": [
        {
          "internalType": "address",
          "name": "approver",
          "type": "address"
        }
      ],
      "name": "ERC20InvalidApprover",
      "type": "error"
    },
    {
      "inputs": [
        {
          "internalType": "address",
          "name": "receiver",
          "type": "address"
        }
      ],
      "name": "ERC20InvalidReceiver",
      "type": "error"
    },
    {
      "inputs": [
        {
          "internalType": "address",
          "name": "sender",
          "type": "address"
        }
      ],
      "name": "ERC20InvalidSender",
      "type": "error"
    },
    {
      "inputs": [
        {
          "internalType": "address",
          "name": "spender",
          "type": "address"
        }
      ],
      "name": "ERC20InvalidSpender",
      "type": "error"
    },
    {
      "anonymous": false,
      "inputs": [
        {
          "indexed": true,
          "internalType": "address",
          "name": "owner",
          "type": "address"
        },
        {
          "indexed": true,
          "internalType": "address",
          "name": "spender",
          "type": "address"
        },
        {
          "indexed": false,
          "internalType": "uint256",
          "name": "value",
          "type": "uint256"
        }
      ],
      "name": "Approval",
      "type": "event"
    },
    {
      "anonymous": false,
      "inputs": [
        {
          "indexed": true,
          "internalType": "bytes32",
          "name": "role",
          "type": "bytes32"
        },
        {
          "indexed": true,
          "internalType": "bytes32",
          "name": "previousAdminRole",
          "type": "bytes32"
        },
        {
          "indexed": true,
          "internalType": "bytes32",
          "name": "newAdminRole",
          "type": "bytes32"
        }
      ],
      "name": "RoleAdminChanged",
      "type": "event"
    },
    {
      "anonymous": false,
      "inputs": [
        {
          "indexed": true,
          "internalType": "bytes32",
          "name": "role",
          "type": "bytes32"
        },
        {
          "indexed": true,
          "internalType": "address",
          "name": "account",
          "type": "address"
        },
        {
          "indexed": true,
          "internalType": "address",
          "name": "sender",
          "type": "address"
        }
      ],
      "name": "RoleGranted",
      "type": "event"
    },
    {
      "anonymous": false,
      "inputs": [
        {
          "indexed": true,
          "internalType": "bytes32",
          "name": "role",
          "type": "bytes32"
        },
        {
          "indexed": true,
          "internalType": "address",
          "name": "account",
          "type": "address"
        },
        {
          "indexed": true,
          "internalType": "address",
          "name": "sender",
          "type": "address"
        }
      ],
      "name": "RoleRevoked",
      "type": "event"
    },
    {
      "anonymous": false,
      "inputs": [
        {
          "indexed": true,
          "internalType": "address",
          "name": "from",
          "type": "address"
        },
        {
          "indexed": true,
          "internalType": "address",
          "name": "to",
          "type": "address"
        },
        {
          "indexed": false,
          "internalType": "uint256",
          "name": "value",
          "type": "uint256"
        }
      ],
      "name": "Transfer",
      "type": "event"
    },
    {
      "anonymous": false,
      "inputs": [
        {
          "indexed": false,
          "internalType": "bool",
          "name": "ret0",
          "type": "bool"
        }
      ],
      "name": "return$_grantRole",
      "type": "event"
    },
    {
      "anonymous": false,
      "inputs": [
        {
          "indexed": false,
          "internalType": "bool",
          "name": "ret0",
          "type": "bool"
        }
      ],
      "name": "return$_revokeRole",
      "type": "event"
    },
    {
      "inputs": [
        {
          "internalType": "address",
          "name": "owner",
          "type": "address"
        },
        {
          "internalType": "address",
          "name": "spender",
          "type": "address"
        },
        {
          "internalType": "uint256",
          "name": "value",
          "type": "uint256"
        },
        {
          "internalType": "bool",
          "name": "emitEvent",
          "type": "bool"
        }
      ],
      "name": "$_approve",
      "outputs": [],
      "stateMutability": "nonpayable",
      "type": "function"
    },
    {
      "inputs": [
        {
          "internalType": "address",
          "name": "owner",
          "type": "address"
        },
        {
          "internalType": "address",
          "name": "spender",
          "type": "address"
        },
        {
          "internalType": "uint256",
          "name": "value",
          "type": "uint256"
        }
      ],
      "name": "$_approve",
      "outputs": [],
      "stateMutability": "nonpayable",
      "type": "function"
    },
    {
      "inputs": [
        {
          "internalType": "address",
          "name": "account",
          "type": "address"
        },
        {
          "internalType": "uint256",
          "name": "value",
          "type": "uint256"
        }
      ],
      "name": "$_burn",
      "outputs": [],
      "stateMutability": "nonpayable",
      "type": "function"
    },
    {
      "inputs": [
        {
          "internalType": "bytes32",
          "name": "role",
          "type": "bytes32"
        },
        {
          "internalType": "address",
          "name": "account",
          "type": "address"
        }
      ],
      "name": "$_checkRole",
      "outputs": [],
      "stateMutability": "view",
      "type": "function"
    },
    {
      "inputs": [
        {
          "internalType": "bytes32",
          "name": "role",
          "type": "bytes32"
        }
      ],
      "name": "$_checkRole",
      "outputs": [],
      "stateMutability": "view",
      "type": "function"
    },
    {
      "inputs": [],
      "name": "$_contextSuffixLength",
      "outputs": [
        {
          "internalType": "uint256",
          "name": "ret0",
          "type": "uint256"
        }
      ],
      "stateMutability": "view",
      "type": "function"
    },
    {
      "inputs": [
        {
          "internalType": "bytes32",
          "name": "role",
          "type": "bytes32"
        },
        {
          "internalType": "address",
          "name": "account",
          "type": "address"
        }
      ],
      "name": "$_grantRole",
      "outputs": [
        {
          "internalType": "bool",
          "name": "ret0",
          "type": "bool"
        }
      ],
      "stateMutability": "nonpayable",
      "type": "function"
    },
    {
      "inputs": [
        {
          "internalType": "address",
          "name": "account",
          "type": "address"
        },
        {
          "internalType": "uint256",
          "name": "value",
          "type": "uint256"
        }
      ],
      "name": "$_mint",
      "outputs": [],
      "stateMutability": "nonpayable",
      "type": "function"
    },
    {
      "inputs": [],
      "name": "$_msgData",
      "outputs": [
        {
          "internalType": "bytes",
          "name": "ret0",
          "type": "bytes"
        }
      ],
      "stateMutability": "view",
      "type": "function"
    },
    {
      "inputs": [],
      "name": "$_msgSender",
      "outputs": [
        {
          "internalType": "address",
          "name": "ret0",
          "type": "address"
        }
      ],
      "stateMutability": "view",
      "type": "function"
    },
    {
      "inputs": [
        {
          "internalType": "bytes32",
          "name": "role",
          "type": "bytes32"
        },
        {
          "internalType": "address",
          "name": "account",
          "type": "address"
        }
      ],
      "name": "$_revokeRole",
      "outputs": [
        {
          "internalType": "bool",
          "name": "ret0",
          "type": "bool"
        }
      ],
      "stateMutability": "nonpayable",
      "type": "function"
    },
    {
      "inputs": [
        {
          "internalType": "bytes32",
          "name": "role",
          "type": "bytes32"
        },
        {
          "internalType": "bytes32",
          "name": "adminRole",
          "type": "bytes32"
        }
      ],
      "name": "$_setRoleAdmin",
      "outputs": [],
      "stateMutability": "nonpayable",
      "type": "function"
    },
    {
      "inputs": [
        {
          "internalType": "address",
          "name": "owner",
          "type": "address"
        },
        {
          "internalType": "address",
          "name": "spender",
          "type": "address"
        },
        {
          "internalType": "uint256",
          "name": "value",
          "type": "uint256"
        }
      ],
      "name": "$_spendAllowance",
      "outputs": [],
      "stateMutability": "nonpayable",
      "type": "function"
    },
    {
      "inputs": [
        {
          "internalType": "address",
          "name": "from",
          "type": "address"
        },
        {
          "internalType": "address",
          "name": "to",
          "type": "address"
        },
        {
          "internalType": "uint256",
          "name": "value",
          "type": "uint256"
        }
      ],
      "name": "$_transfer",
      "outputs": [],
      "stateMutability": "nonpayable",
      "type": "function"
    },
    {
      "inputs": [
        {
          "internalType": "address",
          "name": "from",
          "type": "address"
        },
        {
          "internalType": "address",
          "name": "to",
          "type": "address"
        },
        {
          "internalType": "uint256",
          "name": "value",
          "type": "uint256"
        }
      ],
      "name": "$_update",
      "outputs": [],
      "stateMutability": "nonpayable",
      "type": "function"
    },
    {
      "inputs": [],
      "name": "BURNER_ROLE",
      "outputs": [
        {
          "internalType": "bytes32",
          "name": "",
          "type": "bytes32"
        }
      ],
      "stateMutability": "view",
      "type": "function"
    },
    {
      "inputs": [],
      "name": "DEFAULT_ADMIN_ROLE",
      "outputs": [
        {
          "internalType": "bytes32",
          "name": "",
          "type": "bytes32"
        }
      ],
      "stateMutability": "view",
      "type": "function"
    },
    {
      "inputs": [],
      "name": "MINTER_ROLE",
      "outputs": [
        {
          "internalType": "bytes32",
          "name": "",
          "type": "bytes32"
        }
      ],
      "stateMutability": "view",
      "type": "function"
    },
    {
      "inputs": [],
      "name": "__hh_exposed_bytecode_marker",
      "outputs": [
        {
          "internalType": "bytes32",
          "name": "",
          "type": "bytes32"
        }
      ],
      "stateMutability": "view",
      "type": "function"
    },
    {
      "inputs": [
        {
          "internalType": "address",
          "name": "owner",
          "type": "address"
        },
        {
          "internalType": "address",
          "name": "spender",
          "type": "address"
        }
      ],
      "name": "allowance",
      "outputs": [
        {
          "internalType": "uint256",
          "name": "",
          "type": "uint256"
        }
      ],
      "stateMutability": "view",
      "type": "function"
    },
    {
      "inputs": [
        {
          "internalType": "address",
          "name": "spender",
          "type": "address"
        },
        {
          "internalType": "uint256",
          "name": "value",
          "type": "uint256"
        }
      ],
      "name": "approve",
      "outputs": [
        {
          "internalType": "bool",
          "name": "",
          "type": "bool"
        }
      ],
      "stateMutability": "nonpayable",
      "type": "function"
    },
    {
      "inputs": [
        {
          "internalType": "address",
          "name": "account",
          "type": "address"
        }
      ],
      "name": "balanceOf",
      "outputs": [
        {
          "internalType": "uint256",
          "name": "",
          "type": "uint256"
        }
      ],
      "stateMutability": "view",
      "type": "function"
    },
    {
      "inputs": [
        {
          "internalType": "address",
          "name": "from",
          "type": "address"
        },
        {
          "internalType": "uint256",
          "name": "amount",
          "type": "uint256"
        }
      ],
      "name": "burn",
      "outputs": [],
      "stateMutability": "nonpayable",
      "type": "function"
    },
    {
      "inputs": [],
      "name": "decimals",
      "outputs": [
        {
          "internalType": "uint8",
          "name": "",
          "type": "uint8"
        }
      ],
      "stateMutability": "view",
      "type": "function"
    },
    {
      "inputs": [
        {
          "internalType": "bytes32",
          "name": "role",
          "type": "bytes32"
        }
      ],
      "name": "getRoleAdmin",
      "outputs": [
        {
          "internalType": "bytes32",
          "name": "",
          "type": "bytes32"
        }
      ],
      "stateMutability": "view",
      "type": "function"
    },
    {
      "inputs": [
        {
          "internalType": "bytes32",
          "name": "role",
          "type": "bytes32"
        },
        {
          "internalType": "address",
          "name": "account",
          "type": "address"
        }
      ],
      "name": "grantRole",
      "outputs": [],
      "stateMutability": "nonpayable",
      "type": "function"
    },
    {
      "inputs": [
        {
          "internalType": "bytes32",
          "name": "role",
          "type": "bytes32"
        },
        {
          "internalType": "address",
          "name": "account",
          "type": "address"
        }
      ],
      "name": "hasRole",
      "outputs": [
        {
          "internalType": "bool",
          "name": "",
          "type": "bool"
        }
      ],
      "stateMutability": "view",
      "type": "function"
    },
    {
      "inputs": [
        {
          "internalType": "address",
          "name": "to",
          "type": "address"
        },
        {
          "internalType": "uint256",
          "name": "amount",
          "type": "uint256"
        }
      ],
      "name": "mint",
      "outputs": [],
      "stateMutability": "nonpayable",
      "type": "function"
    },
    {
      "inputs": [],
      "name": "name",
      "outputs": [
        {
          "internalType": "string",
          "name": "",
          "type": "string"
        }
      ],
      "stateMutability": "view",
      "type": "function"
    },
    {
      "inputs": [
        {
          "internalType": "bytes32",
          "name": "role",
          "type": "bytes32"
        },
        {
          "internalType": "address",
          "name": "callerConfirmation",
          "type": "address"
        }
      ],
      "name": "renounceRole",
      "outputs": [],
      "stateMutability": "nonpayable",
      "type": "function"
    },
    {
      "inputs": [
        {
          "internalType": "bytes32",
          "name": "role",
          "type": "bytes32"
        },
        {
          "internalType": "address",
          "name": "account",
          "type": "address"
        }
      ],
      "name": "revokeRole",
      "outputs": [],
      "stateMutability": "nonpayable",
      "type": "function"
    },
    {
      "inputs": [
        {
          "internalType": "bytes4",
          "name": "interfaceId",
          "type": "bytes4"
        }
      ],
      "name": "supportsInterface",
      "outputs": [
        {
          "internalType": "bool",
          "name": "",
          "type": "bool"
        }
      ],
      "stateMutability": "view",
      "type": "function"
    },
    {
      "inputs": [],
      "name": "symbol",
      "outputs": [
        {
          "internalType": "string",
          "name": "",
          "type": "string"
        }
      ],
      "stateMutability": "view",
      "type": "function"
    },
    {
      "inputs": [],
      "name": "totalSupply",
      "outputs": [
        {
          "internalType": "uint256",
          "name": "",
          "type": "uint256"
        }
      ],
      "stateMutability": "view",
      "type": "function"
    },
    {
      "inputs": [
        {
          "internalType": "address",
          "name": "to",
          "type": "address"
        },
        {
          "internalType": "uint256",
          "name": "value",
          "type": "uint256"
        }
      ],
      "name": "transfer",
      "outputs": [
        {
          "internalType": "bool",
          "name": "",
          "type": "bool"
        }
      ],
      "stateMutability": "nonpayable",
      "type": "function"
    },
    {
      "inputs": [
        {
          "internalType": "address",
          "name": "from",
          "type": "address"
        },
        {
          "internalType": "address",
          "name": "to",
          "type": "address"
        },
        {
          "internalType": "uint256",
          "name": "value",
          "type": "uint256"
        }
      ],
      "name": "transferFrom",
      "outputs": [
        {
          "internalType": "bool",
          "name": "",
          "type": "bool"
        }
      ],
      "stateMutability": "nonpayable",
      "type": "function"
    },
    {
      "stateMutability": "payable",
      "type": "receive"
    }
  ],
  "bytecode": "0x600760809081526626bcaa37b5b2b760c91b60a052610100604052600360c0818152622a25a760e91b60e05290620000388382620001ad565b506004620000478282620001ad565b506200005891505f9050336200005f565b5062000279565b5f8281526005602090815260408083206001600160a01b038516845290915281205460ff1662000106575f8381526005602090815260408083206001600160a01b03861684529091529020805460ff19166001179055620000bd3390565b6001600160a01b0316826001600160a01b0316847f2f8788117e7eff1d82e926ec794901d17c78024a50270940304540a733656f0d60405160405180910390a450600162000109565b505f5b92915050565b634e487b7160e01b5f52604160045260245ffd5b600181811c908216806200013857607f821691505b6020821081036200015757634e487b7160e01b5f52602260045260245ffd5b50919050565b601f821115620001a857805f5260205f20601f840160051c81016020851015620001845750805b601f840160051c820191505b81811015620001a5575f815560010162000190565b50505b505050565b81516001600160401b03811115620001c957620001c96200010f565b620001e181620001da845462000123565b846200015d565b602080601f83116001811462000217575f8415620001ff5750858301515b5f19600386901b1c1916600185901b17855562000271565b5f85815260208120601f198616915b82811015620002475788860151825594840194600190910190840162000226565b50858210156200026557878501515f19600388901b60f8161c191681555b505060018460011b0185555b505050505050565b61117880620002875f395ff3fe60806040526004361061020a575f3560e01c806367354a8411610113578063a9059cbb1161009d578063d547741f1161006d578063d547741f14610608578063d7bdcee914610627578063dd62ed3e14610646578063e047838d1461068a578063efb43b07146106a9575f80fd5b8063a9059cbb14610578578063b2331d7d14610597578063cc461d62146105b6578063d5391393146105d5575f80fd5b806391d14854116100e357806391d14854146104f457806395d89b411461051357806398dd54c1146105275780639dc29fac14610546578063a217fddf14610565575f80fd5b806367354a84146104705780636855a1781461048257806370a08231146104a1578063861e3d3d146104d5575f80fd5b80632f2ff15d11610194578063342db73911610164578063342db739146103cf57806336568abe146103f457806340c10f191461041357806341b45f71146104325780634286d2f114610451575f80fd5b80632f2ff15d14610360578063313ce5671461038157806332bc74aa1461039c57806332cadf3c146103bb575f80fd5b806323b872dd116101da57806323b872dd146102a7578063248a9ca3146102c6578063270db874146102f4578063282c51f3146103135780632904df2914610346575f80fd5b806301ffc9a71461021557806306fdde0314610249578063095ea7b31461026a57806318160ddd14610289575f80fd5b3661021157005b5f80fd5b348015610220575f80fd5b5061023461022f366004610efa565b6106c8565b60405190151581526020015b60405180910390f35b348015610254575f80fd5b5061025d6106fe565b6040516102409190610f6b565b348015610275575f80fd5b50610234610284366004610f98565b61078e565b348015610294575f80fd5b506002545b604051908152602001610240565b3480156102b2575f80fd5b506102346102c1366004610fc0565b6107a5565b3480156102d1575f80fd5b506102996102e0366004610ff9565b5f9081526005602052604090206001015490565b3480156102ff575f80fd5b5061023461030e366004611010565b6107c8565b34801561031e575f80fd5b506102997f3c11d16cbaffd01df69ce1c404f6340ee057498f5f00246190ea54220576a84881565b348015610351575f80fd5b50604051338152602001610240565b34801561036b575f80fd5b5061037f61037a366004611010565b610816565b005b34801561038c575f80fd5b5060405160128152602001610240565b3480156103a7575f80fd5b5061037f6103b636600461103a565b610840565b3480156103c6575f80fd5b5061025d61084c565b3480156103da575f80fd5b506102996e1a185c991a185d0b595e1c1bdcd959608a1b81565b3480156103ff575f80fd5b5061037f61040e366004611010565b610889565b34801561041e575f80fd5b5061037f61042d366004610f98565b6108c1565b34801561043d575f80fd5b5061037f61044c366004611010565b6108f5565b34801561045c575f80fd5b5061023461046b366004611010565b610903565b34801561047b575f80fd5b505f610299565b34801561048d575f80fd5b5061037f61049c366004610fc0565b610943565b3480156104ac575f80fd5b506102996104bb36600461108a565b6001600160a01b03165f9081526020819052604090205490565b3480156104e0575f80fd5b5061037f6104ef366004610fc0565b61094e565b3480156104ff575f80fd5b5061023461050e366004611010565b610959565b34801561051e575f80fd5b5061025d610983565b348015610532575f80fd5b5061037f610541366004610ff9565b610992565b348015610551575f80fd5b5061037f610560366004610f98565b61099e565b348015610570575f80fd5b506102995f81565b348015610583575f80fd5b50610234610592366004610f98565b6109d2565b3480156105a2575f80fd5b5061037f6105b1366004610fc0565b6109df565b3480156105c1575f80fd5b5061037f6105d0366004610f98565b6109ea565b3480156105e0575f80fd5b506102997f9f2df0fed2c77648de5860a4cc508cd0818c85b8b8a1ab4ceeef8d981c8956a681565b348015610613575f80fd5b5061037f610622366004611010565b6109f4565b348015610632575f80fd5b5061037f6106413660046110a3565b610a18565b348015610651575f80fd5b506102996106603660046110c3565b6001600160a01b039182165f90815260016020908152604080832093909416825291909152205490565b348015610695575f80fd5b5061037f6106a4366004610f98565b610a22565b3480156106b4575f80fd5b5061037f6106c3366004610fc0565b610a2c565b5f6001600160e01b03198216637965db0b60e01b14806106f857506301ffc9a760e01b6001600160e01b03198316145b92915050565b60606003805461070d906110eb565b80601f0160208091040260200160405190810160405280929190818152602001828054610739906110eb565b80156107845780601f1061075b57610100808354040283529160200191610784565b820191905f5260205f20905b81548152906001019060200180831161076757829003601f168201915b5050505050905090565b5f3361079b818585610a37565b5060019392505050565b5f336107b2858285610a44565b6107bd858585610abf565b506001949350505050565b5f6107d38383610b11565b90507f370ef10a740e8e7931c19225ec88cd0e2e6bd52365a53489c401385c5582873381604051610808911515815260200190565b60405180910390a192915050565b5f8281526005602052604090206001015461083081610ba2565b61083a8383610b11565b50505050565b61083a84848484610bac565b60605f368080601f0160208091040260200160405190810160405280939291908181526020018383808284375f9201919091525092949350505050565b6001600160a01b03811633146108b25760405163334bd91960e11b815260040160405180910390fd5b6108bc8282610c7e565b505050565b7f9f2df0fed2c77648de5860a4cc508cd0818c85b8b8a1ab4ceeef8d981c8956a66108eb81610ba2565b6108bc8383610ce9565b6108ff8282610d1d565b5050565b5f61090e8383610c7e565b90507fe404ca92845347e354d44ac6f2449eba6681424c1f6f1d34173ac2f49c6996b381604051610808911515815260200190565b6108bc838383610d56565b6108bc838383610a37565b5f9182526005602090815260408084206001600160a01b0393909316845291905290205460ff1690565b60606004805461070d906110eb565b61099b81610ba2565b50565b7f3c11d16cbaffd01df69ce1c404f6340ee057498f5f00246190ea54220576a8486109c881610ba2565b6108bc8383610e7c565b5f3361079b818585610abf565b6108bc838383610a44565b6108ff8282610ce9565b5f82815260056020526040902060010154610a0e81610ba2565b61083a8383610c7e565b6108ff8282610eb0565b6108ff8282610e7c565b6108bc838383610abf565b6108bc8383836001610bac565b6001600160a01b038381165f908152600160209081526040808320938616835292905220545f1981101561083a5781811015610ab157604051637dc7a0d960e11b81526001600160a01b038416600482015260248101829052604481018390526064015b60405180910390fd5b61083a84848484035f610bac565b6001600160a01b038316610ae857604051634b637e8f60e11b81525f6004820152602401610aa8565b6001600160a01b0382166109435760405163ec442f0560e01b81525f6004820152602401610aa8565b5f610b1c8383610959565b610b9b575f8381526005602090815260408083206001600160a01b03861684529091529020805460ff19166001179055610b533390565b6001600160a01b0316826001600160a01b0316847f2f8788117e7eff1d82e926ec794901d17c78024a50270940304540a733656f0d60405160405180910390a45060016106f8565b505f6106f8565b61099b8133610d1d565b6001600160a01b038416610bd55760405163e602df0560e01b81525f6004820152602401610aa8565b6001600160a01b038316610bfe57604051634a1406b160e11b81525f6004820152602401610aa8565b6001600160a01b038085165f908152600160209081526040808320938716835292905220829055801561083a57826001600160a01b0316846001600160a01b03167f8c5be1e5ebec7d5bd14f71427d1e84f3dd0314c0f7b2291e5b200ac8c7c3b92584604051610c7091815260200190565b60405180910390a350505050565b5f610c898383610959565b15610b9b575f8381526005602090815260408083206001600160a01b0386168085529252808320805460ff1916905551339286917ff6391f5c32d9c69d2a47ea670b442974b53935d1edc7fd64eb21e047a839171b9190a45060016106f8565b6001600160a01b038216610d125760405163ec442f0560e01b81525f6004820152602401610aa8565b6108ff5f8383610d56565b610d278282610959565b6108ff5760405163e2517d3f60e01b81526001600160a01b038216600482015260248101839052604401610aa8565b6001600160a01b038316610d80578060025f828254610d759190611123565b90915550610df09050565b6001600160a01b0383165f9081526020819052604090205481811015610dd25760405163391434e360e21b81526001600160a01b03851660048201526024810182905260448101839052606401610aa8565b6001600160a01b0384165f9081526020819052604090209082900390555b6001600160a01b038216610e0c57600280548290039055610e2a565b6001600160a01b0382165f9081526020819052604090208054820190555b816001600160a01b0316836001600160a01b03167fddf252ad1be2c89b69c2b068fc378daa952ba7f163c4a11628f55a4df523b3ef83604051610e6f91815260200190565b60405180910390a3505050565b6001600160a01b038216610ea557604051634b637e8f60e11b81525f6004820152602401610aa8565b6108ff825f83610d56565b5f82815260056020526040808220600101805490849055905190918391839186917fbd79b86ffe0ab8e8776151514217cd7cacd52c909f66475c3af44e129f0b00ff9190a4505050565b5f60208284031215610f0a575f80fd5b81356001600160e01b031981168114610f21575f80fd5b9392505050565b5f81518084525f5b81811015610f4c57602081850181015186830182015201610f30565b505f602082860101526020601f19601f83011685010191505092915050565b602081525f610f216020830184610f28565b80356001600160a01b0381168114610f93575f80fd5b919050565b5f8060408385031215610fa9575f80fd5b610fb283610f7d565b946020939093013593505050565b5f805f60608486031215610fd2575f80fd5b610fdb84610f7d565b9250610fe960208501610f7d565b9150604084013590509250925092565b5f60208284031215611009575f80fd5b5035919050565b5f8060408385031215611021575f80fd5b8235915061103160208401610f7d565b90509250929050565b5f805f806080858703121561104d575f80fd5b61105685610f7d565b935061106460208601610f7d565b9250604085013591506060850135801515811461107f575f80fd5b939692955090935050565b5f6020828403121561109a575f80fd5b610f2182610f7d565b5f80604083850312156110b4575f80fd5b50508035926020909101359150565b5f80604083850312156110d4575f80fd5b6110dd83610f7d565b915061103160208401610f7d565b600181811c908216806110ff57607f821691505b60208210810361111d57634e487b7160e01b5f52602260045260245ffd5b50919050565b808201808211156106f857634e487b7160e01b5f52601160045260245ffdfea2646970667358221220d2224ad6e111651ea6c2352d0d423dfa25cce070f838411cea6edaab87f387c264736f6c63430008180033",
  "linkReferences": {},
  "deployedLinkReferences": {}
}