{
  "_format": "hh-sol-artifact-1",
  "contractName": "$VestingWalletCliff",
  "sourceName": "contracts-exposed/finance/VestingWalletCliff.sol",
  "abi": [
    {
      "inputs": [
        {
          "internalType": "address",
          "name": "beneficiary",
          "type": "address"
        },
        {
          "internalType": "uint64",
          "name": "startTimestamp",
          "type": "uint64"
        },
        {
          "internalType": "uint64",
          "name": "durationSeconds",
          "type": "uint64"
        },
        {
          "internalType": "uint64",
          "name": "cliffSeconds",
          "type": "uint64"
        }
      ],
      "stateMutability": "payable",
      "type": "constructor"
    },
    {
      "inputs": [],
      "name": "FailedCall",
      "type": "error"
    },
    {
      "inputs": [
        {
          "internalType": "uint256",
          "name": "balance",
          "type": "uint256"
        },
        {
          "internalType": "uint256",
          "name": "needed",
          "type": "uint256"
        }
      ],
      "name": "InsufficientBalance",
      "type": "error"
    },
    {
      "inputs": [
        {
          "internalType": "uint64",
          "name": "cliffSeconds",
          "type": "uint64"
        },
        {
          "internalType": "uint64",
          "name": "durationSeconds",
          "type": "uint64"
        }
      ],
      "name": "InvalidCliffDuration",
      "type": "error"
    },
    {
      "inputs": [
        {
          "internalType": "address",
          "name": "owner",
          "type": "address"
        }
      ],
      "name": "OwnableInvalidOwner",
      "type": "error"
    },
    {
      "inputs": [
        {
          "internalType": "address",
          "name": "account",
          "type": "address"
        }
      ],
      "name": "OwnableUnauthorizedAccount",
      "type": "error"
    },
    {
      "inputs": [
        {
          "internalType": "uint8",
          "name": "bits",
          "type": "uint8"
        },
        {
          "internalType": "uint256",
          "name": "value",
          "type": "uint256"
        }
      ],
      "name": "SafeCastOverflowedUintDowncast",
      "type": "error"
    },
    {
      "inputs": [
        {
          "internalType": "address",
          "name": "token",
          "type": "address"
        }
      ],
      "name": "SafeERC20FailedOperation",
      "type": "error"
    },
    {
      "anonymous": false,
      "inputs": [
        {
          "indexed": true,
          "internalType": "address",
          "name": "token",
          "type": "address"
        },
        {
          "indexed": false,
          "internalType": "uint256",
          "name": "amount",
          "type": "uint256"
        }
      ],
      "name": "ERC20Released",
      "type": "event"
    },
    {
      "anonymous": false,
      "inputs": [
        {
          "indexed": false,
          "internalType": "uint256",
          "name": "amount",
          "type": "uint256"
        }
      ],
      "name": "EtherReleased",
      "type": "event"
    },
    {
      "anonymous": false,
      "inputs": [
        {
          "indexed": true,
          "internalType": "address",
          "name": "previousOwner",
          "type": "address"
        },
        {
          "indexed": true,
          "internalType": "address",
          "name": "newOwner",
          "type": "address"
        }
      ],
      "name": "OwnershipTransferred",
      "type": "event"
    },
    {
      "inputs": [],
      "name": "$_checkOwner",
      "outputs": [],
      "stateMutability": "view",
      "type": "function"
    },
    {
      "inputs": [],
      "name": "$_contextSuffixLength",
      "outputs": [
        {
          "internalType": "uint256",
          "name": "ret0",
          "type": "uint256"
        }
      ],
      "stateMutability": "view",
      "type": "function"
    },
    {
      "inputs": [],
      "name": "$_msgData",
      "outputs": [
        {
          "internalType": "bytes",
          "name": "ret0",
          "type": "bytes"
        }
      ],
      "stateMutability": "view",
      "type": "function"
    },
    {
      "inputs": [],
      "name": "$_msgSender",
      "outputs": [
        {
          "internalType": "address",
          "name": "ret0",
          "type": "address"
        }
      ],
      "stateMutability": "view",
      "type": "function"
    },
    {
      "inputs": [
        {
          "internalType": "address",
          "name": "newOwner",
          "type": "address"
        }
      ],
      "name": "$_transferOwnership",
      "outputs": [],
      "stateMutability": "nonpayable",
      "type": "function"
    },
    {
      "inputs": [
        {
          "internalType": "uint256",
          "name": "totalAllocation",
          "type": "uint256"
        },
        {
          "internalType": "uint64",
          "name": "timestamp",
          "type": "uint64"
        }
      ],
      "name": "$_vestingSchedule",
      "outputs": [
        {
          "internalType": "uint256",
          "name": "ret0",
          "type": "uint256"
        }
      ],
      "stateMutability": "view",
      "type": "function"
    },
    {
      "inputs": [],
      "name": "__hh_exposed_bytecode_marker",
      "outputs": [
        {
          "internalType": "bytes32",
          "name": "",
          "type": "bytes32"
        }
      ],
      "stateMutability": "view",
      "type": "function"
    },
    {
      "inputs": [],
      "name": "cliff",
      "outputs": [
        {
          "internalType": "uint256",
          "name": "",
          "type": "uint256"
        }
      ],
      "stateMutability": "view",
      "type": "function"
    },
    {
      "inputs": [],
      "name": "duration",
      "outputs": [
        {
          "internalType": "uint256",
          "name": "",
          "type": "uint256"
        }
      ],
      "stateMutability": "view",
      "type": "function"
    },
    {
      "inputs": [],
      "name": "end",
      "outputs": [
        {
          "internalType": "uint256",
          "name": "",
          "type": "uint256"
        }
      ],
      "stateMutability": "view",
      "type": "function"
    },
    {
      "inputs": [],
      "name": "owner",
      "outputs": [
        {
          "internalType": "address",
          "name": "",
          "type": "address"
        }
      ],
      "stateMutability": "view",
      "type": "function"
    },
    {
      "inputs": [
        {
          "internalType": "address",
          "name": "token",
          "type": "address"
        }
      ],
      "name": "releasable",
      "outputs": [
        {
          "internalType": "uint256",
          "name": "",
          "type": "uint256"
        }
      ],
      "stateMutability": "view",
      "type": "function"
    },
    {
      "inputs": [],
      "name": "releasable",
      "outputs": [
        {
          "internalType": "uint256",
          "name": "",
          "type": "uint256"
        }
      ],
      "stateMutability": "view",
      "type": "function"
    },
    {
      "inputs": [
        {
          "internalType": "address",
          "name": "token",
          "type": "address"
        }
      ],
      "name": "release",
      "outputs": [],
      "stateMutability": "nonpayable",
      "type": "function"
    },
    {
      "inputs": [],
      "name": "release",
      "outputs": [],
      "stateMutability": "nonpayable",
      "type": "function"
    },
    {
      "inputs": [],
      "name": "released",
      "outputs": [
        {
          "internalType": "uint256",
          "name": "",
          "type": "uint256"
        }
      ],
      "stateMutability": "view",
      "type": "function"
    },
    {
      "inputs": [
        {
          "internalType": "address",
          "name": "token",
          "type": "address"
        }
      ],
      "name": "released",
      "outputs": [
        {
          "internalType": "uint256",
          "name": "",
          "type": "uint256"
        }
      ],
      "stateMutability": "view",
      "type": "function"
    },
    {
      "inputs": [],
      "name": "renounceOwnership",
      "outputs": [],
      "stateMutability": "nonpayable",
      "type": "function"
    },
    {
      "inputs": [],
      "name": "start",
      "outputs": [
        {
          "internalType": "uint256",
          "name": "",
          "type": "uint256"
        }
      ],
      "stateMutability": "view",
      "type": "function"
    },
    {
      "inputs": [
        {
          "internalType": "address",
          "name": "newOwner",
          "type": "address"
        }
      ],
      "name": "transferOwnership",
      "outputs": [],
      "stateMutability": "nonpayable",
      "type": "function"
    },
    {
      "inputs": [
        {
          "internalType": "uint64",
          "name": "timestamp",
          "type": "uint64"
        }
      ],
      "name": "vestedAmount",
      "outputs": [
        {
          "internalType": "uint256",
          "name": "",
          "type": "uint256"
        }
      ],
      "stateMutability": "view",
      "type": "function"
    },
    {
      "inputs": [
        {
          "internalType": "address",
          "name": "token",
          "type": "address"
        },
        {
          "internalType": "uint64",
          "name": "timestamp",
          "type": "uint64"
        }
      ],
      "name": "vestedAmount",
      "outputs": [
        {
          "internalType": "uint256",
          "name": "",
          "type": "uint256"
        }
      ],
      "stateMutability": "view",
      "type": "function"
    },
    {
      "stateMutability": "payable",
      "type": "receive"
    }
  ],
  "bytecode": "0x60e060405260405162000e5b38038062000e5b8339810160408190526200002691620001ba565b80848484826001600160a01b0381166200005a57604051631e4fbdf760e01b81525f60048201526024015b60405180910390fd5b620000658162000114565b506001600160401b039182166080521660a08190529050816001600160401b03161115620000d85780620000ab620000a560a0516001600160401b031690565b62000163565b6040516303be3ef560e41b81526001600160401b0392831660048201529116602482015260440162000051565b80620000f0620000a56080516001600160401b031690565b620000fc919062000220565b6001600160401b031660c05250620002549350505050565b5f80546001600160a01b038381166001600160a01b0319831681178455604051919092169283917f8be0079c531659141344cd1fd0a4f28419497f9722a3daafe3b4186f6b6457e09190a35050565b5f6001600160401b038211156200019a57604080516306dfcc6560e41b815260048101919091526024810183905260440162000051565b5090565b80516001600160401b0381168114620001b5575f80fd5b919050565b5f805f8060808587031215620001ce575f80fd5b84516001600160a01b0381168114620001e5575f80fd5b9350620001f5602086016200019e565b925062000205604086016200019e565b915062000215606086016200019e565b905092959194509250565b6001600160401b038181168382160190808211156200024d57634e487b7160e01b5f52601160045260245ffd5b5092915050565b60805160a05160c051610bc7620002945f395f81816101bb015261071d01525f818161017f01528181610683015261091301525f6106550152610bc75ff3fe608060405260043610610134575f3560e01c806386d1a69f116100a8578063be9a65551161006d578063be9a655514610371578063ebcca70714610385578063efbe1c1c14610399578063f2fde38b146103ad578063fbccedae146103cc578063fe1c9a24146103e0575f80fd5b806386d1a69f146102da5780638da5cb5b146102ee578063961325211461030a5780639852595c1461031e578063a3f8eace14610352575f80fd5b806332cadf3c116100f957806332cadf3c14610230578063342db739146102515780633f2979531461027657806367354a8414610295578063715018a6146102a7578063810ec23b146102bb575f80fd5b80630a17b06b1461013f5780630fb5a6b41461017157806313d033c0146101ad57806319165587146101e95780632904df291461020a575f80fd5b3661013b57005b5f80fd5b34801561014a575f80fd5b5061015e610159366004610a24565b6103ff565b6040519081526020015b60405180910390f35b34801561017c575f80fd5b507f000000000000000000000000000000000000000000000000000000000000000067ffffffffffffffff1661015e565b3480156101b8575f80fd5b507f000000000000000000000000000000000000000000000000000000000000000067ffffffffffffffff1661015e565b3480156101f4575f80fd5b50610208610203366004610a53565b610422565b005b348015610215575f80fd5b50335b6040516001600160a01b039091168152602001610168565b34801561023b575f80fd5b506102446104bf565b6040516101689190610a6c565b34801561025c575f80fd5b5061015e6e1a185c991a185d0b595e1c1bdcd959608a1b81565b348015610281575f80fd5b5061015e610290366004610ab8565b6104fc565b3480156102a0575f80fd5b505f61015e565b3480156102b2575f80fd5b5061020861050e565b3480156102c6575f80fd5b5061015e6102d5366004610ae2565b610521565b3480156102e5575f80fd5b506102086105ad565b3480156102f9575f80fd5b505f546001600160a01b0316610218565b348015610315575f80fd5b5060015461015e565b348015610329575f80fd5b5061015e610338366004610a53565b6001600160a01b03165f9081526002602052604090205490565b34801561035d575f80fd5b5061015e61036c366004610a53565b61061e565b34801561037c575f80fd5b5061015e61064a565b348015610390575f80fd5b50610208610678565b3480156103a4575f80fd5b5061015e610680565b3480156103b8575f80fd5b506102086103c7366004610a53565b6106be565b3480156103d7575f80fd5b5061015e6106fd565b3480156103eb575f80fd5b506102086103fa366004610a53565b6106f4565b5f61041c61040c60015490565b6104169047610b1e565b8361071a565b92915050565b5f61042c8261061e565b6001600160a01b0383165f90815260026020526040812080549293508392909190610458908490610b1e565b90915550506040518181526001600160a01b038316907fc0e523490dd523c33b1878c9eb14ff46991e3f5b2cd33710918618f2a39cba1b9060200160405180910390a26104b6826104b05f546001600160a01b031690565b8361076d565b5050565b905090565b60605f368080601f0160208091040260200160405190810160405280939291908181526020018383808284375f9201919091525092949350505050565b5f610507838361071a565b9392505050565b6105166107c4565b61051f5f6107f0565b565b6001600160a01b0382165f90815260026020526040812054610507906040516370a0823160e01b81523060048201526001600160a01b038616906370a0823190602401602060405180830381865afa15801561057f573d5f803e3d5ffd5b505050506040513d601f19601f820116820180604052508101906105a39190610b31565b6104169190610b1e565b5f6105b66106fd565b90508060015f8282546105c99190610b1e565b90915550506040518181527fda9d4e5f101b8b9b1c5b76d0c5a9f7923571acfc02376aa076b75a8c080c956b9060200160405180910390a161061b6106155f546001600160a01b031690565b8261083f565b50565b6001600160a01b0381165f908152600260205260408120546106408342610521565b61041c9190610b48565b67ffffffffffffffff7f00000000000000000000000000000000000000000000000000000000000000001690565b61051f6107c4565b5f7f000000000000000000000000000000000000000000000000000000000000000067ffffffffffffffff166106b461064a565b6104ba9190610b1e565b6106c66107c4565b6001600160a01b0381166106f457604051631e4fbdf760e01b81525f60048201526024015b60405180910390fd5b61061b816107f0565b5f61070760015490565b610710426103ff565b6104ba9190610b48565b5f7f000000000000000000000000000000000000000000000000000000000000000067ffffffffffffffff168267ffffffffffffffff16106107655761076083836108d1565b610507565b505f92915050565b604080516001600160a01b038416602482015260448082018490528251808303909101815260649091019091526020810180516001600160e01b031663a9059cbb60e01b1790526107bf908490610973565b505050565b5f546001600160a01b0316331461051f5760405163118cdaa760e01b81523360048201526024016106eb565b5f80546001600160a01b038381166001600160a01b0319831681178455604051919092169283917f8be0079c531659141344cd1fd0a4f28419497f9722a3daafe3b4186f6b6457e09190a35050565b804710156108695760405163cf47918160e01b8152476004820152602481018290526044016106eb565b5f80836001600160a01b0316836040515f6040518083038185875af1925050503d805f81146108b3576040519150601f19603f3d011682016040523d82523d5f602084013e6108b8565b606091505b5091509150816108cb576108cb816109df565b50505050565b5f6108da61064a565b8267ffffffffffffffff1610156108f257505f61041c565b6108fa610680565b8267ffffffffffffffff161061091157508161041c565b7f000000000000000000000000000000000000000000000000000000000000000067ffffffffffffffff1661094461064a565b6109589067ffffffffffffffff8516610b48565b6109629085610b5b565b61096c9190610b72565b905061041c565b5f8060205f8451602086015f885af180610992576040513d5f823e3d81fd5b50505f513d915081156109a95780600114156109b6565b6001600160a01b0384163b155b156108cb57604051635274afe760e01b81526001600160a01b03851660048201526024016106eb565b8051156109ef5780518082602001fd5b60405163d6bda27560e01b815260040160405180910390fd5b803567ffffffffffffffff81168114610a1f575f80fd5b919050565b5f60208284031215610a34575f80fd5b61050782610a08565b80356001600160a01b0381168114610a1f575f80fd5b5f60208284031215610a63575f80fd5b61050782610a3d565b5f602080835283518060208501525f5b81811015610a9857858101830151858201604001528201610a7c565b505f604082860101526040601f19601f8301168501019250505092915050565b5f8060408385031215610ac9575f80fd5b82359150610ad960208401610a08565b90509250929050565b5f8060408385031215610af3575f80fd5b610afc83610a3d565b9150610ad960208401610a08565b634e487b7160e01b5f52601160045260245ffd5b8082018082111561041c5761041c610b0a565b5f60208284031215610b41575f80fd5b5051919050565b8181038181111561041c5761041c610b0a565b808202811582820484141761041c5761041c610b0a565b5f82610b8c57634e487b7160e01b5f52601260045260245ffd5b50049056fea2646970667358221220be9469e85ceaf679f6cee634a8f2d6360db88cc691abd364a56b7eb60a8bd23d64736f6c63430008180033",
  "linkReferences": {},
  "deployedLinkReferences": {}
}