{
  "_format": "hh-sol-artifact-1",
  "contractName": "MyGovernor",
  "sourceName": "contracts/mocks/docs/governance/MyGovernor.sol",
  "abi": [
    {
      "inputs": [
        {
          "internalType": "contract IVotes",
          "name": "_token",
          "type": "address"
        },
        {
          "internalType": "contract TimelockController",
          "name": "_timelock",
          "type": "address"
        }
      ],
      "stateMutability": "nonpayable",
      "type": "constructor"
    },
    {
      "inputs": [],
      "name": "CheckpointUnorderedInsertion",
      "type": "error"
    },
    {
      "inputs": [],
      "name": "FailedCall",
      "type": "error"
    },
    {
      "inputs": [
        {
          "internalType": "address",
          "name": "voter",
          "type": "address"
        }
      ],
      "name": "GovernorAlreadyCastVote",
      "type": "error"
    },
    {
      "inputs": [
        {
          "internalType": "uint256",
          "name": "proposalId",
          "type": "uint256"
        }
      ],
      "name": "GovernorAlreadyQueuedProposal",
      "type": "error"
    },
    {
      "inputs": [],
      "name": "GovernorDisabledDeposit",
      "type": "error"
    },
    {
      "inputs": [
        {
          "internalType": "address",
          "name": "proposer",
          "type": "address"
        },
        {
          "internalType": "uint256",
          "name": "votes",
          "type": "uint256"
        },
        {
          "internalType": "uint256",
          "name": "threshold",
          "type": "uint256"
        }
      ],
      "name": "GovernorInsufficientProposerVotes",
      "type": "error"
    },
    {
      "inputs": [
        {
          "internalType": "uint256",
          "name": "targets",
          "type": "uint256"
        },
        {
          "internalType": "uint256",
          "name": "calldatas",
          "type": "uint256"
        },
        {
          "internalType": "uint256",
          "name": "values",
          "type": "uint256"
        }
      ],
      "name": "GovernorInvalidProposalLength",
      "type": "error"
    },
    {
      "inputs": [
        {
          "internalType": "uint256",
          "name": "quorumNumerator",
          "type": "uint256"
        },
        {
          "internalType": "uint256",
          "name": "quorumDenominator",
          "type": "uint256"
        }
      ],
      "name": "GovernorInvalidQuorumFraction",
      "type": "error"
    },
    {
      "inputs": [
        {
          "internalType": "address",
          "name": "voter",
          "type": "address"
        }
      ],
      "name": "GovernorInvalidSignature",
      "type": "error"
    },
    {
      "inputs": [],
      "name": "GovernorInvalidVoteParams",
      "type": "error"
    },
    {
      "inputs": [],
      "name": "GovernorInvalidVoteType",
      "type": "error"
    },
    {
      "inputs": [
        {
          "internalType": "uint256",
          "name": "votingPeriod",
          "type": "uint256"
        }
      ],
      "name": "GovernorInvalidVotingPeriod",
      "type": "error"
    },
    {
      "inputs": [
        {
          "internalType": "uint256",
          "name": "proposalId",
          "type": "uint256"
        }
      ],
      "name": "GovernorNonexistentProposal",
      "type": "error"
    },
    {
      "inputs": [
        {
          "internalType": "uint256",
          "name": "proposalId",
          "type": "uint256"
        }
      ],
      "name": "GovernorNotQueuedProposal",
      "type": "error"
    },
    {
      "inputs": [
        {
          "internalType": "address",
          "name": "account",
          "type": "address"
        }
      ],
      "name": "GovernorOnlyExecutor",
      "type": "error"
    },
    {
      "inputs": [
        {
          "internalType": "address",
          "name": "account",
          "type": "address"
        }
      ],
      "name": "GovernorOnlyProposer",
      "type": "error"
    },
    {
      "inputs": [],
      "name": "GovernorQueueNotImplemented",
      "type": "error"
    },
    {
      "inputs": [
        {
          "internalType": "address",
          "name": "proposer",
          "type": "address"
        }
      ],
      "name": "GovernorRestrictedProposer",
      "type": "error"
    },
    {
      "inputs": [
        {
          "internalType": "uint256",
          "name": "proposalId",
          "type": "uint256"
        },
        {
          "internalType": "enum IGovernor.ProposalState",
          "name": "current",
          "type": "uint8"
        },
        {
          "internalType": "bytes32",
          "name": "expectedStates",
          "type": "bytes32"
        }
      ],
      "name": "GovernorUnexpectedProposalState",
      "type": "error"
    },
    {
      "inputs": [
        {
          "internalType": "address",
          "name": "account",
          "type": "address"
        },
        {
          "internalType": "uint256",
          "name": "currentNonce",
          "type": "uint256"
        }
      ],
      "name": "InvalidAccountNonce",
      "type": "error"
    },
    {
      "inputs": [],
      "name": "InvalidShortString",
      "type": "error"
    },
    {
      "inputs": [
        {
          "internalType": "uint8",
          "name": "bits",
          "type": "uint8"
        },
        {
          "internalType": "uint256",
          "name": "value",
          "type": "uint256"
        }
      ],
      "name": "SafeCastOverflowedUintDowncast",
      "type": "error"
    },
    {
      "inputs": [
        {
          "internalType": "string",
          "name": "str",
          "type": "string"
        }
      ],
      "name": "StringTooLong",
      "type": "error"
    },
    {
      "anonymous": false,
      "inputs": [],
      "name": "EIP712DomainChanged",
      "type": "event"
    },
    {
      "anonymous": false,
      "inputs": [
        {
          "indexed": false,
          "internalType": "uint256",
          "name": "proposalId",
          "type": "uint256"
        }
      ],
      "name": "ProposalCanceled",
      "type": "event"
    },
    {
      "anonymous": false,
      "inputs": [
        {
          "indexed": false,
          "internalType": "uint256",
          "name": "proposalId",
          "type": "uint256"
        },
        {
          "indexed": false,
          "internalType": "address",
          "name": "proposer",
          "type": "address"
        },
        {
          "indexed": false,
          "internalType": "address[]",
          "name": "targets",
          "type": "address[]"
        },
        {
          "indexed": false,
          "internalType": "uint256[]",
          "name": "values",
          "type": "uint256[]"
        },
        {
          "indexed": false,
          "internalType": "string[]",
          "name": "signatures",
          "type": "string[]"
        },
        {
          "indexed": false,
          "internalType": "bytes[]",
          "name": "calldatas",
          "type": "bytes[]"
        },
        {
          "indexed": false,
          "internalType": "uint256",
          "name": "voteStart",
          "type": "uint256"
        },
        {
          "indexed": false,
          "internalType": "uint256",
          "name": "voteEnd",
          "type": "uint256"
        },
        {
          "indexed": false,
          "internalType": "string",
          "name": "description",
          "type": "string"
        }
      ],
      "name": "ProposalCreated",
      "type": "event"
    },
    {
      "anonymous": false,
      "inputs": [
        {
          "indexed": false,
          "internalType": "uint256",
          "name": "proposalId",
          "type": "uint256"
        }
      ],
      "name": "ProposalExecuted",
      "type": "event"
    },
    {
      "anonymous": false,
      "inputs": [
        {
          "indexed": false,
          "internalType": "uint256",
          "name": "proposalId",
          "type": "uint256"
        },
        {
          "indexed": false,
          "internalType": "uint256",
          "name": "etaSeconds",
          "type": "uint256"
        }
      ],
      "name": "ProposalQueued",
      "type": "event"
    },
    {
      "anonymous": false,
      "inputs": [
        {
          "indexed": false,
          "internalType": "uint256",
          "name": "oldQuorumNumerator",
          "type": "uint256"
        },
        {
          "indexed": false,
          "internalType": "uint256",
          "name": "newQuorumNumerator",
          "type": "uint256"
        }
      ],
      "name": "QuorumNumeratorUpdated",
      "type": "event"
    },
    {
      "anonymous": false,
      "inputs": [
        {
          "indexed": false,
          "internalType": "address",
          "name": "oldTimelock",
          "type": "address"
        },
        {
          "indexed": false,
          "internalType": "address",
          "name": "newTimelock",
          "type": "address"
        }
      ],
      "name": "TimelockChange",
      "type": "event"
    },
    {
      "anonymous": false,
      "inputs": [
        {
          "indexed": true,
          "internalType": "address",
          "name": "voter",
          "type": "address"
        },
        {
          "indexed": false,
          "internalType": "uint256",
          "name": "proposalId",
          "type": "uint256"
        },
        {
          "indexed": false,
          "internalType": "uint8",
          "name": "support",
          "type": "uint8"
        },
        {
          "indexed": false,
          "internalType": "uint256",
          "name": "weight",
          "type": "uint256"
        },
        {
          "indexed": false,
          "internalType": "string",
          "name": "reason",
          "type": "string"
        }
      ],
      "name": "VoteCast",
      "type": "event"
    },
    {
      "anonymous": false,
      "inputs": [
        {
          "indexed": true,
          "internalType": "address",
          "name": "voter",
          "type": "address"
        },
        {
          "indexed": false,
          "internalType": "uint256",
          "name": "proposalId",
          "type": "uint256"
        },
        {
          "indexed": false,
          "internalType": "uint8",
          "name": "support",
          "type": "uint8"
        },
        {
          "indexed": false,
          "internalType": "uint256",
          "name": "weight",
          "type": "uint256"
        },
        {
          "indexed": false,
          "internalType": "string",
          "name": "reason",
          "type": "string"
        },
        {
          "indexed": false,
          "internalType": "bytes",
          "name": "params",
          "type": "bytes"
        }
      ],
      "name": "VoteCastWithParams",
      "type": "event"
    },
    {
      "inputs": [],
      "name": "BALLOT_TYPEHASH",
      "outputs": [
        {
          "internalType": "bytes32",
          "name": "",
          "type": "bytes32"
        }
      ],
      "stateMutability": "view",
      "type": "function"
    },
    {
      "inputs": [],
      "name": "CLOCK_MODE",
      "outputs": [
        {
          "internalType": "string",
          "name": "",
          "type": "string"
        }
      ],
      "stateMutability": "view",
      "type": "function"
    },
    {
      "inputs": [],
      "name": "COUNTING_MODE",
      "outputs": [
        {
          "internalType": "string",
          "name": "",
          "type": "string"
        }
      ],
      "stateMutability": "pure",
      "type": "function"
    },
    {
      "inputs": [],
      "name": "EXTENDED_BALLOT_TYPEHASH",
      "outputs": [
        {
          "internalType": "bytes32",
          "name": "",
          "type": "bytes32"
        }
      ],
      "stateMutability": "view",
      "type": "function"
    },
    {
      "inputs": [
        {
          "internalType": "address[]",
          "name": "targets",
          "type": "address[]"
        },
        {
          "internalType": "uint256[]",
          "name": "values",
          "type": "uint256[]"
        },
        {
          "internalType": "bytes[]",
          "name": "calldatas",
          "type": "bytes[]"
        },
        {
          "internalType": "bytes32",
          "name": "descriptionHash",
          "type": "bytes32"
        }
      ],
      "name": "cancel",
      "outputs": [
        {
          "internalType": "uint256",
          "name": "",
          "type": "uint256"
        }
      ],
      "stateMutability": "nonpayable",
      "type": "function"
    },
    {
      "inputs": [
        {
          "internalType": "uint256",
          "name": "proposalId",
          "type": "uint256"
        },
        {
          "internalType": "uint8",
          "name": "support",
          "type": "uint8"
        }
      ],
      "name": "castVote",
      "outputs": [
        {
          "internalType": "uint256",
          "name": "",
          "type": "uint256"
        }
      ],
      "stateMutability": "nonpayable",
      "type": "function"
    },
    {
      "inputs": [
        {
          "internalType": "uint256",
          "name": "proposalId",
          "type": "uint256"
        },
        {
          "internalType": "uint8",
          "name": "support",
          "type": "uint8"
        },
        {
          "internalType": "address",
          "name": "voter",
          "type": "address"
        },
        {
          "internalType": "bytes",
          "name": "signature",
          "type": "bytes"
        }
      ],
      "name": "castVoteBySig",
      "outputs": [
        {
          "internalType": "uint256",
          "name": "",
          "type": "uint256"
        }
      ],
      "stateMutability": "nonpayable",
      "type": "function"
    },
    {
      "inputs": [
        {
          "internalType": "uint256",
          "name": "proposalId",
          "type": "uint256"
        },
        {
          "internalType": "uint8",
          "name": "support",
          "type": "uint8"
        },
        {
          "internalType": "string",
          "name": "reason",
          "type": "string"
        }
      ],
      "name": "castVoteWithReason",
      "outputs": [
        {
          "internalType": "uint256",
          "name": "",
          "type": "uint256"
        }
      ],
      "stateMutability": "nonpayable",
      "type": "function"
    },
    {
      "inputs": [
        {
          "internalType": "uint256",
          "name": "proposalId",
          "type": "uint256"
        },
        {
          "internalType": "uint8",
          "name": "support",
          "type": "uint8"
        },
        {
          "internalType": "string",
          "name": "reason",
          "type": "string"
        },
        {
          "internalType": "bytes",
          "name": "params",
          "type": "bytes"
        }
      ],
      "name": "castVoteWithReasonAndParams",
      "outputs": [
        {
          "internalType": "uint256",
          "name": "",
          "type": "uint256"
        }
      ],
      "stateMutability": "nonpayable",
      "type": "function"
    },
    {
      "inputs": [
        {
          "internalType": "uint256",
          "name": "proposalId",
          "type": "uint256"
        },
        {
          "internalType": "uint8",
          "name": "support",
          "type": "uint8"
        },
        {
          "internalType": "address",
          "name": "voter",
          "type": "address"
        },
        {
          "internalType": "string",
          "name": "reason",
          "type": "string"
        },
        {
          "internalType": "bytes",
          "name": "params",
          "type": "bytes"
        },
        {
          "internalType": "bytes",
          "name": "signature",
          "type": "bytes"
        }
      ],
      "name": "castVoteWithReasonAndParamsBySig",
      "outputs": [
        {
          "internalType": "uint256",
          "name": "",
          "type": "uint256"
        }
      ],
      "stateMutability": "nonpayable",
      "type": "function"
    },
    {
      "inputs": [],
      "name": "clock",
      "outputs": [
        {
          "internalType": "uint48",
          "name": "",
          "type": "uint48"
        }
      ],
      "stateMutability": "view",
      "type": "function"
    },
    {
      "inputs": [],
      "name": "eip712Domain",
      "outputs": [
        {
          "internalType": "bytes1",
          "name": "fields",
          "type": "bytes1"
        },
        {
          "internalType": "string",
          "name": "name",
          "type": "string"
        },
        {
          "internalType": "string",
          "name": "version",
          "type": "string"
        },
        {
          "internalType": "uint256",
          "name": "chainId",
          "type": "uint256"
        },
        {
          "internalType": "address",
          "name": "verifyingContract",
          "type": "address"
        },
        {
          "internalType": "bytes32",
          "name": "salt",
          "type": "bytes32"
        },
        {
          "internalType": "uint256[]",
          "name": "extensions",
          "type": "uint256[]"
        }
      ],
      "stateMutability": "view",
      "type": "function"
    },
    {
      "inputs": [
        {
          "internalType": "address[]",
          "name": "targets",
          "type": "address[]"
        },
        {
          "internalType": "uint256[]",
          "name": "values",
          "type": "uint256[]"
        },
        {
          "internalType": "bytes[]",
          "name": "calldatas",
          "type": "bytes[]"
        },
        {
          "internalType": "bytes32",
          "name": "descriptionHash",
          "type": "bytes32"
        }
      ],
      "name": "execute",
      "outputs": [
        {
          "internalType": "uint256",
          "name": "",
          "type": "uint256"
        }
      ],
      "stateMutability": "payable",
      "type": "function"
    },
    {
      "inputs": [
        {
          "internalType": "address[]",
          "name": "targets",
          "type": "address[]"
        },
        {
          "internalType": "uint256[]",
          "name": "values",
          "type": "uint256[]"
        },
        {
          "internalType": "bytes[]",
          "name": "calldatas",
          "type": "bytes[]"
        },
        {
          "internalType": "bytes32",
          "name": "descriptionHash",
          "type": "bytes32"
        }
      ],
      "name": "getProposalId",
      "outputs": [
        {
          "internalType": "uint256",
          "name": "",
          "type": "uint256"
        }
      ],
      "stateMutability": "view",
      "type": "function"
    },
    {
      "inputs": [
        {
          "internalType": "address",
          "name": "account",
          "type": "address"
        },
        {
          "internalType": "uint256",
          "name": "timepoint",
          "type": "uint256"
        }
      ],
      "name": "getVotes",
      "outputs": [
        {
          "internalType": "uint256",
          "name": "",
          "type": "uint256"
        }
      ],
      "stateMutability": "view",
      "type": "function"
    },
    {
      "inputs": [
        {
          "internalType": "address",
          "name": "account",
          "type": "address"
        },
        {
          "internalType": "uint256",
          "name": "timepoint",
          "type": "uint256"
        },
        {
          "internalType": "bytes",
          "name": "params",
          "type": "bytes"
        }
      ],
      "name": "getVotesWithParams",
      "outputs": [
        {
          "internalType": "uint256",
          "name": "",
          "type": "uint256"
        }
      ],
      "stateMutability": "view",
      "type": "function"
    },
    {
      "inputs": [
        {
          "internalType": "uint256",
          "name": "proposalId",
          "type": "uint256"
        },
        {
          "internalType": "address",
          "name": "account",
          "type": "address"
        }
      ],
      "name": "hasVoted",
      "outputs": [
        {
          "internalType": "bool",
          "name": "",
          "type": "bool"
        }
      ],
      "stateMutability": "view",
      "type": "function"
    },
    {
      "inputs": [
        {
          "internalType": "address[]",
          "name": "targets",
          "type": "address[]"
        },
        {
          "internalType": "uint256[]",
          "name": "values",
          "type": "uint256[]"
        },
        {
          "internalType": "bytes[]",
          "name": "calldatas",
          "type": "bytes[]"
        },
        {
          "internalType": "bytes32",
          "name": "descriptionHash",
          "type": "bytes32"
        }
      ],
      "name": "hashProposal",
      "outputs": [
        {
          "internalType": "uint256",
          "name": "",
          "type": "uint256"
        }
      ],
      "stateMutability": "pure",
      "type": "function"
    },
    {
      "inputs": [],
      "name": "name",
      "outputs": [
        {
          "internalType": "string",
          "name": "",
          "type": "string"
        }
      ],
      "stateMutability": "view",
      "type": "function"
    },
    {
      "inputs": [
        {
          "internalType": "address",
          "name": "owner",
          "type": "address"
        }
      ],
      "name": "nonces",
      "outputs": [
        {
          "internalType": "uint256",
          "name": "",
          "type": "uint256"
        }
      ],
      "stateMutability": "view",
      "type": "function"
    },
    {
      "inputs": [
        {
          "internalType": "address",
          "name": "",
          "type": "address"
        },
        {
          "internalType": "address",
          "name": "",
          "type": "address"
        },
        {
          "internalType": "uint256[]",
          "name": "",
          "type": "uint256[]"
        },
        {
          "internalType": "uint256[]",
          "name": "",
          "type": "uint256[]"
        },
        {
          "internalType": "bytes",
          "name": "",
          "type": "bytes"
        }
      ],
      "name": "onERC1155BatchReceived",
      "outputs": [
        {
          "internalType": "bytes4",
          "name": "",
          "type": "bytes4"
        }
      ],
      "stateMutability": "nonpayable",
      "type": "function"
    },
    {
      "inputs": [
        {
          "internalType": "address",
          "name": "",
          "type": "address"
        },
        {
          "internalType": "address",
          "name": "",
          "type": "address"
        },
        {
          "internalType": "uint256",
          "name": "",
          "type": "uint256"
        },
        {
          "internalType": "uint256",
          "name": "",
          "type": "uint256"
        },
        {
          "internalType": "bytes",
          "name": "",
          "type": "bytes"
        }
      ],
      "name": "onERC1155Received",
      "outputs": [
        {
          "internalType": "bytes4",
          "name": "",
          "type": "bytes4"
        }
      ],
      "stateMutability": "nonpayable",
      "type": "function"
    },
    {
      "inputs": [
        {
          "internalType": "address",
          "name": "",
          "type": "address"
        },
        {
          "internalType": "address",
          "name": "",
          "type": "address"
        },
        {
          "internalType": "uint256",
          "name": "",
          "type": "uint256"
        },
        {
          "internalType": "bytes",
          "name": "",
          "type": "bytes"
        }
      ],
      "name": "onERC721Received",
      "outputs": [
        {
          "internalType": "bytes4",
          "name": "",
          "type": "bytes4"
        }
      ],
      "stateMutability": "nonpayable",
      "type": "function"
    },
    {
      "inputs": [
        {
          "internalType": "uint256",
          "name": "proposalId",
          "type": "uint256"
        }
      ],
      "name": "proposalDeadline",
      "outputs": [
        {
          "internalType": "uint256",
          "name": "",
          "type": "uint256"
        }
      ],
      "stateMutability": "view",
      "type": "function"
    },
    {
      "inputs": [
        {
          "internalType": "uint256",
          "name": "proposalId",
          "type": "uint256"
        }
      ],
      "name": "proposalEta",
      "outputs": [
        {
          "internalType": "uint256",
          "name": "",
          "type": "uint256"
        }
      ],
      "stateMutability": "view",
      "type": "function"
    },
    {
      "inputs": [
        {
          "internalType": "uint256",
          "name": "proposalId",
          "type": "uint256"
        }
      ],
      "name": "proposalNeedsQueuing",
      "outputs": [
        {
          "internalType": "bool",
          "name": "",
          "type": "bool"
        }
      ],
      "stateMutability": "view",
      "type": "function"
    },
    {
      "inputs": [
        {
          "internalType": "uint256",
          "name": "proposalId",
          "type": "uint256"
        }
      ],
      "name": "proposalProposer",
      "outputs": [
        {
          "internalType": "address",
          "name": "",
          "type": "address"
        }
      ],
      "stateMutability": "view",
      "type": "function"
    },
    {
      "inputs": [
        {
          "internalType": "uint256",
          "name": "proposalId",
          "type": "uint256"
        }
      ],
      "name": "proposalSnapshot",
      "outputs": [
        {
          "internalType": "uint256",
          "name": "",
          "type": "uint256"
        }
      ],
      "stateMutability": "view",
      "type": "function"
    },
    {
      "inputs": [],
      "name": "proposalThreshold",
      "outputs": [
        {
          "internalType": "uint256",
          "name": "",
          "type": "uint256"
        }
      ],
      "stateMutability": "pure",
      "type": "function"
    },
    {
      "inputs": [
        {
          "internalType": "uint256",
          "name": "proposalId",
          "type": "uint256"
        }
      ],
      "name": "proposalVotes",
      "outputs": [
        {
          "internalType": "uint256",
          "name": "againstVotes",
          "type": "uint256"
        },
        {
          "internalType": "uint256",
          "name": "forVotes",
          "type": "uint256"
        },
        {
          "internalType": "uint256",
          "name": "abstainVotes",
          "type": "uint256"
        }
      ],
      "stateMutability": "view",
      "type": "function"
    },
    {
      "inputs": [
        {
          "internalType": "address[]",
          "name": "targets",
          "type": "address[]"
        },
        {
          "internalType": "uint256[]",
          "name": "values",
          "type": "uint256[]"
        },
        {
          "internalType": "bytes[]",
          "name": "calldatas",
          "type": "bytes[]"
        },
        {
          "internalType": "string",
          "name": "description",
          "type": "string"
        }
      ],
      "name": "propose",
      "outputs": [
        {
          "internalType": "uint256",
          "name": "",
          "type": "uint256"
        }
      ],
      "stateMutability": "nonpayable",
      "type": "function"
    },
    {
      "inputs": [
        {
          "internalType": "address[]",
          "name": "targets",
          "type": "address[]"
        },
        {
          "internalType": "uint256[]",
          "name": "values",
          "type": "uint256[]"
        },
        {
          "internalType": "bytes[]",
          "name": "calldatas",
          "type": "bytes[]"
        },
        {
          "internalType": "bytes32",
          "name": "descriptionHash",
          "type": "bytes32"
        }
      ],
      "name": "queue",
      "outputs": [
        {
          "internalType": "uint256",
          "name": "",
          "type": "uint256"
        }
      ],
      "stateMutability": "nonpayable",
      "type": "function"
    },
    {
      "inputs": [
        {
          "internalType": "uint256",
          "name": "timepoint",
          "type": "uint256"
        }
      ],
      "name": "quorum",
      "outputs": [
        {
          "internalType": "uint256",
          "name": "",
          "type": "uint256"
        }
      ],
      "stateMutability": "view",
      "type": "function"
    },
    {
      "inputs": [],
      "name": "quorumDenominator",
      "outputs": [
        {
          "internalType": "uint256",
          "name": "",
          "type": "uint256"
        }
      ],
      "stateMutability": "view",
      "type": "function"
    },
    {
      "inputs": [
        {
          "internalType": "uint256",
          "name": "timepoint",
          "type": "uint256"
        }
      ],
      "name": "quorumNumerator",
      "outputs": [
        {
          "internalType": "uint256",
          "name": "",
          "type": "uint256"
        }
      ],
      "stateMutability": "view",
      "type": "function"
    },
    {
      "inputs": [],
      "name": "quorumNumerator",
      "outputs": [
        {
          "internalType": "uint256",
          "name": "",
          "type": "uint256"
        }
      ],
      "stateMutability": "view",
      "type": "function"
    },
    {
      "inputs": [
        {
          "internalType": "address",
          "name": "target",
          "type": "address"
        },
        {
          "internalType": "uint256",
          "name": "value",
          "type": "uint256"
        },
        {
          "internalType": "bytes",
          "name": "data",
          "type": "bytes"
        }
      ],
      "name": "relay",
      "outputs": [],
      "stateMutability": "payable",
      "type": "function"
    },
    {
      "inputs": [
        {
          "internalType": "uint256",
          "name": "proposalId",
          "type": "uint256"
        }
      ],
      "name": "state",
      "outputs": [
        {
          "internalType": "enum IGovernor.ProposalState",
          "name": "",
          "type": "uint8"
        }
      ],
      "stateMutability": "view",
      "type": "function"
    },
    {
      "inputs": [
        {
          "internalType": "bytes4",
          "name": "interfaceId",
          "type": "bytes4"
        }
      ],
      "name": "supportsInterface",
      "outputs": [
        {
          "internalType": "bool",
          "name": "",
          "type": "bool"
        }
      ],
      "stateMutability": "view",
      "type": "function"
    },
    {
      "inputs": [],
      "name": "timelock",
      "outputs": [
        {
          "internalType": "address",
          "name": "",
          "type": "address"
        }
      ],
      "stateMutability": "view",
      "type": "function"
    },
    {
      "inputs": [],
      "name": "token",
      "outputs": [
        {
          "internalType": "contract IERC5805",
          "name": "",
          "type": "address"
        }
      ],
      "stateMutability": "view",
      "type": "function"
    },
    {
      "inputs": [
        {
          "internalType": "uint256",
          "name": "newQuorumNumerator",
          "type": "uint256"
        }
      ],
      "name": "updateQuorumNumerator",
      "outputs": [],
      "stateMutability": "nonpayable",
      "type": "function"
    },
    {
      "inputs": [
        {
          "internalType": "contract TimelockController",
          "name": "newTimelock",
          "type": "address"
        }
      ],
      "name": "updateTimelock",
      "outputs": [],
      "stateMutability": "nonpayable",
      "type": "function"
    },
    {
      "inputs": [],
      "name": "version",
      "outputs": [
        {
          "internalType": "string",
          "name": "",
          "type": "string"
        }
      ],
      "stateMutability": "view",
      "type": "function"
    },
    {
      "inputs": [],
      "name": "votingDelay",
      "outputs": [
        {
          "internalType": "uint256",
          "name": "",
          "type": "uint256"
        }
      ],
      "stateMutability": "pure",
      "type": "function"
    },
    {
      "inputs": [],
      "name": "votingPeriod",
      "outputs": [
        {
          "internalType": "uint256",
          "name": "",
          "type": "uint256"
        }
      ],
      "stateMutability": "pure",
      "type": "function"
    },
    {
      "stateMutability": "payable",
      "type": "receive"
    }
  ],
  "bytecode": "0x61018060405234801562000011575f80fd5b506040516200480a3803806200480a8339810160408190526200003491620005f8565b806004836040518060400160405280600a81526020016926bca3b7bb32b93737b960b11b815250806200006c6200015c60201b60201c565b62000078825f62000177565b610120526200008981600162000177565b61014052815160208084019190912060e052815190820120610100524660a0526200011660e05161010051604080517f8b73c3c69bb8fe3d512ecc4cf759cc79239f7b179b0ffacaa9a75d522b39400f60208201529081019290925260608201524660808201523060a08201525f9060c00160405160208183030381529060405280519060200120905090565b60805250503060c05260036200012d8282620006d3565b50506001600160a01b0316610160526200014781620001af565b50620001538162000252565b50505062000858565b6040805180820190915260018152603160f81b602082015290565b5f60208351101562000196576200018e83620002bb565b9050620001a9565b81620001a38482620006d3565b5060ff90505b92915050565b606480821115620001e25760405163243e544560e01b815260048101839052602481018290526044015b60405180910390fd5b5f620001ed620002fd565b905062000212620001fd62000318565b620002088562000399565b60089190620003d2565b505060408051828152602081018590527f0553476bf02ef2726e8ce5ced78d63e26e602e4a2257b1f559418e24b4633997910160405180910390a1505050565b600954604080516001600160a01b03928316815291831660208301527f08f74ea46ef7894f65eabfb5e6e695de773a000b47c529ab559178069b226401910160405180910390a1600980546001600160a01b0319166001600160a01b0392909216919091179055565b5f80829050601f81511115620002e8578260405163305a27a960e01b8152600401620001d991906200079f565b8051620002f582620007ed565b179392505050565b5f6200030a6008620003ee565b6001600160d01b0316905090565b5f620003246101605190565b6001600160a01b03166391ddadf46040518163ffffffff1660e01b8152600401602060405180830381865afa92505050801562000380575060408051601f3d908101601f191682019092526200037d9181019062000811565b60015b62000394576200038f6200043b565b905090565b919050565b5f6001600160d01b03821115620003ce576040516306dfcc6560e41b815260d0600482015260248101839052604401620001d9565b5090565b5f80620003e185858562000447565b915091505b935093915050565b80545f908015620004325762000418836200040b60018462000838565b5f91825260209091200190565b54660100000000000090046001600160d01b031662000434565b5f5b9392505050565b5f6200038f43620005ac565b82545f90819080156200054e575f62000467876200040b60018562000838565b805490915065ffffffffffff80821691660100000000000090046001600160d01b0316908816821115620004ae57604051632520601d60e01b815260040160405180910390fd5b8765ffffffffffff168265ffffffffffff1603620004ec57825465ffffffffffff1666010000000000006001600160d01b038916021783556200053f565b6040805180820190915265ffffffffffff808a1682526001600160d01b03808a1660208085019182528d54600181018f555f8f815291909120945191519092166601000000000000029216919091179101555b9450859350620003e692505050565b50506040805180820190915265ffffffffffff80851682526001600160d01b0380851660208085019182528854600181018a555f8a8152918220955192519093166601000000000000029190931617920191909155905081620003e6565b5f65ffffffffffff821115620003ce576040516306dfcc6560e41b81526030600482015260248101839052604401620001d9565b6001600160a01b0381168114620005f5575f80fd5b50565b5f80604083850312156200060a575f80fd5b82516200061781620005e0565b60208401519092506200062a81620005e0565b809150509250929050565b634e487b7160e01b5f52604160045260245ffd5b600181811c908216806200065e57607f821691505b6020821081036200067d57634e487b7160e01b5f52602260045260245ffd5b50919050565b601f821115620006ce57805f5260205f20601f840160051c81016020851015620006aa5750805b601f840160051c820191505b81811015620006cb575f8155600101620006b6565b50505b505050565b81516001600160401b03811115620006ef57620006ef62000635565b620007078162000700845462000649565b8462000683565b602080601f8311600181146200073d575f8415620007255750858301515b5f19600386901b1c1916600185901b17855562000797565b5f85815260208120601f198616915b828110156200076d578886015182559484019460019091019084016200074c565b50858210156200078b57878501515f19600388901b60f8161c191681555b505060018460011b0185555b505050505050565b5f602080835283518060208501525f5b81811015620007cd57858101830151858201604001528201620007af565b505f604082860101526040601f19601f8301168501019250505092915050565b805160208083015191908110156200067d575f1960209190910360031b1b16919050565b5f6020828403121562000822575f80fd5b815165ffffffffffff8116811462000434575f80fd5b81810381811115620001a957634e487b7160e01b5f52601160045260245ffd5b60805160a05160c05160e05161010051610120516101405161016051613f3a620008d05f395f818161093e01528181610d9f01528181611259015281816115010152611e2001525f611ded01525f611dc101525f61250501525f6124dd01525f61243801525f61246201525f61248c0152613f3a5ff3fe608060405260043610610278575f3560e01c80637ecebe001161014a578063b58131b0116100be578063dd4e2ba511610078578063dd4e2ba51461085b578063deaaa7cc146108a0578063eb9019d4146108d3578063f23a6e61146108f2578063f8ce560a14610911578063fc0c546a14610930575f80fd5b8063b58131b0146107bc578063bc197c81146107ce578063c01f9e37146107ed578063c28bc2fa1461080c578063c59057e41461081f578063d33219b41461083e575f80fd5b80639a802a6d1161010f5780639a802a6d146106f6578063a7713a7014610715578063a890c91014610729578063a8f8a66814610748578063a9a9529414610767578063ab58fb8e14610786575f80fd5b80637ecebe001461063e57806384b0196e146106725780638ff262e31461069957806391ddadf4146106b857806397c3d334146106e3575f80fd5b80633e4f49e6116101ec57806356781388116101a657806356781388146105845780635b8d0e0d146105a35780635f398a14146105c257806360c4247f146105e15780637b3c71d3146106005780637d5e81e21461061f575f80fd5b80633e4f49e614610461578063438596321461048d578063452115d6146104d55780634bf5d7e9146104f4578063544ffc9c1461050857806354fd4d501461055b575f80fd5b8063150b7a021161023d578063150b7a0214610391578063160cbed7146103c95780632656227d146103e85780632d63f693146103fb5780632fe3e2611461041a5780633932abb11461044d575f80fd5b806301ffc9a7146102b357806302a251a3146102e757806306f3f9e61461030557806306fdde0314610324578063143489d014610345575f80fd5b366102af5730610286610962565b6001600160a01b0316146102ad57604051637485328f60e11b815260040160405180910390fd5b005b5f80fd5b3480156102be575f80fd5b506102d26102cd366004612f86565b61097a565b60405190151581526020015b60405180910390f35b3480156102f2575f80fd5b5061c4e05b6040519081526020016102de565b348015610310575f80fd5b506102ad61031f366004612fad565b6109e6565b34801561032f575f80fd5b506103386109fa565b6040516102de9190613011565b348015610350575f80fd5b5061037961035f366004612fad565b5f908152600460205260409020546001600160a01b031690565b6040516001600160a01b0390911681526020016102de565b34801561039c575f80fd5b506103b06103ab3660046130fa565b610a8a565b6040516001600160e01b031990911681526020016102de565b3480156103d4575f80fd5b506102f76103e33660046132c9565b610acc565b6102f76103f63660046132c9565b610b98565b348015610406575f80fd5b506102f7610415366004612fad565b610d00565b348015610425575f80fd5b506102f77f3e83946653575f9a39005e1545185629e92736b7528ab20ca3816f315424a81181565b348015610458575f80fd5b50611c206102f7565b34801561046c575f80fd5b5061048061047b366004612fad565b610d20565b6040516102de9190613386565b348015610498575f80fd5b506102d26104a7366004613394565b5f8281526007602090815260408083206001600160a01b038516845260030190915290205460ff1692915050565b3480156104e0575f80fd5b506102f76104ef3660046132c9565b610d2a565b3480156104ff575f80fd5b50610338610d9b565b348015610513575f80fd5b50610540610522366004612fad565b5f908152600760205260409020805460018201546002909201549092565b604080519384526020840192909252908201526060016102de565b348015610566575f80fd5b506040805180820190915260018152603160f81b6020820152610338565b34801561058f575f80fd5b506102f761059e3660046133d2565b610e5b565b3480156105ae575f80fd5b506102f76105bd366004613440565b610e82565b3480156105cd575f80fd5b506102f76105dc3660046134f2565b610fde565b3480156105ec575f80fd5b506102f76105fb366004612fad565b611031565b34801561060b575f80fd5b506102f761061a36600461356f565b6110bd565b34801561062a575f80fd5b506102f76106393660046135c4565b611103565b348015610649575f80fd5b506102f7610658366004613670565b6001600160a01b03165f9081526002602052604090205490565b34801561067d575f80fd5b50610686611145565b6040516102de97969594939291906136c5565b3480156106a4575f80fd5b506102f76106b3366004613734565b611187565b3480156106c3575f80fd5b506106cc611256565b60405165ffffffffffff90911681526020016102de565b3480156106ee575f80fd5b5060646102f7565b348015610701575f80fd5b506102f7610710366004613781565b6112dd565b348015610720575f80fd5b506102f76112f3565b348015610734575f80fd5b506102ad610743366004613670565b61130c565b348015610753575f80fd5b506102f76107623660046132c9565b61131d565b348015610772575f80fd5b506102d2610781366004612fad565b611333565b348015610791575f80fd5b506102f76107a0366004612fad565b5f9081526004602052604090206001015465ffffffffffff1690565b3480156107c7575f80fd5b505f6102f7565b3480156107d9575f80fd5b506103b06107e83660046137d5565b61133b565b3480156107f8575f80fd5b506102f7610807366004612fad565b61137e565b6102ad61081a366004613861565b6113c0565b34801561082a575f80fd5b506102f76108393660046132c9565b61143c565b348015610849575f80fd5b506009546001600160a01b0316610379565b348015610866575f80fd5b506040805180820190915260208082527f737570706f72743d627261766f2671756f72756d3d666f722c6162737461696e90820152610338565b3480156108ab575f80fd5b506102f77ff2aad550cf55f045cb27e9c559f9889fdfb6e6cdaa032301d6ea397784ae51d781565b3480156108de575f80fd5b506102f76108ed3660046138a0565b611475565b3480156108fd575f80fd5b506103b061090c3660046138ca565b611494565b34801561091c575f80fd5b506102f761092b366004612fad565b6114d7565b34801561093b575f80fd5b507f0000000000000000000000000000000000000000000000000000000000000000610379565b5f6109756009546001600160a01b031690565b905090565b5f6001600160e01b031982166366defe7760e11b14806109aa57506001600160e01b031982166332a2ad4360e11b145b806109c557506001600160e01b03198216630271189760e51b145b806109e057506301ffc9a760e01b6001600160e01b03198316145b92915050565b6109ee61157e565b6109f7816115f7565b50565b606060038054610a099061392d565b80601f0160208091040260200160405190810160405280929190818152602001828054610a359061392d565b8015610a805780601f10610a5757610100808354040283529160200191610a80565b820191905f5260205f20905b815481529060010190602001808311610a6357829003601f168201915b5050505050905090565b5f30610a94610962565b6001600160a01b031614610abb57604051637485328f60e11b815260040160405180910390fd5b50630a85bd0160e11b949350505050565b5f80610ada8686868661131d565b9050610aef81610aea600461168c565b6116ae565b505f610afe82888888886116eb565b905065ffffffffffff811615610b75575f82815260046020908152604091829020600101805465ffffffffffff191665ffffffffffff85169081179091558251858152918201527f9a2e42fd6722813d69113e7d0079d3d940171428df7373df9c7f7617cfda2892910160405180910390a1610b8e565b604051634844252360e11b815260040160405180910390fd5b5095945050505050565b5f80610ba68686868661131d565b9050610bc681610bb6600561168c565b610bc0600461168c565b176116ae565b505f818152600460205260409020805460ff60f01b1916600160f01b17905530610bee610962565b6001600160a01b031614610c77575f5b8651811015610c7557306001600160a01b0316878281518110610c2357610c23613965565b60200260200101516001600160a01b031603610c6d57610c6d858281518110610c4e57610c4e613965565b60200260200101518051906020012060056116f990919063ffffffff16565b600101610bfe565b505b610c84818787878761175a565b30610c8d610962565b6001600160a01b031614158015610cb957506005546001600160801b03808216600160801b9092041614155b15610cc3575f6005555b6040518181527f712ae1383f79ac853f8d882153778e0260ef8f03b504e2866e0593e04d2b291f906020015b60405180910390a195945050505050565b5f90815260046020526040902054600160a01b900465ffffffffffff1690565b5f6109e08261176e565b5f80610d388686868661131d565b9050610d4781610aea5f61168c565b505f818152600460205260409020546001600160a01b03163314610d855760405163233d98e360e01b81523360048201526024015b60405180910390fd5b610d91868686866118a7565b9695505050505050565b60607f00000000000000000000000000000000000000000000000000000000000000006001600160a01b0316634bf5d7e96040518163ffffffff1660e01b81526004015f60405180830381865afa925050508015610e1a57506040513d5f823e601f3d908101601f19168201604052610e179190810190613979565b60015b610e56575060408051808201909152601d81527f6d6f64653d626c6f636b6e756d6265722666726f6d3d64656661756c74000000602082015290565b919050565b5f80339050610e7a84828560405180602001604052805f8152506118b4565b949350505050565b5f80610f6387610f5d7f3e83946653575f9a39005e1545185629e92736b7528ab20ca3816f315424a8118c8c8c610ed58e6001600160a01b03165f90815260026020526040902080546001810190915590565b8d8d604051610ee59291906139e1565b60405180910390208c80519060200120604051602001610f429796959493929190968752602087019590955260ff9390931660408601526001600160a01b03919091166060850152608084015260a083015260c082015260e00190565b604051602081830303815290604052805190602001206118d5565b85611901565b905080610f8e576040516394ab6c0760e01b81526001600160a01b0388166004820152602401610d7c565b610fd189888a89898080601f0160208091040260200160405190810160405280939291908181526020018383808284375f920191909152508b9250611971915050565b9998505050505050505050565b5f8033905061102687828888888080601f0160208091040260200160405190810160405280939291908181526020018383808284375f920191909152508a9250611971915050565b979650505050505050565b600880545f918290611044600184613a04565b8154811061105457611054613965565b5f918252602090912001805490915065ffffffffffff811690600160301b90046001600160d01b0316858211611096576001600160d01b031695945050505050565b6110aa6110a287611a4f565b600890611a85565b6001600160d01b03169695505050505050565b5f80339050610d9186828787878080601f0160208091040260200160405190810160405280939291908181526020018383808284375f920191909152506118b492505050565b5f3361110f8184611b34565b6111375760405163d9b3955760e01b81526001600160a01b0382166004820152602401610d7c565b5f6110268787878786611bb9565b5f6060805f805f6060611156611dba565b61115e611de6565b604080515f80825260208201909252600f60f81b9b939a50919850469750309650945092509050565b5f8061121184610f5d7ff2aad550cf55f045cb27e9c559f9889fdfb6e6cdaa032301d6ea397784ae51d78989896111da8b6001600160a01b03165f90815260026020526040902080546001810190915590565b60408051602081019690965285019390935260ff90911660608401526001600160a01b0316608083015260a082015260c001610f42565b90508061123c576040516394ab6c0760e01b81526001600160a01b0385166004820152602401610d7c565b610d9186858760405180602001604052805f8152506118b4565b5f7f00000000000000000000000000000000000000000000000000000000000000006001600160a01b03166391ddadf46040518163ffffffff1660e01b8152600401602060405180830381865afa9250505080156112d1575060408051601f3d908101601f191682019092526112ce91810190613a1e565b60015b610e5657610975611e13565b5f6112e9848484611e1d565b90505b9392505050565b5f6112fe6008611eb0565b6001600160d01b0316905090565b61131461157e565b6109f781611ee7565b5f61132a8585858561143c565b95945050505050565b5f60016109e0565b5f30611345610962565b6001600160a01b03161461136c57604051637485328f60e11b815260040160405180910390fd5b5063bc197c8160e01b95945050505050565b5f818152600460205260408120546113b290600160d01b810463ffffffff1690600160a01b900465ffffffffffff16613a43565b65ffffffffffff1692915050565b6113c861157e565b5f80856001600160a01b03168585856040516113e59291906139e1565b5f6040518083038185875af1925050503d805f811461141f576040519150601f19603f3d011682016040523d82523d5f602084013e611424565b606091505b50915091506114338282611f50565b50505050505050565b5f848484846040516020016114549493929190613af2565b60408051601f19818403018152919052805160209091012095945050505050565b5f6112ec838361148f60408051602081019091525f815290565b611e1d565b5f3061149e610962565b6001600160a01b0316146114c557604051637485328f60e11b815260040160405180910390fd5b5063f23a6e6160e01b95945050505050565b5f60646114e383611031565b604051632394e7a360e21b8152600481018590526001600160a01b037f00000000000000000000000000000000000000000000000000000000000000001690638e539e8c90602401602060405180830381865afa158015611546573d5f803e3d5ffd5b505050506040513d601f19601f8201168201806040525081019061156a9190613b3c565b6115749190613b53565b6109e09190613b7e565b33611587610962565b6001600160a01b0316146115b0576040516347096e4760e01b8152336004820152602401610d7c565b306115b9610962565b6001600160a01b0316146115f5575f80366040516115d89291906139e1565b604051809103902090505b806115ee6005611f6c565b036115e357505b565b6064808211156116245760405163243e544560e01b81526004810183905260248101829052604401610d7c565b5f61162d6112f3565b905061164c61163a611256565b61164385611fd9565b6008919061200c565b505060408051828152602081018590527f0553476bf02ef2726e8ce5ced78d63e26e602e4a2257b1f559418e24b4633997910160405180910390a1505050565b5f81600781111561169f5761169f613352565b600160ff919091161b92915050565b5f806116b984610d20565b90505f836116c68361168c565b16036112ec578381846040516331b75e4d60e01b8152600401610d7c93929190613b9d565b5f610d918686868686612026565b81546001600160801b03600160801b8204811691811660018301909116036117255761172560416121c3565b6001600160801b038082165f90815260018086016020526040909120939093558354919092018216600160801b029116179055565b61176785858585856121d4565b5050505050565b5f8061177983612264565b9050600581600781111561178f5761178f613352565b1461179a5792915050565b5f838152600a602052604090819020546009549151632c258a9f60e11b81526004810182905290916001600160a01b03169063584b153e90602401602060405180830381865afa1580156117f0573d5f803e3d5ffd5b505050506040513d601f19601f820116820180604052508101906118149190613bbf565b15611823575060059392505050565b600954604051632ab0f52960e01b8152600481018390526001600160a01b0390911690632ab0f52990602401602060405180830381865afa15801561186a573d5f803e3d5ffd5b505050506040513d601f19601f8201168201806040525081019061188e9190613bbf565b1561189d575060079392505050565b5060029392505050565b5f61132a85858585612395565b5f61132a858585856118d060408051602081019091525f815290565b611971565b5f6109e06118e161242c565b8360405161190160f01b8152600281019290925260228201526042902090565b5f836001600160a01b03163b5f0361195f575f8061191f8585612555565b5090925090505f81600381111561193857611938613352565b1480156119565750856001600160a01b0316826001600160a01b0316145b925050506112ec565b61196a84848461259e565b90506112ec565b5f61198086610aea600161168c565b505f6119958661198f89610d00565b85611e1d565b90505f6119a58888888588612674565b905083515f036119fb57866001600160a01b03167fb8e138887d0aa13bab447e82de9d5c1777041ecd21ca36ba824ff1e6c07ddda4898884896040516119ee9493929190613bde565b60405180910390a2611026565b866001600160a01b03167fe2babfbac5889a709b63bb7f598b324e08bc5a4fb9ec647fb3cbc9ec07eb87128988848989604051611a3c959493929190613c05565b60405180910390a2979650505050505050565b5f65ffffffffffff821115611a81576040516306dfcc6560e41b81526030600482015260248101839052604401610d7c565b5090565b81545f9081816005811115611ae1575f611a9e84612770565b611aa89085613a04565b5f8881526020902090915081015465ffffffffffff9081169087161015611ad157809150611adf565b611adc816001613c3e565b92505b505b5f611aee878785856128c8565b90508015611b2857611b1287611b05600184613a04565b5f91825260209091200190565b54600160301b90046001600160d01b0316611026565b5f979650505050505050565b80515f906034811015611b4b5760019150506109e0565b60131981840101516001600160b01b03198116692370726f706f7365723d60b01b14611b7c576001925050506109e0565b5f80611b8c86602a860386612927565b915091508115806110265750866001600160a01b0316816001600160a01b03161494505050505092915050565b5f611bcd868686868051906020012061131d565b905084518651141580611be257508351865114155b80611bec57508551155b15611c2157855184518651604051630447b05d60e41b8152600481019390935260248301919091526044820152606401610d7c565b5f81815260046020526040902054600160a01b900465ffffffffffff1615611c6a5780611c4d82610d20565b6040516331b75e4d60e01b8152610d7c9291905f90600401613b9d565b5f611c20611c76611256565b65ffffffffffff16611c889190613c3e565b90505f61c4e05f84815260046020526040902080546001600160a01b0319166001600160a01b038716178155909150611cc083611a4f565b815465ffffffffffff91909116600160a01b0265ffffffffffff60a01b19909116178155611ced826129d0565b815463ffffffff91909116600160d01b0263ffffffff60d01b1990911617815588517f7d84a6263ae0d98d3329bd7b46bb4e8d6f98cd35a7adb45c274c8b7fd5ebd5e090859087908c908c906001600160401b03811115611d5057611d50613037565b604051908082528060200260200182016040528015611d8357816020015b6060815260200190600190039081611d6e5790505b508c89611d908a82613c3e565b8e604051611da699989796959493929190613c51565b60405180910390a150505095945050505050565b60606109757f00000000000000000000000000000000000000000000000000000000000000005f612a00565b60606109757f00000000000000000000000000000000000000000000000000000000000000006001612a00565b5f61097543611a4f565b5f7f0000000000000000000000000000000000000000000000000000000000000000604051630748d63560e31b81526001600160a01b038681166004830152602482018690529190911690633a46b1a890604401602060405180830381865afa158015611e8c573d5f803e3d5ffd5b505050506040513d601f19601f820116820180604052508101906112e99190613b3c565b80545f908015611edf57611ec983611b05600184613a04565b54600160301b90046001600160d01b03166112ec565b5f9392505050565b600954604080516001600160a01b03928316815291831660208301527f08f74ea46ef7894f65eabfb5e6e695de773a000b47c529ab559178069b226401910160405180910390a1600980546001600160a01b0319166001600160a01b0392909216919091179055565b606082611f6557611f6082612aa9565b6109e0565b50806109e0565b80545f906001600160801b0380821691600160801b9004168103611f9457611f9460316121c3565b6001600160801b038181165f908152600185810160205260408220805492905585546fffffffffffffffffffffffffffffffff19169301909116919091179092555090565b5f6001600160d01b03821115611a81576040516306dfcc6560e41b815260d0600482015260248101839052604401610d7c565b5f80612019858585612ad2565b915091505b935093915050565b5f8060095f9054906101000a90046001600160a01b03166001600160a01b031663f27a0c926040518163ffffffff1660e01b8152600401602060405180830381865afa158015612078573d5f803e3d5ffd5b505050506040513d601f19601f8201168201806040525081019061209c9190613b3c565b90505f3060601b6bffffffffffffffffffffffff1916841860095460405163b1c5f42760e01b81529192506001600160a01b03169063b1c5f427906120ed908a908a908a905f908890600401613d26565b602060405180830381865afa158015612108573d5f803e3d5ffd5b505050506040513d601f19601f8201168201806040525081019061212c9190613b3c565b5f898152600a60205260408082209290925560095491516308f2a0bb60e41b81526001600160a01b0390921691638f2a0bb091612176918b918b918b919088908a90600401613d73565b5f604051808303815f87803b15801561218d575f80fd5b505af115801561219f573d5f803e3d5ffd5b505050506121b782426121b29190613c3e565b611a4f565b98975050505050505050565b634e487b715f52806020526024601cfd5b6009546001600160a01b031663e38335e5348686865f3060601b6bffffffffffffffffffffffff191688186040518763ffffffff1660e01b815260040161221f959493929190613d26565b5f604051808303818588803b158015612236575f80fd5b505af1158015612248573d5f803e3d5ffd5b5050505f9687525050600a602052505060408320929092555050565b5f818152600460205260408120805460ff600160f01b8204811691600160f81b900416811561229857506007949350505050565b80156122a957506002949350505050565b5f6122b386610d00565b9050805f036122d857604051636ad0607560e01b815260048101879052602401610d7c565b5f6122e1611256565b65ffffffffffff1690508082106122fe57505f9695505050505050565b5f6123088861137e565b905081811061231f57506001979650505050505050565b61232888612c22565b158061234757505f888152600760205260409020805460019091015411155b1561235a57506003979650505050505050565b5f8881526004602052604090206001015465ffffffffffff165f0361238757506004979650505050505050565b506005979650505050505050565b5f806123a386868686612c58565b5f818152600a60205260409020549091508015610b8e5760095460405163c4d252f560e01b8152600481018390526001600160a01b039091169063c4d252f5906024015f604051808303815f87803b1580156123fd575f80fd5b505af115801561240f573d5f803e3d5ffd5b5050505f838152600a602052604081205550509050949350505050565b5f306001600160a01b037f00000000000000000000000000000000000000000000000000000000000000001614801561248457507f000000000000000000000000000000000000000000000000000000000000000046145b156124ae57507f000000000000000000000000000000000000000000000000000000000000000090565b610975604080517f8b73c3c69bb8fe3d512ecc4cf759cc79239f7b179b0ffacaa9a75d522b39400f60208201527f0000000000000000000000000000000000000000000000000000000000000000918101919091527f000000000000000000000000000000000000000000000000000000000000000060608201524660808201523060a08201525f9060c00160405160208183030381529060405280519060200120905090565b5f805f835160410361258c576020840151604085015160608601515f1a61257e88828585612d07565b955095509550505050612597565b505081515f91506002905b9250925092565b5f805f856001600160a01b031685856040516024016125be929190613dca565b60408051601f198184030181529181526020820180516001600160e01b0316630b135d3f60e11b179052516125f39190613de2565b5f60405180830381855afa9150503d805f811461262b576040519150601f19603f3d011682016040523d82523d5f602084013e612630565b606091505b509150915081801561264457506020815110155b8015610d9157508051630b135d3f60e11b906126699083016020908101908401613b3c565b149695505050505050565b5f8581526007602090815260408083206001600160a01b03881684526003810190925282205460ff16156126c6576040516371c6af4960e01b81526001600160a01b0387166004820152602401610d7c565b6001600160a01b0386165f9081526003820160205260409020805460ff1916600117905560ff851661270f5783815f015f8282546127049190613c3e565b909155506127659050565b5f1960ff86160161272d5783816001015f8282546127049190613c3e565b60011960ff86160161274c5783816002015f8282546127049190613c3e565b6040516303599be160e11b815260040160405180910390fd5b509195945050505050565b5f6001821161277d575090565b816001600160801b82106127965760809190911c9060401b5b6801000000000000000082106127b15760409190911c9060201b5b64010000000082106127c85760209190911c9060101b5b6201000082106127dd5760109190911c9060081b5b61010082106127f15760089190911c9060041b5b601082106128045760049190911c9060021b5b600482106128105760011b5b600302600190811c9081858161282857612828613b6a565b048201901c9050600181858161284057612840613b6a565b048201901c9050600181858161285857612858613b6a565b048201901c9050600181858161287057612870613b6a565b048201901c9050600181858161288857612888613b6a565b048201901c905060018185816128a0576128a0613b6a565b048201901c90506128bf8185816128b9576128b9613b6a565b04821190565b90039392505050565b5f5b8183101561291f575f6128dd8484612dcf565b5f8781526020902090915065ffffffffffff86169082015465ffffffffffff16111561290b57809250612919565b612916816001613c3e565b93505b506128ca565b509392505050565b5f80845183118061293757508284115b1561294657505f90508061201e565b5f612952856001613c3e565b8411801561297a575061060f60f31b61296e8787016020015190565b6001600160f01b031916145b90505f61298a8215156002613b53565b612995906028613c3e565b9050806129a28787613a04565b036129c3575f806129b4898989612de9565b909650945061201e9350505050565b5f8093509350505061201e565b5f63ffffffff821115611a81576040516306dfcc6560e41b81526020600482015260248101839052604401610d7c565b606060ff8314612a1a57612a1383612eaa565b90506109e0565b818054612a269061392d565b80601f0160208091040260200160405190810160405280929190818152602001828054612a529061392d565b8015612a9d5780601f10612a7457610100808354040283529160200191612a9d565b820191905f5260205f20905b815481529060010190602001808311612a8057829003601f168201915b505050505090506109e0565b805115612ab95780518082602001fd5b60405163d6bda27560e01b815260040160405180910390fd5b82545f9081908015612bc8575f612aee87611b05600185613a04565b805490915065ffffffffffff80821691600160301b90046001600160d01b0316908816821115612b3157604051632520601d60e01b815260040160405180910390fd5b8765ffffffffffff168265ffffffffffff1603612b6a57825465ffffffffffff16600160301b6001600160d01b03891602178355612bba565b6040805180820190915265ffffffffffff808a1682526001600160d01b03808a1660208085019182528d54600181018f555f8f81529190912094519151909216600160301b029216919091179101555b945085935061201e92505050565b50506040805180820190915265ffffffffffff80851682526001600160d01b0380851660208085019182528854600181018a555f8a815291822095519251909316600160301b02919093161792019190915590508161201e565b5f81815260076020526040812060028101546001820154612c439190613c3e565b612c4f61092b85610d00565b11159392505050565b5f80612c668686868661131d565b9050612cb481612c76600761168c565b612c80600661168c565b612c8a600261168c565b6001612c97600782613dfd565b612ca2906002613ef6565b612cac9190613a04565b1818186116ae565b505f818152600460205260409081902080546001600160f81b0316600160f81b179055517f789cf55be980739dad1d0699b93b58e806b51c9d96619bfa8fe0a28abaa7b30c90610cef9083815260200190565b5f80807f7fffffffffffffffffffffffffffffff5d576e7357a4501ddfe92f46681b20a0841115612d4057505f91506003905082612dc5565b604080515f808252602082018084528a905260ff891692820192909252606081018790526080810186905260019060a0016020604051602081039080840390855afa158015612d91573d5f803e3d5ffd5b5050604051601f1901519150506001600160a01b038116612dbc57505f925060019150829050612dc5565b92505f91508190505b9450945094915050565b5f612ddd6002848418613b7e565b6112ec90848416613c3e565b5f808481612df8866001613c3e565b85118015612e20575061060f60f31b612e148388016020015190565b6001600160f01b031916145b90505f612e308215156002613b53565b90505f80612e3e838a613c3e565b90505b87811015612e99575f612e5f612e5a8784016020015190565b612ee7565b9050600f8160ff161115612e7e575f809750975050505050505061201e565b612e89601084613b53565b60ff909116019150600101612e41565b506001999098509650505050505050565b60605f612eb683612f5f565b6040805160208082528183019092529192505f91906020820181803683375050509182525060208101929092525090565b5f60f882901c602f81118015612f005750603a8160ff16105b15612f0e57602f19016109e0565b60608160ff16118015612f24575060678160ff16105b15612f3257605619016109e0565b60408160ff16118015612f48575060478160ff16105b15612f5657603619016109e0565b5060ff92915050565b5f60ff8216601f8111156109e057604051632cd44ac360e21b815260040160405180910390fd5b5f60208284031215612f96575f80fd5b81356001600160e01b0319811681146112ec575f80fd5b5f60208284031215612fbd575f80fd5b5035919050565b5f5b83811015612fde578181015183820152602001612fc6565b50505f910152565b5f8151808452612ffd816020860160208601612fc4565b601f01601f19169290920160200192915050565b602081525f6112ec6020830184612fe6565b6001600160a01b03811681146109f7575f80fd5b634e487b7160e01b5f52604160045260245ffd5b604051601f8201601f191681016001600160401b038111828210171561307357613073613037565b604052919050565b5f6001600160401b0382111561309357613093613037565b50601f01601f191660200190565b5f6130b36130ae8461307b565b61304b565b90508281528383830111156130c6575f80fd5b828260208301375f602084830101529392505050565b5f82601f8301126130eb575f80fd5b6112ec838335602085016130a1565b5f805f806080858703121561310d575f80fd5b843561311881613023565b9350602085013561312881613023565b92506040850135915060608501356001600160401b03811115613149575f80fd5b613155878288016130dc565b91505092959194509250565b5f6001600160401b0382111561317957613179613037565b5060051b60200190565b5f82601f830112613192575f80fd5b813560206131a26130ae83613161565b8083825260208201915060208460051b8701019350868411156131c3575f80fd5b602086015b848110156131e85780356131db81613023565b83529183019183016131c8565b509695505050505050565b5f82601f830112613202575f80fd5b813560206132126130ae83613161565b8083825260208201915060208460051b870101935086841115613233575f80fd5b602086015b848110156131e85780358352918301918301613238565b5f82601f83011261325e575f80fd5b8135602061326e6130ae83613161565b82815260059290921b8401810191818101908684111561328c575f80fd5b8286015b848110156131e85780356001600160401b038111156132ad575f80fd5b6132bb8986838b01016130dc565b845250918301918301613290565b5f805f80608085870312156132dc575f80fd5b84356001600160401b03808211156132f2575f80fd5b6132fe88838901613183565b95506020870135915080821115613313575f80fd5b61331f888389016131f3565b94506040870135915080821115613334575f80fd5b506133418782880161324f565b949793965093946060013593505050565b634e487b7160e01b5f52602160045260245ffd5b6008811061338257634e487b7160e01b5f52602160045260245ffd5b9052565b602081016109e08284613366565b5f80604083850312156133a5575f80fd5b8235915060208301356133b781613023565b809150509250929050565b803560ff81168114610e56575f80fd5b5f80604083850312156133e3575f80fd5b823591506133f3602084016133c2565b90509250929050565b5f8083601f84011261340c575f80fd5b5081356001600160401b03811115613422575f80fd5b602083019150836020828501011115613439575f80fd5b9250929050565b5f805f805f805f60c0888a031215613456575f80fd5b87359650613466602089016133c2565b9550604088013561347681613023565b945060608801356001600160401b0380821115613491575f80fd5b61349d8b838c016133fc565b909650945060808a01359150808211156134b5575f80fd5b6134c18b838c016130dc565b935060a08a01359150808211156134d6575f80fd5b506134e38a828b016130dc565b91505092959891949750929550565b5f805f805f60808688031215613506575f80fd5b85359450613516602087016133c2565b935060408601356001600160401b0380821115613531575f80fd5b61353d89838a016133fc565b90955093506060880135915080821115613555575f80fd5b50613562888289016130dc565b9150509295509295909350565b5f805f8060608587031215613582575f80fd5b84359350613592602086016133c2565b925060408501356001600160401b038111156135ac575f80fd5b6135b8878288016133fc565b95989497509550505050565b5f805f80608085870312156135d7575f80fd5b84356001600160401b03808211156135ed575f80fd5b6135f988838901613183565b9550602087013591508082111561360e575f80fd5b61361a888389016131f3565b9450604087013591508082111561362f575f80fd5b61363b8883890161324f565b93506060870135915080821115613650575f80fd5b508501601f81018713613661575f80fd5b613155878235602084016130a1565b5f60208284031215613680575f80fd5b81356112ec81613023565b5f815180845260208085019450602084015f5b838110156136ba5781518752958201959082019060010161369e565b509495945050505050565b60ff60f81b8816815260e060208201525f6136e360e0830189612fe6565b82810360408401526136f58189612fe6565b606084018890526001600160a01b038716608085015260a0840186905283810360c08501529050613726818561368b565b9a9950505050505050505050565b5f805f8060808587031215613747575f80fd5b84359350613757602086016133c2565b9250604085013561376781613023565b915060608501356001600160401b03811115613149575f80fd5b5f805f60608486031215613793575f80fd5b833561379e81613023565b92506020840135915060408401356001600160401b038111156137bf575f80fd5b6137cb868287016130dc565b9150509250925092565b5f805f805f60a086880312156137e9575f80fd5b85356137f481613023565b9450602086013561380481613023565b935060408601356001600160401b038082111561381f575f80fd5b61382b89838a016131f3565b94506060880135915080821115613840575f80fd5b61384c89838a016131f3565b93506080880135915080821115613555575f80fd5b5f805f8060608587031215613874575f80fd5b843561387f81613023565b93506020850135925060408501356001600160401b038111156135ac575f80fd5b5f80604083850312156138b1575f80fd5b82356138bc81613023565b946020939093013593505050565b5f805f805f60a086880312156138de575f80fd5b85356138e981613023565b945060208601356138f981613023565b9350604086013592506060860135915060808601356001600160401b03811115613921575f80fd5b613562888289016130dc565b600181811c9082168061394157607f821691505b60208210810361395f57634e487b7160e01b5f52602260045260245ffd5b50919050565b634e487b7160e01b5f52603260045260245ffd5b5f60208284031215613989575f80fd5b81516001600160401b0381111561399e575f80fd5b8201601f810184136139ae575f80fd5b80516139bc6130ae8261307b565b8181528560208385010111156139d0575f80fd5b61132a826020830160208601612fc4565b818382375f9101908152919050565b634e487b7160e01b5f52601160045260245ffd5b818103818111156109e0576109e06139f0565b5092915050565b5f60208284031215613a2e575f80fd5b815165ffffffffffff811681146112ec575f80fd5b65ffffffffffff818116838216019080821115613a1757613a176139f0565b5f815180845260208085019450602084015f5b838110156136ba5781516001600160a01b031687529582019590820190600101613a75565b5f8282518085526020808601955060208260051b840101602086015f5b84811015613ae557601f19868403018952613ad3838351612fe6565b98840198925090830190600101613ab7565b5090979650505050505050565b608081525f613b046080830187613a62565b8281036020840152613b16818761368b565b90508281036040840152613b2a8186613a9a565b91505082606083015295945050505050565b5f60208284031215613b4c575f80fd5b5051919050565b80820281158282048414176109e0576109e06139f0565b634e487b7160e01b5f52601260045260245ffd5b5f82613b9857634e487b7160e01b5f52601260045260245ffd5b500490565b83815260608101613bb16020830185613366565b826040830152949350505050565b5f60208284031215613bcf575f80fd5b815180151581146112ec575f80fd5b84815260ff84166020820152826040820152608060608201525f610d916080830184612fe6565b85815260ff8516602082015283604082015260a060608201525f613c2c60a0830185612fe6565b82810360808401526121b78185612fe6565b808201808211156109e0576109e06139f0565b5f6101208b8352602060018060a01b038c1681850152816040850152613c798285018c613a62565b91508382036060850152613c8d828b61368b565b915083820360808501528189518084528284019150828160051b850101838c015f5b83811015613cdd57601f19878403018552613ccb838351612fe6565b94860194925090850190600101613caf565b505086810360a0880152613cf1818c613a9a565b9450505050508560c08401528460e0840152828103610100840152613d168185612fe6565b9c9b505050505050505050505050565b60a081525f613d3860a0830188613a62565b8281036020840152613d4a818861368b565b90508281036040840152613d5e8187613a9a565b60608401959095525050608001529392505050565b60c081525f613d8560c0830189613a62565b8281036020840152613d97818961368b565b90508281036040840152613dab8188613a9a565b60608401969096525050608081019290925260a0909101529392505050565b828152604060208201525f6112e96040830184612fe6565b5f8251613df3818460208701612fc4565b9190910192915050565b60ff81811683821601908111156109e0576109e06139f0565b600181815b80851115613e5057815f1904821115613e3657613e366139f0565b80851615613e4357918102915b93841c9390800290613e1b565b509250929050565b5f82613e66575060016109e0565b81613e7257505f6109e0565b8160018114613e885760028114613e9257613eae565b60019150506109e0565b60ff841115613ea357613ea36139f0565b50506001821b6109e0565b5060208310610133831016604e8410600b8410161715613ed1575081810a6109e0565b613edb8383613e16565b805f1904821115613eee57613eee6139f0565b029392505050565b5f6112ec60ff841683613e5856fea2646970667358221220dab97491f0a654a8f86cf98f68e25686b104728312acdce6790acc7d94885a6264736f6c63430008180033",
  "linkReferences": {},
  "deployedLinkReferences": {}
}