{
  "_format": "hh-sol-artifact-1",
  "contractName": "$ERC1155Utils",
  "sourceName": "contracts-exposed/token/ERC1155/utils/ERC1155Utils.sol",
  "abi": [
    {
      "inputs": [],
      "stateMutability": "payable",
      "type": "constructor"
    },
    {
      "inputs": [
        {
          "internalType": "address",
          "name": "receiver",
          "type": "address"
        }
      ],
      "name": "ERC1155InvalidReceiver",
      "type": "error"
    },
    {
      "inputs": [
        {
          "internalType": "address",
          "name": "operator",
          "type": "address"
        },
        {
          "internalType": "address",
          "name": "from",
          "type": "address"
        },
        {
          "internalType": "address",
          "name": "to",
          "type": "address"
        },
        {
          "internalType": "uint256[]",
          "name": "ids",
          "type": "uint256[]"
        },
        {
          "internalType": "uint256[]",
          "name": "values",
          "type": "uint256[]"
        },
        {
          "internalType": "bytes",
          "name": "data",
          "type": "bytes"
        }
      ],
      "name": "$checkOnERC1155BatchReceived",
      "outputs": [],
      "stateMutability": "payable",
      "type": "function"
    },
    {
      "inputs": [
        {
          "internalType": "address",
          "name": "operator",
          "type": "address"
        },
        {
          "internalType": "address",
          "name": "from",
          "type": "address"
        },
        {
          "internalType": "address",
          "name": "to",
          "type": "address"
        },
        {
          "internalType": "uint256",
          "name": "id",
          "type": "uint256"
        },
        {
          "internalType": "uint256",
          "name": "value",
          "type": "uint256"
        },
        {
          "internalType": "bytes",
          "name": "data",
          "type": "bytes"
        }
      ],
      "name": "$checkOnERC1155Received",
      "outputs": [],
      "stateMutability": "payable",
      "type": "function"
    },
    {
      "inputs": [],
      "name": "__hh_exposed_bytecode_marker",
      "outputs": [
        {
          "internalType": "bytes32",
          "name": "",
          "type": "bytes32"
        }
      ],
      "stateMutability": "view",
      "type": "function"
    },
    {
      "stateMutability": "payable",
      "type": "receive"
    }
  ],
  "bytecode": "0x6080604052610718806100115f395ff3fe608060405260043610610036575f3560e01c8063342db7391461004157806382b27c6b14610078578063c41268f61461008d575f80fd5b3661003d57005b5f80fd5b34801561004c575f80fd5b506100666e1a185c991a185d0b595e1c1bdcd959608a1b81565b60405190815260200160405180910390f35b61008b61008636600461044e565b6100a0565b005b61008b61009b366004610513565b61014c565b6101418989898989808060200260200160405190810160405280939291908181526020018383602002808284375f9201919091525050604080516020808d0282810182019093528c82529093508c92508b9182918501908490808284375f9201919091525050604080516020601f8c018190048102820181019092528a815292508a91508990819084018382808284375f9201919091525061019892505050565b505050505050505050565b61018f878787878787878080601f0160208091040260200160405190810160405280939291908181526020018383808284375f920191909152506102c692505050565b50505050505050565b6001600160a01b0384163b156102be5760405163bc197c8160e01b81526001600160a01b0385169063bc197c81906101dc9089908990889088908890600401610613565b6020604051808303815f875af1925050508015610216575060408051601f3d908101601f1916820190925261021391810190610670565b60015b610282573d808015610243576040519150601f19603f3d011682016040523d82523d5f602084013e610248565b606091505b5080515f0361027a57604051632bfa23e760e11b81526001600160a01b03861660048201526024015b60405180910390fd5b805181602001fd5b6001600160e01b0319811663bc197c8160e01b1461018f57604051632bfa23e760e11b81526001600160a01b0386166004820152602401610271565b505050505050565b6001600160a01b0384163b156102be5760405163f23a6e6160e01b81526001600160a01b0385169063f23a6e619061030a908990899088908890889060040161069e565b6020604051808303815f875af1925050508015610344575060408051601f3d908101601f1916820190925261034191810190610670565b60015b610371573d808015610243576040519150601f19603f3d011682016040523d82523d5f602084013e610248565b6001600160e01b0319811663f23a6e6160e01b1461018f57604051632bfa23e760e11b81526001600160a01b0386166004820152602401610271565b80356001600160a01b03811681146103c3575f80fd5b919050565b5f8083601f8401126103d8575f80fd5b50813567ffffffffffffffff8111156103ef575f80fd5b6020830191508360208260051b8501011115610409575f80fd5b9250929050565b5f8083601f840112610420575f80fd5b50813567ffffffffffffffff811115610437575f80fd5b602083019150836020828501011115610409575f80fd5b5f805f805f805f805f60c08a8c031215610466575f80fd5b61046f8a6103ad565b985061047d60208b016103ad565b975061048b60408b016103ad565b965060608a013567ffffffffffffffff808211156104a7575f80fd5b6104b38d838e016103c8565b909850965060808c01359150808211156104cb575f80fd5b6104d78d838e016103c8565b909650945060a08c01359150808211156104ef575f80fd5b506104fc8c828d01610410565b915080935050809150509295985092959850929598565b5f805f805f805f60c0888a031215610529575f80fd5b610532886103ad565b9650610540602089016103ad565b955061054e604089016103ad565b9450606088013593506080880135925060a088013567ffffffffffffffff811115610577575f80fd5b6105838a828b01610410565b989b979a50959850939692959293505050565b5f815180845260208085019450602084015f5b838110156105c5578151875295820195908201906001016105a9565b509495945050505050565b5f81518084525f5b818110156105f4576020818501810151868301820152016105d8565b505f602082860101526020601f19601f83011685010191505092915050565b6001600160a01b0386811682528516602082015260a0604082018190525f9061063e90830186610596565b82810360608401526106508186610596565b9050828103608084015261066481856105d0565b98975050505050505050565b5f60208284031215610680575f80fd5b81516001600160e01b031981168114610697575f80fd5b9392505050565b6001600160a01b03868116825285166020820152604081018490526060810183905260a0608082018190525f906106d7908301846105d0565b97965050505050505056fea2646970667358221220e37d97917135092c02fe6cab8e24a03d4ed4db67b45ed20237a3b1898b70a37f64736f6c63430008180033",
  "linkReferences": {},
  "deployedLinkReferences": {}
}