{
  "_format": "hh-sol-artifact-1",
  "contractName": "$ERC20ForceApproveMock",
  "sourceName": "contracts-exposed/mocks/token/ERC20ForceApproveMock.sol",
  "abi": [
    {
      "inputs": [
        {
          "internalType": "string",
          "name": "name_",
          "type": "string"
        },
        {
          "internalType": "string",
          "name": "symbol_",
          "type": "string"
        }
      ],
      "stateMutability": "payable",
      "type": "constructor"
    },
    {
      "inputs": [
        {
          "internalType": "address",
          "name": "spender",
          "type": "address"
        },
        {
          "internalType": "uint256",
          "name": "allowance",
          "type": "uint256"
        },
        {
          "internalType": "uint256",
          "name": "needed",
          "type": "uint256"
        }
      ],
      "name": "ERC20InsufficientAllowance",
      "type": "error"
    },
    {
      "inputs": [
        {
          "internalType": "address",
          "name": "sender",
          "type": "address"
        },
        {
          "internalType": "uint256",
          "name": "balance",
          "type": "uint256"
        },
        {
          "internalType": "uint256",
          "name": "needed",
          "type": "uint256"
        }
      ],
      "name": "ERC20InsufficientBalance",
      "type": "error"
    },
    {
      "inputs": [
        {
          "internalType": "address",
          "name": "approver",
          "type": "address"
        }
      ],
      "name": "ERC20InvalidApprover",
      "type": "error"
    },
    {
      "inputs": [
        {
          "internalType": "address",
          "name": "receiver",
          "type": "address"
        }
      ],
      "name": "ERC20InvalidReceiver",
      "type": "error"
    },
    {
      "inputs": [
        {
          "internalType": "address",
          "name": "sender",
          "type": "address"
        }
      ],
      "name": "ERC20InvalidSender",
      "type": "error"
    },
    {
      "inputs": [
        {
          "internalType": "address",
          "name": "spender",
          "type": "address"
        }
      ],
      "name": "ERC20InvalidSpender",
      "type": "error"
    },
    {
      "anonymous": false,
      "inputs": [
        {
          "indexed": true,
          "internalType": "address",
          "name": "owner",
          "type": "address"
        },
        {
          "indexed": true,
          "internalType": "address",
          "name": "spender",
          "type": "address"
        },
        {
          "indexed": false,
          "internalType": "uint256",
          "name": "value",
          "type": "uint256"
        }
      ],
      "name": "Approval",
      "type": "event"
    },
    {
      "anonymous": false,
      "inputs": [
        {
          "indexed": true,
          "internalType": "address",
          "name": "from",
          "type": "address"
        },
        {
          "indexed": true,
          "internalType": "address",
          "name": "to",
          "type": "address"
        },
        {
          "indexed": false,
          "internalType": "uint256",
          "name": "value",
          "type": "uint256"
        }
      ],
      "name": "Transfer",
      "type": "event"
    },
    {
      "inputs": [
        {
          "internalType": "address",
          "name": "owner",
          "type": "address"
        },
        {
          "internalType": "address",
          "name": "spender",
          "type": "address"
        },
        {
          "internalType": "uint256",
          "name": "value",
          "type": "uint256"
        },
        {
          "internalType": "bool",
          "name": "emitEvent",
          "type": "bool"
        }
      ],
      "name": "$_approve",
      "outputs": [],
      "stateMutability": "nonpayable",
      "type": "function"
    },
    {
      "inputs": [
        {
          "internalType": "address",
          "name": "owner",
          "type": "address"
        },
        {
          "internalType": "address",
          "name": "spender",
          "type": "address"
        },
        {
          "internalType": "uint256",
          "name": "value",
          "type": "uint256"
        }
      ],
      "name": "$_approve",
      "outputs": [],
      "stateMutability": "nonpayable",
      "type": "function"
    },
    {
      "inputs": [
        {
          "internalType": "address",
          "name": "account",
          "type": "address"
        },
        {
          "internalType": "uint256",
          "name": "value",
          "type": "uint256"
        }
      ],
      "name": "$_burn",
      "outputs": [],
      "stateMutability": "nonpayable",
      "type": "function"
    },
    {
      "inputs": [],
      "name": "$_contextSuffixLength",
      "outputs": [
        {
          "internalType": "uint256",
          "name": "ret0",
          "type": "uint256"
        }
      ],
      "stateMutability": "view",
      "type": "function"
    },
    {
      "inputs": [
        {
          "internalType": "address",
          "name": "account",
          "type": "address"
        },
        {
          "internalType": "uint256",
          "name": "value",
          "type": "uint256"
        }
      ],
      "name": "$_mint",
      "outputs": [],
      "stateMutability": "nonpayable",
      "type": "function"
    },
    {
      "inputs": [],
      "name": "$_msgData",
      "outputs": [
        {
          "internalType": "bytes",
          "name": "ret0",
          "type": "bytes"
        }
      ],
      "stateMutability": "view",
      "type": "function"
    },
    {
      "inputs": [],
      "name": "$_msgSender",
      "outputs": [
        {
          "internalType": "address",
          "name": "ret0",
          "type": "address"
        }
      ],
      "stateMutability": "view",
      "type": "function"
    },
    {
      "inputs": [
        {
          "internalType": "address",
          "name": "owner",
          "type": "address"
        },
        {
          "internalType": "address",
          "name": "spender",
          "type": "address"
        },
        {
          "internalType": "uint256",
          "name": "value",
          "type": "uint256"
        }
      ],
      "name": "$_spendAllowance",
      "outputs": [],
      "stateMutability": "nonpayable",
      "type": "function"
    },
    {
      "inputs": [
        {
          "internalType": "address",
          "name": "from",
          "type": "address"
        },
        {
          "internalType": "address",
          "name": "to",
          "type": "address"
        },
        {
          "internalType": "uint256",
          "name": "value",
          "type": "uint256"
        }
      ],
      "name": "$_transfer",
      "outputs": [],
      "stateMutability": "nonpayable",
      "type": "function"
    },
    {
      "inputs": [
        {
          "internalType": "address",
          "name": "from",
          "type": "address"
        },
        {
          "internalType": "address",
          "name": "to",
          "type": "address"
        },
        {
          "internalType": "uint256",
          "name": "value",
          "type": "uint256"
        }
      ],
      "name": "$_update",
      "outputs": [],
      "stateMutability": "nonpayable",
      "type": "function"
    },
    {
      "inputs": [],
      "name": "__hh_exposed_bytecode_marker",
      "outputs": [
        {
          "internalType": "bytes32",
          "name": "",
          "type": "bytes32"
        }
      ],
      "stateMutability": "view",
      "type": "function"
    },
    {
      "inputs": [
        {
          "internalType": "address",
          "name": "owner",
          "type": "address"
        },
        {
          "internalType": "address",
          "name": "spender",
          "type": "address"
        }
      ],
      "name": "allowance",
      "outputs": [
        {
          "internalType": "uint256",
          "name": "",
          "type": "uint256"
        }
      ],
      "stateMutability": "view",
      "type": "function"
    },
    {
      "inputs": [
        {
          "internalType": "address",
          "name": "spender",
          "type": "address"
        },
        {
          "internalType": "uint256",
          "name": "amount",
          "type": "uint256"
        }
      ],
      "name": "approve",
      "outputs": [
        {
          "internalType": "bool",
          "name": "",
          "type": "bool"
        }
      ],
      "stateMutability": "nonpayable",
      "type": "function"
    },
    {
      "inputs": [
        {
          "internalType": "address",
          "name": "account",
          "type": "address"
        }
      ],
      "name": "balanceOf",
      "outputs": [
        {
          "internalType": "uint256",
          "name": "",
          "type": "uint256"
        }
      ],
      "stateMutability": "view",
      "type": "function"
    },
    {
      "inputs": [],
      "name": "decimals",
      "outputs": [
        {
          "internalType": "uint8",
          "name": "",
          "type": "uint8"
        }
      ],
      "stateMutability": "view",
      "type": "function"
    },
    {
      "inputs": [],
      "name": "name",
      "outputs": [
        {
          "internalType": "string",
          "name": "",
          "type": "string"
        }
      ],
      "stateMutability": "view",
      "type": "function"
    },
    {
      "inputs": [],
      "name": "symbol",
      "outputs": [
        {
          "internalType": "string",
          "name": "",
          "type": "string"
        }
      ],
      "stateMutability": "view",
      "type": "function"
    },
    {
      "inputs": [],
      "name": "totalSupply",
      "outputs": [
        {
          "internalType": "uint256",
          "name": "",
          "type": "uint256"
        }
      ],
      "stateMutability": "view",
      "type": "function"
    },
    {
      "inputs": [
        {
          "internalType": "address",
          "name": "to",
          "type": "address"
        },
        {
          "internalType": "uint256",
          "name": "value",
          "type": "uint256"
        }
      ],
      "name": "transfer",
      "outputs": [
        {
          "internalType": "bool",
          "name": "",
          "type": "bool"
        }
      ],
      "stateMutability": "nonpayable",
      "type": "function"
    },
    {
      "inputs": [
        {
          "internalType": "address",
          "name": "from",
          "type": "address"
        },
        {
          "internalType": "address",
          "name": "to",
          "type": "address"
        },
        {
          "internalType": "uint256",
          "name": "value",
          "type": "uint256"
        }
      ],
      "name": "transferFrom",
      "outputs": [
        {
          "internalType": "bool",
          "name": "",
          "type": "bool"
        }
      ],
      "stateMutability": "nonpayable",
      "type": "function"
    },
    {
      "stateMutability": "payable",
      "type": "receive"
    }
  ],
  "bytecode": "0x608060405260405162000da938038062000da9833981016040819052620000269162000111565b8181600362000036838262000201565b50600462000045828262000201565b5050505050620002cd565b634e487b7160e01b5f52604160045260245ffd5b5f82601f83011262000074575f80fd5b81516001600160401b038082111562000091576200009162000050565b604051601f8301601f19908116603f01168101908282118183101715620000bc57620000bc62000050565b8160405283815260209250866020858801011115620000d9575f80fd5b5f91505b83821015620000fc5785820183015181830184015290820190620000dd565b5f602085830101528094505050505092915050565b5f806040838503121562000123575f80fd5b82516001600160401b03808211156200013a575f80fd5b620001488683870162000064565b935060208501519150808211156200015e575f80fd5b506200016d8582860162000064565b9150509250929050565b600181811c908216806200018c57607f821691505b602082108103620001ab57634e487b7160e01b5f52602260045260245ffd5b50919050565b601f821115620001fc57805f5260205f20601f840160051c81016020851015620001d85750805b601f840160051c820191505b81811015620001f9575f8155600101620001e4565b50505b505050565b81516001600160401b038111156200021d576200021d62000050565b62000235816200022e845462000177565b84620001b1565b602080601f8311600181146200026b575f8415620002535750858301515b5f19600386901b1c1916600185901b178555620002c5565b5f85815260208120601f198616915b828110156200029b578886015182559484019460019091019084016200027a565b5085821015620002b957878501515f19600388901b60f8161c191681555b505060018460011b0185555b505050505050565b610ace80620002db5f395ff3fe60806040526004361061011e575f3560e01c80636855a1781161009d578063b2331d7d11610062578063b2331d7d14610305578063cc461d6214610324578063dd62ed3e14610343578063e047838d14610362578063efb43b0714610381575f80fd5b80636855a1781461026057806370a082311461027f578063861e3d3d146102b357806395d89b41146102d2578063a9059cbb146102e6575f80fd5b8063313ce567116100e3578063313ce567146101d957806332bc74aa146101f457806332cadf3c14610215578063342db7391461022957806367354a841461024e575f80fd5b806306fdde0314610129578063095ea7b31461015357806318160ddd1461018257806323b872dd146101a05780632904df29146101bf575f80fd5b3661012557005b5f80fd5b348015610134575f80fd5b5061013d6103a0565b60405161014a9190610919565b60405180910390f35b34801561015e575f80fd5b5061017261016d366004610946565b610430565b604051901515815260200161014a565b34801561018d575f80fd5b506002545b60405190815260200161014a565b3480156101ab575f80fd5b506101726101ba36600461096e565b6104a1565b3480156101ca575f80fd5b5060405133815260200161014a565b3480156101e4575f80fd5b506040516012815260200161014a565b3480156101ff575f80fd5b5061021361020e3660046109a7565b6104c4565b005b348015610220575f80fd5b5061013d6104d6565b348015610234575f80fd5b506101926e1a185c991a185d0b595e1c1bdcd959608a1b81565b348015610259575f80fd5b505f610192565b34801561026b575f80fd5b5061021361027a36600461096e565b610513565b34801561028a575f80fd5b506101926102993660046109f7565b6001600160a01b03165f9081526020819052604090205490565b3480156102be575f80fd5b506102136102cd36600461096e565b610523565b3480156102dd575f80fd5b5061013d61052e565b3480156102f1575f80fd5b50610172610300366004610946565b61053d565b348015610310575f80fd5b5061021361031f36600461096e565b610554565b34801561032f575f80fd5b5061021361033e366004610946565b61055f565b34801561034e575f80fd5b5061019261035d366004610a10565b61056d565b34801561036d575f80fd5b5061021361037c366004610946565b610597565b34801561038c575f80fd5b5061021361039b36600461096e565b6105a1565b6060600380546103af90610a41565b80601f01602080910402602001604051908101604052809291908181526020018280546103db90610a41565b80156104265780601f106103fd57610100808354040283529160200191610426565b820191905f5260205f20905b81548152906001019060200180831161040957829003601f168201915b5050505050905090565b5f8115806104455750610443338461056d565b155b61048e5760405162461bcd60e51b81526020600482015260156024820152745553445420617070726f76616c206661696c75726560581b60448201526064015b60405180910390fd5b61049883836105ac565b90505b92915050565b5f336104ae8582856105b9565b6104b9858585610617565b506001949350505050565b6104d084848484610669565b50505050565b60605f368080601f0160208091040260200160405190810160405280939291908181526020018383808284375f9201919091525092949350505050565b61051e83838361073b565b505050565b61051e838383610861565b6060600480546103af90610a41565b5f3361054a818585610617565b5060019392505050565b61051e8383836105b9565b610569828261086e565b5050565b6001600160a01b039182165f90815260016020908152604080832093909416825291909152205490565b61056982826108a2565b61051e838383610617565b5f3361054a818585610861565b5f6105c4848461056d565b90505f198110156104d0578181101561060957604051637dc7a0d960e11b81526001600160a01b03841660048201526024810182905260448101839052606401610485565b6104d084848484035f610669565b6001600160a01b03831661064057604051634b637e8f60e11b81525f6004820152602401610485565b6001600160a01b0382166105135760405163ec442f0560e01b81525f6004820152602401610485565b6001600160a01b0384166106925760405163e602df0560e01b81525f6004820152602401610485565b6001600160a01b0383166106bb57604051634a1406b160e11b81525f6004820152602401610485565b6001600160a01b038085165f90815260016020908152604080832093871683529290522082905580156104d057826001600160a01b0316846001600160a01b03167f8c5be1e5ebec7d5bd14f71427d1e84f3dd0314c0f7b2291e5b200ac8c7c3b9258460405161072d91815260200190565b60405180910390a350505050565b6001600160a01b038316610765578060025f82825461075a9190610a79565b909155506107d59050565b6001600160a01b0383165f90815260208190526040902054818110156107b75760405163391434e360e21b81526001600160a01b03851660048201526024810182905260448101839052606401610485565b6001600160a01b0384165f9081526020819052604090209082900390555b6001600160a01b0382166107f15760028054829003905561080f565b6001600160a01b0382165f9081526020819052604090208054820190555b816001600160a01b0316836001600160a01b03167fddf252ad1be2c89b69c2b068fc378daa952ba7f163c4a11628f55a4df523b3ef8360405161085491815260200190565b60405180910390a3505050565b61051e8383836001610669565b6001600160a01b0382166108975760405163ec442f0560e01b81525f6004820152602401610485565b6105695f838361073b565b6001600160a01b0382166108cb57604051634b637e8f60e11b81525f6004820152602401610485565b610569825f8361073b565b5f81518084525f5b818110156108fa576020818501810151868301820152016108de565b505f602082860101526020601f19601f83011685010191505092915050565b602081525f61049860208301846108d6565b80356001600160a01b0381168114610941575f80fd5b919050565b5f8060408385031215610957575f80fd5b6109608361092b565b946020939093013593505050565b5f805f60608486031215610980575f80fd5b6109898461092b565b92506109976020850161092b565b9150604084013590509250925092565b5f805f80608085870312156109ba575f80fd5b6109c38561092b565b93506109d16020860161092b565b925060408501359150606085013580151581146109ec575f80fd5b939692955090935050565b5f60208284031215610a07575f80fd5b6104988261092b565b5f8060408385031215610a21575f80fd5b610a2a8361092b565b9150610a386020840161092b565b90509250929050565b600181811c90821680610a5557607f821691505b602082108103610a7357634e487b7160e01b5f52602260045260245ffd5b50919050565b8082018082111561049b57634e487b7160e01b5f52601160045260245ffdfea2646970667358221220acad246892cdf91c045b0c2f44dfa9349751345559fe8dd4c3195d4880f62c3764736f6c63430008180033",
  "linkReferences": {},
  "deployedLinkReferences": {}
}