{
  "_format": "hh-sol-artifact-1",
  "contractName": "MyTokenTimestampBased",
  "sourceName": "contracts/mocks/docs/governance/MyTokenTimestampBased.sol",
  "abi": [
    {
      "inputs": [],
      "stateMutability": "nonpayable",
      "type": "constructor"
    },
    {
      "inputs": [],
      "name": "CheckpointUnorderedInsertion",
      "type": "error"
    },
    {
      "inputs": [],
      "name": "ECDSAInvalidSignature",
      "type": "error"
    },
    {
      "inputs": [
        {
          "internalType": "uint256",
          "name": "length",
          "type": "uint256"
        }
      ],
      "name": "ECDSAInvalidSignatureLength",
      "type": "error"
    },
    {
      "inputs": [
        {
          "internalType": "bytes32",
          "name": "s",
          "type": "bytes32"
        }
      ],
      "name": "ECDSAInvalidSignatureS",
      "type": "error"
    },
    {
      "inputs": [
        {
          "internalType": "uint256",
          "name": "increasedSupply",
          "type": "uint256"
        },
        {
          "internalType": "uint256",
          "name": "cap",
          "type": "uint256"
        }
      ],
      "name": "ERC20ExceededSafeSupply",
      "type": "error"
    },
    {
      "inputs": [
        {
          "internalType": "address",
          "name": "spender",
          "type": "address"
        },
        {
          "internalType": "uint256",
          "name": "allowance",
          "type": "uint256"
        },
        {
          "internalType": "uint256",
          "name": "needed",
          "type": "uint256"
        }
      ],
      "name": "ERC20InsufficientAllowance",
      "type": "error"
    },
    {
      "inputs": [
        {
          "internalType": "address",
          "name": "sender",
          "type": "address"
        },
        {
          "internalType": "uint256",
          "name": "balance",
          "type": "uint256"
        },
        {
          "internalType": "uint256",
          "name": "needed",
          "type": "uint256"
        }
      ],
      "name": "ERC20InsufficientBalance",
      "type": "error"
    },
    {
      "inputs": [
        {
          "internalType": "address",
          "name": "approver",
          "type": "address"
        }
      ],
      "name": "ERC20InvalidApprover",
      "type": "error"
    },
    {
      "inputs": [
        {
          "internalType": "address",
          "name": "receiver",
          "type": "address"
        }
      ],
      "name": "ERC20InvalidReceiver",
      "type": "error"
    },
    {
      "inputs": [
        {
          "internalType": "address",
          "name": "sender",
          "type": "address"
        }
      ],
      "name": "ERC20InvalidSender",
      "type": "error"
    },
    {
      "inputs": [
        {
          "internalType": "address",
          "name": "spender",
          "type": "address"
        }
      ],
      "name": "ERC20InvalidSpender",
      "type": "error"
    },
    {
      "inputs": [
        {
          "internalType": "uint256",
          "name": "deadline",
          "type": "uint256"
        }
      ],
      "name": "ERC2612ExpiredSignature",
      "type": "error"
    },
    {
      "inputs": [
        {
          "internalType": "address",
          "name": "signer",
          "type": "address"
        },
        {
          "internalType": "address",
          "name": "owner",
          "type": "address"
        }
      ],
      "name": "ERC2612InvalidSigner",
      "type": "error"
    },
    {
      "inputs": [
        {
          "internalType": "uint256",
          "name": "timepoint",
          "type": "uint256"
        },
        {
          "internalType": "uint48",
          "name": "clock",
          "type": "uint48"
        }
      ],
      "name": "ERC5805FutureLookup",
      "type": "error"
    },
    {
      "inputs": [],
      "name": "ERC6372InconsistentClock",
      "type": "error"
    },
    {
      "inputs": [
        {
          "internalType": "address",
          "name": "account",
          "type": "address"
        },
        {
          "internalType": "uint256",
          "name": "currentNonce",
          "type": "uint256"
        }
      ],
      "name": "InvalidAccountNonce",
      "type": "error"
    },
    {
      "inputs": [],
      "name": "InvalidShortString",
      "type": "error"
    },
    {
      "inputs": [
        {
          "internalType": "uint8",
          "name": "bits",
          "type": "uint8"
        },
        {
          "internalType": "uint256",
          "name": "value",
          "type": "uint256"
        }
      ],
      "name": "SafeCastOverflowedUintDowncast",
      "type": "error"
    },
    {
      "inputs": [
        {
          "internalType": "string",
          "name": "str",
          "type": "string"
        }
      ],
      "name": "StringTooLong",
      "type": "error"
    },
    {
      "inputs": [
        {
          "internalType": "uint256",
          "name": "expiry",
          "type": "uint256"
        }
      ],
      "name": "VotesExpiredSignature",
      "type": "error"
    },
    {
      "anonymous": false,
      "inputs": [
        {
          "indexed": true,
          "internalType": "address",
          "name": "owner",
          "type": "address"
        },
        {
          "indexed": true,
          "internalType": "address",
          "name": "spender",
          "type": "address"
        },
        {
          "indexed": false,
          "internalType": "uint256",
          "name": "value",
          "type": "uint256"
        }
      ],
      "name": "Approval",
      "type": "event"
    },
    {
      "anonymous": false,
      "inputs": [
        {
          "indexed": true,
          "internalType": "address",
          "name": "delegator",
          "type": "address"
        },
        {
          "indexed": true,
          "internalType": "address",
          "name": "fromDelegate",
          "type": "address"
        },
        {
          "indexed": true,
          "internalType": "address",
          "name": "toDelegate",
          "type": "address"
        }
      ],
      "name": "DelegateChanged",
      "type": "event"
    },
    {
      "anonymous": false,
      "inputs": [
        {
          "indexed": true,
          "internalType": "address",
          "name": "delegate",
          "type": "address"
        },
        {
          "indexed": false,
          "internalType": "uint256",
          "name": "previousVotes",
          "type": "uint256"
        },
        {
          "indexed": false,
          "internalType": "uint256",
          "name": "newVotes",
          "type": "uint256"
        }
      ],
      "name": "DelegateVotesChanged",
      "type": "event"
    },
    {
      "anonymous": false,
      "inputs": [],
      "name": "EIP712DomainChanged",
      "type": "event"
    },
    {
      "anonymous": false,
      "inputs": [
        {
          "indexed": true,
          "internalType": "address",
          "name": "from",
          "type": "address"
        },
        {
          "indexed": true,
          "internalType": "address",
          "name": "to",
          "type": "address"
        },
        {
          "indexed": false,
          "internalType": "uint256",
          "name": "value",
          "type": "uint256"
        }
      ],
      "name": "Transfer",
      "type": "event"
    },
    {
      "inputs": [],
      "name": "CLOCK_MODE",
      "outputs": [
        {
          "internalType": "string",
          "name": "",
          "type": "string"
        }
      ],
      "stateMutability": "pure",
      "type": "function"
    },
    {
      "inputs": [],
      "name": "DOMAIN_SEPARATOR",
      "outputs": [
        {
          "internalType": "bytes32",
          "name": "",
          "type": "bytes32"
        }
      ],
      "stateMutability": "view",
      "type": "function"
    },
    {
      "inputs": [
        {
          "internalType": "address",
          "name": "owner",
          "type": "address"
        },
        {
          "internalType": "address",
          "name": "spender",
          "type": "address"
        }
      ],
      "name": "allowance",
      "outputs": [
        {
          "internalType": "uint256",
          "name": "",
          "type": "uint256"
        }
      ],
      "stateMutability": "view",
      "type": "function"
    },
    {
      "inputs": [
        {
          "internalType": "address",
          "name": "spender",
          "type": "address"
        },
        {
          "internalType": "uint256",
          "name": "value",
          "type": "uint256"
        }
      ],
      "name": "approve",
      "outputs": [
        {
          "internalType": "bool",
          "name": "",
          "type": "bool"
        }
      ],
      "stateMutability": "nonpayable",
      "type": "function"
    },
    {
      "inputs": [
        {
          "internalType": "address",
          "name": "account",
          "type": "address"
        }
      ],
      "name": "balanceOf",
      "outputs": [
        {
          "internalType": "uint256",
          "name": "",
          "type": "uint256"
        }
      ],
      "stateMutability": "view",
      "type": "function"
    },
    {
      "inputs": [
        {
          "internalType": "address",
          "name": "account",
          "type": "address"
        },
        {
          "internalType": "uint32",
          "name": "pos",
          "type": "uint32"
        }
      ],
      "name": "checkpoints",
      "outputs": [
        {
          "components": [
            {
              "internalType": "uint48",
              "name": "_key",
              "type": "uint48"
            },
            {
              "internalType": "uint208",
              "name": "_value",
              "type": "uint208"
            }
          ],
          "internalType": "struct Checkpoints.Checkpoint208",
          "name": "",
          "type": "tuple"
        }
      ],
      "stateMutability": "view",
      "type": "function"
    },
    {
      "inputs": [],
      "name": "clock",
      "outputs": [
        {
          "internalType": "uint48",
          "name": "",
          "type": "uint48"
        }
      ],
      "stateMutability": "view",
      "type": "function"
    },
    {
      "inputs": [],
      "name": "decimals",
      "outputs": [
        {
          "internalType": "uint8",
          "name": "",
          "type": "uint8"
        }
      ],
      "stateMutability": "view",
      "type": "function"
    },
    {
      "inputs": [
        {
          "internalType": "address",
          "name": "delegatee",
          "type": "address"
        }
      ],
      "name": "delegate",
      "outputs": [],
      "stateMutability": "nonpayable",
      "type": "function"
    },
    {
      "inputs": [
        {
          "internalType": "address",
          "name": "delegatee",
          "type": "address"
        },
        {
          "internalType": "uint256",
          "name": "nonce",
          "type": "uint256"
        },
        {
          "internalType": "uint256",
          "name": "expiry",
          "type": "uint256"
        },
        {
          "internalType": "uint8",
          "name": "v",
          "type": "uint8"
        },
        {
          "internalType": "bytes32",
          "name": "r",
          "type": "bytes32"
        },
        {
          "internalType": "bytes32",
          "name": "s",
          "type": "bytes32"
        }
      ],
      "name": "delegateBySig",
      "outputs": [],
      "stateMutability": "nonpayable",
      "type": "function"
    },
    {
      "inputs": [
        {
          "internalType": "address",
          "name": "account",
          "type": "address"
        }
      ],
      "name": "delegates",
      "outputs": [
        {
          "internalType": "address",
          "name": "",
          "type": "address"
        }
      ],
      "stateMutability": "view",
      "type": "function"
    },
    {
      "inputs": [],
      "name": "eip712Domain",
      "outputs": [
        {
          "internalType": "bytes1",
          "name": "fields",
          "type": "bytes1"
        },
        {
          "internalType": "string",
          "name": "name",
          "type": "string"
        },
        {
          "internalType": "string",
          "name": "version",
          "type": "string"
        },
        {
          "internalType": "uint256",
          "name": "chainId",
          "type": "uint256"
        },
        {
          "internalType": "address",
          "name": "verifyingContract",
          "type": "address"
        },
        {
          "internalType": "bytes32",
          "name": "salt",
          "type": "bytes32"
        },
        {
          "internalType": "uint256[]",
          "name": "extensions",
          "type": "uint256[]"
        }
      ],
      "stateMutability": "view",
      "type": "function"
    },
    {
      "inputs": [
        {
          "internalType": "uint256",
          "name": "timepoint",
          "type": "uint256"
        }
      ],
      "name": "getPastTotalSupply",
      "outputs": [
        {
          "internalType": "uint256",
          "name": "",
          "type": "uint256"
        }
      ],
      "stateMutability": "view",
      "type": "function"
    },
    {
      "inputs": [
        {
          "internalType": "address",
          "name": "account",
          "type": "address"
        },
        {
          "internalType": "uint256",
          "name": "timepoint",
          "type": "uint256"
        }
      ],
      "name": "getPastVotes",
      "outputs": [
        {
          "internalType": "uint256",
          "name": "",
          "type": "uint256"
        }
      ],
      "stateMutability": "view",
      "type": "function"
    },
    {
      "inputs": [
        {
          "internalType": "address",
          "name": "account",
          "type": "address"
        }
      ],
      "name": "getVotes",
      "outputs": [
        {
          "internalType": "uint256",
          "name": "",
          "type": "uint256"
        }
      ],
      "stateMutability": "view",
      "type": "function"
    },
    {
      "inputs": [],
      "name": "name",
      "outputs": [
        {
          "internalType": "string",
          "name": "",
          "type": "string"
        }
      ],
      "stateMutability": "view",
      "type": "function"
    },
    {
      "inputs": [
        {
          "internalType": "address",
          "name": "owner",
          "type": "address"
        }
      ],
      "name": "nonces",
      "outputs": [
        {
          "internalType": "uint256",
          "name": "",
          "type": "uint256"
        }
      ],
      "stateMutability": "view",
      "type": "function"
    },
    {
      "inputs": [
        {
          "internalType": "address",
          "name": "account",
          "type": "address"
        }
      ],
      "name": "numCheckpoints",
      "outputs": [
        {
          "internalType": "uint32",
          "name": "",
          "type": "uint32"
        }
      ],
      "stateMutability": "view",
      "type": "function"
    },
    {
      "inputs": [
        {
          "internalType": "address",
          "name": "owner",
          "type": "address"
        },
        {
          "internalType": "address",
          "name": "spender",
          "type": "address"
        },
        {
          "internalType": "uint256",
          "name": "value",
          "type": "uint256"
        },
        {
          "internalType": "uint256",
          "name": "deadline",
          "type": "uint256"
        },
        {
          "internalType": "uint8",
          "name": "v",
          "type": "uint8"
        },
        {
          "internalType": "bytes32",
          "name": "r",
          "type": "bytes32"
        },
        {
          "internalType": "bytes32",
          "name": "s",
          "type": "bytes32"
        }
      ],
      "name": "permit",
      "outputs": [],
      "stateMutability": "nonpayable",
      "type": "function"
    },
    {
      "inputs": [],
      "name": "symbol",
      "outputs": [
        {
          "internalType": "string",
          "name": "",
          "type": "string"
        }
      ],
      "stateMutability": "view",
      "type": "function"
    },
    {
      "inputs": [],
      "name": "totalSupply",
      "outputs": [
        {
          "internalType": "uint256",
          "name": "",
          "type": "uint256"
        }
      ],
      "stateMutability": "view",
      "type": "function"
    },
    {
      "inputs": [
        {
          "internalType": "address",
          "name": "to",
          "type": "address"
        },
        {
          "internalType": "uint256",
          "name": "value",
          "type": "uint256"
        }
      ],
      "name": "transfer",
      "outputs": [
        {
          "internalType": "bool",
          "name": "",
          "type": "bool"
        }
      ],
      "stateMutability": "nonpayable",
      "type": "function"
    },
    {
      "inputs": [
        {
          "internalType": "address",
          "name": "from",
          "type": "address"
        },
        {
          "internalType": "address",
          "name": "to",
          "type": "address"
        },
        {
          "internalType": "uint256",
          "name": "value",
          "type": "uint256"
        }
      ],
      "name": "transferFrom",
      "outputs": [
        {
          "internalType": "bool",
          "name": "",
          "type": "bool"
        }
      ],
      "stateMutability": "nonpayable",
      "type": "function"
    }
  ],
  "bytecode": "0x61016060405234801562000011575f80fd5b506040518060400160405280601581526020017f4d79546f6b656e54696d657374616d704261736564000000000000000000000081525080604051806040016040528060018152602001603160f81b8152506040518060400160405280601581526020017f4d79546f6b656e54696d657374616d7042617365640000000000000000000000815250604051806040016040528060038152602001624d544b60e81b8152508160039081620000c69190620002b6565b506004620000d58282620002b6565b50620000e79150839050600562000195565b61012052620000f881600662000195565b61014052815160208084019190912060e052815190820120610100524660a0526200018560e05161010051604080517f8b73c3c69bb8fe3d512ecc4cf759cc79239f7b179b0ffacaa9a75d522b39400f60208201529081019290925260608201524660808201523060a08201525f9060c00160405160208183030381529060405280519060200120905090565b60805250503060c05250620003f4565b5f602083511015620001b457620001ac83620001cd565b9050620001c7565b81620001c18482620002b6565b5060ff90505b92915050565b5f80829050601f8151111562000203578260405163305a27a960e01b8152600401620001fa919062000382565b60405180910390fd5b80516200021082620003d0565b179392505050565b634e487b7160e01b5f52604160045260245ffd5b600181811c908216806200024157607f821691505b6020821081036200026057634e487b7160e01b5f52602260045260245ffd5b50919050565b601f821115620002b157805f5260205f20601f840160051c810160208510156200028d5750805b601f840160051c820191505b81811015620002ae575f815560010162000299565b50505b505050565b81516001600160401b03811115620002d257620002d262000218565b620002ea81620002e384546200022c565b8462000266565b602080601f83116001811462000320575f8415620003085750858301515b5f19600386901b1c1916600185901b1785556200037a565b5f85815260208120601f198616915b8281101562000350578886015182559484019460019091019084016200032f565b50858210156200036e57878501515f19600388901b60f8161c191681555b505060018460011b0185555b505050505050565b5f602080835283518060208501525f5b81811015620003b05785810183015185820160400152820162000392565b505f604082860101526040601f19601f8301168501019250505092915050565b8051602080830151919081101562000260575f1960209190910360031b1b16919050565b60805160a05160c05160e051610100516101205161014051611c6f620004465f395f610baf01525f610b8201525f61098801525f61096001525f6108bb01525f6108e501525f61090f0152611c6f5ff3fe608060405234801561000f575f80fd5b5060043610610148575f3560e01c806370a08231116100bf5780639ab24eb0116100795780639ab24eb01461030d578063a9059cbb14610320578063c3cda52014610333578063d505accf14610346578063dd62ed3e14610359578063f1127ed814610391575f80fd5b806370a08231146102865780637ecebe00146102ae57806384b0196e146102c15780638e539e8c146102dc57806391ddadf4146102ef57806395d89b4114610305575f80fd5b80633644e515116101105780633644e515146101c15780633a46b1a8146101c95780634bf5d7e9146101dc578063587cde1e146102065780635c19a95c146102495780636fcfff451461025e575f80fd5b806306fdde031461014c578063095ea7b31461016a57806318160ddd1461018d57806323b872dd1461019f578063313ce567146101b2575b5f80fd5b6101546103d0565b6040516101619190611899565b60405180910390f35b61017d6101783660046118c6565b610460565b6040519015158152602001610161565b6002545b604051908152602001610161565b61017d6101ad3660046118ee565b610479565b60405160128152602001610161565b61019161049c565b6101916101d73660046118c6565b6104aa565b60408051808201909152600e81526d06d6f64653d74696d657374616d760941b6020820152610154565b610231610214366004611927565b6001600160a01b039081165f908152600860205260409020541690565b6040516001600160a01b039091168152602001610161565b61025c610257366004611927565b6104e4565b005b61027161026c366004611927565b6104f3565b60405163ffffffff9091168152602001610161565b610191610294366004611927565b6001600160a01b03165f9081526020819052604090205490565b6101916102bc366004611927565b6104fd565b6102c9610507565b6040516101619796959493929190611940565b6101916102ea3660046119d7565b610549565b60405165ffffffffffff42168152602001610161565b61015461056d565b61019161031b366004611927565b61057c565b61017d61032e3660046118c6565b61059c565b61025c6103413660046119fe565b6105a9565b61025c610354366004611a52565b61066a565b610191610367366004611ab7565b6001600160a01b039182165f90815260016020908152604080832093909416825291909152205490565b6103a461039f366004611ae8565b6107a0565b60408051825165ffffffffffff1681526020928301516001600160d01b03169281019290925201610161565b6060600380546103df90611b25565b80601f016020809104026020016040519081016040528092919081815260200182805461040b90611b25565b80156104565780601f1061042d57610100808354040283529160200191610456565b820191905f5260205f20905b81548152906001019060200180831161043957829003601f168201915b5050505050905090565b5f3361046d8185856107c4565b60019150505b92915050565b5f336104868582856107d6565b610491858585610852565b506001949350505050565b5f6104a56108af565b905090565b5f6104d46104b7836109d8565b6001600160a01b0385165f90815260096020526040902090610a1c565b6001600160d01b03169392505050565b336104ef8183610acc565b5050565b5f61047382610b3d565b5f61047382610b5e565b5f6060805f805f6060610518610b7b565b610520610ba8565b604080515f80825260208201909252600f60f81b9b939a50919850469750309650945092509050565b5f61055e610556836109d8565b600a90610a1c565b6001600160d01b031692915050565b6060600480546103df90611b25565b6001600160a01b0381165f90815260096020526040812061055e90610bd5565b5f3361046d818585610852565b834211156105d257604051632341d78760e11b8152600481018590526024015b60405180910390fd5b604080517fe48329057bfd03d55e49b547132e39cffd9c1820ad7b9d4c5307691425d15adf60208201526001600160a01b0388169181019190915260608101869052608081018590525f9061064b906106439060a00160405160208183030381529060405280519060200120610c0c565b858585610c38565b90506106578187610c64565b6106618188610acc565b50505050505050565b8342111561068e5760405163313c898160e11b8152600481018590526024016105c9565b5f7f6e71edae12b1b97f4d1f60370fef10105fa2faae0126114a169c64845d6126c98888886106d98c6001600160a01b03165f90815260076020526040902080546001810190915590565b6040805160208101969096526001600160a01b0394851690860152929091166060840152608083015260a082015260c0810186905260e0016040516020818303038152906040528051906020012090505f61073382610c0c565b90505f61074282878787610c38565b9050896001600160a01b0316816001600160a01b031614610789576040516325c0072360e11b81526001600160a01b0380831660048301528b1660248201526044016105c9565b6107948a8a8a6107c4565b50505050505050505050565b604080518082019091525f80825260208201526107bd8383610cb6565b9392505050565b6107d18383836001610cea565b505050565b6001600160a01b038381165f908152600160209081526040808320938616835292905220545f1981101561084c578181101561083e57604051637dc7a0d960e11b81526001600160a01b038416600482015260248101829052604481018390526064016105c9565b61084c84848484035f610cea565b50505050565b6001600160a01b03831661087b57604051634b637e8f60e11b81525f60048201526024016105c9565b6001600160a01b0382166108a45760405163ec442f0560e01b81525f60048201526024016105c9565b6107d1838383610dbc565b5f306001600160a01b037f00000000000000000000000000000000000000000000000000000000000000001614801561090757507f000000000000000000000000000000000000000000000000000000000000000046145b1561093157507f000000000000000000000000000000000000000000000000000000000000000090565b6104a5604080517f8b73c3c69bb8fe3d512ecc4cf759cc79239f7b179b0ffacaa9a75d522b39400f60208201527f0000000000000000000000000000000000000000000000000000000000000000918101919091527f000000000000000000000000000000000000000000000000000000000000000060608201524660808201523060a08201525f9060c00160405160208183030381529060405280519060200120905090565b5f4265ffffffffffff81168310610a1357604051637669fc0f60e11b81526004810184905265ffffffffffff821660248201526044016105c9565b6107bd83610dc7565b81545f9081816005811115610a78575f610a3584610dfd565b610a3f9085611b71565b5f8881526020902090915081015465ffffffffffff9081169087161015610a6857809150610a76565b610a73816001611b84565b92505b505b5f610a8587878585610f55565b90508015610abf57610aa987610a9c600184611b71565b5f91825260209091200190565b54600160301b90046001600160d01b0316610ac1565b5f5b979650505050505050565b6001600160a01b038281165f8181526008602052604080822080548686166001600160a01b0319821681179092559151919094169392849290917f3134e8a2e6d97e929a7e54011ea5485d7d196dd5f0ba4d4ef95803e8e3fc257f9190a46107d18183610b3886610fb4565b610fd1565b6001600160a01b0381165f908152600960205260408120546104739061113a565b6001600160a01b0381165f90815260076020526040812054610473565b60606104a57f0000000000000000000000000000000000000000000000000000000000000000600561116a565b60606104a57f0000000000000000000000000000000000000000000000000000000000000000600661116a565b80545f908015610c0457610bee83610a9c600184611b71565b54600160301b90046001600160d01b03166107bd565b5f9392505050565b5f610473610c186108af565b8360405161190160f01b8152600281019290925260228201526042902090565b5f805f80610c4888888888611213565b925092509250610c5882826112db565b50909695505050505050565b6001600160a01b0382165f9081526007602052604090208054600181019091558181146107d1576040516301d4b62360e61b81526001600160a01b0384166004820152602481018290526044016105c9565b604080518082019091525f80825260208201526001600160a01b0383165f9081526009602052604090206107bd9083611393565b6001600160a01b038416610d135760405163e602df0560e01b81525f60048201526024016105c9565b6001600160a01b038316610d3c57604051634a1406b160e11b81525f60048201526024016105c9565b6001600160a01b038085165f908152600160209081526040808320938716835292905220829055801561084c57826001600160a01b0316846001600160a01b03167f8c5be1e5ebec7d5bd14f71427d1e84f3dd0314c0f7b2291e5b200ac8c7c3b92584604051610dae91815260200190565b60405180910390a350505050565b6107d1838383611400565b5f65ffffffffffff821115610df9576040516306dfcc6560e41b815260306004820152602481018390526044016105c9565b5090565b5f60018211610e0a575090565b816001600160801b8210610e235760809190911c9060401b5b680100000000000000008210610e3e5760409190911c9060201b5b6401000000008210610e555760209190911c9060101b5b620100008210610e6a5760109190911c9060081b5b6101008210610e7e5760089190911c9060041b5b60108210610e915760049190911c9060021b5b60048210610e9d5760011b5b600302600190811c90818581610eb557610eb5611b97565b048201901c90506001818581610ecd57610ecd611b97565b048201901c90506001818581610ee557610ee5611b97565b048201901c90506001818581610efd57610efd611b97565b048201901c90506001818581610f1557610f15611b97565b048201901c90506001818581610f2d57610f2d611b97565b048201901c9050610f4c818581610f4657610f46611b97565b04821190565b90039392505050565b5f5b81831015610fac575f610f6a8484611466565b5f8781526020902090915065ffffffffffff86169082015465ffffffffffff161115610f9857809250610fa6565b610fa3816001611b84565b93505b50610f57565b509392505050565b6001600160a01b0381165f90815260208190526040812054610473565b816001600160a01b0316836001600160a01b031614158015610ff257505f81115b156107d1576001600160a01b03831615611099576001600160a01b0383165f90815260096020526040812081906110349061148061102f8661148b565b6114be565b6001600160d01b031691506001600160d01b03169150846001600160a01b03167fdec2bacdd2f05b59de34da9b523dff8be42e5e38e818c82fdb0bae774387a724838360405161108e929190918252602082015260400190565b60405180910390a250505b6001600160a01b038216156107d1576001600160a01b0382165f90815260096020526040812081906110d1906114ef61102f8661148b565b6001600160d01b031691506001600160d01b03169150836001600160a01b03167fdec2bacdd2f05b59de34da9b523dff8be42e5e38e818c82fdb0bae774387a724838360405161112b929190918252602082015260400190565b60405180910390a25050505050565b5f63ffffffff821115610df9576040516306dfcc6560e41b815260206004820152602481018390526044016105c9565b606060ff83146111845761117d836114fa565b9050610473565b81805461119090611b25565b80601f01602080910402602001604051908101604052809291908181526020018280546111bc90611b25565b80156112075780601f106111de57610100808354040283529160200191611207565b820191905f5260205f20905b8154815290600101906020018083116111ea57829003601f168201915b50505050509050610473565b5f80807f7fffffffffffffffffffffffffffffff5d576e7357a4501ddfe92f46681b20a084111561124c57505f915060039050826112d1565b604080515f808252602082018084528a905260ff891692820192909252606081018790526080810186905260019060a0016020604051602081039080840390855afa15801561129d573d5f803e3d5ffd5b5050604051601f1901519150506001600160a01b0381166112c857505f9250600191508290506112d1565b92505f91508190505b9450945094915050565b5f8260038111156112ee576112ee611bab565b036112f7575050565b600182600381111561130b5761130b611bab565b036113295760405163f645eedf60e01b815260040160405180910390fd5b600282600381111561133d5761133d611bab565b0361135e5760405163fce698f760e01b8152600481018290526024016105c9565b600382600381111561137257611372611bab565b036104ef576040516335e2f38360e21b8152600481018290526024016105c9565b604080518082019091525f8082526020820152825f018263ffffffff16815481106113c0576113c0611bbf565b5f9182526020918290206040805180820190915291015465ffffffffffff81168252600160301b90046001600160d01b0316918101919091529392505050565b61140b838383611537565b6001600160a01b03831661145b575f61142360025490565b90506001600160d01b038082111561145857604051630e58ae9360e11b815260048101839052602481018290526044016105c9565b50505b6107d183838361165d565b5f6114746002848418611bd3565b6107bd90848416611b84565b5f6107bd8284611bf2565b5f6001600160d01b03821115610df9576040516306dfcc6560e41b815260d06004820152602481018390526044016105c9565b5f806114e2426114da6114d088610bd5565b868863ffffffff16565b8791906116d2565b915091505b935093915050565b5f6107bd8284611c19565b60605f611506836116df565b6040805160208082528183019092529192505f91906020820181803683375050509182525060208101929092525090565b6001600160a01b038316611561578060025f8282546115569190611b84565b909155506115d19050565b6001600160a01b0383165f90815260208190526040902054818110156115b35760405163391434e360e21b81526001600160a01b038516600482015260248101829052604481018390526064016105c9565b6001600160a01b0384165f9081526020819052604090209082900390555b6001600160a01b0382166115ed5760028054829003905561160b565b6001600160a01b0382165f9081526020819052604090208054820190555b816001600160a01b0316836001600160a01b03167fddf252ad1be2c89b69c2b068fc378daa952ba7f163c4a11628f55a4df523b3ef8360405161165091815260200190565b60405180910390a3505050565b6001600160a01b03831661167f5761167c600a6114ef61102f8461148b565b50505b6001600160a01b0382166116a15761169e600a61148061102f8461148b565b50505b6001600160a01b038381165f908152600860205260408082205485841683529120546107d192918216911683610fd1565b5f806114e2858585611706565b5f60ff8216601f81111561047357604051632cd44ac360e21b815260040160405180910390fd5b82545f90819080156117fc575f61172287610a9c600185611b71565b805490915065ffffffffffff80821691600160301b90046001600160d01b031690881682111561176557604051632520601d60e01b815260040160405180910390fd5b8765ffffffffffff168265ffffffffffff160361179e57825465ffffffffffff16600160301b6001600160d01b038916021783556117ee565b6040805180820190915265ffffffffffff808a1682526001600160d01b03808a1660208085019182528d54600181018f555f8f81529190912094519151909216600160301b029216919091179101555b94508593506114e792505050565b50506040805180820190915265ffffffffffff80851682526001600160d01b0380851660208085019182528854600181018a555f8a815291822095519251909316600160301b0291909316179201919091559050816114e7565b5f81518084525f5b8181101561187a5760208185018101518683018201520161185e565b505f602082860101526020601f19601f83011685010191505092915050565b602081525f6107bd6020830184611856565b80356001600160a01b03811681146118c1575f80fd5b919050565b5f80604083850312156118d7575f80fd5b6118e0836118ab565b946020939093013593505050565b5f805f60608486031215611900575f80fd5b611909846118ab565b9250611917602085016118ab565b9150604084013590509250925092565b5f60208284031215611937575f80fd5b6107bd826118ab565b60ff60f81b881681525f602060e0602084015261196060e084018a611856565b8381036040850152611972818a611856565b606085018990526001600160a01b038816608086015260a0850187905284810360c0860152855180825260208088019350909101905f5b818110156119c5578351835292840192918401916001016119a9565b50909c9b505050505050505050505050565b5f602082840312156119e7575f80fd5b5035919050565b803560ff811681146118c1575f80fd5b5f805f805f8060c08789031215611a13575f80fd5b611a1c876118ab565b95506020870135945060408701359350611a38606088016119ee565b92506080870135915060a087013590509295509295509295565b5f805f805f805f60e0888a031215611a68575f80fd5b611a71886118ab565b9650611a7f602089016118ab565b95506040880135945060608801359350611a9b608089016119ee565b925060a0880135915060c0880135905092959891949750929550565b5f8060408385031215611ac8575f80fd5b611ad1836118ab565b9150611adf602084016118ab565b90509250929050565b5f8060408385031215611af9575f80fd5b611b02836118ab565b9150602083013563ffffffff81168114611b1a575f80fd5b809150509250929050565b600181811c90821680611b3957607f821691505b602082108103611b5757634e487b7160e01b5f52602260045260245ffd5b50919050565b634e487b7160e01b5f52601160045260245ffd5b8181038181111561047357610473611b5d565b8082018082111561047357610473611b5d565b634e487b7160e01b5f52601260045260245ffd5b634e487b7160e01b5f52602160045260245ffd5b634e487b7160e01b5f52603260045260245ffd5b5f82611bed57634e487b7160e01b5f52601260045260245ffd5b500490565b6001600160d01b03828116828216039080821115611c1257611c12611b5d565b5092915050565b6001600160d01b03818116838216019080821115611c1257611c12611b5d56fea2646970667358221220cbab20b2553b974b7ce967a8c6d7af2101ffa186d731dc3dea34a03f5127973c64736f6c63430008180033",
  "linkReferences": {},
  "deployedLinkReferences": {}
}