{
  "_format": "hh-sol-artifact-1",
  "contractName": "$ERC20TemporaryApproval",
  "sourceName": "contracts-exposed/token/ERC20/extensions/draft-ERC20TemporaryApproval.sol",
  "abi": [
    {
      "inputs": [
        {
          "internalType": "string",
          "name": "name_",
          "type": "string"
        },
        {
          "internalType": "string",
          "name": "symbol_",
          "type": "string"
        }
      ],
      "stateMutability": "payable",
      "type": "constructor"
    },
    {
      "inputs": [
        {
          "internalType": "address",
          "name": "spender",
          "type": "address"
        },
        {
          "internalType": "uint256",
          "name": "allowance",
          "type": "uint256"
        },
        {
          "internalType": "uint256",
          "name": "needed",
          "type": "uint256"
        }
      ],
      "name": "ERC20InsufficientAllowance",
      "type": "error"
    },
    {
      "inputs": [
        {
          "internalType": "address",
          "name": "sender",
          "type": "address"
        },
        {
          "internalType": "uint256",
          "name": "balance",
          "type": "uint256"
        },
        {
          "internalType": "uint256",
          "name": "needed",
          "type": "uint256"
        }
      ],
      "name": "ERC20InsufficientBalance",
      "type": "error"
    },
    {
      "inputs": [
        {
          "internalType": "address",
          "name": "approver",
          "type": "address"
        }
      ],
      "name": "ERC20InvalidApprover",
      "type": "error"
    },
    {
      "inputs": [
        {
          "internalType": "address",
          "name": "receiver",
          "type": "address"
        }
      ],
      "name": "ERC20InvalidReceiver",
      "type": "error"
    },
    {
      "inputs": [
        {
          "internalType": "address",
          "name": "sender",
          "type": "address"
        }
      ],
      "name": "ERC20InvalidSender",
      "type": "error"
    },
    {
      "inputs": [
        {
          "internalType": "address",
          "name": "spender",
          "type": "address"
        }
      ],
      "name": "ERC20InvalidSpender",
      "type": "error"
    },
    {
      "anonymous": false,
      "inputs": [
        {
          "indexed": true,
          "internalType": "address",
          "name": "owner",
          "type": "address"
        },
        {
          "indexed": true,
          "internalType": "address",
          "name": "spender",
          "type": "address"
        },
        {
          "indexed": false,
          "internalType": "uint256",
          "name": "value",
          "type": "uint256"
        }
      ],
      "name": "Approval",
      "type": "event"
    },
    {
      "anonymous": false,
      "inputs": [
        {
          "indexed": true,
          "internalType": "address",
          "name": "from",
          "type": "address"
        },
        {
          "indexed": true,
          "internalType": "address",
          "name": "to",
          "type": "address"
        },
        {
          "indexed": false,
          "internalType": "uint256",
          "name": "value",
          "type": "uint256"
        }
      ],
      "name": "Transfer",
      "type": "event"
    },
    {
      "inputs": [
        {
          "internalType": "address",
          "name": "owner",
          "type": "address"
        },
        {
          "internalType": "address",
          "name": "spender",
          "type": "address"
        },
        {
          "internalType": "uint256",
          "name": "value",
          "type": "uint256"
        },
        {
          "internalType": "bool",
          "name": "emitEvent",
          "type": "bool"
        }
      ],
      "name": "$_approve",
      "outputs": [],
      "stateMutability": "nonpayable",
      "type": "function"
    },
    {
      "inputs": [
        {
          "internalType": "address",
          "name": "owner",
          "type": "address"
        },
        {
          "internalType": "address",
          "name": "spender",
          "type": "address"
        },
        {
          "internalType": "uint256",
          "name": "value",
          "type": "uint256"
        }
      ],
      "name": "$_approve",
      "outputs": [],
      "stateMutability": "nonpayable",
      "type": "function"
    },
    {
      "inputs": [
        {
          "internalType": "address",
          "name": "account",
          "type": "address"
        },
        {
          "internalType": "uint256",
          "name": "value",
          "type": "uint256"
        }
      ],
      "name": "$_burn",
      "outputs": [],
      "stateMutability": "nonpayable",
      "type": "function"
    },
    {
      "inputs": [],
      "name": "$_contextSuffixLength",
      "outputs": [
        {
          "internalType": "uint256",
          "name": "ret0",
          "type": "uint256"
        }
      ],
      "stateMutability": "view",
      "type": "function"
    },
    {
      "inputs": [
        {
          "internalType": "address",
          "name": "account",
          "type": "address"
        },
        {
          "internalType": "uint256",
          "name": "value",
          "type": "uint256"
        }
      ],
      "name": "$_mint",
      "outputs": [],
      "stateMutability": "nonpayable",
      "type": "function"
    },
    {
      "inputs": [],
      "name": "$_msgData",
      "outputs": [
        {
          "internalType": "bytes",
          "name": "ret0",
          "type": "bytes"
        }
      ],
      "stateMutability": "view",
      "type": "function"
    },
    {
      "inputs": [],
      "name": "$_msgSender",
      "outputs": [
        {
          "internalType": "address",
          "name": "ret0",
          "type": "address"
        }
      ],
      "stateMutability": "view",
      "type": "function"
    },
    {
      "inputs": [
        {
          "internalType": "address",
          "name": "owner",
          "type": "address"
        },
        {
          "internalType": "address",
          "name": "spender",
          "type": "address"
        },
        {
          "internalType": "uint256",
          "name": "value",
          "type": "uint256"
        }
      ],
      "name": "$_spendAllowance",
      "outputs": [],
      "stateMutability": "nonpayable",
      "type": "function"
    },
    {
      "inputs": [
        {
          "internalType": "address",
          "name": "owner",
          "type": "address"
        },
        {
          "internalType": "address",
          "name": "spender",
          "type": "address"
        }
      ],
      "name": "$_temporaryAllowance",
      "outputs": [
        {
          "internalType": "uint256",
          "name": "ret0",
          "type": "uint256"
        }
      ],
      "stateMutability": "view",
      "type": "function"
    },
    {
      "inputs": [
        {
          "internalType": "address",
          "name": "owner",
          "type": "address"
        },
        {
          "internalType": "address",
          "name": "spender",
          "type": "address"
        },
        {
          "internalType": "uint256",
          "name": "value",
          "type": "uint256"
        }
      ],
      "name": "$_temporaryApprove",
      "outputs": [],
      "stateMutability": "nonpayable",
      "type": "function"
    },
    {
      "inputs": [
        {
          "internalType": "address",
          "name": "from",
          "type": "address"
        },
        {
          "internalType": "address",
          "name": "to",
          "type": "address"
        },
        {
          "internalType": "uint256",
          "name": "value",
          "type": "uint256"
        }
      ],
      "name": "$_transfer",
      "outputs": [],
      "stateMutability": "nonpayable",
      "type": "function"
    },
    {
      "inputs": [
        {
          "internalType": "address",
          "name": "from",
          "type": "address"
        },
        {
          "internalType": "address",
          "name": "to",
          "type": "address"
        },
        {
          "internalType": "uint256",
          "name": "value",
          "type": "uint256"
        }
      ],
      "name": "$_update",
      "outputs": [],
      "stateMutability": "nonpayable",
      "type": "function"
    },
    {
      "inputs": [],
      "name": "__hh_exposed_bytecode_marker",
      "outputs": [
        {
          "internalType": "bytes32",
          "name": "",
          "type": "bytes32"
        }
      ],
      "stateMutability": "view",
      "type": "function"
    },
    {
      "inputs": [
        {
          "internalType": "address",
          "name": "owner",
          "type": "address"
        },
        {
          "internalType": "address",
          "name": "spender",
          "type": "address"
        }
      ],
      "name": "allowance",
      "outputs": [
        {
          "internalType": "uint256",
          "name": "",
          "type": "uint256"
        }
      ],
      "stateMutability": "view",
      "type": "function"
    },
    {
      "inputs": [
        {
          "internalType": "address",
          "name": "spender",
          "type": "address"
        },
        {
          "internalType": "uint256",
          "name": "value",
          "type": "uint256"
        }
      ],
      "name": "approve",
      "outputs": [
        {
          "internalType": "bool",
          "name": "",
          "type": "bool"
        }
      ],
      "stateMutability": "nonpayable",
      "type": "function"
    },
    {
      "inputs": [
        {
          "internalType": "address",
          "name": "account",
          "type": "address"
        }
      ],
      "name": "balanceOf",
      "outputs": [
        {
          "internalType": "uint256",
          "name": "",
          "type": "uint256"
        }
      ],
      "stateMutability": "view",
      "type": "function"
    },
    {
      "inputs": [],
      "name": "decimals",
      "outputs": [
        {
          "internalType": "uint8",
          "name": "",
          "type": "uint8"
        }
      ],
      "stateMutability": "view",
      "type": "function"
    },
    {
      "inputs": [],
      "name": "name",
      "outputs": [
        {
          "internalType": "string",
          "name": "",
          "type": "string"
        }
      ],
      "stateMutability": "view",
      "type": "function"
    },
    {
      "inputs": [],
      "name": "symbol",
      "outputs": [
        {
          "internalType": "string",
          "name": "",
          "type": "string"
        }
      ],
      "stateMutability": "view",
      "type": "function"
    },
    {
      "inputs": [
        {
          "internalType": "address",
          "name": "spender",
          "type": "address"
        },
        {
          "internalType": "uint256",
          "name": "value",
          "type": "uint256"
        }
      ],
      "name": "temporaryApprove",
      "outputs": [
        {
          "internalType": "bool",
          "name": "",
          "type": "bool"
        }
      ],
      "stateMutability": "nonpayable",
      "type": "function"
    },
    {
      "inputs": [],
      "name": "totalSupply",
      "outputs": [
        {
          "internalType": "uint256",
          "name": "",
          "type": "uint256"
        }
      ],
      "stateMutability": "view",
      "type": "function"
    },
    {
      "inputs": [
        {
          "internalType": "address",
          "name": "to",
          "type": "address"
        },
        {
          "internalType": "uint256",
          "name": "value",
          "type": "uint256"
        }
      ],
      "name": "transfer",
      "outputs": [
        {
          "internalType": "bool",
          "name": "",
          "type": "bool"
        }
      ],
      "stateMutability": "nonpayable",
      "type": "function"
    },
    {
      "inputs": [
        {
          "internalType": "address",
          "name": "from",
          "type": "address"
        },
        {
          "internalType": "address",
          "name": "to",
          "type": "address"
        },
        {
          "internalType": "uint256",
          "name": "value",
          "type": "uint256"
        }
      ],
      "name": "transferFrom",
      "outputs": [
        {
          "internalType": "bool",
          "name": "",
          "type": "bool"
        }
      ],
      "stateMutability": "nonpayable",
      "type": "function"
    },
    {
      "stateMutability": "payable",
      "type": "receive"
    }
  ],
  "bytecode": "0x608060405260405162000f6e38038062000f6e833981016040819052620000269162000111565b8181600362000036838262000201565b50600462000045828262000201565b5050505050620002cd565b634e487b7160e01b5f52604160045260245ffd5b5f82601f83011262000074575f80fd5b81516001600160401b038082111562000091576200009162000050565b604051601f8301601f19908116603f01168101908282118183101715620000bc57620000bc62000050565b8160405283815260209250866020858801011115620000d9575f80fd5b5f91505b83821015620000fc5785820183015181830184015290820190620000dd565b5f602085830101528094505050505092915050565b5f806040838503121562000123575f80fd5b82516001600160401b03808211156200013a575f80fd5b620001488683870162000064565b935060208501519150808211156200015e575f80fd5b506200016d8582860162000064565b9150509250929050565b600181811c908216806200018c57607f821691505b602082108103620001ab57634e487b7160e01b5f52602260045260245ffd5b50919050565b601f821115620001fc57805f5260205f20601f840160051c81016020851015620001d85750805b601f840160051c820191505b81811015620001f9575f8155600101620001e4565b50505b505050565b81516001600160401b038111156200021d576200021d62000050565b62000235816200022e845462000177565b84620001b1565b602080601f8311600181146200026b575f8415620002535750858301515b5f19600386901b1c1916600185901b178555620002c5565b5f85815260208120601f198616915b828110156200029b578886015182559484019460019091019084016200027a565b5085821015620002b957878501515f19600388901b60f8161c191681555b505060018460011b0185555b505050505050565b610c9380620002db5f395ff3fe60806040526004361061013f575f3560e01c80636855a178116100b3578063a9059cbb1161006d578063a9059cbb14610364578063b2331d7d14610383578063cc461d62146103a2578063dd62ed3e146103c1578063e047838d146103e0578063efb43b07146103ff575f80fd5b80636855a178146102a05780636d05a3fa146102bf57806370a08231146102de578063861e3d3d1461031257806390d860371461033157806395d89b4114610350575f80fd5b8063313ce56711610104578063313ce567146101fa57806332bc74aa1461021557806332cadf3c14610236578063342db7391461024a57806342232a4c1461026f57806367354a841461028e575f80fd5b806306fdde031461014a578063095ea7b31461017457806318160ddd146101a357806323b872dd146101c15780632904df29146101e0575f80fd5b3661014657005b5f80fd5b348015610155575f80fd5b5061015e61041e565b60405161016b9190610ade565b60405180910390f35b34801561017f575f80fd5b5061019361018e366004610b0b565b6104ae565b604051901515815260200161016b565b3480156101ae575f80fd5b506002545b60405190815260200161016b565b3480156101cc575f80fd5b506101936101db366004610b33565b6104c7565b3480156101eb575f80fd5b5060405133815260200161016b565b348015610205575f80fd5b506040516012815260200161016b565b348015610220575f80fd5b5061023461022f366004610b6c565b6104ea565b005b348015610241575f80fd5b5061015e6104fc565b348015610255575f80fd5b506101b36e1a185c991a185d0b595e1c1bdcd959608a1b81565b34801561027a575f80fd5b50610193610289366004610b0b565b610539565b348015610299575f80fd5b505f6101b3565b3480156102ab575f80fd5b506102346102ba366004610b33565b61054e565b3480156102ca575f80fd5b506101b36102d9366004610bbc565b61055e565b3480156102e9575f80fd5b506101b36102f8366004610bed565b6001600160a01b03165f9081526020819052604090205490565b34801561031d575f80fd5b5061023461032c366004610b33565b610570565b34801561033c575f80fd5b5061023461034b366004610b33565b61057b565b34801561035b575f80fd5b5061015e610586565b34801561036f575f80fd5b5061019361037e366004610b0b565b610595565b34801561038e575f80fd5b5061023461039d366004610b33565b6105a2565b3480156103ad575f80fd5b506102346103bc366004610b0b565b6105ad565b3480156103cc575f80fd5b506101b36103db366004610bbc565b6105bb565b3480156103eb575f80fd5b506102346103fa366004610b0b565b610614565b34801561040a575f80fd5b50610234610419366004610b33565b61061e565b60606003805461042d90610c06565b80601f016020809104026020016040519081016040528092919081815260200182805461045990610c06565b80156104a45780601f1061047b576101008083540402835291602001916104a4565b820191905f5260205f20905b81548152906001019060200180831161048757829003601f168201915b5050505050905090565b5f336104bb818585610629565b60019150505b92915050565b5f336104d4858285610636565b6104df858585610687565b506001949350505050565b6104f6848484846106de565b50505050565b60605f368080601f0160208091040260200160405190810160405280939291908181526020018383808284375f9201919091525092949350505050565b5f6105453384846107b0565b50600192915050565b610559838383610816565b505050565b5f610569838361093c565b9392505050565b610559838383610629565b6105598383836107b0565b60606004805461042d90610c06565b5f336104bb818585610687565b610559838383610636565b6105b7828261094e565b5050565b6001600160a01b038083165f908152600160209081526040808320938516835292905290812054819081906105f9906105f4878761093c565b610982565b9150915081610609575f1961060b565b805b95945050505050565b6105b782826109a9565b610559838383610687565b61055983838360016106de565b5f610641848461093c565b90508015610676575f1981036106575750505050565b5f61066282846109dd565b905061067185858385036107b0565b909103905b81156104f6576104f68484846109ec565b6001600160a01b0383166106b557604051634b637e8f60e11b81525f60048201526024015b60405180910390fd5b6001600160a01b03821661054e5760405163ec442f0560e01b81525f60048201526024016106ac565b6001600160a01b0384166107075760405163e602df0560e01b81525f60048201526024016106ac565b6001600160a01b03831661073057604051634a1406b160e11b81525f60048201526024016106ac565b6001600160a01b038085165f90815260016020908152604080832093871683529290522082905580156104f657826001600160a01b0316846001600160a01b03167f8c5be1e5ebec7d5bd14f71427d1e84f3dd0314c0f7b2291e5b200ac8c7c3b925846040516107a291815260200190565b60405180910390a350505050565b6001600160a01b0383166107d95760405163e602df0560e01b81525f60048201526024016106ac565b6001600160a01b03821661080257604051634a1406b160e11b81525f60048201526024016106ac565b610559816108108585610a4a565b90610a94565b6001600160a01b038316610840578060025f8282546108359190610c3e565b909155506108b09050565b6001600160a01b0383165f90815260208190526040902054818110156108925760405163391434e360e21b81526001600160a01b038516600482015260248101829052604481018390526064016106ac565b6001600160a01b0384165f9081526020819052604090209082900390555b6001600160a01b0382166108cc576002805482900390556108ea565b6001600160a01b0382165f9081526020819052604090208054820190555b816001600160a01b0316836001600160a01b03167fddf252ad1be2c89b69c2b068fc378daa952ba7f163c4a11628f55a4df523b3ef8360405161092f91815260200190565b60405180910390a3505050565b5f61056961094a8484610a4a565b5c90565b6001600160a01b0382166109775760405163ec442f0560e01b81525f60048201526024016106ac565b6105b75f8383610816565b5f808383018481101561099b575f8092509250506109a2565b6001925090505b9250929050565b6001600160a01b0382166109d257604051634b637e8f60e11b81525f60048201526024016106ac565b6105b7825f83610816565b5f828218828410028218610569565b5f6109f784846105bb565b90505f198110156104f65781811015610a3c57604051637dc7a0d960e11b81526001600160a01b038416600482015260248101829052604481018390526064016106ac565b6104f684848484035f6106de565b6001600160a01b038281165f9081527fea2d0e77a01400d0111492b1321103eed560d8fe44b9a7c2410407714583c400602090815260408083209385168352929052908120610569565b80825d5050565b5f81518084525f5b81811015610abf57602081850181015186830182015201610aa3565b505f602082860101526020601f19601f83011685010191505092915050565b602081525f6105696020830184610a9b565b80356001600160a01b0381168114610b06575f80fd5b919050565b5f8060408385031215610b1c575f80fd5b610b2583610af0565b946020939093013593505050565b5f805f60608486031215610b45575f80fd5b610b4e84610af0565b9250610b5c60208501610af0565b9150604084013590509250925092565b5f805f8060808587031215610b7f575f80fd5b610b8885610af0565b9350610b9660208601610af0565b92506040850135915060608501358015158114610bb1575f80fd5b939692955090935050565b5f8060408385031215610bcd575f80fd5b610bd683610af0565b9150610be460208401610af0565b90509250929050565b5f60208284031215610bfd575f80fd5b61056982610af0565b600181811c90821680610c1a57607f821691505b602082108103610c3857634e487b7160e01b5f52602260045260245ffd5b50919050565b808201808211156104c157634e487b7160e01b5f52601160045260245ffdfea26469706673582212204d6922d76c1ee10a832936214c87d22db2eabdd4d6a70b6850e431165c5ba43a64736f6c63430008180033",
  "linkReferences": {},
  "deployedLinkReferences": {}
}