{
  "_format": "hh-sol-artifact-1",
  "contractName": "$ERC20WithAutoMinerReward",
  "sourceName": "contracts-exposed/mocks/docs/ERC20WithAutoMinerReward.sol",
  "abi": [
    {
      "inputs": [],
      "stateMutability": "payable",
      "type": "constructor"
    },
    {
      "inputs": [
        {
          "internalType": "address",
          "name": "spender",
          "type": "address"
        },
        {
          "internalType": "uint256",
          "name": "allowance",
          "type": "uint256"
        },
        {
          "internalType": "uint256",
          "name": "needed",
          "type": "uint256"
        }
      ],
      "name": "ERC20InsufficientAllowance",
      "type": "error"
    },
    {
      "inputs": [
        {
          "internalType": "address",
          "name": "sender",
          "type": "address"
        },
        {
          "internalType": "uint256",
          "name": "balance",
          "type": "uint256"
        },
        {
          "internalType": "uint256",
          "name": "needed",
          "type": "uint256"
        }
      ],
      "name": "ERC20InsufficientBalance",
      "type": "error"
    },
    {
      "inputs": [
        {
          "internalType": "address",
          "name": "approver",
          "type": "address"
        }
      ],
      "name": "ERC20InvalidApprover",
      "type": "error"
    },
    {
      "inputs": [
        {
          "internalType": "address",
          "name": "receiver",
          "type": "address"
        }
      ],
      "name": "ERC20InvalidReceiver",
      "type": "error"
    },
    {
      "inputs": [
        {
          "internalType": "address",
          "name": "sender",
          "type": "address"
        }
      ],
      "name": "ERC20InvalidSender",
      "type": "error"
    },
    {
      "inputs": [
        {
          "internalType": "address",
          "name": "spender",
          "type": "address"
        }
      ],
      "name": "ERC20InvalidSpender",
      "type": "error"
    },
    {
      "anonymous": false,
      "inputs": [
        {
          "indexed": true,
          "internalType": "address",
          "name": "owner",
          "type": "address"
        },
        {
          "indexed": true,
          "internalType": "address",
          "name": "spender",
          "type": "address"
        },
        {
          "indexed": false,
          "internalType": "uint256",
          "name": "value",
          "type": "uint256"
        }
      ],
      "name": "Approval",
      "type": "event"
    },
    {
      "anonymous": false,
      "inputs": [
        {
          "indexed": true,
          "internalType": "address",
          "name": "from",
          "type": "address"
        },
        {
          "indexed": true,
          "internalType": "address",
          "name": "to",
          "type": "address"
        },
        {
          "indexed": false,
          "internalType": "uint256",
          "name": "value",
          "type": "uint256"
        }
      ],
      "name": "Transfer",
      "type": "event"
    },
    {
      "inputs": [
        {
          "internalType": "address",
          "name": "owner",
          "type": "address"
        },
        {
          "internalType": "address",
          "name": "spender",
          "type": "address"
        },
        {
          "internalType": "uint256",
          "name": "value",
          "type": "uint256"
        },
        {
          "internalType": "bool",
          "name": "emitEvent",
          "type": "bool"
        }
      ],
      "name": "$_approve",
      "outputs": [],
      "stateMutability": "nonpayable",
      "type": "function"
    },
    {
      "inputs": [
        {
          "internalType": "address",
          "name": "owner",
          "type": "address"
        },
        {
          "internalType": "address",
          "name": "spender",
          "type": "address"
        },
        {
          "internalType": "uint256",
          "name": "value",
          "type": "uint256"
        }
      ],
      "name": "$_approve",
      "outputs": [],
      "stateMutability": "nonpayable",
      "type": "function"
    },
    {
      "inputs": [
        {
          "internalType": "address",
          "name": "account",
          "type": "address"
        },
        {
          "internalType": "uint256",
          "name": "value",
          "type": "uint256"
        }
      ],
      "name": "$_burn",
      "outputs": [],
      "stateMutability": "nonpayable",
      "type": "function"
    },
    {
      "inputs": [],
      "name": "$_contextSuffixLength",
      "outputs": [
        {
          "internalType": "uint256",
          "name": "ret0",
          "type": "uint256"
        }
      ],
      "stateMutability": "view",
      "type": "function"
    },
    {
      "inputs": [
        {
          "internalType": "address",
          "name": "account",
          "type": "address"
        },
        {
          "internalType": "uint256",
          "name": "value",
          "type": "uint256"
        }
      ],
      "name": "$_mint",
      "outputs": [],
      "stateMutability": "nonpayable",
      "type": "function"
    },
    {
      "inputs": [],
      "name": "$_mintMinerReward",
      "outputs": [],
      "stateMutability": "nonpayable",
      "type": "function"
    },
    {
      "inputs": [],
      "name": "$_msgData",
      "outputs": [
        {
          "internalType": "bytes",
          "name": "ret0",
          "type": "bytes"
        }
      ],
      "stateMutability": "view",
      "type": "function"
    },
    {
      "inputs": [],
      "name": "$_msgSender",
      "outputs": [
        {
          "internalType": "address",
          "name": "ret0",
          "type": "address"
        }
      ],
      "stateMutability": "view",
      "type": "function"
    },
    {
      "inputs": [
        {
          "internalType": "address",
          "name": "owner",
          "type": "address"
        },
        {
          "internalType": "address",
          "name": "spender",
          "type": "address"
        },
        {
          "internalType": "uint256",
          "name": "value",
          "type": "uint256"
        }
      ],
      "name": "$_spendAllowance",
      "outputs": [],
      "stateMutability": "nonpayable",
      "type": "function"
    },
    {
      "inputs": [
        {
          "internalType": "address",
          "name": "from",
          "type": "address"
        },
        {
          "internalType": "address",
          "name": "to",
          "type": "address"
        },
        {
          "internalType": "uint256",
          "name": "value",
          "type": "uint256"
        }
      ],
      "name": "$_transfer",
      "outputs": [],
      "stateMutability": "nonpayable",
      "type": "function"
    },
    {
      "inputs": [
        {
          "internalType": "address",
          "name": "from",
          "type": "address"
        },
        {
          "internalType": "address",
          "name": "to",
          "type": "address"
        },
        {
          "internalType": "uint256",
          "name": "value",
          "type": "uint256"
        }
      ],
      "name": "$_update",
      "outputs": [],
      "stateMutability": "nonpayable",
      "type": "function"
    },
    {
      "inputs": [],
      "name": "__hh_exposed_bytecode_marker",
      "outputs": [
        {
          "internalType": "bytes32",
          "name": "",
          "type": "bytes32"
        }
      ],
      "stateMutability": "view",
      "type": "function"
    },
    {
      "inputs": [
        {
          "internalType": "address",
          "name": "owner",
          "type": "address"
        },
        {
          "internalType": "address",
          "name": "spender",
          "type": "address"
        }
      ],
      "name": "allowance",
      "outputs": [
        {
          "internalType": "uint256",
          "name": "",
          "type": "uint256"
        }
      ],
      "stateMutability": "view",
      "type": "function"
    },
    {
      "inputs": [
        {
          "internalType": "address",
          "name": "spender",
          "type": "address"
        },
        {
          "internalType": "uint256",
          "name": "value",
          "type": "uint256"
        }
      ],
      "name": "approve",
      "outputs": [
        {
          "internalType": "bool",
          "name": "",
          "type": "bool"
        }
      ],
      "stateMutability": "nonpayable",
      "type": "function"
    },
    {
      "inputs": [
        {
          "internalType": "address",
          "name": "account",
          "type": "address"
        }
      ],
      "name": "balanceOf",
      "outputs": [
        {
          "internalType": "uint256",
          "name": "",
          "type": "uint256"
        }
      ],
      "stateMutability": "view",
      "type": "function"
    },
    {
      "inputs": [],
      "name": "decimals",
      "outputs": [
        {
          "internalType": "uint8",
          "name": "",
          "type": "uint8"
        }
      ],
      "stateMutability": "view",
      "type": "function"
    },
    {
      "inputs": [],
      "name": "name",
      "outputs": [
        {
          "internalType": "string",
          "name": "",
          "type": "string"
        }
      ],
      "stateMutability": "view",
      "type": "function"
    },
    {
      "inputs": [],
      "name": "symbol",
      "outputs": [
        {
          "internalType": "string",
          "name": "",
          "type": "string"
        }
      ],
      "stateMutability": "view",
      "type": "function"
    },
    {
      "inputs": [],
      "name": "totalSupply",
      "outputs": [
        {
          "internalType": "uint256",
          "name": "",
          "type": "uint256"
        }
      ],
      "stateMutability": "view",
      "type": "function"
    },
    {
      "inputs": [
        {
          "internalType": "address",
          "name": "to",
          "type": "address"
        },
        {
          "internalType": "uint256",
          "name": "value",
          "type": "uint256"
        }
      ],
      "name": "transfer",
      "outputs": [
        {
          "internalType": "bool",
          "name": "",
          "type": "bool"
        }
      ],
      "stateMutability": "nonpayable",
      "type": "function"
    },
    {
      "inputs": [
        {
          "internalType": "address",
          "name": "from",
          "type": "address"
        },
        {
          "internalType": "address",
          "name": "to",
          "type": "address"
        },
        {
          "internalType": "uint256",
          "name": "value",
          "type": "uint256"
        }
      ],
      "name": "transferFrom",
      "outputs": [
        {
          "internalType": "bool",
          "name": "",
          "type": "bool"
        }
      ],
      "stateMutability": "nonpayable",
      "type": "function"
    },
    {
      "stateMutability": "payable",
      "type": "receive"
    }
  ],
  "bytecode": "0x600660809081526514995dd85c9960d21b60a052610100604052600360c0818152621495d160ea1b60e05290620000378382620002b7565b506004620000468282620002b7565b50620000549150506200005a565b620003a9565b62000068416103e86200006a565b565b6001600160a01b038216620000995760405163ec442f0560e01b81525f60048201526024015b60405180910390fd5b620000a65f8383620000aa565b5050565b6001600160a01b038316158015620000ca57506001600160a01b03821641145b620000d957620000d96200005a565b620000e6838383620000eb565b505050565b6001600160a01b03831662000119578060025f8282546200010d919062000383565b909155506200018b9050565b6001600160a01b0383165f90815260208190526040902054818110156200016d5760405163391434e360e21b81526001600160a01b0385166004820152602481018290526044810183905260640162000090565b6001600160a01b0384165f9081526020819052604090209082900390555b6001600160a01b038216620001a957600280548290039055620001c7565b6001600160a01b0382165f9081526020819052604090208054820190555b816001600160a01b0316836001600160a01b03167fddf252ad1be2c89b69c2b068fc378daa952ba7f163c4a11628f55a4df523b3ef836040516200020d91815260200190565b60405180910390a3505050565b634e487b7160e01b5f52604160045260245ffd5b600181811c908216806200024357607f821691505b6020821081036200026257634e487b7160e01b5f52602260045260245ffd5b50919050565b601f821115620000e657805f5260205f20601f840160051c810160208510156200028f5750805b601f840160051c820191505b81811015620002b0575f81556001016200029b565b5050505050565b81516001600160401b03811115620002d357620002d36200021a565b620002eb81620002e484546200022e565b8462000268565b602080601f83116001811462000321575f8415620003095750858301515b5f19600386901b1c1916600185901b1785556200037b565b5f85815260208120601f198616915b82811015620003515788860151825594840194600190910190840162000330565b50858210156200036f57878501515f19600388901b60f8161c191681555b505060018460011b0185555b505050505050565b80820180821115620003a357634e487b7160e01b5f52601160045260245ffd5b92915050565b610ae580620003b75f395ff3fe608060405260043610610129575f3560e01c80636855a178116100a8578063b1ec797b1161006d578063b1ec797b14610310578063b2331d7d14610324578063cc461d6214610343578063dd62ed3e14610362578063e047838d146103a6578063efb43b07146103c5575f80fd5b80636855a1781461026b57806370a082311461028a578063861e3d3d146102be57806395d89b41146102dd578063a9059cbb146102f1575f80fd5b8063313ce567116100ee578063313ce567146101e457806332bc74aa146101ff57806332cadf3c14610220578063342db7391461023457806367354a8414610259575f80fd5b806306fdde0314610134578063095ea7b31461015e57806318160ddd1461018d57806323b872dd146101ab5780632904df29146101ca575f80fd5b3661013057005b5f80fd5b34801561013f575f80fd5b506101486103e4565b6040516101559190610929565b60405180910390f35b348015610169575f80fd5b5061017d61017836600461095d565b610474565b6040519015158152602001610155565b348015610198575f80fd5b506002545b604051908152602001610155565b3480156101b6575f80fd5b5061017d6101c5366004610985565b61048d565b3480156101d5575f80fd5b50604051338152602001610155565b3480156101ef575f80fd5b5060405160128152602001610155565b34801561020a575f80fd5b5061021e6102193660046109be565b6104b0565b005b34801561022b575f80fd5b506101486104c2565b34801561023f575f80fd5b5061019d6e1a185c991a185d0b595e1c1bdcd959608a1b81565b348015610264575f80fd5b505f61019d565b348015610276575f80fd5b5061021e610285366004610985565b6104ff565b348015610295575f80fd5b5061019d6102a4366004610a0e565b6001600160a01b03165f9081526020819052604090205490565b3480156102c9575f80fd5b5061021e6102d8366004610985565b61050f565b3480156102e8575f80fd5b5061014861051a565b3480156102fc575f80fd5b5061017d61030b36600461095d565b610529565b34801561031b575f80fd5b5061021e610536565b34801561032f575f80fd5b5061021e61033e366004610985565b610540565b34801561034e575f80fd5b5061021e61035d36600461095d565b61054b565b34801561036d575f80fd5b5061019d61037c366004610a27565b6001600160a01b039182165f90815260016020908152604080832093909416825291909152205490565b3480156103b1575f80fd5b5061021e6103c036600461095d565b610559565b3480156103d0575f80fd5b5061021e6103df366004610985565b610563565b6060600380546103f390610a58565b80601f016020809104026020016040519081016040528092919081815260200182805461041f90610a58565b801561046a5780601f106104415761010080835404028352916020019161046a565b820191905f5260205f20905b81548152906001019060200180831161044d57829003601f168201915b5050505050905090565b5f3361048181858561056e565b60019150505b92915050565b5f3361049a85828561057b565b6104a58585856105f6565b506001949350505050565b6104bc84848484610648565b50505050565b60605f368080601f0160208091040260200160405190810160405280939291908181526020018383808284375f9201919091525092949350505050565b61050a83838361071a565b505050565b61050a83838361056e565b6060600480546103f390610a58565b5f336104818185856105f6565b61053e610750565b565b61050a83838361057b565b6105558282610758565b5050565b610555828261078c565b61050a8383836105f6565b61050a8383836001610648565b6001600160a01b038381165f908152600160209081526040808320938616835292905220545f198110156104bc57818110156105e857604051637dc7a0d960e11b81526001600160a01b038416600482015260248101829052604481018390526064015b60405180910390fd5b6104bc84848484035f610648565b6001600160a01b03831661061f57604051634b637e8f60e11b81525f60048201526024016105df565b6001600160a01b0382166104ff5760405163ec442f0560e01b81525f60048201526024016105df565b6001600160a01b0384166106715760405163e602df0560e01b81525f60048201526024016105df565b6001600160a01b03831661069a57604051634a1406b160e11b81525f60048201526024016105df565b6001600160a01b038085165f90815260016020908152604080832093871683529290522082905580156104bc57826001600160a01b0316846001600160a01b03167f8c5be1e5ebec7d5bd14f71427d1e84f3dd0314c0f7b2291e5b200ac8c7c3b9258460405161070c91815260200190565b60405180910390a350505050565b6001600160a01b03831615801561073957506001600160a01b03821641145b61074557610745610750565b61050a8383836107c0565b61053e416103e85b6001600160a01b0382166107815760405163ec442f0560e01b81525f60048201526024016105df565b6105555f838361071a565b6001600160a01b0382166107b557604051634b637e8f60e11b81525f60048201526024016105df565b610555825f8361071a565b6001600160a01b0383166107ea578060025f8282546107df9190610a90565b9091555061085a9050565b6001600160a01b0383165f908152602081905260409020548181101561083c5760405163391434e360e21b81526001600160a01b038516600482015260248101829052604481018390526064016105df565b6001600160a01b0384165f9081526020819052604090209082900390555b6001600160a01b03821661087657600280548290039055610894565b6001600160a01b0382165f9081526020819052604090208054820190555b816001600160a01b0316836001600160a01b03167fddf252ad1be2c89b69c2b068fc378daa952ba7f163c4a11628f55a4df523b3ef836040516108d991815260200190565b60405180910390a3505050565b5f81518084525f5b8181101561090a576020818501810151868301820152016108ee565b505f602082860101526020601f19601f83011685010191505092915050565b602081525f61093b60208301846108e6565b9392505050565b80356001600160a01b0381168114610958575f80fd5b919050565b5f806040838503121561096e575f80fd5b61097783610942565b946020939093013593505050565b5f805f60608486031215610997575f80fd5b6109a084610942565b92506109ae60208501610942565b9150604084013590509250925092565b5f805f80608085870312156109d1575f80fd5b6109da85610942565b93506109e860208601610942565b92506040850135915060608501358015158114610a03575f80fd5b939692955090935050565b5f60208284031215610a1e575f80fd5b61093b82610942565b5f8060408385031215610a38575f80fd5b610a4183610942565b9150610a4f60208401610942565b90509250929050565b600181811c90821680610a6c57607f821691505b602082108103610a8a57634e487b7160e01b5f52602260045260245ffd5b50919050565b8082018082111561048757634e487b7160e01b5f52601160045260245ffdfea26469706673582212209f06b316fedf067fa215255c5af5c6c7b749bf3c319152986ee40830bee7ca9864736f6c63430008180033",
  "linkReferences": {},
  "deployedLinkReferences": {}
}