{
  "_format": "hh-sol-artifact-1",
  "contractName": "$ERC4626",
  "sourceName": "contracts-exposed/token/ERC20/extensions/ERC4626.sol",
  "abi": [
    {
      "inputs": [
        {
          "internalType": "string",
          "name": "name_",
          "type": "string"
        },
        {
          "internalType": "string",
          "name": "symbol_",
          "type": "string"
        },
        {
          "internalType": "contract IERC20",
          "name": "asset_",
          "type": "address"
        }
      ],
      "stateMutability": "payable",
      "type": "constructor"
    },
    {
      "inputs": [
        {
          "internalType": "address",
          "name": "spender",
          "type": "address"
        },
        {
          "internalType": "uint256",
          "name": "allowance",
          "type": "uint256"
        },
        {
          "internalType": "uint256",
          "name": "needed",
          "type": "uint256"
        }
      ],
      "name": "ERC20InsufficientAllowance",
      "type": "error"
    },
    {
      "inputs": [
        {
          "internalType": "address",
          "name": "sender",
          "type": "address"
        },
        {
          "internalType": "uint256",
          "name": "balance",
          "type": "uint256"
        },
        {
          "internalType": "uint256",
          "name": "needed",
          "type": "uint256"
        }
      ],
      "name": "ERC20InsufficientBalance",
      "type": "error"
    },
    {
      "inputs": [
        {
          "internalType": "address",
          "name": "approver",
          "type": "address"
        }
      ],
      "name": "ERC20InvalidApprover",
      "type": "error"
    },
    {
      "inputs": [
        {
          "internalType": "address",
          "name": "receiver",
          "type": "address"
        }
      ],
      "name": "ERC20InvalidReceiver",
      "type": "error"
    },
    {
      "inputs": [
        {
          "internalType": "address",
          "name": "sender",
          "type": "address"
        }
      ],
      "name": "ERC20InvalidSender",
      "type": "error"
    },
    {
      "inputs": [
        {
          "internalType": "address",
          "name": "spender",
          "type": "address"
        }
      ],
      "name": "ERC20InvalidSpender",
      "type": "error"
    },
    {
      "inputs": [
        {
          "internalType": "address",
          "name": "receiver",
          "type": "address"
        },
        {
          "internalType": "uint256",
          "name": "assets",
          "type": "uint256"
        },
        {
          "internalType": "uint256",
          "name": "max",
          "type": "uint256"
        }
      ],
      "name": "ERC4626ExceededMaxDeposit",
      "type": "error"
    },
    {
      "inputs": [
        {
          "internalType": "address",
          "name": "receiver",
          "type": "address"
        },
        {
          "internalType": "uint256",
          "name": "shares",
          "type": "uint256"
        },
        {
          "internalType": "uint256",
          "name": "max",
          "type": "uint256"
        }
      ],
      "name": "ERC4626ExceededMaxMint",
      "type": "error"
    },
    {
      "inputs": [
        {
          "internalType": "address",
          "name": "owner",
          "type": "address"
        },
        {
          "internalType": "uint256",
          "name": "shares",
          "type": "uint256"
        },
        {
          "internalType": "uint256",
          "name": "max",
          "type": "uint256"
        }
      ],
      "name": "ERC4626ExceededMaxRedeem",
      "type": "error"
    },
    {
      "inputs": [
        {
          "internalType": "address",
          "name": "owner",
          "type": "address"
        },
        {
          "internalType": "uint256",
          "name": "assets",
          "type": "uint256"
        },
        {
          "internalType": "uint256",
          "name": "max",
          "type": "uint256"
        }
      ],
      "name": "ERC4626ExceededMaxWithdraw",
      "type": "error"
    },
    {
      "inputs": [
        {
          "internalType": "address",
          "name": "token",
          "type": "address"
        }
      ],
      "name": "SafeERC20FailedOperation",
      "type": "error"
    },
    {
      "anonymous": false,
      "inputs": [
        {
          "indexed": true,
          "internalType": "address",
          "name": "owner",
          "type": "address"
        },
        {
          "indexed": true,
          "internalType": "address",
          "name": "spender",
          "type": "address"
        },
        {
          "indexed": false,
          "internalType": "uint256",
          "name": "value",
          "type": "uint256"
        }
      ],
      "name": "Approval",
      "type": "event"
    },
    {
      "anonymous": false,
      "inputs": [
        {
          "indexed": true,
          "internalType": "address",
          "name": "sender",
          "type": "address"
        },
        {
          "indexed": true,
          "internalType": "address",
          "name": "owner",
          "type": "address"
        },
        {
          "indexed": false,
          "internalType": "uint256",
          "name": "assets",
          "type": "uint256"
        },
        {
          "indexed": false,
          "internalType": "uint256",
          "name": "shares",
          "type": "uint256"
        }
      ],
      "name": "Deposit",
      "type": "event"
    },
    {
      "anonymous": false,
      "inputs": [
        {
          "indexed": true,
          "internalType": "address",
          "name": "from",
          "type": "address"
        },
        {
          "indexed": true,
          "internalType": "address",
          "name": "to",
          "type": "address"
        },
        {
          "indexed": false,
          "internalType": "uint256",
          "name": "value",
          "type": "uint256"
        }
      ],
      "name": "Transfer",
      "type": "event"
    },
    {
      "anonymous": false,
      "inputs": [
        {
          "indexed": true,
          "internalType": "address",
          "name": "sender",
          "type": "address"
        },
        {
          "indexed": true,
          "internalType": "address",
          "name": "receiver",
          "type": "address"
        },
        {
          "indexed": true,
          "internalType": "address",
          "name": "owner",
          "type": "address"
        },
        {
          "indexed": false,
          "internalType": "uint256",
          "name": "assets",
          "type": "uint256"
        },
        {
          "indexed": false,
          "internalType": "uint256",
          "name": "shares",
          "type": "uint256"
        }
      ],
      "name": "Withdraw",
      "type": "event"
    },
    {
      "inputs": [
        {
          "internalType": "address",
          "name": "owner",
          "type": "address"
        },
        {
          "internalType": "address",
          "name": "spender",
          "type": "address"
        },
        {
          "internalType": "uint256",
          "name": "value",
          "type": "uint256"
        },
        {
          "internalType": "bool",
          "name": "emitEvent",
          "type": "bool"
        }
      ],
      "name": "$_approve",
      "outputs": [],
      "stateMutability": "nonpayable",
      "type": "function"
    },
    {
      "inputs": [
        {
          "internalType": "address",
          "name": "owner",
          "type": "address"
        },
        {
          "internalType": "address",
          "name": "spender",
          "type": "address"
        },
        {
          "internalType": "uint256",
          "name": "value",
          "type": "uint256"
        }
      ],
      "name": "$_approve",
      "outputs": [],
      "stateMutability": "nonpayable",
      "type": "function"
    },
    {
      "inputs": [
        {
          "internalType": "address",
          "name": "account",
          "type": "address"
        },
        {
          "internalType": "uint256",
          "name": "value",
          "type": "uint256"
        }
      ],
      "name": "$_burn",
      "outputs": [],
      "stateMutability": "nonpayable",
      "type": "function"
    },
    {
      "inputs": [],
      "name": "$_contextSuffixLength",
      "outputs": [
        {
          "internalType": "uint256",
          "name": "ret0",
          "type": "uint256"
        }
      ],
      "stateMutability": "view",
      "type": "function"
    },
    {
      "inputs": [
        {
          "internalType": "uint256",
          "name": "shares",
          "type": "uint256"
        },
        {
          "internalType": "enum Math.Rounding",
          "name": "rounding",
          "type": "uint8"
        }
      ],
      "name": "$_convertToAssets",
      "outputs": [
        {
          "internalType": "uint256",
          "name": "ret0",
          "type": "uint256"
        }
      ],
      "stateMutability": "view",
      "type": "function"
    },
    {
      "inputs": [
        {
          "internalType": "uint256",
          "name": "assets",
          "type": "uint256"
        },
        {
          "internalType": "enum Math.Rounding",
          "name": "rounding",
          "type": "uint8"
        }
      ],
      "name": "$_convertToShares",
      "outputs": [
        {
          "internalType": "uint256",
          "name": "ret0",
          "type": "uint256"
        }
      ],
      "stateMutability": "view",
      "type": "function"
    },
    {
      "inputs": [],
      "name": "$_decimalsOffset",
      "outputs": [
        {
          "internalType": "uint8",
          "name": "ret0",
          "type": "uint8"
        }
      ],
      "stateMutability": "view",
      "type": "function"
    },
    {
      "inputs": [
        {
          "internalType": "address",
          "name": "caller",
          "type": "address"
        },
        {
          "internalType": "address",
          "name": "receiver",
          "type": "address"
        },
        {
          "internalType": "uint256",
          "name": "assets",
          "type": "uint256"
        },
        {
          "internalType": "uint256",
          "name": "shares",
          "type": "uint256"
        }
      ],
      "name": "$_deposit",
      "outputs": [],
      "stateMutability": "nonpayable",
      "type": "function"
    },
    {
      "inputs": [
        {
          "internalType": "address",
          "name": "account",
          "type": "address"
        },
        {
          "internalType": "uint256",
          "name": "value",
          "type": "uint256"
        }
      ],
      "name": "$_mint",
      "outputs": [],
      "stateMutability": "nonpayable",
      "type": "function"
    },
    {
      "inputs": [],
      "name": "$_msgData",
      "outputs": [
        {
          "internalType": "bytes",
          "name": "ret0",
          "type": "bytes"
        }
      ],
      "stateMutability": "view",
      "type": "function"
    },
    {
      "inputs": [],
      "name": "$_msgSender",
      "outputs": [
        {
          "internalType": "address",
          "name": "ret0",
          "type": "address"
        }
      ],
      "stateMutability": "view",
      "type": "function"
    },
    {
      "inputs": [
        {
          "internalType": "address",
          "name": "owner",
          "type": "address"
        },
        {
          "internalType": "address",
          "name": "spender",
          "type": "address"
        },
        {
          "internalType": "uint256",
          "name": "value",
          "type": "uint256"
        }
      ],
      "name": "$_spendAllowance",
      "outputs": [],
      "stateMutability": "nonpayable",
      "type": "function"
    },
    {
      "inputs": [
        {
          "internalType": "address",
          "name": "from",
          "type": "address"
        },
        {
          "internalType": "address",
          "name": "to",
          "type": "address"
        },
        {
          "internalType": "uint256",
          "name": "value",
          "type": "uint256"
        }
      ],
      "name": "$_transfer",
      "outputs": [],
      "stateMutability": "nonpayable",
      "type": "function"
    },
    {
      "inputs": [
        {
          "internalType": "address",
          "name": "from",
          "type": "address"
        },
        {
          "internalType": "address",
          "name": "to",
          "type": "address"
        },
        {
          "internalType": "uint256",
          "name": "value",
          "type": "uint256"
        }
      ],
      "name": "$_update",
      "outputs": [],
      "stateMutability": "nonpayable",
      "type": "function"
    },
    {
      "inputs": [
        {
          "internalType": "address",
          "name": "caller",
          "type": "address"
        },
        {
          "internalType": "address",
          "name": "receiver",
          "type": "address"
        },
        {
          "internalType": "address",
          "name": "owner",
          "type": "address"
        },
        {
          "internalType": "uint256",
          "name": "assets",
          "type": "uint256"
        },
        {
          "internalType": "uint256",
          "name": "shares",
          "type": "uint256"
        }
      ],
      "name": "$_withdraw",
      "outputs": [],
      "stateMutability": "nonpayable",
      "type": "function"
    },
    {
      "inputs": [],
      "name": "__hh_exposed_bytecode_marker",
      "outputs": [
        {
          "internalType": "bytes32",
          "name": "",
          "type": "bytes32"
        }
      ],
      "stateMutability": "view",
      "type": "function"
    },
    {
      "inputs": [
        {
          "internalType": "address",
          "name": "owner",
          "type": "address"
        },
        {
          "internalType": "address",
          "name": "spender",
          "type": "address"
        }
      ],
      "name": "allowance",
      "outputs": [
        {
          "internalType": "uint256",
          "name": "",
          "type": "uint256"
        }
      ],
      "stateMutability": "view",
      "type": "function"
    },
    {
      "inputs": [
        {
          "internalType": "address",
          "name": "spender",
          "type": "address"
        },
        {
          "internalType": "uint256",
          "name": "value",
          "type": "uint256"
        }
      ],
      "name": "approve",
      "outputs": [
        {
          "internalType": "bool",
          "name": "",
          "type": "bool"
        }
      ],
      "stateMutability": "nonpayable",
      "type": "function"
    },
    {
      "inputs": [],
      "name": "asset",
      "outputs": [
        {
          "internalType": "address",
          "name": "",
          "type": "address"
        }
      ],
      "stateMutability": "view",
      "type": "function"
    },
    {
      "inputs": [
        {
          "internalType": "address",
          "name": "account",
          "type": "address"
        }
      ],
      "name": "balanceOf",
      "outputs": [
        {
          "internalType": "uint256",
          "name": "",
          "type": "uint256"
        }
      ],
      "stateMutability": "view",
      "type": "function"
    },
    {
      "inputs": [
        {
          "internalType": "uint256",
          "name": "shares",
          "type": "uint256"
        }
      ],
      "name": "convertToAssets",
      "outputs": [
        {
          "internalType": "uint256",
          "name": "",
          "type": "uint256"
        }
      ],
      "stateMutability": "view",
      "type": "function"
    },
    {
      "inputs": [
        {
          "internalType": "uint256",
          "name": "assets",
          "type": "uint256"
        }
      ],
      "name": "convertToShares",
      "outputs": [
        {
          "internalType": "uint256",
          "name": "",
          "type": "uint256"
        }
      ],
      "stateMutability": "view",
      "type": "function"
    },
    {
      "inputs": [],
      "name": "decimals",
      "outputs": [
        {
          "internalType": "uint8",
          "name": "",
          "type": "uint8"
        }
      ],
      "stateMutability": "view",
      "type": "function"
    },
    {
      "inputs": [
        {
          "internalType": "uint256",
          "name": "assets",
          "type": "uint256"
        },
        {
          "internalType": "address",
          "name": "receiver",
          "type": "address"
        }
      ],
      "name": "deposit",
      "outputs": [
        {
          "internalType": "uint256",
          "name": "",
          "type": "uint256"
        }
      ],
      "stateMutability": "nonpayable",
      "type": "function"
    },
    {
      "inputs": [
        {
          "internalType": "address",
          "name": "",
          "type": "address"
        }
      ],
      "name": "maxDeposit",
      "outputs": [
        {
          "internalType": "uint256",
          "name": "",
          "type": "uint256"
        }
      ],
      "stateMutability": "view",
      "type": "function"
    },
    {
      "inputs": [
        {
          "internalType": "address",
          "name": "",
          "type": "address"
        }
      ],
      "name": "maxMint",
      "outputs": [
        {
          "internalType": "uint256",
          "name": "",
          "type": "uint256"
        }
      ],
      "stateMutability": "view",
      "type": "function"
    },
    {
      "inputs": [
        {
          "internalType": "address",
          "name": "owner",
          "type": "address"
        }
      ],
      "name": "maxRedeem",
      "outputs": [
        {
          "internalType": "uint256",
          "name": "",
          "type": "uint256"
        }
      ],
      "stateMutability": "view",
      "type": "function"
    },
    {
      "inputs": [
        {
          "internalType": "address",
          "name": "owner",
          "type": "address"
        }
      ],
      "name": "maxWithdraw",
      "outputs": [
        {
          "internalType": "uint256",
          "name": "",
          "type": "uint256"
        }
      ],
      "stateMutability": "view",
      "type": "function"
    },
    {
      "inputs": [
        {
          "internalType": "uint256",
          "name": "shares",
          "type": "uint256"
        },
        {
          "internalType": "address",
          "name": "receiver",
          "type": "address"
        }
      ],
      "name": "mint",
      "outputs": [
        {
          "internalType": "uint256",
          "name": "",
          "type": "uint256"
        }
      ],
      "stateMutability": "nonpayable",
      "type": "function"
    },
    {
      "inputs": [],
      "name": "name",
      "outputs": [
        {
          "internalType": "string",
          "name": "",
          "type": "string"
        }
      ],
      "stateMutability": "view",
      "type": "function"
    },
    {
      "inputs": [
        {
          "internalType": "uint256",
          "name": "assets",
          "type": "uint256"
        }
      ],
      "name": "previewDeposit",
      "outputs": [
        {
          "internalType": "uint256",
          "name": "",
          "type": "uint256"
        }
      ],
      "stateMutability": "view",
      "type": "function"
    },
    {
      "inputs": [
        {
          "internalType": "uint256",
          "name": "shares",
          "type": "uint256"
        }
      ],
      "name": "previewMint",
      "outputs": [
        {
          "internalType": "uint256",
          "name": "",
          "type": "uint256"
        }
      ],
      "stateMutability": "view",
      "type": "function"
    },
    {
      "inputs": [
        {
          "internalType": "uint256",
          "name": "shares",
          "type": "uint256"
        }
      ],
      "name": "previewRedeem",
      "outputs": [
        {
          "internalType": "uint256",
          "name": "",
          "type": "uint256"
        }
      ],
      "stateMutability": "view",
      "type": "function"
    },
    {
      "inputs": [
        {
          "internalType": "uint256",
          "name": "assets",
          "type": "uint256"
        }
      ],
      "name": "previewWithdraw",
      "outputs": [
        {
          "internalType": "uint256",
          "name": "",
          "type": "uint256"
        }
      ],
      "stateMutability": "view",
      "type": "function"
    },
    {
      "inputs": [
        {
          "internalType": "uint256",
          "name": "shares",
          "type": "uint256"
        },
        {
          "internalType": "address",
          "name": "receiver",
          "type": "address"
        },
        {
          "internalType": "address",
          "name": "owner",
          "type": "address"
        }
      ],
      "name": "redeem",
      "outputs": [
        {
          "internalType": "uint256",
          "name": "",
          "type": "uint256"
        }
      ],
      "stateMutability": "nonpayable",
      "type": "function"
    },
    {
      "inputs": [],
      "name": "symbol",
      "outputs": [
        {
          "internalType": "string",
          "name": "",
          "type": "string"
        }
      ],
      "stateMutability": "view",
      "type": "function"
    },
    {
      "inputs": [],
      "name": "totalAssets",
      "outputs": [
        {
          "internalType": "uint256",
          "name": "",
          "type": "uint256"
        }
      ],
      "stateMutability": "view",
      "type": "function"
    },
    {
      "inputs": [],
      "name": "totalSupply",
      "outputs": [
        {
          "internalType": "uint256",
          "name": "",
          "type": "uint256"
        }
      ],
      "stateMutability": "view",
      "type": "function"
    },
    {
      "inputs": [
        {
          "internalType": "address",
          "name": "to",
          "type": "address"
        },
        {
          "internalType": "uint256",
          "name": "value",
          "type": "uint256"
        }
      ],
      "name": "transfer",
      "outputs": [
        {
          "internalType": "bool",
          "name": "",
          "type": "bool"
        }
      ],
      "stateMutability": "nonpayable",
      "type": "function"
    },
    {
      "inputs": [
        {
          "internalType": "address",
          "name": "from",
          "type": "address"
        },
        {
          "internalType": "address",
          "name": "to",
          "type": "address"
        },
        {
          "internalType": "uint256",
          "name": "value",
          "type": "uint256"
        }
      ],
      "name": "transferFrom",
      "outputs": [
        {
          "internalType": "bool",
          "name": "",
          "type": "bool"
        }
      ],
      "stateMutability": "nonpayable",
      "type": "function"
    },
    {
      "inputs": [
        {
          "internalType": "uint256",
          "name": "assets",
          "type": "uint256"
        },
        {
          "internalType": "address",
          "name": "receiver",
          "type": "address"
        },
        {
          "internalType": "address",
          "name": "owner",
          "type": "address"
        }
      ],
      "name": "withdraw",
      "outputs": [
        {
          "internalType": "uint256",
          "name": "",
          "type": "uint256"
        }
      ],
      "stateMutability": "nonpayable",
      "type": "function"
    },
    {
      "stateMutability": "payable",
      "type": "receive"
    }
  ],
  "bytecode": "0x60c060405260405162001b3038038062001b30833981016040819052620000269162000233565b808383600362000037838262000344565b50600462000046828262000344565b5050505f806200005c836200008e60201b60201c565b91509150816200006e57601262000070565b805b60ff1660a05250506001600160a01b03166080525062000445915050565b60408051600481526024810182526020810180516001600160e01b031663313ce56760e01b17905290515f918291829182916001600160a01b03871691620000d69162000410565b5f60405180830381855afa9150503d805f811462000110576040519150601f19603f3d011682016040523d82523d5f602084013e62000115565b606091505b50915091508180156200012a57506020815110155b1562000161575f818060200190518101906200014791906200042d565b905060ff81116200015f576001969095509350505050565b505b505f9485945092505050565b634e487b7160e01b5f52604160045260245ffd5b5f5b838110156200019d57818101518382015260200162000183565b50505f910152565b5f82601f830112620001b5575f80fd5b81516001600160401b0380821115620001d257620001d26200016d565b604051601f8301601f19908116603f01168101908282118183101715620001fd57620001fd6200016d565b8160405283815286602085880101111562000216575f80fd5b6200022984602083016020890162000181565b9695505050505050565b5f805f6060848603121562000246575f80fd5b83516001600160401b03808211156200025d575f80fd5b6200026b87838801620001a5565b9450602086015191508082111562000281575f80fd5b506200029086828701620001a5565b604086015190935090506001600160a01b0381168114620002af575f80fd5b809150509250925092565b600181811c90821680620002cf57607f821691505b602082108103620002ee57634e487b7160e01b5f52602260045260245ffd5b50919050565b601f8211156200033f57805f5260205f20601f840160051c810160208510156200031b5750805b601f840160051c820191505b818110156200033c575f815560010162000327565b50505b505050565b81516001600160401b038111156200036057620003606200016d565b6200037881620003718454620002ba565b84620002f4565b602080601f831160018114620003ae575f8415620003965750858301515b5f19600386901b1c1916600185901b17855562000408565b5f85815260208120601f198616915b82811015620003de57888601518255948401946001909101908401620003bd565b5085821015620003fc57878501515f19600388901b60f8161c191681555b505060018460011b0185555b505050505050565b5f82516200042381846020870162000181565b9190910192915050565b5f602082840312156200043e575f80fd5b5051919050565b60805160a0516116b46200047c5f395f6108a801525f81816103e80152818161072c01528181610e0e0152610ec001526116b45ff3fe608060405260043610610241575f3560e01c8063861e3d3d11610134578063c63d75b6116100b3578063d905777e11610078578063d905777e14610676578063dd62ed3e14610695578063e047838d146106d9578063ef4f78d1146106f8578063ef8b30f7146105fa578063efb43b071461070a575f80fd5b8063c63d75b61461040c578063c6e6f592146105fa578063ca10eca014610619578063cc461d6214610638578063ce96cb7714610657575f80fd5b8063a9059cbb116100f9578063a9059cbb1461055f578063b2331d7d1461057e578063b3d7f6b91461059d578063b460af94146105bc578063ba087652146105db575f80fd5b8063861e3d3d146104cf5780638b4e914a146104ee57806394bf804d1461050d57806395d89b411461052c5780639c0b90c714610540575f80fd5b806332cadf3c116101c057806367354a841161018557806367354a841461042c5780636855a1781461043e5780636e553f651461045d57806370a082311461047c57806383b95579146104b0575f80fd5b806332cadf3c146103a1578063342db739146103b557806338d52e0f146103da578063402d267d1461040c5780634cdad50614610294575f80fd5b806318160ddd1161020657806318160ddd1461030157806323b872dd146103155780632904df2914610334578063313ce5671461035a57806332bc74aa14610380575f80fd5b806301e1d1141461024c57806306fdde031461027357806307a2d13a14610294578063095ea7b3146102b35780630a28a477146102e2575f80fd5b3661024857005b5f80fd5b348015610257575f80fd5b50610260610729565b6040519081526020015b60405180910390f35b34801561027e575f80fd5b506102876107b8565b60405161026a9190611231565b34801561029f575f80fd5b506102606102ae366004611243565b610848565b3480156102be575f80fd5b506102d26102cd366004611275565b610859565b604051901515815260200161026a565b3480156102ed575f80fd5b506102606102fc366004611243565b610870565b34801561030c575f80fd5b50600254610260565b348015610320575f80fd5b506102d261032f36600461129d565b61087c565b34801561033f575f80fd5b50335b6040516001600160a01b03909116815260200161026a565b348015610365575f80fd5b5061036e6108a1565b60405160ff909116815260200161026a565b34801561038b575f80fd5b5061039f61039a3660046112d6565b6108cc565b005b3480156103ac575f80fd5b506102876108de565b3480156103c0575f80fd5b506102606e1a185c991a185d0b595e1c1bdcd959608a1b81565b3480156103e5575f80fd5b507f0000000000000000000000000000000000000000000000000000000000000000610342565b348015610417575f80fd5b50610260610426366004611326565b505f1990565b348015610437575f80fd5b505f610260565b348015610449575f80fd5b5061039f61045836600461129d565b61091b565b348015610468575f80fd5b5061026061047736600461133f565b61092b565b348015610487575f80fd5b50610260610496366004611326565b6001600160a01b03165f9081526020819052604090205490565b3480156104bb575f80fd5b5061039f6104ca366004611369565b61095c565b3480156104da575f80fd5b5061039f6104e936600461129d565b610970565b3480156104f9575f80fd5b506102606105083660046113ba565b61097b565b348015610518575f80fd5b5061026061052736600461133f565b610986565b348015610537575f80fd5b506102876109a1565b34801561054b575f80fd5b5061039f61055a3660046113eb565b6109b0565b34801561056a575f80fd5b506102d2610579366004611275565b6109bc565b348015610589575f80fd5b5061039f61059836600461129d565b6109c9565b3480156105a8575f80fd5b506102606105b7366004611243565b6109d4565b3480156105c7575f80fd5b506102606105d636600461142a565b6109e0565b3480156105e6575f80fd5b506102606105f536600461142a565b610a36565b348015610605575f80fd5b50610260610614366004611243565b610a83565b348015610624575f80fd5b506102606106333660046113ba565b610a8e565b348015610643575f80fd5b5061039f610652366004611275565b610a99565b348015610662575f80fd5b50610260610671366004611326565b610aa7565b348015610681575f80fd5b50610260610690366004611326565b610ac9565b3480156106a0575f80fd5b506102606106af366004611463565b6001600160a01b039182165f90815260016020908152604080832093909416825291909152205490565b3480156106e4575f80fd5b5061039f6106f3366004611275565b610ae6565b348015610703575f80fd5b505f61036e565b348015610715575f80fd5b5061039f61072436600461129d565b610af0565b5f7f00000000000000000000000000000000000000000000000000000000000000006040516370a0823160e01b81523060048201526001600160a01b0391909116906370a0823190602401602060405180830381865afa15801561078f573d5f803e3d5ffd5b505050506040513d601f19601f820116820180604052508101906107b3919061148b565b905090565b6060600380546107c7906114a2565b80601f01602080910402602001604051908101604052809291908181526020018280546107f3906114a2565b801561083e5780601f106108155761010080835404028352916020019161083e565b820191905f5260205f20905b81548152906001019060200180831161082157829003601f168201915b5050505050905090565b5f610853825f610afb565b92915050565b5f33610866818585610b33565b5060019392505050565b5f610853826001610b40565b5f33610889858285610b6f565b610894858585610bd2565b60019150505b9392505050565b5f6107b3817f00000000000000000000000000000000000000000000000000000000000000006114ee565b6108d884848484610c24565b50505050565b60605f368080601f0160208091040260200160405190810160405280939291908181526020018383808284375f9201919091525092949350505050565b610926838383610cf6565b505050565b5f5f1961093c565b60405180910390fd5b5f61094685610a83565b905061095433858784610e09565b949350505050565b6109698585858585610e8d565b5050505050565b610926838383610b33565b5f61089a8383610b40565b5f5f195f610993856109d4565b905061095433858388610e09565b6060600480546107c7906114a2565b6108d884848484610e09565b5f33610866818585610bd2565b610926838383610b6f565b5f610853826001610afb565b5f806109eb83610aa7565b905080851115610a1457828582604051633fa733bb60e21b815260040161093393929190611507565b5f610a1e86610870565b9050610a2d3386868985610e8d565b95945050505050565b5f80610a4183610ac9565b905080851115610a6a57828582604051632e52afbb60e21b815260040161093393929190611507565b5f610a7486610848565b9050610a2d338686848a610e8d565b5f610853825f610b40565b5f61089a8383610afb565b610aa38282610f4d565b5050565b6001600160a01b0381165f90815260208190526040812054610853905f610afb565b6001600160a01b0381165f90815260208190526040812054610853565b610aa38282610f81565b610926838383610bd2565b5f61089a610b07610729565b610b12906001611528565b610b1d5f600a61161b565b600254610b2a9190611528565b85919085610fb5565b6109268383836001610c24565b5f61089a610b4f82600a61161b565b600254610b5c9190611528565b610b64610729565b610b2a906001611528565b6001600160a01b038381165f908152600160209081526040808320938616835292905220545f198110156108d85781811015610bc457828183604051637dc7a0d960e11b815260040161093393929190611507565b6108d884848484035f610c24565b6001600160a01b038316610bfb57604051634b637e8f60e11b81525f6004820152602401610933565b6001600160a01b03821661091b5760405163ec442f0560e01b81525f6004820152602401610933565b6001600160a01b038416610c4d5760405163e602df0560e01b81525f6004820152602401610933565b6001600160a01b038316610c7657604051634a1406b160e11b81525f6004820152602401610933565b6001600160a01b038085165f90815260016020908152604080832093871683529290522082905580156108d857826001600160a01b0316846001600160a01b03167f8c5be1e5ebec7d5bd14f71427d1e84f3dd0314c0f7b2291e5b200ac8c7c3b92584604051610ce891815260200190565b60405180910390a350505050565b6001600160a01b038316610d20578060025f828254610d159190611528565b90915550610d7d9050565b6001600160a01b0383165f9081526020819052604090205481811015610d5f5783818360405163391434e360e21b815260040161093393929190611507565b6001600160a01b0384165f9081526020819052604090209082900390555b6001600160a01b038216610d9957600280548290039055610db7565b6001600160a01b0382165f9081526020819052604090208054820190555b816001600160a01b0316836001600160a01b03167fddf252ad1be2c89b69c2b068fc378daa952ba7f163c4a11628f55a4df523b3ef83604051610dfc91815260200190565b60405180910390a3505050565b610e357f0000000000000000000000000000000000000000000000000000000000000000853085610ff7565b610e3f8382610f4d565b826001600160a01b0316846001600160a01b03167fdcbc1c05240f31ff3ad067ef1ee35ce4997762752e3a095284754544f4c709d78484604051610ce8929190918252602082015260400190565b826001600160a01b0316856001600160a01b031614610eb157610eb1838683610b6f565b610ebb8382610f81565b610ee67f0000000000000000000000000000000000000000000000000000000000000000858461105e565b826001600160a01b0316846001600160a01b0316866001600160a01b03167ffbde797d201c681b91056529119e0b02407c7bb96a4a2c75c01fc9667232c8db8585604051610f3e929190918252602082015260400190565b60405180910390a45050505050565b6001600160a01b038216610f765760405163ec442f0560e01b81525f6004820152602401610933565b610aa35f8383610cf6565b6001600160a01b038216610faa57604051634b637e8f60e11b81525f6004820152602401610933565b610aa3825f83610cf6565b5f610fe2610fc28361108f565b8015610fdd57505f8480610fd857610fd8611629565b868809115b151590565b610fed8686866110bb565b610a2d9190611528565b6040516001600160a01b0384811660248301528381166044830152606482018390526108d89186918216906323b872dd906084015b604051602081830303815290604052915060e01b6020820180516001600160e01b038381831617835250505050611171565b6040516001600160a01b0383811660248301526044820183905261092691859182169063a9059cbb9060640161102c565b5f60028260038111156110a4576110a461163d565b6110ae9190611651565b60ff166001149050919050565b5f838302815f1985870982811083820303915050805f036110ef578382816110e5576110e5611629565b049250505061089a565b8084116111065761110660038515026011186111dd565b5f848688095f868103871696879004966002600389028118808a02820302808a02820302808a02820302808a02820302808a02820302808a02909103029181900381900460010186841190950394909402919094039290920491909117919091029150509392505050565b5f8060205f8451602086015f885af180611190576040513d5f823e3d81fd5b50505f513d915081156111a75780600114156111b4565b6001600160a01b0384163b155b156108d857604051635274afe760e01b81526001600160a01b0385166004820152602401610933565b634e487b715f52806020526024601cfd5b5f81518084525f5b81811015611212576020818501810151868301820152016111f6565b505f602082860101526020601f19601f83011685010191505092915050565b602081525f61089a60208301846111ee565b5f60208284031215611253575f80fd5b5035919050565b80356001600160a01b0381168114611270575f80fd5b919050565b5f8060408385031215611286575f80fd5b61128f8361125a565b946020939093013593505050565b5f805f606084860312156112af575f80fd5b6112b88461125a565b92506112c66020850161125a565b9150604084013590509250925092565b5f805f80608085870312156112e9575f80fd5b6112f28561125a565b93506113006020860161125a565b9250604085013591506060850135801515811461131b575f80fd5b939692955090935050565b5f60208284031215611336575f80fd5b61089a8261125a565b5f8060408385031215611350575f80fd5b823591506113606020840161125a565b90509250929050565b5f805f805f60a0868803121561137d575f80fd5b6113868661125a565b94506113946020870161125a565b93506113a26040870161125a565b94979396509394606081013594506080013592915050565b5f80604083850312156113cb575f80fd5b823591506020830135600481106113e0575f80fd5b809150509250929050565b5f805f80608085870312156113fe575f80fd5b6114078561125a565b93506114156020860161125a565b93969395505050506040820135916060013590565b5f805f6060848603121561143c575f80fd5b8335925061144c6020850161125a565b915061145a6040850161125a565b90509250925092565b5f8060408385031215611474575f80fd5b61147d8361125a565b91506113606020840161125a565b5f6020828403121561149b575f80fd5b5051919050565b600181811c908216806114b657607f821691505b6020821081036114d457634e487b7160e01b5f52602260045260245ffd5b50919050565b634e487b7160e01b5f52601160045260245ffd5b60ff8181168382160190811115610853576108536114da565b6001600160a01b039390931683526020830191909152604082015260600190565b80820180821115610853576108536114da565b600181815b8085111561157557815f190482111561155b5761155b6114da565b8085161561156857918102915b93841c9390800290611540565b509250929050565b5f8261158b57506001610853565b8161159757505f610853565b81600181146115ad57600281146115b7576115d3565b6001915050610853565b60ff8411156115c8576115c86114da565b50506001821b610853565b5060208310610133831016604e8410600b84101617156115f6575081810a610853565b611600838361153b565b805f1904821115611613576116136114da565b029392505050565b5f61089a60ff84168361157d565b634e487b7160e01b5f52601260045260245ffd5b634e487b7160e01b5f52602160045260245ffd5b5f60ff83168061166f57634e487b7160e01b5f52601260045260245ffd5b8060ff8416069150509291505056fea26469706673582212206ecd88b1bbb09a618e7fc7c88743e39a59a0b37491c28b0b7480e1dcaa0332c064736f6c63430008180033",
  "linkReferences": {},
  "deployedLinkReferences": {}
}