{
  "_format": "hh-sol-artifact-1",
  "contractName": "$BeaconProxy",
  "sourceName": "contracts-exposed/proxy/beacon/BeaconProxy.sol",
  "abi": [
    {
      "inputs": [
        {
          "internalType": "address",
          "name": "beacon",
          "type": "address"
        },
        {
          "internalType": "bytes",
          "name": "data",
          "type": "bytes"
        }
      ],
      "stateMutability": "payable",
      "type": "constructor"
    },
    {
      "inputs": [
        {
          "internalType": "address",
          "name": "target",
          "type": "address"
        }
      ],
      "name": "AddressEmptyCode",
      "type": "error"
    },
    {
      "inputs": [
        {
          "internalType": "address",
          "name": "beacon",
          "type": "address"
        }
      ],
      "name": "ERC1967InvalidBeacon",
      "type": "error"
    },
    {
      "inputs": [
        {
          "internalType": "address",
          "name": "implementation",
          "type": "address"
        }
      ],
      "name": "ERC1967InvalidImplementation",
      "type": "error"
    },
    {
      "inputs": [],
      "name": "ERC1967NonPayable",
      "type": "error"
    },
    {
      "inputs": [],
      "name": "FailedCall",
      "type": "error"
    },
    {
      "anonymous": false,
      "inputs": [
        {
          "indexed": true,
          "internalType": "address",
          "name": "beacon",
          "type": "address"
        }
      ],
      "name": "BeaconUpgraded",
      "type": "event"
    },
    {
      "stateMutability": "payable",
      "type": "fallback"
    },
    {
      "inputs": [
        {
          "internalType": "address",
          "name": "implementation",
          "type": "address"
        }
      ],
      "name": "$_delegate",
      "outputs": [],
      "stateMutability": "nonpayable",
      "type": "function"
    },
    {
      "inputs": [],
      "name": "$_fallback",
      "outputs": [],
      "stateMutability": "nonpayable",
      "type": "function"
    },
    {
      "inputs": [],
      "name": "$_getBeacon",
      "outputs": [
        {
          "internalType": "address",
          "name": "ret0",
          "type": "address"
        }
      ],
      "stateMutability": "view",
      "type": "function"
    },
    {
      "inputs": [],
      "name": "$_implementation",
      "outputs": [
        {
          "internalType": "address",
          "name": "ret0",
          "type": "address"
        }
      ],
      "stateMutability": "view",
      "type": "function"
    },
    {
      "inputs": [],
      "name": "__hh_exposed_bytecode_marker",
      "outputs": [
        {
          "internalType": "bytes32",
          "name": "",
          "type": "bytes32"
        }
      ],
      "stateMutability": "view",
      "type": "function"
    },
    {
      "stateMutability": "payable",
      "type": "receive"
    }
  ],
  "bytecode": "0x60a06040526040516107093803806107098339810160408190526100229161037b565b818161002e8282610043565b506001600160a01b03166080525061046a9050565b61004c82610100565b6040516001600160a01b038316907f1cf3b03a6cf19fa2baba4df148e9dcabedea7f8a5c07840e207e5c089be95d3e905f90a28051156100f4576100ef826001600160a01b0316635c60da1b6040518163ffffffff1660e01b8152600401602060405180830381865afa1580156100c5573d5f803e3d5ffd5b505050506040513d601f19601f820116820180604052508101906100e99190610436565b8261020e565b505050565b6100fc610281565b5050565b806001600160a01b03163b5f0361013a57604051631933b43b60e21b81526001600160a01b03821660048201526024015b60405180910390fd5b807fa3f0ad74e5423aebfd80d3ef4346578335a9a72aeaee59ff6cb3582b35133d5080546001600160a01b0319166001600160a01b0392831617905560408051635c60da1b60e01b815290515f92841691635c60da1b9160048083019260209291908290030181865afa1580156101b3573d5f803e3d5ffd5b505050506040513d601f19601f820116820180604052508101906101d79190610436565b9050806001600160a01b03163b5f036100fc57604051634c9c8ce360e01b81526001600160a01b0382166004820152602401610131565b60605f80846001600160a01b03168460405161022a919061044f565b5f60405180830381855af49150503d805f8114610262576040519150601f19603f3d011682016040523d82523d5f602084013e610267565b606091505b5090925090506102788583836102a2565b95945050505050565b34156102a05760405163b398979f60e01b815260040160405180910390fd5b565b6060826102b7576102b282610301565b6102fa565b81511580156102ce57506001600160a01b0384163b155b156102f757604051639996b31560e01b81526001600160a01b0385166004820152602401610131565b50805b9392505050565b8051156103115780518082602001fd5b60405163d6bda27560e01b815260040160405180910390fd5b80516001600160a01b0381168114610340575f80fd5b919050565b634e487b7160e01b5f52604160045260245ffd5b5f5b8381101561037357818101518382015260200161035b565b50505f910152565b5f806040838503121561038c575f80fd5b6103958361032a565b60208401519092506001600160401b03808211156103b1575f80fd5b818501915085601f8301126103c4575f80fd5b8151818111156103d6576103d6610345565b604051601f8201601f19908116603f011681019083821181831017156103fe576103fe610345565b81604052828152886020848701011115610416575f80fd5b610427836020830160208801610359565b80955050505050509250929050565b5f60208284031215610446575f80fd5b6102fa8261032a565b5f8251610460818460208701610359565b9190910192915050565b6080516102816104885f395f818160d0015261015e01526102815ff3fe60806040526004361061004d575f3560e01c8063342db7391461005e578063515f8df014610096578063b472f0f4146100c2578063ee8d6399146100f4578063f49367aa1461010857610054565b3661005457005b61005c610127565b005b348015610069575f80fd5b506100836e1a185c991a185d0b595e1c1bdcd959608a1b81565b6040519081526020015b60405180910390f35b3480156100a1575f80fd5b506100aa610139565b6040516001600160a01b03909116815260200161008d565b3480156100cd575f80fd5b507f00000000000000000000000000000000000000000000000000000000000000006100aa565b3480156100ff575f80fd5b5061005c610147565b348015610113575f80fd5b5061005c61012236600461020e565b61014f565b61013761013261015b565b6101dc565b565b5f61014261015b565b905090565b610137610127565b610158816101dc565b50565b5f7f00000000000000000000000000000000000000000000000000000000000000006001600160a01b0316635c60da1b6040518163ffffffff1660e01b8152600401602060405180830381865afa1580156101b8573d5f803e3d5ffd5b505050506040513d601f19601f820116820180604052508101906101429190610230565b365f80375f80365f845af43d5f803e8080156101f6573d5ff35b3d5ffd5b6001600160a01b0381168114610158575f80fd5b5f6020828403121561021e575f80fd5b8135610229816101fa565b9392505050565b5f60208284031215610240575f80fd5b8151610229816101fa56fea26469706673582212204893473fefd0774d9d00f499b0b9406c94f3c2fdfb3c5e0532b28ae9e453fd1b64736f6c63430008180033",
  "linkReferences": {},
  "deployedLinkReferences": {}
}