{
  "_format": "hh-sol-artifact-1",
  "contractName": "$StorageSlotMock",
  "sourceName": "contracts-exposed/mocks/StorageSlotMock.sol",
  "abi": [
    {
      "inputs": [],
      "stateMutability": "payable",
      "type": "constructor"
    },
    {
      "inputs": [
        {
          "internalType": "address",
          "name": "target",
          "type": "address"
        }
      ],
      "name": "AddressEmptyCode",
      "type": "error"
    },
    {
      "inputs": [],
      "name": "FailedCall",
      "type": "error"
    },
    {
      "inputs": [],
      "name": "$_contextSuffixLength",
      "outputs": [
        {
          "internalType": "uint256",
          "name": "ret0",
          "type": "uint256"
        }
      ],
      "stateMutability": "view",
      "type": "function"
    },
    {
      "inputs": [],
      "name": "$_msgData",
      "outputs": [
        {
          "internalType": "bytes",
          "name": "ret0",
          "type": "bytes"
        }
      ],
      "stateMutability": "view",
      "type": "function"
    },
    {
      "inputs": [],
      "name": "$_msgSender",
      "outputs": [
        {
          "internalType": "address",
          "name": "ret0",
          "type": "address"
        }
      ],
      "stateMutability": "view",
      "type": "function"
    },
    {
      "inputs": [],
      "name": "__hh_exposed_bytecode_marker",
      "outputs": [
        {
          "internalType": "bytes32",
          "name": "",
          "type": "bytes32"
        }
      ],
      "stateMutability": "view",
      "type": "function"
    },
    {
      "inputs": [
        {
          "internalType": "uint256",
          "name": "key",
          "type": "uint256"
        }
      ],
      "name": "bytesMap",
      "outputs": [
        {
          "internalType": "bytes",
          "name": "",
          "type": "bytes"
        }
      ],
      "stateMutability": "view",
      "type": "function"
    },
    {
      "inputs": [
        {
          "internalType": "bytes32",
          "name": "slot",
          "type": "bytes32"
        }
      ],
      "name": "getAddressSlot",
      "outputs": [
        {
          "internalType": "address",
          "name": "",
          "type": "address"
        }
      ],
      "stateMutability": "view",
      "type": "function"
    },
    {
      "inputs": [
        {
          "internalType": "bytes32",
          "name": "slot",
          "type": "bytes32"
        }
      ],
      "name": "getBooleanSlot",
      "outputs": [
        {
          "internalType": "bool",
          "name": "",
          "type": "bool"
        }
      ],
      "stateMutability": "view",
      "type": "function"
    },
    {
      "inputs": [
        {
          "internalType": "bytes32",
          "name": "slot",
          "type": "bytes32"
        }
      ],
      "name": "getBytes32Slot",
      "outputs": [
        {
          "internalType": "bytes32",
          "name": "",
          "type": "bytes32"
        }
      ],
      "stateMutability": "view",
      "type": "function"
    },
    {
      "inputs": [
        {
          "internalType": "bytes32",
          "name": "slot",
          "type": "bytes32"
        }
      ],
      "name": "getBytesSlot",
      "outputs": [
        {
          "internalType": "bytes",
          "name": "",
          "type": "bytes"
        }
      ],
      "stateMutability": "view",
      "type": "function"
    },
    {
      "inputs": [
        {
          "internalType": "uint256",
          "name": "key",
          "type": "uint256"
        }
      ],
      "name": "getBytesStorage",
      "outputs": [
        {
          "internalType": "bytes",
          "name": "",
          "type": "bytes"
        }
      ],
      "stateMutability": "view",
      "type": "function"
    },
    {
      "inputs": [
        {
          "internalType": "bytes32",
          "name": "slot",
          "type": "bytes32"
        }
      ],
      "name": "getInt256Slot",
      "outputs": [
        {
          "internalType": "int256",
          "name": "",
          "type": "int256"
        }
      ],
      "stateMutability": "view",
      "type": "function"
    },
    {
      "inputs": [
        {
          "internalType": "bytes32",
          "name": "slot",
          "type": "bytes32"
        }
      ],
      "name": "getStringSlot",
      "outputs": [
        {
          "internalType": "string",
          "name": "",
          "type": "string"
        }
      ],
      "stateMutability": "view",
      "type": "function"
    },
    {
      "inputs": [
        {
          "internalType": "uint256",
          "name": "key",
          "type": "uint256"
        }
      ],
      "name": "getStringStorage",
      "outputs": [
        {
          "internalType": "string",
          "name": "",
          "type": "string"
        }
      ],
      "stateMutability": "view",
      "type": "function"
    },
    {
      "inputs": [
        {
          "internalType": "bytes32",
          "name": "slot",
          "type": "bytes32"
        }
      ],
      "name": "getUint256Slot",
      "outputs": [
        {
          "internalType": "uint256",
          "name": "",
          "type": "uint256"
        }
      ],
      "stateMutability": "view",
      "type": "function"
    },
    {
      "inputs": [
        {
          "internalType": "bytes[]",
          "name": "data",
          "type": "bytes[]"
        }
      ],
      "name": "multicall",
      "outputs": [
        {
          "internalType": "bytes[]",
          "name": "results",
          "type": "bytes[]"
        }
      ],
      "stateMutability": "nonpayable",
      "type": "function"
    },
    {
      "inputs": [
        {
          "internalType": "bytes32",
          "name": "slot",
          "type": "bytes32"
        },
        {
          "internalType": "address",
          "name": "value",
          "type": "address"
        }
      ],
      "name": "setAddressSlot",
      "outputs": [],
      "stateMutability": "nonpayable",
      "type": "function"
    },
    {
      "inputs": [
        {
          "internalType": "bytes32",
          "name": "slot",
          "type": "bytes32"
        },
        {
          "internalType": "bool",
          "name": "value",
          "type": "bool"
        }
      ],
      "name": "setBooleanSlot",
      "outputs": [],
      "stateMutability": "nonpayable",
      "type": "function"
    },
    {
      "inputs": [
        {
          "internalType": "bytes32",
          "name": "slot",
          "type": "bytes32"
        },
        {
          "internalType": "bytes32",
          "name": "value",
          "type": "bytes32"
        }
      ],
      "name": "setBytes32Slot",
      "outputs": [],
      "stateMutability": "nonpayable",
      "type": "function"
    },
    {
      "inputs": [
        {
          "internalType": "bytes32",
          "name": "slot",
          "type": "bytes32"
        },
        {
          "internalType": "bytes",
          "name": "value",
          "type": "bytes"
        }
      ],
      "name": "setBytesSlot",
      "outputs": [],
      "stateMutability": "nonpayable",
      "type": "function"
    },
    {
      "inputs": [
        {
          "internalType": "uint256",
          "name": "key",
          "type": "uint256"
        },
        {
          "internalType": "bytes",
          "name": "value",
          "type": "bytes"
        }
      ],
      "name": "setBytesStorage",
      "outputs": [],
      "stateMutability": "nonpayable",
      "type": "function"
    },
    {
      "inputs": [
        {
          "internalType": "bytes32",
          "name": "slot",
          "type": "bytes32"
        },
        {
          "internalType": "int256",
          "name": "value",
          "type": "int256"
        }
      ],
      "name": "setInt256Slot",
      "outputs": [],
      "stateMutability": "nonpayable",
      "type": "function"
    },
    {
      "inputs": [
        {
          "internalType": "bytes32",
          "name": "slot",
          "type": "bytes32"
        },
        {
          "internalType": "string",
          "name": "value",
          "type": "string"
        }
      ],
      "name": "setStringSlot",
      "outputs": [],
      "stateMutability": "nonpayable",
      "type": "function"
    },
    {
      "inputs": [
        {
          "internalType": "uint256",
          "name": "key",
          "type": "uint256"
        },
        {
          "internalType": "string",
          "name": "value",
          "type": "string"
        }
      ],
      "name": "setStringStorage",
      "outputs": [],
      "stateMutability": "nonpayable",
      "type": "function"
    },
    {
      "inputs": [
        {
          "internalType": "bytes32",
          "name": "slot",
          "type": "bytes32"
        },
        {
          "internalType": "uint256",
          "name": "value",
          "type": "uint256"
        }
      ],
      "name": "setUint256Slot",
      "outputs": [],
      "stateMutability": "nonpayable",
      "type": "function"
    },
    {
      "inputs": [
        {
          "internalType": "uint256",
          "name": "key",
          "type": "uint256"
        }
      ],
      "name": "stringMap",
      "outputs": [
        {
          "internalType": "string",
          "name": "",
          "type": "string"
        }
      ],
      "stateMutability": "view",
      "type": "function"
    },
    {
      "stateMutability": "payable",
      "type": "receive"
    }
  ],
  "bytecode": "0x6080604052610c5e806100115f395ff3fe608060405260043610610164575f3560e01c80636e0e0483116100cd578063a55a27f611610087578063b86c5dd511610062578063b86c5dd5146103a0578063dd4e2762146101eb578063df6e58d6146103d7578063e8ff0b1d146103f6575f80fd5b8063a55a27f61461034c578063ac9650d814610374578063b62b81ef146102a0575f80fd5b80636e0e0483146102bf578063767e35e01461030e57806383681c5b146102bf578063913a2e321461030e578063949a352c146101eb5780639b22f3431461032d575f80fd5b806337f4a46d1161011e57806337f4a46d146102505780633e60bd781461028157806347e57533146102a05780634c650c86146102bf5780635a46e25d146102dd57806367354a84146102fc575f80fd5b80630afb30ba1461016f5780631e133d0f146101905780632904df29146101c557806329c027e0146101eb57806332cadf3c14610217578063342db7391461022b575f80fd5b3661016b57005b5f80fd5b34801561017a575f80fd5b5061018e610189366004610830565b61041d565b005b34801561019b575f80fd5b506101af6101aa366004610878565b610441565b6040516101bc91906108dc565b60405180910390f35b3480156101d0575f80fd5b50335b6040516001600160a01b0390911681526020016101bc565b3480156101f6575f80fd5b50610209610205366004610878565b5490565b6040519081526020016101bc565b348015610222575f80fd5b506101af6104d8565b348015610236575f80fd5b506102096e1a185c991a185d0b595e1c1bdcd959608a1b81565b34801561025b575f80fd5b5061027161026a366004610878565b5460ff1690565b60405190151581526020016101bc565b34801561028c575f80fd5b5061018e61029b366004610830565b610515565b3480156102ab575f80fd5b506101af6102ba366004610878565b61052b565b3480156102ca575f80fd5b5061018e6102d93660046108ee565b9055565b3480156102e8575f80fd5b506101af6102f7366004610878565b6105bd565b348015610307575f80fd5b505f610209565b348015610319575f80fd5b5061018e610328366004610830565b6105d5565b348015610338575f80fd5b506101af610347366004610878565b6105dd565b348015610357575f80fd5b5061018e61036636600461090e565b815460ff1916901515179055565b34801561037f575f80fd5b5061039361038e366004610940565b6105f2565b6040516101bc91906109af565b3480156103ab575f80fd5b5061018e6103ba366004610a11565b81546001600160a01b0319166001600160a01b0391909116179055565b3480156103e2575f80fd5b506101af6103f1366004610878565b6106d8565b348015610401575f80fd5b506101d3610410366004610878565b546001600160a01b031690565b5f838152600160205260409020829082905b9161043b919083610ad7565b50505050565b5f602081905290815260409020805461045990610a53565b80601f016020809104026020016040519081016040528092919081815260200182805461048590610a53565b80156104d05780601f106104a7576101008083540402835291602001916104d0565b820191905f5260205f20905b8154815290600101906020018083116104b357829003601f168201915b505050505081565b60605f368080601f0160208091040260200160405190810160405280939291908181526020018383808284375f9201919091525092949350505050565b5f8381526020819052604090208290829061042f565b6060815b805461053a90610a53565b80601f016020809104026020016040519081016040528092919081815260200182805461056690610a53565b80156105b15780601f10610588576101008083540402835291602001916105b1565b820191905f5260205f20905b81548152906001019060200180831161059457829003601f168201915b50505050509050919050565b60016020525f90815260409020805461045990610a53565b81818461042f565b5f81815260016020526040902060609061052f565b604080515f8152602081019091526060908267ffffffffffffffff81111561061c5761061c610a3f565b60405190808252806020026020018201604052801561064f57816020015b606081526020019060019003908161063a5790505b5091505f5b838110156106d0576106ab3086868481811061067257610672610b91565b90506020028101906106849190610ba5565b8560405160200161069793929190610be8565b6040516020818303038152906040526106ed565b8382815181106106bd576106bd610b91565b6020908102919091010152600101610654565b505092915050565b5f81815260208190526040902060609061052f565b60605f80846001600160a01b0316846040516107099190610c0d565b5f60405180830381855af49150503d805f8114610741576040519150601f19603f3d011682016040523d82523d5f602084013e610746565b606091505b509150915061075685838361075f565b95945050505050565b6060826107745761076f826107c2565b6107bb565b815115801561078b57506001600160a01b0384163b155b156107b857604051639996b31560e01b81526001600160a01b038516600482015260240160405180910390fd5b50805b9392505050565b8051156107d25780518082602001fd5b60405163d6bda27560e01b815260040160405180910390fd5b5f8083601f8401126107fb575f80fd5b50813567ffffffffffffffff811115610812575f80fd5b602083019150836020828501011115610829575f80fd5b9250929050565b5f805f60408486031215610842575f80fd5b83359250602084013567ffffffffffffffff81111561085f575f80fd5b61086b868287016107eb565b9497909650939450505050565b5f60208284031215610888575f80fd5b5035919050565b5f5b838110156108a9578181015183820152602001610891565b50505f910152565b5f81518084526108c881602086016020860161088f565b601f01601f19169290920160200192915050565b602081525f6107bb60208301846108b1565b5f80604083850312156108ff575f80fd5b50508035926020909101359150565b5f806040838503121561091f575f80fd5b8235915060208301358015158114610935575f80fd5b809150509250929050565b5f8060208385031215610951575f80fd5b823567ffffffffffffffff80821115610968575f80fd5b818501915085601f83011261097b575f80fd5b813581811115610989575f80fd5b8660208260051b850101111561099d575f80fd5b60209290920196919550909350505050565b5f60208083016020845280855180835260408601915060408160051b8701019250602087015f5b82811015610a0457603f198886030184526109f28583516108b1565b945092850192908501906001016109d6565b5092979650505050505050565b5f8060408385031215610a22575f80fd5b8235915060208301356001600160a01b0381168114610935575f80fd5b634e487b7160e01b5f52604160045260245ffd5b600181811c90821680610a6757607f821691505b602082108103610a8557634e487b7160e01b5f52602260045260245ffd5b50919050565b601f821115610ad257805f5260205f20601f840160051c81016020851015610ab05750805b601f840160051c820191505b81811015610acf575f8155600101610abc565b50505b505050565b67ffffffffffffffff831115610aef57610aef610a3f565b610b0383610afd8354610a53565b83610a8b565b5f601f841160018114610b34575f8515610b1d5750838201355b5f19600387901b1c1916600186901b178355610acf565b5f83815260208120601f198716915b82811015610b635786850135825560209485019460019092019101610b43565b5086821015610b7f575f1960f88860031b161c19848701351681555b505060018560011b0183555050505050565b634e487b7160e01b5f52603260045260245ffd5b5f808335601e19843603018112610bba575f80fd5b83018035915067ffffffffffffffff821115610bd4575f80fd5b602001915036819003821315610829575f80fd5b828482375f8382015f81528351610c0381836020880161088f565b0195945050505050565b5f8251610c1e81846020870161088f565b919091019291505056fea2646970667358221220c801158c2a1fa2dc72f45be3cace62ade54e0d614b5d1c92f4526e63046dde0164736f6c63430008180033",
  "linkReferences": {},
  "deployedLinkReferences": {}
}