{
  "_format": "hh-sol-artifact-1",
  "contractName": "$Base64NFT",
  "sourceName": "contracts-exposed/mocks/docs/utilities/Base64NFT.sol",
  "abi": [
    {
      "inputs": [],
      "stateMutability": "payable",
      "type": "constructor"
    },
    {
      "inputs": [
        {
          "internalType": "address",
          "name": "sender",
          "type": "address"
        },
        {
          "internalType": "uint256",
          "name": "tokenId",
          "type": "uint256"
        },
        {
          "internalType": "address",
          "name": "owner",
          "type": "address"
        }
      ],
      "name": "ERC721IncorrectOwner",
      "type": "error"
    },
    {
      "inputs": [
        {
          "internalType": "address",
          "name": "operator",
          "type": "address"
        },
        {
          "internalType": "uint256",
          "name": "tokenId",
          "type": "uint256"
        }
      ],
      "name": "ERC721InsufficientApproval",
      "type": "error"
    },
    {
      "inputs": [
        {
          "internalType": "address",
          "name": "approver",
          "type": "address"
        }
      ],
      "name": "ERC721InvalidApprover",
      "type": "error"
    },
    {
      "inputs": [
        {
          "internalType": "address",
          "name": "operator",
          "type": "address"
        }
      ],
      "name": "ERC721InvalidOperator",
      "type": "error"
    },
    {
      "inputs": [
        {
          "internalType": "address",
          "name": "owner",
          "type": "address"
        }
      ],
      "name": "ERC721InvalidOwner",
      "type": "error"
    },
    {
      "inputs": [
        {
          "internalType": "address",
          "name": "receiver",
          "type": "address"
        }
      ],
      "name": "ERC721InvalidReceiver",
      "type": "error"
    },
    {
      "inputs": [
        {
          "internalType": "address",
          "name": "sender",
          "type": "address"
        }
      ],
      "name": "ERC721InvalidSender",
      "type": "error"
    },
    {
      "inputs": [
        {
          "internalType": "uint256",
          "name": "tokenId",
          "type": "uint256"
        }
      ],
      "name": "ERC721NonexistentToken",
      "type": "error"
    },
    {
      "anonymous": false,
      "inputs": [
        {
          "indexed": true,
          "internalType": "address",
          "name": "owner",
          "type": "address"
        },
        {
          "indexed": true,
          "internalType": "address",
          "name": "approved",
          "type": "address"
        },
        {
          "indexed": true,
          "internalType": "uint256",
          "name": "tokenId",
          "type": "uint256"
        }
      ],
      "name": "Approval",
      "type": "event"
    },
    {
      "anonymous": false,
      "inputs": [
        {
          "indexed": true,
          "internalType": "address",
          "name": "owner",
          "type": "address"
        },
        {
          "indexed": true,
          "internalType": "address",
          "name": "operator",
          "type": "address"
        },
        {
          "indexed": false,
          "internalType": "bool",
          "name": "approved",
          "type": "bool"
        }
      ],
      "name": "ApprovalForAll",
      "type": "event"
    },
    {
      "anonymous": false,
      "inputs": [
        {
          "indexed": true,
          "internalType": "address",
          "name": "from",
          "type": "address"
        },
        {
          "indexed": true,
          "internalType": "address",
          "name": "to",
          "type": "address"
        },
        {
          "indexed": true,
          "internalType": "uint256",
          "name": "tokenId",
          "type": "uint256"
        }
      ],
      "name": "Transfer",
      "type": "event"
    },
    {
      "anonymous": false,
      "inputs": [
        {
          "indexed": false,
          "internalType": "address",
          "name": "ret0",
          "type": "address"
        }
      ],
      "name": "return$_update",
      "type": "event"
    },
    {
      "inputs": [
        {
          "internalType": "address",
          "name": "to",
          "type": "address"
        },
        {
          "internalType": "uint256",
          "name": "tokenId",
          "type": "uint256"
        },
        {
          "internalType": "address",
          "name": "auth",
          "type": "address"
        },
        {
          "internalType": "bool",
          "name": "emitEvent",
          "type": "bool"
        }
      ],
      "name": "$_approve",
      "outputs": [],
      "stateMutability": "nonpayable",
      "type": "function"
    },
    {
      "inputs": [
        {
          "internalType": "address",
          "name": "to",
          "type": "address"
        },
        {
          "internalType": "uint256",
          "name": "tokenId",
          "type": "uint256"
        },
        {
          "internalType": "address",
          "name": "auth",
          "type": "address"
        }
      ],
      "name": "$_approve",
      "outputs": [],
      "stateMutability": "nonpayable",
      "type": "function"
    },
    {
      "inputs": [],
      "name": "$_baseURI",
      "outputs": [
        {
          "internalType": "string",
          "name": "ret0",
          "type": "string"
        }
      ],
      "stateMutability": "view",
      "type": "function"
    },
    {
      "inputs": [
        {
          "internalType": "uint256",
          "name": "tokenId",
          "type": "uint256"
        }
      ],
      "name": "$_burn",
      "outputs": [],
      "stateMutability": "nonpayable",
      "type": "function"
    },
    {
      "inputs": [
        {
          "internalType": "address",
          "name": "owner",
          "type": "address"
        },
        {
          "internalType": "address",
          "name": "spender",
          "type": "address"
        },
        {
          "internalType": "uint256",
          "name": "tokenId",
          "type": "uint256"
        }
      ],
      "name": "$_checkAuthorized",
      "outputs": [],
      "stateMutability": "view",
      "type": "function"
    },
    {
      "inputs": [],
      "name": "$_contextSuffixLength",
      "outputs": [
        {
          "internalType": "uint256",
          "name": "ret0",
          "type": "uint256"
        }
      ],
      "stateMutability": "view",
      "type": "function"
    },
    {
      "inputs": [
        {
          "internalType": "uint256",
          "name": "tokenId",
          "type": "uint256"
        }
      ],
      "name": "$_getApproved",
      "outputs": [
        {
          "internalType": "address",
          "name": "ret0",
          "type": "address"
        }
      ],
      "stateMutability": "view",
      "type": "function"
    },
    {
      "inputs": [
        {
          "internalType": "address",
          "name": "account",
          "type": "address"
        },
        {
          "internalType": "uint128",
          "name": "value",
          "type": "uint128"
        }
      ],
      "name": "$_increaseBalance",
      "outputs": [],
      "stateMutability": "nonpayable",
      "type": "function"
    },
    {
      "inputs": [
        {
          "internalType": "address",
          "name": "owner",
          "type": "address"
        },
        {
          "internalType": "address",
          "name": "spender",
          "type": "address"
        },
        {
          "internalType": "uint256",
          "name": "tokenId",
          "type": "uint256"
        }
      ],
      "name": "$_isAuthorized",
      "outputs": [
        {
          "internalType": "bool",
          "name": "ret0",
          "type": "bool"
        }
      ],
      "stateMutability": "view",
      "type": "function"
    },
    {
      "inputs": [
        {
          "internalType": "address",
          "name": "to",
          "type": "address"
        },
        {
          "internalType": "uint256",
          "name": "tokenId",
          "type": "uint256"
        }
      ],
      "name": "$_mint",
      "outputs": [],
      "stateMutability": "nonpayable",
      "type": "function"
    },
    {
      "inputs": [],
      "name": "$_msgData",
      "outputs": [
        {
          "internalType": "bytes",
          "name": "ret0",
          "type": "bytes"
        }
      ],
      "stateMutability": "view",
      "type": "function"
    },
    {
      "inputs": [],
      "name": "$_msgSender",
      "outputs": [
        {
          "internalType": "address",
          "name": "ret0",
          "type": "address"
        }
      ],
      "stateMutability": "view",
      "type": "function"
    },
    {
      "inputs": [
        {
          "internalType": "uint256",
          "name": "tokenId",
          "type": "uint256"
        }
      ],
      "name": "$_ownerOf",
      "outputs": [
        {
          "internalType": "address",
          "name": "ret0",
          "type": "address"
        }
      ],
      "stateMutability": "view",
      "type": "function"
    },
    {
      "inputs": [
        {
          "internalType": "uint256",
          "name": "tokenId",
          "type": "uint256"
        }
      ],
      "name": "$_requireOwned",
      "outputs": [
        {
          "internalType": "address",
          "name": "ret0",
          "type": "address"
        }
      ],
      "stateMutability": "view",
      "type": "function"
    },
    {
      "inputs": [
        {
          "internalType": "address",
          "name": "to",
          "type": "address"
        },
        {
          "internalType": "uint256",
          "name": "tokenId",
          "type": "uint256"
        },
        {
          "internalType": "bytes",
          "name": "data",
          "type": "bytes"
        }
      ],
      "name": "$_safeMint",
      "outputs": [],
      "stateMutability": "nonpayable",
      "type": "function"
    },
    {
      "inputs": [
        {
          "internalType": "address",
          "name": "to",
          "type": "address"
        },
        {
          "internalType": "uint256",
          "name": "tokenId",
          "type": "uint256"
        }
      ],
      "name": "$_safeMint",
      "outputs": [],
      "stateMutability": "nonpayable",
      "type": "function"
    },
    {
      "inputs": [
        {
          "internalType": "address",
          "name": "from",
          "type": "address"
        },
        {
          "internalType": "address",
          "name": "to",
          "type": "address"
        },
        {
          "internalType": "uint256",
          "name": "tokenId",
          "type": "uint256"
        },
        {
          "internalType": "bytes",
          "name": "data",
          "type": "bytes"
        }
      ],
      "name": "$_safeTransfer",
      "outputs": [],
      "stateMutability": "nonpayable",
      "type": "function"
    },
    {
      "inputs": [
        {
          "internalType": "address",
          "name": "from",
          "type": "address"
        },
        {
          "internalType": "address",
          "name": "to",
          "type": "address"
        },
        {
          "internalType": "uint256",
          "name": "tokenId",
          "type": "uint256"
        }
      ],
      "name": "$_safeTransfer",
      "outputs": [],
      "stateMutability": "nonpayable",
      "type": "function"
    },
    {
      "inputs": [
        {
          "internalType": "address",
          "name": "owner",
          "type": "address"
        },
        {
          "internalType": "address",
          "name": "operator",
          "type": "address"
        },
        {
          "internalType": "bool",
          "name": "approved",
          "type": "bool"
        }
      ],
      "name": "$_setApprovalForAll",
      "outputs": [],
      "stateMutability": "nonpayable",
      "type": "function"
    },
    {
      "inputs": [
        {
          "internalType": "address",
          "name": "from",
          "type": "address"
        },
        {
          "internalType": "address",
          "name": "to",
          "type": "address"
        },
        {
          "internalType": "uint256",
          "name": "tokenId",
          "type": "uint256"
        }
      ],
      "name": "$_transfer",
      "outputs": [],
      "stateMutability": "nonpayable",
      "type": "function"
    },
    {
      "inputs": [
        {
          "internalType": "address",
          "name": "to",
          "type": "address"
        },
        {
          "internalType": "uint256",
          "name": "tokenId",
          "type": "uint256"
        },
        {
          "internalType": "address",
          "name": "auth",
          "type": "address"
        }
      ],
      "name": "$_update",
      "outputs": [
        {
          "internalType": "address",
          "name": "ret0",
          "type": "address"
        }
      ],
      "stateMutability": "nonpayable",
      "type": "function"
    },
    {
      "inputs": [],
      "name": "__hh_exposed_bytecode_marker",
      "outputs": [
        {
          "internalType": "bytes32",
          "name": "",
          "type": "bytes32"
        }
      ],
      "stateMutability": "view",
      "type": "function"
    },
    {
      "inputs": [
        {
          "internalType": "address",
          "name": "to",
          "type": "address"
        },
        {
          "internalType": "uint256",
          "name": "tokenId",
          "type": "uint256"
        }
      ],
      "name": "approve",
      "outputs": [],
      "stateMutability": "nonpayable",
      "type": "function"
    },
    {
      "inputs": [
        {
          "internalType": "address",
          "name": "owner",
          "type": "address"
        }
      ],
      "name": "balanceOf",
      "outputs": [
        {
          "internalType": "uint256",
          "name": "",
          "type": "uint256"
        }
      ],
      "stateMutability": "view",
      "type": "function"
    },
    {
      "inputs": [
        {
          "internalType": "uint256",
          "name": "tokenId",
          "type": "uint256"
        }
      ],
      "name": "getApproved",
      "outputs": [
        {
          "internalType": "address",
          "name": "",
          "type": "address"
        }
      ],
      "stateMutability": "view",
      "type": "function"
    },
    {
      "inputs": [
        {
          "internalType": "address",
          "name": "owner",
          "type": "address"
        },
        {
          "internalType": "address",
          "name": "operator",
          "type": "address"
        }
      ],
      "name": "isApprovedForAll",
      "outputs": [
        {
          "internalType": "bool",
          "name": "",
          "type": "bool"
        }
      ],
      "stateMutability": "view",
      "type": "function"
    },
    {
      "inputs": [],
      "name": "name",
      "outputs": [
        {
          "internalType": "string",
          "name": "",
          "type": "string"
        }
      ],
      "stateMutability": "view",
      "type": "function"
    },
    {
      "inputs": [
        {
          "internalType": "uint256",
          "name": "tokenId",
          "type": "uint256"
        }
      ],
      "name": "ownerOf",
      "outputs": [
        {
          "internalType": "address",
          "name": "",
          "type": "address"
        }
      ],
      "stateMutability": "view",
      "type": "function"
    },
    {
      "inputs": [
        {
          "internalType": "address",
          "name": "from",
          "type": "address"
        },
        {
          "internalType": "address",
          "name": "to",
          "type": "address"
        },
        {
          "internalType": "uint256",
          "name": "tokenId",
          "type": "uint256"
        }
      ],
      "name": "safeTransferFrom",
      "outputs": [],
      "stateMutability": "nonpayable",
      "type": "function"
    },
    {
      "inputs": [
        {
          "internalType": "address",
          "name": "from",
          "type": "address"
        },
        {
          "internalType": "address",
          "name": "to",
          "type": "address"
        },
        {
          "internalType": "uint256",
          "name": "tokenId",
          "type": "uint256"
        },
        {
          "internalType": "bytes",
          "name": "data",
          "type": "bytes"
        }
      ],
      "name": "safeTransferFrom",
      "outputs": [],
      "stateMutability": "nonpayable",
      "type": "function"
    },
    {
      "inputs": [
        {
          "internalType": "address",
          "name": "operator",
          "type": "address"
        },
        {
          "internalType": "bool",
          "name": "approved",
          "type": "bool"
        }
      ],
      "name": "setApprovalForAll",
      "outputs": [],
      "stateMutability": "nonpayable",
      "type": "function"
    },
    {
      "inputs": [
        {
          "internalType": "bytes4",
          "name": "interfaceId",
          "type": "bytes4"
        }
      ],
      "name": "supportsInterface",
      "outputs": [
        {
          "internalType": "bool",
          "name": "",
          "type": "bool"
        }
      ],
      "stateMutability": "view",
      "type": "function"
    },
    {
      "inputs": [],
      "name": "symbol",
      "outputs": [
        {
          "internalType": "string",
          "name": "",
          "type": "string"
        }
      ],
      "stateMutability": "view",
      "type": "function"
    },
    {
      "inputs": [
        {
          "internalType": "uint256",
          "name": "tokenId",
          "type": "uint256"
        }
      ],
      "name": "tokenURI",
      "outputs": [
        {
          "internalType": "string",
          "name": "",
          "type": "string"
        }
      ],
      "stateMutability": "pure",
      "type": "function"
    },
    {
      "inputs": [
        {
          "internalType": "address",
          "name": "from",
          "type": "address"
        },
        {
          "internalType": "address",
          "name": "to",
          "type": "address"
        },
        {
          "internalType": "uint256",
          "name": "tokenId",
          "type": "uint256"
        }
      ],
      "name": "transferFrom",
      "outputs": [],
      "stateMutability": "nonpayable",
      "type": "function"
    },
    {
      "stateMutability": "payable",
      "type": "receive"
    }
  ],
  "bytecode": "0x600960809081526810985cd94d8d13919560ba1b60a052610100604052600360c0908152624d544b60e81b60e0525f6200003a8382620000f0565b506001620000498282620000f0565b505050620001bc565b634e487b7160e01b5f52604160045260245ffd5b600181811c908216806200007b57607f821691505b6020821081036200009a57634e487b7160e01b5f52602260045260245ffd5b50919050565b601f821115620000eb57805f5260205f20601f840160051c81016020851015620000c75750805b601f840160051c820191505b81811015620000e8575f8155600101620000d3565b50505b505050565b81516001600160401b038111156200010c576200010c62000052565b62000124816200011d845462000066565b84620000a0565b602080601f8311600181146200015a575f8415620001425750858301515b5f19600386901b1c1916600185901b178555620001b4565b5f85815260208120601f198616915b828110156200018a5788860151825594840194600190910190840162000169565b5085821015620001a857878501515f19600388901b60f8161c191681555b505060018460011b0185555b505050505050565b611aea80620001ca5f395ff3fe6080604052600436106101ff575f3560e01c806370a0823111610113578063c67072011161009d578063d261af541161006d578063d261af54146105bc578063d8483834146105db578063e3cb9a4a146105fa578063e985e9c514610619578063efb43b0714610638575f80fd5b8063c670720114610403578063c87b56dd1461055f578063cc461d621461057e578063cfeea0d41461059d575f80fd5b806395d89b41116100e357806395d89b41146104cf5780639ff2f02d146104e3578063a22cb46514610502578063a2373a8214610521578063b88d4fde14610540575f80fd5b806370a0823114610453578063733555ec146104725780637a7be0361461049157806390104b84146104b0575f80fd5b806330f3b0b51161019457806342842e0e1161016457806342842e0e146103c5578063458ee002146103e45780636352211e1461040357806367354a84146104225780636884d58b14610434575f80fd5b806330f3b0b51461034057806332cadf3c1461035f578063342db739146103735780633451b14d146103a6575f80fd5b8063113efe1a116101cf578063113efe1a146102b7578063161e977d146102fb57806323b872dd1461030f5780632904df291461032e575f80fd5b806301ffc9a71461020a57806306fdde031461023e578063081812fc1461025f578063095ea7b314610296575f80fd5b3661020657005b5f80fd5b348015610215575f80fd5b50610229610224366004611485565b610657565b60405190151581526020015b60405180910390f35b348015610249575f80fd5b506102526106a8565b60405161023591906114ed565b34801561026a575f80fd5b5061027e6102793660046114ff565b610737565b6040516001600160a01b039091168152602001610235565b3480156102a1575f80fd5b506102b56102b0366004611531565b61075e565b005b3480156102c2575f80fd5b506102b56102d1366004611559565b6001600160a01b0382165f90815260036020526040902080546001600160801b0383160190555050565b348015610306575f80fd5b5061025261076d565b34801561031a575f80fd5b506102b5610329366004611599565b610788565b348015610339575f80fd5b503361027e565b34801561034b575f80fd5b506102b561035a3660046115e1565b610816565b34801561036a575f80fd5b50610252610822565b34801561037e575f80fd5b506103986e1a185c991a185d0b595e1c1bdcd959608a1b81565b604051908152602001610235565b3480156103b1575f80fd5b5061027e6103c03660046114ff565b61085f565b3480156103d0575f80fd5b506102b56103df366004611599565b61087b565b3480156103ef575f80fd5b5061027e6103fe3660046114ff565b61089a565b34801561040e575f80fd5b5061027e61041d3660046114ff565b6108b6565b34801561042d575f80fd5b505f610398565b34801561043f575f80fd5b506102b561044e366004611599565b6108c0565b34801561045e575f80fd5b5061039861046d36600461162b565b6108cb565b34801561047d575f80fd5b506102b561048c366004611689565b610910565b34801561049c575f80fd5b506102296104ab366004611599565b610958565b3480156104bb575f80fd5b506102b56104ca3660046116f3565b61096c565b3480156104da575f80fd5b50610252610977565b3480156104ee575f80fd5b506102b56104fd36600461172c565b610986565b34801561050d575f80fd5b506102b561051c366004611782565b6109c6565b34801561052c575f80fd5b506102b561053b3660046114ff565b6109d1565b34801561054b575f80fd5b506102b561055a3660046117c7565b6109dd565b34801561056a575f80fd5b506102526105793660046114ff565b6109f5565b348015610589575f80fd5b506102b5610598366004611531565b610a52565b3480156105a8575f80fd5b506102b56105b736600461189c565b610a5c565b3480156105c7575f80fd5b506102b56105d6366004611531565b610a67565b3480156105e6575f80fd5b506102b56105f5366004611599565b610a71565b348015610605575f80fd5b5061027e6106143660046116f3565b610a7c565b348015610624575f80fd5b506102296106333660046118d3565b610ace565b348015610643575f80fd5b506102b5610652366004611599565b610afb565b5f6001600160e01b031982166380ac58cd60e01b148061068757506001600160e01b03198216635b5e139f60e01b145b806106a257506301ffc9a760e01b6001600160e01b03198316145b92915050565b60605f80546106b6906118fb565b80601f01602080910402602001604051908101604052809291908181526020018280546106e2906118fb565b801561072d5780601f106107045761010080835404028352916020019161072d565b820191905f5260205f20905b81548152906001019060200180831161071057829003601f168201915b5050505050905090565b5f61074182610b06565b505f828152600460205260409020546001600160a01b03166106a2565b610769828233610b3e565b5050565b606061078360408051602081019091525f815290565b905090565b6001600160a01b0382166107b657604051633250574960e11b81525f60048201526024015b60405180910390fd5b5f6107c2838333610b4b565b9050836001600160a01b0316816001600160a01b031614610810576040516364283d7b60e01b81526001600160a01b03808616600483015260248201849052821660448201526064016107ad565b50505050565b61081084848484610c3f565b60605f368080601f0160208091040260200160405190810160405280939291908181526020018383808284375f9201919091525092949350505050565b5f818152600460205260408120546001600160a01b03166106a2565b61089583838360405180602001604052805f8152506109dd565b505050565b5f818152600260205260408120546001600160a01b03166106a2565b5f6106a282610b06565b610895838383610d43565b5f6001600160a01b0382166108f5576040516322718ad960e21b81525f60048201526024016107ad565b506001600160a01b03165f9081526003602052604090205490565b61095185858585858080601f0160208091040260200160405190810160405280939291908181526020018383808284375f92019190915250610da792505050565b5050505050565b5f610964848484610db2565b949350505050565b610895838383610b3e565b6060600180546106b6906118fb565b610810848484848080601f0160208091040260200160405190810160405280939291908181526020018383808284375f92019190915250610e1392505050565b610769338383610e2a565b6109da81610ec8565b50565b6109e8848484610788565b6108103385858585610f00565b60605f610a0183611027565b604051602001610a119190611933565b6040516020818303038152906040529050610a2b816110b7565b604051602001610a3b919061197c565b604051602081830303815290604052915050919050565b61076982826110dd565b610895838383610e2a565b610769828261113e565b610895838383611157565b5f610a88848484610b4b565b6040516001600160a01b03821681529091507ffc55619107f02333de2d9626fe994a6b9d0734bee4722e17698d6fa1b06c52009060200160405180910390a19392505050565b6001600160a01b039182165f90815260056020908152604080832093909416825291909152205460ff1690565b610895838383611171565b5f818152600260205260408120546001600160a01b0316806106a257604051637e27328960e01b8152600481018490526024016107ad565b6108958383836001610c3f565b5f828152600260205260408120546001600160a01b0390811690831615610b7757610b77818486610d43565b6001600160a01b03811615610bb157610b925f855f80610c3f565b6001600160a01b0381165f90815260036020526040902080545f190190555b6001600160a01b03851615610bdf576001600160a01b0385165f908152600360205260409020805460010190555b5f8481526002602052604080822080546001600160a01b0319166001600160a01b0389811691821790925591518793918516917fddf252ad1be2c89b69c2b068fc378daa952ba7f163c4a11628f55a4df523b3ef91a490505b9392505050565b8080610c5357506001600160a01b03821615155b15610d14575f610c6284610b06565b90506001600160a01b03831615801590610c8e5750826001600160a01b0316816001600160a01b031614155b8015610ca15750610c9f8184610ace565b155b15610cca5760405163a9fbf51f60e01b81526001600160a01b03841660048201526024016107ad565b8115610d125783856001600160a01b0316826001600160a01b03167f8c5be1e5ebec7d5bd14f71427d1e84f3dd0314c0f7b2291e5b200ac8c7c3b92560405160405180910390a45b505b50505f90815260046020526040902080546001600160a01b0319166001600160a01b0392909216919091179055565b610d4e838383610db2565b610895576001600160a01b038316610d7c57604051637e27328960e01b8152600481018290526024016107ad565b60405163177e802f60e01b81526001600160a01b0383166004820152602481018290526044016107ad565b6109e8848484611171565b5f6001600160a01b038316158015906109645750826001600160a01b0316846001600160a01b03161480610deb5750610deb8484610ace565b806109645750505f908152600460205260409020546001600160a01b03908116911614919050565b610e1d83836110dd565b610895335f858585610f00565b6001600160a01b038216610e5c57604051630b61174360e31b81526001600160a01b03831660048201526024016107ad565b6001600160a01b038381165f81815260056020908152604080832094871680845294825291829020805460ff191686151590811790915591519182527f17307eab39ab6107e8899845ad3d59bd9653f200f220920489ca2b5937696c31910160405180910390a3505050565b5f610ed45f835f610b4b565b90506001600160a01b03811661076957604051637e27328960e01b8152600481018390526024016107ad565b6001600160a01b0383163b1561095157604051630a85bd0160e11b81526001600160a01b0384169063150b7a0290610f429088908890879087906004016119c0565b6020604051808303815f875af1925050508015610f7c575060408051601f3d908101601f19168201909252610f79918101906119fc565b60015b610fe3573d808015610fa9576040519150601f19603f3d011682016040523d82523d5f602084013e610fae565b606091505b5080515f03610fdb57604051633250574960e11b81526001600160a01b03851660048201526024016107ad565b805181602001fd5b6001600160e01b03198116630a85bd0160e11b1461101f57604051633250574960e11b81526001600160a01b03851660048201526024016107ad565b505050505050565b60605f6110338361121e565b60010190505f8167ffffffffffffffff811115611052576110526117b3565b6040519080825280601f01601f19166020018201604052801561107c576020820181803683370190505b5090508181016020015b5f19016f181899199a1a9b1b9c1cb0b131b232b360811b600a86061a8153600a850494508461108657509392505050565b60606106a282604051806060016040528060408152602001611a756040913960016112f5565b6001600160a01b03821661110657604051633250574960e11b81525f60048201526024016107ad565b5f61111283835f610b4b565b90506001600160a01b03811615610895576040516339e3563760e11b81525f60048201526024016107ad565b610769828260405180602001604052805f815250610e13565b61089583838360405180602001604052805f815250610da7565b6001600160a01b03821661119a57604051633250574960e11b81525f60048201526024016107ad565b5f6111a683835f610b4b565b90506001600160a01b0381166111d257604051637e27328960e01b8152600481018390526024016107ad565b836001600160a01b0316816001600160a01b031614610810576040516364283d7b60e01b81526001600160a01b03808616600483015260248201849052821660448201526064016107ad565b5f8072184f03e93ff9f4daa797ed6e38ed64bf6a1f0160401b831061125c5772184f03e93ff9f4daa797ed6e38ed64bf6a1f0160401b830492506040015b6d04ee2d6d415b85acef81000000008310611288576d04ee2d6d415b85acef8100000000830492506020015b662386f26fc1000083106112a657662386f26fc10000830492506010015b6305f5e10083106112be576305f5e100830492506008015b61271083106112d257612710830492506004015b606483106112e4576064830492506002015b600a83106106a25760010192915050565b606083515f03611313575060408051602081019091525f8152610c38565b5f82611343576003855160046113299190611a2b565b611334906002611a42565b61133e9190611a55565b611368565b6003855160026113539190611a42565b61135d9190611a55565b611368906004611a2b565b90505f8167ffffffffffffffff811115611384576113846117b3565b6040519080825280601f01601f1916602001820160405280156113ae576020820181803683370190505b509050600185016020820187885189016020810180515f82525b82841015611423576003840193508351603f8160121c168701518653600186019550603f81600c1c168701518653600186019550603f8160061c168701518653600186019550603f81168701518653506001850194506113c8565b90525050851561146457600388510660018114611447576002811461145a57611462565b603d6001830353603d6002830353611462565b603d60018303535b505b50909695505050505050565b6001600160e01b0319811681146109da575f80fd5b5f60208284031215611495575f80fd5b8135610c3881611470565b5f5b838110156114ba5781810151838201526020016114a2565b50505f910152565b5f81518084526114d98160208601602086016114a0565b601f01601f19169290920160200192915050565b602081525f610c3860208301846114c2565b5f6020828403121561150f575f80fd5b5035919050565b80356001600160a01b038116811461152c575f80fd5b919050565b5f8060408385031215611542575f80fd5b61154b83611516565b946020939093013593505050565b5f806040838503121561156a575f80fd5b61157383611516565b915060208301356001600160801b038116811461158e575f80fd5b809150509250929050565b5f805f606084860312156115ab575f80fd5b6115b484611516565b92506115c260208501611516565b9150604084013590509250925092565b8035801515811461152c575f80fd5b5f805f80608085870312156115f4575f80fd5b6115fd85611516565b93506020850135925061161260408601611516565b9150611620606086016115d2565b905092959194509250565b5f6020828403121561163b575f80fd5b610c3882611516565b5f8083601f840112611654575f80fd5b50813567ffffffffffffffff81111561166b575f80fd5b602083019150836020828501011115611682575f80fd5b9250929050565b5f805f805f6080868803121561169d575f80fd5b6116a686611516565b94506116b460208701611516565b935060408601359250606086013567ffffffffffffffff8111156116d6575f80fd5b6116e288828901611644565b969995985093965092949392505050565b5f805f60608486031215611705575f80fd5b61170e84611516565b92506020840135915061172360408501611516565b90509250925092565b5f805f806060858703121561173f575f80fd5b61174885611516565b935060208501359250604085013567ffffffffffffffff81111561176a575f80fd5b61177687828801611644565b95989497509550505050565b5f8060408385031215611793575f80fd5b61179c83611516565b91506117aa602084016115d2565b90509250929050565b634e487b7160e01b5f52604160045260245ffd5b5f805f80608085870312156117da575f80fd5b6117e385611516565b93506117f160208601611516565b925060408501359150606085013567ffffffffffffffff80821115611814575f80fd5b818701915087601f830112611827575f80fd5b813581811115611839576118396117b3565b604051601f8201601f19908116603f01168101908382118183101715611861576118616117b3565b816040528281528a6020848701011115611879575f80fd5b826020860160208301375f60208483010152809550505050505092959194509250565b5f805f606084860312156118ae575f80fd5b6118b784611516565b92506118c560208501611516565b9150611723604085016115d2565b5f80604083850312156118e4575f80fd5b6118ed83611516565b91506117aa60208401611516565b600181811c9082168061190f57607f821691505b60208210810361192d57634e487b7160e01b5f52602260045260245ffd5b50919050565b747b226e616d65223a20224261736536344e4654202360581b815281515f906119638160158501602087016114a0565b61227d60f01b6015939091019283015250601701919050565b7f646174613a6170706c69636174696f6e2f6a736f6e3b6261736536342c00000081525f82516119b381601d8501602087016114a0565b91909101601d0192915050565b6001600160a01b03858116825284166020820152604081018390526080606082018190525f906119f2908301846114c2565b9695505050505050565b5f60208284031215611a0c575f80fd5b8151610c3881611470565b634e487b7160e01b5f52601160045260245ffd5b80820281158282048414176106a2576106a2611a17565b808201808211156106a2576106a2611a17565b5f82611a6f57634e487b7160e01b5f52601260045260245ffd5b50049056fe4142434445464748494a4b4c4d4e4f505152535455565758595a6162636465666768696a6b6c6d6e6f707172737475767778797a303132333435363738392b2fa2646970667358221220b2cdcef56c9937916e18d70946a1158cee37e138342598a05935c4561c2ad81064736f6c63430008180033",
  "linkReferences": {},
  "deployedLinkReferences": {}
}