{
  "_format": "hh-sol-artifact-1",
  "contractName": "$AccessManagedTarget",
  "sourceName": "contracts-exposed/mocks/AccessManagedTarget.sol",
  "abi": [
    {
      "inputs": [
        {
          "internalType": "address",
          "name": "initialAuthority",
          "type": "address"
        }
      ],
      "stateMutability": "payable",
      "type": "constructor"
    },
    {
      "inputs": [
        {
          "internalType": "address",
          "name": "authority",
          "type": "address"
        }
      ],
      "name": "AccessManagedInvalidAuthority",
      "type": "error"
    },
    {
      "inputs": [
        {
          "internalType": "address",
          "name": "caller",
          "type": "address"
        },
        {
          "internalType": "uint32",
          "name": "delay",
          "type": "uint32"
        }
      ],
      "name": "AccessManagedRequiredDelay",
      "type": "error"
    },
    {
      "inputs": [
        {
          "internalType": "address",
          "name": "caller",
          "type": "address"
        }
      ],
      "name": "AccessManagedUnauthorized",
      "type": "error"
    },
    {
      "anonymous": false,
      "inputs": [
        {
          "indexed": false,
          "internalType": "address",
          "name": "authority",
          "type": "address"
        }
      ],
      "name": "AuthorityUpdated",
      "type": "event"
    },
    {
      "anonymous": false,
      "inputs": [
        {
          "indexed": false,
          "internalType": "address",
          "name": "caller",
          "type": "address"
        }
      ],
      "name": "CalledFallback",
      "type": "event"
    },
    {
      "anonymous": false,
      "inputs": [
        {
          "indexed": false,
          "internalType": "address",
          "name": "caller",
          "type": "address"
        }
      ],
      "name": "CalledRestricted",
      "type": "event"
    },
    {
      "anonymous": false,
      "inputs": [
        {
          "indexed": false,
          "internalType": "address",
          "name": "caller",
          "type": "address"
        }
      ],
      "name": "CalledUnrestricted",
      "type": "event"
    },
    {
      "stateMutability": "nonpayable",
      "type": "fallback"
    },
    {
      "inputs": [
        {
          "internalType": "address",
          "name": "caller",
          "type": "address"
        },
        {
          "internalType": "bytes",
          "name": "data",
          "type": "bytes"
        }
      ],
      "name": "$_checkCanCall",
      "outputs": [],
      "stateMutability": "nonpayable",
      "type": "function"
    },
    {
      "inputs": [],
      "name": "$_contextSuffixLength",
      "outputs": [
        {
          "internalType": "uint256",
          "name": "ret0",
          "type": "uint256"
        }
      ],
      "stateMutability": "view",
      "type": "function"
    },
    {
      "inputs": [],
      "name": "$_msgData",
      "outputs": [
        {
          "internalType": "bytes",
          "name": "ret0",
          "type": "bytes"
        }
      ],
      "stateMutability": "view",
      "type": "function"
    },
    {
      "inputs": [],
      "name": "$_msgSender",
      "outputs": [
        {
          "internalType": "address",
          "name": "ret0",
          "type": "address"
        }
      ],
      "stateMutability": "view",
      "type": "function"
    },
    {
      "inputs": [
        {
          "internalType": "address",
          "name": "newAuthority",
          "type": "address"
        }
      ],
      "name": "$_setAuthority",
      "outputs": [],
      "stateMutability": "nonpayable",
      "type": "function"
    },
    {
      "inputs": [],
      "name": "__hh_exposed_bytecode_marker",
      "outputs": [
        {
          "internalType": "bytes32",
          "name": "",
          "type": "bytes32"
        }
      ],
      "stateMutability": "view",
      "type": "function"
    },
    {
      "inputs": [],
      "name": "authority",
      "outputs": [
        {
          "internalType": "address",
          "name": "",
          "type": "address"
        }
      ],
      "stateMutability": "view",
      "type": "function"
    },
    {
      "inputs": [],
      "name": "fnRestricted",
      "outputs": [],
      "stateMutability": "nonpayable",
      "type": "function"
    },
    {
      "inputs": [],
      "name": "fnUnrestricted",
      "outputs": [],
      "stateMutability": "nonpayable",
      "type": "function"
    },
    {
      "inputs": [],
      "name": "isConsumingScheduledOp",
      "outputs": [
        {
          "internalType": "bytes4",
          "name": "",
          "type": "bytes4"
        }
      ],
      "stateMutability": "view",
      "type": "function"
    },
    {
      "inputs": [
        {
          "internalType": "address",
          "name": "newAuthority",
          "type": "address"
        }
      ],
      "name": "setAuthority",
      "outputs": [],
      "stateMutability": "nonpayable",
      "type": "function"
    },
    {
      "inputs": [
        {
          "internalType": "bool",
          "name": "isConsuming",
          "type": "bool"
        },
        {
          "internalType": "bytes32",
          "name": "slot",
          "type": "bytes32"
        }
      ],
      "name": "setIsConsumingScheduledOp",
      "outputs": [],
      "stateMutability": "nonpayable",
      "type": "function"
    },
    {
      "stateMutability": "payable",
      "type": "receive"
    }
  ],
  "bytecode": "0x608060405260405161098b38038061098b83398101604081905261002291610086565b8061002c81610033565b50506100b3565b5f80546001600160a01b0319166001600160a01b0383169081179091556040519081527f2f658b440c35314f52658ea8a740e05b284cdc84dc9ae01e891f21b8933e7cad9060200160405180910390a150565b5f60208284031215610096575f80fd5b81516001600160a01b03811681146100ac575f80fd5b9392505050565b6108cb806100c05f395ff3fe6080604052600436106100aa575f3560e01c80636f154d2d116100635780636f154d2d146101b85780637a9e5e4b146101cc5780638f9ababd146101eb5780638fb360371461020a578063bf7e214f14610237578063e94c28c214610253576100b1565b806308fd0171146100f25780632904df291461011357806332cadf3c1461013e578063342db7391461015f57806357a221111461019257806367354a84146101a6576100b1565b366100b157005b3480156100bc575f80fd5b506040513381527f0abb7d3af54797947bbed05bb800afcaafb1f249e6ea4b349eefce09d4c165e49060200160405180910390a1005b3480156100fd575f80fd5b5061011161010c366004610662565b610272565b005b34801561011e575f80fd5b50335b6040516001600160a01b0390911681526020015b60405180910390f35b348015610149575f80fd5b5061015261027e565b60405161013591906106a4565b34801561016a575f80fd5b506101846e1a185c991a185d0b595e1c1bdcd959608a1b81565b604051908152602001610135565b34801561019d575f80fd5b506101116102bb565b3480156101b1575f80fd5b505f610184565b3480156101c3575f80fd5b506101116102fc565b3480156101d7575f80fd5b506101116101e6366004610662565b61032c565b3480156101f6575f80fd5b506101116102053660046106e3565b6103a9565b348015610215575f80fd5b5061021e6103c9565b6040516001600160e01b03199091168152602001610135565b348015610242575f80fd5b505f546001600160a01b0316610121565b34801561025e575f80fd5b5061011161026d36600461070d565b6103eb565b61027b816103f6565b50565b60605f368080601f0160208091040260200160405190810160405280939291908181526020018383808284375f9201919091525092949350505050565b6102c6335f36610449565b6040513381527f736614e0596fd68e76f34c74b62efa34b16c2a960f58ae22d1ec8fe770c1961a906020015b60405180910390a1565b6040513381527f723e9347c9cee19522d182a3a0d8287ce6ba225b534114cb124b76e1523bfb7e906020016102f2565b5f5433906001600160a01b031681146103675760405162d1953b60e31b81526001600160a01b03821660048201526024015b60405180910390fd5b816001600160a01b03163b5f0361039c576040516361798f2f60e11b81526001600160a01b038316600482015260240161035e565b6103a5826103f6565b5050565b600160a01b82156103bc57815417905550565b815481191682555b505050565b5f8054600160a01b900460ff166103df57505f90565b50638fb3603760e01b90565b6103c4838383610449565b5f80546001600160a01b0319166001600160a01b0383169081179091556040519081527f2f658b440c35314f52658ea8a740e05b284cdc84dc9ae01e891f21b8933e7cad9060200160405180910390a150565b5f8061047c61045f5f546001600160a01b031690565b863061046e60045f898b610789565b610477916107b0565b61053f565b91509150816105385763ffffffff811615610515575f805460ff60a01b198116600160a01b17909155604051634a63ebf760e11b81526001600160a01b03909116906394c7d7ee906104d6908890889088906004016107e0565b5f604051808303815f87803b1580156104ed575f80fd5b505af11580156104ff573d5f803e3d5ffd5b50505f805460ff60a01b19169055506105389050565b60405162d1953b60e31b81526001600160a01b038616600482015260240161035e565b5050505050565b6040516001600160a01b03848116602483015283811660448301526001600160e01b0319831660648301525f9182918291829189169060840160408051601f198184030181529181526020820180516001600160e01b031663b700961360e01b179052516105ad919061081f565b5f60405180830381855afa9150503d805f81146105e5576040519150601f19603f3d011682016040523d82523d5f602084013e6105ea565b606091505b5091509150811561063c57604081511061061c5780806020019051810190610612919061083a565b909450925061063c565b602081511061063c5780806020019051810190610639919061087a565b93505b505094509492505050565b80356001600160a01b038116811461065d575f80fd5b919050565b5f60208284031215610672575f80fd5b61067b82610647565b9392505050565b5f5b8381101561069c578181015183820152602001610684565b50505f910152565b602081525f82518060208401526106c2816040850160208701610682565b601f01601f19169190910160400192915050565b801515811461027b575f80fd5b5f80604083850312156106f4575f80fd5b82356106ff816106d6565b946020939093013593505050565b5f805f6040848603121561071f575f80fd5b61072884610647565b9250602084013567ffffffffffffffff80821115610744575f80fd5b818601915086601f830112610757575f80fd5b813581811115610765575f80fd5b876020828501011115610776575f80fd5b6020830194508093505050509250925092565b5f8085851115610797575f80fd5b838611156107a3575f80fd5b5050820193919092039150565b6001600160e01b031981358181169160048510156107d85780818660040360031b1b83161692505b505092915050565b6001600160a01b03841681526040602082018190528101829052818360608301375f818301606090810191909152601f909201601f1916010192915050565b5f8251610830818460208701610682565b9190910192915050565b5f806040838503121561084b575f80fd5b8251610856816106d6565b602084015190925063ffffffff8116811461086f575f80fd5b809150509250929050565b5f6020828403121561088a575f80fd5b815161067b816106d656fea2646970667358221220b06a90716a43828b5e659b33ef782d1ce9b3f25c052a63a6de02c35abc6867d264736f6c63430008180033",
  "linkReferences": {},
  "deployedLinkReferences": {}
}