{
  "_format": "hh-sol-artifact-1",
  "contractName": "$MigratableMockV3",
  "sourceName": "contracts-exposed/mocks/SingleInheritanceInitializableMocks.sol",
  "abi": [
    {
      "inputs": [],
      "stateMutability": "payable",
      "type": "constructor"
    },
    {
      "inputs": [],
      "name": "InvalidInitialization",
      "type": "error"
    },
    {
      "inputs": [],
      "name": "NotInitializing",
      "type": "error"
    },
    {
      "anonymous": false,
      "inputs": [
        {
          "indexed": false,
          "internalType": "uint64",
          "name": "version",
          "type": "uint64"
        }
      ],
      "name": "Initialized",
      "type": "event"
    },
    {
      "inputs": [],
      "name": "$_checkInitializing",
      "outputs": [],
      "stateMutability": "view",
      "type": "function"
    },
    {
      "inputs": [],
      "name": "$_disableInitializers",
      "outputs": [],
      "stateMutability": "nonpayable",
      "type": "function"
    },
    {
      "inputs": [],
      "name": "$_getInitializedVersion",
      "outputs": [
        {
          "internalType": "uint64",
          "name": "ret0",
          "type": "uint64"
        }
      ],
      "stateMutability": "view",
      "type": "function"
    },
    {
      "inputs": [],
      "name": "$_isInitializing",
      "outputs": [
        {
          "internalType": "bool",
          "name": "ret0",
          "type": "bool"
        }
      ],
      "stateMutability": "view",
      "type": "function"
    },
    {
      "inputs": [],
      "name": "$_migratedV2",
      "outputs": [
        {
          "internalType": "bool",
          "name": "",
          "type": "bool"
        }
      ],
      "stateMutability": "view",
      "type": "function"
    },
    {
      "inputs": [],
      "name": "$_migratedV3",
      "outputs": [
        {
          "internalType": "bool",
          "name": "",
          "type": "bool"
        }
      ],
      "stateMutability": "view",
      "type": "function"
    },
    {
      "inputs": [],
      "name": "__hh_exposed_bytecode_marker",
      "outputs": [
        {
          "internalType": "bytes32",
          "name": "",
          "type": "bytes32"
        }
      ],
      "stateMutability": "view",
      "type": "function"
    },
    {
      "inputs": [
        {
          "internalType": "uint256",
          "name": "value",
          "type": "uint256"
        }
      ],
      "name": "initialize",
      "outputs": [],
      "stateMutability": "payable",
      "type": "function"
    },
    {
      "inputs": [
        {
          "internalType": "uint256",
          "name": "value",
          "type": "uint256"
        },
        {
          "internalType": "uint256",
          "name": "anotherValue",
          "type": "uint256"
        }
      ],
      "name": "migrate",
      "outputs": [],
      "stateMutability": "payable",
      "type": "function"
    },
    {
      "inputs": [],
      "name": "migrate",
      "outputs": [],
      "stateMutability": "payable",
      "type": "function"
    },
    {
      "inputs": [],
      "name": "x",
      "outputs": [
        {
          "internalType": "uint256",
          "name": "",
          "type": "uint256"
        }
      ],
      "stateMutability": "view",
      "type": "function"
    },
    {
      "inputs": [],
      "name": "y",
      "outputs": [
        {
          "internalType": "uint256",
          "name": "",
          "type": "uint256"
        }
      ],
      "stateMutability": "view",
      "type": "function"
    },
    {
      "stateMutability": "payable",
      "type": "receive"
    }
  ],
  "bytecode": "0x60806040526104d9806100115f395ff3fe6080604052600436106100a8575f3560e01c8063a56dfe4a11610062578063a56dfe4a1461016c578063b6f342b714610181578063c9eb057114610198578063f5f1bec0146101c2578063fa171c92146101d6578063fe4b84df146101ea575f80fd5b80630c55699c146100b3578063342db739146100da5780633e54bacb146100ff5780634fd5303d146101145780638fd3ab8014610141578063946a204414610149575f80fd5b366100af57005b5f80fd5b3480156100be575f80fd5b506100c75f5481565b6040519081526020015b60405180910390f35b3480156100e5575f80fd5b506100c76e1a185c991a185d0b595e1c1bdcd959608a1b81565b61011261010d36600461044c565b6101fd565b005b34801561011f575f80fd5b50610128610222565b60405167ffffffffffffffff90911681526020016100d1565b610112610247565b348015610154575f80fd5b5060015460ff165b60405190151581526020016100d1565b348015610177575f80fd5b506100c760025481565b34801561018c575f80fd5b5060035460ff1661015c565b3480156101a3575f80fd5b505f8051602061048483398151915254600160401b900460ff1661015c565b3480156101cd575f80fd5b50610112610271565b3480156101e1575f80fd5b5061011261027b565b6101126101f836600461046c565b610283565b60015460ff161561020c575f80fd5b5f919091556002556001805460ff191681179055565b5f6102425f805160206104848339815191525467ffffffffffffffff1690565b905090565b60035460ff1615610256575f80fd5b5f80546002805490925590556003805460ff19166001179055565b610279610379565b565b610279610416565b5f805160206104848339815191528054600160401b810460ff16159067ffffffffffffffff165f811580156102b55750825b90505f8267ffffffffffffffff1660011480156102d15750303b155b9050811580156102df575080155b156102fd5760405163f92ee8a960e01b815260040160405180910390fd5b845467ffffffffffffffff19166001178555831561032757845460ff60401b1916600160401b1785555b5f869055831561037157845460ff60401b19168555604051600181527fc7f505b2f371ae2175ee4913f4499e1f2633a7b5936321eed1cdaeb6115181d29060200160405180910390a15b505050505050565b5f805160206104848339815191528054600160401b900460ff16156103b15760405163f92ee8a960e01b815260040160405180910390fd5b805467ffffffffffffffff9081161461041357805467ffffffffffffffff191667ffffffffffffffff90811782556040519081527fc7f505b2f371ae2175ee4913f4499e1f2633a7b5936321eed1cdaeb6115181d29060200160405180910390a15b50565b5f8051602061048483398151915254600160401b900460ff1661027957604051631afcd79f60e31b815260040160405180910390fd5b5f806040838503121561045d575f80fd5b50508035926020909101359150565b5f6020828403121561047c575f80fd5b503591905056fef0c57e16840df040f15088dc2f81fe391c3923bec73e23a9662efc9c229c6a00a2646970667358221220eb0285bbe04aabc27fd3a6f808dc94228d35834d300515f3b9e99c77be612b2a64736f6c63430008180033",
  "linkReferences": {},
  "deployedLinkReferences": {}
}