{
  "_format": "hh-sol-artifact-1",
  "contractName": "$MigratableMockV1",
  "sourceName": "contracts-exposed/mocks/SingleInheritanceInitializableMocks.sol",
  "abi": [
    {
      "inputs": [],
      "stateMutability": "payable",
      "type": "constructor"
    },
    {
      "inputs": [],
      "name": "InvalidInitialization",
      "type": "error"
    },
    {
      "inputs": [],
      "name": "NotInitializing",
      "type": "error"
    },
    {
      "anonymous": false,
      "inputs": [
        {
          "indexed": false,
          "internalType": "uint64",
          "name": "version",
          "type": "uint64"
        }
      ],
      "name": "Initialized",
      "type": "event"
    },
    {
      "inputs": [],
      "name": "$_checkInitializing",
      "outputs": [],
      "stateMutability": "view",
      "type": "function"
    },
    {
      "inputs": [],
      "name": "$_disableInitializers",
      "outputs": [],
      "stateMutability": "nonpayable",
      "type": "function"
    },
    {
      "inputs": [],
      "name": "$_getInitializedVersion",
      "outputs": [
        {
          "internalType": "uint64",
          "name": "ret0",
          "type": "uint64"
        }
      ],
      "stateMutability": "view",
      "type": "function"
    },
    {
      "inputs": [],
      "name": "$_isInitializing",
      "outputs": [
        {
          "internalType": "bool",
          "name": "ret0",
          "type": "bool"
        }
      ],
      "stateMutability": "view",
      "type": "function"
    },
    {
      "inputs": [],
      "name": "__hh_exposed_bytecode_marker",
      "outputs": [
        {
          "internalType": "bytes32",
          "name": "",
          "type": "bytes32"
        }
      ],
      "stateMutability": "view",
      "type": "function"
    },
    {
      "inputs": [
        {
          "internalType": "uint256",
          "name": "value",
          "type": "uint256"
        }
      ],
      "name": "initialize",
      "outputs": [],
      "stateMutability": "payable",
      "type": "function"
    },
    {
      "inputs": [],
      "name": "x",
      "outputs": [
        {
          "internalType": "uint256",
          "name": "",
          "type": "uint256"
        }
      ],
      "stateMutability": "view",
      "type": "function"
    },
    {
      "stateMutability": "payable",
      "type": "receive"
    }
  ],
  "bytecode": "0x60806040526103d4806100115f395ff3fe608060405260043610610071575f3560e01c8063c9eb05711161004c578063c9eb0571146100f5578063f5f1bec01461012a578063fa171c9214610140578063fe4b84df14610154575f80fd5b80630c55699c1461007c578063342db739146100a35780634fd5303d146100c8575f80fd5b3661007857005b5f80fd5b348015610087575f80fd5b506100905f5481565b6040519081526020015b60405180910390f35b3480156100ae575f80fd5b506100906e1a185c991a185d0b595e1c1bdcd959608a1b81565b3480156100d3575f80fd5b506100dc610167565b60405167ffffffffffffffff909116815260200161009a565b348015610100575f80fd5b505f8051602061037f83398151915254600160401b900460ff16604051901515815260200161009a565b348015610135575f80fd5b5061013e61018c565b005b34801561014b575f80fd5b5061013e610196565b61013e610162366004610367565b61019e565b5f6101875f8051602061037f8339815191525467ffffffffffffffff1690565b905090565b610194610294565b565b610194610331565b5f8051602061037f8339815191528054600160401b810460ff16159067ffffffffffffffff165f811580156101d05750825b90505f8267ffffffffffffffff1660011480156101ec5750303b155b9050811580156101fa575080155b156102185760405163f92ee8a960e01b815260040160405180910390fd5b845467ffffffffffffffff19166001178555831561024257845460ff60401b1916600160401b1785555b5f869055831561028c57845460ff60401b19168555604051600181527fc7f505b2f371ae2175ee4913f4499e1f2633a7b5936321eed1cdaeb6115181d29060200160405180910390a15b505050505050565b5f8051602061037f8339815191528054600160401b900460ff16156102cc5760405163f92ee8a960e01b815260040160405180910390fd5b805467ffffffffffffffff9081161461032e57805467ffffffffffffffff191667ffffffffffffffff90811782556040519081527fc7f505b2f371ae2175ee4913f4499e1f2633a7b5936321eed1cdaeb6115181d29060200160405180910390a15b50565b5f8051602061037f83398151915254600160401b900460ff1661019457604051631afcd79f60e31b815260040160405180910390fd5b5f60208284031215610377575f80fd5b503591905056fef0c57e16840df040f15088dc2f81fe391c3923bec73e23a9662efc9c229c6a00a2646970667358221220e0e38d43e838a890c7bdba6bb95e1e336856651ca2ab961184ad8058d50ab57964736f6c63430008180033",
  "linkReferences": {},
  "deployedLinkReferences": {}
}