{
  "_format": "hh-sol-artifact-1",
  "contractName": "$AccessControlDefaultAdminRules",
  "sourceName": "contracts-exposed/access/extensions/AccessControlDefaultAdminRules.sol",
  "abi": [
    {
      "inputs": [
        {
          "internalType": "uint48",
          "name": "initialDelay",
          "type": "uint48"
        },
        {
          "internalType": "address",
          "name": "initialDefaultAdmin",
          "type": "address"
        }
      ],
      "stateMutability": "payable",
      "type": "constructor"
    },
    {
      "inputs": [],
      "name": "AccessControlBadConfirmation",
      "type": "error"
    },
    {
      "inputs": [
        {
          "internalType": "uint48",
          "name": "schedule",
          "type": "uint48"
        }
      ],
      "name": "AccessControlEnforcedDefaultAdminDelay",
      "type": "error"
    },
    {
      "inputs": [],
      "name": "AccessControlEnforcedDefaultAdminRules",
      "type": "error"
    },
    {
      "inputs": [
        {
          "internalType": "address",
          "name": "defaultAdmin",
          "type": "address"
        }
      ],
      "name": "AccessControlInvalidDefaultAdmin",
      "type": "error"
    },
    {
      "inputs": [
        {
          "internalType": "address",
          "name": "account",
          "type": "address"
        },
        {
          "internalType": "bytes32",
          "name": "neededRole",
          "type": "bytes32"
        }
      ],
      "name": "AccessControlUnauthorizedAccount",
      "type": "error"
    },
    {
      "inputs": [
        {
          "internalType": "uint8",
          "name": "bits",
          "type": "uint8"
        },
        {
          "internalType": "uint256",
          "name": "value",
          "type": "uint256"
        }
      ],
      "name": "SafeCastOverflowedUintDowncast",
      "type": "error"
    },
    {
      "anonymous": false,
      "inputs": [],
      "name": "DefaultAdminDelayChangeCanceled",
      "type": "event"
    },
    {
      "anonymous": false,
      "inputs": [
        {
          "indexed": false,
          "internalType": "uint48",
          "name": "newDelay",
          "type": "uint48"
        },
        {
          "indexed": false,
          "internalType": "uint48",
          "name": "effectSchedule",
          "type": "uint48"
        }
      ],
      "name": "DefaultAdminDelayChangeScheduled",
      "type": "event"
    },
    {
      "anonymous": false,
      "inputs": [],
      "name": "DefaultAdminTransferCanceled",
      "type": "event"
    },
    {
      "anonymous": false,
      "inputs": [
        {
          "indexed": true,
          "internalType": "address",
          "name": "newAdmin",
          "type": "address"
        },
        {
          "indexed": false,
          "internalType": "uint48",
          "name": "acceptSchedule",
          "type": "uint48"
        }
      ],
      "name": "DefaultAdminTransferScheduled",
      "type": "event"
    },
    {
      "anonymous": false,
      "inputs": [
        {
          "indexed": true,
          "internalType": "bytes32",
          "name": "role",
          "type": "bytes32"
        },
        {
          "indexed": true,
          "internalType": "bytes32",
          "name": "previousAdminRole",
          "type": "bytes32"
        },
        {
          "indexed": true,
          "internalType": "bytes32",
          "name": "newAdminRole",
          "type": "bytes32"
        }
      ],
      "name": "RoleAdminChanged",
      "type": "event"
    },
    {
      "anonymous": false,
      "inputs": [
        {
          "indexed": true,
          "internalType": "bytes32",
          "name": "role",
          "type": "bytes32"
        },
        {
          "indexed": true,
          "internalType": "address",
          "name": "account",
          "type": "address"
        },
        {
          "indexed": true,
          "internalType": "address",
          "name": "sender",
          "type": "address"
        }
      ],
      "name": "RoleGranted",
      "type": "event"
    },
    {
      "anonymous": false,
      "inputs": [
        {
          "indexed": true,
          "internalType": "bytes32",
          "name": "role",
          "type": "bytes32"
        },
        {
          "indexed": true,
          "internalType": "address",
          "name": "account",
          "type": "address"
        },
        {
          "indexed": true,
          "internalType": "address",
          "name": "sender",
          "type": "address"
        }
      ],
      "name": "RoleRevoked",
      "type": "event"
    },
    {
      "anonymous": false,
      "inputs": [
        {
          "indexed": false,
          "internalType": "bool",
          "name": "ret0",
          "type": "bool"
        }
      ],
      "name": "return$_grantRole",
      "type": "event"
    },
    {
      "anonymous": false,
      "inputs": [
        {
          "indexed": false,
          "internalType": "bool",
          "name": "ret0",
          "type": "bool"
        }
      ],
      "name": "return$_revokeRole",
      "type": "event"
    },
    {
      "inputs": [],
      "name": "$_acceptDefaultAdminTransfer",
      "outputs": [],
      "stateMutability": "nonpayable",
      "type": "function"
    },
    {
      "inputs": [
        {
          "internalType": "address",
          "name": "newAdmin",
          "type": "address"
        }
      ],
      "name": "$_beginDefaultAdminTransfer",
      "outputs": [],
      "stateMutability": "nonpayable",
      "type": "function"
    },
    {
      "inputs": [],
      "name": "$_cancelDefaultAdminTransfer",
      "outputs": [],
      "stateMutability": "nonpayable",
      "type": "function"
    },
    {
      "inputs": [
        {
          "internalType": "uint48",
          "name": "newDelay",
          "type": "uint48"
        }
      ],
      "name": "$_changeDefaultAdminDelay",
      "outputs": [],
      "stateMutability": "nonpayable",
      "type": "function"
    },
    {
      "inputs": [
        {
          "internalType": "bytes32",
          "name": "role",
          "type": "bytes32"
        },
        {
          "internalType": "address",
          "name": "account",
          "type": "address"
        }
      ],
      "name": "$_checkRole",
      "outputs": [],
      "stateMutability": "view",
      "type": "function"
    },
    {
      "inputs": [
        {
          "internalType": "bytes32",
          "name": "role",
          "type": "bytes32"
        }
      ],
      "name": "$_checkRole",
      "outputs": [],
      "stateMutability": "view",
      "type": "function"
    },
    {
      "inputs": [],
      "name": "$_contextSuffixLength",
      "outputs": [
        {
          "internalType": "uint256",
          "name": "ret0",
          "type": "uint256"
        }
      ],
      "stateMutability": "view",
      "type": "function"
    },
    {
      "inputs": [
        {
          "internalType": "uint48",
          "name": "newDelay",
          "type": "uint48"
        }
      ],
      "name": "$_delayChangeWait",
      "outputs": [
        {
          "internalType": "uint48",
          "name": "ret0",
          "type": "uint48"
        }
      ],
      "stateMutability": "view",
      "type": "function"
    },
    {
      "inputs": [
        {
          "internalType": "bytes32",
          "name": "role",
          "type": "bytes32"
        },
        {
          "internalType": "address",
          "name": "account",
          "type": "address"
        }
      ],
      "name": "$_grantRole",
      "outputs": [
        {
          "internalType": "bool",
          "name": "ret0",
          "type": "bool"
        }
      ],
      "stateMutability": "nonpayable",
      "type": "function"
    },
    {
      "inputs": [],
      "name": "$_msgData",
      "outputs": [
        {
          "internalType": "bytes",
          "name": "ret0",
          "type": "bytes"
        }
      ],
      "stateMutability": "view",
      "type": "function"
    },
    {
      "inputs": [],
      "name": "$_msgSender",
      "outputs": [
        {
          "internalType": "address",
          "name": "ret0",
          "type": "address"
        }
      ],
      "stateMutability": "view",
      "type": "function"
    },
    {
      "inputs": [
        {
          "internalType": "bytes32",
          "name": "role",
          "type": "bytes32"
        },
        {
          "internalType": "address",
          "name": "account",
          "type": "address"
        }
      ],
      "name": "$_revokeRole",
      "outputs": [
        {
          "internalType": "bool",
          "name": "ret0",
          "type": "bool"
        }
      ],
      "stateMutability": "nonpayable",
      "type": "function"
    },
    {
      "inputs": [],
      "name": "$_rollbackDefaultAdminDelay",
      "outputs": [],
      "stateMutability": "nonpayable",
      "type": "function"
    },
    {
      "inputs": [
        {
          "internalType": "bytes32",
          "name": "role",
          "type": "bytes32"
        },
        {
          "internalType": "bytes32",
          "name": "adminRole",
          "type": "bytes32"
        }
      ],
      "name": "$_setRoleAdmin",
      "outputs": [],
      "stateMutability": "nonpayable",
      "type": "function"
    },
    {
      "inputs": [],
      "name": "DEFAULT_ADMIN_ROLE",
      "outputs": [
        {
          "internalType": "bytes32",
          "name": "",
          "type": "bytes32"
        }
      ],
      "stateMutability": "view",
      "type": "function"
    },
    {
      "inputs": [],
      "name": "__hh_exposed_bytecode_marker",
      "outputs": [
        {
          "internalType": "bytes32",
          "name": "",
          "type": "bytes32"
        }
      ],
      "stateMutability": "view",
      "type": "function"
    },
    {
      "inputs": [],
      "name": "acceptDefaultAdminTransfer",
      "outputs": [],
      "stateMutability": "nonpayable",
      "type": "function"
    },
    {
      "inputs": [
        {
          "internalType": "address",
          "name": "newAdmin",
          "type": "address"
        }
      ],
      "name": "beginDefaultAdminTransfer",
      "outputs": [],
      "stateMutability": "nonpayable",
      "type": "function"
    },
    {
      "inputs": [],
      "name": "cancelDefaultAdminTransfer",
      "outputs": [],
      "stateMutability": "nonpayable",
      "type": "function"
    },
    {
      "inputs": [
        {
          "internalType": "uint48",
          "name": "newDelay",
          "type": "uint48"
        }
      ],
      "name": "changeDefaultAdminDelay",
      "outputs": [],
      "stateMutability": "nonpayable",
      "type": "function"
    },
    {
      "inputs": [],
      "name": "defaultAdmin",
      "outputs": [
        {
          "internalType": "address",
          "name": "",
          "type": "address"
        }
      ],
      "stateMutability": "view",
      "type": "function"
    },
    {
      "inputs": [],
      "name": "defaultAdminDelay",
      "outputs": [
        {
          "internalType": "uint48",
          "name": "",
          "type": "uint48"
        }
      ],
      "stateMutability": "view",
      "type": "function"
    },
    {
      "inputs": [],
      "name": "defaultAdminDelayIncreaseWait",
      "outputs": [
        {
          "internalType": "uint48",
          "name": "",
          "type": "uint48"
        }
      ],
      "stateMutability": "view",
      "type": "function"
    },
    {
      "inputs": [
        {
          "internalType": "bytes32",
          "name": "role",
          "type": "bytes32"
        }
      ],
      "name": "getRoleAdmin",
      "outputs": [
        {
          "internalType": "bytes32",
          "name": "",
          "type": "bytes32"
        }
      ],
      "stateMutability": "view",
      "type": "function"
    },
    {
      "inputs": [
        {
          "internalType": "bytes32",
          "name": "role",
          "type": "bytes32"
        },
        {
          "internalType": "address",
          "name": "account",
          "type": "address"
        }
      ],
      "name": "grantRole",
      "outputs": [],
      "stateMutability": "nonpayable",
      "type": "function"
    },
    {
      "inputs": [
        {
          "internalType": "bytes32",
          "name": "role",
          "type": "bytes32"
        },
        {
          "internalType": "address",
          "name": "account",
          "type": "address"
        }
      ],
      "name": "hasRole",
      "outputs": [
        {
          "internalType": "bool",
          "name": "",
          "type": "bool"
        }
      ],
      "stateMutability": "view",
      "type": "function"
    },
    {
      "inputs": [],
      "name": "owner",
      "outputs": [
        {
          "internalType": "address",
          "name": "",
          "type": "address"
        }
      ],
      "stateMutability": "view",
      "type": "function"
    },
    {
      "inputs": [],
      "name": "pendingDefaultAdmin",
      "outputs": [
        {
          "internalType": "address",
          "name": "newAdmin",
          "type": "address"
        },
        {
          "internalType": "uint48",
          "name": "schedule",
          "type": "uint48"
        }
      ],
      "stateMutability": "view",
      "type": "function"
    },
    {
      "inputs": [],
      "name": "pendingDefaultAdminDelay",
      "outputs": [
        {
          "internalType": "uint48",
          "name": "newDelay",
          "type": "uint48"
        },
        {
          "internalType": "uint48",
          "name": "schedule",
          "type": "uint48"
        }
      ],
      "stateMutability": "view",
      "type": "function"
    },
    {
      "inputs": [
        {
          "internalType": "bytes32",
          "name": "role",
          "type": "bytes32"
        },
        {
          "internalType": "address",
          "name": "account",
          "type": "address"
        }
      ],
      "name": "renounceRole",
      "outputs": [],
      "stateMutability": "nonpayable",
      "type": "function"
    },
    {
      "inputs": [
        {
          "internalType": "bytes32",
          "name": "role",
          "type": "bytes32"
        },
        {
          "internalType": "address",
          "name": "account",
          "type": "address"
        }
      ],
      "name": "revokeRole",
      "outputs": [],
      "stateMutability": "nonpayable",
      "type": "function"
    },
    {
      "inputs": [],
      "name": "rollbackDefaultAdminDelay",
      "outputs": [],
      "stateMutability": "nonpayable",
      "type": "function"
    },
    {
      "inputs": [
        {
          "internalType": "bytes4",
          "name": "interfaceId",
          "type": "bytes4"
        }
      ],
      "name": "supportsInterface",
      "outputs": [
        {
          "internalType": "bool",
          "name": "",
          "type": "bool"
        }
      ],
      "stateMutability": "view",
      "type": "function"
    },
    {
      "stateMutability": "payable",
      "type": "receive"
    }
  ],
  "bytecode": "0x608060405260405162001407380380620014078339810160408190526200002691620001ab565b81816001600160a01b0381166200005657604051636116401160e11b81525f600482015260240160405180910390fd5b600180546001600160d01b0316600160d01b65ffffffffffff851602179055620000815f826200008c565b5050505050620001fb565b5f82620000eb575f620000a76002546001600160a01b031690565b6001600160a01b031614620000cf57604051631fe1e13d60e11b815260040160405180910390fd5b600280546001600160a01b0319166001600160a01b0384161790555b620000f7838362000100565b90505b92915050565b5f828152602081815260408083206001600160a01b038516845290915281205460ff16620001a3575f838152602081815260408083206001600160a01b03861684529091529020805460ff191660011790556200015a3390565b6001600160a01b0316826001600160a01b0316847f2f8788117e7eff1d82e926ec794901d17c78024a50270940304540a733656f0d60405160405180910390a4506001620000fa565b505f620000fa565b5f8060408385031215620001bd575f80fd5b825165ffffffffffff81168114620001d3575f80fd5b60208401519092506001600160a01b0381168114620001f0575f80fd5b809150509250929050565b6111fe80620002095f395ff3fe6080604052600436106101e9575f3560e01c806367354a8411610108578063bf6e39cb1161009d578063cefc14291161006d578063cefc14291461055b578063cf6eefb71461056f578063d547741f146105a9578063d602b9fd146105c8578063d7bdcee9146105dc575f80fd5b8063bf6e39cb146104f5578063ca17f12814610509578063cac73f3e14610528578063cc8463c814610547575f80fd5b80639525e11d116100d85780639525e11d1461047c57806398dd54c114610490578063a1eda53c146104af578063a217fddf146104e2575f80fd5b806367354a841461041a57806384ef8ffc1461042c5780638da5cb5b1461044957806391d148541461045d575f80fd5b806332cadf3c1161017e5780634286d2f11161014e5780634286d2f1146103a957806357fbf031146103c8578063634e93da146103dc578063649a5ec7146103fb575f80fd5b806332cadf3c14610325578063342db7391461034657806336568abe1461036b57806341b45f711461038a575f80fd5b8063248a9ca3116101b9578063248a9ca314610285578063270db874146102c15780632904df29146102e05780632f2ff15d14610306575f80fd5b806301ffc9a7146101f4578063022d63fb146102285780630aa6220b1461025057806319ea6db314610266575f80fd5b366101f057005b5f80fd5b3480156101ff575f80fd5b5061021361020e366004611042565b6105fb565b60405190151581526020015b60405180910390f35b348015610233575f80fd5b50620697805b60405165ffffffffffff909116815260200161021f565b34801561025b575f80fd5b50610264610625565b005b348015610271575f80fd5b50610239610280366004611069565b61063a565b348015610290575f80fd5b506102b361029f36600461108e565b5f9081526020819052604090206001015490565b60405190815260200161021f565b3480156102cc575f80fd5b506102136102db3660046110c0565b610644565b3480156102eb575f80fd5b50335b6040516001600160a01b03909116815260200161021f565b348015610311575f80fd5b506102646103203660046110c0565b610697565b348015610330575f80fd5b506103396106c3565b60405161021f91906110ea565b348015610351575f80fd5b506102b36e1a185c991a185d0b595e1c1bdcd959608a1b81565b348015610376575f80fd5b506102646103853660046110c0565b610700565b348015610395575f80fd5b506102646103a43660046110c0565b6107ab565b3480156103b4575f80fd5b506102136103c33660046110c0565b6107b5565b3480156103d3575f80fd5b506102646107f5565b3480156103e7575f80fd5b506102646103f6366004611136565b6107ff565b348015610406575f80fd5b50610264610415366004611069565b610812565b348015610425575f80fd5b505f6102b3565b348015610437575f80fd5b506002546001600160a01b03166102ee565b348015610454575f80fd5b506102ee610825565b348015610468575f80fd5b506102136104773660046110c0565b610838565b348015610487575f80fd5b50610264610860565b34801561049b575f80fd5b506102646104aa36600461108e565b610868565b3480156104ba575f80fd5b506104c3610871565b6040805165ffffffffffff93841681529290911660208301520161021f565b3480156104ed575f80fd5b506102b35f81565b348015610500575f80fd5b506102646108c3565b348015610514575f80fd5b50610264610523366004611069565b6108cb565b348015610533575f80fd5b50610264610542366004611136565b6108d4565b348015610552575f80fd5b506102396108dd565b348015610566575f80fd5b5061026461093b565b34801561057a575f80fd5b5061058361097a565b604080516001600160a01b03909316835265ffffffffffff90911660208301520161021f565b3480156105b4575f80fd5b506102646105c33660046110c0565b61099b565b3480156105d3575f80fd5b506102646109c3565b3480156105e7575f80fd5b506102646105f636600461114f565b6109d5565b5f6001600160e01b031982166318a4c3c360e11b148061061f575061061f826109df565b92915050565b5f61062f81610a13565b610637610a1d565b50565b5f61061f82610a27565b5f61064f8383610a75565b90507f370ef10a740e8e7931c19225ec88cd0e2e6bd52365a53489c401385c5582873381604051610684911515815260200190565b60405180910390a192915050565b905090565b816106b557604051631fe1e13d60e11b815260040160405180910390fd5b6106bf8282610adb565b5050565b60605f368080601f0160208091040260200160405190810160405280939291908181526020018383808284375f9201919091525092949350505050565b8115801561071b57506002546001600160a01b038281169116145b156107a1575f8061072a61097a565b90925090506001600160a01b03821615158061074c575065ffffffffffff8116155b8061075f57504265ffffffffffff821610155b1561078c576040516319ca5ebb60e01b815265ffffffffffff821660048201526024015b60405180910390fd5b50506001805465ffffffffffff60a01b191690555b6106bf8282610b05565b6106bf8282610b3d565b5f6107c08383610b76565b90507fe404ca92845347e354d44ac6f2449eba6681424c1f6f1d34173ac2f49c6996b381604051610684911515815260200190565b6107fd610bb2565b565b5f61080981610a13565b6106bf82610bbc565b5f61081c81610a13565b6106bf82610c2e565b5f6106926002546001600160a01b031690565b5f918252602082815260408084206001600160a01b0393909316845291905290205460ff1690565b6107fd610c9d565b61063781610a13565b6002545f90600160d01b900465ffffffffffff16801515801561089c57504265ffffffffffff821610155b6108a7575f806108bb565b600254600160a01b900465ffffffffffff16815b915091509091565b6107fd610a1d565b61063781610c2e565b61063781610bbc565b6002545f90600160d01b900465ffffffffffff16801515801561090757504265ffffffffffff8216105b61092257600154600160d01b900465ffffffffffff16610935565b600254600160a01b900465ffffffffffff165b91505090565b5f61094461097a565b509050336001600160a01b0382161461097257604051636116401160e11b8152336004820152602401610783565b610637610c9d565b6001546001600160a01b03811691600160a01b90910465ffffffffffff1690565b816109b957604051631fe1e13d60e11b815260040160405180910390fd5b6106bf8282610d33565b5f6109cd81610a13565b610637610bb2565b6106bf8282610d57565b5f6001600160e01b03198216637965db0b60e01b148061061f57506301ffc9a760e01b6001600160e01b031983161461061f565b6106378133610b3d565b6107fd5f80610d7f565b5f80610a316108dd565b90508065ffffffffffff168365ffffffffffff1611610a5957610a548382611183565b610a6e565b610a6e65ffffffffffff841662069780610e3e565b9392505050565b5f82610ad1575f610a8e6002546001600160a01b031690565b6001600160a01b031614610ab557604051631fe1e13d60e11b815260040160405180910390fd5b600280546001600160a01b0319166001600160a01b0384161790555b610a6e8383610e4d565b5f82815260208190526040902060010154610af581610a13565b610aff8383610a75565b50505050565b6001600160a01b0381163314610b2e5760405163334bd91960e11b815260040160405180910390fd5b610b388282610b76565b505050565b610b478282610838565b6106bf5760405163e2517d3f60e01b81526001600160a01b038216600482015260248101839052604401610783565b5f82158015610b9257506002546001600160a01b038381169116145b15610ba857600280546001600160a01b03191690555b610a6e8383610edc565b6107fd5f80610f45565b5f610bc56108dd565b610bce42610fc2565b610bd891906111a9565b9050610be48282610f45565b60405165ffffffffffff821681526001600160a01b038316907f3377dc44241e779dd06afab5b788a35ca5f3b778836e2990bdb26a2a4b2e5ed69060200160405180910390a25050565b5f610c3882610a27565b610c4142610fc2565b610c4b91906111a9565b9050610c578282610d7f565b6040805165ffffffffffff8085168252831660208201527ff1038c18cf84a56e432fdbfaf746924b7ea511dfe03a6506a0ceba4888788d9b910160405180910390a15050565b5f80610ca761097a565b91509150610cbc8165ffffffffffff16151590565b1580610cd057504265ffffffffffff821610155b15610cf8576040516319ca5ebb60e01b815265ffffffffffff82166004820152602401610783565b610d135f610d0e6002546001600160a01b031690565b610b76565b50610d1e5f83610a75565b5050600180546001600160d01b031916905550565b5f82815260208190526040902060010154610d4d81610a13565b610aff8383610b76565b81610d7557604051631fe1e13d60e11b815260040160405180910390fd5b6106bf8282610ff8565b600254600160d01b900465ffffffffffff168015610e01574265ffffffffffff82161015610dd857600254600180546001600160d01b0316600160a01b90920465ffffffffffff16600160d01b02919091179055610e01565b6040517f2b1fa2edafe6f7b9e97c1a9e0c3660e645beb2dcaa2d45bdbf9beaf5472e1ec5905f90a15b50600280546001600160a01b0316600160a01b65ffffffffffff948516026001600160d01b031617600160d01b9290931691909102919091179055565b5f828218828410028218610a6e565b5f610e588383610838565b610ed5575f838152602081815260408083206001600160a01b03861684529091529020805460ff19166001179055610e8d3390565b6001600160a01b0316826001600160a01b0316847f2f8788117e7eff1d82e926ec794901d17c78024a50270940304540a733656f0d60405160405180910390a450600161061f565b505f61061f565b5f610ee78383610838565b15610ed5575f838152602081815260408083206001600160a01b0386168085529252808320805460ff1916905551339286917ff6391f5c32d9c69d2a47ea670b442974b53935d1edc7fd64eb21e047a839171b9190a450600161061f565b5f610f4e61097a565b6001805465ffffffffffff8616600160a01b026001600160d01b03199091166001600160a01b038816171790559150610f9090508165ffffffffffff16151590565b15610b38576040517f8886ebfc4259abdbc16601dd8fb5678e54878f47b3c34836cfc51154a9605109905f90a1505050565b5f65ffffffffffff821115610ff4576040516306dfcc6560e41b81526030600482015260248101839052604401610783565b5090565b5f82815260208190526040808220600101805490849055905190918391839186917fbd79b86ffe0ab8e8776151514217cd7cacd52c909f66475c3af44e129f0b00ff9190a4505050565b5f60208284031215611052575f80fd5b81356001600160e01b031981168114610a6e575f80fd5b5f60208284031215611079575f80fd5b813565ffffffffffff81168114610a6e575f80fd5b5f6020828403121561109e575f80fd5b5035919050565b80356001600160a01b03811681146110bb575f80fd5b919050565b5f80604083850312156110d1575f80fd5b823591506110e1602084016110a5565b90509250929050565b5f602080835283518060208501525f5b81811015611116578581018301518582016040015282016110fa565b505f604082860101526040601f19601f8301168501019250505092915050565b5f60208284031215611146575f80fd5b610a6e826110a5565b5f8060408385031215611160575f80fd5b50508035926020909101359150565b634e487b7160e01b5f52601160045260245ffd5b65ffffffffffff8281168282160390808211156111a2576111a261116f565b5092915050565b65ffffffffffff8181168382160190808211156111a2576111a261116f56fea264697066735822122045b5512f4013be297d3269c393c6e40f4af79a80dd3c16d9382ad1085b97ea3b64736f6c63430008180033",
  "linkReferences": {},
  "deployedLinkReferences": {}
}