{
  "_format": "hh-sol-artifact-1",
  "contractName": "$ProxyAdmin",
  "sourceName": "contracts-exposed/proxy/transparent/ProxyAdmin.sol",
  "abi": [
    {
      "inputs": [
        {
          "internalType": "address",
          "name": "initialOwner",
          "type": "address"
        }
      ],
      "stateMutability": "payable",
      "type": "constructor"
    },
    {
      "inputs": [
        {
          "internalType": "address",
          "name": "owner",
          "type": "address"
        }
      ],
      "name": "OwnableInvalidOwner",
      "type": "error"
    },
    {
      "inputs": [
        {
          "internalType": "address",
          "name": "account",
          "type": "address"
        }
      ],
      "name": "OwnableUnauthorizedAccount",
      "type": "error"
    },
    {
      "anonymous": false,
      "inputs": [
        {
          "indexed": true,
          "internalType": "address",
          "name": "previousOwner",
          "type": "address"
        },
        {
          "indexed": true,
          "internalType": "address",
          "name": "newOwner",
          "type": "address"
        }
      ],
      "name": "OwnershipTransferred",
      "type": "event"
    },
    {
      "inputs": [],
      "name": "$_checkOwner",
      "outputs": [],
      "stateMutability": "view",
      "type": "function"
    },
    {
      "inputs": [],
      "name": "$_contextSuffixLength",
      "outputs": [
        {
          "internalType": "uint256",
          "name": "ret0",
          "type": "uint256"
        }
      ],
      "stateMutability": "view",
      "type": "function"
    },
    {
      "inputs": [],
      "name": "$_msgData",
      "outputs": [
        {
          "internalType": "bytes",
          "name": "ret0",
          "type": "bytes"
        }
      ],
      "stateMutability": "view",
      "type": "function"
    },
    {
      "inputs": [],
      "name": "$_msgSender",
      "outputs": [
        {
          "internalType": "address",
          "name": "ret0",
          "type": "address"
        }
      ],
      "stateMutability": "view",
      "type": "function"
    },
    {
      "inputs": [
        {
          "internalType": "address",
          "name": "newOwner",
          "type": "address"
        }
      ],
      "name": "$_transferOwnership",
      "outputs": [],
      "stateMutability": "nonpayable",
      "type": "function"
    },
    {
      "inputs": [],
      "name": "UPGRADE_INTERFACE_VERSION",
      "outputs": [
        {
          "internalType": "string",
          "name": "",
          "type": "string"
        }
      ],
      "stateMutability": "view",
      "type": "function"
    },
    {
      "inputs": [],
      "name": "__hh_exposed_bytecode_marker",
      "outputs": [
        {
          "internalType": "bytes32",
          "name": "",
          "type": "bytes32"
        }
      ],
      "stateMutability": "view",
      "type": "function"
    },
    {
      "inputs": [],
      "name": "owner",
      "outputs": [
        {
          "internalType": "address",
          "name": "",
          "type": "address"
        }
      ],
      "stateMutability": "view",
      "type": "function"
    },
    {
      "inputs": [],
      "name": "renounceOwnership",
      "outputs": [],
      "stateMutability": "nonpayable",
      "type": "function"
    },
    {
      "inputs": [
        {
          "internalType": "address",
          "name": "newOwner",
          "type": "address"
        }
      ],
      "name": "transferOwnership",
      "outputs": [],
      "stateMutability": "nonpayable",
      "type": "function"
    },
    {
      "inputs": [
        {
          "internalType": "contract ITransparentUpgradeableProxy",
          "name": "proxy",
          "type": "address"
        },
        {
          "internalType": "address",
          "name": "implementation",
          "type": "address"
        },
        {
          "internalType": "bytes",
          "name": "data",
          "type": "bytes"
        }
      ],
      "name": "upgradeAndCall",
      "outputs": [],
      "stateMutability": "payable",
      "type": "function"
    },
    {
      "stateMutability": "payable",
      "type": "receive"
    }
  ],
  "bytecode": "0x608060405260405161063a38038061063a833981016040819052610022916100b1565b80806001600160a01b03811661005157604051631e4fbdf760e01b81525f600482015260240160405180910390fd5b61005a81610062565b5050506100de565b5f80546001600160a01b038381166001600160a01b0319831681178455604051919092169283917f8be0079c531659141344cd1fd0a4f28419497f9722a3daafe3b4186f6b6457e09190a35050565b5f602082840312156100c1575f80fd5b81516001600160a01b03811681146100d7575f80fd5b9392505050565b61054f806100eb5f395ff3fe60806040526004361061009d575f3560e01c80638da5cb5b116100625780638da5cb5b1461014f5780639623609d1461016b578063ad3cb1cc1461017e578063ebcca707146101ae578063f2fde38b146101c2578063fe1c9a24146101e1575f80fd5b80632904df29146100a857806332cadf3c146100d3578063342db739146100f457806367354a8414610127578063715018a614610139575f80fd5b366100a457005b5f80fd5b3480156100b3575f80fd5b50335b6040516001600160a01b0390911681526020015b60405180910390f35b3480156100de575f80fd5b506100e7610200565b6040516100ca91906103c3565b3480156100ff575f80fd5b506101196e1a185c991a185d0b595e1c1bdcd959608a1b81565b6040519081526020016100ca565b348015610132575f80fd5b505f610119565b348015610144575f80fd5b5061014d61023d565b005b34801561015a575f80fd5b505f546001600160a01b03166100b6565b61014d610179366004610404565b610250565b348015610189575f80fd5b506100e7604051806040016040528060058152602001640352e302e360dc1b81525081565b3480156101b9575f80fd5b5061014d6102bb565b3480156101cd575f80fd5b5061014d6101dc3660046104d3565b6102c3565b3480156101ec575f80fd5b5061014d6101fb3660046104d3565b6102f9565b60605f368080601f0160208091040260200160405190810160405280939291908181526020018383808284375f9201919091525092949350505050565b610245610305565b61024e5f610331565b565b610258610305565b60405163278f794360e11b81526001600160a01b03841690634f1ef28690349061028890869086906004016104ee565b5f604051808303818588803b15801561029f575f80fd5b505af11580156102b1573d5f803e3d5ffd5b5050505050505050565b61024e610305565b6102cb610305565b6001600160a01b0381166102f957604051631e4fbdf760e01b81525f60048201526024015b60405180910390fd5b61030281610331565b50565b5f546001600160a01b0316331461024e5760405163118cdaa760e01b81523360048201526024016102f0565b5f80546001600160a01b038381166001600160a01b0319831681178455604051919092169283917f8be0079c531659141344cd1fd0a4f28419497f9722a3daafe3b4186f6b6457e09190a35050565b5f81518084525f5b818110156103a457602081850181015186830182015201610388565b505f602082860101526020601f19601f83011685010191505092915050565b602081525f6103d56020830184610380565b9392505050565b6001600160a01b0381168114610302575f80fd5b634e487b7160e01b5f52604160045260245ffd5b5f805f60608486031215610416575f80fd5b8335610421816103dc565b92506020840135610431816103dc565b9150604084013567ffffffffffffffff8082111561044d575f80fd5b818601915086601f830112610460575f80fd5b813581811115610472576104726103f0565b604051601f8201601f19908116603f0116810190838211818310171561049a5761049a6103f0565b816040528281528960208487010111156104b2575f80fd5b826020860160208301375f6020848301015280955050505050509250925092565b5f602082840312156104e3575f80fd5b81356103d5816103dc565b6001600160a01b03831681526040602082018190525f9061051190830184610380565b94935050505056fea26469706673582212202efcd8319b2c30355687bfffcdacc3b6fc490e30296420697762c86727d3ae3d64736f6c63430008180033",
  "linkReferences": {},
  "deployedLinkReferences": {}
}