{
  "_format": "hh-sol-artifact-1",
  "contractName": "$BadBeaconNotContract",
  "sourceName": "contracts-exposed/mocks/proxy/BadBeacon.sol",
  "abi": [
    {
      "inputs": [],
      "stateMutability": "payable",
      "type": "constructor"
    },
    {
      "inputs": [],
      "name": "__hh_exposed_bytecode_marker",
      "outputs": [
        {
          "internalType": "bytes32",
          "name": "",
          "type": "bytes32"
        }
      ],
      "stateMutability": "view",
      "type": "function"
    },
    {
      "inputs": [],
      "name": "implementation",
      "outputs": [
        {
          "internalType": "address",
          "name": "",
          "type": "address"
        }
      ],
      "stateMutability": "pure",
      "type": "function"
    },
    {
      "stateMutability": "payable",
      "type": "receive"
    }
  ],
  "bytecode": "0x608060405260b7806100105f395ff3fe6080604052600436106028575f3560e01c8063342db7391460325780635c60da1b146068575f80fd5b36602e57005b5f80fd5b348015603c575f80fd5b5060556e1a185c991a185d0b595e1c1bdcd959608a1b81565b6040519081526020015b60405180910390f35b3480156072575f80fd5b5060405160018152602001605f56fea264697066735822122035ba336eb31f892fd6204926705ab354c9d4f607dd199420f15d159b960340f164736f6c63430008180033",
  "linkReferences": {},
  "deployedLinkReferences": {}
}