{
  "_format": "hh-sol-artifact-1",
  "contractName": "$MulticallHelper",
  "sourceName": "contracts-exposed/mocks/MulticallHelper.sol",
  "abi": [
    {
      "inputs": [],
      "stateMutability": "payable",
      "type": "constructor"
    },
    {
      "inputs": [],
      "name": "__hh_exposed_bytecode_marker",
      "outputs": [
        {
          "internalType": "bytes32",
          "name": "",
          "type": "bytes32"
        }
      ],
      "stateMutability": "view",
      "type": "function"
    },
    {
      "inputs": [
        {
          "internalType": "contract ERC20MulticallMock",
          "name": "multicallToken",
          "type": "address"
        },
        {
          "internalType": "address[]",
          "name": "recipients",
          "type": "address[]"
        },
        {
          "internalType": "uint256[]",
          "name": "amounts",
          "type": "uint256[]"
        }
      ],
      "name": "checkReturnValues",
      "outputs": [],
      "stateMutability": "nonpayable",
      "type": "function"
    },
    {
      "stateMutability": "payable",
      "type": "receive"
    }
  ],
  "bytecode": "0x60806040526105bd806100115f395ff3fe60806040526004361061002b575f3560e01c8063342db73914610036578063b568d0161461006d575f80fd5b3661003257005b5f80fd5b348015610041575f80fd5b5061005b6e1a185c991a185d0b595e1c1bdcd959608a1b81565b60405190815260200160405180910390f35b348015610078575f80fd5b5061008c6100873660046102ca565b61008e565b005b5f8367ffffffffffffffff8111156100a8576100a8610347565b6040519080825280602002602001820160405280156100db57816020015b60608152602001906001900390816100c65790505b5090505f5b848110156101a657866001600160a01b031663a9059cbb8787848181106101095761010961035b565b905060200201602081019061011e919061036f565b8686858181106101305761013061035b565b6040516001600160a01b0390941660248501526020029190910135604483015250606401604051602081830303815290604052915060e01b6020820180516001600160e01b0383818316178352505050508282815181106101935761019361035b565b60209081029190910101526001016100e0565b50604051631592ca1b60e31b81525f906001600160a01b0388169063ac9650d8906101d59085906004016103b3565b5f604051808303815f875af11580156101f0573d5f803e3d5ffd5b505050506040513d5f823e601f3d908101601f19168201604052610217919081019061045c565b90505f5b8151811015610261578181815181106102365761023661035b565b60200260200101518060200190518101906102519190610568565b610259575f80fd5b60010161021b565b5050505050505050565b6001600160a01b038116811461027f575f80fd5b50565b5f8083601f840112610292575f80fd5b50813567ffffffffffffffff8111156102a9575f80fd5b6020830191508360208260051b85010111156102c3575f80fd5b9250929050565b5f805f805f606086880312156102de575f80fd5b85356102e98161026b565b9450602086013567ffffffffffffffff80821115610305575f80fd5b61031189838a01610282565b90965094506040880135915080821115610329575f80fd5b5061033688828901610282565b969995985093965092949392505050565b634e487b7160e01b5f52604160045260245ffd5b634e487b7160e01b5f52603260045260245ffd5b5f6020828403121561037f575f80fd5b813561038a8161026b565b9392505050565b5f5b838110156103ab578181015183820152602001610393565b50505f910152565b5f602080830181845280855180835260408601915060408160051b87010192508387015f5b8281101561041e57878503603f19018452815180518087526103ff818989018a8501610391565b601f01601f1916959095018601945092850192908501906001016103d8565b5092979650505050505050565b604051601f8201601f1916810167ffffffffffffffff8111828210171561045457610454610347565b604052919050565b5f602080838503121561046d575f80fd5b825167ffffffffffffffff80821115610484575f80fd5b8185019150601f86601f840112610499575f80fd5b8251828111156104ab576104ab610347565b8060051b6104ba86820161042b565b918252848101860191868101908a8411156104d3575f80fd5b87870192505b8383101561055a578251868111156104ef575f80fd5b8701603f81018c136104ff575f80fd5b8881015160408882111561051557610515610347565b610526828901601f19168c0161042b565b8281528e82848601011115610539575f80fd5b610548838d8301848701610391565b855250505091870191908701906104d9565b9a9950505050505050505050565b5f60208284031215610578575f80fd5b8151801515811461038a575f80fdfea2646970667358221220dc4a3e413ec1e1ef64e0e0348c0a80af56ed4d8f7de53f7167a98a54298bd3e964736f6c63430008180033",
  "linkReferences": {},
  "deployedLinkReferences": {}
}