{
  "_format": "hh-sol-artifact-1",
  "contractName": "$Packing",
  "sourceName": "contracts-exposed/utils/Packing.sol",
  "abi": [
    {
      "inputs": [],
      "stateMutability": "payable",
      "type": "constructor"
    },
    {
      "inputs": [],
      "name": "OutOfRangeAccess",
      "type": "error"
    },
    {
      "inputs": [
        {
          "internalType": "bytes10",
          "name": "self",
          "type": "bytes10"
        },
        {
          "internalType": "uint8",
          "name": "offset",
          "type": "uint8"
        }
      ],
      "name": "$extract_10_1",
      "outputs": [
        {
          "internalType": "bytes1",
          "name": "result",
          "type": "bytes1"
        }
      ],
      "stateMutability": "pure",
      "type": "function"
    },
    {
      "inputs": [
        {
          "internalType": "bytes10",
          "name": "self",
          "type": "bytes10"
        },
        {
          "internalType": "uint8",
          "name": "offset",
          "type": "uint8"
        }
      ],
      "name": "$extract_10_2",
      "outputs": [
        {
          "internalType": "bytes2",
          "name": "result",
          "type": "bytes2"
        }
      ],
      "stateMutability": "pure",
      "type": "function"
    },
    {
      "inputs": [
        {
          "internalType": "bytes10",
          "name": "self",
          "type": "bytes10"
        },
        {
          "internalType": "uint8",
          "name": "offset",
          "type": "uint8"
        }
      ],
      "name": "$extract_10_4",
      "outputs": [
        {
          "internalType": "bytes4",
          "name": "result",
          "type": "bytes4"
        }
      ],
      "stateMutability": "pure",
      "type": "function"
    },
    {
      "inputs": [
        {
          "internalType": "bytes10",
          "name": "self",
          "type": "bytes10"
        },
        {
          "internalType": "uint8",
          "name": "offset",
          "type": "uint8"
        }
      ],
      "name": "$extract_10_6",
      "outputs": [
        {
          "internalType": "bytes6",
          "name": "result",
          "type": "bytes6"
        }
      ],
      "stateMutability": "pure",
      "type": "function"
    },
    {
      "inputs": [
        {
          "internalType": "bytes10",
          "name": "self",
          "type": "bytes10"
        },
        {
          "internalType": "uint8",
          "name": "offset",
          "type": "uint8"
        }
      ],
      "name": "$extract_10_8",
      "outputs": [
        {
          "internalType": "bytes8",
          "name": "result",
          "type": "bytes8"
        }
      ],
      "stateMutability": "pure",
      "type": "function"
    },
    {
      "inputs": [
        {
          "internalType": "bytes12",
          "name": "self",
          "type": "bytes12"
        },
        {
          "internalType": "uint8",
          "name": "offset",
          "type": "uint8"
        }
      ],
      "name": "$extract_12_1",
      "outputs": [
        {
          "internalType": "bytes1",
          "name": "result",
          "type": "bytes1"
        }
      ],
      "stateMutability": "pure",
      "type": "function"
    },
    {
      "inputs": [
        {
          "internalType": "bytes12",
          "name": "self",
          "type": "bytes12"
        },
        {
          "internalType": "uint8",
          "name": "offset",
          "type": "uint8"
        }
      ],
      "name": "$extract_12_10",
      "outputs": [
        {
          "internalType": "bytes10",
          "name": "result",
          "type": "bytes10"
        }
      ],
      "stateMutability": "pure",
      "type": "function"
    },
    {
      "inputs": [
        {
          "internalType": "bytes12",
          "name": "self",
          "type": "bytes12"
        },
        {
          "internalType": "uint8",
          "name": "offset",
          "type": "uint8"
        }
      ],
      "name": "$extract_12_2",
      "outputs": [
        {
          "internalType": "bytes2",
          "name": "result",
          "type": "bytes2"
        }
      ],
      "stateMutability": "pure",
      "type": "function"
    },
    {
      "inputs": [
        {
          "internalType": "bytes12",
          "name": "self",
          "type": "bytes12"
        },
        {
          "internalType": "uint8",
          "name": "offset",
          "type": "uint8"
        }
      ],
      "name": "$extract_12_4",
      "outputs": [
        {
          "internalType": "bytes4",
          "name": "result",
          "type": "bytes4"
        }
      ],
      "stateMutability": "pure",
      "type": "function"
    },
    {
      "inputs": [
        {
          "internalType": "bytes12",
          "name": "self",
          "type": "bytes12"
        },
        {
          "internalType": "uint8",
          "name": "offset",
          "type": "uint8"
        }
      ],
      "name": "$extract_12_6",
      "outputs": [
        {
          "internalType": "bytes6",
          "name": "result",
          "type": "bytes6"
        }
      ],
      "stateMutability": "pure",
      "type": "function"
    },
    {
      "inputs": [
        {
          "internalType": "bytes12",
          "name": "self",
          "type": "bytes12"
        },
        {
          "internalType": "uint8",
          "name": "offset",
          "type": "uint8"
        }
      ],
      "name": "$extract_12_8",
      "outputs": [
        {
          "internalType": "bytes8",
          "name": "result",
          "type": "bytes8"
        }
      ],
      "stateMutability": "pure",
      "type": "function"
    },
    {
      "inputs": [
        {
          "internalType": "bytes16",
          "name": "self",
          "type": "bytes16"
        },
        {
          "internalType": "uint8",
          "name": "offset",
          "type": "uint8"
        }
      ],
      "name": "$extract_16_1",
      "outputs": [
        {
          "internalType": "bytes1",
          "name": "result",
          "type": "bytes1"
        }
      ],
      "stateMutability": "pure",
      "type": "function"
    },
    {
      "inputs": [
        {
          "internalType": "bytes16",
          "name": "self",
          "type": "bytes16"
        },
        {
          "internalType": "uint8",
          "name": "offset",
          "type": "uint8"
        }
      ],
      "name": "$extract_16_10",
      "outputs": [
        {
          "internalType": "bytes10",
          "name": "result",
          "type": "bytes10"
        }
      ],
      "stateMutability": "pure",
      "type": "function"
    },
    {
      "inputs": [
        {
          "internalType": "bytes16",
          "name": "self",
          "type": "bytes16"
        },
        {
          "internalType": "uint8",
          "name": "offset",
          "type": "uint8"
        }
      ],
      "name": "$extract_16_12",
      "outputs": [
        {
          "internalType": "bytes12",
          "name": "result",
          "type": "bytes12"
        }
      ],
      "stateMutability": "pure",
      "type": "function"
    },
    {
      "inputs": [
        {
          "internalType": "bytes16",
          "name": "self",
          "type": "bytes16"
        },
        {
          "internalType": "uint8",
          "name": "offset",
          "type": "uint8"
        }
      ],
      "name": "$extract_16_2",
      "outputs": [
        {
          "internalType": "bytes2",
          "name": "result",
          "type": "bytes2"
        }
      ],
      "stateMutability": "pure",
      "type": "function"
    },
    {
      "inputs": [
        {
          "internalType": "bytes16",
          "name": "self",
          "type": "bytes16"
        },
        {
          "internalType": "uint8",
          "name": "offset",
          "type": "uint8"
        }
      ],
      "name": "$extract_16_4",
      "outputs": [
        {
          "internalType": "bytes4",
          "name": "result",
          "type": "bytes4"
        }
      ],
      "stateMutability": "pure",
      "type": "function"
    },
    {
      "inputs": [
        {
          "internalType": "bytes16",
          "name": "self",
          "type": "bytes16"
        },
        {
          "internalType": "uint8",
          "name": "offset",
          "type": "uint8"
        }
      ],
      "name": "$extract_16_6",
      "outputs": [
        {
          "internalType": "bytes6",
          "name": "result",
          "type": "bytes6"
        }
      ],
      "stateMutability": "pure",
      "type": "function"
    },
    {
      "inputs": [
        {
          "internalType": "bytes16",
          "name": "self",
          "type": "bytes16"
        },
        {
          "internalType": "uint8",
          "name": "offset",
          "type": "uint8"
        }
      ],
      "name": "$extract_16_8",
      "outputs": [
        {
          "internalType": "bytes8",
          "name": "result",
          "type": "bytes8"
        }
      ],
      "stateMutability": "pure",
      "type": "function"
    },
    {
      "inputs": [
        {
          "internalType": "bytes20",
          "name": "self",
          "type": "bytes20"
        },
        {
          "internalType": "uint8",
          "name": "offset",
          "type": "uint8"
        }
      ],
      "name": "$extract_20_1",
      "outputs": [
        {
          "internalType": "bytes1",
          "name": "result",
          "type": "bytes1"
        }
      ],
      "stateMutability": "pure",
      "type": "function"
    },
    {
      "inputs": [
        {
          "internalType": "bytes20",
          "name": "self",
          "type": "bytes20"
        },
        {
          "internalType": "uint8",
          "name": "offset",
          "type": "uint8"
        }
      ],
      "name": "$extract_20_10",
      "outputs": [
        {
          "internalType": "bytes10",
          "name": "result",
          "type": "bytes10"
        }
      ],
      "stateMutability": "pure",
      "type": "function"
    },
    {
      "inputs": [
        {
          "internalType": "bytes20",
          "name": "self",
          "type": "bytes20"
        },
        {
          "internalType": "uint8",
          "name": "offset",
          "type": "uint8"
        }
      ],
      "name": "$extract_20_12",
      "outputs": [
        {
          "internalType": "bytes12",
          "name": "result",
          "type": "bytes12"
        }
      ],
      "stateMutability": "pure",
      "type": "function"
    },
    {
      "inputs": [
        {
          "internalType": "bytes20",
          "name": "self",
          "type": "bytes20"
        },
        {
          "internalType": "uint8",
          "name": "offset",
          "type": "uint8"
        }
      ],
      "name": "$extract_20_16",
      "outputs": [
        {
          "internalType": "bytes16",
          "name": "result",
          "type": "bytes16"
        }
      ],
      "stateMutability": "pure",
      "type": "function"
    },
    {
      "inputs": [
        {
          "internalType": "bytes20",
          "name": "self",
          "type": "bytes20"
        },
        {
          "internalType": "uint8",
          "name": "offset",
          "type": "uint8"
        }
      ],
      "name": "$extract_20_2",
      "outputs": [
        {
          "internalType": "bytes2",
          "name": "result",
          "type": "bytes2"
        }
      ],
      "stateMutability": "pure",
      "type": "function"
    },
    {
      "inputs": [
        {
          "internalType": "bytes20",
          "name": "self",
          "type": "bytes20"
        },
        {
          "internalType": "uint8",
          "name": "offset",
          "type": "uint8"
        }
      ],
      "name": "$extract_20_4",
      "outputs": [
        {
          "internalType": "bytes4",
          "name": "result",
          "type": "bytes4"
        }
      ],
      "stateMutability": "pure",
      "type": "function"
    },
    {
      "inputs": [
        {
          "internalType": "bytes20",
          "name": "self",
          "type": "bytes20"
        },
        {
          "internalType": "uint8",
          "name": "offset",
          "type": "uint8"
        }
      ],
      "name": "$extract_20_6",
      "outputs": [
        {
          "internalType": "bytes6",
          "name": "result",
          "type": "bytes6"
        }
      ],
      "stateMutability": "pure",
      "type": "function"
    },
    {
      "inputs": [
        {
          "internalType": "bytes20",
          "name": "self",
          "type": "bytes20"
        },
        {
          "internalType": "uint8",
          "name": "offset",
          "type": "uint8"
        }
      ],
      "name": "$extract_20_8",
      "outputs": [
        {
          "internalType": "bytes8",
          "name": "result",
          "type": "bytes8"
        }
      ],
      "stateMutability": "pure",
      "type": "function"
    },
    {
      "inputs": [
        {
          "internalType": "bytes22",
          "name": "self",
          "type": "bytes22"
        },
        {
          "internalType": "uint8",
          "name": "offset",
          "type": "uint8"
        }
      ],
      "name": "$extract_22_1",
      "outputs": [
        {
          "internalType": "bytes1",
          "name": "result",
          "type": "bytes1"
        }
      ],
      "stateMutability": "pure",
      "type": "function"
    },
    {
      "inputs": [
        {
          "internalType": "bytes22",
          "name": "self",
          "type": "bytes22"
        },
        {
          "internalType": "uint8",
          "name": "offset",
          "type": "uint8"
        }
      ],
      "name": "$extract_22_10",
      "outputs": [
        {
          "internalType": "bytes10",
          "name": "result",
          "type": "bytes10"
        }
      ],
      "stateMutability": "pure",
      "type": "function"
    },
    {
      "inputs": [
        {
          "internalType": "bytes22",
          "name": "self",
          "type": "bytes22"
        },
        {
          "internalType": "uint8",
          "name": "offset",
          "type": "uint8"
        }
      ],
      "name": "$extract_22_12",
      "outputs": [
        {
          "internalType": "bytes12",
          "name": "result",
          "type": "bytes12"
        }
      ],
      "stateMutability": "pure",
      "type": "function"
    },
    {
      "inputs": [
        {
          "internalType": "bytes22",
          "name": "self",
          "type": "bytes22"
        },
        {
          "internalType": "uint8",
          "name": "offset",
          "type": "uint8"
        }
      ],
      "name": "$extract_22_16",
      "outputs": [
        {
          "internalType": "bytes16",
          "name": "result",
          "type": "bytes16"
        }
      ],
      "stateMutability": "pure",
      "type": "function"
    },
    {
      "inputs": [
        {
          "internalType": "bytes22",
          "name": "self",
          "type": "bytes22"
        },
        {
          "internalType": "uint8",
          "name": "offset",
          "type": "uint8"
        }
      ],
      "name": "$extract_22_2",
      "outputs": [
        {
          "internalType": "bytes2",
          "name": "result",
          "type": "bytes2"
        }
      ],
      "stateMutability": "pure",
      "type": "function"
    },
    {
      "inputs": [
        {
          "internalType": "bytes22",
          "name": "self",
          "type": "bytes22"
        },
        {
          "internalType": "uint8",
          "name": "offset",
          "type": "uint8"
        }
      ],
      "name": "$extract_22_20",
      "outputs": [
        {
          "internalType": "bytes20",
          "name": "result",
          "type": "bytes20"
        }
      ],
      "stateMutability": "pure",
      "type": "function"
    },
    {
      "inputs": [
        {
          "internalType": "bytes22",
          "name": "self",
          "type": "bytes22"
        },
        {
          "internalType": "uint8",
          "name": "offset",
          "type": "uint8"
        }
      ],
      "name": "$extract_22_4",
      "outputs": [
        {
          "internalType": "bytes4",
          "name": "result",
          "type": "bytes4"
        }
      ],
      "stateMutability": "pure",
      "type": "function"
    },
    {
      "inputs": [
        {
          "internalType": "bytes22",
          "name": "self",
          "type": "bytes22"
        },
        {
          "internalType": "uint8",
          "name": "offset",
          "type": "uint8"
        }
      ],
      "name": "$extract_22_6",
      "outputs": [
        {
          "internalType": "bytes6",
          "name": "result",
          "type": "bytes6"
        }
      ],
      "stateMutability": "pure",
      "type": "function"
    },
    {
      "inputs": [
        {
          "internalType": "bytes22",
          "name": "self",
          "type": "bytes22"
        },
        {
          "internalType": "uint8",
          "name": "offset",
          "type": "uint8"
        }
      ],
      "name": "$extract_22_8",
      "outputs": [
        {
          "internalType": "bytes8",
          "name": "result",
          "type": "bytes8"
        }
      ],
      "stateMutability": "pure",
      "type": "function"
    },
    {
      "inputs": [
        {
          "internalType": "bytes24",
          "name": "self",
          "type": "bytes24"
        },
        {
          "internalType": "uint8",
          "name": "offset",
          "type": "uint8"
        }
      ],
      "name": "$extract_24_1",
      "outputs": [
        {
          "internalType": "bytes1",
          "name": "result",
          "type": "bytes1"
        }
      ],
      "stateMutability": "pure",
      "type": "function"
    },
    {
      "inputs": [
        {
          "internalType": "bytes24",
          "name": "self",
          "type": "bytes24"
        },
        {
          "internalType": "uint8",
          "name": "offset",
          "type": "uint8"
        }
      ],
      "name": "$extract_24_10",
      "outputs": [
        {
          "internalType": "bytes10",
          "name": "result",
          "type": "bytes10"
        }
      ],
      "stateMutability": "pure",
      "type": "function"
    },
    {
      "inputs": [
        {
          "internalType": "bytes24",
          "name": "self",
          "type": "bytes24"
        },
        {
          "internalType": "uint8",
          "name": "offset",
          "type": "uint8"
        }
      ],
      "name": "$extract_24_12",
      "outputs": [
        {
          "internalType": "bytes12",
          "name": "result",
          "type": "bytes12"
        }
      ],
      "stateMutability": "pure",
      "type": "function"
    },
    {
      "inputs": [
        {
          "internalType": "bytes24",
          "name": "self",
          "type": "bytes24"
        },
        {
          "internalType": "uint8",
          "name": "offset",
          "type": "uint8"
        }
      ],
      "name": "$extract_24_16",
      "outputs": [
        {
          "internalType": "bytes16",
          "name": "result",
          "type": "bytes16"
        }
      ],
      "stateMutability": "pure",
      "type": "function"
    },
    {
      "inputs": [
        {
          "internalType": "bytes24",
          "name": "self",
          "type": "bytes24"
        },
        {
          "internalType": "uint8",
          "name": "offset",
          "type": "uint8"
        }
      ],
      "name": "$extract_24_2",
      "outputs": [
        {
          "internalType": "bytes2",
          "name": "result",
          "type": "bytes2"
        }
      ],
      "stateMutability": "pure",
      "type": "function"
    },
    {
      "inputs": [
        {
          "internalType": "bytes24",
          "name": "self",
          "type": "bytes24"
        },
        {
          "internalType": "uint8",
          "name": "offset",
          "type": "uint8"
        }
      ],
      "name": "$extract_24_20",
      "outputs": [
        {
          "internalType": "bytes20",
          "name": "result",
          "type": "bytes20"
        }
      ],
      "stateMutability": "pure",
      "type": "function"
    },
    {
      "inputs": [
        {
          "internalType": "bytes24",
          "name": "self",
          "type": "bytes24"
        },
        {
          "internalType": "uint8",
          "name": "offset",
          "type": "uint8"
        }
      ],
      "name": "$extract_24_22",
      "outputs": [
        {
          "internalType": "bytes22",
          "name": "result",
          "type": "bytes22"
        }
      ],
      "stateMutability": "pure",
      "type": "function"
    },
    {
      "inputs": [
        {
          "internalType": "bytes24",
          "name": "self",
          "type": "bytes24"
        },
        {
          "internalType": "uint8",
          "name": "offset",
          "type": "uint8"
        }
      ],
      "name": "$extract_24_4",
      "outputs": [
        {
          "internalType": "bytes4",
          "name": "result",
          "type": "bytes4"
        }
      ],
      "stateMutability": "pure",
      "type": "function"
    },
    {
      "inputs": [
        {
          "internalType": "bytes24",
          "name": "self",
          "type": "bytes24"
        },
        {
          "internalType": "uint8",
          "name": "offset",
          "type": "uint8"
        }
      ],
      "name": "$extract_24_6",
      "outputs": [
        {
          "internalType": "bytes6",
          "name": "result",
          "type": "bytes6"
        }
      ],
      "stateMutability": "pure",
      "type": "function"
    },
    {
      "inputs": [
        {
          "internalType": "bytes24",
          "name": "self",
          "type": "bytes24"
        },
        {
          "internalType": "uint8",
          "name": "offset",
          "type": "uint8"
        }
      ],
      "name": "$extract_24_8",
      "outputs": [
        {
          "internalType": "bytes8",
          "name": "result",
          "type": "bytes8"
        }
      ],
      "stateMutability": "pure",
      "type": "function"
    },
    {
      "inputs": [
        {
          "internalType": "bytes28",
          "name": "self",
          "type": "bytes28"
        },
        {
          "internalType": "uint8",
          "name": "offset",
          "type": "uint8"
        }
      ],
      "name": "$extract_28_1",
      "outputs": [
        {
          "internalType": "bytes1",
          "name": "result",
          "type": "bytes1"
        }
      ],
      "stateMutability": "pure",
      "type": "function"
    },
    {
      "inputs": [
        {
          "internalType": "bytes28",
          "name": "self",
          "type": "bytes28"
        },
        {
          "internalType": "uint8",
          "name": "offset",
          "type": "uint8"
        }
      ],
      "name": "$extract_28_10",
      "outputs": [
        {
          "internalType": "bytes10",
          "name": "result",
          "type": "bytes10"
        }
      ],
      "stateMutability": "pure",
      "type": "function"
    },
    {
      "inputs": [
        {
          "internalType": "bytes28",
          "name": "self",
          "type": "bytes28"
        },
        {
          "internalType": "uint8",
          "name": "offset",
          "type": "uint8"
        }
      ],
      "name": "$extract_28_12",
      "outputs": [
        {
          "internalType": "bytes12",
          "name": "result",
          "type": "bytes12"
        }
      ],
      "stateMutability": "pure",
      "type": "function"
    },
    {
      "inputs": [
        {
          "internalType": "bytes28",
          "name": "self",
          "type": "bytes28"
        },
        {
          "internalType": "uint8",
          "name": "offset",
          "type": "uint8"
        }
      ],
      "name": "$extract_28_16",
      "outputs": [
        {
          "internalType": "bytes16",
          "name": "result",
          "type": "bytes16"
        }
      ],
      "stateMutability": "pure",
      "type": "function"
    },
    {
      "inputs": [
        {
          "internalType": "bytes28",
          "name": "self",
          "type": "bytes28"
        },
        {
          "internalType": "uint8",
          "name": "offset",
          "type": "uint8"
        }
      ],
      "name": "$extract_28_2",
      "outputs": [
        {
          "internalType": "bytes2",
          "name": "result",
          "type": "bytes2"
        }
      ],
      "stateMutability": "pure",
      "type": "function"
    },
    {
      "inputs": [
        {
          "internalType": "bytes28",
          "name": "self",
          "type": "bytes28"
        },
        {
          "internalType": "uint8",
          "name": "offset",
          "type": "uint8"
        }
      ],
      "name": "$extract_28_20",
      "outputs": [
        {
          "internalType": "bytes20",
          "name": "result",
          "type": "bytes20"
        }
      ],
      "stateMutability": "pure",
      "type": "function"
    },
    {
      "inputs": [
        {
          "internalType": "bytes28",
          "name": "self",
          "type": "bytes28"
        },
        {
          "internalType": "uint8",
          "name": "offset",
          "type": "uint8"
        }
      ],
      "name": "$extract_28_22",
      "outputs": [
        {
          "internalType": "bytes22",
          "name": "result",
          "type": "bytes22"
        }
      ],
      "stateMutability": "pure",
      "type": "function"
    },
    {
      "inputs": [
        {
          "internalType": "bytes28",
          "name": "self",
          "type": "bytes28"
        },
        {
          "internalType": "uint8",
          "name": "offset",
          "type": "uint8"
        }
      ],
      "name": "$extract_28_24",
      "outputs": [
        {
          "internalType": "bytes24",
          "name": "result",
          "type": "bytes24"
        }
      ],
      "stateMutability": "pure",
      "type": "function"
    },
    {
      "inputs": [
        {
          "internalType": "bytes28",
          "name": "self",
          "type": "bytes28"
        },
        {
          "internalType": "uint8",
          "name": "offset",
          "type": "uint8"
        }
      ],
      "name": "$extract_28_4",
      "outputs": [
        {
          "internalType": "bytes4",
          "name": "result",
          "type": "bytes4"
        }
      ],
      "stateMutability": "pure",
      "type": "function"
    },
    {
      "inputs": [
        {
          "internalType": "bytes28",
          "name": "self",
          "type": "bytes28"
        },
        {
          "internalType": "uint8",
          "name": "offset",
          "type": "uint8"
        }
      ],
      "name": "$extract_28_6",
      "outputs": [
        {
          "internalType": "bytes6",
          "name": "result",
          "type": "bytes6"
        }
      ],
      "stateMutability": "pure",
      "type": "function"
    },
    {
      "inputs": [
        {
          "internalType": "bytes28",
          "name": "self",
          "type": "bytes28"
        },
        {
          "internalType": "uint8",
          "name": "offset",
          "type": "uint8"
        }
      ],
      "name": "$extract_28_8",
      "outputs": [
        {
          "internalType": "bytes8",
          "name": "result",
          "type": "bytes8"
        }
      ],
      "stateMutability": "pure",
      "type": "function"
    },
    {
      "inputs": [
        {
          "internalType": "bytes2",
          "name": "self",
          "type": "bytes2"
        },
        {
          "internalType": "uint8",
          "name": "offset",
          "type": "uint8"
        }
      ],
      "name": "$extract_2_1",
      "outputs": [
        {
          "internalType": "bytes1",
          "name": "result",
          "type": "bytes1"
        }
      ],
      "stateMutability": "pure",
      "type": "function"
    },
    {
      "inputs": [
        {
          "internalType": "bytes32",
          "name": "self",
          "type": "bytes32"
        },
        {
          "internalType": "uint8",
          "name": "offset",
          "type": "uint8"
        }
      ],
      "name": "$extract_32_1",
      "outputs": [
        {
          "internalType": "bytes1",
          "name": "result",
          "type": "bytes1"
        }
      ],
      "stateMutability": "pure",
      "type": "function"
    },
    {
      "inputs": [
        {
          "internalType": "bytes32",
          "name": "self",
          "type": "bytes32"
        },
        {
          "internalType": "uint8",
          "name": "offset",
          "type": "uint8"
        }
      ],
      "name": "$extract_32_10",
      "outputs": [
        {
          "internalType": "bytes10",
          "name": "result",
          "type": "bytes10"
        }
      ],
      "stateMutability": "pure",
      "type": "function"
    },
    {
      "inputs": [
        {
          "internalType": "bytes32",
          "name": "self",
          "type": "bytes32"
        },
        {
          "internalType": "uint8",
          "name": "offset",
          "type": "uint8"
        }
      ],
      "name": "$extract_32_12",
      "outputs": [
        {
          "internalType": "bytes12",
          "name": "result",
          "type": "bytes12"
        }
      ],
      "stateMutability": "pure",
      "type": "function"
    },
    {
      "inputs": [
        {
          "internalType": "bytes32",
          "name": "self",
          "type": "bytes32"
        },
        {
          "internalType": "uint8",
          "name": "offset",
          "type": "uint8"
        }
      ],
      "name": "$extract_32_16",
      "outputs": [
        {
          "internalType": "bytes16",
          "name": "result",
          "type": "bytes16"
        }
      ],
      "stateMutability": "pure",
      "type": "function"
    },
    {
      "inputs": [
        {
          "internalType": "bytes32",
          "name": "self",
          "type": "bytes32"
        },
        {
          "internalType": "uint8",
          "name": "offset",
          "type": "uint8"
        }
      ],
      "name": "$extract_32_2",
      "outputs": [
        {
          "internalType": "bytes2",
          "name": "result",
          "type": "bytes2"
        }
      ],
      "stateMutability": "pure",
      "type": "function"
    },
    {
      "inputs": [
        {
          "internalType": "bytes32",
          "name": "self",
          "type": "bytes32"
        },
        {
          "internalType": "uint8",
          "name": "offset",
          "type": "uint8"
        }
      ],
      "name": "$extract_32_20",
      "outputs": [
        {
          "internalType": "bytes20",
          "name": "result",
          "type": "bytes20"
        }
      ],
      "stateMutability": "pure",
      "type": "function"
    },
    {
      "inputs": [
        {
          "internalType": "bytes32",
          "name": "self",
          "type": "bytes32"
        },
        {
          "internalType": "uint8",
          "name": "offset",
          "type": "uint8"
        }
      ],
      "name": "$extract_32_22",
      "outputs": [
        {
          "internalType": "bytes22",
          "name": "result",
          "type": "bytes22"
        }
      ],
      "stateMutability": "pure",
      "type": "function"
    },
    {
      "inputs": [
        {
          "internalType": "bytes32",
          "name": "self",
          "type": "bytes32"
        },
        {
          "internalType": "uint8",
          "name": "offset",
          "type": "uint8"
        }
      ],
      "name": "$extract_32_24",
      "outputs": [
        {
          "internalType": "bytes24",
          "name": "result",
          "type": "bytes24"
        }
      ],
      "stateMutability": "pure",
      "type": "function"
    },
    {
      "inputs": [
        {
          "internalType": "bytes32",
          "name": "self",
          "type": "bytes32"
        },
        {
          "internalType": "uint8",
          "name": "offset",
          "type": "uint8"
        }
      ],
      "name": "$extract_32_28",
      "outputs": [
        {
          "internalType": "bytes28",
          "name": "result",
          "type": "bytes28"
        }
      ],
      "stateMutability": "pure",
      "type": "function"
    },
    {
      "inputs": [
        {
          "internalType": "bytes32",
          "name": "self",
          "type": "bytes32"
        },
        {
          "internalType": "uint8",
          "name": "offset",
          "type": "uint8"
        }
      ],
      "name": "$extract_32_4",
      "outputs": [
        {
          "internalType": "bytes4",
          "name": "result",
          "type": "bytes4"
        }
      ],
      "stateMutability": "pure",
      "type": "function"
    },
    {
      "inputs": [
        {
          "internalType": "bytes32",
          "name": "self",
          "type": "bytes32"
        },
        {
          "internalType": "uint8",
          "name": "offset",
          "type": "uint8"
        }
      ],
      "name": "$extract_32_6",
      "outputs": [
        {
          "internalType": "bytes6",
          "name": "result",
          "type": "bytes6"
        }
      ],
      "stateMutability": "pure",
      "type": "function"
    },
    {
      "inputs": [
        {
          "internalType": "bytes32",
          "name": "self",
          "type": "bytes32"
        },
        {
          "internalType": "uint8",
          "name": "offset",
          "type": "uint8"
        }
      ],
      "name": "$extract_32_8",
      "outputs": [
        {
          "internalType": "bytes8",
          "name": "result",
          "type": "bytes8"
        }
      ],
      "stateMutability": "pure",
      "type": "function"
    },
    {
      "inputs": [
        {
          "internalType": "bytes4",
          "name": "self",
          "type": "bytes4"
        },
        {
          "internalType": "uint8",
          "name": "offset",
          "type": "uint8"
        }
      ],
      "name": "$extract_4_1",
      "outputs": [
        {
          "internalType": "bytes1",
          "name": "result",
          "type": "bytes1"
        }
      ],
      "stateMutability": "pure",
      "type": "function"
    },
    {
      "inputs": [
        {
          "internalType": "bytes4",
          "name": "self",
          "type": "bytes4"
        },
        {
          "internalType": "uint8",
          "name": "offset",
          "type": "uint8"
        }
      ],
      "name": "$extract_4_2",
      "outputs": [
        {
          "internalType": "bytes2",
          "name": "result",
          "type": "bytes2"
        }
      ],
      "stateMutability": "pure",
      "type": "function"
    },
    {
      "inputs": [
        {
          "internalType": "bytes6",
          "name": "self",
          "type": "bytes6"
        },
        {
          "internalType": "uint8",
          "name": "offset",
          "type": "uint8"
        }
      ],
      "name": "$extract_6_1",
      "outputs": [
        {
          "internalType": "bytes1",
          "name": "result",
          "type": "bytes1"
        }
      ],
      "stateMutability": "pure",
      "type": "function"
    },
    {
      "inputs": [
        {
          "internalType": "bytes6",
          "name": "self",
          "type": "bytes6"
        },
        {
          "internalType": "uint8",
          "name": "offset",
          "type": "uint8"
        }
      ],
      "name": "$extract_6_2",
      "outputs": [
        {
          "internalType": "bytes2",
          "name": "result",
          "type": "bytes2"
        }
      ],
      "stateMutability": "pure",
      "type": "function"
    },
    {
      "inputs": [
        {
          "internalType": "bytes6",
          "name": "self",
          "type": "bytes6"
        },
        {
          "internalType": "uint8",
          "name": "offset",
          "type": "uint8"
        }
      ],
      "name": "$extract_6_4",
      "outputs": [
        {
          "internalType": "bytes4",
          "name": "result",
          "type": "bytes4"
        }
      ],
      "stateMutability": "pure",
      "type": "function"
    },
    {
      "inputs": [
        {
          "internalType": "bytes8",
          "name": "self",
          "type": "bytes8"
        },
        {
          "internalType": "uint8",
          "name": "offset",
          "type": "uint8"
        }
      ],
      "name": "$extract_8_1",
      "outputs": [
        {
          "internalType": "bytes1",
          "name": "result",
          "type": "bytes1"
        }
      ],
      "stateMutability": "pure",
      "type": "function"
    },
    {
      "inputs": [
        {
          "internalType": "bytes8",
          "name": "self",
          "type": "bytes8"
        },
        {
          "internalType": "uint8",
          "name": "offset",
          "type": "uint8"
        }
      ],
      "name": "$extract_8_2",
      "outputs": [
        {
          "internalType": "bytes2",
          "name": "result",
          "type": "bytes2"
        }
      ],
      "stateMutability": "pure",
      "type": "function"
    },
    {
      "inputs": [
        {
          "internalType": "bytes8",
          "name": "self",
          "type": "bytes8"
        },
        {
          "internalType": "uint8",
          "name": "offset",
          "type": "uint8"
        }
      ],
      "name": "$extract_8_4",
      "outputs": [
        {
          "internalType": "bytes4",
          "name": "result",
          "type": "bytes4"
        }
      ],
      "stateMutability": "pure",
      "type": "function"
    },
    {
      "inputs": [
        {
          "internalType": "bytes8",
          "name": "self",
          "type": "bytes8"
        },
        {
          "internalType": "uint8",
          "name": "offset",
          "type": "uint8"
        }
      ],
      "name": "$extract_8_6",
      "outputs": [
        {
          "internalType": "bytes6",
          "name": "result",
          "type": "bytes6"
        }
      ],
      "stateMutability": "pure",
      "type": "function"
    },
    {
      "inputs": [
        {
          "internalType": "bytes10",
          "name": "left",
          "type": "bytes10"
        },
        {
          "internalType": "bytes10",
          "name": "right",
          "type": "bytes10"
        }
      ],
      "name": "$pack_10_10",
      "outputs": [
        {
          "internalType": "bytes20",
          "name": "result",
          "type": "bytes20"
        }
      ],
      "stateMutability": "pure",
      "type": "function"
    },
    {
      "inputs": [
        {
          "internalType": "bytes10",
          "name": "left",
          "type": "bytes10"
        },
        {
          "internalType": "bytes12",
          "name": "right",
          "type": "bytes12"
        }
      ],
      "name": "$pack_10_12",
      "outputs": [
        {
          "internalType": "bytes22",
          "name": "result",
          "type": "bytes22"
        }
      ],
      "stateMutability": "pure",
      "type": "function"
    },
    {
      "inputs": [
        {
          "internalType": "bytes10",
          "name": "left",
          "type": "bytes10"
        },
        {
          "internalType": "bytes2",
          "name": "right",
          "type": "bytes2"
        }
      ],
      "name": "$pack_10_2",
      "outputs": [
        {
          "internalType": "bytes12",
          "name": "result",
          "type": "bytes12"
        }
      ],
      "stateMutability": "pure",
      "type": "function"
    },
    {
      "inputs": [
        {
          "internalType": "bytes10",
          "name": "left",
          "type": "bytes10"
        },
        {
          "internalType": "bytes22",
          "name": "right",
          "type": "bytes22"
        }
      ],
      "name": "$pack_10_22",
      "outputs": [
        {
          "internalType": "bytes32",
          "name": "result",
          "type": "bytes32"
        }
      ],
      "stateMutability": "pure",
      "type": "function"
    },
    {
      "inputs": [
        {
          "internalType": "bytes10",
          "name": "left",
          "type": "bytes10"
        },
        {
          "internalType": "bytes6",
          "name": "right",
          "type": "bytes6"
        }
      ],
      "name": "$pack_10_6",
      "outputs": [
        {
          "internalType": "bytes16",
          "name": "result",
          "type": "bytes16"
        }
      ],
      "stateMutability": "pure",
      "type": "function"
    },
    {
      "inputs": [
        {
          "internalType": "bytes12",
          "name": "left",
          "type": "bytes12"
        },
        {
          "internalType": "bytes10",
          "name": "right",
          "type": "bytes10"
        }
      ],
      "name": "$pack_12_10",
      "outputs": [
        {
          "internalType": "bytes22",
          "name": "result",
          "type": "bytes22"
        }
      ],
      "stateMutability": "pure",
      "type": "function"
    },
    {
      "inputs": [
        {
          "internalType": "bytes12",
          "name": "left",
          "type": "bytes12"
        },
        {
          "internalType": "bytes12",
          "name": "right",
          "type": "bytes12"
        }
      ],
      "name": "$pack_12_12",
      "outputs": [
        {
          "internalType": "bytes24",
          "name": "result",
          "type": "bytes24"
        }
      ],
      "stateMutability": "pure",
      "type": "function"
    },
    {
      "inputs": [
        {
          "internalType": "bytes12",
          "name": "left",
          "type": "bytes12"
        },
        {
          "internalType": "bytes16",
          "name": "right",
          "type": "bytes16"
        }
      ],
      "name": "$pack_12_16",
      "outputs": [
        {
          "internalType": "bytes28",
          "name": "result",
          "type": "bytes28"
        }
      ],
      "stateMutability": "pure",
      "type": "function"
    },
    {
      "inputs": [
        {
          "internalType": "bytes12",
          "name": "left",
          "type": "bytes12"
        },
        {
          "internalType": "bytes20",
          "name": "right",
          "type": "bytes20"
        }
      ],
      "name": "$pack_12_20",
      "outputs": [
        {
          "internalType": "bytes32",
          "name": "result",
          "type": "bytes32"
        }
      ],
      "stateMutability": "pure",
      "type": "function"
    },
    {
      "inputs": [
        {
          "internalType": "bytes12",
          "name": "left",
          "type": "bytes12"
        },
        {
          "internalType": "bytes4",
          "name": "right",
          "type": "bytes4"
        }
      ],
      "name": "$pack_12_4",
      "outputs": [
        {
          "internalType": "bytes16",
          "name": "result",
          "type": "bytes16"
        }
      ],
      "stateMutability": "pure",
      "type": "function"
    },
    {
      "inputs": [
        {
          "internalType": "bytes12",
          "name": "left",
          "type": "bytes12"
        },
        {
          "internalType": "bytes8",
          "name": "right",
          "type": "bytes8"
        }
      ],
      "name": "$pack_12_8",
      "outputs": [
        {
          "internalType": "bytes20",
          "name": "result",
          "type": "bytes20"
        }
      ],
      "stateMutability": "pure",
      "type": "function"
    },
    {
      "inputs": [
        {
          "internalType": "bytes16",
          "name": "left",
          "type": "bytes16"
        },
        {
          "internalType": "bytes12",
          "name": "right",
          "type": "bytes12"
        }
      ],
      "name": "$pack_16_12",
      "outputs": [
        {
          "internalType": "bytes28",
          "name": "result",
          "type": "bytes28"
        }
      ],
      "stateMutability": "pure",
      "type": "function"
    },
    {
      "inputs": [
        {
          "internalType": "bytes16",
          "name": "left",
          "type": "bytes16"
        },
        {
          "internalType": "bytes16",
          "name": "right",
          "type": "bytes16"
        }
      ],
      "name": "$pack_16_16",
      "outputs": [
        {
          "internalType": "bytes32",
          "name": "result",
          "type": "bytes32"
        }
      ],
      "stateMutability": "pure",
      "type": "function"
    },
    {
      "inputs": [
        {
          "internalType": "bytes16",
          "name": "left",
          "type": "bytes16"
        },
        {
          "internalType": "bytes4",
          "name": "right",
          "type": "bytes4"
        }
      ],
      "name": "$pack_16_4",
      "outputs": [
        {
          "internalType": "bytes20",
          "name": "result",
          "type": "bytes20"
        }
      ],
      "stateMutability": "pure",
      "type": "function"
    },
    {
      "inputs": [
        {
          "internalType": "bytes16",
          "name": "left",
          "type": "bytes16"
        },
        {
          "internalType": "bytes6",
          "name": "right",
          "type": "bytes6"
        }
      ],
      "name": "$pack_16_6",
      "outputs": [
        {
          "internalType": "bytes22",
          "name": "result",
          "type": "bytes22"
        }
      ],
      "stateMutability": "pure",
      "type": "function"
    },
    {
      "inputs": [
        {
          "internalType": "bytes16",
          "name": "left",
          "type": "bytes16"
        },
        {
          "internalType": "bytes8",
          "name": "right",
          "type": "bytes8"
        }
      ],
      "name": "$pack_16_8",
      "outputs": [
        {
          "internalType": "bytes24",
          "name": "result",
          "type": "bytes24"
        }
      ],
      "stateMutability": "pure",
      "type": "function"
    },
    {
      "inputs": [
        {
          "internalType": "bytes1",
          "name": "left",
          "type": "bytes1"
        },
        {
          "internalType": "bytes1",
          "name": "right",
          "type": "bytes1"
        }
      ],
      "name": "$pack_1_1",
      "outputs": [
        {
          "internalType": "bytes2",
          "name": "result",
          "type": "bytes2"
        }
      ],
      "stateMutability": "pure",
      "type": "function"
    },
    {
      "inputs": [
        {
          "internalType": "bytes20",
          "name": "left",
          "type": "bytes20"
        },
        {
          "internalType": "bytes12",
          "name": "right",
          "type": "bytes12"
        }
      ],
      "name": "$pack_20_12",
      "outputs": [
        {
          "internalType": "bytes32",
          "name": "result",
          "type": "bytes32"
        }
      ],
      "stateMutability": "pure",
      "type": "function"
    },
    {
      "inputs": [
        {
          "internalType": "bytes20",
          "name": "left",
          "type": "bytes20"
        },
        {
          "internalType": "bytes2",
          "name": "right",
          "type": "bytes2"
        }
      ],
      "name": "$pack_20_2",
      "outputs": [
        {
          "internalType": "bytes22",
          "name": "result",
          "type": "bytes22"
        }
      ],
      "stateMutability": "pure",
      "type": "function"
    },
    {
      "inputs": [
        {
          "internalType": "bytes20",
          "name": "left",
          "type": "bytes20"
        },
        {
          "internalType": "bytes4",
          "name": "right",
          "type": "bytes4"
        }
      ],
      "name": "$pack_20_4",
      "outputs": [
        {
          "internalType": "bytes24",
          "name": "result",
          "type": "bytes24"
        }
      ],
      "stateMutability": "pure",
      "type": "function"
    },
    {
      "inputs": [
        {
          "internalType": "bytes20",
          "name": "left",
          "type": "bytes20"
        },
        {
          "internalType": "bytes8",
          "name": "right",
          "type": "bytes8"
        }
      ],
      "name": "$pack_20_8",
      "outputs": [
        {
          "internalType": "bytes28",
          "name": "result",
          "type": "bytes28"
        }
      ],
      "stateMutability": "pure",
      "type": "function"
    },
    {
      "inputs": [
        {
          "internalType": "bytes22",
          "name": "left",
          "type": "bytes22"
        },
        {
          "internalType": "bytes10",
          "name": "right",
          "type": "bytes10"
        }
      ],
      "name": "$pack_22_10",
      "outputs": [
        {
          "internalType": "bytes32",
          "name": "result",
          "type": "bytes32"
        }
      ],
      "stateMutability": "pure",
      "type": "function"
    },
    {
      "inputs": [
        {
          "internalType": "bytes22",
          "name": "left",
          "type": "bytes22"
        },
        {
          "internalType": "bytes2",
          "name": "right",
          "type": "bytes2"
        }
      ],
      "name": "$pack_22_2",
      "outputs": [
        {
          "internalType": "bytes24",
          "name": "result",
          "type": "bytes24"
        }
      ],
      "stateMutability": "pure",
      "type": "function"
    },
    {
      "inputs": [
        {
          "internalType": "bytes22",
          "name": "left",
          "type": "bytes22"
        },
        {
          "internalType": "bytes6",
          "name": "right",
          "type": "bytes6"
        }
      ],
      "name": "$pack_22_6",
      "outputs": [
        {
          "internalType": "bytes28",
          "name": "result",
          "type": "bytes28"
        }
      ],
      "stateMutability": "pure",
      "type": "function"
    },
    {
      "inputs": [
        {
          "internalType": "bytes24",
          "name": "left",
          "type": "bytes24"
        },
        {
          "internalType": "bytes4",
          "name": "right",
          "type": "bytes4"
        }
      ],
      "name": "$pack_24_4",
      "outputs": [
        {
          "internalType": "bytes28",
          "name": "result",
          "type": "bytes28"
        }
      ],
      "stateMutability": "pure",
      "type": "function"
    },
    {
      "inputs": [
        {
          "internalType": "bytes24",
          "name": "left",
          "type": "bytes24"
        },
        {
          "internalType": "bytes8",
          "name": "right",
          "type": "bytes8"
        }
      ],
      "name": "$pack_24_8",
      "outputs": [
        {
          "internalType": "bytes32",
          "name": "result",
          "type": "bytes32"
        }
      ],
      "stateMutability": "pure",
      "type": "function"
    },
    {
      "inputs": [
        {
          "internalType": "bytes28",
          "name": "left",
          "type": "bytes28"
        },
        {
          "internalType": "bytes4",
          "name": "right",
          "type": "bytes4"
        }
      ],
      "name": "$pack_28_4",
      "outputs": [
        {
          "internalType": "bytes32",
          "name": "result",
          "type": "bytes32"
        }
      ],
      "stateMutability": "pure",
      "type": "function"
    },
    {
      "inputs": [
        {
          "internalType": "bytes2",
          "name": "left",
          "type": "bytes2"
        },
        {
          "internalType": "bytes10",
          "name": "right",
          "type": "bytes10"
        }
      ],
      "name": "$pack_2_10",
      "outputs": [
        {
          "internalType": "bytes12",
          "name": "result",
          "type": "bytes12"
        }
      ],
      "stateMutability": "pure",
      "type": "function"
    },
    {
      "inputs": [
        {
          "internalType": "bytes2",
          "name": "left",
          "type": "bytes2"
        },
        {
          "internalType": "bytes2",
          "name": "right",
          "type": "bytes2"
        }
      ],
      "name": "$pack_2_2",
      "outputs": [
        {
          "internalType": "bytes4",
          "name": "result",
          "type": "bytes4"
        }
      ],
      "stateMutability": "pure",
      "type": "function"
    },
    {
      "inputs": [
        {
          "internalType": "bytes2",
          "name": "left",
          "type": "bytes2"
        },
        {
          "internalType": "bytes20",
          "name": "right",
          "type": "bytes20"
        }
      ],
      "name": "$pack_2_20",
      "outputs": [
        {
          "internalType": "bytes22",
          "name": "result",
          "type": "bytes22"
        }
      ],
      "stateMutability": "pure",
      "type": "function"
    },
    {
      "inputs": [
        {
          "internalType": "bytes2",
          "name": "left",
          "type": "bytes2"
        },
        {
          "internalType": "bytes22",
          "name": "right",
          "type": "bytes22"
        }
      ],
      "name": "$pack_2_22",
      "outputs": [
        {
          "internalType": "bytes24",
          "name": "result",
          "type": "bytes24"
        }
      ],
      "stateMutability": "pure",
      "type": "function"
    },
    {
      "inputs": [
        {
          "internalType": "bytes2",
          "name": "left",
          "type": "bytes2"
        },
        {
          "internalType": "bytes4",
          "name": "right",
          "type": "bytes4"
        }
      ],
      "name": "$pack_2_4",
      "outputs": [
        {
          "internalType": "bytes6",
          "name": "result",
          "type": "bytes6"
        }
      ],
      "stateMutability": "pure",
      "type": "function"
    },
    {
      "inputs": [
        {
          "internalType": "bytes2",
          "name": "left",
          "type": "bytes2"
        },
        {
          "internalType": "bytes6",
          "name": "right",
          "type": "bytes6"
        }
      ],
      "name": "$pack_2_6",
      "outputs": [
        {
          "internalType": "bytes8",
          "name": "result",
          "type": "bytes8"
        }
      ],
      "stateMutability": "pure",
      "type": "function"
    },
    {
      "inputs": [
        {
          "internalType": "bytes2",
          "name": "left",
          "type": "bytes2"
        },
        {
          "internalType": "bytes8",
          "name": "right",
          "type": "bytes8"
        }
      ],
      "name": "$pack_2_8",
      "outputs": [
        {
          "internalType": "bytes10",
          "name": "result",
          "type": "bytes10"
        }
      ],
      "stateMutability": "pure",
      "type": "function"
    },
    {
      "inputs": [
        {
          "internalType": "bytes4",
          "name": "left",
          "type": "bytes4"
        },
        {
          "internalType": "bytes12",
          "name": "right",
          "type": "bytes12"
        }
      ],
      "name": "$pack_4_12",
      "outputs": [
        {
          "internalType": "bytes16",
          "name": "result",
          "type": "bytes16"
        }
      ],
      "stateMutability": "pure",
      "type": "function"
    },
    {
      "inputs": [
        {
          "internalType": "bytes4",
          "name": "left",
          "type": "bytes4"
        },
        {
          "internalType": "bytes16",
          "name": "right",
          "type": "bytes16"
        }
      ],
      "name": "$pack_4_16",
      "outputs": [
        {
          "internalType": "bytes20",
          "name": "result",
          "type": "bytes20"
        }
      ],
      "stateMutability": "pure",
      "type": "function"
    },
    {
      "inputs": [
        {
          "internalType": "bytes4",
          "name": "left",
          "type": "bytes4"
        },
        {
          "internalType": "bytes2",
          "name": "right",
          "type": "bytes2"
        }
      ],
      "name": "$pack_4_2",
      "outputs": [
        {
          "internalType": "bytes6",
          "name": "result",
          "type": "bytes6"
        }
      ],
      "stateMutability": "pure",
      "type": "function"
    },
    {
      "inputs": [
        {
          "internalType": "bytes4",
          "name": "left",
          "type": "bytes4"
        },
        {
          "internalType": "bytes20",
          "name": "right",
          "type": "bytes20"
        }
      ],
      "name": "$pack_4_20",
      "outputs": [
        {
          "internalType": "bytes24",
          "name": "result",
          "type": "bytes24"
        }
      ],
      "stateMutability": "pure",
      "type": "function"
    },
    {
      "inputs": [
        {
          "internalType": "bytes4",
          "name": "left",
          "type": "bytes4"
        },
        {
          "internalType": "bytes24",
          "name": "right",
          "type": "bytes24"
        }
      ],
      "name": "$pack_4_24",
      "outputs": [
        {
          "internalType": "bytes28",
          "name": "result",
          "type": "bytes28"
        }
      ],
      "stateMutability": "pure",
      "type": "function"
    },
    {
      "inputs": [
        {
          "internalType": "bytes4",
          "name": "left",
          "type": "bytes4"
        },
        {
          "internalType": "bytes28",
          "name": "right",
          "type": "bytes28"
        }
      ],
      "name": "$pack_4_28",
      "outputs": [
        {
          "internalType": "bytes32",
          "name": "result",
          "type": "bytes32"
        }
      ],
      "stateMutability": "pure",
      "type": "function"
    },
    {
      "inputs": [
        {
          "internalType": "bytes4",
          "name": "left",
          "type": "bytes4"
        },
        {
          "internalType": "bytes4",
          "name": "right",
          "type": "bytes4"
        }
      ],
      "name": "$pack_4_4",
      "outputs": [
        {
          "internalType": "bytes8",
          "name": "result",
          "type": "bytes8"
        }
      ],
      "stateMutability": "pure",
      "type": "function"
    },
    {
      "inputs": [
        {
          "internalType": "bytes4",
          "name": "left",
          "type": "bytes4"
        },
        {
          "internalType": "bytes6",
          "name": "right",
          "type": "bytes6"
        }
      ],
      "name": "$pack_4_6",
      "outputs": [
        {
          "internalType": "bytes10",
          "name": "result",
          "type": "bytes10"
        }
      ],
      "stateMutability": "pure",
      "type": "function"
    },
    {
      "inputs": [
        {
          "internalType": "bytes4",
          "name": "left",
          "type": "bytes4"
        },
        {
          "internalType": "bytes8",
          "name": "right",
          "type": "bytes8"
        }
      ],
      "name": "$pack_4_8",
      "outputs": [
        {
          "internalType": "bytes12",
          "name": "result",
          "type": "bytes12"
        }
      ],
      "stateMutability": "pure",
      "type": "function"
    },
    {
      "inputs": [
        {
          "internalType": "bytes6",
          "name": "left",
          "type": "bytes6"
        },
        {
          "internalType": "bytes10",
          "name": "right",
          "type": "bytes10"
        }
      ],
      "name": "$pack_6_10",
      "outputs": [
        {
          "internalType": "bytes16",
          "name": "result",
          "type": "bytes16"
        }
      ],
      "stateMutability": "pure",
      "type": "function"
    },
    {
      "inputs": [
        {
          "internalType": "bytes6",
          "name": "left",
          "type": "bytes6"
        },
        {
          "internalType": "bytes16",
          "name": "right",
          "type": "bytes16"
        }
      ],
      "name": "$pack_6_16",
      "outputs": [
        {
          "internalType": "bytes22",
          "name": "result",
          "type": "bytes22"
        }
      ],
      "stateMutability": "pure",
      "type": "function"
    },
    {
      "inputs": [
        {
          "internalType": "bytes6",
          "name": "left",
          "type": "bytes6"
        },
        {
          "internalType": "bytes2",
          "name": "right",
          "type": "bytes2"
        }
      ],
      "name": "$pack_6_2",
      "outputs": [
        {
          "internalType": "bytes8",
          "name": "result",
          "type": "bytes8"
        }
      ],
      "stateMutability": "pure",
      "type": "function"
    },
    {
      "inputs": [
        {
          "internalType": "bytes6",
          "name": "left",
          "type": "bytes6"
        },
        {
          "internalType": "bytes22",
          "name": "right",
          "type": "bytes22"
        }
      ],
      "name": "$pack_6_22",
      "outputs": [
        {
          "internalType": "bytes28",
          "name": "result",
          "type": "bytes28"
        }
      ],
      "stateMutability": "pure",
      "type": "function"
    },
    {
      "inputs": [
        {
          "internalType": "bytes6",
          "name": "left",
          "type": "bytes6"
        },
        {
          "internalType": "bytes4",
          "name": "right",
          "type": "bytes4"
        }
      ],
      "name": "$pack_6_4",
      "outputs": [
        {
          "internalType": "bytes10",
          "name": "result",
          "type": "bytes10"
        }
      ],
      "stateMutability": "pure",
      "type": "function"
    },
    {
      "inputs": [
        {
          "internalType": "bytes6",
          "name": "left",
          "type": "bytes6"
        },
        {
          "internalType": "bytes6",
          "name": "right",
          "type": "bytes6"
        }
      ],
      "name": "$pack_6_6",
      "outputs": [
        {
          "internalType": "bytes12",
          "name": "result",
          "type": "bytes12"
        }
      ],
      "stateMutability": "pure",
      "type": "function"
    },
    {
      "inputs": [
        {
          "internalType": "bytes8",
          "name": "left",
          "type": "bytes8"
        },
        {
          "internalType": "bytes12",
          "name": "right",
          "type": "bytes12"
        }
      ],
      "name": "$pack_8_12",
      "outputs": [
        {
          "internalType": "bytes20",
          "name": "result",
          "type": "bytes20"
        }
      ],
      "stateMutability": "pure",
      "type": "function"
    },
    {
      "inputs": [
        {
          "internalType": "bytes8",
          "name": "left",
          "type": "bytes8"
        },
        {
          "internalType": "bytes16",
          "name": "right",
          "type": "bytes16"
        }
      ],
      "name": "$pack_8_16",
      "outputs": [
        {
          "internalType": "bytes24",
          "name": "result",
          "type": "bytes24"
        }
      ],
      "stateMutability": "pure",
      "type": "function"
    },
    {
      "inputs": [
        {
          "internalType": "bytes8",
          "name": "left",
          "type": "bytes8"
        },
        {
          "internalType": "bytes2",
          "name": "right",
          "type": "bytes2"
        }
      ],
      "name": "$pack_8_2",
      "outputs": [
        {
          "internalType": "bytes10",
          "name": "result",
          "type": "bytes10"
        }
      ],
      "stateMutability": "pure",
      "type": "function"
    },
    {
      "inputs": [
        {
          "internalType": "bytes8",
          "name": "left",
          "type": "bytes8"
        },
        {
          "internalType": "bytes20",
          "name": "right",
          "type": "bytes20"
        }
      ],
      "name": "$pack_8_20",
      "outputs": [
        {
          "internalType": "bytes28",
          "name": "result",
          "type": "bytes28"
        }
      ],
      "stateMutability": "pure",
      "type": "function"
    },
    {
      "inputs": [
        {
          "internalType": "bytes8",
          "name": "left",
          "type": "bytes8"
        },
        {
          "internalType": "bytes24",
          "name": "right",
          "type": "bytes24"
        }
      ],
      "name": "$pack_8_24",
      "outputs": [
        {
          "internalType": "bytes32",
          "name": "result",
          "type": "bytes32"
        }
      ],
      "stateMutability": "pure",
      "type": "function"
    },
    {
      "inputs": [
        {
          "internalType": "bytes8",
          "name": "left",
          "type": "bytes8"
        },
        {
          "internalType": "bytes4",
          "name": "right",
          "type": "bytes4"
        }
      ],
      "name": "$pack_8_4",
      "outputs": [
        {
          "internalType": "bytes12",
          "name": "result",
          "type": "bytes12"
        }
      ],
      "stateMutability": "pure",
      "type": "function"
    },
    {
      "inputs": [
        {
          "internalType": "bytes8",
          "name": "left",
          "type": "bytes8"
        },
        {
          "internalType": "bytes8",
          "name": "right",
          "type": "bytes8"
        }
      ],
      "name": "$pack_8_8",
      "outputs": [
        {
          "internalType": "bytes16",
          "name": "result",
          "type": "bytes16"
        }
      ],
      "stateMutability": "pure",
      "type": "function"
    },
    {
      "inputs": [
        {
          "internalType": "bytes10",
          "name": "self",
          "type": "bytes10"
        },
        {
          "internalType": "bytes1",
          "name": "value",
          "type": "bytes1"
        },
        {
          "internalType": "uint8",
          "name": "offset",
          "type": "uint8"
        }
      ],
      "name": "$replace_10_1",
      "outputs": [
        {
          "internalType": "bytes10",
          "name": "result",
          "type": "bytes10"
        }
      ],
      "stateMutability": "pure",
      "type": "function"
    },
    {
      "inputs": [
        {
          "internalType": "bytes10",
          "name": "self",
          "type": "bytes10"
        },
        {
          "internalType": "bytes2",
          "name": "value",
          "type": "bytes2"
        },
        {
          "internalType": "uint8",
          "name": "offset",
          "type": "uint8"
        }
      ],
      "name": "$replace_10_2",
      "outputs": [
        {
          "internalType": "bytes10",
          "name": "result",
          "type": "bytes10"
        }
      ],
      "stateMutability": "pure",
      "type": "function"
    },
    {
      "inputs": [
        {
          "internalType": "bytes10",
          "name": "self",
          "type": "bytes10"
        },
        {
          "internalType": "bytes4",
          "name": "value",
          "type": "bytes4"
        },
        {
          "internalType": "uint8",
          "name": "offset",
          "type": "uint8"
        }
      ],
      "name": "$replace_10_4",
      "outputs": [
        {
          "internalType": "bytes10",
          "name": "result",
          "type": "bytes10"
        }
      ],
      "stateMutability": "pure",
      "type": "function"
    },
    {
      "inputs": [
        {
          "internalType": "bytes10",
          "name": "self",
          "type": "bytes10"
        },
        {
          "internalType": "bytes6",
          "name": "value",
          "type": "bytes6"
        },
        {
          "internalType": "uint8",
          "name": "offset",
          "type": "uint8"
        }
      ],
      "name": "$replace_10_6",
      "outputs": [
        {
          "internalType": "bytes10",
          "name": "result",
          "type": "bytes10"
        }
      ],
      "stateMutability": "pure",
      "type": "function"
    },
    {
      "inputs": [
        {
          "internalType": "bytes10",
          "name": "self",
          "type": "bytes10"
        },
        {
          "internalType": "bytes8",
          "name": "value",
          "type": "bytes8"
        },
        {
          "internalType": "uint8",
          "name": "offset",
          "type": "uint8"
        }
      ],
      "name": "$replace_10_8",
      "outputs": [
        {
          "internalType": "bytes10",
          "name": "result",
          "type": "bytes10"
        }
      ],
      "stateMutability": "pure",
      "type": "function"
    },
    {
      "inputs": [
        {
          "internalType": "bytes12",
          "name": "self",
          "type": "bytes12"
        },
        {
          "internalType": "bytes1",
          "name": "value",
          "type": "bytes1"
        },
        {
          "internalType": "uint8",
          "name": "offset",
          "type": "uint8"
        }
      ],
      "name": "$replace_12_1",
      "outputs": [
        {
          "internalType": "bytes12",
          "name": "result",
          "type": "bytes12"
        }
      ],
      "stateMutability": "pure",
      "type": "function"
    },
    {
      "inputs": [
        {
          "internalType": "bytes12",
          "name": "self",
          "type": "bytes12"
        },
        {
          "internalType": "bytes10",
          "name": "value",
          "type": "bytes10"
        },
        {
          "internalType": "uint8",
          "name": "offset",
          "type": "uint8"
        }
      ],
      "name": "$replace_12_10",
      "outputs": [
        {
          "internalType": "bytes12",
          "name": "result",
          "type": "bytes12"
        }
      ],
      "stateMutability": "pure",
      "type": "function"
    },
    {
      "inputs": [
        {
          "internalType": "bytes12",
          "name": "self",
          "type": "bytes12"
        },
        {
          "internalType": "bytes2",
          "name": "value",
          "type": "bytes2"
        },
        {
          "internalType": "uint8",
          "name": "offset",
          "type": "uint8"
        }
      ],
      "name": "$replace_12_2",
      "outputs": [
        {
          "internalType": "bytes12",
          "name": "result",
          "type": "bytes12"
        }
      ],
      "stateMutability": "pure",
      "type": "function"
    },
    {
      "inputs": [
        {
          "internalType": "bytes12",
          "name": "self",
          "type": "bytes12"
        },
        {
          "internalType": "bytes4",
          "name": "value",
          "type": "bytes4"
        },
        {
          "internalType": "uint8",
          "name": "offset",
          "type": "uint8"
        }
      ],
      "name": "$replace_12_4",
      "outputs": [
        {
          "internalType": "bytes12",
          "name": "result",
          "type": "bytes12"
        }
      ],
      "stateMutability": "pure",
      "type": "function"
    },
    {
      "inputs": [
        {
          "internalType": "bytes12",
          "name": "self",
          "type": "bytes12"
        },
        {
          "internalType": "bytes6",
          "name": "value",
          "type": "bytes6"
        },
        {
          "internalType": "uint8",
          "name": "offset",
          "type": "uint8"
        }
      ],
      "name": "$replace_12_6",
      "outputs": [
        {
          "internalType": "bytes12",
          "name": "result",
          "type": "bytes12"
        }
      ],
      "stateMutability": "pure",
      "type": "function"
    },
    {
      "inputs": [
        {
          "internalType": "bytes12",
          "name": "self",
          "type": "bytes12"
        },
        {
          "internalType": "bytes8",
          "name": "value",
          "type": "bytes8"
        },
        {
          "internalType": "uint8",
          "name": "offset",
          "type": "uint8"
        }
      ],
      "name": "$replace_12_8",
      "outputs": [
        {
          "internalType": "bytes12",
          "name": "result",
          "type": "bytes12"
        }
      ],
      "stateMutability": "pure",
      "type": "function"
    },
    {
      "inputs": [
        {
          "internalType": "bytes16",
          "name": "self",
          "type": "bytes16"
        },
        {
          "internalType": "bytes1",
          "name": "value",
          "type": "bytes1"
        },
        {
          "internalType": "uint8",
          "name": "offset",
          "type": "uint8"
        }
      ],
      "name": "$replace_16_1",
      "outputs": [
        {
          "internalType": "bytes16",
          "name": "result",
          "type": "bytes16"
        }
      ],
      "stateMutability": "pure",
      "type": "function"
    },
    {
      "inputs": [
        {
          "internalType": "bytes16",
          "name": "self",
          "type": "bytes16"
        },
        {
          "internalType": "bytes10",
          "name": "value",
          "type": "bytes10"
        },
        {
          "internalType": "uint8",
          "name": "offset",
          "type": "uint8"
        }
      ],
      "name": "$replace_16_10",
      "outputs": [
        {
          "internalType": "bytes16",
          "name": "result",
          "type": "bytes16"
        }
      ],
      "stateMutability": "pure",
      "type": "function"
    },
    {
      "inputs": [
        {
          "internalType": "bytes16",
          "name": "self",
          "type": "bytes16"
        },
        {
          "internalType": "bytes12",
          "name": "value",
          "type": "bytes12"
        },
        {
          "internalType": "uint8",
          "name": "offset",
          "type": "uint8"
        }
      ],
      "name": "$replace_16_12",
      "outputs": [
        {
          "internalType": "bytes16",
          "name": "result",
          "type": "bytes16"
        }
      ],
      "stateMutability": "pure",
      "type": "function"
    },
    {
      "inputs": [
        {
          "internalType": "bytes16",
          "name": "self",
          "type": "bytes16"
        },
        {
          "internalType": "bytes2",
          "name": "value",
          "type": "bytes2"
        },
        {
          "internalType": "uint8",
          "name": "offset",
          "type": "uint8"
        }
      ],
      "name": "$replace_16_2",
      "outputs": [
        {
          "internalType": "bytes16",
          "name": "result",
          "type": "bytes16"
        }
      ],
      "stateMutability": "pure",
      "type": "function"
    },
    {
      "inputs": [
        {
          "internalType": "bytes16",
          "name": "self",
          "type": "bytes16"
        },
        {
          "internalType": "bytes4",
          "name": "value",
          "type": "bytes4"
        },
        {
          "internalType": "uint8",
          "name": "offset",
          "type": "uint8"
        }
      ],
      "name": "$replace_16_4",
      "outputs": [
        {
          "internalType": "bytes16",
          "name": "result",
          "type": "bytes16"
        }
      ],
      "stateMutability": "pure",
      "type": "function"
    },
    {
      "inputs": [
        {
          "internalType": "bytes16",
          "name": "self",
          "type": "bytes16"
        },
        {
          "internalType": "bytes6",
          "name": "value",
          "type": "bytes6"
        },
        {
          "internalType": "uint8",
          "name": "offset",
          "type": "uint8"
        }
      ],
      "name": "$replace_16_6",
      "outputs": [
        {
          "internalType": "bytes16",
          "name": "result",
          "type": "bytes16"
        }
      ],
      "stateMutability": "pure",
      "type": "function"
    },
    {
      "inputs": [
        {
          "internalType": "bytes16",
          "name": "self",
          "type": "bytes16"
        },
        {
          "internalType": "bytes8",
          "name": "value",
          "type": "bytes8"
        },
        {
          "internalType": "uint8",
          "name": "offset",
          "type": "uint8"
        }
      ],
      "name": "$replace_16_8",
      "outputs": [
        {
          "internalType": "bytes16",
          "name": "result",
          "type": "bytes16"
        }
      ],
      "stateMutability": "pure",
      "type": "function"
    },
    {
      "inputs": [
        {
          "internalType": "bytes20",
          "name": "self",
          "type": "bytes20"
        },
        {
          "internalType": "bytes1",
          "name": "value",
          "type": "bytes1"
        },
        {
          "internalType": "uint8",
          "name": "offset",
          "type": "uint8"
        }
      ],
      "name": "$replace_20_1",
      "outputs": [
        {
          "internalType": "bytes20",
          "name": "result",
          "type": "bytes20"
        }
      ],
      "stateMutability": "pure",
      "type": "function"
    },
    {
      "inputs": [
        {
          "internalType": "bytes20",
          "name": "self",
          "type": "bytes20"
        },
        {
          "internalType": "bytes10",
          "name": "value",
          "type": "bytes10"
        },
        {
          "internalType": "uint8",
          "name": "offset",
          "type": "uint8"
        }
      ],
      "name": "$replace_20_10",
      "outputs": [
        {
          "internalType": "bytes20",
          "name": "result",
          "type": "bytes20"
        }
      ],
      "stateMutability": "pure",
      "type": "function"
    },
    {
      "inputs": [
        {
          "internalType": "bytes20",
          "name": "self",
          "type": "bytes20"
        },
        {
          "internalType": "bytes12",
          "name": "value",
          "type": "bytes12"
        },
        {
          "internalType": "uint8",
          "name": "offset",
          "type": "uint8"
        }
      ],
      "name": "$replace_20_12",
      "outputs": [
        {
          "internalType": "bytes20",
          "name": "result",
          "type": "bytes20"
        }
      ],
      "stateMutability": "pure",
      "type": "function"
    },
    {
      "inputs": [
        {
          "internalType": "bytes20",
          "name": "self",
          "type": "bytes20"
        },
        {
          "internalType": "bytes16",
          "name": "value",
          "type": "bytes16"
        },
        {
          "internalType": "uint8",
          "name": "offset",
          "type": "uint8"
        }
      ],
      "name": "$replace_20_16",
      "outputs": [
        {
          "internalType": "bytes20",
          "name": "result",
          "type": "bytes20"
        }
      ],
      "stateMutability": "pure",
      "type": "function"
    },
    {
      "inputs": [
        {
          "internalType": "bytes20",
          "name": "self",
          "type": "bytes20"
        },
        {
          "internalType": "bytes2",
          "name": "value",
          "type": "bytes2"
        },
        {
          "internalType": "uint8",
          "name": "offset",
          "type": "uint8"
        }
      ],
      "name": "$replace_20_2",
      "outputs": [
        {
          "internalType": "bytes20",
          "name": "result",
          "type": "bytes20"
        }
      ],
      "stateMutability": "pure",
      "type": "function"
    },
    {
      "inputs": [
        {
          "internalType": "bytes20",
          "name": "self",
          "type": "bytes20"
        },
        {
          "internalType": "bytes4",
          "name": "value",
          "type": "bytes4"
        },
        {
          "internalType": "uint8",
          "name": "offset",
          "type": "uint8"
        }
      ],
      "name": "$replace_20_4",
      "outputs": [
        {
          "internalType": "bytes20",
          "name": "result",
          "type": "bytes20"
        }
      ],
      "stateMutability": "pure",
      "type": "function"
    },
    {
      "inputs": [
        {
          "internalType": "bytes20",
          "name": "self",
          "type": "bytes20"
        },
        {
          "internalType": "bytes6",
          "name": "value",
          "type": "bytes6"
        },
        {
          "internalType": "uint8",
          "name": "offset",
          "type": "uint8"
        }
      ],
      "name": "$replace_20_6",
      "outputs": [
        {
          "internalType": "bytes20",
          "name": "result",
          "type": "bytes20"
        }
      ],
      "stateMutability": "pure",
      "type": "function"
    },
    {
      "inputs": [
        {
          "internalType": "bytes20",
          "name": "self",
          "type": "bytes20"
        },
        {
          "internalType": "bytes8",
          "name": "value",
          "type": "bytes8"
        },
        {
          "internalType": "uint8",
          "name": "offset",
          "type": "uint8"
        }
      ],
      "name": "$replace_20_8",
      "outputs": [
        {
          "internalType": "bytes20",
          "name": "result",
          "type": "bytes20"
        }
      ],
      "stateMutability": "pure",
      "type": "function"
    },
    {
      "inputs": [
        {
          "internalType": "bytes22",
          "name": "self",
          "type": "bytes22"
        },
        {
          "internalType": "bytes1",
          "name": "value",
          "type": "bytes1"
        },
        {
          "internalType": "uint8",
          "name": "offset",
          "type": "uint8"
        }
      ],
      "name": "$replace_22_1",
      "outputs": [
        {
          "internalType": "bytes22",
          "name": "result",
          "type": "bytes22"
        }
      ],
      "stateMutability": "pure",
      "type": "function"
    },
    {
      "inputs": [
        {
          "internalType": "bytes22",
          "name": "self",
          "type": "bytes22"
        },
        {
          "internalType": "bytes10",
          "name": "value",
          "type": "bytes10"
        },
        {
          "internalType": "uint8",
          "name": "offset",
          "type": "uint8"
        }
      ],
      "name": "$replace_22_10",
      "outputs": [
        {
          "internalType": "bytes22",
          "name": "result",
          "type": "bytes22"
        }
      ],
      "stateMutability": "pure",
      "type": "function"
    },
    {
      "inputs": [
        {
          "internalType": "bytes22",
          "name": "self",
          "type": "bytes22"
        },
        {
          "internalType": "bytes12",
          "name": "value",
          "type": "bytes12"
        },
        {
          "internalType": "uint8",
          "name": "offset",
          "type": "uint8"
        }
      ],
      "name": "$replace_22_12",
      "outputs": [
        {
          "internalType": "bytes22",
          "name": "result",
          "type": "bytes22"
        }
      ],
      "stateMutability": "pure",
      "type": "function"
    },
    {
      "inputs": [
        {
          "internalType": "bytes22",
          "name": "self",
          "type": "bytes22"
        },
        {
          "internalType": "bytes16",
          "name": "value",
          "type": "bytes16"
        },
        {
          "internalType": "uint8",
          "name": "offset",
          "type": "uint8"
        }
      ],
      "name": "$replace_22_16",
      "outputs": [
        {
          "internalType": "bytes22",
          "name": "result",
          "type": "bytes22"
        }
      ],
      "stateMutability": "pure",
      "type": "function"
    },
    {
      "inputs": [
        {
          "internalType": "bytes22",
          "name": "self",
          "type": "bytes22"
        },
        {
          "internalType": "bytes2",
          "name": "value",
          "type": "bytes2"
        },
        {
          "internalType": "uint8",
          "name": "offset",
          "type": "uint8"
        }
      ],
      "name": "$replace_22_2",
      "outputs": [
        {
          "internalType": "bytes22",
          "name": "result",
          "type": "bytes22"
        }
      ],
      "stateMutability": "pure",
      "type": "function"
    },
    {
      "inputs": [
        {
          "internalType": "bytes22",
          "name": "self",
          "type": "bytes22"
        },
        {
          "internalType": "bytes20",
          "name": "value",
          "type": "bytes20"
        },
        {
          "internalType": "uint8",
          "name": "offset",
          "type": "uint8"
        }
      ],
      "name": "$replace_22_20",
      "outputs": [
        {
          "internalType": "bytes22",
          "name": "result",
          "type": "bytes22"
        }
      ],
      "stateMutability": "pure",
      "type": "function"
    },
    {
      "inputs": [
        {
          "internalType": "bytes22",
          "name": "self",
          "type": "bytes22"
        },
        {
          "internalType": "bytes4",
          "name": "value",
          "type": "bytes4"
        },
        {
          "internalType": "uint8",
          "name": "offset",
          "type": "uint8"
        }
      ],
      "name": "$replace_22_4",
      "outputs": [
        {
          "internalType": "bytes22",
          "name": "result",
          "type": "bytes22"
        }
      ],
      "stateMutability": "pure",
      "type": "function"
    },
    {
      "inputs": [
        {
          "internalType": "bytes22",
          "name": "self",
          "type": "bytes22"
        },
        {
          "internalType": "bytes6",
          "name": "value",
          "type": "bytes6"
        },
        {
          "internalType": "uint8",
          "name": "offset",
          "type": "uint8"
        }
      ],
      "name": "$replace_22_6",
      "outputs": [
        {
          "internalType": "bytes22",
          "name": "result",
          "type": "bytes22"
        }
      ],
      "stateMutability": "pure",
      "type": "function"
    },
    {
      "inputs": [
        {
          "internalType": "bytes22",
          "name": "self",
          "type": "bytes22"
        },
        {
          "internalType": "bytes8",
          "name": "value",
          "type": "bytes8"
        },
        {
          "internalType": "uint8",
          "name": "offset",
          "type": "uint8"
        }
      ],
      "name": "$replace_22_8",
      "outputs": [
        {
          "internalType": "bytes22",
          "name": "result",
          "type": "bytes22"
        }
      ],
      "stateMutability": "pure",
      "type": "function"
    },
    {
      "inputs": [
        {
          "internalType": "bytes24",
          "name": "self",
          "type": "bytes24"
        },
        {
          "internalType": "bytes1",
          "name": "value",
          "type": "bytes1"
        },
        {
          "internalType": "uint8",
          "name": "offset",
          "type": "uint8"
        }
      ],
      "name": "$replace_24_1",
      "outputs": [
        {
          "internalType": "bytes24",
          "name": "result",
          "type": "bytes24"
        }
      ],
      "stateMutability": "pure",
      "type": "function"
    },
    {
      "inputs": [
        {
          "internalType": "bytes24",
          "name": "self",
          "type": "bytes24"
        },
        {
          "internalType": "bytes10",
          "name": "value",
          "type": "bytes10"
        },
        {
          "internalType": "uint8",
          "name": "offset",
          "type": "uint8"
        }
      ],
      "name": "$replace_24_10",
      "outputs": [
        {
          "internalType": "bytes24",
          "name": "result",
          "type": "bytes24"
        }
      ],
      "stateMutability": "pure",
      "type": "function"
    },
    {
      "inputs": [
        {
          "internalType": "bytes24",
          "name": "self",
          "type": "bytes24"
        },
        {
          "internalType": "bytes12",
          "name": "value",
          "type": "bytes12"
        },
        {
          "internalType": "uint8",
          "name": "offset",
          "type": "uint8"
        }
      ],
      "name": "$replace_24_12",
      "outputs": [
        {
          "internalType": "bytes24",
          "name": "result",
          "type": "bytes24"
        }
      ],
      "stateMutability": "pure",
      "type": "function"
    },
    {
      "inputs": [
        {
          "internalType": "bytes24",
          "name": "self",
          "type": "bytes24"
        },
        {
          "internalType": "bytes16",
          "name": "value",
          "type": "bytes16"
        },
        {
          "internalType": "uint8",
          "name": "offset",
          "type": "uint8"
        }
      ],
      "name": "$replace_24_16",
      "outputs": [
        {
          "internalType": "bytes24",
          "name": "result",
          "type": "bytes24"
        }
      ],
      "stateMutability": "pure",
      "type": "function"
    },
    {
      "inputs": [
        {
          "internalType": "bytes24",
          "name": "self",
          "type": "bytes24"
        },
        {
          "internalType": "bytes2",
          "name": "value",
          "type": "bytes2"
        },
        {
          "internalType": "uint8",
          "name": "offset",
          "type": "uint8"
        }
      ],
      "name": "$replace_24_2",
      "outputs": [
        {
          "internalType": "bytes24",
          "name": "result",
          "type": "bytes24"
        }
      ],
      "stateMutability": "pure",
      "type": "function"
    },
    {
      "inputs": [
        {
          "internalType": "bytes24",
          "name": "self",
          "type": "bytes24"
        },
        {
          "internalType": "bytes20",
          "name": "value",
          "type": "bytes20"
        },
        {
          "internalType": "uint8",
          "name": "offset",
          "type": "uint8"
        }
      ],
      "name": "$replace_24_20",
      "outputs": [
        {
          "internalType": "bytes24",
          "name": "result",
          "type": "bytes24"
        }
      ],
      "stateMutability": "pure",
      "type": "function"
    },
    {
      "inputs": [
        {
          "internalType": "bytes24",
          "name": "self",
          "type": "bytes24"
        },
        {
          "internalType": "bytes22",
          "name": "value",
          "type": "bytes22"
        },
        {
          "internalType": "uint8",
          "name": "offset",
          "type": "uint8"
        }
      ],
      "name": "$replace_24_22",
      "outputs": [
        {
          "internalType": "bytes24",
          "name": "result",
          "type": "bytes24"
        }
      ],
      "stateMutability": "pure",
      "type": "function"
    },
    {
      "inputs": [
        {
          "internalType": "bytes24",
          "name": "self",
          "type": "bytes24"
        },
        {
          "internalType": "bytes4",
          "name": "value",
          "type": "bytes4"
        },
        {
          "internalType": "uint8",
          "name": "offset",
          "type": "uint8"
        }
      ],
      "name": "$replace_24_4",
      "outputs": [
        {
          "internalType": "bytes24",
          "name": "result",
          "type": "bytes24"
        }
      ],
      "stateMutability": "pure",
      "type": "function"
    },
    {
      "inputs": [
        {
          "internalType": "bytes24",
          "name": "self",
          "type": "bytes24"
        },
        {
          "internalType": "bytes6",
          "name": "value",
          "type": "bytes6"
        },
        {
          "internalType": "uint8",
          "name": "offset",
          "type": "uint8"
        }
      ],
      "name": "$replace_24_6",
      "outputs": [
        {
          "internalType": "bytes24",
          "name": "result",
          "type": "bytes24"
        }
      ],
      "stateMutability": "pure",
      "type": "function"
    },
    {
      "inputs": [
        {
          "internalType": "bytes24",
          "name": "self",
          "type": "bytes24"
        },
        {
          "internalType": "bytes8",
          "name": "value",
          "type": "bytes8"
        },
        {
          "internalType": "uint8",
          "name": "offset",
          "type": "uint8"
        }
      ],
      "name": "$replace_24_8",
      "outputs": [
        {
          "internalType": "bytes24",
          "name": "result",
          "type": "bytes24"
        }
      ],
      "stateMutability": "pure",
      "type": "function"
    },
    {
      "inputs": [
        {
          "internalType": "bytes28",
          "name": "self",
          "type": "bytes28"
        },
        {
          "internalType": "bytes1",
          "name": "value",
          "type": "bytes1"
        },
        {
          "internalType": "uint8",
          "name": "offset",
          "type": "uint8"
        }
      ],
      "name": "$replace_28_1",
      "outputs": [
        {
          "internalType": "bytes28",
          "name": "result",
          "type": "bytes28"
        }
      ],
      "stateMutability": "pure",
      "type": "function"
    },
    {
      "inputs": [
        {
          "internalType": "bytes28",
          "name": "self",
          "type": "bytes28"
        },
        {
          "internalType": "bytes10",
          "name": "value",
          "type": "bytes10"
        },
        {
          "internalType": "uint8",
          "name": "offset",
          "type": "uint8"
        }
      ],
      "name": "$replace_28_10",
      "outputs": [
        {
          "internalType": "bytes28",
          "name": "result",
          "type": "bytes28"
        }
      ],
      "stateMutability": "pure",
      "type": "function"
    },
    {
      "inputs": [
        {
          "internalType": "bytes28",
          "name": "self",
          "type": "bytes28"
        },
        {
          "internalType": "bytes12",
          "name": "value",
          "type": "bytes12"
        },
        {
          "internalType": "uint8",
          "name": "offset",
          "type": "uint8"
        }
      ],
      "name": "$replace_28_12",
      "outputs": [
        {
          "internalType": "bytes28",
          "name": "result",
          "type": "bytes28"
        }
      ],
      "stateMutability": "pure",
      "type": "function"
    },
    {
      "inputs": [
        {
          "internalType": "bytes28",
          "name": "self",
          "type": "bytes28"
        },
        {
          "internalType": "bytes16",
          "name": "value",
          "type": "bytes16"
        },
        {
          "internalType": "uint8",
          "name": "offset",
          "type": "uint8"
        }
      ],
      "name": "$replace_28_16",
      "outputs": [
        {
          "internalType": "bytes28",
          "name": "result",
          "type": "bytes28"
        }
      ],
      "stateMutability": "pure",
      "type": "function"
    },
    {
      "inputs": [
        {
          "internalType": "bytes28",
          "name": "self",
          "type": "bytes28"
        },
        {
          "internalType": "bytes2",
          "name": "value",
          "type": "bytes2"
        },
        {
          "internalType": "uint8",
          "name": "offset",
          "type": "uint8"
        }
      ],
      "name": "$replace_28_2",
      "outputs": [
        {
          "internalType": "bytes28",
          "name": "result",
          "type": "bytes28"
        }
      ],
      "stateMutability": "pure",
      "type": "function"
    },
    {
      "inputs": [
        {
          "internalType": "bytes28",
          "name": "self",
          "type": "bytes28"
        },
        {
          "internalType": "bytes20",
          "name": "value",
          "type": "bytes20"
        },
        {
          "internalType": "uint8",
          "name": "offset",
          "type": "uint8"
        }
      ],
      "name": "$replace_28_20",
      "outputs": [
        {
          "internalType": "bytes28",
          "name": "result",
          "type": "bytes28"
        }
      ],
      "stateMutability": "pure",
      "type": "function"
    },
    {
      "inputs": [
        {
          "internalType": "bytes28",
          "name": "self",
          "type": "bytes28"
        },
        {
          "internalType": "bytes22",
          "name": "value",
          "type": "bytes22"
        },
        {
          "internalType": "uint8",
          "name": "offset",
          "type": "uint8"
        }
      ],
      "name": "$replace_28_22",
      "outputs": [
        {
          "internalType": "bytes28",
          "name": "result",
          "type": "bytes28"
        }
      ],
      "stateMutability": "pure",
      "type": "function"
    },
    {
      "inputs": [
        {
          "internalType": "bytes28",
          "name": "self",
          "type": "bytes28"
        },
        {
          "internalType": "bytes24",
          "name": "value",
          "type": "bytes24"
        },
        {
          "internalType": "uint8",
          "name": "offset",
          "type": "uint8"
        }
      ],
      "name": "$replace_28_24",
      "outputs": [
        {
          "internalType": "bytes28",
          "name": "result",
          "type": "bytes28"
        }
      ],
      "stateMutability": "pure",
      "type": "function"
    },
    {
      "inputs": [
        {
          "internalType": "bytes28",
          "name": "self",
          "type": "bytes28"
        },
        {
          "internalType": "bytes4",
          "name": "value",
          "type": "bytes4"
        },
        {
          "internalType": "uint8",
          "name": "offset",
          "type": "uint8"
        }
      ],
      "name": "$replace_28_4",
      "outputs": [
        {
          "internalType": "bytes28",
          "name": "result",
          "type": "bytes28"
        }
      ],
      "stateMutability": "pure",
      "type": "function"
    },
    {
      "inputs": [
        {
          "internalType": "bytes28",
          "name": "self",
          "type": "bytes28"
        },
        {
          "internalType": "bytes6",
          "name": "value",
          "type": "bytes6"
        },
        {
          "internalType": "uint8",
          "name": "offset",
          "type": "uint8"
        }
      ],
      "name": "$replace_28_6",
      "outputs": [
        {
          "internalType": "bytes28",
          "name": "result",
          "type": "bytes28"
        }
      ],
      "stateMutability": "pure",
      "type": "function"
    },
    {
      "inputs": [
        {
          "internalType": "bytes28",
          "name": "self",
          "type": "bytes28"
        },
        {
          "internalType": "bytes8",
          "name": "value",
          "type": "bytes8"
        },
        {
          "internalType": "uint8",
          "name": "offset",
          "type": "uint8"
        }
      ],
      "name": "$replace_28_8",
      "outputs": [
        {
          "internalType": "bytes28",
          "name": "result",
          "type": "bytes28"
        }
      ],
      "stateMutability": "pure",
      "type": "function"
    },
    {
      "inputs": [
        {
          "internalType": "bytes2",
          "name": "self",
          "type": "bytes2"
        },
        {
          "internalType": "bytes1",
          "name": "value",
          "type": "bytes1"
        },
        {
          "internalType": "uint8",
          "name": "offset",
          "type": "uint8"
        }
      ],
      "name": "$replace_2_1",
      "outputs": [
        {
          "internalType": "bytes2",
          "name": "result",
          "type": "bytes2"
        }
      ],
      "stateMutability": "pure",
      "type": "function"
    },
    {
      "inputs": [
        {
          "internalType": "bytes32",
          "name": "self",
          "type": "bytes32"
        },
        {
          "internalType": "bytes1",
          "name": "value",
          "type": "bytes1"
        },
        {
          "internalType": "uint8",
          "name": "offset",
          "type": "uint8"
        }
      ],
      "name": "$replace_32_1",
      "outputs": [
        {
          "internalType": "bytes32",
          "name": "result",
          "type": "bytes32"
        }
      ],
      "stateMutability": "pure",
      "type": "function"
    },
    {
      "inputs": [
        {
          "internalType": "bytes32",
          "name": "self",
          "type": "bytes32"
        },
        {
          "internalType": "bytes10",
          "name": "value",
          "type": "bytes10"
        },
        {
          "internalType": "uint8",
          "name": "offset",
          "type": "uint8"
        }
      ],
      "name": "$replace_32_10",
      "outputs": [
        {
          "internalType": "bytes32",
          "name": "result",
          "type": "bytes32"
        }
      ],
      "stateMutability": "pure",
      "type": "function"
    },
    {
      "inputs": [
        {
          "internalType": "bytes32",
          "name": "self",
          "type": "bytes32"
        },
        {
          "internalType": "bytes12",
          "name": "value",
          "type": "bytes12"
        },
        {
          "internalType": "uint8",
          "name": "offset",
          "type": "uint8"
        }
      ],
      "name": "$replace_32_12",
      "outputs": [
        {
          "internalType": "bytes32",
          "name": "result",
          "type": "bytes32"
        }
      ],
      "stateMutability": "pure",
      "type": "function"
    },
    {
      "inputs": [
        {
          "internalType": "bytes32",
          "name": "self",
          "type": "bytes32"
        },
        {
          "internalType": "bytes16",
          "name": "value",
          "type": "bytes16"
        },
        {
          "internalType": "uint8",
          "name": "offset",
          "type": "uint8"
        }
      ],
      "name": "$replace_32_16",
      "outputs": [
        {
          "internalType": "bytes32",
          "name": "result",
          "type": "bytes32"
        }
      ],
      "stateMutability": "pure",
      "type": "function"
    },
    {
      "inputs": [
        {
          "internalType": "bytes32",
          "name": "self",
          "type": "bytes32"
        },
        {
          "internalType": "bytes2",
          "name": "value",
          "type": "bytes2"
        },
        {
          "internalType": "uint8",
          "name": "offset",
          "type": "uint8"
        }
      ],
      "name": "$replace_32_2",
      "outputs": [
        {
          "internalType": "bytes32",
          "name": "result",
          "type": "bytes32"
        }
      ],
      "stateMutability": "pure",
      "type": "function"
    },
    {
      "inputs": [
        {
          "internalType": "bytes32",
          "name": "self",
          "type": "bytes32"
        },
        {
          "internalType": "bytes20",
          "name": "value",
          "type": "bytes20"
        },
        {
          "internalType": "uint8",
          "name": "offset",
          "type": "uint8"
        }
      ],
      "name": "$replace_32_20",
      "outputs": [
        {
          "internalType": "bytes32",
          "name": "result",
          "type": "bytes32"
        }
      ],
      "stateMutability": "pure",
      "type": "function"
    },
    {
      "inputs": [
        {
          "internalType": "bytes32",
          "name": "self",
          "type": "bytes32"
        },
        {
          "internalType": "bytes22",
          "name": "value",
          "type": "bytes22"
        },
        {
          "internalType": "uint8",
          "name": "offset",
          "type": "uint8"
        }
      ],
      "name": "$replace_32_22",
      "outputs": [
        {
          "internalType": "bytes32",
          "name": "result",
          "type": "bytes32"
        }
      ],
      "stateMutability": "pure",
      "type": "function"
    },
    {
      "inputs": [
        {
          "internalType": "bytes32",
          "name": "self",
          "type": "bytes32"
        },
        {
          "internalType": "bytes24",
          "name": "value",
          "type": "bytes24"
        },
        {
          "internalType": "uint8",
          "name": "offset",
          "type": "uint8"
        }
      ],
      "name": "$replace_32_24",
      "outputs": [
        {
          "internalType": "bytes32",
          "name": "result",
          "type": "bytes32"
        }
      ],
      "stateMutability": "pure",
      "type": "function"
    },
    {
      "inputs": [
        {
          "internalType": "bytes32",
          "name": "self",
          "type": "bytes32"
        },
        {
          "internalType": "bytes28",
          "name": "value",
          "type": "bytes28"
        },
        {
          "internalType": "uint8",
          "name": "offset",
          "type": "uint8"
        }
      ],
      "name": "$replace_32_28",
      "outputs": [
        {
          "internalType": "bytes32",
          "name": "result",
          "type": "bytes32"
        }
      ],
      "stateMutability": "pure",
      "type": "function"
    },
    {
      "inputs": [
        {
          "internalType": "bytes32",
          "name": "self",
          "type": "bytes32"
        },
        {
          "internalType": "bytes4",
          "name": "value",
          "type": "bytes4"
        },
        {
          "internalType": "uint8",
          "name": "offset",
          "type": "uint8"
        }
      ],
      "name": "$replace_32_4",
      "outputs": [
        {
          "internalType": "bytes32",
          "name": "result",
          "type": "bytes32"
        }
      ],
      "stateMutability": "pure",
      "type": "function"
    },
    {
      "inputs": [
        {
          "internalType": "bytes32",
          "name": "self",
          "type": "bytes32"
        },
        {
          "internalType": "bytes6",
          "name": "value",
          "type": "bytes6"
        },
        {
          "internalType": "uint8",
          "name": "offset",
          "type": "uint8"
        }
      ],
      "name": "$replace_32_6",
      "outputs": [
        {
          "internalType": "bytes32",
          "name": "result",
          "type": "bytes32"
        }
      ],
      "stateMutability": "pure",
      "type": "function"
    },
    {
      "inputs": [
        {
          "internalType": "bytes32",
          "name": "self",
          "type": "bytes32"
        },
        {
          "internalType": "bytes8",
          "name": "value",
          "type": "bytes8"
        },
        {
          "internalType": "uint8",
          "name": "offset",
          "type": "uint8"
        }
      ],
      "name": "$replace_32_8",
      "outputs": [
        {
          "internalType": "bytes32",
          "name": "result",
          "type": "bytes32"
        }
      ],
      "stateMutability": "pure",
      "type": "function"
    },
    {
      "inputs": [
        {
          "internalType": "bytes4",
          "name": "self",
          "type": "bytes4"
        },
        {
          "internalType": "bytes1",
          "name": "value",
          "type": "bytes1"
        },
        {
          "internalType": "uint8",
          "name": "offset",
          "type": "uint8"
        }
      ],
      "name": "$replace_4_1",
      "outputs": [
        {
          "internalType": "bytes4",
          "name": "result",
          "type": "bytes4"
        }
      ],
      "stateMutability": "pure",
      "type": "function"
    },
    {
      "inputs": [
        {
          "internalType": "bytes4",
          "name": "self",
          "type": "bytes4"
        },
        {
          "internalType": "bytes2",
          "name": "value",
          "type": "bytes2"
        },
        {
          "internalType": "uint8",
          "name": "offset",
          "type": "uint8"
        }
      ],
      "name": "$replace_4_2",
      "outputs": [
        {
          "internalType": "bytes4",
          "name": "result",
          "type": "bytes4"
        }
      ],
      "stateMutability": "pure",
      "type": "function"
    },
    {
      "inputs": [
        {
          "internalType": "bytes6",
          "name": "self",
          "type": "bytes6"
        },
        {
          "internalType": "bytes1",
          "name": "value",
          "type": "bytes1"
        },
        {
          "internalType": "uint8",
          "name": "offset",
          "type": "uint8"
        }
      ],
      "name": "$replace_6_1",
      "outputs": [
        {
          "internalType": "bytes6",
          "name": "result",
          "type": "bytes6"
        }
      ],
      "stateMutability": "pure",
      "type": "function"
    },
    {
      "inputs": [
        {
          "internalType": "bytes6",
          "name": "self",
          "type": "bytes6"
        },
        {
          "internalType": "bytes2",
          "name": "value",
          "type": "bytes2"
        },
        {
          "internalType": "uint8",
          "name": "offset",
          "type": "uint8"
        }
      ],
      "name": "$replace_6_2",
      "outputs": [
        {
          "internalType": "bytes6",
          "name": "result",
          "type": "bytes6"
        }
      ],
      "stateMutability": "pure",
      "type": "function"
    },
    {
      "inputs": [
        {
          "internalType": "bytes6",
          "name": "self",
          "type": "bytes6"
        },
        {
          "internalType": "bytes4",
          "name": "value",
          "type": "bytes4"
        },
        {
          "internalType": "uint8",
          "name": "offset",
          "type": "uint8"
        }
      ],
      "name": "$replace_6_4",
      "outputs": [
        {
          "internalType": "bytes6",
          "name": "result",
          "type": "bytes6"
        }
      ],
      "stateMutability": "pure",
      "type": "function"
    },
    {
      "inputs": [
        {
          "internalType": "bytes8",
          "name": "self",
          "type": "bytes8"
        },
        {
          "internalType": "bytes1",
          "name": "value",
          "type": "bytes1"
        },
        {
          "internalType": "uint8",
          "name": "offset",
          "type": "uint8"
        }
      ],
      "name": "$replace_8_1",
      "outputs": [
        {
          "internalType": "bytes8",
          "name": "result",
          "type": "bytes8"
        }
      ],
      "stateMutability": "pure",
      "type": "function"
    },
    {
      "inputs": [
        {
          "internalType": "bytes8",
          "name": "self",
          "type": "bytes8"
        },
        {
          "internalType": "bytes2",
          "name": "value",
          "type": "bytes2"
        },
        {
          "internalType": "uint8",
          "name": "offset",
          "type": "uint8"
        }
      ],
      "name": "$replace_8_2",
      "outputs": [
        {
          "internalType": "bytes8",
          "name": "result",
          "type": "bytes8"
        }
      ],
      "stateMutability": "pure",
      "type": "function"
    },
    {
      "inputs": [
        {
          "internalType": "bytes8",
          "name": "self",
          "type": "bytes8"
        },
        {
          "internalType": "bytes4",
          "name": "value",
          "type": "bytes4"
        },
        {
          "internalType": "uint8",
          "name": "offset",
          "type": "uint8"
        }
      ],
      "name": "$replace_8_4",
      "outputs": [
        {
          "internalType": "bytes8",
          "name": "result",
          "type": "bytes8"
        }
      ],
      "stateMutability": "pure",
      "type": "function"
    },
    {
      "inputs": [
        {
          "internalType": "bytes8",
          "name": "self",
          "type": "bytes8"
        },
        {
          "internalType": "bytes6",
          "name": "value",
          "type": "bytes6"
        },
        {
          "internalType": "uint8",
          "name": "offset",
          "type": "uint8"
        }
      ],
      "name": "$replace_8_6",
      "outputs": [
        {
          "internalType": "bytes8",
          "name": "result",
          "type": "bytes8"
        }
      ],
      "stateMutability": "pure",
      "type": "function"
    },
    {
      "inputs": [],
      "name": "__hh_exposed_bytecode_marker",
      "outputs": [
        {
          "internalType": "bytes32",
          "name": "",
          "type": "bytes32"
        }
      ],
      "stateMutability": "view",
      "type": "function"
    },
    {
      "stateMutability": "payable",
      "type": "receive"
    }
  ],
  "bytecode": "0x60806040526159da806100115f395ff3fe608060405260043610610c48575f3560e01c80638cff47a81161063f578063bb2ee9b111610340578063d5fa8470116101b9578063ecd5a98211610108578063f65066bc116100a8578063f9baa4fa11610083578063f9baa4fa146126e5578063fa3e1ef614612704578063fd20aed314612723578063feeb68a214612742575f80fd5b8063f65066bc14612688578063f680e204146126a7578063f7ce5a36146126c6575f80fd5b8063f0b380b4116100e3578063f0b380b41461260c578063f0e3fbc11461262b578063f112768f1461264a578063f3c59e4914612669575f80fd5b8063ecd5a982146125af578063eeb896fd146125ce578063f0338f2d146125ed575f80fd5b8063e2a5073511610173578063e6bdabae1161014e578063e6bdabae14612533578063e710e5d114612552578063e7b8ccdb14612571578063ec0c8f2714612590575f80fd5b8063e2a50735146124d6578063e457f03e146124f5578063e690825414612514575f80fd5b8063d5fa84701461241c578063d610ff511461243b578063d61add7b1461245a578063d672019414612479578063da18ac8414612498578063e2291b37146124b7575f80fd5b8063cdaef30f1161028f578063d1c2f65b1161022f578063d579dfa11161020a578063d579dfa1146123a0578063d5982149146123bf578063d5bd63b3146123de578063d5d643b2146123fd575f80fd5b8063d1c2f65b14612343578063d283a26914612362578063d49e872414612381575f80fd5b8063cf8f221a1161026a578063cf8f221a146122c7578063cfc1402f146122e6578063d104cfee14612305578063d11a1af114612324575f80fd5b8063cdaef30f1461226a578063ce4f288c14612289578063ce9322e9146122a8575f80fd5b8063c19c34aa116102fa578063ca0c8546116102d5578063ca0c8546146121ee578063cbbeefcd1461220d578063cbdf64341461222c578063cc0ae08f1461224b575f80fd5b8063c19c34aa14612191578063c606cded146121b0578063c964623b146121cf575f80fd5b8063bb2ee9b1146120d7578063bb9e9576146120f6578063bc00c7ab14612115578063bd7e0fc514612134578063be8e7bde14612153578063bf06d30a14612172575f80fd5b8063a72eef66116104d2578063b1c7a8bf11610421578063b5675e16116103c1578063b75eec5a1161039c578063b75eec5a1461205b578063b8b5d2df1461207a578063b929301d14612099578063baf3aa8a146120b8575f80fd5b8063b5675e1614611ffe578063b571ddf51461201d578063b62252e41461203c575f80fd5b8063b4f3cbc3116103fc578063b4f3cbc314611f82578063b517215b14611fa1578063b51c217414611fc0578063b530fc1914611fdf575f80fd5b8063b1c7a8bf14611f25578063b1d2b2d414611f44578063b3d0c9e914611f63575f80fd5b8063aeb7999b1161048c578063afcff26611610467578063afcff26614611ea9578063afe64ea714611ec8578063b12fc1a214611ee7578063b14c51e914611f06575f80fd5b8063aeb7999b14611e4c578063aecbee5c14611e6b578063aeebee6f14611e8a575f80fd5b8063a72eef6614611d92578063a83d128314611db1578063a8aa35b114611dd0578063acc9f84c14611def578063ad51cc2014611e0e578063ae937a8e14611e2d575f80fd5b80639c4e2c921161058e578063a044a58211610548578063a25cfd3811610523578063a25cfd3814611d16578063a2e0e43514611d35578063a3e7750214611d54578063a66dff8b14611d73575f80fd5b8063a044a58214611cb9578063a0a4fdc614611cd8578063a20d33c914611cf7575f80fd5b80639c4e2c9214611bff5780639cc5924514611c1e5780639e4a5eba14611c3d5780639e559a9214611c5c5780639f1500dd14611c7b5780639f18adec14611c9a575f80fd5b80639330197b116105f95780639754d216116105d45780639754d21614611b8357806398dc682814611ba25780639996c95914611bc15780639b569cb814611be0575f80fd5b80639330197b14611b2657806394129e0014611b45578063941b6f7814611b64575f80fd5b80638cff47a814611a6c5780638d727c4614611a8b5780638decb72114611aaa5780638ec2639014611ac9578063914f8d5414611ae8578063917e57e814611b07575f80fd5b806345f6cf3811610949578063688e8911116107dc57806377923c101161072b5780637f0de4ea116106cb57806386fb9957116106a657806386fb9957146119f05780638745bad214611a0f5780638a58549514611a2e5780638aba349414611a4d575f80fd5b80637f0de4ea146119935780637fca5e27146119b257806380927cba146119d1575f80fd5b80637a0477ad116107065780637a0477ad146119175780637d0a1ee4146119365780637d436132146119555780637eaf3b6b14611974575f80fd5b806377923c10146118ba578063793211f8146118d9578063793fc69a146118f8575f80fd5b8063719b3ee8116107965780637245929011610771578063724592901461183e57806372a97b321461185d578063762439731461187c57806376f1f58b1461189b575f80fd5b8063719b3ee8146117e157806371abdefa1461180057806371b4444c1461181f575f80fd5b8063688e8911146117275780636aeb6d8d146117465780636afd695c146117655780636b567901146117845780636ccfc36d146117a357806371600fc5146117c2575f80fd5b80635a30baa71161089857806360911acd1161085257806362c6e4231161082d57806362c6e423146116ab578063635926dd146116ca578063664b29ae146116e9578063670f749214611708575f80fd5b806360911acd1461164e57806360b4495a1461166d578063613991df1461168c575f80fd5b80635a30baa7146115945780635b62ec30146115b35780635cff84fa146115d25780635dbbdd54146115f1578063607ffc6d146116105780636090411e1461162f575f80fd5b80634e8fe8371161090357806350ff4d3d116108de57806350ff4d3d1461151857806354a363c61461153757806355a78f441461155657806355e62dfb14611575575f80fd5b80634e8fe837146114bb5780634f529fbe146114da5780634fa1b308146114f9575f80fd5b806345f6cf381461140157806347d589b41461142057806349adab251461143f5780634a86e1c81461145e5780634af4d7381461147d5780634e4a9abb1461149c575f80fd5b806323ab6d9f11610adb578063342db73911610a2a57806339fad10d116109ca578063409558d1116109a5578063409558d11461138557806342a1b74a146113a45780634481d9bd146113c3578063452cf0e9146113e2575f80fd5b806339fad10d146113285780633b83c458146113475780633c3e49e814611366575f80fd5b806335d8dd5611610a0557806335d8dd561461129657806336e56245146112cb578063390a33ca146112ea5780633947c68314611309575f80fd5b8063342db7391461123357806334e614e114611258578063358f074514611277575f80fd5b80632aa2f0b211610a95578063309b318f11610a70578063309b318f146111b7578063330099a0146111d6578063335b46b5146111f5578063341060c914611214575f80fd5b80632aa2f0b21461115a5780632c9b6e6b146111795780632f5454d914611198575f80fd5b806323ab6d9f146110875780632555c3df146110bf578063264fc9b2146110de578063277734e9146110fd578063287b78731461111c578063288d6b7f1461113b575f80fd5b806314f20da211610b975780631b018bdb11610b515780631e4d221c11610b2c5780631e4d221c14610ff25780631ec1adb5146110115780631f7110ac146110305780631f748a8a1461104f575f80fd5b80631b018bdb14610f635780631d32b1bc14610f9b5780631d40a32814610fba575f80fd5b806314f20da214610e9057806316abee4414610eaf578063186ddcbd14610ece5780631aaa2e4414610eed5780631ad1bd2e14610f0c5780631ad414ca14610f44575f80fd5b806307d3dec811610c025780630bd6e72d11610bdd5780630bd6e72d14610e145780630c48cb8e14610e3357806313d3f8ea14610e5257806313eb835614610e71575f80fd5b806307d3dec814610d6b57806308d6144114610da3578063099c933614610ddb575f80fd5b806301341eaa14610c53578063017111b014610c9057806301ee9a6a14610cbd5780630276b72f14610cf557806304cddd4314610d1457806306b85e9314610d33575f80fd5b36610c4f57005b5f80fd5b348015610c5e575f80fd5b50610c72610c6d3660046147bc565b612761565b6040516001600160f01b031990911681526020015b60405180910390f35b348015610c9b575f80fd5b50610caf610caa366004614804565b612773565b604051908152602001610c87565b348015610cc8575f80fd5b50610cdc610cd736600461483d565b612787565b6040516001600160a01b03199091168152602001610c87565b348015610d00575f80fd5b50610cdc610d0f366004614894565b612793565b348015610d1f575f80fd5b50610caf610d2e3660046148d3565b6127b7565b348015610d3e575f80fd5b50610d52610d4d36600461490c565b6127c3565b6040516001600160601b03199091168152602001610c87565b348015610d76575f80fd5b50610d8a610d8536600461494c565b6127cf565b6040516001600160501b03199091168152602001610c87565b348015610dae575f80fd5b50610dc2610dbd36600461498b565b6127ed565b6040516001600160801b03199091168152602001610c87565b348015610de6575f80fd5b50610dfa610df53660046149cc565b6127f9565b60405167ffffffffffffffff199091168152602001610c87565b348015610e1f575f80fd5b50610dfa610e2e3660046149fe565b612805565b348015610e3e575f80fd5b50610d8a610e4d366004614a18565b612828565b348015610e5d575f80fd5b50610dfa610e6c366004614a41565b612834565b348015610e7c575f80fd5b50610caf610e8b366004614a5c565b612840565b348015610e9b575f80fd5b50610dc2610eaa366004614a98565b612857565b348015610eba575f80fd5b50610caf610ec9366004614ab2565b612862565b348015610ed9575f80fd5b50610dfa610ee8366004614a98565b612879565b348015610ef8575f80fd5b50610c72610f07366004614af1565b612884565b348015610f17575f80fd5b50610f2b610f26366004614b0b565b61288f565b6040516001600160d01b03199091168152602001610c87565b348015610f4f575f80fd5b50610c72610f5e366004614b25565b61289a565b348015610f6e575f80fd5b50610f82610f7d366004614b3f565b6128a5565b6040516001600160b01b03199091168152602001610c87565b348015610fa6575f80fd5b50610dc2610fb5366004614b59565b6128b0565b348015610fc5575f80fd5b50610fd9610fd4366004614b3f565b6128bc565b6040516001600160f81b03199091168152602001610c87565b348015610ffd575f80fd5b50610caf61100c366004614b82565b6128c7565b34801561101c575f80fd5b50610d5261102b366004614ba4565b6128d3565b34801561103b575f80fd5b50610dc261104a366004614bbf565b6128df565b34801561105a575f80fd5b5061106e611069366004614be8565b6128eb565b6040516001600160c01b03199091168152602001610c87565b348015611092575f80fd5b506110a66110a1366004614c03565b6128f7565b6040516001600160e01b03199091168152602001610c87565b3480156110ca575f80fd5b50610cdc6110d9366004614c1d565b612902565b3480156110e9575f80fd5b50610f826110f8366004614c38565b61290e565b348015611108575f80fd5b50610f82611117366004614c52565b612919565b348015611127575f80fd5b50610dfa611136366004614c6d565b612925565b348015611146575f80fd5b50610dc2611155366004614c88565b612931565b348015611165575f80fd5b50610c72611174366004614b3f565b612953565b348015611184575f80fd5b50610d8a611193366004614cb0565b61295e565b3480156111a3575f80fd5b50610fd96111b2366004614af1565b612984565b3480156111c2575f80fd5b50610dfa6111d1366004614cd8565b61298f565b3480156111e1575f80fd5b50610d8a6111f0366004614d00565b6129b7565b348015611200575f80fd5b5061106e61120f366004614b0b565b6129c3565b34801561121f575f80fd5b50610cdc61122e366004614a98565b6129ce565b34801561123e575f80fd5b50610caf6e1a185c991a185d0b595e1c1bdcd959608a1b81565b348015611263575f80fd5b50610f82611272366004614c03565b6129d9565b348015611282575f80fd5b50610dfa611291366004614d1b565b6129e4565b3480156112a1575f80fd5b506112b56112b0366004614d44565b6129f0565b60405163ffffffff199091168152602001610c87565b3480156112d6575f80fd5b50610fd96112e5366004614a98565b6129fc565b3480156112f5575f80fd5b506110a6611304366004614d5f565b612a07565b348015611314575f80fd5b50610d52611323366004614b3f565b612a12565b348015611333575f80fd5b50610d8a611342366004614a98565b612a1d565b348015611352575f80fd5b50610dc2611361366004614c38565b612a28565b348015611371575f80fd5b50610d52611380366004614d79565b612a33565b348015611390575f80fd5b50610f2b61139f366004614d93565b612a59565b3480156113af575f80fd5b50610dc26113be366004614db4565b612a64565b3480156113ce575f80fd5b50610f2b6113dd366004614dce565b612a88565b3480156113ed575f80fd5b50610f826113fc366004614de8565b612a93565b34801561140c575f80fd5b50610dc261141b366004614e03565b612a9f565b34801561142b575f80fd5b50610d8a61143a366004614e1d565b612ac7565b34801561144a575f80fd5b50610d52611459366004614d93565b612aea565b348015611469575f80fd5b50610cdc611478366004614b0b565b612af5565b348015611488575f80fd5b50610fd9611497366004614c03565b612b00565b3480156114a7575f80fd5b50610caf6114b6366004614e37565b612b0b565b3480156114c6575f80fd5b50610fd96114d5366004614e51565b612b22565b3480156114e5575f80fd5b506112b56114f4366004614e6b565b612b2d565b348015611504575f80fd5b50610f2b611513366004614e85565b612b52565b348015611523575f80fd5b50610fd9611532366004614dce565b612b5e565b348015611542575f80fd5b506112b5611551366004614ea0565b612b69565b348015611561575f80fd5b5061106e611570366004614a98565b612b75565b348015611580575f80fd5b50610caf61158f366004614ebb565b612b80565b34801561159f575f80fd5b50610caf6115ae366004614edd565b612b8c565b3480156115be575f80fd5b506112b56115cd366004614f05565b612ba3565b3480156115dd575f80fd5b50610d526115ec366004614f2d565b612bd0565b3480156115fc575f80fd5b506112b561160b366004614f48565b612bdc565b34801561161b575f80fd5b50610f8261162a366004614f62565b612c00565b34801561163a575f80fd5b50610cdc611649366004614f8b565b612c0c565b348015611659575f80fd5b50610f82611668366004614fa6565b612c18565b348015611678575f80fd5b50610dfa611687366004614fce565b612c38565b348015611697575f80fd5b506112b56116a6366004614fe8565b612c61565b3480156116b6575f80fd5b50610d8a6116c5366004615002565b612c83565b3480156116d5575f80fd5b50610caf6116e436600461501c565b612ca5565b3480156116f4575f80fd5b5061106e611703366004615036565b612cbc565b348015611713575f80fd5b50610d52611722366004615051565b612cc8565b348015611732575f80fd5b5061106e611741366004614b3f565b612cd4565b348015611751575f80fd5b50610c72611760366004614d93565b612cdf565b348015611770575f80fd5b50610cdc61177f36600461506c565b612cea565b34801561178f575f80fd5b50610caf61179e366004615087565b612cf6565b3480156117ae575f80fd5b50610caf6117bd3660046150a9565b612d02565b3480156117cd575f80fd5b506112b56117dc3660046150cb565b612d0e565b3480156117ec575f80fd5b50610caf6117fb3660046150e5565b612d31565b34801561180b575f80fd5b506112b561181a366004615107565b612d3d565b34801561182a575f80fd5b506112b5611839366004614d93565b612d49565b348015611849575f80fd5b50610caf611858366004615122565b612d54565b348015611868575f80fd5b5061106e61187736600461513c565b612d6b565b348015611887575f80fd5b506112b5611896366004615157565b612d77565b3480156118a6575f80fd5b50610c726118b5366004615172565b612d83565b3480156118c5575f80fd5b50610dfa6118d436600461519a565b612da0565b3480156118e4575f80fd5b506112b56118f33660046151c3565b612dac565b348015611903575f80fd5b50610c72611912366004614a98565b612db8565b348015611922575f80fd5b50610dfa611931366004614d93565b612dc3565b348015611941575f80fd5b50610d8a611950366004614d93565b612dce565b348015611960575f80fd5b50610dc261196f3660046151de565b612dd9565b34801561197f575f80fd5b506110a661198e3660046147bc565b612df9565b34801561199e575f80fd5b50610f826119ad3660046147bc565b612e04565b3480156119bd575f80fd5b50610f826119cc3660046151f8565b612e0f565b3480156119dc575f80fd5b506110a66119eb366004614c38565b612e2d565b3480156119fb575f80fd5b50610cdc611a0a366004614d93565b612e38565b348015611a1a575f80fd5b50610dc2611a29366004615212565b612e43565b348015611a39575f80fd5b506110a6611a4836600461522d565b612e4f565b348015611a58575f80fd5b50610dfa611a67366004615248565b612e5b565b348015611a77575f80fd5b50610caf611a86366004615262565b612e80565b348015611a96575f80fd5b50610c72611aa5366004614d5f565b612e98565b348015611ab5575f80fd5b50610f2b611ac436600461527c565b612ea3565b348015611ad4575f80fd5b50610f2b611ae3366004614a98565b612eaf565b348015611af3575f80fd5b50610f82611b02366004614a98565b612eba565b348015611b12575f80fd5b5061106e611b21366004615297565b612ec5565b348015611b31575f80fd5b50610cdc611b403660046152b1565b612ee7565b348015611b50575f80fd5b50610c72611b5f366004614c38565b612f0d565b348015611b6f575f80fd5b50610dc2611b7e366004614d93565b612f18565b348015611b8e575f80fd5b50610caf611b9d3660046152cb565b612f23565b348015611bad575f80fd5b50610d52611bbc3660046152e5565b612f37565b348015611bcc575f80fd5b50610d8a611bdb366004615300565b612f43565b348015611beb575f80fd5b5061106e611bfa3660046147bc565b612f4f565b348015611c0a575f80fd5b50610cdc611c1936600461531b565b612f5a565b348015611c29575f80fd5b5061106e611c38366004614c03565b612f7a565b348015611c48575f80fd5b506110a6611c57366004615335565b612f85565b348015611c67575f80fd5b50610c72611c76366004614b0b565b612fa3565b348015611c86575f80fd5b50610d52611c9536600461534f565b612fae565b348015611ca5575f80fd5b506112b5611cb4366004615369565b612fce565b348015611cc4575f80fd5b50610dc2611cd3366004615384565b612fda565b348015611ce3575f80fd5b506112b5611cf236600461539f565b612fe6565b348015611d02575f80fd5b50610d52611d11366004614c03565b61300a565b348015611d21575f80fd5b506110a6611d30366004614b3f565b613015565b348015611d40575f80fd5b50610dc2611d4f3660046153c7565b613020565b348015611d5f575f80fd5b50610dfa611d6e3660046153e2565b61302c565b348015611d7e575f80fd5b50610d8a611d8d3660046153fc565b613059565b348015611d9d575f80fd5b50610f2b611dac366004614b3f565b613085565b348015611dbc575f80fd5b50610fd9611dcb366004614d93565b613090565b348015611ddb575f80fd5b50610dc2611dea366004615416565b61309b565b348015611dfa575f80fd5b5061106e611e09366004614c38565b6130c1565b348015611e19575f80fd5b50610f2b611e28366004614d5f565b6130cc565b348015611e38575f80fd5b5061106e611e47366004615430565b6130d7565b348015611e57575f80fd5b50610dc2611e66366004614b3f565b6130e3565b348015611e76575f80fd5b50610cdc611e85366004614c03565b6130ee565b348015611e95575f80fd5b50610dfa611ea436600461544b565b6130f9565b348015611eb4575f80fd5b50610d52611ec3366004615474565b613105565b348015611ed3575f80fd5b50610fd9611ee23660046147bc565b613111565b348015611ef2575f80fd5b50610d52611f0136600461548f565b61311c565b348015611f11575f80fd5b506112b5611f203660046154aa565b613128565b348015611f30575f80fd5b50610cdc611f3f3660046154c5565b613134565b348015611f4f575f80fd5b506112b5611f5e3660046154df565b613152565b348015611f6e575f80fd5b50610cdc611f7d366004615508565b61315e565b348015611f8d575f80fd5b50610c72611f9c366004615523565b61316a565b348015611fac575f80fd5b50610d8a611fbb36600461553e565b613176565b348015611fcb575f80fd5b50610d8a611fda366004615559565b613182565b348015611fea575f80fd5b506110a6611ff9366004615574565b61318e565b348015612009575f80fd5b50610caf61201836600461558f565b61319a565b348015612028575f80fd5b50610caf6120373660046155a9565b6131b1565b348015612047575f80fd5b50610caf6120563660046155cb565b6131bd565b348015612066575f80fd5b50610dfa6120753660046155ed565b6131c9565b348015612085575f80fd5b50610cdc612094366004615608565b6131d5565b3480156120a4575f80fd5b50610f2b6120b3366004614c38565b6131f7565b3480156120c3575f80fd5b506112b56120d2366004615622565b613202565b3480156120e2575f80fd5b5061106e6120f136600461563c565b613226565b348015612101575f80fd5b5061106e612110366004614dce565b613244565b348015612120575f80fd5b50610cdc61212f366004614b3f565b61324f565b34801561213f575f80fd5b506110a661214e366004614b0b565b61325a565b34801561215e575f80fd5b50610d5261216d366004615656565b613265565b34801561217d575f80fd5b50610cdc61218c366004615670565b61328d565b34801561219c575f80fd5b506110a66121ab366004614d93565b613299565b3480156121bb575f80fd5b50610fd96121ca366004614b0b565b6132a4565b3480156121da575f80fd5b50610f2b6121e9366004614c03565b6132af565b3480156121f9575f80fd5b50610caf61220836600461568b565b6132ba565b348015612218575f80fd5b50610c72612227366004614dce565b6132c6565b348015612237575f80fd5b50610d526122463660046156ad565b6132d1565b348015612256575f80fd5b506110a6612265366004614af1565b6132f5565b348015612275575f80fd5b50610d526122843660046156c7565b613300565b348015612294575f80fd5b50610fd96122a3366004614d5f565b61330c565b3480156122b3575f80fd5b50610f2b6122c23660046156e2565b613317565b3480156122d2575f80fd5b50610cdc6122e1366004614c38565b613335565b3480156122f1575f80fd5b50610d8a6123003660046156fc565b613340565b348015612310575f80fd5b506112b561231f366004615716565b613368565b34801561232f575f80fd5b50610caf61233e366004615730565b613391565b34801561234e575f80fd5b50610fd961235d366004614c38565b61339d565b34801561236d575f80fd5b50610d8a61237c366004615752565b6133a8565b34801561238c575f80fd5b50610f8261239b366004614d93565b6133b4565b3480156123ab575f80fd5b50610f826123ba36600461576d565b6133bf565b3480156123ca575f80fd5b50610f2b6123d93660046147bc565b6133e3565b3480156123e9575f80fd5b5061106e6123f8366004615787565b6133ee565b348015612408575f80fd5b50610f2b6124173660046157a1565b61340e565b348015612427575f80fd5b506112b56124363660046157bb565b61342e565b348015612446575f80fd5b50610f826124553660046157d6565b61343a565b348015612465575f80fd5b50610c72612474366004614c03565b613446565b348015612484575f80fd5b50610dfa6124933660046157f1565b613451565b3480156124a3575f80fd5b50610fd96124b2366004614b25565b61345d565b3480156124c2575f80fd5b50610f826124d136600461580c565b613468565b3480156124e1575f80fd5b50610d526124f0366004615826565b61348a565b348015612500575f80fd5b50610dfa61250f366004615840565b6134b6565b34801561251f575f80fd5b50610caf61252e36600461585b565b6134c2565b34801561253e575f80fd5b50610f8261254d366004614b0b565b6134ce565b34801561255d575f80fd5b50610dfa61256c36600461587d565b6134d9565b34801561257c575f80fd5b50610dc261258b366004614c03565b6134e5565b34801561259b575f80fd5b50610d526125aa366004614a98565b6134f0565b3480156125ba575f80fd5b50610d8a6125c9366004615898565b6134fb565b3480156125d9575f80fd5b50610d8a6125e8366004614b3f565b613507565b3480156125f8575f80fd5b506112b56126073660046158b3565b613512565b348015612617575f80fd5b506112b56126263660046158ce565b61351e565b348015612636575f80fd5b50610d8a6126453660046158e9565b61352a565b348015612655575f80fd5b50610dfa612664366004615904565b613536565b348015612674575f80fd5b506110a6612683366004614dce565b61355e565b348015612693575f80fd5b506110a66126a2366004614a98565b613569565b3480156126b2575f80fd5b50610dc26126c136600461591e565b613574565b3480156126d1575f80fd5b5061106e6126e0366004614d93565b613580565b3480156126f0575f80fd5b50610f826126ff366004615939565b61358b565b34801561270f575f80fd5b50610dfa61271e366004615954565b613597565b34801561272e575f80fd5b50610d8a61273d36600461596e565b6135c8565b34801561274d575f80fd5b50610f2b61275c366004615989565b6135d4565b5f61276c83836135e0565b9392505050565b5f61277f848484613618565b949350505050565b5f61277f848484613647565b5f6001600160e01b03198316602083901c67ffffffffffffffff60a01b161761276c565b5f61277f848484613653565b5f61277f848484613682565b5f6001600160601b0319831660a083901c61ffff60501b161761276c565b5f61277f8484846136b1565b5f61277f8484846136e0565b5f6001600160501b0319831660b083901c69ffff0000000000000000161761276c565b5f61277f8484846136ec565b5f61277f84848461371b565b5f6001600160601b0319831660a083901c1761276c565b5f61276c8383613727565b5f6001600160a01b03198316606083901c1761276c565b5f61276c838361375f565b5f61276c8383613798565b5f61276c83836137be565b5f61276c83836137f6565b5f61276c838361381c565b5f61277f848484613854565b5f61276c8383613883565b5f61277f8484846138bb565b5f61277f8484846138c7565b5f61277f8484846138d3565b5f61277f848484613902565b5f61276c838361390e565b5f61277f848484613946565b5f61276c8383613952565b5f61277f848484613978565b5f61277f848484613984565b5f6001600160b01b03198316605083901c65ffffffffffff60801b161761276c565b5f61276c838361398c565b5f6001600160a01b03198316606083901c69ffffffffffffffffffff60501b161761276c565b5f61276c83836139b2565b5f6001600160f01b03198316601083901c68010000000000000000600160f01b03161761276c565b5f61277f8484846139d8565b5f61276c83836139e4565b5f61276c8383613a1c565b5f61276c8383613a54565b5f61277f848484613a7a565b5f61277f848484613aa9565b5f61276c8383613ab5565b5f61276c8383613adb565b5f61276c8383613b01565b5f61276c8383613b39565b5f61276c8383613b71565b5f6001600160b01b03198316605083901c69ffffffffffffffffffff60601b161761276c565b5f61276c8383613b97565b5f6001600160c01b03198316604083901c67ffffffffffffffff60801b161761276c565b5f61276c8383613bbd565b5f61277f848484613be3565b5f6001600160e01b03198316602083901c6bffffffffffffffffffffffff60801b161761276c565b5f6001600160f01b03198316601083901c600160501b600160f01b03161761276c565b5f61276c8383613bef565b5f61276c8383613c15565b5f61276c8383613c3b565b5f6001600160501b0319831660b083901c1761276c565b5f61276c8383613c61565b5f6001600160601b0319831660a083901c6bffffffffffffffff00000000161761276c565b5f61277f848484613c87565b5f61276c8383613c93565b5f61277f848484613cb9565b5f61276c8383613cc5565b5f61277f848484613ceb565b5f6001600160e01b03198316602083901c1761276c565b5f6001600160a01b03198316606083901c73ffffffffffffffffffffffffffffffff00000000161761276c565b5f61277f848484613cf7565b5f6001600160c01b03198316604083901c640100000000600160c01b03161761276c565b5f61277f848484613d03565b5f61277f848484613d32565b5f6001600160d01b03198316603083901c63ffffffff60b01b161761276c565b5f6001600160801b03198316608083901c6fffffffffffffffff0000000000000000161761276c565b5f67ffffffffffffffff19831660c083901c67ffffffff00000000161761276c565b5f6001600160801b03198316608083901c65ffffffffffff60501b161761276c565b5f6001600160b01b03198316605083901c1761276c565b5f61277f848484613d3e565b5f61277f848484613d4a565b5f61276c8383613d56565b5f61276c8383613d7c565b5f61277f848484613da2565b5f61277f848484613dae565b5f61277f848484613dba565b5f6001600160501b0319831660b083901c69ffffffffffff00000000161761276c565b5f61277f848484613de6565b5f61277f848484613df2565b5f61276c8383613dfe565b5f6001600160801b03198316608083901c1761276c565b5f61277f848484613e33565b5f61277f848484613e3f565b5f6001600160f81b03198316600883901c60ff60f01b161761276c565b5f61277f848484613e4b565b5f61277f848484613e57565b5f61276c8383613e63565b5f61276c8383613e89565b5f61276c8383613eaf565b5f6001600160a01b03198316606083901c63ffffffff60801b161761276c565b5f61276c8383613ed5565b5f61276c8383613efb565b5f6001600160c01b03198316604083901c61ffff60b01b161761276c565b5f61276c8383613f21565b5f61276c8383613f47565b5f61277f848484613f6d565b5f61277f848484613f79565b5f6001600160601b0319831660a083901c6bffffffff0000000000000000161761276c565b5f67ffffffffffffffff19831660c083901c1761276c565b5f61276c8383613f85565b5f61277f848484613fab565b5f61276c8383613fb7565b5f61276c8383613fdd565b5f6001600160f01b03198316601083901c65ffffffffffff60c01b161761276c565b5f6001600160f01b03198316601083901c69ffffffffffffffffffff60a01b161761276c565b5f61276c8383614003565b5f61276c8383614029565b5f63ffffffff19831660e083901c1761276c565b5f61277f84848461404f565b5f61277f84848461405b565b5f61276c8383614067565b5f6001600160c01b03198316604083901c63ffffffff60a01b161761276c565b5f61276c838361408d565b5f6001600160f01b03198316601083901c61ffff60e01b161761276c565b5f61276c83836140b3565b5f6001600160801b03198316608083901c63ffffffff60601b161761276c565b5f61277f8484846140d9565b5f61277f8484846140e5565b5f6001600160e01b03198316602083901c640100000000600160e01b03161761276c565b5f61276c83836140f1565b5f61276c8383614117565b5f61277f84848461413d565b5f6001600160a01b03198316606083901c73ffffffffffffffffffffffff0000000000000000161761276c565b5f6001600160d01b03198316603083901c6fffffffffffffffffffffffffffffffff60501b161761276c565b5f61276c8383614149565b5f61276c838361416f565b5f6001600160d01b03198316603083901c69ffffffffffffffffffff60801b161761276c565b5f61276c8383614195565b5f61276c83836141bb565b5f61277f8484846141e1565b5f61276c83836141ed565b5f61276c8383614213565b5f61277f848484614239565b5f61277f848484614268565b5f61276c8383614274565b5f61277f84848461429a565b5f61277f8484846142a6565b5f6001600160b01b03198316605083901c61ffff60a01b161761276c565b5f61277f8484846142b2565b5f61277f8484846142e2565b5f61277f8484846142ee565b5f61277f8484846142fa565b5f61277f848484614306565b5f61277f848484614312565b5f6001600160c01b03198316604083901c1761276c565b5f61277f84848461431e565b5f61277f84848461432a565b5f61277f848484614336565b5f6001600160d01b03198316603083901c65ffffffffffff60a01b161761276c565b5f61276c8383614342565b5f6001600160d01b03198316603083901c640100000000600160d01b03161761276c565b5f6001600160d01b03198316603083901c61ffff60c01b161761276c565b5f61276c8383614368565b5f61276c838361438e565b5f61276c83836143b4565b5f6001600160c01b03198316604083901c6bffffffffffffffffffffffff60601b161761276c565b5f61277f8484846143da565b5f61276c83836143e6565b5f61276c838361440c565b5f61276c8383614432565b5f61277f848484614458565b5f61276c8383614464565b5f6001600160a01b03198316606083901c67ffffffffffffffff60601b161761276c565b5f61276c838361448a565b5f61277f8484846144b0565b5f61276c83836144bc565b5f6001600160e01b03198316602083901c61ffff60d01b161761276c565b5f61276c83836144e2565b5f6001600160b01b03198316605083901c6bffffffffffffffffffffffff60501b161761276c565b5f6001600160801b03198316608083901c6fffffffffffffffffffffffff00000000161761276c565b5f61277f848484614508565b5f61276c8383614514565b5f61277f84848461453a565b5f61276c8383614546565b5f6001600160f01b03198316601083901c67ffffffffffffffff60b01b161761276c565b5f61276c838361456c565b5f6001600160e01b03198316602083901c63ffffffff60c01b161761276c565b5f6001600160f01b03198316601083901c63ffffffff60d01b161761276c565b5f61277f848484614592565b5f61277f84848461459e565b5f61276c83836145aa565b5f61277f8484846145d0565b5f61276c83836145dc565b5f6001600160e01b03198316602083901c65ffffffffffff60b01b161761276c565b5f6001600160e01b03198316602083901c6fffffffffffffffffffffffffffffffff60601b161761276c565b5f61277f848484614602565b5f61277f84848461460e565b5f61276c838361461a565b5f61277f848484614640565b5f61276c838361464c565b5f61276c8383614672565b5f61277f848484614698565b5f61276c83836146a4565b5f61277f8484846146ca565b5f61277f8484846146d6565b5f61277f8484846146e2565b5f6001600160e01b03198316602083901c68010000000000000000600160e01b03161761276c565b5f61276c83836146ee565b5f61276c8383614714565b5f61277f84848461473a565b5f61276c8383614746565b5f61277f84848461476c565b5f6001600160c01b03198316604083901c77ffffffffffffffffffffffffffffffff0000000000000000161761276c565b5f61277f848484614778565b5f61277f848484614784565b5f600a8260ff16111561360657604051631dd4bb1b60e11b815260040160405180910390fd5b506008021b6001600160f01b03191690565b5f80613624858461416f565b6001600160f81b03199490941690931860089092029190911c9290921892915050565b5f806136248584614274565b5f8061365f8584613bef565b6001600160601b03199490941690931860089092029190911c9290921892915050565b5f8061368e8584613952565b6001600160b01b03199490941690931860089092029190911c9290921892915050565b5f806136bd85846139e4565b6001600160c01b03199490941690931860089092029190911c9290921892915050565b5f806136248584613883565b5f806136f88584614213565b6001600160a01b03199490941690931860089092029190911c9290921892915050565b5f8061368e858461381c565b5f600c8260ff16111561374d57604051631dd4bb1b60e11b815260040160405180910390fd5b506008021b6001600160801b03191690565b5f60048260ff16111561378557604051631dd4bb1b60e11b815260040160405180910390fd5b506008021b67ffffffffffffffff191690565b5f60048260ff16111561360657604051631dd4bb1b60e11b815260040160405180910390fd5b5f600a8260ff1611156137e457604051631dd4bb1b60e11b815260040160405180910390fd5b506008021b6001600160d01b03191690565b5f60028260ff16111561360657604051631dd4bb1b60e11b815260040160405180910390fd5b5f600e8260ff16111561384257604051631dd4bb1b60e11b815260040160405180910390fd5b506008021b6001600160b01b03191690565b5f8061386085846140b3565b6001600160f01b03199490941690931860089092029190911c9290921892915050565b5f60178260ff1611156138a957604051631dd4bb1b60e11b815260040160405180910390fd5b506008021b6001600160f81b03191690565b5f806136bd8584614746565b5f806136bd8584614195565b5f806138df85846137be565b6001600160d01b03199490941690931860089092029190911c9290921892915050565b5f806138df85846141bb565b5f60128260ff16111561393457604051631dd4bb1b60e11b815260040160405180910390fd5b506008021b6001600160e01b03191690565b5f8061386085846135e0565b5f600a8260ff16111561384257604051631dd4bb1b60e11b815260040160405180910390fd5b5f806136bd8584614368565b5f8061386085845b5f60168260ff16111561360657604051631dd4bb1b60e11b815260040160405180910390fd5b5f60058260ff1611156138a957604051631dd4bb1b60e11b815260040160405180910390fd5b5f8061368e8584613a54565b5f60088260ff161115613a0a57604051631dd4bb1b60e11b815260040160405180910390fd5b506008021b6001600160c01b03191690565b5f60108260ff161115613a4257604051631dd4bb1b60e11b815260040160405180910390fd5b506008021b6001600160a01b03191690565b5f600c8260ff16111561384257604051631dd4bb1b60e11b815260040160405180910390fd5b5f80613a8685846141ed565b6001600160801b03199490941690931860089092029190911c9290921892915050565b5f806138608584613e63565b5f601b8260ff1611156138a957604051631dd4bb1b60e11b815260040160405180910390fd5b5f60048260ff16111561393457604051631dd4bb1b60e11b815260040160405180910390fd5b5f60048260ff161115613b2757604051631dd4bb1b60e11b815260040160405180910390fd5b506008021b6001600160601b03191690565b5f60068260ff161115613b5f57604051631dd4bb1b60e11b815260040160405180910390fd5b506008021b6001600160501b03191690565b5f60048260ff16111561374d57604051631dd4bb1b60e11b815260040160405180910390fd5b5f601a8260ff1611156137e457604051631dd4bb1b60e11b815260040160405180910390fd5b5f60048260ff1611156137e457604051631dd4bb1b60e11b815260040160405180910390fd5b5f806138608584614464565b5f600c8260ff161115613b2757604051631dd4bb1b60e11b815260040160405180910390fd5b5f60048260ff161115613a4257604051631dd4bb1b60e11b815260040160405180910390fd5b5f60158260ff1611156138a957604051631dd4bb1b60e11b815260040160405180910390fd5b5f60018260ff1611156138a957604051631dd4bb1b60e11b815260040160405180910390fd5b5f8061362485846139b2565b5f60098260ff1611156138a957604051631dd4bb1b60e11b815260040160405180910390fd5b5f8061368e8584613fdd565b5f60148260ff161115613a0a57604051631dd4bb1b60e11b815260040160405180910390fd5b5f80613a868584614029565b5f806136248584614514565b5f80613d0f85846146ee565b6001600160e01b03199490941690931860089092029190911c9290921892915050565b5f806136bd8584614067565b5f8061362485846144bc565b5f806138608584614003565b5f60108260ff161115613a0a57604051631dd4bb1b60e11b815260040160405180910390fd5b5f601e8260ff16111561360657604051631dd4bb1b60e11b815260040160405180910390fd5b5f80613d0f8584613ed5565b5f80613d0f85846143e6565b5f80613dc68584613dfe565b63ffffffff199490941690931860089092029190911c9290921892915050565b5f806138608584613d7c565b5f80613a868584613727565b5f60048260ff161115613e2457604051631dd4bb1b60e11b815260040160405180910390fd5b506008021b63ffffffff191690565b5f80613d0f8584613adb565b5f80613d0f8584614714565b5f8061365f8584613b01565b5f806136f88584613a1c565b5f601a8260ff16111561360657604051631dd4bb1b60e11b815260040160405180910390fd5b5f60088260ff16111561378557604051631dd4bb1b60e11b815260040160405180910390fd5b5f600a8260ff161115613b5f57604051631dd4bb1b60e11b815260040160405180910390fd5b5f60088260ff16111561393457604051631dd4bb1b60e11b815260040160405180910390fd5b5f60028260ff16111561384257604051631dd4bb1b60e11b815260040160405180910390fd5b5f60108260ff16111561393457604051631dd4bb1b60e11b815260040160405180910390fd5b5f60148260ff161115613a4257604051631dd4bb1b60e11b815260040160405180910390fd5b5f80613d0f85846143b4565b5f8061362485846145dc565b5f60068260ff16111561360657604051631dd4bb1b60e11b815260040160405180910390fd5b5f80613d0f858461448a565b5f60168260ff1611156137e457604051631dd4bb1b60e11b815260040160405180910390fd5b5f60128260ff16111561384257604051631dd4bb1b60e11b815260040160405180910390fd5b5f60128260ff16111561360657604051631dd4bb1b60e11b815260040160405180910390fd5b5f60108260ff16111561374d57604051631dd4bb1b60e11b815260040160405180910390fd5b5f806138df8584614342565b5f806138df8584614432565b5f60048260ff161115613a0a57604051631dd4bb1b60e11b815260040160405180910390fd5b5f600e8260ff161115613a0a57604051631dd4bb1b60e11b815260040160405180910390fd5b5f600e8260ff16111561360657604051631dd4bb1b60e11b815260040160405180910390fd5b5f806138df8584613fb7565b5f8061368e858461461a565b5f60028260ff161115613b2757604051631dd4bb1b60e11b815260040160405180910390fd5b5f60148260ff16111561393457604051631dd4bb1b60e11b815260040160405180910390fd5b5f80613624858461440c565b5f60128260ff1611156137e457604051631dd4bb1b60e11b815260040160405180910390fd5b5f601f8260ff1611156138a957604051631dd4bb1b60e11b815260040160405180910390fd5b5f600c8260ff161115613a0a57604051631dd4bb1b60e11b815260040160405180910390fd5b5f60028260ff1611156137e457604051631dd4bb1b60e11b815260040160405180910390fd5b5f806138608584613f85565b5f60088260ff16111561374d57604051631dd4bb1b60e11b815260040160405180910390fd5b5f600a8260ff161115613a4257604051631dd4bb1b60e11b815260040160405180910390fd5b5f8061424585846146a4565b6001600160501b03199490941690931860089092029190911c9290921892915050565b5f806136f885846144e2565b5f600b8260ff1611156138a957604051631dd4bb1b60e11b815260040160405180910390fd5b5f80613a868584613b71565b5f806136248584613ab5565b5f806142be858461375f565b67ffffffffffffffff199490941690931860089092029190911c9290921892915050565b5f806138df858461456c565b5f806136248584613c61565b5f806136248584613c3b565b5f8061365f85846140f1565b5f8061386085846137f6565b5f806142458584613eaf565b5f806136f88584613f47565b5f806136f8858461438e565b5f600e8260ff1611156137e457604051631dd4bb1b60e11b815260040160405180910390fd5b5f60028260ff161115613a0a57604051631dd4bb1b60e11b815260040160405180910390fd5b5f600c8260ff161115613a4257604051631dd4bb1b60e11b815260040160405180910390fd5b5f600c8260ff16111561393457604051631dd4bb1b60e11b815260040160405180910390fd5b5f8061368e8584613efb565b5f601c8260ff16111561393457604051631dd4bb1b60e11b815260040160405180910390fd5b5f600f8260ff1611156138a957604051631dd4bb1b60e11b815260040160405180910390fd5b5f60108260ff1611156137e457604051631dd4bb1b60e11b815260040160405180910390fd5b5f806142be8584613e89565b5f60088260ff16111561360657604051631dd4bb1b60e11b815260040160405180910390fd5b5f60028260ff16111561393457604051631dd4bb1b60e11b815260040160405180910390fd5b5f80613d0f8584613f21565b5f60078260ff1611156138a957604051631dd4bb1b60e11b815260040160405180910390fd5b5f60088260ff161115613a4257604051631dd4bb1b60e11b815260040160405180910390fd5b5f8061368e8584614546565b5f60138260ff1611156138a957604051631dd4bb1b60e11b815260040160405180910390fd5b5f806136bd858461408d565b5f60168260ff16111561384257604051631dd4bb1b60e11b815260040160405180910390fd5b5f60068260ff1611156137e457604051631dd4bb1b60e11b815260040160405180910390fd5b5f806136bd8584613cc5565b5f806138df8584613bbd565b5f60148260ff16111561360657604051631dd4bb1b60e11b815260040160405180910390fd5b5f80613d0f8584614117565b5f60038260ff1611156138a957604051631dd4bb1b60e11b815260040160405180910390fd5b5f806136bd8584613d56565b5f806138df8584613b97565b5f60068260ff16111561384257604051631dd4bb1b60e11b815260040160405180910390fd5b5f806138df8584614149565b5f60068260ff16111561374d57604051631dd4bb1b60e11b815260040160405180910390fd5b5f60088260ff161115613b2757604051631dd4bb1b60e11b815260040160405180910390fd5b5f80613d0f858461390e565b5f60028260ff161115613b5f57604051631dd4bb1b60e11b815260040160405180910390fd5b5f8061365f8584614672565b5f806142458584613b39565b5f8061386085846145aa565b5f60068260ff16111561393457604051631dd4bb1b60e11b815260040160405180910390fd5b5f60188260ff16111561393457604051631dd4bb1b60e11b815260040160405180910390fd5b5f806136f88584613c15565b5f60188260ff161115613a0a57604051631dd4bb1b60e11b815260040160405180910390fd5b5f806136248584613c93565b5f80613a86858461464c565b5f806138608584613798565b80356001600160a01b0319811681146147a7575f80fd5b919050565b803560ff811681146147a7575f80fd5b5f80604083850312156147cd575f80fd5b6147d683614790565b91506147e4602084016147ac565b90509250929050565b80356001600160f81b0319811681146147a7575f80fd5b5f805f60608486031215614816575f80fd5b83359250614826602085016147ed565b9150614834604085016147ac565b90509250925092565b5f805f6060848603121561484f575f80fd5b61485884614790565b9250614826602085016147ed565b80356001600160e01b0319811681146147a7575f80fd5b80356001600160c01b0319811681146147a7575f80fd5b5f80604083850312156148a5575f80fd5b6148ae83614866565b91506147e46020840161487d565b80356001600160601b0319811681146147a7575f80fd5b5f805f606084860312156148e5575f80fd5b83359250614826602085016148bc565b80356001600160b01b0319811681146147a7575f80fd5b5f805f6060848603121561491e575f80fd5b614927846148bc565b9250614826602085016148f5565b80356001600160f01b0319811681146147a7575f80fd5b5f806040838503121561495d575f80fd5b614966836148bc565b91506147e460208401614935565b80356001600160801b0319811681146147a7575f80fd5b5f805f6060848603121561499d575f80fd5b6149a684614974565b92506148266020850161487d565b803567ffffffffffffffff19811681146147a7575f80fd5b5f805f606084860312156149de575f80fd5b614858846149b4565b80356001600160501b0319811681146147a7575f80fd5b5f8060408385031215614a0f575f80fd5b614966836149e7565b5f805f60608486031215614a2a575f80fd5b614a33846149e7565b925061482660208501614790565b5f805f60608486031215614a53575f80fd5b614927846149b4565b5f8060408385031215614a6d575f80fd5b614a76836148bc565b91506147e460208401614790565b803563ffffffff19811681146147a7575f80fd5b5f8060408385031215614aa9575f80fd5b6147d683614a84565b5f8060408385031215614ac3575f80fd5b614acc83614790565b91506147e4602084016148bc565b80356001600160d01b0319811681146147a7575f80fd5b5f8060408385031215614b02575f80fd5b6147d683614ada565b5f8060408385031215614b1c575f80fd5b6147d683614974565b5f8060408385031215614b36575f80fd5b6147d683614866565b5f8060408385031215614b50575f80fd5b6147d6836149b4565b5f805f60608486031215614b6b575f80fd5b614b7484614974565b925061482660208501614935565b5f805f60608486031215614b94575f80fd5b833592506148266020850161487d565b5f805f60608486031215614bb6575f80fd5b6149a6846148bc565b5f805f60608486031215614bd1575f80fd5b614bda84614974565b925061482660208501614ada565b5f805f60608486031215614bfa575f80fd5b614bda8461487d565b5f8060408385031215614c14575f80fd5b6147d6836149e7565b5f805f60608486031215614c2f575f80fd5b614b7484614790565b5f8060408385031215614c49575f80fd5b6147d6836148bc565b5f805f60608486031215614c64575f80fd5b6149a6846148f5565b5f805f60608486031215614c7f575f80fd5b614b74846149b4565b5f8060408385031215614c99575f80fd5b614ca2836148f5565b91506147e460208401614ada565b5f8060408385031215614cc1575f80fd5b614cca83614790565b91506147e4602084016148f5565b5f8060408385031215614ce9575f80fd5b614cf283614935565b91506147e4602084016149e7565b5f805f60608486031215614d12575f80fd5b614927846149e7565b5f805f60608486031215614d2d575f80fd5b614d36846149b4565b925061482660208501614974565b5f805f60608486031215614d56575f80fd5b614b7484614a84565b5f8060408385031215614d70575f80fd5b6147d68361487d565b5f8060408385031215614d8a575f80fd5b614cca836148f5565b5f8060408385031215614da4575f80fd5b823591506147e4602084016147ac565b5f8060408385031215614dc5575f80fd5b6148ae8361487d565b5f8060408385031215614ddf575f80fd5b6147d6836148f5565b5f805f60608486031215614dfa575f80fd5b614b74846148f5565b5f8060408385031215614e14575f80fd5b614a7683614866565b5f8060408385031215614e2e575f80fd5b614acc83614935565b5f8060408385031215614e48575f80fd5b614cca836149e7565b5f8060408385031215614e62575f80fd5b6147d683614935565b5f8060408385031215614e7c575f80fd5b6148ae836148bc565b5f805f60608486031215614e97575f80fd5b61485884614ada565b5f805f60608486031215614eb2575f80fd5b61492784614a84565b5f805f60608486031215614ecd575f80fd5b8335925061482660208501614974565b5f8060408385031215614eee575f80fd5b614ef783614866565b91506147e460208401614a84565b5f8060408385031215614f16575f80fd5b614f1f83614790565b91506147e460208401614974565b5f805f60608486031215614f3f575f80fd5b614858846148bc565b5f8060408385031215614f59575f80fd5b614acc8361487d565b5f805f60608486031215614f74575f80fd5b614f7d846148f5565b925061482660208501614866565b5f805f60608486031215614f9d575f80fd5b6149a684614790565b5f8060408385031215614fb7575f80fd5b614fc083614ada565b91506147e460208401614866565b5f8060408385031215614fdf575f80fd5b6148ae83614974565b5f8060408385031215614ff9575f80fd5b614fc0836149b4565b5f8060408385031215615013575f80fd5b614ca283614974565b5f806040838503121561502d575f80fd5b614cf2836148f5565b5f805f60608486031215615048575f80fd5b6148588461487d565b5f805f60608486031215615063575f80fd5b614b74846148bc565b5f805f6060848603121561507e575f80fd5b614f7d84614790565b5f805f60608486031215615099575f80fd5b8335925061482660208501614866565b5f805f606084860312156150bb575f80fd5b8335925061482660208501614a84565b5f80604083850312156150dc575f80fd5b614ca2836149e7565b5f805f606084860312156150f7575f80fd5b8335925061482660208501614935565b5f805f60608486031215615119575f80fd5b614d3684614a84565b5f8060408385031215615133575f80fd5b614f1f83614974565b5f805f6060848603121561514e575f80fd5b614f7d8461487d565b5f805f60608486031215615169575f80fd5b614f7d84614a84565b5f8060408385031215615183575f80fd5b61518c836147ed565b91506147e4602084016147ed565b5f805f606084860312156151ac575f80fd5b6151b5846149b4565b9250614826602085016148bc565b5f805f606084860312156151d5575f80fd5b614a3384614a84565b5f80604083850312156151ef575f80fd5b614fc083614790565b5f8060408385031215615209575f80fd5b6149668361487d565b5f805f60608486031215615224575f80fd5b614f7d84614974565b5f805f6060848603121561523f575f80fd5b61485884614866565b5f8060408385031215615259575f80fd5b614fc0836148bc565b5f8060408385031215615273575f80fd5b6148ae836149b4565b5f805f6060848603121561528e575f80fd5b614f7d84614ada565b5f80604083850312156152a8575f80fd5b614ca283614935565b5f80604083850312156152c2575f80fd5b614cca83614935565b5f80604083850312156152dc575f80fd5b614fc083614a84565b5f805f606084860312156152f7575f80fd5b614bda846148bc565b5f805f60608486031215615312575f80fd5b614bda846149e7565b5f806040838503121561532c575f80fd5b614fc08361487d565b5f8060408385031215615346575f80fd5b61496683614935565b5f8060408385031215615360575f80fd5b614fc083614974565b5f805f6060848603121561537b575f80fd5b614bda84614a84565b5f805f60608486031215615396575f80fd5b61492784614974565b5f80604083850312156153b0575f80fd5b6153b983614866565b91506147e4602084016149b4565b5f805f606084860312156153d9575f80fd5b61485884614974565b5f80604083850312156153f3575f80fd5b614a7683614790565b5f806040838503121561540d575f80fd5b614f1f83614ada565b5f8060408385031215615427575f80fd5b614cca83614ada565b5f805f60608486031215615442575f80fd5b614b748461487d565b5f805f6060848603121561545d575f80fd5b615466846149b4565b9250614826602085016149e7565b5f805f60608486031215615486575f80fd5b614a33846148bc565b5f805f606084860312156154a1575f80fd5b614d36846148bc565b5f805f606084860312156154bc575f80fd5b61485884614a84565b5f80604083850312156154d6575f80fd5b614966836148f5565b5f805f606084860312156154f1575f80fd5b6154fa84614a84565b9250614826602085016149b4565b5f805f6060848603121561551a575f80fd5b614bda84614790565b5f805f60608486031215615535575f80fd5b61485884614935565b5f805f60608486031215615550575f80fd5b614858846149e7565b5f805f6060848603121561556b575f80fd5b6151b5846149e7565b5f805f60608486031215615586575f80fd5b614b7484614866565b5f80604083850312156155a0575f80fd5b6153b98361487d565b5f805f606084860312156155bb575f80fd5b83359250614826602085016149e7565b5f805f606084860312156155dd575f80fd5b8335925061482660208501614790565b5f805f606084860312156155ff575f80fd5b614a33846149b4565b5f8060408385031215615619575f80fd5b614ca283614ada565b5f8060408385031215615633575f80fd5b614cf283614ada565b5f806040838503121561564d575f80fd5b61496683614ada565b5f8060408385031215615667575f80fd5b614a768361487d565b5f805f60608486031215615682575f80fd5b61492784614790565b5f805f6060848603121561569d575f80fd5b83359250614826602085016149b4565b5f80604083850312156156be575f80fd5b6148ae83614790565b5f805f606084860312156156d9575f80fd5b614f7d846148bc565b5f80604083850312156156f3575f80fd5b61496683614866565b5f806040838503121561570d575f80fd5b614a76836148f5565b5f8060408385031215615727575f80fd5b614a7683614974565b5f805f60608486031215615742575f80fd5b83359250614826602085016148f5565b5f805f60608486031215615764575f80fd5b6149a6846149e7565b5f806040838503121561577e575f80fd5b6148ae83614935565b5f8060408385031215615798575f80fd5b614fc083614866565b5f80604083850312156157b2575f80fd5b614fc083614935565b5f805f606084860312156157cd575f80fd5b6149a684614a84565b5f805f606084860312156157e8575f80fd5b614bda846148f5565b5f805f60608486031215615803575f80fd5b614f7d846149b4565b5f806040838503121561581d575f80fd5b614ca283614866565b5f8060408385031215615837575f80fd5b614f1f83614866565b5f805f60608486031215615852575f80fd5b6149a6846149b4565b5f805f6060848603121561586d575f80fd5b8335925061482660208501614ada565b5f805f6060848603121561588f575f80fd5b614bda846149b4565b5f805f606084860312156158aa575f80fd5b614f7d846149e7565b5f805f606084860312156158c5575f80fd5b6151b584614a84565b5f805f606084860312156158e0575f80fd5b61546684614a84565b5f805f606084860312156158fb575f80fd5b614b74846149e7565b5f8060408385031215615915575f80fd5b614acc83614866565b5f805f60608486031215615930575f80fd5b614a3384614974565b5f805f6060848603121561594b575f80fd5b614858846148f5565b5f8060408385031215615965575f80fd5b614f1f8361487d565b5f805f60608486031215615980575f80fd5b614d36846149e7565b5f805f6060848603121561599b575f80fd5b614b7484614ada56fea26469706673582212207fb87b2579aeb3746c9ba4580c435869fa94760419f2904c7eba1e3dabe4084964736f6c63430008180033",
  "linkReferences": {},
  "deployedLinkReferences": {}
}