{
  "_format": "hh-sol-artifact-1",
  "contractName": "AuthorityDelayMock",
  "sourceName": "contracts/mocks/AuthorityMock.sol",
  "abi": [
    {
      "inputs": [
        {
          "internalType": "uint32",
          "name": "delay",
          "type": "uint32"
        }
      ],
      "name": "_setDelay",
      "outputs": [],
      "stateMutability": "nonpayable",
      "type": "function"
    },
    {
      "inputs": [
        {
          "internalType": "bool",
          "name": "immediate",
          "type": "bool"
        }
      ],
      "name": "_setImmediate",
      "outputs": [],
      "stateMutability": "nonpayable",
      "type": "function"
    },
    {
      "inputs": [
        {
          "internalType": "address",
          "name": "",
          "type": "address"
        },
        {
          "internalType": "address",
          "name": "",
          "type": "address"
        },
        {
          "internalType": "bytes4",
          "name": "",
          "type": "bytes4"
        }
      ],
      "name": "canCall",
      "outputs": [
        {
          "internalType": "bool",
          "name": "immediate",
          "type": "bool"
        },
        {
          "internalType": "uint32",
          "name": "delay",
          "type": "uint32"
        }
      ],
      "stateMutability": "view",
      "type": "function"
    }
  ],
  "bytecode": "0x608060405234801561000f575f80fd5b506101c58061001d5f395ff3fe608060405234801561000f575f80fd5b506004361061003f575f3560e01c80632afc4521146100435780633e5047b214610074578063b700961314610094575b5f80fd5b6100726100513660046100db565b5f805463ffffffff9092166101000264ffffffff0019909216919091179055565b005b610072610082366004610105565b5f805460ff1916911515919091179055565b6100bb6100a236600461013f565b50505f5460ff81169261010090910463ffffffff169150565b60408051921515835263ffffffff90911660208301520160405180910390f35b5f602082840312156100eb575f80fd5b813563ffffffff811681146100fe575f80fd5b9392505050565b5f60208284031215610115575f80fd5b813580151581146100fe575f80fd5b80356001600160a01b038116811461013a575f80fd5b919050565b5f805f60608486031215610151575f80fd5b61015a84610124565b925061016860208501610124565b915060408401356001600160e01b031981168114610184575f80fd5b80915050925092509256fea2646970667358221220e1f66b3ea97e76f2b2ba7b96c26fdb0d2a09213b59c941a22424a663c9c440c964736f6c63430008180033",
  "linkReferences": {},
  "deployedLinkReferences": {}
}