{
  "_format": "hh-sol-artifact-1",
  "contractName": "AuthorityNoDelayMock",
  "sourceName": "contracts/mocks/AuthorityMock.sol",
  "abi": [
    {
      "inputs": [
        {
          "internalType": "bool",
          "name": "immediate",
          "type": "bool"
        }
      ],
      "name": "_setImmediate",
      "outputs": [],
      "stateMutability": "nonpayable",
      "type": "function"
    },
    {
      "inputs": [
        {
          "internalType": "address",
          "name": "",
          "type": "address"
        },
        {
          "internalType": "address",
          "name": "",
          "type": "address"
        },
        {
          "internalType": "bytes4",
          "name": "",
          "type": "bytes4"
        }
      ],
      "name": "canCall",
      "outputs": [
        {
          "internalType": "bool",
          "name": "immediate",
          "type": "bool"
        }
      ],
      "stateMutability": "view",
      "type": "function"
    }
  ],
  "bytecode": "0x608060405234801561000f575f80fd5b5061014f8061001d5f395ff3fe608060405234801561000f575f80fd5b5060043610610034575f3560e01c80633e5047b214610038578063b70096131461005a575b5f80fd5b610058610046366004610088565b5f805460ff1916911515919091179055565b005b6100746100683660046100c9565b5f5460ff169392505050565b604051901515815260200160405180910390f35b5f60208284031215610098575f80fd5b813580151581146100a7575f80fd5b9392505050565b80356001600160a01b03811681146100c4575f80fd5b919050565b5f805f606084860312156100db575f80fd5b6100e4846100ae565b92506100f2602085016100ae565b915060408401356001600160e01b03198116811461010e575f80fd5b80915050925092509256fea2646970667358221220969c6bd215ba3c8108e15bc671b03fa0a9a31fe077f7b815b63aef8acfa0c6f064736f6c63430008180033",
  "linkReferences": {},
  "deployedLinkReferences": {}
}