{
  "_format": "hh-sol-artifact-1",
  "contractName": "AuthorityNoResponse",
  "sourceName": "contracts/mocks/AuthorityMock.sol",
  "abi": [
    {
      "inputs": [
        {
          "internalType": "address",
          "name": "",
          "type": "address"
        },
        {
          "internalType": "address",
          "name": "",
          "type": "address"
        },
        {
          "internalType": "bytes4",
          "name": "",
          "type": "bytes4"
        }
      ],
      "name": "canCall",
      "outputs": [],
      "stateMutability": "view",
      "type": "function"
    }
  ],
  "bytecode": "0x608060405234801561000f575f80fd5b5060d68061001c5f395ff3fe6080604052348015600e575f80fd5b50600436106026575f3560e01c8063b700961314602a575b5f80fd5b603a60353660046056565b505050565b005b80356001600160a01b03811681146051575f80fd5b919050565b5f805f606084860312156067575f80fd5b606e84603c565b9250607a60208501603c565b915060408401356001600160e01b0319811681146095575f80fd5b80915050925092509256fea2646970667358221220a9bc9f7e96bceb85589b7bbf776e1e36a830d1dd5cd7d1282eba1eba36ea5df064736f6c63430008180033",
  "linkReferences": {},
  "deployedLinkReferences": {}
}