{
  "_format": "hh-sol-artifact-1",
  "contractName": "AuthorityObserveIsConsuming",
  "sourceName": "contracts/mocks/AuthorityMock.sol",
  "abi": [
    {
      "anonymous": false,
      "inputs": [
        {
          "indexed": false,
          "internalType": "address",
          "name": "caller",
          "type": "address"
        },
        {
          "indexed": false,
          "internalType": "bytes",
          "name": "data",
          "type": "bytes"
        },
        {
          "indexed": false,
          "internalType": "bytes4",
          "name": "isConsuming",
          "type": "bytes4"
        }
      ],
      "name": "ConsumeScheduledOpCalled",
      "type": "event"
    },
    {
      "inputs": [
        {
          "internalType": "address",
          "name": "",
          "type": "address"
        },
        {
          "internalType": "address",
          "name": "",
          "type": "address"
        },
        {
          "internalType": "bytes4",
          "name": "",
          "type": "bytes4"
        }
      ],
      "name": "canCall",
      "outputs": [
        {
          "internalType": "bool",
          "name": "immediate",
          "type": "bool"
        },
        {
          "internalType": "uint32",
          "name": "delay",
          "type": "uint32"
        }
      ],
      "stateMutability": "pure",
      "type": "function"
    },
    {
      "inputs": [
        {
          "internalType": "address",
          "name": "caller",
          "type": "address"
        },
        {
          "internalType": "bytes",
          "name": "data",
          "type": "bytes"
        }
      ],
      "name": "consumeScheduledOp",
      "outputs": [],
      "stateMutability": "nonpayable",
      "type": "function"
    }
  ],
  "bytecode": "0x608060405234801561000f575f80fd5b5061032f8061001d5f395ff3fe608060405234801561000f575f80fd5b5060043610610034575f3560e01c806394c7d7ee14610038578063b70096131461004d575b5f80fd5b61004b610046366004610153565b610086565b005b61006661005b366004610227565b5f6001935093915050565b60408051921515835263ffffffff90911660208301520160405180910390f35b7f6be74e75ed90ba015d494c939c763657508b563a99197bf1323feb9e8f08b4018282336001600160a01b0316638fb360376040518163ffffffff1660e01b8152600401602060405180830381865afa1580156100e5573d5f803e3d5ffd5b505050506040513d601f19601f82011682018060405250810190610109919061026b565b6040516101189392919061028d565b60405180910390a15050565b80356001600160a01b038116811461013a575f80fd5b919050565b634e487b7160e01b5f52604160045260245ffd5b5f8060408385031215610164575f80fd5b61016d83610124565b9150602083013567ffffffffffffffff80821115610189575f80fd5b818501915085601f83011261019c575f80fd5b8135818111156101ae576101ae61013f565b604051601f8201601f19908116603f011681019083821181831017156101d6576101d661013f565b816040528281528860208487010111156101ee575f80fd5b826020860160208301375f6020848301015280955050505050509250929050565b6001600160e01b031981168114610224575f80fd5b50565b5f805f60608486031215610239575f80fd5b61024284610124565b925061025060208501610124565b915060408401356102608161020f565b809150509250925092565b5f6020828403121561027b575f80fd5b81516102868161020f565b9392505050565b60018060a01b03841681525f60206060602084015284518060608501525f5b818110156102c8578681018301518582016080015282016102ac565b505f608082860101526080601f19601f8301168501019250505063ffffffff60e01b8316604083015294935050505056fea26469706673582212206b314a37e3cc87ae940d5e8f50f533de7f712f99ed1ec9b3152fe98a0e79109864736f6c63430008180033",
  "linkReferences": {},
  "deployedLinkReferences": {}
}