{
  "_format": "hh-sol-artifact-1",
  "contractName": "NotAuthorityMock",
  "sourceName": "contracts/mocks/AuthorityMock.sol",
  "abi": [
    {
      "inputs": [
        {
          "internalType": "address",
          "name": "",
          "type": "address"
        },
        {
          "internalType": "address",
          "name": "",
          "type": "address"
        },
        {
          "internalType": "bytes4",
          "name": "",
          "type": "bytes4"
        }
      ],
      "name": "canCall",
      "outputs": [
        {
          "internalType": "bool",
          "name": "",
          "type": "bool"
        }
      ],
      "stateMutability": "pure",
      "type": "function"
    }
  ],
  "bytecode": "0x608060405234801561000f575f80fd5b506101518061001d5f395ff3fe608060405234801561000f575f80fd5b5060043610610029575f3560e01c8063b70096131461002d575b5f80fd5b61004061003b3660046100cb565b610054565b604051901515815260200160405180910390f35b60405162461bcd60e51b815260206004820152602560248201527f417574686f726974794e6f44656c61794d6f636b3a206e6f7420696d706c656d604482015264195b9d195960da1b60648201525f9060840160405180910390fd5b80356001600160a01b03811681146100c6575f80fd5b919050565b5f805f606084860312156100dd575f80fd5b6100e6846100b0565b92506100f4602085016100b0565b915060408401356001600160e01b031981168114610110575f80fd5b80915050925092509256fea2646970667358221220aedc658df0016738af2aa6072174e2d7ddf4f9688f07811f301abc3d074ff88c64736f6c63430008180033",
  "linkReferences": {},
  "deployedLinkReferences": {}
}