{
  "_format": "hh-sol-artifact-1",
  "contractName": "$MerkleProof",
  "sourceName": "contracts-exposed/utils/cryptography/MerkleProof.sol",
  "abi": [
    {
      "inputs": [],
      "stateMutability": "payable",
      "type": "constructor"
    },
    {
      "inputs": [],
      "name": "MerkleProofInvalidMultiproof",
      "type": "error"
    },
    {
      "inputs": [
        {
          "internalType": "bytes32[]",
          "name": "proof",
          "type": "bytes32[]"
        },
        {
          "internalType": "bool[]",
          "name": "proofFlags",
          "type": "bool[]"
        },
        {
          "internalType": "bytes32",
          "name": "root",
          "type": "bytes32"
        },
        {
          "internalType": "bytes32[]",
          "name": "leaves",
          "type": "bytes32[]"
        }
      ],
      "name": "$multiProofVerify",
      "outputs": [
        {
          "internalType": "bool",
          "name": "ret0",
          "type": "bool"
        }
      ],
      "stateMutability": "pure",
      "type": "function"
    },
    {
      "inputs": [
        {
          "internalType": "bytes32[]",
          "name": "proof",
          "type": "bytes32[]"
        },
        {
          "internalType": "bool[]",
          "name": "proofFlags",
          "type": "bool[]"
        },
        {
          "internalType": "bytes32",
          "name": "root",
          "type": "bytes32"
        },
        {
          "internalType": "bytes32[]",
          "name": "leaves",
          "type": "bytes32[]"
        }
      ],
      "name": "$multiProofVerifyCalldata",
      "outputs": [
        {
          "internalType": "bool",
          "name": "ret0",
          "type": "bool"
        }
      ],
      "stateMutability": "pure",
      "type": "function"
    },
    {
      "inputs": [
        {
          "internalType": "bytes32[]",
          "name": "proof",
          "type": "bytes32[]"
        },
        {
          "internalType": "bool[]",
          "name": "proofFlags",
          "type": "bool[]"
        },
        {
          "internalType": "bytes32[]",
          "name": "leaves",
          "type": "bytes32[]"
        }
      ],
      "name": "$processMultiProof",
      "outputs": [
        {
          "internalType": "bytes32",
          "name": "merkleRoot",
          "type": "bytes32"
        }
      ],
      "stateMutability": "pure",
      "type": "function"
    },
    {
      "inputs": [
        {
          "internalType": "bytes32[]",
          "name": "proof",
          "type": "bytes32[]"
        },
        {
          "internalType": "bool[]",
          "name": "proofFlags",
          "type": "bool[]"
        },
        {
          "internalType": "bytes32[]",
          "name": "leaves",
          "type": "bytes32[]"
        }
      ],
      "name": "$processMultiProofCalldata",
      "outputs": [
        {
          "internalType": "bytes32",
          "name": "merkleRoot",
          "type": "bytes32"
        }
      ],
      "stateMutability": "pure",
      "type": "function"
    },
    {
      "inputs": [
        {
          "internalType": "bytes32[]",
          "name": "proof",
          "type": "bytes32[]"
        },
        {
          "internalType": "bytes32",
          "name": "leaf",
          "type": "bytes32"
        }
      ],
      "name": "$processProof",
      "outputs": [
        {
          "internalType": "bytes32",
          "name": "ret0",
          "type": "bytes32"
        }
      ],
      "stateMutability": "pure",
      "type": "function"
    },
    {
      "inputs": [
        {
          "internalType": "bytes32[]",
          "name": "proof",
          "type": "bytes32[]"
        },
        {
          "internalType": "bytes32",
          "name": "leaf",
          "type": "bytes32"
        }
      ],
      "name": "$processProofCalldata",
      "outputs": [
        {
          "internalType": "bytes32",
          "name": "ret0",
          "type": "bytes32"
        }
      ],
      "stateMutability": "pure",
      "type": "function"
    },
    {
      "inputs": [
        {
          "internalType": "bytes32[]",
          "name": "proof",
          "type": "bytes32[]"
        },
        {
          "internalType": "bytes32",
          "name": "root",
          "type": "bytes32"
        },
        {
          "internalType": "bytes32",
          "name": "leaf",
          "type": "bytes32"
        }
      ],
      "name": "$verify",
      "outputs": [
        {
          "internalType": "bool",
          "name": "ret0",
          "type": "bool"
        }
      ],
      "stateMutability": "pure",
      "type": "function"
    },
    {
      "inputs": [
        {
          "internalType": "bytes32[]",
          "name": "proof",
          "type": "bytes32[]"
        },
        {
          "internalType": "bytes32",
          "name": "root",
          "type": "bytes32"
        },
        {
          "internalType": "bytes32",
          "name": "leaf",
          "type": "bytes32"
        }
      ],
      "name": "$verifyCalldata",
      "outputs": [
        {
          "internalType": "bool",
          "name": "ret0",
          "type": "bool"
        }
      ],
      "stateMutability": "pure",
      "type": "function"
    },
    {
      "inputs": [],
      "name": "__hh_exposed_bytecode_marker",
      "outputs": [
        {
          "internalType": "bytes32",
          "name": "",
          "type": "bytes32"
        }
      ],
      "stateMutability": "view",
      "type": "function"
    },
    {
      "stateMutability": "payable",
      "type": "receive"
    }
  ],
  "bytecode": "0x6080604052610ca0806100115f395ff3fe608060405260043610610087575f3560e01c80635dd795fe116100575780635dd795fe14610137578063891557e0146101565780638f2ab10214610175578063de21bc2d14610194578063e11ea3d2146101b3575f80fd5b8063342db739146100925780633a199f31146100ca57806347c656c4146100e95780635205863c14610118575f80fd5b3661008e57005b5f80fd5b34801561009d575f80fd5b506100b76e1a185c991a185d0b595e1c1bdcd959608a1b81565b6040519081526020015b60405180910390f35b3480156100d5575f80fd5b506100b76100e4366004610a20565b6101d2565b3480156100f4575f80fd5b50610108610103366004610ab3565b610279565b60405190151581526020016100c1565b348015610123575f80fd5b506100b7610132366004610a20565b6102c6565b348015610142575f80fd5b50610108610151366004610ab3565b610306565b348015610161575f80fd5b50610108610170366004610b4f565b6103a5565b348015610180575f80fd5b506100b761018f366004610b9c565b6103ee565b34801561019f575f80fd5b506101086101ae366004610b4f565b610402565b3480156101be575f80fd5b506100b76101cd366004610b9c565b61040f565b5f61026e8787808060200260200160405190810160405280939291908181526020018383602002808284375f9201919091525050604080516020808b0282810182019093528a82529093508a9250899182918501908490808284375f9201919091525050604080516020808a028281018201909352898252909350899250889182918501908490808284375f9201919091525061044d92505050565b979650505050505050565b5f6102ba88888888888888808060200260200160405190810160405280939291908181526020018383602002808284375f9201919091525061067f92505050565b98975050505050505050565b5f61026e878787878787808060200260200160405190810160405280939291908181526020018383602002808284375f9201919091525061069a92505050565b5f6102ba8888808060200260200160405190810160405280939291908181526020018383602002808284375f9201919091525050604080516020808c0282810182019093528b82529093508b92508a9182918501908490808284375f9201919091525050604080516020808a0282810182019093528982528b9450909250899189918291908501908490808284375f920191909152506108f192505050565b5f6103e58585808060200260200160405190810160405280939291908181526020018383602002808284375f920191909152508792508691506109089050565b95945050505050565b5f6103fa84848461091d565b949350505050565b5f6103e58585858561095e565b5f6103fa8484808060200260200160405190810160405280939291908181526020018383602002808284375f9201919091525086925061096b915050565b805182515f919061045f816001610bf8565b865161046b9084610bf8565b1461048957604051631a8a024960e11b815260040160405180910390fd5b5f8167ffffffffffffffff8111156104a3576104a3610c0b565b6040519080825280602002602001820160405280156104cc578160200160208202803683370190505b5090505f805f805b858110156105fc575f87851061050e5785846104ef81610c1f565b95508151811061050157610501610c37565b6020026020010151610534565b898561051981610c1f565b96508151811061052b5761052b610c37565b60200260200101515b90505f8b838151811061054957610549610c37565b602002602001015161057f578c8461056081610c1f565b95508151811061057257610572610c37565b60200260200101516105c9565b8886106105a357868561059181610c1f565b96508151811061057257610572610c37565b8a866105ae81610c1f565b9750815181106105c0576105c0610c37565b60200260200101515b90506105d582826109af565b8784815181106105e7576105e7610c37565b602090810291909101015250506001016104d4565b50841561064e578951811461062457604051631a8a024960e11b815260040160405180910390fd5b83600186038151811061063957610639610c37565b60200260200101519650505050505050610678565b851561066657875f8151811061063957610639610c37565b895f8151811061063957610639610c37565b9392505050565b5f8261068e888888888761069a565b14979650505050505050565b80515f90836106aa816001610bf8565b6106b48884610bf8565b146106d257604051631a8a024960e11b815260040160405180910390fd5b5f8167ffffffffffffffff8111156106ec576106ec610c0b565b604051908082528060200260200182016040528015610715578160200160208202803683370190505b5090505f805f805b8581101561085e575f87851061075757858461073881610c1f565b95508151811061074a5761074a610c37565b602002602001015161077d565b898561076281610c1f565b96508151811061077457610774610c37565b60200260200101515b90505f8c8c8481811061079257610792610c37565b90506020020160208101906107a79190610c4b565b6107d4578e8e856107b781610c1f565b96508181106107c8576107c8610c37565b9050602002013561082b565b8886106108055786856107e681610c1f565b9650815181106107f8576107f8610c37565b602002602001015161082b565b8a8661081081610c1f565b97508151811061082257610822610c37565b60200260200101515b905061083782826109af565b87848151811061084957610849610c37565b6020908102919091010152505060010161071d565b5084156108af57808b1461088557604051631a8a024960e11b815260040160405180910390fd5b83600186038151811061089a5761089a610c37565b602002602001015196505050505050506103e5565b85156108c757875f8151811061089a5761089a610c37565b8b8b5f8181106108d9576108d9610c37565b90506020020135965050505050505095945050505050565b5f826108fe86868561044d565b1495945050505050565b5f82610914858461096b565b14949350505050565b5f81815b848110156109555761094b8287878481811061093f5761093f610c37565b905060200201356109af565b9150600101610921565b50949350505050565b5f826108fe86868561091d565b5f81815b84518110156109a55761099b8286838151811061098e5761098e610c37565b60200260200101516109af565b915060010161096f565b5090505b92915050565b5f8183106109c9575f828152602084905260409020610678565b505f9182526020526040902090565b5f8083601f8401126109e8575f80fd5b50813567ffffffffffffffff8111156109ff575f80fd5b6020830191508360208260051b8501011115610a19575f80fd5b9250929050565b5f805f805f8060608789031215610a35575f80fd5b863567ffffffffffffffff80821115610a4c575f80fd5b610a588a838b016109d8565b90985096506020890135915080821115610a70575f80fd5b610a7c8a838b016109d8565b90965094506040890135915080821115610a94575f80fd5b50610aa189828a016109d8565b979a9699509497509295939492505050565b5f805f805f805f6080888a031215610ac9575f80fd5b873567ffffffffffffffff80821115610ae0575f80fd5b610aec8b838c016109d8565b909950975060208a0135915080821115610b04575f80fd5b610b108b838c016109d8565b909750955060408a0135945060608a0135915080821115610b2f575f80fd5b50610b3c8a828b016109d8565b989b979a50959850939692959293505050565b5f805f8060608587031215610b62575f80fd5b843567ffffffffffffffff811115610b78575f80fd5b610b84878288016109d8565b90989097506020870135966040013595509350505050565b5f805f60408486031215610bae575f80fd5b833567ffffffffffffffff811115610bc4575f80fd5b610bd0868287016109d8565b909790965060209590950135949350505050565b634e487b7160e01b5f52601160045260245ffd5b808201808211156109a9576109a9610be4565b634e487b7160e01b5f52604160045260245ffd5b5f60018201610c3057610c30610be4565b5060010190565b634e487b7160e01b5f52603260045260245ffd5b5f60208284031215610c5b575f80fd5b81358015158114610678575f80fdfea2646970667358221220f471103634c4d6f08af89cf2ee3be9407904c44c061f27b48328ce71c139807a64736f6c63430008180033",
  "linkReferences": {},
  "deployedLinkReferences": {}
}