{
  "_format": "hh-sol-artifact-1",
  "contractName": "$ERC20VotesExtendedMock",
  "sourceName": "contracts-exposed/mocks/token/ERC20VotesAdditionalCheckpointsMock.sol",
  "abi": [
    {
      "inputs": [
        {
          "internalType": "string",
          "name": "name_",
          "type": "string"
        },
        {
          "internalType": "string",
          "name": "symbol_",
          "type": "string"
        },
        {
          "internalType": "string",
          "name": "name",
          "type": "string"
        },
        {
          "internalType": "string",
          "name": "version",
          "type": "string"
        }
      ],
      "stateMutability": "payable",
      "type": "constructor"
    },
    {
      "inputs": [],
      "name": "CheckpointUnorderedInsertion",
      "type": "error"
    },
    {
      "inputs": [],
      "name": "ECDSAInvalidSignature",
      "type": "error"
    },
    {
      "inputs": [
        {
          "internalType": "uint256",
          "name": "length",
          "type": "uint256"
        }
      ],
      "name": "ECDSAInvalidSignatureLength",
      "type": "error"
    },
    {
      "inputs": [
        {
          "internalType": "bytes32",
          "name": "s",
          "type": "bytes32"
        }
      ],
      "name": "ECDSAInvalidSignatureS",
      "type": "error"
    },
    {
      "inputs": [
        {
          "internalType": "uint256",
          "name": "increasedSupply",
          "type": "uint256"
        },
        {
          "internalType": "uint256",
          "name": "cap",
          "type": "uint256"
        }
      ],
      "name": "ERC20ExceededSafeSupply",
      "type": "error"
    },
    {
      "inputs": [
        {
          "internalType": "address",
          "name": "spender",
          "type": "address"
        },
        {
          "internalType": "uint256",
          "name": "allowance",
          "type": "uint256"
        },
        {
          "internalType": "uint256",
          "name": "needed",
          "type": "uint256"
        }
      ],
      "name": "ERC20InsufficientAllowance",
      "type": "error"
    },
    {
      "inputs": [
        {
          "internalType": "address",
          "name": "sender",
          "type": "address"
        },
        {
          "internalType": "uint256",
          "name": "balance",
          "type": "uint256"
        },
        {
          "internalType": "uint256",
          "name": "needed",
          "type": "uint256"
        }
      ],
      "name": "ERC20InsufficientBalance",
      "type": "error"
    },
    {
      "inputs": [
        {
          "internalType": "address",
          "name": "approver",
          "type": "address"
        }
      ],
      "name": "ERC20InvalidApprover",
      "type": "error"
    },
    {
      "inputs": [
        {
          "internalType": "address",
          "name": "receiver",
          "type": "address"
        }
      ],
      "name": "ERC20InvalidReceiver",
      "type": "error"
    },
    {
      "inputs": [
        {
          "internalType": "address",
          "name": "sender",
          "type": "address"
        }
      ],
      "name": "ERC20InvalidSender",
      "type": "error"
    },
    {
      "inputs": [
        {
          "internalType": "address",
          "name": "spender",
          "type": "address"
        }
      ],
      "name": "ERC20InvalidSpender",
      "type": "error"
    },
    {
      "inputs": [
        {
          "internalType": "uint256",
          "name": "timepoint",
          "type": "uint256"
        },
        {
          "internalType": "uint48",
          "name": "clock",
          "type": "uint48"
        }
      ],
      "name": "ERC5805FutureLookup",
      "type": "error"
    },
    {
      "inputs": [],
      "name": "ERC6372InconsistentClock",
      "type": "error"
    },
    {
      "inputs": [
        {
          "internalType": "address",
          "name": "account",
          "type": "address"
        },
        {
          "internalType": "uint256",
          "name": "currentNonce",
          "type": "uint256"
        }
      ],
      "name": "InvalidAccountNonce",
      "type": "error"
    },
    {
      "inputs": [],
      "name": "InvalidShortString",
      "type": "error"
    },
    {
      "inputs": [
        {
          "internalType": "uint8",
          "name": "bits",
          "type": "uint8"
        },
        {
          "internalType": "uint256",
          "name": "value",
          "type": "uint256"
        }
      ],
      "name": "SafeCastOverflowedUintDowncast",
      "type": "error"
    },
    {
      "inputs": [
        {
          "internalType": "string",
          "name": "str",
          "type": "string"
        }
      ],
      "name": "StringTooLong",
      "type": "error"
    },
    {
      "inputs": [
        {
          "internalType": "uint256",
          "name": "expiry",
          "type": "uint256"
        }
      ],
      "name": "VotesExpiredSignature",
      "type": "error"
    },
    {
      "anonymous": false,
      "inputs": [
        {
          "indexed": true,
          "internalType": "address",
          "name": "owner",
          "type": "address"
        },
        {
          "indexed": true,
          "internalType": "address",
          "name": "spender",
          "type": "address"
        },
        {
          "indexed": false,
          "internalType": "uint256",
          "name": "value",
          "type": "uint256"
        }
      ],
      "name": "Approval",
      "type": "event"
    },
    {
      "anonymous": false,
      "inputs": [
        {
          "indexed": true,
          "internalType": "address",
          "name": "delegator",
          "type": "address"
        },
        {
          "indexed": true,
          "internalType": "address",
          "name": "fromDelegate",
          "type": "address"
        },
        {
          "indexed": true,
          "internalType": "address",
          "name": "toDelegate",
          "type": "address"
        }
      ],
      "name": "DelegateChanged",
      "type": "event"
    },
    {
      "anonymous": false,
      "inputs": [
        {
          "indexed": true,
          "internalType": "address",
          "name": "delegate",
          "type": "address"
        },
        {
          "indexed": false,
          "internalType": "uint256",
          "name": "previousVotes",
          "type": "uint256"
        },
        {
          "indexed": false,
          "internalType": "uint256",
          "name": "newVotes",
          "type": "uint256"
        }
      ],
      "name": "DelegateVotesChanged",
      "type": "event"
    },
    {
      "anonymous": false,
      "inputs": [],
      "name": "EIP712DomainChanged",
      "type": "event"
    },
    {
      "anonymous": false,
      "inputs": [
        {
          "indexed": true,
          "internalType": "address",
          "name": "from",
          "type": "address"
        },
        {
          "indexed": true,
          "internalType": "address",
          "name": "to",
          "type": "address"
        },
        {
          "indexed": false,
          "internalType": "uint256",
          "name": "value",
          "type": "uint256"
        }
      ],
      "name": "Transfer",
      "type": "event"
    },
    {
      "anonymous": false,
      "inputs": [
        {
          "indexed": false,
          "internalType": "uint256",
          "name": "ret0",
          "type": "uint256"
        }
      ],
      "name": "return$_useNonce",
      "type": "event"
    },
    {
      "inputs": [],
      "name": "$_EIP712Name",
      "outputs": [
        {
          "internalType": "string",
          "name": "ret0",
          "type": "string"
        }
      ],
      "stateMutability": "view",
      "type": "function"
    },
    {
      "inputs": [],
      "name": "$_EIP712Version",
      "outputs": [
        {
          "internalType": "string",
          "name": "ret0",
          "type": "string"
        }
      ],
      "stateMutability": "view",
      "type": "function"
    },
    {
      "inputs": [
        {
          "internalType": "address",
          "name": "owner",
          "type": "address"
        },
        {
          "internalType": "address",
          "name": "spender",
          "type": "address"
        },
        {
          "internalType": "uint256",
          "name": "value",
          "type": "uint256"
        },
        {
          "internalType": "bool",
          "name": "emitEvent",
          "type": "bool"
        }
      ],
      "name": "$_approve",
      "outputs": [],
      "stateMutability": "nonpayable",
      "type": "function"
    },
    {
      "inputs": [
        {
          "internalType": "address",
          "name": "owner",
          "type": "address"
        },
        {
          "internalType": "address",
          "name": "spender",
          "type": "address"
        },
        {
          "internalType": "uint256",
          "name": "value",
          "type": "uint256"
        }
      ],
      "name": "$_approve",
      "outputs": [],
      "stateMutability": "nonpayable",
      "type": "function"
    },
    {
      "inputs": [
        {
          "internalType": "address",
          "name": "account",
          "type": "address"
        },
        {
          "internalType": "uint256",
          "name": "value",
          "type": "uint256"
        }
      ],
      "name": "$_burn",
      "outputs": [],
      "stateMutability": "nonpayable",
      "type": "function"
    },
    {
      "inputs": [
        {
          "internalType": "address",
          "name": "account",
          "type": "address"
        },
        {
          "internalType": "uint32",
          "name": "pos",
          "type": "uint32"
        }
      ],
      "name": "$_checkpoints",
      "outputs": [
        {
          "components": [
            {
              "internalType": "uint48",
              "name": "_key",
              "type": "uint48"
            },
            {
              "internalType": "uint208",
              "name": "_value",
              "type": "uint208"
            }
          ],
          "internalType": "struct Checkpoints.Checkpoint208",
          "name": "ret0",
          "type": "tuple"
        }
      ],
      "stateMutability": "view",
      "type": "function"
    },
    {
      "inputs": [],
      "name": "$_contextSuffixLength",
      "outputs": [
        {
          "internalType": "uint256",
          "name": "ret0",
          "type": "uint256"
        }
      ],
      "stateMutability": "view",
      "type": "function"
    },
    {
      "inputs": [
        {
          "internalType": "address",
          "name": "account",
          "type": "address"
        },
        {
          "internalType": "address",
          "name": "delegatee",
          "type": "address"
        }
      ],
      "name": "$_delegate",
      "outputs": [],
      "stateMutability": "nonpayable",
      "type": "function"
    },
    {
      "inputs": [],
      "name": "$_domainSeparatorV4",
      "outputs": [
        {
          "internalType": "bytes32",
          "name": "ret0",
          "type": "bytes32"
        }
      ],
      "stateMutability": "view",
      "type": "function"
    },
    {
      "inputs": [],
      "name": "$_getTotalSupply",
      "outputs": [
        {
          "internalType": "uint256",
          "name": "ret0",
          "type": "uint256"
        }
      ],
      "stateMutability": "view",
      "type": "function"
    },
    {
      "inputs": [
        {
          "internalType": "address",
          "name": "account",
          "type": "address"
        }
      ],
      "name": "$_getVotingUnits",
      "outputs": [
        {
          "internalType": "uint256",
          "name": "ret0",
          "type": "uint256"
        }
      ],
      "stateMutability": "view",
      "type": "function"
    },
    {
      "inputs": [
        {
          "internalType": "bytes32",
          "name": "structHash",
          "type": "bytes32"
        }
      ],
      "name": "$_hashTypedDataV4",
      "outputs": [
        {
          "internalType": "bytes32",
          "name": "ret0",
          "type": "bytes32"
        }
      ],
      "stateMutability": "view",
      "type": "function"
    },
    {
      "inputs": [],
      "name": "$_maxSupply",
      "outputs": [
        {
          "internalType": "uint256",
          "name": "ret0",
          "type": "uint256"
        }
      ],
      "stateMutability": "view",
      "type": "function"
    },
    {
      "inputs": [
        {
          "internalType": "address",
          "name": "account",
          "type": "address"
        },
        {
          "internalType": "uint256",
          "name": "value",
          "type": "uint256"
        }
      ],
      "name": "$_mint",
      "outputs": [],
      "stateMutability": "nonpayable",
      "type": "function"
    },
    {
      "inputs": [
        {
          "internalType": "address",
          "name": "from",
          "type": "address"
        },
        {
          "internalType": "address",
          "name": "to",
          "type": "address"
        },
        {
          "internalType": "uint256",
          "name": "amount",
          "type": "uint256"
        }
      ],
      "name": "$_moveDelegateVotes",
      "outputs": [],
      "stateMutability": "nonpayable",
      "type": "function"
    },
    {
      "inputs": [],
      "name": "$_msgData",
      "outputs": [
        {
          "internalType": "bytes",
          "name": "ret0",
          "type": "bytes"
        }
      ],
      "stateMutability": "view",
      "type": "function"
    },
    {
      "inputs": [],
      "name": "$_msgSender",
      "outputs": [
        {
          "internalType": "address",
          "name": "ret0",
          "type": "address"
        }
      ],
      "stateMutability": "view",
      "type": "function"
    },
    {
      "inputs": [
        {
          "internalType": "address",
          "name": "account",
          "type": "address"
        }
      ],
      "name": "$_numCheckpoints",
      "outputs": [
        {
          "internalType": "uint32",
          "name": "ret0",
          "type": "uint32"
        }
      ],
      "stateMutability": "view",
      "type": "function"
    },
    {
      "inputs": [
        {
          "internalType": "address",
          "name": "owner",
          "type": "address"
        },
        {
          "internalType": "address",
          "name": "spender",
          "type": "address"
        },
        {
          "internalType": "uint256",
          "name": "value",
          "type": "uint256"
        }
      ],
      "name": "$_spendAllowance",
      "outputs": [],
      "stateMutability": "nonpayable",
      "type": "function"
    },
    {
      "inputs": [
        {
          "internalType": "address",
          "name": "from",
          "type": "address"
        },
        {
          "internalType": "address",
          "name": "to",
          "type": "address"
        },
        {
          "internalType": "uint256",
          "name": "value",
          "type": "uint256"
        }
      ],
      "name": "$_transfer",
      "outputs": [],
      "stateMutability": "nonpayable",
      "type": "function"
    },
    {
      "inputs": [
        {
          "internalType": "address",
          "name": "from",
          "type": "address"
        },
        {
          "internalType": "address",
          "name": "to",
          "type": "address"
        },
        {
          "internalType": "uint256",
          "name": "amount",
          "type": "uint256"
        }
      ],
      "name": "$_transferVotingUnits",
      "outputs": [],
      "stateMutability": "nonpayable",
      "type": "function"
    },
    {
      "inputs": [
        {
          "internalType": "address",
          "name": "from",
          "type": "address"
        },
        {
          "internalType": "address",
          "name": "to",
          "type": "address"
        },
        {
          "internalType": "uint256",
          "name": "value",
          "type": "uint256"
        }
      ],
      "name": "$_update",
      "outputs": [],
      "stateMutability": "nonpayable",
      "type": "function"
    },
    {
      "inputs": [
        {
          "internalType": "address",
          "name": "owner",
          "type": "address"
        },
        {
          "internalType": "uint256",
          "name": "nonce",
          "type": "uint256"
        }
      ],
      "name": "$_useCheckedNonce",
      "outputs": [],
      "stateMutability": "nonpayable",
      "type": "function"
    },
    {
      "inputs": [
        {
          "internalType": "address",
          "name": "owner",
          "type": "address"
        }
      ],
      "name": "$_useNonce",
      "outputs": [
        {
          "internalType": "uint256",
          "name": "ret0",
          "type": "uint256"
        }
      ],
      "stateMutability": "nonpayable",
      "type": "function"
    },
    {
      "inputs": [
        {
          "internalType": "uint256",
          "name": "timepoint",
          "type": "uint256"
        }
      ],
      "name": "$_validateTimepoint",
      "outputs": [
        {
          "internalType": "uint48",
          "name": "ret0",
          "type": "uint48"
        }
      ],
      "stateMutability": "view",
      "type": "function"
    },
    {
      "inputs": [],
      "name": "CLOCK_MODE",
      "outputs": [
        {
          "internalType": "string",
          "name": "",
          "type": "string"
        }
      ],
      "stateMutability": "view",
      "type": "function"
    },
    {
      "inputs": [],
      "name": "__hh_exposed_bytecode_marker",
      "outputs": [
        {
          "internalType": "bytes32",
          "name": "",
          "type": "bytes32"
        }
      ],
      "stateMutability": "view",
      "type": "function"
    },
    {
      "inputs": [
        {
          "internalType": "address",
          "name": "owner",
          "type": "address"
        },
        {
          "internalType": "address",
          "name": "spender",
          "type": "address"
        }
      ],
      "name": "allowance",
      "outputs": [
        {
          "internalType": "uint256",
          "name": "",
          "type": "uint256"
        }
      ],
      "stateMutability": "view",
      "type": "function"
    },
    {
      "inputs": [
        {
          "internalType": "address",
          "name": "spender",
          "type": "address"
        },
        {
          "internalType": "uint256",
          "name": "value",
          "type": "uint256"
        }
      ],
      "name": "approve",
      "outputs": [
        {
          "internalType": "bool",
          "name": "",
          "type": "bool"
        }
      ],
      "stateMutability": "nonpayable",
      "type": "function"
    },
    {
      "inputs": [
        {
          "internalType": "address",
          "name": "account",
          "type": "address"
        }
      ],
      "name": "balanceOf",
      "outputs": [
        {
          "internalType": "uint256",
          "name": "",
          "type": "uint256"
        }
      ],
      "stateMutability": "view",
      "type": "function"
    },
    {
      "inputs": [
        {
          "internalType": "address",
          "name": "account",
          "type": "address"
        },
        {
          "internalType": "uint32",
          "name": "pos",
          "type": "uint32"
        }
      ],
      "name": "checkpoints",
      "outputs": [
        {
          "components": [
            {
              "internalType": "uint48",
              "name": "_key",
              "type": "uint48"
            },
            {
              "internalType": "uint208",
              "name": "_value",
              "type": "uint208"
            }
          ],
          "internalType": "struct Checkpoints.Checkpoint208",
          "name": "",
          "type": "tuple"
        }
      ],
      "stateMutability": "view",
      "type": "function"
    },
    {
      "inputs": [],
      "name": "clock",
      "outputs": [
        {
          "internalType": "uint48",
          "name": "",
          "type": "uint48"
        }
      ],
      "stateMutability": "view",
      "type": "function"
    },
    {
      "inputs": [],
      "name": "decimals",
      "outputs": [
        {
          "internalType": "uint8",
          "name": "",
          "type": "uint8"
        }
      ],
      "stateMutability": "view",
      "type": "function"
    },
    {
      "inputs": [
        {
          "internalType": "address",
          "name": "delegatee",
          "type": "address"
        }
      ],
      "name": "delegate",
      "outputs": [],
      "stateMutability": "nonpayable",
      "type": "function"
    },
    {
      "inputs": [
        {
          "internalType": "address",
          "name": "delegatee",
          "type": "address"
        },
        {
          "internalType": "uint256",
          "name": "nonce",
          "type": "uint256"
        },
        {
          "internalType": "uint256",
          "name": "expiry",
          "type": "uint256"
        },
        {
          "internalType": "uint8",
          "name": "v",
          "type": "uint8"
        },
        {
          "internalType": "bytes32",
          "name": "r",
          "type": "bytes32"
        },
        {
          "internalType": "bytes32",
          "name": "s",
          "type": "bytes32"
        }
      ],
      "name": "delegateBySig",
      "outputs": [],
      "stateMutability": "nonpayable",
      "type": "function"
    },
    {
      "inputs": [
        {
          "internalType": "address",
          "name": "account",
          "type": "address"
        }
      ],
      "name": "delegates",
      "outputs": [
        {
          "internalType": "address",
          "name": "",
          "type": "address"
        }
      ],
      "stateMutability": "view",
      "type": "function"
    },
    {
      "inputs": [],
      "name": "eip712Domain",
      "outputs": [
        {
          "internalType": "bytes1",
          "name": "fields",
          "type": "bytes1"
        },
        {
          "internalType": "string",
          "name": "name",
          "type": "string"
        },
        {
          "internalType": "string",
          "name": "version",
          "type": "string"
        },
        {
          "internalType": "uint256",
          "name": "chainId",
          "type": "uint256"
        },
        {
          "internalType": "address",
          "name": "verifyingContract",
          "type": "address"
        },
        {
          "internalType": "bytes32",
          "name": "salt",
          "type": "bytes32"
        },
        {
          "internalType": "uint256[]",
          "name": "extensions",
          "type": "uint256[]"
        }
      ],
      "stateMutability": "view",
      "type": "function"
    },
    {
      "inputs": [
        {
          "internalType": "address",
          "name": "account",
          "type": "address"
        },
        {
          "internalType": "uint256",
          "name": "timepoint",
          "type": "uint256"
        }
      ],
      "name": "getPastBalanceOf",
      "outputs": [
        {
          "internalType": "uint256",
          "name": "",
          "type": "uint256"
        }
      ],
      "stateMutability": "view",
      "type": "function"
    },
    {
      "inputs": [
        {
          "internalType": "address",
          "name": "account",
          "type": "address"
        },
        {
          "internalType": "uint256",
          "name": "timepoint",
          "type": "uint256"
        }
      ],
      "name": "getPastDelegate",
      "outputs": [
        {
          "internalType": "address",
          "name": "",
          "type": "address"
        }
      ],
      "stateMutability": "view",
      "type": "function"
    },
    {
      "inputs": [
        {
          "internalType": "uint256",
          "name": "timepoint",
          "type": "uint256"
        }
      ],
      "name": "getPastTotalSupply",
      "outputs": [
        {
          "internalType": "uint256",
          "name": "",
          "type": "uint256"
        }
      ],
      "stateMutability": "view",
      "type": "function"
    },
    {
      "inputs": [
        {
          "internalType": "address",
          "name": "account",
          "type": "address"
        },
        {
          "internalType": "uint256",
          "name": "timepoint",
          "type": "uint256"
        }
      ],
      "name": "getPastVotes",
      "outputs": [
        {
          "internalType": "uint256",
          "name": "",
          "type": "uint256"
        }
      ],
      "stateMutability": "view",
      "type": "function"
    },
    {
      "inputs": [
        {
          "internalType": "address",
          "name": "account",
          "type": "address"
        }
      ],
      "name": "getVotes",
      "outputs": [
        {
          "internalType": "uint256",
          "name": "",
          "type": "uint256"
        }
      ],
      "stateMutability": "view",
      "type": "function"
    },
    {
      "inputs": [],
      "name": "name",
      "outputs": [
        {
          "internalType": "string",
          "name": "",
          "type": "string"
        }
      ],
      "stateMutability": "view",
      "type": "function"
    },
    {
      "inputs": [
        {
          "internalType": "address",
          "name": "owner",
          "type": "address"
        }
      ],
      "name": "nonces",
      "outputs": [
        {
          "internalType": "uint256",
          "name": "",
          "type": "uint256"
        }
      ],
      "stateMutability": "view",
      "type": "function"
    },
    {
      "inputs": [
        {
          "internalType": "address",
          "name": "account",
          "type": "address"
        }
      ],
      "name": "numCheckpoints",
      "outputs": [
        {
          "internalType": "uint32",
          "name": "",
          "type": "uint32"
        }
      ],
      "stateMutability": "view",
      "type": "function"
    },
    {
      "inputs": [],
      "name": "symbol",
      "outputs": [
        {
          "internalType": "string",
          "name": "",
          "type": "string"
        }
      ],
      "stateMutability": "view",
      "type": "function"
    },
    {
      "inputs": [],
      "name": "totalSupply",
      "outputs": [
        {
          "internalType": "uint256",
          "name": "",
          "type": "uint256"
        }
      ],
      "stateMutability": "view",
      "type": "function"
    },
    {
      "inputs": [
        {
          "internalType": "address",
          "name": "to",
          "type": "address"
        },
        {
          "internalType": "uint256",
          "name": "value",
          "type": "uint256"
        }
      ],
      "name": "transfer",
      "outputs": [
        {
          "internalType": "bool",
          "name": "",
          "type": "bool"
        }
      ],
      "stateMutability": "nonpayable",
      "type": "function"
    },
    {
      "inputs": [
        {
          "internalType": "address",
          "name": "from",
          "type": "address"
        },
        {
          "internalType": "address",
          "name": "to",
          "type": "address"
        },
        {
          "internalType": "uint256",
          "name": "value",
          "type": "uint256"
        }
      ],
      "name": "transferFrom",
      "outputs": [
        {
          "internalType": "bool",
          "name": "",
          "type": "bool"
        }
      ],
      "stateMutability": "nonpayable",
      "type": "function"
    },
    {
      "stateMutability": "payable",
      "type": "receive"
    }
  ],
  "bytecode": "0x61016060405260405162002b1c38038062002b1c833981016040819052620000279162000255565b81818585600362000039838262000391565b50600462000048828262000391565b506200005a915083905060056200010c565b610120526200006b8160066200010c565b61014052815160208084019190912060e052815190820120610100524660a052620000f860e05161010051604080517f8b73c3c69bb8fe3d512ecc4cf759cc79239f7b179b0ffacaa9a75d522b39400f60208201529081019290925260608201524660808201523060a08201525f9060c00160405160208183030381529060405280519060200120905090565b60805250503060c05250620004b592505050565b5f6020835110156200012b57620001238362000144565b90506200013e565b8162000138848262000391565b5060ff90505b92915050565b5f80829050601f815111156200017a578260405163305a27a960e01b81526004016200017191906200045d565b60405180910390fd5b8051620001878262000491565b179392505050565b634e487b7160e01b5f52604160045260245ffd5b5f5b83811015620001bf578181015183820152602001620001a5565b50505f910152565b5f82601f830112620001d7575f80fd5b81516001600160401b0380821115620001f457620001f46200018f565b604051601f8301601f19908116603f011681019082821181831017156200021f576200021f6200018f565b8160405283815286602085880101111562000238575f80fd5b6200024b846020830160208901620001a3565b9695505050505050565b5f805f806080858703121562000269575f80fd5b84516001600160401b038082111562000280575f80fd5b6200028e88838901620001c7565b95506020870151915080821115620002a4575f80fd5b620002b288838901620001c7565b94506040870151915080821115620002c8575f80fd5b620002d688838901620001c7565b93506060870151915080821115620002ec575f80fd5b50620002fb87828801620001c7565b91505092959194509250565b600181811c908216806200031c57607f821691505b6020821081036200033b57634e487b7160e01b5f52602260045260245ffd5b50919050565b601f8211156200038c57805f5260205f20601f840160051c81016020851015620003685750805b601f840160051c820191505b8181101562000389575f815560010162000374565b50505b505050565b81516001600160401b03811115620003ad57620003ad6200018f565b620003c581620003be845462000307565b8462000341565b602080601f831160018114620003fb575f8415620003e35750858301515b5f19600386901b1c1916600185901b17855562000455565b5f85815260208120601f198616915b828110156200042b578886015182559484019460019091019084016200040a565b50858210156200044957878501515f19600388901b60f8161c191681555b505060018460011b0185555b505050505050565b602081525f82518060208401526200047d816040850160208701620001a3565b601f01601f19169190910160400192915050565b805160208083015191908110156200033b575f1960209190910360031b1b16919050565b60805160a05160c05160e051610100516101205161014051612615620005075f395f610e1901525f610dec01525f61120a01525f6111e201525f61113d01525f61116701525f61119101526126155ff3fe6080604052600436106102a7575f3560e01c806367354a841161016f578063a9059cbb116100d8578063d41ecac311610092578063e047838d1161006d578063e047838d14610887578063e42b0f48146108a6578063efb43b07146108c5578063f1127ed814610587575f80fd5b8063d41ecac314610622578063d7b7d40514610824578063dd62ed3e14610843575f80fd5b8063a9059cbb1461076a578063b2331d7d14610789578063b3068e41146107a8578063b369460c146107c7578063c3cda520146107e6578063cc461d6214610805575f80fd5b806384b0196e1161012957806384b0196e146106be578063861e3d3d146106e55780638e539e8c1461070457806391ddadf41461072357806395d89b41146107375780639ab24eb01461074b575f80fd5b806367354a84146105d25780636855a178146105e45780636b4ac502146106035780636fcfff451461062257806370a08231146106565780637ecebe001461068a575f80fd5b806332bc74aa11610211578063535de334116101cb578063535de334146104ea578063587cde1e146104fe5780635b28e1e8146105355780635c19a95c146105545780635f8d5e741461057357806361f5b53014610587575f80fd5b806332bc74aa1461044057806332cadf3c1461045f578063342db739146104735780633a46b1a8146104985780634bf5d7e9146104b7578063506a6f0c146104cb575f80fd5b806318160ddd1161026257806318160ddd1461037757806323b872dd1461038b5780632904df29146103aa5780632e8fbee5146103d057806330ff12bf146103ef578063313ce56714610425575f80fd5b8062cae220146102b257806306fdde03146102d3578063095ea7b3146102fd57806310d2aa7e1461032c5780631164d13b1461034f578063174ccd8214610363575f80fd5b366102ae57005b5f80fd5b3480156102bd575f80fd5b506102d16102cc366004612235565b6108e4565b005b3480156102de575f80fd5b506102e76108f2565b6040516102f491906122a9565b60405180910390f35b348015610308575f80fd5b5061031c6103173660046122bb565b610982565b60405190151581526020016102f4565b348015610337575f80fd5b506001600160d01b035b6040519081526020016102f4565b34801561035a575f80fd5b506102e76109a0565b34801561036e575f80fd5b506102e76109aa565b348015610382575f80fd5b50600254610341565b348015610396575f80fd5b5061031c6103a53660046122e3565b6109b4565b3480156103b5575f80fd5b50335b6040516001600160a01b0390911681526020016102f4565b3480156103db575f80fd5b506103416103ea36600461231c565b6109d7565b3480156103fa575f80fd5b5061040e610409366004612335565b610a37565b60405165ffffffffffff90911681526020016102f4565b348015610430575f80fd5b50604051601281526020016102f4565b34801561044b575f80fd5b506102d161045a36600461234c565b610a41565b34801561046a575f80fd5b506102e7610a53565b34801561047e575f80fd5b506103416e1a185c991a185d0b595e1c1bdcd959608a1b81565b3480156104a3575f80fd5b506103416104b23660046122bb565b610a90565b3480156104c2575f80fd5b506102e7610aca565b3480156104d6575f80fd5b506103416104e5366004612335565b610b42565b3480156104f5575f80fd5b50610341610b4c565b348015610509575f80fd5b506103b861051836600461231c565b6001600160a01b039081165f908152600860205260409020541690565b348015610540575f80fd5b506102d161054f3660046122e3565b610b55565b34801561055f575f80fd5b506102d161056e36600461231c565b610b65565b34801561057e575f80fd5b50610341610b70565b348015610592575f80fd5b506105a66105a136600461239c565b610b79565b60408051825165ffffffffffff1681526020928301516001600160d01b031692810192909252016102f4565b3480156105dd575f80fd5b505f610341565b3480156105ef575f80fd5b506102d16105fe3660046122e3565b610b9d565b34801561060e575f80fd5b506102d161061d3660046122bb565b610ba8565b34801561062d575f80fd5b5061064161063c36600461231c565b610bb2565b60405163ffffffff90911681526020016102f4565b348015610661575f80fd5b5061034161067036600461231c565b6001600160a01b03165f9081526020819052604090205490565b348015610695575f80fd5b506103416106a436600461231c565b6001600160a01b03165f9081526007602052604090205490565b3480156106c9575f80fd5b506106d2610bbc565b6040516102f497969594939291906123d9565b3480156106f0575f80fd5b506102d16106ff3660046122e3565b610bfe565b34801561070f575f80fd5b5061034161071e366004612335565b610c09565b34801561072e575f80fd5b5061040e610c2d565b348015610742575f80fd5b506102e7610c36565b348015610756575f80fd5b5061034161076536600461231c565b610c45565b348015610775575f80fd5b5061031c6107843660046122bb565b610c65565b348015610794575f80fd5b506102d16107a33660046122e3565b610c72565b3480156107b3575f80fd5b506103416107c236600461231c565b610c7d565b3480156107d2575f80fd5b506103b86107e13660046122bb565b610c87565b3480156107f1575f80fd5b506102d1610800366004612470565b610cb9565b348015610810575f80fd5b506102d161081f3660046122bb565b610d7a565b34801561082f575f80fd5b5061034161083e3660046122bb565b610d84565b34801561084e575f80fd5b5061034161085d366004612235565b6001600160a01b039182165f90815260016020908152604080832093909416825291909152205490565b348015610892575f80fd5b506102d16108a13660046122bb565b610dae565b3480156108b1575f80fd5b506102d16108c03660046122e3565b610db8565b3480156108d0575f80fd5b506102d16108df3660046122e3565b610dc3565b6108ee8282610dce565b5050565b606060038054610901906124cb565b80601f016020809104026020016040519081016040528092919081815260200182805461092d906124cb565b80156109785780601f1061094f57610100808354040283529160200191610978565b820191905f5260205f20905b81548152906001019060200180831161095b57829003601f168201915b5050505050905090565b5f3361098f818585610dd8565b60019150505b92915050565b905090565b606061099b610de5565b606061099b610e12565b5f336109c1858285610e3f565b6109cc858585610eb5565b506001949350505050565b6001600160a01b0381165f90815260076020526040812080546001810190915590507f8d5c13b1cd528a3e1895fdc833368c4e3af5391250c736a28e94c4fa59b3cee481604051610a2a91815260200190565b60405180910390a1919050565b5f61099582610f07565b610a4d84848484610f55565b50505050565b60605f368080601f0160208091040260200160405190810160405280939291908181526020018383808284375f9201919091525092949350505050565b5f610aba610a9d83610f07565b6001600160a01b0385165f90815260096020526040902090611027565b6001600160d01b03169392505050565b6060610ad46110d7565b65ffffffffffff16610ae4610c2d565b65ffffffffffff1614610b0a576040516301bfc1c560e61b815260040160405180910390fd5b5060408051808201909152601d81527f6d6f64653d626c6f636b6e756d6265722666726f6d3d64656661756c74000000602082015290565b5f610995826110e1565b5f61099b61110d565b610b60838383611126565b505050565b336108ee8183610dce565b5f61099b611131565b604080518082019091525f8082526020820152610b96838361125a565b9392505050565b610b6083838361128e565b6108ee82826112f3565b5f61099582611345565b5f6060805f805f6060610bcd610de5565b610bd5610e12565b604080515f80825260208201909252600f60f81b9b939a50919850469750309650945092509050565b610b60838383610dd8565b5f610c1e610c1683610f07565b600a90611027565b6001600160d01b031692915050565b5f61099b6110d7565b606060048054610901906124cb565b6001600160a01b0381165f908152600960205260408120610c1e90611366565b5f3361098f818585610eb5565b610b60838383610e3f565b5f6109958261139d565b5f610b96610c9483610f07565b6001600160a01b0385165f908152600b602052604090209065ffffffffffff166113ba565b83421115610ce257604051632341d78760e11b8152600481018590526024015b60405180910390fd5b604080517fe48329057bfd03d55e49b547132e39cffd9c1820ad7b9d4c5307691425d15adf60208201526001600160a01b0388169181019190915260608101869052608081018590525f90610d5b90610d539060a001604051602081830303815290604052805190602001206110e1565b858585611451565b9050610d6781876112f3565b610d718188610dce565b50505050505050565b6108ee828261147d565b5f610aba610d9183610f07565b6001600160a01b0385165f908152600c6020526040902090611027565b6108ee82826114b1565b610b608383836114e5565b610b60838383610eb5565b6108ee828261164e565b610b608383836001610f55565b606061099b7f00000000000000000000000000000000000000000000000000000000000000006005611689565b606061099b7f00000000000000000000000000000000000000000000000000000000000000006006611689565b6001600160a01b038381165f908152600160209081526040808320938616835292905220545f19811015610a4d5781811015610ea757604051637dc7a0d960e11b81526001600160a01b03841660048201526024810182905260448101839052606401610cd9565b610a4d84848484035f610f55565b6001600160a01b038316610ede57604051634b637e8f60e11b81525f6004820152602401610cd9565b6001600160a01b038216610b9d5760405163ec442f0560e01b81525f6004820152602401610cd9565b5f80610f11610c2d565b90508065ffffffffffff168310610f4c57604051637669fc0f60e11b81526004810184905265ffffffffffff82166024820152604401610cd9565b610b9683611732565b6001600160a01b038416610f7e5760405163e602df0560e01b81525f6004820152602401610cd9565b6001600160a01b038316610fa757604051634a1406b160e11b81525f6004820152602401610cd9565b6001600160a01b038085165f9081526001602090815260408083209387168352929052208290558015610a4d57826001600160a01b0316846001600160a01b03167f8c5be1e5ebec7d5bd14f71427d1e84f3dd0314c0f7b2291e5b200ac8c7c3b9258460405161101991815260200190565b60405180910390a350505050565b81545f9081816005811115611083575f61104084611768565b61104a9085612517565b5f8881526020902090915081015465ffffffffffff908116908716101561107357809150611081565b61107e81600161252a565b92505b505b5f611090878785856118c0565b905080156110ca576110b4876110a7600184612517565b5f91825260209091200190565b54600160301b90046001600160d01b03166110cc565b5f5b979650505050505050565b5f61099b43611732565b5f6109956110ed611131565b8360405161190160f01b8152600281019290925260228201526042902090565b5f611118600a611366565b6001600160d01b0316905090565b610b6083838361191f565b5f306001600160a01b037f00000000000000000000000000000000000000000000000000000000000000001614801561118957507f000000000000000000000000000000000000000000000000000000000000000046145b156111b357507f000000000000000000000000000000000000000000000000000000000000000090565b61099b604080517f8b73c3c69bb8fe3d512ecc4cf759cc79239f7b179b0ffacaa9a75d522b39400f60208201527f0000000000000000000000000000000000000000000000000000000000000000918101919091527f000000000000000000000000000000000000000000000000000000000000000060608201524660808201523060a08201525f9060c00160405160208183030381529060405280519060200120905090565b604080518082019091525f80825260208201526001600160a01b0383165f908152600960205260409020610b9690836119da565b611299838383611a47565b6001600160a01b038316610b55575f6112b160025490565b90506001600160d01b03808211156112e657604051630e58ae9360e11b81526004810183905260248101829052604401610cd9565b5050610b60838383611126565b6001600160a01b0382165f908152600760205260409020805460018101909155818114610b60576040516301d4b62360e61b81526001600160a01b038416600482015260248101829052604401610cd9565b6001600160a01b0381165f9081526009602052604081205461099590611b6d565b80545f9080156113955761137f836110a7600184612517565b54600160301b90046001600160d01b0316610b96565b5f9392505050565b6001600160a01b0381165f90815260208190526040812054610995565b81545f9081816005811115611417575f6113d384611768565b6113dd9085612517565b5f888152602090209091508101546001600160601b03908116908716101561140757809150611415565b61141281600161252a565b92505b505b5f61142487878585611b9d565b905080156110ca5761143b876110a7600184612517565b54600160601b90046001600160a01b03166110cc565b5f805f8061146188888888611bf6565b9250925092506114718282611cbe565b50909695505050505050565b6001600160a01b0382166114a65760405163ec442f0560e01b81525f6004820152602401610cd9565b6108ee5f838361128e565b6001600160a01b0382166114da57604051634b637e8f60e11b81525f6004820152602401610cd9565b6108ee825f8361128e565b816001600160a01b0316836001600160a01b03161415801561150657505f81115b15610b60576001600160a01b038316156115ad576001600160a01b0383165f908152600960205260408120819061154890611d7661154386611d81565b611db4565b6001600160d01b031691506001600160d01b03169150846001600160a01b03167fdec2bacdd2f05b59de34da9b523dff8be42e5e38e818c82fdb0bae774387a72483836040516115a2929190918252602082015260400190565b60405180910390a250505b6001600160a01b03821615610b60576001600160a01b0382165f90815260096020526040812081906115e590611dec61154386611d81565b6001600160d01b031691506001600160d01b03169150836001600160a01b03167fdec2bacdd2f05b59de34da9b523dff8be42e5e38e818c82fdb0bae774387a724838360405161163f929190918252602082015260400190565b60405180910390a25050505050565b6116588282611df7565b610a4d611663610c2d565b6001600160a01b0384165f908152600b602052604090209065ffffffffffff1683611e68565b606060ff83146116a35761169c83611e75565b9050610995565b8180546116af906124cb565b80601f01602080910402602001604051908101604052809291908181526020018280546116db906124cb565b80156117265780601f106116fd57610100808354040283529160200191611726565b820191905f5260205f20905b81548152906001019060200180831161170957829003601f168201915b50505050509050610995565b5f65ffffffffffff821115611764576040516306dfcc6560e41b81526030600482015260248101839052604401610cd9565b5090565b5f60018211611775575090565b816001600160801b821061178e5760809190911c9060401b5b6801000000000000000082106117a95760409190911c9060201b5b64010000000082106117c05760209190911c9060101b5b6201000082106117d55760109190911c9060081b5b61010082106117e95760089190911c9060041b5b601082106117fc5760049190911c9060021b5b600482106118085760011b5b600302600190811c908185816118205761182061253d565b048201901c905060018185816118385761183861253d565b048201901c905060018185816118505761185061253d565b048201901c905060018185816118685761186861253d565b048201901c905060018185816118805761188061253d565b048201901c905060018185816118985761189861253d565b048201901c90506118b78185816118b1576118b161253d565b04821190565b90039392505050565b5f5b81831015611917575f6118d58484611eb2565b5f8781526020902090915065ffffffffffff86169082015465ffffffffffff16111561190357809250611911565b61190e81600161252a565b93505b506118c2565b509392505050565b61192a838383611ecc565b816001600160a01b0316836001600160a01b031614610b60576001600160a01b0383161561198f5761198c61195d610c2d565b61196e6119698661139d565b611d81565b6001600160a01b0386165f908152600c602052604090209190611f41565b50505b6001600160a01b03821615610b60576119d36119a9610c2d565b6119b56119698561139d565b6001600160a01b0385165f908152600c602052604090209190611f41565b5050505050565b604080518082019091525f8082526020820152825f018263ffffffff1681548110611a0757611a07612551565b5f9182526020918290206040805180820190915291015465ffffffffffff81168252600160301b90046001600160d01b0316918101919091529392505050565b6001600160a01b038316611a71578060025f828254611a66919061252a565b90915550611ae19050565b6001600160a01b0383165f9081526020819052604090205481811015611ac35760405163391434e360e21b81526001600160a01b03851660048201526024810182905260448101839052606401610cd9565b6001600160a01b0384165f9081526020819052604090209082900390555b6001600160a01b038216611afd57600280548290039055611b1b565b6001600160a01b0382165f9081526020819052604090208054820190555b816001600160a01b0316836001600160a01b03167fddf252ad1be2c89b69c2b068fc378daa952ba7f163c4a11628f55a4df523b3ef83604051611b6091815260200190565b60405180910390a3505050565b5f63ffffffff821115611764576040516306dfcc6560e41b81526020600482015260248101839052604401610cd9565b5f5b81831015611917575f611bb28484611eb2565b5f878152602090209091506001600160601b038616908201546001600160601b03161115611be257809250611bf0565b611bed81600161252a565b93505b50611b9f565b5f80807f7fffffffffffffffffffffffffffffff5d576e7357a4501ddfe92f46681b20a0841115611c2f57505f91506003905082611cb4565b604080515f808252602082018084528a905260ff891692820192909252606081018790526080810186905260019060a0016020604051602081039080840390855afa158015611c80573d5f803e3d5ffd5b5050604051601f1901519150506001600160a01b038116611cab57505f925060019150829050611cb4565b92505f91508190505b9450945094915050565b5f826003811115611cd157611cd1612565565b03611cda575050565b6001826003811115611cee57611cee612565565b03611d0c5760405163f645eedf60e01b815260040160405180910390fd5b6002826003811115611d2057611d20612565565b03611d415760405163fce698f760e01b815260048101829052602401610cd9565b6003826003811115611d5557611d55612565565b036108ee576040516335e2f38360e21b815260048101829052602401610cd9565b5f610b968284612579565b5f6001600160d01b03821115611764576040516306dfcc6560e41b815260d0600482015260248101839052604401610cd9565b5f80611ddf611dc1610c2d565b611dd7611dcd88611366565b868863ffffffff16565b879190611f41565b915091505b935093915050565b5f610b9682846125a0565b6001600160a01b038281165f8181526008602052604080822080548686166001600160a01b0319821681179092559151919094169392849290917f3134e8a2e6d97e929a7e54011ea5485d7d196dd5f0ba4d4ef95803e8e3fc257f9190a4610b608183611e638661139d565b6114e5565b5f80611ddf858585611f4e565b60605f611e81836120a4565b6040805160208082528183019092529192505f91906020820181803683375050509182525060208101929092525090565b5f611ec060028484186125c0565b610b969084841661252a565b6001600160a01b038316611eee57611eeb600a611dec61154384611d81565b50505b6001600160a01b038216611f1057611f0d600a611d7661154384611d81565b50505b6001600160a01b038381165f90815260086020526040808220548584168352912054610b60929182169116836114e5565b5f80611ddf8585856120cb565b82545f9081908015612049575f611f6a876110a7600185612517565b80549091506001600160601b0380821691600160601b90046001600160a01b0316908816821115611fae57604051632520601d60e01b815260040160405180910390fd5b876001600160601b0316826001600160601b031603611fea5782546001600160601b0316600160601b6001600160a01b0389160217835561203b565b604080518082019091526001600160601b03808a1682526001600160a01b03808a1660208085019182528d54600181018f555f8f81529190912094519151909216600160601b029216919091179101555b9450859350611de492505050565b5050604080518082019091526001600160601b0380851682526001600160a01b0380851660208085019182528854600181018a555f8a815291822095519251909316600160601b029190931617920191909155905081611de4565b5f60ff8216601f81111561099557604051632cd44ac360e21b815260040160405180910390fd5b82545f90819080156121c0575f6120e7876110a7600185612517565b805490915065ffffffffffff80821691600160301b90046001600160d01b031690881682111561212a57604051632520601d60e01b815260040160405180910390fd5b8765ffffffffffff168265ffffffffffff160361216357825465ffffffffffff16600160301b6001600160d01b0389160217835561203b565b6040805180820190915265ffffffffffff808a1682526001600160d01b03808a1660208085019182528d54600181018f555f8f81529190912094519151909216600160301b029216919091179101559450859350611de492505050565b50506040805180820190915265ffffffffffff80851682526001600160d01b0380851660208085019182528854600181018a555f8a815291822095519251909316600160301b029190931617920191909155905081611de4565b80356001600160a01b0381168114612230575f80fd5b919050565b5f8060408385031215612246575f80fd5b61224f8361221a565b915061225d6020840161221a565b90509250929050565b5f81518084525f5b8181101561228a5760208185018101518683018201520161226e565b505f602082860101526020601f19601f83011685010191505092915050565b602081525f610b966020830184612266565b5f80604083850312156122cc575f80fd5b6122d58361221a565b946020939093013593505050565b5f805f606084860312156122f5575f80fd5b6122fe8461221a565b925061230c6020850161221a565b9150604084013590509250925092565b5f6020828403121561232c575f80fd5b610b968261221a565b5f60208284031215612345575f80fd5b5035919050565b5f805f806080858703121561235f575f80fd5b6123688561221a565b93506123766020860161221a565b92506040850135915060608501358015158114612391575f80fd5b939692955090935050565b5f80604083850312156123ad575f80fd5b6123b68361221a565b9150602083013563ffffffff811681146123ce575f80fd5b809150509250929050565b60ff60f81b881681525f602060e060208401526123f960e084018a612266565b838103604085015261240b818a612266565b606085018990526001600160a01b038816608086015260a0850187905284810360c0860152855180825260208088019350909101905f5b8181101561245e57835183529284019291840191600101612442565b50909c9b505050505050505050505050565b5f805f805f8060c08789031215612485575f80fd5b61248e8761221a565b95506020870135945060408701359350606087013560ff811681146124b1575f80fd5b9598949750929560808101359460a0909101359350915050565b600181811c908216806124df57607f821691505b6020821081036124fd57634e487b7160e01b5f52602260045260245ffd5b50919050565b634e487b7160e01b5f52601160045260245ffd5b8181038181111561099557610995612503565b8082018082111561099557610995612503565b634e487b7160e01b5f52601260045260245ffd5b634e487b7160e01b5f52603260045260245ffd5b634e487b7160e01b5f52602160045260245ffd5b6001600160d01b0382811682821603908082111561259957612599612503565b5092915050565b6001600160d01b0381811683821601908082111561259957612599612503565b5f826125da57634e487b7160e01b5f52601260045260245ffd5b50049056fea2646970667358221220c4caa3cfbf6bf7baaec9860b9eaf4c169ec302eb4e71bc73b2f5059f989e5de264736f6c63430008180033",
  "linkReferences": {},
  "deployedLinkReferences": {}
}