{
  "_format": "hh-sol-artifact-1",
  "contractName": "BatchCaller",
  "sourceName": "contracts/mocks/BatchCaller.sol",
  "abi": [
    {
      "inputs": [
        {
          "internalType": "address",
          "name": "target",
          "type": "address"
        }
      ],
      "name": "AddressEmptyCode",
      "type": "error"
    },
    {
      "inputs": [],
      "name": "FailedCall",
      "type": "error"
    },
    {
      "inputs": [
        {
          "internalType": "uint256",
          "name": "balance",
          "type": "uint256"
        },
        {
          "internalType": "uint256",
          "name": "needed",
          "type": "uint256"
        }
      ],
      "name": "InsufficientBalance",
      "type": "error"
    },
    {
      "inputs": [
        {
          "components": [
            {
              "internalType": "address",
              "name": "target",
              "type": "address"
            },
            {
              "internalType": "uint256",
              "name": "value",
              "type": "uint256"
            },
            {
              "internalType": "bytes",
              "name": "data",
              "type": "bytes"
            }
          ],
          "internalType": "struct BatchCaller.Call[]",
          "name": "calls",
          "type": "tuple[]"
        }
      ],
      "name": "execute",
      "outputs": [
        {
          "internalType": "bytes[]",
          "name": "",
          "type": "bytes[]"
        }
      ],
      "stateMutability": "nonpayable",
      "type": "function"
    }
  ],
  "bytecode": "0x608060405234801561000f575f80fd5b506104db8061001d5f395ff3fe608060405234801561000f575f80fd5b5060043610610029575f3560e01c80633f707e6b1461002d575b5f80fd5b61004061003b3660046102d5565b610056565b60405161004d9190610366565b60405180910390f35b60605f8267ffffffffffffffff811115610072576100726103de565b6040519080825280602002602001820160405280156100a557816020015b60608152602001906001900390816100905790505b5090505f5b838110156101a15761017c8585838181106100c7576100c76103f2565b90506020028101906100d99190610406565b6100e7906020810190610424565b8686848181106100f9576100f96103f2565b905060200281019061010b9190610406565b61011990604081019061044a565b8080601f0160208091040260200160405190810160405280939291908181526020018383808284375f920191909152508a9250899150869050818110610161576101616103f2565b90506020028101906101739190610406565b602001356101a9565b82828151811061018e5761018e6103f2565b60209081029190910101526001016100aa565b509392505050565b6060814710156101da5760405163cf47918160e01b8152476004820152602481018390526044015b60405180910390fd5b5f80856001600160a01b031684866040516101f59190610494565b5f6040518083038185875af1925050503d805f811461022f576040519150601f19603f3d011682016040523d82523d5f602084013e610234565b606091505b5091509150610244868383610250565b925050505b9392505050565b60608261026557610260826102ac565b610249565b815115801561027c57506001600160a01b0384163b155b156102a557604051639996b31560e01b81526001600160a01b03851660048201526024016101d1565b5080610249565b8051156102bc5780518082602001fd5b60405163d6bda27560e01b815260040160405180910390fd5b5f80602083850312156102e6575f80fd5b823567ffffffffffffffff808211156102fd575f80fd5b818501915085601f830112610310575f80fd5b81358181111561031e575f80fd5b8660208260051b8501011115610332575f80fd5b60209290920196919550909350505050565b5f5b8381101561035e578181015183820152602001610346565b50505f910152565b5f602080830181845280855180835260408601915060408160051b87010192508387015f5b828110156103d157878503603f19018452815180518087526103b2818989018a8501610344565b601f01601f19169590950186019450928501929085019060010161038b565b5092979650505050505050565b634e487b7160e01b5f52604160045260245ffd5b634e487b7160e01b5f52603260045260245ffd5b5f8235605e1983360301811261041a575f80fd5b9190910192915050565b5f60208284031215610434575f80fd5b81356001600160a01b0381168114610249575f80fd5b5f808335601e1984360301811261045f575f80fd5b83018035915067ffffffffffffffff821115610479575f80fd5b60200191503681900382131561048d575f80fd5b9250929050565b5f825161041a81846020870161034456fea2646970667358221220994f9ec8a8b9e2b003a263317b9fea95c3cde83c6c6904359fce5116abc0f71064736f6c63430008180033",
  "linkReferences": {},
  "deployedLinkReferences": {}
}