{
  "_format": "hh-sol-artifact-1",
  "contractName": "$ERC165InterfacesSupported",
  "sourceName": "contracts-exposed/mocks/ERC165/ERC165InterfacesSupported.sol",
  "abi": [
    {
      "inputs": [
        {
          "internalType": "bytes4[]",
          "name": "interfaceIds",
          "type": "bytes4[]"
        }
      ],
      "stateMutability": "payable",
      "type": "constructor"
    },
    {
      "inputs": [
        {
          "internalType": "bytes4",
          "name": "interfaceId",
          "type": "bytes4"
        }
      ],
      "name": "$_registerInterface",
      "outputs": [],
      "stateMutability": "nonpayable",
      "type": "function"
    },
    {
      "inputs": [],
      "name": "INTERFACE_ID_ERC165",
      "outputs": [
        {
          "internalType": "bytes4",
          "name": "",
          "type": "bytes4"
        }
      ],
      "stateMutability": "view",
      "type": "function"
    },
    {
      "inputs": [],
      "name": "__hh_exposed_bytecode_marker",
      "outputs": [
        {
          "internalType": "bytes32",
          "name": "",
          "type": "bytes32"
        }
      ],
      "stateMutability": "view",
      "type": "function"
    },
    {
      "inputs": [
        {
          "internalType": "bytes4",
          "name": "interfaceId",
          "type": "bytes4"
        }
      ],
      "name": "supportsInterface",
      "outputs": [
        {
          "internalType": "bool",
          "name": "",
          "type": "bool"
        }
      ],
      "stateMutability": "view",
      "type": "function"
    },
    {
      "stateMutability": "payable",
      "type": "receive"
    }
  ],
  "bytecode": "0x608060405260405161044a38038061044a83398101604081905261002291610140565b806100336301ffc9a760e01b610076565b5f5b815181101561006e57610066828281518110610053576100536101ff565b602002602001015161007660201b60201c565b600101610035565b505050610213565b6001600160e01b031980821690036100ec5760405162461bcd60e51b815260206004820152602f60248201527f455243313635496e7465726661636573537570706f727465643a20696e76616c60448201526e1a59081a5b9d195c999858d9481a59608a1b606482015260840160405180910390fd5b6001600160e01b0319165f908152602081905260409020805460ff19166001179055565b634e487b7160e01b5f52604160045260245ffd5b80516001600160e01b03198116811461013b575f80fd5b919050565b5f6020808385031215610151575f80fd5b82516001600160401b0380821115610167575f80fd5b818501915085601f83011261017a575f80fd5b81518181111561018c5761018c610110565b8060051b604051601f19603f830116810181811085821117156101b1576101b1610110565b6040529182528482019250838101850191888311156101ce575f80fd5b938501935b828510156101f3576101e485610124565b845293850193928501926101d3565b98975050505050505050565b634e487b7160e01b5f52603260045260245ffd5b61022a806102205f395ff3fe608060405260043610610041575f3560e01c806301ffc9a71461004c5780631cade5a914610099578063342db739146100ba57806334d7006c146100ed575f80fd5b3661004857005b5f80fd5b348015610057575f80fd5b506100846100663660046101c6565b6001600160e01b0319165f9081526020819052604090205460ff1690565b60405190151581526020015b60405180910390f35b3480156100a4575f80fd5b506100b86100b33660046101c6565b610120565b005b3480156100c5575f80fd5b506100df6e1a185c991a185d0b595e1c1bdcd959608a1b81565b604051908152602001610090565b3480156100f8575f80fd5b506101076301ffc9a760e01b81565b6040516001600160e01b03199091168152602001610090565b6101298161012c565b50565b6001600160e01b031980821690036101a25760405162461bcd60e51b815260206004820152602f60248201527f455243313635496e7465726661636573537570706f727465643a20696e76616c60448201526e1a59081a5b9d195c999858d9481a59608a1b606482015260840160405180910390fd5b6001600160e01b0319165f908152602081905260409020805460ff19166001179055565b5f602082840312156101d6575f80fd5b81356001600160e01b0319811681146101ed575f80fd5b939250505056fea26469706673582212209147473f5ea2e7adee2816d5622f8757c079fc5669303a26a18bfb672eeb347b64736f6c63430008180033",
  "linkReferences": {},
  "deployedLinkReferences": {}
}