{
  "_format": "hh-sol-artifact-1",
  "contractName": "$Checkpoints",
  "sourceName": "contracts-exposed/utils/structs/Checkpoints.sol",
  "abi": [
    {
      "inputs": [],
      "stateMutability": "payable",
      "type": "constructor"
    },
    {
      "inputs": [],
      "name": "CheckpointUnorderedInsertion",
      "type": "error"
    },
    {
      "anonymous": false,
      "inputs": [
        {
          "indexed": false,
          "internalType": "uint160",
          "name": "oldValue",
          "type": "uint160"
        },
        {
          "indexed": false,
          "internalType": "uint160",
          "name": "newValue",
          "type": "uint160"
        }
      ],
      "name": "return$push_Checkpoints_Trace160_uint96_uint160",
      "type": "event"
    },
    {
      "anonymous": false,
      "inputs": [
        {
          "indexed": false,
          "internalType": "uint208",
          "name": "oldValue",
          "type": "uint208"
        },
        {
          "indexed": false,
          "internalType": "uint208",
          "name": "newValue",
          "type": "uint208"
        }
      ],
      "name": "return$push_Checkpoints_Trace208_uint48_uint208",
      "type": "event"
    },
    {
      "anonymous": false,
      "inputs": [
        {
          "indexed": false,
          "internalType": "uint224",
          "name": "oldValue",
          "type": "uint224"
        },
        {
          "indexed": false,
          "internalType": "uint224",
          "name": "newValue",
          "type": "uint224"
        }
      ],
      "name": "return$push_Checkpoints_Trace224_uint32_uint224",
      "type": "event"
    },
    {
      "inputs": [
        {
          "internalType": "uint256",
          "name": "self",
          "type": "uint256"
        },
        {
          "internalType": "uint32",
          "name": "pos",
          "type": "uint32"
        }
      ],
      "name": "$at_Checkpoints_Trace160",
      "outputs": [
        {
          "components": [
            {
              "internalType": "uint96",
              "name": "_key",
              "type": "uint96"
            },
            {
              "internalType": "uint160",
              "name": "_value",
              "type": "uint160"
            }
          ],
          "internalType": "struct Checkpoints.Checkpoint160",
          "name": "ret0",
          "type": "tuple"
        }
      ],
      "stateMutability": "view",
      "type": "function"
    },
    {
      "inputs": [
        {
          "internalType": "uint256",
          "name": "self",
          "type": "uint256"
        },
        {
          "internalType": "uint32",
          "name": "pos",
          "type": "uint32"
        }
      ],
      "name": "$at_Checkpoints_Trace208",
      "outputs": [
        {
          "components": [
            {
              "internalType": "uint48",
              "name": "_key",
              "type": "uint48"
            },
            {
              "internalType": "uint208",
              "name": "_value",
              "type": "uint208"
            }
          ],
          "internalType": "struct Checkpoints.Checkpoint208",
          "name": "ret0",
          "type": "tuple"
        }
      ],
      "stateMutability": "view",
      "type": "function"
    },
    {
      "inputs": [
        {
          "internalType": "uint256",
          "name": "self",
          "type": "uint256"
        },
        {
          "internalType": "uint32",
          "name": "pos",
          "type": "uint32"
        }
      ],
      "name": "$at_Checkpoints_Trace224",
      "outputs": [
        {
          "components": [
            {
              "internalType": "uint32",
              "name": "_key",
              "type": "uint32"
            },
            {
              "internalType": "uint224",
              "name": "_value",
              "type": "uint224"
            }
          ],
          "internalType": "struct Checkpoints.Checkpoint224",
          "name": "ret0",
          "type": "tuple"
        }
      ],
      "stateMutability": "view",
      "type": "function"
    },
    {
      "inputs": [
        {
          "internalType": "uint256",
          "name": "self",
          "type": "uint256"
        }
      ],
      "name": "$latestCheckpoint_Checkpoints_Trace160",
      "outputs": [
        {
          "internalType": "bool",
          "name": "exists",
          "type": "bool"
        },
        {
          "internalType": "uint96",
          "name": "_key",
          "type": "uint96"
        },
        {
          "internalType": "uint160",
          "name": "_value",
          "type": "uint160"
        }
      ],
      "stateMutability": "view",
      "type": "function"
    },
    {
      "inputs": [
        {
          "internalType": "uint256",
          "name": "self",
          "type": "uint256"
        }
      ],
      "name": "$latestCheckpoint_Checkpoints_Trace208",
      "outputs": [
        {
          "internalType": "bool",
          "name": "exists",
          "type": "bool"
        },
        {
          "internalType": "uint48",
          "name": "_key",
          "type": "uint48"
        },
        {
          "internalType": "uint208",
          "name": "_value",
          "type": "uint208"
        }
      ],
      "stateMutability": "view",
      "type": "function"
    },
    {
      "inputs": [
        {
          "internalType": "uint256",
          "name": "self",
          "type": "uint256"
        }
      ],
      "name": "$latestCheckpoint_Checkpoints_Trace224",
      "outputs": [
        {
          "internalType": "bool",
          "name": "exists",
          "type": "bool"
        },
        {
          "internalType": "uint32",
          "name": "_key",
          "type": "uint32"
        },
        {
          "internalType": "uint224",
          "name": "_value",
          "type": "uint224"
        }
      ],
      "stateMutability": "view",
      "type": "function"
    },
    {
      "inputs": [
        {
          "internalType": "uint256",
          "name": "self",
          "type": "uint256"
        }
      ],
      "name": "$latest_Checkpoints_Trace160",
      "outputs": [
        {
          "internalType": "uint160",
          "name": "ret0",
          "type": "uint160"
        }
      ],
      "stateMutability": "view",
      "type": "function"
    },
    {
      "inputs": [
        {
          "internalType": "uint256",
          "name": "self",
          "type": "uint256"
        }
      ],
      "name": "$latest_Checkpoints_Trace208",
      "outputs": [
        {
          "internalType": "uint208",
          "name": "ret0",
          "type": "uint208"
        }
      ],
      "stateMutability": "view",
      "type": "function"
    },
    {
      "inputs": [
        {
          "internalType": "uint256",
          "name": "self",
          "type": "uint256"
        }
      ],
      "name": "$latest_Checkpoints_Trace224",
      "outputs": [
        {
          "internalType": "uint224",
          "name": "ret0",
          "type": "uint224"
        }
      ],
      "stateMutability": "view",
      "type": "function"
    },
    {
      "inputs": [
        {
          "internalType": "uint256",
          "name": "self",
          "type": "uint256"
        }
      ],
      "name": "$length_Checkpoints_Trace160",
      "outputs": [
        {
          "internalType": "uint256",
          "name": "ret0",
          "type": "uint256"
        }
      ],
      "stateMutability": "view",
      "type": "function"
    },
    {
      "inputs": [
        {
          "internalType": "uint256",
          "name": "self",
          "type": "uint256"
        }
      ],
      "name": "$length_Checkpoints_Trace208",
      "outputs": [
        {
          "internalType": "uint256",
          "name": "ret0",
          "type": "uint256"
        }
      ],
      "stateMutability": "view",
      "type": "function"
    },
    {
      "inputs": [
        {
          "internalType": "uint256",
          "name": "self",
          "type": "uint256"
        }
      ],
      "name": "$length_Checkpoints_Trace224",
      "outputs": [
        {
          "internalType": "uint256",
          "name": "ret0",
          "type": "uint256"
        }
      ],
      "stateMutability": "view",
      "type": "function"
    },
    {
      "inputs": [
        {
          "internalType": "uint256",
          "name": "self",
          "type": "uint256"
        },
        {
          "internalType": "uint48",
          "name": "key",
          "type": "uint48"
        }
      ],
      "name": "$lowerLookup",
      "outputs": [
        {
          "internalType": "uint208",
          "name": "ret0",
          "type": "uint208"
        }
      ],
      "stateMutability": "view",
      "type": "function"
    },
    {
      "inputs": [
        {
          "internalType": "uint256",
          "name": "self",
          "type": "uint256"
        },
        {
          "internalType": "uint32",
          "name": "key",
          "type": "uint32"
        }
      ],
      "name": "$lowerLookup",
      "outputs": [
        {
          "internalType": "uint224",
          "name": "ret0",
          "type": "uint224"
        }
      ],
      "stateMutability": "view",
      "type": "function"
    },
    {
      "inputs": [
        {
          "internalType": "uint256",
          "name": "self",
          "type": "uint256"
        },
        {
          "internalType": "uint96",
          "name": "key",
          "type": "uint96"
        }
      ],
      "name": "$lowerLookup",
      "outputs": [
        {
          "internalType": "uint160",
          "name": "ret0",
          "type": "uint160"
        }
      ],
      "stateMutability": "view",
      "type": "function"
    },
    {
      "inputs": [
        {
          "internalType": "uint256",
          "name": "self",
          "type": "uint256"
        },
        {
          "internalType": "uint96",
          "name": "key",
          "type": "uint96"
        },
        {
          "internalType": "uint160",
          "name": "value",
          "type": "uint160"
        }
      ],
      "name": "$push",
      "outputs": [
        {
          "internalType": "uint160",
          "name": "oldValue",
          "type": "uint160"
        },
        {
          "internalType": "uint160",
          "name": "newValue",
          "type": "uint160"
        }
      ],
      "stateMutability": "payable",
      "type": "function"
    },
    {
      "inputs": [
        {
          "internalType": "uint256",
          "name": "self",
          "type": "uint256"
        },
        {
          "internalType": "uint32",
          "name": "key",
          "type": "uint32"
        },
        {
          "internalType": "uint224",
          "name": "value",
          "type": "uint224"
        }
      ],
      "name": "$push",
      "outputs": [
        {
          "internalType": "uint224",
          "name": "oldValue",
          "type": "uint224"
        },
        {
          "internalType": "uint224",
          "name": "newValue",
          "type": "uint224"
        }
      ],
      "stateMutability": "payable",
      "type": "function"
    },
    {
      "inputs": [
        {
          "internalType": "uint256",
          "name": "self",
          "type": "uint256"
        },
        {
          "internalType": "uint48",
          "name": "key",
          "type": "uint48"
        },
        {
          "internalType": "uint208",
          "name": "value",
          "type": "uint208"
        }
      ],
      "name": "$push",
      "outputs": [
        {
          "internalType": "uint208",
          "name": "oldValue",
          "type": "uint208"
        },
        {
          "internalType": "uint208",
          "name": "newValue",
          "type": "uint208"
        }
      ],
      "stateMutability": "payable",
      "type": "function"
    },
    {
      "inputs": [
        {
          "internalType": "uint256",
          "name": "self",
          "type": "uint256"
        },
        {
          "internalType": "uint48",
          "name": "key",
          "type": "uint48"
        }
      ],
      "name": "$upperLookup",
      "outputs": [
        {
          "internalType": "uint208",
          "name": "ret0",
          "type": "uint208"
        }
      ],
      "stateMutability": "view",
      "type": "function"
    },
    {
      "inputs": [
        {
          "internalType": "uint256",
          "name": "self",
          "type": "uint256"
        },
        {
          "internalType": "uint96",
          "name": "key",
          "type": "uint96"
        }
      ],
      "name": "$upperLookup",
      "outputs": [
        {
          "internalType": "uint160",
          "name": "ret0",
          "type": "uint160"
        }
      ],
      "stateMutability": "view",
      "type": "function"
    },
    {
      "inputs": [
        {
          "internalType": "uint256",
          "name": "self",
          "type": "uint256"
        },
        {
          "internalType": "uint32",
          "name": "key",
          "type": "uint32"
        }
      ],
      "name": "$upperLookup",
      "outputs": [
        {
          "internalType": "uint224",
          "name": "ret0",
          "type": "uint224"
        }
      ],
      "stateMutability": "view",
      "type": "function"
    },
    {
      "inputs": [
        {
          "internalType": "uint256",
          "name": "self",
          "type": "uint256"
        },
        {
          "internalType": "uint48",
          "name": "key",
          "type": "uint48"
        }
      ],
      "name": "$upperLookupRecent",
      "outputs": [
        {
          "internalType": "uint208",
          "name": "ret0",
          "type": "uint208"
        }
      ],
      "stateMutability": "view",
      "type": "function"
    },
    {
      "inputs": [
        {
          "internalType": "uint256",
          "name": "self",
          "type": "uint256"
        },
        {
          "internalType": "uint32",
          "name": "key",
          "type": "uint32"
        }
      ],
      "name": "$upperLookupRecent",
      "outputs": [
        {
          "internalType": "uint224",
          "name": "ret0",
          "type": "uint224"
        }
      ],
      "stateMutability": "view",
      "type": "function"
    },
    {
      "inputs": [
        {
          "internalType": "uint256",
          "name": "self",
          "type": "uint256"
        },
        {
          "internalType": "uint96",
          "name": "key",
          "type": "uint96"
        }
      ],
      "name": "$upperLookupRecent",
      "outputs": [
        {
          "internalType": "uint160",
          "name": "ret0",
          "type": "uint160"
        }
      ],
      "stateMutability": "view",
      "type": "function"
    },
    {
      "inputs": [],
      "name": "__hh_exposed_bytecode_marker",
      "outputs": [
        {
          "internalType": "bytes32",
          "name": "",
          "type": "bytes32"
        }
      ],
      "stateMutability": "view",
      "type": "function"
    },
    {
      "stateMutability": "payable",
      "type": "receive"
    }
  ],
  "bytecode": "0x608060405261194b806100115f395ff3fe608060405260043610610164575f3560e01c806377e0cd10116100cd578063c3fd3ce411610087578063e598de3511610062578063e598de3514610575578063eec7887314610594578063f244a4bb146105de578063fed16462146105fd575f80fd5b8063c3fd3ce414610518578063c83e46f314610537578063de8e84f814610556575f80fd5b806377e0cd10146103de5780639cfcd60c146104115780639f2f3f9f14610444578063aa674ca414610463578063b0dcb63b14610482578063b6691375146104cb575f80fd5b8063530fe2a61161011e578063530fe2a61461029f57806366bbe7af146102d6578063681a3d3c146103095780636c7cf554146103545780636e5629c4146103a05780636e96b0f0146103bf575f80fd5b806301c329011461016f57806305c544d3146101a15780631e953a4c146101ed578063326816d614610224578063342db7391461025b5780634cee0f3414610280575f80fd5b3661016b57005b5f80fd5b34801561017a575f80fd5b5061018e61018936600461170c565b61061c565b6040519081526020015b60405180910390f35b3480156101ac575f80fd5b506101c06101bb36600461173b565b610631565b6040805182516001600160601b031681526020928301516001600160a01b03169281019290925201610198565b3480156101f8575f80fd5b5061020c61020736600461177a565b610662565b6040516001600160d01b039091168152602001610198565b34801561022f575f80fd5b5061024361023e36600461173b565b610679565b6040516001600160e01b039091168152602001610198565b348015610266575f80fd5b5061018e6e1a185c991a185d0b595e1c1bdcd959608a1b81565b34801561028b575f80fd5b5061024361029a36600461170c565b610690565b3480156102aa575f80fd5b506102be6102b936600461170c565b6106a6565b6040516001600160a01b039091168152602001610198565b6102e96102e43660046117b1565b6106bc565b604080516001600160a01b03938416815292909116602083015201610198565b348015610314575f80fd5b5061032861032336600461173b565b610728565b60408051825165ffffffffffff1681526020928301516001600160d01b03169281019290925201610198565b34801561035f575f80fd5b5061037361036e36600461170c565b610752565b60408051931515845265ffffffffffff90921660208401526001600160d01b031690820152606001610198565b3480156103ab575f80fd5b5061020c6103ba36600461177a565b610779565b3480156103ca575f80fd5b506102be6103d93660046117f9565b610790565b6103f16103ec36600461181a565b6107a7565b604080516001600160e01b03938416815292909116602083015201610198565b61042461041f366004611857565b610807565b604080516001600160d01b03938416815292909116602083015201610198565b34801561044f575f80fd5b5061024361045e36600461173b565b610867565b34801561046e575f80fd5b5061018e61047d36600461170c565b61087e565b34801561048d575f80fd5b506104a161049c36600461173b565b610891565b60408051825163ffffffff1681526020928301516001600160e01b03169281019290925201610198565b3480156104d6575f80fd5b506104ea6104e536600461170c565b6108bb565b6040805193151584526001600160601b0390921660208401526001600160a01b031690820152606001610198565b348015610523575f80fd5b5061020c61053236600461177a565b6108d5565b348015610542575f80fd5b5061018e61055136600461170c565b6108ec565b348015610561575f80fd5b5061024361057036600461173b565b6108ff565b348015610580575f80fd5b506102be61058f3660046117f9565b610916565b34801561059f575f80fd5b506105b36105ae36600461170c565b61092d565b60408051931515845263ffffffff90921660208401526001600160e01b031690820152606001610198565b3480156105e9575f80fd5b506102be6105f83660046117f9565b610947565b348015610608575f80fd5b5061020c61061736600461170c565b61095e565b5f818152600260205260408120545b92915050565b604080518082019091525f80825260208201525f83815260026020526040902061065b9083610974565b9392505050565b5f82815260016020526040812061065b90836109e3565b5f82815260208190526040812061065b9083610a29565b5f81815260208190526040812061062b90610a64565b5f81815260026020526040812061062b90610aa8565b5f83815260026020526040812081906106d6908585610ad7565b604080516001600160a01b038085168252831660208201529294509092507f626c8ce225f44cc5b03293fcee3cf98d036fd95521ae8edf6e7c1f775488e76c91015b60405180910390a1935093915050565b604080518082019091525f80825260208201525f83815260016020526040902061065b9083610af1565b5f8181526001602052604081208190819061076c90610b5e565b9196909550909350915050565b5f82815260016020526040812061065b9083610bbd565b5f82815260026020526040812061065b9083610be5565b5f83815260208190526040812081906107c1908585610c23565b604080516001600160e01b038085168252831660208201529294509092507fa39ed3a515efcf2218218d70084184e62fe951c8ea50030e6f4b84596b5af2949101610718565b5f8381526001602052604081208190610821908585610c30565b604080516001600160d01b038085168252831660208201529294509092507f6c20e72195427ac38745bf1c771ede88f206dec0695a0f73b4719865f5a8e2d89101610718565b5f82815260208190526040812061065b9083610c3d565b5f8181526001602052604081205461062b565b604080518082019091525f80825260208201525f83815260208190526040902061065b9083610c65565b5f8181526002602052604081208190819061076c90610cd0565b5f82815260016020526040812061065b9083610d29565b5f8181526020819052604081205461062b565b5f82815260208190526040812061065b9083610dcc565b5f82815260026020526040812061065b9083610e60565b5f8181526020819052604081208190819061076c90610ef7565b5f82815260026020526040812061065b9083610f4d565b5f81815260016020526040812061062b90610f76565b604080518082019091525f8082526020820152825f018263ffffffff16815481106109a1576109a1611894565b5f918252602091829020604080518082019091529101546001600160601b0381168252600160601b90046001600160a01b031691810191909152905092915050565b81545f90816109f485858385610fa5565b9050818114610a1e575f8581526020902081015b54600160301b90046001600160d01b0316610a20565b5f5b95945050505050565b81545f9081610a3a85858385611004565b9050818114610a1e575f8581526020902081015b54600160201b90046001600160e01b0316610a20565b80545f908015610aa057610a8a83610a7d6001846118bc565b5f91825260209091200190565b54600160201b90046001600160e01b031661065b565b5f9392505050565b80545f908015610aa057610ac183610a7d6001846118bc565b54600160601b90046001600160a01b031661065b565b5f80610ae4858585611057565b915091505b935093915050565b604080518082019091525f8082526020820152825f018263ffffffff1681548110610b1e57610b1e611894565b5f9182526020918290206040805180820190915291015465ffffffffffff81168252600160301b90046001600160d01b0316918101919091529392505050565b80545f9081908190808203610b7c575f805f93509350935050610bb6565b5f610b8c86610a7d6001856118bc565b546001955065ffffffffffff81169450600160301b90046001600160d01b03169250610bb6915050565b9193909250565b81545f9081610bce858583856111ad565b90508015610a1e57610a0885610a7d6001846118bc565b81545f9081610bf685858385611204565b90508015610a1e57610c0d85610a7d6001846118bc565b54600160601b90046001600160a01b0316610a20565b5f80610ae485858561125d565b5f80610ae48585856113a0565b81545f9081610c4e858583856114ef565b90508015610a1e57610a4e85610a7d6001846118bc565b604080518082019091525f8082526020820152825f018263ffffffff1681548110610c9257610c92611894565b5f9182526020918290206040805180820190915291015463ffffffff81168252600160201b90046001600160e01b0316918101919091529392505050565b80545f9081908190808203610cee575f805f93509350935050610bb6565b5f610cfe86610a7d6001856118bc565b54600195506001600160601b0381169450600160601b90046001600160a01b03169250610bb6915050565b81545f9081816005811115610d85575f610d4284611542565b610d4c90856118bc565b5f8881526020902090915081015465ffffffffffff9081169087161015610d7557809150610d83565b610d808160016118cf565b92505b505b5f610d92878785856111ad565b90508015610dbf57610da987610a7d6001846118bc565b54600160301b90046001600160d01b0316610dc1565b5f5b979650505050505050565b81545f9081816005811115610e26575f610de584611542565b610def90856118bc565b5f8881526020902090915081015463ffffffff9081169087161015610e1657809150610e24565b610e218160016118cf565b92505b505b5f610e33878785856114ef565b90508015610dbf57610e4a87610a7d6001846118bc565b54600160201b90046001600160e01b0316610dc1565b81545f9081816005811115610ebd575f610e7984611542565b610e8390856118bc565b5f888152602090209091508101546001600160601b039081169087161015610ead57809150610ebb565b610eb88160016118cf565b92505b505b5f610eca87878585611204565b90508015610dbf57610ee187610a7d6001846118bc565b54600160601b90046001600160a01b0316610dc1565b80545f9081908190808203610f15575f805f93509350935050610bb6565b5f610f2586610a7d6001856118bc565b546001955063ffffffff81169450600160201b90046001600160e01b03169250610bb6915050565b81545f9081610f5e85858385611699565b9050818114610a1e575f858152602090208101610c0d565b80545f908015610aa057610f8f83610a7d6001846118bc565b54600160301b90046001600160d01b031661065b565b5f5b81831015610ffc575f610fba84846116f2565b5f8781526020902090915065ffffffffffff86169082015465ffffffffffff161015610ff257610feb8160016118cf565b9350610ff6565b8092505b50610fa7565b509392505050565b5f5b81831015610ffc575f61101984846116f2565b5f8781526020902090915063ffffffff86169082015463ffffffff16101561104d576110468160016118cf565b9350611051565b8092505b50611006565b82545f9081908015611152575f61107387610a7d6001856118bc565b80549091506001600160601b0380821691600160601b90046001600160a01b03169088168211156110b757604051632520601d60e01b815260040160405180910390fd5b876001600160601b0316826001600160601b0316036110f35782546001600160601b0316600160601b6001600160a01b03891602178355611144565b604080518082019091526001600160601b03808a1682526001600160a01b03808a1660208085019182528d54600181018f555f8f81529190912094519151909216600160601b029216919091179101555b9450859350610ae992505050565b5050604080518082019091526001600160601b0380851682526001600160a01b0380851660208085019182528854600181018a555f8a815291822095519251909316600160601b029190931617920191909155905081610ae9565b5f5b81831015610ffc575f6111c284846116f2565b5f8781526020902090915065ffffffffffff86169082015465ffffffffffff1611156111f0578092506111fe565b6111fb8160016118cf565b93505b506111af565b5f5b81831015610ffc575f61121984846116f2565b5f878152602090209091506001600160601b038616908201546001600160601b0316111561124957809250611257565b6112548160016118cf565b93505b50611206565b82545f9081908015611348575f61127987610a7d6001856118bc565b805490915063ffffffff80821691600160201b90046001600160e01b03169088168211156112ba57604051632520601d60e01b815260040160405180910390fd5b8763ffffffff168263ffffffff16036112ed57825463ffffffff16600160201b6001600160e01b03891602178355611144565b6040805180820190915263ffffffff808a1682526001600160e01b03808a1660208085019182528d54600181018f555f8f81529190912094519151909216600160201b029216919091179101559450859350610ae992505050565b50506040805180820190915263ffffffff80851682526001600160e01b0380851660208085019182528854600181018a555f8a815291822095519251909316600160201b029190931617920191909155905081610ae9565b82545f9081908015611495575f6113bc87610a7d6001856118bc565b805490915065ffffffffffff80821691600160301b90046001600160d01b03169088168211156113ff57604051632520601d60e01b815260040160405180910390fd5b8765ffffffffffff168265ffffffffffff160361143857825465ffffffffffff16600160301b6001600160d01b03891602178355611144565b6040805180820190915265ffffffffffff808a1682526001600160d01b03808a1660208085019182528d54600181018f555f8f81529190912094519151909216600160301b029216919091179101559450859350610ae992505050565b50506040805180820190915265ffffffffffff80851682526001600160d01b0380851660208085019182528854600181018a555f8a815291822095519251909316600160301b029190931617920191909155905081610ae9565b5f5b81831015610ffc575f61150484846116f2565b5f8781526020902090915063ffffffff86169082015463ffffffff16111561152e5780925061153c565b6115398160016118cf565b93505b506114f1565b5f6001821161154f575090565b816001600160801b82106115685760809190911c9060401b5b6801000000000000000082106115835760409190911c9060201b5b600160201b82106115995760209190911c9060101b5b6201000082106115ae5760109190911c9060081b5b61010082106115c25760089190911c9060041b5b601082106115d55760049190911c9060021b5b600482106115e15760011b5b600302600190811c908185816115f9576115f96118e2565b048201901c90506001818581611611576116116118e2565b048201901c90506001818581611629576116296118e2565b048201901c90506001818581611641576116416118e2565b048201901c90506001818581611659576116596118e2565b048201901c90506001818581611671576116716118e2565b048201901c905061169081858161168a5761168a6118e2565b04821190565b90039392505050565b5f5b81831015610ffc575f6116ae84846116f2565b5f878152602090209091506001600160601b038616908201546001600160601b031610156116e8576116e18160016118cf565b93506116ec565b8092505b5061169b565b5f61170060028484186118f6565b61065b908484166118cf565b5f6020828403121561171c575f80fd5b5035919050565b803563ffffffff81168114611736575f80fd5b919050565b5f806040838503121561174c575f80fd5b8235915061175c60208401611723565b90509250929050565b803565ffffffffffff81168114611736575f80fd5b5f806040838503121561178b575f80fd5b8235915061175c60208401611765565b80356001600160601b0381168114611736575f80fd5b5f805f606084860312156117c3575f80fd5b833592506117d36020850161179b565b915060408401356001600160a01b03811681146117ee575f80fd5b809150509250925092565b5f806040838503121561180a575f80fd5b8235915061175c6020840161179b565b5f805f6060848603121561182c575f80fd5b8335925061183c60208501611723565b915060408401356001600160e01b03811681146117ee575f80fd5b5f805f60608486031215611869575f80fd5b8335925061187960208501611765565b915060408401356001600160d01b03811681146117ee575f80fd5b634e487b7160e01b5f52603260045260245ffd5b634e487b7160e01b5f52601160045260245ffd5b8181038181111561062b5761062b6118a8565b8082018082111561062b5761062b6118a8565b634e487b7160e01b5f52601260045260245ffd5b5f8261191057634e487b7160e01b5f52601260045260245ffd5b50049056fea264697066735822122065206b4a5fa6b3437f31123b35987187bbc2a895b70110eb98ec8a4305141cf464736f6c63430008180033",
  "linkReferences": {},
  "deployedLinkReferences": {}
}