{
  "_format": "hh-sol-artifact-1",
  "contractName": "$VotesMock",
  "sourceName": "contracts-exposed/mocks/VotesMock.sol",
  "abi": [
    {
      "inputs": [
        {
          "internalType": "string",
          "name": "name",
          "type": "string"
        },
        {
          "internalType": "string",
          "name": "version",
          "type": "string"
        }
      ],
      "stateMutability": "payable",
      "type": "constructor"
    },
    {
      "inputs": [],
      "name": "CheckpointUnorderedInsertion",
      "type": "error"
    },
    {
      "inputs": [],
      "name": "ECDSAInvalidSignature",
      "type": "error"
    },
    {
      "inputs": [
        {
          "internalType": "uint256",
          "name": "length",
          "type": "uint256"
        }
      ],
      "name": "ECDSAInvalidSignatureLength",
      "type": "error"
    },
    {
      "inputs": [
        {
          "internalType": "bytes32",
          "name": "s",
          "type": "bytes32"
        }
      ],
      "name": "ECDSAInvalidSignatureS",
      "type": "error"
    },
    {
      "inputs": [
        {
          "internalType": "uint256",
          "name": "timepoint",
          "type": "uint256"
        },
        {
          "internalType": "uint48",
          "name": "clock",
          "type": "uint48"
        }
      ],
      "name": "ERC5805FutureLookup",
      "type": "error"
    },
    {
      "inputs": [],
      "name": "ERC6372InconsistentClock",
      "type": "error"
    },
    {
      "inputs": [
        {
          "internalType": "address",
          "name": "account",
          "type": "address"
        },
        {
          "internalType": "uint256",
          "name": "currentNonce",
          "type": "uint256"
        }
      ],
      "name": "InvalidAccountNonce",
      "type": "error"
    },
    {
      "inputs": [],
      "name": "InvalidShortString",
      "type": "error"
    },
    {
      "inputs": [
        {
          "internalType": "uint8",
          "name": "bits",
          "type": "uint8"
        },
        {
          "internalType": "uint256",
          "name": "value",
          "type": "uint256"
        }
      ],
      "name": "SafeCastOverflowedUintDowncast",
      "type": "error"
    },
    {
      "inputs": [
        {
          "internalType": "string",
          "name": "str",
          "type": "string"
        }
      ],
      "name": "StringTooLong",
      "type": "error"
    },
    {
      "inputs": [
        {
          "internalType": "uint256",
          "name": "expiry",
          "type": "uint256"
        }
      ],
      "name": "VotesExpiredSignature",
      "type": "error"
    },
    {
      "anonymous": false,
      "inputs": [
        {
          "indexed": true,
          "internalType": "address",
          "name": "delegator",
          "type": "address"
        },
        {
          "indexed": true,
          "internalType": "address",
          "name": "fromDelegate",
          "type": "address"
        },
        {
          "indexed": true,
          "internalType": "address",
          "name": "toDelegate",
          "type": "address"
        }
      ],
      "name": "DelegateChanged",
      "type": "event"
    },
    {
      "anonymous": false,
      "inputs": [
        {
          "indexed": true,
          "internalType": "address",
          "name": "delegate",
          "type": "address"
        },
        {
          "indexed": false,
          "internalType": "uint256",
          "name": "previousVotes",
          "type": "uint256"
        },
        {
          "indexed": false,
          "internalType": "uint256",
          "name": "newVotes",
          "type": "uint256"
        }
      ],
      "name": "DelegateVotesChanged",
      "type": "event"
    },
    {
      "anonymous": false,
      "inputs": [],
      "name": "EIP712DomainChanged",
      "type": "event"
    },
    {
      "anonymous": false,
      "inputs": [
        {
          "indexed": false,
          "internalType": "uint256",
          "name": "ret0",
          "type": "uint256"
        }
      ],
      "name": "return$_useNonce",
      "type": "event"
    },
    {
      "inputs": [],
      "name": "$_EIP712Name",
      "outputs": [
        {
          "internalType": "string",
          "name": "ret0",
          "type": "string"
        }
      ],
      "stateMutability": "view",
      "type": "function"
    },
    {
      "inputs": [],
      "name": "$_EIP712Version",
      "outputs": [
        {
          "internalType": "string",
          "name": "ret0",
          "type": "string"
        }
      ],
      "stateMutability": "view",
      "type": "function"
    },
    {
      "inputs": [
        {
          "internalType": "address",
          "name": "account",
          "type": "address"
        },
        {
          "internalType": "uint256",
          "name": "votes",
          "type": "uint256"
        }
      ],
      "name": "$_burn",
      "outputs": [],
      "stateMutability": "nonpayable",
      "type": "function"
    },
    {
      "inputs": [
        {
          "internalType": "address",
          "name": "account",
          "type": "address"
        },
        {
          "internalType": "uint32",
          "name": "pos",
          "type": "uint32"
        }
      ],
      "name": "$_checkpoints",
      "outputs": [
        {
          "components": [
            {
              "internalType": "uint48",
              "name": "_key",
              "type": "uint48"
            },
            {
              "internalType": "uint208",
              "name": "_value",
              "type": "uint208"
            }
          ],
          "internalType": "struct Checkpoints.Checkpoint208",
          "name": "ret0",
          "type": "tuple"
        }
      ],
      "stateMutability": "view",
      "type": "function"
    },
    {
      "inputs": [],
      "name": "$_contextSuffixLength",
      "outputs": [
        {
          "internalType": "uint256",
          "name": "ret0",
          "type": "uint256"
        }
      ],
      "stateMutability": "view",
      "type": "function"
    },
    {
      "inputs": [
        {
          "internalType": "address",
          "name": "account",
          "type": "address"
        },
        {
          "internalType": "address",
          "name": "delegatee",
          "type": "address"
        }
      ],
      "name": "$_delegate",
      "outputs": [],
      "stateMutability": "nonpayable",
      "type": "function"
    },
    {
      "inputs": [],
      "name": "$_domainSeparatorV4",
      "outputs": [
        {
          "internalType": "bytes32",
          "name": "ret0",
          "type": "bytes32"
        }
      ],
      "stateMutability": "view",
      "type": "function"
    },
    {
      "inputs": [],
      "name": "$_getTotalSupply",
      "outputs": [
        {
          "internalType": "uint256",
          "name": "ret0",
          "type": "uint256"
        }
      ],
      "stateMutability": "view",
      "type": "function"
    },
    {
      "inputs": [
        {
          "internalType": "address",
          "name": "account",
          "type": "address"
        }
      ],
      "name": "$_getVotingUnits",
      "outputs": [
        {
          "internalType": "uint256",
          "name": "ret0",
          "type": "uint256"
        }
      ],
      "stateMutability": "view",
      "type": "function"
    },
    {
      "inputs": [
        {
          "internalType": "bytes32",
          "name": "structHash",
          "type": "bytes32"
        }
      ],
      "name": "$_hashTypedDataV4",
      "outputs": [
        {
          "internalType": "bytes32",
          "name": "ret0",
          "type": "bytes32"
        }
      ],
      "stateMutability": "view",
      "type": "function"
    },
    {
      "inputs": [
        {
          "internalType": "address",
          "name": "account",
          "type": "address"
        },
        {
          "internalType": "uint256",
          "name": "votes",
          "type": "uint256"
        }
      ],
      "name": "$_mint",
      "outputs": [],
      "stateMutability": "nonpayable",
      "type": "function"
    },
    {
      "inputs": [
        {
          "internalType": "address",
          "name": "from",
          "type": "address"
        },
        {
          "internalType": "address",
          "name": "to",
          "type": "address"
        },
        {
          "internalType": "uint256",
          "name": "amount",
          "type": "uint256"
        }
      ],
      "name": "$_moveDelegateVotes",
      "outputs": [],
      "stateMutability": "nonpayable",
      "type": "function"
    },
    {
      "inputs": [],
      "name": "$_msgData",
      "outputs": [
        {
          "internalType": "bytes",
          "name": "ret0",
          "type": "bytes"
        }
      ],
      "stateMutability": "view",
      "type": "function"
    },
    {
      "inputs": [],
      "name": "$_msgSender",
      "outputs": [
        {
          "internalType": "address",
          "name": "ret0",
          "type": "address"
        }
      ],
      "stateMutability": "view",
      "type": "function"
    },
    {
      "inputs": [
        {
          "internalType": "address",
          "name": "account",
          "type": "address"
        }
      ],
      "name": "$_numCheckpoints",
      "outputs": [
        {
          "internalType": "uint32",
          "name": "ret0",
          "type": "uint32"
        }
      ],
      "stateMutability": "view",
      "type": "function"
    },
    {
      "inputs": [
        {
          "internalType": "address",
          "name": "from",
          "type": "address"
        },
        {
          "internalType": "address",
          "name": "to",
          "type": "address"
        },
        {
          "internalType": "uint256",
          "name": "amount",
          "type": "uint256"
        }
      ],
      "name": "$_transferVotingUnits",
      "outputs": [],
      "stateMutability": "nonpayable",
      "type": "function"
    },
    {
      "inputs": [
        {
          "internalType": "address",
          "name": "owner",
          "type": "address"
        },
        {
          "internalType": "uint256",
          "name": "nonce",
          "type": "uint256"
        }
      ],
      "name": "$_useCheckedNonce",
      "outputs": [],
      "stateMutability": "nonpayable",
      "type": "function"
    },
    {
      "inputs": [
        {
          "internalType": "address",
          "name": "owner",
          "type": "address"
        }
      ],
      "name": "$_useNonce",
      "outputs": [
        {
          "internalType": "uint256",
          "name": "ret0",
          "type": "uint256"
        }
      ],
      "stateMutability": "nonpayable",
      "type": "function"
    },
    {
      "inputs": [
        {
          "internalType": "uint256",
          "name": "timepoint",
          "type": "uint256"
        }
      ],
      "name": "$_validateTimepoint",
      "outputs": [
        {
          "internalType": "uint48",
          "name": "ret0",
          "type": "uint48"
        }
      ],
      "stateMutability": "view",
      "type": "function"
    },
    {
      "inputs": [],
      "name": "CLOCK_MODE",
      "outputs": [
        {
          "internalType": "string",
          "name": "",
          "type": "string"
        }
      ],
      "stateMutability": "view",
      "type": "function"
    },
    {
      "inputs": [],
      "name": "__hh_exposed_bytecode_marker",
      "outputs": [
        {
          "internalType": "bytes32",
          "name": "",
          "type": "bytes32"
        }
      ],
      "stateMutability": "view",
      "type": "function"
    },
    {
      "inputs": [],
      "name": "clock",
      "outputs": [
        {
          "internalType": "uint48",
          "name": "",
          "type": "uint48"
        }
      ],
      "stateMutability": "view",
      "type": "function"
    },
    {
      "inputs": [
        {
          "internalType": "address",
          "name": "delegatee",
          "type": "address"
        }
      ],
      "name": "delegate",
      "outputs": [],
      "stateMutability": "nonpayable",
      "type": "function"
    },
    {
      "inputs": [
        {
          "internalType": "address",
          "name": "account",
          "type": "address"
        },
        {
          "internalType": "address",
          "name": "newDelegation",
          "type": "address"
        }
      ],
      "name": "delegate",
      "outputs": [],
      "stateMutability": "nonpayable",
      "type": "function"
    },
    {
      "inputs": [
        {
          "internalType": "address",
          "name": "delegatee",
          "type": "address"
        },
        {
          "internalType": "uint256",
          "name": "nonce",
          "type": "uint256"
        },
        {
          "internalType": "uint256",
          "name": "expiry",
          "type": "uint256"
        },
        {
          "internalType": "uint8",
          "name": "v",
          "type": "uint8"
        },
        {
          "internalType": "bytes32",
          "name": "r",
          "type": "bytes32"
        },
        {
          "internalType": "bytes32",
          "name": "s",
          "type": "bytes32"
        }
      ],
      "name": "delegateBySig",
      "outputs": [],
      "stateMutability": "nonpayable",
      "type": "function"
    },
    {
      "inputs": [
        {
          "internalType": "address",
          "name": "account",
          "type": "address"
        }
      ],
      "name": "delegates",
      "outputs": [
        {
          "internalType": "address",
          "name": "",
          "type": "address"
        }
      ],
      "stateMutability": "view",
      "type": "function"
    },
    {
      "inputs": [],
      "name": "eip712Domain",
      "outputs": [
        {
          "internalType": "bytes1",
          "name": "fields",
          "type": "bytes1"
        },
        {
          "internalType": "string",
          "name": "name",
          "type": "string"
        },
        {
          "internalType": "string",
          "name": "version",
          "type": "string"
        },
        {
          "internalType": "uint256",
          "name": "chainId",
          "type": "uint256"
        },
        {
          "internalType": "address",
          "name": "verifyingContract",
          "type": "address"
        },
        {
          "internalType": "bytes32",
          "name": "salt",
          "type": "bytes32"
        },
        {
          "internalType": "uint256[]",
          "name": "extensions",
          "type": "uint256[]"
        }
      ],
      "stateMutability": "view",
      "type": "function"
    },
    {
      "inputs": [
        {
          "internalType": "uint256",
          "name": "timepoint",
          "type": "uint256"
        }
      ],
      "name": "getPastTotalSupply",
      "outputs": [
        {
          "internalType": "uint256",
          "name": "",
          "type": "uint256"
        }
      ],
      "stateMutability": "view",
      "type": "function"
    },
    {
      "inputs": [
        {
          "internalType": "address",
          "name": "account",
          "type": "address"
        },
        {
          "internalType": "uint256",
          "name": "timepoint",
          "type": "uint256"
        }
      ],
      "name": "getPastVotes",
      "outputs": [
        {
          "internalType": "uint256",
          "name": "",
          "type": "uint256"
        }
      ],
      "stateMutability": "view",
      "type": "function"
    },
    {
      "inputs": [],
      "name": "getTotalSupply",
      "outputs": [
        {
          "internalType": "uint256",
          "name": "",
          "type": "uint256"
        }
      ],
      "stateMutability": "view",
      "type": "function"
    },
    {
      "inputs": [
        {
          "internalType": "address",
          "name": "account",
          "type": "address"
        }
      ],
      "name": "getVotes",
      "outputs": [
        {
          "internalType": "uint256",
          "name": "",
          "type": "uint256"
        }
      ],
      "stateMutability": "view",
      "type": "function"
    },
    {
      "inputs": [
        {
          "internalType": "address",
          "name": "owner",
          "type": "address"
        }
      ],
      "name": "nonces",
      "outputs": [
        {
          "internalType": "uint256",
          "name": "",
          "type": "uint256"
        }
      ],
      "stateMutability": "view",
      "type": "function"
    },
    {
      "stateMutability": "payable",
      "type": "receive"
    }
  ],
  "bytecode": "0x61016060405260405162001f6c38038062001f6c83398101604081905262000027916200022e565b818162000035825f620000e5565b6101205262000046816001620000e5565b61014052815160208084019190912060e052815190820120610100524660a052620000d360e05161010051604080517f8b73c3c69bb8fe3d512ecc4cf759cc79239f7b179b0ffacaa9a75d522b39400f60208201529081019290925260608201524660808201523060a08201525f9060c00160405160208183030381529060405280519060200120905090565b60805250503060c05250620004429050565b5f6020835110156200010457620000fc836200011d565b905062000117565b816200011184826200031e565b5060ff90505b92915050565b5f80829050601f8151111562000153578260405163305a27a960e01b81526004016200014a9190620003ea565b60405180910390fd5b805162000160826200041e565b179392505050565b634e487b7160e01b5f52604160045260245ffd5b5f5b83811015620001985781810151838201526020016200017e565b50505f910152565b5f82601f830112620001b0575f80fd5b81516001600160401b0380821115620001cd57620001cd62000168565b604051601f8301601f19908116603f01168101908282118183101715620001f857620001f862000168565b8160405283815286602085880101111562000211575f80fd5b620002248460208301602089016200017c565b9695505050505050565b5f806040838503121562000240575f80fd5b82516001600160401b038082111562000257575f80fd5b6200026586838701620001a0565b935060208501519150808211156200027b575f80fd5b506200028a85828601620001a0565b9150509250929050565b600181811c90821680620002a957607f821691505b602082108103620002c857634e487b7160e01b5f52602260045260245ffd5b50919050565b601f8211156200031957805f5260205f20601f840160051c81016020851015620002f55750805b601f840160051c820191505b8181101562000316575f815560010162000301565b50505b505050565b81516001600160401b038111156200033a576200033a62000168565b62000352816200034b845462000294565b84620002ce565b602080601f83116001811462000388575f8415620003705750858301515b5f19600386901b1c1916600185901b178555620003e2565b5f85815260208120601f198616915b82811015620003b85788860151825594840194600190910190840162000397565b5085821015620003d657878501515f19600388901b60f8161c191681555b505060018460011b0185555b505050505050565b602081525f82518060208401526200040a8160408501602087016200017c565b601f01601f19169190910160400192915050565b80516020808301519190811015620002c8575f1960209190910360031b1b16919050565b60805160a05160c05160e051610100516101205161014051611ad8620004945f395f610a2a01525f6109fe01525f610cf001525f610cc801525f610c2301525f610c4d01525f610c770152611ad85ff3fe6080604052600436106101dd575f3560e01c806361f5b530116100fd5780639ab24eb011610092578063cc461d6211610062578063cc461d621461055f578063d41ecac31461057e578063e047838d146105b2578063e42b0f48146105d1575f80fd5b80639ab24eb014610502578063b3068e4114610521578063c3cda52014610540578063c4e41b221461035b575f80fd5b806384b0196e116100cd57806384b0196e146104a85780638ab65686146101e85780638e539e8c146104cf57806391ddadf4146104ee575f80fd5b806361f5b530146103f857806367354a84146104435780636b4ac502146104555780637ecebe0014610474575f80fd5b80633a46b1a811610173578063587cde1e11610143578063587cde1e1461036f5780635b28e1e8146103a65780635c19a95c146103c55780635f8d5e74146103e4575f80fd5b80633a46b1a8146103095780634bf5d7e914610328578063506a6f0c1461033c578063535de3341461035b575f80fd5b80632e8fbee5116101ae5780632e8fbee51461026d57806330ff12bf1461029a57806332cadf3c146102d0578063342db739146102e4575f80fd5b8062cae220146101e85780631164d13b14610209578063174ccd82146102335780632904df2914610247575f80fd5b366101e457005b5f80fd5b3480156101f3575f80fd5b50610207610202366004611748565b6105f0565b005b348015610214575f80fd5b5061021d6105fe565b60405161022a91906117bc565b60405180910390f35b34801561023e575f80fd5b5061021d61060d565b348015610252575f80fd5b50335b6040516001600160a01b03909116815260200161022a565b348015610278575f80fd5b5061028c6102873660046117ce565b610617565b60405190815260200161022a565b3480156102a5575f80fd5b506102b96102b43660046117e7565b610677565b60405165ffffffffffff909116815260200161022a565b3480156102db575f80fd5b5061021d610687565b3480156102ef575f80fd5b5061028c6e1a185c991a185d0b595e1c1bdcd959608a1b81565b348015610314575f80fd5b5061028c6103233660046117fe565b6106c4565b348015610333575f80fd5b5061021d6106fe565b348015610347575f80fd5b5061028c6103563660046117e7565b610776565b348015610366575f80fd5b5061028c610780565b34801561037a575f80fd5b506102556103893660046117ce565b6001600160a01b039081165f908152600360205260409020541690565b3480156103b1575f80fd5b506102076103c0366004611826565b610789565b3480156103d0575f80fd5b506102076103df3660046117ce565b610799565b3480156103ef575f80fd5b5061028c6107a4565b348015610403575f80fd5b5061041761041236600461185f565b6107ad565b60408051825165ffffffffffff1681526020928301516001600160d01b0316928101929092520161022a565b34801561044e575f80fd5b505f61028c565b348015610460575f80fd5b5061020761046f3660046117fe565b6107d1565b34801561047f575f80fd5b5061028c61048e3660046117ce565b6001600160a01b03165f9081526002602052604090205490565b3480156104b3575f80fd5b506104bc6107db565b60405161022a979695949392919061189c565b3480156104da575f80fd5b5061028c6104e93660046117e7565b61081d565b3480156104f9575f80fd5b506102b9610841565b34801561050d575f80fd5b5061028c61051c3660046117ce565b61084a565b34801561052c575f80fd5b5061028c61053b3660046117ce565b61086a565b34801561054b575f80fd5b5061020761055a366004611933565b610887565b34801561056a575f80fd5b506102076105793660046117fe565b610948565b348015610589575f80fd5b5061059d6105983660046117ce565b610952565b60405163ffffffff909116815260200161022a565b3480156105bd575f80fd5b506102076105cc3660046117fe565b61095c565b3480156105dc575f80fd5b506102076105eb366004611826565b610966565b6105fa8282610971565b5050565b60606106086109f7565b905090565b6060610608610a23565b6001600160a01b0381165f90815260026020526040812080546001810190915590507f8d5c13b1cd528a3e1895fdc833368c4e3af5391250c736a28e94c4fa59b3cee48160405161066a91815260200190565b60405180910390a1919050565b5f61068182610a50565b92915050565b60605f368080601f0160208091040260200160405190810160405280939291908181526020018383808284375f9201919091525092949350505050565b5f6106ee6106d183610a50565b6001600160a01b0385165f90815260046020526040902090610a9e565b6001600160d01b03169392505050565b6060610708610b4e565b65ffffffffffff16610718610841565b65ffffffffffff161461073e576040516301bfc1c560e61b815260040160405180910390fd5b5060408051808201909152601d81527f6d6f64653d626c6f636b6e756d6265722666726f6d3d64656661756c74000000602082015290565b5f61068182610b58565b5f610608610b84565b610794838383610b9d565b505050565b336105fa8183610971565b5f610608610c17565b604080518082019091525f80825260208201526107ca8383610d40565b9392505050565b6105fa8282610d74565b5f6060805f805f60606107ec6109f7565b6107f4610a23565b604080515f80825260208201909252600f60f81b9b939a50919850469750309650945092509050565b5f61083261082a83610a50565b600590610a9e565b6001600160d01b031692915050565b5f610608610b4e565b6001600160a01b0381165f90815260046020526040812061083290610dc6565b6001600160a01b0381165f90815260066020526040812054610681565b834211156108b057604051632341d78760e11b8152600481018590526024015b60405180910390fd5b604080517fe48329057bfd03d55e49b547132e39cffd9c1820ad7b9d4c5307691425d15adf60208201526001600160a01b0388169181019190915260608101869052608081018590525f90610929906109219060a00160405160208183030381529060405280519060200120610b58565b858585610dfd565b90506109358187610d74565b61093f8188610971565b50505050505050565b6105fa8282610e29565b5f61068182610e61565b6105fa8282610e82565b610794838383610eba565b6001600160a01b038281165f8181526003602052604080822080548686166001600160a01b0319821681179092559151919094169392849290917f3134e8a2e6d97e929a7e54011ea5485d7d196dd5f0ba4d4ef95803e8e3fc257f9190a461079481836109f2866001600160a01b03165f9081526006602052604090205490565b610eba565b60606106087f00000000000000000000000000000000000000000000000000000000000000005f61101e565b60606106087f0000000000000000000000000000000000000000000000000000000000000000600161101e565b5f80610a5a610841565b90508065ffffffffffff168310610a9557604051637669fc0f60e11b81526004810184905265ffffffffffff821660248201526044016108a7565b6107ca836110c7565b81545f9081816005811115610afa575f610ab7846110fd565b610ac190856119a2565b5f8881526020902090915081015465ffffffffffff9081169087161015610aea57809150610af8565b610af58160016119b5565b92505b505b5f610b0787878585611255565b90508015610b4157610b2b87610b1e6001846119a2565b5f91825260209091200190565b54600160301b90046001600160d01b0316610b43565b5f5b979650505050505050565b5f610608436110c7565b5f610681610b64610c17565b8360405161190160f01b8152600281019290925260228201526042902090565b5f610b8f6005610dc6565b6001600160d01b0316905090565b6001600160a01b038316610bc457610bc160056112b4610bbc846112bf565b6112f2565b50505b6001600160a01b038216610be657610be3600561132a610bbc846112bf565b50505b6001600160a01b038381165f9081526003602052604080822054858416835291205461079492918216911683610eba565b5f306001600160a01b037f000000000000000000000000000000000000000000000000000000000000000016148015610c6f57507f000000000000000000000000000000000000000000000000000000000000000046145b15610c9957507f000000000000000000000000000000000000000000000000000000000000000090565b610608604080517f8b73c3c69bb8fe3d512ecc4cf759cc79239f7b179b0ffacaa9a75d522b39400f60208201527f0000000000000000000000000000000000000000000000000000000000000000918101919091527f000000000000000000000000000000000000000000000000000000000000000060608201524660808201523060a08201525f9060c00160405160208183030381529060405280519060200120905090565b604080518082019091525f80825260208201526001600160a01b0383165f9081526004602052604090206107ca9083611335565b6001600160a01b0382165f908152600260205260409020805460018101909155818114610794576040516301d4b62360e61b81526001600160a01b0384166004820152602481018290526044016108a7565b80545f908015610df557610ddf83610b1e6001846119a2565b54600160301b90046001600160d01b03166107ca565b5f9392505050565b5f805f80610e0d888888886113a2565b925092509250610e1d828261146a565b50909695505050505050565b6001600160a01b0382165f9081526006602052604081208054839290610e509084906119b5565b909155506105fa90505f8383610b9d565b6001600160a01b0381165f9081526004602052604081205461068190611522565b6001600160a01b0382165f9081526006602052604081208054839290610ea99084906119b5565b909155506105fa9050825f83610b9d565b816001600160a01b0316836001600160a01b031614158015610edb57505f81115b15610794576001600160a01b03831615610f7d576001600160a01b0383165f9081526004602052604081208190610f189061132a610bbc866112bf565b6001600160d01b031691506001600160d01b03169150846001600160a01b03167fdec2bacdd2f05b59de34da9b523dff8be42e5e38e818c82fdb0bae774387a7248383604051610f72929190918252602082015260400190565b60405180910390a250505b6001600160a01b03821615610794576001600160a01b0382165f9081526004602052604081208190610fb5906112b4610bbc866112bf565b6001600160d01b031691506001600160d01b03169150836001600160a01b03167fdec2bacdd2f05b59de34da9b523dff8be42e5e38e818c82fdb0bae774387a724838360405161100f929190918252602082015260400190565b60405180910390a25050505050565b606060ff83146110385761103183611552565b9050610681565b818054611044906119c8565b80601f0160208091040260200160405190810160405280929190818152602001828054611070906119c8565b80156110bb5780601f10611092576101008083540402835291602001916110bb565b820191905f5260205f20905b81548152906001019060200180831161109e57829003601f168201915b50505050509050610681565b5f65ffffffffffff8211156110f9576040516306dfcc6560e41b815260306004820152602481018390526044016108a7565b5090565b5f6001821161110a575090565b816001600160801b82106111235760809190911c9060401b5b68010000000000000000821061113e5760409190911c9060201b5b64010000000082106111555760209190911c9060101b5b62010000821061116a5760109190911c9060081b5b610100821061117e5760089190911c9060041b5b601082106111915760049190911c9060021b5b6004821061119d5760011b5b600302600190811c908185816111b5576111b5611a00565b048201901c905060018185816111cd576111cd611a00565b048201901c905060018185816111e5576111e5611a00565b048201901c905060018185816111fd576111fd611a00565b048201901c9050600181858161121557611215611a00565b048201901c9050600181858161122d5761122d611a00565b048201901c905061124c81858161124657611246611a00565b04821190565b90039392505050565b5f5b818310156112ac575f61126a848461158f565b5f8781526020902090915065ffffffffffff86169082015465ffffffffffff161115611298578092506112a6565b6112a38160016119b5565b93505b50611257565b509392505050565b5f6107ca8284611a14565b5f6001600160d01b038211156110f9576040516306dfcc6560e41b815260d06004820152602481018390526044016108a7565b5f8061131d6112ff610841565b61131561130b88610dc6565b868863ffffffff16565b8791906115a9565b915091505b935093915050565b5f6107ca8284611a3b565b604080518082019091525f8082526020820152825f018263ffffffff168154811061136257611362611a5b565b5f9182526020918290206040805180820190915291015465ffffffffffff81168252600160301b90046001600160d01b0316918101919091529392505050565b5f80807f7fffffffffffffffffffffffffffffff5d576e7357a4501ddfe92f46681b20a08411156113db57505f91506003905082611460565b604080515f808252602082018084528a905260ff891692820192909252606081018790526080810186905260019060a0016020604051602081039080840390855afa15801561142c573d5f803e3d5ffd5b5050604051601f1901519150506001600160a01b03811661145757505f925060019150829050611460565b92505f91508190505b9450945094915050565b5f82600381111561147d5761147d611a6f565b03611486575050565b600182600381111561149a5761149a611a6f565b036114b85760405163f645eedf60e01b815260040160405180910390fd5b60028260038111156114cc576114cc611a6f565b036114ed5760405163fce698f760e01b8152600481018290526024016108a7565b600382600381111561150157611501611a6f565b036105fa576040516335e2f38360e21b8152600481018290526024016108a7565b5f63ffffffff8211156110f9576040516306dfcc6560e41b815260206004820152602481018390526044016108a7565b60605f61155e836115b6565b6040805160208082528183019092529192505f91906020820181803683375050509182525060208101929092525090565b5f61159d6002848418611a83565b6107ca908484166119b5565b5f8061131d8585856115dd565b5f60ff8216601f81111561068157604051632cd44ac360e21b815260040160405180910390fd5b82545f90819080156116d3575f6115f987610b1e6001856119a2565b805490915065ffffffffffff80821691600160301b90046001600160d01b031690881682111561163c57604051632520601d60e01b815260040160405180910390fd5b8765ffffffffffff168265ffffffffffff160361167557825465ffffffffffff16600160301b6001600160d01b038916021783556116c5565b6040805180820190915265ffffffffffff808a1682526001600160d01b03808a1660208085019182528d54600181018f555f8f81529190912094519151909216600160301b029216919091179101555b945085935061132292505050565b50506040805180820190915265ffffffffffff80851682526001600160d01b0380851660208085019182528854600181018a555f8a815291822095519251909316600160301b029190931617920191909155905081611322565b80356001600160a01b0381168114611743575f80fd5b919050565b5f8060408385031215611759575f80fd5b6117628361172d565b91506117706020840161172d565b90509250929050565b5f81518084525f5b8181101561179d57602081850181015186830182015201611781565b505f602082860101526020601f19601f83011685010191505092915050565b602081525f6107ca6020830184611779565b5f602082840312156117de575f80fd5b6107ca8261172d565b5f602082840312156117f7575f80fd5b5035919050565b5f806040838503121561180f575f80fd5b6118188361172d565b946020939093013593505050565b5f805f60608486031215611838575f80fd5b6118418461172d565b925061184f6020850161172d565b9150604084013590509250925092565b5f8060408385031215611870575f80fd5b6118798361172d565b9150602083013563ffffffff81168114611891575f80fd5b809150509250929050565b60ff60f81b881681525f602060e060208401526118bc60e084018a611779565b83810360408501526118ce818a611779565b606085018990526001600160a01b038816608086015260a0850187905284810360c0860152855180825260208088019350909101905f5b8181101561192157835183529284019291840191600101611905565b50909c9b505050505050505050505050565b5f805f805f8060c08789031215611948575f80fd5b6119518761172d565b95506020870135945060408701359350606087013560ff81168114611974575f80fd5b9598949750929560808101359460a0909101359350915050565b634e487b7160e01b5f52601160045260245ffd5b818103818111156106815761068161198e565b808201808211156106815761068161198e565b600181811c908216806119dc57607f821691505b6020821081036119fa57634e487b7160e01b5f52602260045260245ffd5b50919050565b634e487b7160e01b5f52601260045260245ffd5b6001600160d01b03818116838216019080821115611a3457611a3461198e565b5092915050565b6001600160d01b03828116828216039080821115611a3457611a3461198e565b634e487b7160e01b5f52603260045260245ffd5b634e487b7160e01b5f52602160045260245ffd5b5f82611a9d57634e487b7160e01b5f52601260045260245ffd5b50049056fea2646970667358221220cac507be032699ccf301b8dded447f608c79aafc3fe50423b4500a9dd5df80f864736f6c63430008180033",
  "linkReferences": {},
  "deployedLinkReferences": {}
}