{
  "_format": "hh-sol-artifact-1",
  "contractName": "$VotesTimestampMock",
  "sourceName": "contracts-exposed/mocks/VotesMock.sol",
  "abi": [
    {
      "inputs": [
        {
          "internalType": "string",
          "name": "name",
          "type": "string"
        },
        {
          "internalType": "string",
          "name": "version",
          "type": "string"
        }
      ],
      "stateMutability": "payable",
      "type": "constructor"
    },
    {
      "inputs": [],
      "name": "CheckpointUnorderedInsertion",
      "type": "error"
    },
    {
      "inputs": [],
      "name": "ECDSAInvalidSignature",
      "type": "error"
    },
    {
      "inputs": [
        {
          "internalType": "uint256",
          "name": "length",
          "type": "uint256"
        }
      ],
      "name": "ECDSAInvalidSignatureLength",
      "type": "error"
    },
    {
      "inputs": [
        {
          "internalType": "bytes32",
          "name": "s",
          "type": "bytes32"
        }
      ],
      "name": "ECDSAInvalidSignatureS",
      "type": "error"
    },
    {
      "inputs": [
        {
          "internalType": "uint256",
          "name": "timepoint",
          "type": "uint256"
        },
        {
          "internalType": "uint48",
          "name": "clock",
          "type": "uint48"
        }
      ],
      "name": "ERC5805FutureLookup",
      "type": "error"
    },
    {
      "inputs": [],
      "name": "ERC6372InconsistentClock",
      "type": "error"
    },
    {
      "inputs": [
        {
          "internalType": "address",
          "name": "account",
          "type": "address"
        },
        {
          "internalType": "uint256",
          "name": "currentNonce",
          "type": "uint256"
        }
      ],
      "name": "InvalidAccountNonce",
      "type": "error"
    },
    {
      "inputs": [],
      "name": "InvalidShortString",
      "type": "error"
    },
    {
      "inputs": [
        {
          "internalType": "uint8",
          "name": "bits",
          "type": "uint8"
        },
        {
          "internalType": "uint256",
          "name": "value",
          "type": "uint256"
        }
      ],
      "name": "SafeCastOverflowedUintDowncast",
      "type": "error"
    },
    {
      "inputs": [
        {
          "internalType": "string",
          "name": "str",
          "type": "string"
        }
      ],
      "name": "StringTooLong",
      "type": "error"
    },
    {
      "inputs": [
        {
          "internalType": "uint256",
          "name": "expiry",
          "type": "uint256"
        }
      ],
      "name": "VotesExpiredSignature",
      "type": "error"
    },
    {
      "anonymous": false,
      "inputs": [
        {
          "indexed": true,
          "internalType": "address",
          "name": "delegator",
          "type": "address"
        },
        {
          "indexed": true,
          "internalType": "address",
          "name": "fromDelegate",
          "type": "address"
        },
        {
          "indexed": true,
          "internalType": "address",
          "name": "toDelegate",
          "type": "address"
        }
      ],
      "name": "DelegateChanged",
      "type": "event"
    },
    {
      "anonymous": false,
      "inputs": [
        {
          "indexed": true,
          "internalType": "address",
          "name": "delegate",
          "type": "address"
        },
        {
          "indexed": false,
          "internalType": "uint256",
          "name": "previousVotes",
          "type": "uint256"
        },
        {
          "indexed": false,
          "internalType": "uint256",
          "name": "newVotes",
          "type": "uint256"
        }
      ],
      "name": "DelegateVotesChanged",
      "type": "event"
    },
    {
      "anonymous": false,
      "inputs": [],
      "name": "EIP712DomainChanged",
      "type": "event"
    },
    {
      "anonymous": false,
      "inputs": [
        {
          "indexed": false,
          "internalType": "uint256",
          "name": "ret0",
          "type": "uint256"
        }
      ],
      "name": "return$_useNonce",
      "type": "event"
    },
    {
      "inputs": [],
      "name": "$_EIP712Name",
      "outputs": [
        {
          "internalType": "string",
          "name": "ret0",
          "type": "string"
        }
      ],
      "stateMutability": "view",
      "type": "function"
    },
    {
      "inputs": [],
      "name": "$_EIP712Version",
      "outputs": [
        {
          "internalType": "string",
          "name": "ret0",
          "type": "string"
        }
      ],
      "stateMutability": "view",
      "type": "function"
    },
    {
      "inputs": [
        {
          "internalType": "address",
          "name": "account",
          "type": "address"
        },
        {
          "internalType": "uint256",
          "name": "votes",
          "type": "uint256"
        }
      ],
      "name": "$_burn",
      "outputs": [],
      "stateMutability": "nonpayable",
      "type": "function"
    },
    {
      "inputs": [
        {
          "internalType": "address",
          "name": "account",
          "type": "address"
        },
        {
          "internalType": "uint32",
          "name": "pos",
          "type": "uint32"
        }
      ],
      "name": "$_checkpoints",
      "outputs": [
        {
          "components": [
            {
              "internalType": "uint48",
              "name": "_key",
              "type": "uint48"
            },
            {
              "internalType": "uint208",
              "name": "_value",
              "type": "uint208"
            }
          ],
          "internalType": "struct Checkpoints.Checkpoint208",
          "name": "ret0",
          "type": "tuple"
        }
      ],
      "stateMutability": "view",
      "type": "function"
    },
    {
      "inputs": [],
      "name": "$_contextSuffixLength",
      "outputs": [
        {
          "internalType": "uint256",
          "name": "ret0",
          "type": "uint256"
        }
      ],
      "stateMutability": "view",
      "type": "function"
    },
    {
      "inputs": [
        {
          "internalType": "address",
          "name": "account",
          "type": "address"
        },
        {
          "internalType": "address",
          "name": "delegatee",
          "type": "address"
        }
      ],
      "name": "$_delegate",
      "outputs": [],
      "stateMutability": "nonpayable",
      "type": "function"
    },
    {
      "inputs": [],
      "name": "$_domainSeparatorV4",
      "outputs": [
        {
          "internalType": "bytes32",
          "name": "ret0",
          "type": "bytes32"
        }
      ],
      "stateMutability": "view",
      "type": "function"
    },
    {
      "inputs": [],
      "name": "$_getTotalSupply",
      "outputs": [
        {
          "internalType": "uint256",
          "name": "ret0",
          "type": "uint256"
        }
      ],
      "stateMutability": "view",
      "type": "function"
    },
    {
      "inputs": [
        {
          "internalType": "address",
          "name": "account",
          "type": "address"
        }
      ],
      "name": "$_getVotingUnits",
      "outputs": [
        {
          "internalType": "uint256",
          "name": "ret0",
          "type": "uint256"
        }
      ],
      "stateMutability": "view",
      "type": "function"
    },
    {
      "inputs": [
        {
          "internalType": "bytes32",
          "name": "structHash",
          "type": "bytes32"
        }
      ],
      "name": "$_hashTypedDataV4",
      "outputs": [
        {
          "internalType": "bytes32",
          "name": "ret0",
          "type": "bytes32"
        }
      ],
      "stateMutability": "view",
      "type": "function"
    },
    {
      "inputs": [
        {
          "internalType": "address",
          "name": "account",
          "type": "address"
        },
        {
          "internalType": "uint256",
          "name": "votes",
          "type": "uint256"
        }
      ],
      "name": "$_mint",
      "outputs": [],
      "stateMutability": "nonpayable",
      "type": "function"
    },
    {
      "inputs": [
        {
          "internalType": "address",
          "name": "from",
          "type": "address"
        },
        {
          "internalType": "address",
          "name": "to",
          "type": "address"
        },
        {
          "internalType": "uint256",
          "name": "amount",
          "type": "uint256"
        }
      ],
      "name": "$_moveDelegateVotes",
      "outputs": [],
      "stateMutability": "nonpayable",
      "type": "function"
    },
    {
      "inputs": [],
      "name": "$_msgData",
      "outputs": [
        {
          "internalType": "bytes",
          "name": "ret0",
          "type": "bytes"
        }
      ],
      "stateMutability": "view",
      "type": "function"
    },
    {
      "inputs": [],
      "name": "$_msgSender",
      "outputs": [
        {
          "internalType": "address",
          "name": "ret0",
          "type": "address"
        }
      ],
      "stateMutability": "view",
      "type": "function"
    },
    {
      "inputs": [
        {
          "internalType": "address",
          "name": "account",
          "type": "address"
        }
      ],
      "name": "$_numCheckpoints",
      "outputs": [
        {
          "internalType": "uint32",
          "name": "ret0",
          "type": "uint32"
        }
      ],
      "stateMutability": "view",
      "type": "function"
    },
    {
      "inputs": [
        {
          "internalType": "address",
          "name": "from",
          "type": "address"
        },
        {
          "internalType": "address",
          "name": "to",
          "type": "address"
        },
        {
          "internalType": "uint256",
          "name": "amount",
          "type": "uint256"
        }
      ],
      "name": "$_transferVotingUnits",
      "outputs": [],
      "stateMutability": "nonpayable",
      "type": "function"
    },
    {
      "inputs": [
        {
          "internalType": "address",
          "name": "owner",
          "type": "address"
        },
        {
          "internalType": "uint256",
          "name": "nonce",
          "type": "uint256"
        }
      ],
      "name": "$_useCheckedNonce",
      "outputs": [],
      "stateMutability": "nonpayable",
      "type": "function"
    },
    {
      "inputs": [
        {
          "internalType": "address",
          "name": "owner",
          "type": "address"
        }
      ],
      "name": "$_useNonce",
      "outputs": [
        {
          "internalType": "uint256",
          "name": "ret0",
          "type": "uint256"
        }
      ],
      "stateMutability": "nonpayable",
      "type": "function"
    },
    {
      "inputs": [
        {
          "internalType": "uint256",
          "name": "timepoint",
          "type": "uint256"
        }
      ],
      "name": "$_validateTimepoint",
      "outputs": [
        {
          "internalType": "uint48",
          "name": "ret0",
          "type": "uint48"
        }
      ],
      "stateMutability": "view",
      "type": "function"
    },
    {
      "inputs": [],
      "name": "CLOCK_MODE",
      "outputs": [
        {
          "internalType": "string",
          "name": "",
          "type": "string"
        }
      ],
      "stateMutability": "view",
      "type": "function"
    },
    {
      "inputs": [],
      "name": "__hh_exposed_bytecode_marker",
      "outputs": [
        {
          "internalType": "bytes32",
          "name": "",
          "type": "bytes32"
        }
      ],
      "stateMutability": "view",
      "type": "function"
    },
    {
      "inputs": [],
      "name": "clock",
      "outputs": [
        {
          "internalType": "uint48",
          "name": "",
          "type": "uint48"
        }
      ],
      "stateMutability": "view",
      "type": "function"
    },
    {
      "inputs": [
        {
          "internalType": "address",
          "name": "delegatee",
          "type": "address"
        }
      ],
      "name": "delegate",
      "outputs": [],
      "stateMutability": "nonpayable",
      "type": "function"
    },
    {
      "inputs": [
        {
          "internalType": "address",
          "name": "account",
          "type": "address"
        },
        {
          "internalType": "address",
          "name": "newDelegation",
          "type": "address"
        }
      ],
      "name": "delegate",
      "outputs": [],
      "stateMutability": "nonpayable",
      "type": "function"
    },
    {
      "inputs": [
        {
          "internalType": "address",
          "name": "delegatee",
          "type": "address"
        },
        {
          "internalType": "uint256",
          "name": "nonce",
          "type": "uint256"
        },
        {
          "internalType": "uint256",
          "name": "expiry",
          "type": "uint256"
        },
        {
          "internalType": "uint8",
          "name": "v",
          "type": "uint8"
        },
        {
          "internalType": "bytes32",
          "name": "r",
          "type": "bytes32"
        },
        {
          "internalType": "bytes32",
          "name": "s",
          "type": "bytes32"
        }
      ],
      "name": "delegateBySig",
      "outputs": [],
      "stateMutability": "nonpayable",
      "type": "function"
    },
    {
      "inputs": [
        {
          "internalType": "address",
          "name": "account",
          "type": "address"
        }
      ],
      "name": "delegates",
      "outputs": [
        {
          "internalType": "address",
          "name": "",
          "type": "address"
        }
      ],
      "stateMutability": "view",
      "type": "function"
    },
    {
      "inputs": [],
      "name": "eip712Domain",
      "outputs": [
        {
          "internalType": "bytes1",
          "name": "fields",
          "type": "bytes1"
        },
        {
          "internalType": "string",
          "name": "name",
          "type": "string"
        },
        {
          "internalType": "string",
          "name": "version",
          "type": "string"
        },
        {
          "internalType": "uint256",
          "name": "chainId",
          "type": "uint256"
        },
        {
          "internalType": "address",
          "name": "verifyingContract",
          "type": "address"
        },
        {
          "internalType": "bytes32",
          "name": "salt",
          "type": "bytes32"
        },
        {
          "internalType": "uint256[]",
          "name": "extensions",
          "type": "uint256[]"
        }
      ],
      "stateMutability": "view",
      "type": "function"
    },
    {
      "inputs": [
        {
          "internalType": "uint256",
          "name": "timepoint",
          "type": "uint256"
        }
      ],
      "name": "getPastTotalSupply",
      "outputs": [
        {
          "internalType": "uint256",
          "name": "",
          "type": "uint256"
        }
      ],
      "stateMutability": "view",
      "type": "function"
    },
    {
      "inputs": [
        {
          "internalType": "address",
          "name": "account",
          "type": "address"
        },
        {
          "internalType": "uint256",
          "name": "timepoint",
          "type": "uint256"
        }
      ],
      "name": "getPastVotes",
      "outputs": [
        {
          "internalType": "uint256",
          "name": "",
          "type": "uint256"
        }
      ],
      "stateMutability": "view",
      "type": "function"
    },
    {
      "inputs": [],
      "name": "getTotalSupply",
      "outputs": [
        {
          "internalType": "uint256",
          "name": "",
          "type": "uint256"
        }
      ],
      "stateMutability": "view",
      "type": "function"
    },
    {
      "inputs": [
        {
          "internalType": "address",
          "name": "account",
          "type": "address"
        }
      ],
      "name": "getVotes",
      "outputs": [
        {
          "internalType": "uint256",
          "name": "",
          "type": "uint256"
        }
      ],
      "stateMutability": "view",
      "type": "function"
    },
    {
      "inputs": [
        {
          "internalType": "address",
          "name": "owner",
          "type": "address"
        }
      ],
      "name": "nonces",
      "outputs": [
        {
          "internalType": "uint256",
          "name": "",
          "type": "uint256"
        }
      ],
      "stateMutability": "view",
      "type": "function"
    },
    {
      "stateMutability": "payable",
      "type": "receive"
    }
  ],
  "bytecode": "0x61016060405260405162001ef038038062001ef083398101604081905262000027916200022e565b818162000035825f620000e5565b6101205262000046816001620000e5565b61014052815160208084019190912060e052815190820120610100524660a052620000d360e05161010051604080517f8b73c3c69bb8fe3d512ecc4cf759cc79239f7b179b0ffacaa9a75d522b39400f60208201529081019290925260608201524660808201523060a08201525f9060c00160405160208183030381529060405280519060200120905090565b60805250503060c05250620004429050565b5f6020835110156200010457620000fc836200011d565b905062000117565b816200011184826200031e565b5060ff90505b92915050565b5f80829050601f8151111562000153578260405163305a27a960e01b81526004016200014a9190620003ea565b60405180910390fd5b805162000160826200041e565b179392505050565b634e487b7160e01b5f52604160045260245ffd5b5f5b83811015620001985781810151838201526020016200017e565b50505f910152565b5f82601f830112620001b0575f80fd5b81516001600160401b0380821115620001cd57620001cd62000168565b604051601f8301601f19908116603f01168101908282118183101715620001f857620001f862000168565b8160405283815286602085880101111562000211575f80fd5b620002248460208301602089016200017c565b9695505050505050565b5f806040838503121562000240575f80fd5b82516001600160401b038082111562000257575f80fd5b6200026586838701620001a0565b935060208501519150808211156200027b575f80fd5b506200028a85828601620001a0565b9150509250929050565b600181811c90821680620002a957607f821691505b602082108103620002c857634e487b7160e01b5f52602260045260245ffd5b50919050565b601f8211156200031957805f5260205f20601f840160051c81016020851015620002f55750805b601f840160051c820191505b8181101562000316575f815560010162000301565b50505b505050565b81516001600160401b038111156200033a576200033a62000168565b62000352816200034b845462000294565b84620002ce565b602080601f83116001811462000388575f8415620003705750858301515b5f19600386901b1c1916600185901b178555620003e2565b5f85815260208120601f198616915b82811015620003b85788860151825594840194600190910190840162000397565b5085821015620003d657878501515f19600388901b60f8161c191681555b505060018460011b0185555b505050505050565b602081525f82518060208401526200040a8160408501602087016200017c565b601f01601f19169190910160400192915050565b80516020808301519190811015620002c8575f1960209190910360031b1b16919050565b60805160a05160c05160e051610100516101205161014051611a5c620004945f395f6109c901525f61099d01525f610c7b01525f610c5301525f610bae01525f610bd801525f610c020152611a5c5ff3fe6080604052600436106101dd575f3560e01c806361f5b530116100fd5780639ab24eb011610092578063cc461d6211610062578063cc461d621461057f578063d41ecac31461059e578063e047838d146105d2578063e42b0f48146105f1575f80fd5b80639ab24eb014610522578063b3068e4114610541578063c3cda52014610560578063c4e41b221461037d575f80fd5b806384b0196e116100cd57806384b0196e146104ca5780638ab65686146101e85780638e539e8c146104f157806391ddadf414610510575f80fd5b806361f5b5301461041a57806367354a84146104655780636b4ac502146104775780637ecebe0014610496575f80fd5b80633a46b1a811610173578063587cde1e11610143578063587cde1e146103915780635b28e1e8146103c85780635c19a95c146103e75780635f8d5e7414610406575f80fd5b80633a46b1a8146103095780634bf5d7e914610328578063506a6f0c1461035e578063535de3341461037d575f80fd5b80632e8fbee5116101ae5780632e8fbee51461026d57806330ff12bf1461029a57806332cadf3c146102d0578063342db739146102e4575f80fd5b8062cae220146101e85780631164d13b14610209578063174ccd82146102335780632904df2914610247575f80fd5b366101e457005b5f80fd5b3480156101f3575f80fd5b506102076102023660046116cc565b610610565b005b348015610214575f80fd5b5061021d61061e565b60405161022a9190611740565b60405180910390f35b34801561023e575f80fd5b5061021d61062d565b348015610252575f80fd5b50335b6040516001600160a01b03909116815260200161022a565b348015610278575f80fd5b5061028c610287366004611752565b610637565b60405190815260200161022a565b3480156102a5575f80fd5b506102b96102b436600461176b565b610697565b60405165ffffffffffff909116815260200161022a565b3480156102db575f80fd5b5061021d6106a7565b3480156102ef575f80fd5b5061028c6e1a185c991a185d0b595e1c1bdcd959608a1b81565b348015610314575f80fd5b5061028c610323366004611782565b6106e4565b348015610333575f80fd5b5060408051808201909152600e81526d06d6f64653d74696d657374616d760941b602082015261021d565b348015610369575f80fd5b5061028c61037836600461176b565b61071e565b348015610388575f80fd5b5061028c610728565b34801561039c575f80fd5b506102556103ab366004611752565b6001600160a01b039081165f908152600360205260409020541690565b3480156103d3575f80fd5b506102076103e23660046117aa565b610731565b3480156103f2575f80fd5b50610207610401366004611752565b610741565b348015610411575f80fd5b5061028c61074c565b348015610425575f80fd5b506104396104343660046117e3565b610755565b60408051825165ffffffffffff1681526020928301516001600160d01b0316928101929092520161022a565b348015610470575f80fd5b505f61028c565b348015610482575f80fd5b50610207610491366004611782565b610779565b3480156104a1575f80fd5b5061028c6104b0366004611752565b6001600160a01b03165f9081526002602052604090205490565b3480156104d5575f80fd5b506104de610783565b60405161022a9796959493929190611820565b3480156104fc575f80fd5b5061028c61050b36600461176b565b6107c5565b34801561051b575f80fd5b50426102b9565b34801561052d575f80fd5b5061028c61053c366004611752565b6107e9565b34801561054c575f80fd5b5061028c61055b366004611752565b610809565b34801561056b575f80fd5b5061020761057a3660046118b7565b610826565b34801561058a575f80fd5b50610207610599366004611782565b6108e7565b3480156105a9575f80fd5b506105bd6105b8366004611752565b6108f1565b60405163ffffffff909116815260200161022a565b3480156105dd575f80fd5b506102076105ec366004611782565b6108fb565b3480156105fc575f80fd5b5061020761060b3660046117aa565b610905565b61061a8282610910565b5050565b6060610628610996565b905090565b60606106286109c2565b6001600160a01b0381165f90815260026020526040812080546001810190915590507f8d5c13b1cd528a3e1895fdc833368c4e3af5391250c736a28e94c4fa59b3cee48160405161068a91815260200190565b60405180910390a1919050565b5f6106a1826109ef565b92915050565b60605f368080601f0160208091040260200160405190810160405280939291908181526020018383808284375f9201919091525092949350505050565b5f61070e6106f1836109ef565b6001600160a01b0385165f90815260046020526040902090610a33565b6001600160d01b03169392505050565b5f6106a182610ae3565b5f610628610b0f565b61073c838383610b28565b505050565b3361061a8183610910565b5f610628610ba2565b604080518082019091525f80825260208201526107728383610ccb565b9392505050565b61061a8282610cff565b5f6060805f805f6060610794610996565b61079c6109c2565b604080515f80825260208201909252600f60f81b9b939a50919850469750309650945092509050565b5f6107da6107d2836109ef565b600590610a33565b6001600160d01b031692915050565b6001600160a01b0381165f9081526004602052604081206107da90610d51565b6001600160a01b0381165f908152600660205260408120546106a1565b8342111561084f57604051632341d78760e11b8152600481018590526024015b60405180910390fd5b604080517fe48329057bfd03d55e49b547132e39cffd9c1820ad7b9d4c5307691425d15adf60208201526001600160a01b0388169181019190915260608101869052608081018590525f906108c8906108c09060a00160405160208183030381529060405280519060200120610ae3565b858585610d88565b90506108d48187610cff565b6108de8188610910565b50505050505050565b61061a8282610db4565b5f6106a182610dec565b61061a8282610e0d565b61073c838383610e45565b6001600160a01b038281165f8181526003602052604080822080548686166001600160a01b0319821681179092559151919094169392849290917f3134e8a2e6d97e929a7e54011ea5485d7d196dd5f0ba4d4ef95803e8e3fc257f9190a461073c8183610991866001600160a01b03165f9081526006602052604090205490565b610e45565b60606106287f00000000000000000000000000000000000000000000000000000000000000005f610fa9565b60606106287f00000000000000000000000000000000000000000000000000000000000000006001610fa9565b5f4265ffffffffffff81168310610a2a57604051637669fc0f60e11b81526004810184905265ffffffffffff82166024820152604401610846565b61077283611052565b81545f9081816005811115610a8f575f610a4c84611088565b610a569085611926565b5f8881526020902090915081015465ffffffffffff9081169087161015610a7f57809150610a8d565b610a8a816001611939565b92505b505b5f610a9c878785856111e0565b90508015610ad657610ac087610ab3600184611926565b5f91825260209091200190565b54600160301b90046001600160d01b0316610ad8565b5f5b979650505050505050565b5f6106a1610aef610ba2565b8360405161190160f01b8152600281019290925260228201526042902090565b5f610b1a6005610d51565b6001600160d01b0316905090565b6001600160a01b038316610b4f57610b4c600561123f610b478461124a565b61127d565b50505b6001600160a01b038216610b7157610b6e60056112ae610b478461124a565b50505b6001600160a01b038381165f9081526003602052604080822054858416835291205461073c92918216911683610e45565b5f306001600160a01b037f000000000000000000000000000000000000000000000000000000000000000016148015610bfa57507f000000000000000000000000000000000000000000000000000000000000000046145b15610c2457507f000000000000000000000000000000000000000000000000000000000000000090565b610628604080517f8b73c3c69bb8fe3d512ecc4cf759cc79239f7b179b0ffacaa9a75d522b39400f60208201527f0000000000000000000000000000000000000000000000000000000000000000918101919091527f000000000000000000000000000000000000000000000000000000000000000060608201524660808201523060a08201525f9060c00160405160208183030381529060405280519060200120905090565b604080518082019091525f80825260208201526001600160a01b0383165f90815260046020526040902061077290836112b9565b6001600160a01b0382165f90815260026020526040902080546001810190915581811461073c576040516301d4b62360e61b81526001600160a01b038416600482015260248101829052604401610846565b80545f908015610d8057610d6a83610ab3600184611926565b54600160301b90046001600160d01b0316610772565b5f9392505050565b5f805f80610d9888888888611326565b925092509250610da882826113ee565b50909695505050505050565b6001600160a01b0382165f9081526006602052604081208054839290610ddb908490611939565b9091555061061a90505f8383610b28565b6001600160a01b0381165f908152600460205260408120546106a1906114a6565b6001600160a01b0382165f9081526006602052604081208054839290610e34908490611939565b9091555061061a9050825f83610b28565b816001600160a01b0316836001600160a01b031614158015610e6657505f81115b1561073c576001600160a01b03831615610f08576001600160a01b0383165f9081526004602052604081208190610ea3906112ae610b478661124a565b6001600160d01b031691506001600160d01b03169150846001600160a01b03167fdec2bacdd2f05b59de34da9b523dff8be42e5e38e818c82fdb0bae774387a7248383604051610efd929190918252602082015260400190565b60405180910390a250505b6001600160a01b0382161561073c576001600160a01b0382165f9081526004602052604081208190610f409061123f610b478661124a565b6001600160d01b031691506001600160d01b03169150836001600160a01b03167fdec2bacdd2f05b59de34da9b523dff8be42e5e38e818c82fdb0bae774387a7248383604051610f9a929190918252602082015260400190565b60405180910390a25050505050565b606060ff8314610fc357610fbc836114d6565b90506106a1565b818054610fcf9061194c565b80601f0160208091040260200160405190810160405280929190818152602001828054610ffb9061194c565b80156110465780601f1061101d57610100808354040283529160200191611046565b820191905f5260205f20905b81548152906001019060200180831161102957829003601f168201915b505050505090506106a1565b5f65ffffffffffff821115611084576040516306dfcc6560e41b81526030600482015260248101839052604401610846565b5090565b5f60018211611095575090565b816001600160801b82106110ae5760809190911c9060401b5b6801000000000000000082106110c95760409190911c9060201b5b64010000000082106110e05760209190911c9060101b5b6201000082106110f55760109190911c9060081b5b61010082106111095760089190911c9060041b5b6010821061111c5760049190911c9060021b5b600482106111285760011b5b600302600190811c9081858161114057611140611984565b048201901c9050600181858161115857611158611984565b048201901c9050600181858161117057611170611984565b048201901c9050600181858161118857611188611984565b048201901c905060018185816111a0576111a0611984565b048201901c905060018185816111b8576111b8611984565b048201901c90506111d78185816111d1576111d1611984565b04821190565b90039392505050565b5f5b81831015611237575f6111f58484611513565b5f8781526020902090915065ffffffffffff86169082015465ffffffffffff16111561122357809250611231565b61122e816001611939565b93505b506111e2565b509392505050565b5f6107728284611998565b5f6001600160d01b03821115611084576040516306dfcc6560e41b815260d0600482015260248101839052604401610846565b5f806112a14261129961128f88610d51565b868863ffffffff16565b87919061152d565b915091505b935093915050565b5f61077282846119bf565b604080518082019091525f8082526020820152825f018263ffffffff16815481106112e6576112e66119df565b5f9182526020918290206040805180820190915291015465ffffffffffff81168252600160301b90046001600160d01b0316918101919091529392505050565b5f80807f7fffffffffffffffffffffffffffffff5d576e7357a4501ddfe92f46681b20a084111561135f57505f915060039050826113e4565b604080515f808252602082018084528a905260ff891692820192909252606081018790526080810186905260019060a0016020604051602081039080840390855afa1580156113b0573d5f803e3d5ffd5b5050604051601f1901519150506001600160a01b0381166113db57505f9250600191508290506113e4565b92505f91508190505b9450945094915050565b5f826003811115611401576114016119f3565b0361140a575050565b600182600381111561141e5761141e6119f3565b0361143c5760405163f645eedf60e01b815260040160405180910390fd5b6002826003811115611450576114506119f3565b036114715760405163fce698f760e01b815260048101829052602401610846565b6003826003811115611485576114856119f3565b0361061a576040516335e2f38360e21b815260048101829052602401610846565b5f63ffffffff821115611084576040516306dfcc6560e41b81526020600482015260248101839052604401610846565b60605f6114e28361153a565b6040805160208082528183019092529192505f91906020820181803683375050509182525060208101929092525090565b5f6115216002848418611a07565b61077290848416611939565b5f806112a1858585611561565b5f60ff8216601f8111156106a157604051632cd44ac360e21b815260040160405180910390fd5b82545f9081908015611657575f61157d87610ab3600185611926565b805490915065ffffffffffff80821691600160301b90046001600160d01b03169088168211156115c057604051632520601d60e01b815260040160405180910390fd5b8765ffffffffffff168265ffffffffffff16036115f957825465ffffffffffff16600160301b6001600160d01b03891602178355611649565b6040805180820190915265ffffffffffff808a1682526001600160d01b03808a1660208085019182528d54600181018f555f8f81529190912094519151909216600160301b029216919091179101555b94508593506112a692505050565b50506040805180820190915265ffffffffffff80851682526001600160d01b0380851660208085019182528854600181018a555f8a815291822095519251909316600160301b0291909316179201919091559050816112a6565b80356001600160a01b03811681146116c7575f80fd5b919050565b5f80604083850312156116dd575f80fd5b6116e6836116b1565b91506116f4602084016116b1565b90509250929050565b5f81518084525f5b8181101561172157602081850181015186830182015201611705565b505f602082860101526020601f19601f83011685010191505092915050565b602081525f61077260208301846116fd565b5f60208284031215611762575f80fd5b610772826116b1565b5f6020828403121561177b575f80fd5b5035919050565b5f8060408385031215611793575f80fd5b61179c836116b1565b946020939093013593505050565b5f805f606084860312156117bc575f80fd5b6117c5846116b1565b92506117d3602085016116b1565b9150604084013590509250925092565b5f80604083850312156117f4575f80fd5b6117fd836116b1565b9150602083013563ffffffff81168114611815575f80fd5b809150509250929050565b60ff60f81b881681525f602060e0602084015261184060e084018a6116fd565b8381036040850152611852818a6116fd565b606085018990526001600160a01b038816608086015260a0850187905284810360c0860152855180825260208088019350909101905f5b818110156118a557835183529284019291840191600101611889565b50909c9b505050505050505050505050565b5f805f805f8060c087890312156118cc575f80fd5b6118d5876116b1565b95506020870135945060408701359350606087013560ff811681146118f8575f80fd5b9598949750929560808101359460a0909101359350915050565b634e487b7160e01b5f52601160045260245ffd5b818103818111156106a1576106a1611912565b808201808211156106a1576106a1611912565b600181811c9082168061196057607f821691505b60208210810361197e57634e487b7160e01b5f52602260045260245ffd5b50919050565b634e487b7160e01b5f52601260045260245ffd5b6001600160d01b038181168382160190808211156119b8576119b8611912565b5092915050565b6001600160d01b038281168282160390808211156119b8576119b8611912565b634e487b7160e01b5f52603260045260245ffd5b634e487b7160e01b5f52602160045260245ffd5b5f82611a2157634e487b7160e01b5f52601260045260245ffd5b50049056fea264697066735822122063b529b91a179407734397f6895491cd3d878bcb4b57f2071addecb8a1db2e9c64736f6c63430008180033",
  "linkReferences": {},
  "deployedLinkReferences": {}
}