{
  "_format": "hh-sol-artifact-1",
  "contractName": "$ERC1155Burnable",
  "sourceName": "contracts-exposed/token/ERC1155/extensions/ERC1155Burnable.sol",
  "abi": [
    {
      "inputs": [
        {
          "internalType": "string",
          "name": "uri_",
          "type": "string"
        }
      ],
      "stateMutability": "payable",
      "type": "constructor"
    },
    {
      "inputs": [
        {
          "internalType": "address",
          "name": "sender",
          "type": "address"
        },
        {
          "internalType": "uint256",
          "name": "balance",
          "type": "uint256"
        },
        {
          "internalType": "uint256",
          "name": "needed",
          "type": "uint256"
        },
        {
          "internalType": "uint256",
          "name": "tokenId",
          "type": "uint256"
        }
      ],
      "name": "ERC1155InsufficientBalance",
      "type": "error"
    },
    {
      "inputs": [
        {
          "internalType": "address",
          "name": "approver",
          "type": "address"
        }
      ],
      "name": "ERC1155InvalidApprover",
      "type": "error"
    },
    {
      "inputs": [
        {
          "internalType": "uint256",
          "name": "idsLength",
          "type": "uint256"
        },
        {
          "internalType": "uint256",
          "name": "valuesLength",
          "type": "uint256"
        }
      ],
      "name": "ERC1155InvalidArrayLength",
      "type": "error"
    },
    {
      "inputs": [
        {
          "internalType": "address",
          "name": "operator",
          "type": "address"
        }
      ],
      "name": "ERC1155InvalidOperator",
      "type": "error"
    },
    {
      "inputs": [
        {
          "internalType": "address",
          "name": "receiver",
          "type": "address"
        }
      ],
      "name": "ERC1155InvalidReceiver",
      "type": "error"
    },
    {
      "inputs": [
        {
          "internalType": "address",
          "name": "sender",
          "type": "address"
        }
      ],
      "name": "ERC1155InvalidSender",
      "type": "error"
    },
    {
      "inputs": [
        {
          "internalType": "address",
          "name": "operator",
          "type": "address"
        },
        {
          "internalType": "address",
          "name": "owner",
          "type": "address"
        }
      ],
      "name": "ERC1155MissingApprovalForAll",
      "type": "error"
    },
    {
      "anonymous": false,
      "inputs": [
        {
          "indexed": true,
          "internalType": "address",
          "name": "account",
          "type": "address"
        },
        {
          "indexed": true,
          "internalType": "address",
          "name": "operator",
          "type": "address"
        },
        {
          "indexed": false,
          "internalType": "bool",
          "name": "approved",
          "type": "bool"
        }
      ],
      "name": "ApprovalForAll",
      "type": "event"
    },
    {
      "anonymous": false,
      "inputs": [
        {
          "indexed": true,
          "internalType": "address",
          "name": "operator",
          "type": "address"
        },
        {
          "indexed": true,
          "internalType": "address",
          "name": "from",
          "type": "address"
        },
        {
          "indexed": true,
          "internalType": "address",
          "name": "to",
          "type": "address"
        },
        {
          "indexed": false,
          "internalType": "uint256[]",
          "name": "ids",
          "type": "uint256[]"
        },
        {
          "indexed": false,
          "internalType": "uint256[]",
          "name": "values",
          "type": "uint256[]"
        }
      ],
      "name": "TransferBatch",
      "type": "event"
    },
    {
      "anonymous": false,
      "inputs": [
        {
          "indexed": true,
          "internalType": "address",
          "name": "operator",
          "type": "address"
        },
        {
          "indexed": true,
          "internalType": "address",
          "name": "from",
          "type": "address"
        },
        {
          "indexed": true,
          "internalType": "address",
          "name": "to",
          "type": "address"
        },
        {
          "indexed": false,
          "internalType": "uint256",
          "name": "id",
          "type": "uint256"
        },
        {
          "indexed": false,
          "internalType": "uint256",
          "name": "value",
          "type": "uint256"
        }
      ],
      "name": "TransferSingle",
      "type": "event"
    },
    {
      "anonymous": false,
      "inputs": [
        {
          "indexed": false,
          "internalType": "string",
          "name": "value",
          "type": "string"
        },
        {
          "indexed": true,
          "internalType": "uint256",
          "name": "id",
          "type": "uint256"
        }
      ],
      "name": "URI",
      "type": "event"
    },
    {
      "inputs": [
        {
          "internalType": "address",
          "name": "from",
          "type": "address"
        },
        {
          "internalType": "uint256",
          "name": "id",
          "type": "uint256"
        },
        {
          "internalType": "uint256",
          "name": "value",
          "type": "uint256"
        }
      ],
      "name": "$_burn",
      "outputs": [],
      "stateMutability": "nonpayable",
      "type": "function"
    },
    {
      "inputs": [
        {
          "internalType": "address",
          "name": "from",
          "type": "address"
        },
        {
          "internalType": "uint256[]",
          "name": "ids",
          "type": "uint256[]"
        },
        {
          "internalType": "uint256[]",
          "name": "values",
          "type": "uint256[]"
        }
      ],
      "name": "$_burnBatch",
      "outputs": [],
      "stateMutability": "nonpayable",
      "type": "function"
    },
    {
      "inputs": [],
      "name": "$_contextSuffixLength",
      "outputs": [
        {
          "internalType": "uint256",
          "name": "ret0",
          "type": "uint256"
        }
      ],
      "stateMutability": "view",
      "type": "function"
    },
    {
      "inputs": [
        {
          "internalType": "address",
          "name": "to",
          "type": "address"
        },
        {
          "internalType": "uint256",
          "name": "id",
          "type": "uint256"
        },
        {
          "internalType": "uint256",
          "name": "value",
          "type": "uint256"
        },
        {
          "internalType": "bytes",
          "name": "data",
          "type": "bytes"
        }
      ],
      "name": "$_mint",
      "outputs": [],
      "stateMutability": "nonpayable",
      "type": "function"
    },
    {
      "inputs": [
        {
          "internalType": "address",
          "name": "to",
          "type": "address"
        },
        {
          "internalType": "uint256[]",
          "name": "ids",
          "type": "uint256[]"
        },
        {
          "internalType": "uint256[]",
          "name": "values",
          "type": "uint256[]"
        },
        {
          "internalType": "bytes",
          "name": "data",
          "type": "bytes"
        }
      ],
      "name": "$_mintBatch",
      "outputs": [],
      "stateMutability": "nonpayable",
      "type": "function"
    },
    {
      "inputs": [],
      "name": "$_msgData",
      "outputs": [
        {
          "internalType": "bytes",
          "name": "ret0",
          "type": "bytes"
        }
      ],
      "stateMutability": "view",
      "type": "function"
    },
    {
      "inputs": [],
      "name": "$_msgSender",
      "outputs": [
        {
          "internalType": "address",
          "name": "ret0",
          "type": "address"
        }
      ],
      "stateMutability": "view",
      "type": "function"
    },
    {
      "inputs": [
        {
          "internalType": "address",
          "name": "from",
          "type": "address"
        },
        {
          "internalType": "address",
          "name": "to",
          "type": "address"
        },
        {
          "internalType": "uint256[]",
          "name": "ids",
          "type": "uint256[]"
        },
        {
          "internalType": "uint256[]",
          "name": "values",
          "type": "uint256[]"
        },
        {
          "internalType": "bytes",
          "name": "data",
          "type": "bytes"
        }
      ],
      "name": "$_safeBatchTransferFrom",
      "outputs": [],
      "stateMutability": "nonpayable",
      "type": "function"
    },
    {
      "inputs": [
        {
          "internalType": "address",
          "name": "from",
          "type": "address"
        },
        {
          "internalType": "address",
          "name": "to",
          "type": "address"
        },
        {
          "internalType": "uint256",
          "name": "id",
          "type": "uint256"
        },
        {
          "internalType": "uint256",
          "name": "value",
          "type": "uint256"
        },
        {
          "internalType": "bytes",
          "name": "data",
          "type": "bytes"
        }
      ],
      "name": "$_safeTransferFrom",
      "outputs": [],
      "stateMutability": "nonpayable",
      "type": "function"
    },
    {
      "inputs": [
        {
          "internalType": "address",
          "name": "owner",
          "type": "address"
        },
        {
          "internalType": "address",
          "name": "operator",
          "type": "address"
        },
        {
          "internalType": "bool",
          "name": "approved",
          "type": "bool"
        }
      ],
      "name": "$_setApprovalForAll",
      "outputs": [],
      "stateMutability": "nonpayable",
      "type": "function"
    },
    {
      "inputs": [
        {
          "internalType": "string",
          "name": "newuri",
          "type": "string"
        }
      ],
      "name": "$_setURI",
      "outputs": [],
      "stateMutability": "nonpayable",
      "type": "function"
    },
    {
      "inputs": [
        {
          "internalType": "address",
          "name": "from",
          "type": "address"
        },
        {
          "internalType": "address",
          "name": "to",
          "type": "address"
        },
        {
          "internalType": "uint256[]",
          "name": "ids",
          "type": "uint256[]"
        },
        {
          "internalType": "uint256[]",
          "name": "values",
          "type": "uint256[]"
        }
      ],
      "name": "$_update",
      "outputs": [],
      "stateMutability": "nonpayable",
      "type": "function"
    },
    {
      "inputs": [
        {
          "internalType": "address",
          "name": "from",
          "type": "address"
        },
        {
          "internalType": "address",
          "name": "to",
          "type": "address"
        },
        {
          "internalType": "uint256[]",
          "name": "ids",
          "type": "uint256[]"
        },
        {
          "internalType": "uint256[]",
          "name": "values",
          "type": "uint256[]"
        },
        {
          "internalType": "bytes",
          "name": "data",
          "type": "bytes"
        }
      ],
      "name": "$_updateWithAcceptanceCheck",
      "outputs": [],
      "stateMutability": "nonpayable",
      "type": "function"
    },
    {
      "inputs": [],
      "name": "__hh_exposed_bytecode_marker",
      "outputs": [
        {
          "internalType": "bytes32",
          "name": "",
          "type": "bytes32"
        }
      ],
      "stateMutability": "view",
      "type": "function"
    },
    {
      "inputs": [
        {
          "internalType": "address",
          "name": "account",
          "type": "address"
        },
        {
          "internalType": "uint256",
          "name": "id",
          "type": "uint256"
        }
      ],
      "name": "balanceOf",
      "outputs": [
        {
          "internalType": "uint256",
          "name": "",
          "type": "uint256"
        }
      ],
      "stateMutability": "view",
      "type": "function"
    },
    {
      "inputs": [
        {
          "internalType": "address[]",
          "name": "accounts",
          "type": "address[]"
        },
        {
          "internalType": "uint256[]",
          "name": "ids",
          "type": "uint256[]"
        }
      ],
      "name": "balanceOfBatch",
      "outputs": [
        {
          "internalType": "uint256[]",
          "name": "",
          "type": "uint256[]"
        }
      ],
      "stateMutability": "view",
      "type": "function"
    },
    {
      "inputs": [
        {
          "internalType": "address",
          "name": "account",
          "type": "address"
        },
        {
          "internalType": "uint256",
          "name": "id",
          "type": "uint256"
        },
        {
          "internalType": "uint256",
          "name": "value",
          "type": "uint256"
        }
      ],
      "name": "burn",
      "outputs": [],
      "stateMutability": "nonpayable",
      "type": "function"
    },
    {
      "inputs": [
        {
          "internalType": "address",
          "name": "account",
          "type": "address"
        },
        {
          "internalType": "uint256[]",
          "name": "ids",
          "type": "uint256[]"
        },
        {
          "internalType": "uint256[]",
          "name": "values",
          "type": "uint256[]"
        }
      ],
      "name": "burnBatch",
      "outputs": [],
      "stateMutability": "nonpayable",
      "type": "function"
    },
    {
      "inputs": [
        {
          "internalType": "address",
          "name": "account",
          "type": "address"
        },
        {
          "internalType": "address",
          "name": "operator",
          "type": "address"
        }
      ],
      "name": "isApprovedForAll",
      "outputs": [
        {
          "internalType": "bool",
          "name": "",
          "type": "bool"
        }
      ],
      "stateMutability": "view",
      "type": "function"
    },
    {
      "inputs": [
        {
          "internalType": "address",
          "name": "from",
          "type": "address"
        },
        {
          "internalType": "address",
          "name": "to",
          "type": "address"
        },
        {
          "internalType": "uint256[]",
          "name": "ids",
          "type": "uint256[]"
        },
        {
          "internalType": "uint256[]",
          "name": "values",
          "type": "uint256[]"
        },
        {
          "internalType": "bytes",
          "name": "data",
          "type": "bytes"
        }
      ],
      "name": "safeBatchTransferFrom",
      "outputs": [],
      "stateMutability": "nonpayable",
      "type": "function"
    },
    {
      "inputs": [
        {
          "internalType": "address",
          "name": "from",
          "type": "address"
        },
        {
          "internalType": "address",
          "name": "to",
          "type": "address"
        },
        {
          "internalType": "uint256",
          "name": "id",
          "type": "uint256"
        },
        {
          "internalType": "uint256",
          "name": "value",
          "type": "uint256"
        },
        {
          "internalType": "bytes",
          "name": "data",
          "type": "bytes"
        }
      ],
      "name": "safeTransferFrom",
      "outputs": [],
      "stateMutability": "nonpayable",
      "type": "function"
    },
    {
      "inputs": [
        {
          "internalType": "address",
          "name": "operator",
          "type": "address"
        },
        {
          "internalType": "bool",
          "name": "approved",
          "type": "bool"
        }
      ],
      "name": "setApprovalForAll",
      "outputs": [],
      "stateMutability": "nonpayable",
      "type": "function"
    },
    {
      "inputs": [
        {
          "internalType": "bytes4",
          "name": "interfaceId",
          "type": "bytes4"
        }
      ],
      "name": "supportsInterface",
      "outputs": [
        {
          "internalType": "bool",
          "name": "",
          "type": "bool"
        }
      ],
      "stateMutability": "view",
      "type": "function"
    },
    {
      "inputs": [
        {
          "internalType": "uint256",
          "name": "",
          "type": "uint256"
        }
      ],
      "name": "uri",
      "outputs": [
        {
          "internalType": "string",
          "name": "",
          "type": "string"
        }
      ],
      "stateMutability": "view",
      "type": "function"
    },
    {
      "stateMutability": "payable",
      "type": "receive"
    }
  ],
  "bytecode": "0x60806040526040516200213138038062002131833981016040819052620000269162000060565b8062000032816200003a565b505062000284565b6002620000488282620001b8565b5050565b634e487b7160e01b5f52604160045260245ffd5b5f602080838503121562000072575f80fd5b82516001600160401b038082111562000089575f80fd5b818501915085601f8301126200009d575f80fd5b815181811115620000b257620000b26200004c565b604051601f8201601f19908116603f01168101908382118183101715620000dd57620000dd6200004c565b816040528281528886848701011115620000f5575f80fd5b5f93505b82841015620001185784840186015181850187015292850192620000f9565b5f86848301015280965050505050505092915050565b600181811c908216806200014357607f821691505b6020821081036200016257634e487b7160e01b5f52602260045260245ffd5b50919050565b601f821115620001b357805f5260205f20601f840160051c810160208510156200018f5750805b601f840160051c820191505b81811015620001b0575f81556001016200019b565b50505b505050565b81516001600160401b03811115620001d457620001d46200004c565b620001ec81620001e584546200012e565b8462000168565b602080601f83116001811462000222575f84156200020a5750858301515b5f19600386901b1c1916600185901b1785556200027c565b5f85815260208120601f198616915b82811015620002525788860151825594840194600190910190840162000231565b50858210156200027057878501515f19600388901b60f8161c191681555b505060018460011b0185555b505050505050565b611e9f80620002925f395ff3fe608060405260043610610149575f3560e01c80636b20c454116100b3578063cfeea0d41161006d578063cfeea0d4146103aa578063e985e9c5146103c9578063ec3016f7146103e8578063eebe6ab414610407578063f242432a14610426578063f5298aca14610445575f80fd5b80636b20c454146102f05780637dfd6d691461030f578063a22cb4651461032e578063af32f2f21461034d578063b556c3281461036c578063bf445cb81461038b575f80fd5b80632eb2c2d6116101045780632eb2c2d61461023b57806332cadf3c1461025a578063342db7391461026e57806338106e25146102935780634e1273f4146102b257806367354a84146102de575f80fd5b8062fdd58e1461015457806301ffc9a7146101865780630c3c37ae146101b55780630e89341c146101d65780632904df29146102025780632d64f4791461021c575f80fd5b3661015057005b5f80fd5b34801561015f575f80fd5b5061017361016e3660046112f4565b610464565b6040519081526020015b60405180910390f35b348015610191575f80fd5b506101a56101a0366004611334565b61048b565b604051901515815260200161017d565b3480156101c0575f80fd5b506101d46101cf36600461139a565b6104da565b005b3480156101e1575f80fd5b506101f56101f036600461140c565b610524565b60405161017d9190611466565b34801561020d575f80fd5b5060405133815260200161017d565b348015610227575f80fd5b506101d46102363660046114b8565b6105b6565b348015610246575f80fd5b506101d46102553660046116a7565b610660565b348015610265575f80fd5b506101f56106c4565b348015610279575f80fd5b506101736e1a185c991a185d0b595e1c1bdcd959608a1b81565b34801561029e575f80fd5b506101d46102ad366004611749565b610701565b3480156102bd575f80fd5b506102d16102cc3660046117c3565b610774565b60405161017d91906118b6565b3480156102e9575f80fd5b505f610173565b3480156102fb575f80fd5b506101d461030a3660046118c8565b61083e565b34801561031a575f80fd5b506101d4610329366004611936565b6108a2565b348015610339575f80fd5b506101d4610348366004611996565b6108e3565b348015610358575f80fd5b506101d46103673660046119c7565b6108f2565b348015610377575f80fd5b506101d4610386366004611a3f565b61095f565b348015610396575f80fd5b506101d46103a5366004611a6f565b61096a565b3480156103b5575f80fd5b506101d46103c4366004611b11565b610a12565b3480156103d4575f80fd5b506101a56103e3366004611b51565b610a1d565b3480156103f3575f80fd5b506101d4610402366004611b79565b610a4a565b348015610412575f80fd5b506101d46104213660046114b8565b610a88565b348015610431575f80fd5b506101d4610440366004611bb7565b610b28565b348015610450575f80fd5b506101d461045f366004611a3f565b610b87565b5f818152602081815260408083206001600160a01b03861684529091529020545b92915050565b5f6001600160e01b03198216636cdb3d1360e11b14806104bb57506001600160e01b031982166303a24d0760e21b145b8061048557506301ffc9a760e01b6001600160e01b0319831614610485565b61051c8686868686868080601f0160208091040260200160405190810160405280939291908181526020018383808284375f92019190915250610bb292505050565b505050505050565b60606002805461053390611c16565b80601f016020809104026020016040519081016040528092919081815260200182805461055f90611c16565b80156105aa5780601f10610581576101008083540402835291602001916105aa565b820191905f5260205f20905b81548152906001019060200180831161058d57829003601f168201915b50505050509050919050565b61065688888888808060200260200160405190810160405280939291908181526020018383602002808284375f9201919091525050604080516020808c0282810182019093528b82529093508b92508a9182918501908490808284375f9201919091525050604080516020601f8b0181900481028201810190925289815292508991508890819084018382808284375f92019190915250610c3192505050565b5050505050505050565b336001600160a01b0386168114801590610681575061067f8682610a1d565b155b156106b75760405163711bec9160e11b81526001600160a01b038083166004830152871660248201526044015b60405180910390fd5b61051c8686868686610c84565b60605f368080601f0160208091040260200160405190810160405280939291908181526020018383808284375f9201919091525092949350505050565b61076d858585808060200260200160405190810160405280939291908181526020018383602002808284375f92019190915250506040805160208089028281018201909352888252909350889250879182918501908490808284375f92019190915250610ce292505050565b5050505050565b606081518351146107a55781518351604051635b05999160e01b8152600481019290925260248201526044016106ae565b5f83516001600160401b038111156107bf576107bf61156a565b6040519080825280602002602001820160405280156107e8578160200160208202803683370190505b5090505f5b84518110156108365760208082028601015161081190602080840287010151610464565b82828151811061082357610823611c4e565b60209081029190910101526001016107ed565b509392505050565b6001600160a01b038316331480159061085e575061085c8333610a1d565b155b1561089257335b60405163711bec9160e11b81526001600160a01b03918216600482015290841660248201526044016106ae565b61089d838383610ce2565b505050565b61076d85858585858080601f0160208091040260200160405190810160405280939291908181526020018383808284375f92019190915250610d2592505050565b6108ee338383610d80565b5050565b61051c86868686808060200260200160405190810160405280939291908181526020018383602002808284375f9201919091525050604080516020808a028281018201909352898252909350899250889182918501908490808284375f92019190915250610e1492505050565b61089d838383611023565b610a09878787808060200260200160405190810160405280939291908181526020018383602002808284375f9201919091525050604080516020808b0282810182019093528a82529093508a9250899182918501908490808284375f9201919091525050604080516020601f8a0181900481028201810190925288815292508891508790819084018382808284375f9201919091525061108992505050565b50505050505050565b61089d838383610d80565b6001600160a01b039182165f90815260016020908152604080832093909416825291909152205460ff1690565b6108ee82828080601f0160208091040260200160405190810160405280939291908181526020018383808284375f920191909152506110c592505050565b61065688888888808060200260200160405190810160405280939291908181526020018383602002808284375f9201919091525050604080516020808c0282810182019093528b82529093508b92508a9182918501908490808284375f9201919091525050604080516020601f8b0181900481028201810190925289815292508991508890819084018382808284375f92019190915250610c8492505050565b336001600160a01b0386168114801590610b495750610b478682610a1d565b155b15610b7a5760405163711bec9160e11b81526001600160a01b038083166004830152871660248201526044016106ae565b61051c8686868686610bb2565b6001600160a01b0383163314801590610ba75750610ba58333610a1d565b155b1561095f5733610865565b6001600160a01b038416610bdb57604051632bfa23e760e11b81525f60048201526024016106ae565b6001600160a01b038516610c0357604051626a0d4560e21b81525f60048201526024016106ae565b60408051600180825260208201869052818301908152606082018590526080820190925290610a0987878484875b610c3d85858585610e14565b6001600160a01b0384161561076d5782513390600103610c765760208481015190840151610c6f8389898585896110d1565b505061051c565b61051c8187878787876111f2565b6001600160a01b038416610cad57604051632bfa23e760e11b81525f60048201526024016106ae565b6001600160a01b038516610cd557604051626a0d4560e21b81525f60048201526024016106ae565b61076d8585858585610c31565b6001600160a01b038316610d0a57604051626a0d4560e21b81525f60048201526024016106ae565b61089d835f848460405180602001604052805f815250610c31565b6001600160a01b038416610d4e57604051632bfa23e760e11b81525f60048201526024016106ae565b6040805160018082526020820186905281830190815260608201859052608082019092529061051c5f87848487610c31565b6001600160a01b038216610da85760405162ced3e160e81b81525f60048201526024016106ae565b6001600160a01b038381165f81815260016020908152604080832094871680845294825291829020805460ff191686151590811790915591519182527f17307eab39ab6107e8899845ad3d59bd9653f200f220920489ca2b5937696c31910160405180910390a3505050565b8051825114610e435781518151604051635b05999160e01b8152600481019290925260248201526044016106ae565b335f5b8351811015610f45576020818102858101820151908501909101516001600160a01b03881615610ef7575f828152602081815260408083206001600160a01b038c16845290915290205481811015610ed1576040516303dee4c560e01b81526001600160a01b038a1660048201526024810182905260448101839052606481018490526084016106ae565b5f838152602081815260408083206001600160a01b038d16845290915290209082900390555b6001600160a01b03871615610f3b575f828152602081815260408083206001600160a01b038b16845290915281208054839290610f35908490611c62565b90915550505b5050600101610e46565b508251600103610fc55760208301515f906020840151909150856001600160a01b0316876001600160a01b0316846001600160a01b03167fc3d58168c5ae7397731d063d5bbf3d657854427343f4c083240f7aacaa2d0f628585604051610fb6929190918252602082015260400190565b60405180910390a4505061076d565b836001600160a01b0316856001600160a01b0316826001600160a01b03167f4a39dc06d4c0dbc64b70af90fd698a233a518aa5d07e595d983b8c0526c8f7fb8686604051611014929190611c81565b60405180910390a45050505050565b6001600160a01b03831661104b57604051626a0d4560e21b81525f60048201526024016106ae565b604080516001808252602082018590528183019081526060820184905260a082019092525f6080820181815291929161076d91879185908590610c31565b6001600160a01b0384166110b257604051632bfa23e760e11b81525f60048201526024016106ae565b6110bf5f85858585610c31565b50505050565b60026108ee8282611cf2565b6001600160a01b0384163b1561051c5760405163f23a6e6160e01b81526001600160a01b0385169063f23a6e61906111159089908990889088908890600401611dad565b6020604051808303815f875af192505050801561114f575060408051601f3d908101601f1916820190925261114c91810190611df1565b60015b6111b6573d80801561117c576040519150601f19603f3d011682016040523d82523d5f602084013e611181565b606091505b5080515f036111ae57604051632bfa23e760e11b81526001600160a01b03861660048201526024016106ae565b805181602001fd5b6001600160e01b0319811663f23a6e6160e01b14610a0957604051632bfa23e760e11b81526001600160a01b03861660048201526024016106ae565b6001600160a01b0384163b1561051c5760405163bc197c8160e01b81526001600160a01b0385169063bc197c81906112369089908990889088908890600401611e0c565b6020604051808303815f875af1925050508015611270575060408051601f3d908101601f1916820190925261126d91810190611df1565b60015b61129d573d80801561117c576040519150601f19603f3d011682016040523d82523d5f602084013e611181565b6001600160e01b0319811663bc197c8160e01b14610a0957604051632bfa23e760e11b81526001600160a01b03861660048201526024016106ae565b80356001600160a01b03811681146112ef575f80fd5b919050565b5f8060408385031215611305575f80fd5b61130e836112d9565b946020939093013593505050565b6001600160e01b031981168114611331575f80fd5b50565b5f60208284031215611344575f80fd5b813561134f8161131c565b9392505050565b5f8083601f840112611366575f80fd5b5081356001600160401b0381111561137c575f80fd5b602083019150836020828501011115611393575f80fd5b9250929050565b5f805f805f8060a087890312156113af575f80fd5b6113b8876112d9565b95506113c6602088016112d9565b9450604087013593506060870135925060808701356001600160401b038111156113ee575f80fd5b6113fa89828a01611356565b979a9699509497509295939492505050565b5f6020828403121561141c575f80fd5b5035919050565b5f81518084525f5b818110156114475760208185018101518683018201520161142b565b505f602082860101526020601f19601f83011685010191505092915050565b602081525f61134f6020830184611423565b5f8083601f840112611488575f80fd5b5081356001600160401b0381111561149e575f80fd5b6020830191508360208260051b8501011115611393575f80fd5b5f805f805f805f8060a0898b0312156114cf575f80fd5b6114d8896112d9565b97506114e660208a016112d9565b965060408901356001600160401b0380821115611501575f80fd5b61150d8c838d01611478565b909850965060608b0135915080821115611525575f80fd5b6115318c838d01611478565b909650945060808b0135915080821115611549575f80fd5b506115568b828c01611356565b999c989b5096995094979396929594505050565b634e487b7160e01b5f52604160045260245ffd5b604051601f8201601f191681016001600160401b03811182821017156115a6576115a661156a565b604052919050565b5f6001600160401b038211156115c6576115c661156a565b5060051b60200190565b5f82601f8301126115df575f80fd5b813560206115f46115ef836115ae565b61157e565b8083825260208201915060208460051b870101935086841115611615575f80fd5b602086015b84811015611631578035835291830191830161161a565b509695505050505050565b5f82601f83011261164b575f80fd5b81356001600160401b038111156116645761166461156a565b611677601f8201601f191660200161157e565b81815284602083860101111561168b575f80fd5b816020850160208301375f918101602001919091529392505050565b5f805f805f60a086880312156116bb575f80fd5b6116c4866112d9565b94506116d2602087016112d9565b935060408601356001600160401b03808211156116ed575f80fd5b6116f989838a016115d0565b9450606088013591508082111561170e575f80fd5b61171a89838a016115d0565b9350608088013591508082111561172f575f80fd5b5061173c8882890161163c565b9150509295509295909350565b5f805f805f6060868803121561175d575f80fd5b611766866112d9565b945060208601356001600160401b0380821115611781575f80fd5b61178d89838a01611478565b909650945060408801359150808211156117a5575f80fd5b506117b288828901611478565b969995985093965092949392505050565b5f80604083850312156117d4575f80fd5b82356001600160401b03808211156117ea575f80fd5b818501915085601f8301126117fd575f80fd5b8135602061180d6115ef836115ae565b82815260059290921b8401810191818101908984111561182b575f80fd5b948201945b8386101561185057611841866112d9565b82529482019490820190611830565b96505086013592505080821115611865575f80fd5b50611872858286016115d0565b9150509250929050565b5f815180845260208085019450602084015f5b838110156118ab5781518752958201959082019060010161188f565b509495945050505050565b602081525f61134f602083018461187c565b5f805f606084860312156118da575f80fd5b6118e3846112d9565b925060208401356001600160401b03808211156118fe575f80fd5b61190a878388016115d0565b9350604086013591508082111561191f575f80fd5b5061192c868287016115d0565b9150509250925092565b5f805f805f6080868803121561194a575f80fd5b611953866112d9565b9450602086013593506040860135925060608601356001600160401b0381111561197b575f80fd5b6117b288828901611356565b803580151581146112ef575f80fd5b5f80604083850312156119a7575f80fd5b6119b0836112d9565b91506119be60208401611987565b90509250929050565b5f805f805f80608087890312156119dc575f80fd5b6119e5876112d9565b95506119f3602088016112d9565b945060408701356001600160401b0380821115611a0e575f80fd5b611a1a8a838b01611478565b90965094506060890135915080821115611a32575f80fd5b506113fa89828a01611478565b5f805f60608486031215611a51575f80fd5b611a5a846112d9565b95602085013595506040909401359392505050565b5f805f805f805f6080888a031215611a85575f80fd5b611a8e886112d9565b965060208801356001600160401b0380821115611aa9575f80fd5b611ab58b838c01611478565b909850965060408a0135915080821115611acd575f80fd5b611ad98b838c01611478565b909650945060608a0135915080821115611af1575f80fd5b50611afe8a828b01611356565b989b979a50959850939692959293505050565b5f805f60608486031215611b23575f80fd5b611b2c846112d9565b9250611b3a602085016112d9565b9150611b4860408501611987565b90509250925092565b5f8060408385031215611b62575f80fd5b611b6b836112d9565b91506119be602084016112d9565b5f8060208385031215611b8a575f80fd5b82356001600160401b03811115611b9f575f80fd5b611bab85828601611356565b90969095509350505050565b5f805f805f60a08688031215611bcb575f80fd5b611bd4866112d9565b9450611be2602087016112d9565b9350604086013592506060860135915060808601356001600160401b03811115611c0a575f80fd5b61173c8882890161163c565b600181811c90821680611c2a57607f821691505b602082108103611c4857634e487b7160e01b5f52602260045260245ffd5b50919050565b634e487b7160e01b5f52603260045260245ffd5b8082018082111561048557634e487b7160e01b5f52601160045260245ffd5b604081525f611c93604083018561187c565b8281036020840152611ca5818561187c565b95945050505050565b601f82111561089d57805f5260205f20601f840160051c81016020851015611cd35750805b601f840160051c820191505b8181101561076d575f8155600101611cdf565b81516001600160401b03811115611d0b57611d0b61156a565b611d1f81611d198454611c16565b84611cae565b602080601f831160018114611d52575f8415611d3b5750858301515b5f19600386901b1c1916600185901b17855561051c565b5f85815260208120601f198616915b82811015611d8057888601518255948401946001909101908401611d61565b5085821015611d9d57878501515f19600388901b60f8161c191681555b5050505050600190811b01905550565b6001600160a01b03868116825285166020820152604081018490526060810183905260a0608082018190525f90611de690830184611423565b979650505050505050565b5f60208284031215611e01575f80fd5b815161134f8161131c565b6001600160a01b0386811682528516602082015260a0604082018190525f90611e379083018661187c565b8281036060840152611e49818661187c565b90508281036080840152611e5d8185611423565b9897505050505050505056fea264697066735822122028e25f8f3d1fdbcd1ea531d341c5b1326c23e43c721eafbb8eecdca6383315fe64736f6c63430008180033",
  "linkReferences": {},
  "deployedLinkReferences": {}
}