{
  "_format": "hh-sol-artifact-1",
  "contractName": "$CircularBuffer",
  "sourceName": "contracts-exposed/utils/structs/CircularBuffer.sol",
  "abi": [
    {
      "inputs": [],
      "stateMutability": "payable",
      "type": "constructor"
    },
    {
      "inputs": [],
      "name": "InvalidBufferSize",
      "type": "error"
    },
    {
      "inputs": [
        {
          "internalType": "uint256",
          "name": "self",
          "type": "uint256"
        }
      ],
      "name": "$clear",
      "outputs": [],
      "stateMutability": "payable",
      "type": "function"
    },
    {
      "inputs": [
        {
          "internalType": "uint256",
          "name": "self",
          "type": "uint256"
        }
      ],
      "name": "$count",
      "outputs": [
        {
          "internalType": "uint256",
          "name": "ret0",
          "type": "uint256"
        }
      ],
      "stateMutability": "view",
      "type": "function"
    },
    {
      "inputs": [
        {
          "internalType": "uint256",
          "name": "self",
          "type": "uint256"
        },
        {
          "internalType": "bytes32",
          "name": "value",
          "type": "bytes32"
        }
      ],
      "name": "$includes",
      "outputs": [
        {
          "internalType": "bool",
          "name": "ret0",
          "type": "bool"
        }
      ],
      "stateMutability": "view",
      "type": "function"
    },
    {
      "inputs": [
        {
          "internalType": "uint256",
          "name": "self",
          "type": "uint256"
        },
        {
          "internalType": "uint256",
          "name": "i",
          "type": "uint256"
        }
      ],
      "name": "$last",
      "outputs": [
        {
          "internalType": "bytes32",
          "name": "ret0",
          "type": "bytes32"
        }
      ],
      "stateMutability": "view",
      "type": "function"
    },
    {
      "inputs": [
        {
          "internalType": "uint256",
          "name": "self",
          "type": "uint256"
        }
      ],
      "name": "$length",
      "outputs": [
        {
          "internalType": "uint256",
          "name": "ret0",
          "type": "uint256"
        }
      ],
      "stateMutability": "view",
      "type": "function"
    },
    {
      "inputs": [
        {
          "internalType": "uint256",
          "name": "self",
          "type": "uint256"
        },
        {
          "internalType": "bytes32",
          "name": "value",
          "type": "bytes32"
        }
      ],
      "name": "$push",
      "outputs": [],
      "stateMutability": "payable",
      "type": "function"
    },
    {
      "inputs": [
        {
          "internalType": "uint256",
          "name": "self",
          "type": "uint256"
        },
        {
          "internalType": "uint256",
          "name": "size",
          "type": "uint256"
        }
      ],
      "name": "$setup",
      "outputs": [],
      "stateMutability": "payable",
      "type": "function"
    },
    {
      "inputs": [],
      "name": "__hh_exposed_bytecode_marker",
      "outputs": [
        {
          "internalType": "bytes32",
          "name": "",
          "type": "bytes32"
        }
      ],
      "stateMutability": "view",
      "type": "function"
    },
    {
      "stateMutability": "payable",
      "type": "receive"
    }
  ],
  "bytecode": "0x608060405261046d806100115f395ff3fe60806040526004361061007c575f3560e01c80637475ad901161004c5780637475ad901461011157806378b5767b14610130578063a2a015cc1461014f578063af3a9cfb14610162575f80fd5b80631107a7611461008757806319fc17811461009c578063342db739146100ce57806372a3147b146100f3575f80fd5b3661008357005b5f80fd5b61009a6100953660046103a2565b610191565b005b3480156100a7575f80fd5b506100bb6100b63660046103c2565b6101ac565b6040519081526020015b60405180910390f35b3480156100d9575f80fd5b506100bb6e1a185c991a185d0b595e1c1bdcd959608a1b81565b61009a6101013660046103c2565b5f90815260208190526040812055565b34801561011c575f80fd5b506100bb61012b3660046103a2565b6101c4565b34801561013b575f80fd5b506100bb61014a3660046103c2565b6101e2565b61009a61015d3660046103a2565b6101f8565b34801561016d575f80fd5b5061018161017c3660046103a2565b61020f565b60405190151581526020016100c5565b5f8281526020819052604090206101a89082610226565b5050565b5f818152602081905260408120600101545b92915050565b5f8281526020819052604081206101db9083610255565b9392505050565b5f8181526020819052604081206101be906102b7565b5f8281526020819052604090206101a890826102c9565b5f8281526020819052604081206101db90836102fc565b805f0361024657604051630c01a34b60e41b815260040160405180910390fd5b5f82556101a882600101829055565b815460018301545f91908261026a838361035b565b905080851061027d5761027d603261036a565b6102ac86600101836001888761029391906103ed565b61029d91906103ed565b6102a79190610400565b61037b565b549695505050505050565b805460018201545f916101be9161035b565b81545f9083826102d88361041f565b9091555060018401805491925083906102f5906102a78486610400565b5550505050565b815460018301545f919082610311838361035b565b90505f5b8181101561034f578561033488600101856001858961029391906103ed565b54036103475760019450505050506101be565b600101610315565b505f9695505050505050565b5f8282188284100282186101db565b634e487b715f52806020526024601cfd5b5f8261039a61039784610393845f9081526020902090565b0190565b90565b949350505050565b5f80604083850312156103b3575f80fd5b50508035926020909101359150565b5f602082840312156103d2575f80fd5b5035919050565b634e487b7160e01b5f52601160045260245ffd5b818103818111156101be576101be6103d9565b5f8261041a57634e487b7160e01b5f52601260045260245ffd5b500690565b5f60018201610430576104306103d9565b506001019056fea264697066735822122078dcca5ddcc6cf6e9c80e8542c4ecfd6df1ffaee61bdf76804bc1774f7f4a90264736f6c63430008180033",
  "linkReferences": {},
  "deployedLinkReferences": {}
}