{
  "_format": "hh-sol-artifact-1",
  "contractName": "$ConstructorMock",
  "sourceName": "contracts-exposed/mocks/ConstructorMock.sol",
  "abi": [
    {
      "inputs": [
        {
          "internalType": "enum ConstructorMock.RevertType",
          "name": "error",
          "type": "uint8"
        }
      ],
      "stateMutability": "payable",
      "type": "constructor"
    },
    {
      "inputs": [],
      "name": "CustomError",
      "type": "error"
    },
    {
      "inputs": [],
      "name": "$foo",
      "outputs": [
        {
          "internalType": "bool",
          "name": "",
          "type": "bool"
        }
      ],
      "stateMutability": "view",
      "type": "function"
    },
    {
      "inputs": [],
      "name": "__hh_exposed_bytecode_marker",
      "outputs": [
        {
          "internalType": "bytes32",
          "name": "",
          "type": "bytes32"
        }
      ],
      "stateMutability": "view",
      "type": "function"
    },
    {
      "stateMutability": "payable",
      "type": "receive"
    }
  ],
  "bytecode": "0x608060405260405161023438038061023483398101604081905261002291610113565b5f805460ff19166001908117909155819081600481111561004557610045610138565b0361004e575f80fd5b600281600481111561006257610062610138565b036100b35760405162461bcd60e51b815260206004820152601a60248201527f436f6e7374727563746f724d6f636b3a20726576657274696e67000000000000604482015260640160405180910390fd5b60038160048111156100c7576100c7610138565b036100e5576040516309caebf360e01b815260040160405180910390fd5b60048160048111156100f9576100f9610138565b0361010c575f610109818061014c565b50505b505061016b565b5f60208284031215610123575f80fd5b815160058110610131575f80fd5b9392505050565b634e487b7160e01b5f52602160045260245ffd5b5f8261016657634e487b7160e01b5f52601260045260245ffd5b500490565b60bd806101775f395ff3fe6080604052600436106028575f3560e01c8063342db7391460325780635ca2ef89146068575f80fd5b36602e57005b5f80fd5b348015603c575f80fd5b5060556e1a185c991a185d0b595e1c1bdcd959608a1b81565b6040519081526020015b60405180910390f35b3480156072575f80fd5b505f5460ff166040519015158152602001605f56fea26469706673582212202a9fc7a7f70b7a3461a96967b90cdffbda064b40079924d077382c6a96cf42e264736f6c63430008180033",
  "linkReferences": {},
  "deployedLinkReferences": {}
}