{
  "_format": "hh-sol-artifact-1",
  "contractName": "$SafeERC20",
  "sourceName": "contracts-exposed/token/ERC20/utils/SafeERC20.sol",
  "abi": [
    {
      "inputs": [],
      "stateMutability": "payable",
      "type": "constructor"
    },
    {
      "inputs": [
        {
          "internalType": "address",
          "name": "spender",
          "type": "address"
        },
        {
          "internalType": "uint256",
          "name": "currentAllowance",
          "type": "uint256"
        },
        {
          "internalType": "uint256",
          "name": "requestedDecrease",
          "type": "uint256"
        }
      ],
      "name": "SafeERC20FailedDecreaseAllowance",
      "type": "error"
    },
    {
      "inputs": [
        {
          "internalType": "address",
          "name": "token",
          "type": "address"
        }
      ],
      "name": "SafeERC20FailedOperation",
      "type": "error"
    },
    {
      "inputs": [
        {
          "internalType": "contract IERC1363",
          "name": "token",
          "type": "address"
        },
        {
          "internalType": "address",
          "name": "to",
          "type": "address"
        },
        {
          "internalType": "uint256",
          "name": "value",
          "type": "uint256"
        },
        {
          "internalType": "bytes",
          "name": "data",
          "type": "bytes"
        }
      ],
      "name": "$approveAndCallRelaxed",
      "outputs": [],
      "stateMutability": "payable",
      "type": "function"
    },
    {
      "inputs": [
        {
          "internalType": "contract IERC20",
          "name": "token",
          "type": "address"
        },
        {
          "internalType": "address",
          "name": "spender",
          "type": "address"
        },
        {
          "internalType": "uint256",
          "name": "value",
          "type": "uint256"
        }
      ],
      "name": "$forceApprove",
      "outputs": [],
      "stateMutability": "payable",
      "type": "function"
    },
    {
      "inputs": [
        {
          "internalType": "contract IERC20",
          "name": "token",
          "type": "address"
        },
        {
          "internalType": "address",
          "name": "spender",
          "type": "address"
        },
        {
          "internalType": "uint256",
          "name": "requestedDecrease",
          "type": "uint256"
        }
      ],
      "name": "$safeDecreaseAllowance",
      "outputs": [],
      "stateMutability": "payable",
      "type": "function"
    },
    {
      "inputs": [
        {
          "internalType": "contract IERC20",
          "name": "token",
          "type": "address"
        },
        {
          "internalType": "address",
          "name": "spender",
          "type": "address"
        },
        {
          "internalType": "uint256",
          "name": "value",
          "type": "uint256"
        }
      ],
      "name": "$safeIncreaseAllowance",
      "outputs": [],
      "stateMutability": "payable",
      "type": "function"
    },
    {
      "inputs": [
        {
          "internalType": "contract IERC20",
          "name": "token",
          "type": "address"
        },
        {
          "internalType": "address",
          "name": "to",
          "type": "address"
        },
        {
          "internalType": "uint256",
          "name": "value",
          "type": "uint256"
        }
      ],
      "name": "$safeTransfer",
      "outputs": [],
      "stateMutability": "payable",
      "type": "function"
    },
    {
      "inputs": [
        {
          "internalType": "contract IERC20",
          "name": "token",
          "type": "address"
        },
        {
          "internalType": "address",
          "name": "from",
          "type": "address"
        },
        {
          "internalType": "address",
          "name": "to",
          "type": "address"
        },
        {
          "internalType": "uint256",
          "name": "value",
          "type": "uint256"
        }
      ],
      "name": "$safeTransferFrom",
      "outputs": [],
      "stateMutability": "payable",
      "type": "function"
    },
    {
      "inputs": [
        {
          "internalType": "contract IERC1363",
          "name": "token",
          "type": "address"
        },
        {
          "internalType": "address",
          "name": "to",
          "type": "address"
        },
        {
          "internalType": "uint256",
          "name": "value",
          "type": "uint256"
        },
        {
          "internalType": "bytes",
          "name": "data",
          "type": "bytes"
        }
      ],
      "name": "$transferAndCallRelaxed",
      "outputs": [],
      "stateMutability": "payable",
      "type": "function"
    },
    {
      "inputs": [
        {
          "internalType": "contract IERC1363",
          "name": "token",
          "type": "address"
        },
        {
          "internalType": "address",
          "name": "from",
          "type": "address"
        },
        {
          "internalType": "address",
          "name": "to",
          "type": "address"
        },
        {
          "internalType": "uint256",
          "name": "value",
          "type": "uint256"
        },
        {
          "internalType": "bytes",
          "name": "data",
          "type": "bytes"
        }
      ],
      "name": "$transferFromAndCallRelaxed",
      "outputs": [],
      "stateMutability": "payable",
      "type": "function"
    },
    {
      "inputs": [],
      "name": "__hh_exposed_bytecode_marker",
      "outputs": [
        {
          "internalType": "bytes32",
          "name": "",
          "type": "bytes32"
        }
      ],
      "stateMutability": "view",
      "type": "function"
    },
    {
      "stateMutability": "payable",
      "type": "receive"
    }
  ],
  "bytecode": "0x6080604052610a74806100115f395ff3fe608060405260043610610087575f3560e01c80637359698e116100575780637359698e146101045780637da4e8da146101175780637e96cc481461012a57806395b479601461013d578063cea9cc1314610150575f80fd5b806329b3dfeb14610092578063342db739146100a75780635e12330a146100de5780636bec7603146100f1575f80fd5b3661008e57005b5f80fd5b6100a56100a0366004610775565b610163565b005b3480156100b2575f80fd5b506100cc6e1a185c991a185d0b595e1c1bdcd959608a1b81565b60405190815260200160405180910390f35b6100a56100ec3660046107f8565b610173565b6100a56100ff366004610775565b6101bb565b6100a5610112366004610866565b6101c6565b6100a5610125366004610775565b6101d8565b6100a56101383660046107f8565b6101e3565b6100a561014b366004610775565b610224565b6100a561015e3660046108b4565b61022f565b61016e838383610279565b505050565b6101b485858585858080601f0160208091040260200160405190810160405280939291908181526020018383808284375f9201919091525061033892505050565b5050505050565b61016e8383836103f1565b6101d284848484610450565b50505050565b61016e838383610489565b6101b485858585858080601f0160208091040260200160405190810160405280939291908181526020018383808284375f9201919091525061051092505050565b61016e83838361055c565b6102718686868686868080601f0160208091040260200160405190810160405280939291908181526020018383808284375f920191909152506105eb92505050565b505050505050565b604051636eb1769f60e11b81523060048201526001600160a01b0383811660248301525f919085169063dd62ed3e90604401602060405180830381865afa1580156102c6573d5f803e3d5ffd5b505050506040513d601f19601f820116820180604052508101906102ea9190610934565b90508181101561032b5760405163e570110f60e01b81526001600160a01b038416600482015260248101829052604481018390526064015b60405180910390fd5b6101d2848484840361055c565b826001600160a01b03163b5f03610359576103548484846103f1565b6101d2565b604051630200057560e51b81526001600160a01b03851690634000aea0906103899086908690869060040161098e565b6020604051808303815f875af11580156103a5573d5f803e3d5ffd5b505050506040513d601f19601f820116820180604052508101906103c991906109bd565b6101d257604051635274afe760e01b81526001600160a01b0385166004820152602401610322565b6040516001600160a01b0383811660248301526044820183905261016e91859182169063a9059cbb906064015b604051602081830303815290604052915060e01b6020820180516001600160e01b0383818316178352505050506106a7565b6040516001600160a01b0384811660248301528381166044830152606482018390526101d29186918216906323b872dd9060840161041e565b604051636eb1769f60e11b81523060048201526001600160a01b0383811660248301525f919085169063dd62ed3e90604401602060405180830381865afa1580156104d6573d5f803e3d5ffd5b505050506040513d601f19601f820116820180604052508101906104fa9190610934565b90506101d2848461050b85856109e3565b61055c565b826001600160a01b03163b5f0361052c5761035484848461055c565b60405163cae9ca5160e01b81526001600160a01b0385169063cae9ca51906103899086908690869060040161098e565b604080516001600160a01b038416602482015260448082018490528251808303909101815260649091019091526020810180516001600160e01b031663095ea7b360e01b1790526105ad8482610713565b6101d2576040516001600160a01b0384811660248301525f60448301526105e191869182169063095ea7b39060640161041e565b6101d284826106a7565b826001600160a01b03163b5f0361060d5761060885858585610450565b6101b4565b60405163c1d34b8960e01b81526001600160a01b0386169063c1d34b899061063f908790879087908790600401610a02565b6020604051808303815f875af115801561065b573d5f803e3d5ffd5b505050506040513d601f19601f8201168201806040525081019061067f91906109bd565b6101b457604051635274afe760e01b81526001600160a01b0386166004820152602401610322565b5f8060205f8451602086015f885af1806106c6576040513d5f823e3d81fd5b50505f513d915081156106dd5780600114156106ea565b6001600160a01b0384163b155b156101d257604051635274afe760e01b81526001600160a01b0385166004820152602401610322565b5f805f8060205f8651602088015f8a5af192503d91505f519050828015610752575081156107445780600114610752565b5f866001600160a01b03163b115b93505050505b92915050565b6001600160a01b0381168114610772575f80fd5b50565b5f805f60608486031215610787575f80fd5b83356107928161075e565b925060208401356107a28161075e565b929592945050506040919091013590565b5f8083601f8401126107c3575f80fd5b50813567ffffffffffffffff8111156107da575f80fd5b6020830191508360208285010111156107f1575f80fd5b9250929050565b5f805f805f6080868803121561080c575f80fd5b85356108178161075e565b945060208601356108278161075e565b935060408601359250606086013567ffffffffffffffff811115610849575f80fd5b610855888289016107b3565b969995985093965092949392505050565b5f805f8060808587031215610879575f80fd5b84356108848161075e565b935060208501356108948161075e565b925060408501356108a48161075e565b9396929550929360600135925050565b5f805f805f8060a087890312156108c9575f80fd5b86356108d48161075e565b955060208701356108e48161075e565b945060408701356108f48161075e565b935060608701359250608087013567ffffffffffffffff811115610916575f80fd5b61092289828a016107b3565b979a9699509497509295939492505050565b5f60208284031215610944575f80fd5b5051919050565b5f81518084525f5b8181101561096f57602081850181015186830182015201610953565b505f602082860101526020601f19601f83011685010191505092915050565b60018060a01b0384168152826020820152606060408201525f6109b4606083018461094b565b95945050505050565b5f602082840312156109cd575f80fd5b815180151581146109dc575f80fd5b9392505050565b8082018082111561075857634e487b7160e01b5f52601160045260245ffd5b6001600160a01b03858116825284166020820152604081018390526080606082018190525f90610a349083018461094b565b969550505050505056fea264697066735822122084ac9e386cbf3f78a8645de6356107db3e6c7170288280299825adafa8680ec864736f6c63430008180033",
  "linkReferences": {},
  "deployedLinkReferences": {}
}