{
  "_format": "hh-sol-artifact-1",
  "contractName": "ERC20ExcessDecimalsMock",
  "sourceName": "contracts/mocks/token/ERC20ExcessDecimalsMock.sol",
  "abi": [
    {
      "inputs": [],
      "name": "decimals",
      "outputs": [
        {
          "internalType": "uint256",
          "name": "",
          "type": "uint256"
        }
      ],
      "stateMutability": "pure",
      "type": "function"
    }
  ],
  "bytecode": "0x6080604052348015600e575f80fd5b50607480601a5f395ff3fe6080604052348015600e575f80fd5b50600436106026575f3560e01c8063313ce56714602a575b5f80fd5b5f1960405190815260200160405180910390f3fea2646970667358221220027c25491f6e2bdaa7afc7c6ebdb84c0a04a6f6a99af6d591ee942d1dff019f864736f6c63430008180033",
  "linkReferences": {},
  "deployedLinkReferences": {}
}