{
  "_format": "hh-sol-artifact-1",
  "contractName": "$GLDToken",
  "sourceName": "contracts-exposed/mocks/docs/token/ERC20/GLDToken.sol",
  "abi": [
    {
      "inputs": [
        {
          "internalType": "uint256",
          "name": "initialSupply",
          "type": "uint256"
        }
      ],
      "stateMutability": "payable",
      "type": "constructor"
    },
    {
      "inputs": [
        {
          "internalType": "address",
          "name": "spender",
          "type": "address"
        },
        {
          "internalType": "uint256",
          "name": "allowance",
          "type": "uint256"
        },
        {
          "internalType": "uint256",
          "name": "needed",
          "type": "uint256"
        }
      ],
      "name": "ERC20InsufficientAllowance",
      "type": "error"
    },
    {
      "inputs": [
        {
          "internalType": "address",
          "name": "sender",
          "type": "address"
        },
        {
          "internalType": "uint256",
          "name": "balance",
          "type": "uint256"
        },
        {
          "internalType": "uint256",
          "name": "needed",
          "type": "uint256"
        }
      ],
      "name": "ERC20InsufficientBalance",
      "type": "error"
    },
    {
      "inputs": [
        {
          "internalType": "address",
          "name": "approver",
          "type": "address"
        }
      ],
      "name": "ERC20InvalidApprover",
      "type": "error"
    },
    {
      "inputs": [
        {
          "internalType": "address",
          "name": "receiver",
          "type": "address"
        }
      ],
      "name": "ERC20InvalidReceiver",
      "type": "error"
    },
    {
      "inputs": [
        {
          "internalType": "address",
          "name": "sender",
          "type": "address"
        }
      ],
      "name": "ERC20InvalidSender",
      "type": "error"
    },
    {
      "inputs": [
        {
          "internalType": "address",
          "name": "spender",
          "type": "address"
        }
      ],
      "name": "ERC20InvalidSpender",
      "type": "error"
    },
    {
      "anonymous": false,
      "inputs": [
        {
          "indexed": true,
          "internalType": "address",
          "name": "owner",
          "type": "address"
        },
        {
          "indexed": true,
          "internalType": "address",
          "name": "spender",
          "type": "address"
        },
        {
          "indexed": false,
          "internalType": "uint256",
          "name": "value",
          "type": "uint256"
        }
      ],
      "name": "Approval",
      "type": "event"
    },
    {
      "anonymous": false,
      "inputs": [
        {
          "indexed": true,
          "internalType": "address",
          "name": "from",
          "type": "address"
        },
        {
          "indexed": true,
          "internalType": "address",
          "name": "to",
          "type": "address"
        },
        {
          "indexed": false,
          "internalType": "uint256",
          "name": "value",
          "type": "uint256"
        }
      ],
      "name": "Transfer",
      "type": "event"
    },
    {
      "inputs": [
        {
          "internalType": "address",
          "name": "owner",
          "type": "address"
        },
        {
          "internalType": "address",
          "name": "spender",
          "type": "address"
        },
        {
          "internalType": "uint256",
          "name": "value",
          "type": "uint256"
        },
        {
          "internalType": "bool",
          "name": "emitEvent",
          "type": "bool"
        }
      ],
      "name": "$_approve",
      "outputs": [],
      "stateMutability": "nonpayable",
      "type": "function"
    },
    {
      "inputs": [
        {
          "internalType": "address",
          "name": "owner",
          "type": "address"
        },
        {
          "internalType": "address",
          "name": "spender",
          "type": "address"
        },
        {
          "internalType": "uint256",
          "name": "value",
          "type": "uint256"
        }
      ],
      "name": "$_approve",
      "outputs": [],
      "stateMutability": "nonpayable",
      "type": "function"
    },
    {
      "inputs": [
        {
          "internalType": "address",
          "name": "account",
          "type": "address"
        },
        {
          "internalType": "uint256",
          "name": "value",
          "type": "uint256"
        }
      ],
      "name": "$_burn",
      "outputs": [],
      "stateMutability": "nonpayable",
      "type": "function"
    },
    {
      "inputs": [],
      "name": "$_contextSuffixLength",
      "outputs": [
        {
          "internalType": "uint256",
          "name": "ret0",
          "type": "uint256"
        }
      ],
      "stateMutability": "view",
      "type": "function"
    },
    {
      "inputs": [
        {
          "internalType": "address",
          "name": "account",
          "type": "address"
        },
        {
          "internalType": "uint256",
          "name": "value",
          "type": "uint256"
        }
      ],
      "name": "$_mint",
      "outputs": [],
      "stateMutability": "nonpayable",
      "type": "function"
    },
    {
      "inputs": [],
      "name": "$_msgData",
      "outputs": [
        {
          "internalType": "bytes",
          "name": "ret0",
          "type": "bytes"
        }
      ],
      "stateMutability": "view",
      "type": "function"
    },
    {
      "inputs": [],
      "name": "$_msgSender",
      "outputs": [
        {
          "internalType": "address",
          "name": "ret0",
          "type": "address"
        }
      ],
      "stateMutability": "view",
      "type": "function"
    },
    {
      "inputs": [
        {
          "internalType": "address",
          "name": "owner",
          "type": "address"
        },
        {
          "internalType": "address",
          "name": "spender",
          "type": "address"
        },
        {
          "internalType": "uint256",
          "name": "value",
          "type": "uint256"
        }
      ],
      "name": "$_spendAllowance",
      "outputs": [],
      "stateMutability": "nonpayable",
      "type": "function"
    },
    {
      "inputs": [
        {
          "internalType": "address",
          "name": "from",
          "type": "address"
        },
        {
          "internalType": "address",
          "name": "to",
          "type": "address"
        },
        {
          "internalType": "uint256",
          "name": "value",
          "type": "uint256"
        }
      ],
      "name": "$_transfer",
      "outputs": [],
      "stateMutability": "nonpayable",
      "type": "function"
    },
    {
      "inputs": [
        {
          "internalType": "address",
          "name": "from",
          "type": "address"
        },
        {
          "internalType": "address",
          "name": "to",
          "type": "address"
        },
        {
          "internalType": "uint256",
          "name": "value",
          "type": "uint256"
        }
      ],
      "name": "$_update",
      "outputs": [],
      "stateMutability": "nonpayable",
      "type": "function"
    },
    {
      "inputs": [],
      "name": "__hh_exposed_bytecode_marker",
      "outputs": [
        {
          "internalType": "bytes32",
          "name": "",
          "type": "bytes32"
        }
      ],
      "stateMutability": "view",
      "type": "function"
    },
    {
      "inputs": [
        {
          "internalType": "address",
          "name": "owner",
          "type": "address"
        },
        {
          "internalType": "address",
          "name": "spender",
          "type": "address"
        }
      ],
      "name": "allowance",
      "outputs": [
        {
          "internalType": "uint256",
          "name": "",
          "type": "uint256"
        }
      ],
      "stateMutability": "view",
      "type": "function"
    },
    {
      "inputs": [
        {
          "internalType": "address",
          "name": "spender",
          "type": "address"
        },
        {
          "internalType": "uint256",
          "name": "value",
          "type": "uint256"
        }
      ],
      "name": "approve",
      "outputs": [
        {
          "internalType": "bool",
          "name": "",
          "type": "bool"
        }
      ],
      "stateMutability": "nonpayable",
      "type": "function"
    },
    {
      "inputs": [
        {
          "internalType": "address",
          "name": "account",
          "type": "address"
        }
      ],
      "name": "balanceOf",
      "outputs": [
        {
          "internalType": "uint256",
          "name": "",
          "type": "uint256"
        }
      ],
      "stateMutability": "view",
      "type": "function"
    },
    {
      "inputs": [],
      "name": "decimals",
      "outputs": [
        {
          "internalType": "uint8",
          "name": "",
          "type": "uint8"
        }
      ],
      "stateMutability": "view",
      "type": "function"
    },
    {
      "inputs": [],
      "name": "name",
      "outputs": [
        {
          "internalType": "string",
          "name": "",
          "type": "string"
        }
      ],
      "stateMutability": "view",
      "type": "function"
    },
    {
      "inputs": [],
      "name": "symbol",
      "outputs": [
        {
          "internalType": "string",
          "name": "",
          "type": "string"
        }
      ],
      "stateMutability": "view",
      "type": "function"
    },
    {
      "inputs": [],
      "name": "totalSupply",
      "outputs": [
        {
          "internalType": "uint256",
          "name": "",
          "type": "uint256"
        }
      ],
      "stateMutability": "view",
      "type": "function"
    },
    {
      "inputs": [
        {
          "internalType": "address",
          "name": "to",
          "type": "address"
        },
        {
          "internalType": "uint256",
          "name": "value",
          "type": "uint256"
        }
      ],
      "name": "transfer",
      "outputs": [
        {
          "internalType": "bool",
          "name": "",
          "type": "bool"
        }
      ],
      "stateMutability": "nonpayable",
      "type": "function"
    },
    {
      "inputs": [
        {
          "internalType": "address",
          "name": "from",
          "type": "address"
        },
        {
          "internalType": "address",
          "name": "to",
          "type": "address"
        },
        {
          "internalType": "uint256",
          "name": "value",
          "type": "uint256"
        }
      ],
      "name": "transferFrom",
      "outputs": [
        {
          "internalType": "bool",
          "name": "",
          "type": "bool"
        }
      ],
      "stateMutability": "nonpayable",
      "type": "function"
    },
    {
      "stateMutability": "payable",
      "type": "receive"
    }
  ],
  "bytecode": "0x608060405260405162000e4038038062000e4083398101604081905262000026916200020c565b806040518060400160405280600481526020016311dbdb1960e21b8152506040518060400160405280600381526020016211d31160ea1b8152508160039081620000719190620002c2565b506004620000808282620002c2565b5050506200009533826200009d60201b60201c565b5050620003b4565b6001600160a01b038216620000cc5760405163ec442f0560e01b81525f60048201526024015b60405180910390fd5b620000d95f8383620000dd565b5050565b6001600160a01b0383166200010b578060025f828254620000ff91906200038e565b909155506200017d9050565b6001600160a01b0383165f90815260208190526040902054818110156200015f5760405163391434e360e21b81526001600160a01b03851660048201526024810182905260448101839052606401620000c3565b6001600160a01b0384165f9081526020819052604090209082900390555b6001600160a01b0382166200019b57600280548290039055620001b9565b6001600160a01b0382165f9081526020819052604090208054820190555b816001600160a01b0316836001600160a01b03167fddf252ad1be2c89b69c2b068fc378daa952ba7f163c4a11628f55a4df523b3ef83604051620001ff91815260200190565b60405180910390a3505050565b5f602082840312156200021d575f80fd5b5051919050565b634e487b7160e01b5f52604160045260245ffd5b600181811c908216806200024d57607f821691505b6020821081036200026c57634e487b7160e01b5f52602260045260245ffd5b50919050565b601f821115620002bd57805f5260205f20601f840160051c81016020851015620002995750805b601f840160051c820191505b81811015620002ba575f8155600101620002a5565b50505b505050565b81516001600160401b03811115620002de57620002de62000224565b620002f681620002ef845462000238565b8462000272565b602080601f8311600181146200032c575f8415620003145750858301515b5f19600386901b1c1916600185901b17855562000386565b5f85815260208120601f198616915b828110156200035c578886015182559484019460019091019084016200033b565b50858210156200037a57878501515f19600388901b60f8161c191681555b505060018460011b0185555b505050505050565b80820180821115620003ae57634e487b7160e01b5f52601160045260245ffd5b92915050565b610a7e80620003c25f395ff3fe60806040526004361061011e575f3560e01c80636855a1781161009d578063b2331d7d11610062578063b2331d7d14610305578063cc461d6214610324578063dd62ed3e14610343578063e047838d14610387578063efb43b07146103a6575f80fd5b80636855a1781461026057806370a082311461027f578063861e3d3d146102b357806395d89b41146102d2578063a9059cbb146102e6575f80fd5b8063313ce567116100e3578063313ce567146101d957806332bc74aa146101f457806332cadf3c14610215578063342db7391461022957806367354a841461024e575f80fd5b806306fdde0314610129578063095ea7b31461015357806318160ddd1461018257806323b872dd146101a05780632904df29146101bf575f80fd5b3661012557005b5f80fd5b348015610134575f80fd5b5061013d6103c5565b60405161014a91906108c2565b60405180910390f35b34801561015e575f80fd5b5061017261016d3660046108f6565b610455565b604051901515815260200161014a565b34801561018d575f80fd5b506002545b60405190815260200161014a565b3480156101ab575f80fd5b506101726101ba36600461091e565b61046e565b3480156101ca575f80fd5b5060405133815260200161014a565b3480156101e4575f80fd5b506040516012815260200161014a565b3480156101ff575f80fd5b5061021361020e366004610957565b610491565b005b348015610220575f80fd5b5061013d6104a3565b348015610234575f80fd5b506101926e1a185c991a185d0b595e1c1bdcd959608a1b81565b348015610259575f80fd5b505f610192565b34801561026b575f80fd5b5061021361027a36600461091e565b6104e0565b34801561028a575f80fd5b506101926102993660046109a7565b6001600160a01b03165f9081526020819052604090205490565b3480156102be575f80fd5b506102136102cd36600461091e565b6104f0565b3480156102dd575f80fd5b5061013d6104fb565b3480156102f1575f80fd5b506101726103003660046108f6565b61050a565b348015610310575f80fd5b5061021361031f36600461091e565b610517565b34801561032f575f80fd5b5061021361033e3660046108f6565b610522565b34801561034e575f80fd5b5061019261035d3660046109c0565b6001600160a01b039182165f90815260016020908152604080832093909416825291909152205490565b348015610392575f80fd5b506102136103a13660046108f6565b610530565b3480156103b1575f80fd5b506102136103c036600461091e565b61053a565b6060600380546103d4906109f1565b80601f0160208091040260200160405190810160405280929190818152602001828054610400906109f1565b801561044b5780601f106104225761010080835404028352916020019161044b565b820191905f5260205f20905b81548152906001019060200180831161042e57829003601f168201915b5050505050905090565b5f33610462818585610545565b60019150505b92915050565b5f3361047b858285610552565b6104868585856105cd565b506001949350505050565b61049d8484848461061f565b50505050565b60605f368080601f0160208091040260200160405190810160405280939291908181526020018383808284375f9201919091525092949350505050565b6104eb8383836106f1565b505050565b6104eb838383610545565b6060600480546103d4906109f1565b5f336104628185856105cd565b6104eb838383610552565b61052c8282610817565b5050565b61052c828261084b565b6104eb8383836105cd565b6104eb838383600161061f565b6001600160a01b038381165f908152600160209081526040808320938616835292905220545f1981101561049d57818110156105bf57604051637dc7a0d960e11b81526001600160a01b038416600482015260248101829052604481018390526064015b60405180910390fd5b61049d84848484035f61061f565b6001600160a01b0383166105f657604051634b637e8f60e11b81525f60048201526024016105b6565b6001600160a01b0382166104e05760405163ec442f0560e01b81525f60048201526024016105b6565b6001600160a01b0384166106485760405163e602df0560e01b81525f60048201526024016105b6565b6001600160a01b03831661067157604051634a1406b160e11b81525f60048201526024016105b6565b6001600160a01b038085165f908152600160209081526040808320938716835292905220829055801561049d57826001600160a01b0316846001600160a01b03167f8c5be1e5ebec7d5bd14f71427d1e84f3dd0314c0f7b2291e5b200ac8c7c3b925846040516106e391815260200190565b60405180910390a350505050565b6001600160a01b03831661071b578060025f8282546107109190610a29565b9091555061078b9050565b6001600160a01b0383165f908152602081905260409020548181101561076d5760405163391434e360e21b81526001600160a01b038516600482015260248101829052604481018390526064016105b6565b6001600160a01b0384165f9081526020819052604090209082900390555b6001600160a01b0382166107a7576002805482900390556107c5565b6001600160a01b0382165f9081526020819052604090208054820190555b816001600160a01b0316836001600160a01b03167fddf252ad1be2c89b69c2b068fc378daa952ba7f163c4a11628f55a4df523b3ef8360405161080a91815260200190565b60405180910390a3505050565b6001600160a01b0382166108405760405163ec442f0560e01b81525f60048201526024016105b6565b61052c5f83836106f1565b6001600160a01b03821661087457604051634b637e8f60e11b81525f60048201526024016105b6565b61052c825f836106f1565b5f81518084525f5b818110156108a357602081850181015186830182015201610887565b505f602082860101526020601f19601f83011685010191505092915050565b602081525f6108d4602083018461087f565b9392505050565b80356001600160a01b03811681146108f1575f80fd5b919050565b5f8060408385031215610907575f80fd5b610910836108db565b946020939093013593505050565b5f805f60608486031215610930575f80fd5b610939846108db565b9250610947602085016108db565b9150604084013590509250925092565b5f805f806080858703121561096a575f80fd5b610973856108db565b9350610981602086016108db565b9250604085013591506060850135801515811461099c575f80fd5b939692955090935050565b5f602082840312156109b7575f80fd5b6108d4826108db565b5f80604083850312156109d1575f80fd5b6109da836108db565b91506109e8602084016108db565b90509250929050565b600181811c90821680610a0557607f821691505b602082108103610a2357634e487b7160e01b5f52602260045260245ffd5b50919050565b8082018082111561046857634e487b7160e01b5f52601160045260245ffdfea26469706673582212209824cc289b465da23e236fb176e0bf7d22d140827ae910aac8dd2fb156675cfd64736f6c63430008180033",
  "linkReferences": {},
  "deployedLinkReferences": {}
}