{
  "_format": "hh-sol-artifact-1",
  "contractName": "$MyNFT",
  "sourceName": "contracts-exposed/mocks/docs/MyNFT.sol",
  "abi": [
    {
      "inputs": [],
      "stateMutability": "payable",
      "type": "constructor"
    },
    {
      "inputs": [
        {
          "internalType": "address",
          "name": "sender",
          "type": "address"
        },
        {
          "internalType": "uint256",
          "name": "tokenId",
          "type": "uint256"
        },
        {
          "internalType": "address",
          "name": "owner",
          "type": "address"
        }
      ],
      "name": "ERC721IncorrectOwner",
      "type": "error"
    },
    {
      "inputs": [
        {
          "internalType": "address",
          "name": "operator",
          "type": "address"
        },
        {
          "internalType": "uint256",
          "name": "tokenId",
          "type": "uint256"
        }
      ],
      "name": "ERC721InsufficientApproval",
      "type": "error"
    },
    {
      "inputs": [
        {
          "internalType": "address",
          "name": "approver",
          "type": "address"
        }
      ],
      "name": "ERC721InvalidApprover",
      "type": "error"
    },
    {
      "inputs": [
        {
          "internalType": "address",
          "name": "operator",
          "type": "address"
        }
      ],
      "name": "ERC721InvalidOperator",
      "type": "error"
    },
    {
      "inputs": [
        {
          "internalType": "address",
          "name": "owner",
          "type": "address"
        }
      ],
      "name": "ERC721InvalidOwner",
      "type": "error"
    },
    {
      "inputs": [
        {
          "internalType": "address",
          "name": "receiver",
          "type": "address"
        }
      ],
      "name": "ERC721InvalidReceiver",
      "type": "error"
    },
    {
      "inputs": [
        {
          "internalType": "address",
          "name": "sender",
          "type": "address"
        }
      ],
      "name": "ERC721InvalidSender",
      "type": "error"
    },
    {
      "inputs": [
        {
          "internalType": "uint256",
          "name": "tokenId",
          "type": "uint256"
        }
      ],
      "name": "ERC721NonexistentToken",
      "type": "error"
    },
    {
      "anonymous": false,
      "inputs": [
        {
          "indexed": true,
          "internalType": "address",
          "name": "owner",
          "type": "address"
        },
        {
          "indexed": true,
          "internalType": "address",
          "name": "approved",
          "type": "address"
        },
        {
          "indexed": true,
          "internalType": "uint256",
          "name": "tokenId",
          "type": "uint256"
        }
      ],
      "name": "Approval",
      "type": "event"
    },
    {
      "anonymous": false,
      "inputs": [
        {
          "indexed": true,
          "internalType": "address",
          "name": "owner",
          "type": "address"
        },
        {
          "indexed": true,
          "internalType": "address",
          "name": "operator",
          "type": "address"
        },
        {
          "indexed": false,
          "internalType": "bool",
          "name": "approved",
          "type": "bool"
        }
      ],
      "name": "ApprovalForAll",
      "type": "event"
    },
    {
      "anonymous": false,
      "inputs": [
        {
          "indexed": true,
          "internalType": "address",
          "name": "from",
          "type": "address"
        },
        {
          "indexed": true,
          "internalType": "address",
          "name": "to",
          "type": "address"
        },
        {
          "indexed": true,
          "internalType": "uint256",
          "name": "tokenId",
          "type": "uint256"
        }
      ],
      "name": "Transfer",
      "type": "event"
    },
    {
      "anonymous": false,
      "inputs": [
        {
          "indexed": false,
          "internalType": "address",
          "name": "ret0",
          "type": "address"
        }
      ],
      "name": "return$_update",
      "type": "event"
    },
    {
      "inputs": [
        {
          "internalType": "address",
          "name": "to",
          "type": "address"
        },
        {
          "internalType": "uint256",
          "name": "tokenId",
          "type": "uint256"
        },
        {
          "internalType": "address",
          "name": "auth",
          "type": "address"
        },
        {
          "internalType": "bool",
          "name": "emitEvent",
          "type": "bool"
        }
      ],
      "name": "$_approve",
      "outputs": [],
      "stateMutability": "nonpayable",
      "type": "function"
    },
    {
      "inputs": [
        {
          "internalType": "address",
          "name": "to",
          "type": "address"
        },
        {
          "internalType": "uint256",
          "name": "tokenId",
          "type": "uint256"
        },
        {
          "internalType": "address",
          "name": "auth",
          "type": "address"
        }
      ],
      "name": "$_approve",
      "outputs": [],
      "stateMutability": "nonpayable",
      "type": "function"
    },
    {
      "inputs": [],
      "name": "$_baseURI",
      "outputs": [
        {
          "internalType": "string",
          "name": "ret0",
          "type": "string"
        }
      ],
      "stateMutability": "view",
      "type": "function"
    },
    {
      "inputs": [
        {
          "internalType": "uint256",
          "name": "tokenId",
          "type": "uint256"
        }
      ],
      "name": "$_burn",
      "outputs": [],
      "stateMutability": "nonpayable",
      "type": "function"
    },
    {
      "inputs": [
        {
          "internalType": "address",
          "name": "owner",
          "type": "address"
        },
        {
          "internalType": "address",
          "name": "spender",
          "type": "address"
        },
        {
          "internalType": "uint256",
          "name": "tokenId",
          "type": "uint256"
        }
      ],
      "name": "$_checkAuthorized",
      "outputs": [],
      "stateMutability": "view",
      "type": "function"
    },
    {
      "inputs": [],
      "name": "$_contextSuffixLength",
      "outputs": [
        {
          "internalType": "uint256",
          "name": "ret0",
          "type": "uint256"
        }
      ],
      "stateMutability": "view",
      "type": "function"
    },
    {
      "inputs": [
        {
          "internalType": "uint256",
          "name": "tokenId",
          "type": "uint256"
        }
      ],
      "name": "$_getApproved",
      "outputs": [
        {
          "internalType": "address",
          "name": "ret0",
          "type": "address"
        }
      ],
      "stateMutability": "view",
      "type": "function"
    },
    {
      "inputs": [
        {
          "internalType": "address",
          "name": "account",
          "type": "address"
        },
        {
          "internalType": "uint128",
          "name": "value",
          "type": "uint128"
        }
      ],
      "name": "$_increaseBalance",
      "outputs": [],
      "stateMutability": "nonpayable",
      "type": "function"
    },
    {
      "inputs": [
        {
          "internalType": "address",
          "name": "owner",
          "type": "address"
        },
        {
          "internalType": "address",
          "name": "spender",
          "type": "address"
        },
        {
          "internalType": "uint256",
          "name": "tokenId",
          "type": "uint256"
        }
      ],
      "name": "$_isAuthorized",
      "outputs": [
        {
          "internalType": "bool",
          "name": "ret0",
          "type": "bool"
        }
      ],
      "stateMutability": "view",
      "type": "function"
    },
    {
      "inputs": [
        {
          "internalType": "address",
          "name": "to",
          "type": "address"
        },
        {
          "internalType": "uint256",
          "name": "tokenId",
          "type": "uint256"
        }
      ],
      "name": "$_mint",
      "outputs": [],
      "stateMutability": "nonpayable",
      "type": "function"
    },
    {
      "inputs": [],
      "name": "$_msgData",
      "outputs": [
        {
          "internalType": "bytes",
          "name": "ret0",
          "type": "bytes"
        }
      ],
      "stateMutability": "view",
      "type": "function"
    },
    {
      "inputs": [],
      "name": "$_msgSender",
      "outputs": [
        {
          "internalType": "address",
          "name": "ret0",
          "type": "address"
        }
      ],
      "stateMutability": "view",
      "type": "function"
    },
    {
      "inputs": [
        {
          "internalType": "uint256",
          "name": "tokenId",
          "type": "uint256"
        }
      ],
      "name": "$_ownerOf",
      "outputs": [
        {
          "internalType": "address",
          "name": "ret0",
          "type": "address"
        }
      ],
      "stateMutability": "view",
      "type": "function"
    },
    {
      "inputs": [
        {
          "internalType": "uint256",
          "name": "tokenId",
          "type": "uint256"
        }
      ],
      "name": "$_requireOwned",
      "outputs": [
        {
          "internalType": "address",
          "name": "ret0",
          "type": "address"
        }
      ],
      "stateMutability": "view",
      "type": "function"
    },
    {
      "inputs": [
        {
          "internalType": "address",
          "name": "to",
          "type": "address"
        },
        {
          "internalType": "uint256",
          "name": "tokenId",
          "type": "uint256"
        },
        {
          "internalType": "bytes",
          "name": "data",
          "type": "bytes"
        }
      ],
      "name": "$_safeMint",
      "outputs": [],
      "stateMutability": "nonpayable",
      "type": "function"
    },
    {
      "inputs": [
        {
          "internalType": "address",
          "name": "to",
          "type": "address"
        },
        {
          "internalType": "uint256",
          "name": "tokenId",
          "type": "uint256"
        }
      ],
      "name": "$_safeMint",
      "outputs": [],
      "stateMutability": "nonpayable",
      "type": "function"
    },
    {
      "inputs": [
        {
          "internalType": "address",
          "name": "from",
          "type": "address"
        },
        {
          "internalType": "address",
          "name": "to",
          "type": "address"
        },
        {
          "internalType": "uint256",
          "name": "tokenId",
          "type": "uint256"
        },
        {
          "internalType": "bytes",
          "name": "data",
          "type": "bytes"
        }
      ],
      "name": "$_safeTransfer",
      "outputs": [],
      "stateMutability": "nonpayable",
      "type": "function"
    },
    {
      "inputs": [
        {
          "internalType": "address",
          "name": "from",
          "type": "address"
        },
        {
          "internalType": "address",
          "name": "to",
          "type": "address"
        },
        {
          "internalType": "uint256",
          "name": "tokenId",
          "type": "uint256"
        }
      ],
      "name": "$_safeTransfer",
      "outputs": [],
      "stateMutability": "nonpayable",
      "type": "function"
    },
    {
      "inputs": [
        {
          "internalType": "address",
          "name": "owner",
          "type": "address"
        },
        {
          "internalType": "address",
          "name": "operator",
          "type": "address"
        },
        {
          "internalType": "bool",
          "name": "approved",
          "type": "bool"
        }
      ],
      "name": "$_setApprovalForAll",
      "outputs": [],
      "stateMutability": "nonpayable",
      "type": "function"
    },
    {
      "inputs": [
        {
          "internalType": "address",
          "name": "from",
          "type": "address"
        },
        {
          "internalType": "address",
          "name": "to",
          "type": "address"
        },
        {
          "internalType": "uint256",
          "name": "tokenId",
          "type": "uint256"
        }
      ],
      "name": "$_transfer",
      "outputs": [],
      "stateMutability": "nonpayable",
      "type": "function"
    },
    {
      "inputs": [
        {
          "internalType": "address",
          "name": "to",
          "type": "address"
        },
        {
          "internalType": "uint256",
          "name": "tokenId",
          "type": "uint256"
        },
        {
          "internalType": "address",
          "name": "auth",
          "type": "address"
        }
      ],
      "name": "$_update",
      "outputs": [
        {
          "internalType": "address",
          "name": "ret0",
          "type": "address"
        }
      ],
      "stateMutability": "nonpayable",
      "type": "function"
    },
    {
      "inputs": [],
      "name": "__hh_exposed_bytecode_marker",
      "outputs": [
        {
          "internalType": "bytes32",
          "name": "",
          "type": "bytes32"
        }
      ],
      "stateMutability": "view",
      "type": "function"
    },
    {
      "inputs": [
        {
          "internalType": "address",
          "name": "to",
          "type": "address"
        },
        {
          "internalType": "uint256",
          "name": "tokenId",
          "type": "uint256"
        }
      ],
      "name": "approve",
      "outputs": [],
      "stateMutability": "nonpayable",
      "type": "function"
    },
    {
      "inputs": [
        {
          "internalType": "address",
          "name": "owner",
          "type": "address"
        }
      ],
      "name": "balanceOf",
      "outputs": [
        {
          "internalType": "uint256",
          "name": "",
          "type": "uint256"
        }
      ],
      "stateMutability": "view",
      "type": "function"
    },
    {
      "inputs": [
        {
          "internalType": "uint256",
          "name": "tokenId",
          "type": "uint256"
        }
      ],
      "name": "getApproved",
      "outputs": [
        {
          "internalType": "address",
          "name": "",
          "type": "address"
        }
      ],
      "stateMutability": "view",
      "type": "function"
    },
    {
      "inputs": [
        {
          "internalType": "address",
          "name": "owner",
          "type": "address"
        },
        {
          "internalType": "address",
          "name": "operator",
          "type": "address"
        }
      ],
      "name": "isApprovedForAll",
      "outputs": [
        {
          "internalType": "bool",
          "name": "",
          "type": "bool"
        }
      ],
      "stateMutability": "view",
      "type": "function"
    },
    {
      "inputs": [],
      "name": "name",
      "outputs": [
        {
          "internalType": "string",
          "name": "",
          "type": "string"
        }
      ],
      "stateMutability": "view",
      "type": "function"
    },
    {
      "inputs": [
        {
          "internalType": "uint256",
          "name": "tokenId",
          "type": "uint256"
        }
      ],
      "name": "ownerOf",
      "outputs": [
        {
          "internalType": "address",
          "name": "",
          "type": "address"
        }
      ],
      "stateMutability": "view",
      "type": "function"
    },
    {
      "inputs": [
        {
          "internalType": "address",
          "name": "from",
          "type": "address"
        },
        {
          "internalType": "address",
          "name": "to",
          "type": "address"
        },
        {
          "internalType": "uint256",
          "name": "tokenId",
          "type": "uint256"
        }
      ],
      "name": "safeTransferFrom",
      "outputs": [],
      "stateMutability": "nonpayable",
      "type": "function"
    },
    {
      "inputs": [
        {
          "internalType": "address",
          "name": "from",
          "type": "address"
        },
        {
          "internalType": "address",
          "name": "to",
          "type": "address"
        },
        {
          "internalType": "uint256",
          "name": "tokenId",
          "type": "uint256"
        },
        {
          "internalType": "bytes",
          "name": "data",
          "type": "bytes"
        }
      ],
      "name": "safeTransferFrom",
      "outputs": [],
      "stateMutability": "nonpayable",
      "type": "function"
    },
    {
      "inputs": [
        {
          "internalType": "address",
          "name": "operator",
          "type": "address"
        },
        {
          "internalType": "bool",
          "name": "approved",
          "type": "bool"
        }
      ],
      "name": "setApprovalForAll",
      "outputs": [],
      "stateMutability": "nonpayable",
      "type": "function"
    },
    {
      "inputs": [
        {
          "internalType": "bytes4",
          "name": "interfaceId",
          "type": "bytes4"
        }
      ],
      "name": "supportsInterface",
      "outputs": [
        {
          "internalType": "bool",
          "name": "",
          "type": "bool"
        }
      ],
      "stateMutability": "view",
      "type": "function"
    },
    {
      "inputs": [],
      "name": "symbol",
      "outputs": [
        {
          "internalType": "string",
          "name": "",
          "type": "string"
        }
      ],
      "stateMutability": "view",
      "type": "function"
    },
    {
      "inputs": [
        {
          "internalType": "uint256",
          "name": "tokenId",
          "type": "uint256"
        }
      ],
      "name": "tokenURI",
      "outputs": [
        {
          "internalType": "string",
          "name": "",
          "type": "string"
        }
      ],
      "stateMutability": "view",
      "type": "function"
    },
    {
      "inputs": [
        {
          "internalType": "address",
          "name": "from",
          "type": "address"
        },
        {
          "internalType": "address",
          "name": "to",
          "type": "address"
        },
        {
          "internalType": "uint256",
          "name": "tokenId",
          "type": "uint256"
        }
      ],
      "name": "transferFrom",
      "outputs": [],
      "stateMutability": "nonpayable",
      "type": "function"
    },
    {
      "stateMutability": "payable",
      "type": "receive"
    }
  ],
  "bytecode": "0x6005608090815264135e53919560da1b60a052610100604052600460c0908152631353919560e21b60e0525f620000378382620000ed565b506001620000468282620000ed565b505050620001b9565b634e487b7160e01b5f52604160045260245ffd5b600181811c908216806200007857607f821691505b6020821081036200009757634e487b7160e01b5f52602260045260245ffd5b50919050565b601f821115620000e857805f5260205f20601f840160051c81016020851015620000c45750805b601f840160051c820191505b81811015620000e5575f8155600101620000d0565b50505b505050565b81516001600160401b038111156200010957620001096200004f565b62000121816200011a845462000063565b846200009d565b602080601f83116001811462000157575f84156200013f5750858301515b5f19600386901b1c1916600185901b178555620001b1565b5f85815260208120601f198616915b82811015620001875788860151825594840194600190910190840162000166565b5085821015620001a557878501515f19600388901b60f8161c191681555b505060018460011b0185555b505050505050565b61185f80620001c75f395ff3fe6080604052600436106101ff575f3560e01c806370a0823111610113578063c67072011161009d578063d261af541161006d578063d261af54146105bc578063d8483834146105db578063e3cb9a4a146105fa578063e985e9c514610619578063efb43b0714610638575f80fd5b8063c670720114610403578063c87b56dd1461055f578063cc461d621461057e578063cfeea0d41461059d575f80fd5b806395d89b41116100e357806395d89b41146104cf5780639ff2f02d146104e3578063a22cb46514610502578063a2373a8214610521578063b88d4fde14610540575f80fd5b806370a0823114610453578063733555ec146104725780637a7be0361461049157806390104b84146104b0575f80fd5b806330f3b0b51161019457806342842e0e1161016457806342842e0e146103c5578063458ee002146103e45780636352211e1461040357806367354a84146104225780636884d58b14610434575f80fd5b806330f3b0b51461034057806332cadf3c1461035f578063342db739146103735780633451b14d146103a6575f80fd5b8063113efe1a116101cf578063113efe1a146102b7578063161e977d146102fb57806323b872dd1461030f5780632904df291461032e575f80fd5b806301ffc9a71461020a57806306fdde031461023e578063081812fc1461025f578063095ea7b314610296575f80fd5b3661020657005b5f80fd5b348015610215575f80fd5b506102296102243660046112f6565b610657565b60405190151581526020015b60405180910390f35b348015610249575f80fd5b506102526106a8565b604051610235919061135e565b34801561026a575f80fd5b5061027e610279366004611370565b610737565b6040516001600160a01b039091168152602001610235565b3480156102a1575f80fd5b506102b56102b03660046113a2565b61075e565b005b3480156102c2575f80fd5b506102b56102d13660046113ca565b6001600160a01b0382165f90815260036020526040902080546001600160801b0383160190555050565b348015610306575f80fd5b5061025261076d565b34801561031a575f80fd5b506102b561032936600461140a565b610788565b348015610339575f80fd5b503361027e565b34801561034b575f80fd5b506102b561035a366004611452565b610816565b34801561036a575f80fd5b50610252610822565b34801561037e575f80fd5b506103986e1a185c991a185d0b595e1c1bdcd959608a1b81565b604051908152602001610235565b3480156103b1575f80fd5b5061027e6103c0366004611370565b61085f565b3480156103d0575f80fd5b506102b56103df36600461140a565b61087b565b3480156103ef575f80fd5b5061027e6103fe366004611370565b61089a565b34801561040e575f80fd5b5061027e61041d366004611370565b6108b6565b34801561042d575f80fd5b505f610398565b34801561043f575f80fd5b506102b561044e36600461140a565b6108c0565b34801561045e575f80fd5b5061039861046d36600461149c565b6108cb565b34801561047d575f80fd5b506102b561048c3660046114fa565b610910565b34801561049c575f80fd5b506102296104ab36600461140a565b610958565b3480156104bb575f80fd5b506102b56104ca366004611564565b61096c565b3480156104da575f80fd5b50610252610977565b3480156104ee575f80fd5b506102b56104fd36600461159d565b610986565b34801561050d575f80fd5b506102b561051c3660046115f3565b6109c6565b34801561052c575f80fd5b506102b561053b366004611370565b6109d1565b34801561054b575f80fd5b506102b561055a366004611638565b6109dd565b34801561056a575f80fd5b50610252610579366004611370565b6109f5565b348015610589575f80fd5b506102b56105983660046113a2565b610a66565b3480156105a8575f80fd5b506102b56105b736600461170d565b610a70565b3480156105c7575f80fd5b506102b56105d63660046113a2565b610a7b565b3480156105e6575f80fd5b506102b56105f536600461140a565b610a85565b348015610605575f80fd5b5061027e610614366004611564565b610a90565b348015610624575f80fd5b50610229610633366004611744565b610ae2565b348015610643575f80fd5b506102b561065236600461140a565b610b0f565b5f6001600160e01b031982166380ac58cd60e01b148061068757506001600160e01b03198216635b5e139f60e01b145b806106a257506301ffc9a760e01b6001600160e01b03198316145b92915050565b60605f80546106b69061176c565b80601f01602080910402602001604051908101604052809291908181526020018280546106e29061176c565b801561072d5780601f106107045761010080835404028352916020019161072d565b820191905f5260205f20905b81548152906001019060200180831161071057829003601f168201915b5050505050905090565b5f61074182610b1a565b505f828152600460205260409020546001600160a01b03166106a2565b610769828233610b52565b5050565b606061078360408051602081019091525f815290565b905090565b6001600160a01b0382166107b657604051633250574960e11b81525f60048201526024015b60405180910390fd5b5f6107c2838333610b5f565b9050836001600160a01b0316816001600160a01b031614610810576040516364283d7b60e01b81526001600160a01b03808616600483015260248201849052821660448201526064016107ad565b50505050565b61081084848484610c51565b60605f368080601f0160208091040260200160405190810160405280939291908181526020018383808284375f9201919091525092949350505050565b5f818152600460205260408120546001600160a01b03166106a2565b61089583838360405180602001604052805f8152506109dd565b505050565b5f818152600260205260408120546001600160a01b03166106a2565b5f6106a282610b1a565b610895838383610d55565b5f6001600160a01b0382166108f5576040516322718ad960e21b81525f60048201526024016107ad565b506001600160a01b03165f9081526003602052604090205490565b61095185858585858080601f0160208091040260200160405190810160405280939291908181526020018383808284375f92019190915250610db992505050565b5050505050565b5f610964848484610dc4565b949350505050565b610895838383610b52565b6060600180546106b69061176c565b610810848484848080601f0160208091040260200160405190810160405280939291908181526020018383808284375f92019190915250610e2592505050565b610769338383610e3c565b6109da81610eda565b50565b6109e8848484610788565b6108103385858585610f12565b6060610a0082610b1a565b505f610a1660408051602081019091525f815290565b90505f815111610a345760405180602001604052805f815250610a5f565b80610a3e84611039565b604051602001610a4f9291906117a4565b6040516020818303038152906040525b9392505050565b61076982826110c9565b610895838383610e3c565b610769828261112a565b610895838383611143565b5f610a9c848484610b5f565b6040516001600160a01b03821681529091507ffc55619107f02333de2d9626fe994a6b9d0734bee4722e17698d6fa1b06c52009060200160405180910390a19392505050565b6001600160a01b039182165f90815260056020908152604080832093909416825291909152205460ff1690565b61089583838361115d565b5f818152600260205260408120546001600160a01b0316806106a257604051637e27328960e01b8152600481018490526024016107ad565b6108958383836001610c51565b5f828152600260205260408120546001600160a01b0390811690831615610b8b57610b8b818486610d55565b6001600160a01b03811615610bc557610ba65f855f80610c51565b6001600160a01b0381165f90815260036020526040902080545f190190555b6001600160a01b03851615610bf3576001600160a01b0385165f908152600360205260409020805460010190555b5f8481526002602052604080822080546001600160a01b0319166001600160a01b0389811691821790925591518793918516917fddf252ad1be2c89b69c2b068fc378daa952ba7f163c4a11628f55a4df523b3ef91a4949350505050565b8080610c6557506001600160a01b03821615155b15610d26575f610c7484610b1a565b90506001600160a01b03831615801590610ca05750826001600160a01b0316816001600160a01b031614155b8015610cb35750610cb18184610ae2565b155b15610cdc5760405163a9fbf51f60e01b81526001600160a01b03841660048201526024016107ad565b8115610d245783856001600160a01b0316826001600160a01b03167f8c5be1e5ebec7d5bd14f71427d1e84f3dd0314c0f7b2291e5b200ac8c7c3b92560405160405180910390a45b505b50505f90815260046020526040902080546001600160a01b0319166001600160a01b0392909216919091179055565b610d60838383610dc4565b610895576001600160a01b038316610d8e57604051637e27328960e01b8152600481018290526024016107ad565b60405163177e802f60e01b81526001600160a01b0383166004820152602481018290526044016107ad565b6109e884848461115d565b5f6001600160a01b038316158015906109645750826001600160a01b0316846001600160a01b03161480610dfd5750610dfd8484610ae2565b806109645750505f908152600460205260409020546001600160a01b03908116911614919050565b610e2f83836110c9565b610895335f858585610f12565b6001600160a01b038216610e6e57604051630b61174360e31b81526001600160a01b03831660048201526024016107ad565b6001600160a01b038381165f81815260056020908152604080832094871680845294825291829020805460ff191686151590811790915591519182527f17307eab39ab6107e8899845ad3d59bd9653f200f220920489ca2b5937696c31910160405180910390a3505050565b5f610ee65f835f610b5f565b90506001600160a01b03811661076957604051637e27328960e01b8152600481018390526024016107ad565b6001600160a01b0383163b1561095157604051630a85bd0160e11b81526001600160a01b0384169063150b7a0290610f549088908890879087906004016117d2565b6020604051808303815f875af1925050508015610f8e575060408051601f3d908101601f19168201909252610f8b9181019061180e565b60015b610ff5573d808015610fbb576040519150601f19603f3d011682016040523d82523d5f602084013e610fc0565b606091505b5080515f03610fed57604051633250574960e11b81526001600160a01b03851660048201526024016107ad565b805181602001fd5b6001600160e01b03198116630a85bd0160e11b1461103157604051633250574960e11b81526001600160a01b03851660048201526024016107ad565b505050505050565b60605f6110458361120a565b60010190505f8167ffffffffffffffff81111561106457611064611624565b6040519080825280601f01601f19166020018201604052801561108e576020820181803683370190505b5090508181016020015b5f19016f181899199a1a9b1b9c1cb0b131b232b360811b600a86061a8153600a850494508461109857509392505050565b6001600160a01b0382166110f257604051633250574960e11b81525f60048201526024016107ad565b5f6110fe83835f610b5f565b90506001600160a01b03811615610895576040516339e3563760e11b81525f60048201526024016107ad565b610769828260405180602001604052805f815250610e25565b61089583838360405180602001604052805f815250610db9565b6001600160a01b03821661118657604051633250574960e11b81525f60048201526024016107ad565b5f61119283835f610b5f565b90506001600160a01b0381166111be57604051637e27328960e01b8152600481018390526024016107ad565b836001600160a01b0316816001600160a01b031614610810576040516364283d7b60e01b81526001600160a01b03808616600483015260248201849052821660448201526064016107ad565b5f8072184f03e93ff9f4daa797ed6e38ed64bf6a1f0160401b83106112485772184f03e93ff9f4daa797ed6e38ed64bf6a1f0160401b830492506040015b6d04ee2d6d415b85acef81000000008310611274576d04ee2d6d415b85acef8100000000830492506020015b662386f26fc10000831061129257662386f26fc10000830492506010015b6305f5e10083106112aa576305f5e100830492506008015b61271083106112be57612710830492506004015b606483106112d0576064830492506002015b600a83106106a25760010192915050565b6001600160e01b0319811681146109da575f80fd5b5f60208284031215611306575f80fd5b8135610a5f816112e1565b5f5b8381101561132b578181015183820152602001611313565b50505f910152565b5f815180845261134a816020860160208601611311565b601f01601f19169290920160200192915050565b602081525f610a5f6020830184611333565b5f60208284031215611380575f80fd5b5035919050565b80356001600160a01b038116811461139d575f80fd5b919050565b5f80604083850312156113b3575f80fd5b6113bc83611387565b946020939093013593505050565b5f80604083850312156113db575f80fd5b6113e483611387565b915060208301356001600160801b03811681146113ff575f80fd5b809150509250929050565b5f805f6060848603121561141c575f80fd5b61142584611387565b925061143360208501611387565b9150604084013590509250925092565b8035801515811461139d575f80fd5b5f805f8060808587031215611465575f80fd5b61146e85611387565b93506020850135925061148360408601611387565b915061149160608601611443565b905092959194509250565b5f602082840312156114ac575f80fd5b610a5f82611387565b5f8083601f8401126114c5575f80fd5b50813567ffffffffffffffff8111156114dc575f80fd5b6020830191508360208285010111156114f3575f80fd5b9250929050565b5f805f805f6080868803121561150e575f80fd5b61151786611387565b945061152560208701611387565b935060408601359250606086013567ffffffffffffffff811115611547575f80fd5b611553888289016114b5565b969995985093965092949392505050565b5f805f60608486031215611576575f80fd5b61157f84611387565b92506020840135915061159460408501611387565b90509250925092565b5f805f80606085870312156115b0575f80fd5b6115b985611387565b935060208501359250604085013567ffffffffffffffff8111156115db575f80fd5b6115e7878288016114b5565b95989497509550505050565b5f8060408385031215611604575f80fd5b61160d83611387565b915061161b60208401611443565b90509250929050565b634e487b7160e01b5f52604160045260245ffd5b5f805f806080858703121561164b575f80fd5b61165485611387565b935061166260208601611387565b925060408501359150606085013567ffffffffffffffff80821115611685575f80fd5b818701915087601f830112611698575f80fd5b8135818111156116aa576116aa611624565b604051601f8201601f19908116603f011681019083821181831017156116d2576116d2611624565b816040528281528a60208487010111156116ea575f80fd5b826020860160208301375f60208483010152809550505050505092959194509250565b5f805f6060848603121561171f575f80fd5b61172884611387565b925061173660208501611387565b915061159460408501611443565b5f8060408385031215611755575f80fd5b61175e83611387565b915061161b60208401611387565b600181811c9082168061178057607f821691505b60208210810361179e57634e487b7160e01b5f52602260045260245ffd5b50919050565b5f83516117b5818460208801611311565b8351908301906117c9818360208801611311565b01949350505050565b6001600160a01b03858116825284166020820152604081018390526080606082018190525f9061180490830184611333565b9695505050505050565b5f6020828403121561181e575f80fd5b8151610a5f816112e156fea2646970667358221220b6934658db6e1f0b6a6f92002e83fd3a6536c137179ca57a8426ea3c367d5ac964736f6c63430008180033",
  "linkReferences": {},
  "deployedLinkReferences": {}
}