{
  "_format": "hh-sol-artifact-1",
  "contractName": "$ERC1363ReceiverMock",
  "sourceName": "contracts-exposed/mocks/token/ERC1363ReceiverMock.sol",
  "abi": [
    {
      "inputs": [],
      "stateMutability": "payable",
      "type": "constructor"
    },
    {
      "inputs": [
        {
          "internalType": "bytes4",
          "name": "",
          "type": "bytes4"
        }
      ],
      "name": "CustomError",
      "type": "error"
    },
    {
      "anonymous": false,
      "inputs": [
        {
          "indexed": false,
          "internalType": "address",
          "name": "operator",
          "type": "address"
        },
        {
          "indexed": false,
          "internalType": "address",
          "name": "from",
          "type": "address"
        },
        {
          "indexed": false,
          "internalType": "uint256",
          "name": "value",
          "type": "uint256"
        },
        {
          "indexed": false,
          "internalType": "bytes",
          "name": "data",
          "type": "bytes"
        }
      ],
      "name": "Received",
      "type": "event"
    },
    {
      "inputs": [],
      "name": "__hh_exposed_bytecode_marker",
      "outputs": [
        {
          "internalType": "bytes32",
          "name": "",
          "type": "bytes32"
        }
      ],
      "stateMutability": "view",
      "type": "function"
    },
    {
      "inputs": [
        {
          "internalType": "address",
          "name": "operator",
          "type": "address"
        },
        {
          "internalType": "address",
          "name": "from",
          "type": "address"
        },
        {
          "internalType": "uint256",
          "name": "value",
          "type": "uint256"
        },
        {
          "internalType": "bytes",
          "name": "data",
          "type": "bytes"
        }
      ],
      "name": "onTransferReceived",
      "outputs": [
        {
          "internalType": "bytes4",
          "name": "",
          "type": "bytes4"
        }
      ],
      "stateMutability": "nonpayable",
      "type": "function"
    },
    {
      "inputs": [
        {
          "internalType": "bytes4",
          "name": "retval",
          "type": "bytes4"
        },
        {
          "internalType": "enum ERC1363ReceiverMock.RevertType",
          "name": "error",
          "type": "uint8"
        }
      ],
      "name": "setUp",
      "outputs": [],
      "stateMutability": "nonpayable",
      "type": "function"
    },
    {
      "stateMutability": "payable",
      "type": "receive"
    }
  ],
  "bytecode": "0x60806040525f805464ffffffffff19166388a7ca5c179055610432806100245f395ff3fe608060405260043610610036575f3560e01c8063342db73914610041578063793179851461007957806388a7ca5c1461009a575f80fd5b3661003d57005b5f80fd5b34801561004c575f80fd5b506100666e1a185c991a185d0b595e1c1bdcd959608a1b81565b6040519081526020015b60405180910390f35b348015610084575f80fd5b50610098610093366004610283565b6100d2565b005b3480156100a5575f80fd5b506100b96100b43660046102e4565b610113565b6040516001600160e01b03199091168152602001610070565b5f805460e084901c63ffffffff1982168117835583929164ffffffffff19161764010000000083600481111561010a5761010a610377565b02179055505050565b5f60015f54640100000000900460ff16600481111561013457610134610377565b0361013d575f80fd5b60025f54640100000000900460ff16600481111561015d5761015d610377565b036101af5760405162461bcd60e51b815260206004820152601e60248201527f4552433133363352656365697665724d6f636b3a20726576657274696e67000060448201526064015b60405180910390fd5b60035f54640100000000900460ff1660048111156101cf576101cf610377565b03610203575f546040516301990d6f60e61b81526101a69160e01b906004016001600160e01b031991909116815260200190565b60045f54640100000000900460ff16600481111561022357610223610377565b03610236575f610233818061038b565b50505b7ed9411ae77b2bacabe5cbe62a2abdbeb78992a0182c6f3c83e0029c7615d6b6868686868660405161026c9594939291906103aa565b60405180910390a1505f5460e01b95945050505050565b5f8060408385031215610294575f80fd5b82356001600160e01b0319811681146102ab575f80fd5b91506020830135600581106102be575f80fd5b809150509250929050565b80356001600160a01b03811681146102df575f80fd5b919050565b5f805f805f608086880312156102f8575f80fd5b610301866102c9565b945061030f602087016102c9565b935060408601359250606086013567ffffffffffffffff80821115610332575f80fd5b818801915088601f830112610345575f80fd5b813581811115610353575f80fd5b896020828501011115610364575f80fd5b9699959850939650602001949392505050565b634e487b7160e01b5f52602160045260245ffd5b5f826103a557634e487b7160e01b5f52601260045260245ffd5b500490565b6001600160a01b038681168252851660208201526040810184905260806060820181905281018290525f828460a08401375f60a0848401015260a0601f19601f8501168301019050969550505050505056fea2646970667358221220f08d696fd7614c227a662f6a7de66afa66c7c87a33b271db58d0bb1591ec00cd64736f6c63430008180033",
  "linkReferences": {},
  "deployedLinkReferences": {}
}