{
  "_format": "hh-sol-artifact-1",
  "contractName": "AccessControlERC20MintBase",
  "sourceName": "contracts/mocks/docs/access-control/AccessControlERC20MintBase.sol",
  "abi": [
    {
      "inputs": [
        {
          "internalType": "address",
          "name": "minter",
          "type": "address"
        }
      ],
      "stateMutability": "nonpayable",
      "type": "constructor"
    },
    {
      "inputs": [],
      "name": "AccessControlBadConfirmation",
      "type": "error"
    },
    {
      "inputs": [
        {
          "internalType": "address",
          "name": "account",
          "type": "address"
        },
        {
          "internalType": "bytes32",
          "name": "neededRole",
          "type": "bytes32"
        }
      ],
      "name": "AccessControlUnauthorizedAccount",
      "type": "error"
    },
    {
      "inputs": [
        {
          "internalType": "address",
          "name": "caller",
          "type": "address"
        }
      ],
      "name": "CallerNotMinter",
      "type": "error"
    },
    {
      "inputs": [
        {
          "internalType": "address",
          "name": "spender",
          "type": "address"
        },
        {
          "internalType": "uint256",
          "name": "allowance",
          "type": "uint256"
        },
        {
          "internalType": "uint256",
          "name": "needed",
          "type": "uint256"
        }
      ],
      "name": "ERC20InsufficientAllowance",
      "type": "error"
    },
    {
      "inputs": [
        {
          "internalType": "address",
          "name": "sender",
          "type": "address"
        },
        {
          "internalType": "uint256",
          "name": "balance",
          "type": "uint256"
        },
        {
          "internalType": "uint256",
          "name": "needed",
          "type": "uint256"
        }
      ],
      "name": "ERC20InsufficientBalance",
      "type": "error"
    },
    {
      "inputs": [
        {
          "internalType": "address",
          "name": "approver",
          "type": "address"
        }
      ],
      "name": "ERC20InvalidApprover",
      "type": "error"
    },
    {
      "inputs": [
        {
          "internalType": "address",
          "name": "receiver",
          "type": "address"
        }
      ],
      "name": "ERC20InvalidReceiver",
      "type": "error"
    },
    {
      "inputs": [
        {
          "internalType": "address",
          "name": "sender",
          "type": "address"
        }
      ],
      "name": "ERC20InvalidSender",
      "type": "error"
    },
    {
      "inputs": [
        {
          "internalType": "address",
          "name": "spender",
          "type": "address"
        }
      ],
      "name": "ERC20InvalidSpender",
      "type": "error"
    },
    {
      "anonymous": false,
      "inputs": [
        {
          "indexed": true,
          "internalType": "address",
          "name": "owner",
          "type": "address"
        },
        {
          "indexed": true,
          "internalType": "address",
          "name": "spender",
          "type": "address"
        },
        {
          "indexed": false,
          "internalType": "uint256",
          "name": "value",
          "type": "uint256"
        }
      ],
      "name": "Approval",
      "type": "event"
    },
    {
      "anonymous": false,
      "inputs": [
        {
          "indexed": true,
          "internalType": "bytes32",
          "name": "role",
          "type": "bytes32"
        },
        {
          "indexed": true,
          "internalType": "bytes32",
          "name": "previousAdminRole",
          "type": "bytes32"
        },
        {
          "indexed": true,
          "internalType": "bytes32",
          "name": "newAdminRole",
          "type": "bytes32"
        }
      ],
      "name": "RoleAdminChanged",
      "type": "event"
    },
    {
      "anonymous": false,
      "inputs": [
        {
          "indexed": true,
          "internalType": "bytes32",
          "name": "role",
          "type": "bytes32"
        },
        {
          "indexed": true,
          "internalType": "address",
          "name": "account",
          "type": "address"
        },
        {
          "indexed": true,
          "internalType": "address",
          "name": "sender",
          "type": "address"
        }
      ],
      "name": "RoleGranted",
      "type": "event"
    },
    {
      "anonymous": false,
      "inputs": [
        {
          "indexed": true,
          "internalType": "bytes32",
          "name": "role",
          "type": "bytes32"
        },
        {
          "indexed": true,
          "internalType": "address",
          "name": "account",
          "type": "address"
        },
        {
          "indexed": true,
          "internalType": "address",
          "name": "sender",
          "type": "address"
        }
      ],
      "name": "RoleRevoked",
      "type": "event"
    },
    {
      "anonymous": false,
      "inputs": [
        {
          "indexed": true,
          "internalType": "address",
          "name": "from",
          "type": "address"
        },
        {
          "indexed": true,
          "internalType": "address",
          "name": "to",
          "type": "address"
        },
        {
          "indexed": false,
          "internalType": "uint256",
          "name": "value",
          "type": "uint256"
        }
      ],
      "name": "Transfer",
      "type": "event"
    },
    {
      "inputs": [],
      "name": "DEFAULT_ADMIN_ROLE",
      "outputs": [
        {
          "internalType": "bytes32",
          "name": "",
          "type": "bytes32"
        }
      ],
      "stateMutability": "view",
      "type": "function"
    },
    {
      "inputs": [],
      "name": "MINTER_ROLE",
      "outputs": [
        {
          "internalType": "bytes32",
          "name": "",
          "type": "bytes32"
        }
      ],
      "stateMutability": "view",
      "type": "function"
    },
    {
      "inputs": [
        {
          "internalType": "address",
          "name": "owner",
          "type": "address"
        },
        {
          "internalType": "address",
          "name": "spender",
          "type": "address"
        }
      ],
      "name": "allowance",
      "outputs": [
        {
          "internalType": "uint256",
          "name": "",
          "type": "uint256"
        }
      ],
      "stateMutability": "view",
      "type": "function"
    },
    {
      "inputs": [
        {
          "internalType": "address",
          "name": "spender",
          "type": "address"
        },
        {
          "internalType": "uint256",
          "name": "value",
          "type": "uint256"
        }
      ],
      "name": "approve",
      "outputs": [
        {
          "internalType": "bool",
          "name": "",
          "type": "bool"
        }
      ],
      "stateMutability": "nonpayable",
      "type": "function"
    },
    {
      "inputs": [
        {
          "internalType": "address",
          "name": "account",
          "type": "address"
        }
      ],
      "name": "balanceOf",
      "outputs": [
        {
          "internalType": "uint256",
          "name": "",
          "type": "uint256"
        }
      ],
      "stateMutability": "view",
      "type": "function"
    },
    {
      "inputs": [],
      "name": "decimals",
      "outputs": [
        {
          "internalType": "uint8",
          "name": "",
          "type": "uint8"
        }
      ],
      "stateMutability": "view",
      "type": "function"
    },
    {
      "inputs": [
        {
          "internalType": "bytes32",
          "name": "role",
          "type": "bytes32"
        }
      ],
      "name": "getRoleAdmin",
      "outputs": [
        {
          "internalType": "bytes32",
          "name": "",
          "type": "bytes32"
        }
      ],
      "stateMutability": "view",
      "type": "function"
    },
    {
      "inputs": [
        {
          "internalType": "bytes32",
          "name": "role",
          "type": "bytes32"
        },
        {
          "internalType": "address",
          "name": "account",
          "type": "address"
        }
      ],
      "name": "grantRole",
      "outputs": [],
      "stateMutability": "nonpayable",
      "type": "function"
    },
    {
      "inputs": [
        {
          "internalType": "bytes32",
          "name": "role",
          "type": "bytes32"
        },
        {
          "internalType": "address",
          "name": "account",
          "type": "address"
        }
      ],
      "name": "hasRole",
      "outputs": [
        {
          "internalType": "bool",
          "name": "",
          "type": "bool"
        }
      ],
      "stateMutability": "view",
      "type": "function"
    },
    {
      "inputs": [
        {
          "internalType": "address",
          "name": "to",
          "type": "address"
        },
        {
          "internalType": "uint256",
          "name": "amount",
          "type": "uint256"
        }
      ],
      "name": "mint",
      "outputs": [],
      "stateMutability": "nonpayable",
      "type": "function"
    },
    {
      "inputs": [],
      "name": "name",
      "outputs": [
        {
          "internalType": "string",
          "name": "",
          "type": "string"
        }
      ],
      "stateMutability": "view",
      "type": "function"
    },
    {
      "inputs": [
        {
          "internalType": "bytes32",
          "name": "role",
          "type": "bytes32"
        },
        {
          "internalType": "address",
          "name": "callerConfirmation",
          "type": "address"
        }
      ],
      "name": "renounceRole",
      "outputs": [],
      "stateMutability": "nonpayable",
      "type": "function"
    },
    {
      "inputs": [
        {
          "internalType": "bytes32",
          "name": "role",
          "type": "bytes32"
        },
        {
          "internalType": "address",
          "name": "account",
          "type": "address"
        }
      ],
      "name": "revokeRole",
      "outputs": [],
      "stateMutability": "nonpayable",
      "type": "function"
    },
    {
      "inputs": [
        {
          "internalType": "bytes4",
          "name": "interfaceId",
          "type": "bytes4"
        }
      ],
      "name": "supportsInterface",
      "outputs": [
        {
          "internalType": "bool",
          "name": "",
          "type": "bool"
        }
      ],
      "stateMutability": "view",
      "type": "function"
    },
    {
      "inputs": [],
      "name": "symbol",
      "outputs": [
        {
          "internalType": "string",
          "name": "",
          "type": "string"
        }
      ],
      "stateMutability": "view",
      "type": "function"
    },
    {
      "inputs": [],
      "name": "totalSupply",
      "outputs": [
        {
          "internalType": "uint256",
          "name": "",
          "type": "uint256"
        }
      ],
      "stateMutability": "view",
      "type": "function"
    },
    {
      "inputs": [
        {
          "internalType": "address",
          "name": "to",
          "type": "address"
        },
        {
          "internalType": "uint256",
          "name": "value",
          "type": "uint256"
        }
      ],
      "name": "transfer",
      "outputs": [
        {
          "internalType": "bool",
          "name": "",
          "type": "bool"
        }
      ],
      "stateMutability": "nonpayable",
      "type": "function"
    },
    {
      "inputs": [
        {
          "internalType": "address",
          "name": "from",
          "type": "address"
        },
        {
          "internalType": "address",
          "name": "to",
          "type": "address"
        },
        {
          "internalType": "uint256",
          "name": "value",
          "type": "uint256"
        }
      ],
      "name": "transferFrom",
      "outputs": [
        {
          "internalType": "bool",
          "name": "",
          "type": "bool"
        }
      ],
      "stateMutability": "nonpayable",
      "type": "function"
    }
  ],
  "bytecode": "0x608060405234801562000010575f80fd5b5060405162000e6338038062000e6383398101604081905262000033916200017c565b6040518060400160405280600781526020016626bcaa37b5b2b760c91b815250604051806040016040528060038152602001622a25a760e91b815250816003908162000080919062000249565b5060046200008f828262000249565b505050620000c47f9f2df0fed2c77648de5860a4cc508cd0818c85b8b8a1ab4ceeef8d981c8956a682620000cc60201b60201c565b505062000315565b5f8281526005602090815260408083206001600160a01b038516845290915281205460ff1662000173575f8381526005602090815260408083206001600160a01b03861684529091529020805460ff191660011790556200012a3390565b6001600160a01b0316826001600160a01b0316847f2f8788117e7eff1d82e926ec794901d17c78024a50270940304540a733656f0d60405160405180910390a450600162000176565b505f5b92915050565b5f602082840312156200018d575f80fd5b81516001600160a01b0381168114620001a4575f80fd5b9392505050565b634e487b7160e01b5f52604160045260245ffd5b600181811c90821680620001d457607f821691505b602082108103620001f357634e487b7160e01b5f52602260045260245ffd5b50919050565b601f8211156200024457805f5260205f20601f840160051c81016020851015620002205750805b601f840160051c820191505b8181101562000241575f81556001016200022c565b50505b505050565b81516001600160401b03811115620002655762000265620001ab565b6200027d81620002768454620001bf565b84620001f9565b602080601f831160018114620002b3575f84156200029b5750858301515b5f19600386901b1c1916600185901b1785556200030d565b5f85815260208120601f198616915b82811015620002e357888601518255948401946001909101908401620002c2565b50858210156200030157878501515f19600388901b60f8161c191681555b505060018460011b0185555b505050505050565b610b4080620003235f395ff3fe608060405234801561000f575f80fd5b5060043610610111575f3560e01c806340c10f191161009e578063a217fddf1161006e578063a217fddf14610239578063a9059cbb14610240578063d539139314610253578063d547741f1461027a578063dd62ed3e1461028d575f80fd5b806340c10f19146101e357806370a08231146101f657806391d148541461021e57806395d89b4114610231575f80fd5b806323b872dd116100e457806323b872dd14610177578063248a9ca31461018a5780632f2ff15d146101ac578063313ce567146101c157806336568abe146101d0575f80fd5b806301ffc9a71461011557806306fdde031461013d578063095ea7b31461015257806318160ddd14610165575b5f80fd5b61012861012336600461093b565b6102c5565b60405190151581526020015b60405180910390f35b6101456102fb565b6040516101349190610969565b6101286101603660046109d0565b61038b565b6002545b604051908152602001610134565b6101286101853660046109f8565b6103a2565b610169610198366004610a31565b5f9081526005602052604090206001015490565b6101bf6101ba366004610a48565b6103c5565b005b60405160128152602001610134565b6101bf6101de366004610a48565b6103ef565b6101bf6101f13660046109d0565b610427565b610169610204366004610a72565b6001600160a01b03165f9081526020819052604090205490565b61012861022c366004610a48565b610483565b6101456104ad565b6101695f81565b61012861024e3660046109d0565b6104bc565b6101697f9f2df0fed2c77648de5860a4cc508cd0818c85b8b8a1ab4ceeef8d981c8956a681565b6101bf610288366004610a48565b6104c9565b61016961029b366004610a8b565b6001600160a01b039182165f90815260016020908152604080832093909416825291909152205490565b5f6001600160e01b03198216637965db0b60e01b14806102f557506301ffc9a760e01b6001600160e01b03198316145b92915050565b60606003805461030a90610ab3565b80601f016020809104026020016040519081016040528092919081815260200182805461033690610ab3565b80156103815780601f1061035857610100808354040283529160200191610381565b820191905f5260205f20905b81548152906001019060200180831161036457829003601f168201915b5050505050905090565b5f336103988185856104ed565b5060019392505050565b5f336103af8582856104fa565b6103ba858585610570565b506001949350505050565b5f828152600560205260409020600101546103df816105cd565b6103e983836105da565b50505050565b6001600160a01b03811633146104185760405163334bd91960e11b815260040160405180910390fd5b610422828261066b565b505050565b6104517f9f2df0fed2c77648de5860a4cc508cd0818c85b8b8a1ab4ceeef8d981c8956a633610483565b61047557604051632fdab94f60e11b81523360048201526024015b60405180910390fd5b61047f82826106d6565b5050565b5f9182526005602090815260408084206001600160a01b0393909316845291905290205460ff1690565b60606004805461030a90610ab3565b5f33610398818585610570565b5f828152600560205260409020600101546104e3816105cd565b6103e9838361066b565b610422838383600161070a565b6001600160a01b038381165f908152600160209081526040808320938616835292905220545f198110156103e9578181101561056257604051637dc7a0d960e11b81526001600160a01b0384166004820152602481018290526044810183905260640161046c565b6103e984848484035f61070a565b6001600160a01b03831661059957604051634b637e8f60e11b81525f600482015260240161046c565b6001600160a01b0382166105c25760405163ec442f0560e01b81525f600482015260240161046c565b6104228383836107dc565b6105d78133610902565b50565b5f6105e58383610483565b610664575f8381526005602090815260408083206001600160a01b03861684529091529020805460ff1916600117905561061c3390565b6001600160a01b0316826001600160a01b0316847f2f8788117e7eff1d82e926ec794901d17c78024a50270940304540a733656f0d60405160405180910390a45060016102f5565b505f6102f5565b5f6106768383610483565b15610664575f8381526005602090815260408083206001600160a01b0386168085529252808320805460ff1916905551339286917ff6391f5c32d9c69d2a47ea670b442974b53935d1edc7fd64eb21e047a839171b9190a45060016102f5565b6001600160a01b0382166106ff5760405163ec442f0560e01b81525f600482015260240161046c565b61047f5f83836107dc565b6001600160a01b0384166107335760405163e602df0560e01b81525f600482015260240161046c565b6001600160a01b03831661075c57604051634a1406b160e11b81525f600482015260240161046c565b6001600160a01b038085165f90815260016020908152604080832093871683529290522082905580156103e957826001600160a01b0316846001600160a01b03167f8c5be1e5ebec7d5bd14f71427d1e84f3dd0314c0f7b2291e5b200ac8c7c3b925846040516107ce91815260200190565b60405180910390a350505050565b6001600160a01b038316610806578060025f8282546107fb9190610aeb565b909155506108769050565b6001600160a01b0383165f90815260208190526040902054818110156108585760405163391434e360e21b81526001600160a01b0385166004820152602481018290526044810183905260640161046c565b6001600160a01b0384165f9081526020819052604090209082900390555b6001600160a01b038216610892576002805482900390556108b0565b6001600160a01b0382165f9081526020819052604090208054820190555b816001600160a01b0316836001600160a01b03167fddf252ad1be2c89b69c2b068fc378daa952ba7f163c4a11628f55a4df523b3ef836040516108f591815260200190565b60405180910390a3505050565b61090c8282610483565b61047f5760405163e2517d3f60e01b81526001600160a01b03821660048201526024810183905260440161046c565b5f6020828403121561094b575f80fd5b81356001600160e01b031981168114610962575f80fd5b9392505050565b5f602080835283518060208501525f5b8181101561099557858101830151858201604001528201610979565b505f604082860101526040601f19601f8301168501019250505092915050565b80356001600160a01b03811681146109cb575f80fd5b919050565b5f80604083850312156109e1575f80fd5b6109ea836109b5565b946020939093013593505050565b5f805f60608486031215610a0a575f80fd5b610a13846109b5565b9250610a21602085016109b5565b9150604084013590509250925092565b5f60208284031215610a41575f80fd5b5035919050565b5f8060408385031215610a59575f80fd5b82359150610a69602084016109b5565b90509250929050565b5f60208284031215610a82575f80fd5b610962826109b5565b5f8060408385031215610a9c575f80fd5b610aa5836109b5565b9150610a69602084016109b5565b600181811c90821680610ac757607f821691505b602082108103610ae557634e487b7160e01b5f52602260045260245ffd5b50919050565b808201808211156102f557634e487b7160e01b5f52601160045260245ffdfea26469706673582212204e11994c852e4e8b6558fa401ab45044649733ddc5c255778208680013470e3864736f6c63430008180033",
  "linkReferences": {},
  "deployedLinkReferences": {}
}