{
  "_format": "hh-sol-artifact-1",
  "contractName": "$CAIP2",
  "sourceName": "contracts-exposed/utils/CAIP2.sol",
  "abi": [
    {
      "inputs": [],
      "stateMutability": "payable",
      "type": "constructor"
    },
    {
      "inputs": [
        {
          "internalType": "string",
          "name": "namespace",
          "type": "string"
        },
        {
          "internalType": "string",
          "name": "ref",
          "type": "string"
        }
      ],
      "name": "$format",
      "outputs": [
        {
          "internalType": "string",
          "name": "ret0",
          "type": "string"
        }
      ],
      "stateMutability": "pure",
      "type": "function"
    },
    {
      "inputs": [],
      "name": "$local",
      "outputs": [
        {
          "internalType": "string",
          "name": "ret0",
          "type": "string"
        }
      ],
      "stateMutability": "view",
      "type": "function"
    },
    {
      "inputs": [
        {
          "internalType": "string",
          "name": "caip2",
          "type": "string"
        }
      ],
      "name": "$parse",
      "outputs": [
        {
          "internalType": "string",
          "name": "namespace",
          "type": "string"
        },
        {
          "internalType": "string",
          "name": "ref",
          "type": "string"
        }
      ],
      "stateMutability": "pure",
      "type": "function"
    },
    {
      "inputs": [],
      "name": "__hh_exposed_bytecode_marker",
      "outputs": [
        {
          "internalType": "bytes32",
          "name": "",
          "type": "bytes32"
        }
      ],
      "stateMutability": "view",
      "type": "function"
    },
    {
      "stateMutability": "payable",
      "type": "receive"
    }
  ],
  "bytecode": "0x6080604052610705806100115f395ff3fe608060405260043610610041575f3560e01c80630c5b7f551461004c578063342db7391461007657806365993a14146100a9578063dfa30927146100c8575f80fd5b3661004857005b5f80fd5b348015610057575f80fd5b506100606100f5565b60405161006d9190610525565b60405180910390f35b348015610081575f80fd5b5061009b6e1a185c991a185d0b595e1c1bdcd959608a1b81565b60405190815260200161006d565b3480156100b4575f80fd5b506100606100c336600461057c565b610104565b3480156100d3575f80fd5b506100e76100e23660046105e3565b610180565b60405161006d929190610622565b60606100ff6101cc565b905090565b606061017785858080601f0160208091040260200160405190810160405280939291908181526020018383808284375f9201919091525050604080516020601f890181900481028201810190925287815292508791508690819084018382808284375f920191909152506101f992505050565b95945050505050565b6060806101c184848080601f0160208091040260200160405190810160405280939291908181526020018383808284375f9201919091525061022692505050565b909590945092505050565b60606100ff6040518060400160405280600681526020016565697031353560d01b8152506101f946610266565b6060828260405160200161020e929190610646565b60405160208183030381529060405290505b92915050565b606080825f61023982601d60f91b6102f6565b9050610246825f83610309565b61025b610254836001610695565b84906103a1565b935093505050915091565b60605f610272836103af565b60010190505f8167ffffffffffffffff811115610291576102916106a8565b6040519080825280601f01601f1916602001820160405280156102bb576020820181803683370190505b5090508181016020015b5f19016f181899199a1a9b1b9c1cb0b131b232b360811b600a86061a8153600a85049450846102c557509392505050565b5f61030283835f610486565b9392505050565b825160609061032283825f828218828410028218610302565b925061033884845f828218828410028218610302565b93505f61034585856106bc565b67ffffffffffffffff81111561035d5761035d6106a8565b6040519080825280601f01601f191660200182016040528015610387576020820181803683370190505b509050848403602086018701602083015e95945050505050565b606061030283838551610309565b5f8072184f03e93ff9f4daa797ed6e38ed64bf6a1f0160401b83106103ed5772184f03e93ff9f4daa797ed6e38ed64bf6a1f0160401b830492506040015b6d04ee2d6d415b85acef81000000008310610419576d04ee2d6d415b85acef8100000000830492506020015b662386f26fc10000831061043757662386f26fc10000830492506010015b6305f5e100831061044f576305f5e100830492506008015b612710831061046357612710830492506004015b60648310610475576064830492506002015b600a83106102205760010192915050565b82515f90825b818110156104cc576001600160f81b031985166104ac8783016020015190565b6001600160f81b031916036104c45791506103029050565b60010161048c565b505f1995945050505050565b5f5b838110156104f25781810151838201526020016104da565b50505f910152565b5f81518084526105118160208601602086016104d8565b601f01601f19169290920160200192915050565b602081525f61030260208301846104fa565b5f8083601f840112610547575f80fd5b50813567ffffffffffffffff81111561055e575f80fd5b602083019150836020828501011115610575575f80fd5b9250929050565b5f805f806040858703121561058f575f80fd5b843567ffffffffffffffff808211156105a6575f80fd5b6105b288838901610537565b909650945060208701359150808211156105ca575f80fd5b506105d787828801610537565b95989497509550505050565b5f80602083850312156105f4575f80fd5b823567ffffffffffffffff81111561060a575f80fd5b61061685828601610537565b90969095509350505050565b604081525f61063460408301856104fa565b828103602084015261017781856104fa565b5f83516106578184602088016104d8565b601d60f91b90830190815283516106758160018401602088016104d8565b01600101949350505050565b634e487b7160e01b5f52601160045260245ffd5b8082018082111561022057610220610681565b634e487b7160e01b5f52604160045260245ffd5b818103818111156102205761022061068156fea2646970667358221220403ad7cbd24a57205dc1e3323e9f3cf2cfe7c8ebfcc59f445fe0fd8b3b72bb2a64736f6c63430008180033",
  "linkReferences": {},
  "deployedLinkReferences": {}
}