{
  "_format": "hh-sol-artifact-1",
  "contractName": "$ERC721Wrapper",
  "sourceName": "contracts-exposed/token/ERC721/extensions/ERC721Wrapper.sol",
  "abi": [
    {
      "inputs": [
        {
          "internalType": "string",
          "name": "name_",
          "type": "string"
        },
        {
          "internalType": "string",
          "name": "symbol_",
          "type": "string"
        },
        {
          "internalType": "contract IERC721",
          "name": "underlyingToken",
          "type": "address"
        }
      ],
      "stateMutability": "payable",
      "type": "constructor"
    },
    {
      "inputs": [
        {
          "internalType": "address",
          "name": "sender",
          "type": "address"
        },
        {
          "internalType": "uint256",
          "name": "tokenId",
          "type": "uint256"
        },
        {
          "internalType": "address",
          "name": "owner",
          "type": "address"
        }
      ],
      "name": "ERC721IncorrectOwner",
      "type": "error"
    },
    {
      "inputs": [
        {
          "internalType": "address",
          "name": "operator",
          "type": "address"
        },
        {
          "internalType": "uint256",
          "name": "tokenId",
          "type": "uint256"
        }
      ],
      "name": "ERC721InsufficientApproval",
      "type": "error"
    },
    {
      "inputs": [
        {
          "internalType": "address",
          "name": "approver",
          "type": "address"
        }
      ],
      "name": "ERC721InvalidApprover",
      "type": "error"
    },
    {
      "inputs": [
        {
          "internalType": "address",
          "name": "operator",
          "type": "address"
        }
      ],
      "name": "ERC721InvalidOperator",
      "type": "error"
    },
    {
      "inputs": [
        {
          "internalType": "address",
          "name": "owner",
          "type": "address"
        }
      ],
      "name": "ERC721InvalidOwner",
      "type": "error"
    },
    {
      "inputs": [
        {
          "internalType": "address",
          "name": "receiver",
          "type": "address"
        }
      ],
      "name": "ERC721InvalidReceiver",
      "type": "error"
    },
    {
      "inputs": [
        {
          "internalType": "address",
          "name": "sender",
          "type": "address"
        }
      ],
      "name": "ERC721InvalidSender",
      "type": "error"
    },
    {
      "inputs": [
        {
          "internalType": "uint256",
          "name": "tokenId",
          "type": "uint256"
        }
      ],
      "name": "ERC721NonexistentToken",
      "type": "error"
    },
    {
      "inputs": [
        {
          "internalType": "address",
          "name": "token",
          "type": "address"
        }
      ],
      "name": "ERC721UnsupportedToken",
      "type": "error"
    },
    {
      "anonymous": false,
      "inputs": [
        {
          "indexed": true,
          "internalType": "address",
          "name": "owner",
          "type": "address"
        },
        {
          "indexed": true,
          "internalType": "address",
          "name": "approved",
          "type": "address"
        },
        {
          "indexed": true,
          "internalType": "uint256",
          "name": "tokenId",
          "type": "uint256"
        }
      ],
      "name": "Approval",
      "type": "event"
    },
    {
      "anonymous": false,
      "inputs": [
        {
          "indexed": true,
          "internalType": "address",
          "name": "owner",
          "type": "address"
        },
        {
          "indexed": true,
          "internalType": "address",
          "name": "operator",
          "type": "address"
        },
        {
          "indexed": false,
          "internalType": "bool",
          "name": "approved",
          "type": "bool"
        }
      ],
      "name": "ApprovalForAll",
      "type": "event"
    },
    {
      "anonymous": false,
      "inputs": [
        {
          "indexed": true,
          "internalType": "address",
          "name": "from",
          "type": "address"
        },
        {
          "indexed": true,
          "internalType": "address",
          "name": "to",
          "type": "address"
        },
        {
          "indexed": true,
          "internalType": "uint256",
          "name": "tokenId",
          "type": "uint256"
        }
      ],
      "name": "Transfer",
      "type": "event"
    },
    {
      "anonymous": false,
      "inputs": [
        {
          "indexed": false,
          "internalType": "uint256",
          "name": "ret0",
          "type": "uint256"
        }
      ],
      "name": "return$_recover",
      "type": "event"
    },
    {
      "anonymous": false,
      "inputs": [
        {
          "indexed": false,
          "internalType": "address",
          "name": "ret0",
          "type": "address"
        }
      ],
      "name": "return$_update",
      "type": "event"
    },
    {
      "inputs": [
        {
          "internalType": "address",
          "name": "to",
          "type": "address"
        },
        {
          "internalType": "uint256",
          "name": "tokenId",
          "type": "uint256"
        },
        {
          "internalType": "address",
          "name": "auth",
          "type": "address"
        },
        {
          "internalType": "bool",
          "name": "emitEvent",
          "type": "bool"
        }
      ],
      "name": "$_approve",
      "outputs": [],
      "stateMutability": "nonpayable",
      "type": "function"
    },
    {
      "inputs": [
        {
          "internalType": "address",
          "name": "to",
          "type": "address"
        },
        {
          "internalType": "uint256",
          "name": "tokenId",
          "type": "uint256"
        },
        {
          "internalType": "address",
          "name": "auth",
          "type": "address"
        }
      ],
      "name": "$_approve",
      "outputs": [],
      "stateMutability": "nonpayable",
      "type": "function"
    },
    {
      "inputs": [],
      "name": "$_baseURI",
      "outputs": [
        {
          "internalType": "string",
          "name": "ret0",
          "type": "string"
        }
      ],
      "stateMutability": "view",
      "type": "function"
    },
    {
      "inputs": [
        {
          "internalType": "uint256",
          "name": "tokenId",
          "type": "uint256"
        }
      ],
      "name": "$_burn",
      "outputs": [],
      "stateMutability": "nonpayable",
      "type": "function"
    },
    {
      "inputs": [
        {
          "internalType": "address",
          "name": "owner",
          "type": "address"
        },
        {
          "internalType": "address",
          "name": "spender",
          "type": "address"
        },
        {
          "internalType": "uint256",
          "name": "tokenId",
          "type": "uint256"
        }
      ],
      "name": "$_checkAuthorized",
      "outputs": [],
      "stateMutability": "view",
      "type": "function"
    },
    {
      "inputs": [],
      "name": "$_contextSuffixLength",
      "outputs": [
        {
          "internalType": "uint256",
          "name": "ret0",
          "type": "uint256"
        }
      ],
      "stateMutability": "view",
      "type": "function"
    },
    {
      "inputs": [
        {
          "internalType": "uint256",
          "name": "tokenId",
          "type": "uint256"
        }
      ],
      "name": "$_getApproved",
      "outputs": [
        {
          "internalType": "address",
          "name": "ret0",
          "type": "address"
        }
      ],
      "stateMutability": "view",
      "type": "function"
    },
    {
      "inputs": [
        {
          "internalType": "address",
          "name": "account",
          "type": "address"
        },
        {
          "internalType": "uint128",
          "name": "value",
          "type": "uint128"
        }
      ],
      "name": "$_increaseBalance",
      "outputs": [],
      "stateMutability": "nonpayable",
      "type": "function"
    },
    {
      "inputs": [
        {
          "internalType": "address",
          "name": "owner",
          "type": "address"
        },
        {
          "internalType": "address",
          "name": "spender",
          "type": "address"
        },
        {
          "internalType": "uint256",
          "name": "tokenId",
          "type": "uint256"
        }
      ],
      "name": "$_isAuthorized",
      "outputs": [
        {
          "internalType": "bool",
          "name": "ret0",
          "type": "bool"
        }
      ],
      "stateMutability": "view",
      "type": "function"
    },
    {
      "inputs": [
        {
          "internalType": "address",
          "name": "to",
          "type": "address"
        },
        {
          "internalType": "uint256",
          "name": "tokenId",
          "type": "uint256"
        }
      ],
      "name": "$_mint",
      "outputs": [],
      "stateMutability": "nonpayable",
      "type": "function"
    },
    {
      "inputs": [],
      "name": "$_msgData",
      "outputs": [
        {
          "internalType": "bytes",
          "name": "ret0",
          "type": "bytes"
        }
      ],
      "stateMutability": "view",
      "type": "function"
    },
    {
      "inputs": [],
      "name": "$_msgSender",
      "outputs": [
        {
          "internalType": "address",
          "name": "ret0",
          "type": "address"
        }
      ],
      "stateMutability": "view",
      "type": "function"
    },
    {
      "inputs": [
        {
          "internalType": "uint256",
          "name": "tokenId",
          "type": "uint256"
        }
      ],
      "name": "$_ownerOf",
      "outputs": [
        {
          "internalType": "address",
          "name": "ret0",
          "type": "address"
        }
      ],
      "stateMutability": "view",
      "type": "function"
    },
    {
      "inputs": [
        {
          "internalType": "address",
          "name": "account",
          "type": "address"
        },
        {
          "internalType": "uint256",
          "name": "tokenId",
          "type": "uint256"
        }
      ],
      "name": "$_recover",
      "outputs": [
        {
          "internalType": "uint256",
          "name": "ret0",
          "type": "uint256"
        }
      ],
      "stateMutability": "nonpayable",
      "type": "function"
    },
    {
      "inputs": [
        {
          "internalType": "uint256",
          "name": "tokenId",
          "type": "uint256"
        }
      ],
      "name": "$_requireOwned",
      "outputs": [
        {
          "internalType": "address",
          "name": "ret0",
          "type": "address"
        }
      ],
      "stateMutability": "view",
      "type": "function"
    },
    {
      "inputs": [
        {
          "internalType": "address",
          "name": "to",
          "type": "address"
        },
        {
          "internalType": "uint256",
          "name": "tokenId",
          "type": "uint256"
        },
        {
          "internalType": "bytes",
          "name": "data",
          "type": "bytes"
        }
      ],
      "name": "$_safeMint",
      "outputs": [],
      "stateMutability": "nonpayable",
      "type": "function"
    },
    {
      "inputs": [
        {
          "internalType": "address",
          "name": "to",
          "type": "address"
        },
        {
          "internalType": "uint256",
          "name": "tokenId",
          "type": "uint256"
        }
      ],
      "name": "$_safeMint",
      "outputs": [],
      "stateMutability": "nonpayable",
      "type": "function"
    },
    {
      "inputs": [
        {
          "internalType": "address",
          "name": "from",
          "type": "address"
        },
        {
          "internalType": "address",
          "name": "to",
          "type": "address"
        },
        {
          "internalType": "uint256",
          "name": "tokenId",
          "type": "uint256"
        },
        {
          "internalType": "bytes",
          "name": "data",
          "type": "bytes"
        }
      ],
      "name": "$_safeTransfer",
      "outputs": [],
      "stateMutability": "nonpayable",
      "type": "function"
    },
    {
      "inputs": [
        {
          "internalType": "address",
          "name": "from",
          "type": "address"
        },
        {
          "internalType": "address",
          "name": "to",
          "type": "address"
        },
        {
          "internalType": "uint256",
          "name": "tokenId",
          "type": "uint256"
        }
      ],
      "name": "$_safeTransfer",
      "outputs": [],
      "stateMutability": "nonpayable",
      "type": "function"
    },
    {
      "inputs": [
        {
          "internalType": "address",
          "name": "owner",
          "type": "address"
        },
        {
          "internalType": "address",
          "name": "operator",
          "type": "address"
        },
        {
          "internalType": "bool",
          "name": "approved",
          "type": "bool"
        }
      ],
      "name": "$_setApprovalForAll",
      "outputs": [],
      "stateMutability": "nonpayable",
      "type": "function"
    },
    {
      "inputs": [
        {
          "internalType": "address",
          "name": "from",
          "type": "address"
        },
        {
          "internalType": "address",
          "name": "to",
          "type": "address"
        },
        {
          "internalType": "uint256",
          "name": "tokenId",
          "type": "uint256"
        }
      ],
      "name": "$_transfer",
      "outputs": [],
      "stateMutability": "nonpayable",
      "type": "function"
    },
    {
      "inputs": [
        {
          "internalType": "address",
          "name": "to",
          "type": "address"
        },
        {
          "internalType": "uint256",
          "name": "tokenId",
          "type": "uint256"
        },
        {
          "internalType": "address",
          "name": "auth",
          "type": "address"
        }
      ],
      "name": "$_update",
      "outputs": [
        {
          "internalType": "address",
          "name": "ret0",
          "type": "address"
        }
      ],
      "stateMutability": "nonpayable",
      "type": "function"
    },
    {
      "inputs": [],
      "name": "__hh_exposed_bytecode_marker",
      "outputs": [
        {
          "internalType": "bytes32",
          "name": "",
          "type": "bytes32"
        }
      ],
      "stateMutability": "view",
      "type": "function"
    },
    {
      "inputs": [
        {
          "internalType": "address",
          "name": "to",
          "type": "address"
        },
        {
          "internalType": "uint256",
          "name": "tokenId",
          "type": "uint256"
        }
      ],
      "name": "approve",
      "outputs": [],
      "stateMutability": "nonpayable",
      "type": "function"
    },
    {
      "inputs": [
        {
          "internalType": "address",
          "name": "owner",
          "type": "address"
        }
      ],
      "name": "balanceOf",
      "outputs": [
        {
          "internalType": "uint256",
          "name": "",
          "type": "uint256"
        }
      ],
      "stateMutability": "view",
      "type": "function"
    },
    {
      "inputs": [
        {
          "internalType": "address",
          "name": "account",
          "type": "address"
        },
        {
          "internalType": "uint256[]",
          "name": "tokenIds",
          "type": "uint256[]"
        }
      ],
      "name": "depositFor",
      "outputs": [
        {
          "internalType": "bool",
          "name": "",
          "type": "bool"
        }
      ],
      "stateMutability": "nonpayable",
      "type": "function"
    },
    {
      "inputs": [
        {
          "internalType": "uint256",
          "name": "tokenId",
          "type": "uint256"
        }
      ],
      "name": "getApproved",
      "outputs": [
        {
          "internalType": "address",
          "name": "",
          "type": "address"
        }
      ],
      "stateMutability": "view",
      "type": "function"
    },
    {
      "inputs": [
        {
          "internalType": "address",
          "name": "owner",
          "type": "address"
        },
        {
          "internalType": "address",
          "name": "operator",
          "type": "address"
        }
      ],
      "name": "isApprovedForAll",
      "outputs": [
        {
          "internalType": "bool",
          "name": "",
          "type": "bool"
        }
      ],
      "stateMutability": "view",
      "type": "function"
    },
    {
      "inputs": [],
      "name": "name",
      "outputs": [
        {
          "internalType": "string",
          "name": "",
          "type": "string"
        }
      ],
      "stateMutability": "view",
      "type": "function"
    },
    {
      "inputs": [
        {
          "internalType": "address",
          "name": "",
          "type": "address"
        },
        {
          "internalType": "address",
          "name": "from",
          "type": "address"
        },
        {
          "internalType": "uint256",
          "name": "tokenId",
          "type": "uint256"
        },
        {
          "internalType": "bytes",
          "name": "",
          "type": "bytes"
        }
      ],
      "name": "onERC721Received",
      "outputs": [
        {
          "internalType": "bytes4",
          "name": "",
          "type": "bytes4"
        }
      ],
      "stateMutability": "nonpayable",
      "type": "function"
    },
    {
      "inputs": [
        {
          "internalType": "uint256",
          "name": "tokenId",
          "type": "uint256"
        }
      ],
      "name": "ownerOf",
      "outputs": [
        {
          "internalType": "address",
          "name": "",
          "type": "address"
        }
      ],
      "stateMutability": "view",
      "type": "function"
    },
    {
      "inputs": [
        {
          "internalType": "address",
          "name": "from",
          "type": "address"
        },
        {
          "internalType": "address",
          "name": "to",
          "type": "address"
        },
        {
          "internalType": "uint256",
          "name": "tokenId",
          "type": "uint256"
        }
      ],
      "name": "safeTransferFrom",
      "outputs": [],
      "stateMutability": "nonpayable",
      "type": "function"
    },
    {
      "inputs": [
        {
          "internalType": "address",
          "name": "from",
          "type": "address"
        },
        {
          "internalType": "address",
          "name": "to",
          "type": "address"
        },
        {
          "internalType": "uint256",
          "name": "tokenId",
          "type": "uint256"
        },
        {
          "internalType": "bytes",
          "name": "data",
          "type": "bytes"
        }
      ],
      "name": "safeTransferFrom",
      "outputs": [],
      "stateMutability": "nonpayable",
      "type": "function"
    },
    {
      "inputs": [
        {
          "internalType": "address",
          "name": "operator",
          "type": "address"
        },
        {
          "internalType": "bool",
          "name": "approved",
          "type": "bool"
        }
      ],
      "name": "setApprovalForAll",
      "outputs": [],
      "stateMutability": "nonpayable",
      "type": "function"
    },
    {
      "inputs": [
        {
          "internalType": "bytes4",
          "name": "interfaceId",
          "type": "bytes4"
        }
      ],
      "name": "supportsInterface",
      "outputs": [
        {
          "internalType": "bool",
          "name": "",
          "type": "bool"
        }
      ],
      "stateMutability": "view",
      "type": "function"
    },
    {
      "inputs": [],
      "name": "symbol",
      "outputs": [
        {
          "internalType": "string",
          "name": "",
          "type": "string"
        }
      ],
      "stateMutability": "view",
      "type": "function"
    },
    {
      "inputs": [
        {
          "internalType": "uint256",
          "name": "tokenId",
          "type": "uint256"
        }
      ],
      "name": "tokenURI",
      "outputs": [
        {
          "internalType": "string",
          "name": "",
          "type": "string"
        }
      ],
      "stateMutability": "view",
      "type": "function"
    },
    {
      "inputs": [
        {
          "internalType": "address",
          "name": "from",
          "type": "address"
        },
        {
          "internalType": "address",
          "name": "to",
          "type": "address"
        },
        {
          "internalType": "uint256",
          "name": "tokenId",
          "type": "uint256"
        }
      ],
      "name": "transferFrom",
      "outputs": [],
      "stateMutability": "nonpayable",
      "type": "function"
    },
    {
      "inputs": [],
      "name": "underlying",
      "outputs": [
        {
          "internalType": "contract IERC721",
          "name": "",
          "type": "address"
        }
      ],
      "stateMutability": "view",
      "type": "function"
    },
    {
      "inputs": [
        {
          "internalType": "address",
          "name": "account",
          "type": "address"
        },
        {
          "internalType": "uint256[]",
          "name": "tokenIds",
          "type": "uint256[]"
        }
      ],
      "name": "withdrawTo",
      "outputs": [
        {
          "internalType": "bool",
          "name": "",
          "type": "bool"
        }
      ],
      "stateMutability": "nonpayable",
      "type": "function"
    },
    {
      "stateMutability": "payable",
      "type": "receive"
    }
  ],
  "bytecode": "0x60a0604052604051620020fa380380620020fa83398101604081905262000026916200011f565b8083835f62000036838262000230565b50600162000045828262000230565b5050506001600160a01b031660805250620002fc915050565b634e487b7160e01b5f52604160045260245ffd5b5f82601f83011262000082575f80fd5b81516001600160401b03808211156200009f576200009f6200005e565b604051601f8301601f19908116603f01168101908282118183101715620000ca57620000ca6200005e565b8160405283815260209250866020858801011115620000e7575f80fd5b5f91505b838210156200010a5785820183015181830184015290820190620000eb565b5f602085830101528094505050505092915050565b5f805f6060848603121562000132575f80fd5b83516001600160401b038082111562000149575f80fd5b620001578783880162000072565b945060208601519150808211156200016d575f80fd5b506200017c8682870162000072565b604086015190935090506001600160a01b03811681146200019b575f80fd5b809150509250925092565b600181811c90821680620001bb57607f821691505b602082108103620001da57634e487b7160e01b5f52602260045260245ffd5b50919050565b601f8211156200022b57805f5260205f20601f840160051c81016020851015620002075750805b601f840160051c820191505b8181101562000228575f815560010162000213565b50505b505050565b81516001600160401b038111156200024c576200024c6200005e565b62000264816200025d8454620001a6565b84620001e0565b602080601f8311600181146200029a575f8415620002825750858301515b5f19600386901b1c1916600185901b178555620002f4565b5f85815260208120601f198616915b82811015620002ca57888601518255948401946001909101908401620002a9565b5085821015620002e857878501515f19600388901b60f8161c191681555b505060018460011b0185555b505050505050565b608051611dc9620003315f395f81816104d00152818161086e01528181610b1001528181610cd5015261158c0152611dc95ff3fe608060405260043610610236575f3560e01c8063733555ec11610129578063c87b56dd116100a8578063d84838341161006d578063d8483834146106ba578063e3cb9a4a146106d9578063e985e9c5146106f8578063efb43b0714610717578063f302383514610736575f80fd5b8063c87b56dd1461061f578063cace6eb21461063e578063cc461d621461065d578063cfeea0d41461067c578063d261af541461069b575f80fd5b80639ff2f02d116100ee5780639ff2f02d146105a3578063a22cb465146105c2578063a2373a82146105e1578063b88d4fde14610600578063c670720114610472575f80fd5b8063733555ec146105135780637a7be036146105325780637c1b126c1461055157806390104b841461057057806395d89b411461058f575f80fd5b806332cadf3c116101b55780636352211e1161017a5780636352211e1461047257806367354a84146104915780636884d58b146104a35780636f307dc3146104c257806370a08231146104f4575f80fd5b806332cadf3c146103ce578063342db739146103e25780633451b14d1461041557806342842e0e14610434578063458ee00214610453575f80fd5b8063150b7a02116101fb578063150b7a0214610332578063161e977d1461036a57806323b872dd1461037e5780632904df291461039d57806330f3b0b5146103af575f80fd5b806301ffc9a71461024157806306fdde0314610275578063081812fc14610296578063095ea7b3146102cd578063113efe1a146102ee575f80fd5b3661023d57005b5f80fd5b34801561024c575f80fd5b5061026061025b366004611736565b610755565b60405190151581526020015b60405180910390f35b348015610280575f80fd5b506102896107a6565b60405161026c919061179e565b3480156102a1575f80fd5b506102b56102b03660046117b0565b610835565b6040516001600160a01b03909116815260200161026c565b3480156102d8575f80fd5b506102ec6102e73660046117db565b61085c565b005b3480156102f9575f80fd5b506102ec610308366004611805565b6001600160a01b0382165f90815260036020526040902080546001600160801b0383160190555050565b34801561033d575f80fd5b5061035161034c36600461188c565b61086b565b6040516001600160e01b0319909116815260200161026c565b348015610375575f80fd5b506102896108d7565b348015610389575f80fd5b506102ec610398366004611949565b6108f2565b3480156103a8575f80fd5b50336102b5565b3480156103ba575f80fd5b506102ec6103c936600461199b565b610980565b3480156103d9575f80fd5b5061028961098c565b3480156103ed575f80fd5b506104076e1a185c991a185d0b595e1c1bdcd959608a1b81565b60405190815260200161026c565b348015610420575f80fd5b506102b561042f3660046117b0565b6109c9565b34801561043f575f80fd5b506102ec61044e366004611949565b6109e5565b34801561045e575f80fd5b506102b561046d3660046117b0565b610a04565b34801561047d575f80fd5b506102b561048c3660046117b0565b610a20565b34801561049c575f80fd5b505f610407565b3480156104ae575f80fd5b506102ec6104bd366004611949565b610a2a565b3480156104cd575f80fd5b507f00000000000000000000000000000000000000000000000000000000000000006102b5565b3480156104ff575f80fd5b5061040761050e3660046119e9565b610a35565b34801561051e575f80fd5b506102ec61052d366004611a49565b610a7a565b34801561053d575f80fd5b5061026061054c366004611949565b610ac2565b34801561055c575f80fd5b5061026061056b366004611ab7565b610ad6565b34801561057b575f80fd5b506102ec61058a366004611b6d565b610bab565b34801561059a575f80fd5b50610289610bb6565b3480156105ae575f80fd5b506102ec6105bd366004611bac565b610bc5565b3480156105cd575f80fd5b506102ec6105dc366004611c04565b610c05565b3480156105ec575f80fd5b506102ec6105fb3660046117b0565b610c10565b34801561060b575f80fd5b506102ec61061a36600461188c565b610c1c565b34801561062a575f80fd5b506102896106393660046117b0565b610c34565b348015610649575f80fd5b50610260610658366004611ab7565b610ca5565b348015610668575f80fd5b506102ec6106773660046117db565b610d7a565b348015610687575f80fd5b506102ec610696366004611c37565b610d84565b3480156106a6575f80fd5b506102ec6106b53660046117db565b610d8f565b3480156106c5575f80fd5b506102ec6106d4366004611949565b610d99565b3480156106e4575f80fd5b506102b56106f3366004611b6d565b610da4565b348015610703575f80fd5b50610260610712366004611c7b565b610df6565b348015610722575f80fd5b506102ec610731366004611949565b610e23565b348015610741575f80fd5b506104076107503660046117db565b610e2e565b5f6001600160e01b031982166380ac58cd60e01b148061078557506001600160e01b03198216635b5e139f60e01b145b806107a057506301ffc9a760e01b6001600160e01b03198316145b92915050565b60605f80546107b490611ca7565b80601f01602080910402602001604051908101604052809291908181526020018280546107e090611ca7565b801561082b5780601f106108025761010080835404028352916020019161082b565b820191905f5260205f20905b81548152906001019060200180831161080e57829003601f168201915b5050505050905090565b5f61083f82610e7a565b505f828152600460205260409020546001600160a01b03166107a0565b610867828233610eb2565b5050565b5f7f00000000000000000000000000000000000000000000000000000000000000006001600160a01b031633146108bc576040516363ec1be360e11b81523360048201526024015b60405180910390fd5b6108c68484610ebf565b50630a85bd0160e11b949350505050565b60606108ed60408051602081019091525f815290565b905090565b6001600160a01b03821661091b57604051633250574960e11b81525f60048201526024016108b3565b5f61092c838333610ed8565b610ed8565b9050836001600160a01b0316816001600160a01b03161461097a576040516364283d7b60e01b81526001600160a01b03808616600483015260248201849052821660448201526064016108b3565b50505050565b61097a84848484610fca565b60605f368080601f0160208091040260200160405190810160405280939291908181526020018383808284375f9201919091525092949350505050565b5f818152600460205260408120546001600160a01b03166107a0565b6109ff83838360405180602001604052805f815250610c1c565b505050565b5f818152600260205260408120546001600160a01b03166107a0565b5f6107a082610e7a565b6109ff8383836110ce565b5f6001600160a01b038216610a5f576040516322718ad960e21b81525f60048201526024016108b3565b506001600160a01b03165f9081526003602052604090205490565b610abb85858585858080601f0160208091040260200160405190810160405280939291908181526020018383808284375f9201919091525061113292505050565b5050505050565b5f610ace84848461113d565b949350505050565b80515f90815b81811015610ba0575f848281518110610af757610af7611cdf565b60200260200101519050610b0d5f826109273390565b507f0000000000000000000000000000000000000000000000000000000000000000604051632142170760e11b81523060048201526001600160a01b0388811660248301526044820184905291909116906342842e0e906064015f604051808303815f87803b158015610b7e575f80fd5b505af1158015610b90573d5f803e3d5ffd5b5050505050806001019050610adc565b506001949350505050565b6109ff838383610eb2565b6060600180546107b490611ca7565b61097a848484848080601f0160208091040260200160405190810160405280939291908181526020018383808284375f9201919091525061119e92505050565b6108673383836111b5565b610c1981611253565b50565b610c278484846108f2565b61097a338585858561128b565b6060610c3f82610e7a565b505f610c5560408051602081019091525f815290565b90505f815111610c735760405180602001604052805f815250610c9e565b80610c7d846113b2565b604051602001610c8e929190611cf3565b6040516020818303038152906040525b9392505050565b80515f90815b81811015610ba0575f848281518110610cc657610cc6611cdf565b60200260200101519050610cf77f000000000000000000000000000000000000000000000000000000000000000090565b6001600160a01b03166323b872dd336040516001600160e01b031960e084901b1681526001600160a01b039091166004820152306024820152604481018490526064015f604051808303815f87803b158015610d51575f80fd5b505af1158015610d63573d5f803e3d5ffd5b50505050610d718682610ebf565b50600101610cab565b6108678282611442565b6109ff8383836111b5565b6108678282610ebf565b6109ff8383836114a3565b5f610db0848484610ed8565b6040516001600160a01b03821681529091507ffc55619107f02333de2d9626fe994a6b9d0734bee4722e17698d6fa1b06c52009060200160405180910390a19392505050565b6001600160a01b039182165f90815260056020908152604080832093909416825291909152205460ff1690565b6109ff8383836114bd565b5f610e39838361156a565b90507f1abff978536966f470533a0a53cd23b392e2a9d1672b0e18941e1f57949e7cdc81604051610e6c91815260200190565b60405180910390a192915050565b5f818152600260205260408120546001600160a01b0316806107a057604051637e27328960e01b8152600481018490526024016108b3565b6109ff8383836001610fca565b610867828260405180602001604052805f81525061119e565b5f828152600260205260408120546001600160a01b0390811690831615610f0457610f048184866110ce565b6001600160a01b03811615610f3e57610f1f5f855f80610fca565b6001600160a01b0381165f90815260036020526040902080545f190190555b6001600160a01b03851615610f6c576001600160a01b0385165f908152600360205260409020805460010190555b5f8481526002602052604080822080546001600160a01b0319166001600160a01b0389811691821790925591518793918516917fddf252ad1be2c89b69c2b068fc378daa952ba7f163c4a11628f55a4df523b3ef91a4949350505050565b8080610fde57506001600160a01b03821615155b1561109f575f610fed84610e7a565b90506001600160a01b038316158015906110195750826001600160a01b0316816001600160a01b031614155b801561102c575061102a8184610df6565b155b156110555760405163a9fbf51f60e01b81526001600160a01b03841660048201526024016108b3565b811561109d5783856001600160a01b0316826001600160a01b03167f8c5be1e5ebec7d5bd14f71427d1e84f3dd0314c0f7b2291e5b200ac8c7c3b92560405160405180910390a45b505b50505f90815260046020526040902080546001600160a01b0319166001600160a01b0392909216919091179055565b6110d983838361113d565b6109ff576001600160a01b03831661110757604051637e27328960e01b8152600481018290526024016108b3565b60405163177e802f60e01b81526001600160a01b0383166004820152602481018290526044016108b3565b610c278484846114bd565b5f6001600160a01b03831615801590610ace5750826001600160a01b0316846001600160a01b0316148061117657506111768484610df6565b80610ace5750505f908152600460205260409020546001600160a01b03908116911614919050565b6111a88383611442565b6109ff335f85858561128b565b6001600160a01b0382166111e757604051630b61174360e31b81526001600160a01b03831660048201526024016108b3565b6001600160a01b038381165f81815260056020908152604080832094871680845294825291829020805460ff191686151590811790915591519182527f17307eab39ab6107e8899845ad3d59bd9653f200f220920489ca2b5937696c31910160405180910390a3505050565b5f61125f5f835f610ed8565b90506001600160a01b03811661086757604051637e27328960e01b8152600481018390526024016108b3565b6001600160a01b0383163b15610abb57604051630a85bd0160e11b81526001600160a01b0384169063150b7a02906112cd908890889087908790600401611d21565b6020604051808303815f875af1925050508015611307575060408051601f3d908101601f1916820190925261130491810190611d5d565b60015b61136e573d808015611334576040519150601f19603f3d011682016040523d82523d5f602084013e611339565b606091505b5080515f0361136657604051633250574960e11b81526001600160a01b03851660048201526024016108b3565b805181602001fd5b6001600160e01b03198116630a85bd0160e11b146113aa57604051633250574960e11b81526001600160a01b03851660048201526024016108b3565b505050505050565b60605f6113be8361164a565b60010190505f8167ffffffffffffffff8111156113dd576113dd611847565b6040519080825280601f01601f191660200182016040528015611407576020820181803683370190505b5090508181016020015b5f19016f181899199a1a9b1b9c1cb0b131b232b360811b600a86061a8153600a850494508461141157509392505050565b6001600160a01b03821661146b57604051633250574960e11b81525f60048201526024016108b3565b5f61147783835f610ed8565b90506001600160a01b038116156109ff576040516339e3563760e11b81525f60048201526024016108b3565b6109ff83838360405180602001604052805f815250611132565b6001600160a01b0382166114e657604051633250574960e11b81525f60048201526024016108b3565b5f6114f283835f610ed8565b90506001600160a01b03811661151e57604051637e27328960e01b8152600481018390526024016108b3565b836001600160a01b0316816001600160a01b03161461097a576040516364283d7b60e01b81526001600160a01b03808616600483015260248201849052821660448201526064016108b3565b6040516331a9108f60e11b8152600481018290525f9081906001600160a01b037f00000000000000000000000000000000000000000000000000000000000000001690636352211e90602401602060405180830381865afa1580156115d1573d5f803e3d5ffd5b505050506040513d601f19601f820116820180604052508101906115f59190611d78565b90506001600160a01b0381163014611638576040516364283d7b60e01b8152306004820152602481018490526001600160a01b03821660448201526064016108b3565b6116428484610ebf565b509092915050565b5f8072184f03e93ff9f4daa797ed6e38ed64bf6a1f0160401b83106116885772184f03e93ff9f4daa797ed6e38ed64bf6a1f0160401b830492506040015b6d04ee2d6d415b85acef810000000083106116b4576d04ee2d6d415b85acef8100000000830492506020015b662386f26fc1000083106116d257662386f26fc10000830492506010015b6305f5e10083106116ea576305f5e100830492506008015b61271083106116fe57612710830492506004015b60648310611710576064830492506002015b600a83106107a05760010192915050565b6001600160e01b031981168114610c19575f80fd5b5f60208284031215611746575f80fd5b8135610c9e81611721565b5f5b8381101561176b578181015183820152602001611753565b50505f910152565b5f815180845261178a816020860160208601611751565b601f01601f19169290920160200192915050565b602081525f610c9e6020830184611773565b5f602082840312156117c0575f80fd5b5035919050565b6001600160a01b0381168114610c19575f80fd5b5f80604083850312156117ec575f80fd5b82356117f7816117c7565b946020939093013593505050565b5f8060408385031215611816575f80fd5b8235611821816117c7565b915060208301356001600160801b038116811461183c575f80fd5b809150509250929050565b634e487b7160e01b5f52604160045260245ffd5b604051601f8201601f1916810167ffffffffffffffff8111828210171561188457611884611847565b604052919050565b5f805f806080858703121561189f575f80fd5b84356118aa816117c7565b93506020858101356118bb816117c7565b935060408601359250606086013567ffffffffffffffff808211156118de575f80fd5b818801915088601f8301126118f1575f80fd5b81358181111561190357611903611847565b611915601f8201601f1916850161185b565b9150808252898482850101111561192a575f80fd5b80848401858401375f8482840101525080935050505092959194509250565b5f805f6060848603121561195b575f80fd5b8335611966816117c7565b92506020840135611976816117c7565b929592945050506040919091013590565b80358015158114611996575f80fd5b919050565b5f805f80608085870312156119ae575f80fd5b84356119b9816117c7565b93506020850135925060408501356119d0816117c7565b91506119de60608601611987565b905092959194509250565b5f602082840312156119f9575f80fd5b8135610c9e816117c7565b5f8083601f840112611a14575f80fd5b50813567ffffffffffffffff811115611a2b575f80fd5b602083019150836020828501011115611a42575f80fd5b9250929050565b5f805f805f60808688031215611a5d575f80fd5b8535611a68816117c7565b94506020860135611a78816117c7565b935060408601359250606086013567ffffffffffffffff811115611a9a575f80fd5b611aa688828901611a04565b969995985093965092949392505050565b5f8060408385031215611ac8575f80fd5b8235611ad3816117c7565b915060208381013567ffffffffffffffff80821115611af0575f80fd5b818601915086601f830112611b03575f80fd5b813581811115611b1557611b15611847565b8060051b9150611b2684830161185b565b8181529183018401918481019089841115611b3f575f80fd5b938501935b83851015611b5d57843582529385019390850190611b44565b8096505050505050509250929050565b5f805f60608486031215611b7f575f80fd5b8335611b8a816117c7565b9250602084013591506040840135611ba1816117c7565b809150509250925092565b5f805f8060608587031215611bbf575f80fd5b8435611bca816117c7565b935060208501359250604085013567ffffffffffffffff811115611bec575f80fd5b611bf887828801611a04565b95989497509550505050565b5f8060408385031215611c15575f80fd5b8235611c20816117c7565b9150611c2e60208401611987565b90509250929050565b5f805f60608486031215611c49575f80fd5b8335611c54816117c7565b92506020840135611c64816117c7565b9150611c7260408501611987565b90509250925092565b5f8060408385031215611c8c575f80fd5b8235611c97816117c7565b9150602083013561183c816117c7565b600181811c90821680611cbb57607f821691505b602082108103611cd957634e487b7160e01b5f52602260045260245ffd5b50919050565b634e487b7160e01b5f52603260045260245ffd5b5f8351611d04818460208801611751565b835190830190611d18818360208801611751565b01949350505050565b6001600160a01b03858116825284166020820152604081018390526080606082018190525f90611d5390830184611773565b9695505050505050565b5f60208284031215611d6d575f80fd5b8151610c9e81611721565b5f60208284031215611d88575f80fd5b8151610c9e816117c756fea2646970667358221220fe5b3531446e3d7d5a3b084dba647340198625d40a882dfe7ad4f016f46f92f264736f6c63430008180033",
  "linkReferences": {},
  "deployedLinkReferences": {}
}