{
  "_format": "hh-sol-artifact-1",
  "contractName": "Base64Dirty",
  "sourceName": "contracts/mocks/Base64Dirty.sol",
  "abi": [
    {
      "inputs": [
        {
          "internalType": "bytes",
          "name": "input",
          "type": "bytes"
        }
      ],
      "name": "encode",
      "outputs": [
        {
          "internalType": "string",
          "name": "",
          "type": "string"
        }
      ],
      "stateMutability": "pure",
      "type": "function"
    }
  ],
  "bytecode": "0x608060405234801561000f575f80fd5b506103fd8061001d5f395ff3fe608060405234801561000f575f80fd5b5060043610610029575f3560e01c806312496a1b1461002d575b5f80fd5b61004061003b366004610233565b610056565b60405161004d91906102de565b60405180910390f35b60408051602081019091525f19815260609061007183610078565b9392505050565b606061009e826040518060600160405280604081526020016103886040913960016100a4565b92915050565b606083515f036100c2575060408051602081019091525f8152610071565b5f826100f2576003855160046100d8919061033e565b6100e3906002610355565b6100ed9190610368565b610117565b6003855160026101029190610355565b61010c9190610368565b61011790600461033e565b90505f8167ffffffffffffffff8111156101335761013361021f565b6040519080825280601f01601f19166020018201604052801561015d576020820181803683370190505b509050600185016020820187885189016020810180515f82525b828410156101d2576003840193508351603f8160121c168701518653600186019550603f81600c1c168701518653600186019550603f8160061c168701518653600186019550603f8116870151865350600185019450610177565b905250508515610213576003885106600181146101f6576002811461020957610211565b603d6001830353603d6002830353610211565b603d60018303535b505b50909695505050505050565b634e487b7160e01b5f52604160045260245ffd5b5f60208284031215610243575f80fd5b813567ffffffffffffffff8082111561025a575f80fd5b818401915084601f83011261026d575f80fd5b81358181111561027f5761027f61021f565b604051601f8201601f19908116603f011681019083821181831017156102a7576102a761021f565b816040528281528760208487010111156102bf575f80fd5b826020860160208301375f928101602001929092525095945050505050565b5f602080835283518060208501525f5b8181101561030a578581018301518582016040015282016102ee565b505f604082860101526040601f19601f8301168501019250505092915050565b634e487b7160e01b5f52601160045260245ffd5b808202811582820484141761009e5761009e61032a565b8082018082111561009e5761009e61032a565b5f8261038257634e487b7160e01b5f52601260045260245ffd5b50049056fe4142434445464748494a4b4c4d4e4f505152535455565758595a6162636465666768696a6b6c6d6e6f707172737475767778797a303132333435363738392b2fa2646970667358221220628cf6b61b0414f063e557dda8a668605cc692955d42eea346480db5da549c4864736f6c63430008180033",
  "linkReferences": {},
  "deployedLinkReferences": {}
}