{
  "_format": "hh-sol-artifact-1",
  "contractName": "$ERC2981",
  "sourceName": "contracts-exposed/token/common/ERC2981.sol",
  "abi": [
    {
      "inputs": [],
      "stateMutability": "payable",
      "type": "constructor"
    },
    {
      "inputs": [
        {
          "internalType": "uint256",
          "name": "numerator",
          "type": "uint256"
        },
        {
          "internalType": "uint256",
          "name": "denominator",
          "type": "uint256"
        }
      ],
      "name": "ERC2981InvalidDefaultRoyalty",
      "type": "error"
    },
    {
      "inputs": [
        {
          "internalType": "address",
          "name": "receiver",
          "type": "address"
        }
      ],
      "name": "ERC2981InvalidDefaultRoyaltyReceiver",
      "type": "error"
    },
    {
      "inputs": [
        {
          "internalType": "uint256",
          "name": "tokenId",
          "type": "uint256"
        },
        {
          "internalType": "uint256",
          "name": "numerator",
          "type": "uint256"
        },
        {
          "internalType": "uint256",
          "name": "denominator",
          "type": "uint256"
        }
      ],
      "name": "ERC2981InvalidTokenRoyalty",
      "type": "error"
    },
    {
      "inputs": [
        {
          "internalType": "uint256",
          "name": "tokenId",
          "type": "uint256"
        },
        {
          "internalType": "address",
          "name": "receiver",
          "type": "address"
        }
      ],
      "name": "ERC2981InvalidTokenRoyaltyReceiver",
      "type": "error"
    },
    {
      "inputs": [],
      "name": "$_deleteDefaultRoyalty",
      "outputs": [],
      "stateMutability": "nonpayable",
      "type": "function"
    },
    {
      "inputs": [],
      "name": "$_feeDenominator",
      "outputs": [
        {
          "internalType": "uint96",
          "name": "ret0",
          "type": "uint96"
        }
      ],
      "stateMutability": "pure",
      "type": "function"
    },
    {
      "inputs": [
        {
          "internalType": "uint256",
          "name": "tokenId",
          "type": "uint256"
        }
      ],
      "name": "$_resetTokenRoyalty",
      "outputs": [],
      "stateMutability": "nonpayable",
      "type": "function"
    },
    {
      "inputs": [
        {
          "internalType": "address",
          "name": "receiver",
          "type": "address"
        },
        {
          "internalType": "uint96",
          "name": "feeNumerator",
          "type": "uint96"
        }
      ],
      "name": "$_setDefaultRoyalty",
      "outputs": [],
      "stateMutability": "nonpayable",
      "type": "function"
    },
    {
      "inputs": [
        {
          "internalType": "uint256",
          "name": "tokenId",
          "type": "uint256"
        },
        {
          "internalType": "address",
          "name": "receiver",
          "type": "address"
        },
        {
          "internalType": "uint96",
          "name": "feeNumerator",
          "type": "uint96"
        }
      ],
      "name": "$_setTokenRoyalty",
      "outputs": [],
      "stateMutability": "nonpayable",
      "type": "function"
    },
    {
      "inputs": [],
      "name": "__hh_exposed_bytecode_marker",
      "outputs": [
        {
          "internalType": "bytes32",
          "name": "",
          "type": "bytes32"
        }
      ],
      "stateMutability": "view",
      "type": "function"
    },
    {
      "inputs": [
        {
          "internalType": "uint256",
          "name": "tokenId",
          "type": "uint256"
        },
        {
          "internalType": "uint256",
          "name": "salePrice",
          "type": "uint256"
        }
      ],
      "name": "royaltyInfo",
      "outputs": [
        {
          "internalType": "address",
          "name": "receiver",
          "type": "address"
        },
        {
          "internalType": "uint256",
          "name": "amount",
          "type": "uint256"
        }
      ],
      "stateMutability": "view",
      "type": "function"
    },
    {
      "inputs": [
        {
          "internalType": "bytes4",
          "name": "interfaceId",
          "type": "bytes4"
        }
      ],
      "name": "supportsInterface",
      "outputs": [
        {
          "internalType": "bool",
          "name": "",
          "type": "bool"
        }
      ],
      "stateMutability": "view",
      "type": "function"
    },
    {
      "stateMutability": "payable",
      "type": "receive"
    }
  ],
  "bytecode": "0x6080604052610584806100115f395ff3fe60806040526004361061007c575f3560e01c806387ce502f1161004c57806387ce502f146101585780638bf12a7614610177578063b3b673c814610193578063da696ff1146101a7575f80fd5b806301ffc9a7146100875780632a55205a146100bb578063342db739146100f95780637ac8fa3a1461012c575f80fd5b3661008357005b5f80fd5b348015610092575f80fd5b506100a66100a136600461040c565b6101c6565b60405190151581526020015b60405180910390f35b3480156100c6575f80fd5b506100da6100d536600461043a565b6101fc565b604080516001600160a01b0390931683526020830191909152016100b2565b348015610104575f80fd5b5061011e6e1a185c991a185d0b595e1c1bdcd959608a1b81565b6040519081526020016100b2565b348015610137575f80fd5b5061015661014636600461045a565b5f90815260016020526040812055565b005b348015610163575f80fd5b506101566101723660046104a2565b61027e565b348015610182575f80fd5b5060405161271081526020016100b2565b34801561019e575f80fd5b5061015661028e565b3480156101b2575f80fd5b506101566101c13660046104db565b610298565b5f6001600160e01b0319821663152a902d60e11b14806101f657506301ffc9a760e01b6001600160e01b03198316145b92915050565b5f82815260016020526040812080548291906001600160a01b03811690600160a01b90046001600160601b03168161024e5750505f546001600160a01b03811690600160a01b90046001600160601b03165b5f6127106102656001600160601b0384168961050c565b61026f919061052f565b92989297509195505050505050565b6102898383836102a6565b505050565b6102965f8055565b565b6102a2828261036b565b5050565b6127106001600160601b0382168110156102f15760405163dfd1fc1b60e01b8152600481018590526001600160601b0383166024820152604481018290526064015b60405180910390fd5b6001600160a01b03831661032157604051634b4f842960e11b8152600481018590525f60248201526044016102e8565b506040805180820182526001600160a01b0393841681526001600160601b0392831660208083019182525f968752600190529190942093519051909116600160a01b029116179055565b6127106001600160601b0382168110156103aa57604051636f483d0960e01b81526001600160601b0383166004820152602481018290526044016102e8565b6001600160a01b0383166103d357604051635b6cc80560e11b81525f60048201526024016102e8565b50604080518082019091526001600160a01b039092168083526001600160601b039091166020909201829052600160a01b909102175f55565b5f6020828403121561041c575f80fd5b81356001600160e01b031981168114610433575f80fd5b9392505050565b5f806040838503121561044b575f80fd5b50508035926020909101359150565b5f6020828403121561046a575f80fd5b5035919050565b80356001600160a01b0381168114610487575f80fd5b919050565b80356001600160601b0381168114610487575f80fd5b5f805f606084860312156104b4575f80fd5b833592506104c460208501610471565b91506104d26040850161048c565b90509250925092565b5f80604083850312156104ec575f80fd5b6104f583610471565b91506105036020840161048c565b90509250929050565b80820281158282048414176101f657634e487b7160e01b5f52601160045260245ffd5b5f8261054957634e487b7160e01b5f52601260045260245ffd5b50049056fea2646970667358221220cc9ac7cefaab68263c6af36641b17717fbfeaa4931bcb7f8a83f82a6ead7ce1164736f6c63430008180033",
  "linkReferences": {},
  "deployedLinkReferences": {}
}