{
  "_format": "hh-sol-artifact-1",
  "contractName": "$GovernorCountingOverridableMock",
  "sourceName": "contracts-exposed/mocks/governance/GovernorCountingOverridableMock.sol",
  "abi": [
    {
      "inputs": [
        {
          "internalType": "string",
          "name": "name_",
          "type": "string"
        },
        {
          "internalType": "uint48",
          "name": "initialVotingDelay",
          "type": "uint48"
        },
        {
          "internalType": "uint32",
          "name": "initialVotingPeriod",
          "type": "uint32"
        },
        {
          "internalType": "uint256",
          "name": "initialProposalThreshold",
          "type": "uint256"
        },
        {
          "internalType": "contract IVotes",
          "name": "tokenAddress",
          "type": "address"
        },
        {
          "internalType": "uint256",
          "name": "quorumNumeratorValue",
          "type": "uint256"
        }
      ],
      "stateMutability": "payable",
      "type": "constructor"
    },
    {
      "inputs": [],
      "name": "CheckpointUnorderedInsertion",
      "type": "error"
    },
    {
      "inputs": [],
      "name": "FailedCall",
      "type": "error"
    },
    {
      "inputs": [
        {
          "internalType": "address",
          "name": "voter",
          "type": "address"
        }
      ],
      "name": "GovernorAlreadyCastVote",
      "type": "error"
    },
    {
      "inputs": [
        {
          "internalType": "address",
          "name": "account",
          "type": "address"
        }
      ],
      "name": "GovernorAlreadyOverridenVote",
      "type": "error"
    },
    {
      "inputs": [
        {
          "internalType": "uint256",
          "name": "proposalId",
          "type": "uint256"
        }
      ],
      "name": "GovernorAlreadyQueuedProposal",
      "type": "error"
    },
    {
      "inputs": [],
      "name": "GovernorDisabledDeposit",
      "type": "error"
    },
    {
      "inputs": [
        {
          "internalType": "address",
          "name": "proposer",
          "type": "address"
        },
        {
          "internalType": "uint256",
          "name": "votes",
          "type": "uint256"
        },
        {
          "internalType": "uint256",
          "name": "threshold",
          "type": "uint256"
        }
      ],
      "name": "GovernorInsufficientProposerVotes",
      "type": "error"
    },
    {
      "inputs": [
        {
          "internalType": "uint256",
          "name": "targets",
          "type": "uint256"
        },
        {
          "internalType": "uint256",
          "name": "calldatas",
          "type": "uint256"
        },
        {
          "internalType": "uint256",
          "name": "values",
          "type": "uint256"
        }
      ],
      "name": "GovernorInvalidProposalLength",
      "type": "error"
    },
    {
      "inputs": [
        {
          "internalType": "uint256",
          "name": "quorumNumerator",
          "type": "uint256"
        },
        {
          "internalType": "uint256",
          "name": "quorumDenominator",
          "type": "uint256"
        }
      ],
      "name": "GovernorInvalidQuorumFraction",
      "type": "error"
    },
    {
      "inputs": [
        {
          "internalType": "address",
          "name": "voter",
          "type": "address"
        }
      ],
      "name": "GovernorInvalidSignature",
      "type": "error"
    },
    {
      "inputs": [],
      "name": "GovernorInvalidVoteParams",
      "type": "error"
    },
    {
      "inputs": [],
      "name": "GovernorInvalidVoteType",
      "type": "error"
    },
    {
      "inputs": [
        {
          "internalType": "uint256",
          "name": "votingPeriod",
          "type": "uint256"
        }
      ],
      "name": "GovernorInvalidVotingPeriod",
      "type": "error"
    },
    {
      "inputs": [
        {
          "internalType": "uint256",
          "name": "proposalId",
          "type": "uint256"
        }
      ],
      "name": "GovernorNonexistentProposal",
      "type": "error"
    },
    {
      "inputs": [
        {
          "internalType": "uint256",
          "name": "proposalId",
          "type": "uint256"
        }
      ],
      "name": "GovernorNotQueuedProposal",
      "type": "error"
    },
    {
      "inputs": [
        {
          "internalType": "address",
          "name": "account",
          "type": "address"
        }
      ],
      "name": "GovernorOnlyExecutor",
      "type": "error"
    },
    {
      "inputs": [
        {
          "internalType": "address",
          "name": "account",
          "type": "address"
        }
      ],
      "name": "GovernorOnlyProposer",
      "type": "error"
    },
    {
      "inputs": [],
      "name": "GovernorQueueNotImplemented",
      "type": "error"
    },
    {
      "inputs": [
        {
          "internalType": "address",
          "name": "proposer",
          "type": "address"
        }
      ],
      "name": "GovernorRestrictedProposer",
      "type": "error"
    },
    {
      "inputs": [
        {
          "internalType": "uint256",
          "name": "proposalId",
          "type": "uint256"
        },
        {
          "internalType": "enum IGovernor.ProposalState",
          "name": "current",
          "type": "uint8"
        },
        {
          "internalType": "bytes32",
          "name": "expectedStates",
          "type": "bytes32"
        }
      ],
      "name": "GovernorUnexpectedProposalState",
      "type": "error"
    },
    {
      "inputs": [
        {
          "internalType": "address",
          "name": "account",
          "type": "address"
        },
        {
          "internalType": "uint256",
          "name": "currentNonce",
          "type": "uint256"
        }
      ],
      "name": "InvalidAccountNonce",
      "type": "error"
    },
    {
      "inputs": [],
      "name": "InvalidShortString",
      "type": "error"
    },
    {
      "inputs": [
        {
          "internalType": "uint8",
          "name": "bits",
          "type": "uint8"
        },
        {
          "internalType": "uint256",
          "name": "value",
          "type": "uint256"
        }
      ],
      "name": "SafeCastOverflowedUintDowncast",
      "type": "error"
    },
    {
      "inputs": [
        {
          "internalType": "string",
          "name": "str",
          "type": "string"
        }
      ],
      "name": "StringTooLong",
      "type": "error"
    },
    {
      "anonymous": false,
      "inputs": [],
      "name": "EIP712DomainChanged",
      "type": "event"
    },
    {
      "anonymous": false,
      "inputs": [
        {
          "indexed": true,
          "internalType": "address",
          "name": "voter",
          "type": "address"
        },
        {
          "indexed": false,
          "internalType": "uint256",
          "name": "proposalId",
          "type": "uint256"
        },
        {
          "indexed": false,
          "internalType": "uint8",
          "name": "support",
          "type": "uint8"
        },
        {
          "indexed": false,
          "internalType": "uint256",
          "name": "weight",
          "type": "uint256"
        },
        {
          "indexed": false,
          "internalType": "string",
          "name": "reason",
          "type": "string"
        }
      ],
      "name": "OverrideVoteCast",
      "type": "event"
    },
    {
      "anonymous": false,
      "inputs": [
        {
          "indexed": false,
          "internalType": "uint256",
          "name": "proposalId",
          "type": "uint256"
        }
      ],
      "name": "ProposalCanceled",
      "type": "event"
    },
    {
      "anonymous": false,
      "inputs": [
        {
          "indexed": false,
          "internalType": "uint256",
          "name": "proposalId",
          "type": "uint256"
        },
        {
          "indexed": false,
          "internalType": "address",
          "name": "proposer",
          "type": "address"
        },
        {
          "indexed": false,
          "internalType": "address[]",
          "name": "targets",
          "type": "address[]"
        },
        {
          "indexed": false,
          "internalType": "uint256[]",
          "name": "values",
          "type": "uint256[]"
        },
        {
          "indexed": false,
          "internalType": "string[]",
          "name": "signatures",
          "type": "string[]"
        },
        {
          "indexed": false,
          "internalType": "bytes[]",
          "name": "calldatas",
          "type": "bytes[]"
        },
        {
          "indexed": false,
          "internalType": "uint256",
          "name": "voteStart",
          "type": "uint256"
        },
        {
          "indexed": false,
          "internalType": "uint256",
          "name": "voteEnd",
          "type": "uint256"
        },
        {
          "indexed": false,
          "internalType": "string",
          "name": "description",
          "type": "string"
        }
      ],
      "name": "ProposalCreated",
      "type": "event"
    },
    {
      "anonymous": false,
      "inputs": [
        {
          "indexed": false,
          "internalType": "uint256",
          "name": "proposalId",
          "type": "uint256"
        }
      ],
      "name": "ProposalExecuted",
      "type": "event"
    },
    {
      "anonymous": false,
      "inputs": [
        {
          "indexed": false,
          "internalType": "uint256",
          "name": "proposalId",
          "type": "uint256"
        },
        {
          "indexed": false,
          "internalType": "uint256",
          "name": "etaSeconds",
          "type": "uint256"
        }
      ],
      "name": "ProposalQueued",
      "type": "event"
    },
    {
      "anonymous": false,
      "inputs": [
        {
          "indexed": false,
          "internalType": "uint256",
          "name": "oldProposalThreshold",
          "type": "uint256"
        },
        {
          "indexed": false,
          "internalType": "uint256",
          "name": "newProposalThreshold",
          "type": "uint256"
        }
      ],
      "name": "ProposalThresholdSet",
      "type": "event"
    },
    {
      "anonymous": false,
      "inputs": [
        {
          "indexed": false,
          "internalType": "uint256",
          "name": "oldQuorumNumerator",
          "type": "uint256"
        },
        {
          "indexed": false,
          "internalType": "uint256",
          "name": "newQuorumNumerator",
          "type": "uint256"
        }
      ],
      "name": "QuorumNumeratorUpdated",
      "type": "event"
    },
    {
      "anonymous": false,
      "inputs": [
        {
          "indexed": true,
          "internalType": "address",
          "name": "voter",
          "type": "address"
        },
        {
          "indexed": false,
          "internalType": "uint256",
          "name": "proposalId",
          "type": "uint256"
        },
        {
          "indexed": false,
          "internalType": "uint8",
          "name": "support",
          "type": "uint8"
        },
        {
          "indexed": false,
          "internalType": "uint256",
          "name": "weight",
          "type": "uint256"
        },
        {
          "indexed": false,
          "internalType": "string",
          "name": "reason",
          "type": "string"
        }
      ],
      "name": "VoteCast",
      "type": "event"
    },
    {
      "anonymous": false,
      "inputs": [
        {
          "indexed": true,
          "internalType": "address",
          "name": "voter",
          "type": "address"
        },
        {
          "indexed": false,
          "internalType": "uint256",
          "name": "proposalId",
          "type": "uint256"
        },
        {
          "indexed": false,
          "internalType": "uint8",
          "name": "support",
          "type": "uint8"
        },
        {
          "indexed": false,
          "internalType": "uint256",
          "name": "weight",
          "type": "uint256"
        },
        {
          "indexed": false,
          "internalType": "string",
          "name": "reason",
          "type": "string"
        },
        {
          "indexed": false,
          "internalType": "bytes",
          "name": "params",
          "type": "bytes"
        }
      ],
      "name": "VoteCastWithParams",
      "type": "event"
    },
    {
      "anonymous": false,
      "inputs": [
        {
          "indexed": true,
          "internalType": "address",
          "name": "delegate",
          "type": "address"
        },
        {
          "indexed": false,
          "internalType": "uint256",
          "name": "proposalId",
          "type": "uint256"
        },
        {
          "indexed": false,
          "internalType": "uint8",
          "name": "support",
          "type": "uint8"
        },
        {
          "indexed": false,
          "internalType": "uint256",
          "name": "weight",
          "type": "uint256"
        }
      ],
      "name": "VoteReduced",
      "type": "event"
    },
    {
      "anonymous": false,
      "inputs": [
        {
          "indexed": false,
          "internalType": "uint256",
          "name": "oldVotingDelay",
          "type": "uint256"
        },
        {
          "indexed": false,
          "internalType": "uint256",
          "name": "newVotingDelay",
          "type": "uint256"
        }
      ],
      "name": "VotingDelaySet",
      "type": "event"
    },
    {
      "anonymous": false,
      "inputs": [
        {
          "indexed": false,
          "internalType": "uint256",
          "name": "oldVotingPeriod",
          "type": "uint256"
        },
        {
          "indexed": false,
          "internalType": "uint256",
          "name": "newVotingPeriod",
          "type": "uint256"
        }
      ],
      "name": "VotingPeriodSet",
      "type": "event"
    },
    {
      "anonymous": false,
      "inputs": [
        {
          "indexed": false,
          "internalType": "uint256",
          "name": "ret0",
          "type": "uint256"
        }
      ],
      "name": "return$_cancel",
      "type": "event"
    },
    {
      "anonymous": false,
      "inputs": [
        {
          "indexed": false,
          "internalType": "uint256",
          "name": "ret0",
          "type": "uint256"
        }
      ],
      "name": "return$_castOverride",
      "type": "event"
    },
    {
      "anonymous": false,
      "inputs": [
        {
          "indexed": false,
          "internalType": "uint256",
          "name": "ret0",
          "type": "uint256"
        }
      ],
      "name": "return$_castVote_uint256_address_uint8_string",
      "type": "event"
    },
    {
      "anonymous": false,
      "inputs": [
        {
          "indexed": false,
          "internalType": "uint256",
          "name": "ret0",
          "type": "uint256"
        }
      ],
      "name": "return$_castVote_uint256_address_uint8_string_bytes",
      "type": "event"
    },
    {
      "anonymous": false,
      "inputs": [
        {
          "indexed": false,
          "internalType": "uint256",
          "name": "ret0",
          "type": "uint256"
        }
      ],
      "name": "return$_countOverride",
      "type": "event"
    },
    {
      "anonymous": false,
      "inputs": [
        {
          "indexed": false,
          "internalType": "uint256",
          "name": "ret0",
          "type": "uint256"
        }
      ],
      "name": "return$_countVote",
      "type": "event"
    },
    {
      "anonymous": false,
      "inputs": [
        {
          "indexed": false,
          "internalType": "uint256",
          "name": "proposalId",
          "type": "uint256"
        }
      ],
      "name": "return$_propose",
      "type": "event"
    },
    {
      "anonymous": false,
      "inputs": [
        {
          "indexed": false,
          "internalType": "uint48",
          "name": "ret0",
          "type": "uint48"
        }
      ],
      "name": "return$_queueOperations",
      "type": "event"
    },
    {
      "anonymous": false,
      "inputs": [
        {
          "indexed": false,
          "internalType": "uint256",
          "name": "ret0",
          "type": "uint256"
        }
      ],
      "name": "return$_useNonce",
      "type": "event"
    },
    {
      "inputs": [],
      "name": "$_EIP712Name",
      "outputs": [
        {
          "internalType": "string",
          "name": "ret0",
          "type": "string"
        }
      ],
      "stateMutability": "view",
      "type": "function"
    },
    {
      "inputs": [],
      "name": "$_EIP712Version",
      "outputs": [
        {
          "internalType": "string",
          "name": "ret0",
          "type": "string"
        }
      ],
      "stateMutability": "view",
      "type": "function"
    },
    {
      "inputs": [
        {
          "internalType": "address[]",
          "name": "targets",
          "type": "address[]"
        },
        {
          "internalType": "uint256[]",
          "name": "values",
          "type": "uint256[]"
        },
        {
          "internalType": "bytes[]",
          "name": "calldatas",
          "type": "bytes[]"
        },
        {
          "internalType": "bytes32",
          "name": "descriptionHash",
          "type": "bytes32"
        }
      ],
      "name": "$_cancel",
      "outputs": [
        {
          "internalType": "uint256",
          "name": "ret0",
          "type": "uint256"
        }
      ],
      "stateMutability": "nonpayable",
      "type": "function"
    },
    {
      "inputs": [
        {
          "internalType": "uint256",
          "name": "proposalId",
          "type": "uint256"
        },
        {
          "internalType": "address",
          "name": "account",
          "type": "address"
        },
        {
          "internalType": "uint8",
          "name": "support",
          "type": "uint8"
        },
        {
          "internalType": "string",
          "name": "reason",
          "type": "string"
        }
      ],
      "name": "$_castOverride",
      "outputs": [
        {
          "internalType": "uint256",
          "name": "ret0",
          "type": "uint256"
        }
      ],
      "stateMutability": "nonpayable",
      "type": "function"
    },
    {
      "inputs": [
        {
          "internalType": "uint256",
          "name": "proposalId",
          "type": "uint256"
        },
        {
          "internalType": "address",
          "name": "account",
          "type": "address"
        },
        {
          "internalType": "uint8",
          "name": "support",
          "type": "uint8"
        },
        {
          "internalType": "string",
          "name": "reason",
          "type": "string"
        },
        {
          "internalType": "bytes",
          "name": "params",
          "type": "bytes"
        }
      ],
      "name": "$_castVote",
      "outputs": [
        {
          "internalType": "uint256",
          "name": "ret0",
          "type": "uint256"
        }
      ],
      "stateMutability": "nonpayable",
      "type": "function"
    },
    {
      "inputs": [
        {
          "internalType": "uint256",
          "name": "proposalId",
          "type": "uint256"
        },
        {
          "internalType": "address",
          "name": "account",
          "type": "address"
        },
        {
          "internalType": "uint8",
          "name": "support",
          "type": "uint8"
        },
        {
          "internalType": "string",
          "name": "reason",
          "type": "string"
        }
      ],
      "name": "$_castVote",
      "outputs": [
        {
          "internalType": "uint256",
          "name": "ret0",
          "type": "uint256"
        }
      ],
      "stateMutability": "nonpayable",
      "type": "function"
    },
    {
      "inputs": [],
      "name": "$_checkGovernance",
      "outputs": [],
      "stateMutability": "nonpayable",
      "type": "function"
    },
    {
      "inputs": [],
      "name": "$_contextSuffixLength",
      "outputs": [
        {
          "internalType": "uint256",
          "name": "ret0",
          "type": "uint256"
        }
      ],
      "stateMutability": "view",
      "type": "function"
    },
    {
      "inputs": [
        {
          "internalType": "uint256",
          "name": "proposalId",
          "type": "uint256"
        },
        {
          "internalType": "address",
          "name": "account",
          "type": "address"
        },
        {
          "internalType": "uint8",
          "name": "support",
          "type": "uint8"
        }
      ],
      "name": "$_countOverride",
      "outputs": [
        {
          "internalType": "uint256",
          "name": "ret0",
          "type": "uint256"
        }
      ],
      "stateMutability": "nonpayable",
      "type": "function"
    },
    {
      "inputs": [
        {
          "internalType": "uint256",
          "name": "proposalId",
          "type": "uint256"
        },
        {
          "internalType": "address",
          "name": "account",
          "type": "address"
        },
        {
          "internalType": "uint8",
          "name": "support",
          "type": "uint8"
        },
        {
          "internalType": "uint256",
          "name": "totalWeight",
          "type": "uint256"
        },
        {
          "internalType": "bytes",
          "name": "arg4",
          "type": "bytes"
        }
      ],
      "name": "$_countVote",
      "outputs": [
        {
          "internalType": "uint256",
          "name": "ret0",
          "type": "uint256"
        }
      ],
      "stateMutability": "nonpayable",
      "type": "function"
    },
    {
      "inputs": [],
      "name": "$_defaultParams",
      "outputs": [
        {
          "internalType": "bytes",
          "name": "ret0",
          "type": "bytes"
        }
      ],
      "stateMutability": "view",
      "type": "function"
    },
    {
      "inputs": [],
      "name": "$_domainSeparatorV4",
      "outputs": [
        {
          "internalType": "bytes32",
          "name": "ret0",
          "type": "bytes32"
        }
      ],
      "stateMutability": "view",
      "type": "function"
    },
    {
      "inputs": [
        {
          "internalType": "enum IGovernor.ProposalState",
          "name": "proposalState",
          "type": "uint8"
        }
      ],
      "name": "$_encodeStateBitmap",
      "outputs": [
        {
          "internalType": "bytes32",
          "name": "ret0",
          "type": "bytes32"
        }
      ],
      "stateMutability": "pure",
      "type": "function"
    },
    {
      "inputs": [
        {
          "internalType": "uint256",
          "name": "arg0",
          "type": "uint256"
        },
        {
          "internalType": "address[]",
          "name": "targets",
          "type": "address[]"
        },
        {
          "internalType": "uint256[]",
          "name": "values",
          "type": "uint256[]"
        },
        {
          "internalType": "bytes[]",
          "name": "calldatas",
          "type": "bytes[]"
        },
        {
          "internalType": "bytes32",
          "name": "arg4",
          "type": "bytes32"
        }
      ],
      "name": "$_executeOperations",
      "outputs": [],
      "stateMutability": "nonpayable",
      "type": "function"
    },
    {
      "inputs": [],
      "name": "$_executor",
      "outputs": [
        {
          "internalType": "address",
          "name": "ret0",
          "type": "address"
        }
      ],
      "stateMutability": "view",
      "type": "function"
    },
    {
      "inputs": [
        {
          "internalType": "address",
          "name": "account",
          "type": "address"
        },
        {
          "internalType": "uint256",
          "name": "timepoint",
          "type": "uint256"
        },
        {
          "internalType": "bytes",
          "name": "arg2",
          "type": "bytes"
        }
      ],
      "name": "$_getVotes",
      "outputs": [
        {
          "internalType": "uint256",
          "name": "ret0",
          "type": "uint256"
        }
      ],
      "stateMutability": "view",
      "type": "function"
    },
    {
      "inputs": [
        {
          "internalType": "bytes32",
          "name": "structHash",
          "type": "bytes32"
        }
      ],
      "name": "$_hashTypedDataV4",
      "outputs": [
        {
          "internalType": "bytes32",
          "name": "ret0",
          "type": "bytes32"
        }
      ],
      "stateMutability": "view",
      "type": "function"
    },
    {
      "inputs": [
        {
          "internalType": "address",
          "name": "proposer",
          "type": "address"
        },
        {
          "internalType": "string",
          "name": "description",
          "type": "string"
        }
      ],
      "name": "$_isValidDescriptionForProposer",
      "outputs": [
        {
          "internalType": "bool",
          "name": "ret0",
          "type": "bool"
        }
      ],
      "stateMutability": "view",
      "type": "function"
    },
    {
      "inputs": [],
      "name": "$_msgData",
      "outputs": [
        {
          "internalType": "bytes",
          "name": "ret0",
          "type": "bytes"
        }
      ],
      "stateMutability": "view",
      "type": "function"
    },
    {
      "inputs": [],
      "name": "$_msgSender",
      "outputs": [
        {
          "internalType": "address",
          "name": "ret0",
          "type": "address"
        }
      ],
      "stateMutability": "view",
      "type": "function"
    },
    {
      "inputs": [
        {
          "internalType": "address[]",
          "name": "targets",
          "type": "address[]"
        },
        {
          "internalType": "uint256[]",
          "name": "values",
          "type": "uint256[]"
        },
        {
          "internalType": "bytes[]",
          "name": "calldatas",
          "type": "bytes[]"
        },
        {
          "internalType": "string",
          "name": "description",
          "type": "string"
        },
        {
          "internalType": "address",
          "name": "proposer",
          "type": "address"
        }
      ],
      "name": "$_propose",
      "outputs": [
        {
          "internalType": "uint256",
          "name": "proposalId",
          "type": "uint256"
        }
      ],
      "stateMutability": "nonpayable",
      "type": "function"
    },
    {
      "inputs": [
        {
          "internalType": "uint256",
          "name": "arg0",
          "type": "uint256"
        },
        {
          "internalType": "address[]",
          "name": "arg1",
          "type": "address[]"
        },
        {
          "internalType": "uint256[]",
          "name": "arg2",
          "type": "uint256[]"
        },
        {
          "internalType": "bytes[]",
          "name": "arg3",
          "type": "bytes[]"
        },
        {
          "internalType": "bytes32",
          "name": "arg4",
          "type": "bytes32"
        }
      ],
      "name": "$_queueOperations",
      "outputs": [
        {
          "internalType": "uint48",
          "name": "ret0",
          "type": "uint48"
        }
      ],
      "stateMutability": "nonpayable",
      "type": "function"
    },
    {
      "inputs": [
        {
          "internalType": "uint256",
          "name": "proposalId",
          "type": "uint256"
        }
      ],
      "name": "$_quorumReached",
      "outputs": [
        {
          "internalType": "bool",
          "name": "ret0",
          "type": "bool"
        }
      ],
      "stateMutability": "view",
      "type": "function"
    },
    {
      "inputs": [
        {
          "internalType": "uint256",
          "name": "newProposalThreshold",
          "type": "uint256"
        }
      ],
      "name": "$_setProposalThreshold",
      "outputs": [],
      "stateMutability": "nonpayable",
      "type": "function"
    },
    {
      "inputs": [
        {
          "internalType": "uint48",
          "name": "newVotingDelay",
          "type": "uint48"
        }
      ],
      "name": "$_setVotingDelay",
      "outputs": [],
      "stateMutability": "nonpayable",
      "type": "function"
    },
    {
      "inputs": [
        {
          "internalType": "uint32",
          "name": "newVotingPeriod",
          "type": "uint32"
        }
      ],
      "name": "$_setVotingPeriod",
      "outputs": [],
      "stateMutability": "nonpayable",
      "type": "function"
    },
    {
      "inputs": [
        {
          "internalType": "uint256",
          "name": "proposalId",
          "type": "uint256"
        }
      ],
      "name": "$_tallyUpdated",
      "outputs": [],
      "stateMutability": "nonpayable",
      "type": "function"
    },
    {
      "inputs": [
        {
          "internalType": "uint256",
          "name": "newQuorumNumerator",
          "type": "uint256"
        }
      ],
      "name": "$_updateQuorumNumerator",
      "outputs": [],
      "stateMutability": "nonpayable",
      "type": "function"
    },
    {
      "inputs": [
        {
          "internalType": "address",
          "name": "owner",
          "type": "address"
        },
        {
          "internalType": "uint256",
          "name": "nonce",
          "type": "uint256"
        }
      ],
      "name": "$_useCheckedNonce",
      "outputs": [],
      "stateMutability": "nonpayable",
      "type": "function"
    },
    {
      "inputs": [
        {
          "internalType": "address",
          "name": "owner",
          "type": "address"
        }
      ],
      "name": "$_useNonce",
      "outputs": [
        {
          "internalType": "uint256",
          "name": "ret0",
          "type": "uint256"
        }
      ],
      "stateMutability": "nonpayable",
      "type": "function"
    },
    {
      "inputs": [
        {
          "internalType": "uint256",
          "name": "proposalId",
          "type": "uint256"
        },
        {
          "internalType": "bytes32",
          "name": "allowedStates",
          "type": "bytes32"
        }
      ],
      "name": "$_validateStateBitmap",
      "outputs": [
        {
          "internalType": "enum IGovernor.ProposalState",
          "name": "ret0",
          "type": "uint8"
        }
      ],
      "stateMutability": "view",
      "type": "function"
    },
    {
      "inputs": [
        {
          "internalType": "uint256",
          "name": "proposalId",
          "type": "uint256"
        }
      ],
      "name": "$_voteSucceeded",
      "outputs": [
        {
          "internalType": "bool",
          "name": "ret0",
          "type": "bool"
        }
      ],
      "stateMutability": "view",
      "type": "function"
    },
    {
      "inputs": [],
      "name": "BALLOT_TYPEHASH",
      "outputs": [
        {
          "internalType": "bytes32",
          "name": "",
          "type": "bytes32"
        }
      ],
      "stateMutability": "view",
      "type": "function"
    },
    {
      "inputs": [],
      "name": "CLOCK_MODE",
      "outputs": [
        {
          "internalType": "string",
          "name": "",
          "type": "string"
        }
      ],
      "stateMutability": "view",
      "type": "function"
    },
    {
      "inputs": [],
      "name": "COUNTING_MODE",
      "outputs": [
        {
          "internalType": "string",
          "name": "",
          "type": "string"
        }
      ],
      "stateMutability": "pure",
      "type": "function"
    },
    {
      "inputs": [],
      "name": "EXTENDED_BALLOT_TYPEHASH",
      "outputs": [
        {
          "internalType": "bytes32",
          "name": "",
          "type": "bytes32"
        }
      ],
      "stateMutability": "view",
      "type": "function"
    },
    {
      "inputs": [],
      "name": "OVERRIDE_BALLOT_TYPEHASH",
      "outputs": [
        {
          "internalType": "bytes32",
          "name": "",
          "type": "bytes32"
        }
      ],
      "stateMutability": "view",
      "type": "function"
    },
    {
      "inputs": [],
      "name": "__hh_exposed_bytecode_marker",
      "outputs": [
        {
          "internalType": "bytes32",
          "name": "",
          "type": "bytes32"
        }
      ],
      "stateMutability": "view",
      "type": "function"
    },
    {
      "inputs": [
        {
          "internalType": "address[]",
          "name": "targets",
          "type": "address[]"
        },
        {
          "internalType": "uint256[]",
          "name": "values",
          "type": "uint256[]"
        },
        {
          "internalType": "bytes[]",
          "name": "calldatas",
          "type": "bytes[]"
        },
        {
          "internalType": "bytes32",
          "name": "descriptionHash",
          "type": "bytes32"
        }
      ],
      "name": "cancel",
      "outputs": [
        {
          "internalType": "uint256",
          "name": "",
          "type": "uint256"
        }
      ],
      "stateMutability": "nonpayable",
      "type": "function"
    },
    {
      "inputs": [
        {
          "internalType": "uint256",
          "name": "proposalId",
          "type": "uint256"
        },
        {
          "internalType": "uint8",
          "name": "support",
          "type": "uint8"
        },
        {
          "internalType": "string",
          "name": "reason",
          "type": "string"
        }
      ],
      "name": "castOverrideVote",
      "outputs": [
        {
          "internalType": "uint256",
          "name": "",
          "type": "uint256"
        }
      ],
      "stateMutability": "nonpayable",
      "type": "function"
    },
    {
      "inputs": [
        {
          "internalType": "uint256",
          "name": "proposalId",
          "type": "uint256"
        },
        {
          "internalType": "uint8",
          "name": "support",
          "type": "uint8"
        },
        {
          "internalType": "address",
          "name": "voter",
          "type": "address"
        },
        {
          "internalType": "string",
          "name": "reason",
          "type": "string"
        },
        {
          "internalType": "bytes",
          "name": "signature",
          "type": "bytes"
        }
      ],
      "name": "castOverrideVoteBySig",
      "outputs": [
        {
          "internalType": "uint256",
          "name": "",
          "type": "uint256"
        }
      ],
      "stateMutability": "nonpayable",
      "type": "function"
    },
    {
      "inputs": [
        {
          "internalType": "uint256",
          "name": "proposalId",
          "type": "uint256"
        },
        {
          "internalType": "uint8",
          "name": "support",
          "type": "uint8"
        }
      ],
      "name": "castVote",
      "outputs": [
        {
          "internalType": "uint256",
          "name": "",
          "type": "uint256"
        }
      ],
      "stateMutability": "nonpayable",
      "type": "function"
    },
    {
      "inputs": [
        {
          "internalType": "uint256",
          "name": "proposalId",
          "type": "uint256"
        },
        {
          "internalType": "uint8",
          "name": "support",
          "type": "uint8"
        },
        {
          "internalType": "address",
          "name": "voter",
          "type": "address"
        },
        {
          "internalType": "bytes",
          "name": "signature",
          "type": "bytes"
        }
      ],
      "name": "castVoteBySig",
      "outputs": [
        {
          "internalType": "uint256",
          "name": "",
          "type": "uint256"
        }
      ],
      "stateMutability": "nonpayable",
      "type": "function"
    },
    {
      "inputs": [
        {
          "internalType": "uint256",
          "name": "proposalId",
          "type": "uint256"
        },
        {
          "internalType": "uint8",
          "name": "support",
          "type": "uint8"
        },
        {
          "internalType": "string",
          "name": "reason",
          "type": "string"
        }
      ],
      "name": "castVoteWithReason",
      "outputs": [
        {
          "internalType": "uint256",
          "name": "",
          "type": "uint256"
        }
      ],
      "stateMutability": "nonpayable",
      "type": "function"
    },
    {
      "inputs": [
        {
          "internalType": "uint256",
          "name": "proposalId",
          "type": "uint256"
        },
        {
          "internalType": "uint8",
          "name": "support",
          "type": "uint8"
        },
        {
          "internalType": "string",
          "name": "reason",
          "type": "string"
        },
        {
          "internalType": "bytes",
          "name": "params",
          "type": "bytes"
        }
      ],
      "name": "castVoteWithReasonAndParams",
      "outputs": [
        {
          "internalType": "uint256",
          "name": "",
          "type": "uint256"
        }
      ],
      "stateMutability": "nonpayable",
      "type": "function"
    },
    {
      "inputs": [
        {
          "internalType": "uint256",
          "name": "proposalId",
          "type": "uint256"
        },
        {
          "internalType": "uint8",
          "name": "support",
          "type": "uint8"
        },
        {
          "internalType": "address",
          "name": "voter",
          "type": "address"
        },
        {
          "internalType": "string",
          "name": "reason",
          "type": "string"
        },
        {
          "internalType": "bytes",
          "name": "params",
          "type": "bytes"
        },
        {
          "internalType": "bytes",
          "name": "signature",
          "type": "bytes"
        }
      ],
      "name": "castVoteWithReasonAndParamsBySig",
      "outputs": [
        {
          "internalType": "uint256",
          "name": "",
          "type": "uint256"
        }
      ],
      "stateMutability": "nonpayable",
      "type": "function"
    },
    {
      "inputs": [],
      "name": "clock",
      "outputs": [
        {
          "internalType": "uint48",
          "name": "",
          "type": "uint48"
        }
      ],
      "stateMutability": "view",
      "type": "function"
    },
    {
      "inputs": [],
      "name": "eip712Domain",
      "outputs": [
        {
          "internalType": "bytes1",
          "name": "fields",
          "type": "bytes1"
        },
        {
          "internalType": "string",
          "name": "name",
          "type": "string"
        },
        {
          "internalType": "string",
          "name": "version",
          "type": "string"
        },
        {
          "internalType": "uint256",
          "name": "chainId",
          "type": "uint256"
        },
        {
          "internalType": "address",
          "name": "verifyingContract",
          "type": "address"
        },
        {
          "internalType": "bytes32",
          "name": "salt",
          "type": "bytes32"
        },
        {
          "internalType": "uint256[]",
          "name": "extensions",
          "type": "uint256[]"
        }
      ],
      "stateMutability": "view",
      "type": "function"
    },
    {
      "inputs": [
        {
          "internalType": "address[]",
          "name": "targets",
          "type": "address[]"
        },
        {
          "internalType": "uint256[]",
          "name": "values",
          "type": "uint256[]"
        },
        {
          "internalType": "bytes[]",
          "name": "calldatas",
          "type": "bytes[]"
        },
        {
          "internalType": "bytes32",
          "name": "descriptionHash",
          "type": "bytes32"
        }
      ],
      "name": "execute",
      "outputs": [
        {
          "internalType": "uint256",
          "name": "",
          "type": "uint256"
        }
      ],
      "stateMutability": "payable",
      "type": "function"
    },
    {
      "inputs": [
        {
          "internalType": "address[]",
          "name": "targets",
          "type": "address[]"
        },
        {
          "internalType": "uint256[]",
          "name": "values",
          "type": "uint256[]"
        },
        {
          "internalType": "bytes[]",
          "name": "calldatas",
          "type": "bytes[]"
        },
        {
          "internalType": "bytes32",
          "name": "descriptionHash",
          "type": "bytes32"
        }
      ],
      "name": "getProposalId",
      "outputs": [
        {
          "internalType": "uint256",
          "name": "",
          "type": "uint256"
        }
      ],
      "stateMutability": "view",
      "type": "function"
    },
    {
      "inputs": [
        {
          "internalType": "address",
          "name": "account",
          "type": "address"
        },
        {
          "internalType": "uint256",
          "name": "timepoint",
          "type": "uint256"
        }
      ],
      "name": "getVotes",
      "outputs": [
        {
          "internalType": "uint256",
          "name": "",
          "type": "uint256"
        }
      ],
      "stateMutability": "view",
      "type": "function"
    },
    {
      "inputs": [
        {
          "internalType": "address",
          "name": "account",
          "type": "address"
        },
        {
          "internalType": "uint256",
          "name": "timepoint",
          "type": "uint256"
        },
        {
          "internalType": "bytes",
          "name": "params",
          "type": "bytes"
        }
      ],
      "name": "getVotesWithParams",
      "outputs": [
        {
          "internalType": "uint256",
          "name": "",
          "type": "uint256"
        }
      ],
      "stateMutability": "view",
      "type": "function"
    },
    {
      "inputs": [
        {
          "internalType": "uint256",
          "name": "proposalId",
          "type": "uint256"
        },
        {
          "internalType": "address",
          "name": "account",
          "type": "address"
        }
      ],
      "name": "hasVoted",
      "outputs": [
        {
          "internalType": "bool",
          "name": "",
          "type": "bool"
        }
      ],
      "stateMutability": "view",
      "type": "function"
    },
    {
      "inputs": [
        {
          "internalType": "uint256",
          "name": "proposalId",
          "type": "uint256"
        },
        {
          "internalType": "address",
          "name": "account",
          "type": "address"
        }
      ],
      "name": "hasVotedOverride",
      "outputs": [
        {
          "internalType": "bool",
          "name": "",
          "type": "bool"
        }
      ],
      "stateMutability": "view",
      "type": "function"
    },
    {
      "inputs": [
        {
          "internalType": "address[]",
          "name": "targets",
          "type": "address[]"
        },
        {
          "internalType": "uint256[]",
          "name": "values",
          "type": "uint256[]"
        },
        {
          "internalType": "bytes[]",
          "name": "calldatas",
          "type": "bytes[]"
        },
        {
          "internalType": "bytes32",
          "name": "descriptionHash",
          "type": "bytes32"
        }
      ],
      "name": "hashProposal",
      "outputs": [
        {
          "internalType": "uint256",
          "name": "",
          "type": "uint256"
        }
      ],
      "stateMutability": "pure",
      "type": "function"
    },
    {
      "inputs": [],
      "name": "name",
      "outputs": [
        {
          "internalType": "string",
          "name": "",
          "type": "string"
        }
      ],
      "stateMutability": "view",
      "type": "function"
    },
    {
      "inputs": [
        {
          "internalType": "address",
          "name": "owner",
          "type": "address"
        }
      ],
      "name": "nonces",
      "outputs": [
        {
          "internalType": "uint256",
          "name": "",
          "type": "uint256"
        }
      ],
      "stateMutability": "view",
      "type": "function"
    },
    {
      "inputs": [
        {
          "internalType": "address",
          "name": "",
          "type": "address"
        },
        {
          "internalType": "address",
          "name": "",
          "type": "address"
        },
        {
          "internalType": "uint256[]",
          "name": "",
          "type": "uint256[]"
        },
        {
          "internalType": "uint256[]",
          "name": "",
          "type": "uint256[]"
        },
        {
          "internalType": "bytes",
          "name": "",
          "type": "bytes"
        }
      ],
      "name": "onERC1155BatchReceived",
      "outputs": [
        {
          "internalType": "bytes4",
          "name": "",
          "type": "bytes4"
        }
      ],
      "stateMutability": "nonpayable",
      "type": "function"
    },
    {
      "inputs": [
        {
          "internalType": "address",
          "name": "",
          "type": "address"
        },
        {
          "internalType": "address",
          "name": "",
          "type": "address"
        },
        {
          "internalType": "uint256",
          "name": "",
          "type": "uint256"
        },
        {
          "internalType": "uint256",
          "name": "",
          "type": "uint256"
        },
        {
          "internalType": "bytes",
          "name": "",
          "type": "bytes"
        }
      ],
      "name": "onERC1155Received",
      "outputs": [
        {
          "internalType": "bytes4",
          "name": "",
          "type": "bytes4"
        }
      ],
      "stateMutability": "nonpayable",
      "type": "function"
    },
    {
      "inputs": [
        {
          "internalType": "address",
          "name": "",
          "type": "address"
        },
        {
          "internalType": "address",
          "name": "",
          "type": "address"
        },
        {
          "internalType": "uint256",
          "name": "",
          "type": "uint256"
        },
        {
          "internalType": "bytes",
          "name": "",
          "type": "bytes"
        }
      ],
      "name": "onERC721Received",
      "outputs": [
        {
          "internalType": "bytes4",
          "name": "",
          "type": "bytes4"
        }
      ],
      "stateMutability": "nonpayable",
      "type": "function"
    },
    {
      "inputs": [
        {
          "internalType": "uint256",
          "name": "proposalId",
          "type": "uint256"
        }
      ],
      "name": "proposalDeadline",
      "outputs": [
        {
          "internalType": "uint256",
          "name": "",
          "type": "uint256"
        }
      ],
      "stateMutability": "view",
      "type": "function"
    },
    {
      "inputs": [
        {
          "internalType": "uint256",
          "name": "proposalId",
          "type": "uint256"
        }
      ],
      "name": "proposalEta",
      "outputs": [
        {
          "internalType": "uint256",
          "name": "",
          "type": "uint256"
        }
      ],
      "stateMutability": "view",
      "type": "function"
    },
    {
      "inputs": [
        {
          "internalType": "uint256",
          "name": "",
          "type": "uint256"
        }
      ],
      "name": "proposalNeedsQueuing",
      "outputs": [
        {
          "internalType": "bool",
          "name": "",
          "type": "bool"
        }
      ],
      "stateMutability": "view",
      "type": "function"
    },
    {
      "inputs": [
        {
          "internalType": "uint256",
          "name": "proposalId",
          "type": "uint256"
        }
      ],
      "name": "proposalProposer",
      "outputs": [
        {
          "internalType": "address",
          "name": "",
          "type": "address"
        }
      ],
      "stateMutability": "view",
      "type": "function"
    },
    {
      "inputs": [
        {
          "internalType": "uint256",
          "name": "proposalId",
          "type": "uint256"
        }
      ],
      "name": "proposalSnapshot",
      "outputs": [
        {
          "internalType": "uint256",
          "name": "",
          "type": "uint256"
        }
      ],
      "stateMutability": "view",
      "type": "function"
    },
    {
      "inputs": [],
      "name": "proposalThreshold",
      "outputs": [
        {
          "internalType": "uint256",
          "name": "",
          "type": "uint256"
        }
      ],
      "stateMutability": "view",
      "type": "function"
    },
    {
      "inputs": [
        {
          "internalType": "uint256",
          "name": "proposalId",
          "type": "uint256"
        }
      ],
      "name": "proposalVotes",
      "outputs": [
        {
          "internalType": "uint256",
          "name": "againstVotes",
          "type": "uint256"
        },
        {
          "internalType": "uint256",
          "name": "forVotes",
          "type": "uint256"
        },
        {
          "internalType": "uint256",
          "name": "abstainVotes",
          "type": "uint256"
        }
      ],
      "stateMutability": "view",
      "type": "function"
    },
    {
      "inputs": [
        {
          "internalType": "address[]",
          "name": "targets",
          "type": "address[]"
        },
        {
          "internalType": "uint256[]",
          "name": "values",
          "type": "uint256[]"
        },
        {
          "internalType": "bytes[]",
          "name": "calldatas",
          "type": "bytes[]"
        },
        {
          "internalType": "string",
          "name": "description",
          "type": "string"
        }
      ],
      "name": "propose",
      "outputs": [
        {
          "internalType": "uint256",
          "name": "",
          "type": "uint256"
        }
      ],
      "stateMutability": "nonpayable",
      "type": "function"
    },
    {
      "inputs": [
        {
          "internalType": "address[]",
          "name": "targets",
          "type": "address[]"
        },
        {
          "internalType": "uint256[]",
          "name": "values",
          "type": "uint256[]"
        },
        {
          "internalType": "bytes[]",
          "name": "calldatas",
          "type": "bytes[]"
        },
        {
          "internalType": "bytes32",
          "name": "descriptionHash",
          "type": "bytes32"
        }
      ],
      "name": "queue",
      "outputs": [
        {
          "internalType": "uint256",
          "name": "",
          "type": "uint256"
        }
      ],
      "stateMutability": "nonpayable",
      "type": "function"
    },
    {
      "inputs": [
        {
          "internalType": "uint256",
          "name": "timepoint",
          "type": "uint256"
        }
      ],
      "name": "quorum",
      "outputs": [
        {
          "internalType": "uint256",
          "name": "",
          "type": "uint256"
        }
      ],
      "stateMutability": "view",
      "type": "function"
    },
    {
      "inputs": [],
      "name": "quorumDenominator",
      "outputs": [
        {
          "internalType": "uint256",
          "name": "",
          "type": "uint256"
        }
      ],
      "stateMutability": "view",
      "type": "function"
    },
    {
      "inputs": [
        {
          "internalType": "uint256",
          "name": "timepoint",
          "type": "uint256"
        }
      ],
      "name": "quorumNumerator",
      "outputs": [
        {
          "internalType": "uint256",
          "name": "",
          "type": "uint256"
        }
      ],
      "stateMutability": "view",
      "type": "function"
    },
    {
      "inputs": [],
      "name": "quorumNumerator",
      "outputs": [
        {
          "internalType": "uint256",
          "name": "",
          "type": "uint256"
        }
      ],
      "stateMutability": "view",
      "type": "function"
    },
    {
      "inputs": [
        {
          "internalType": "address",
          "name": "target",
          "type": "address"
        },
        {
          "internalType": "uint256",
          "name": "value",
          "type": "uint256"
        },
        {
          "internalType": "bytes",
          "name": "data",
          "type": "bytes"
        }
      ],
      "name": "relay",
      "outputs": [],
      "stateMutability": "payable",
      "type": "function"
    },
    {
      "inputs": [
        {
          "internalType": "uint256",
          "name": "newProposalThreshold",
          "type": "uint256"
        }
      ],
      "name": "setProposalThreshold",
      "outputs": [],
      "stateMutability": "nonpayable",
      "type": "function"
    },
    {
      "inputs": [
        {
          "internalType": "uint48",
          "name": "newVotingDelay",
          "type": "uint48"
        }
      ],
      "name": "setVotingDelay",
      "outputs": [],
      "stateMutability": "nonpayable",
      "type": "function"
    },
    {
      "inputs": [
        {
          "internalType": "uint32",
          "name": "newVotingPeriod",
          "type": "uint32"
        }
      ],
      "name": "setVotingPeriod",
      "outputs": [],
      "stateMutability": "nonpayable",
      "type": "function"
    },
    {
      "inputs": [
        {
          "internalType": "uint256",
          "name": "proposalId",
          "type": "uint256"
        }
      ],
      "name": "state",
      "outputs": [
        {
          "internalType": "enum IGovernor.ProposalState",
          "name": "",
          "type": "uint8"
        }
      ],
      "stateMutability": "view",
      "type": "function"
    },
    {
      "inputs": [
        {
          "internalType": "bytes4",
          "name": "interfaceId",
          "type": "bytes4"
        }
      ],
      "name": "supportsInterface",
      "outputs": [
        {
          "internalType": "bool",
          "name": "",
          "type": "bool"
        }
      ],
      "stateMutability": "view",
      "type": "function"
    },
    {
      "inputs": [],
      "name": "token",
      "outputs": [
        {
          "internalType": "contract IERC5805",
          "name": "",
          "type": "address"
        }
      ],
      "stateMutability": "view",
      "type": "function"
    },
    {
      "inputs": [
        {
          "internalType": "uint256",
          "name": "newQuorumNumerator",
          "type": "uint256"
        }
      ],
      "name": "updateQuorumNumerator",
      "outputs": [],
      "stateMutability": "nonpayable",
      "type": "function"
    },
    {
      "inputs": [],
      "name": "version",
      "outputs": [
        {
          "internalType": "string",
          "name": "",
          "type": "string"
        }
      ],
      "stateMutability": "view",
      "type": "function"
    },
    {
      "inputs": [],
      "name": "votingDelay",
      "outputs": [
        {
          "internalType": "uint256",
          "name": "",
          "type": "uint256"
        }
      ],
      "stateMutability": "view",
      "type": "function"
    },
    {
      "inputs": [],
      "name": "votingPeriod",
      "outputs": [
        {
          "internalType": "uint256",
          "name": "",
          "type": "uint256"
        }
      ],
      "stateMutability": "view",
      "type": "function"
    },
    {
      "stateMutability": "payable",
      "type": "receive"
    }
  ],
  "bytecode": "0x61018060405260405162005da338038062005da383398101604081905262000027916200071b565b80828686868a806200004d6040805180820190915260018152603160f81b602082015290565b62000059825f6200015a565b610120526200006a8160016200015a565b61014052815160208084019190912060e052815190820120610100524660a052620000f760e05161010051604080517f8b73c3c69bb8fe3d512ecc4cf759cc79239f7b179b0ffacaa9a75d522b39400f60208201529081019290925260608201524660808201523060a08201525f9060c00160405160208183030381529060405280519060200120905090565b60805250503060c05260036200010e8282620008a2565b506200011c90508362000192565b6200012782620001f8565b62000132816200029d565b5050506001600160a01b0316610160526200014d81620002de565b5050505050505062000a02565b5f602083511015620001795762000171836200037d565b90506200018c565b81620001868482620008a2565b5060ff90505b92915050565b6008546040805165ffffffffffff928316815291831660208301527fc565b045403dc03c2eea82b81a0465edad9e2e7fc4d97e11421c209da93d7a93910160405180910390a16008805465ffffffffffff191665ffffffffffff92909216919091179055565b8063ffffffff165f03620002265760405163f1cfbf0560e01b81525f60048201526024015b60405180910390fd5b6008546040805163ffffffff66010000000000009093048316815291831660208301527f7e3f7f0708a84de9203036abaa450dccc85ad5ff52f78c170f3edb55cf5e8828910160405180910390a16008805463ffffffff90921666010000000000000263ffffffff60301b19909216919091179055565b60075460408051918252602082018390527fccb45da8d5717e6c4544694297c4ba5cf151d455c9bb0ed4fc7a38411bc05461910160405180910390a1600755565b6064808211156200030d5760405163243e544560e01b815260048101839052602481018290526044016200021d565b5f62000318620003bf565b90506200033d62000328620003da565b62000333856200045b565b6009919062000494565b505060408051828152602081018590527f0553476bf02ef2726e8ce5ced78d63e26e602e4a2257b1f559418e24b4633997910160405180910390a1505050565b5f80829050601f81511115620003aa578260405163305a27a960e01b81526004016200021d91906200096e565b8051620003b782620009a2565b179392505050565b5f620003cc6009620004b0565b6001600160d01b0316905090565b5f620003e66101605190565b6001600160a01b03166391ddadf46040518163ffffffff1660e01b8152600401602060405180830381865afa92505050801562000442575060408051601f3d908101601f191682019092526200043f91810190620009c6565b60015b620004565762000451620004fd565b905090565b919050565b5f6001600160d01b0382111562000490576040516306dfcc6560e41b815260d06004820152602481018390526044016200021d565b5090565b5f80620004a385858562000509565b915091505b935093915050565b80545f908015620004f457620004da83620004cd600184620009e2565b5f91825260209091200190565b54660100000000000090046001600160d01b0316620004f6565b5f5b9392505050565b5f62000451436200066e565b82545f908190801562000610575f6200052987620004cd600185620009e2565b805490915065ffffffffffff80821691660100000000000090046001600160d01b03169088168211156200057057604051632520601d60e01b815260040160405180910390fd5b8765ffffffffffff168265ffffffffffff1603620005ae57825465ffffffffffff1666010000000000006001600160d01b0389160217835562000601565b6040805180820190915265ffffffffffff808a1682526001600160d01b03808a1660208085019182528d54600181018f555f8f815291909120945191519092166601000000000000029216919091179101555b9450859350620004a892505050565b50506040805180820190915265ffffffffffff80851682526001600160d01b0380851660208085019182528854600181018a555f8a8152918220955192519093166601000000000000029190931617920191909155905081620004a8565b5f65ffffffffffff82111562000490576040516306dfcc6560e41b815260306004820152602481018390526044016200021d565b634e487b7160e01b5f52604160045260245ffd5b5f5b83811015620006d2578181015183820152602001620006b8565b50505f910152565b805165ffffffffffff8116811462000456575f80fd5b805163ffffffff8116811462000456575f80fd5b80516001600160a01b038116811462000456575f80fd5b5f805f805f8060c0878903121562000731575f80fd5b86516001600160401b038082111562000748575f80fd5b818901915089601f8301126200075c575f80fd5b815181811115620007715762000771620006a2565b604051601f8201601f19908116603f011681019083821181831017156200079c576200079c620006a2565b816040528281528c6020848701011115620007b5575f80fd5b620007c8836020830160208801620006b6565b809a505050505050620007de60208801620006da565b9450620007ee60408801620006f0565b935060608701519250620008056080880162000704565b915060a087015190509295509295509295565b600181811c908216806200082d57607f821691505b6020821081036200084c57634e487b7160e01b5f52602260045260245ffd5b50919050565b601f8211156200089d57805f5260205f20601f840160051c81016020851015620008795750805b601f840160051c820191505b818110156200089a575f815560010162000885565b50505b505050565b81516001600160401b03811115620008be57620008be620006a2565b620008d681620008cf845462000818565b8462000852565b602080601f8311600181146200090c575f8415620008f45750858301515b5f19600386901b1c1916600185901b17855562000966565b5f85815260208120601f198616915b828110156200093c578886015182559484019460019091019084016200091b565b50858210156200095a57878501515f19600388901b60f8161c191681555b505060018460011b0185555b505050505050565b602081525f82518060208401526200098e816040850160208701620006b6565b601f01601f19169190910160400192915050565b805160208083015191908110156200084c575f1960209190910360031b1b16919050565b5f60208284031215620009d7575f80fd5b620004f682620006da565b818103818111156200018c57634e487b7160e01b5f52601160045260245ffd5b60805160a05160c05160e0516101005161012051610140516101605161531b62000a885f395f8181610f8f015281816116b601528181611e4b0152818161235001528181612954015281816129e901526132be01525f6125c501525f61253a01525f6130d301525f6130ab01525f61300601525f61303001525f61305a015261531b5ff3fe608060405260043610610492575f3560e01c80636b4ac50211610257578063b32f15a91161013f578063deaaa7cc116100be578063ece40cc111610083578063ece40cc114610ef9578063f23a6e6114610f18578063f7a2e6e114610f43578063f8ce560a14610f62578063fc0c546a14610f81578063fc2e6e3c14610fb3575f80fd5b8063deaaa7cc14610e4a578063e488ade114610e7d578063e540d01d14610e9c578063e7fadc1614610ebb578063eb9019d414610eda575f80fd5b8063c28bc2fa11610104578063c28bc2fa14610dc6578063c59057e414610dd9578063cbc1c5f314610df8578063daf80f5f14610e17578063dd4e2ba514610e36575f80fd5b8063b32f15a914610d16578063b58131b014610d49578063bc197c8114610d5d578063c01f9e3714610d88578063c242bfc714610da7575f80fd5b806397c3d334116101d6578063a7713a701161019b578063a7713a7014610c50578063a8f8a66814610c64578063a9a9529414610c83578063ab58fb8e14610ca2578063af7cb46914610cd8578063b008166b14610cf7575f80fd5b806397c3d33414610bc35780639a802a6d14610bd65780639e3db5e914610bf5578063a0710f0514610c14578063a15697c414610c31575f80fd5b80637ecebe001161021c5780637ecebe0014610ad15780638390310b14610b0557806384b0196e14610b525780638ff262e314610b7957806391ddadf414610b98575f80fd5b80636b4ac50214610a365780637235294514610a555780637905188714610a745780637b3c71d314610a935780637d5e81e214610ab2575f80fd5b80633932abb11161037a57806354dc7b41116102f95780635c93b6ec116102be5780635c93b6ec146109945780635f398a14146109b35780635f8d5e74146109d257806360c4247f146109e657806367354a8414610a055780636b2f5df014610a17575f80fd5b806354dc7b41146108fa57806354fd4d501461091957806356781388146109425780635b8d0e0d146109615780635c501ba814610980575f80fd5b80634724aa991161033f5780634724aa99146108435780634abf4684146108555780634bf5d7e914610874578063506a6f0c14610888578063544ffc9c146108a7575f80fd5b80633932abb1146107735780633e4f49e61461078f57806343859632146107bb578063447045cc14610805578063452115d614610824575f80fd5b8063174ccd82116104115780632e8fbee5116103d65780632e8fbee5146106aa5780632f2b6caa146106c95780632fe3e261146106e857806332cadf3c1461071b57806332f4dd991461072f578063342db7391461074e575f80fd5b8063174ccd8214610633578063178c51a9146106475780632656227d146106665780632904df29146106795780632d63f6931461068b575f80fd5b80630ede0bea116104575780630ede0bea146105525780631164d13b14610571578063143489d014610585578063150b7a02146105d1578063160cbed714610614575f80fd5b806301ffc9a71461049f57806302a251a3146104d357806304626344146104fe57806306f3f9e61461051257806306fdde0314610531575f80fd5b3661049b57005b005b5f80fd5b3480156104aa575f80fd5b506104be6104b9366004613e17565b610fd2565b60405190151581526020015b60405180910390f35b3480156104de575f80fd5b50600854600160301b900463ffffffff165b6040519081526020016104ca565b348015610509575f80fd5b5061049961103e565b34801561051d575f80fd5b5061049961052c366004613e3e565b611048565b34801561053c575f80fd5b50610545611059565b6040516104ca9190613ea2565b34801561055d575f80fd5b5061049961056c366004613eb4565b6110e9565b34801561057c575f80fd5b506105456110f2565b348015610590575f80fd5b506105b961059f366004613e3e565b5f908152600460205260409020546001600160a01b031690565b6040516001600160a01b0390911681526020016104ca565b3480156105dc575f80fd5b506105fb6105eb366004613fae565b630a85bd0160e11b949350505050565b6040516001600160e01b031990911681526020016104ca565b34801561061f575f80fd5b506104f061062e366004614190565b611101565b34801561063e575f80fd5b5061054561113f565b348015610652575f80fd5b506104f061066136600461426d565b611149565b6104f0610674366004614190565b61119b565b348015610684575f80fd5b50336105b9565b348015610696575f80fd5b506104f06106a5366004613e3e565b6112c2565b3480156106b5575f80fd5b506104f06106c43660046142d8565b6112e2565b3480156106d4575f80fd5b506104996106e3366004614333565b61132c565b3480156106f3575f80fd5b506104f07f3e83946653575f9a39005e1545185629e92736b7528ab20ca3816f315424a81181565b348015610726575f80fd5b506105456113af565b34801561073a575f80fd5b506104f06107493660046143d5565b6113ec565b348015610759575f80fd5b506104f06e1a185c991a185d0b595e1c1bdcd959608a1b81565b34801561077e575f80fd5b5060085465ffffffffffff166104f0565b34801561079a575f80fd5b506107ae6107a9366004613e3e565b6114a7565b6040516104ca919061449e565b3480156107c6575f80fd5b506104be6107d53660046144ac565b5f828152600a602090815260408083206001600160a01b038516845260030190915290205460ff16151592915050565b348015610810575f80fd5b506104f061081f3660046144da565b6115dd565b34801561082f575f80fd5b506104f061083e366004614190565b61162b565b34801561084e575f80fd5b50306105b9565b348015610860575f80fd5b506104be61086f366004613e3e565b611697565b34801561087f575f80fd5b506105456116b2565b348015610893575f80fd5b506104f06108a2366004613e3e565b611772565b3480156108b2575f80fd5b506108df6108c1366004613e3e565b5f908152600a60205260409020805460018201546002909201549092565b604080519384526020840192909252908201526060016104ca565b348015610905575f80fd5b506104be610914366004614515565b61177c565b348015610924575f80fd5b506040805180820190915260018152603160f81b6020820152610545565b34801561094d575f80fd5b506104f061095c366004614565565b6117c4565b34801561096c575f80fd5b506104f061097b36600461458f565b6117e3565b34801561098b575f80fd5b50610545611922565b34801561099f575f80fd5b506104f06109ae366004614641565b611938565b3480156109be575f80fd5b506104f06109cd36600461470d565b611a30565b3480156109dd575f80fd5b506104f0611a83565b3480156109f1575f80fd5b506104f0610a00366004613e3e565b611a8c565b348015610a10575f80fd5b505f6104f0565b348015610a22575f80fd5b506104f0610a3136600461478a565b611b18565b348015610a41575f80fd5b50610499610a50366004614824565b611bc4565b348015610a60575f80fd5b506104f0610a6f36600461426d565b611bd2565b348015610a7f575f80fd5b50610499610a8e366004614861565b611c47565b348015610a9e575f80fd5b506104f0610aad36600461487c565b611c58565b348015610abd575f80fd5b506104f0610acc3660046148d1565b611c9e565b348015610adc575f80fd5b506104f0610aeb3660046142d8565b6001600160a01b03165f9081526002602052604090205490565b348015610b10575f80fd5b506104be610b1f3660046144ac565b5f918252600a602090815260408084206001600160a01b0393909316845260039092019052902054610100900460ff1690565b348015610b5d575f80fd5b50610b66611d54565b6040516104ca97969594939291906149b7565b348015610b84575f80fd5b506104f0610b93366004614a26565b611d96565b348015610ba3575f80fd5b50610bac611e48565b60405165ffffffffffff90911681526020016104ca565b348015610bce575f80fd5b5060646104f0565b348015610be1575f80fd5b506104f0610bf0366004614a73565b611ecf565b348015610c00575f80fd5b50610499610c0f366004613e3e565b611050565b348015610c1f575f80fd5b50610499610c2e366004613e3e565b50565b348015610c3c575f80fd5b506104f0610c4b366004614ac7565b611ee2565b348015610c5b575f80fd5b506104f0611eec565b348015610c6f575f80fd5b506104f0610c7e366004614190565b611f05565b348015610c8e575f80fd5b506104be610c9d366004613e3e565b505f90565b348015610cad575f80fd5b506104f0610cbc366004613e3e565b5f9081526004602052604090206001015465ffffffffffff1690565b348015610ce3575f80fd5b506104f0610cf236600461487c565b611f1b565b348015610d02575f80fd5b506104f0610d11366004614ae5565b611f2a565b348015610d21575f80fd5b506104f07fb84118c500b4744eb96fcd1db6b9a3c18b00813432ac0920abe3369a00685bae81565b348015610d54575f80fd5b506104f0612028565b348015610d68575f80fd5b506105fb610d77366004614b1b565b63bc197c8160e01b95945050505050565b348015610d93575f80fd5b506104f0610da2366004613e3e565b612032565b348015610db2575f80fd5b506104f0610dc1366004614ba7565b612074565b610499610dd4366004614c1b565b6120fc565b348015610de4575f80fd5b506104f0610df3366004614190565b612178565b348015610e03575f80fd5b506104f0610e12366004614c1b565b6121b1565b348015610e22575f80fd5b506104be610e31366004613e3e565b6121f2565b348015610e41575f80fd5b506105456121fc565b348015610e55575f80fd5b506104f07ff2aad550cf55f045cb27e9c559f9889fdfb6e6cdaa032301d6ea397784ae51d781565b348015610e88575f80fd5b506107ae610e97366004614c5a565b61221c565b348015610ea7575f80fd5b50610499610eb6366004613eb4565b612227565b348015610ec6575f80fd5b50610499610ed5366004614861565b611c4f565b348015610ee5575f80fd5b506104f0610ef4366004614824565b61222f565b348015610f04575f80fd5b50610499610f13366004613e3e565b61224e565b348015610f23575f80fd5b506105fb610f32366004614c7a565b63f23a6e6160e01b95945050505050565b348015610f4e575f80fd5b50610bac610f5d366004614333565b61225f565b348015610f6d575f80fd5b506104f0610f7c366004613e3e565b612326565b348015610f8c575f80fd5b507f00000000000000000000000000000000000000000000000000000000000000006105b9565b348015610fbe575f80fd5b50610499610fcd366004613e3e565b612256565b5f6001600160e01b031982166366defe7760e11b148061100257506001600160e01b031982166332a2ad4360e11b145b8061101d57506001600160e01b03198216630271189760e51b145b8061103857506301ffc9a760e01b6001600160e01b03198316145b92915050565b6110466123cd565b565b6110506123cd565b610c2e81612402565b60606003805461106890614cdd565b80601f016020809104026020016040519081016040528092919081815260200182805461109490614cdd565b80156110df5780601f106110b6576101008083540402835291602001916110df565b820191905f5260205f20905b8154815290600101906020018083116110c257829003601f168201915b5050505050905090565b610c2e81612497565b60606110fc612533565b905090565b5f8061110f86868686611f05565b90506111248161111f600461255f565b612581565b505f604051634844252360e11b815260040160405180910390fd5b60606110fc6125be565b5f61115786868686866125eb565b90507ff3784c04de8effde8fc82d4fb5d53f0530cc1cb5c9bd6d6b8fa142a2a91b4e1c8160405161118a91815260200190565b60405180910390a195945050505050565b5f806111a986868686611f05565b90506111c9816111b9600561255f565b6111c3600461255f565b17612581565b505f818152600460205260409020805460ff60f01b1916600160f01b179055306111f03090565b6001600160a01b031614611279575f5b865181101561127757306001600160a01b031687828151811061122557611225614d15565b60200260200101516001600160a01b03160361126f5761126f85828151811061125057611250614d15565b602002602001015180519060200120600561265c90919063ffffffff16565b600101611200565b505b61128681878787876126bd565b6040518181527f712ae1383f79ac853f8d882153778e0260ef8f03b504e2866e0593e04d2b291f9060200160405180910390a195945050505050565b5f90815260046020526040902054600160a01b900465ffffffffffff1690565b5f6112ec82612792565b90507f8d5c13b1cd528a3e1895fdc833368c4e3af5391250c736a28e94c4fa59b3cee48160405161131f91815260200190565b60405180910390a1919050565b6113a5888888808060200260200160405190810160405280939291908181526020018383602002808284375f9201919091525050604080516020808c0282810182019093528b82529093508b92508a9182918501908490808284375f9201919091525061139f9250889150899050614d29565b856126bd565b5050505050505050565b60605f368080601f0160208091040260200160405190810160405280939291908181526020018383808284375f9201919091525092949350505050565b5f61146188888888888080601f0160208091040260200160405190810160405280939291908181526020018383808284375f9201919091525050604080516020601f8c018190048102820181019092528a815292508a91508990819084018382808284375f920191909152506127b492505050565b90507fbbc294ee3436818a3742886cdeae66253f76b5be8870371c691fc6998bd341d58160405161149491815260200190565b60405180910390a1979650505050505050565b5f818152600460205260408120805460ff600160f01b8204811691600160f81b90041681156114db57506007949350505050565b80156114ec57506002949350505050565b5f6114f6866112c2565b9050805f0361152057604051636ad0607560e01b8152600481018790526024015b60405180910390fd5b5f611529611e48565b65ffffffffffff16905080821061154657505f9695505050505050565b5f61155088612032565b905081811061156757506001979650505050505050565b61157088612892565b158061158f57505f888152600a60205260409020805460019091015411155b156115a257506003979650505050505050565b5f8881526004602052604090206001015465ffffffffffff165f036115cf57506004979650505050505050565b506005979650505050505050565b5f6115e98484846128c8565b90507f76b45eea423d45571552a1667fe8bb0ada5389a76cfa13b8cab0b6b046ac2c0e8160405161161c91815260200190565b60405180910390a19392505050565b5f8061163986868686611f05565b90506116488161111f5f61255f565b505f818152600460205260409020546001600160a01b031633146116815760405163233d98e360e01b8152336004820152602401611517565b61168d86868686612be7565b9695505050505050565b5f818152600a60205260408120805460019091015411611038565b60607f00000000000000000000000000000000000000000000000000000000000000006001600160a01b0316634bf5d7e96040518163ffffffff1660e01b81526004015f60405180830381865afa92505050801561173157506040513d5f823e601f3d908101601f1916820160405261172e9190810190614d35565b60015b61176d575060408051808201909152601d81527f6d6f64653d626c6f636b6e756d6265722666726f6d3d64656661756c74000000602082015290565b919050565b5f61103882612c96565b5f6117bc8484848080601f0160208091040260200160405190810160405280939291908181526020018383808284375f92019190915250612cc292505050565b949350505050565b5f803390506117bc84828560405180602001604052805f815250612d46565b5f806118a7876118a17f3e83946653575f9a39005e1545185629e92736b7528ab20ca3816f315424a8118c8c8c6118198e612792565b8d8d604051611829929190614d9d565b60405180910390208c805190602001206040516020016118869796959493929190968752602087019590955260ff9390931660408601526001600160a01b03919091166060850152608084015260a083015260c082015260e00190565b60405160208183030381529060405280519060200120612c96565b85612d67565b9050806118d2576040516394ab6c0760e01b81526001600160a01b0388166004820152602401611517565b61191589888a89898080601f0160208091040260200160405190810160405280939291908181526020018383808284375f920191909152508b92506127b4915050565b9998505050505050505050565b60606110fc60408051602081019091525f815290565b5f6119e88a8a808060200260200160405190810160405280939291908181526020018383602002808284375f9201919091525050604080516020808e0282810182019093528d82529093508d92508c9182918501908490808284375f920191909152506119ab92508a91508b9050614d29565b87878080601f0160208091040260200160405190810160405280939291908181526020018383808284375f92019190915250899250612dd7915050565b90507f42716af29aa8f33be8115e9e3188a11f6a7e7d5be696f229f0762e50b2a8bda781604051611a1b91815260200190565b60405180910390a19998505050505050505050565b5f80339050611a7887828888888080601f0160208091040260200160405190810160405280939291908181526020018383808284375f920191909152508a92506127b4915050565b979650505050505050565b5f6110fc612ffa565b600980545f918290611a9f600184614dc0565b81548110611aaf57611aaf614d15565b5f918252602090912001805490915065ffffffffffff811690600160301b90046001600160d01b0316858211611af1576001600160d01b031695945050505050565b611b05611afd87613123565b600990613159565b6001600160d01b03169695505050505050565b5f611b918888808060200260200160405190810160405280939291908181526020018383602002808284375f9201919091525050604080516020808c0282810182019093528b82529093508b92508a9182918501908490808284375f92019190915250611b8b9250889150899050614d29565b85612be7565b90507f1e0d283ef767dcb5f9efcfe0fbcac2701275d0c54fc3493502558dc018cc3ba28160405161149491815260200190565b611bce8282613208565b5050565b5f611c1486868686868080601f0160208091040260200160405190810160405280939291908181526020018383808284375f92019190915250612d4692505050565b90507fdbf058c917126a478393ed3aa13dcdc461cc19db88c176507846e6f69ca627f98160405161118a91815260200190565b611c4f6123cd565b610c2e8161324b565b5f8033905061168d86828787878080601f0160208091040260200160405190810160405280939291908181526020018383808284375f92019190915250612d4692505050565b5f33611caa8184612cc2565b611cd25760405163d9b3955760e01b81526001600160a01b0382166004820152602401611517565b5f611cdb612028565b90508015611d47575f611d09836001611cf2611e48565b611cfc9190614dd3565b65ffffffffffff1661222f565b905081811015611d4557604051636121770b60e11b81526001600160a01b03841660048201526024810182905260448101839052606401611517565b505b611a788787878786612dd7565b5f6060805f805f6060611d65612533565b611d6d6125be565b604080515f80825260208201909252600f60f81b9b939a50919850469750309650945092509050565b5f80611e03846118a17ff2aad550cf55f045cb27e9c559f9889fdfb6e6cdaa032301d6ea397784ae51d7898989611dcc8b612792565b60408051602081019690965285019390935260ff90911660608401526001600160a01b0316608083015260a082015260c001611886565b905080611e2e576040516394ab6c0760e01b81526001600160a01b0385166004820152602401611517565b61168d86858760405180602001604052805f815250612d46565b5f7f00000000000000000000000000000000000000000000000000000000000000006001600160a01b03166391ddadf46040518163ffffffff1660e01b8152600401602060405180830381865afa925050508015611ec3575060408051601f3d908101601f19168201909252611ec091810190614df9565b60015b61176d576110fc6132b1565b5f6117bc8484846132bb565b9392505050565b5f6110388261255f565b5f611ef7600961334e565b6001600160d01b0316905090565b5f611f1285858585612178565b95945050505050565b5f3361168d86828787876125eb565b5f80611ff087611fb57fb84118c500b4744eb96fcd1db6b9a3c18b00813432ac0920abe3369a00685bae8c8c8c611f608e612792565b8d8d604051611f70929190614d9d565b60408051918290038220602083019790975281019490945260ff90921660608401526001600160a01b0316608083015260a082015260c081019190915260e001611886565b86868080601f0160208091040260200160405190810160405280939291908181526020018383808284375f92019190915250612d6792505050565b90508061201b576040516394ab6c0760e01b81526001600160a01b0388166004820152602401611517565b61191589888a89896125eb565b5f6110fc60075490565b5f8181526004602052604081205461206690600160d01b810463ffffffff1690600160a01b900465ffffffffffff16614e14565b65ffffffffffff1692915050565b5f6120b78787878787878080601f0160208091040260200160405190810160405280939291908181526020018383808284375f9201919091525061338592505050565b90507fa17eff957f965c6ee26364f81c85c7f8c62294b8ae4ea17224d2ed00a9c882ae816040516120ea91815260200190565b60405180910390a19695505050505050565b6121046123cd565b5f80856001600160a01b0316858585604051612121929190614d9d565b5f6040518083038185875af1925050503d805f811461215b576040519150601f19603f3d011682016040523d82523d5f602084013e612160565b606091505b509150915061216f828261349f565b50505050505050565b5f848484846040516020016121909493929190614eb6565b60408051601f19818403018152919052805160209091012095945050505050565b5f611f12858585858080601f0160208091040260200160405190810160405280939291908181526020018383808284375f920191909152506132bb92505050565b5f61103882612892565b60606040518060600160405280603a81526020016152ac603a9139905090565b5f611edb8383612581565b6110e96123cd565b5f611edb838361224960408051602081019091525f815290565b6132bb565b6122566123cd565b610c2e816134bb565b5f6122dc898989808060200260200160405190810160405280939291908181526020018383602002808284375f9201919091525050604080516020808d0282810182019093528c82529093508c92508b9182918501908490808284375f920191909152506122d392508991508a9050614d29565b505f9392505050565b60405165ffffffffffff821681529091507fc7d48239722ab43f0d322d3bc5b9c80a10ed2b31ea774b6ac0852b9fdbd41fd09060200160405180910390a198975050505050505050565b5f606461233283611a8c565b604051632394e7a360e21b8152600481018590526001600160a01b037f00000000000000000000000000000000000000000000000000000000000000001690638e539e8c90602401602060405180830381865afa158015612395573d5f803e3d5ffd5b505050506040513d601f19601f820116820180604052508101906123b99190614f00565b6123c39190614f17565b6110389190614f42565b303314611046576040516347096e4760e01b8152336004820152602401611517565b806123fa60056134fc565b036123ef5750565b60648082111561242f5760405163243e544560e01b81526004810183905260248101829052604401611517565b5f612438611eec565b9050612457612445611e48565b61244e85613569565b6009919061359c565b505060408051828152602081018590527f0553476bf02ef2726e8ce5ced78d63e26e602e4a2257b1f559418e24b4633997910160405180910390a1505050565b8063ffffffff165f036124bf5760405163f1cfbf0560e01b81525f6004820152602401611517565b6008546040805163ffffffff600160301b9093048316815291831660208301527f7e3f7f0708a84de9203036abaa450dccc85ad5ff52f78c170f3edb55cf5e8828910160405180910390a16008805463ffffffff909216600160301b0269ffffffff00000000000019909216919091179055565b60606110fc7f00000000000000000000000000000000000000000000000000000000000000005f6135b6565b5f8160078111156125725761257261446a565b600160ff919091161b92915050565b5f8061258c846114a7565b90505f836125998361255f565b1603611edb578381846040516331b75e4d60e01b815260040161151793929190614f61565b60606110fc7f000000000000000000000000000000000000000000000000000000000000000060016135b6565b5f6125fa8661111f600161255f565b505f6126078787876128c8565b9050856001600160a01b03167f49549bd03796fa3aec6f7adab515dd07e1b4d2021298a516bd2a048c95413c71888784888860405161264a959493929190614f83565b60405180910390a29695505050505050565b81546001600160801b03600160801b82048116918116600183019091160361268857612688604161365f565b6001600160801b038082165f90815260018086016020526040909120939093558354919092018216600160801b029116179055565b5f5b845181101561278a575f808683815181106126dc576126dc614d15565b60200260200101516001600160a01b03168684815181106126ff576126ff614d15565b602002602001015186858151811061271957612719614d15565b602002602001015160405161272e9190614fc9565b5f6040518083038185875af1925050503d805f8114612768576040519150601f19603f3d011682016040523d82523d5f602084013e61276d565b606091505b509150915061277c828261349f565b5050508060010190506126bf565b505050505050565b6001600160a01b03165f90815260026020526040902080546001810190915590565b5f6127c38661111f600161255f565b505f6127d8866127d2896112c2565b856132bb565b90505f6127e88888888588613385565b905083515f0361283e57866001600160a01b03167fb8e138887d0aa13bab447e82de9d5c1777041ecd21ca36ba824ff1e6c07ddda4898884896040516128319493929190614fe4565b60405180910390a2611a78565b866001600160a01b03167fe2babfbac5889a709b63bb7f598b324e08bc5a4fb9ec647fb3cbc9ec07eb8712898884898960405161287f95949392919061500b565b60405180910390a2979650505050505050565b5f818152600a60205260408120806002015481600101546128b39190615050565b6128bf610f7c856112c2565b11159392505050565b5f838152600a60205260408120600260ff841611156128fa576040516303599be160e11b815260040160405180910390fd5b6001600160a01b0384165f908152600382016020526040902054610100900460ff1615612945576040516340dc23e360e01b81526001600160a01b0385166004820152602401611517565b5f61294f866112c2565b90505f7f000000000000000000000000000000000000000000000000000000000000000060405163d7b7d40560e01b81526001600160a01b03888116600483015260248201859052919091169063d7b7d40590604401602060405180830381865afa1580156129c0573d5f803e3d5ffd5b505050506040513d601f19601f820116820180604052508101906129e49190614f00565b90505f7f0000000000000000000000000000000000000000000000000000000000000000604051632cda518360e21b81526001600160a01b03898116600483015260248201869052919091169063b369460c90604401602060405180830381865afa158015612a55573d5f803e3d5ffd5b505050506040513d601f19601f82011682018060405250810190612a799190615063565b6001600160a01b038082165f9081526003808801602052604080832054938c168352909120805461ff00191661010017905591925060ff9081169184918791908a16908110612aca57612aca614d15565b015f828254612ad99190615050565b909155505060ff81165f03612b5257612af183613569565b6001600160a01b0383165f90815260038701602052604090208054600290612b299084906201000090046001600160d01b031661507e565b92506101000a8154816001600160d01b0302191690836001600160d01b03160217905550612bda565b5f612b5e60018361509e565b9050838660ff831660038110612b7657612b76614d15565b015f828254612b859190614dc0565b9091555050604080518b815260ff831660208201529081018590526001600160a01b038416907fa3e9dc6f75dd03afa423da7498d345528f378d27f40d23f69693cec61e1cd1279060600160405180910390a2505b5090979650505050505050565b5f80612bf586868686611f05565b9050612c4381612c05600761255f565b612c0f600661255f565b612c19600261255f565b6001612c266007826150b7565b612c319060026151b0565b612c3b9190614dc0565b181818612581565b505f818152600460205260409081902080546001600160f81b0316600160f81b179055517f789cf55be980739dad1d0699b93b58e806b51c9d96619bfa8fe0a28abaa7b30c9061118a9083815260200190565b5f611038612ca2612ffa565b8360405161190160f01b8152600281019290925260228201526042902090565b80515f906034811015612cd9576001915050611038565b60131981840101516001600160b01b03198116692370726f706f7365723d60b01b14612d0a57600192505050611038565b5f80612d1a86602a860386613670565b91509150811580611a785750866001600160a01b0316816001600160a01b031614979650505050505050565b5f611f1285858585612d6260408051602081019091525f815290565b6127b4565b5f836001600160a01b03163b5f03612dc5575f80612d858585613719565b5090925090505f816003811115612d9e57612d9e61446a565b148015612dbc5750856001600160a01b0316826001600160a01b0316145b92505050611edb565b612dd0848484613762565b9050611edb565b5f612deb8686868680519060200120611f05565b905084518651141580612e0057508351865114155b80612e0a57508551155b15612e3f57855184518651604051630447b05d60e41b8152600481019390935260248301919091526044820152606401611517565b5f81815260046020526040902054600160a01b900465ffffffffffff1615612e885780612e6b826114a7565b6040516331b75e4d60e01b81526115179291905f90600401614f61565b5f612e9a60085465ffffffffffff1690565b612ea2611e48565b65ffffffffffff16612eb49190615050565b90505f612ece60085463ffffffff600160301b9091041690565b5f84815260046020526040902080546001600160a01b0319166001600160a01b038716178155909150612f0083613123565b815465ffffffffffff91909116600160a01b0265ffffffffffff60a01b19909116178155612f2d82613838565b815463ffffffff91909116600160d01b0263ffffffff60d01b1990911617815588517f7d84a6263ae0d98d3329bd7b46bb4e8d6f98cd35a7adb45c274c8b7fd5ebd5e090859087908c908c906001600160401b03811115612f9057612f90613eeb565b604051908082528060200260200182016040528015612fc357816020015b6060815260200190600190039081612fae5790505b508c89612fd08a82615050565b8e604051612fe6999897969594939291906151be565b60405180910390a150505095945050505050565b5f306001600160a01b037f00000000000000000000000000000000000000000000000000000000000000001614801561305257507f000000000000000000000000000000000000000000000000000000000000000046145b1561307c57507f000000000000000000000000000000000000000000000000000000000000000090565b6110fc604080517f8b73c3c69bb8fe3d512ecc4cf759cc79239f7b179b0ffacaa9a75d522b39400f60208201527f0000000000000000000000000000000000000000000000000000000000000000918101919091527f000000000000000000000000000000000000000000000000000000000000000060608201524660808201523060a08201525f9060c00160405160208183030381529060405280519060200120905090565b5f65ffffffffffff821115613155576040516306dfcc6560e41b81526030600482015260248101839052604401611517565b5090565b81545f90818160058111156131b5575f61317284613868565b61317c9085614dc0565b5f8881526020902090915081015465ffffffffffff90811690871610156131a5578091506131b3565b6131b0816001615050565b92505b505b5f6131c2878785856139c0565b905080156131fc576131e6876131d9600184614dc0565b5f91825260209091200190565b54600160301b90046001600160d01b0316611a78565b505f9695505050505050565b5f61321283612792565b9050808214613246576040516301d4b62360e61b81526001600160a01b038416600482015260248101829052604401611517565b505050565b6008546040805165ffffffffffff928316815291831660208301527fc565b045403dc03c2eea82b81a0465edad9e2e7fc4d97e11421c209da93d7a93910160405180910390a16008805465ffffffffffff191665ffffffffffff92909216919091179055565b5f6110fc43613123565b5f7f0000000000000000000000000000000000000000000000000000000000000000604051630748d63560e31b81526001600160a01b038681166004830152602482018690529190911690633a46b1a890604401602060405180830381865afa15801561332a573d5f803e3d5ffd5b505050506040513d601f19601f820116820180604052508101906117bc9190614f00565b80545f90801561337d57613367836131d9600184614dc0565b54600160301b90046001600160d01b0316611edb565b5f9392505050565b5f858152600a60205260408120600260ff861611156133b7576040516303599be160e11b815260040160405180910390fd5b6001600160a01b0386165f90815260038201602052604090205460ff16156133fd576040516371c6af4960e01b81526001600160a01b0387166004820152602401611517565b6001600160a01b0386165f908152600382016020526040902054613430906201000090046001600160d01b031685614dc0565b9350838160ff87166003811061344857613448614d15565b015f8282546134579190615050565b9091555061346890508560016150b7565b6001600160a01b03969096165f90815260039190910160205260409020805460ff191660ff90961695909517909455509392505050565b6060826134b4576134af82613a1f565b611038565b5080611038565b60075460408051918252602082018390527fccb45da8d5717e6c4544694297c4ba5cf151d455c9bb0ed4fc7a38411bc05461910160405180910390a1600755565b80545f906001600160801b0380821691600160801b900416810361352457613524603161365f565b6001600160801b038181165f908152600185810160205260408220805492905585546fffffffffffffffffffffffffffffffff19169301909116919091179092555090565b5f6001600160d01b03821115613155576040516306dfcc6560e41b815260d0600482015260248101839052604401611517565b5f806135a9858585613a48565b915091505b935093915050565b606060ff83146135d0576135c983613b98565b9050611038565b8180546135dc90614cdd565b80601f016020809104026020016040519081016040528092919081815260200182805461360890614cdd565b80156136535780601f1061362a57610100808354040283529160200191613653565b820191905f5260205f20905b81548152906001019060200180831161363657829003601f168201915b50505050509050611038565b634e487b715f52806020526024601cfd5b5f80845183118061368057508284115b1561368f57505f9050806135ae565b5f61369b856001615050565b841180156136c3575061060f60f31b6136b78787016020015190565b6001600160f01b031916145b90505f6136d38215156002614f17565b6136de906028615050565b9050806136eb8787614dc0565b0361370c575f806136fd898989613bd5565b90965094506135ae9350505050565b5f809350935050506135ae565b5f805f8351604103613750576020840151604085015160608601515f1a61374288828585613c96565b95509550955050505061375b565b505081515f91506002905b9250925092565b5f805f856001600160a01b03168585604051602401613782929190615293565b60408051601f198184030181529181526020820180516001600160e01b0316630b135d3f60e11b179052516137b79190614fc9565b5f60405180830381855afa9150503d805f81146137ef576040519150601f19603f3d011682016040523d82523d5f602084013e6137f4565b606091505b509150915081801561380857506020815110155b801561168d57508051630b135d3f60e11b9061382d9083016020908101908401614f00565b149695505050505050565b5f63ffffffff821115613155576040516306dfcc6560e41b81526020600482015260248101839052604401611517565b5f60018211613875575090565b816001600160801b821061388e5760809190911c9060401b5b6801000000000000000082106138a95760409190911c9060201b5b64010000000082106138c05760209190911c9060101b5b6201000082106138d55760109190911c9060081b5b61010082106138e95760089190911c9060041b5b601082106138fc5760049190911c9060021b5b600482106139085760011b5b600302600190811c9081858161392057613920614f2e565b048201901c9050600181858161393857613938614f2e565b048201901c9050600181858161395057613950614f2e565b048201901c9050600181858161396857613968614f2e565b048201901c9050600181858161398057613980614f2e565b048201901c9050600181858161399857613998614f2e565b048201901c90506139b78185816139b1576139b1614f2e565b04821190565b90039392505050565b5f5b81831015613a17575f6139d58484613d5e565b5f8781526020902090915065ffffffffffff86169082015465ffffffffffff161115613a0357809250613a11565b613a0e816001615050565b93505b506139c2565b509392505050565b805115613a2f5780518082602001fd5b60405163d6bda27560e01b815260040160405180910390fd5b82545f9081908015613b3e575f613a64876131d9600185614dc0565b805490915065ffffffffffff80821691600160301b90046001600160d01b0316908816821115613aa757604051632520601d60e01b815260040160405180910390fd5b8765ffffffffffff168265ffffffffffff1603613ae057825465ffffffffffff16600160301b6001600160d01b03891602178355613b30565b6040805180820190915265ffffffffffff808a1682526001600160d01b03808a1660208085019182528d54600181018f555f8f81529190912094519151909216600160301b029216919091179101555b94508593506135ae92505050565b50506040805180820190915265ffffffffffff80851682526001600160d01b0380851660208085019182528854600181018a555f8a815291822095519251909316600160301b0291909316179201919091559050816135ae565b60605f613ba483613d78565b6040805160208082528183019092529192505f91906020820181803683375050509182525060208101929092525090565b5f808481613be4866001615050565b85118015613c0c575061060f60f31b613c008388016020015190565b6001600160f01b031916145b90505f613c1c8215156002614f17565b90505f80613c2a838a615050565b90505b87811015613c85575f613c4b613c468784016020015190565b613d9f565b9050600f8160ff161115613c6a575f80975097505050505050506135ae565b613c75601084614f17565b60ff909116019150600101613c2d565b506001999098509650505050505050565b5f80807f7fffffffffffffffffffffffffffffff5d576e7357a4501ddfe92f46681b20a0841115613ccf57505f91506003905082613d54565b604080515f808252602082018084528a905260ff891692820192909252606081018790526080810186905260019060a0016020604051602081039080840390855afa158015613d20573d5f803e3d5ffd5b5050604051601f1901519150506001600160a01b038116613d4b57505f925060019150829050613d54565b92505f91508190505b9450945094915050565b5f613d6c6002848418614f42565b611edb90848416615050565b5f60ff8216601f81111561103857604051632cd44ac360e21b815260040160405180910390fd5b5f60f882901c602f81118015613db85750603a8160ff16105b15613dc657602f1901611038565b60608160ff16118015613ddc575060678160ff16105b15613dea5760561901611038565b60408160ff16118015613e00575060478160ff16105b15613e0e5760361901611038565b5060ff92915050565b5f60208284031215613e27575f80fd5b81356001600160e01b031981168114611edb575f80fd5b5f60208284031215613e4e575f80fd5b5035919050565b5f5b83811015613e6f578181015183820152602001613e57565b50505f910152565b5f8151808452613e8e816020860160208601613e55565b601f01601f19169290920160200192915050565b602081525f611edb6020830184613e77565b5f60208284031215613ec4575f80fd5b813563ffffffff81168114611edb575f80fd5b6001600160a01b0381168114610c2e575f80fd5b634e487b7160e01b5f52604160045260245ffd5b604051601f8201601f191681016001600160401b0381118282101715613f2757613f27613eeb565b604052919050565b5f6001600160401b03821115613f4757613f47613eeb565b50601f01601f191660200190565b5f613f67613f6284613f2f565b613eff565b9050828152838383011115613f7a575f80fd5b828260208301375f602084830101529392505050565b5f82601f830112613f9f575f80fd5b611edb83833560208501613f55565b5f805f8060808587031215613fc1575f80fd5b8435613fcc81613ed7565b93506020850135613fdc81613ed7565b92506040850135915060608501356001600160401b03811115613ffd575f80fd5b61400987828801613f90565b91505092959194509250565b5f6001600160401b0382111561402d5761402d613eeb565b5060051b60200190565b5f82601f830112614046575f80fd5b81356020614056613f6283614015565b8083825260208201915060208460051b870101935086841115614077575f80fd5b602086015b8481101561409c57803561408f81613ed7565b835291830191830161407c565b509695505050505050565b5f82601f8301126140b6575f80fd5b813560206140c6613f6283614015565b8083825260208201915060208460051b8701019350868411156140e7575f80fd5b602086015b8481101561409c57803583529183019183016140ec565b5f614110613f6284614015565b8381529050602080820190600585901b84018681111561412e575f80fd5b845b818110156141675780356001600160401b0381111561414d575f80fd5b61415989828901613f90565b855250928201928201614130565b505050509392505050565b5f82601f830112614181575f80fd5b611edb83833560208501614103565b5f805f80608085870312156141a3575f80fd5b84356001600160401b03808211156141b9575f80fd5b6141c588838901614037565b955060208701359150808211156141da575f80fd5b6141e6888389016140a7565b945060408701359150808211156141fb575f80fd5b5061420887828801614172565b949793965093946060013593505050565b803560ff8116811461176d575f80fd5b5f8083601f840112614239575f80fd5b5081356001600160401b0381111561424f575f80fd5b602083019150836020828501011115614266575f80fd5b9250929050565b5f805f805f60808688031215614281575f80fd5b85359450602086013561429381613ed7565b93506142a160408701614219565b925060608601356001600160401b038111156142bb575f80fd5b6142c788828901614229565b969995985093965092949392505050565b5f602082840312156142e8575f80fd5b8135611edb81613ed7565b5f8083601f840112614303575f80fd5b5081356001600160401b03811115614319575f80fd5b6020830191508360208260051b8501011115614266575f80fd5b5f805f805f805f8060a0898b03121561434a575f80fd5b8835975060208901356001600160401b0380821115614367575f80fd5b6143738c838d016142f3565b909950975060408b013591508082111561438b575f80fd5b6143978c838d016142f3565b909750955060608b01359150808211156143af575f80fd5b506143bc8b828c016142f3565b999c989b50969995989497949560800135949350505050565b5f805f805f805f60a0888a0312156143eb575f80fd5b8735965060208801356143fd81613ed7565b955061440b60408901614219565b945060608801356001600160401b0380821115614426575f80fd5b6144328b838c01614229565b909650945060808a013591508082111561444a575f80fd5b506144578a828b01614229565b989b979a50959850939692959293505050565b634e487b7160e01b5f52602160045260245ffd5b6008811061449a57634e487b7160e01b5f52602160045260245ffd5b9052565b60208101611038828461447e565b5f80604083850312156144bd575f80fd5b8235915060208301356144cf81613ed7565b809150509250929050565b5f805f606084860312156144ec575f80fd5b8335925060208401356144fe81613ed7565b915061450c60408501614219565b90509250925092565b5f805f60408486031215614527575f80fd5b833561453281613ed7565b925060208401356001600160401b0381111561454c575f80fd5b61455886828701614229565b9497909650939450505050565b5f8060408385031215614576575f80fd5b8235915061458660208401614219565b90509250929050565b5f805f805f805f60c0888a0312156145a5575f80fd5b873596506145b560208901614219565b955060408801356145c581613ed7565b945060608801356001600160401b03808211156145e0575f80fd5b6145ec8b838c01614229565b909650945060808a0135915080821115614604575f80fd5b6146108b838c01613f90565b935060a08a0135915080821115614625575f80fd5b506146328a828b01613f90565b91505092959891949750929550565b5f805f805f805f805f60a08a8c031215614659575f80fd5b89356001600160401b038082111561466f575f80fd5b61467b8d838e016142f3565b909b50995060208c0135915080821115614693575f80fd5b61469f8d838e016142f3565b909950975060408c01359150808211156146b7575f80fd5b6146c38d838e016142f3565b909750955060608c01359150808211156146db575f80fd5b506146e88c828d01614229565b90945092505060808a01356146fc81613ed7565b809150509295985092959850929598565b5f805f805f60808688031215614721575f80fd5b8535945061473160208701614219565b935060408601356001600160401b038082111561474c575f80fd5b61475889838a01614229565b90955093506060880135915080821115614770575f80fd5b5061477d88828901613f90565b9150509295509295909350565b5f805f805f805f6080888a0312156147a0575f80fd5b87356001600160401b03808211156147b6575f80fd5b6147c28b838c016142f3565b909950975060208a01359150808211156147da575f80fd5b6147e68b838c016142f3565b909750955060408a01359150808211156147fe575f80fd5b5061480b8a828b016142f3565b989b979a50959894979596606090950135949350505050565b5f8060408385031215614835575f80fd5b823561484081613ed7565b946020939093013593505050565b65ffffffffffff81168114610c2e575f80fd5b5f60208284031215614871575f80fd5b8135611edb8161484e565b5f805f806060858703121561488f575f80fd5b8435935061489f60208601614219565b925060408501356001600160401b038111156148b9575f80fd5b6148c587828801614229565b95989497509550505050565b5f805f80608085870312156148e4575f80fd5b84356001600160401b03808211156148fa575f80fd5b61490688838901614037565b9550602087013591508082111561491b575f80fd5b614927888389016140a7565b9450604087013591508082111561493c575f80fd5b61494888838901614172565b9350606087013591508082111561495d575f80fd5b508501601f8101871361496e575f80fd5b61400987823560208401613f55565b5f815180845260208085019450602084015f5b838110156149ac57815187529582019590820190600101614990565b509495945050505050565b60ff60f81b8816815260e060208201525f6149d560e0830189613e77565b82810360408401526149e78189613e77565b606084018890526001600160a01b038716608085015260a0840186905283810360c08501529050614a18818561497d565b9a9950505050505050505050565b5f805f8060808587031215614a39575f80fd5b84359350614a4960208601614219565b92506040850135614a5981613ed7565b915060608501356001600160401b03811115613ffd575f80fd5b5f805f60608486031215614a85575f80fd5b8335614a9081613ed7565b92506020840135915060408401356001600160401b03811115614ab1575f80fd5b614abd86828701613f90565b9150509250925092565b5f60208284031215614ad7575f80fd5b813560088110611edb575f80fd5b5f805f805f805f60a0888a031215614afb575f80fd5b87359650614b0b60208901614219565b9550604088013561440b81613ed7565b5f805f805f60a08688031215614b2f575f80fd5b8535614b3a81613ed7565b94506020860135614b4a81613ed7565b935060408601356001600160401b0380821115614b65575f80fd5b614b7189838a016140a7565b94506060880135915080821115614b86575f80fd5b614b9289838a016140a7565b93506080880135915080821115614770575f80fd5b5f805f805f8060a08789031215614bbc575f80fd5b863595506020870135614bce81613ed7565b9450614bdc60408801614219565b93506060870135925060808701356001600160401b03811115614bfd575f80fd5b614c0989828a01614229565b979a9699509497509295939492505050565b5f805f8060608587031215614c2e575f80fd5b8435614c3981613ed7565b93506020850135925060408501356001600160401b038111156148b9575f80fd5b5f8060408385031215614c6b575f80fd5b50508035926020909101359150565b5f805f805f60a08688031215614c8e575f80fd5b8535614c9981613ed7565b94506020860135614ca981613ed7565b9350604086013592506060860135915060808601356001600160401b03811115614cd1575f80fd5b61477d88828901613f90565b600181811c90821680614cf157607f821691505b602082108103614d0f57634e487b7160e01b5f52602260045260245ffd5b50919050565b634e487b7160e01b5f52603260045260245ffd5b5f611edb368484614103565b5f60208284031215614d45575f80fd5b81516001600160401b03811115614d5a575f80fd5b8201601f81018413614d6a575f80fd5b8051614d78613f6282613f2f565b818152856020838501011115614d8c575f80fd5b611f12826020830160208601613e55565b818382375f9101908152919050565b634e487b7160e01b5f52601160045260245ffd5b8181038181111561103857611038614dac565b65ffffffffffff828116828216039080821115614df257614df2614dac565b5092915050565b5f60208284031215614e09575f80fd5b8151611edb8161484e565b65ffffffffffff818116838216019080821115614df257614df2614dac565b5f815180845260208085019450602084015f5b838110156149ac5781516001600160a01b031687529582019590820190600101614e46565b5f8282518085526020808601955060208260051b840101602086015f5b84811015612bda57601f19868403018952614ea4838351613e77565b98840198925090830190600101614e88565b608081525f614ec86080830187614e33565b8281036020840152614eda818761497d565b90508281036040840152614eee8186614e6b565b91505082606083015295945050505050565b5f60208284031215614f10575f80fd5b5051919050565b808202811582820484141761103857611038614dac565b634e487b7160e01b5f52601260045260245ffd5b5f82614f5c57634e487b7160e01b5f52601260045260245ffd5b500490565b83815260608101614f75602083018561447e565b826040830152949350505050565b85815260ff8516602082015283604082015260806060820152816080820152818360a08301375f81830160a090810191909152601f909201601f19160101949350505050565b5f8251614fda818460208701613e55565b9190910192915050565b84815260ff84166020820152826040820152608060608201525f61168d6080830184613e77565b85815260ff8516602082015283604082015260a060608201525f61503260a0830185613e77565b82810360808401526150448185613e77565b98975050505050505050565b8082018082111561103857611038614dac565b5f60208284031215615073575f80fd5b8151611edb81613ed7565b6001600160d01b03818116838216019080821115614df257614df2614dac565b60ff828116828216039081111561103857611038614dac565b60ff818116838216019081111561103857611038614dac565b600181815b8085111561510a57815f19048211156150f0576150f0614dac565b808516156150fd57918102915b93841c93908002906150d5565b509250929050565b5f8261512057506001611038565b8161512c57505f611038565b8160018114615142576002811461514c57615168565b6001915050611038565b60ff84111561515d5761515d614dac565b50506001821b611038565b5060208310610133831016604e8410600b841016171561518b575081810a611038565b61519583836150d0565b805f19048211156151a8576151a8614dac565b029392505050565b5f611edb60ff841683615112565b5f6101208b8352602060018060a01b038c16818501528160408501526151e68285018c614e33565b915083820360608501526151fa828b61497d565b915083820360808501528189518084528284019150828160051b850101838c015f5b8381101561524a57601f19878403018552615238838351613e77565b9486019492509085019060010161521c565b505086810360a088015261525e818c614e6b565b9450505050508560c08401528460e08401528281036101008401526152838185613e77565b9c9b505050505050505050505050565b828152604060208201525f6117bc6040830184613e7756fe737570706f72743d627261766f2c6f766572726964652671756f72756d3d666f722c6162737461696e266f76657272696461626c653d74727565a264697066735822122095597052035e26f43f574d0c1053f3d5dfca952861dfd17d1b5bc96ab1dfe9a664736f6c63430008180033",
  "linkReferences": {},
  "deployedLinkReferences": {}
}