{
  "_format": "hh-sol-artifact-1",
  "contractName": "$DummyImplementation",
  "sourceName": "contracts-exposed/mocks/DummyImplementation.sol",
  "abi": [
    {
      "inputs": [],
      "stateMutability": "payable",
      "type": "constructor"
    },
    {
      "inputs": [],
      "name": "__hh_exposed_bytecode_marker",
      "outputs": [
        {
          "internalType": "bytes32",
          "name": "",
          "type": "bytes32"
        }
      ],
      "stateMutability": "view",
      "type": "function"
    },
    {
      "inputs": [],
      "name": "get",
      "outputs": [
        {
          "internalType": "bool",
          "name": "",
          "type": "bool"
        }
      ],
      "stateMutability": "pure",
      "type": "function"
    },
    {
      "inputs": [
        {
          "internalType": "uint256",
          "name": "_value",
          "type": "uint256"
        },
        {
          "internalType": "string",
          "name": "_text",
          "type": "string"
        },
        {
          "internalType": "uint256[]",
          "name": "_values",
          "type": "uint256[]"
        }
      ],
      "name": "initialize",
      "outputs": [],
      "stateMutability": "nonpayable",
      "type": "function"
    },
    {
      "inputs": [],
      "name": "initializeNonPayable",
      "outputs": [],
      "stateMutability": "nonpayable",
      "type": "function"
    },
    {
      "inputs": [
        {
          "internalType": "uint256",
          "name": "_value",
          "type": "uint256"
        }
      ],
      "name": "initializeNonPayableWithValue",
      "outputs": [],
      "stateMutability": "nonpayable",
      "type": "function"
    },
    {
      "inputs": [],
      "name": "initializePayable",
      "outputs": [],
      "stateMutability": "payable",
      "type": "function"
    },
    {
      "inputs": [
        {
          "internalType": "uint256",
          "name": "_value",
          "type": "uint256"
        }
      ],
      "name": "initializePayableWithValue",
      "outputs": [],
      "stateMutability": "payable",
      "type": "function"
    },
    {
      "inputs": [],
      "name": "reverts",
      "outputs": [],
      "stateMutability": "pure",
      "type": "function"
    },
    {
      "inputs": [],
      "name": "text",
      "outputs": [
        {
          "internalType": "string",
          "name": "",
          "type": "string"
        }
      ],
      "stateMutability": "view",
      "type": "function"
    },
    {
      "inputs": [
        {
          "internalType": "address",
          "name": "newAdmin",
          "type": "address"
        }
      ],
      "name": "unsafeOverrideAdmin",
      "outputs": [],
      "stateMutability": "nonpayable",
      "type": "function"
    },
    {
      "inputs": [],
      "name": "value",
      "outputs": [
        {
          "internalType": "uint256",
          "name": "",
          "type": "uint256"
        }
      ],
      "stateMutability": "view",
      "type": "function"
    },
    {
      "inputs": [
        {
          "internalType": "uint256",
          "name": "",
          "type": "uint256"
        }
      ],
      "name": "values",
      "outputs": [
        {
          "internalType": "uint256",
          "name": "",
          "type": "uint256"
        }
      ],
      "stateMutability": "view",
      "type": "function"
    },
    {
      "inputs": [],
      "name": "version",
      "outputs": [
        {
          "internalType": "string",
          "name": "",
          "type": "string"
        }
      ],
      "stateMutability": "pure",
      "type": "function"
    },
    {
      "stateMutability": "payable",
      "type": "receive"
    }
  ],
  "bytecode": "0x608060405261077e806100115f395ff3fe6080604052600436106100c2575f3560e01c806354fd4d501161007c578063763e283111610057578063763e2831146102285780639fba1f9a14610246578063d31f8b6b1461024f578063e79f5bee1461026e575f80fd5b806354fd4d50146101c45780635e383d21146101ee5780636d4ce63c1461020d575f80fd5b806319af86e7146100cd5780631f1bd6921461012a578063227367d514610154578063342db739146101695780633bccbbc91461019c5780633fa4f245146101b0575f80fd5b366100c957005b5f80fd5b3480156100d8575f80fd5b506101286100e73660046103fa565b7fb53127684a568b3173ae13b9f8a6016e243e63b6e8ee1178d6a717850b5d610380546001600160a01b0319166001600160a01b0392909216919091179055565b005b348015610135575f80fd5b5061013e61027c565b60405161014b9190610427565b60405180910390f35b34801561015f575f80fd5b50610128600a5f55565b348015610174575f80fd5b5061018e6e1a185c991a185d0b595e1c1bdcd959608a1b81565b60405190815260200161014b565b3480156101a7575f80fd5b50610128610308565b3480156101bb575f80fd5b5061018e5f5481565b3480156101cf575f80fd5b50604080518082019091526002815261563160f01b602082015261013e565b3480156101f9575f80fd5b5061018e610208366004610473565b610354565b348015610218575f80fd5b506040516001815260200161014b565b348015610233575f80fd5b50610128610242366004610473565b5f55565b61012860645f55565b34801561025a575f80fd5b5061012861026936600461054c565b610373565b610128610242366004610473565b6001805461028990610604565b80601f01602080910402602001604051908101604052809291908181526020018280546102b590610604565b80156103005780601f106102d757610100808354040283529160200191610300565b820191905f5260205f20905b8154815290600101906020018083116102e357829003601f168201915b505050505081565b60405162461bcd60e51b815260206004820152601c60248201527f44756d6d79496d706c656d656e746174696f6e20726576657274656400000000604482015260640160405180910390fd5b60028181548110610363575f80fd5b5f91825260209091200154905081565b5f83905560016103838382610688565b50805161039790600290602084019061039d565b50505050565b828054828255905f5260205f209081019282156103d6579160200282015b828111156103d65782518255916020019190600101906103bb565b506103e29291506103e6565b5090565b5b808211156103e2575f81556001016103e7565b5f6020828403121561040a575f80fd5b81356001600160a01b0381168114610420575f80fd5b9392505050565b5f602080835283518060208501525f5b8181101561045357858101830151858201604001528201610437565b505f604082860101526040601f19601f8301168501019250505092915050565b5f60208284031215610483575f80fd5b5035919050565b634e487b7160e01b5f52604160045260245ffd5b604051601f8201601f1916810167ffffffffffffffff811182821017156104c7576104c761048a565b604052919050565b5f82601f8301126104de575f80fd5b8135602067ffffffffffffffff8211156104fa576104fa61048a565b8160051b61050982820161049e565b9283528481018201928281019087851115610522575f80fd5b83870192505b8483101561054157823582529183019190830190610528565b979650505050505050565b5f805f6060848603121561055e575f80fd5b8335925060208085013567ffffffffffffffff8082111561057d575f80fd5b818701915087601f830112610590575f80fd5b8135818111156105a2576105a261048a565b6105b4601f8201601f1916850161049e565b81815289858386010111156105c7575f80fd5b81858501868301375f91810190940152919350604086013591808311156105ec575f80fd5b50506105fa868287016104cf565b9150509250925092565b600181811c9082168061061857607f821691505b60208210810361063657634e487b7160e01b5f52602260045260245ffd5b50919050565b601f82111561068357805f5260205f20601f840160051c810160208510156106615750805b601f840160051c820191505b81811015610680575f815560010161066d565b50505b505050565b815167ffffffffffffffff8111156106a2576106a261048a565b6106b6816106b08454610604565b8461063c565b602080601f8311600181146106e9575f84156106d25750858301515b5f19600386901b1c1916600185901b178555610740565b5f85815260208120601f198616915b82811015610717578886015182559484019460019091019084016106f8565b508582101561073457878501515f19600388901b60f8161c191681555b505060018460011b0185555b50505050505056fea264697066735822122064b9e1efd62feaed067722a292808e7a3fa58b323d47cd94765833e073c7f8f764736f6c63430008180033",
  "linkReferences": {},
  "deployedLinkReferences": {}
}