{
  "_format": "hh-sol-artifact-1",
  "contractName": "$GovernorTimelockAccessMock",
  "sourceName": "contracts-exposed/mocks/governance/GovernorTimelockAccessMock.sol",
  "abi": [
    {
      "inputs": [
        {
          "internalType": "string",
          "name": "name_",
          "type": "string"
        },
        {
          "internalType": "uint48",
          "name": "initialVotingDelay",
          "type": "uint48"
        },
        {
          "internalType": "uint32",
          "name": "initialVotingPeriod",
          "type": "uint32"
        },
        {
          "internalType": "uint256",
          "name": "initialProposalThreshold",
          "type": "uint256"
        },
        {
          "internalType": "address",
          "name": "manager",
          "type": "address"
        },
        {
          "internalType": "uint32",
          "name": "initialBaseDelay",
          "type": "uint32"
        },
        {
          "internalType": "contract IVotes",
          "name": "tokenAddress",
          "type": "address"
        },
        {
          "internalType": "uint256",
          "name": "quorumNumeratorValue",
          "type": "uint256"
        }
      ],
      "stateMutability": "payable",
      "type": "constructor"
    },
    {
      "inputs": [],
      "name": "CheckpointUnorderedInsertion",
      "type": "error"
    },
    {
      "inputs": [],
      "name": "FailedCall",
      "type": "error"
    },
    {
      "inputs": [
        {
          "internalType": "address",
          "name": "voter",
          "type": "address"
        }
      ],
      "name": "GovernorAlreadyCastVote",
      "type": "error"
    },
    {
      "inputs": [
        {
          "internalType": "uint256",
          "name": "proposalId",
          "type": "uint256"
        }
      ],
      "name": "GovernorAlreadyQueuedProposal",
      "type": "error"
    },
    {
      "inputs": [],
      "name": "GovernorDisabledDeposit",
      "type": "error"
    },
    {
      "inputs": [
        {
          "internalType": "address",
          "name": "proposer",
          "type": "address"
        },
        {
          "internalType": "uint256",
          "name": "votes",
          "type": "uint256"
        },
        {
          "internalType": "uint256",
          "name": "threshold",
          "type": "uint256"
        }
      ],
      "name": "GovernorInsufficientProposerVotes",
      "type": "error"
    },
    {
      "inputs": [
        {
          "internalType": "uint256",
          "name": "targets",
          "type": "uint256"
        },
        {
          "internalType": "uint256",
          "name": "calldatas",
          "type": "uint256"
        },
        {
          "internalType": "uint256",
          "name": "values",
          "type": "uint256"
        }
      ],
      "name": "GovernorInvalidProposalLength",
      "type": "error"
    },
    {
      "inputs": [
        {
          "internalType": "uint256",
          "name": "quorumNumerator",
          "type": "uint256"
        },
        {
          "internalType": "uint256",
          "name": "quorumDenominator",
          "type": "uint256"
        }
      ],
      "name": "GovernorInvalidQuorumFraction",
      "type": "error"
    },
    {
      "inputs": [
        {
          "internalType": "address",
          "name": "voter",
          "type": "address"
        }
      ],
      "name": "GovernorInvalidSignature",
      "type": "error"
    },
    {
      "inputs": [],
      "name": "GovernorInvalidVoteParams",
      "type": "error"
    },
    {
      "inputs": [],
      "name": "GovernorInvalidVoteType",
      "type": "error"
    },
    {
      "inputs": [
        {
          "internalType": "uint256",
          "name": "votingPeriod",
          "type": "uint256"
        }
      ],
      "name": "GovernorInvalidVotingPeriod",
      "type": "error"
    },
    {
      "inputs": [],
      "name": "GovernorLockedIgnore",
      "type": "error"
    },
    {
      "inputs": [
        {
          "internalType": "uint256",
          "name": "proposalId",
          "type": "uint256"
        },
        {
          "internalType": "uint256",
          "name": "expectedNonce",
          "type": "uint256"
        },
        {
          "internalType": "uint256",
          "name": "actualNonce",
          "type": "uint256"
        }
      ],
      "name": "GovernorMismatchedNonce",
      "type": "error"
    },
    {
      "inputs": [
        {
          "internalType": "uint256",
          "name": "proposalId",
          "type": "uint256"
        }
      ],
      "name": "GovernorNonexistentProposal",
      "type": "error"
    },
    {
      "inputs": [
        {
          "internalType": "uint256",
          "name": "proposalId",
          "type": "uint256"
        }
      ],
      "name": "GovernorNotQueuedProposal",
      "type": "error"
    },
    {
      "inputs": [
        {
          "internalType": "address",
          "name": "account",
          "type": "address"
        }
      ],
      "name": "GovernorOnlyExecutor",
      "type": "error"
    },
    {
      "inputs": [
        {
          "internalType": "address",
          "name": "account",
          "type": "address"
        }
      ],
      "name": "GovernorOnlyProposer",
      "type": "error"
    },
    {
      "inputs": [],
      "name": "GovernorQueueNotImplemented",
      "type": "error"
    },
    {
      "inputs": [
        {
          "internalType": "address",
          "name": "proposer",
          "type": "address"
        }
      ],
      "name": "GovernorRestrictedProposer",
      "type": "error"
    },
    {
      "inputs": [
        {
          "internalType": "uint256",
          "name": "proposalId",
          "type": "uint256"
        },
        {
          "internalType": "enum IGovernor.ProposalState",
          "name": "current",
          "type": "uint8"
        },
        {
          "internalType": "bytes32",
          "name": "expectedStates",
          "type": "bytes32"
        }
      ],
      "name": "GovernorUnexpectedProposalState",
      "type": "error"
    },
    {
      "inputs": [
        {
          "internalType": "uint256",
          "name": "proposalId",
          "type": "uint256"
        },
        {
          "internalType": "uint256",
          "name": "neededTimestamp",
          "type": "uint256"
        }
      ],
      "name": "GovernorUnmetDelay",
      "type": "error"
    },
    {
      "inputs": [
        {
          "internalType": "address",
          "name": "account",
          "type": "address"
        },
        {
          "internalType": "uint256",
          "name": "currentNonce",
          "type": "uint256"
        }
      ],
      "name": "InvalidAccountNonce",
      "type": "error"
    },
    {
      "inputs": [],
      "name": "InvalidShortString",
      "type": "error"
    },
    {
      "inputs": [
        {
          "internalType": "uint8",
          "name": "bits",
          "type": "uint8"
        },
        {
          "internalType": "uint256",
          "name": "value",
          "type": "uint256"
        }
      ],
      "name": "SafeCastOverflowedUintDowncast",
      "type": "error"
    },
    {
      "inputs": [
        {
          "internalType": "string",
          "name": "str",
          "type": "string"
        }
      ],
      "name": "StringTooLong",
      "type": "error"
    },
    {
      "anonymous": false,
      "inputs": [
        {
          "indexed": false,
          "internalType": "address",
          "name": "target",
          "type": "address"
        },
        {
          "indexed": false,
          "internalType": "bytes4",
          "name": "selector",
          "type": "bytes4"
        },
        {
          "indexed": false,
          "internalType": "bool",
          "name": "ignored",
          "type": "bool"
        }
      ],
      "name": "AccessManagerIgnoredSet",
      "type": "event"
    },
    {
      "anonymous": false,
      "inputs": [
        {
          "indexed": false,
          "internalType": "uint32",
          "name": "oldBaseDelaySeconds",
          "type": "uint32"
        },
        {
          "indexed": false,
          "internalType": "uint32",
          "name": "newBaseDelaySeconds",
          "type": "uint32"
        }
      ],
      "name": "BaseDelaySet",
      "type": "event"
    },
    {
      "anonymous": false,
      "inputs": [],
      "name": "EIP712DomainChanged",
      "type": "event"
    },
    {
      "anonymous": false,
      "inputs": [
        {
          "indexed": false,
          "internalType": "uint256",
          "name": "proposalId",
          "type": "uint256"
        }
      ],
      "name": "ProposalCanceled",
      "type": "event"
    },
    {
      "anonymous": false,
      "inputs": [
        {
          "indexed": false,
          "internalType": "uint256",
          "name": "proposalId",
          "type": "uint256"
        },
        {
          "indexed": false,
          "internalType": "address",
          "name": "proposer",
          "type": "address"
        },
        {
          "indexed": false,
          "internalType": "address[]",
          "name": "targets",
          "type": "address[]"
        },
        {
          "indexed": false,
          "internalType": "uint256[]",
          "name": "values",
          "type": "uint256[]"
        },
        {
          "indexed": false,
          "internalType": "string[]",
          "name": "signatures",
          "type": "string[]"
        },
        {
          "indexed": false,
          "internalType": "bytes[]",
          "name": "calldatas",
          "type": "bytes[]"
        },
        {
          "indexed": false,
          "internalType": "uint256",
          "name": "voteStart",
          "type": "uint256"
        },
        {
          "indexed": false,
          "internalType": "uint256",
          "name": "voteEnd",
          "type": "uint256"
        },
        {
          "indexed": false,
          "internalType": "string",
          "name": "description",
          "type": "string"
        }
      ],
      "name": "ProposalCreated",
      "type": "event"
    },
    {
      "anonymous": false,
      "inputs": [
        {
          "indexed": false,
          "internalType": "uint256",
          "name": "proposalId",
          "type": "uint256"
        }
      ],
      "name": "ProposalExecuted",
      "type": "event"
    },
    {
      "anonymous": false,
      "inputs": [
        {
          "indexed": false,
          "internalType": "uint256",
          "name": "proposalId",
          "type": "uint256"
        },
        {
          "indexed": false,
          "internalType": "uint256",
          "name": "etaSeconds",
          "type": "uint256"
        }
      ],
      "name": "ProposalQueued",
      "type": "event"
    },
    {
      "anonymous": false,
      "inputs": [
        {
          "indexed": false,
          "internalType": "uint256",
          "name": "oldProposalThreshold",
          "type": "uint256"
        },
        {
          "indexed": false,
          "internalType": "uint256",
          "name": "newProposalThreshold",
          "type": "uint256"
        }
      ],
      "name": "ProposalThresholdSet",
      "type": "event"
    },
    {
      "anonymous": false,
      "inputs": [
        {
          "indexed": false,
          "internalType": "uint256",
          "name": "oldQuorumNumerator",
          "type": "uint256"
        },
        {
          "indexed": false,
          "internalType": "uint256",
          "name": "newQuorumNumerator",
          "type": "uint256"
        }
      ],
      "name": "QuorumNumeratorUpdated",
      "type": "event"
    },
    {
      "anonymous": false,
      "inputs": [
        {
          "indexed": true,
          "internalType": "address",
          "name": "voter",
          "type": "address"
        },
        {
          "indexed": false,
          "internalType": "uint256",
          "name": "proposalId",
          "type": "uint256"
        },
        {
          "indexed": false,
          "internalType": "uint8",
          "name": "support",
          "type": "uint8"
        },
        {
          "indexed": false,
          "internalType": "uint256",
          "name": "weight",
          "type": "uint256"
        },
        {
          "indexed": false,
          "internalType": "string",
          "name": "reason",
          "type": "string"
        }
      ],
      "name": "VoteCast",
      "type": "event"
    },
    {
      "anonymous": false,
      "inputs": [
        {
          "indexed": true,
          "internalType": "address",
          "name": "voter",
          "type": "address"
        },
        {
          "indexed": false,
          "internalType": "uint256",
          "name": "proposalId",
          "type": "uint256"
        },
        {
          "indexed": false,
          "internalType": "uint8",
          "name": "support",
          "type": "uint8"
        },
        {
          "indexed": false,
          "internalType": "uint256",
          "name": "weight",
          "type": "uint256"
        },
        {
          "indexed": false,
          "internalType": "string",
          "name": "reason",
          "type": "string"
        },
        {
          "indexed": false,
          "internalType": "bytes",
          "name": "params",
          "type": "bytes"
        }
      ],
      "name": "VoteCastWithParams",
      "type": "event"
    },
    {
      "anonymous": false,
      "inputs": [
        {
          "indexed": false,
          "internalType": "uint256",
          "name": "oldVotingDelay",
          "type": "uint256"
        },
        {
          "indexed": false,
          "internalType": "uint256",
          "name": "newVotingDelay",
          "type": "uint256"
        }
      ],
      "name": "VotingDelaySet",
      "type": "event"
    },
    {
      "anonymous": false,
      "inputs": [
        {
          "indexed": false,
          "internalType": "uint256",
          "name": "oldVotingPeriod",
          "type": "uint256"
        },
        {
          "indexed": false,
          "internalType": "uint256",
          "name": "newVotingPeriod",
          "type": "uint256"
        }
      ],
      "name": "VotingPeriodSet",
      "type": "event"
    },
    {
      "anonymous": false,
      "inputs": [
        {
          "indexed": false,
          "internalType": "uint256",
          "name": "ret0",
          "type": "uint256"
        }
      ],
      "name": "return$_cancel",
      "type": "event"
    },
    {
      "anonymous": false,
      "inputs": [
        {
          "indexed": false,
          "internalType": "uint256",
          "name": "ret0",
          "type": "uint256"
        }
      ],
      "name": "return$_castVote_uint256_address_uint8_string",
      "type": "event"
    },
    {
      "anonymous": false,
      "inputs": [
        {
          "indexed": false,
          "internalType": "uint256",
          "name": "ret0",
          "type": "uint256"
        }
      ],
      "name": "return$_castVote_uint256_address_uint8_string_bytes",
      "type": "event"
    },
    {
      "anonymous": false,
      "inputs": [
        {
          "indexed": false,
          "internalType": "uint256",
          "name": "ret0",
          "type": "uint256"
        }
      ],
      "name": "return$_countVote",
      "type": "event"
    },
    {
      "anonymous": false,
      "inputs": [
        {
          "indexed": false,
          "internalType": "uint256",
          "name": "proposalId",
          "type": "uint256"
        }
      ],
      "name": "return$_propose",
      "type": "event"
    },
    {
      "anonymous": false,
      "inputs": [
        {
          "indexed": false,
          "internalType": "uint48",
          "name": "ret0",
          "type": "uint48"
        }
      ],
      "name": "return$_queueOperations",
      "type": "event"
    },
    {
      "anonymous": false,
      "inputs": [
        {
          "indexed": false,
          "internalType": "uint256",
          "name": "ret0",
          "type": "uint256"
        }
      ],
      "name": "return$_useNonce",
      "type": "event"
    },
    {
      "inputs": [],
      "name": "$_EIP712Name",
      "outputs": [
        {
          "internalType": "string",
          "name": "ret0",
          "type": "string"
        }
      ],
      "stateMutability": "view",
      "type": "function"
    },
    {
      "inputs": [],
      "name": "$_EIP712Version",
      "outputs": [
        {
          "internalType": "string",
          "name": "ret0",
          "type": "string"
        }
      ],
      "stateMutability": "view",
      "type": "function"
    },
    {
      "inputs": [
        {
          "internalType": "address[]",
          "name": "targets",
          "type": "address[]"
        },
        {
          "internalType": "uint256[]",
          "name": "values",
          "type": "uint256[]"
        },
        {
          "internalType": "bytes[]",
          "name": "calldatas",
          "type": "bytes[]"
        },
        {
          "internalType": "bytes32",
          "name": "descriptionHash",
          "type": "bytes32"
        }
      ],
      "name": "$_cancel",
      "outputs": [
        {
          "internalType": "uint256",
          "name": "ret0",
          "type": "uint256"
        }
      ],
      "stateMutability": "nonpayable",
      "type": "function"
    },
    {
      "inputs": [
        {
          "internalType": "uint256",
          "name": "proposalId",
          "type": "uint256"
        },
        {
          "internalType": "address",
          "name": "account",
          "type": "address"
        },
        {
          "internalType": "uint8",
          "name": "support",
          "type": "uint8"
        },
        {
          "internalType": "string",
          "name": "reason",
          "type": "string"
        },
        {
          "internalType": "bytes",
          "name": "params",
          "type": "bytes"
        }
      ],
      "name": "$_castVote",
      "outputs": [
        {
          "internalType": "uint256",
          "name": "ret0",
          "type": "uint256"
        }
      ],
      "stateMutability": "nonpayable",
      "type": "function"
    },
    {
      "inputs": [
        {
          "internalType": "uint256",
          "name": "proposalId",
          "type": "uint256"
        },
        {
          "internalType": "address",
          "name": "account",
          "type": "address"
        },
        {
          "internalType": "uint8",
          "name": "support",
          "type": "uint8"
        },
        {
          "internalType": "string",
          "name": "reason",
          "type": "string"
        }
      ],
      "name": "$_castVote",
      "outputs": [
        {
          "internalType": "uint256",
          "name": "ret0",
          "type": "uint256"
        }
      ],
      "stateMutability": "nonpayable",
      "type": "function"
    },
    {
      "inputs": [],
      "name": "$_checkGovernance",
      "outputs": [],
      "stateMutability": "nonpayable",
      "type": "function"
    },
    {
      "inputs": [],
      "name": "$_contextSuffixLength",
      "outputs": [
        {
          "internalType": "uint256",
          "name": "ret0",
          "type": "uint256"
        }
      ],
      "stateMutability": "view",
      "type": "function"
    },
    {
      "inputs": [
        {
          "internalType": "uint256",
          "name": "proposalId",
          "type": "uint256"
        },
        {
          "internalType": "address",
          "name": "account",
          "type": "address"
        },
        {
          "internalType": "uint8",
          "name": "support",
          "type": "uint8"
        },
        {
          "internalType": "uint256",
          "name": "totalWeight",
          "type": "uint256"
        },
        {
          "internalType": "bytes",
          "name": "arg4",
          "type": "bytes"
        }
      ],
      "name": "$_countVote",
      "outputs": [
        {
          "internalType": "uint256",
          "name": "ret0",
          "type": "uint256"
        }
      ],
      "stateMutability": "nonpayable",
      "type": "function"
    },
    {
      "inputs": [],
      "name": "$_defaultParams",
      "outputs": [
        {
          "internalType": "bytes",
          "name": "ret0",
          "type": "bytes"
        }
      ],
      "stateMutability": "view",
      "type": "function"
    },
    {
      "inputs": [],
      "name": "$_domainSeparatorV4",
      "outputs": [
        {
          "internalType": "bytes32",
          "name": "ret0",
          "type": "bytes32"
        }
      ],
      "stateMutability": "view",
      "type": "function"
    },
    {
      "inputs": [
        {
          "internalType": "enum IGovernor.ProposalState",
          "name": "proposalState",
          "type": "uint8"
        }
      ],
      "name": "$_encodeStateBitmap",
      "outputs": [
        {
          "internalType": "bytes32",
          "name": "ret0",
          "type": "bytes32"
        }
      ],
      "stateMutability": "pure",
      "type": "function"
    },
    {
      "inputs": [
        {
          "internalType": "uint256",
          "name": "proposalId",
          "type": "uint256"
        },
        {
          "internalType": "address[]",
          "name": "targets",
          "type": "address[]"
        },
        {
          "internalType": "uint256[]",
          "name": "values",
          "type": "uint256[]"
        },
        {
          "internalType": "bytes[]",
          "name": "calldatas",
          "type": "bytes[]"
        },
        {
          "internalType": "bytes32",
          "name": "descriptionHash",
          "type": "bytes32"
        }
      ],
      "name": "$_executeOperations",
      "outputs": [],
      "stateMutability": "nonpayable",
      "type": "function"
    },
    {
      "inputs": [],
      "name": "$_executor",
      "outputs": [
        {
          "internalType": "address",
          "name": "ret0",
          "type": "address"
        }
      ],
      "stateMutability": "view",
      "type": "function"
    },
    {
      "inputs": [
        {
          "internalType": "address",
          "name": "account",
          "type": "address"
        },
        {
          "internalType": "uint256",
          "name": "timepoint",
          "type": "uint256"
        },
        {
          "internalType": "bytes",
          "name": "arg2",
          "type": "bytes"
        }
      ],
      "name": "$_getVotes",
      "outputs": [
        {
          "internalType": "uint256",
          "name": "ret0",
          "type": "uint256"
        }
      ],
      "stateMutability": "view",
      "type": "function"
    },
    {
      "inputs": [
        {
          "internalType": "bytes32",
          "name": "structHash",
          "type": "bytes32"
        }
      ],
      "name": "$_hashTypedDataV4",
      "outputs": [
        {
          "internalType": "bytes32",
          "name": "ret0",
          "type": "bytes32"
        }
      ],
      "stateMutability": "view",
      "type": "function"
    },
    {
      "inputs": [
        {
          "internalType": "address",
          "name": "proposer",
          "type": "address"
        },
        {
          "internalType": "string",
          "name": "description",
          "type": "string"
        }
      ],
      "name": "$_isValidDescriptionForProposer",
      "outputs": [
        {
          "internalType": "bool",
          "name": "ret0",
          "type": "bool"
        }
      ],
      "stateMutability": "view",
      "type": "function"
    },
    {
      "inputs": [],
      "name": "$_msgData",
      "outputs": [
        {
          "internalType": "bytes",
          "name": "ret0",
          "type": "bytes"
        }
      ],
      "stateMutability": "view",
      "type": "function"
    },
    {
      "inputs": [],
      "name": "$_msgSender",
      "outputs": [
        {
          "internalType": "address",
          "name": "ret0",
          "type": "address"
        }
      ],
      "stateMutability": "view",
      "type": "function"
    },
    {
      "inputs": [
        {
          "internalType": "address[]",
          "name": "targets",
          "type": "address[]"
        },
        {
          "internalType": "uint256[]",
          "name": "values",
          "type": "uint256[]"
        },
        {
          "internalType": "bytes[]",
          "name": "calldatas",
          "type": "bytes[]"
        },
        {
          "internalType": "string",
          "name": "description",
          "type": "string"
        },
        {
          "internalType": "address",
          "name": "proposer",
          "type": "address"
        }
      ],
      "name": "$_propose",
      "outputs": [
        {
          "internalType": "uint256",
          "name": "proposalId",
          "type": "uint256"
        }
      ],
      "stateMutability": "nonpayable",
      "type": "function"
    },
    {
      "inputs": [
        {
          "internalType": "uint256",
          "name": "proposalId",
          "type": "uint256"
        },
        {
          "internalType": "address[]",
          "name": "targets",
          "type": "address[]"
        },
        {
          "internalType": "uint256[]",
          "name": "values",
          "type": "uint256[]"
        },
        {
          "internalType": "bytes[]",
          "name": "calldatas",
          "type": "bytes[]"
        },
        {
          "internalType": "bytes32",
          "name": "descriptionHash",
          "type": "bytes32"
        }
      ],
      "name": "$_queueOperations",
      "outputs": [
        {
          "internalType": "uint48",
          "name": "ret0",
          "type": "uint48"
        }
      ],
      "stateMutability": "nonpayable",
      "type": "function"
    },
    {
      "inputs": [
        {
          "internalType": "uint256",
          "name": "proposalId",
          "type": "uint256"
        }
      ],
      "name": "$_quorumReached",
      "outputs": [
        {
          "internalType": "bool",
          "name": "ret0",
          "type": "bool"
        }
      ],
      "stateMutability": "view",
      "type": "function"
    },
    {
      "inputs": [
        {
          "internalType": "address",
          "name": "target",
          "type": "address"
        },
        {
          "internalType": "bytes4",
          "name": "selector",
          "type": "bytes4"
        },
        {
          "internalType": "bool",
          "name": "ignored",
          "type": "bool"
        }
      ],
      "name": "$_setAccessManagerIgnored",
      "outputs": [],
      "stateMutability": "nonpayable",
      "type": "function"
    },
    {
      "inputs": [
        {
          "internalType": "uint32",
          "name": "newBaseDelay",
          "type": "uint32"
        }
      ],
      "name": "$_setBaseDelaySeconds",
      "outputs": [],
      "stateMutability": "nonpayable",
      "type": "function"
    },
    {
      "inputs": [
        {
          "internalType": "uint256",
          "name": "newProposalThreshold",
          "type": "uint256"
        }
      ],
      "name": "$_setProposalThreshold",
      "outputs": [],
      "stateMutability": "nonpayable",
      "type": "function"
    },
    {
      "inputs": [
        {
          "internalType": "uint48",
          "name": "newVotingDelay",
          "type": "uint48"
        }
      ],
      "name": "$_setVotingDelay",
      "outputs": [],
      "stateMutability": "nonpayable",
      "type": "function"
    },
    {
      "inputs": [
        {
          "internalType": "uint32",
          "name": "newVotingPeriod",
          "type": "uint32"
        }
      ],
      "name": "$_setVotingPeriod",
      "outputs": [],
      "stateMutability": "nonpayable",
      "type": "function"
    },
    {
      "inputs": [
        {
          "internalType": "uint256",
          "name": "proposalId",
          "type": "uint256"
        }
      ],
      "name": "$_tallyUpdated",
      "outputs": [],
      "stateMutability": "nonpayable",
      "type": "function"
    },
    {
      "inputs": [
        {
          "internalType": "uint256",
          "name": "newQuorumNumerator",
          "type": "uint256"
        }
      ],
      "name": "$_updateQuorumNumerator",
      "outputs": [],
      "stateMutability": "nonpayable",
      "type": "function"
    },
    {
      "inputs": [
        {
          "internalType": "address",
          "name": "owner",
          "type": "address"
        },
        {
          "internalType": "uint256",
          "name": "nonce",
          "type": "uint256"
        }
      ],
      "name": "$_useCheckedNonce",
      "outputs": [],
      "stateMutability": "nonpayable",
      "type": "function"
    },
    {
      "inputs": [
        {
          "internalType": "address",
          "name": "owner",
          "type": "address"
        }
      ],
      "name": "$_useNonce",
      "outputs": [
        {
          "internalType": "uint256",
          "name": "ret0",
          "type": "uint256"
        }
      ],
      "stateMutability": "nonpayable",
      "type": "function"
    },
    {
      "inputs": [
        {
          "internalType": "uint256",
          "name": "proposalId",
          "type": "uint256"
        },
        {
          "internalType": "bytes32",
          "name": "allowedStates",
          "type": "bytes32"
        }
      ],
      "name": "$_validateStateBitmap",
      "outputs": [
        {
          "internalType": "enum IGovernor.ProposalState",
          "name": "ret0",
          "type": "uint8"
        }
      ],
      "stateMutability": "view",
      "type": "function"
    },
    {
      "inputs": [
        {
          "internalType": "uint256",
          "name": "proposalId",
          "type": "uint256"
        }
      ],
      "name": "$_voteSucceeded",
      "outputs": [
        {
          "internalType": "bool",
          "name": "ret0",
          "type": "bool"
        }
      ],
      "stateMutability": "view",
      "type": "function"
    },
    {
      "inputs": [],
      "name": "BALLOT_TYPEHASH",
      "outputs": [
        {
          "internalType": "bytes32",
          "name": "",
          "type": "bytes32"
        }
      ],
      "stateMutability": "view",
      "type": "function"
    },
    {
      "inputs": [],
      "name": "CLOCK_MODE",
      "outputs": [
        {
          "internalType": "string",
          "name": "",
          "type": "string"
        }
      ],
      "stateMutability": "view",
      "type": "function"
    },
    {
      "inputs": [],
      "name": "COUNTING_MODE",
      "outputs": [
        {
          "internalType": "string",
          "name": "",
          "type": "string"
        }
      ],
      "stateMutability": "pure",
      "type": "function"
    },
    {
      "inputs": [],
      "name": "EXTENDED_BALLOT_TYPEHASH",
      "outputs": [
        {
          "internalType": "bytes32",
          "name": "",
          "type": "bytes32"
        }
      ],
      "stateMutability": "view",
      "type": "function"
    },
    {
      "inputs": [],
      "name": "__hh_exposed_bytecode_marker",
      "outputs": [
        {
          "internalType": "bytes32",
          "name": "",
          "type": "bytes32"
        }
      ],
      "stateMutability": "view",
      "type": "function"
    },
    {
      "inputs": [],
      "name": "accessManager",
      "outputs": [
        {
          "internalType": "contract IAccessManager",
          "name": "",
          "type": "address"
        }
      ],
      "stateMutability": "view",
      "type": "function"
    },
    {
      "inputs": [],
      "name": "baseDelaySeconds",
      "outputs": [
        {
          "internalType": "uint32",
          "name": "",
          "type": "uint32"
        }
      ],
      "stateMutability": "view",
      "type": "function"
    },
    {
      "inputs": [
        {
          "internalType": "address[]",
          "name": "targets",
          "type": "address[]"
        },
        {
          "internalType": "uint256[]",
          "name": "values",
          "type": "uint256[]"
        },
        {
          "internalType": "bytes[]",
          "name": "calldatas",
          "type": "bytes[]"
        },
        {
          "internalType": "bytes32",
          "name": "descriptionHash",
          "type": "bytes32"
        }
      ],
      "name": "cancel",
      "outputs": [
        {
          "internalType": "uint256",
          "name": "",
          "type": "uint256"
        }
      ],
      "stateMutability": "nonpayable",
      "type": "function"
    },
    {
      "inputs": [
        {
          "internalType": "uint256",
          "name": "proposalId",
          "type": "uint256"
        },
        {
          "internalType": "uint8",
          "name": "support",
          "type": "uint8"
        }
      ],
      "name": "castVote",
      "outputs": [
        {
          "internalType": "uint256",
          "name": "",
          "type": "uint256"
        }
      ],
      "stateMutability": "nonpayable",
      "type": "function"
    },
    {
      "inputs": [
        {
          "internalType": "uint256",
          "name": "proposalId",
          "type": "uint256"
        },
        {
          "internalType": "uint8",
          "name": "support",
          "type": "uint8"
        },
        {
          "internalType": "address",
          "name": "voter",
          "type": "address"
        },
        {
          "internalType": "bytes",
          "name": "signature",
          "type": "bytes"
        }
      ],
      "name": "castVoteBySig",
      "outputs": [
        {
          "internalType": "uint256",
          "name": "",
          "type": "uint256"
        }
      ],
      "stateMutability": "nonpayable",
      "type": "function"
    },
    {
      "inputs": [
        {
          "internalType": "uint256",
          "name": "proposalId",
          "type": "uint256"
        },
        {
          "internalType": "uint8",
          "name": "support",
          "type": "uint8"
        },
        {
          "internalType": "string",
          "name": "reason",
          "type": "string"
        }
      ],
      "name": "castVoteWithReason",
      "outputs": [
        {
          "internalType": "uint256",
          "name": "",
          "type": "uint256"
        }
      ],
      "stateMutability": "nonpayable",
      "type": "function"
    },
    {
      "inputs": [
        {
          "internalType": "uint256",
          "name": "proposalId",
          "type": "uint256"
        },
        {
          "internalType": "uint8",
          "name": "support",
          "type": "uint8"
        },
        {
          "internalType": "string",
          "name": "reason",
          "type": "string"
        },
        {
          "internalType": "bytes",
          "name": "params",
          "type": "bytes"
        }
      ],
      "name": "castVoteWithReasonAndParams",
      "outputs": [
        {
          "internalType": "uint256",
          "name": "",
          "type": "uint256"
        }
      ],
      "stateMutability": "nonpayable",
      "type": "function"
    },
    {
      "inputs": [
        {
          "internalType": "uint256",
          "name": "proposalId",
          "type": "uint256"
        },
        {
          "internalType": "uint8",
          "name": "support",
          "type": "uint8"
        },
        {
          "internalType": "address",
          "name": "voter",
          "type": "address"
        },
        {
          "internalType": "string",
          "name": "reason",
          "type": "string"
        },
        {
          "internalType": "bytes",
          "name": "params",
          "type": "bytes"
        },
        {
          "internalType": "bytes",
          "name": "signature",
          "type": "bytes"
        }
      ],
      "name": "castVoteWithReasonAndParamsBySig",
      "outputs": [
        {
          "internalType": "uint256",
          "name": "",
          "type": "uint256"
        }
      ],
      "stateMutability": "nonpayable",
      "type": "function"
    },
    {
      "inputs": [],
      "name": "clock",
      "outputs": [
        {
          "internalType": "uint48",
          "name": "",
          "type": "uint48"
        }
      ],
      "stateMutability": "view",
      "type": "function"
    },
    {
      "inputs": [],
      "name": "eip712Domain",
      "outputs": [
        {
          "internalType": "bytes1",
          "name": "fields",
          "type": "bytes1"
        },
        {
          "internalType": "string",
          "name": "name",
          "type": "string"
        },
        {
          "internalType": "string",
          "name": "version",
          "type": "string"
        },
        {
          "internalType": "uint256",
          "name": "chainId",
          "type": "uint256"
        },
        {
          "internalType": "address",
          "name": "verifyingContract",
          "type": "address"
        },
        {
          "internalType": "bytes32",
          "name": "salt",
          "type": "bytes32"
        },
        {
          "internalType": "uint256[]",
          "name": "extensions",
          "type": "uint256[]"
        }
      ],
      "stateMutability": "view",
      "type": "function"
    },
    {
      "inputs": [
        {
          "internalType": "address[]",
          "name": "targets",
          "type": "address[]"
        },
        {
          "internalType": "uint256[]",
          "name": "values",
          "type": "uint256[]"
        },
        {
          "internalType": "bytes[]",
          "name": "calldatas",
          "type": "bytes[]"
        },
        {
          "internalType": "bytes32",
          "name": "descriptionHash",
          "type": "bytes32"
        }
      ],
      "name": "execute",
      "outputs": [
        {
          "internalType": "uint256",
          "name": "",
          "type": "uint256"
        }
      ],
      "stateMutability": "payable",
      "type": "function"
    },
    {
      "inputs": [
        {
          "internalType": "address[]",
          "name": "targets",
          "type": "address[]"
        },
        {
          "internalType": "uint256[]",
          "name": "values",
          "type": "uint256[]"
        },
        {
          "internalType": "bytes[]",
          "name": "calldatas",
          "type": "bytes[]"
        },
        {
          "internalType": "bytes32",
          "name": "descriptionHash",
          "type": "bytes32"
        }
      ],
      "name": "getProposalId",
      "outputs": [
        {
          "internalType": "uint256",
          "name": "",
          "type": "uint256"
        }
      ],
      "stateMutability": "view",
      "type": "function"
    },
    {
      "inputs": [
        {
          "internalType": "address",
          "name": "account",
          "type": "address"
        },
        {
          "internalType": "uint256",
          "name": "timepoint",
          "type": "uint256"
        }
      ],
      "name": "getVotes",
      "outputs": [
        {
          "internalType": "uint256",
          "name": "",
          "type": "uint256"
        }
      ],
      "stateMutability": "view",
      "type": "function"
    },
    {
      "inputs": [
        {
          "internalType": "address",
          "name": "account",
          "type": "address"
        },
        {
          "internalType": "uint256",
          "name": "timepoint",
          "type": "uint256"
        },
        {
          "internalType": "bytes",
          "name": "params",
          "type": "bytes"
        }
      ],
      "name": "getVotesWithParams",
      "outputs": [
        {
          "internalType": "uint256",
          "name": "",
          "type": "uint256"
        }
      ],
      "stateMutability": "view",
      "type": "function"
    },
    {
      "inputs": [
        {
          "internalType": "uint256",
          "name": "proposalId",
          "type": "uint256"
        },
        {
          "internalType": "address",
          "name": "account",
          "type": "address"
        }
      ],
      "name": "hasVoted",
      "outputs": [
        {
          "internalType": "bool",
          "name": "",
          "type": "bool"
        }
      ],
      "stateMutability": "view",
      "type": "function"
    },
    {
      "inputs": [
        {
          "internalType": "address[]",
          "name": "targets",
          "type": "address[]"
        },
        {
          "internalType": "uint256[]",
          "name": "values",
          "type": "uint256[]"
        },
        {
          "internalType": "bytes[]",
          "name": "calldatas",
          "type": "bytes[]"
        },
        {
          "internalType": "bytes32",
          "name": "descriptionHash",
          "type": "bytes32"
        }
      ],
      "name": "hashProposal",
      "outputs": [
        {
          "internalType": "uint256",
          "name": "",
          "type": "uint256"
        }
      ],
      "stateMutability": "pure",
      "type": "function"
    },
    {
      "inputs": [
        {
          "internalType": "address",
          "name": "target",
          "type": "address"
        },
        {
          "internalType": "bytes4",
          "name": "selector",
          "type": "bytes4"
        }
      ],
      "name": "isAccessManagerIgnored",
      "outputs": [
        {
          "internalType": "bool",
          "name": "",
          "type": "bool"
        }
      ],
      "stateMutability": "view",
      "type": "function"
    },
    {
      "inputs": [],
      "name": "name",
      "outputs": [
        {
          "internalType": "string",
          "name": "",
          "type": "string"
        }
      ],
      "stateMutability": "view",
      "type": "function"
    },
    {
      "inputs": [],
      "name": "nonGovernanceFunction",
      "outputs": [],
      "stateMutability": "nonpayable",
      "type": "function"
    },
    {
      "inputs": [
        {
          "internalType": "address",
          "name": "owner",
          "type": "address"
        }
      ],
      "name": "nonces",
      "outputs": [
        {
          "internalType": "uint256",
          "name": "",
          "type": "uint256"
        }
      ],
      "stateMutability": "view",
      "type": "function"
    },
    {
      "inputs": [
        {
          "internalType": "address",
          "name": "",
          "type": "address"
        },
        {
          "internalType": "address",
          "name": "",
          "type": "address"
        },
        {
          "internalType": "uint256[]",
          "name": "",
          "type": "uint256[]"
        },
        {
          "internalType": "uint256[]",
          "name": "",
          "type": "uint256[]"
        },
        {
          "internalType": "bytes",
          "name": "",
          "type": "bytes"
        }
      ],
      "name": "onERC1155BatchReceived",
      "outputs": [
        {
          "internalType": "bytes4",
          "name": "",
          "type": "bytes4"
        }
      ],
      "stateMutability": "nonpayable",
      "type": "function"
    },
    {
      "inputs": [
        {
          "internalType": "address",
          "name": "",
          "type": "address"
        },
        {
          "internalType": "address",
          "name": "",
          "type": "address"
        },
        {
          "internalType": "uint256",
          "name": "",
          "type": "uint256"
        },
        {
          "internalType": "uint256",
          "name": "",
          "type": "uint256"
        },
        {
          "internalType": "bytes",
          "name": "",
          "type": "bytes"
        }
      ],
      "name": "onERC1155Received",
      "outputs": [
        {
          "internalType": "bytes4",
          "name": "",
          "type": "bytes4"
        }
      ],
      "stateMutability": "nonpayable",
      "type": "function"
    },
    {
      "inputs": [
        {
          "internalType": "address",
          "name": "",
          "type": "address"
        },
        {
          "internalType": "address",
          "name": "",
          "type": "address"
        },
        {
          "internalType": "uint256",
          "name": "",
          "type": "uint256"
        },
        {
          "internalType": "bytes",
          "name": "",
          "type": "bytes"
        }
      ],
      "name": "onERC721Received",
      "outputs": [
        {
          "internalType": "bytes4",
          "name": "",
          "type": "bytes4"
        }
      ],
      "stateMutability": "nonpayable",
      "type": "function"
    },
    {
      "inputs": [
        {
          "internalType": "uint256",
          "name": "proposalId",
          "type": "uint256"
        }
      ],
      "name": "proposalDeadline",
      "outputs": [
        {
          "internalType": "uint256",
          "name": "",
          "type": "uint256"
        }
      ],
      "stateMutability": "view",
      "type": "function"
    },
    {
      "inputs": [
        {
          "internalType": "uint256",
          "name": "proposalId",
          "type": "uint256"
        }
      ],
      "name": "proposalEta",
      "outputs": [
        {
          "internalType": "uint256",
          "name": "",
          "type": "uint256"
        }
      ],
      "stateMutability": "view",
      "type": "function"
    },
    {
      "inputs": [
        {
          "internalType": "uint256",
          "name": "proposalId",
          "type": "uint256"
        }
      ],
      "name": "proposalExecutionPlan",
      "outputs": [
        {
          "internalType": "uint32",
          "name": "delay",
          "type": "uint32"
        },
        {
          "internalType": "bool[]",
          "name": "indirect",
          "type": "bool[]"
        },
        {
          "internalType": "bool[]",
          "name": "withDelay",
          "type": "bool[]"
        }
      ],
      "stateMutability": "view",
      "type": "function"
    },
    {
      "inputs": [
        {
          "internalType": "uint256",
          "name": "proposalId",
          "type": "uint256"
        }
      ],
      "name": "proposalNeedsQueuing",
      "outputs": [
        {
          "internalType": "bool",
          "name": "",
          "type": "bool"
        }
      ],
      "stateMutability": "view",
      "type": "function"
    },
    {
      "inputs": [
        {
          "internalType": "uint256",
          "name": "proposalId",
          "type": "uint256"
        }
      ],
      "name": "proposalProposer",
      "outputs": [
        {
          "internalType": "address",
          "name": "",
          "type": "address"
        }
      ],
      "stateMutability": "view",
      "type": "function"
    },
    {
      "inputs": [
        {
          "internalType": "uint256",
          "name": "proposalId",
          "type": "uint256"
        }
      ],
      "name": "proposalSnapshot",
      "outputs": [
        {
          "internalType": "uint256",
          "name": "",
          "type": "uint256"
        }
      ],
      "stateMutability": "view",
      "type": "function"
    },
    {
      "inputs": [],
      "name": "proposalThreshold",
      "outputs": [
        {
          "internalType": "uint256",
          "name": "",
          "type": "uint256"
        }
      ],
      "stateMutability": "view",
      "type": "function"
    },
    {
      "inputs": [
        {
          "internalType": "uint256",
          "name": "proposalId",
          "type": "uint256"
        }
      ],
      "name": "proposalVotes",
      "outputs": [
        {
          "internalType": "uint256",
          "name": "againstVotes",
          "type": "uint256"
        },
        {
          "internalType": "uint256",
          "name": "forVotes",
          "type": "uint256"
        },
        {
          "internalType": "uint256",
          "name": "abstainVotes",
          "type": "uint256"
        }
      ],
      "stateMutability": "view",
      "type": "function"
    },
    {
      "inputs": [
        {
          "internalType": "address[]",
          "name": "targets",
          "type": "address[]"
        },
        {
          "internalType": "uint256[]",
          "name": "values",
          "type": "uint256[]"
        },
        {
          "internalType": "bytes[]",
          "name": "calldatas",
          "type": "bytes[]"
        },
        {
          "internalType": "string",
          "name": "description",
          "type": "string"
        }
      ],
      "name": "propose",
      "outputs": [
        {
          "internalType": "uint256",
          "name": "",
          "type": "uint256"
        }
      ],
      "stateMutability": "nonpayable",
      "type": "function"
    },
    {
      "inputs": [
        {
          "internalType": "address[]",
          "name": "targets",
          "type": "address[]"
        },
        {
          "internalType": "uint256[]",
          "name": "values",
          "type": "uint256[]"
        },
        {
          "internalType": "bytes[]",
          "name": "calldatas",
          "type": "bytes[]"
        },
        {
          "internalType": "bytes32",
          "name": "descriptionHash",
          "type": "bytes32"
        }
      ],
      "name": "queue",
      "outputs": [
        {
          "internalType": "uint256",
          "name": "",
          "type": "uint256"
        }
      ],
      "stateMutability": "nonpayable",
      "type": "function"
    },
    {
      "inputs": [
        {
          "internalType": "uint256",
          "name": "blockNumber",
          "type": "uint256"
        }
      ],
      "name": "quorum",
      "outputs": [
        {
          "internalType": "uint256",
          "name": "",
          "type": "uint256"
        }
      ],
      "stateMutability": "view",
      "type": "function"
    },
    {
      "inputs": [],
      "name": "quorumDenominator",
      "outputs": [
        {
          "internalType": "uint256",
          "name": "",
          "type": "uint256"
        }
      ],
      "stateMutability": "view",
      "type": "function"
    },
    {
      "inputs": [
        {
          "internalType": "uint256",
          "name": "timepoint",
          "type": "uint256"
        }
      ],
      "name": "quorumNumerator",
      "outputs": [
        {
          "internalType": "uint256",
          "name": "",
          "type": "uint256"
        }
      ],
      "stateMutability": "view",
      "type": "function"
    },
    {
      "inputs": [],
      "name": "quorumNumerator",
      "outputs": [
        {
          "internalType": "uint256",
          "name": "",
          "type": "uint256"
        }
      ],
      "stateMutability": "view",
      "type": "function"
    },
    {
      "inputs": [
        {
          "internalType": "address",
          "name": "target",
          "type": "address"
        },
        {
          "internalType": "uint256",
          "name": "value",
          "type": "uint256"
        },
        {
          "internalType": "bytes",
          "name": "data",
          "type": "bytes"
        }
      ],
      "name": "relay",
      "outputs": [],
      "stateMutability": "payable",
      "type": "function"
    },
    {
      "inputs": [
        {
          "internalType": "address",
          "name": "target",
          "type": "address"
        },
        {
          "internalType": "bytes4[]",
          "name": "selectors",
          "type": "bytes4[]"
        },
        {
          "internalType": "bool",
          "name": "ignored",
          "type": "bool"
        }
      ],
      "name": "setAccessManagerIgnored",
      "outputs": [],
      "stateMutability": "nonpayable",
      "type": "function"
    },
    {
      "inputs": [
        {
          "internalType": "uint32",
          "name": "newBaseDelay",
          "type": "uint32"
        }
      ],
      "name": "setBaseDelaySeconds",
      "outputs": [],
      "stateMutability": "nonpayable",
      "type": "function"
    },
    {
      "inputs": [
        {
          "internalType": "uint256",
          "name": "newProposalThreshold",
          "type": "uint256"
        }
      ],
      "name": "setProposalThreshold",
      "outputs": [],
      "stateMutability": "nonpayable",
      "type": "function"
    },
    {
      "inputs": [
        {
          "internalType": "uint48",
          "name": "newVotingDelay",
          "type": "uint48"
        }
      ],
      "name": "setVotingDelay",
      "outputs": [],
      "stateMutability": "nonpayable",
      "type": "function"
    },
    {
      "inputs": [
        {
          "internalType": "uint32",
          "name": "newVotingPeriod",
          "type": "uint32"
        }
      ],
      "name": "setVotingPeriod",
      "outputs": [],
      "stateMutability": "nonpayable",
      "type": "function"
    },
    {
      "inputs": [
        {
          "internalType": "uint256",
          "name": "proposalId",
          "type": "uint256"
        }
      ],
      "name": "state",
      "outputs": [
        {
          "internalType": "enum IGovernor.ProposalState",
          "name": "",
          "type": "uint8"
        }
      ],
      "stateMutability": "view",
      "type": "function"
    },
    {
      "inputs": [
        {
          "internalType": "bytes4",
          "name": "interfaceId",
          "type": "bytes4"
        }
      ],
      "name": "supportsInterface",
      "outputs": [
        {
          "internalType": "bool",
          "name": "",
          "type": "bool"
        }
      ],
      "stateMutability": "view",
      "type": "function"
    },
    {
      "inputs": [],
      "name": "token",
      "outputs": [
        {
          "internalType": "contract IERC5805",
          "name": "",
          "type": "address"
        }
      ],
      "stateMutability": "view",
      "type": "function"
    },
    {
      "inputs": [
        {
          "internalType": "uint256",
          "name": "newQuorumNumerator",
          "type": "uint256"
        }
      ],
      "name": "updateQuorumNumerator",
      "outputs": [],
      "stateMutability": "nonpayable",
      "type": "function"
    },
    {
      "inputs": [],
      "name": "version",
      "outputs": [
        {
          "internalType": "string",
          "name": "",
          "type": "string"
        }
      ],
      "stateMutability": "view",
      "type": "function"
    },
    {
      "inputs": [],
      "name": "votingDelay",
      "outputs": [
        {
          "internalType": "uint256",
          "name": "",
          "type": "uint256"
        }
      ],
      "stateMutability": "view",
      "type": "function"
    },
    {
      "inputs": [],
      "name": "votingPeriod",
      "outputs": [
        {
          "internalType": "uint256",
          "name": "",
          "type": "uint256"
        }
      ],
      "stateMutability": "view",
      "type": "function"
    },
    {
      "stateMutability": "payable",
      "type": "receive"
    }
  ],
  "bytecode": "0x6101a0604052604051620067fd380380620067fd83398101604081905262000027916200079a565b808285858a8a8a8e806200004f6040805180820190915260018152603160f81b602082015290565b6200005b825f62000179565b610120526200006c81600162000179565b61014052815160208084019190912060e052815190820120610100524660a052620000f960e05161010051604080517f8b73c3c69bb8fe3d512ecc4cf759cc79239f7b179b0ffacaa9a75d522b39400f60208201529081019290925260608201524660808201523060a08201525f9060c00160405160208183030381529060405280519060200120905090565b60805250503060c052600362000110828262000947565b506200011e905083620001b1565b620001298262000217565b6200013481620002bc565b5050506001600160a01b038216610160526200015081620002fd565b50506001600160a01b0316610180526200016a816200035d565b50505050505050505062000aa7565b5f60208351101562000198576200019083620003fc565b9050620001ab565b81620001a5848262000947565b5060ff90505b92915050565b6008546040805165ffffffffffff928316815291831660208301527fc565b045403dc03c2eea82b81a0465edad9e2e7fc4d97e11421c209da93d7a93910160405180910390a16008805465ffffffffffff191665ffffffffffff92909216919091179055565b8063ffffffff165f03620002455760405163f1cfbf0560e01b81525f60048201526024015b60405180910390fd5b6008546040805163ffffffff66010000000000009093048316815291831660208301527f7e3f7f0708a84de9203036abaa450dccc85ad5ff52f78c170f3edb55cf5e8828910160405180910390a16008805463ffffffff90921666010000000000000263ffffffff60301b19909216919091179055565b60075460408051918252602082018390527fccb45da8d5717e6c4544694297c4ba5cf151d455c9bb0ed4fc7a38411bc05461910160405180910390a1600755565b600b546040805163ffffffff928316815291831660208301527f65135e4d9e214a272631f85c3ab68685271bccecf1ad1336709c14e139b3328d910160405180910390a1600b805463ffffffff191663ffffffff92909216919091179055565b6064808211156200038c5760405163243e544560e01b815260048101839052602481018290526044016200023c565b5f620003976200043e565b9050620003bc620003a762000459565b620003b285620004da565b600c919062000513565b505060408051828152602081018590527f0553476bf02ef2726e8ce5ced78d63e26e602e4a2257b1f559418e24b4633997910160405180910390a1505050565b5f80829050601f8151111562000429578260405163305a27a960e01b81526004016200023c919062000a13565b8051620004368262000a47565b179392505050565b5f6200044b600c6200052f565b6001600160d01b0316905090565b5f620004656101805190565b6001600160a01b03166391ddadf46040518163ffffffff1660e01b8152600401602060405180830381865afa925050508015620004c1575060408051601f3d908101601f19168201909252620004be9181019062000a6b565b60015b620004d557620004d06200057c565b905090565b919050565b5f6001600160d01b038211156200050f576040516306dfcc6560e41b815260d06004820152602481018390526044016200023c565b5090565b5f806200052285858562000588565b915091505b935093915050565b80545f908015620005735762000559836200054c60018462000a87565b5f91825260209091200190565b54660100000000000090046001600160d01b031662000575565b5f5b9392505050565b5f620004d043620006ed565b82545f90819080156200068f575f620005a8876200054c60018562000a87565b805490915065ffffffffffff80821691660100000000000090046001600160d01b0316908816821115620005ef57604051632520601d60e01b815260040160405180910390fd5b8765ffffffffffff168265ffffffffffff16036200062d57825465ffffffffffff1666010000000000006001600160d01b0389160217835562000680565b6040805180820190915265ffffffffffff808a1682526001600160d01b03808a1660208085019182528d54600181018f555f8f815291909120945191519092166601000000000000029216919091179101555b94508593506200052792505050565b50506040805180820190915265ffffffffffff80851682526001600160d01b0380851660208085019182528854600181018a555f8a815291822095519251909316660100000000000002919093161792019190915590508162000527565b5f65ffffffffffff8211156200050f576040516306dfcc6560e41b815260306004820152602481018390526044016200023c565b634e487b7160e01b5f52604160045260245ffd5b5f5b838110156200075157818101518382015260200162000737565b50505f910152565b805165ffffffffffff81168114620004d5575f80fd5b805163ffffffff81168114620004d5575f80fd5b80516001600160a01b0381168114620004d5575f80fd5b5f805f805f805f80610100898b031215620007b3575f80fd5b88516001600160401b0380821115620007ca575f80fd5b818b0191508b601f830112620007de575f80fd5b815181811115620007f357620007f362000721565b604051601f8201601f19908116603f011681019083821181831017156200081e576200081e62000721565b816040528281528e602084870101111562000837575f80fd5b6200084a83602083016020880162000735565b809c5050505050506200086060208a0162000759565b96506200087060408a016200076f565b9550606089015194506200088760808a0162000783565b93506200089760a08a016200076f565b9250620008a760c08a0162000783565b915060e089015190509295985092959890939650565b600181811c90821680620008d257607f821691505b602082108103620008f157634e487b7160e01b5f52602260045260245ffd5b50919050565b601f8211156200094257805f5260205f20601f840160051c810160208510156200091e5750805b601f840160051c820191505b818110156200093f575f81556001016200092a565b50505b505050565b81516001600160401b0381111562000963576200096362000721565b6200097b81620009748454620008bd565b84620008f7565b602080601f831160018114620009b1575f8415620009995750858301515b5f19600386901b1c1916600185901b17855562000a0b565b5f85815260208120601f198616915b82811015620009e157888601518255948401946001909101908401620009c0565b5085821015620009ff57878501515f19600388901b60f8161c191681555b505060018460011b0185555b505050505050565b602081525f825180602084015262000a3381604085016020870162000735565b601f01601f19169190910160400192915050565b80516020808301519190811015620008f1575f1960209190910360031b1b16919050565b5f6020828403121562000a7c575f80fd5b620005758262000759565b81810381811115620001ab57634e487b7160e01b5f52601160045260245ffd5b60805160a05160c05160e0516101005161012051610140516101605161018051615caa62000b535f395f8181610fdb0152818161185801528181611f9c015281816130da015261332401525f818161102c0152818161301b01528181613558015281816136e60152818161395201528181613a2a0152613aaf01525f61262101525f61258801525f612d7e01525f612d5601525f612cb101525f612cdb01525f612d050152615caa5ff3fe6080604052600436106104b3575f3560e01c806360c4247f1161026d578063b58131b01161014a578063e488ade1116100be578063f23a6e6111610083578063f23a6e6114610f64578063f7a2e6e114610f8f578063f8ce560a14610fae578063fc0c546a14610fcd578063fc2e6e3c14610fff578063fdcb60681461101e575f80fd5b8063e488ade114610ec9578063e540d01d14610ee8578063e7fadc1614610f07578063eb9019d414610f26578063ece40cc114610f45575f80fd5b8063c59057e41161010f578063c59057e414610dd5578063cbc1c5f314610df4578063cc3bac5714610e13578063daf80f5f14610e32578063dd4e2ba514610e51578063deaaa7cc14610e96575f80fd5b8063b58131b014610d45578063bc197c8114610d59578063c01f9e3714610d84578063c242bfc714610da3578063c28bc2fa14610dc2575f80fd5b80638ff262e3116101e1578063a0710f05116101a6578063a0710f0514610c81578063a15697c414610c9e578063a7713a7014610cbd578063a8f8a66814610cd1578063a9a9529414610cf0578063ab58fb8e14610d0f575f80fd5b80638ff262e314610be657806391ddadf414610c0557806397c3d33414610c305780639a802a6d14610c435780639e3db5e914610c62575f80fd5b806379051887116102325780637905188714610b0f5780637b3c71d314610b2e5780637d5e81e214610b4d5780637ecebe0014610b6c57806382e4938614610ba057806384b0196e14610bbf575f80fd5b806360c4247f14610a8157806367354a8414610aa05780636b2f5df014610ab25780636b4ac50214610ad15780637235294514610af0575f80fd5b80633622cf581161039b578063544ffc9c1161030f5780635b8d0e0d116102d45780635b8d0e0d146109dd5780635c501ba8146109fc5780635c93b6ec14610a105780635d555a1e14610a2f5780635f398a1414610a4e5780635f8d5e7414610a6d575f80fd5b8063544ffc9c146108ff57806354dc7b411461095257806354fd4d5014610971578063567813881461099a57806357552fcb146109b9575f80fd5b806343859632116103605780634385963214610834578063452115d61461087c5780634724aa991461089b5780634abf4684146108ad5780634bf5d7e9146108cc578063506a6f0c146108e0575f80fd5b80633622cf581461079457806336369547146107b35780633932abb1146107e15780633e4f49e6146107fd578063417491db14610829575f80fd5b8063160cbed7116104325780632e8fbee5116103f75780632e8fbee5146106cb5780632f2b6caa146106ea5780632fe3e2611461070957806332cadf3c1461073c57806332f4dd9914610750578063342db7391461076f575f80fd5b8063160cbed714610654578063174ccd82146106735780632656227d146106875780632904df291461069a5780632d63f693146106ac575f80fd5b80630a2a550d116104785780630a2a550d146105735780630ede0bea146105925780631164d13b146105b1578063143489d0146105c5578063150b7a0214610611575f80fd5b806301ffc9a7146104c057806302a251a3146104f4578063046263441461051f57806306f3f9e61461053357806306fdde0314610552575f80fd5b366104bc57005b005b5f80fd5b3480156104cb575f80fd5b506104df6104da36600461466a565b611050565b60405190151581526020015b60405180910390f35b3480156104ff575f80fd5b50600854600160301b900463ffffffff165b6040519081526020016104eb565b34801561052a575f80fd5b506104ba6110bc565b34801561053e575f80fd5b506104ba61054d366004614683565b6110c6565b34801561055d575f80fd5b506105666110d7565b6040516104eb91906146e7565b34801561057e575f80fd5b506104ba61058d36600461470a565b611167565b34801561059d575f80fd5b506104ba6105ac36600461470a565b611178565b3480156105bc575f80fd5b50610566611181565b3480156105d0575f80fd5b506105f96105df366004614683565b5f908152600460205260409020546001600160a01b031690565b6040516001600160a01b0390911681526020016104eb565b34801561061c575f80fd5b5061063b61062b3660046147fe565b630a85bd0160e11b949350505050565b6040516001600160e01b031990911681526020016104eb565b34801561065f575f80fd5b5061051161066e3660046149da565b611190565b34801561067e575f80fd5b5061056661125c565b6105116106953660046149da565b611266565b3480156106a5575f80fd5b50336105f9565b3480156106b7575f80fd5b506105116106c6366004614683565b61138e565b3480156106d6575f80fd5b506105116106e5366004614a63565b6113ae565b3480156106f5575f80fd5b506104ba610704366004614ac3565b6113f8565b348015610714575f80fd5b506105117f3e83946653575f9a39005e1545185629e92736b7528ab20ca3816f315424a81181565b348015610747575f80fd5b5061056661147b565b34801561075b575f80fd5b5061051161076a366004614bb2565b6114b8565b34801561077a575f80fd5b506105116e1a185c991a185d0b595e1c1bdcd959608a1b81565b34801561079f575f80fd5b506104ba6107ae36600461470a565b61116f565b3480156107be575f80fd5b506107d26107cd366004614683565b611573565b6040516104eb93929190614c81565b3480156107ec575f80fd5b5060085465ffffffffffff16610511565b348015610808575f80fd5b5061081c610817366004614683565b611697565b6040516104eb9190614ce5565b3480156104ba575f80fd5b34801561083f575f80fd5b506104df61084e366004614cf3565b5f828152600d602090815260408083206001600160a01b038516845260030190915290205460ff1692915050565b348015610887575f80fd5b506105116108963660046149da565b6117cd565b3480156108a6575f80fd5b50306105f9565b3480156108b8575f80fd5b506104df6108c7366004614683565b611839565b3480156108d7575f80fd5b50610566611854565b3480156108eb575f80fd5b506105116108fa366004614683565b611914565b34801561090a575f80fd5b50610937610919366004614683565b5f908152600d60205260409020805460018201546002909201549092565b604080519384526020840192909252908201526060016104eb565b34801561095d575f80fd5b506104df61096c366004614d1d565b61191e565b34801561097c575f80fd5b506040805180820190915260018152603160f81b6020820152610566565b3480156109a5575f80fd5b506105116109b4366004614d6b565b611966565b3480156109c4575f80fd5b50600b5460405163ffffffff90911681526020016104eb565b3480156109e8575f80fd5b506105116109f7366004614d8c565b611985565b348015610a07575f80fd5b50610566611ac4565b348015610a1b575f80fd5b50610511610a2a366004614e3c565b611ada565b348015610a3a575f80fd5b506104ba610a49366004614f12565b611bd2565b348015610a59575f80fd5b50610511610a68366004614f56565b611be2565b348015610a78575f80fd5b50610511611c35565b348015610a8c575f80fd5b50610511610a9b366004614683565b611c3e565b348015610aab575f80fd5b505f610511565b348015610abd575f80fd5b50610511610acc366004614fd3565b611cca565b348015610adc575f80fd5b506104ba610aeb36600461506d565b611d76565b348015610afb575f80fd5b50610511610b0a366004615095565b611d84565b348015610b1a575f80fd5b506104ba610b29366004615111565b611df9565b348015610b39575f80fd5b50610511610b4836600461512c565b611e0a565b348015610b58575f80fd5b50610511610b67366004615181565b611e50565b348015610b77575f80fd5b50610511610b86366004614a63565b6001600160a01b03165f9081526002602052604090205490565b348015610bab575f80fd5b506104df610bba36600461522d565b611e66565b348015610bca575f80fd5b50610bd3611ea5565b6040516104eb9796959493929190615284565b348015610bf1575f80fd5b50610511610c003660046152f3565b611ee7565b348015610c10575f80fd5b50610c19611f99565b60405165ffffffffffff90911681526020016104eb565b348015610c3b575f80fd5b506064610511565b348015610c4e575f80fd5b50610511610c5d36600461533e565b612020565b348015610c6d575f80fd5b506104ba610c7c366004614683565b6110ce565b348015610c8c575f80fd5b506104ba610c9b366004614683565b50565b348015610ca9575f80fd5b50610511610cb8366004615390565b612033565b348015610cc8575f80fd5b5061051161203d565b348015610cdc575f80fd5b50610511610ceb3660046149da565b612056565b348015610cfb575f80fd5b506104df610d0a366004614683565b612063565b348015610d1a575f80fd5b50610511610d29366004614683565b5f9081526004602052604090206001015465ffffffffffff1690565b348015610d50575f80fd5b50610511612084565b348015610d64575f80fd5b5061063b610d733660046153ae565b63bc197c8160e01b95945050505050565b348015610d8f575f80fd5b50610511610d9e366004614683565b61208e565b348015610dae575f80fd5b50610511610dbd366004615436565b6120d0565b6104ba610dd03660046154a8565b612158565b348015610de0575f80fd5b50610511610def3660046149da565b6121d4565b348015610dff575f80fd5b50610511610e0e3660046154a8565b61220d565b348015610e1e575f80fd5b506104ba610e2d3660046154e5565b61224e565b348015610e3d575f80fd5b506104df610e4c366004614683565b6122a0565b348015610e5c575f80fd5b506040805180820190915260208082527f737570706f72743d627261766f2671756f72756d3d666f722c6162737461696e90820152610566565b348015610ea1575f80fd5b506105117ff2aad550cf55f045cb27e9c559f9889fdfb6e6cdaa032301d6ea397784ae51d781565b348015610ed4575f80fd5b5061081c610ee3366004615546565b6122aa565b348015610ef3575f80fd5b506104ba610f0236600461470a565b6122b5565b348015610f12575f80fd5b506104ba610f21366004615111565b611e01565b348015610f31575f80fd5b50610511610f4036600461506d565b6122bd565b348015610f50575f80fd5b506104ba610f5f366004614683565b6122dc565b348015610f6f575f80fd5b5061063b610f7e366004615566565b63f23a6e6160e01b95945050505050565b348015610f9a575f80fd5b50610c19610fa9366004614ac3565b6122ed565b348015610fb9575f80fd5b50610511610fc8366004614683565b6123b1565b348015610fd8575f80fd5b507f00000000000000000000000000000000000000000000000000000000000000006105f9565b34801561100a575f80fd5b506104ba611019366004614683565b6122e4565b348015611029575f80fd5b507f00000000000000000000000000000000000000000000000000000000000000006105f9565b5f6001600160e01b031982166366defe7760e11b148061108057506001600160e01b031982166332a2ad4360e11b145b8061109b57506001600160e01b03198216630271189760e51b145b806110b657506301ffc9a760e01b6001600160e01b03198316145b92915050565b6110c46123bb565b565b6110ce6123bb565b610c9b816123f0565b6060600380546110e6906155c5565b80601f0160208091040260200160405190810160405280929190818152602001828054611112906155c5565b801561115d5780601f106111345761010080835404028352916020019161115d565b820191905f5260205f20905b81548152906001019060200180831161114057829003601f168201915b5050505050905090565b61116f6123bb565b610c9b81612485565b610c9b816124e5565b606061118b612581565b905090565b5f8061119e86868686612056565b90506111b3816111ae60046125ad565b6125cf565b505f6111c2828888888861260c565b905065ffffffffffff811615611239575f82815260046020908152604091829020600101805465ffffffffffff191665ffffffffffff85169081179091558251858152918201527f9a2e42fd6722813d69113e7d0079d3d940171428df7373df9c7f7617cfda2892910160405180910390a1611252565b604051634844252360e11b815260040160405180910390fd5b5095945050505050565b606061118b61261a565b5f8061127486868686612056565b90506112948161128460056125ad565b61128e60046125ad565b176125cf565b505f818152600460205260409020805460ff60f01b1916600160f01b179055306112bb3090565b6001600160a01b031614611344575f5b865181101561134257306001600160a01b03168782815181106112f0576112f06155fd565b60200260200101516001600160a01b03160361133a5761133a85828151811061131b5761131b6155fd565b602002602001015180519060200120600561264790919063ffffffff16565b6001016112cb565b505b61135181878787876126a8565b6040518181527f712ae1383f79ac853f8d882153778e0260ef8f03b504e2866e0593e04d2b291f906020015b60405180910390a195945050505050565b5f90815260046020526040902054600160a01b900465ffffffffffff1690565b5f6113b8826126b5565b90507f8d5c13b1cd528a3e1895fdc833368c4e3af5391250c736a28e94c4fa59b3cee4816040516113eb91815260200190565b60405180910390a1919050565b611471888888808060200260200160405190810160405280939291908181526020018383602002808284375f9201919091525050604080516020808c0282810182019093528b82529093508b92508a9182918501908490808284375f9201919091525061146b9250889150899050615611565b856126a8565b5050505050505050565b60605f368080601f0160208091040260200160405190810160405280939291908181526020018383808284375f9201919091525092949350505050565b5f61152d88888888888080601f0160208091040260200160405190810160405280939291908181526020018383808284375f9201919091525050604080516020601f8c018190048102820181019092528a815292508a91508990819084018382808284375f920191909152506126d792505050565b90507fbbc294ee3436818a3742886cdeae66253f76b5be8870371c691fc6998bd341d58160405161156091815260200190565b60405180910390a1979650505050505050565b5f818152600a60205260409020805463ffffffff620100008204169160609182919061ffff16806001600160401b038111156115b1576115b161473b565b6040519080825280602002602001820160405280156115da578160200160208202803683370190505b5093508063ffffffff166001600160401b038111156115fb576115fb61473b565b604051908082528060200260200182016040528015611624578160200160208202803683370190505b5092505f5b8163ffffffff1681101561168d5761164183826127b5565b50868381518110611654576116546155fd565b6020026020010186848151811061166d5761166d6155fd565b921515602093840291909101909201919091529015159052600101611629565b5050509193909250565b5f818152600460205260408120805460ff600160f01b8204811691600160f81b90041681156116cb57506007949350505050565b80156116dc57506002949350505050565b5f6116e68661138e565b9050805f0361171057604051636ad0607560e01b8152600481018790526024015b60405180910390fd5b5f611719611f99565b65ffffffffffff16905080821061173657505f9695505050505050565b5f6117408861208e565b905081811061175757506001979650505050505050565b6117608861282f565b158061177f57505f888152600d60205260409020805460019091015411155b1561179257506003979650505050505050565b5f8881526004602052604090206001015465ffffffffffff165f036117bf57506004979650505050505050565b506005979650505050505050565b5f806117db86868686612056565b90506117ea816111ae5f6125ad565b505f818152600460205260409020546001600160a01b031633146118235760405163233d98e360e01b8152336004820152602401611707565b61182f86868686612865565b9695505050505050565b5f818152600d602052604081208054600190910154116110b6565b60607f00000000000000000000000000000000000000000000000000000000000000006001600160a01b0316634bf5d7e96040518163ffffffff1660e01b81526004015f60405180830381865afa9250505080156118d357506040513d5f823e601f3d908101601f191682016040526118d0919081019061561d565b60015b61190f575060408051808201909152601d81527f6d6f64653d626c6f636b6e756d6265722666726f6d3d64656661756c74000000602082015290565b919050565b5f6110b682612872565b5f61195e8484848080601f0160208091040260200160405190810160405280939291908181526020018383808284375f9201919091525061289e92505050565b949350505050565b5f8033905061195e84828560405180602001604052805f815250612922565b5f80611a4987611a437f3e83946653575f9a39005e1545185629e92736b7528ab20ca3816f315424a8118c8c8c6119bb8e6126b5565b8d8d6040516119cb929190615685565b60405180910390208c80519060200120604051602001611a289796959493929190968752602087019590955260ff9390931660408601526001600160a01b03919091166060850152608084015260a083015260c082015260e00190565b60405160208183030381529060405280519060200120612872565b85612943565b905080611a74576040516394ab6c0760e01b81526001600160a01b0388166004820152602401611707565b611ab789888a89898080601f0160208091040260200160405190810160405280939291908181526020018383808284375f920191909152508b92506126d7915050565b9998505050505050505050565b606061118b60408051602081019091525f815290565b5f611b8a8a8a808060200260200160405190810160405280939291908181526020018383602002808284375f9201919091525050604080516020808e0282810182019093528d82529093508d92508c9182918501908490808284375f92019190915250611b4d92508a91508b9050615611565b87878080601f0160208091040260200160405190810160405280939291908181526020018383808284375f920191909152508992506129b3915050565b90507f42716af29aa8f33be8115e9e3188a11f6a7e7d5be696f229f0762e50b2a8bda781604051611bbd91815260200190565b60405180910390a19998505050505050505050565b611bdd838383612bd6565b505050565b5f80339050611c2a87828888888080601f0160208091040260200160405190810160405280939291908181526020018383808284375f920191909152508a92506126d7915050565b979650505050505050565b5f61118b612ca5565b600c80545f918290611c516001846156a8565b81548110611c6157611c616155fd565b5f918252602090912001805490915065ffffffffffff811690600160301b90046001600160d01b0316858211611ca3576001600160d01b031695945050505050565b611cb7611caf87612dce565b600c90612e04565b6001600160d01b03169695505050505050565b5f611d438888808060200260200160405190810160405280939291908181526020018383602002808284375f9201919091525050604080516020808c0282810182019093528b82529093508b92508a9182918501908490808284375f92019190915250611d3d9250889150899050615611565b85612865565b90507f1e0d283ef767dcb5f9efcfe0fbcac2701275d0c54fc3493502558dc018cc3ba28160405161156091815260200190565b611d808282612eb3565b5050565b5f611dc686868686868080601f0160208091040260200160405190810160405280939291908181526020018383808284375f9201919091525061292292505050565b90507fdbf058c917126a478393ed3aa13dcdc461cc19db88c176507846e6f69ca627f98160405161137d91815260200190565b611e016123bb565b610c9b81612ef1565b5f8033905061182f86828787878080601f0160208091040260200160405190810160405280939291908181526020018383808284375f9201919091525061292292505050565b5f611e5d85858585612f57565b95945050505050565b6001600160a01b0382165f8181526009602090815260408083206001600160e01b03198616845290915290205460ff1615153091909114141592915050565b5f6060805f805f6060611eb6612581565b611ebe61261a565b604080515f80825260208201909252600f60f81b9b939a50919850469750309650945092509050565b5f80611f5484611a437ff2aad550cf55f045cb27e9c559f9889fdfb6e6cdaa032301d6ea397784ae51d7898989611f1d8b6126b5565b60408051602081019690965285019390935260ff90911660608401526001600160a01b0316608083015260a082015260c001611a28565b905080611f7f576040516394ab6c0760e01b81526001600160a01b0385166004820152602401611707565b61182f86858760405180602001604052805f815250612922565b5f7f00000000000000000000000000000000000000000000000000000000000000006001600160a01b03166391ddadf46040518163ffffffff1660e01b8152600401602060405180830381865afa925050508015612014575060408051601f3d908101601f19168201909252612011918101906156bb565b60015b61190f5761118b6130cd565b5f61195e8484846130d7565b9392505050565b5f6110b6826125ad565b5f612048600c61316a565b6001600160d01b0316905090565b5f611e5d858585856121d4565b5f818152600a602052604081205462010000900463ffffffff1615156110b6565b5f61118b60075490565b5f818152600460205260408120546120c290600160d01b810463ffffffff1690600160a01b900465ffffffffffff166156d6565b65ffffffffffff1692915050565b5f6121138787878787878080601f0160208091040260200160405190810160405280939291908181526020018383808284375f920191909152506131a192505050565b90507fa17eff957f965c6ee26364f81c85c7f8c62294b8ae4ea17224d2ed00a9c882ae8160405161214691815260200190565b60405180910390a19695505050505050565b6121606123bb565b5f80856001600160a01b031685858560405161217d929190615685565b5f6040518083038185875af1925050503d805f81146121b7576040519150601f19603f3d011682016040523d82523d5f602084013e6121bc565b606091505b50915091506121cb828261329d565b50505050505050565b5f848484846040516020016121ec949392919061578c565b60408051601f19818403018152919052805160209091012095945050505050565b5f611e5d858585858080601f0160208091040260200160405190810160405280939291908181526020018383808284375f920191909152506130d792505050565b6122566123bb565b5f5b828110156122995761229185858584818110612276576122766155fd565b905060200201602081019061228b919061466a565b84612bd6565b600101612258565b5050505050565b5f6110b68261282f565b5f61202c83836125cf565b6111786123bb565b5f61202c83836122d760408051602081019091525f815290565b6130d7565b6122e46123bb565b610c9b816132b9565b5f612367898989808060200260200160405190810160405280939291908181526020018383602002808284375f9201919091525050604080516020808d0282810182019093528c82529093508c92508b9182918501908490808284375f9201919091525061236192508991508a9050615611565b8661260c565b60405165ffffffffffff821681529091507fc7d48239722ab43f0d322d3bc5b9c80a10ed2b31ea774b6ac0852b9fdbd41fd09060200160405180910390a198975050505050505050565b5f6110b6826132fa565b3033146110c4576040516347096e4760e01b8152336004820152602401611707565b806123e860056133a1565b036123dd5750565b60648082111561241d5760405163243e544560e01b81526004810183905260248101829052604401611707565b5f61242661203d565b9050612445612433611f99565b61243c8561340e565b600c9190613441565b505060408051828152602081018590527f0553476bf02ef2726e8ce5ced78d63e26e602e4a2257b1f559418e24b4633997910160405180910390a1505050565b600b546040805163ffffffff928316815291831660208301527f65135e4d9e214a272631f85c3ab68685271bccecf1ad1336709c14e139b3328d910160405180910390a1600b805463ffffffff191663ffffffff92909216919091179055565b8063ffffffff165f0361250d5760405163f1cfbf0560e01b81525f6004820152602401611707565b6008546040805163ffffffff600160301b9093048316815291831660208301527f7e3f7f0708a84de9203036abaa450dccc85ad5ff52f78c170f3edb55cf5e8828910160405180910390a16008805463ffffffff909216600160301b0269ffffffff00000000000019909216919091179055565b606061118b7f00000000000000000000000000000000000000000000000000000000000000005f61345b565b5f8160078111156125c0576125c0614cb1565b600160ff919091161b92915050565b5f806125da84611697565b90505f836125e7836125ad565b160361202c578381846040516331b75e4d60e01b8152600401611707939291906157d6565b5f61182f8686868686613504565b606061118b7f0000000000000000000000000000000000000000000000000000000000000000600161345b565b81546001600160801b03600160801b82048116918116600183019091160361267357612673604161363e565b6001600160801b038082165f90815260018086016020526040909120939093558354919092018216600160801b029116179055565b612299858585858561364f565b6001600160a01b03165f90815260026020526040902080546001810190915590565b5f6126e6866111ae60016125ad565b505f6126fb866126f58961138e565b856130d7565b90505f61270b88888885886131a1565b905083515f0361276157866001600160a01b03167fb8e138887d0aa13bab447e82de9d5c1777041ecd21ca36ba824ff1e6c07ddda48988848960405161275494939291906157f8565b60405180910390a2611c2a565b866001600160a01b03167fe2babfbac5889a709b63bb7f598b324e08bc5a4fb9ec647fb3cbc9ec07eb871289888489896040516127a295949392919061581f565b60405180910390a2979650505050505050565b600381901c5f8181526001840160205260408120909182918291906007861690839082600881106127e8576127e86155fd565b60088104919091015460079091166004026101000a900463ffffffff1690508015156001821180612819575f61281e565b600283035b9550955095505050505b9250925092565b5f818152600d60205260408120600281015460018201546128509190615864565b61285c610fc88561138e565b11159392505050565b5f611e5d858585856138db565b5f6110b661287e612ca5565b8360405161190160f01b8152600281019290925260228201526042902090565b80515f9060348110156128b55760019150506110b6565b60131981840101516001600160b01b03198116692370726f706f7365723d60b01b146128e6576001925050506110b6565b5f806128f686602a860386613b8a565b91509150811580611c2a5750866001600160a01b0316816001600160a01b031614979650505050505050565b5f611e5d8585858561293e60408051602081019091525f815290565b6126d7565b5f836001600160a01b03163b5f036129a1575f806129618585613c33565b5090925090505f81600381111561297a5761297a614cb1565b1480156129985750856001600160a01b0316826001600160a01b0316145b9250505061202c565b6129ac848484613c79565b905061202c565b5f6129c78686868680519060200120612056565b9050845186511415806129dc57508351865114155b806129e657508551155b15612a1b57855184518651604051630447b05d60e41b8152600481019390935260248301919091526044820152606401611707565b5f81815260046020526040902054600160a01b900465ffffffffffff1615612a645780612a4782611697565b6040516331b75e4d60e01b81526117079291905f906004016157d6565b5f612a7660085465ffffffffffff1690565b612a7e611f99565b65ffffffffffff16612a909190615864565b90505f612aaa60085463ffffffff600160301b9091041690565b5f84815260046020526040902080546001600160a01b0319166001600160a01b038716178155909150612adc83612dce565b815465ffffffffffff91909116600160a01b0265ffffffffffff60a01b19909116178155612b0982613d4f565b815463ffffffff91909116600160d01b0263ffffffff60d01b1990911617815588517f7d84a6263ae0d98d3329bd7b46bb4e8d6f98cd35a7adb45c274c8b7fd5ebd5e090859087908c908c906001600160401b03811115612b6c57612b6c61473b565b604051908082528060200260200182016040528015612b9f57816020015b6060815260200190600190039081612b8a5790505b508c89612bac8a82615864565b8e604051612bc299989796959493929190615877565b60405180910390a150505095945050505050565b6001600160a01b0383163014808015612bff57506001600160e01b0319831663cc3bac5760e01b145b15612c1d5760405163e547fc1160e01b815260040160405180910390fd5b6001600160a01b0384165f8181526009602090815260408083206001600160e01b0319881680855290835292819020805460ff191687151587151581141591909117909155815194855291840192909252908201527f420cf47a8bf6c3ac65f850426acfe52d2eabee4997fbff83a80265ee36222c049060600160405180910390a150505050565b5f306001600160a01b037f000000000000000000000000000000000000000000000000000000000000000016148015612cfd57507f000000000000000000000000000000000000000000000000000000000000000046145b15612d2757507f000000000000000000000000000000000000000000000000000000000000000090565b61118b604080517f8b73c3c69bb8fe3d512ecc4cf759cc79239f7b179b0ffacaa9a75d522b39400f60208201527f0000000000000000000000000000000000000000000000000000000000000000918101919091527f000000000000000000000000000000000000000000000000000000000000000060608201524660808201523060a08201525f9060c00160405160208183030381529060405280519060200120905090565b5f65ffffffffffff821115612e00576040516306dfcc6560e41b81526030600482015260248101839052604401611707565b5090565b81545f9081816005811115612e60575f612e1d84613d7f565b612e2790856156a8565b5f8881526020902090915081015465ffffffffffff9081169087161015612e5057809150612e5e565b612e5b816001615864565b92505b505b5f612e6d87878585613ed7565b90508015612ea757612e9187612e846001846156a8565b5f91825260209091200190565b54600160301b90046001600160d01b0316611c2a565b505f9695505050505050565b5f612ebd836126b5565b9050808214611bdd576040516301d4b62360e61b81526001600160a01b038416600482015260248101829052604401611707565b6008546040805165ffffffffffff928316815291831660208301527fc565b045403dc03c2eea82b81a0465edad9e2e7fc4d97e11421c209da93d7a93910160405180910390a16008805465ffffffffffff191665ffffffffffff92909216919091179055565b5f80612f6586868686613f36565b90505f612f77600b5463ffffffff1690565b5f838152600a60205260409020885191925090612f9390613fec565b815461ffff191661ffff919091161781555f5b88518110156130a2576004878281518110612fc357612fc36155fd565b6020026020010151511061309a575f898281518110612fe457612fe46155fd565b602002602001015190505f888381518110613001576130016155fd565b60200260200101516130129061594c565b90505f806130427f000000000000000000000000000000000000000000000000000000000000000030868661401a565b91509150818061305757505f8163ffffffff16115b801561306a57506130688484611e66565b155b156130955761307c868684155f614122565b6130928163ffffffff168863ffffffff16614193565b96505b505050505b600101612fa6565b50805463ffffffff909216620100000265ffffffff0000199092169190911790559050949350505050565b5f61118b43612dce565b5f7f0000000000000000000000000000000000000000000000000000000000000000604051630748d63560e31b81526001600160a01b038681166004830152602482018690529190911690633a46b1a890604401602060405180830381865afa158015613146573d5f803e3d5ffd5b505050506040513d601f19601f8201168201806040525081019061195e9190615983565b80545f9080156131995761318383612e846001846156a8565b54600160301b90046001600160d01b031661202c565b5f9392505050565b5f858152600d602090815260408083206001600160a01b03881684526003810190925282205460ff16156131f3576040516371c6af4960e01b81526001600160a01b0387166004820152602401611707565b6001600160a01b0386165f9081526003820160205260409020805460ff1916600117905560ff851661323c5783815f015f8282546132319190615864565b909155506132929050565b5f1960ff86160161325a5783816001015f8282546132319190615864565b60011960ff8616016132795783816002015f8282546132319190615864565b6040516303599be160e11b815260040160405180910390fd5b509195945050505050565b6060826132b2576132ad826141a2565b6110b6565b50806110b6565b60075460408051918252602082018390527fccb45da8d5717e6c4544694297c4ba5cf151d455c9bb0ed4fc7a38411bc05461910160405180910390a1600755565b5f606461330683611c3e565b604051632394e7a360e21b8152600481018590526001600160a01b037f00000000000000000000000000000000000000000000000000000000000000001690638e539e8c90602401602060405180830381865afa158015613369573d5f803e3d5ffd5b505050506040513d601f19601f8201168201806040525081019061338d9190615983565b613397919061599a565b6110b691906159c5565b80545f906001600160801b0380821691600160801b90041681036133c9576133c9603161363e565b6001600160801b038181165f908152600185810160205260408220805492905585546fffffffffffffffffffffffffffffffff19169301909116919091179092555090565b5f6001600160d01b03821115612e00576040516306dfcc6560e41b815260d0600482015260248101839052604401611707565b5f8061344e8585856141cb565b915091505b935093915050565b606060ff83146134755761346e8361431b565b90506110b6565b818054613481906155c5565b80601f01602080910402602001604051908101604052809291908181526020018280546134ad906155c5565b80156134f85780601f106134cf576101008083540402835291602001916134f8565b820191905f5260205f20905b8154815290600101906020018083116134db57829003601f168201915b505050505090506110b6565b5f858152600a602052604081208054829062010000900463ffffffff16613529614358565b61353391906156d6565b90505f5b8751811015613632575f61354b84836127b5565b509150508015613629575f7f00000000000000000000000000000000000000000000000000000000000000006001600160a01b031663f801a6988b8581518110613597576135976155fd565b60200260200101518a86815181106135b1576135b16155fd565b6020026020010151876040518463ffffffff1660e01b81526004016135d8939291906159e4565b60408051808303815f875af11580156135f3573d5f803e3d5ffd5b505050506040513d601f19601f820116820180604052508101906136179190615a1f565b9150506136278584600184614122565b505b50600101613537565b50979650505050505050565b634e487b715f52806020526024601cfd5b5f858152600460205260408120600101546136769065ffffffffffff16612dce565b612dce565b90508065ffffffffffff164210156136b25760405163fe589f3f60e01b81526004810187905265ffffffffffff82166024820152604401611707565b5f868152600a60205260408120905b8651811015611471575f805f6136d785856127b5565b9250925092508215613815575f7f00000000000000000000000000000000000000000000000000000000000000006001600160a01b0316631cff79cd8b8781518110613725576137256155fd565b60200260200101518d888151811061373f5761373f6155fd565b60200260200101518c8981518110613759576137596155fd565b60200260200101516040518463ffffffff1660e01b815260040161377e929190615a4d565b60206040518083038185885af115801561379a573d5f803e3d5ffd5b50505050506040513d601f19601f820116820180604052508101906137bf9190615a70565b90508280156137da57508163ffffffff168163ffffffff1614155b1561380f576040516318ee8bef60e01b8152600481018d905263ffffffff808416602483015282166044820152606401611707565b506138cd565b5f808b8681518110613829576138296155fd565b60200260200101516001600160a01b03168b878151811061384c5761384c6155fd565b60200260200101518b8881518110613866576138666155fd565b602002602001015160405161387b9190615a8b565b5f6040518083038185875af1925050503d805f81146138b5576040519150601f19603f3d011682016040523d82523d5f602084013e6138ba565b606091505b50915091506138c9828261329d565b5050505b5050508060010190506136c1565b5f806138e986868686614362565b90505f61390f613671835f9081526004602052604090206001015465ffffffffffff1690565b5f838152600a6020526040902090915065ffffffffffff821615613b7e575f5b8851811015613b7c575f8061394484846127b5565b92509250508115613b72575f7f00000000000000000000000000000000000000000000000000000000000000006001600160a01b031663abd9bd2a308e8781518110613992576139926155fd565b60200260200101518d88815181106139ac576139ac6155fd565b60200260200101516040518463ffffffff1660e01b81526004016139d293929190615aa6565b602060405180830381865afa1580156139ed573d5f803e3d5ffd5b505050506040513d601f19601f82011682018060405250810190613a119190615983565b60405163104da8cf60e21b8152600481018290529091507f00000000000000000000000000000000000000000000000000000000000000006001600160a01b031690634136a33c90602401602060405180830381865afa158015613a77573d5f803e3d5ffd5b505050506040513d601f19601f82011682018060405250810190613a9b9190615a70565b63ffffffff168263ffffffff1603613b70577f00000000000000000000000000000000000000000000000000000000000000006001600160a01b031663d6bb62c6308e8781518110613aef57613aef6155fd565b60200260200101518d8881518110613b0957613b096155fd565b60200260200101516040518463ffffffff1660e01b8152600401613b2f93929190615aa6565b6020604051808303815f875af1925050508015613b69575060408051601f3d908101601f19168201909252613b6691810190615a70565b60015b15613b7057505b505b505060010161392f565b505b50909695505050505050565b5f808451831180613b9a57508284115b15613ba957505f905080613453565b5f613bb5856001615864565b84118015613bdd575061060f60f31b613bd18787016020015190565b6001600160f01b031916145b90505f613bed821515600261599a565b613bf8906028615864565b905080613c0587876156a8565b03613c26575f80613c17898989614411565b90965094506134539350505050565b5f80935093505050613453565b5f805f8351604103613c6a576020840151604085015160608601515f1a613c5c888285856144d2565b955095509550505050612828565b505081515f9150600290612828565b5f805f856001600160a01b03168585604051602401613c99929190615ad1565b60408051601f198184030181529181526020820180516001600160e01b0316630b135d3f60e11b17905251613cce9190615a8b565b5f60405180830381855afa9150503d805f8114613d06576040519150601f19603f3d011682016040523d82523d5f602084013e613d0b565b606091505b5091509150818015613d1f57506020815110155b801561182f57508051630b135d3f60e11b90613d449083016020908101908401615983565b149695505050505050565b5f63ffffffff821115612e00576040516306dfcc6560e41b81526020600482015260248101839052604401611707565b5f60018211613d8c575090565b816001600160801b8210613da55760809190911c9060401b5b680100000000000000008210613dc05760409190911c9060201b5b6401000000008210613dd75760209190911c9060101b5b620100008210613dec5760109190911c9060081b5b6101008210613e005760089190911c9060041b5b60108210613e135760049190911c9060021b5b60048210613e1f5760011b5b600302600190811c90818581613e3757613e376159b1565b048201901c90506001818581613e4f57613e4f6159b1565b048201901c90506001818581613e6757613e676159b1565b048201901c90506001818581613e7f57613e7f6159b1565b048201901c90506001818581613e9757613e976159b1565b048201901c90506001818581613eaf57613eaf6159b1565b048201901c9050613ece818581613ec857613ec86159b1565b04821190565b90039392505050565b5f5b81831015613f2e575f613eec848461459a565b5f8781526020902090915065ffffffffffff86169082015465ffffffffffff161115613f1a57809250613f28565b613f25816001615864565b93505b50613ed9565b509392505050565b5f33613f42818461289e565b613f6a5760405163d9b3955760e01b81526001600160a01b0382166004820152602401611707565b5f613f73612084565b90508015613fdf575f613fa1836001613f8a611f99565b613f949190615ae9565b65ffffffffffff166122bd565b905081811015613fdd57604051636121770b60e11b81526001600160a01b03841660048201526024810182905260448101839052606401611707565b505b611c2a87878787866129b3565b5f61ffff821115612e00576040516306dfcc6560e41b81526010600482015260248101839052604401611707565b6040516001600160a01b03848116602483015283811660448301526001600160e01b0319831660648301525f9182918291829189169060840160408051601f198184030181529181526020820180516001600160e01b031663b700961360e01b179052516140889190615a8b565b5f60405180830381855afa9150503d805f81146140c0576040519150601f19603f3d011682016040523d82523d5f602084013e6140c5565b606091505b509150915081156141175760408151106140f757808060200190518101906140ed9190615b08565b9094509250614117565b602081511061411757808060200190518101906141149190615b35565b93505b505094509492505050565b600383901c6007841683614137576001614142565b614142836002615b50565b5f83815260018801602052604090208260088110614162576141626155fd565b600891828204019190066004026101000a81548163ffffffff021916908363ffffffff160217905550505050505050565b5f82821882841102821861202c565b8051156141b25780518082602001fd5b60405163d6bda27560e01b815260040160405180910390fd5b82545f90819080156142c1575f6141e787612e846001856156a8565b805490915065ffffffffffff80821691600160301b90046001600160d01b031690881682111561422a57604051632520601d60e01b815260040160405180910390fd5b8765ffffffffffff168265ffffffffffff160361426357825465ffffffffffff16600160301b6001600160d01b038916021783556142b3565b6040805180820190915265ffffffffffff808a1682526001600160d01b03808a1660208085019182528d54600181018f555f8f81529190912094519151909216600160301b029216919091179101555b945085935061345392505050565b50506040805180820190915265ffffffffffff80851682526001600160d01b0380851660208085019182528854600181018a555f8a815291822095519251909316600160301b029190931617920191909155905081613453565b60605f614327836145b4565b6040805160208082528183019092529192505f91906020820181803683375050509182525060208101929092525090565b5f61118b42612dce565b5f8061437086868686612056565b90506143be8161438060076125ad565b61438a60066125ad565b61439460026125ad565b60016143a1600782615b6d565b6143ac906002615c66565b6143b691906156a8565b1818186125cf565b505f818152600460205260409081902080546001600160f81b0316600160f81b179055517f789cf55be980739dad1d0699b93b58e806b51c9d96619bfa8fe0a28abaa7b30c9061137d9083815260200190565b5f808481614420866001615864565b85118015614448575061060f60f31b61443c8388016020015190565b6001600160f01b031916145b90505f614458821515600261599a565b90505f80614466838a615864565b90505b878110156144c1575f6144876144828784016020015190565b6145db565b9050600f8160ff1611156144a6575f8097509750505050505050613453565b6144b160108461599a565b60ff909116019150600101614469565b506001999098509650505050505050565b5f80807f7fffffffffffffffffffffffffffffff5d576e7357a4501ddfe92f46681b20a084111561450b57505f91506003905082614590565b604080515f808252602082018084528a905260ff891692820192909252606081018790526080810186905260019060a0016020604051602081039080840390855afa15801561455c573d5f803e3d5ffd5b5050604051601f1901519150506001600160a01b03811661458757505f925060019150829050614590565b92505f91508190505b9450945094915050565b5f6145a860028484186159c5565b61202c90848416615864565b5f60ff8216601f8111156110b657604051632cd44ac360e21b815260040160405180910390fd5b5f60f882901c602f811180156145f45750603a8160ff16105b1561460257602f19016110b6565b60608160ff16118015614618575060678160ff16105b1561462657605619016110b6565b60408160ff1611801561463c575060478160ff16105b1561464a57603619016110b6565b5060ff92915050565b80356001600160e01b03198116811461190f575f80fd5b5f6020828403121561467a575f80fd5b61202c82614653565b5f60208284031215614693575f80fd5b5035919050565b5f5b838110156146b457818101518382015260200161469c565b50505f910152565b5f81518084526146d381602086016020860161469a565b601f01601f19169290920160200192915050565b602081525f61202c60208301846146bc565b63ffffffff81168114610c9b575f80fd5b5f6020828403121561471a575f80fd5b813561202c816146f9565b80356001600160a01b038116811461190f575f80fd5b634e487b7160e01b5f52604160045260245ffd5b604051601f8201601f191681016001600160401b03811182821017156147775761477761473b565b604052919050565b5f6001600160401b038211156147975761479761473b565b50601f01601f191660200190565b5f6147b76147b28461477f565b61474f565b90508281528383830111156147ca575f80fd5b828260208301375f602084830101529392505050565b5f82601f8301126147ef575f80fd5b61202c838335602085016147a5565b5f805f8060808587031215614811575f80fd5b61481a85614725565b935061482860208601614725565b92506040850135915060608501356001600160401b03811115614849575f80fd5b614855878288016147e0565b91505092959194509250565b5f6001600160401b038211156148795761487961473b565b5060051b60200190565b5f82601f830112614892575f80fd5b813560206148a26147b283614861565b8083825260208201915060208460051b8701019350868411156148c3575f80fd5b602086015b848110156148e6576148d981614725565b83529183019183016148c8565b509695505050505050565b5f82601f830112614900575f80fd5b813560206149106147b283614861565b8083825260208201915060208460051b870101935086841115614931575f80fd5b602086015b848110156148e65780358352918301918301614936565b5f61495a6147b284614861565b8381529050602080820190600585901b840186811115614978575f80fd5b845b818110156149b15780356001600160401b03811115614997575f80fd5b6149a3898289016147e0565b85525092820192820161497a565b505050509392505050565b5f82601f8301126149cb575f80fd5b61202c8383356020850161494d565b5f805f80608085870312156149ed575f80fd5b84356001600160401b0380821115614a03575f80fd5b614a0f88838901614883565b95506020870135915080821115614a24575f80fd5b614a30888389016148f1565b94506040870135915080821115614a45575f80fd5b50614a52878288016149bc565b949793965093946060013593505050565b5f60208284031215614a73575f80fd5b61202c82614725565b5f8083601f840112614a8c575f80fd5b5081356001600160401b03811115614aa2575f80fd5b6020830191508360208260051b8501011115614abc575f80fd5b9250929050565b5f805f805f805f8060a0898b031215614ada575f80fd5b8835975060208901356001600160401b0380821115614af7575f80fd5b614b038c838d01614a7c565b909950975060408b0135915080821115614b1b575f80fd5b614b278c838d01614a7c565b909750955060608b0135915080821115614b3f575f80fd5b50614b4c8b828c01614a7c565b999c989b50969995989497949560800135949350505050565b803560ff8116811461190f575f80fd5b5f8083601f840112614b85575f80fd5b5081356001600160401b03811115614b9b575f80fd5b602083019150836020828501011115614abc575f80fd5b5f805f805f805f60a0888a031215614bc8575f80fd5b87359650614bd860208901614725565b9550614be660408901614b65565b945060608801356001600160401b0380821115614c01575f80fd5b614c0d8b838c01614b75565b909650945060808a0135915080821115614c25575f80fd5b50614c328a828b01614b75565b989b979a50959850939692959293505050565b5f815180845260208085019450602084015f5b83811015614c76578151151587529582019590820190600101614c58565b509495945050505050565b63ffffffff84168152606060208201525f614c9f6060830185614c45565b828103604084015261182f8185614c45565b634e487b7160e01b5f52602160045260245ffd5b60088110614ce157634e487b7160e01b5f52602160045260245ffd5b9052565b602081016110b68284614cc5565b5f8060408385031215614d04575f80fd5b82359150614d1460208401614725565b90509250929050565b5f805f60408486031215614d2f575f80fd5b614d3884614725565b925060208401356001600160401b03811115614d52575f80fd5b614d5e86828701614b75565b9497909650939450505050565b5f8060408385031215614d7c575f80fd5b82359150614d1460208401614b65565b5f805f805f805f60c0888a031215614da2575f80fd5b87359650614db260208901614b65565b9550614dc060408901614725565b945060608801356001600160401b0380821115614ddb575f80fd5b614de78b838c01614b75565b909650945060808a0135915080821115614dff575f80fd5b614e0b8b838c016147e0565b935060a08a0135915080821115614e20575f80fd5b50614e2d8a828b016147e0565b91505092959891949750929550565b5f805f805f805f805f60a08a8c031215614e54575f80fd5b89356001600160401b0380821115614e6a575f80fd5b614e768d838e01614a7c565b909b50995060208c0135915080821115614e8e575f80fd5b614e9a8d838e01614a7c565b909950975060408c0135915080821115614eb2575f80fd5b614ebe8d838e01614a7c565b909750955060608c0135915080821115614ed6575f80fd5b50614ee38c828d01614b75565b9094509250614ef6905060808b01614725565b90509295985092959850929598565b8015158114610c9b575f80fd5b5f805f60608486031215614f24575f80fd5b614f2d84614725565b9250614f3b60208501614653565b91506040840135614f4b81614f05565b809150509250925092565b5f805f805f60808688031215614f6a575f80fd5b85359450614f7a60208701614b65565b935060408601356001600160401b0380821115614f95575f80fd5b614fa189838a01614b75565b90955093506060880135915080821115614fb9575f80fd5b50614fc6888289016147e0565b9150509295509295909350565b5f805f805f805f6080888a031215614fe9575f80fd5b87356001600160401b0380821115614fff575f80fd5b61500b8b838c01614a7c565b909950975060208a0135915080821115615023575f80fd5b61502f8b838c01614a7c565b909750955060408a0135915080821115615047575f80fd5b506150548a828b01614a7c565b989b979a50959894979596606090950135949350505050565b5f806040838503121561507e575f80fd5b61508783614725565b946020939093013593505050565b5f805f805f608086880312156150a9575f80fd5b853594506150b960208701614725565b93506150c760408701614b65565b925060608601356001600160401b038111156150e1575f80fd5b6150ed88828901614b75565b969995985093965092949392505050565b65ffffffffffff81168114610c9b575f80fd5b5f60208284031215615121575f80fd5b813561202c816150fe565b5f805f806060858703121561513f575f80fd5b8435935061514f60208601614b65565b925060408501356001600160401b03811115615169575f80fd5b61517587828801614b75565b95989497509550505050565b5f805f8060808587031215615194575f80fd5b84356001600160401b03808211156151aa575f80fd5b6151b688838901614883565b955060208701359150808211156151cb575f80fd5b6151d7888389016148f1565b945060408701359150808211156151ec575f80fd5b6151f8888389016149bc565b9350606087013591508082111561520d575f80fd5b508501601f8101871361521e575f80fd5b614855878235602084016147a5565b5f806040838503121561523e575f80fd5b61524783614725565b9150614d1460208401614653565b5f815180845260208085019450602084015f5b83811015614c7657815187529582019590820190600101615268565b60ff60f81b8816815260e060208201525f6152a260e08301896146bc565b82810360408401526152b481896146bc565b606084018890526001600160a01b038716608085015260a0840186905283810360c085015290506152e58185615255565b9a9950505050505050505050565b5f805f8060808587031215615306575f80fd5b8435935061531660208601614b65565b925061532460408601614725565b915060608501356001600160401b03811115614849575f80fd5b5f805f60608486031215615350575f80fd5b61535984614725565b92506020840135915060408401356001600160401b0381111561537a575f80fd5b615386868287016147e0565b9150509250925092565b5f602082840312156153a0575f80fd5b81356008811061202c575f80fd5b5f805f805f60a086880312156153c2575f80fd5b6153cb86614725565b94506153d960208701614725565b935060408601356001600160401b03808211156153f4575f80fd5b61540089838a016148f1565b94506060880135915080821115615415575f80fd5b61542189838a016148f1565b93506080880135915080821115614fb9575f80fd5b5f805f805f8060a0878903121561544b575f80fd5b8635955061545b60208801614725565b945061546960408801614b65565b93506060870135925060808701356001600160401b0381111561548a575f80fd5b61549689828a01614b75565b979a9699509497509295939492505050565b5f805f80606085870312156154bb575f80fd5b6154c485614725565b93506020850135925060408501356001600160401b03811115615169575f80fd5b5f805f80606085870312156154f8575f80fd5b61550185614725565b935060208501356001600160401b0381111561551b575f80fd5b61552787828801614a7c565b909450925050604085013561553b81614f05565b939692955090935050565b5f8060408385031215615557575f80fd5b50508035926020909101359150565b5f805f805f60a0868803121561557a575f80fd5b61558386614725565b945061559160208701614725565b9350604086013592506060860135915060808601356001600160401b038111156155b9575f80fd5b614fc6888289016147e0565b600181811c908216806155d957607f821691505b6020821081036155f757634e487b7160e01b5f52602260045260245ffd5b50919050565b634e487b7160e01b5f52603260045260245ffd5b5f61202c36848461494d565b5f6020828403121561562d575f80fd5b81516001600160401b03811115615642575f80fd5b8201601f81018413615652575f80fd5b80516156606147b28261477f565b818152856020838501011115615674575f80fd5b611e5d82602083016020860161469a565b818382375f9101908152919050565b634e487b7160e01b5f52601160045260245ffd5b818103818111156110b6576110b6615694565b5f602082840312156156cb575f80fd5b815161202c816150fe565b65ffffffffffff8181168382160190808211156156f5576156f5615694565b5092915050565b5f815180845260208085019450602084015f5b83811015614c765781516001600160a01b03168752958201959082019060010161570f565b5f8282518085526020808601955060208260051b840101602086015f5b8481101561577f57601f1986840301895261576d8383516146bc565b98840198925090830190600101615751565b5090979650505050505050565b608081525f61579e60808301876156fc565b82810360208401526157b08187615255565b905082810360408401526157c48186615734565b91505082606083015295945050505050565b838152606081016157ea6020830185614cc5565b826040830152949350505050565b84815260ff84166020820152826040820152608060608201525f61182f60808301846146bc565b85815260ff8516602082015283604082015260a060608201525f61584660a08301856146bc565b828103608084015261585881856146bc565b98975050505050505050565b808201808211156110b6576110b6615694565b5f6101208b8352602060018060a01b038c168185015281604085015261589f8285018c6156fc565b915083820360608501526158b3828b615255565b915083820360808501528189518084528284019150828160051b850101838c015f5b8381101561590357601f198784030185526158f18383516146bc565b948601949250908501906001016158d5565b505086810360a0880152615917818c615734565b9450505050508560c08401528460e084015282810361010084015261593c81856146bc565b9c9b505050505050505050505050565b805160208201516001600160e01b0319808216929190600483101561597b5780818460040360031b1b83161693505b505050919050565b5f60208284031215615993575f80fd5b5051919050565b80820281158282048414176110b6576110b6615694565b634e487b7160e01b5f52601260045260245ffd5b5f826159df57634e487b7160e01b5f52601260045260245ffd5b500490565b6001600160a01b03841681526060602082018190525f90615a07908301856146bc565b905065ffffffffffff83166040830152949350505050565b5f8060408385031215615a30575f80fd5b825191506020830151615a42816146f9565b809150509250929050565b6001600160a01b03831681526040602082018190525f9061195e908301846146bc565b5f60208284031215615a80575f80fd5b815161202c816146f9565b5f8251615a9c81846020870161469a565b9190910192915050565b6001600160a01b038481168252831660208201526060604082018190525f90611e5d908301846146bc565b828152604060208201525f61195e60408301846146bc565b65ffffffffffff8281168282160390808211156156f5576156f5615694565b5f8060408385031215615b19575f80fd5b8251615b2481614f05565b6020840151909250615a42816146f9565b5f60208284031215615b45575f80fd5b815161202c81614f05565b63ffffffff8181168382160190808211156156f5576156f5615694565b60ff81811683821601908111156110b6576110b6615694565b600181815b80851115615bc057815f1904821115615ba657615ba6615694565b80851615615bb357918102915b93841c9390800290615b8b565b509250929050565b5f82615bd6575060016110b6565b81615be257505f6110b6565b8160018114615bf85760028114615c0257615c1e565b60019150506110b6565b60ff841115615c1357615c13615694565b50506001821b6110b6565b5060208310610133831016604e8410600b8410161715615c41575081810a6110b6565b615c4b8383615b86565b805f1904821115615c5e57615c5e615694565b029392505050565b5f61202c60ff841683615bc856fea26469706673582212203f9508ef07b3cf5e3078b8e268949bf0efcf98dbd0ea4f00a67341478ab70f2c64736f6c63430008180033",
  "linkReferences": {},
  "deployedLinkReferences": {}
}