{
  "_format": "hh-sol-artifact-1",
  "contractName": "TimelockReentrant",
  "sourceName": "contracts/mocks/TimelockReentrant.sol",
  "abi": [
    {
      "inputs": [
        {
          "internalType": "address",
          "name": "target",
          "type": "address"
        }
      ],
      "name": "AddressEmptyCode",
      "type": "error"
    },
    {
      "inputs": [],
      "name": "FailedCall",
      "type": "error"
    },
    {
      "inputs": [
        {
          "internalType": "uint256",
          "name": "balance",
          "type": "uint256"
        },
        {
          "internalType": "uint256",
          "name": "needed",
          "type": "uint256"
        }
      ],
      "name": "InsufficientBalance",
      "type": "error"
    },
    {
      "inputs": [],
      "name": "disableReentrancy",
      "outputs": [],
      "stateMutability": "nonpayable",
      "type": "function"
    },
    {
      "inputs": [
        {
          "internalType": "address",
          "name": "target",
          "type": "address"
        },
        {
          "internalType": "bytes",
          "name": "data",
          "type": "bytes"
        }
      ],
      "name": "enableRentrancy",
      "outputs": [],
      "stateMutability": "nonpayable",
      "type": "function"
    },
    {
      "inputs": [],
      "name": "reenter",
      "outputs": [],
      "stateMutability": "nonpayable",
      "type": "function"
    }
  ],
  "bytecode": "0x608060405234801561000f575f80fd5b506104d78061001d5f395ff3fe608060405234801561000f575f80fd5b506004361061003f575f3560e01c80633654421b14610043578063a0fe97e314610058578063cc23fb1c14610060575b5f80fd5b61005661005136600461029a565b610072565b005b61005661009f565b6100566002805460ff19166001179055565b5f80546001600160a01b0319166001600160a01b03851617905560016100998284836103bb565b50505050565b60025460ff1661015a576002805460ff191660019081179091555f548154610158926001600160a01b0390921691906100d790610337565b80601f016020809104026020016040519081016040528092919081815260200182805461010390610337565b801561014e5780601f106101255761010080835404028352916020019161014e565b820191905f5260205f20905b81548152906001019060200180831161013157829003601f168201915b505050505061015c565b505b565b606061016983835f610170565b9392505050565b6060814710156101a15760405163cf47918160e01b8152476004820152602481018390526044015b60405180910390fd5b5f80856001600160a01b031684866040516101bc9190610475565b5f6040518083038185875af1925050503d805f81146101f6576040519150601f19603f3d011682016040523d82523d5f602084013e6101fb565b606091505b509150915061020b868383610215565b9695505050505050565b60608261022a5761022582610271565b610169565b815115801561024157506001600160a01b0384163b155b1561026a57604051639996b31560e01b81526001600160a01b0385166004820152602401610198565b5080610169565b8051156102815780518082602001fd5b60405163d6bda27560e01b815260040160405180910390fd5b5f805f604084860312156102ac575f80fd5b83356001600160a01b03811681146102c2575f80fd5b9250602084013567ffffffffffffffff808211156102de575f80fd5b818601915086601f8301126102f1575f80fd5b8135818111156102ff575f80fd5b876020828501011115610310575f80fd5b6020830194508093505050509250925092565b634e487b7160e01b5f52604160045260245ffd5b600181811c9082168061034b57607f821691505b60208210810361036957634e487b7160e01b5f52602260045260245ffd5b50919050565b601f8211156103b657805f5260205f20601f840160051c810160208510156103945750805b601f840160051c820191505b818110156103b3575f81556001016103a0565b50505b505050565b67ffffffffffffffff8311156103d3576103d3610323565b6103e7836103e18354610337565b8361036f565b5f601f841160018114610418575f85156104015750838201355b5f19600387901b1c1916600186901b1783556103b3565b5f83815260208120601f198716915b828110156104475786850135825560209485019460019092019101610427565b5086821015610463575f1960f88860031b161c19848701351681555b505060018560011b0183555050505050565b5f82515f5b81811015610494576020818601810151858301520161047a565b505f92019182525091905056fea26469706673582212208a3eb0e916b1d647a430db3f04920bb4491cb4a30024e22f89db26715f5a17eb64736f6c63430008180033",
  "linkReferences": {},
  "deployedLinkReferences": {}
}