{
  "_format": "hh-sol-artifact-1",
  "contractName": "TransferHelperTest",
  "sourceName": "contracts/lib/contracts/test/TransferHelperTest.sol",
  "abi": [
    {
      "inputs": [
        {
          "internalType": "address",
          "name": "token",
          "type": "address"
        },
        {
          "internalType": "address",
          "name": "to",
          "type": "address"
        },
        {
          "internalType": "uint256",
          "name": "value",
          "type": "uint256"
        }
      ],
      "name": "safeApprove",
      "outputs": [],
      "stateMutability": "nonpayable",
      "type": "function"
    },
    {
      "inputs": [
        {
          "internalType": "address",
          "name": "token",
          "type": "address"
        },
        {
          "internalType": "address",
          "name": "to",
          "type": "address"
        },
        {
          "internalType": "uint256",
          "name": "value",
          "type": "uint256"
        }
      ],
      "name": "safeTransfer",
      "outputs": [],
      "stateMutability": "nonpayable",
      "type": "function"
    },
    {
      "inputs": [
        {
          "internalType": "address",
          "name": "to",
          "type": "address"
        },
        {
          "internalType": "uint256",
          "name": "value",
          "type": "uint256"
        }
      ],
      "name": "safeTransferETH",
      "outputs": [],
      "stateMutability": "nonpayable",
      "type": "function"
    },
    {
      "inputs": [
        {
          "internalType": "address",
          "name": "token",
          "type": "address"
        },
        {
          "internalType": "address",
          "name": "from",
          "type": "address"
        },
        {
          "internalType": "address",
          "name": "to",
          "type": "address"
        },
        {
          "internalType": "uint256",
          "name": "value",
          "type": "uint256"
        }
      ],
      "name": "safeTransferFrom",
      "outputs": [],
      "stateMutability": "nonpayable",
      "type": "function"
    }
  ],
  "bytecode": "0x608060405234801561001057600080fd5b50610791806100206000396000f3fe608060405234801561001057600080fd5b506004361061004c5760003560e01c80637c4368c114610051578063d1660f991461007f578063d9fc4b61146100b5578063eb5625d9146100f1575b600080fd5b61007d6004803603604081101561006757600080fd5b506001600160a01b038135169060200135610127565b005b61007d6004803603606081101561009557600080fd5b506001600160a01b03813581169160208101359091169060400135610135565b61007d600480360360808110156100cb57600080fd5b506001600160a01b03813581169160208101358216916040820135169060600135610145565b61007d6004803603606081101561010757600080fd5b506001600160a01b03813581169160208101359091169060400135610157565b6101318282610162565b5050565b610140838383610255565b505050565b610151848484846103c2565b50505050565b610140838383610538565b604080516000808252602082019092526001600160a01b0384169083906040518082805190602001908083835b602083106101ae5780518252601f19909201916020918201910161018f565b6001836020036101000a03801982511681845116808217855250505050505090500191505060006040518083038185875af1925050503d8060008114610210576040519150601f19603f3d011682016040523d82523d6000602084013e610215565b606091505b50509050806101405760405162461bcd60e51b81526004018080602001828103825260348152602001806106d06034913960400191505060405180910390fd5b604080516001600160a01b038481166024830152604480830185905283518084039091018152606490920183526020820180516001600160e01b03167fa9059cbb00000000000000000000000000000000000000000000000000000000178152925182516000946060949389169392918291908083835b602083106102eb5780518252601f1990920191602091820191016102cc565b6001836020036101000a0380198251168184511680821785525050505050509050019150506000604051808303816000865af19150503d806000811461034d576040519150601f19603f3d011682016040523d82523d6000602084013e610352565b606091505b5091509150818015610380575080511580610380575080806020019051602081101561037d57600080fd5b50515b6103bb5760405162461bcd60e51b815260040180806020018281038252602d81526020018061072f602d913960400191505060405180910390fd5b5050505050565b604080516001600160a01b0385811660248301528481166044830152606480830185905283518084039091018152608490920183526020820180516001600160e01b03167f23b872dd0000000000000000000000000000000000000000000000000000000017815292518251600094606094938a169392918291908083835b602083106104605780518252601f199092019160209182019101610441565b6001836020036101000a0380198251168184511680821785525050505050509050019150506000604051808303816000865af19150503d80600081146104c2576040519150601f19603f3d011682016040523d82523d6000602084013e6104c7565b606091505b50915091508180156104f55750805115806104f557508080602001905160208110156104f257600080fd5b50515b6105305760405162461bcd60e51b815260040180806020018281038252603181526020018061069f6031913960400191505060405180910390fd5b505050505050565b604080516001600160a01b038481166024830152604480830185905283518084039091018152606490920183526020820180516001600160e01b03167f095ea7b300000000000000000000000000000000000000000000000000000000178152925182516000946060949389169392918291908083835b602083106105ce5780518252601f1990920191602091820191016105af565b6001836020036101000a0380198251168184511680821785525050505050509050019150506000604051808303816000865af19150503d8060008114610630576040519150601f19603f3d011682016040523d82523d6000602084013e610635565b606091505b5091509150818015610663575080511580610663575080806020019051602081101561066057600080fd5b50515b6103bb5760405162461bcd60e51b815260040180806020018281038252602b815260200180610704602b913960400191505060405180910390fdfe5472616e7366657248656c7065723a3a7472616e7366657246726f6d3a207472616e7366657246726f6d206661696c65645472616e7366657248656c7065723a3a736166655472616e736665724554483a20455448207472616e73666572206661696c65645472616e7366657248656c7065723a3a73616665417070726f76653a20617070726f7665206661696c65645472616e7366657248656c7065723a3a736166655472616e736665723a207472616e73666572206661696c6564a2646970667358221220d355814d1e7c665086d9d0044ac6b589e2b093c16a4b5517e38bda2b1aa73dd864736f6c634300060c0033",
  "linkReferences": {},
  "deployedLinkReferences": {}
}