{
  "_format": "hh-sol-artifact-1",
  "contractName": "SampleChild",
  "sourceName": "contracts/mocks/MultipleInheritanceInitializableMocks.sol",
  "abi": [
    {
      "inputs": [],
      "name": "InvalidInitialization",
      "type": "error"
    },
    {
      "inputs": [],
      "name": "NotInitializing",
      "type": "error"
    },
    {
      "anonymous": false,
      "inputs": [
        {
          "indexed": false,
          "internalType": "uint64",
          "name": "version",
          "type": "uint64"
        }
      ],
      "name": "Initialized",
      "type": "event"
    },
    {
      "inputs": [],
      "name": "child",
      "outputs": [
        {
          "internalType": "uint256",
          "name": "",
          "type": "uint256"
        }
      ],
      "stateMutability": "view",
      "type": "function"
    },
    {
      "inputs": [],
      "name": "father",
      "outputs": [
        {
          "internalType": "uint256",
          "name": "",
          "type": "uint256"
        }
      ],
      "stateMutability": "view",
      "type": "function"
    },
    {
      "inputs": [],
      "name": "gramps",
      "outputs": [
        {
          "internalType": "string",
          "name": "",
          "type": "string"
        }
      ],
      "stateMutability": "view",
      "type": "function"
    },
    {
      "inputs": [
        {
          "internalType": "uint256",
          "name": "_mother",
          "type": "uint256"
        },
        {
          "internalType": "string",
          "name": "_gramps",
          "type": "string"
        },
        {
          "internalType": "uint256",
          "name": "_father",
          "type": "uint256"
        },
        {
          "internalType": "uint256",
          "name": "_child",
          "type": "uint256"
        }
      ],
      "name": "initialize",
      "outputs": [],
      "stateMutability": "nonpayable",
      "type": "function"
    },
    {
      "inputs": [],
      "name": "initialize",
      "outputs": [],
      "stateMutability": "nonpayable",
      "type": "function"
    },
    {
      "inputs": [
        {
          "internalType": "string",
          "name": "_gramps",
          "type": "string"
        },
        {
          "internalType": "uint256",
          "name": "_father",
          "type": "uint256"
        }
      ],
      "name": "initialize",
      "outputs": [],
      "stateMutability": "nonpayable",
      "type": "function"
    },
    {
      "inputs": [
        {
          "internalType": "string",
          "name": "value",
          "type": "string"
        }
      ],
      "name": "initialize",
      "outputs": [],
      "stateMutability": "nonpayable",
      "type": "function"
    },
    {
      "inputs": [
        {
          "internalType": "uint256",
          "name": "value",
          "type": "uint256"
        }
      ],
      "name": "initialize",
      "outputs": [],
      "stateMutability": "nonpayable",
      "type": "function"
    },
    {
      "inputs": [],
      "name": "isHuman",
      "outputs": [
        {
          "internalType": "bool",
          "name": "",
          "type": "bool"
        }
      ],
      "stateMutability": "view",
      "type": "function"
    },
    {
      "inputs": [],
      "name": "mother",
      "outputs": [
        {
          "internalType": "uint256",
          "name": "",
          "type": "uint256"
        }
      ],
      "stateMutability": "view",
      "type": "function"
    }
  ],
  "bytecode": "0x608060405234801561000f575f80fd5b50610abc8061001d5f395ff3fe608060405234801561000f575f80fd5b506004361061009b575f3560e01c80638beaf7d7116100635780638beaf7d7146100fd578063ed7dfee314610110578063f62d188814610119578063fa39851f1461012c578063fe4b84df14610141575f80fd5b80631c8aca3b1461009f578063237b5e96146100bb5780634a6c9db6146100c45780636f2edbd2146100e05780638129fc1c146100f5575b5f80fd5b6100a860035481565b6040519081526020015b60405180910390f35b6100a860045481565b5f546100d09060ff1681565b60405190151581526020016100b2565b6100f36100ee3660046107db565b610154565b005b6100f3610240565b6100f361010b36600461082d565b610324565b6100a860015481565b6100f361012736600461086e565b61040c565b6101346104f2565b6040516100b291906108a7565b6100f361014f3660046108f3565b61057e565b5f80516020610a678339815191528054600160401b810460ff1615906001600160401b03165f811580156101855750825b90505f826001600160401b031660011480156101a05750303b155b9050811580156101ae575080155b156101cc5760405163f92ee8a960e01b815260040160405180910390fd5b845467ffffffffffffffff1916600117855583156101f657845460ff60401b1916600160401b1785555b61020289898989610629565b831561023557845460ff60401b19168555604051600181525f80516020610a478339815191529060200160405180910390a15b505050505050505050565b5f80516020610a678339815191528054600160401b810460ff1615906001600160401b03165f811580156102715750825b90505f826001600160401b0316600114801561028c5750303b155b90508115801561029a575080155b156102b85760405163f92ee8a960e01b815260040160405180910390fd5b845467ffffffffffffffff1916600117855583156102e257845460ff60401b1916600160401b1785555b6102ea610653565b831561031d57845460ff60401b19168555604051600181525f80516020610a478339815191529060200160405180910390a15b5050505050565b5f80516020610a678339815191528054600160401b810460ff1615906001600160401b03165f811580156103555750825b90505f826001600160401b031660011480156103705750303b155b90508115801561037e575080155b1561039c5760405163f92ee8a960e01b815260040160405180910390fd5b845467ffffffffffffffff1916600117855583156103c657845460ff60401b1916600160401b1785555b6103d08787610665565b831561040357845460ff60401b19168555604051600181525f80516020610a478339815191529060200160405180910390a15b50505050505050565b5f80516020610a678339815191528054600160401b810460ff1615906001600160401b03165f8115801561043d5750825b90505f826001600160401b031660011480156104585750303b155b905081158015610466575080155b156104845760405163f92ee8a960e01b815260040160405180910390fd5b845467ffffffffffffffff1916600117855583156104ae57845460ff60401b1916600160401b1785555b6104b786610683565b83156104ea57845460ff60401b19168555604051600181525f80516020610a478339815191529060200160405180910390a15b505050505050565b600280546104ff9061090a565b80601f016020809104026020016040519081016040528092919081815260200182805461052b9061090a565b80156105765780601f1061054d57610100808354040283529160200191610576565b820191905f5260205f20905b81548152906001019060200180831161055957829003601f168201915b505050505081565b5f80516020610a678339815191528054600160401b810460ff1615906001600160401b03165f811580156105af5750825b90505f826001600160401b031660011480156105ca5750303b155b9050811580156105d8575080155b156105f65760405163f92ee8a960e01b815260040160405180910390fd5b845467ffffffffffffffff19166001178555831561062057845460ff60401b1916600160401b1785555b6104b78661069f565b6106316106b8565b61063a8461069f565b6106448383610665565b61064d816106ee565b50505050565b61065b6106b8565b6106636106fb565b565b61066d6106b8565b61067682610683565b61067f81610711565b5050565b61068b6106b8565b610693610653565b61069c8161071e565b50565b6106a76106b8565b6106af610653565b61069c81610732565b5f80516020610a6783398151915254600160401b900460ff1661066357604051631afcd79f60e31b815260040160405180910390fd5b6106f66106b8565b600455565b6107036106b8565b5f805460ff19166001179055565b6107196106b8565b600355565b6107266106b8565b600261067f828261098b565b61073a6106b8565b600155565b634e487b7160e01b5f52604160045260245ffd5b5f82601f830112610762575f80fd5b81356001600160401b038082111561077c5761077c61073f565b604051601f8301601f19908116603f011681019082821181831017156107a4576107a461073f565b816040528381528660208588010111156107bc575f80fd5b836020870160208301375f602085830101528094505050505092915050565b5f805f80608085870312156107ee575f80fd5b8435935060208501356001600160401b0381111561080a575f80fd5b61081687828801610753565b949794965050505060408301359260600135919050565b5f806040838503121561083e575f80fd5b82356001600160401b03811115610853575f80fd5b61085f85828601610753565b95602094909401359450505050565b5f6020828403121561087e575f80fd5b81356001600160401b03811115610893575f80fd5b61089f84828501610753565b949350505050565b5f602080835283518060208501525f5b818110156108d3578581018301518582016040015282016108b7565b505f604082860101526040601f19601f8301168501019250505092915050565b5f60208284031215610903575f80fd5b5035919050565b600181811c9082168061091e57607f821691505b60208210810361093c57634e487b7160e01b5f52602260045260245ffd5b50919050565b601f82111561098657805f5260205f20601f840160051c810160208510156109675750805b601f840160051c820191505b8181101561031d575f8155600101610973565b505050565b81516001600160401b038111156109a4576109a461073f565b6109b8816109b2845461090a565b84610942565b602080601f8311600181146109eb575f84156109d45750858301515b5f19600386901b1c1916600185901b1785556104ea565b5f85815260208120601f198616915b82811015610a19578886015182559484019460019091019084016109fa565b5085821015610a3657878501515f19600388901b60f8161c191681555b5050505050600190811b0190555056fec7f505b2f371ae2175ee4913f4499e1f2633a7b5936321eed1cdaeb6115181d2f0c57e16840df040f15088dc2f81fe391c3923bec73e23a9662efc9c229c6a00a2646970667358221220090f0def55060a81022d1aadf2c0f5f2ff6762d9ef1fb975df07cc167a3c6a8a64736f6c63430008180033",
  "linkReferences": {},
  "deployedLinkReferences": {}
}