{
  "_format": "hh-sol-artifact-1",
  "contractName": "SampleMother",
  "sourceName": "contracts/mocks/MultipleInheritanceInitializableMocks.sol",
  "abi": [
    {
      "inputs": [],
      "name": "InvalidInitialization",
      "type": "error"
    },
    {
      "inputs": [],
      "name": "NotInitializing",
      "type": "error"
    },
    {
      "anonymous": false,
      "inputs": [
        {
          "indexed": false,
          "internalType": "uint64",
          "name": "version",
          "type": "uint64"
        }
      ],
      "name": "Initialized",
      "type": "event"
    },
    {
      "inputs": [],
      "name": "initialize",
      "outputs": [],
      "stateMutability": "nonpayable",
      "type": "function"
    },
    {
      "inputs": [
        {
          "internalType": "uint256",
          "name": "value",
          "type": "uint256"
        }
      ],
      "name": "initialize",
      "outputs": [],
      "stateMutability": "nonpayable",
      "type": "function"
    },
    {
      "inputs": [],
      "name": "isHuman",
      "outputs": [
        {
          "internalType": "bool",
          "name": "",
          "type": "bool"
        }
      ],
      "stateMutability": "view",
      "type": "function"
    },
    {
      "inputs": [],
      "name": "mother",
      "outputs": [
        {
          "internalType": "uint256",
          "name": "",
          "type": "uint256"
        }
      ],
      "stateMutability": "view",
      "type": "function"
    }
  ],
  "bytecode": "0x608060405234801561000f575f80fd5b506103a48061001d5f395ff3fe608060405234801561000f575f80fd5b506004361061004a575f3560e01c80634a6c9db61461004e5780638129fc1c1461006f578063ed7dfee314610079578063fe4b84df14610090575b5f80fd5b5f5461005a9060ff1681565b60405190151581526020015b60405180910390f35b6100776100a3565b005b61008260015481565b604051908152602001610066565b61007761009e366004610357565b6101af565b7ff0c57e16840df040f15088dc2f81fe391c3923bec73e23a9662efc9c229c6a008054600160401b810460ff16159067ffffffffffffffff165f811580156100e85750825b90505f8267ffffffffffffffff1660011480156101045750303b155b905081158015610112575080155b156101305760405163f92ee8a960e01b815260040160405180910390fd5b845467ffffffffffffffff19166001178555831561015a57845460ff60401b1916600160401b1785555b6101626102bd565b83156101a857845460ff60401b19168555604051600181527fc7f505b2f371ae2175ee4913f4499e1f2633a7b5936321eed1cdaeb6115181d29060200160405180910390a15b5050505050565b7ff0c57e16840df040f15088dc2f81fe391c3923bec73e23a9662efc9c229c6a008054600160401b810460ff16159067ffffffffffffffff165f811580156101f45750825b90505f8267ffffffffffffffff1660011480156102105750303b155b90508115801561021e575080155b1561023c5760405163f92ee8a960e01b815260040160405180910390fd5b845467ffffffffffffffff19166001178555831561026657845460ff60401b1916600160401b1785555b61026f866102cf565b83156102b557845460ff60401b19168555604051600181527fc7f505b2f371ae2175ee4913f4499e1f2633a7b5936321eed1cdaeb6115181d29060200160405180910390a15b505050505050565b6102c56102eb565b6102cd610334565b565b6102d76102eb565b6102df6102bd565b6102e88161034a565b50565b7ff0c57e16840df040f15088dc2f81fe391c3923bec73e23a9662efc9c229c6a0054600160401b900460ff166102cd57604051631afcd79f60e31b815260040160405180910390fd5b61033c6102eb565b5f805460ff19166001179055565b6103526102eb565b600155565b5f60208284031215610367575f80fd5b503591905056fea26469706673582212201531b458909ced3bca1d54126f127a79e74335be05d0ed79298146599cbc8dd364736f6c63430008180033",
  "linkReferences": {},
  "deployedLinkReferences": {}
}