{
  "_format": "hh-sol-artifact-1",
  "contractName": "SampleHuman",
  "sourceName": "contracts/mocks/MultipleInheritanceInitializableMocks.sol",
  "abi": [
    {
      "inputs": [],
      "name": "InvalidInitialization",
      "type": "error"
    },
    {
      "inputs": [],
      "name": "NotInitializing",
      "type": "error"
    },
    {
      "anonymous": false,
      "inputs": [
        {
          "indexed": false,
          "internalType": "uint64",
          "name": "version",
          "type": "uint64"
        }
      ],
      "name": "Initialized",
      "type": "event"
    },
    {
      "inputs": [],
      "name": "initialize",
      "outputs": [],
      "stateMutability": "nonpayable",
      "type": "function"
    },
    {
      "inputs": [],
      "name": "isHuman",
      "outputs": [
        {
          "internalType": "bool",
          "name": "",
          "type": "bool"
        }
      ],
      "stateMutability": "view",
      "type": "function"
    }
  ],
  "bytecode": "0x608060405234801561000f575f80fd5b506102158061001d5f395ff3fe608060405234801561000f575f80fd5b5060043610610034575f3560e01c80634a6c9db6146100385780638129fc1c14610058575b5f80fd5b5f546100449060ff1681565b604051901515815260200160405180910390f35b610060610062565b005b7ff0c57e16840df040f15088dc2f81fe391c3923bec73e23a9662efc9c229c6a008054600160401b810460ff16159067ffffffffffffffff165f811580156100a75750825b90505f8267ffffffffffffffff1660011480156100c35750303b155b9050811580156100d1575080155b156100ef5760405163f92ee8a960e01b815260040160405180910390fd5b845467ffffffffffffffff19166001178555831561011957845460ff60401b1916600160401b1785555b61012161016e565b831561016757845460ff60401b19168555604051600181527fc7f505b2f371ae2175ee4913f4499e1f2633a7b5936321eed1cdaeb6115181d29060200160405180910390a15b5050505050565b610176610180565b61017e6101c9565b565b7ff0c57e16840df040f15088dc2f81fe391c3923bec73e23a9662efc9c229c6a0054600160401b900460ff1661017e57604051631afcd79f60e31b815260040160405180910390fd5b6101d1610180565b5f805460ff1916600117905556fea26469706673582212209692e25a47e267085372fcb70da1a9cdccfb2cd46810bdfaf2f14d710afe71f964736f6c63430008180033",
  "linkReferences": {},
  "deployedLinkReferences": {}
}