{
  "_format": "hh-sol-artifact-1",
  "contractName": "$ERC2771Forwarder",
  "sourceName": "contracts-exposed/metatx/ERC2771Forwarder.sol",
  "abi": [
    {
      "inputs": [
        {
          "internalType": "string",
          "name": "name",
          "type": "string"
        }
      ],
      "stateMutability": "payable",
      "type": "constructor"
    },
    {
      "inputs": [
        {
          "internalType": "uint48",
          "name": "deadline",
          "type": "uint48"
        }
      ],
      "name": "ERC2771ForwarderExpiredRequest",
      "type": "error"
    },
    {
      "inputs": [
        {
          "internalType": "address",
          "name": "signer",
          "type": "address"
        },
        {
          "internalType": "address",
          "name": "from",
          "type": "address"
        }
      ],
      "name": "ERC2771ForwarderInvalidSigner",
      "type": "error"
    },
    {
      "inputs": [
        {
          "internalType": "uint256",
          "name": "requestedValue",
          "type": "uint256"
        },
        {
          "internalType": "uint256",
          "name": "msgValue",
          "type": "uint256"
        }
      ],
      "name": "ERC2771ForwarderMismatchedValue",
      "type": "error"
    },
    {
      "inputs": [
        {
          "internalType": "address",
          "name": "target",
          "type": "address"
        },
        {
          "internalType": "address",
          "name": "forwarder",
          "type": "address"
        }
      ],
      "name": "ERC2771UntrustfulTarget",
      "type": "error"
    },
    {
      "inputs": [],
      "name": "FailedCall",
      "type": "error"
    },
    {
      "inputs": [
        {
          "internalType": "uint256",
          "name": "balance",
          "type": "uint256"
        },
        {
          "internalType": "uint256",
          "name": "needed",
          "type": "uint256"
        }
      ],
      "name": "InsufficientBalance",
      "type": "error"
    },
    {
      "inputs": [
        {
          "internalType": "address",
          "name": "account",
          "type": "address"
        },
        {
          "internalType": "uint256",
          "name": "currentNonce",
          "type": "uint256"
        }
      ],
      "name": "InvalidAccountNonce",
      "type": "error"
    },
    {
      "inputs": [],
      "name": "InvalidShortString",
      "type": "error"
    },
    {
      "inputs": [
        {
          "internalType": "string",
          "name": "str",
          "type": "string"
        }
      ],
      "name": "StringTooLong",
      "type": "error"
    },
    {
      "anonymous": false,
      "inputs": [],
      "name": "EIP712DomainChanged",
      "type": "event"
    },
    {
      "anonymous": false,
      "inputs": [
        {
          "indexed": true,
          "internalType": "address",
          "name": "signer",
          "type": "address"
        },
        {
          "indexed": false,
          "internalType": "uint256",
          "name": "nonce",
          "type": "uint256"
        },
        {
          "indexed": false,
          "internalType": "bool",
          "name": "success",
          "type": "bool"
        }
      ],
      "name": "ExecutedForwardRequest",
      "type": "event"
    },
    {
      "anonymous": false,
      "inputs": [
        {
          "indexed": false,
          "internalType": "bool",
          "name": "success",
          "type": "bool"
        }
      ],
      "name": "return$_execute",
      "type": "event"
    },
    {
      "anonymous": false,
      "inputs": [
        {
          "indexed": false,
          "internalType": "uint256",
          "name": "ret0",
          "type": "uint256"
        }
      ],
      "name": "return$_useNonce",
      "type": "event"
    },
    {
      "inputs": [],
      "name": "$_EIP712Name",
      "outputs": [
        {
          "internalType": "string",
          "name": "ret0",
          "type": "string"
        }
      ],
      "stateMutability": "view",
      "type": "function"
    },
    {
      "inputs": [],
      "name": "$_EIP712Version",
      "outputs": [
        {
          "internalType": "string",
          "name": "ret0",
          "type": "string"
        }
      ],
      "stateMutability": "view",
      "type": "function"
    },
    {
      "inputs": [],
      "name": "$_FORWARD_REQUEST_TYPEHASH",
      "outputs": [
        {
          "internalType": "bytes32",
          "name": "",
          "type": "bytes32"
        }
      ],
      "stateMutability": "pure",
      "type": "function"
    },
    {
      "inputs": [],
      "name": "$_domainSeparatorV4",
      "outputs": [
        {
          "internalType": "bytes32",
          "name": "ret0",
          "type": "bytes32"
        }
      ],
      "stateMutability": "view",
      "type": "function"
    },
    {
      "inputs": [
        {
          "components": [
            {
              "internalType": "address",
              "name": "from",
              "type": "address"
            },
            {
              "internalType": "address",
              "name": "to",
              "type": "address"
            },
            {
              "internalType": "uint256",
              "name": "value",
              "type": "uint256"
            },
            {
              "internalType": "uint256",
              "name": "gas",
              "type": "uint256"
            },
            {
              "internalType": "uint48",
              "name": "deadline",
              "type": "uint48"
            },
            {
              "internalType": "bytes",
              "name": "data",
              "type": "bytes"
            },
            {
              "internalType": "bytes",
              "name": "signature",
              "type": "bytes"
            }
          ],
          "internalType": "struct ERC2771Forwarder.ForwardRequestData",
          "name": "request",
          "type": "tuple"
        },
        {
          "internalType": "bool",
          "name": "requireValidRequest",
          "type": "bool"
        }
      ],
      "name": "$_execute",
      "outputs": [
        {
          "internalType": "bool",
          "name": "success",
          "type": "bool"
        }
      ],
      "stateMutability": "nonpayable",
      "type": "function"
    },
    {
      "inputs": [
        {
          "internalType": "bytes32",
          "name": "structHash",
          "type": "bytes32"
        }
      ],
      "name": "$_hashTypedDataV4",
      "outputs": [
        {
          "internalType": "bytes32",
          "name": "ret0",
          "type": "bytes32"
        }
      ],
      "stateMutability": "view",
      "type": "function"
    },
    {
      "inputs": [
        {
          "components": [
            {
              "internalType": "address",
              "name": "from",
              "type": "address"
            },
            {
              "internalType": "address",
              "name": "to",
              "type": "address"
            },
            {
              "internalType": "uint256",
              "name": "value",
              "type": "uint256"
            },
            {
              "internalType": "uint256",
              "name": "gas",
              "type": "uint256"
            },
            {
              "internalType": "uint48",
              "name": "deadline",
              "type": "uint48"
            },
            {
              "internalType": "bytes",
              "name": "data",
              "type": "bytes"
            },
            {
              "internalType": "bytes",
              "name": "signature",
              "type": "bytes"
            }
          ],
          "internalType": "struct ERC2771Forwarder.ForwardRequestData",
          "name": "request",
          "type": "tuple"
        }
      ],
      "name": "$_recoverForwardRequestSigner",
      "outputs": [
        {
          "internalType": "bool",
          "name": "isValid",
          "type": "bool"
        },
        {
          "internalType": "address",
          "name": "signer",
          "type": "address"
        }
      ],
      "stateMutability": "view",
      "type": "function"
    },
    {
      "inputs": [
        {
          "internalType": "address",
          "name": "owner",
          "type": "address"
        },
        {
          "internalType": "uint256",
          "name": "nonce",
          "type": "uint256"
        }
      ],
      "name": "$_useCheckedNonce",
      "outputs": [],
      "stateMutability": "nonpayable",
      "type": "function"
    },
    {
      "inputs": [
        {
          "internalType": "address",
          "name": "owner",
          "type": "address"
        }
      ],
      "name": "$_useNonce",
      "outputs": [
        {
          "internalType": "uint256",
          "name": "ret0",
          "type": "uint256"
        }
      ],
      "stateMutability": "nonpayable",
      "type": "function"
    },
    {
      "inputs": [
        {
          "components": [
            {
              "internalType": "address",
              "name": "from",
              "type": "address"
            },
            {
              "internalType": "address",
              "name": "to",
              "type": "address"
            },
            {
              "internalType": "uint256",
              "name": "value",
              "type": "uint256"
            },
            {
              "internalType": "uint256",
              "name": "gas",
              "type": "uint256"
            },
            {
              "internalType": "uint48",
              "name": "deadline",
              "type": "uint48"
            },
            {
              "internalType": "bytes",
              "name": "data",
              "type": "bytes"
            },
            {
              "internalType": "bytes",
              "name": "signature",
              "type": "bytes"
            }
          ],
          "internalType": "struct ERC2771Forwarder.ForwardRequestData",
          "name": "request",
          "type": "tuple"
        }
      ],
      "name": "$_validate",
      "outputs": [
        {
          "internalType": "bool",
          "name": "isTrustedForwarder",
          "type": "bool"
        },
        {
          "internalType": "bool",
          "name": "active",
          "type": "bool"
        },
        {
          "internalType": "bool",
          "name": "signerMatch",
          "type": "bool"
        },
        {
          "internalType": "address",
          "name": "signer",
          "type": "address"
        }
      ],
      "stateMutability": "view",
      "type": "function"
    },
    {
      "inputs": [],
      "name": "__hh_exposed_bytecode_marker",
      "outputs": [
        {
          "internalType": "bytes32",
          "name": "",
          "type": "bytes32"
        }
      ],
      "stateMutability": "view",
      "type": "function"
    },
    {
      "inputs": [],
      "name": "eip712Domain",
      "outputs": [
        {
          "internalType": "bytes1",
          "name": "fields",
          "type": "bytes1"
        },
        {
          "internalType": "string",
          "name": "name",
          "type": "string"
        },
        {
          "internalType": "string",
          "name": "version",
          "type": "string"
        },
        {
          "internalType": "uint256",
          "name": "chainId",
          "type": "uint256"
        },
        {
          "internalType": "address",
          "name": "verifyingContract",
          "type": "address"
        },
        {
          "internalType": "bytes32",
          "name": "salt",
          "type": "bytes32"
        },
        {
          "internalType": "uint256[]",
          "name": "extensions",
          "type": "uint256[]"
        }
      ],
      "stateMutability": "view",
      "type": "function"
    },
    {
      "inputs": [
        {
          "components": [
            {
              "internalType": "address",
              "name": "from",
              "type": "address"
            },
            {
              "internalType": "address",
              "name": "to",
              "type": "address"
            },
            {
              "internalType": "uint256",
              "name": "value",
              "type": "uint256"
            },
            {
              "internalType": "uint256",
              "name": "gas",
              "type": "uint256"
            },
            {
              "internalType": "uint48",
              "name": "deadline",
              "type": "uint48"
            },
            {
              "internalType": "bytes",
              "name": "data",
              "type": "bytes"
            },
            {
              "internalType": "bytes",
              "name": "signature",
              "type": "bytes"
            }
          ],
          "internalType": "struct ERC2771Forwarder.ForwardRequestData",
          "name": "request",
          "type": "tuple"
        }
      ],
      "name": "execute",
      "outputs": [],
      "stateMutability": "payable",
      "type": "function"
    },
    {
      "inputs": [
        {
          "components": [
            {
              "internalType": "address",
              "name": "from",
              "type": "address"
            },
            {
              "internalType": "address",
              "name": "to",
              "type": "address"
            },
            {
              "internalType": "uint256",
              "name": "value",
              "type": "uint256"
            },
            {
              "internalType": "uint256",
              "name": "gas",
              "type": "uint256"
            },
            {
              "internalType": "uint48",
              "name": "deadline",
              "type": "uint48"
            },
            {
              "internalType": "bytes",
              "name": "data",
              "type": "bytes"
            },
            {
              "internalType": "bytes",
              "name": "signature",
              "type": "bytes"
            }
          ],
          "internalType": "struct ERC2771Forwarder.ForwardRequestData[]",
          "name": "requests",
          "type": "tuple[]"
        },
        {
          "internalType": "address payable",
          "name": "refundReceiver",
          "type": "address"
        }
      ],
      "name": "executeBatch",
      "outputs": [],
      "stateMutability": "payable",
      "type": "function"
    },
    {
      "inputs": [
        {
          "internalType": "address",
          "name": "owner",
          "type": "address"
        }
      ],
      "name": "nonces",
      "outputs": [
        {
          "internalType": "uint256",
          "name": "",
          "type": "uint256"
        }
      ],
      "stateMutability": "view",
      "type": "function"
    },
    {
      "inputs": [
        {
          "components": [
            {
              "internalType": "address",
              "name": "from",
              "type": "address"
            },
            {
              "internalType": "address",
              "name": "to",
              "type": "address"
            },
            {
              "internalType": "uint256",
              "name": "value",
              "type": "uint256"
            },
            {
              "internalType": "uint256",
              "name": "gas",
              "type": "uint256"
            },
            {
              "internalType": "uint48",
              "name": "deadline",
              "type": "uint48"
            },
            {
              "internalType": "bytes",
              "name": "data",
              "type": "bytes"
            },
            {
              "internalType": "bytes",
              "name": "signature",
              "type": "bytes"
            }
          ],
          "internalType": "struct ERC2771Forwarder.ForwardRequestData",
          "name": "request",
          "type": "tuple"
        }
      ],
      "name": "verify",
      "outputs": [
        {
          "internalType": "bool",
          "name": "",
          "type": "bool"
        }
      ],
      "stateMutability": "view",
      "type": "function"
    },
    {
      "stateMutability": "payable",
      "type": "receive"
    }
  ],
  "bytecode": "0x61016060405260405162001822380380620018228339810160408190526200002791620001ba565b6040805180820190915260018152603160f81b6020820152819081906200004f825f620000ff565b6101205262000060816001620000ff565b61014052815160208084019190912060e052815190820120610100524660a052620000ed60e05161010051604080517f8b73c3c69bb8fe3d512ecc4cf759cc79239f7b179b0ffacaa9a75d522b39400f60208201529081019290925260608201524660808201523060a08201525f9060c00160405160208183030381529060405280519060200120905090565b60805250503060c052506200041b9050565b5f6020835110156200011e57620001168362000137565b905062000131565b816200012b8482620002f7565b5060ff90505b92915050565b5f80829050601f815111156200016d578260405163305a27a960e01b8152600401620001649190620003c3565b60405180910390fd5b80516200017a82620003f7565b179392505050565b634e487b7160e01b5f52604160045260245ffd5b5f5b83811015620001b257818101518382015260200162000198565b50505f910152565b5f60208284031215620001cb575f80fd5b81516001600160401b0380821115620001e2575f80fd5b818401915084601f830112620001f6575f80fd5b8151818111156200020b576200020b62000182565b604051601f8201601f19908116603f0116810190838211818310171562000236576200023662000182565b816040528281528760208487010111156200024f575f80fd5b6200026283602083016020880162000196565b979650505050505050565b600181811c908216806200028257607f821691505b602082108103620002a157634e487b7160e01b5f52602260045260245ffd5b50919050565b601f821115620002f257805f5260205f20601f840160051c81016020851015620002ce5750805b601f840160051c820191505b81811015620002ef575f8155600101620002da565b50505b505050565b81516001600160401b0381111562000313576200031362000182565b6200032b816200032484546200026d565b84620002a7565b602080601f83116001811462000361575f8415620003495750858301515b5f19600386901b1c1916600185901b178555620003bb565b5f85815260208120601f198616915b82811015620003915788860151825594840194600190910190840162000370565b5085821015620003af57878501515f19600388901b60f8161c191681555b505060018460011b0185555b505050505050565b602081525f8251806020840152620003e381604085016020870162000196565b601f01601f19169190910160400192915050565b80516020808301519190811015620002a1575f1960209190910360031b1b16919050565b60805160a05160c05160e0516101005161012051610140516113b56200046d5f395f61069401525f61066801525f61084101525f61081901525f61077401525f61079e01525f6107c801526113b55ff3fe6080604052600436106100f2575f3560e01c80636b4ac50211610087578063a5de6cf811610057578063a5de6cf8146102ed578063ccf96b4a1461030c578063dac6493a1461031f578063df905caf1461035d575f80fd5b80636b4ac5021461023f578063788b32ed146102605780637ecebe001461029257806384b0196e146102c6575f80fd5b8063342db739116100c2578063342db739146101975780634c2b6e2e146101bc578063506a6f0c1461020c5780635f8d5e741461022b575f80fd5b80631164d13b146100fd578063174ccd821461012757806319d8d38c1461013b5780632e8fbee51461016a575f80fd5b366100f957005b5f80fd5b348015610108575f80fd5b50610111610370565b60405161011e9190610fe3565b60405180910390f35b348015610132575f80fd5b5061011161037f565b348015610146575f80fd5b5061015a610155366004611012565b610389565b604051901515815260200161011e565b348015610175575f80fd5b50610189610184366004611060565b6103b9565b60405190815260200161011e565b3480156101a2575f80fd5b506101896e1a185c991a185d0b595e1c1bdcd959608a1b81565b3480156101c7575f80fd5b506101db6101d6366004611012565b610419565b6040805194151585529215156020850152901515918301919091526001600160a01b0316606082015260800161011e565b348015610217575f80fd5b5061018961022636600461107b565b610435565b348015610236575f80fd5b50610189610445565b34801561024a575f80fd5b5061025e610259366004611092565b61044e565b005b34801561026b575f80fd5b507f7f96328b83274ebc7c1cf4f7a3abda602b51a78b7fa1d86a2ce353d75e587cac610189565b34801561029d575f80fd5b506101896102ac366004611060565b6001600160a01b03165f9081526002602052604090205490565b3480156102d1575f80fd5b506102da61045c565b60405161011e97969594939291906110bc565b3480156102f8575f80fd5b5061015a610307366004611153565b61049e565b61025e61031a3660046111a6565b6104ec565b34801561032a575f80fd5b5061033e610339366004611012565b6105f1565b6040805192151583526001600160a01b0390911660208301520161011e565b61025e61036b366004611012565b610606565b606061037a610661565b905090565b606061037a61068d565b5f805f80610396856106ba565b509250925092508280156103a75750815b80156103b05750805b95945050505050565b6001600160a01b0381165f90815260026020526040812080546001810190915590507f8d5c13b1cd528a3e1895fdc833368c4e3af5391250c736a28e94c4fa59b3cee48160405161040c91815260200190565b60405180910390a1919050565b5f805f80610426856106ba565b92989197509550909350915050565b5f61043f8261073c565b92915050565b5f61037a610768565b6104588282610891565b5050565b5f6060805f805f606061046d610661565b61047561068d565b604080515f80825260208201909252600f60f81b9b939a50919850469750309650945092509050565b5f6104a983836108e8565b90507f395bc7cb967401bbbc8a16dbd20cf4d4106849ba0afbe42b4b9eec1c662b757a816040516104de911515815260200190565b60405180910390a192915050565b6001600160a01b038116155f80805b858110156105aa5786868281811061051557610515611225565b90506020028101906105279190611239565b610535906040013584611257565b92505f61056588888481811061054d5761054d611225565b905060200281019061055f9190611239565b866108e8565b9050806105a15787878381811061057e5761057e611225565b90506020028101906105909190611239565b61059e906040013584611257565b92505b506001016104fb565b503482146105d9576040516370647f7960e01b8152600481018390523460248201526044015b60405180910390fd5b80156105e9576105e98482610ac3565b505050505050565b5f806105fc83610b55565b9094909350915050565b8060400135341461063657604080516370647f7960e01b81529082013560048201523460248201526044016105d0565b6106418160016108e8565b61065e5760405163d6bda27560e01b815260040160405180910390fd5b50565b606061037a7f00000000000000000000000000000000000000000000000000000000000000005f610cc7565b606061037a7f00000000000000000000000000000000000000000000000000000000000000006001610cc7565b5f805f805f806106c987610b55565b90925090506106e66106e16040890160208a01611060565b610d71565b426106f760a08a0160808b01611276565b65ffffffffffff16101583801561072b575061071660208a018a611060565b6001600160a01b0316836001600160a01b0316145b919750955093509150509193509193565b5f61043f610748610768565b8360405161190160f01b8152600281019290925260228201526042902090565b5f306001600160a01b037f0000000000000000000000000000000000000000000000000000000000000000161480156107c057507f000000000000000000000000000000000000000000000000000000000000000046145b156107ea57507f000000000000000000000000000000000000000000000000000000000000000090565b61037a604080517f8b73c3c69bb8fe3d512ecc4cf759cc79239f7b179b0ffacaa9a75d522b39400f60208201527f0000000000000000000000000000000000000000000000000000000000000000918101919091527f000000000000000000000000000000000000000000000000000000000000000060608201524660808201523060a08201525f9060c00160405160208183030381529060405280519060200120905090565b6001600160a01b0382165f9081526002602052604090208054600181019091558181146108e3576040516301d4b62360e61b81526001600160a01b0384166004820152602481018290526044016105d0565b505050565b5f805f805f6108f6876106ba565b935093509350935085156109bc5783610944576109196040880160208901611060565b60405163d2650cd160e01b81526001600160a01b0390911660048201523060248201526044016105d0565b8261097d5761095960a0880160808901611276565b604051634a777ac560e11b815265ffffffffffff90911660048201526024016105d0565b816109bc57806109906020890189611060565b604051636422d02b60e11b81526001600160a01b039283166004820152911660248201526044016105d0565b8380156109c65750815b80156109cf5750825b15610ab9576001600160a01b0381165f908152600260205260408120805460018101909155905060608801355f610a0c60408b0160208c01611060565b905060408a01355f610a2160a08d018d61129b565b610a2e60208f018f611060565b604051602001610a40939291906112e5565b60405160208183030381529060405290505f805f83516020850186888af19a505a9050610a6d818e610dea565b604080518781528c151560208201526001600160a01b038916917f842fb24a83793558587a3dab2be7674da4a51d09c5542d6dd354e5d0ea70813c910160405180910390a25050505050505b5050505092915050565b80471015610aed5760405163cf47918160e01b8152476004820152602481018290526044016105d0565b5f80836001600160a01b0316836040515f6040518083038185875af1925050503d805f8114610b37576040519150601f19603f3d011682016040523d82523d5f602084013e610b3c565b606091505b509150915081610b4f57610b4f81610e02565b50505050565b5f808080610ca2610b6960c087018761129b565b8080601f0160208091040260200160405190810160405280939291908181526020018383808284375f92019190915250610c9c92507f7f96328b83274ebc7c1cf4f7a3abda602b51a78b7fa1d86a2ce353d75e587cac9150610bd0905060208a018a611060565b610be060408b0160208c01611060565b60408b013560608c0135610bfa6102ac60208f018f611060565b8d6080016020810190610c0d9190611276565b8e8060a00190610c1d919061129b565b604051610c2b92919061130b565b6040805191829003822060208301999099526001600160a01b0397881690820152959094166060860152608085019290925260a084015260c083015265ffffffffffff1660e0820152610100810191909152610120016040516020818303038152906040528051906020012061073c565b90610e2b565b5090925090505f816003811115610cbb57610cbb61131a565b14959194509092505050565b606060ff8314610ce157610cda83610e74565b905061043f565b818054610ced9061132e565b80601f0160208091040260200160405190810160405280929190818152602001828054610d199061132e565b8015610d645780601f10610d3b57610100808354040283529160200191610d64565b820191905f5260205f20905b815481529060010190602001808311610d4757829003601f168201915b5050505050905092915050565b6040513060248201525f90819060440160408051601f19818403018152919052602080820180516001600160e01b031663572b6c0560e01b17815282519293505f928392839290918391895afa92503d91505f519050828015610dd5575060208210155b8015610de057505f81115b9695505050505050565b610df9603f6060830135611360565b82101561045857fe5b805115610e125780518082602001fd5b60405163d6bda27560e01b815260040160405180910390fd5b5f805f8351604103610e62576020840151604085015160608601515f1a610e5488828585610eb1565b955095509550505050610e6d565b505081515f91506002905b9250925092565b60605f610e8083610f79565b6040805160208082528183019092529192505f91906020820181803683375050509182525060208101929092525090565b5f80807f7fffffffffffffffffffffffffffffff5d576e7357a4501ddfe92f46681b20a0841115610eea57505f91506003905082610f6f565b604080515f808252602082018084528a905260ff891692820192909252606081018790526080810186905260019060a0016020604051602081039080840390855afa158015610f3b573d5f803e3d5ffd5b5050604051601f1901519150506001600160a01b038116610f6657505f925060019150829050610f6f565b92505f91508190505b9450945094915050565b5f60ff8216601f81111561043f57604051632cd44ac360e21b815260040160405180910390fd5b5f81518084525f5b81811015610fc457602081850181015186830182015201610fa8565b505f602082860101526020601f19601f83011685010191505092915050565b602081525f610ff56020830184610fa0565b9392505050565b5f60e0828403121561100c575f80fd5b50919050565b5f60208284031215611022575f80fd5b813567ffffffffffffffff811115611038575f80fd5b61104484828501610ffc565b949350505050565b6001600160a01b038116811461065e575f80fd5b5f60208284031215611070575f80fd5b8135610ff58161104c565b5f6020828403121561108b575f80fd5b5035919050565b5f80604083850312156110a3575f80fd5b82356110ae8161104c565b946020939093013593505050565b60ff60f81b881681525f602060e060208401526110dc60e084018a610fa0565b83810360408501526110ee818a610fa0565b606085018990526001600160a01b038816608086015260a0850187905284810360c0860152855180825260208088019350909101905f5b8181101561114157835183529284019291840191600101611125565b50909c9b505050505050505050505050565b5f8060408385031215611164575f80fd5b823567ffffffffffffffff81111561117a575f80fd5b61118685828601610ffc565b9250506020830135801515811461119b575f80fd5b809150509250929050565b5f805f604084860312156111b8575f80fd5b833567ffffffffffffffff808211156111cf575f80fd5b818601915086601f8301126111e2575f80fd5b8135818111156111f0575f80fd5b8760208260051b8501011115611204575f80fd5b6020928301955093505084013561121a8161104c565b809150509250925092565b634e487b7160e01b5f52603260045260245ffd5b5f823560de1983360301811261124d575f80fd5b9190910192915050565b8082018082111561043f57634e487b7160e01b5f52601160045260245ffd5b5f60208284031215611286575f80fd5b813565ffffffffffff81168114610ff5575f80fd5b5f808335601e198436030181126112b0575f80fd5b83018035915067ffffffffffffffff8211156112ca575f80fd5b6020019150368190038213156112de575f80fd5b9250929050565b8284823760609190911b6bffffffffffffffffffffffff19169101908152601401919050565b818382375f9101908152919050565b634e487b7160e01b5f52602160045260245ffd5b600181811c9082168061134257607f821691505b60208210810361100c57634e487b7160e01b5f52602260045260245ffd5b5f8261137a57634e487b7160e01b5f52601260045260245ffd5b50049056fea26469706673582212201b5268635c7fac412e81aa84f561aa01e5867504a0944be881e18992a2399da064736f6c63430008180033",
  "linkReferences": {},
  "deployedLinkReferences": {}
}