{
  "_format": "hh-sol-artifact-1",
  "contractName": "$ERC165NotSupported",
  "sourceName": "contracts-exposed/mocks/ERC165/ERC165NotSupported.sol",
  "abi": [
    {
      "inputs": [],
      "stateMutability": "payable",
      "type": "constructor"
    },
    {
      "inputs": [],
      "name": "__hh_exposed_bytecode_marker",
      "outputs": [
        {
          "internalType": "bytes32",
          "name": "",
          "type": "bytes32"
        }
      ],
      "stateMutability": "view",
      "type": "function"
    },
    {
      "stateMutability": "payable",
      "type": "receive"
    }
  ],
  "bytecode": "0x6080604052609380600f5f395ff3fe608060405260043610601e575f3560e01c8063342db739146028575f80fd5b36602457005b5f80fd5b3480156032575f80fd5b50604b6e1a185c991a185d0b595e1c1bdcd959608a1b81565b60405190815260200160405180910390f3fea264697066735822122088b533c7410577284fa4d0c3e1016e07e5c18d6a652e098d6bc347cbf731713c64736f6c63430008180033",
  "linkReferences": {},
  "deployedLinkReferences": {}
}