{
  "_format": "hh-sol-artifact-1",
  "contractName": "$GovernorTimelockCompoundMock",
  "sourceName": "contracts-exposed/mocks/governance/GovernorTimelockCompoundMock.sol",
  "abi": [
    {
      "inputs": [
        {
          "internalType": "string",
          "name": "name_",
          "type": "string"
        },
        {
          "internalType": "uint48",
          "name": "initialVotingDelay",
          "type": "uint48"
        },
        {
          "internalType": "uint32",
          "name": "initialVotingPeriod",
          "type": "uint32"
        },
        {
          "internalType": "uint256",
          "name": "initialProposalThreshold",
          "type": "uint256"
        },
        {
          "internalType": "contract ICompoundTimelock",
          "name": "timelockAddress",
          "type": "address"
        },
        {
          "internalType": "contract IVotes",
          "name": "tokenAddress",
          "type": "address"
        },
        {
          "internalType": "uint256",
          "name": "quorumNumeratorValue",
          "type": "uint256"
        }
      ],
      "stateMutability": "payable",
      "type": "constructor"
    },
    {
      "inputs": [],
      "name": "CheckpointUnorderedInsertion",
      "type": "error"
    },
    {
      "inputs": [],
      "name": "FailedCall",
      "type": "error"
    },
    {
      "inputs": [
        {
          "internalType": "address",
          "name": "voter",
          "type": "address"
        }
      ],
      "name": "GovernorAlreadyCastVote",
      "type": "error"
    },
    {
      "inputs": [
        {
          "internalType": "uint256",
          "name": "proposalId",
          "type": "uint256"
        }
      ],
      "name": "GovernorAlreadyQueuedProposal",
      "type": "error"
    },
    {
      "inputs": [],
      "name": "GovernorDisabledDeposit",
      "type": "error"
    },
    {
      "inputs": [
        {
          "internalType": "address",
          "name": "proposer",
          "type": "address"
        },
        {
          "internalType": "uint256",
          "name": "votes",
          "type": "uint256"
        },
        {
          "internalType": "uint256",
          "name": "threshold",
          "type": "uint256"
        }
      ],
      "name": "GovernorInsufficientProposerVotes",
      "type": "error"
    },
    {
      "inputs": [
        {
          "internalType": "uint256",
          "name": "targets",
          "type": "uint256"
        },
        {
          "internalType": "uint256",
          "name": "calldatas",
          "type": "uint256"
        },
        {
          "internalType": "uint256",
          "name": "values",
          "type": "uint256"
        }
      ],
      "name": "GovernorInvalidProposalLength",
      "type": "error"
    },
    {
      "inputs": [
        {
          "internalType": "uint256",
          "name": "quorumNumerator",
          "type": "uint256"
        },
        {
          "internalType": "uint256",
          "name": "quorumDenominator",
          "type": "uint256"
        }
      ],
      "name": "GovernorInvalidQuorumFraction",
      "type": "error"
    },
    {
      "inputs": [
        {
          "internalType": "address",
          "name": "voter",
          "type": "address"
        }
      ],
      "name": "GovernorInvalidSignature",
      "type": "error"
    },
    {
      "inputs": [],
      "name": "GovernorInvalidVoteParams",
      "type": "error"
    },
    {
      "inputs": [],
      "name": "GovernorInvalidVoteType",
      "type": "error"
    },
    {
      "inputs": [
        {
          "internalType": "uint256",
          "name": "votingPeriod",
          "type": "uint256"
        }
      ],
      "name": "GovernorInvalidVotingPeriod",
      "type": "error"
    },
    {
      "inputs": [
        {
          "internalType": "uint256",
          "name": "proposalId",
          "type": "uint256"
        }
      ],
      "name": "GovernorNonexistentProposal",
      "type": "error"
    },
    {
      "inputs": [
        {
          "internalType": "uint256",
          "name": "proposalId",
          "type": "uint256"
        }
      ],
      "name": "GovernorNotQueuedProposal",
      "type": "error"
    },
    {
      "inputs": [
        {
          "internalType": "address",
          "name": "account",
          "type": "address"
        }
      ],
      "name": "GovernorOnlyExecutor",
      "type": "error"
    },
    {
      "inputs": [
        {
          "internalType": "address",
          "name": "account",
          "type": "address"
        }
      ],
      "name": "GovernorOnlyProposer",
      "type": "error"
    },
    {
      "inputs": [],
      "name": "GovernorQueueNotImplemented",
      "type": "error"
    },
    {
      "inputs": [
        {
          "internalType": "address",
          "name": "proposer",
          "type": "address"
        }
      ],
      "name": "GovernorRestrictedProposer",
      "type": "error"
    },
    {
      "inputs": [
        {
          "internalType": "uint256",
          "name": "proposalId",
          "type": "uint256"
        },
        {
          "internalType": "enum IGovernor.ProposalState",
          "name": "current",
          "type": "uint8"
        },
        {
          "internalType": "bytes32",
          "name": "expectedStates",
          "type": "bytes32"
        }
      ],
      "name": "GovernorUnexpectedProposalState",
      "type": "error"
    },
    {
      "inputs": [
        {
          "internalType": "uint256",
          "name": "balance",
          "type": "uint256"
        },
        {
          "internalType": "uint256",
          "name": "needed",
          "type": "uint256"
        }
      ],
      "name": "InsufficientBalance",
      "type": "error"
    },
    {
      "inputs": [
        {
          "internalType": "address",
          "name": "account",
          "type": "address"
        },
        {
          "internalType": "uint256",
          "name": "currentNonce",
          "type": "uint256"
        }
      ],
      "name": "InvalidAccountNonce",
      "type": "error"
    },
    {
      "inputs": [],
      "name": "InvalidShortString",
      "type": "error"
    },
    {
      "inputs": [
        {
          "internalType": "uint8",
          "name": "bits",
          "type": "uint8"
        },
        {
          "internalType": "uint256",
          "name": "value",
          "type": "uint256"
        }
      ],
      "name": "SafeCastOverflowedUintDowncast",
      "type": "error"
    },
    {
      "inputs": [
        {
          "internalType": "string",
          "name": "str",
          "type": "string"
        }
      ],
      "name": "StringTooLong",
      "type": "error"
    },
    {
      "anonymous": false,
      "inputs": [],
      "name": "EIP712DomainChanged",
      "type": "event"
    },
    {
      "anonymous": false,
      "inputs": [
        {
          "indexed": false,
          "internalType": "uint256",
          "name": "proposalId",
          "type": "uint256"
        }
      ],
      "name": "ProposalCanceled",
      "type": "event"
    },
    {
      "anonymous": false,
      "inputs": [
        {
          "indexed": false,
          "internalType": "uint256",
          "name": "proposalId",
          "type": "uint256"
        },
        {
          "indexed": false,
          "internalType": "address",
          "name": "proposer",
          "type": "address"
        },
        {
          "indexed": false,
          "internalType": "address[]",
          "name": "targets",
          "type": "address[]"
        },
        {
          "indexed": false,
          "internalType": "uint256[]",
          "name": "values",
          "type": "uint256[]"
        },
        {
          "indexed": false,
          "internalType": "string[]",
          "name": "signatures",
          "type": "string[]"
        },
        {
          "indexed": false,
          "internalType": "bytes[]",
          "name": "calldatas",
          "type": "bytes[]"
        },
        {
          "indexed": false,
          "internalType": "uint256",
          "name": "voteStart",
          "type": "uint256"
        },
        {
          "indexed": false,
          "internalType": "uint256",
          "name": "voteEnd",
          "type": "uint256"
        },
        {
          "indexed": false,
          "internalType": "string",
          "name": "description",
          "type": "string"
        }
      ],
      "name": "ProposalCreated",
      "type": "event"
    },
    {
      "anonymous": false,
      "inputs": [
        {
          "indexed": false,
          "internalType": "uint256",
          "name": "proposalId",
          "type": "uint256"
        }
      ],
      "name": "ProposalExecuted",
      "type": "event"
    },
    {
      "anonymous": false,
      "inputs": [
        {
          "indexed": false,
          "internalType": "uint256",
          "name": "proposalId",
          "type": "uint256"
        },
        {
          "indexed": false,
          "internalType": "uint256",
          "name": "etaSeconds",
          "type": "uint256"
        }
      ],
      "name": "ProposalQueued",
      "type": "event"
    },
    {
      "anonymous": false,
      "inputs": [
        {
          "indexed": false,
          "internalType": "uint256",
          "name": "oldProposalThreshold",
          "type": "uint256"
        },
        {
          "indexed": false,
          "internalType": "uint256",
          "name": "newProposalThreshold",
          "type": "uint256"
        }
      ],
      "name": "ProposalThresholdSet",
      "type": "event"
    },
    {
      "anonymous": false,
      "inputs": [
        {
          "indexed": false,
          "internalType": "uint256",
          "name": "oldQuorumNumerator",
          "type": "uint256"
        },
        {
          "indexed": false,
          "internalType": "uint256",
          "name": "newQuorumNumerator",
          "type": "uint256"
        }
      ],
      "name": "QuorumNumeratorUpdated",
      "type": "event"
    },
    {
      "anonymous": false,
      "inputs": [
        {
          "indexed": false,
          "internalType": "address",
          "name": "oldTimelock",
          "type": "address"
        },
        {
          "indexed": false,
          "internalType": "address",
          "name": "newTimelock",
          "type": "address"
        }
      ],
      "name": "TimelockChange",
      "type": "event"
    },
    {
      "anonymous": false,
      "inputs": [
        {
          "indexed": true,
          "internalType": "address",
          "name": "voter",
          "type": "address"
        },
        {
          "indexed": false,
          "internalType": "uint256",
          "name": "proposalId",
          "type": "uint256"
        },
        {
          "indexed": false,
          "internalType": "uint8",
          "name": "support",
          "type": "uint8"
        },
        {
          "indexed": false,
          "internalType": "uint256",
          "name": "weight",
          "type": "uint256"
        },
        {
          "indexed": false,
          "internalType": "string",
          "name": "reason",
          "type": "string"
        }
      ],
      "name": "VoteCast",
      "type": "event"
    },
    {
      "anonymous": false,
      "inputs": [
        {
          "indexed": true,
          "internalType": "address",
          "name": "voter",
          "type": "address"
        },
        {
          "indexed": false,
          "internalType": "uint256",
          "name": "proposalId",
          "type": "uint256"
        },
        {
          "indexed": false,
          "internalType": "uint8",
          "name": "support",
          "type": "uint8"
        },
        {
          "indexed": false,
          "internalType": "uint256",
          "name": "weight",
          "type": "uint256"
        },
        {
          "indexed": false,
          "internalType": "string",
          "name": "reason",
          "type": "string"
        },
        {
          "indexed": false,
          "internalType": "bytes",
          "name": "params",
          "type": "bytes"
        }
      ],
      "name": "VoteCastWithParams",
      "type": "event"
    },
    {
      "anonymous": false,
      "inputs": [
        {
          "indexed": false,
          "internalType": "uint256",
          "name": "oldVotingDelay",
          "type": "uint256"
        },
        {
          "indexed": false,
          "internalType": "uint256",
          "name": "newVotingDelay",
          "type": "uint256"
        }
      ],
      "name": "VotingDelaySet",
      "type": "event"
    },
    {
      "anonymous": false,
      "inputs": [
        {
          "indexed": false,
          "internalType": "uint256",
          "name": "oldVotingPeriod",
          "type": "uint256"
        },
        {
          "indexed": false,
          "internalType": "uint256",
          "name": "newVotingPeriod",
          "type": "uint256"
        }
      ],
      "name": "VotingPeriodSet",
      "type": "event"
    },
    {
      "anonymous": false,
      "inputs": [
        {
          "indexed": false,
          "internalType": "uint256",
          "name": "ret0",
          "type": "uint256"
        }
      ],
      "name": "return$_cancel",
      "type": "event"
    },
    {
      "anonymous": false,
      "inputs": [
        {
          "indexed": false,
          "internalType": "uint256",
          "name": "ret0",
          "type": "uint256"
        }
      ],
      "name": "return$_castVote_uint256_address_uint8_string",
      "type": "event"
    },
    {
      "anonymous": false,
      "inputs": [
        {
          "indexed": false,
          "internalType": "uint256",
          "name": "ret0",
          "type": "uint256"
        }
      ],
      "name": "return$_castVote_uint256_address_uint8_string_bytes",
      "type": "event"
    },
    {
      "anonymous": false,
      "inputs": [
        {
          "indexed": false,
          "internalType": "uint256",
          "name": "ret0",
          "type": "uint256"
        }
      ],
      "name": "return$_countVote",
      "type": "event"
    },
    {
      "anonymous": false,
      "inputs": [
        {
          "indexed": false,
          "internalType": "uint256",
          "name": "proposalId",
          "type": "uint256"
        }
      ],
      "name": "return$_propose",
      "type": "event"
    },
    {
      "anonymous": false,
      "inputs": [
        {
          "indexed": false,
          "internalType": "uint48",
          "name": "ret0",
          "type": "uint48"
        }
      ],
      "name": "return$_queueOperations",
      "type": "event"
    },
    {
      "anonymous": false,
      "inputs": [
        {
          "indexed": false,
          "internalType": "uint256",
          "name": "ret0",
          "type": "uint256"
        }
      ],
      "name": "return$_useNonce",
      "type": "event"
    },
    {
      "inputs": [],
      "name": "$_EIP712Name",
      "outputs": [
        {
          "internalType": "string",
          "name": "ret0",
          "type": "string"
        }
      ],
      "stateMutability": "view",
      "type": "function"
    },
    {
      "inputs": [],
      "name": "$_EIP712Version",
      "outputs": [
        {
          "internalType": "string",
          "name": "ret0",
          "type": "string"
        }
      ],
      "stateMutability": "view",
      "type": "function"
    },
    {
      "inputs": [
        {
          "internalType": "address[]",
          "name": "targets",
          "type": "address[]"
        },
        {
          "internalType": "uint256[]",
          "name": "values",
          "type": "uint256[]"
        },
        {
          "internalType": "bytes[]",
          "name": "calldatas",
          "type": "bytes[]"
        },
        {
          "internalType": "bytes32",
          "name": "descriptionHash",
          "type": "bytes32"
        }
      ],
      "name": "$_cancel",
      "outputs": [
        {
          "internalType": "uint256",
          "name": "ret0",
          "type": "uint256"
        }
      ],
      "stateMutability": "nonpayable",
      "type": "function"
    },
    {
      "inputs": [
        {
          "internalType": "uint256",
          "name": "proposalId",
          "type": "uint256"
        },
        {
          "internalType": "address",
          "name": "account",
          "type": "address"
        },
        {
          "internalType": "uint8",
          "name": "support",
          "type": "uint8"
        },
        {
          "internalType": "string",
          "name": "reason",
          "type": "string"
        },
        {
          "internalType": "bytes",
          "name": "params",
          "type": "bytes"
        }
      ],
      "name": "$_castVote",
      "outputs": [
        {
          "internalType": "uint256",
          "name": "ret0",
          "type": "uint256"
        }
      ],
      "stateMutability": "nonpayable",
      "type": "function"
    },
    {
      "inputs": [
        {
          "internalType": "uint256",
          "name": "proposalId",
          "type": "uint256"
        },
        {
          "internalType": "address",
          "name": "account",
          "type": "address"
        },
        {
          "internalType": "uint8",
          "name": "support",
          "type": "uint8"
        },
        {
          "internalType": "string",
          "name": "reason",
          "type": "string"
        }
      ],
      "name": "$_castVote",
      "outputs": [
        {
          "internalType": "uint256",
          "name": "ret0",
          "type": "uint256"
        }
      ],
      "stateMutability": "nonpayable",
      "type": "function"
    },
    {
      "inputs": [],
      "name": "$_checkGovernance",
      "outputs": [],
      "stateMutability": "nonpayable",
      "type": "function"
    },
    {
      "inputs": [],
      "name": "$_contextSuffixLength",
      "outputs": [
        {
          "internalType": "uint256",
          "name": "ret0",
          "type": "uint256"
        }
      ],
      "stateMutability": "view",
      "type": "function"
    },
    {
      "inputs": [
        {
          "internalType": "uint256",
          "name": "proposalId",
          "type": "uint256"
        },
        {
          "internalType": "address",
          "name": "account",
          "type": "address"
        },
        {
          "internalType": "uint8",
          "name": "support",
          "type": "uint8"
        },
        {
          "internalType": "uint256",
          "name": "totalWeight",
          "type": "uint256"
        },
        {
          "internalType": "bytes",
          "name": "arg4",
          "type": "bytes"
        }
      ],
      "name": "$_countVote",
      "outputs": [
        {
          "internalType": "uint256",
          "name": "ret0",
          "type": "uint256"
        }
      ],
      "stateMutability": "nonpayable",
      "type": "function"
    },
    {
      "inputs": [],
      "name": "$_defaultParams",
      "outputs": [
        {
          "internalType": "bytes",
          "name": "ret0",
          "type": "bytes"
        }
      ],
      "stateMutability": "view",
      "type": "function"
    },
    {
      "inputs": [],
      "name": "$_domainSeparatorV4",
      "outputs": [
        {
          "internalType": "bytes32",
          "name": "ret0",
          "type": "bytes32"
        }
      ],
      "stateMutability": "view",
      "type": "function"
    },
    {
      "inputs": [
        {
          "internalType": "enum IGovernor.ProposalState",
          "name": "proposalState",
          "type": "uint8"
        }
      ],
      "name": "$_encodeStateBitmap",
      "outputs": [
        {
          "internalType": "bytes32",
          "name": "ret0",
          "type": "bytes32"
        }
      ],
      "stateMutability": "pure",
      "type": "function"
    },
    {
      "inputs": [
        {
          "internalType": "uint256",
          "name": "proposalId",
          "type": "uint256"
        },
        {
          "internalType": "address[]",
          "name": "targets",
          "type": "address[]"
        },
        {
          "internalType": "uint256[]",
          "name": "values",
          "type": "uint256[]"
        },
        {
          "internalType": "bytes[]",
          "name": "calldatas",
          "type": "bytes[]"
        },
        {
          "internalType": "bytes32",
          "name": "descriptionHash",
          "type": "bytes32"
        }
      ],
      "name": "$_executeOperations",
      "outputs": [],
      "stateMutability": "nonpayable",
      "type": "function"
    },
    {
      "inputs": [],
      "name": "$_executor",
      "outputs": [
        {
          "internalType": "address",
          "name": "ret0",
          "type": "address"
        }
      ],
      "stateMutability": "view",
      "type": "function"
    },
    {
      "inputs": [
        {
          "internalType": "address",
          "name": "account",
          "type": "address"
        },
        {
          "internalType": "uint256",
          "name": "timepoint",
          "type": "uint256"
        },
        {
          "internalType": "bytes",
          "name": "arg2",
          "type": "bytes"
        }
      ],
      "name": "$_getVotes",
      "outputs": [
        {
          "internalType": "uint256",
          "name": "ret0",
          "type": "uint256"
        }
      ],
      "stateMutability": "view",
      "type": "function"
    },
    {
      "inputs": [
        {
          "internalType": "bytes32",
          "name": "structHash",
          "type": "bytes32"
        }
      ],
      "name": "$_hashTypedDataV4",
      "outputs": [
        {
          "internalType": "bytes32",
          "name": "ret0",
          "type": "bytes32"
        }
      ],
      "stateMutability": "view",
      "type": "function"
    },
    {
      "inputs": [
        {
          "internalType": "address",
          "name": "proposer",
          "type": "address"
        },
        {
          "internalType": "string",
          "name": "description",
          "type": "string"
        }
      ],
      "name": "$_isValidDescriptionForProposer",
      "outputs": [
        {
          "internalType": "bool",
          "name": "ret0",
          "type": "bool"
        }
      ],
      "stateMutability": "view",
      "type": "function"
    },
    {
      "inputs": [],
      "name": "$_msgData",
      "outputs": [
        {
          "internalType": "bytes",
          "name": "ret0",
          "type": "bytes"
        }
      ],
      "stateMutability": "view",
      "type": "function"
    },
    {
      "inputs": [],
      "name": "$_msgSender",
      "outputs": [
        {
          "internalType": "address",
          "name": "ret0",
          "type": "address"
        }
      ],
      "stateMutability": "view",
      "type": "function"
    },
    {
      "inputs": [
        {
          "internalType": "address[]",
          "name": "targets",
          "type": "address[]"
        },
        {
          "internalType": "uint256[]",
          "name": "values",
          "type": "uint256[]"
        },
        {
          "internalType": "bytes[]",
          "name": "calldatas",
          "type": "bytes[]"
        },
        {
          "internalType": "string",
          "name": "description",
          "type": "string"
        },
        {
          "internalType": "address",
          "name": "proposer",
          "type": "address"
        }
      ],
      "name": "$_propose",
      "outputs": [
        {
          "internalType": "uint256",
          "name": "proposalId",
          "type": "uint256"
        }
      ],
      "stateMutability": "nonpayable",
      "type": "function"
    },
    {
      "inputs": [
        {
          "internalType": "uint256",
          "name": "proposalId",
          "type": "uint256"
        },
        {
          "internalType": "address[]",
          "name": "targets",
          "type": "address[]"
        },
        {
          "internalType": "uint256[]",
          "name": "values",
          "type": "uint256[]"
        },
        {
          "internalType": "bytes[]",
          "name": "calldatas",
          "type": "bytes[]"
        },
        {
          "internalType": "bytes32",
          "name": "descriptionHash",
          "type": "bytes32"
        }
      ],
      "name": "$_queueOperations",
      "outputs": [
        {
          "internalType": "uint48",
          "name": "ret0",
          "type": "uint48"
        }
      ],
      "stateMutability": "nonpayable",
      "type": "function"
    },
    {
      "inputs": [
        {
          "internalType": "uint256",
          "name": "proposalId",
          "type": "uint256"
        }
      ],
      "name": "$_quorumReached",
      "outputs": [
        {
          "internalType": "bool",
          "name": "ret0",
          "type": "bool"
        }
      ],
      "stateMutability": "view",
      "type": "function"
    },
    {
      "inputs": [
        {
          "internalType": "uint256",
          "name": "newProposalThreshold",
          "type": "uint256"
        }
      ],
      "name": "$_setProposalThreshold",
      "outputs": [],
      "stateMutability": "nonpayable",
      "type": "function"
    },
    {
      "inputs": [
        {
          "internalType": "uint48",
          "name": "newVotingDelay",
          "type": "uint48"
        }
      ],
      "name": "$_setVotingDelay",
      "outputs": [],
      "stateMutability": "nonpayable",
      "type": "function"
    },
    {
      "inputs": [
        {
          "internalType": "uint32",
          "name": "newVotingPeriod",
          "type": "uint32"
        }
      ],
      "name": "$_setVotingPeriod",
      "outputs": [],
      "stateMutability": "nonpayable",
      "type": "function"
    },
    {
      "inputs": [
        {
          "internalType": "uint256",
          "name": "proposalId",
          "type": "uint256"
        }
      ],
      "name": "$_tallyUpdated",
      "outputs": [],
      "stateMutability": "nonpayable",
      "type": "function"
    },
    {
      "inputs": [
        {
          "internalType": "uint256",
          "name": "newQuorumNumerator",
          "type": "uint256"
        }
      ],
      "name": "$_updateQuorumNumerator",
      "outputs": [],
      "stateMutability": "nonpayable",
      "type": "function"
    },
    {
      "inputs": [
        {
          "internalType": "address",
          "name": "owner",
          "type": "address"
        },
        {
          "internalType": "uint256",
          "name": "nonce",
          "type": "uint256"
        }
      ],
      "name": "$_useCheckedNonce",
      "outputs": [],
      "stateMutability": "nonpayable",
      "type": "function"
    },
    {
      "inputs": [
        {
          "internalType": "address",
          "name": "owner",
          "type": "address"
        }
      ],
      "name": "$_useNonce",
      "outputs": [
        {
          "internalType": "uint256",
          "name": "ret0",
          "type": "uint256"
        }
      ],
      "stateMutability": "nonpayable",
      "type": "function"
    },
    {
      "inputs": [
        {
          "internalType": "uint256",
          "name": "proposalId",
          "type": "uint256"
        },
        {
          "internalType": "bytes32",
          "name": "allowedStates",
          "type": "bytes32"
        }
      ],
      "name": "$_validateStateBitmap",
      "outputs": [
        {
          "internalType": "enum IGovernor.ProposalState",
          "name": "ret0",
          "type": "uint8"
        }
      ],
      "stateMutability": "view",
      "type": "function"
    },
    {
      "inputs": [
        {
          "internalType": "uint256",
          "name": "proposalId",
          "type": "uint256"
        }
      ],
      "name": "$_voteSucceeded",
      "outputs": [
        {
          "internalType": "bool",
          "name": "ret0",
          "type": "bool"
        }
      ],
      "stateMutability": "view",
      "type": "function"
    },
    {
      "inputs": [],
      "name": "BALLOT_TYPEHASH",
      "outputs": [
        {
          "internalType": "bytes32",
          "name": "",
          "type": "bytes32"
        }
      ],
      "stateMutability": "view",
      "type": "function"
    },
    {
      "inputs": [],
      "name": "CLOCK_MODE",
      "outputs": [
        {
          "internalType": "string",
          "name": "",
          "type": "string"
        }
      ],
      "stateMutability": "view",
      "type": "function"
    },
    {
      "inputs": [],
      "name": "COUNTING_MODE",
      "outputs": [
        {
          "internalType": "string",
          "name": "",
          "type": "string"
        }
      ],
      "stateMutability": "pure",
      "type": "function"
    },
    {
      "inputs": [],
      "name": "EXTENDED_BALLOT_TYPEHASH",
      "outputs": [
        {
          "internalType": "bytes32",
          "name": "",
          "type": "bytes32"
        }
      ],
      "stateMutability": "view",
      "type": "function"
    },
    {
      "inputs": [],
      "name": "__acceptAdmin",
      "outputs": [],
      "stateMutability": "nonpayable",
      "type": "function"
    },
    {
      "inputs": [],
      "name": "__hh_exposed_bytecode_marker",
      "outputs": [
        {
          "internalType": "bytes32",
          "name": "",
          "type": "bytes32"
        }
      ],
      "stateMutability": "view",
      "type": "function"
    },
    {
      "inputs": [
        {
          "internalType": "address[]",
          "name": "targets",
          "type": "address[]"
        },
        {
          "internalType": "uint256[]",
          "name": "values",
          "type": "uint256[]"
        },
        {
          "internalType": "bytes[]",
          "name": "calldatas",
          "type": "bytes[]"
        },
        {
          "internalType": "bytes32",
          "name": "descriptionHash",
          "type": "bytes32"
        }
      ],
      "name": "cancel",
      "outputs": [
        {
          "internalType": "uint256",
          "name": "",
          "type": "uint256"
        }
      ],
      "stateMutability": "nonpayable",
      "type": "function"
    },
    {
      "inputs": [
        {
          "internalType": "uint256",
          "name": "proposalId",
          "type": "uint256"
        },
        {
          "internalType": "uint8",
          "name": "support",
          "type": "uint8"
        }
      ],
      "name": "castVote",
      "outputs": [
        {
          "internalType": "uint256",
          "name": "",
          "type": "uint256"
        }
      ],
      "stateMutability": "nonpayable",
      "type": "function"
    },
    {
      "inputs": [
        {
          "internalType": "uint256",
          "name": "proposalId",
          "type": "uint256"
        },
        {
          "internalType": "uint8",
          "name": "support",
          "type": "uint8"
        },
        {
          "internalType": "address",
          "name": "voter",
          "type": "address"
        },
        {
          "internalType": "bytes",
          "name": "signature",
          "type": "bytes"
        }
      ],
      "name": "castVoteBySig",
      "outputs": [
        {
          "internalType": "uint256",
          "name": "",
          "type": "uint256"
        }
      ],
      "stateMutability": "nonpayable",
      "type": "function"
    },
    {
      "inputs": [
        {
          "internalType": "uint256",
          "name": "proposalId",
          "type": "uint256"
        },
        {
          "internalType": "uint8",
          "name": "support",
          "type": "uint8"
        },
        {
          "internalType": "string",
          "name": "reason",
          "type": "string"
        }
      ],
      "name": "castVoteWithReason",
      "outputs": [
        {
          "internalType": "uint256",
          "name": "",
          "type": "uint256"
        }
      ],
      "stateMutability": "nonpayable",
      "type": "function"
    },
    {
      "inputs": [
        {
          "internalType": "uint256",
          "name": "proposalId",
          "type": "uint256"
        },
        {
          "internalType": "uint8",
          "name": "support",
          "type": "uint8"
        },
        {
          "internalType": "string",
          "name": "reason",
          "type": "string"
        },
        {
          "internalType": "bytes",
          "name": "params",
          "type": "bytes"
        }
      ],
      "name": "castVoteWithReasonAndParams",
      "outputs": [
        {
          "internalType": "uint256",
          "name": "",
          "type": "uint256"
        }
      ],
      "stateMutability": "nonpayable",
      "type": "function"
    },
    {
      "inputs": [
        {
          "internalType": "uint256",
          "name": "proposalId",
          "type": "uint256"
        },
        {
          "internalType": "uint8",
          "name": "support",
          "type": "uint8"
        },
        {
          "internalType": "address",
          "name": "voter",
          "type": "address"
        },
        {
          "internalType": "string",
          "name": "reason",
          "type": "string"
        },
        {
          "internalType": "bytes",
          "name": "params",
          "type": "bytes"
        },
        {
          "internalType": "bytes",
          "name": "signature",
          "type": "bytes"
        }
      ],
      "name": "castVoteWithReasonAndParamsBySig",
      "outputs": [
        {
          "internalType": "uint256",
          "name": "",
          "type": "uint256"
        }
      ],
      "stateMutability": "nonpayable",
      "type": "function"
    },
    {
      "inputs": [],
      "name": "clock",
      "outputs": [
        {
          "internalType": "uint48",
          "name": "",
          "type": "uint48"
        }
      ],
      "stateMutability": "view",
      "type": "function"
    },
    {
      "inputs": [],
      "name": "eip712Domain",
      "outputs": [
        {
          "internalType": "bytes1",
          "name": "fields",
          "type": "bytes1"
        },
        {
          "internalType": "string",
          "name": "name",
          "type": "string"
        },
        {
          "internalType": "string",
          "name": "version",
          "type": "string"
        },
        {
          "internalType": "uint256",
          "name": "chainId",
          "type": "uint256"
        },
        {
          "internalType": "address",
          "name": "verifyingContract",
          "type": "address"
        },
        {
          "internalType": "bytes32",
          "name": "salt",
          "type": "bytes32"
        },
        {
          "internalType": "uint256[]",
          "name": "extensions",
          "type": "uint256[]"
        }
      ],
      "stateMutability": "view",
      "type": "function"
    },
    {
      "inputs": [
        {
          "internalType": "address[]",
          "name": "targets",
          "type": "address[]"
        },
        {
          "internalType": "uint256[]",
          "name": "values",
          "type": "uint256[]"
        },
        {
          "internalType": "bytes[]",
          "name": "calldatas",
          "type": "bytes[]"
        },
        {
          "internalType": "bytes32",
          "name": "descriptionHash",
          "type": "bytes32"
        }
      ],
      "name": "execute",
      "outputs": [
        {
          "internalType": "uint256",
          "name": "",
          "type": "uint256"
        }
      ],
      "stateMutability": "payable",
      "type": "function"
    },
    {
      "inputs": [
        {
          "internalType": "address[]",
          "name": "targets",
          "type": "address[]"
        },
        {
          "internalType": "uint256[]",
          "name": "values",
          "type": "uint256[]"
        },
        {
          "internalType": "bytes[]",
          "name": "calldatas",
          "type": "bytes[]"
        },
        {
          "internalType": "bytes32",
          "name": "descriptionHash",
          "type": "bytes32"
        }
      ],
      "name": "getProposalId",
      "outputs": [
        {
          "internalType": "uint256",
          "name": "",
          "type": "uint256"
        }
      ],
      "stateMutability": "view",
      "type": "function"
    },
    {
      "inputs": [
        {
          "internalType": "address",
          "name": "account",
          "type": "address"
        },
        {
          "internalType": "uint256",
          "name": "timepoint",
          "type": "uint256"
        }
      ],
      "name": "getVotes",
      "outputs": [
        {
          "internalType": "uint256",
          "name": "",
          "type": "uint256"
        }
      ],
      "stateMutability": "view",
      "type": "function"
    },
    {
      "inputs": [
        {
          "internalType": "address",
          "name": "account",
          "type": "address"
        },
        {
          "internalType": "uint256",
          "name": "timepoint",
          "type": "uint256"
        },
        {
          "internalType": "bytes",
          "name": "params",
          "type": "bytes"
        }
      ],
      "name": "getVotesWithParams",
      "outputs": [
        {
          "internalType": "uint256",
          "name": "",
          "type": "uint256"
        }
      ],
      "stateMutability": "view",
      "type": "function"
    },
    {
      "inputs": [
        {
          "internalType": "uint256",
          "name": "proposalId",
          "type": "uint256"
        },
        {
          "internalType": "address",
          "name": "account",
          "type": "address"
        }
      ],
      "name": "hasVoted",
      "outputs": [
        {
          "internalType": "bool",
          "name": "",
          "type": "bool"
        }
      ],
      "stateMutability": "view",
      "type": "function"
    },
    {
      "inputs": [
        {
          "internalType": "address[]",
          "name": "targets",
          "type": "address[]"
        },
        {
          "internalType": "uint256[]",
          "name": "values",
          "type": "uint256[]"
        },
        {
          "internalType": "bytes[]",
          "name": "calldatas",
          "type": "bytes[]"
        },
        {
          "internalType": "bytes32",
          "name": "descriptionHash",
          "type": "bytes32"
        }
      ],
      "name": "hashProposal",
      "outputs": [
        {
          "internalType": "uint256",
          "name": "",
          "type": "uint256"
        }
      ],
      "stateMutability": "pure",
      "type": "function"
    },
    {
      "inputs": [],
      "name": "name",
      "outputs": [
        {
          "internalType": "string",
          "name": "",
          "type": "string"
        }
      ],
      "stateMutability": "view",
      "type": "function"
    },
    {
      "inputs": [
        {
          "internalType": "address",
          "name": "owner",
          "type": "address"
        }
      ],
      "name": "nonces",
      "outputs": [
        {
          "internalType": "uint256",
          "name": "",
          "type": "uint256"
        }
      ],
      "stateMutability": "view",
      "type": "function"
    },
    {
      "inputs": [
        {
          "internalType": "address",
          "name": "",
          "type": "address"
        },
        {
          "internalType": "address",
          "name": "",
          "type": "address"
        },
        {
          "internalType": "uint256[]",
          "name": "",
          "type": "uint256[]"
        },
        {
          "internalType": "uint256[]",
          "name": "",
          "type": "uint256[]"
        },
        {
          "internalType": "bytes",
          "name": "",
          "type": "bytes"
        }
      ],
      "name": "onERC1155BatchReceived",
      "outputs": [
        {
          "internalType": "bytes4",
          "name": "",
          "type": "bytes4"
        }
      ],
      "stateMutability": "nonpayable",
      "type": "function"
    },
    {
      "inputs": [
        {
          "internalType": "address",
          "name": "",
          "type": "address"
        },
        {
          "internalType": "address",
          "name": "",
          "type": "address"
        },
        {
          "internalType": "uint256",
          "name": "",
          "type": "uint256"
        },
        {
          "internalType": "uint256",
          "name": "",
          "type": "uint256"
        },
        {
          "internalType": "bytes",
          "name": "",
          "type": "bytes"
        }
      ],
      "name": "onERC1155Received",
      "outputs": [
        {
          "internalType": "bytes4",
          "name": "",
          "type": "bytes4"
        }
      ],
      "stateMutability": "nonpayable",
      "type": "function"
    },
    {
      "inputs": [
        {
          "internalType": "address",
          "name": "",
          "type": "address"
        },
        {
          "internalType": "address",
          "name": "",
          "type": "address"
        },
        {
          "internalType": "uint256",
          "name": "",
          "type": "uint256"
        },
        {
          "internalType": "bytes",
          "name": "",
          "type": "bytes"
        }
      ],
      "name": "onERC721Received",
      "outputs": [
        {
          "internalType": "bytes4",
          "name": "",
          "type": "bytes4"
        }
      ],
      "stateMutability": "nonpayable",
      "type": "function"
    },
    {
      "inputs": [
        {
          "internalType": "uint256",
          "name": "proposalId",
          "type": "uint256"
        }
      ],
      "name": "proposalDeadline",
      "outputs": [
        {
          "internalType": "uint256",
          "name": "",
          "type": "uint256"
        }
      ],
      "stateMutability": "view",
      "type": "function"
    },
    {
      "inputs": [
        {
          "internalType": "uint256",
          "name": "proposalId",
          "type": "uint256"
        }
      ],
      "name": "proposalEta",
      "outputs": [
        {
          "internalType": "uint256",
          "name": "",
          "type": "uint256"
        }
      ],
      "stateMutability": "view",
      "type": "function"
    },
    {
      "inputs": [
        {
          "internalType": "uint256",
          "name": "proposalId",
          "type": "uint256"
        }
      ],
      "name": "proposalNeedsQueuing",
      "outputs": [
        {
          "internalType": "bool",
          "name": "",
          "type": "bool"
        }
      ],
      "stateMutability": "view",
      "type": "function"
    },
    {
      "inputs": [
        {
          "internalType": "uint256",
          "name": "proposalId",
          "type": "uint256"
        }
      ],
      "name": "proposalProposer",
      "outputs": [
        {
          "internalType": "address",
          "name": "",
          "type": "address"
        }
      ],
      "stateMutability": "view",
      "type": "function"
    },
    {
      "inputs": [
        {
          "internalType": "uint256",
          "name": "proposalId",
          "type": "uint256"
        }
      ],
      "name": "proposalSnapshot",
      "outputs": [
        {
          "internalType": "uint256",
          "name": "",
          "type": "uint256"
        }
      ],
      "stateMutability": "view",
      "type": "function"
    },
    {
      "inputs": [],
      "name": "proposalThreshold",
      "outputs": [
        {
          "internalType": "uint256",
          "name": "",
          "type": "uint256"
        }
      ],
      "stateMutability": "view",
      "type": "function"
    },
    {
      "inputs": [
        {
          "internalType": "uint256",
          "name": "proposalId",
          "type": "uint256"
        }
      ],
      "name": "proposalVotes",
      "outputs": [
        {
          "internalType": "uint256",
          "name": "againstVotes",
          "type": "uint256"
        },
        {
          "internalType": "uint256",
          "name": "forVotes",
          "type": "uint256"
        },
        {
          "internalType": "uint256",
          "name": "abstainVotes",
          "type": "uint256"
        }
      ],
      "stateMutability": "view",
      "type": "function"
    },
    {
      "inputs": [
        {
          "internalType": "address[]",
          "name": "targets",
          "type": "address[]"
        },
        {
          "internalType": "uint256[]",
          "name": "values",
          "type": "uint256[]"
        },
        {
          "internalType": "bytes[]",
          "name": "calldatas",
          "type": "bytes[]"
        },
        {
          "internalType": "string",
          "name": "description",
          "type": "string"
        }
      ],
      "name": "propose",
      "outputs": [
        {
          "internalType": "uint256",
          "name": "",
          "type": "uint256"
        }
      ],
      "stateMutability": "nonpayable",
      "type": "function"
    },
    {
      "inputs": [
        {
          "internalType": "address[]",
          "name": "targets",
          "type": "address[]"
        },
        {
          "internalType": "uint256[]",
          "name": "values",
          "type": "uint256[]"
        },
        {
          "internalType": "bytes[]",
          "name": "calldatas",
          "type": "bytes[]"
        },
        {
          "internalType": "bytes32",
          "name": "descriptionHash",
          "type": "bytes32"
        }
      ],
      "name": "queue",
      "outputs": [
        {
          "internalType": "uint256",
          "name": "",
          "type": "uint256"
        }
      ],
      "stateMutability": "nonpayable",
      "type": "function"
    },
    {
      "inputs": [
        {
          "internalType": "uint256",
          "name": "blockNumber",
          "type": "uint256"
        }
      ],
      "name": "quorum",
      "outputs": [
        {
          "internalType": "uint256",
          "name": "",
          "type": "uint256"
        }
      ],
      "stateMutability": "view",
      "type": "function"
    },
    {
      "inputs": [],
      "name": "quorumDenominator",
      "outputs": [
        {
          "internalType": "uint256",
          "name": "",
          "type": "uint256"
        }
      ],
      "stateMutability": "view",
      "type": "function"
    },
    {
      "inputs": [
        {
          "internalType": "uint256",
          "name": "timepoint",
          "type": "uint256"
        }
      ],
      "name": "quorumNumerator",
      "outputs": [
        {
          "internalType": "uint256",
          "name": "",
          "type": "uint256"
        }
      ],
      "stateMutability": "view",
      "type": "function"
    },
    {
      "inputs": [],
      "name": "quorumNumerator",
      "outputs": [
        {
          "internalType": "uint256",
          "name": "",
          "type": "uint256"
        }
      ],
      "stateMutability": "view",
      "type": "function"
    },
    {
      "inputs": [
        {
          "internalType": "address",
          "name": "target",
          "type": "address"
        },
        {
          "internalType": "uint256",
          "name": "value",
          "type": "uint256"
        },
        {
          "internalType": "bytes",
          "name": "data",
          "type": "bytes"
        }
      ],
      "name": "relay",
      "outputs": [],
      "stateMutability": "payable",
      "type": "function"
    },
    {
      "inputs": [
        {
          "internalType": "uint256",
          "name": "newProposalThreshold",
          "type": "uint256"
        }
      ],
      "name": "setProposalThreshold",
      "outputs": [],
      "stateMutability": "nonpayable",
      "type": "function"
    },
    {
      "inputs": [
        {
          "internalType": "uint48",
          "name": "newVotingDelay",
          "type": "uint48"
        }
      ],
      "name": "setVotingDelay",
      "outputs": [],
      "stateMutability": "nonpayable",
      "type": "function"
    },
    {
      "inputs": [
        {
          "internalType": "uint32",
          "name": "newVotingPeriod",
          "type": "uint32"
        }
      ],
      "name": "setVotingPeriod",
      "outputs": [],
      "stateMutability": "nonpayable",
      "type": "function"
    },
    {
      "inputs": [
        {
          "internalType": "uint256",
          "name": "proposalId",
          "type": "uint256"
        }
      ],
      "name": "state",
      "outputs": [
        {
          "internalType": "enum IGovernor.ProposalState",
          "name": "",
          "type": "uint8"
        }
      ],
      "stateMutability": "view",
      "type": "function"
    },
    {
      "inputs": [
        {
          "internalType": "bytes4",
          "name": "interfaceId",
          "type": "bytes4"
        }
      ],
      "name": "supportsInterface",
      "outputs": [
        {
          "internalType": "bool",
          "name": "",
          "type": "bool"
        }
      ],
      "stateMutability": "view",
      "type": "function"
    },
    {
      "inputs": [],
      "name": "timelock",
      "outputs": [
        {
          "internalType": "address",
          "name": "",
          "type": "address"
        }
      ],
      "stateMutability": "view",
      "type": "function"
    },
    {
      "inputs": [],
      "name": "token",
      "outputs": [
        {
          "internalType": "contract IERC5805",
          "name": "",
          "type": "address"
        }
      ],
      "stateMutability": "view",
      "type": "function"
    },
    {
      "inputs": [
        {
          "internalType": "uint256",
          "name": "newQuorumNumerator",
          "type": "uint256"
        }
      ],
      "name": "updateQuorumNumerator",
      "outputs": [],
      "stateMutability": "nonpayable",
      "type": "function"
    },
    {
      "inputs": [
        {
          "internalType": "contract ICompoundTimelock",
          "name": "newTimelock",
          "type": "address"
        }
      ],
      "name": "updateTimelock",
      "outputs": [],
      "stateMutability": "nonpayable",
      "type": "function"
    },
    {
      "inputs": [],
      "name": "version",
      "outputs": [
        {
          "internalType": "string",
          "name": "",
          "type": "string"
        }
      ],
      "stateMutability": "view",
      "type": "function"
    },
    {
      "inputs": [],
      "name": "votingDelay",
      "outputs": [
        {
          "internalType": "uint256",
          "name": "",
          "type": "uint256"
        }
      ],
      "stateMutability": "view",
      "type": "function"
    },
    {
      "inputs": [],
      "name": "votingPeriod",
      "outputs": [
        {
          "internalType": "uint256",
          "name": "",
          "type": "uint256"
        }
      ],
      "stateMutability": "view",
      "type": "function"
    },
    {
      "stateMutability": "payable",
      "type": "receive"
    }
  ],
  "bytecode": "0x61018060405260405162006073380380620060738339810160408190526200002791620007b7565b8082848888888c806200004e6040805180820190915260018152603160f81b602082015290565b6200005a825f6200016e565b610120526200006b8160016200016e565b61014052815160208084019190912060e052815190820120610100524660a052620000f860e05161010051604080517f8b73c3c69bb8fe3d512ecc4cf759cc79239f7b179b0ffacaa9a75d522b39400f60208201529081019290925260608201524660808201523060a08201525f9060c00160405160208183030381529060405280519060200120905090565b60805250503060c05260036200010f828262000951565b506200011d905083620001a6565b62000128826200020c565b6200013381620002b1565b5050506200014781620002f260201b60201c565b506001600160a01b03166101605262000160816200037a565b505050505050505062000ab1565b5f6020835110156200018d57620001858362000419565b9050620001a0565b816200019a848262000951565b5060ff90505b92915050565b6008546040805165ffffffffffff928316815291831660208301527fc565b045403dc03c2eea82b81a0465edad9e2e7fc4d97e11421c209da93d7a93910160405180910390a16008805465ffffffffffff191665ffffffffffff92909216919091179055565b8063ffffffff165f036200023a5760405163f1cfbf0560e01b81525f60048201526024015b60405180910390fd5b6008546040805163ffffffff66010000000000009093048316815291831660208301527f7e3f7f0708a84de9203036abaa450dccc85ad5ff52f78c170f3edb55cf5e8828910160405180910390a16008805463ffffffff90921666010000000000000263ffffffff60301b19909216919091179055565b60075460408051918252602082018390527fccb45da8d5717e6c4544694297c4ba5cf151d455c9bb0ed4fc7a38411bc05461910160405180910390a1600755565b600854604080516001600160a01b036a01000000000000000000009093048316815291831660208301527f08f74ea46ef7894f65eabfb5e6e695de773a000b47c529ab559178069b226401910160405180910390a1600880546001600160a01b039092166a010000000000000000000002600160501b600160f01b0319909216919091179055565b606480821115620003a95760405163243e544560e01b8152600481018390526024810182905260440162000231565b5f620003b46200045b565b9050620003d9620003c462000476565b620003cf85620004f7565b6009919062000530565b505060408051828152602081018590527f0553476bf02ef2726e8ce5ced78d63e26e602e4a2257b1f559418e24b4633997910160405180910390a1505050565b5f80829050601f8151111562000446578260405163305a27a960e01b815260040162000231919062000a1d565b8051620004538262000a51565b179392505050565b5f6200046860096200054c565b6001600160d01b0316905090565b5f620004826101605190565b6001600160a01b03166391ddadf46040518163ffffffff1660e01b8152600401602060405180830381865afa925050508015620004de575060408051601f3d908101601f19168201909252620004db9181019062000a75565b60015b620004f257620004ed62000599565b905090565b919050565b5f6001600160d01b038211156200052c576040516306dfcc6560e41b815260d060048201526024810183905260440162000231565b5090565b5f806200053f858585620005a5565b915091505b935093915050565b80545f908015620005905762000576836200056960018462000a91565b5f91825260209091200190565b54660100000000000090046001600160d01b031662000592565b5f5b9392505050565b5f620004ed436200070a565b82545f9081908015620006ac575f620005c5876200056960018562000a91565b805490915065ffffffffffff80821691660100000000000090046001600160d01b03169088168211156200060c57604051632520601d60e01b815260040160405180910390fd5b8765ffffffffffff168265ffffffffffff16036200064a57825465ffffffffffff1666010000000000006001600160d01b038916021783556200069d565b6040805180820190915265ffffffffffff808a1682526001600160d01b03808a1660208085019182528d54600181018f555f8f815291909120945191519092166601000000000000029216919091179101555b94508593506200054492505050565b50506040805180820190915265ffffffffffff80851682526001600160d01b0380851660208085019182528854600181018a555f8a815291822095519251909316660100000000000002919093161792019190915590508162000544565b5f65ffffffffffff8211156200052c576040516306dfcc6560e41b8152603060048201526024810183905260440162000231565b634e487b7160e01b5f52604160045260245ffd5b5f5b838110156200076e57818101518382015260200162000754565b50505f910152565b805165ffffffffffff81168114620004f2575f80fd5b805163ffffffff81168114620004f2575f80fd5b80516001600160a01b0381168114620004f2575f80fd5b5f805f805f805f60e0888a031215620007ce575f80fd5b87516001600160401b0380821115620007e5575f80fd5b818a0191508a601f830112620007f9575f80fd5b8151818111156200080e576200080e6200073e565b604051601f8201601f19908116603f011681019083821181831017156200083957620008396200073e565b816040528281528d602084870101111562000852575f80fd5b6200086583602083016020880162000752565b809b5050505050506200087b6020890162000776565b95506200088b604089016200078c565b945060608801519350620008a260808901620007a0565b9250620008b260a08901620007a0565b915060c0880151905092959891949750929550565b600181811c90821680620008dc57607f821691505b602082108103620008fb57634e487b7160e01b5f52602260045260245ffd5b50919050565b601f8211156200094c57805f5260205f20601f840160051c81016020851015620009285750805b601f840160051c820191505b8181101562000949575f815560010162000934565b50505b505050565b81516001600160401b038111156200096d576200096d6200073e565b62000985816200097e8454620008c7565b8462000901565b602080601f831160018114620009bb575f8415620009a35750858301515b5f19600386901b1c1916600185901b17855562000a15565b5f85815260208120601f198616915b82811015620009eb57888601518255948401946001909101908401620009ca565b508582101562000a0957878501515f19600388901b60f8161c191681555b505060018460011b0185555b505050505050565b602081525f825180602084015262000a3d81604085016020870162000752565b601f01601f19169190910160400192915050565b80516020808301519190811015620008fb575f1960209190910360031b1b16919050565b5f6020828403121562000a86575f80fd5b620005928262000776565b81810381811115620001a057634e487b7160e01b5f52601160045260245ffd5b60805160a05160c05160e0516101005161012051610140516101605161554a62000b295f395f8181610f050152818161159501528181611d2a01528181612cd40152612fe301525f61242c01525f61239301525f612ae901525f612ac101525f612a1c01525f612a4601525f612a70015261554a5ff3fe608060405260043610610471575f3560e01c80636b4ac5021161024c578063b9a619611161013f578063deaaa7cc116100be578063ece40cc111610083578063ece40cc114610e7b578063f23a6e6114610e9a578063f7a2e6e114610eb9578063f8ce560a14610ed8578063fc0c546a14610ef7578063fc2e6e3c14610f29575f80fd5b8063deaaa7cc14610dcc578063e488ade114610dff578063e540d01d14610e1e578063e7fadc1614610e3d578063eb9019d414610e5c575f80fd5b8063c59057e411610104578063c59057e414610d06578063cbc1c5f314610d25578063d33219b414610d44578063daf80f5f14610d68578063dd4e2ba514610d87575f80fd5b8063b9a6196114610c82578063bc197c8114610c96578063c01f9e3714610cb5578063c242bfc714610cd4578063c28bc2fa14610cf3575f80fd5b80639a802a6d116101cb578063a890c91011610190578063a890c91014610bdb578063a8f8a66814610bfa578063a9a9529414610c19578063ab58fb8e14610c38578063b58131b014610c6e575f80fd5b80639a802a6d14610b4d5780639e3db5e914610b6c578063a0710f0514610b8b578063a15697c414610ba8578063a7713a7014610bc7575f80fd5b80637ecebe00116102115780637ecebe0014610a9557806384b0196e14610ac95780638ff262e314610af057806391ddadf414610b0f57806397c3d33414610b3a575f80fd5b80636b4ac502146109fa5780637235294514610a195780637905188714610a385780637b3c71d314610a575780637d5e81e214610a76575f80fd5b80633932abb11161036457806354fd4d50116102e35780635f398a14116102a85780635f398a14146109775780635f8d5e741461099657806360c4247f146109aa57806367354a84146109c95780636b2f5df0146109db575f80fd5b806354fd4d50146108dd57806356781388146109065780635b8d0e0d146109255780635c501ba8146109445780635c93b6ec14610958575f80fd5b80634abf4684116103295780634abf4684146108195780634bf5d7e914610838578063506a6f0c1461084c578063544ffc9c1461086b57806354dc7b41146108be575f80fd5b80633932abb1146107565780633e4f49e614610772578063438596321461079e578063452115d6146107e65780634724aa9914610805575f80fd5b8063174ccd82116103f05780632f2b6caa116103b55780632f2b6caa146106ac5780632fe3e261146106cb57806332cadf3c146106fe57806332f4dd9914610712578063342db73914610731575f80fd5b8063174ccd82146106355780632656227d146106495780632904df291461065c5780632d63f6931461066e5780632e8fbee51461068d575f80fd5b80630ede0bea116104365780630ede0bea1461055f5780631164d13b1461057e578063143489d014610592578063150b7a02146105de578063160cbed714610616575f80fd5b806301ffc9a7146104ac57806302a251a3146104e0578063046263441461050b57806306f3f9e61461051f57806306fdde031461053e575f80fd5b366104a8573061047f610f48565b6001600160a01b0316146104a657604051637485328f60e11b815260040160405180910390fd5b005b5f80fd5b3480156104b7575f80fd5b506104cb6104c63660046140d0565b610f63565b60405190151581526020015b60405180910390f35b3480156104eb575f80fd5b50600854600160301b900463ffffffff165b6040519081526020016104d7565b348015610516575f80fd5b506104a6610fcf565b34801561052a575f80fd5b506104a66105393660046140f7565b610fd9565b348015610549575f80fd5b50610552610fea565b6040516104d7919061415b565b34801561056a575f80fd5b506104a661057936600461416d565b61107a565b348015610589575f80fd5b50610552611083565b34801561059d575f80fd5b506105c66105ac3660046140f7565b5f908152600460205260409020546001600160a01b031690565b6040516001600160a01b0390911681526020016104d7565b3480156105e9575f80fd5b506105fd6105f8366004614267565b61108d565b6040516001600160e01b031990911681526020016104d7565b348015610621575f80fd5b506104fd61063036600461443e565b6110cf565b348015610640575f80fd5b5061055261119b565b6104fd61065736600461443e565b6111a5565b348015610667575f80fd5b50336105c6565b348015610679575f80fd5b506104fd6106883660046140f7565b61130d565b348015610698575f80fd5b506104fd6106a73660046144c7565b61132d565b3480156106b7575f80fd5b506104a66106c6366004614529565b611377565b3480156106d6575f80fd5b506104fd7f3e83946653575f9a39005e1545185629e92736b7528ab20ca3816f315424a81181565b348015610709575f80fd5b506105526113fa565b34801561071d575f80fd5b506104fd61072c366004614618565b611437565b34801561073c575f80fd5b506104fd6e1a185c991a185d0b595e1c1bdcd959608a1b81565b348015610761575f80fd5b5060085465ffffffffffff166104fd565b34801561077d575f80fd5b5061079161078c3660046140f7565b6114f2565b6040516104d791906146e1565b3480156107a9575f80fd5b506104cb6107b83660046146ef565b5f828152600a602090815260408083206001600160a01b038516845260030190915290205460ff1692915050565b3480156107f1575f80fd5b506104fd61080036600461443e565b6114fc565b348015610810575f80fd5b506105c661156d565b348015610824575f80fd5b506104cb6108333660046140f7565b611576565b348015610843575f80fd5b50610552611591565b348015610857575f80fd5b506104fd6108663660046140f7565b611651565b348015610876575f80fd5b506108a36108853660046140f7565b5f908152600a60205260409020805460018201546002909201549092565b604080519384526020840192909252908201526060016104d7565b3480156108c9575f80fd5b506104cb6108d836600461471d565b61165b565b3480156108e8575f80fd5b506040805180820190915260018152603160f81b6020820152610552565b348015610911575f80fd5b506104fd61092036600461476d565b6116a3565b348015610930575f80fd5b506104fd61093f366004614797565b6116c2565b34801561094f575f80fd5b50610552611801565b348015610963575f80fd5b506104fd610972366004614849565b611817565b348015610982575f80fd5b506104fd610991366004614915565b61190f565b3480156109a1575f80fd5b506104fd611962565b3480156109b5575f80fd5b506104fd6109c43660046140f7565b61196b565b3480156109d4575f80fd5b505f6104fd565b3480156109e6575f80fd5b506104fd6109f5366004614992565b6119f7565b348015610a05575f80fd5b506104a6610a14366004614a2c565b611aa3565b348015610a24575f80fd5b506104fd610a33366004614a56565b611ab1565b348015610a43575f80fd5b506104a6610a52366004614ad4565b611b26565b348015610a62575f80fd5b506104fd610a71366004614aef565b611b37565b348015610a81575f80fd5b506104fd610a90366004614b44565b611b7d565b348015610aa0575f80fd5b506104fd610aaf3660046144c7565b6001600160a01b03165f9081526002602052604090205490565b348015610ad4575f80fd5b50610add611c33565b6040516104d79796959493929190614c2a565b348015610afb575f80fd5b506104fd610b0a366004614c99565b611c75565b348015610b1a575f80fd5b50610b23611d27565b60405165ffffffffffff90911681526020016104d7565b348015610b45575f80fd5b5060646104fd565b348015610b58575f80fd5b506104fd610b67366004614ce6565b611dae565b348015610b77575f80fd5b506104a6610b863660046140f7565b610fe1565b348015610b96575f80fd5b506104a6610ba53660046140f7565b50565b348015610bb3575f80fd5b506104fd610bc2366004614d3a565b611dc1565b348015610bd2575f80fd5b506104fd611dcb565b348015610be6575f80fd5b506104a6610bf53660046144c7565b611de4565b348015610c05575f80fd5b506104fd610c1436600461443e565b611df5565b348015610c24575f80fd5b506104cb610c333660046140f7565b611e0b565b348015610c43575f80fd5b506104fd610c523660046140f7565b5f9081526004602052604090206001015465ffffffffffff1690565b348015610c79575f80fd5b506104fd611e13565b348015610c8d575f80fd5b506104a6611e1d565b348015610ca1575f80fd5b506105fd610cb0366004614d58565b611e82565b348015610cc0575f80fd5b506104fd610ccf3660046140f7565b611ec5565b348015610cdf575f80fd5b506104fd610cee366004614de4565b611f07565b6104a6610d01366004614e58565b611f8f565b348015610d11575f80fd5b506104fd610d2036600461443e565b61200b565b348015610d30575f80fd5b506104fd610d3f366004614e58565b612044565b348015610d4f575f80fd5b50600854600160501b90046001600160a01b03166105c6565b348015610d73575f80fd5b506104cb610d823660046140f7565b612085565b348015610d92575f80fd5b506040805180820190915260208082527f737570706f72743d627261766f2671756f72756d3d666f722c6162737461696e90820152610552565b348015610dd7575f80fd5b506104fd7ff2aad550cf55f045cb27e9c559f9889fdfb6e6cdaa032301d6ea397784ae51d781565b348015610e0a575f80fd5b50610791610e19366004614e97565b61208f565b348015610e29575f80fd5b506104a6610e3836600461416d565b61209a565b348015610e48575f80fd5b506104a6610e57366004614ad4565b611b2e565b348015610e67575f80fd5b506104fd610e76366004614a2c565b6120a2565b348015610e86575f80fd5b506104a6610e953660046140f7565b6120c1565b348015610ea5575f80fd5b506105fd610eb4366004614eb7565b6120d2565b348015610ec4575f80fd5b50610b23610ed3366004614529565b612115565b348015610ee3575f80fd5b506104fd610ef23660046140f7565b6121d9565b348015610f02575f80fd5b507f00000000000000000000000000000000000000000000000000000000000000006105c6565b348015610f34575f80fd5b506104a6610f433660046140f7565b6120c9565b600854600160501b90046001600160a01b031690565b905090565b5f6001600160e01b031982166366defe7760e11b1480610f9357506001600160e01b031982166332a2ad4360e11b145b80610fae57506001600160e01b03198216630271189760e51b145b80610fc957506301ffc9a760e01b6001600160e01b03198316145b92915050565b610fd76121e3565b565b610fe16121e3565b610ba58161225b565b606060038054610ff990614f1a565b80601f016020809104026020016040519081016040528092919081815260200182805461102590614f1a565b80156110705780601f1061104757610100808354040283529160200191611070565b820191905f5260205f20905b81548152906001019060200180831161105357829003601f168201915b5050505050905090565b610ba5816122f0565b6060610f5e61238c565b5f30611097610f48565b6001600160a01b0316146110be57604051637485328f60e11b815260040160405180910390fd5b50630a85bd0160e11b949350505050565b5f806110dd86868686611df5565b90506110f2816110ed60046123b8565b6123da565b505f6111018288888888612417565b905065ffffffffffff811615611178575f82815260046020908152604091829020600101805465ffffffffffff191665ffffffffffff85169081179091558251858152918201527f9a2e42fd6722813d69113e7d0079d3d940171428df7373df9c7f7617cfda2892910160405180910390a1611191565b604051634844252360e11b815260040160405180910390fd5b5095945050505050565b6060610f5e612425565b5f806111b386868686611df5565b90506111d3816111c360056123b8565b6111cd60046123b8565b176123da565b505f818152600460205260409020805460ff60f01b1916600160f01b179055306111fb610f48565b6001600160a01b031614611284575f5b865181101561128257306001600160a01b031687828151811061123057611230614f52565b60200260200101516001600160a01b03160361127a5761127a85828151811061125b5761125b614f52565b602002602001015180519060200120600561245290919063ffffffff16565b60010161120b565b505b61129181878787876124b3565b3061129a610f48565b6001600160a01b0316141580156112c657506005546001600160801b03808216600160801b9092041614155b156112d0575f6005555b6040518181527f712ae1383f79ac853f8d882153778e0260ef8f03b504e2866e0593e04d2b291f906020015b60405180910390a195945050505050565b5f90815260046020526040902054600160a01b900465ffffffffffff1690565b5f611337826124c7565b90507f8d5c13b1cd528a3e1895fdc833368c4e3af5391250c736a28e94c4fa59b3cee48160405161136a91815260200190565b60405180910390a1919050565b6113f0888888808060200260200160405190810160405280939291908181526020018383602002808284375f9201919091525050604080516020808c0282810182019093528b82529093508b92508a9182918501908490808284375f920191909152506113ea9250889150899050614f66565b856124b3565b5050505050505050565b60605f368080601f0160208091040260200160405190810160405280939291908181526020018383808284375f9201919091525092949350505050565b5f6114ac88888888888080601f0160208091040260200160405190810160405280939291908181526020018383808284375f9201919091525050604080516020601f8c018190048102820181019092528a815292508a91508990819084018382808284375f920191909152506124e992505050565b90507fbbc294ee3436818a3742886cdeae66253f76b5be8870371c691fc6998bd341d5816040516114df91815260200190565b60405180910390a1979650505050505050565b5f610fc9826125c7565b5f8061150a86868686611df5565b9050611519816110ed5f6123b8565b505f818152600460205260409020546001600160a01b031633146115575760405163233d98e360e01b81523360048201526024015b60405180910390fd5b6115638686868661269f565b9695505050505050565b5f610f5e610f48565b5f818152600a60205260408120805460019091015411610fc9565b60607f00000000000000000000000000000000000000000000000000000000000000006001600160a01b0316634bf5d7e96040518163ffffffff1660e01b81526004015f60405180830381865afa92505050801561161057506040513d5f823e601f3d908101601f1916820160405261160d9190810190614fa0565b60015b61164c575060408051808201909152601d81527f6d6f64653d626c6f636b6e756d6265722666726f6d3d64656661756c74000000602082015290565b919050565b5f610fc9826126ac565b5f61169b8484848080601f0160208091040260200160405190810160405280939291908181526020018383808284375f920191909152506126d892505050565b949350505050565b5f8033905061169b84828560405180602001604052805f81525061275c565b5f80611786876117807f3e83946653575f9a39005e1545185629e92736b7528ab20ca3816f315424a8118c8c8c6116f88e6124c7565b8d8d604051611708929190614fe4565b60405180910390208c805190602001206040516020016117659796959493929190968752602087019590955260ff9390931660408601526001600160a01b03919091166060850152608084015260a083015260c082015260e00190565b604051602081830303815290604052805190602001206126ac565b8561277d565b9050806117b1576040516394ab6c0760e01b81526001600160a01b038816600482015260240161154e565b6117f489888a89898080601f0160208091040260200160405190810160405280939291908181526020018383808284375f920191909152508b92506124e9915050565b9998505050505050505050565b6060610f5e60408051602081019091525f815290565b5f6118c78a8a808060200260200160405190810160405280939291908181526020018383602002808284375f9201919091525050604080516020808e0282810182019093528d82529093508d92508c9182918501908490808284375f9201919091525061188a92508a91508b9050614f66565b87878080601f0160208091040260200160405190810160405280939291908181526020018383808284375f920191909152508992506127ed915050565b90507f42716af29aa8f33be8115e9e3188a11f6a7e7d5be696f229f0762e50b2a8bda7816040516118fa91815260200190565b60405180910390a19998505050505050505050565b5f8033905061195787828888888080601f0160208091040260200160405190810160405280939291908181526020018383808284375f920191909152508a92506124e9915050565b979650505050505050565b5f610f5e612a10565b600980545f91829061197e600184615007565b8154811061198e5761198e614f52565b5f918252602090912001805490915065ffffffffffff811690600160301b90046001600160d01b03168582116119d0576001600160d01b031695945050505050565b6119e46119dc87612b39565b600990612b6f565b6001600160d01b03169695505050505050565b5f611a708888808060200260200160405190810160405280939291908181526020018383602002808284375f9201919091525050604080516020808c0282810182019093528b82529093508b92508a9182918501908490808284375f92019190915250611a6a9250889150899050614f66565b8561269f565b90507f1e0d283ef767dcb5f9efcfe0fbcac2701275d0c54fc3493502558dc018cc3ba2816040516114df91815260200190565b611aad8282612c1e565b5050565b5f611af386868686868080601f0160208091040260200160405190810160405280939291908181526020018383808284375f9201919091525061275c92505050565b90507fdbf058c917126a478393ed3aa13dcdc461cc19db88c176507846e6f69ca627f9816040516112fc91815260200190565b611b2e6121e3565b610ba581612c61565b5f8033905061156386828787878080601f0160208091040260200160405190810160405280939291908181526020018383808284375f9201919091525061275c92505050565b5f33611b8981846126d8565b611bb15760405163d9b3955760e01b81526001600160a01b038216600482015260240161154e565b5f611bba611e13565b90508015611c26575f611be8836001611bd1611d27565b611bdb919061501a565b65ffffffffffff166120a2565b905081811015611c2457604051636121770b60e11b81526001600160a01b0384166004820152602481018290526044810183905260640161154e565b505b61195787878787866127ed565b5f6060805f805f6060611c4461238c565b611c4c612425565b604080515f80825260208201909252600f60f81b9b939a50919850469750309650945092509050565b5f80611ce2846117807ff2aad550cf55f045cb27e9c559f9889fdfb6e6cdaa032301d6ea397784ae51d7898989611cab8b6124c7565b60408051602081019690965285019390935260ff90911660608401526001600160a01b0316608083015260a082015260c001611765565b905080611d0d576040516394ab6c0760e01b81526001600160a01b038516600482015260240161154e565b61156386858760405180602001604052805f81525061275c565b5f7f00000000000000000000000000000000000000000000000000000000000000006001600160a01b03166391ddadf46040518163ffffffff1660e01b8152600401602060405180830381865afa925050508015611da2575060408051601f3d908101601f19168201909252611d9f91810190615040565b60015b61164c57610f5e612cc7565b5f61169b848484612cd1565b9392505050565b5f610fc9826123b8565b5f611dd66009612d64565b6001600160d01b0316905090565b611dec6121e3565b610ba581612d9b565b5f611e028585858561200b565b95945050505050565b5f6001610fc9565b5f610f5e60075490565b6008600a9054906101000a90046001600160a01b03166001600160a01b0316630e18b6816040518163ffffffff1660e01b81526004015f604051808303815f87803b158015611e6a575f80fd5b505af1158015611e7c573d5f803e3d5ffd5b50505050565b5f30611e8c610f48565b6001600160a01b031614611eb357604051637485328f60e11b815260040160405180910390fd5b5063bc197c8160e01b95945050505050565b5f81815260046020526040812054611ef990600160d01b810463ffffffff1690600160a01b900465ffffffffffff1661505b565b65ffffffffffff1692915050565b5f611f4a8787878787878080601f0160208091040260200160405190810160405280939291908181526020018383808284375f92019190915250612e2a92505050565b90507fa17eff957f965c6ee26364f81c85c7f8c62294b8ae4ea17224d2ed00a9c882ae81604051611f7d91815260200190565b60405180910390a19695505050505050565b611f976121e3565b5f80856001600160a01b0316858585604051611fb4929190614fe4565b5f6040518083038185875af1925050503d805f8114611fee576040519150601f19603f3d011682016040523d82523d5f602084013e611ff3565b606091505b50915091506120028282612f26565b50505050505050565b5f84848484604051602001612023949392919061510a565b60408051601f19818403018152919052805160209091012095945050505050565b5f611e02858585858080601f0160208091040260200160405190810160405280939291908181526020018383808284375f92019190915250612cd192505050565b5f610fc982612f42565b5f611dba83836123da565b61107a6121e3565b5f611dba83836120bc60408051602081019091525f815290565b612cd1565b6120c96121e3565b610ba581612f78565b5f306120dc610f48565b6001600160a01b03161461210357604051637485328f60e11b815260040160405180910390fd5b5063f23a6e6160e01b95945050505050565b5f61218f898989808060200260200160405190810160405280939291908181526020018383602002808284375f9201919091525050604080516020808d0282810182019093528c82529093508c92508b9182918501908490808284375f9201919091525061218992508991508a9050614f66565b86612417565b60405165ffffffffffff821681529091507fc7d48239722ab43f0d322d3bc5b9c80a10ed2b31ea774b6ac0852b9fdbd41fd09060200160405180910390a198975050505050505050565b5f610fc982612fb9565b336121ec610f48565b6001600160a01b031614612215576040516347096e4760e01b815233600482015260240161154e565b3061221e610f48565b6001600160a01b031614610fd7575f803660405161223d929190614fe4565b604051809103902090505b806122536005613060565b036122485750565b6064808211156122885760405163243e544560e01b8152600481018390526024810182905260440161154e565b5f612291611dcb565b90506122b061229e611d27565b6122a7856130cd565b60099190613100565b505060408051828152602081018590527f0553476bf02ef2726e8ce5ced78d63e26e602e4a2257b1f559418e24b4633997910160405180910390a1505050565b8063ffffffff165f036123185760405163f1cfbf0560e01b81525f600482015260240161154e565b6008546040805163ffffffff600160301b9093048316815291831660208301527f7e3f7f0708a84de9203036abaa450dccc85ad5ff52f78c170f3edb55cf5e8828910160405180910390a16008805463ffffffff909216600160301b0269ffffffff00000000000019909216919091179055565b6060610f5e7f00000000000000000000000000000000000000000000000000000000000000005f61311a565b5f8160078111156123cb576123cb6146ad565b600160ff919091161b92915050565b5f806123e5846114f2565b90505f836123f2836123b8565b1603611dba578381846040516331b75e4d60e01b815260040161154e93929190615154565b5f61156386868686866131c3565b6060610f5e7f0000000000000000000000000000000000000000000000000000000000000000600161311a565b81546001600160801b03600160801b82048116918116600183019091160361247e5761247e6041613459565b6001600160801b038082165f90815260018086016020526040909120939093558354919092018216600160801b029116179055565b6124c0858585858561346a565b5050505050565b6001600160a01b03165f90815260026020526040902080546001810190915590565b5f6124f8866110ed60016123b8565b505f61250d866125078961130d565b85612cd1565b90505f61251d8888888588612e2a565b905083515f0361257357866001600160a01b03167fb8e138887d0aa13bab447e82de9d5c1777041ecd21ca36ba824ff1e6c07ddda4898884896040516125669493929190615176565b60405180910390a2611957565b866001600160a01b03167fe2babfbac5889a709b63bb7f598b324e08bc5a4fb9ec647fb3cbc9ec07eb871289888489896040516125b495949392919061519d565b60405180910390a2979650505050505050565b5f806125d2836135ac565b905060058160078111156125e8576125e86146ad565b14801561268c57506008600a9054906101000a90046001600160a01b03166001600160a01b031663c1a287e26040518163ffffffff1660e01b8152600401602060405180830381865afa158015612641573d5f803e3d5ffd5b505050506040513d601f19601f8201168201806040525081019061266591906151e2565b5f8481526004602052604090206001015465ffffffffffff1661268891906151f9565b4210155b6126965780611dba565b60069392505050565b5f611e02858585856136dd565b5f610fc96126b8612a10565b8360405161190160f01b8152600281019290925260228201526042902090565b80515f9060348110156126ef576001915050610fc9565b60131981840101516001600160b01b03198116692370726f706f7365723d60b01b1461272057600192505050610fc9565b5f8061273086602a8603866137ee565b915091508115806119575750866001600160a01b0316816001600160a01b031614979650505050505050565b5f611e028585858561277860408051602081019091525f815290565b6124e9565b5f836001600160a01b03163b5f036127db575f8061279b8585613897565b5090925090505f8160038111156127b4576127b46146ad565b1480156127d25750856001600160a01b0316826001600160a01b0316145b92505050611dba565b6127e68484846138e0565b9050611dba565b5f6128018686868680519060200120611df5565b90508451865114158061281657508351865114155b8061282057508551155b1561285557855184518651604051630447b05d60e41b815260048101939093526024830191909152604482015260640161154e565b5f81815260046020526040902054600160a01b900465ffffffffffff161561289e5780612881826114f2565b6040516331b75e4d60e01b815261154e9291905f90600401615154565b5f6128b060085465ffffffffffff1690565b6128b8611d27565b65ffffffffffff166128ca91906151f9565b90505f6128e460085463ffffffff600160301b9091041690565b5f84815260046020526040902080546001600160a01b0319166001600160a01b03871617815590915061291683612b39565b815465ffffffffffff91909116600160a01b0265ffffffffffff60a01b19909116178155612943826139b6565b815463ffffffff91909116600160d01b0263ffffffff60d01b1990911617815588517f7d84a6263ae0d98d3329bd7b46bb4e8d6f98cd35a7adb45c274c8b7fd5ebd5e090859087908c908c906001600160401b038111156129a6576129a66141a4565b6040519080825280602002602001820160405280156129d957816020015b60608152602001906001900390816129c45790505b508c896129e68a826151f9565b8e6040516129fc9998979695949392919061520c565b60405180910390a150505095945050505050565b5f306001600160a01b037f000000000000000000000000000000000000000000000000000000000000000016148015612a6857507f000000000000000000000000000000000000000000000000000000000000000046145b15612a9257507f000000000000000000000000000000000000000000000000000000000000000090565b610f5e604080517f8b73c3c69bb8fe3d512ecc4cf759cc79239f7b179b0ffacaa9a75d522b39400f60208201527f0000000000000000000000000000000000000000000000000000000000000000918101919091527f000000000000000000000000000000000000000000000000000000000000000060608201524660808201523060a08201525f9060c00160405160208183030381529060405280519060200120905090565b5f65ffffffffffff821115612b6b576040516306dfcc6560e41b8152603060048201526024810183905260440161154e565b5090565b81545f9081816005811115612bcb575f612b88846139e6565b612b929085615007565b5f8881526020902090915081015465ffffffffffff9081169087161015612bbb57809150612bc9565b612bc68160016151f9565b92505b505b5f612bd887878585613b3e565b90508015612c1257612bfc87612bef600184615007565b5f91825260209091200190565b54600160301b90046001600160d01b0316611957565b505f9695505050505050565b5f612c28836124c7565b9050808214612c5c576040516301d4b62360e61b81526001600160a01b03841660048201526024810182905260440161154e565b505050565b6008546040805165ffffffffffff928316815291831660208301527fc565b045403dc03c2eea82b81a0465edad9e2e7fc4d97e11421c209da93d7a93910160405180910390a16008805465ffffffffffff191665ffffffffffff92909216919091179055565b5f610f5e43612b39565b5f7f0000000000000000000000000000000000000000000000000000000000000000604051630748d63560e31b81526001600160a01b038681166004830152602482018690529190911690633a46b1a890604401602060405180830381865afa158015612d40573d5f803e3d5ffd5b505050506040513d601f19601f8201168201806040525081019061169b91906151e2565b80545f908015612d9357612d7d83612bef600184615007565b54600160301b90046001600160d01b0316611dba565b5f9392505050565b600854604080516001600160a01b03600160501b9093048316815291831660208301527f08f74ea46ef7894f65eabfb5e6e695de773a000b47c529ab559178069b226401910160405180910390a1600880546001600160a01b03909216600160501b027fffff0000000000000000000000000000000000000000ffffffffffffffffffff909216919091179055565b5f858152600a602090815260408083206001600160a01b03881684526003810190925282205460ff1615612e7c576040516371c6af4960e01b81526001600160a01b038716600482015260240161154e565b6001600160a01b0386165f9081526003820160205260409020805460ff1916600117905560ff8516612ec55783815f015f828254612eba91906151f9565b90915550612f1b9050565b5f1960ff861601612ee35783816001015f828254612eba91906151f9565b60011960ff861601612f025783816002015f828254612eba91906151f9565b6040516303599be160e11b815260040160405180910390fd5b509195945050505050565b606082612f3b57612f3682613b9d565b610fc9565b5080610fc9565b5f818152600a6020526040812060028101546001820154612f6391906151f9565b612f6f610ef28561130d565b11159392505050565b60075460408051918252602082018390527fccb45da8d5717e6c4544694297c4ba5cf151d455c9bb0ed4fc7a38411bc05461910160405180910390a1600755565b5f6064612fc58361196b565b604051632394e7a360e21b8152600481018590526001600160a01b037f00000000000000000000000000000000000000000000000000000000000000001690638e539e8c90602401602060405180830381865afa158015613028573d5f803e3d5ffd5b505050506040513d601f19601f8201168201806040525081019061304c91906151e2565b61305691906152e1565b610fc9919061530c565b80545f906001600160801b0380821691600160801b9004168103613088576130886031613459565b6001600160801b038181165f908152600185810160205260408220805492905585546fffffffffffffffffffffffffffffffff19169301909116919091179092555090565b5f6001600160d01b03821115612b6b576040516306dfcc6560e41b815260d060048201526024810183905260440161154e565b5f8061310d858585613bc6565b915091505b935093915050565b606060ff83146131345761312d83613d16565b9050610fc9565b81805461314090614f1a565b80601f016020809104026020016040519081016040528092919081815260200182805461316c90614f1a565b80156131b75780601f1061318e576101008083540402835291602001916131b7565b820191905f5260205f20905b81548152906001019060200180831161319a57829003601f168201915b50505050509050610fc9565b5f8061324c6008600a9054906101000a90046001600160a01b03166001600160a01b0316636a42b8f86040518163ffffffff1660e01b8152600401602060405180830381865afa158015613219573d5f803e3d5ffd5b505050506040513d601f19601f8201168201806040525081019061323d91906151e2565b61324790426151f9565b612b39565b90505f5b865181101561344e576008600a9054906101000a90046001600160a01b03166001600160a01b031663f2b0653788838151811061328f5761328f614f52565b60200260200101518884815181106132a9576132a9614f52565b60200260200101518885815181106132c3576132c3614f52565b6020026020010151866040516020016132df949392919061532b565b604051602081830303815290604052805190602001206040518263ffffffff1660e01b815260040161331391815260200190565b602060405180830381865afa15801561332e573d5f803e3d5ffd5b505050506040513d601f19601f820116820180604052508101906133529190615377565b156133735760405163f20e7d3760e01b81526004810189905260240161154e565b6008600a9054906101000a90046001600160a01b03166001600160a01b0316633a66f9018883815181106133a9576133a9614f52565b60200260200101518884815181106133c3576133c3614f52565b60200260200101518885815181106133dd576133dd614f52565b6020026020010151866040518563ffffffff1660e01b8152600401613405949392919061532b565b6020604051808303815f875af1158015613421573d5f803e3d5ffd5b505050506040513d601f19601f8201168201806040525081019061344591906151e2565b50600101613250565b509695505050505050565b634e487b715f52806020526024601cfd5b5f8581526004602052604081206001015465ffffffffffff16908190036134a75760405163d5ddb82560e01b81526004810187905260240161154e565b6008546134c490600160501b90046001600160a01b031634613d53565b5f5b8551811015612002576008600a9054906101000a90046001600160a01b03166001600160a01b0316630825f38f87838151811061350557613505614f52565b602002602001015187848151811061351f5761351f614f52565b602002602001015187858151811061353957613539614f52565b6020026020010151866040518563ffffffff1660e01b81526004016135619493929190615396565b5f604051808303815f875af115801561357c573d5f803e3d5ffd5b505050506040513d5f823e601f3d908101601f191682016040526135a39190810190614fa0565b506001016134c6565b5f818152600460205260408120805460ff600160f01b8204811691600160f81b90041681156135e057506007949350505050565b80156135f157506002949350505050565b5f6135fb8661130d565b9050805f0361362057604051636ad0607560e01b81526004810187905260240161154e565b5f613629611d27565b65ffffffffffff16905080821061364657505f9695505050505050565b5f61365088611ec5565b905081811061366757506001979650505050505050565b61367088612f42565b158061368f57505f888152600a60205260409020805460019091015411155b156136a257506003979650505050505050565b5f8881526004602052604090206001015465ffffffffffff165f036136cf57506004979650505050505050565b506005979650505050505050565b5f806136eb86868686613ddf565b5f8181526004602052604090206001015490915065ffffffffffff168015611191575f5b87518110156137e2576008600a9054906101000a90046001600160a01b03166001600160a01b031663591fcdfe89838151811061374e5761374e614f52565b602002602001015189848151811061376857613768614f52565b602002602001015189858151811061378257613782614f52565b6020026020010151866040518563ffffffff1660e01b81526004016137aa9493929190615396565b5f604051808303815f87803b1580156137c1575f80fd5b505af11580156137d3573d5f803e3d5ffd5b5050505080600101905061370f565b50509050949350505050565b5f8084518311806137fe57508284115b1561380d57505f905080613112565b5f6138198560016151f9565b84118015613841575061060f60f31b6138358787016020015190565b6001600160f01b031916145b90505f61385182151560026152e1565b61385c9060286151f9565b9050806138698787615007565b0361388a575f8061387b898989613e8e565b90965094506131129350505050565b5f80935093505050613112565b5f805f83516041036138ce576020840151604085015160608601515f1a6138c088828585613f4f565b9550955095505050506138d9565b505081515f91506002905b9250925092565b5f805f856001600160a01b031685856040516024016139009291906153da565b60408051601f198184030181529181526020820180516001600160e01b0316630b135d3f60e11b1790525161393591906153f2565b5f60405180830381855afa9150503d805f811461396d576040519150601f19603f3d011682016040523d82523d5f602084013e613972565b606091505b509150915081801561398657506020815110155b801561156357508051630b135d3f60e11b906139ab90830160209081019084016151e2565b149695505050505050565b5f63ffffffff821115612b6b576040516306dfcc6560e41b8152602060048201526024810183905260440161154e565b5f600182116139f3575090565b816001600160801b8210613a0c5760809190911c9060401b5b680100000000000000008210613a275760409190911c9060201b5b6401000000008210613a3e5760209190911c9060101b5b620100008210613a535760109190911c9060081b5b6101008210613a675760089190911c9060041b5b60108210613a7a5760049190911c9060021b5b60048210613a865760011b5b600302600190811c90818581613a9e57613a9e6152f8565b048201901c90506001818581613ab657613ab66152f8565b048201901c90506001818581613ace57613ace6152f8565b048201901c90506001818581613ae657613ae66152f8565b048201901c90506001818581613afe57613afe6152f8565b048201901c90506001818581613b1657613b166152f8565b048201901c9050613b35818581613b2f57613b2f6152f8565b04821190565b90039392505050565b5f5b81831015613b95575f613b538484614017565b5f8781526020902090915065ffffffffffff86169082015465ffffffffffff161115613b8157809250613b8f565b613b8c8160016151f9565b93505b50613b40565b509392505050565b805115613bad5780518082602001fd5b60405163d6bda27560e01b815260040160405180910390fd5b82545f9081908015613cbc575f613be287612bef600185615007565b805490915065ffffffffffff80821691600160301b90046001600160d01b0316908816821115613c2557604051632520601d60e01b815260040160405180910390fd5b8765ffffffffffff168265ffffffffffff1603613c5e57825465ffffffffffff16600160301b6001600160d01b03891602178355613cae565b6040805180820190915265ffffffffffff808a1682526001600160d01b03808a1660208085019182528d54600181018f555f8f81529190912094519151909216600160301b029216919091179101555b945085935061311292505050565b50506040805180820190915265ffffffffffff80851682526001600160d01b0380851660208085019182528854600181018a555f8a815291822095519251909316600160301b029190931617920191909155905081613112565b60605f613d2283614031565b6040805160208082528183019092529192505f91906020820181803683375050509182525060208101929092525090565b80471015613d7d5760405163cf47918160e01b81524760048201526024810182905260440161154e565b5f80836001600160a01b0316836040515f6040518083038185875af1925050503d805f8114613dc7576040519150601f19603f3d011682016040523d82523d5f602084013e613dcc565b606091505b509150915081611e7c57611e7c81613b9d565b5f80613ded86868686611df5565b9050613e3b81613dfd60076123b8565b613e0760066123b8565b613e1160026123b8565b6001613e1e60078261540d565b613e29906002615506565b613e339190615007565b1818186123da565b505f818152600460205260409081902080546001600160f81b0316600160f81b179055517f789cf55be980739dad1d0699b93b58e806b51c9d96619bfa8fe0a28abaa7b30c906112fc9083815260200190565b5f808481613e9d8660016151f9565b85118015613ec5575061060f60f31b613eb98388016020015190565b6001600160f01b031916145b90505f613ed582151560026152e1565b90505f80613ee3838a6151f9565b90505b87811015613f3e575f613f04613eff8784016020015190565b614058565b9050600f8160ff161115613f23575f8097509750505050505050613112565b613f2e6010846152e1565b60ff909116019150600101613ee6565b506001999098509650505050505050565b5f80807f7fffffffffffffffffffffffffffffff5d576e7357a4501ddfe92f46681b20a0841115613f8857505f9150600390508261400d565b604080515f808252602082018084528a905260ff891692820192909252606081018790526080810186905260019060a0016020604051602081039080840390855afa158015613fd9573d5f803e3d5ffd5b5050604051601f1901519150506001600160a01b03811661400457505f92506001915082905061400d565b92505f91508190505b9450945094915050565b5f614025600284841861530c565b611dba908484166151f9565b5f60ff8216601f811115610fc957604051632cd44ac360e21b815260040160405180910390fd5b5f60f882901c602f811180156140715750603a8160ff16105b1561407f57602f1901610fc9565b60608160ff16118015614095575060678160ff16105b156140a35760561901610fc9565b60408160ff161180156140b9575060478160ff16105b156140c75760361901610fc9565b5060ff92915050565b5f602082840312156140e0575f80fd5b81356001600160e01b031981168114611dba575f80fd5b5f60208284031215614107575f80fd5b5035919050565b5f5b83811015614128578181015183820152602001614110565b50505f910152565b5f815180845261414781602086016020860161410e565b601f01601f19169290920160200192915050565b602081525f611dba6020830184614130565b5f6020828403121561417d575f80fd5b813563ffffffff81168114611dba575f80fd5b6001600160a01b0381168114610ba5575f80fd5b634e487b7160e01b5f52604160045260245ffd5b604051601f8201601f191681016001600160401b03811182821017156141e0576141e06141a4565b604052919050565b5f6001600160401b03821115614200576142006141a4565b50601f01601f191660200190565b5f61422061421b846141e8565b6141b8565b9050828152838383011115614233575f80fd5b828260208301375f602084830101529392505050565b5f82601f830112614258575f80fd5b611dba8383356020850161420e565b5f805f806080858703121561427a575f80fd5b843561428581614190565b9350602085013561429581614190565b92506040850135915060608501356001600160401b038111156142b6575f80fd5b6142c287828801614249565b91505092959194509250565b5f6001600160401b038211156142e6576142e66141a4565b5060051b60200190565b5f82601f8301126142ff575f80fd5b8135602061430f61421b836142ce565b8083825260208201915060208460051b870101935086841115614330575f80fd5b602086015b8481101561344e57803561434881614190565b8352918301918301614335565b5f82601f830112614364575f80fd5b8135602061437461421b836142ce565b8083825260208201915060208460051b870101935086841115614395575f80fd5b602086015b8481101561344e578035835291830191830161439a565b5f6143be61421b846142ce565b8381529050602080820190600585901b8401868111156143dc575f80fd5b845b818110156144155780356001600160401b038111156143fb575f80fd5b61440789828901614249565b8552509282019282016143de565b505050509392505050565b5f82601f83011261442f575f80fd5b611dba838335602085016143b1565b5f805f8060808587031215614451575f80fd5b84356001600160401b0380821115614467575f80fd5b614473888389016142f0565b95506020870135915080821115614488575f80fd5b61449488838901614355565b945060408701359150808211156144a9575f80fd5b506144b687828801614420565b949793965093946060013593505050565b5f602082840312156144d7575f80fd5b8135611dba81614190565b5f8083601f8401126144f2575f80fd5b5081356001600160401b03811115614508575f80fd5b6020830191508360208260051b8501011115614522575f80fd5b9250929050565b5f805f805f805f8060a0898b031215614540575f80fd5b8835975060208901356001600160401b038082111561455d575f80fd5b6145698c838d016144e2565b909950975060408b0135915080821115614581575f80fd5b61458d8c838d016144e2565b909750955060608b01359150808211156145a5575f80fd5b506145b28b828c016144e2565b999c989b50969995989497949560800135949350505050565b803560ff8116811461164c575f80fd5b5f8083601f8401126145eb575f80fd5b5081356001600160401b03811115614601575f80fd5b602083019150836020828501011115614522575f80fd5b5f805f805f805f60a0888a03121561462e575f80fd5b87359650602088013561464081614190565b955061464e604089016145cb565b945060608801356001600160401b0380821115614669575f80fd5b6146758b838c016145db565b909650945060808a013591508082111561468d575f80fd5b5061469a8a828b016145db565b989b979a50959850939692959293505050565b634e487b7160e01b5f52602160045260245ffd5b600881106146dd57634e487b7160e01b5f52602160045260245ffd5b9052565b60208101610fc982846146c1565b5f8060408385031215614700575f80fd5b82359150602083013561471281614190565b809150509250929050565b5f805f6040848603121561472f575f80fd5b833561473a81614190565b925060208401356001600160401b03811115614754575f80fd5b614760868287016145db565b9497909650939450505050565b5f806040838503121561477e575f80fd5b8235915061478e602084016145cb565b90509250929050565b5f805f805f805f60c0888a0312156147ad575f80fd5b873596506147bd602089016145cb565b955060408801356147cd81614190565b945060608801356001600160401b03808211156147e8575f80fd5b6147f48b838c016145db565b909650945060808a013591508082111561480c575f80fd5b6148188b838c01614249565b935060a08a013591508082111561482d575f80fd5b5061483a8a828b01614249565b91505092959891949750929550565b5f805f805f805f805f60a08a8c031215614861575f80fd5b89356001600160401b0380821115614877575f80fd5b6148838d838e016144e2565b909b50995060208c013591508082111561489b575f80fd5b6148a78d838e016144e2565b909950975060408c01359150808211156148bf575f80fd5b6148cb8d838e016144e2565b909750955060608c01359150808211156148e3575f80fd5b506148f08c828d016145db565b90945092505060808a013561490481614190565b809150509295985092959850929598565b5f805f805f60808688031215614929575f80fd5b85359450614939602087016145cb565b935060408601356001600160401b0380821115614954575f80fd5b61496089838a016145db565b90955093506060880135915080821115614978575f80fd5b5061498588828901614249565b9150509295509295909350565b5f805f805f805f6080888a0312156149a8575f80fd5b87356001600160401b03808211156149be575f80fd5b6149ca8b838c016144e2565b909950975060208a01359150808211156149e2575f80fd5b6149ee8b838c016144e2565b909750955060408a0135915080821115614a06575f80fd5b50614a138a828b016144e2565b989b979a50959894979596606090950135949350505050565b5f8060408385031215614a3d575f80fd5b8235614a4881614190565b946020939093013593505050565b5f805f805f60808688031215614a6a575f80fd5b853594506020860135614a7c81614190565b9350614a8a604087016145cb565b925060608601356001600160401b03811115614aa4575f80fd5b614ab0888289016145db565b969995985093965092949392505050565b65ffffffffffff81168114610ba5575f80fd5b5f60208284031215614ae4575f80fd5b8135611dba81614ac1565b5f805f8060608587031215614b02575f80fd5b84359350614b12602086016145cb565b925060408501356001600160401b03811115614b2c575f80fd5b614b38878288016145db565b95989497509550505050565b5f805f8060808587031215614b57575f80fd5b84356001600160401b0380821115614b6d575f80fd5b614b79888389016142f0565b95506020870135915080821115614b8e575f80fd5b614b9a88838901614355565b94506040870135915080821115614baf575f80fd5b614bbb88838901614420565b93506060870135915080821115614bd0575f80fd5b508501601f81018713614be1575f80fd5b6142c28782356020840161420e565b5f815180845260208085019450602084015f5b83811015614c1f57815187529582019590820190600101614c03565b509495945050505050565b60ff60f81b8816815260e060208201525f614c4860e0830189614130565b8281036040840152614c5a8189614130565b606084018890526001600160a01b038716608085015260a0840186905283810360c08501529050614c8b8185614bf0565b9a9950505050505050505050565b5f805f8060808587031215614cac575f80fd5b84359350614cbc602086016145cb565b92506040850135614ccc81614190565b915060608501356001600160401b038111156142b6575f80fd5b5f805f60608486031215614cf8575f80fd5b8335614d0381614190565b92506020840135915060408401356001600160401b03811115614d24575f80fd5b614d3086828701614249565b9150509250925092565b5f60208284031215614d4a575f80fd5b813560088110611dba575f80fd5b5f805f805f60a08688031215614d6c575f80fd5b8535614d7781614190565b94506020860135614d8781614190565b935060408601356001600160401b0380821115614da2575f80fd5b614dae89838a01614355565b94506060880135915080821115614dc3575f80fd5b614dcf89838a01614355565b93506080880135915080821115614978575f80fd5b5f805f805f8060a08789031215614df9575f80fd5b863595506020870135614e0b81614190565b9450614e19604088016145cb565b93506060870135925060808701356001600160401b03811115614e3a575f80fd5b614e4689828a016145db565b979a9699509497509295939492505050565b5f805f8060608587031215614e6b575f80fd5b8435614e7681614190565b93506020850135925060408501356001600160401b03811115614b2c575f80fd5b5f8060408385031215614ea8575f80fd5b50508035926020909101359150565b5f805f805f60a08688031215614ecb575f80fd5b8535614ed681614190565b94506020860135614ee681614190565b9350604086013592506060860135915060808601356001600160401b03811115614f0e575f80fd5b61498588828901614249565b600181811c90821680614f2e57607f821691505b602082108103614f4c57634e487b7160e01b5f52602260045260245ffd5b50919050565b634e487b7160e01b5f52603260045260245ffd5b5f611dba3684846143b1565b5f614f7f61421b846141e8565b9050828152838383011115614f92575f80fd5b611dba83602083018461410e565b5f60208284031215614fb0575f80fd5b81516001600160401b03811115614fc5575f80fd5b8201601f81018413614fd5575f80fd5b61169b84825160208401614f72565b818382375f9101908152919050565b634e487b7160e01b5f52601160045260245ffd5b81810381811115610fc957610fc9614ff3565b65ffffffffffff82811682821603908082111561503957615039614ff3565b5092915050565b5f60208284031215615050575f80fd5b8151611dba81614ac1565b65ffffffffffff81811683821601908082111561503957615039614ff3565b5f815180845260208085019450602084015f5b83811015614c1f5781516001600160a01b03168752958201959082019060010161508d565b5f8282518085526020808601955060208260051b840101602086015f5b848110156150fd57601f198684030189526150eb838351614130565b988401989250908301906001016150cf565b5090979650505050505050565b608081525f61511c608083018761507a565b828103602084015261512e8187614bf0565b9050828103604084015261514281866150b2565b91505082606083015295945050505050565b8381526060810161516860208301856146c1565b826040830152949350505050565b84815260ff84166020820152826040820152608060608201525f6115636080830184614130565b85815260ff8516602082015283604082015260a060608201525f6151c460a0830185614130565b82810360808401526151d68185614130565b98975050505050505050565b5f602082840312156151f2575f80fd5b5051919050565b80820180821115610fc957610fc9614ff3565b5f6101208b8352602060018060a01b038c16818501528160408501526152348285018c61507a565b91508382036060850152615248828b614bf0565b915083820360808501528189518084528284019150828160051b850101838c015f5b8381101561529857601f19878403018552615286838351614130565b9486019492509085019060010161526a565b505086810360a08801526152ac818c6150b2565b9450505050508560c08401528460e08401528281036101008401526152d18185614130565b9c9b505050505050505050505050565b8082028115828204841417610fc957610fc9614ff3565b634e487b7160e01b5f52601260045260245ffd5b5f8261532657634e487b7160e01b5f52601260045260245ffd5b500490565b60018060a01b038516815283602082015260a060408201525f60a082015260c060608201525f61535e60c0830185614130565b905065ffffffffffff8316608083015295945050505050565b5f60208284031215615387575f80fd5b81518015158114611dba575f80fd5b60018060a01b038516815283602082015260a060408201525f60a082015260c060608201525f6153c960c0830185614130565b905082608083015295945050505050565b828152604060208201525f61169b6040830184614130565b5f825161540381846020870161410e565b9190910192915050565b60ff8181168382160190811115610fc957610fc9614ff3565b600181815b8085111561546057815f190482111561544657615446614ff3565b8085161561545357918102915b93841c939080029061542b565b509250929050565b5f8261547657506001610fc9565b8161548257505f610fc9565b816001811461549857600281146154a2576154be565b6001915050610fc9565b60ff8411156154b3576154b3614ff3565b50506001821b610fc9565b5060208310610133831016604e8410600b84101617156154e1575081810a610fc9565b6154eb8383615426565b805f19048211156154fe576154fe614ff3565b029392505050565b5f611dba60ff84168361546856fea2646970667358221220e20adbd3de0f3d98eb9182cd5659691838783246094ec962ba8353c4c09b938664736f6c63430008180033",
  "linkReferences": {},
  "deployedLinkReferences": {}
}