{
  "_format": "hh-sol-artifact-1",
  "contractName": "$ERC20FlashMint",
  "sourceName": "contracts-exposed/token/ERC20/extensions/ERC20FlashMint.sol",
  "abi": [
    {
      "inputs": [
        {
          "internalType": "string",
          "name": "name_",
          "type": "string"
        },
        {
          "internalType": "string",
          "name": "symbol_",
          "type": "string"
        }
      ],
      "stateMutability": "payable",
      "type": "constructor"
    },
    {
      "inputs": [
        {
          "internalType": "address",
          "name": "spender",
          "type": "address"
        },
        {
          "internalType": "uint256",
          "name": "allowance",
          "type": "uint256"
        },
        {
          "internalType": "uint256",
          "name": "needed",
          "type": "uint256"
        }
      ],
      "name": "ERC20InsufficientAllowance",
      "type": "error"
    },
    {
      "inputs": [
        {
          "internalType": "address",
          "name": "sender",
          "type": "address"
        },
        {
          "internalType": "uint256",
          "name": "balance",
          "type": "uint256"
        },
        {
          "internalType": "uint256",
          "name": "needed",
          "type": "uint256"
        }
      ],
      "name": "ERC20InsufficientBalance",
      "type": "error"
    },
    {
      "inputs": [
        {
          "internalType": "address",
          "name": "approver",
          "type": "address"
        }
      ],
      "name": "ERC20InvalidApprover",
      "type": "error"
    },
    {
      "inputs": [
        {
          "internalType": "address",
          "name": "receiver",
          "type": "address"
        }
      ],
      "name": "ERC20InvalidReceiver",
      "type": "error"
    },
    {
      "inputs": [
        {
          "internalType": "address",
          "name": "sender",
          "type": "address"
        }
      ],
      "name": "ERC20InvalidSender",
      "type": "error"
    },
    {
      "inputs": [
        {
          "internalType": "address",
          "name": "spender",
          "type": "address"
        }
      ],
      "name": "ERC20InvalidSpender",
      "type": "error"
    },
    {
      "inputs": [
        {
          "internalType": "uint256",
          "name": "maxLoan",
          "type": "uint256"
        }
      ],
      "name": "ERC3156ExceededMaxLoan",
      "type": "error"
    },
    {
      "inputs": [
        {
          "internalType": "address",
          "name": "receiver",
          "type": "address"
        }
      ],
      "name": "ERC3156InvalidReceiver",
      "type": "error"
    },
    {
      "inputs": [
        {
          "internalType": "address",
          "name": "token",
          "type": "address"
        }
      ],
      "name": "ERC3156UnsupportedToken",
      "type": "error"
    },
    {
      "anonymous": false,
      "inputs": [
        {
          "indexed": true,
          "internalType": "address",
          "name": "owner",
          "type": "address"
        },
        {
          "indexed": true,
          "internalType": "address",
          "name": "spender",
          "type": "address"
        },
        {
          "indexed": false,
          "internalType": "uint256",
          "name": "value",
          "type": "uint256"
        }
      ],
      "name": "Approval",
      "type": "event"
    },
    {
      "anonymous": false,
      "inputs": [
        {
          "indexed": true,
          "internalType": "address",
          "name": "from",
          "type": "address"
        },
        {
          "indexed": true,
          "internalType": "address",
          "name": "to",
          "type": "address"
        },
        {
          "indexed": false,
          "internalType": "uint256",
          "name": "value",
          "type": "uint256"
        }
      ],
      "name": "Transfer",
      "type": "event"
    },
    {
      "inputs": [
        {
          "internalType": "address",
          "name": "owner",
          "type": "address"
        },
        {
          "internalType": "address",
          "name": "spender",
          "type": "address"
        },
        {
          "internalType": "uint256",
          "name": "value",
          "type": "uint256"
        },
        {
          "internalType": "bool",
          "name": "emitEvent",
          "type": "bool"
        }
      ],
      "name": "$_approve",
      "outputs": [],
      "stateMutability": "nonpayable",
      "type": "function"
    },
    {
      "inputs": [
        {
          "internalType": "address",
          "name": "owner",
          "type": "address"
        },
        {
          "internalType": "address",
          "name": "spender",
          "type": "address"
        },
        {
          "internalType": "uint256",
          "name": "value",
          "type": "uint256"
        }
      ],
      "name": "$_approve",
      "outputs": [],
      "stateMutability": "nonpayable",
      "type": "function"
    },
    {
      "inputs": [
        {
          "internalType": "address",
          "name": "account",
          "type": "address"
        },
        {
          "internalType": "uint256",
          "name": "value",
          "type": "uint256"
        }
      ],
      "name": "$_burn",
      "outputs": [],
      "stateMutability": "nonpayable",
      "type": "function"
    },
    {
      "inputs": [],
      "name": "$_contextSuffixLength",
      "outputs": [
        {
          "internalType": "uint256",
          "name": "ret0",
          "type": "uint256"
        }
      ],
      "stateMutability": "view",
      "type": "function"
    },
    {
      "inputs": [
        {
          "internalType": "address",
          "name": "token",
          "type": "address"
        },
        {
          "internalType": "uint256",
          "name": "value",
          "type": "uint256"
        }
      ],
      "name": "$_flashFee",
      "outputs": [
        {
          "internalType": "uint256",
          "name": "ret0",
          "type": "uint256"
        }
      ],
      "stateMutability": "view",
      "type": "function"
    },
    {
      "inputs": [],
      "name": "$_flashFeeReceiver",
      "outputs": [
        {
          "internalType": "address",
          "name": "ret0",
          "type": "address"
        }
      ],
      "stateMutability": "view",
      "type": "function"
    },
    {
      "inputs": [
        {
          "internalType": "address",
          "name": "account",
          "type": "address"
        },
        {
          "internalType": "uint256",
          "name": "value",
          "type": "uint256"
        }
      ],
      "name": "$_mint",
      "outputs": [],
      "stateMutability": "nonpayable",
      "type": "function"
    },
    {
      "inputs": [],
      "name": "$_msgData",
      "outputs": [
        {
          "internalType": "bytes",
          "name": "ret0",
          "type": "bytes"
        }
      ],
      "stateMutability": "view",
      "type": "function"
    },
    {
      "inputs": [],
      "name": "$_msgSender",
      "outputs": [
        {
          "internalType": "address",
          "name": "ret0",
          "type": "address"
        }
      ],
      "stateMutability": "view",
      "type": "function"
    },
    {
      "inputs": [
        {
          "internalType": "address",
          "name": "owner",
          "type": "address"
        },
        {
          "internalType": "address",
          "name": "spender",
          "type": "address"
        },
        {
          "internalType": "uint256",
          "name": "value",
          "type": "uint256"
        }
      ],
      "name": "$_spendAllowance",
      "outputs": [],
      "stateMutability": "nonpayable",
      "type": "function"
    },
    {
      "inputs": [
        {
          "internalType": "address",
          "name": "from",
          "type": "address"
        },
        {
          "internalType": "address",
          "name": "to",
          "type": "address"
        },
        {
          "internalType": "uint256",
          "name": "value",
          "type": "uint256"
        }
      ],
      "name": "$_transfer",
      "outputs": [],
      "stateMutability": "nonpayable",
      "type": "function"
    },
    {
      "inputs": [
        {
          "internalType": "address",
          "name": "from",
          "type": "address"
        },
        {
          "internalType": "address",
          "name": "to",
          "type": "address"
        },
        {
          "internalType": "uint256",
          "name": "value",
          "type": "uint256"
        }
      ],
      "name": "$_update",
      "outputs": [],
      "stateMutability": "nonpayable",
      "type": "function"
    },
    {
      "inputs": [],
      "name": "__hh_exposed_bytecode_marker",
      "outputs": [
        {
          "internalType": "bytes32",
          "name": "",
          "type": "bytes32"
        }
      ],
      "stateMutability": "view",
      "type": "function"
    },
    {
      "inputs": [
        {
          "internalType": "address",
          "name": "owner",
          "type": "address"
        },
        {
          "internalType": "address",
          "name": "spender",
          "type": "address"
        }
      ],
      "name": "allowance",
      "outputs": [
        {
          "internalType": "uint256",
          "name": "",
          "type": "uint256"
        }
      ],
      "stateMutability": "view",
      "type": "function"
    },
    {
      "inputs": [
        {
          "internalType": "address",
          "name": "spender",
          "type": "address"
        },
        {
          "internalType": "uint256",
          "name": "value",
          "type": "uint256"
        }
      ],
      "name": "approve",
      "outputs": [
        {
          "internalType": "bool",
          "name": "",
          "type": "bool"
        }
      ],
      "stateMutability": "nonpayable",
      "type": "function"
    },
    {
      "inputs": [
        {
          "internalType": "address",
          "name": "account",
          "type": "address"
        }
      ],
      "name": "balanceOf",
      "outputs": [
        {
          "internalType": "uint256",
          "name": "",
          "type": "uint256"
        }
      ],
      "stateMutability": "view",
      "type": "function"
    },
    {
      "inputs": [],
      "name": "decimals",
      "outputs": [
        {
          "internalType": "uint8",
          "name": "",
          "type": "uint8"
        }
      ],
      "stateMutability": "view",
      "type": "function"
    },
    {
      "inputs": [
        {
          "internalType": "address",
          "name": "token",
          "type": "address"
        },
        {
          "internalType": "uint256",
          "name": "value",
          "type": "uint256"
        }
      ],
      "name": "flashFee",
      "outputs": [
        {
          "internalType": "uint256",
          "name": "",
          "type": "uint256"
        }
      ],
      "stateMutability": "view",
      "type": "function"
    },
    {
      "inputs": [
        {
          "internalType": "contract IERC3156FlashBorrower",
          "name": "receiver",
          "type": "address"
        },
        {
          "internalType": "address",
          "name": "token",
          "type": "address"
        },
        {
          "internalType": "uint256",
          "name": "value",
          "type": "uint256"
        },
        {
          "internalType": "bytes",
          "name": "data",
          "type": "bytes"
        }
      ],
      "name": "flashLoan",
      "outputs": [
        {
          "internalType": "bool",
          "name": "",
          "type": "bool"
        }
      ],
      "stateMutability": "nonpayable",
      "type": "function"
    },
    {
      "inputs": [
        {
          "internalType": "address",
          "name": "token",
          "type": "address"
        }
      ],
      "name": "maxFlashLoan",
      "outputs": [
        {
          "internalType": "uint256",
          "name": "",
          "type": "uint256"
        }
      ],
      "stateMutability": "view",
      "type": "function"
    },
    {
      "inputs": [],
      "name": "name",
      "outputs": [
        {
          "internalType": "string",
          "name": "",
          "type": "string"
        }
      ],
      "stateMutability": "view",
      "type": "function"
    },
    {
      "inputs": [],
      "name": "symbol",
      "outputs": [
        {
          "internalType": "string",
          "name": "",
          "type": "string"
        }
      ],
      "stateMutability": "view",
      "type": "function"
    },
    {
      "inputs": [],
      "name": "totalSupply",
      "outputs": [
        {
          "internalType": "uint256",
          "name": "",
          "type": "uint256"
        }
      ],
      "stateMutability": "view",
      "type": "function"
    },
    {
      "inputs": [
        {
          "internalType": "address",
          "name": "to",
          "type": "address"
        },
        {
          "internalType": "uint256",
          "name": "value",
          "type": "uint256"
        }
      ],
      "name": "transfer",
      "outputs": [
        {
          "internalType": "bool",
          "name": "",
          "type": "bool"
        }
      ],
      "stateMutability": "nonpayable",
      "type": "function"
    },
    {
      "inputs": [
        {
          "internalType": "address",
          "name": "from",
          "type": "address"
        },
        {
          "internalType": "address",
          "name": "to",
          "type": "address"
        },
        {
          "internalType": "uint256",
          "name": "value",
          "type": "uint256"
        }
      ],
      "name": "transferFrom",
      "outputs": [
        {
          "internalType": "bool",
          "name": "",
          "type": "bool"
        }
      ],
      "stateMutability": "nonpayable",
      "type": "function"
    },
    {
      "stateMutability": "payable",
      "type": "receive"
    }
  ],
  "bytecode": "0x60806040526040516200113c3803806200113c833981016040819052620000269162000111565b8181600362000036838262000201565b50600462000045828262000201565b5050505050620002cd565b634e487b7160e01b5f52604160045260245ffd5b5f82601f83011262000074575f80fd5b81516001600160401b038082111562000091576200009162000050565b604051601f8301601f19908116603f01168101908282118183101715620000bc57620000bc62000050565b8160405283815260209250866020858801011115620000d9575f80fd5b5f91505b83821015620000fc5785820183015181830184015290820190620000dd565b5f602085830101528094505050505092915050565b5f806040838503121562000123575f80fd5b82516001600160401b03808211156200013a575f80fd5b620001488683870162000064565b935060208501519150808211156200015e575f80fd5b506200016d8582860162000064565b9150509250929050565b600181811c908216806200018c57607f821691505b602082108103620001ab57634e487b7160e01b5f52602260045260245ffd5b50919050565b601f821115620001fc57805f5260205f20601f840160051c81016020851015620001d85750805b601f840160051c820191505b81811015620001f9575f8155600101620001e4565b50505b505050565b81516001600160401b038111156200021d576200021d62000050565b62000235816200022e845462000177565b84620001b1565b602080601f8311600181146200026b575f8415620002535750858301515b5f19600386901b1c1916600185901b178555620002c5565b5f85815260208120601f198616915b828110156200029b578886015182559484019460019091019084016200027a565b5085821015620002b957878501515f19600388901b60f8161c191681555b505060018460011b0185555b505050505050565b610e6180620002db5f395ff3fe608060405260043610610164575f3560e01c8063613255ab116100cd578063a9059cbb11610087578063d9d98ce411610062578063d9d98ce414610404578063dd62ed3e14610423578063e047838d14610467578063efb43b0714610486575f80fd5b8063a9059cbb146103a7578063b2331d7d146103c6578063cc461d62146103e5575f80fd5b8063613255ab146102f057806367354a841461030f5780636855a1781461032157806370a0823114610340578063861e3d3d1461037457806395d89b4114610393575f80fd5b8063313ce5671161011e578063313ce5671461024a57806332bc74aa1461026557806332cadf3c14610286578063342db7391461029a57806339532b37146102bf5780635cffe9de146102d1575f80fd5b806306fdde031461016f578063095ea7b31461019957806318160ddd146101c85780631b038258146101e657806323b872dd146102055780632904df2914610224575f80fd5b3661016b57005b5f80fd5b34801561017a575f80fd5b506101836104a5565b6040516101909190610b7a565b60405180910390f35b3480156101a4575f80fd5b506101b86101b3366004610ba3565b610535565b6040519015158152602001610190565b3480156101d3575f80fd5b506002545b604051908152602001610190565b3480156101f1575f80fd5b506101d8610200366004610ba3565b61054e565b348015610210575f80fd5b506101b861021f366004610bcd565b610558565b34801561022f575f80fd5b50335b6040516001600160a01b039091168152602001610190565b348015610255575f80fd5b5060405160128152602001610190565b348015610270575f80fd5b5061028461027f366004610c0b565b61057b565b005b348015610291575f80fd5b5061018361058d565b3480156102a5575f80fd5b506101d86e1a185c991a185d0b595e1c1bdcd959608a1b81565b3480156102ca575f80fd5b505f610232565b3480156102dc575f80fd5b506101b86102eb366004610c5f565b6105ca565b3480156102fb575f80fd5b506101d861030a366004610cf6565b610741565b34801561031a575f80fd5b505f6101d8565b34801561032c575f80fd5b5061028461033b366004610bcd565b610766565b34801561034b575f80fd5b506101d861035a366004610cf6565b6001600160a01b03165f9081526020819052604090205490565b34801561037f575f80fd5b5061028461038e366004610bcd565b610776565b34801561039e575f80fd5b50610183610781565b3480156103b2575f80fd5b506101b86103c1366004610ba3565b610790565b3480156103d1575f80fd5b506102846103e0366004610bcd565b61079d565b3480156103f0575f80fd5b506102846103ff366004610ba3565b6107a8565b34801561040f575f80fd5b506101d861041e366004610ba3565b6107b6565b34801561042e575f80fd5b506101d861043d366004610d11565b6001600160a01b039182165f90815260016020908152604080832093909416825291909152205490565b348015610472575f80fd5b50610284610481366004610ba3565b6107f1565b348015610491575f80fd5b506102846104a0366004610bcd565b6107fb565b6060600380546104b490610d48565b80601f01602080910402602001604051908101604052809291908181526020018280546104e090610d48565b801561052b5780601f106105025761010080835404028352916020019161052b565b820191905f5260205f20905b81548152906001019060200180831161050e57829003601f168201915b5050505050905090565b5f33610542818585610806565b60019150505b92915050565b5f805b9392505050565b5f33610565858285610813565b610570858585610889565b506001949350505050565b610587848484846108db565b50505050565b60605f368080601f0160208091040260200160405190810160405280939291908181526020018383808284375f9201919091525092949350505050565b5f806105d586610741565b9050808511156106005760405163fd9a760960e01b8152600481018290526024015b60405180910390fd5b5f61060b87876107b6565b905061061788876109ad565b6040516323e30c8b60e01b81527f439148f0bbc682ca079e46d6e2c2f0c1e3b820f1a291b069d8882abf8cf18dd9906001600160a01b038a16906323e30c8b9061066f9033908c908c9088908d908d90600401610d80565b6020604051808303815f875af115801561068b573d5f803e3d5ffd5b505050506040513d601f19601f820116820180604052508101906106af9190610dda565b146106d75760405162678c5b60e81b81526001600160a01b03891660048201526024016105f7565b5f6106ec89306106e7858b610e05565b610813565b81158061070057506001600160a01b038116155b1561071d5761071889610713848a610e05565b6109e1565b610732565b61072789886109e1565b610732898284610889565b50600198975050505050505050565b5f6001600160a01b0382163014610758575f610548565b600254610548905f19610e18565b610771838383610a11565b505050565b610771838383610806565b6060600480546104b490610d48565b5f33610542818585610889565b610771838383610813565b6107b282826109ad565b5050565b5f6001600160a01b03831630146107eb57604051635ad3edc960e11b81526001600160a01b03841660048201526024016105f7565b5f610551565b6107b282826109e1565b610771838383610889565b61077183838360016108db565b6001600160a01b038381165f908152600160209081526040808320938616835292905220545f19811015610587578181101561087b57604051637dc7a0d960e11b81526001600160a01b038416600482015260248101829052604481018390526064016105f7565b61058784848484035f6108db565b6001600160a01b0383166108b257604051634b637e8f60e11b81525f60048201526024016105f7565b6001600160a01b0382166107665760405163ec442f0560e01b81525f60048201526024016105f7565b6001600160a01b0384166109045760405163e602df0560e01b81525f60048201526024016105f7565b6001600160a01b03831661092d57604051634a1406b160e11b81525f60048201526024016105f7565b6001600160a01b038085165f908152600160209081526040808320938716835292905220829055801561058757826001600160a01b0316846001600160a01b03167f8c5be1e5ebec7d5bd14f71427d1e84f3dd0314c0f7b2291e5b200ac8c7c3b9258460405161099f91815260200190565b60405180910390a350505050565b6001600160a01b0382166109d65760405163ec442f0560e01b81525f60048201526024016105f7565b6107b25f8383610a11565b6001600160a01b038216610a0a57604051634b637e8f60e11b81525f60048201526024016105f7565b6107b2825f835b6001600160a01b038316610a3b578060025f828254610a309190610e05565b90915550610aab9050565b6001600160a01b0383165f9081526020819052604090205481811015610a8d5760405163391434e360e21b81526001600160a01b038516600482015260248101829052604481018390526064016105f7565b6001600160a01b0384165f9081526020819052604090209082900390555b6001600160a01b038216610ac757600280548290039055610ae5565b6001600160a01b0382165f9081526020819052604090208054820190555b816001600160a01b0316836001600160a01b03167fddf252ad1be2c89b69c2b068fc378daa952ba7f163c4a11628f55a4df523b3ef83604051610b2a91815260200190565b60405180910390a3505050565b5f81518084525f5b81811015610b5b57602081850181015186830182015201610b3f565b505f602082860101526020601f19601f83011685010191505092915050565b602081525f6105516020830184610b37565b6001600160a01b0381168114610ba0575f80fd5b50565b5f8060408385031215610bb4575f80fd5b8235610bbf81610b8c565b946020939093013593505050565b5f805f60608486031215610bdf575f80fd5b8335610bea81610b8c565b92506020840135610bfa81610b8c565b929592945050506040919091013590565b5f805f8060808587031215610c1e575f80fd5b8435610c2981610b8c565b93506020850135610c3981610b8c565b92506040850135915060608501358015158114610c54575f80fd5b939692955090935050565b5f805f805f60808688031215610c73575f80fd5b8535610c7e81610b8c565b94506020860135610c8e81610b8c565b935060408601359250606086013567ffffffffffffffff80821115610cb1575f80fd5b818801915088601f830112610cc4575f80fd5b813581811115610cd2575f80fd5b896020828501011115610ce3575f80fd5b9699959850939650602001949392505050565b5f60208284031215610d06575f80fd5b813561055181610b8c565b5f8060408385031215610d22575f80fd5b8235610d2d81610b8c565b91506020830135610d3d81610b8c565b809150509250929050565b600181811c90821680610d5c57607f821691505b602082108103610d7a57634e487b7160e01b5f52602260045260245ffd5b50919050565b6001600160a01b03878116825286166020820152604081018590526060810184905260a06080820181905281018290525f828460c08401375f60c0848401015260c0601f19601f8501168301019050979650505050505050565b5f60208284031215610dea575f80fd5b5051919050565b634e487b7160e01b5f52601160045260245ffd5b8082018082111561054857610548610df1565b8181038181111561054857610548610df156fea2646970667358221220d426e9afe3f0e53328f9fb9ace9d5ef41224088cefadc9c1437313052815857864736f6c63430008180033",
  "linkReferences": {},
  "deployedLinkReferences": {}
}