{
  "_format": "hh-sol-artifact-1",
  "contractName": "$ERC4626FeesMock",
  "sourceName": "contracts-exposed/mocks/token/ERC4646FeesMock.sol",
  "abi": [
    {
      "inputs": [
        {
          "internalType": "string",
          "name": "name_",
          "type": "string"
        },
        {
          "internalType": "string",
          "name": "symbol_",
          "type": "string"
        },
        {
          "internalType": "contract IERC20",
          "name": "asset_",
          "type": "address"
        },
        {
          "internalType": "uint256",
          "name": "entryFeeBasisPoints",
          "type": "uint256"
        },
        {
          "internalType": "address",
          "name": "entryFeeRecipient",
          "type": "address"
        },
        {
          "internalType": "uint256",
          "name": "exitFeeBasisPoints",
          "type": "uint256"
        },
        {
          "internalType": "address",
          "name": "exitFeeRecipient",
          "type": "address"
        }
      ],
      "stateMutability": "payable",
      "type": "constructor"
    },
    {
      "inputs": [
        {
          "internalType": "address",
          "name": "spender",
          "type": "address"
        },
        {
          "internalType": "uint256",
          "name": "allowance",
          "type": "uint256"
        },
        {
          "internalType": "uint256",
          "name": "needed",
          "type": "uint256"
        }
      ],
      "name": "ERC20InsufficientAllowance",
      "type": "error"
    },
    {
      "inputs": [
        {
          "internalType": "address",
          "name": "sender",
          "type": "address"
        },
        {
          "internalType": "uint256",
          "name": "balance",
          "type": "uint256"
        },
        {
          "internalType": "uint256",
          "name": "needed",
          "type": "uint256"
        }
      ],
      "name": "ERC20InsufficientBalance",
      "type": "error"
    },
    {
      "inputs": [
        {
          "internalType": "address",
          "name": "approver",
          "type": "address"
        }
      ],
      "name": "ERC20InvalidApprover",
      "type": "error"
    },
    {
      "inputs": [
        {
          "internalType": "address",
          "name": "receiver",
          "type": "address"
        }
      ],
      "name": "ERC20InvalidReceiver",
      "type": "error"
    },
    {
      "inputs": [
        {
          "internalType": "address",
          "name": "sender",
          "type": "address"
        }
      ],
      "name": "ERC20InvalidSender",
      "type": "error"
    },
    {
      "inputs": [
        {
          "internalType": "address",
          "name": "spender",
          "type": "address"
        }
      ],
      "name": "ERC20InvalidSpender",
      "type": "error"
    },
    {
      "inputs": [
        {
          "internalType": "address",
          "name": "receiver",
          "type": "address"
        },
        {
          "internalType": "uint256",
          "name": "assets",
          "type": "uint256"
        },
        {
          "internalType": "uint256",
          "name": "max",
          "type": "uint256"
        }
      ],
      "name": "ERC4626ExceededMaxDeposit",
      "type": "error"
    },
    {
      "inputs": [
        {
          "internalType": "address",
          "name": "receiver",
          "type": "address"
        },
        {
          "internalType": "uint256",
          "name": "shares",
          "type": "uint256"
        },
        {
          "internalType": "uint256",
          "name": "max",
          "type": "uint256"
        }
      ],
      "name": "ERC4626ExceededMaxMint",
      "type": "error"
    },
    {
      "inputs": [
        {
          "internalType": "address",
          "name": "owner",
          "type": "address"
        },
        {
          "internalType": "uint256",
          "name": "shares",
          "type": "uint256"
        },
        {
          "internalType": "uint256",
          "name": "max",
          "type": "uint256"
        }
      ],
      "name": "ERC4626ExceededMaxRedeem",
      "type": "error"
    },
    {
      "inputs": [
        {
          "internalType": "address",
          "name": "owner",
          "type": "address"
        },
        {
          "internalType": "uint256",
          "name": "assets",
          "type": "uint256"
        },
        {
          "internalType": "uint256",
          "name": "max",
          "type": "uint256"
        }
      ],
      "name": "ERC4626ExceededMaxWithdraw",
      "type": "error"
    },
    {
      "inputs": [
        {
          "internalType": "address",
          "name": "token",
          "type": "address"
        }
      ],
      "name": "SafeERC20FailedOperation",
      "type": "error"
    },
    {
      "anonymous": false,
      "inputs": [
        {
          "indexed": true,
          "internalType": "address",
          "name": "owner",
          "type": "address"
        },
        {
          "indexed": true,
          "internalType": "address",
          "name": "spender",
          "type": "address"
        },
        {
          "indexed": false,
          "internalType": "uint256",
          "name": "value",
          "type": "uint256"
        }
      ],
      "name": "Approval",
      "type": "event"
    },
    {
      "anonymous": false,
      "inputs": [
        {
          "indexed": true,
          "internalType": "address",
          "name": "sender",
          "type": "address"
        },
        {
          "indexed": true,
          "internalType": "address",
          "name": "owner",
          "type": "address"
        },
        {
          "indexed": false,
          "internalType": "uint256",
          "name": "assets",
          "type": "uint256"
        },
        {
          "indexed": false,
          "internalType": "uint256",
          "name": "shares",
          "type": "uint256"
        }
      ],
      "name": "Deposit",
      "type": "event"
    },
    {
      "anonymous": false,
      "inputs": [
        {
          "indexed": true,
          "internalType": "address",
          "name": "from",
          "type": "address"
        },
        {
          "indexed": true,
          "internalType": "address",
          "name": "to",
          "type": "address"
        },
        {
          "indexed": false,
          "internalType": "uint256",
          "name": "value",
          "type": "uint256"
        }
      ],
      "name": "Transfer",
      "type": "event"
    },
    {
      "anonymous": false,
      "inputs": [
        {
          "indexed": true,
          "internalType": "address",
          "name": "sender",
          "type": "address"
        },
        {
          "indexed": true,
          "internalType": "address",
          "name": "receiver",
          "type": "address"
        },
        {
          "indexed": true,
          "internalType": "address",
          "name": "owner",
          "type": "address"
        },
        {
          "indexed": false,
          "internalType": "uint256",
          "name": "assets",
          "type": "uint256"
        },
        {
          "indexed": false,
          "internalType": "uint256",
          "name": "shares",
          "type": "uint256"
        }
      ],
      "name": "Withdraw",
      "type": "event"
    },
    {
      "inputs": [
        {
          "internalType": "address",
          "name": "owner",
          "type": "address"
        },
        {
          "internalType": "address",
          "name": "spender",
          "type": "address"
        },
        {
          "internalType": "uint256",
          "name": "value",
          "type": "uint256"
        },
        {
          "internalType": "bool",
          "name": "emitEvent",
          "type": "bool"
        }
      ],
      "name": "$_approve",
      "outputs": [],
      "stateMutability": "nonpayable",
      "type": "function"
    },
    {
      "inputs": [
        {
          "internalType": "address",
          "name": "owner",
          "type": "address"
        },
        {
          "internalType": "address",
          "name": "spender",
          "type": "address"
        },
        {
          "internalType": "uint256",
          "name": "value",
          "type": "uint256"
        }
      ],
      "name": "$_approve",
      "outputs": [],
      "stateMutability": "nonpayable",
      "type": "function"
    },
    {
      "inputs": [
        {
          "internalType": "address",
          "name": "account",
          "type": "address"
        },
        {
          "internalType": "uint256",
          "name": "value",
          "type": "uint256"
        }
      ],
      "name": "$_burn",
      "outputs": [],
      "stateMutability": "nonpayable",
      "type": "function"
    },
    {
      "inputs": [],
      "name": "$_contextSuffixLength",
      "outputs": [
        {
          "internalType": "uint256",
          "name": "ret0",
          "type": "uint256"
        }
      ],
      "stateMutability": "view",
      "type": "function"
    },
    {
      "inputs": [
        {
          "internalType": "uint256",
          "name": "shares",
          "type": "uint256"
        },
        {
          "internalType": "enum Math.Rounding",
          "name": "rounding",
          "type": "uint8"
        }
      ],
      "name": "$_convertToAssets",
      "outputs": [
        {
          "internalType": "uint256",
          "name": "ret0",
          "type": "uint256"
        }
      ],
      "stateMutability": "view",
      "type": "function"
    },
    {
      "inputs": [
        {
          "internalType": "uint256",
          "name": "assets",
          "type": "uint256"
        },
        {
          "internalType": "enum Math.Rounding",
          "name": "rounding",
          "type": "uint8"
        }
      ],
      "name": "$_convertToShares",
      "outputs": [
        {
          "internalType": "uint256",
          "name": "ret0",
          "type": "uint256"
        }
      ],
      "stateMutability": "view",
      "type": "function"
    },
    {
      "inputs": [],
      "name": "$_decimalsOffset",
      "outputs": [
        {
          "internalType": "uint8",
          "name": "ret0",
          "type": "uint8"
        }
      ],
      "stateMutability": "view",
      "type": "function"
    },
    {
      "inputs": [
        {
          "internalType": "address",
          "name": "caller",
          "type": "address"
        },
        {
          "internalType": "address",
          "name": "receiver",
          "type": "address"
        },
        {
          "internalType": "uint256",
          "name": "assets",
          "type": "uint256"
        },
        {
          "internalType": "uint256",
          "name": "shares",
          "type": "uint256"
        }
      ],
      "name": "$_deposit",
      "outputs": [],
      "stateMutability": "nonpayable",
      "type": "function"
    },
    {
      "inputs": [],
      "name": "$_entryFeeBasisPoints",
      "outputs": [
        {
          "internalType": "uint256",
          "name": "ret0",
          "type": "uint256"
        }
      ],
      "stateMutability": "view",
      "type": "function"
    },
    {
      "inputs": [],
      "name": "$_entryFeeRecipient",
      "outputs": [
        {
          "internalType": "address",
          "name": "ret0",
          "type": "address"
        }
      ],
      "stateMutability": "view",
      "type": "function"
    },
    {
      "inputs": [],
      "name": "$_exitFeeBasisPoints",
      "outputs": [
        {
          "internalType": "uint256",
          "name": "ret0",
          "type": "uint256"
        }
      ],
      "stateMutability": "view",
      "type": "function"
    },
    {
      "inputs": [],
      "name": "$_exitFeeRecipient",
      "outputs": [
        {
          "internalType": "address",
          "name": "ret0",
          "type": "address"
        }
      ],
      "stateMutability": "view",
      "type": "function"
    },
    {
      "inputs": [
        {
          "internalType": "address",
          "name": "account",
          "type": "address"
        },
        {
          "internalType": "uint256",
          "name": "value",
          "type": "uint256"
        }
      ],
      "name": "$_mint",
      "outputs": [],
      "stateMutability": "nonpayable",
      "type": "function"
    },
    {
      "inputs": [],
      "name": "$_msgData",
      "outputs": [
        {
          "internalType": "bytes",
          "name": "ret0",
          "type": "bytes"
        }
      ],
      "stateMutability": "view",
      "type": "function"
    },
    {
      "inputs": [],
      "name": "$_msgSender",
      "outputs": [
        {
          "internalType": "address",
          "name": "ret0",
          "type": "address"
        }
      ],
      "stateMutability": "view",
      "type": "function"
    },
    {
      "inputs": [
        {
          "internalType": "address",
          "name": "owner",
          "type": "address"
        },
        {
          "internalType": "address",
          "name": "spender",
          "type": "address"
        },
        {
          "internalType": "uint256",
          "name": "value",
          "type": "uint256"
        }
      ],
      "name": "$_spendAllowance",
      "outputs": [],
      "stateMutability": "nonpayable",
      "type": "function"
    },
    {
      "inputs": [
        {
          "internalType": "address",
          "name": "from",
          "type": "address"
        },
        {
          "internalType": "address",
          "name": "to",
          "type": "address"
        },
        {
          "internalType": "uint256",
          "name": "value",
          "type": "uint256"
        }
      ],
      "name": "$_transfer",
      "outputs": [],
      "stateMutability": "nonpayable",
      "type": "function"
    },
    {
      "inputs": [
        {
          "internalType": "address",
          "name": "from",
          "type": "address"
        },
        {
          "internalType": "address",
          "name": "to",
          "type": "address"
        },
        {
          "internalType": "uint256",
          "name": "value",
          "type": "uint256"
        }
      ],
      "name": "$_update",
      "outputs": [],
      "stateMutability": "nonpayable",
      "type": "function"
    },
    {
      "inputs": [
        {
          "internalType": "address",
          "name": "caller",
          "type": "address"
        },
        {
          "internalType": "address",
          "name": "receiver",
          "type": "address"
        },
        {
          "internalType": "address",
          "name": "owner",
          "type": "address"
        },
        {
          "internalType": "uint256",
          "name": "assets",
          "type": "uint256"
        },
        {
          "internalType": "uint256",
          "name": "shares",
          "type": "uint256"
        }
      ],
      "name": "$_withdraw",
      "outputs": [],
      "stateMutability": "nonpayable",
      "type": "function"
    },
    {
      "inputs": [],
      "name": "__hh_exposed_bytecode_marker",
      "outputs": [
        {
          "internalType": "bytes32",
          "name": "",
          "type": "bytes32"
        }
      ],
      "stateMutability": "view",
      "type": "function"
    },
    {
      "inputs": [
        {
          "internalType": "address",
          "name": "owner",
          "type": "address"
        },
        {
          "internalType": "address",
          "name": "spender",
          "type": "address"
        }
      ],
      "name": "allowance",
      "outputs": [
        {
          "internalType": "uint256",
          "name": "",
          "type": "uint256"
        }
      ],
      "stateMutability": "view",
      "type": "function"
    },
    {
      "inputs": [
        {
          "internalType": "address",
          "name": "spender",
          "type": "address"
        },
        {
          "internalType": "uint256",
          "name": "value",
          "type": "uint256"
        }
      ],
      "name": "approve",
      "outputs": [
        {
          "internalType": "bool",
          "name": "",
          "type": "bool"
        }
      ],
      "stateMutability": "nonpayable",
      "type": "function"
    },
    {
      "inputs": [],
      "name": "asset",
      "outputs": [
        {
          "internalType": "address",
          "name": "",
          "type": "address"
        }
      ],
      "stateMutability": "view",
      "type": "function"
    },
    {
      "inputs": [
        {
          "internalType": "address",
          "name": "account",
          "type": "address"
        }
      ],
      "name": "balanceOf",
      "outputs": [
        {
          "internalType": "uint256",
          "name": "",
          "type": "uint256"
        }
      ],
      "stateMutability": "view",
      "type": "function"
    },
    {
      "inputs": [
        {
          "internalType": "uint256",
          "name": "shares",
          "type": "uint256"
        }
      ],
      "name": "convertToAssets",
      "outputs": [
        {
          "internalType": "uint256",
          "name": "",
          "type": "uint256"
        }
      ],
      "stateMutability": "view",
      "type": "function"
    },
    {
      "inputs": [
        {
          "internalType": "uint256",
          "name": "assets",
          "type": "uint256"
        }
      ],
      "name": "convertToShares",
      "outputs": [
        {
          "internalType": "uint256",
          "name": "",
          "type": "uint256"
        }
      ],
      "stateMutability": "view",
      "type": "function"
    },
    {
      "inputs": [],
      "name": "decimals",
      "outputs": [
        {
          "internalType": "uint8",
          "name": "",
          "type": "uint8"
        }
      ],
      "stateMutability": "view",
      "type": "function"
    },
    {
      "inputs": [
        {
          "internalType": "uint256",
          "name": "assets",
          "type": "uint256"
        },
        {
          "internalType": "address",
          "name": "receiver",
          "type": "address"
        }
      ],
      "name": "deposit",
      "outputs": [
        {
          "internalType": "uint256",
          "name": "",
          "type": "uint256"
        }
      ],
      "stateMutability": "nonpayable",
      "type": "function"
    },
    {
      "inputs": [
        {
          "internalType": "address",
          "name": "",
          "type": "address"
        }
      ],
      "name": "maxDeposit",
      "outputs": [
        {
          "internalType": "uint256",
          "name": "",
          "type": "uint256"
        }
      ],
      "stateMutability": "view",
      "type": "function"
    },
    {
      "inputs": [
        {
          "internalType": "address",
          "name": "",
          "type": "address"
        }
      ],
      "name": "maxMint",
      "outputs": [
        {
          "internalType": "uint256",
          "name": "",
          "type": "uint256"
        }
      ],
      "stateMutability": "view",
      "type": "function"
    },
    {
      "inputs": [
        {
          "internalType": "address",
          "name": "owner",
          "type": "address"
        }
      ],
      "name": "maxRedeem",
      "outputs": [
        {
          "internalType": "uint256",
          "name": "",
          "type": "uint256"
        }
      ],
      "stateMutability": "view",
      "type": "function"
    },
    {
      "inputs": [
        {
          "internalType": "address",
          "name": "owner",
          "type": "address"
        }
      ],
      "name": "maxWithdraw",
      "outputs": [
        {
          "internalType": "uint256",
          "name": "",
          "type": "uint256"
        }
      ],
      "stateMutability": "view",
      "type": "function"
    },
    {
      "inputs": [
        {
          "internalType": "uint256",
          "name": "shares",
          "type": "uint256"
        },
        {
          "internalType": "address",
          "name": "receiver",
          "type": "address"
        }
      ],
      "name": "mint",
      "outputs": [
        {
          "internalType": "uint256",
          "name": "",
          "type": "uint256"
        }
      ],
      "stateMutability": "nonpayable",
      "type": "function"
    },
    {
      "inputs": [],
      "name": "name",
      "outputs": [
        {
          "internalType": "string",
          "name": "",
          "type": "string"
        }
      ],
      "stateMutability": "view",
      "type": "function"
    },
    {
      "inputs": [
        {
          "internalType": "uint256",
          "name": "assets",
          "type": "uint256"
        }
      ],
      "name": "previewDeposit",
      "outputs": [
        {
          "internalType": "uint256",
          "name": "",
          "type": "uint256"
        }
      ],
      "stateMutability": "view",
      "type": "function"
    },
    {
      "inputs": [
        {
          "internalType": "uint256",
          "name": "shares",
          "type": "uint256"
        }
      ],
      "name": "previewMint",
      "outputs": [
        {
          "internalType": "uint256",
          "name": "",
          "type": "uint256"
        }
      ],
      "stateMutability": "view",
      "type": "function"
    },
    {
      "inputs": [
        {
          "internalType": "uint256",
          "name": "shares",
          "type": "uint256"
        }
      ],
      "name": "previewRedeem",
      "outputs": [
        {
          "internalType": "uint256",
          "name": "",
          "type": "uint256"
        }
      ],
      "stateMutability": "view",
      "type": "function"
    },
    {
      "inputs": [
        {
          "internalType": "uint256",
          "name": "assets",
          "type": "uint256"
        }
      ],
      "name": "previewWithdraw",
      "outputs": [
        {
          "internalType": "uint256",
          "name": "",
          "type": "uint256"
        }
      ],
      "stateMutability": "view",
      "type": "function"
    },
    {
      "inputs": [
        {
          "internalType": "uint256",
          "name": "shares",
          "type": "uint256"
        },
        {
          "internalType": "address",
          "name": "receiver",
          "type": "address"
        },
        {
          "internalType": "address",
          "name": "owner",
          "type": "address"
        }
      ],
      "name": "redeem",
      "outputs": [
        {
          "internalType": "uint256",
          "name": "",
          "type": "uint256"
        }
      ],
      "stateMutability": "nonpayable",
      "type": "function"
    },
    {
      "inputs": [],
      "name": "symbol",
      "outputs": [
        {
          "internalType": "string",
          "name": "",
          "type": "string"
        }
      ],
      "stateMutability": "view",
      "type": "function"
    },
    {
      "inputs": [],
      "name": "totalAssets",
      "outputs": [
        {
          "internalType": "uint256",
          "name": "",
          "type": "uint256"
        }
      ],
      "stateMutability": "view",
      "type": "function"
    },
    {
      "inputs": [],
      "name": "totalSupply",
      "outputs": [
        {
          "internalType": "uint256",
          "name": "",
          "type": "uint256"
        }
      ],
      "stateMutability": "view",
      "type": "function"
    },
    {
      "inputs": [
        {
          "internalType": "address",
          "name": "to",
          "type": "address"
        },
        {
          "internalType": "uint256",
          "name": "value",
          "type": "uint256"
        }
      ],
      "name": "transfer",
      "outputs": [
        {
          "internalType": "bool",
          "name": "",
          "type": "bool"
        }
      ],
      "stateMutability": "nonpayable",
      "type": "function"
    },
    {
      "inputs": [
        {
          "internalType": "address",
          "name": "from",
          "type": "address"
        },
        {
          "internalType": "address",
          "name": "to",
          "type": "address"
        },
        {
          "internalType": "uint256",
          "name": "value",
          "type": "uint256"
        }
      ],
      "name": "transferFrom",
      "outputs": [
        {
          "internalType": "bool",
          "name": "",
          "type": "bool"
        }
      ],
      "stateMutability": "nonpayable",
      "type": "function"
    },
    {
      "inputs": [
        {
          "internalType": "uint256",
          "name": "assets",
          "type": "uint256"
        },
        {
          "internalType": "address",
          "name": "receiver",
          "type": "address"
        },
        {
          "internalType": "address",
          "name": "owner",
          "type": "address"
        }
      ],
      "name": "withdraw",
      "outputs": [
        {
          "internalType": "uint256",
          "name": "",
          "type": "uint256"
        }
      ],
      "stateMutability": "nonpayable",
      "type": "function"
    },
    {
      "stateMutability": "payable",
      "type": "receive"
    }
  ],
  "bytecode": "0x61014060405260405162001fcc38038062001fcc83398101604081905262000027916200026b565b83838383888b8b60036200003c8382620003ad565b5060046200004b8282620003ad565b5050505f806200006183620000ae60201b60201c565b91509150816200007357601262000075565b805b60ff1660a05250506001600160a01b0390811660805260c09490945291831660e05261010052166101205250620004ae95505050505050565b60408051600481526024810182526020810180516001600160e01b031663313ce56760e01b17905290515f918291829182916001600160a01b03871691620000f69162000479565b5f60405180830381855afa9150503d805f811462000130576040519150601f19603f3d011682016040523d82523d5f602084013e62000135565b606091505b50915091508180156200014a57506020815110155b1562000181575f8180602001905181019062000167919062000496565b905060ff81116200017f576001969095509350505050565b505b505f9485945092505050565b634e487b7160e01b5f52604160045260245ffd5b5f5b83811015620001bd578181015183820152602001620001a3565b50505f910152565b5f82601f830112620001d5575f80fd5b81516001600160401b0380821115620001f257620001f26200018d565b604051601f8301601f19908116603f011681019082821181831017156200021d576200021d6200018d565b8160405283815286602085880101111562000236575f80fd5b62000249846020830160208901620001a1565b9695505050505050565b6001600160a01b038116811462000268575f80fd5b50565b5f805f805f805f60e0888a03121562000282575f80fd5b87516001600160401b038082111562000299575f80fd5b620002a78b838c01620001c5565b985060208a0151915080821115620002bd575f80fd5b50620002cc8a828b01620001c5565b9650506040880151620002df8162000253565b606089015160808a01519196509450620002f98162000253565b60a089015160c08a01519194509250620003138162000253565b8091505092959891949750929550565b600181811c908216806200033857607f821691505b6020821081036200035757634e487b7160e01b5f52602260045260245ffd5b50919050565b601f821115620003a857805f5260205f20601f840160051c81016020851015620003845750805b601f840160051c820191505b81811015620003a5575f815560010162000390565b50505b505050565b81516001600160401b03811115620003c957620003c96200018d565b620003e181620003da845462000323565b846200035d565b602080601f83116001811462000417575f8415620003ff5750858301515b5f19600386901b1c1916600185901b17855562000471565b5f85815260208120601f198616915b82811015620004475788860151825594840194600190910190840162000426565b50858210156200046557878501515f19600388901b60f8161c191681555b505060018460011b0185555b505050505050565b5f82516200048c818460208701620001a1565b9190910192915050565b5f60208284031215620004a7575f80fd5b5051919050565b60805160a05160c05160e0516101005161012051611a7b620005515f395f8181610381015261110701525f818161033b015281816109aa01528181610a9901526110df01525f81816106b7015261105c01525f81816107c801528181610b9301528181610cd9015261103401525f610a1301525f81816104780152818161085e015281816110a9015281816111550152818161126c015261137d0152611a7b5ff3fe60806040526004361061026d575f3560e01c8063861e3d3d1161014a578063c63d75b6116100be578063dd62ed3e11610078578063dd62ed3e14610776578063defb56b0146107ba578063e047838d146107ec578063ef4f78d11461080b578063ef8b30f71461081d578063efb43b071461083c575f80fd5b8063c63d75b61461049c578063c6e6f592146106db578063ca10eca0146106fa578063cc461d6214610719578063ce96cb7714610738578063d905777e14610757575f80fd5b8063a9059cbb1161010f578063a9059cbb1461060e578063b2331d7d1461062d578063b3d7f6b91461064c578063b460af941461066b578063ba0876521461068a578063c12bf638146106a9575f80fd5b8063861e3d3d1461057e5780638b4e914a1461059d57806394bf804d146105bc57806395d89b41146105db5780639c0b90c7146105ef575f80fd5b806332bc74aa116101e15780634cdad506116101a65780634cdad506146104bc57806367354a84146104db5780636855a178146104ed5780636e553f651461050c57806370a082311461052b57806383b955791461055f575f80fd5b806332bc74aa1461041057806332cadf3c14610431578063342db7391461044557806338d52e0f1461046a578063402d267d1461049c575f80fd5b806316dcaea51161023257806316dcaea51461032d57806318160ddd1461035f5780631d21494d1461037357806323b872dd146103b95780632904df29146103d8578063313ce567146103ea575f80fd5b806301e1d1141461027857806306fdde031461029f57806307a2d13a146102c0578063095ea7b3146102df5780630a28a4771461030e575f80fd5b3661027457005b5f80fd5b348015610283575f80fd5b5061028c61085b565b6040519081526020015b60405180910390f35b3480156102aa575f80fd5b506102b36108ea565b60405161029691906115e5565b3480156102cb575f80fd5b5061028c6102da3660046115f7565b61097a565b3480156102ea575f80fd5b506102fe6102f9366004611629565b61098b565b6040519015158152602001610296565b348015610319575f80fd5b5061028c6103283660046115f7565b6109a2565b348015610338575f80fd5b507f000000000000000000000000000000000000000000000000000000000000000061028c565b34801561036a575f80fd5b5060025461028c565b34801561037e575f80fd5b507f00000000000000000000000000000000000000000000000000000000000000005b6040516001600160a01b039091168152602001610296565b3480156103c4575f80fd5b506102fe6103d3366004611651565b6109e9565b3480156103e3575f80fd5b50336103a1565b3480156103f5575f80fd5b506103fe610a0c565b60405160ff9091168152602001610296565b34801561041b575f80fd5b5061042f61042a36600461168a565b610a37565b005b34801561043c575f80fd5b506102b3610a49565b348015610450575f80fd5b5061028c6e1a185c991a185d0b595e1c1bdcd959608a1b81565b348015610475575f80fd5b507f00000000000000000000000000000000000000000000000000000000000000006103a1565b3480156104a7575f80fd5b5061028c6104b63660046116da565b505f1990565b3480156104c7575f80fd5b5061028c6104d63660046115f7565b610a86565b3480156104e6575f80fd5b505f61028c565b3480156104f8575f80fd5b5061042f610507366004611651565b610ac7565b348015610517575f80fd5b5061028c6105263660046116f3565b610ad7565b348015610536575f80fd5b5061028c6105453660046116da565b6001600160a01b03165f9081526020819052604090205490565b34801561056a575f80fd5b5061042f61057936600461171d565b610b08565b348015610589575f80fd5b5061042f610598366004611651565b610b1c565b3480156105a8575f80fd5b5061028c6105b736600461176e565b610b27565b3480156105c7575f80fd5b5061028c6105d63660046116f3565b610b32565b3480156105e6575f80fd5b506102b3610b4d565b3480156105fa575f80fd5b5061042f61060936600461179f565b610b5c565b348015610619575f80fd5b506102fe610628366004611629565b610b68565b348015610638575f80fd5b5061042f610647366004611651565b610b75565b348015610657575f80fd5b5061028c6106663660046115f7565b610b80565b348015610676575f80fd5b5061028c6106853660046117de565b610bc1565b348015610695575f80fd5b5061028c6106a43660046117de565b610c17565b3480156106b4575f80fd5b507f00000000000000000000000000000000000000000000000000000000000000006103a1565b3480156106e6575f80fd5b5061028c6106f53660046115f7565b610c64565b348015610705575f80fd5b5061028c61071436600461176e565b610c6f565b348015610724575f80fd5b5061042f610733366004611629565b610c7a565b348015610743575f80fd5b5061028c6107523660046116da565b610c88565b348015610762575f80fd5b5061028c6107713660046116da565b610caa565b348015610781575f80fd5b5061028c610790366004611817565b6001600160a01b039182165f90815260016020908152604080832093909416825291909152205490565b3480156107c5575f80fd5b507f000000000000000000000000000000000000000000000000000000000000000061028c565b3480156107f7575f80fd5b5061042f610806366004611629565b610cc7565b348015610816575f80fd5b505f6103fe565b348015610828575f80fd5b5061028c6108373660046115f7565b610cd1565b348015610847575f80fd5b5061042f610856366004611651565b610d0c565b5f7f00000000000000000000000000000000000000000000000000000000000000006040516370a0823160e01b81523060048201526001600160a01b0391909116906370a0823190602401602060405180830381865afa1580156108c1573d5f803e3d5ffd5b505050506040513d601f19601f820116820180604052508101906108e5919061183f565b905090565b6060600380546108f990611856565b80601f016020809104026020016040519081016040528092919081815260200182805461092590611856565b80156109705780601f1061094757610100808354040283529160200191610970565b820191905f5260205f20905b81548152906001019060200180831161095357829003601f168201915b5050505050905090565b5f610985825f610d17565b92915050565b5f33610998818585610d4f565b5060019392505050565b5f806109ce837f0000000000000000000000000000000000000000000000000000000000000000610d5c565b90506109e26109dd82856118a2565b610d6c565b9392505050565b5f336109f6858285610d78565b610a01858585610ddb565b506001949350505050565b5f6108e5817f00000000000000000000000000000000000000000000000000000000000000006118b5565b610a4384848484610e2d565b50505050565b60605f368080601f0160208091040260200160405190810160405280939291908181526020018383808284375f9201919091525092949350505050565b5f80610a918361097a565b9050610abd817f0000000000000000000000000000000000000000000000000000000000000000610eff565b6109e290826118ce565b610ad2838383610f1a565b505050565b5f5f19610ae8565b60405180910390fd5b5f610af285610cd1565b9050610b003385878461102d565b949350505050565b610b1585858585856110d8565b5050505050565b610ad2838383610d4f565b5f6109e28383611182565b5f5f195f610b3f85610b80565b9050610b003385838861102d565b6060600480546108f990611856565b610a438484848461102d565b5f33610998818585610ddb565b610ad2838383610d78565b5f80610b8b836111b1565b9050610bb7817f0000000000000000000000000000000000000000000000000000000000000000610d5c565b6109e290826118a2565b5f80610bcc83610c88565b905080851115610bf557828582604051633fa733bb60e21b8152600401610adf939291906118e1565b5f610bff866109a2565b9050610c0e33868689856110d8565b95945050505050565b5f80610c2283610caa565b905080851115610c4b57828582604051632e52afbb60e21b8152600401610adf939291906118e1565b5f610c5586610a86565b9050610c0e338686848a6110d8565b5f610985825f611182565b5f6109e28383610d17565b610c8482826111bd565b5050565b6001600160a01b0381165f90815260208190526040812054610985905f610d17565b6001600160a01b0381165f90815260208190526040812054610985565b610c8482826111f1565b5f80610cfd837f0000000000000000000000000000000000000000000000000000000000000000610eff565b90506109e26106f582856118ce565b610ad2838383610ddb565b5f6109e2610d2361085b565b610d2e9060016118a2565b610d395f600a6119e2565b600254610d4691906118a2565b85919085611225565b610ad28383836001610e2d565b5f6109e283836127106001611225565b5f610985826001611182565b6001600160a01b038381165f908152600160209081526040808320938616835292905220545f19811015610a435781811015610dcd57828183604051637dc7a0d960e11b8152600401610adf939291906118e1565b610a4384848484035f610e2d565b6001600160a01b038316610e0457604051634b637e8f60e11b81525f6004820152602401610adf565b6001600160a01b038216610ac75760405163ec442f0560e01b81525f6004820152602401610adf565b6001600160a01b038416610e565760405163e602df0560e01b81525f6004820152602401610adf565b6001600160a01b038316610e7f57604051634a1406b160e11b81525f6004820152602401610adf565b6001600160a01b038085165f9081526001602090815260408083209387168352929052208290558015610a4357826001600160a01b0316846001600160a01b03167f8c5be1e5ebec7d5bd14f71427d1e84f3dd0314c0f7b2291e5b200ac8c7c3b92584604051610ef191815260200190565b60405180910390a350505050565b5f6109e282610f10612710826118a2565b8591906001611225565b6001600160a01b038316610f44578060025f828254610f3991906118a2565b90915550610fa19050565b6001600160a01b0383165f9081526020819052604090205481811015610f835783818360405163391434e360e21b8152600401610adf939291906118e1565b6001600160a01b0384165f9081526020819052604090209082900390555b6001600160a01b038216610fbd57600280548290039055610fdb565b6001600160a01b0382165f9081526020819052604090208054820190555b816001600160a01b0316836001600160a01b03167fddf252ad1be2c89b69c2b068fc378daa952ba7f163c4a11628f55a4df523b3ef8360405161102091815260200190565b60405180910390a3505050565b5f611058837f0000000000000000000000000000000000000000000000000000000000000000610eff565b90507f000000000000000000000000000000000000000000000000000000000000000061108786868686611267565b5f8211801561109f57506001600160a01b0381163014155b156110d0576110d07f00000000000000000000000000000000000000000000000000000000000000005b82846112eb565b505050505050565b5f611103837f0000000000000000000000000000000000000000000000000000000000000000610d5c565b90507f0000000000000000000000000000000000000000000000000000000000000000611133878787878761134a565b5f8211801561114b57506001600160a01b0381163014155b15611179576111797f00000000000000000000000000000000000000000000000000000000000000006110c9565b50505050505050565b5f6109e261119182600a6119e2565b60025461119e91906118a2565b6111a661085b565b610d469060016118a2565b5f610985826001610d17565b6001600160a01b0382166111e65760405163ec442f0560e01b81525f6004820152602401610adf565b610c845f8383610f1a565b6001600160a01b03821661121a57604051634b637e8f60e11b81525f6004820152602401610adf565b610c84825f83610f1a565b5f6112526112328361140a565b801561124d57505f8480611248576112486119f0565b868809115b151590565b61125d868686611436565b610c0e91906118a2565b6112937f00000000000000000000000000000000000000000000000000000000000000008530856114ec565b61129d83826111bd565b826001600160a01b0316846001600160a01b03167fdcbc1c05240f31ff3ad067ef1ee35ce4997762752e3a095284754544f4c709d78484604051610ef1929190918252602082015260400190565b6040516001600160a01b03838116602483015260448201839052610ad291859182169063a9059cbb906064015b604051602081830303815290604052915060e01b6020820180516001600160e01b038381831617835250505050611525565b826001600160a01b0316856001600160a01b03161461136e5761136e838683610d78565b61137883826111f1565b6113a37f000000000000000000000000000000000000000000000000000000000000000085846112eb565b826001600160a01b0316846001600160a01b0316866001600160a01b03167ffbde797d201c681b91056529119e0b02407c7bb96a4a2c75c01fc9667232c8db85856040516113fb929190918252602082015260400190565b60405180910390a45050505050565b5f600282600381111561141f5761141f611a04565b6114299190611a18565b60ff166001149050919050565b5f838302815f1985870982811083820303915050805f0361146a57838281611460576114606119f0565b04925050506109e2565b808411611481576114816003851502601118611591565b5f848688095f868103871696879004966002600389028118808a02820302808a02820302808a02820302808a02820302808a02820302808a02909103029181900381900460010186841190950394909402919094039290920491909117919091029150509392505050565b6040516001600160a01b038481166024830152838116604483015260648201839052610a439186918216906323b872dd90608401611318565b5f8060205f8451602086015f885af180611544576040513d5f823e3d81fd5b50505f513d9150811561155b578060011415611568565b6001600160a01b0384163b155b15610a4357604051635274afe760e01b81526001600160a01b0385166004820152602401610adf565b634e487b715f52806020526024601cfd5b5f81518084525f5b818110156115c6576020818501810151868301820152016115aa565b505f602082860101526020601f19601f83011685010191505092915050565b602081525f6109e260208301846115a2565b5f60208284031215611607575f80fd5b5035919050565b80356001600160a01b0381168114611624575f80fd5b919050565b5f806040838503121561163a575f80fd5b6116438361160e565b946020939093013593505050565b5f805f60608486031215611663575f80fd5b61166c8461160e565b925061167a6020850161160e565b9150604084013590509250925092565b5f805f806080858703121561169d575f80fd5b6116a68561160e565b93506116b46020860161160e565b925060408501359150606085013580151581146116cf575f80fd5b939692955090935050565b5f602082840312156116ea575f80fd5b6109e28261160e565b5f8060408385031215611704575f80fd5b823591506117146020840161160e565b90509250929050565b5f805f805f60a08688031215611731575f80fd5b61173a8661160e565b94506117486020870161160e565b93506117566040870161160e565b94979396509394606081013594506080013592915050565b5f806040838503121561177f575f80fd5b82359150602083013560048110611794575f80fd5b809150509250929050565b5f805f80608085870312156117b2575f80fd5b6117bb8561160e565b93506117c96020860161160e565b93969395505050506040820135916060013590565b5f805f606084860312156117f0575f80fd5b833592506118006020850161160e565b915061180e6040850161160e565b90509250925092565b5f8060408385031215611828575f80fd5b6118318361160e565b91506117146020840161160e565b5f6020828403121561184f575f80fd5b5051919050565b600181811c9082168061186a57607f821691505b60208210810361188857634e487b7160e01b5f52602260045260245ffd5b50919050565b634e487b7160e01b5f52601160045260245ffd5b808201808211156109855761098561188e565b60ff81811683821601908111156109855761098561188e565b818103818111156109855761098561188e565b6001600160a01b039390931683526020830191909152604082015260600190565b600181815b8085111561193c57815f19048211156119225761192261188e565b8085161561192f57918102915b93841c9390800290611907565b509250929050565b5f8261195257506001610985565b8161195e57505f610985565b8160018114611974576002811461197e5761199a565b6001915050610985565b60ff84111561198f5761198f61188e565b50506001821b610985565b5060208310610133831016604e8410600b84101617156119bd575081810a610985565b6119c78383611902565b805f19048211156119da576119da61188e565b029392505050565b5f6109e260ff841683611944565b634e487b7160e01b5f52601260045260245ffd5b634e487b7160e01b5f52602160045260245ffd5b5f60ff831680611a3657634e487b7160e01b5f52601260045260245ffd5b8060ff8416069150509291505056fea264697066735822122076ba870e0b2102aaac80da54e96dcf97d1992ce1e22545a4cab1363595350cbd64736f6c63430008180033",
  "linkReferences": {},
  "deployedLinkReferences": {}
}