{
  "_format": "hh-sol-artifact-1",
  "contractName": "$ERC721Enumerable",
  "sourceName": "contracts-exposed/token/ERC721/extensions/ERC721Enumerable.sol",
  "abi": [
    {
      "inputs": [
        {
          "internalType": "string",
          "name": "name_",
          "type": "string"
        },
        {
          "internalType": "string",
          "name": "symbol_",
          "type": "string"
        }
      ],
      "stateMutability": "payable",
      "type": "constructor"
    },
    {
      "inputs": [],
      "name": "ERC721EnumerableForbiddenBatchMint",
      "type": "error"
    },
    {
      "inputs": [
        {
          "internalType": "address",
          "name": "sender",
          "type": "address"
        },
        {
          "internalType": "uint256",
          "name": "tokenId",
          "type": "uint256"
        },
        {
          "internalType": "address",
          "name": "owner",
          "type": "address"
        }
      ],
      "name": "ERC721IncorrectOwner",
      "type": "error"
    },
    {
      "inputs": [
        {
          "internalType": "address",
          "name": "operator",
          "type": "address"
        },
        {
          "internalType": "uint256",
          "name": "tokenId",
          "type": "uint256"
        }
      ],
      "name": "ERC721InsufficientApproval",
      "type": "error"
    },
    {
      "inputs": [
        {
          "internalType": "address",
          "name": "approver",
          "type": "address"
        }
      ],
      "name": "ERC721InvalidApprover",
      "type": "error"
    },
    {
      "inputs": [
        {
          "internalType": "address",
          "name": "operator",
          "type": "address"
        }
      ],
      "name": "ERC721InvalidOperator",
      "type": "error"
    },
    {
      "inputs": [
        {
          "internalType": "address",
          "name": "owner",
          "type": "address"
        }
      ],
      "name": "ERC721InvalidOwner",
      "type": "error"
    },
    {
      "inputs": [
        {
          "internalType": "address",
          "name": "receiver",
          "type": "address"
        }
      ],
      "name": "ERC721InvalidReceiver",
      "type": "error"
    },
    {
      "inputs": [
        {
          "internalType": "address",
          "name": "sender",
          "type": "address"
        }
      ],
      "name": "ERC721InvalidSender",
      "type": "error"
    },
    {
      "inputs": [
        {
          "internalType": "uint256",
          "name": "tokenId",
          "type": "uint256"
        }
      ],
      "name": "ERC721NonexistentToken",
      "type": "error"
    },
    {
      "inputs": [
        {
          "internalType": "address",
          "name": "owner",
          "type": "address"
        },
        {
          "internalType": "uint256",
          "name": "index",
          "type": "uint256"
        }
      ],
      "name": "ERC721OutOfBoundsIndex",
      "type": "error"
    },
    {
      "anonymous": false,
      "inputs": [
        {
          "indexed": true,
          "internalType": "address",
          "name": "owner",
          "type": "address"
        },
        {
          "indexed": true,
          "internalType": "address",
          "name": "approved",
          "type": "address"
        },
        {
          "indexed": true,
          "internalType": "uint256",
          "name": "tokenId",
          "type": "uint256"
        }
      ],
      "name": "Approval",
      "type": "event"
    },
    {
      "anonymous": false,
      "inputs": [
        {
          "indexed": true,
          "internalType": "address",
          "name": "owner",
          "type": "address"
        },
        {
          "indexed": true,
          "internalType": "address",
          "name": "operator",
          "type": "address"
        },
        {
          "indexed": false,
          "internalType": "bool",
          "name": "approved",
          "type": "bool"
        }
      ],
      "name": "ApprovalForAll",
      "type": "event"
    },
    {
      "anonymous": false,
      "inputs": [
        {
          "indexed": true,
          "internalType": "address",
          "name": "from",
          "type": "address"
        },
        {
          "indexed": true,
          "internalType": "address",
          "name": "to",
          "type": "address"
        },
        {
          "indexed": true,
          "internalType": "uint256",
          "name": "tokenId",
          "type": "uint256"
        }
      ],
      "name": "Transfer",
      "type": "event"
    },
    {
      "anonymous": false,
      "inputs": [
        {
          "indexed": false,
          "internalType": "address",
          "name": "ret0",
          "type": "address"
        }
      ],
      "name": "return$_update",
      "type": "event"
    },
    {
      "inputs": [
        {
          "internalType": "address",
          "name": "to",
          "type": "address"
        },
        {
          "internalType": "uint256",
          "name": "tokenId",
          "type": "uint256"
        },
        {
          "internalType": "address",
          "name": "auth",
          "type": "address"
        },
        {
          "internalType": "bool",
          "name": "emitEvent",
          "type": "bool"
        }
      ],
      "name": "$_approve",
      "outputs": [],
      "stateMutability": "nonpayable",
      "type": "function"
    },
    {
      "inputs": [
        {
          "internalType": "address",
          "name": "to",
          "type": "address"
        },
        {
          "internalType": "uint256",
          "name": "tokenId",
          "type": "uint256"
        },
        {
          "internalType": "address",
          "name": "auth",
          "type": "address"
        }
      ],
      "name": "$_approve",
      "outputs": [],
      "stateMutability": "nonpayable",
      "type": "function"
    },
    {
      "inputs": [],
      "name": "$_baseURI",
      "outputs": [
        {
          "internalType": "string",
          "name": "ret0",
          "type": "string"
        }
      ],
      "stateMutability": "view",
      "type": "function"
    },
    {
      "inputs": [
        {
          "internalType": "uint256",
          "name": "tokenId",
          "type": "uint256"
        }
      ],
      "name": "$_burn",
      "outputs": [],
      "stateMutability": "nonpayable",
      "type": "function"
    },
    {
      "inputs": [
        {
          "internalType": "address",
          "name": "owner",
          "type": "address"
        },
        {
          "internalType": "address",
          "name": "spender",
          "type": "address"
        },
        {
          "internalType": "uint256",
          "name": "tokenId",
          "type": "uint256"
        }
      ],
      "name": "$_checkAuthorized",
      "outputs": [],
      "stateMutability": "view",
      "type": "function"
    },
    {
      "inputs": [],
      "name": "$_contextSuffixLength",
      "outputs": [
        {
          "internalType": "uint256",
          "name": "ret0",
          "type": "uint256"
        }
      ],
      "stateMutability": "view",
      "type": "function"
    },
    {
      "inputs": [
        {
          "internalType": "uint256",
          "name": "tokenId",
          "type": "uint256"
        }
      ],
      "name": "$_getApproved",
      "outputs": [
        {
          "internalType": "address",
          "name": "ret0",
          "type": "address"
        }
      ],
      "stateMutability": "view",
      "type": "function"
    },
    {
      "inputs": [
        {
          "internalType": "address",
          "name": "account",
          "type": "address"
        },
        {
          "internalType": "uint128",
          "name": "amount",
          "type": "uint128"
        }
      ],
      "name": "$_increaseBalance",
      "outputs": [],
      "stateMutability": "nonpayable",
      "type": "function"
    },
    {
      "inputs": [
        {
          "internalType": "address",
          "name": "owner",
          "type": "address"
        },
        {
          "internalType": "address",
          "name": "spender",
          "type": "address"
        },
        {
          "internalType": "uint256",
          "name": "tokenId",
          "type": "uint256"
        }
      ],
      "name": "$_isAuthorized",
      "outputs": [
        {
          "internalType": "bool",
          "name": "ret0",
          "type": "bool"
        }
      ],
      "stateMutability": "view",
      "type": "function"
    },
    {
      "inputs": [
        {
          "internalType": "address",
          "name": "to",
          "type": "address"
        },
        {
          "internalType": "uint256",
          "name": "tokenId",
          "type": "uint256"
        }
      ],
      "name": "$_mint",
      "outputs": [],
      "stateMutability": "nonpayable",
      "type": "function"
    },
    {
      "inputs": [],
      "name": "$_msgData",
      "outputs": [
        {
          "internalType": "bytes",
          "name": "ret0",
          "type": "bytes"
        }
      ],
      "stateMutability": "view",
      "type": "function"
    },
    {
      "inputs": [],
      "name": "$_msgSender",
      "outputs": [
        {
          "internalType": "address",
          "name": "ret0",
          "type": "address"
        }
      ],
      "stateMutability": "view",
      "type": "function"
    },
    {
      "inputs": [
        {
          "internalType": "uint256",
          "name": "tokenId",
          "type": "uint256"
        }
      ],
      "name": "$_ownerOf",
      "outputs": [
        {
          "internalType": "address",
          "name": "ret0",
          "type": "address"
        }
      ],
      "stateMutability": "view",
      "type": "function"
    },
    {
      "inputs": [
        {
          "internalType": "uint256",
          "name": "tokenId",
          "type": "uint256"
        }
      ],
      "name": "$_requireOwned",
      "outputs": [
        {
          "internalType": "address",
          "name": "ret0",
          "type": "address"
        }
      ],
      "stateMutability": "view",
      "type": "function"
    },
    {
      "inputs": [
        {
          "internalType": "address",
          "name": "to",
          "type": "address"
        },
        {
          "internalType": "uint256",
          "name": "tokenId",
          "type": "uint256"
        },
        {
          "internalType": "bytes",
          "name": "data",
          "type": "bytes"
        }
      ],
      "name": "$_safeMint",
      "outputs": [],
      "stateMutability": "nonpayable",
      "type": "function"
    },
    {
      "inputs": [
        {
          "internalType": "address",
          "name": "to",
          "type": "address"
        },
        {
          "internalType": "uint256",
          "name": "tokenId",
          "type": "uint256"
        }
      ],
      "name": "$_safeMint",
      "outputs": [],
      "stateMutability": "nonpayable",
      "type": "function"
    },
    {
      "inputs": [
        {
          "internalType": "address",
          "name": "from",
          "type": "address"
        },
        {
          "internalType": "address",
          "name": "to",
          "type": "address"
        },
        {
          "internalType": "uint256",
          "name": "tokenId",
          "type": "uint256"
        },
        {
          "internalType": "bytes",
          "name": "data",
          "type": "bytes"
        }
      ],
      "name": "$_safeTransfer",
      "outputs": [],
      "stateMutability": "nonpayable",
      "type": "function"
    },
    {
      "inputs": [
        {
          "internalType": "address",
          "name": "from",
          "type": "address"
        },
        {
          "internalType": "address",
          "name": "to",
          "type": "address"
        },
        {
          "internalType": "uint256",
          "name": "tokenId",
          "type": "uint256"
        }
      ],
      "name": "$_safeTransfer",
      "outputs": [],
      "stateMutability": "nonpayable",
      "type": "function"
    },
    {
      "inputs": [
        {
          "internalType": "address",
          "name": "owner",
          "type": "address"
        },
        {
          "internalType": "address",
          "name": "operator",
          "type": "address"
        },
        {
          "internalType": "bool",
          "name": "approved",
          "type": "bool"
        }
      ],
      "name": "$_setApprovalForAll",
      "outputs": [],
      "stateMutability": "nonpayable",
      "type": "function"
    },
    {
      "inputs": [
        {
          "internalType": "address",
          "name": "from",
          "type": "address"
        },
        {
          "internalType": "address",
          "name": "to",
          "type": "address"
        },
        {
          "internalType": "uint256",
          "name": "tokenId",
          "type": "uint256"
        }
      ],
      "name": "$_transfer",
      "outputs": [],
      "stateMutability": "nonpayable",
      "type": "function"
    },
    {
      "inputs": [
        {
          "internalType": "address",
          "name": "to",
          "type": "address"
        },
        {
          "internalType": "uint256",
          "name": "tokenId",
          "type": "uint256"
        },
        {
          "internalType": "address",
          "name": "auth",
          "type": "address"
        }
      ],
      "name": "$_update",
      "outputs": [
        {
          "internalType": "address",
          "name": "ret0",
          "type": "address"
        }
      ],
      "stateMutability": "nonpayable",
      "type": "function"
    },
    {
      "inputs": [],
      "name": "__hh_exposed_bytecode_marker",
      "outputs": [
        {
          "internalType": "bytes32",
          "name": "",
          "type": "bytes32"
        }
      ],
      "stateMutability": "view",
      "type": "function"
    },
    {
      "inputs": [
        {
          "internalType": "address",
          "name": "to",
          "type": "address"
        },
        {
          "internalType": "uint256",
          "name": "tokenId",
          "type": "uint256"
        }
      ],
      "name": "approve",
      "outputs": [],
      "stateMutability": "nonpayable",
      "type": "function"
    },
    {
      "inputs": [
        {
          "internalType": "address",
          "name": "owner",
          "type": "address"
        }
      ],
      "name": "balanceOf",
      "outputs": [
        {
          "internalType": "uint256",
          "name": "",
          "type": "uint256"
        }
      ],
      "stateMutability": "view",
      "type": "function"
    },
    {
      "inputs": [
        {
          "internalType": "uint256",
          "name": "tokenId",
          "type": "uint256"
        }
      ],
      "name": "getApproved",
      "outputs": [
        {
          "internalType": "address",
          "name": "",
          "type": "address"
        }
      ],
      "stateMutability": "view",
      "type": "function"
    },
    {
      "inputs": [
        {
          "internalType": "address",
          "name": "owner",
          "type": "address"
        },
        {
          "internalType": "address",
          "name": "operator",
          "type": "address"
        }
      ],
      "name": "isApprovedForAll",
      "outputs": [
        {
          "internalType": "bool",
          "name": "",
          "type": "bool"
        }
      ],
      "stateMutability": "view",
      "type": "function"
    },
    {
      "inputs": [],
      "name": "name",
      "outputs": [
        {
          "internalType": "string",
          "name": "",
          "type": "string"
        }
      ],
      "stateMutability": "view",
      "type": "function"
    },
    {
      "inputs": [
        {
          "internalType": "uint256",
          "name": "tokenId",
          "type": "uint256"
        }
      ],
      "name": "ownerOf",
      "outputs": [
        {
          "internalType": "address",
          "name": "",
          "type": "address"
        }
      ],
      "stateMutability": "view",
      "type": "function"
    },
    {
      "inputs": [
        {
          "internalType": "address",
          "name": "from",
          "type": "address"
        },
        {
          "internalType": "address",
          "name": "to",
          "type": "address"
        },
        {
          "internalType": "uint256",
          "name": "tokenId",
          "type": "uint256"
        }
      ],
      "name": "safeTransferFrom",
      "outputs": [],
      "stateMutability": "nonpayable",
      "type": "function"
    },
    {
      "inputs": [
        {
          "internalType": "address",
          "name": "from",
          "type": "address"
        },
        {
          "internalType": "address",
          "name": "to",
          "type": "address"
        },
        {
          "internalType": "uint256",
          "name": "tokenId",
          "type": "uint256"
        },
        {
          "internalType": "bytes",
          "name": "data",
          "type": "bytes"
        }
      ],
      "name": "safeTransferFrom",
      "outputs": [],
      "stateMutability": "nonpayable",
      "type": "function"
    },
    {
      "inputs": [
        {
          "internalType": "address",
          "name": "operator",
          "type": "address"
        },
        {
          "internalType": "bool",
          "name": "approved",
          "type": "bool"
        }
      ],
      "name": "setApprovalForAll",
      "outputs": [],
      "stateMutability": "nonpayable",
      "type": "function"
    },
    {
      "inputs": [
        {
          "internalType": "bytes4",
          "name": "interfaceId",
          "type": "bytes4"
        }
      ],
      "name": "supportsInterface",
      "outputs": [
        {
          "internalType": "bool",
          "name": "",
          "type": "bool"
        }
      ],
      "stateMutability": "view",
      "type": "function"
    },
    {
      "inputs": [],
      "name": "symbol",
      "outputs": [
        {
          "internalType": "string",
          "name": "",
          "type": "string"
        }
      ],
      "stateMutability": "view",
      "type": "function"
    },
    {
      "inputs": [
        {
          "internalType": "uint256",
          "name": "index",
          "type": "uint256"
        }
      ],
      "name": "tokenByIndex",
      "outputs": [
        {
          "internalType": "uint256",
          "name": "",
          "type": "uint256"
        }
      ],
      "stateMutability": "view",
      "type": "function"
    },
    {
      "inputs": [
        {
          "internalType": "address",
          "name": "owner",
          "type": "address"
        },
        {
          "internalType": "uint256",
          "name": "index",
          "type": "uint256"
        }
      ],
      "name": "tokenOfOwnerByIndex",
      "outputs": [
        {
          "internalType": "uint256",
          "name": "",
          "type": "uint256"
        }
      ],
      "stateMutability": "view",
      "type": "function"
    },
    {
      "inputs": [
        {
          "internalType": "uint256",
          "name": "tokenId",
          "type": "uint256"
        }
      ],
      "name": "tokenURI",
      "outputs": [
        {
          "internalType": "string",
          "name": "",
          "type": "string"
        }
      ],
      "stateMutability": "view",
      "type": "function"
    },
    {
      "inputs": [],
      "name": "totalSupply",
      "outputs": [
        {
          "internalType": "uint256",
          "name": "",
          "type": "uint256"
        }
      ],
      "stateMutability": "view",
      "type": "function"
    },
    {
      "inputs": [
        {
          "internalType": "address",
          "name": "from",
          "type": "address"
        },
        {
          "internalType": "address",
          "name": "to",
          "type": "address"
        },
        {
          "internalType": "uint256",
          "name": "tokenId",
          "type": "uint256"
        }
      ],
      "name": "transferFrom",
      "outputs": [],
      "stateMutability": "nonpayable",
      "type": "function"
    },
    {
      "stateMutability": "payable",
      "type": "receive"
    }
  ],
  "bytecode": "0x608060405260405162001f4338038062001f43833981016040819052620000269162000110565b81815f62000035838262000200565b50600162000044828262000200565b5050505050620002cc565b634e487b7160e01b5f52604160045260245ffd5b5f82601f83011262000073575f80fd5b81516001600160401b03808211156200009057620000906200004f565b604051601f8301601f19908116603f01168101908282118183101715620000bb57620000bb6200004f565b8160405283815260209250866020858801011115620000d8575f80fd5b5f91505b83821015620000fb5785820183015181830184015290820190620000dc565b5f602085830101528094505050505092915050565b5f806040838503121562000122575f80fd5b82516001600160401b038082111562000139575f80fd5b620001478683870162000063565b935060208501519150808211156200015d575f80fd5b506200016c8582860162000063565b9150509250929050565b600181811c908216806200018b57607f821691505b602082108103620001aa57634e487b7160e01b5f52602260045260245ffd5b50919050565b601f821115620001fb57805f5260205f20601f840160051c81016020851015620001d75750805b601f840160051c820191505b81811015620001f8575f8155600101620001e3565b50505b505050565b81516001600160401b038111156200021c576200021c6200004f565b62000234816200022d845462000176565b84620001b0565b602080601f8311600181146200026a575f8415620002525750858301515b5f19600386901b1c1916600185901b178555620002c4565b5f85815260208120601f198616915b828110156200029a5788860151825594840194600190910190840162000279565b5085821015620002b857878501515f19600388901b60f8161c191681555b505060018460011b0185555b505050505050565b611c6980620002da5f395ff3fe608060405260043610610220575f3560e01c80636884d58b1161011e578063b88d4fde116100a8578063d261af541161006d578063d261af5414610606578063d848383414610625578063e3cb9a4a14610644578063e985e9c514610663578063efb43b0714610682575f80fd5b8063b88d4fde1461058a578063c67072011461044d578063c87b56dd146105a9578063cc461d62146105c8578063cfeea0d4146105e7575f80fd5b806390104b84116100ee57806390104b84146104fa57806395d89b41146105195780639ff2f02d1461052d578063a22cb4651461054c578063a2373a821461056b575f80fd5b80636884d58b1461047e57806370a082311461049d578063733555ec146104bc5780637a7be036146104db575f80fd5b80632f745c59116101aa57806342842e0e1161016f57806342842e0e146103f0578063458ee0021461040f5780634f6ccce71461042e5780636352211e1461044d57806367354a841461046c575f80fd5b80632f745c591461035a57806330f3b0b51461037957806332cadf3c14610398578063342db739146103ac5780633451b14d146103d1575f80fd5b8063113efe1a116101f0578063113efe1a146102d8578063161e977d146102f757806318160ddd1461030b57806323b872dd146103295780632904df2914610348575f80fd5b806301ffc9a71461022b57806306fdde031461025f578063081812fc14610280578063095ea7b3146102b7575f80fd5b3661022757005b5f80fd5b348015610236575f80fd5b5061024a6102453660046116b9565b6106a1565b60405190151581526020015b60405180910390f35b34801561026a575f80fd5b506102736106cb565b6040516102569190611721565b34801561028b575f80fd5b5061029f61029a366004611733565b61075a565b6040516001600160a01b039091168152602001610256565b3480156102c2575f80fd5b506102d66102d1366004611765565b610781565b005b3480156102e3575f80fd5b506102d66102f236600461178d565b610790565b348015610302575f80fd5b5061027361079a565b348015610316575f80fd5b506008545b604051908152602001610256565b348015610334575f80fd5b506102d66103433660046117cd565b6107b5565b348015610353575f80fd5b503361029f565b348015610365575f80fd5b5061031b610374366004611765565b610843565b348015610384575f80fd5b506102d6610393366004611815565b6108a6565b3480156103a3575f80fd5b506102736108b2565b3480156103b7575f80fd5b5061031b6e1a185c991a185d0b595e1c1bdcd959608a1b81565b3480156103dc575f80fd5b5061029f6103eb366004611733565b6108ef565b3480156103fb575f80fd5b506102d661040a3660046117cd565b61090b565b34801561041a575f80fd5b5061029f610429366004611733565b61092a565b348015610439575f80fd5b5061031b610448366004611733565b610946565b348015610458575f80fd5b5061029f610467366004611733565b61099b565b348015610477575f80fd5b505f61031b565b348015610489575f80fd5b506102d66104983660046117cd565b6109a5565b3480156104a8575f80fd5b5061031b6104b736600461185f565b6109b0565b3480156104c7575f80fd5b506102d66104d63660046118bd565b6109f5565b3480156104e6575f80fd5b5061024a6104f53660046117cd565b610a3d565b348015610505575f80fd5b506102d6610514366004611927565b610a51565b348015610524575f80fd5b50610273610a5c565b348015610538575f80fd5b506102d6610547366004611960565b610a6b565b348015610557575f80fd5b506102d66105663660046119b6565b610aab565b348015610576575f80fd5b506102d6610585366004611733565b610ab6565b348015610595575f80fd5b506102d66105a43660046119fb565b610ac2565b3480156105b4575f80fd5b506102736105c3366004611733565b610ada565b3480156105d3575f80fd5b506102d66105e2366004611765565b610b4b565b3480156105f2575f80fd5b506102d6610601366004611ad0565b610b55565b348015610611575f80fd5b506102d6610620366004611765565b610b60565b348015610630575f80fd5b506102d661063f3660046117cd565b610b6a565b34801561064f575f80fd5b5061029f61065e366004611927565b610b75565b34801561066e575f80fd5b5061024a61067d366004611b07565b610bc7565b34801561068d575f80fd5b506102d661069c3660046117cd565b610bf4565b5f6001600160e01b0319821663780e9d6360e01b14806106c557506106c582610bff565b92915050565b60605f80546106d990611b2f565b80601f016020809104026020016040519081016040528092919081815260200182805461070590611b2f565b80156107505780601f1061072757610100808354040283529160200191610750565b820191905f5260205f20905b81548152906001019060200180831161073357829003601f168201915b5050505050905090565b5f61076482610c4e565b505f828152600460205260409020546001600160a01b03166106c5565b61078c828233610c86565b5050565b61078c8282610c93565b60606107b060408051602081019091525f815290565b905090565b6001600160a01b0382166107e357604051633250574960e11b81525f60048201526024015b60405180910390fd5b5f6107ef838333610ce5565b9050836001600160a01b0316816001600160a01b03161461083d576040516364283d7b60e01b81526001600160a01b03808616600483015260248201849052821660448201526064016107da565b50505050565b5f61084d836109b0565b821061087e5760405163295f44f760e21b81526001600160a01b0384166004820152602481018390526044016107da565b506001600160a01b03919091165f908152600660209081526040808320938352929052205490565b61083d84848484610db0565b60605f368080601f0160208091040260200160405190810160405280939291908181526020018383808284375f9201919091525092949350505050565b5f818152600460205260408120546001600160a01b03166106c5565b61092583838360405180602001604052805f815250610ac2565b505050565b5f818152600260205260408120546001600160a01b03166106c5565b5f61095060085490565b82106109785760405163295f44f760e21b81525f6004820152602481018390526044016107da565b6008828154811061098b5761098b611b67565b905f5260205f2001549050919050565b5f6106c582610c4e565b610925838383610eb4565b5f6001600160a01b0382166109da576040516322718ad960e21b81525f60048201526024016107da565b506001600160a01b03165f9081526003602052604090205490565b610a3685858585858080601f0160208091040260200160405190810160405280939291908181526020018383808284375f92019190915250610f1892505050565b5050505050565b5f610a49848484610f23565b949350505050565b610925838383610c86565b6060600180546106d990611b2f565b61083d848484848080601f0160208091040260200160405190810160405280939291908181526020018383808284375f92019190915250610f8492505050565b61078c338383610f9b565b610abf81611039565b50565b610acd8484846107b5565b61083d3385858585611071565b6060610ae582610c4e565b505f610afb60408051602081019091525f815290565b90505f815111610b195760405180602001604052805f815250610b44565b80610b2384611198565b604051602001610b34929190611b7b565b6040516020818303038152906040525b9392505050565b61078c8282611228565b610925838383610f9b565b61078c8282611289565b6109258383836112a2565b5f610b81848484610ce5565b6040516001600160a01b03821681529091507ffc55619107f02333de2d9626fe994a6b9d0734bee4722e17698d6fa1b06c52009060200160405180910390a19392505050565b6001600160a01b039182165f90815260056020908152604080832093909416825291909152205460ff1690565b6109258383836112bc565b5f6001600160e01b031982166380ac58cd60e01b1480610c2f57506001600160e01b03198216635b5e139f60e01b145b806106c557506301ffc9a760e01b6001600160e01b03198316146106c5565b5f818152600260205260408120546001600160a01b0316806106c557604051637e27328960e01b8152600481018490526024016107da565b6109258383836001610db0565b6001600160801b03811615610cbb576040516359171fc160e01b815260040160405180910390fd5b6001600160a01b0382165f90815260036020526040902080546001600160801b0383160190555050565b5f80610cf2858585611369565b90506001600160a01b038116610d4e57610d4984600880545f838152600960205260408120829055600182018355919091527ff3f7a9fe364faab93b216da50a3214154f22a0a2b415b23a84c8169e8b636ee30155565b610d71565b846001600160a01b0316816001600160a01b031614610d7157610d71818561145b565b6001600160a01b038516610d8d57610d88846114d8565b610a49565b846001600160a01b0316816001600160a01b031614610a4957610a49858561157f565b8080610dc457506001600160a01b03821615155b15610e85575f610dd384610c4e565b90506001600160a01b03831615801590610dff5750826001600160a01b0316816001600160a01b031614155b8015610e125750610e108184610bc7565b155b15610e3b5760405163a9fbf51f60e01b81526001600160a01b03841660048201526024016107da565b8115610e835783856001600160a01b0316826001600160a01b03167f8c5be1e5ebec7d5bd14f71427d1e84f3dd0314c0f7b2291e5b200ac8c7c3b92560405160405180910390a45b505b50505f90815260046020526040902080546001600160a01b0319166001600160a01b0392909216919091179055565b610ebf838383610f23565b610925576001600160a01b038316610eed57604051637e27328960e01b8152600481018290526024016107da565b60405163177e802f60e01b81526001600160a01b0383166004820152602481018290526044016107da565b610acd8484846112bc565b5f6001600160a01b03831615801590610a495750826001600160a01b0316846001600160a01b03161480610f5c5750610f5c8484610bc7565b80610a495750505f908152600460205260409020546001600160a01b03908116911614919050565b610f8e8383611228565b610925335f858585611071565b6001600160a01b038216610fcd57604051630b61174360e31b81526001600160a01b03831660048201526024016107da565b6001600160a01b038381165f81815260056020908152604080832094871680845294825291829020805460ff191686151590811790915591519182527f17307eab39ab6107e8899845ad3d59bd9653f200f220920489ca2b5937696c31910160405180910390a3505050565b5f6110455f835f610ce5565b90506001600160a01b03811661078c57604051637e27328960e01b8152600481018390526024016107da565b6001600160a01b0383163b15610a3657604051630a85bd0160e11b81526001600160a01b0384169063150b7a02906110b3908890889087908790600401611ba9565b6020604051808303815f875af19250505080156110ed575060408051601f3d908101601f191682019092526110ea91810190611be5565b60015b611154573d80801561111a576040519150601f19603f3d011682016040523d82523d5f602084013e61111f565b606091505b5080515f0361114c57604051633250574960e11b81526001600160a01b03851660048201526024016107da565b805181602001fd5b6001600160e01b03198116630a85bd0160e11b1461119057604051633250574960e11b81526001600160a01b03851660048201526024016107da565b505050505050565b60605f6111a4836115cd565b60010190505f8167ffffffffffffffff8111156111c3576111c36119e7565b6040519080825280601f01601f1916602001820160405280156111ed576020820181803683370190505b5090508181016020015b5f19016f181899199a1a9b1b9c1cb0b131b232b360811b600a86061a8153600a85049450846111f757509392505050565b6001600160a01b03821661125157604051633250574960e11b81525f60048201526024016107da565b5f61125d83835f610ce5565b90506001600160a01b03811615610925576040516339e3563760e11b81525f60048201526024016107da565b61078c828260405180602001604052805f815250610f84565b61092583838360405180602001604052805f815250610f18565b6001600160a01b0382166112e557604051633250574960e11b81525f60048201526024016107da565b5f6112f183835f610ce5565b90506001600160a01b03811661131d57604051637e27328960e01b8152600481018390526024016107da565b836001600160a01b0316816001600160a01b03161461083d576040516364283d7b60e01b81526001600160a01b03808616600483015260248201849052821660448201526064016107da565b5f828152600260205260408120546001600160a01b039081169083161561139557611395818486610eb4565b6001600160a01b038116156113cf576113b05f855f80610db0565b6001600160a01b0381165f90815260036020526040902080545f190190555b6001600160a01b038516156113fd576001600160a01b0385165f908152600360205260409020805460010190555b5f8481526002602052604080822080546001600160a01b0319166001600160a01b0389811691821790925591518793918516917fddf252ad1be2c89b69c2b068fc378daa952ba7f163c4a11628f55a4df523b3ef91a4949350505050565b5f611465836109b0565b5f838152600760209081526040808320546001600160a01b03881684526006909252909120919250908183146114ba575f83815260208281526040808320548584528184208190558352600790915290208290555b5f938452600760209081526040808620869055938552525081205550565b6008545f906114e990600190611c00565b5f838152600960205260408120546008805493945090928490811061151057611510611b67565b905f5260205f2001549050806008838154811061152f5761152f611b67565b5f91825260208083209091019290925582815260099091526040808220849055858252812055600880548061156657611566611c1f565b600190038181905f5260205f20015f9055905550505050565b5f600161158b846109b0565b6115959190611c00565b6001600160a01b039093165f908152600660209081526040808320868452825280832085905593825260079052919091209190915550565b5f8072184f03e93ff9f4daa797ed6e38ed64bf6a1f0160401b831061160b5772184f03e93ff9f4daa797ed6e38ed64bf6a1f0160401b830492506040015b6d04ee2d6d415b85acef81000000008310611637576d04ee2d6d415b85acef8100000000830492506020015b662386f26fc10000831061165557662386f26fc10000830492506010015b6305f5e100831061166d576305f5e100830492506008015b612710831061168157612710830492506004015b60648310611693576064830492506002015b600a83106106c55760010192915050565b6001600160e01b031981168114610abf575f80fd5b5f602082840312156116c9575f80fd5b8135610b44816116a4565b5f5b838110156116ee5781810151838201526020016116d6565b50505f910152565b5f815180845261170d8160208601602086016116d4565b601f01601f19169290920160200192915050565b602081525f610b4460208301846116f6565b5f60208284031215611743575f80fd5b5035919050565b80356001600160a01b0381168114611760575f80fd5b919050565b5f8060408385031215611776575f80fd5b61177f8361174a565b946020939093013593505050565b5f806040838503121561179e575f80fd5b6117a78361174a565b915060208301356001600160801b03811681146117c2575f80fd5b809150509250929050565b5f805f606084860312156117df575f80fd5b6117e88461174a565b92506117f66020850161174a565b9150604084013590509250925092565b80358015158114611760575f80fd5b5f805f8060808587031215611828575f80fd5b6118318561174a565b9350602085013592506118466040860161174a565b915061185460608601611806565b905092959194509250565b5f6020828403121561186f575f80fd5b610b448261174a565b5f8083601f840112611888575f80fd5b50813567ffffffffffffffff81111561189f575f80fd5b6020830191508360208285010111156118b6575f80fd5b9250929050565b5f805f805f608086880312156118d1575f80fd5b6118da8661174a565b94506118e86020870161174a565b935060408601359250606086013567ffffffffffffffff81111561190a575f80fd5b61191688828901611878565b969995985093965092949392505050565b5f805f60608486031215611939575f80fd5b6119428461174a565b9250602084013591506119576040850161174a565b90509250925092565b5f805f8060608587031215611973575f80fd5b61197c8561174a565b935060208501359250604085013567ffffffffffffffff81111561199e575f80fd5b6119aa87828801611878565b95989497509550505050565b5f80604083850312156119c7575f80fd5b6119d08361174a565b91506119de60208401611806565b90509250929050565b634e487b7160e01b5f52604160045260245ffd5b5f805f8060808587031215611a0e575f80fd5b611a178561174a565b9350611a256020860161174a565b925060408501359150606085013567ffffffffffffffff80821115611a48575f80fd5b818701915087601f830112611a5b575f80fd5b813581811115611a6d57611a6d6119e7565b604051601f8201601f19908116603f01168101908382118183101715611a9557611a956119e7565b816040528281528a6020848701011115611aad575f80fd5b826020860160208301375f60208483010152809550505050505092959194509250565b5f805f60608486031215611ae2575f80fd5b611aeb8461174a565b9250611af96020850161174a565b915061195760408501611806565b5f8060408385031215611b18575f80fd5b611b218361174a565b91506119de6020840161174a565b600181811c90821680611b4357607f821691505b602082108103611b6157634e487b7160e01b5f52602260045260245ffd5b50919050565b634e487b7160e01b5f52603260045260245ffd5b5f8351611b8c8184602088016116d4565b835190830190611ba08183602088016116d4565b01949350505050565b6001600160a01b03858116825284166020820152604081018390526080606082018190525f90611bdb908301846116f6565b9695505050505050565b5f60208284031215611bf5575f80fd5b8151610b44816116a4565b818103818111156106c557634e487b7160e01b5f52601160045260245ffd5b634e487b7160e01b5f52603160045260245ffdfea2646970667358221220e54e323a2de4f2506cf9d849dcecf3df925f198862c9ca806ae94dcd72de0c0764736f6c63430008180033",
  "linkReferences": {},
  "deployedLinkReferences": {}
}