{
  "_format": "hh-sol-artifact-1",
  "contractName": "$ERC165",
  "sourceName": "contracts-exposed/utils/introspection/ERC165.sol",
  "abi": [
    {
      "inputs": [],
      "stateMutability": "payable",
      "type": "constructor"
    },
    {
      "inputs": [],
      "name": "__hh_exposed_bytecode_marker",
      "outputs": [
        {
          "internalType": "bytes32",
          "name": "",
          "type": "bytes32"
        }
      ],
      "stateMutability": "view",
      "type": "function"
    },
    {
      "inputs": [
        {
          "internalType": "bytes4",
          "name": "interfaceId",
          "type": "bytes4"
        }
      ],
      "name": "supportsInterface",
      "outputs": [
        {
          "internalType": "bool",
          "name": "",
          "type": "bool"
        }
      ],
      "stateMutability": "view",
      "type": "function"
    },
    {
      "stateMutability": "payable",
      "type": "receive"
    }
  ],
  "bytecode": "0x6080604052610105806100115f395ff3fe6080604052600436106028575f3560e01c806301ffc9a7146032578063342db739146073575f80fd5b36602e57005b5f80fd5b348015603c575f80fd5b50605e604836600460a3565b6001600160e01b0319166301ffc9a760e01b1490565b60405190151581526020015b60405180910390f35b348015607d575f80fd5b5060966e1a185c991a185d0b595e1c1bdcd959608a1b81565b604051908152602001606a565b5f6020828403121560b2575f80fd5b81356001600160e01b03198116811460c8575f80fd5b939250505056fea26469706673582212204d862736250470bebfe961d68df340423ffe1f8412cb55f3c12729c6f6da783e64736f6c63430008180033",
  "linkReferences": {},
  "deployedLinkReferences": {}
}