{
  "_format": "hh-sol-artifact-1",
  "contractName": "$ERC721Votes",
  "sourceName": "contracts-exposed/token/ERC721/extensions/ERC721Votes.sol",
  "abi": [
    {
      "inputs": [
        {
          "internalType": "string",
          "name": "name_",
          "type": "string"
        },
        {
          "internalType": "string",
          "name": "symbol_",
          "type": "string"
        },
        {
          "internalType": "string",
          "name": "name",
          "type": "string"
        },
        {
          "internalType": "string",
          "name": "version",
          "type": "string"
        }
      ],
      "stateMutability": "payable",
      "type": "constructor"
    },
    {
      "inputs": [],
      "name": "CheckpointUnorderedInsertion",
      "type": "error"
    },
    {
      "inputs": [],
      "name": "ECDSAInvalidSignature",
      "type": "error"
    },
    {
      "inputs": [
        {
          "internalType": "uint256",
          "name": "length",
          "type": "uint256"
        }
      ],
      "name": "ECDSAInvalidSignatureLength",
      "type": "error"
    },
    {
      "inputs": [
        {
          "internalType": "bytes32",
          "name": "s",
          "type": "bytes32"
        }
      ],
      "name": "ECDSAInvalidSignatureS",
      "type": "error"
    },
    {
      "inputs": [
        {
          "internalType": "uint256",
          "name": "timepoint",
          "type": "uint256"
        },
        {
          "internalType": "uint48",
          "name": "clock",
          "type": "uint48"
        }
      ],
      "name": "ERC5805FutureLookup",
      "type": "error"
    },
    {
      "inputs": [],
      "name": "ERC6372InconsistentClock",
      "type": "error"
    },
    {
      "inputs": [
        {
          "internalType": "address",
          "name": "sender",
          "type": "address"
        },
        {
          "internalType": "uint256",
          "name": "tokenId",
          "type": "uint256"
        },
        {
          "internalType": "address",
          "name": "owner",
          "type": "address"
        }
      ],
      "name": "ERC721IncorrectOwner",
      "type": "error"
    },
    {
      "inputs": [
        {
          "internalType": "address",
          "name": "operator",
          "type": "address"
        },
        {
          "internalType": "uint256",
          "name": "tokenId",
          "type": "uint256"
        }
      ],
      "name": "ERC721InsufficientApproval",
      "type": "error"
    },
    {
      "inputs": [
        {
          "internalType": "address",
          "name": "approver",
          "type": "address"
        }
      ],
      "name": "ERC721InvalidApprover",
      "type": "error"
    },
    {
      "inputs": [
        {
          "internalType": "address",
          "name": "operator",
          "type": "address"
        }
      ],
      "name": "ERC721InvalidOperator",
      "type": "error"
    },
    {
      "inputs": [
        {
          "internalType": "address",
          "name": "owner",
          "type": "address"
        }
      ],
      "name": "ERC721InvalidOwner",
      "type": "error"
    },
    {
      "inputs": [
        {
          "internalType": "address",
          "name": "receiver",
          "type": "address"
        }
      ],
      "name": "ERC721InvalidReceiver",
      "type": "error"
    },
    {
      "inputs": [
        {
          "internalType": "address",
          "name": "sender",
          "type": "address"
        }
      ],
      "name": "ERC721InvalidSender",
      "type": "error"
    },
    {
      "inputs": [
        {
          "internalType": "uint256",
          "name": "tokenId",
          "type": "uint256"
        }
      ],
      "name": "ERC721NonexistentToken",
      "type": "error"
    },
    {
      "inputs": [
        {
          "internalType": "address",
          "name": "account",
          "type": "address"
        },
        {
          "internalType": "uint256",
          "name": "currentNonce",
          "type": "uint256"
        }
      ],
      "name": "InvalidAccountNonce",
      "type": "error"
    },
    {
      "inputs": [],
      "name": "InvalidShortString",
      "type": "error"
    },
    {
      "inputs": [
        {
          "internalType": "uint8",
          "name": "bits",
          "type": "uint8"
        },
        {
          "internalType": "uint256",
          "name": "value",
          "type": "uint256"
        }
      ],
      "name": "SafeCastOverflowedUintDowncast",
      "type": "error"
    },
    {
      "inputs": [
        {
          "internalType": "string",
          "name": "str",
          "type": "string"
        }
      ],
      "name": "StringTooLong",
      "type": "error"
    },
    {
      "inputs": [
        {
          "internalType": "uint256",
          "name": "expiry",
          "type": "uint256"
        }
      ],
      "name": "VotesExpiredSignature",
      "type": "error"
    },
    {
      "anonymous": false,
      "inputs": [
        {
          "indexed": true,
          "internalType": "address",
          "name": "owner",
          "type": "address"
        },
        {
          "indexed": true,
          "internalType": "address",
          "name": "approved",
          "type": "address"
        },
        {
          "indexed": true,
          "internalType": "uint256",
          "name": "tokenId",
          "type": "uint256"
        }
      ],
      "name": "Approval",
      "type": "event"
    },
    {
      "anonymous": false,
      "inputs": [
        {
          "indexed": true,
          "internalType": "address",
          "name": "owner",
          "type": "address"
        },
        {
          "indexed": true,
          "internalType": "address",
          "name": "operator",
          "type": "address"
        },
        {
          "indexed": false,
          "internalType": "bool",
          "name": "approved",
          "type": "bool"
        }
      ],
      "name": "ApprovalForAll",
      "type": "event"
    },
    {
      "anonymous": false,
      "inputs": [
        {
          "indexed": true,
          "internalType": "address",
          "name": "delegator",
          "type": "address"
        },
        {
          "indexed": true,
          "internalType": "address",
          "name": "fromDelegate",
          "type": "address"
        },
        {
          "indexed": true,
          "internalType": "address",
          "name": "toDelegate",
          "type": "address"
        }
      ],
      "name": "DelegateChanged",
      "type": "event"
    },
    {
      "anonymous": false,
      "inputs": [
        {
          "indexed": true,
          "internalType": "address",
          "name": "delegate",
          "type": "address"
        },
        {
          "indexed": false,
          "internalType": "uint256",
          "name": "previousVotes",
          "type": "uint256"
        },
        {
          "indexed": false,
          "internalType": "uint256",
          "name": "newVotes",
          "type": "uint256"
        }
      ],
      "name": "DelegateVotesChanged",
      "type": "event"
    },
    {
      "anonymous": false,
      "inputs": [],
      "name": "EIP712DomainChanged",
      "type": "event"
    },
    {
      "anonymous": false,
      "inputs": [
        {
          "indexed": true,
          "internalType": "address",
          "name": "from",
          "type": "address"
        },
        {
          "indexed": true,
          "internalType": "address",
          "name": "to",
          "type": "address"
        },
        {
          "indexed": true,
          "internalType": "uint256",
          "name": "tokenId",
          "type": "uint256"
        }
      ],
      "name": "Transfer",
      "type": "event"
    },
    {
      "anonymous": false,
      "inputs": [
        {
          "indexed": false,
          "internalType": "address",
          "name": "ret0",
          "type": "address"
        }
      ],
      "name": "return$_update",
      "type": "event"
    },
    {
      "anonymous": false,
      "inputs": [
        {
          "indexed": false,
          "internalType": "uint256",
          "name": "ret0",
          "type": "uint256"
        }
      ],
      "name": "return$_useNonce",
      "type": "event"
    },
    {
      "inputs": [],
      "name": "$_EIP712Name",
      "outputs": [
        {
          "internalType": "string",
          "name": "ret0",
          "type": "string"
        }
      ],
      "stateMutability": "view",
      "type": "function"
    },
    {
      "inputs": [],
      "name": "$_EIP712Version",
      "outputs": [
        {
          "internalType": "string",
          "name": "ret0",
          "type": "string"
        }
      ],
      "stateMutability": "view",
      "type": "function"
    },
    {
      "inputs": [
        {
          "internalType": "address",
          "name": "to",
          "type": "address"
        },
        {
          "internalType": "uint256",
          "name": "tokenId",
          "type": "uint256"
        },
        {
          "internalType": "address",
          "name": "auth",
          "type": "address"
        },
        {
          "internalType": "bool",
          "name": "emitEvent",
          "type": "bool"
        }
      ],
      "name": "$_approve",
      "outputs": [],
      "stateMutability": "nonpayable",
      "type": "function"
    },
    {
      "inputs": [
        {
          "internalType": "address",
          "name": "to",
          "type": "address"
        },
        {
          "internalType": "uint256",
          "name": "tokenId",
          "type": "uint256"
        },
        {
          "internalType": "address",
          "name": "auth",
          "type": "address"
        }
      ],
      "name": "$_approve",
      "outputs": [],
      "stateMutability": "nonpayable",
      "type": "function"
    },
    {
      "inputs": [],
      "name": "$_baseURI",
      "outputs": [
        {
          "internalType": "string",
          "name": "ret0",
          "type": "string"
        }
      ],
      "stateMutability": "view",
      "type": "function"
    },
    {
      "inputs": [
        {
          "internalType": "uint256",
          "name": "tokenId",
          "type": "uint256"
        }
      ],
      "name": "$_burn",
      "outputs": [],
      "stateMutability": "nonpayable",
      "type": "function"
    },
    {
      "inputs": [
        {
          "internalType": "address",
          "name": "owner",
          "type": "address"
        },
        {
          "internalType": "address",
          "name": "spender",
          "type": "address"
        },
        {
          "internalType": "uint256",
          "name": "tokenId",
          "type": "uint256"
        }
      ],
      "name": "$_checkAuthorized",
      "outputs": [],
      "stateMutability": "view",
      "type": "function"
    },
    {
      "inputs": [
        {
          "internalType": "address",
          "name": "account",
          "type": "address"
        },
        {
          "internalType": "uint32",
          "name": "pos",
          "type": "uint32"
        }
      ],
      "name": "$_checkpoints",
      "outputs": [
        {
          "components": [
            {
              "internalType": "uint48",
              "name": "_key",
              "type": "uint48"
            },
            {
              "internalType": "uint208",
              "name": "_value",
              "type": "uint208"
            }
          ],
          "internalType": "struct Checkpoints.Checkpoint208",
          "name": "ret0",
          "type": "tuple"
        }
      ],
      "stateMutability": "view",
      "type": "function"
    },
    {
      "inputs": [],
      "name": "$_contextSuffixLength",
      "outputs": [
        {
          "internalType": "uint256",
          "name": "ret0",
          "type": "uint256"
        }
      ],
      "stateMutability": "view",
      "type": "function"
    },
    {
      "inputs": [
        {
          "internalType": "address",
          "name": "account",
          "type": "address"
        },
        {
          "internalType": "address",
          "name": "delegatee",
          "type": "address"
        }
      ],
      "name": "$_delegate",
      "outputs": [],
      "stateMutability": "nonpayable",
      "type": "function"
    },
    {
      "inputs": [],
      "name": "$_domainSeparatorV4",
      "outputs": [
        {
          "internalType": "bytes32",
          "name": "ret0",
          "type": "bytes32"
        }
      ],
      "stateMutability": "view",
      "type": "function"
    },
    {
      "inputs": [
        {
          "internalType": "uint256",
          "name": "tokenId",
          "type": "uint256"
        }
      ],
      "name": "$_getApproved",
      "outputs": [
        {
          "internalType": "address",
          "name": "ret0",
          "type": "address"
        }
      ],
      "stateMutability": "view",
      "type": "function"
    },
    {
      "inputs": [],
      "name": "$_getTotalSupply",
      "outputs": [
        {
          "internalType": "uint256",
          "name": "ret0",
          "type": "uint256"
        }
      ],
      "stateMutability": "view",
      "type": "function"
    },
    {
      "inputs": [
        {
          "internalType": "address",
          "name": "account",
          "type": "address"
        }
      ],
      "name": "$_getVotingUnits",
      "outputs": [
        {
          "internalType": "uint256",
          "name": "ret0",
          "type": "uint256"
        }
      ],
      "stateMutability": "view",
      "type": "function"
    },
    {
      "inputs": [
        {
          "internalType": "bytes32",
          "name": "structHash",
          "type": "bytes32"
        }
      ],
      "name": "$_hashTypedDataV4",
      "outputs": [
        {
          "internalType": "bytes32",
          "name": "ret0",
          "type": "bytes32"
        }
      ],
      "stateMutability": "view",
      "type": "function"
    },
    {
      "inputs": [
        {
          "internalType": "address",
          "name": "account",
          "type": "address"
        },
        {
          "internalType": "uint128",
          "name": "amount",
          "type": "uint128"
        }
      ],
      "name": "$_increaseBalance",
      "outputs": [],
      "stateMutability": "nonpayable",
      "type": "function"
    },
    {
      "inputs": [
        {
          "internalType": "address",
          "name": "owner",
          "type": "address"
        },
        {
          "internalType": "address",
          "name": "spender",
          "type": "address"
        },
        {
          "internalType": "uint256",
          "name": "tokenId",
          "type": "uint256"
        }
      ],
      "name": "$_isAuthorized",
      "outputs": [
        {
          "internalType": "bool",
          "name": "ret0",
          "type": "bool"
        }
      ],
      "stateMutability": "view",
      "type": "function"
    },
    {
      "inputs": [
        {
          "internalType": "address",
          "name": "to",
          "type": "address"
        },
        {
          "internalType": "uint256",
          "name": "tokenId",
          "type": "uint256"
        }
      ],
      "name": "$_mint",
      "outputs": [],
      "stateMutability": "nonpayable",
      "type": "function"
    },
    {
      "inputs": [
        {
          "internalType": "address",
          "name": "from",
          "type": "address"
        },
        {
          "internalType": "address",
          "name": "to",
          "type": "address"
        },
        {
          "internalType": "uint256",
          "name": "amount",
          "type": "uint256"
        }
      ],
      "name": "$_moveDelegateVotes",
      "outputs": [],
      "stateMutability": "nonpayable",
      "type": "function"
    },
    {
      "inputs": [],
      "name": "$_msgData",
      "outputs": [
        {
          "internalType": "bytes",
          "name": "ret0",
          "type": "bytes"
        }
      ],
      "stateMutability": "view",
      "type": "function"
    },
    {
      "inputs": [],
      "name": "$_msgSender",
      "outputs": [
        {
          "internalType": "address",
          "name": "ret0",
          "type": "address"
        }
      ],
      "stateMutability": "view",
      "type": "function"
    },
    {
      "inputs": [
        {
          "internalType": "address",
          "name": "account",
          "type": "address"
        }
      ],
      "name": "$_numCheckpoints",
      "outputs": [
        {
          "internalType": "uint32",
          "name": "ret0",
          "type": "uint32"
        }
      ],
      "stateMutability": "view",
      "type": "function"
    },
    {
      "inputs": [
        {
          "internalType": "uint256",
          "name": "tokenId",
          "type": "uint256"
        }
      ],
      "name": "$_ownerOf",
      "outputs": [
        {
          "internalType": "address",
          "name": "ret0",
          "type": "address"
        }
      ],
      "stateMutability": "view",
      "type": "function"
    },
    {
      "inputs": [
        {
          "internalType": "uint256",
          "name": "tokenId",
          "type": "uint256"
        }
      ],
      "name": "$_requireOwned",
      "outputs": [
        {
          "internalType": "address",
          "name": "ret0",
          "type": "address"
        }
      ],
      "stateMutability": "view",
      "type": "function"
    },
    {
      "inputs": [
        {
          "internalType": "address",
          "name": "to",
          "type": "address"
        },
        {
          "internalType": "uint256",
          "name": "tokenId",
          "type": "uint256"
        },
        {
          "internalType": "bytes",
          "name": "data",
          "type": "bytes"
        }
      ],
      "name": "$_safeMint",
      "outputs": [],
      "stateMutability": "nonpayable",
      "type": "function"
    },
    {
      "inputs": [
        {
          "internalType": "address",
          "name": "to",
          "type": "address"
        },
        {
          "internalType": "uint256",
          "name": "tokenId",
          "type": "uint256"
        }
      ],
      "name": "$_safeMint",
      "outputs": [],
      "stateMutability": "nonpayable",
      "type": "function"
    },
    {
      "inputs": [
        {
          "internalType": "address",
          "name": "from",
          "type": "address"
        },
        {
          "internalType": "address",
          "name": "to",
          "type": "address"
        },
        {
          "internalType": "uint256",
          "name": "tokenId",
          "type": "uint256"
        },
        {
          "internalType": "bytes",
          "name": "data",
          "type": "bytes"
        }
      ],
      "name": "$_safeTransfer",
      "outputs": [],
      "stateMutability": "nonpayable",
      "type": "function"
    },
    {
      "inputs": [
        {
          "internalType": "address",
          "name": "from",
          "type": "address"
        },
        {
          "internalType": "address",
          "name": "to",
          "type": "address"
        },
        {
          "internalType": "uint256",
          "name": "tokenId",
          "type": "uint256"
        }
      ],
      "name": "$_safeTransfer",
      "outputs": [],
      "stateMutability": "nonpayable",
      "type": "function"
    },
    {
      "inputs": [
        {
          "internalType": "address",
          "name": "owner",
          "type": "address"
        },
        {
          "internalType": "address",
          "name": "operator",
          "type": "address"
        },
        {
          "internalType": "bool",
          "name": "approved",
          "type": "bool"
        }
      ],
      "name": "$_setApprovalForAll",
      "outputs": [],
      "stateMutability": "nonpayable",
      "type": "function"
    },
    {
      "inputs": [
        {
          "internalType": "address",
          "name": "from",
          "type": "address"
        },
        {
          "internalType": "address",
          "name": "to",
          "type": "address"
        },
        {
          "internalType": "uint256",
          "name": "tokenId",
          "type": "uint256"
        }
      ],
      "name": "$_transfer",
      "outputs": [],
      "stateMutability": "nonpayable",
      "type": "function"
    },
    {
      "inputs": [
        {
          "internalType": "address",
          "name": "from",
          "type": "address"
        },
        {
          "internalType": "address",
          "name": "to",
          "type": "address"
        },
        {
          "internalType": "uint256",
          "name": "amount",
          "type": "uint256"
        }
      ],
      "name": "$_transferVotingUnits",
      "outputs": [],
      "stateMutability": "nonpayable",
      "type": "function"
    },
    {
      "inputs": [
        {
          "internalType": "address",
          "name": "to",
          "type": "address"
        },
        {
          "internalType": "uint256",
          "name": "tokenId",
          "type": "uint256"
        },
        {
          "internalType": "address",
          "name": "auth",
          "type": "address"
        }
      ],
      "name": "$_update",
      "outputs": [
        {
          "internalType": "address",
          "name": "ret0",
          "type": "address"
        }
      ],
      "stateMutability": "nonpayable",
      "type": "function"
    },
    {
      "inputs": [
        {
          "internalType": "address",
          "name": "owner",
          "type": "address"
        },
        {
          "internalType": "uint256",
          "name": "nonce",
          "type": "uint256"
        }
      ],
      "name": "$_useCheckedNonce",
      "outputs": [],
      "stateMutability": "nonpayable",
      "type": "function"
    },
    {
      "inputs": [
        {
          "internalType": "address",
          "name": "owner",
          "type": "address"
        }
      ],
      "name": "$_useNonce",
      "outputs": [
        {
          "internalType": "uint256",
          "name": "ret0",
          "type": "uint256"
        }
      ],
      "stateMutability": "nonpayable",
      "type": "function"
    },
    {
      "inputs": [
        {
          "internalType": "uint256",
          "name": "timepoint",
          "type": "uint256"
        }
      ],
      "name": "$_validateTimepoint",
      "outputs": [
        {
          "internalType": "uint48",
          "name": "ret0",
          "type": "uint48"
        }
      ],
      "stateMutability": "view",
      "type": "function"
    },
    {
      "inputs": [],
      "name": "CLOCK_MODE",
      "outputs": [
        {
          "internalType": "string",
          "name": "",
          "type": "string"
        }
      ],
      "stateMutability": "view",
      "type": "function"
    },
    {
      "inputs": [],
      "name": "__hh_exposed_bytecode_marker",
      "outputs": [
        {
          "internalType": "bytes32",
          "name": "",
          "type": "bytes32"
        }
      ],
      "stateMutability": "view",
      "type": "function"
    },
    {
      "inputs": [
        {
          "internalType": "address",
          "name": "to",
          "type": "address"
        },
        {
          "internalType": "uint256",
          "name": "tokenId",
          "type": "uint256"
        }
      ],
      "name": "approve",
      "outputs": [],
      "stateMutability": "nonpayable",
      "type": "function"
    },
    {
      "inputs": [
        {
          "internalType": "address",
          "name": "owner",
          "type": "address"
        }
      ],
      "name": "balanceOf",
      "outputs": [
        {
          "internalType": "uint256",
          "name": "",
          "type": "uint256"
        }
      ],
      "stateMutability": "view",
      "type": "function"
    },
    {
      "inputs": [],
      "name": "clock",
      "outputs": [
        {
          "internalType": "uint48",
          "name": "",
          "type": "uint48"
        }
      ],
      "stateMutability": "view",
      "type": "function"
    },
    {
      "inputs": [
        {
          "internalType": "address",
          "name": "delegatee",
          "type": "address"
        }
      ],
      "name": "delegate",
      "outputs": [],
      "stateMutability": "nonpayable",
      "type": "function"
    },
    {
      "inputs": [
        {
          "internalType": "address",
          "name": "delegatee",
          "type": "address"
        },
        {
          "internalType": "uint256",
          "name": "nonce",
          "type": "uint256"
        },
        {
          "internalType": "uint256",
          "name": "expiry",
          "type": "uint256"
        },
        {
          "internalType": "uint8",
          "name": "v",
          "type": "uint8"
        },
        {
          "internalType": "bytes32",
          "name": "r",
          "type": "bytes32"
        },
        {
          "internalType": "bytes32",
          "name": "s",
          "type": "bytes32"
        }
      ],
      "name": "delegateBySig",
      "outputs": [],
      "stateMutability": "nonpayable",
      "type": "function"
    },
    {
      "inputs": [
        {
          "internalType": "address",
          "name": "account",
          "type": "address"
        }
      ],
      "name": "delegates",
      "outputs": [
        {
          "internalType": "address",
          "name": "",
          "type": "address"
        }
      ],
      "stateMutability": "view",
      "type": "function"
    },
    {
      "inputs": [],
      "name": "eip712Domain",
      "outputs": [
        {
          "internalType": "bytes1",
          "name": "fields",
          "type": "bytes1"
        },
        {
          "internalType": "string",
          "name": "name",
          "type": "string"
        },
        {
          "internalType": "string",
          "name": "version",
          "type": "string"
        },
        {
          "internalType": "uint256",
          "name": "chainId",
          "type": "uint256"
        },
        {
          "internalType": "address",
          "name": "verifyingContract",
          "type": "address"
        },
        {
          "internalType": "bytes32",
          "name": "salt",
          "type": "bytes32"
        },
        {
          "internalType": "uint256[]",
          "name": "extensions",
          "type": "uint256[]"
        }
      ],
      "stateMutability": "view",
      "type": "function"
    },
    {
      "inputs": [
        {
          "internalType": "uint256",
          "name": "tokenId",
          "type": "uint256"
        }
      ],
      "name": "getApproved",
      "outputs": [
        {
          "internalType": "address",
          "name": "",
          "type": "address"
        }
      ],
      "stateMutability": "view",
      "type": "function"
    },
    {
      "inputs": [
        {
          "internalType": "uint256",
          "name": "timepoint",
          "type": "uint256"
        }
      ],
      "name": "getPastTotalSupply",
      "outputs": [
        {
          "internalType": "uint256",
          "name": "",
          "type": "uint256"
        }
      ],
      "stateMutability": "view",
      "type": "function"
    },
    {
      "inputs": [
        {
          "internalType": "address",
          "name": "account",
          "type": "address"
        },
        {
          "internalType": "uint256",
          "name": "timepoint",
          "type": "uint256"
        }
      ],
      "name": "getPastVotes",
      "outputs": [
        {
          "internalType": "uint256",
          "name": "",
          "type": "uint256"
        }
      ],
      "stateMutability": "view",
      "type": "function"
    },
    {
      "inputs": [
        {
          "internalType": "address",
          "name": "account",
          "type": "address"
        }
      ],
      "name": "getVotes",
      "outputs": [
        {
          "internalType": "uint256",
          "name": "",
          "type": "uint256"
        }
      ],
      "stateMutability": "view",
      "type": "function"
    },
    {
      "inputs": [
        {
          "internalType": "address",
          "name": "owner",
          "type": "address"
        },
        {
          "internalType": "address",
          "name": "operator",
          "type": "address"
        }
      ],
      "name": "isApprovedForAll",
      "outputs": [
        {
          "internalType": "bool",
          "name": "",
          "type": "bool"
        }
      ],
      "stateMutability": "view",
      "type": "function"
    },
    {
      "inputs": [],
      "name": "name",
      "outputs": [
        {
          "internalType": "string",
          "name": "",
          "type": "string"
        }
      ],
      "stateMutability": "view",
      "type": "function"
    },
    {
      "inputs": [
        {
          "internalType": "address",
          "name": "owner",
          "type": "address"
        }
      ],
      "name": "nonces",
      "outputs": [
        {
          "internalType": "uint256",
          "name": "",
          "type": "uint256"
        }
      ],
      "stateMutability": "view",
      "type": "function"
    },
    {
      "inputs": [
        {
          "internalType": "uint256",
          "name": "tokenId",
          "type": "uint256"
        }
      ],
      "name": "ownerOf",
      "outputs": [
        {
          "internalType": "address",
          "name": "",
          "type": "address"
        }
      ],
      "stateMutability": "view",
      "type": "function"
    },
    {
      "inputs": [
        {
          "internalType": "address",
          "name": "from",
          "type": "address"
        },
        {
          "internalType": "address",
          "name": "to",
          "type": "address"
        },
        {
          "internalType": "uint256",
          "name": "tokenId",
          "type": "uint256"
        }
      ],
      "name": "safeTransferFrom",
      "outputs": [],
      "stateMutability": "nonpayable",
      "type": "function"
    },
    {
      "inputs": [
        {
          "internalType": "address",
          "name": "from",
          "type": "address"
        },
        {
          "internalType": "address",
          "name": "to",
          "type": "address"
        },
        {
          "internalType": "uint256",
          "name": "tokenId",
          "type": "uint256"
        },
        {
          "internalType": "bytes",
          "name": "data",
          "type": "bytes"
        }
      ],
      "name": "safeTransferFrom",
      "outputs": [],
      "stateMutability": "nonpayable",
      "type": "function"
    },
    {
      "inputs": [
        {
          "internalType": "address",
          "name": "operator",
          "type": "address"
        },
        {
          "internalType": "bool",
          "name": "approved",
          "type": "bool"
        }
      ],
      "name": "setApprovalForAll",
      "outputs": [],
      "stateMutability": "nonpayable",
      "type": "function"
    },
    {
      "inputs": [
        {
          "internalType": "bytes4",
          "name": "interfaceId",
          "type": "bytes4"
        }
      ],
      "name": "supportsInterface",
      "outputs": [
        {
          "internalType": "bool",
          "name": "",
          "type": "bool"
        }
      ],
      "stateMutability": "view",
      "type": "function"
    },
    {
      "inputs": [],
      "name": "symbol",
      "outputs": [
        {
          "internalType": "string",
          "name": "",
          "type": "string"
        }
      ],
      "stateMutability": "view",
      "type": "function"
    },
    {
      "inputs": [
        {
          "internalType": "uint256",
          "name": "tokenId",
          "type": "uint256"
        }
      ],
      "name": "tokenURI",
      "outputs": [
        {
          "internalType": "string",
          "name": "",
          "type": "string"
        }
      ],
      "stateMutability": "view",
      "type": "function"
    },
    {
      "inputs": [
        {
          "internalType": "address",
          "name": "from",
          "type": "address"
        },
        {
          "internalType": "address",
          "name": "to",
          "type": "address"
        },
        {
          "internalType": "uint256",
          "name": "tokenId",
          "type": "uint256"
        }
      ],
      "name": "transferFrom",
      "outputs": [],
      "stateMutability": "nonpayable",
      "type": "function"
    },
    {
      "stateMutability": "payable",
      "type": "receive"
    }
  ],
  "bytecode": "0x6101606040526040516200349638038062003496833981016040819052620000279162000254565b818185855f62000038838262000390565b50600162000047828262000390565b5062000059915083905060066200010b565b610120526200006a8160076200010b565b61014052815160208084019190912060e052815190820120610100524660a052620000f760e05161010051604080517f8b73c3c69bb8fe3d512ecc4cf759cc79239f7b179b0ffacaa9a75d522b39400f60208201529081019290925260608201524660808201523060a08201525f9060c00160405160208183030381529060405280519060200120905090565b60805250503060c05250620004b492505050565b5f6020835110156200012a57620001228362000143565b90506200013d565b8162000137848262000390565b5060ff90505b92915050565b5f80829050601f8151111562000179578260405163305a27a960e01b81526004016200017091906200045c565b60405180910390fd5b8051620001868262000490565b179392505050565b634e487b7160e01b5f52604160045260245ffd5b5f5b83811015620001be578181015183820152602001620001a4565b50505f910152565b5f82601f830112620001d6575f80fd5b81516001600160401b0380821115620001f357620001f36200018e565b604051601f8301601f19908116603f011681019082821181831017156200021e576200021e6200018e565b8160405283815286602085880101111562000237575f80fd5b6200024a846020830160208901620001a2565b9695505050505050565b5f805f806080858703121562000268575f80fd5b84516001600160401b03808211156200027f575f80fd5b6200028d88838901620001c6565b95506020870151915080821115620002a3575f80fd5b620002b188838901620001c6565b94506040870151915080821115620002c7575f80fd5b620002d588838901620001c6565b93506060870151915080821115620002eb575f80fd5b50620002fa87828801620001c6565b91505092959194509250565b600181811c908216806200031b57607f821691505b6020821081036200033a57634e487b7160e01b5f52602260045260245ffd5b50919050565b601f8211156200038b57805f5260205f20601f840160051c81016020851015620003675750805b601f840160051c820191505b8181101562000388575f815560010162000373565b50505b505050565b81516001600160401b03811115620003ac57620003ac6200018e565b620003c481620003bd845462000306565b8462000340565b602080601f831160018114620003fa575f8415620003e25750858301515b5f19600386901b1c1916600185901b17855562000454565b5f85815260208120601f198616915b828110156200042a5788860151825594840194600190910190840162000409565b50858210156200044857878501515f19600388901b60f8161c191681555b505060018460011b0185555b505050505050565b602081525f82518060208401526200047c816040850160208701620001a2565b601f01601f19169190910160400192915050565b805160208083015191908110156200033a575f1960209190910360031b1b16919050565b60805160a05160c05160e051610100516101205161014051612f90620005065f395f6113d801525f6113ab01525f6117bd01525f61179501525f6116f001525f61171a01525f6117440152612f905ff3fe60806040526004361061037e575f3560e01c806367354a84116101d3578063a2373a82116100fd578063cfeea0d41161009d578063e3cb9a4a1161006d578063e3cb9a4a14610a68578063e42b0f4814610a87578063e985e9c514610aa6578063efb43b0714610ac5575f80fd5b8063cfeea0d4146109d7578063d261af54146109f6578063d41ecac314610a15578063d848383414610a49575f80fd5b8063c3cda520116100d8578063c3cda5201461097a578063c670720114610733578063c87b56dd14610999578063cc461d62146109b8575f80fd5b8063a2373a821461091d578063b3068e411461093c578063b88d4fde1461095b575f80fd5b806384b0196e1161017357806395d89b411161014357806395d89b41146108ac5780639ab24eb0146108c05780639ff2f02d146108df578063a22cb465146108fe575f80fd5b806384b0196e146108335780638e539e8c1461085a57806390104b841461087957806391ddadf414610898575f80fd5b806370a08231116101ae57806370a08231146107a2578063733555ec146107c15780637a7be036146107e05780637ecebe00146107ff575f80fd5b806367354a84146107525780636884d58b146107645780636b4ac50214610783575f80fd5b806332cadf3c116102b4578063506a6f0c116102545780635c19a95c116102245780635c19a95c146106b55780635f8d5e74146106d457806361f5b530146106e85780636352211e14610733575f80fd5b8063506a6f0c1461062c578063535de3341461064b578063587cde1e1461065f5780635b28e1e814610696575f80fd5b80633a46b1a81161028f5780633a46b1a8146105bb57806342842e0e146105da578063458ee002146105f95780634bf5d7e914610618575f80fd5b806332cadf3c14610563578063342db739146105775780633451b14d1461059c575f80fd5b8063161e977d1161031f5780632904df29116102fa5780632904df29146104cf5780632e8fbee5146104e157806330f3b0b51461050e57806330ff12bf1461052d575f80fd5b8063161e977d14610488578063174ccd821461049c57806323b872dd146104b0575f80fd5b8063081812fc1161035a578063081812fc146103ff578063095ea7b314610436578063113efe1a146104555780631164d13b14610474575f80fd5b8062cae2201461038957806301ffc9a7146103aa57806306fdde03146103de575f80fd5b3661038557005b5f80fd5b348015610394575f80fd5b506103a86103a336600461282d565b610ae4565b005b3480156103b5575f80fd5b506103c96103c4366004612873565b610af2565b60405190151581526020015b60405180910390f35b3480156103e9575f80fd5b506103f2610b43565b6040516103d591906128db565b34801561040a575f80fd5b5061041e6104193660046128ed565b610bd2565b6040516001600160a01b0390911681526020016103d5565b348015610441575f80fd5b506103a8610450366004612904565b610bf9565b348015610460575f80fd5b506103a861046f36600461292c565b610c04565b34801561047f575f80fd5b506103f2610c0e565b348015610493575f80fd5b506103f2610c1d565b3480156104a7575f80fd5b506103f2610c33565b3480156104bb575f80fd5b506103a86104ca36600461296c565b610c3d565b3480156104da575f80fd5b503361041e565b3480156104ec575f80fd5b506105006104fb3660046129a5565b610ccb565b6040519081526020016103d5565b348015610519575f80fd5b506103a86105283660046129cd565b610d2b565b348015610538575f80fd5b5061054c6105473660046128ed565b610d37565b60405165ffffffffffff90911681526020016103d5565b34801561056e575f80fd5b506103f2610d41565b348015610582575f80fd5b506105006e1a185c991a185d0b595e1c1bdcd959608a1b81565b3480156105a7575f80fd5b5061041e6105b63660046128ed565b610d7e565b3480156105c6575f80fd5b506105006105d5366004612904565b610d9a565b3480156105e5575f80fd5b506103a86105f436600461296c565b610dd4565b348015610604575f80fd5b5061041e6106133660046128ed565b610df3565b348015610623575f80fd5b506103f2610e0f565b348015610637575f80fd5b506105006106463660046128ed565b610e87565b348015610656575f80fd5b50610500610e91565b34801561066a575f80fd5b5061041e6106793660046129a5565b6001600160a01b039081165f908152600960205260409020541690565b3480156106a1575f80fd5b506103a86106b036600461296c565b610e9a565b3480156106c0575f80fd5b506103a86106cf3660046129a5565b610ea5565b3480156106df575f80fd5b50610500610eb0565b3480156106f3575f80fd5b50610707610702366004612a17565b610eb9565b60408051825165ffffffffffff1681526020928301516001600160d01b031692810192909252016103d5565b34801561073e575f80fd5b5061041e61074d3660046128ed565b610edd565b34801561075d575f80fd5b505f610500565b34801561076f575f80fd5b506103a861077e36600461296c565b610ee7565b34801561078e575f80fd5b506103a861079d366004612904565b610ef2565b3480156107ad575f80fd5b506105006107bc3660046129a5565b610efc565b3480156107cc575f80fd5b506103a86107db366004612a8e565b610f41565b3480156107eb575f80fd5b506103c96107fa36600461296c565b610f89565b34801561080a575f80fd5b506105006108193660046129a5565b6001600160a01b03165f9081526008602052604090205490565b34801561083e575f80fd5b50610847610f9d565b6040516103d59796959493929190612af8565b348015610865575f80fd5b506105006108743660046128ed565b610fdf565b348015610884575f80fd5b506103a8610893366004612b8f565b611003565b3480156108a3575f80fd5b5061054c61100e565b3480156108b7575f80fd5b506103f2611017565b3480156108cb575f80fd5b506105006108da3660046129a5565b611026565b3480156108ea575f80fd5b506103a86108f9366004612bc8565b611046565b348015610909575f80fd5b506103a8610918366004612c1e565b611086565b348015610928575f80fd5b506103a86109373660046128ed565b611091565b348015610947575f80fd5b506105006109563660046129a5565b61109d565b348015610966575f80fd5b506103a8610975366004612c5a565b6110a7565b348015610985575f80fd5b506103a8610994366004612d2f565b6110bf565b3480156109a4575f80fd5b506103f26109b33660046128ed565b61117b565b3480156109c3575f80fd5b506103a86109d2366004612904565b6111eb565b3480156109e2575f80fd5b506103a86109f1366004612d8a565b6111f5565b348015610a01575f80fd5b506103a8610a10366004612904565b611200565b348015610a20575f80fd5b50610a34610a2f3660046129a5565b61120a565b60405163ffffffff90911681526020016103d5565b348015610a54575f80fd5b506103a8610a6336600461296c565b611214565b348015610a73575f80fd5b5061041e610a82366004612b8f565b61121f565b348015610a92575f80fd5b506103a8610aa136600461296c565b611271565b348015610ab1575f80fd5b506103c9610ac036600461282d565b61127c565b348015610ad0575f80fd5b506103a8610adf36600461296c565b6112a9565b610aee82826112b4565b5050565b5f6001600160e01b031982166380ac58cd60e01b1480610b2257506001600160e01b03198216635b5e139f60e01b145b80610b3d57506301ffc9a760e01b6001600160e01b03198316145b92915050565b60605f8054610b5190612dc1565b80601f0160208091040260200160405190810160405280929190818152602001828054610b7d90612dc1565b8015610bc85780601f10610b9f57610100808354040283529160200191610bc8565b820191905f5260205f20905b815481529060010190602001808311610bab57829003601f168201915b5050505050905090565b5f610bdc82611325565b505f828152600460205260409020546001600160a01b0316610b3d565b610aee82823361135d565b610aee828261136a565b6060610c186113a4565b905090565b6060610c1860408051602081019091525f815290565b6060610c186113d1565b6001600160a01b038216610c6b57604051633250574960e11b81525f60048201526024015b60405180910390fd5b5f610c778383336113fe565b9050836001600160a01b0316816001600160a01b031614610cc5576040516364283d7b60e01b81526001600160a01b0380861660048301526024820184905282166044820152606401610c62565b50505050565b6001600160a01b0381165f90815260086020526040812080546001810190915590507f8d5c13b1cd528a3e1895fdc833368c4e3af5391250c736a28e94c4fa59b3cee481604051610d1e91815260200190565b60405180910390a1919050565b610cc584848484611419565b5f610b3d8261151d565b60605f368080601f0160208091040260200160405190810160405280939291908181526020018383808284375f9201919091525092949350505050565b5f818152600460205260408120546001600160a01b0316610b3d565b5f610dc4610da78361151d565b6001600160a01b0385165f908152600a602052604090209061156b565b6001600160d01b03169392505050565b610dee83838360405180602001604052805f8152506110a7565b505050565b5f818152600260205260408120546001600160a01b0316610b3d565b6060610e1961161b565b65ffffffffffff16610e2961100e565b65ffffffffffff1614610e4f576040516301bfc1c560e61b815260040160405180910390fd5b5060408051808201909152601d81527f6d6f64653d626c6f636b6e756d6265722666726f6d3d64656661756c74000000602082015290565b5f610b3d82611625565b5f610c18611651565b610dee83838361166a565b33610aee81836112b4565b5f610c186116e4565b604080518082019091525f8082526020820152610ed6838361180d565b9392505050565b5f610b3d82611325565b610dee838383611841565b610aee82826118a5565b5f6001600160a01b038216610f26576040516322718ad960e21b81525f6004820152602401610c62565b506001600160a01b03165f9081526003602052604090205490565b610f8285858585858080601f0160208091040260200160405190810160405280939291908181526020018383808284375f920191909152506118f792505050565b5050505050565b5f610f95848484611902565b949350505050565b5f6060805f805f6060610fae6113a4565b610fb66113d1565b604080515f80825260208201909252600f60f81b9b939a50919850469750309650945092509050565b5f610ff4610fec8361151d565b600b9061156b565b6001600160d01b031692915050565b610dee83838361135d565b5f610c1861161b565b606060018054610b5190612dc1565b6001600160a01b0381165f908152600a60205260408120610ff490611963565b610cc5848484848080601f0160208091040260200160405190810160405280939291908181526020018383808284375f9201919091525061199a92505050565b610aee3383836119b1565b61109a81611a4f565b50565b5f610b3d82611a87565b6110b2848484610c3d565b610cc53385858585611a91565b834211156110e357604051632341d78760e11b815260048101859052602401610c62565b604080517fe48329057bfd03d55e49b547132e39cffd9c1820ad7b9d4c5307691425d15adf60208201526001600160a01b0388169181019190915260608101869052608081018590525f9061115c906111549060a00160405160208183030381529060405280519060200120611625565b858585611bb8565b905061116881876118a5565b61117281886112b4565b50505050505050565b606061118682611325565b505f61119c60408051602081019091525f815290565b90505f8151116111ba5760405180602001604052805f815250610ed6565b806111c484611be4565b6040516020016111d5929190612df9565b6040516020818303038152906040529392505050565b610aee8282611c74565b610dee8383836119b1565b610aee8282611cd5565b5f610b3d82611cee565b610dee838383611d0f565b5f61122b8484846113fe565b6040516001600160a01b03821681529091507ffc55619107f02333de2d9626fe994a6b9d0734bee4722e17698d6fa1b06c52009060200160405180910390a19392505050565b610dee838383611d29565b6001600160a01b039182165f90815260056020908152604080832093909416825291909152205460ff1690565b610dee838383611e8d565b6001600160a01b038281165f8181526009602052604080822080548686166001600160a01b0319821681179092559151919094169392849290917f3134e8a2e6d97e929a7e54011ea5485d7d196dd5f0ba4d4ef95803e8e3fc257f9190a4610dee818361132086611a87565b611d29565b5f818152600260205260408120546001600160a01b031680610b3d57604051637e27328960e01b815260048101849052602401610c62565b610dee8383836001611419565b6001600160a01b0382165f90815260036020526040902080546001600160801b038316019055610aee5f83836001600160801b031661166a565b6060610c187f00000000000000000000000000000000000000000000000000000000000000006006611f3a565b6060610c187f00000000000000000000000000000000000000000000000000000000000000006007611f3a565b5f8061140b858585611fe3565b9050610f958186600161166a565b808061142d57506001600160a01b03821615155b156114ee575f61143c84611325565b90506001600160a01b038316158015906114685750826001600160a01b0316816001600160a01b031614155b801561147b5750611479818461127c565b155b156114a45760405163a9fbf51f60e01b81526001600160a01b0384166004820152602401610c62565b81156114ec5783856001600160a01b0316826001600160a01b03167f8c5be1e5ebec7d5bd14f71427d1e84f3dd0314c0f7b2291e5b200ac8c7c3b92560405160405180910390a45b505b50505f90815260046020526040902080546001600160a01b0319166001600160a01b0392909216919091179055565b5f8061152761100e565b90508065ffffffffffff16831061156257604051637669fc0f60e11b81526004810184905265ffffffffffff82166024820152604401610c62565b610ed6836120d5565b81545f90818160058111156115c7575f6115848461210b565b61158e9085612e3b565b5f8881526020902090915081015465ffffffffffff90811690871610156115b7578091506115c5565b6115c2816001612e4e565b92505b505b5f6115d487878585612263565b9050801561160e576115f8876115eb600184612e3b565b5f91825260209091200190565b54600160301b90046001600160d01b0316611610565b5f5b979650505050505050565b5f610c18436120d5565b5f610b3d6116316116e4565b8360405161190160f01b8152600281019290925260228201526042902090565b5f61165c600b611963565b6001600160d01b0316905090565b6001600160a01b0383166116915761168e600b6122c2611689846122cd565b612300565b50505b6001600160a01b0382166116b3576116b0600b612338611689846122cd565b50505b6001600160a01b038381165f90815260096020526040808220548584168352912054610dee92918216911683611d29565b5f306001600160a01b037f00000000000000000000000000000000000000000000000000000000000000001614801561173c57507f000000000000000000000000000000000000000000000000000000000000000046145b1561176657507f000000000000000000000000000000000000000000000000000000000000000090565b610c18604080517f8b73c3c69bb8fe3d512ecc4cf759cc79239f7b179b0ffacaa9a75d522b39400f60208201527f0000000000000000000000000000000000000000000000000000000000000000918101919091527f000000000000000000000000000000000000000000000000000000000000000060608201524660808201523060a08201525f9060c00160405160208183030381529060405280519060200120905090565b604080518082019091525f80825260208201526001600160a01b0383165f908152600a60205260409020610ed69083612343565b61184c838383611902565b610dee576001600160a01b03831661187a57604051637e27328960e01b815260048101829052602401610c62565b60405163177e802f60e01b81526001600160a01b038316600482015260248101829052604401610c62565b6001600160a01b0382165f908152600860205260409020805460018101909155818114610dee576040516301d4b62360e61b81526001600160a01b038416600482015260248101829052604401610c62565b6110b2848484611e8d565b5f6001600160a01b03831615801590610f955750826001600160a01b0316846001600160a01b0316148061193b575061193b848461127c565b80610f955750505f908152600460205260409020546001600160a01b03908116911614919050565b80545f9080156119925761197c836115eb600184612e3b565b54600160301b90046001600160d01b0316610ed6565b5f9392505050565b6119a48383611c74565b610dee335f858585611a91565b6001600160a01b0382166119e357604051630b61174360e31b81526001600160a01b0383166004820152602401610c62565b6001600160a01b038381165f81815260056020908152604080832094871680845294825291829020805460ff191686151590811790915591519182527f17307eab39ab6107e8899845ad3d59bd9653f200f220920489ca2b5937696c31910160405180910390a3505050565b5f611a5b5f835f6113fe565b90506001600160a01b038116610aee57604051637e27328960e01b815260048101839052602401610c62565b5f610b3d82610efc565b6001600160a01b0383163b15610f8257604051630a85bd0160e11b81526001600160a01b0384169063150b7a0290611ad3908890889087908790600401612e61565b6020604051808303815f875af1925050508015611b0d575060408051601f3d908101601f19168201909252611b0a91810190612e9d565b60015b611b74573d808015611b3a576040519150601f19603f3d011682016040523d82523d5f602084013e611b3f565b606091505b5080515f03611b6c57604051633250574960e11b81526001600160a01b0385166004820152602401610c62565b805181602001fd5b6001600160e01b03198116630a85bd0160e11b14611bb057604051633250574960e11b81526001600160a01b0385166004820152602401610c62565b505050505050565b5f805f80611bc8888888886123b0565b925092509250611bd88282612478565b50909695505050505050565b60605f611bf083612530565b60010190505f8167ffffffffffffffff811115611c0f57611c0f612c46565b6040519080825280601f01601f191660200182016040528015611c39576020820181803683370190505b5090508181016020015b5f19016f181899199a1a9b1b9c1cb0b131b232b360811b600a86061a8153600a8504945084611c4357509392505050565b6001600160a01b038216611c9d57604051633250574960e11b81525f6004820152602401610c62565b5f611ca983835f6113fe565b90506001600160a01b03811615610dee576040516339e3563760e11b81525f6004820152602401610c62565b610aee828260405180602001604052805f81525061199a565b6001600160a01b0381165f908152600a6020526040812054610b3d90612607565b610dee83838360405180602001604052805f8152506118f7565b816001600160a01b0316836001600160a01b031614158015611d4a57505f81115b15610dee576001600160a01b03831615611dec576001600160a01b0383165f908152600a602052604081208190611d8790612338611689866122cd565b6001600160d01b031691506001600160d01b03169150846001600160a01b03167fdec2bacdd2f05b59de34da9b523dff8be42e5e38e818c82fdb0bae774387a7248383604051611de1929190918252602082015260400190565b60405180910390a250505b6001600160a01b03821615610dee576001600160a01b0382165f908152600a602052604081208190611e24906122c2611689866122cd565b6001600160d01b031691506001600160d01b03169150836001600160a01b03167fdec2bacdd2f05b59de34da9b523dff8be42e5e38e818c82fdb0bae774387a7248383604051611e7e929190918252602082015260400190565b60405180910390a25050505050565b6001600160a01b038216611eb657604051633250574960e11b81525f6004820152602401610c62565b5f611ec283835f6113fe565b90506001600160a01b038116611eee57604051637e27328960e01b815260048101839052602401610c62565b836001600160a01b0316816001600160a01b031614610cc5576040516364283d7b60e01b81526001600160a01b0380861660048301526024820184905282166044820152606401610c62565b606060ff8314611f5457611f4d83612637565b9050610b3d565b818054611f6090612dc1565b80601f0160208091040260200160405190810160405280929190818152602001828054611f8c90612dc1565b8015611fd75780601f10611fae57610100808354040283529160200191611fd7565b820191905f5260205f20905b815481529060010190602001808311611fba57829003601f168201915b50505050509050610b3d565b5f828152600260205260408120546001600160a01b039081169083161561200f5761200f818486611841565b6001600160a01b038116156120495761202a5f855f80611419565b6001600160a01b0381165f90815260036020526040902080545f190190555b6001600160a01b03851615612077576001600160a01b0385165f908152600360205260409020805460010190555b5f8481526002602052604080822080546001600160a01b0319166001600160a01b0389811691821790925591518793918516917fddf252ad1be2c89b69c2b068fc378daa952ba7f163c4a11628f55a4df523b3ef91a4949350505050565b5f65ffffffffffff821115612107576040516306dfcc6560e41b81526030600482015260248101839052604401610c62565b5090565b5f60018211612118575090565b816001600160801b82106121315760809190911c9060401b5b68010000000000000000821061214c5760409190911c9060201b5b64010000000082106121635760209190911c9060101b5b6201000082106121785760109190911c9060081b5b610100821061218c5760089190911c9060041b5b6010821061219f5760049190911c9060021b5b600482106121ab5760011b5b600302600190811c908185816121c3576121c3612eb8565b048201901c905060018185816121db576121db612eb8565b048201901c905060018185816121f3576121f3612eb8565b048201901c9050600181858161220b5761220b612eb8565b048201901c9050600181858161222357612223612eb8565b048201901c9050600181858161223b5761223b612eb8565b048201901c905061225a81858161225457612254612eb8565b04821190565b90039392505050565b5f5b818310156122ba575f6122788484612674565b5f8781526020902090915065ffffffffffff86169082015465ffffffffffff1611156122a6578092506122b4565b6122b1816001612e4e565b93505b50612265565b509392505050565b5f610ed68284612ecc565b5f6001600160d01b03821115612107576040516306dfcc6560e41b815260d0600482015260248101839052604401610c62565b5f8061232b61230d61100e565b61232361231988611963565b868863ffffffff16565b87919061268e565b915091505b935093915050565b5f610ed68284612ef3565b604080518082019091525f8082526020820152825f018263ffffffff168154811061237057612370612f13565b5f9182526020918290206040805180820190915291015465ffffffffffff81168252600160301b90046001600160d01b0316918101919091529392505050565b5f80807f7fffffffffffffffffffffffffffffff5d576e7357a4501ddfe92f46681b20a08411156123e957505f9150600390508261246e565b604080515f808252602082018084528a905260ff891692820192909252606081018790526080810186905260019060a0016020604051602081039080840390855afa15801561243a573d5f803e3d5ffd5b5050604051601f1901519150506001600160a01b03811661246557505f92506001915082905061246e565b92505f91508190505b9450945094915050565b5f82600381111561248b5761248b612f27565b03612494575050565b60018260038111156124a8576124a8612f27565b036124c65760405163f645eedf60e01b815260040160405180910390fd5b60028260038111156124da576124da612f27565b036124fb5760405163fce698f760e01b815260048101829052602401610c62565b600382600381111561250f5761250f612f27565b03610aee576040516335e2f38360e21b815260048101829052602401610c62565b5f8072184f03e93ff9f4daa797ed6e38ed64bf6a1f0160401b831061256e5772184f03e93ff9f4daa797ed6e38ed64bf6a1f0160401b830492506040015b6d04ee2d6d415b85acef8100000000831061259a576d04ee2d6d415b85acef8100000000830492506020015b662386f26fc1000083106125b857662386f26fc10000830492506010015b6305f5e10083106125d0576305f5e100830492506008015b61271083106125e457612710830492506004015b606483106125f6576064830492506002015b600a8310610b3d5760010192915050565b5f63ffffffff821115612107576040516306dfcc6560e41b81526020600482015260248101839052604401610c62565b60605f6126438361269b565b6040805160208082528183019092529192505f91906020820181803683375050509182525060208101929092525090565b5f6126826002848418612f3b565b610ed690848416612e4e565b5f8061232b8585856126c2565b5f60ff8216601f811115610b3d57604051632cd44ac360e21b815260040160405180910390fd5b82545f90819080156127b8575f6126de876115eb600185612e3b565b805490915065ffffffffffff80821691600160301b90046001600160d01b031690881682111561272157604051632520601d60e01b815260040160405180910390fd5b8765ffffffffffff168265ffffffffffff160361275a57825465ffffffffffff16600160301b6001600160d01b038916021783556127aa565b6040805180820190915265ffffffffffff808a1682526001600160d01b03808a1660208085019182528d54600181018f555f8f81529190912094519151909216600160301b029216919091179101555b945085935061233092505050565b50506040805180820190915265ffffffffffff80851682526001600160d01b0380851660208085019182528854600181018a555f8a815291822095519251909316600160301b029190931617920191909155905081612330565b80356001600160a01b0381168114612828575f80fd5b919050565b5f806040838503121561283e575f80fd5b61284783612812565b915061285560208401612812565b90509250929050565b6001600160e01b03198116811461109a575f80fd5b5f60208284031215612883575f80fd5b8135610ed68161285e565b5f5b838110156128a8578181015183820152602001612890565b50505f910152565b5f81518084526128c781602086016020860161288e565b601f01601f19169290920160200192915050565b602081525f610ed660208301846128b0565b5f602082840312156128fd575f80fd5b5035919050565b5f8060408385031215612915575f80fd5b61291e83612812565b946020939093013593505050565b5f806040838503121561293d575f80fd5b61294683612812565b915060208301356001600160801b0381168114612961575f80fd5b809150509250929050565b5f805f6060848603121561297e575f80fd5b61298784612812565b925061299560208501612812565b9150604084013590509250925092565b5f602082840312156129b5575f80fd5b610ed682612812565b80358015158114612828575f80fd5b5f805f80608085870312156129e0575f80fd5b6129e985612812565b9350602085013592506129fe60408601612812565b9150612a0c606086016129be565b905092959194509250565b5f8060408385031215612a28575f80fd5b612a3183612812565b9150602083013563ffffffff81168114612961575f80fd5b5f8083601f840112612a59575f80fd5b50813567ffffffffffffffff811115612a70575f80fd5b602083019150836020828501011115612a87575f80fd5b9250929050565b5f805f805f60808688031215612aa2575f80fd5b612aab86612812565b9450612ab960208701612812565b935060408601359250606086013567ffffffffffffffff811115612adb575f80fd5b612ae788828901612a49565b969995985093965092949392505050565b60ff60f81b881681525f602060e06020840152612b1860e084018a6128b0565b8381036040850152612b2a818a6128b0565b606085018990526001600160a01b038816608086015260a0850187905284810360c0860152855180825260208088019350909101905f5b81811015612b7d57835183529284019291840191600101612b61565b50909c9b505050505050505050505050565b5f805f60608486031215612ba1575f80fd5b612baa84612812565b925060208401359150612bbf60408501612812565b90509250925092565b5f805f8060608587031215612bdb575f80fd5b612be485612812565b935060208501359250604085013567ffffffffffffffff811115612c06575f80fd5b612c1287828801612a49565b95989497509550505050565b5f8060408385031215612c2f575f80fd5b612c3883612812565b9150612855602084016129be565b634e487b7160e01b5f52604160045260245ffd5b5f805f8060808587031215612c6d575f80fd5b612c7685612812565b9350612c8460208601612812565b925060408501359150606085013567ffffffffffffffff80821115612ca7575f80fd5b818701915087601f830112612cba575f80fd5b813581811115612ccc57612ccc612c46565b604051601f8201601f19908116603f01168101908382118183101715612cf457612cf4612c46565b816040528281528a6020848701011115612d0c575f80fd5b826020860160208301375f60208483010152809550505050505092959194509250565b5f805f805f8060c08789031215612d44575f80fd5b612d4d87612812565b95506020870135945060408701359350606087013560ff81168114612d70575f80fd5b9598949750929560808101359460a0909101359350915050565b5f805f60608486031215612d9c575f80fd5b612da584612812565b9250612db360208501612812565b9150612bbf604085016129be565b600181811c90821680612dd557607f821691505b602082108103612df357634e487b7160e01b5f52602260045260245ffd5b50919050565b5f8351612e0a81846020880161288e565b835190830190612e1e81836020880161288e565b01949350505050565b634e487b7160e01b5f52601160045260245ffd5b81810381811115610b3d57610b3d612e27565b80820180821115610b3d57610b3d612e27565b6001600160a01b03858116825284166020820152604081018390526080606082018190525f90612e93908301846128b0565b9695505050505050565b5f60208284031215612ead575f80fd5b8151610ed68161285e565b634e487b7160e01b5f52601260045260245ffd5b6001600160d01b03818116838216019080821115612eec57612eec612e27565b5092915050565b6001600160d01b03828116828216039080821115612eec57612eec612e27565b634e487b7160e01b5f52603260045260245ffd5b634e487b7160e01b5f52602160045260245ffd5b5f82612f5557634e487b7160e01b5f52601260045260245ffd5b50049056fea2646970667358221220d007bb11b4f4f3ee2acd23605fe3634ed7fce105a9dda84fc8c74f652c04e87364736f6c63430008180033",
  "linkReferences": {},
  "deployedLinkReferences": {}
}