{
  "_format": "hh-sol-artifact-1",
  "contractName": "$NoncesKeyed",
  "sourceName": "contracts-exposed/utils/NoncesKeyed.sol",
  "abi": [
    {
      "inputs": [],
      "stateMutability": "payable",
      "type": "constructor"
    },
    {
      "inputs": [
        {
          "internalType": "address",
          "name": "account",
          "type": "address"
        },
        {
          "internalType": "uint256",
          "name": "currentNonce",
          "type": "uint256"
        }
      ],
      "name": "InvalidAccountNonce",
      "type": "error"
    },
    {
      "anonymous": false,
      "inputs": [
        {
          "indexed": false,
          "internalType": "uint256",
          "name": "ret0",
          "type": "uint256"
        }
      ],
      "name": "return$_useNonce_address",
      "type": "event"
    },
    {
      "anonymous": false,
      "inputs": [
        {
          "indexed": false,
          "internalType": "uint256",
          "name": "ret0",
          "type": "uint256"
        }
      ],
      "name": "return$_useNonce_address_uint192",
      "type": "event"
    },
    {
      "inputs": [
        {
          "internalType": "address",
          "name": "owner",
          "type": "address"
        },
        {
          "internalType": "uint256",
          "name": "keyNonce",
          "type": "uint256"
        }
      ],
      "name": "$_useCheckedNonce",
      "outputs": [],
      "stateMutability": "nonpayable",
      "type": "function"
    },
    {
      "inputs": [
        {
          "internalType": "address",
          "name": "owner",
          "type": "address"
        },
        {
          "internalType": "uint192",
          "name": "key",
          "type": "uint192"
        },
        {
          "internalType": "uint64",
          "name": "nonce",
          "type": "uint64"
        }
      ],
      "name": "$_useCheckedNonce",
      "outputs": [],
      "stateMutability": "nonpayable",
      "type": "function"
    },
    {
      "inputs": [
        {
          "internalType": "address",
          "name": "owner",
          "type": "address"
        }
      ],
      "name": "$_useNonce",
      "outputs": [
        {
          "internalType": "uint256",
          "name": "ret0",
          "type": "uint256"
        }
      ],
      "stateMutability": "nonpayable",
      "type": "function"
    },
    {
      "inputs": [
        {
          "internalType": "address",
          "name": "owner",
          "type": "address"
        },
        {
          "internalType": "uint192",
          "name": "key",
          "type": "uint192"
        }
      ],
      "name": "$_useNonce",
      "outputs": [
        {
          "internalType": "uint256",
          "name": "ret0",
          "type": "uint256"
        }
      ],
      "stateMutability": "nonpayable",
      "type": "function"
    },
    {
      "inputs": [],
      "name": "__hh_exposed_bytecode_marker",
      "outputs": [
        {
          "internalType": "bytes32",
          "name": "",
          "type": "bytes32"
        }
      ],
      "stateMutability": "view",
      "type": "function"
    },
    {
      "inputs": [
        {
          "internalType": "address",
          "name": "owner",
          "type": "address"
        }
      ],
      "name": "nonces",
      "outputs": [
        {
          "internalType": "uint256",
          "name": "",
          "type": "uint256"
        }
      ],
      "stateMutability": "view",
      "type": "function"
    },
    {
      "inputs": [
        {
          "internalType": "address",
          "name": "owner",
          "type": "address"
        },
        {
          "internalType": "uint192",
          "name": "key",
          "type": "uint192"
        }
      ],
      "name": "nonces",
      "outputs": [
        {
          "internalType": "uint256",
          "name": "",
          "type": "uint256"
        }
      ],
      "stateMutability": "view",
      "type": "function"
    },
    {
      "stateMutability": "payable",
      "type": "receive"
    }
  ],
  "bytecode": "0x6080604052610557806100115f395ff3fe608060405260043610610071575f3560e01c80636e5f6ba41161004c5780636e5f6ba4146100f35780637ecebe0014610112578063be1187ae14610146578063bef3761314610165575f80fd5b80632e8fbee51461007c578063342db739146100ad5780636b4ac502146100d2575f80fd5b3661007857005b5f80fd5b348015610087575f80fd5b5061009b610096366004610449565b610184565b60405190815260200160405180910390f35b3480156100b8575f80fd5b5061009b6e1a185c991a185d0b595e1c1bdcd959608a1b81565b3480156100dd575f80fd5b506100f16100ec366004610462565b6101db565b005b3480156100fe575f80fd5b5061009b61010d3660046104a0565b6101e9565b34801561011d575f80fd5b5061009b61012c366004610449565b6001600160a01b03165f9081526020819052604090205490565b348015610151575f80fd5b506100f16101603660046104d1565b610235565b348015610170575f80fd5b5061009b61017f3660046104a0565b610245565b6001600160a01b0381165f908152602081815260409182902080546001810190915591518281527ff86f22b12b185216d3b8a3ad5f737887337bd09c83f2187baff5ae6f8eaa0838910160405180910390a1919050565b6101e582826102bb565b5050565b5f6101f4838361031c565b90507fa0f28d406b0924f198a6b917fae5c768636ed355b3e0288e03a7b7b71e3867e58160405161022791815260200190565b60405180910390a192915050565b6102408383836103aa565b505050565b5f6001600160c01b0382161561029b576001600160a01b0383165f9081526001602090815260408083206001600160c01b038616845290915290205461029690839067ffffffffffffffff166103bd565b6102b4565b6001600160a01b0383165f908152602081905260409020545b9392505050565b604081901c5f8190036102d25761024083836103dc565b5f6102dd848361031c565b9050808314610316576040516301d4b62360e61b81526001600160a01b0385166004820152602481018290526044015b60405180910390fd5b50505050565b5f6001600160c01b03821615610385576001600160a01b0383165f9081526001602081815260408084206001600160c01b0387168552909152909120805467ffffffffffffffff8082169384011667ffffffffffffffff199091161790556102969083906103bd565b6001600160a01b0383165f9081526020819052604090208054600181019091556102b4565b610240836103b884846103bd565b6102bb565b67ffffffffffffffff1660409190911b67ffffffffffffffff19161790565b6001600160a01b0382165f908152602081905260409020805460018101909155818114610240576040516301d4b62360e61b81526001600160a01b03841660048201526024810182905260440161030d565b80356001600160a01b0381168114610444575f80fd5b919050565b5f60208284031215610459575f80fd5b6102b48261042e565b5f8060408385031215610473575f80fd5b61047c8361042e565b946020939093013593505050565b80356001600160c01b0381168114610444575f80fd5b5f80604083850312156104b1575f80fd5b6104ba8361042e565b91506104c86020840161048a565b90509250929050565b5f805f606084860312156104e3575f80fd5b6104ec8461042e565b92506104fa6020850161048a565b9150604084013567ffffffffffffffff81168114610516575f80fd5b80915050925092509256fea26469706673582212204edd9ca04a346d0acbe716dced5d713414021ce85e6127a658ddf9a5730ba8e364736f6c63430008180033",
  "linkReferences": {},
  "deployedLinkReferences": {}
}