{
  "_format": "hh-sol-artifact-1",
  "contractName": "$Arrays",
  "sourceName": "contracts-exposed/utils/Arrays.sol",
  "abi": [
    {
      "inputs": [],
      "stateMutability": "payable",
      "type": "constructor"
    },
    {
      "inputs": [
        {
          "internalType": "uint256",
          "name": "array",
          "type": "uint256"
        },
        {
          "internalType": "uint256",
          "name": "element",
          "type": "uint256"
        }
      ],
      "name": "$findUpperBound",
      "outputs": [
        {
          "internalType": "uint256",
          "name": "ret0",
          "type": "uint256"
        }
      ],
      "stateMutability": "view",
      "type": "function"
    },
    {
      "inputs": [
        {
          "internalType": "uint256",
          "name": "array",
          "type": "uint256"
        },
        {
          "internalType": "uint256",
          "name": "element",
          "type": "uint256"
        }
      ],
      "name": "$lowerBound",
      "outputs": [
        {
          "internalType": "uint256",
          "name": "ret0",
          "type": "uint256"
        }
      ],
      "stateMutability": "view",
      "type": "function"
    },
    {
      "inputs": [
        {
          "internalType": "uint256[]",
          "name": "array",
          "type": "uint256[]"
        },
        {
          "internalType": "uint256",
          "name": "element",
          "type": "uint256"
        }
      ],
      "name": "$lowerBoundMemory",
      "outputs": [
        {
          "internalType": "uint256",
          "name": "ret0",
          "type": "uint256"
        }
      ],
      "stateMutability": "pure",
      "type": "function"
    },
    {
      "inputs": [
        {
          "internalType": "address[]",
          "name": "array",
          "type": "address[]"
        }
      ],
      "name": "$sort",
      "outputs": [
        {
          "internalType": "address[]",
          "name": "ret0",
          "type": "address[]"
        }
      ],
      "stateMutability": "pure",
      "type": "function"
    },
    {
      "inputs": [
        {
          "internalType": "uint256[]",
          "name": "array",
          "type": "uint256[]"
        }
      ],
      "name": "$sort",
      "outputs": [
        {
          "internalType": "uint256[]",
          "name": "ret0",
          "type": "uint256[]"
        }
      ],
      "stateMutability": "pure",
      "type": "function"
    },
    {
      "inputs": [
        {
          "internalType": "bytes32[]",
          "name": "array",
          "type": "bytes32[]"
        }
      ],
      "name": "$sort",
      "outputs": [
        {
          "internalType": "bytes32[]",
          "name": "ret0",
          "type": "bytes32[]"
        }
      ],
      "stateMutability": "pure",
      "type": "function"
    },
    {
      "inputs": [
        {
          "internalType": "uint256",
          "name": "arr",
          "type": "uint256"
        },
        {
          "internalType": "uint256",
          "name": "pos",
          "type": "uint256"
        }
      ],
      "name": "$unsafeAccess_address_",
      "outputs": [
        {
          "components": [
            {
              "internalType": "address",
              "name": "value",
              "type": "address"
            }
          ],
          "internalType": "struct StorageSlot.AddressSlot",
          "name": "ret0",
          "type": "tuple"
        }
      ],
      "stateMutability": "view",
      "type": "function"
    },
    {
      "inputs": [
        {
          "internalType": "uint256",
          "name": "arr",
          "type": "uint256"
        },
        {
          "internalType": "uint256",
          "name": "pos",
          "type": "uint256"
        }
      ],
      "name": "$unsafeAccess_bytes32_",
      "outputs": [
        {
          "components": [
            {
              "internalType": "bytes32",
              "name": "value",
              "type": "bytes32"
            }
          ],
          "internalType": "struct StorageSlot.Bytes32Slot",
          "name": "ret0",
          "type": "tuple"
        }
      ],
      "stateMutability": "view",
      "type": "function"
    },
    {
      "inputs": [
        {
          "internalType": "uint256",
          "name": "arr",
          "type": "uint256"
        },
        {
          "internalType": "uint256",
          "name": "pos",
          "type": "uint256"
        }
      ],
      "name": "$unsafeAccess_uint256_",
      "outputs": [
        {
          "components": [
            {
              "internalType": "uint256",
              "name": "value",
              "type": "uint256"
            }
          ],
          "internalType": "struct StorageSlot.Uint256Slot",
          "name": "ret0",
          "type": "tuple"
        }
      ],
      "stateMutability": "view",
      "type": "function"
    },
    {
      "inputs": [
        {
          "internalType": "address[]",
          "name": "arr",
          "type": "address[]"
        },
        {
          "internalType": "uint256",
          "name": "pos",
          "type": "uint256"
        }
      ],
      "name": "$unsafeMemoryAccess",
      "outputs": [
        {
          "internalType": "address",
          "name": "res",
          "type": "address"
        }
      ],
      "stateMutability": "pure",
      "type": "function"
    },
    {
      "inputs": [
        {
          "internalType": "uint256[]",
          "name": "arr",
          "type": "uint256[]"
        },
        {
          "internalType": "uint256",
          "name": "pos",
          "type": "uint256"
        }
      ],
      "name": "$unsafeMemoryAccess",
      "outputs": [
        {
          "internalType": "uint256",
          "name": "res",
          "type": "uint256"
        }
      ],
      "stateMutability": "pure",
      "type": "function"
    },
    {
      "inputs": [
        {
          "internalType": "bytes32[]",
          "name": "arr",
          "type": "bytes32[]"
        },
        {
          "internalType": "uint256",
          "name": "pos",
          "type": "uint256"
        }
      ],
      "name": "$unsafeMemoryAccess",
      "outputs": [
        {
          "internalType": "bytes32",
          "name": "res",
          "type": "bytes32"
        }
      ],
      "stateMutability": "pure",
      "type": "function"
    },
    {
      "inputs": [
        {
          "internalType": "uint256",
          "name": "array",
          "type": "uint256"
        },
        {
          "internalType": "uint256",
          "name": "len",
          "type": "uint256"
        }
      ],
      "name": "$unsafeSetLength_address_",
      "outputs": [],
      "stateMutability": "payable",
      "type": "function"
    },
    {
      "inputs": [
        {
          "internalType": "uint256",
          "name": "array",
          "type": "uint256"
        },
        {
          "internalType": "uint256",
          "name": "len",
          "type": "uint256"
        }
      ],
      "name": "$unsafeSetLength_bytes32_",
      "outputs": [],
      "stateMutability": "payable",
      "type": "function"
    },
    {
      "inputs": [
        {
          "internalType": "uint256",
          "name": "array",
          "type": "uint256"
        },
        {
          "internalType": "uint256",
          "name": "len",
          "type": "uint256"
        }
      ],
      "name": "$unsafeSetLength_uint256_",
      "outputs": [],
      "stateMutability": "payable",
      "type": "function"
    },
    {
      "inputs": [
        {
          "internalType": "uint256",
          "name": "array",
          "type": "uint256"
        },
        {
          "internalType": "uint256",
          "name": "element",
          "type": "uint256"
        }
      ],
      "name": "$upperBound",
      "outputs": [
        {
          "internalType": "uint256",
          "name": "ret0",
          "type": "uint256"
        }
      ],
      "stateMutability": "view",
      "type": "function"
    },
    {
      "inputs": [
        {
          "internalType": "uint256[]",
          "name": "array",
          "type": "uint256[]"
        },
        {
          "internalType": "uint256",
          "name": "element",
          "type": "uint256"
        }
      ],
      "name": "$upperBoundMemory",
      "outputs": [
        {
          "internalType": "uint256",
          "name": "ret0",
          "type": "uint256"
        }
      ],
      "stateMutability": "pure",
      "type": "function"
    },
    {
      "inputs": [],
      "name": "__hh_exposed_bytecode_marker",
      "outputs": [
        {
          "internalType": "bytes32",
          "name": "",
          "type": "bytes32"
        }
      ],
      "stateMutability": "view",
      "type": "function"
    },
    {
      "stateMutability": "payable",
      "type": "receive"
    }
  ],
  "bytecode": "0x6080604052610a61806100115f395ff3fe608060405260043610610108575f3560e01c80636eba6ed011610092578063ba69442211610062578063ba694422146102e2578063c34fa4f514610301578063d74110bd1461032f578063f54a5127146102a1578063fcd86a901461034e575f80fd5b80636eba6ed0146102755780638e5a210f146102a1578063974737ef146102bb578063a4b6a39c146102bb575f80fd5b8063342db739116100d8578063342db739146101bc57806338657a24146101e157806345bd30261461021857806357bc62ff1461023757806364494cbb14610256575f80fd5b806307c9f8c1146101135780631ba623f4146101455780632ab9cf1014610166578063319edfdc1461019d575f80fd5b3661010f57005b5f80fd5b34801561011e575f80fd5b5061013261012d366004610860565b61036d565b6040519081526020015b60405180910390f35b610164610153366004610860565b5f9182526002602052604090912055565b005b348015610171575f80fd5b50610185610180366004610860565b61038b565b60405190516001600160a01b0316815260200161013c565b3480156101a8575f80fd5b506101326101b73660046108c8565b6103cf565b3480156101c7575f80fd5b506101326e1a185c991a185d0b595e1c1bdcd959608a1b81565b3480156101ec575f80fd5b506102006101fb3660046108c8565b610415565b6040516001600160a01b03909116815260200161013c565b348015610223575f80fd5b50610132610232366004610860565b610453565b348015610242575f80fd5b50610132610251366004610860565b61046a565b610164610264366004610860565b5f9182526001602052604090912055565b348015610280575f80fd5b5061029461028f366004610910565b610481565b60405161013c919061094f565b3480156102ac575f80fd5b506101326101fb3660046108c8565b3480156102c6575f80fd5b506102d561028f366004610910565b60405161013c919061099b565b3480156102ed575f80fd5b506101326102fc3660046108c8565b6104be565b34801561030c575f80fd5b5061032061031b366004610860565b6104fc565b6040519051815260200161013c565b61016461033d366004610860565b5f9182526020829052604090912055565b348015610359575f80fd5b50610320610368366004610860565b610537565b5f828152602081905260408120610384908361055c565b9392505050565b60408051602081019091525f81525f8381526001602052604090206103b090836105b9565b604080516020810190915290546001600160a01b031681529392505050565b5f61040d8484808060200260200160405190810160405280939291908181526020018383602002808284375f920191909152508692506105d8915050565b949350505050565b5f61040d8484808060200260200160405190810160405280939291908181526020018383602002808284375f9201919091525086925061062a915050565b5f8281526020819052604081206103849083610638565b5f82815260208190526040812061038490836106d5565b60606103848383808060200260200160405190810160405280939291908181526020018383602002808284375f9201919091525061072892505050565b5f61040d8484808060200260200160405190810160405280939291908181526020018383602002808284375f9201919091525086925061073d915050565b60408051602081019091525f81525f83815260026020526040902061052190836105b9565b6040805160208101909152905481529392505050565b60408051602081019091525f81525f83815260208190526040902061052190836105b9565b81545f908190808203610573575f925050506105b3565b808210156105af575f610586838361078f565b90508461059387836105b9565b5410156105a5578060010192506105a9565b8091505b50610573565b5090505b92915050565b5f8261040d6105d5846105d1845f9081526020902090565b0190565b90565b81515f9081908082036105ef575f925050506105b3565b808210156105af575f610602838361078f565b60208082028801015190915085111561062057806001019250610624565b8091505b506105ef565b602090810291909101015190565b81545f90819080820361064f575f925050506105b3565b80821015610692575f610662838361078f565b90508461066f87836105b9565b54111561067e5780915061068c565b6106898160016109e6565b92505b5061064f565b5f821180156106b45750836106b1866106ac6001866109f9565b6105b9565b54145b156106cd576106c46001836109f9565b925050506105b3565b5090506105b3565b81545f9081908082036106ec575f925050506105b3565b808210156105af575f6106ff838361078f565b90508461070c87836105b9565b54111561071b57809150610722565b8060010192505b506106ec565b6060610736826107a96107ad565b5090919050565b81515f908190808203610754575f925050506105b3565b808210156105af575f610767838361078f565b60208082028801015190915085101561078257809150610789565b8060010192505b50610754565b5f61079d6002848418610a0c565b610384908484166109e6565b1190565b6060610736602084016107bf856107c5565b846107dc565b5f81516020026107d58360200190565b0192915050565b604083830310156107ec57505050565b5f6107f5845190565b905083602081015b848110156108375761081a610810825190565b848663ffffffff16565b1561082f576020919091018051825182528252905b6020016107fd565b50845181518652815261084b8582856107dc565b6108598160200185856107dc565b5050505050565b5f8060408385031215610871575f80fd5b50508035926020909101359150565b5f8083601f840112610890575f80fd5b50813567ffffffffffffffff8111156108a7575f80fd5b6020830191508360208260051b85010111156108c1575f80fd5b9250929050565b5f805f604084860312156108da575f80fd5b833567ffffffffffffffff8111156108f0575f80fd5b6108fc86828701610880565b909790965060209590950135949350505050565b5f8060208385031215610921575f80fd5b823567ffffffffffffffff811115610937575f80fd5b61094385828601610880565b90969095509350505050565b602080825282518282018190525f9190848201906040850190845b8181101561098f5783516001600160a01b03168352928401929184019160010161096a565b50909695505050505050565b602080825282518282018190525f9190848201906040850190845b8181101561098f578351835292840192918401916001016109b6565b634e487b7160e01b5f52601160045260245ffd5b808201808211156105b3576105b36109d2565b818103818111156105b3576105b36109d2565b5f82610a2657634e487b7160e01b5f52601260045260245ffd5b50049056fea264697066735822122068bac04ced63b19054c576fc018db05e34cbfe3c78a7b7b8a0f783da053e5c3664736f6c63430008180033",
  "linkReferences": {},
  "deployedLinkReferences": {}
}