{
  "_format": "hh-sol-artifact-1",
  "contractName": "$ERC1271WalletMock",
  "sourceName": "contracts-exposed/mocks/ERC1271WalletMock.sol",
  "abi": [
    {
      "inputs": [
        {
          "internalType": "address",
          "name": "originalOwner",
          "type": "address"
        }
      ],
      "stateMutability": "payable",
      "type": "constructor"
    },
    {
      "inputs": [],
      "name": "ECDSAInvalidSignature",
      "type": "error"
    },
    {
      "inputs": [
        {
          "internalType": "uint256",
          "name": "length",
          "type": "uint256"
        }
      ],
      "name": "ECDSAInvalidSignatureLength",
      "type": "error"
    },
    {
      "inputs": [
        {
          "internalType": "bytes32",
          "name": "s",
          "type": "bytes32"
        }
      ],
      "name": "ECDSAInvalidSignatureS",
      "type": "error"
    },
    {
      "inputs": [
        {
          "internalType": "address",
          "name": "owner",
          "type": "address"
        }
      ],
      "name": "OwnableInvalidOwner",
      "type": "error"
    },
    {
      "inputs": [
        {
          "internalType": "address",
          "name": "account",
          "type": "address"
        }
      ],
      "name": "OwnableUnauthorizedAccount",
      "type": "error"
    },
    {
      "anonymous": false,
      "inputs": [
        {
          "indexed": true,
          "internalType": "address",
          "name": "previousOwner",
          "type": "address"
        },
        {
          "indexed": true,
          "internalType": "address",
          "name": "newOwner",
          "type": "address"
        }
      ],
      "name": "OwnershipTransferred",
      "type": "event"
    },
    {
      "inputs": [],
      "name": "$_checkOwner",
      "outputs": [],
      "stateMutability": "view",
      "type": "function"
    },
    {
      "inputs": [],
      "name": "$_contextSuffixLength",
      "outputs": [
        {
          "internalType": "uint256",
          "name": "ret0",
          "type": "uint256"
        }
      ],
      "stateMutability": "view",
      "type": "function"
    },
    {
      "inputs": [],
      "name": "$_msgData",
      "outputs": [
        {
          "internalType": "bytes",
          "name": "ret0",
          "type": "bytes"
        }
      ],
      "stateMutability": "view",
      "type": "function"
    },
    {
      "inputs": [],
      "name": "$_msgSender",
      "outputs": [
        {
          "internalType": "address",
          "name": "ret0",
          "type": "address"
        }
      ],
      "stateMutability": "view",
      "type": "function"
    },
    {
      "inputs": [
        {
          "internalType": "address",
          "name": "newOwner",
          "type": "address"
        }
      ],
      "name": "$_transferOwnership",
      "outputs": [],
      "stateMutability": "nonpayable",
      "type": "function"
    },
    {
      "inputs": [],
      "name": "__hh_exposed_bytecode_marker",
      "outputs": [
        {
          "internalType": "bytes32",
          "name": "",
          "type": "bytes32"
        }
      ],
      "stateMutability": "view",
      "type": "function"
    },
    {
      "inputs": [
        {
          "internalType": "bytes32",
          "name": "hash",
          "type": "bytes32"
        },
        {
          "internalType": "bytes",
          "name": "signature",
          "type": "bytes"
        }
      ],
      "name": "isValidSignature",
      "outputs": [
        {
          "internalType": "bytes4",
          "name": "magicValue",
          "type": "bytes4"
        }
      ],
      "stateMutability": "view",
      "type": "function"
    },
    {
      "inputs": [],
      "name": "owner",
      "outputs": [
        {
          "internalType": "address",
          "name": "",
          "type": "address"
        }
      ],
      "stateMutability": "view",
      "type": "function"
    },
    {
      "inputs": [],
      "name": "renounceOwnership",
      "outputs": [],
      "stateMutability": "nonpayable",
      "type": "function"
    },
    {
      "inputs": [
        {
          "internalType": "address",
          "name": "newOwner",
          "type": "address"
        }
      ],
      "name": "transferOwnership",
      "outputs": [],
      "stateMutability": "nonpayable",
      "type": "function"
    },
    {
      "stateMutability": "payable",
      "type": "receive"
    }
  ],
  "bytecode": "0x608060405260405161079e38038061079e833981016040819052610022916100b1565b80806001600160a01b03811661005157604051631e4fbdf760e01b81525f600482015260240160405180910390fd5b61005a81610062565b5050506100de565b5f80546001600160a01b038381166001600160a01b0319831681178455604051919092169283917f8be0079c531659141344cd1fd0a4f28419497f9722a3daafe3b4186f6b6457e09190a35050565b5f602082840312156100c1575f80fd5b81516001600160a01b03811681146100d7575f80fd5b9392505050565b6106b3806100eb5f395ff3fe608060405260043610610092575f3560e01c8063715018a611610057578063715018a6146101665780638da5cb5b1461017c578063ebcca70714610198578063f2fde38b146101ac578063fe1c9a24146101cb575f80fd5b80631626ba7e1461009d5780632904df29146100da57806332cadf3c14610100578063342db7391461012157806367354a8414610154575f80fd5b3661009957005b5f80fd5b3480156100a8575f80fd5b506100bc6100b7366004610542565b6101ea565b6040516001600160e01b031990911681526020015b60405180910390f35b3480156100e5575f80fd5b50335b6040516001600160a01b0390911681526020016100d1565b34801561010b575f80fd5b50610114610224565b6040516100d191906105f7565b34801561012c575f80fd5b506101466e1a185c991a185d0b595e1c1bdcd959608a1b81565b6040519081526020016100d1565b34801561015f575f80fd5b505f610146565b348015610171575f80fd5b5061017a610261565b005b348015610187575f80fd5b505f546001600160a01b03166100e8565b3480156101a3575f80fd5b5061017a610274565b3480156101b7575f80fd5b5061017a6101c6366004610643565b61027c565b3480156101d6575f80fd5b5061017a6101e5366004610643565b6102b2565b5f80546001600160a01b031661020084846102be565b6001600160a01b031614610214575f61021d565b630b135d3f60e11b5b9392505050565b60605f368080601f0160208091040260200160405190810160405280939291908181526020018383808284375f9201919091525092949350505050565b6102696102e6565b6102725f610312565b565b6102726102e6565b6102846102e6565b6001600160a01b0381166102b257604051631e4fbdf760e01b81525f60048201526024015b60405180910390fd5b6102bb81610312565b50565b5f805f806102cc8686610361565b9250925092506102dc82826103aa565b5090949350505050565b5f546001600160a01b031633146102725760405163118cdaa760e01b81523360048201526024016102a9565b5f80546001600160a01b038381166001600160a01b0319831681178455604051919092169283917f8be0079c531659141344cd1fd0a4f28419497f9722a3daafe3b4186f6b6457e09190a35050565b5f805f8351604103610398576020840151604085015160608601515f1a61038a88828585610466565b9550955095505050506103a3565b505081515f91506002905b9250925092565b5f8260038111156103bd576103bd610669565b036103c6575050565b60018260038111156103da576103da610669565b036103f85760405163f645eedf60e01b815260040160405180910390fd5b600282600381111561040c5761040c610669565b0361042d5760405163fce698f760e01b8152600481018290526024016102a9565b600382600381111561044157610441610669565b03610462576040516335e2f38360e21b8152600481018290526024016102a9565b5050565b5f80807f7fffffffffffffffffffffffffffffff5d576e7357a4501ddfe92f46681b20a084111561049f57505f91506003905082610524565b604080515f808252602082018084528a905260ff891692820192909252606081018790526080810186905260019060a0016020604051602081039080840390855afa1580156104f0573d5f803e3d5ffd5b5050604051601f1901519150506001600160a01b03811661051b57505f925060019150829050610524565b92505f91508190505b9450945094915050565b634e487b7160e01b5f52604160045260245ffd5b5f8060408385031215610553575f80fd5b82359150602083013567ffffffffffffffff80821115610571575f80fd5b818501915085601f830112610584575f80fd5b8135818111156105965761059661052e565b604051601f8201601f19908116603f011681019083821181831017156105be576105be61052e565b816040528281528860208487010111156105d6575f80fd5b826020860160208301375f6020848301015280955050505050509250929050565b5f602080835283518060208501525f5b8181101561062357858101830151858201604001528201610607565b505f604082860101526040601f19601f8301168501019250505092915050565b5f60208284031215610653575f80fd5b81356001600160a01b038116811461021d575f80fd5b634e487b7160e01b5f52602160045260245ffdfea26469706673582212201af85e771333a67089fffe627e676601efbd8ae4c5f9f4058fb2adaffe1f9ecd64736f6c63430008180033",
  "linkReferences": {},
  "deployedLinkReferences": {}
}