{
  "_format": "hh-sol-artifact-1",
  "contractName": "$ERC1967Proxy",
  "sourceName": "contracts-exposed/proxy/ERC1967/ERC1967Proxy.sol",
  "abi": [
    {
      "inputs": [
        {
          "internalType": "address",
          "name": "implementation",
          "type": "address"
        },
        {
          "internalType": "bytes",
          "name": "_data",
          "type": "bytes"
        }
      ],
      "stateMutability": "payable",
      "type": "constructor"
    },
    {
      "inputs": [
        {
          "internalType": "address",
          "name": "target",
          "type": "address"
        }
      ],
      "name": "AddressEmptyCode",
      "type": "error"
    },
    {
      "inputs": [
        {
          "internalType": "address",
          "name": "implementation",
          "type": "address"
        }
      ],
      "name": "ERC1967InvalidImplementation",
      "type": "error"
    },
    {
      "inputs": [],
      "name": "ERC1967NonPayable",
      "type": "error"
    },
    {
      "inputs": [],
      "name": "FailedCall",
      "type": "error"
    },
    {
      "anonymous": false,
      "inputs": [
        {
          "indexed": true,
          "internalType": "address",
          "name": "implementation",
          "type": "address"
        }
      ],
      "name": "Upgraded",
      "type": "event"
    },
    {
      "stateMutability": "payable",
      "type": "fallback"
    },
    {
      "inputs": [
        {
          "internalType": "address",
          "name": "implementation",
          "type": "address"
        }
      ],
      "name": "$_delegate",
      "outputs": [],
      "stateMutability": "nonpayable",
      "type": "function"
    },
    {
      "inputs": [],
      "name": "$_fallback",
      "outputs": [],
      "stateMutability": "nonpayable",
      "type": "function"
    },
    {
      "inputs": [],
      "name": "$_implementation",
      "outputs": [
        {
          "internalType": "address",
          "name": "ret0",
          "type": "address"
        }
      ],
      "stateMutability": "view",
      "type": "function"
    },
    {
      "inputs": [],
      "name": "__hh_exposed_bytecode_marker",
      "outputs": [
        {
          "internalType": "bytes32",
          "name": "",
          "type": "bytes32"
        }
      ],
      "stateMutability": "view",
      "type": "function"
    },
    {
      "stateMutability": "payable",
      "type": "receive"
    }
  ],
  "bytecode": "0x608060405260405161052338038061052383398101604081905261002291610262565b818161002e8282610037565b50505050610345565b61004082610095565b6040516001600160a01b038316907fbc7cd75a20ee27fd9adebab32041f755214dbc6bffa90cc0225b39da2e5c2d3b905f90a2805115610089576100848282610110565b505050565b610091610183565b5050565b806001600160a01b03163b5f036100cf57604051634c9c8ce360e01b81526001600160a01b03821660048201526024015b60405180910390fd5b7f360894a13ba1a3210667c828492db98dca3e2076cc3735a920a3ca505d382bbc80546001600160a01b0319166001600160a01b0392909216919091179055565b60605f80846001600160a01b03168460405161012c919061032a565b5f60405180830381855af49150503d805f8114610164576040519150601f19603f3d011682016040523d82523d5f602084013e610169565b606091505b50909250905061017a8583836101a4565b95945050505050565b34156101a25760405163b398979f60e01b815260040160405180910390fd5b565b6060826101b9576101b482610203565b6101fc565b81511580156101d057506001600160a01b0384163b155b156101f957604051639996b31560e01b81526001600160a01b03851660048201526024016100c6565b50805b9392505050565b8051156102135780518082602001fd5b60405163d6bda27560e01b815260040160405180910390fd5b634e487b7160e01b5f52604160045260245ffd5b5f5b8381101561025a578181015183820152602001610242565b50505f910152565b5f8060408385031215610273575f80fd5b82516001600160a01b0381168114610289575f80fd5b60208401519092506001600160401b03808211156102a5575f80fd5b818501915085601f8301126102b8575f80fd5b8151818111156102ca576102ca61022c565b604051601f8201601f19908116603f011681019083821181831017156102f2576102f261022c565b8160405282815288602084870101111561030a575f80fd5b61031b836020830160208801610240565b80955050505050509250929050565b5f825161033b818460208701610240565b9190910192915050565b6101d1806103525f395ff3fe608060405260043610610042575f3560e01c8063342db73914610053578063515f8df01461008b578063ee8d6399146100b7578063f49367aa146100cb57610049565b3661004957005b6100516100ea565b005b34801561005e575f80fd5b506100786e1a185c991a185d0b595e1c1bdcd959608a1b81565b6040519081526020015b60405180910390f35b348015610096575f80fd5b5061009f6100fc565b6040516001600160a01b039091168152602001610082565b3480156100c2575f80fd5b5061005161010a565b3480156100d6575f80fd5b506100516100e536600461016e565b610112565b6100fa6100f561011e565b610150565b565b5f61010561011e565b905090565b6100fa6100ea565b61011b81610150565b50565b5f6101057f360894a13ba1a3210667c828492db98dca3e2076cc3735a920a3ca505d382bbc546001600160a01b031690565b365f80375f80365f845af43d5f803e80801561016a573d5ff35b3d5ffd5b5f6020828403121561017e575f80fd5b81356001600160a01b0381168114610194575f80fd5b939250505056fea264697066735822122063a6a84872624793703a2f1f402725075c7f6cab938db8bfbdc52e376eef3e5464736f6c63430008180033",
  "linkReferences": {},
  "deployedLinkReferences": {}
}