{
  "_format": "hh-sol-artifact-1",
  "contractName": "$P256",
  "sourceName": "contracts-exposed/utils/cryptography/P256.sol",
  "abi": [
    {
      "inputs": [],
      "stateMutability": "payable",
      "type": "constructor"
    },
    {
      "inputs": [
        {
          "internalType": "address",
          "name": "",
          "type": "address"
        }
      ],
      "name": "MissingPrecompile",
      "type": "error"
    },
    {
      "inputs": [],
      "name": "$A",
      "outputs": [
        {
          "internalType": "uint256",
          "name": "",
          "type": "uint256"
        }
      ],
      "stateMutability": "pure",
      "type": "function"
    },
    {
      "inputs": [],
      "name": "$B",
      "outputs": [
        {
          "internalType": "uint256",
          "name": "",
          "type": "uint256"
        }
      ],
      "stateMutability": "pure",
      "type": "function"
    },
    {
      "inputs": [],
      "name": "$GX",
      "outputs": [
        {
          "internalType": "uint256",
          "name": "",
          "type": "uint256"
        }
      ],
      "stateMutability": "pure",
      "type": "function"
    },
    {
      "inputs": [],
      "name": "$GY",
      "outputs": [
        {
          "internalType": "uint256",
          "name": "",
          "type": "uint256"
        }
      ],
      "stateMutability": "pure",
      "type": "function"
    },
    {
      "inputs": [],
      "name": "$N",
      "outputs": [
        {
          "internalType": "uint256",
          "name": "",
          "type": "uint256"
        }
      ],
      "stateMutability": "pure",
      "type": "function"
    },
    {
      "inputs": [],
      "name": "$P",
      "outputs": [
        {
          "internalType": "uint256",
          "name": "",
          "type": "uint256"
        }
      ],
      "stateMutability": "pure",
      "type": "function"
    },
    {
      "inputs": [
        {
          "internalType": "bytes32",
          "name": "x",
          "type": "bytes32"
        },
        {
          "internalType": "bytes32",
          "name": "y",
          "type": "bytes32"
        }
      ],
      "name": "$isValidPublicKey",
      "outputs": [
        {
          "internalType": "bool",
          "name": "result",
          "type": "bool"
        }
      ],
      "stateMutability": "pure",
      "type": "function"
    },
    {
      "inputs": [
        {
          "internalType": "bytes32",
          "name": "h",
          "type": "bytes32"
        },
        {
          "internalType": "uint8",
          "name": "v",
          "type": "uint8"
        },
        {
          "internalType": "bytes32",
          "name": "r",
          "type": "bytes32"
        },
        {
          "internalType": "bytes32",
          "name": "s",
          "type": "bytes32"
        }
      ],
      "name": "$recovery",
      "outputs": [
        {
          "internalType": "bytes32",
          "name": "x",
          "type": "bytes32"
        },
        {
          "internalType": "bytes32",
          "name": "y",
          "type": "bytes32"
        }
      ],
      "stateMutability": "view",
      "type": "function"
    },
    {
      "inputs": [
        {
          "internalType": "bytes32",
          "name": "h",
          "type": "bytes32"
        },
        {
          "internalType": "bytes32",
          "name": "r",
          "type": "bytes32"
        },
        {
          "internalType": "bytes32",
          "name": "s",
          "type": "bytes32"
        },
        {
          "internalType": "bytes32",
          "name": "qx",
          "type": "bytes32"
        },
        {
          "internalType": "bytes32",
          "name": "qy",
          "type": "bytes32"
        }
      ],
      "name": "$verify",
      "outputs": [
        {
          "internalType": "bool",
          "name": "ret0",
          "type": "bool"
        }
      ],
      "stateMutability": "view",
      "type": "function"
    },
    {
      "inputs": [
        {
          "internalType": "bytes32",
          "name": "h",
          "type": "bytes32"
        },
        {
          "internalType": "bytes32",
          "name": "r",
          "type": "bytes32"
        },
        {
          "internalType": "bytes32",
          "name": "s",
          "type": "bytes32"
        },
        {
          "internalType": "bytes32",
          "name": "qx",
          "type": "bytes32"
        },
        {
          "internalType": "bytes32",
          "name": "qy",
          "type": "bytes32"
        }
      ],
      "name": "$verifyNative",
      "outputs": [
        {
          "internalType": "bool",
          "name": "ret0",
          "type": "bool"
        }
      ],
      "stateMutability": "view",
      "type": "function"
    },
    {
      "inputs": [
        {
          "internalType": "bytes32",
          "name": "h",
          "type": "bytes32"
        },
        {
          "internalType": "bytes32",
          "name": "r",
          "type": "bytes32"
        },
        {
          "internalType": "bytes32",
          "name": "s",
          "type": "bytes32"
        },
        {
          "internalType": "bytes32",
          "name": "qx",
          "type": "bytes32"
        },
        {
          "internalType": "bytes32",
          "name": "qy",
          "type": "bytes32"
        }
      ],
      "name": "$verifySolidity",
      "outputs": [
        {
          "internalType": "bool",
          "name": "ret0",
          "type": "bool"
        }
      ],
      "stateMutability": "view",
      "type": "function"
    },
    {
      "inputs": [],
      "name": "__hh_exposed_bytecode_marker",
      "outputs": [
        {
          "internalType": "bytes32",
          "name": "",
          "type": "bytes32"
        }
      ],
      "stateMutability": "view",
      "type": "function"
    },
    {
      "stateMutability": "payable",
      "type": "receive"
    }
  ],
  "bytecode": "0x6080604052610fbb806100115f395ff3fe6080604052600436106100a8575f3560e01c80635d7a5a90116100625780635d7a5a90146101aa5780637142cb18146101c9578063757582c3146101fb57806396204ae91461022f578063f668fda71461024e578063fd556ddc1461026d575f80fd5b80630e1a9c62146100b357806325a59e32146100e157806327ea31bc14610101578063342db7391461012457806341af30fc14610149578063592cdff714610178575f80fd5b366100af57005b5f80fd5b3480156100be575f80fd5b505f80516020610f668339815191525b6040519081526020015b60405180910390f35b3480156100ec575f80fd5b50600160601b63ffffffff60c01b03196100ce565b34801561010c575f80fd5b506003600160601b0363ffffffff60c01b03196100ce565b34801561012f575f80fd5b506100ce6e1a185c991a185d0b595e1c1bdcd959608a1b81565b348015610154575f80fd5b50610168610163366004610e1e565b61029f565b60405190151581526020016100d8565b348015610183575f80fd5b507f5ac635d8aa3a93e7b3ebbd55769886bc651d06b0cc53b0f63bce3c3e27d2604b6100ce565b3480156101b5575f80fd5b506101686101c4366004610e55565b6102b7565b3480156101d4575f80fd5b507f6b17d1f2e12c4247f8bce6e563a440f277037d812deb33a0f4a13945d898c2966100ce565b348015610206575f80fd5b5061021a610215366004610e75565b6102c9565b604080519283526020830191909152016100d8565b34801561023a575f80fd5b50610168610249366004610e1e565b6102e4565b348015610259575f80fd5b50610168610268366004610e1e565b6102f2565b348015610278575f80fd5b507f4fe342e2fe1a7f9b8ee7eb4a7c0f9e162bce33576b315ececbb6406837bf51f56100ce565b5f6102ad8686868686610300565b9695505050505050565b5f6102c2838361033b565b9392505050565b5f806102d78686868661039f565b9097909650945050505050565b5f6102ad868686868661052d565b5f6102ad8686868686610570565b5f805f6103108888888888610620565b915091508061032b576103268888888888610570565b61032d565b815b925050505b95945050505050565b5f600160601b63ffffffff60c01b031980838409817f5ac635d8aa3a93e7b3ebbd55769886bc651d06b0cc53b0f63bce3c3e27d2604b8387856003600160601b0363ffffffff60c01b0319878b8c0908090894821191909310169190921416919050565b5f806103ab848461071d565b15806103ba575060018560ff16115b156103c957505f905080610524565b600160601b63ffffffff60c01b0319845f827f5ac635d8aa3a93e7b3ebbd55769886bc651d06b0cc53b0f63bce3c3e27d2604b8184816003600160601b0363ffffffff60c01b03198188890908090890505f61043d8273ffffffff00000001000000000000000000000001605e1b86610777565b905081848061044e5761044e610eb4565b8283091461046657505f945084935061052492505050565b60ff8916610475600283610ec8565b14610487576104848185610ee7565b90505b5f6104928483610798565b90505f6104ac8a5f80516020610f6683398151915261098b565b90505f5f80516020610f66833981519152825f80516020610f668339815191528f5f1c6104d99190610ec8565b6104f0905f80516020610f66833981519152610ee7565b0990505f5f80516020610f66833981519152838c0990505f8061051486858561099a565b909c509a50505050505050505050505b94509492505050565b5f805f61053d8888888888610620565b91509150801561054f57509050610332565b6040516321580de760e11b8152610100600482015260240160405180910390fd5b5f61057b858561071d565b158061058e575061058c838361033b565b155b1561059a57505f610332565b5f6105a58484610798565b90505f6105bf865f80516020610f6683398151915261098b565b90505f5f80516020610f66833981519152828a0990505f5f80516020610f66833981519152838a0990505f6105f585848461099a565b509050896106105f80516020610f6683398151915283610ec8565b149b9a5050505050505050505050565b5f8061062c868661071d565b158061063f575061063d848461033b565b155b1561064f57505f90506001610713565b6040805160208101899052908101879052606081018690526080810185905260a081018490525f9081906101009060c00160408051601f198184030181529082905261069a91610f06565b5f60405180830381855afa9150503d805f81146106d2576040519150601f19603f3d011682016040523d82523d5f602084013e6106d7565b606091505b50915091508180156106ea575080516020145b6106f5575f8061070c565b808060200190518101906107099190610f32565b60015b9350935050505b9550959350505050565b5f821580159061073957505f80516020610f6683398151915283105b801561074457508115155b80156102c25750507f7fffffff800000007fffffffffffffffde737d56d38bcf4279dce5617e3192a88111155b92915050565b5f805f610785868686610abe565b9150915081610332576103326012610b10565b6107a0610dd7565b60405180606001604052805f81526020015f81526020015f815250815f601081106107cd576107cd610f51565b6020020181905250604051806060016040528084815260200183815260200160018152508160016010811061080457610804610f51565b602002018190525060405180606001604052807f6b17d1f2e12c4247f8bce6e563a440f277037d812deb33a0f4a13945d898c29681526020017f4fe342e2fe1a7f9b8ee7eb4a7c0f9e162bce33576b315ececbb6406837bf51f5815260200160018152508160046010811061087b5761087b610f51565b60200201526108918160015b6020020151610b21565b60408201526108a1816004610887565b61010082015260208101516108be908260025b6020020151610b7d565b60608201526108d78160015b60200201518260046108b4565b60a08201526108e78160026108ca565b60c08201526108f78160036108ca565b60e08201526109108160015b60200201518260086108b4565b610120820152610921816002610903565b610140820152610932816003610903565b610160820152610943816004610903565b61018082015261095d8160015b602002015182600c6108b4565b6101a082015261096e816002610950565b6101c082015261097f816003610950565b6101e082015292915050565b5f6102c2836002840384610777565b5f805f805f805b6080811015610aa25781156109d5576109bb848484610bdb565b919550935091506109cd848484610bdb565b919550935091505b600c60fc89901c1660fe88901c178981601081106109f5576109f5610f51565b60200201516040015115610a8e57825f03610a6457898160108110610a1c57610a1c610f51565b6020020151518a8260108110610a3457610a34610f51565b6020020151602001518b8360108110610a4f57610a4f610f51565b60200201516040015191965094509250610a8e565b610a868a8260108110610a7957610a79610f51565b6020020151868686610c5e565b919650945092505b50600297881b979690961b956001016109a1565b50610aae838383610d8a565b945094505050505b935093915050565b5f80825f03610ad157505f905080610ab6565b60405160208152602080820152602060408201528560608201528460808201528360a082015260205f60c08360055afa9250505f519050935093915050565b634e487b715f52806020526024601cfd5b610b4260405180606001604052805f81526020015f81526020015f81525090565b5f805f610b5b855f015186602001518760400151610bdb565b6040805160608101825293845260208401929092529082015295945050505050565b610b9e60405180606001604052805f81526020015f81526020015f81525090565b5f805f610bb886865f015187602001518860400151610c5e565b604080516060810182529384526020840192909252908201529695505050505050565b5f805f600160601b63ffffffff60c01b031980868709818687098283848384096003600160601b0363ffffffff60c01b03190984858c8d096003090890508283838b09600409838482600209850385848509089650838485858609600809850385868a880385088509089550505050808186880960020991505093509350939050565b5f805f600160601b63ffffffff60c01b0319604088015181818209828388858a8b090960208c0151098381850385868686098c090884858a8b098d51098581870387868f0908935081158415168015610cbe5760018114610d0457610d79565b868586098788898386096002098903898a848a098b038b88890908089a5087888983890987098903898a8e8c038c8689090887090899505086878c880986099750610d79565b8c8c8c898283098a8283098b8c8d8384096003600160601b0363ffffffff60c01b0319098d8e8889096003090890508b8c83870960040994508b8c866002098d038d838409089e508b8c8384096008098c0391508b8f8d03860894508b828d878409089d505050898a8284096002099a505050505b505050505050509450945094915050565b5f80825f03610d9d57505f905080610ab6565b600160601b63ffffffff60c01b03195f610db7858361098b565b905081818209828189099450828383830988099350505050935093915050565b6040518061020001604052806010905b610e0860405180606001604052805f81526020015f81526020015f81525090565b815260200190600190039081610de75790505090565b5f805f805f60a08688031215610e32575f80fd5b505083359560208501359550604085013594606081013594506080013592509050565b5f8060408385031215610e66575f80fd5b50508035926020909101359150565b5f805f8060808587031215610e88575f80fd5b84359350602085013560ff81168114610e9f575f80fd5b93969395505050506040820135916060013590565b634e487b7160e01b5f52601260045260245ffd5b5f82610ee257634e487b7160e01b5f52601260045260245ffd5b500690565b8181038181111561077157634e487b7160e01b5f52601160045260245ffd5b5f82515f5b81811015610f255760208186018101518583015201610f0b565b505f920191825250919050565b5f60208284031215610f42575f80fd5b815180151581146102c2575f80fd5b634e487b7160e01b5f52603260045260245ffdfeffffffff00000000ffffffffffffffffbce6faada7179e84f3b9cac2fc632551a2646970667358221220586f3ff1d3b3619f2a72bd8727070ff89b878da065b86d0a8b53372d589ce5ea64736f6c63430008180033",
  "linkReferences": {},
  "deployedLinkReferences": {}
}