{
  "_format": "hh-sol-artifact-1",
  "contractName": "$Create2",
  "sourceName": "contracts-exposed/utils/Create2.sol",
  "abi": [
    {
      "inputs": [],
      "stateMutability": "payable",
      "type": "constructor"
    },
    {
      "inputs": [],
      "name": "Create2EmptyBytecode",
      "type": "error"
    },
    {
      "inputs": [],
      "name": "FailedDeployment",
      "type": "error"
    },
    {
      "inputs": [
        {
          "internalType": "uint256",
          "name": "balance",
          "type": "uint256"
        },
        {
          "internalType": "uint256",
          "name": "needed",
          "type": "uint256"
        }
      ],
      "name": "InsufficientBalance",
      "type": "error"
    },
    {
      "anonymous": false,
      "inputs": [
        {
          "indexed": false,
          "internalType": "address",
          "name": "addr",
          "type": "address"
        }
      ],
      "name": "return$deploy",
      "type": "event"
    },
    {
      "inputs": [
        {
          "internalType": "bytes32",
          "name": "salt",
          "type": "bytes32"
        },
        {
          "internalType": "bytes32",
          "name": "bytecodeHash",
          "type": "bytes32"
        },
        {
          "internalType": "address",
          "name": "deployer",
          "type": "address"
        }
      ],
      "name": "$computeAddress",
      "outputs": [
        {
          "internalType": "address",
          "name": "addr",
          "type": "address"
        }
      ],
      "stateMutability": "pure",
      "type": "function"
    },
    {
      "inputs": [
        {
          "internalType": "bytes32",
          "name": "salt",
          "type": "bytes32"
        },
        {
          "internalType": "bytes32",
          "name": "bytecodeHash",
          "type": "bytes32"
        }
      ],
      "name": "$computeAddress",
      "outputs": [
        {
          "internalType": "address",
          "name": "ret0",
          "type": "address"
        }
      ],
      "stateMutability": "view",
      "type": "function"
    },
    {
      "inputs": [
        {
          "internalType": "uint256",
          "name": "amount",
          "type": "uint256"
        },
        {
          "internalType": "bytes32",
          "name": "salt",
          "type": "bytes32"
        },
        {
          "internalType": "bytes",
          "name": "bytecode",
          "type": "bytes"
        }
      ],
      "name": "$deploy",
      "outputs": [
        {
          "internalType": "address",
          "name": "addr",
          "type": "address"
        }
      ],
      "stateMutability": "payable",
      "type": "function"
    },
    {
      "inputs": [],
      "name": "__hh_exposed_bytecode_marker",
      "outputs": [
        {
          "internalType": "bytes32",
          "name": "",
          "type": "bytes32"
        }
      ],
      "stateMutability": "view",
      "type": "function"
    },
    {
      "stateMutability": "payable",
      "type": "receive"
    }
  ],
  "bytecode": "0x6080604052610381806100115f395ff3fe608060405260043610610041575f3560e01c8063094773f81461004c578063342db7391461007c5780635f1e2f36146100af5780637a4584c7146100ce575f80fd5b3661004857005b5f80fd5b61005f61005a366004610271565b6100ed565b6040516001600160a01b0390911681526020015b60405180910390f35b348015610087575f80fd5b506100a16e1a185c991a185d0b595e1c1bdcd959608a1b81565b604051908152602001610073565b3480156100ba575f80fd5b5061005f6100c93660046102ea565b610175565b3480156100d9575f80fd5b5061005f6100e836600461032b565b610189565b5f61012e858585858080601f0160208091040260200160405190810160405280939291908181526020018383808284375f9201919091525061019b92505050565b6040516001600160a01b03821681529091507fa55d29f67e248dc28cbff80485b993032a0100d61c339bed56fddf9f066426269060200160405180910390a1949350505050565b5f610181848484610233565b949350505050565b5f6101948383610265565b9392505050565b5f834710156101ca5760405163cf47918160e01b81524760048201526024810185905260440160405180910390fd5b81515f036101eb57604051631328927760e21b815260040160405180910390fd5b8282516020840186f590503d15198115161561020c576040513d5f823e3d81fd5b6001600160a01b0381166101945760405163b06ebf3d60e01b815260040160405180910390fd5b5f604051836040820152846020820152828152600b8101905060ff8153605590206001600160a01b0316949350505050565b5f610194838330610233565b5f805f8060608587031215610284575f80fd5b8435935060208501359250604085013567ffffffffffffffff808211156102a9575f80fd5b818701915087601f8301126102bc575f80fd5b8135818111156102ca575f80fd5b8860208285010111156102db575f80fd5b95989497505060200194505050565b5f805f606084860312156102fc575f80fd5b833592506020840135915060408401356001600160a01b0381168114610320575f80fd5b809150509250925092565b5f806040838503121561033c575f80fd5b5050803592602090910135915056fea2646970667358221220dd73ac7ed49717c31e2d3c5ef627ee4d444c129d9d63c17c494f301acb8fe03664736f6c63430008180033",
  "linkReferences": {},
  "deployedLinkReferences": {}
}