{
  "_format": "hh-sol-artifact-1",
  "contractName": "$Bytes",
  "sourceName": "contracts-exposed/utils/Bytes.sol",
  "abi": [
    {
      "inputs": [],
      "stateMutability": "payable",
      "type": "constructor"
    },
    {
      "inputs": [
        {
          "internalType": "bytes",
          "name": "buffer",
          "type": "bytes"
        },
        {
          "internalType": "bytes1",
          "name": "s",
          "type": "bytes1"
        }
      ],
      "name": "$indexOf",
      "outputs": [
        {
          "internalType": "uint256",
          "name": "ret0",
          "type": "uint256"
        }
      ],
      "stateMutability": "pure",
      "type": "function"
    },
    {
      "inputs": [
        {
          "internalType": "bytes",
          "name": "buffer",
          "type": "bytes"
        },
        {
          "internalType": "bytes1",
          "name": "s",
          "type": "bytes1"
        },
        {
          "internalType": "uint256",
          "name": "pos",
          "type": "uint256"
        }
      ],
      "name": "$indexOf",
      "outputs": [
        {
          "internalType": "uint256",
          "name": "ret0",
          "type": "uint256"
        }
      ],
      "stateMutability": "pure",
      "type": "function"
    },
    {
      "inputs": [
        {
          "internalType": "bytes",
          "name": "buffer",
          "type": "bytes"
        },
        {
          "internalType": "bytes1",
          "name": "s",
          "type": "bytes1"
        }
      ],
      "name": "$lastIndexOf",
      "outputs": [
        {
          "internalType": "uint256",
          "name": "ret0",
          "type": "uint256"
        }
      ],
      "stateMutability": "pure",
      "type": "function"
    },
    {
      "inputs": [
        {
          "internalType": "bytes",
          "name": "buffer",
          "type": "bytes"
        },
        {
          "internalType": "bytes1",
          "name": "s",
          "type": "bytes1"
        },
        {
          "internalType": "uint256",
          "name": "pos",
          "type": "uint256"
        }
      ],
      "name": "$lastIndexOf",
      "outputs": [
        {
          "internalType": "uint256",
          "name": "ret0",
          "type": "uint256"
        }
      ],
      "stateMutability": "pure",
      "type": "function"
    },
    {
      "inputs": [
        {
          "internalType": "bytes",
          "name": "buffer",
          "type": "bytes"
        },
        {
          "internalType": "uint256",
          "name": "start",
          "type": "uint256"
        },
        {
          "internalType": "uint256",
          "name": "end",
          "type": "uint256"
        }
      ],
      "name": "$slice",
      "outputs": [
        {
          "internalType": "bytes",
          "name": "ret0",
          "type": "bytes"
        }
      ],
      "stateMutability": "pure",
      "type": "function"
    },
    {
      "inputs": [
        {
          "internalType": "bytes",
          "name": "buffer",
          "type": "bytes"
        },
        {
          "internalType": "uint256",
          "name": "start",
          "type": "uint256"
        }
      ],
      "name": "$slice",
      "outputs": [
        {
          "internalType": "bytes",
          "name": "ret0",
          "type": "bytes"
        }
      ],
      "stateMutability": "pure",
      "type": "function"
    },
    {
      "inputs": [],
      "name": "__hh_exposed_bytecode_marker",
      "outputs": [
        {
          "internalType": "bytes32",
          "name": "",
          "type": "bytes32"
        }
      ],
      "stateMutability": "view",
      "type": "function"
    },
    {
      "stateMutability": "payable",
      "type": "receive"
    }
  ],
  "bytecode": "0x60806040526106e7806100115f395ff3fe608060405260043610610071575f3560e01c80633b2be7561161004c5780633b2be756146100f2578063a0a3cfe21461011e578063c164f75d1461013d578063f52496a91461015c575f80fd5b80630d3799b41461007c57806323283a84146100ae578063342db739146100cd575f80fd5b3661007857005b5f80fd5b348015610087575f80fd5b5061009b6100963660046104f5565b61017b565b6040519081526020015b60405180910390f35b3480156100b9575f80fd5b5061009b6100c83660046104f5565b6101c4565b3480156100d8575f80fd5b5061009b6e1a185c991a185d0b595e1c1bdcd959608a1b81565b3480156100fd575f80fd5b5061011161010c366004610545565b610205565b6040516100a59190610592565b348015610129575f80fd5b5061009b6101383660046105de565b610252565b348015610148575f80fd5b50610111610157366004610636565b610295565b348015610167575f80fd5b5061009b6101763660046105de565b6102d7565b5f6101bc84848080601f0160208091040260200160405190810160405280939291908181526020018383808284375f9201919091525086925061031a915050565b949350505050565b5f6101bc84848080601f0160208091040260200160405190810160405280939291908181526020018383808284375f9201919091525086925061032f915050565b606061024985858080601f0160208091040260200160405190810160405280939291908181526020018383808284375f9201919091525087925086915061033c9050565b95945050505050565b5f61024985858080601f0160208091040260200160405190810160405280939291908181526020018383808284375f920191909152508792508691506103d69050565b60606101bc84848080601f0160208091040260200160405190810160405280939291908181526020018383808284375f92019190915250869250610428915050565b5f61024985858080601f0160208091040260200160405190810160405280939291908181526020018383808284375f920191909152508792508691506104369050565b5f61032683835f6103d6565b90505b92915050565b5f61032683835f19610436565b825160609061035583825f828218828410028218610326565b925061036b84845f828218828410028218610326565b93505f610378858561067e565b67ffffffffffffffff8111156103905761039061069d565b6040519080825280601f01601f1916602001820160405280156103ba576020820181803683370190505b509050848403602086018701602083015e9150505b9392505050565b82515f90825b8181101561041c576001600160f81b031985166103fc8783016020015190565b6001600160f81b031916036104145791506103cf9050565b6001016103dc565b505f1995945050505050565b60606103268383855161033c565b82515f9081610452845f1984015f828218828410028218610326565b60010190505b801561041c57601f81870101516001600160f81b03198616906001600160f81b0319160361048c575f190191506103cf9050565b5f1901610458565b5f8083601f8401126104a4575f80fd5b50813567ffffffffffffffff8111156104bb575f80fd5b6020830191508360208285010111156104d2575f80fd5b9250929050565b80356001600160f81b0319811681146104f0575f80fd5b919050565b5f805f60408486031215610507575f80fd5b833567ffffffffffffffff81111561051d575f80fd5b61052986828701610494565b909450925061053c9050602085016104d9565b90509250925092565b5f805f8060608587031215610558575f80fd5b843567ffffffffffffffff81111561056e575f80fd5b61057a87828801610494565b90989097506020870135966040013595509350505050565b5f602080835283518060208501525f5b818110156105be578581018301518582016040015282016105a2565b505f604082860101526040601f19601f8301168501019250505092915050565b5f805f80606085870312156105f1575f80fd5b843567ffffffffffffffff811115610607575f80fd5b61061387828801610494565b90955093506106269050602086016104d9565b9396929550929360400135925050565b5f805f60408486031215610648575f80fd5b833567ffffffffffffffff81111561065e575f80fd5b61066a86828701610494565b909790965060209590950135949350505050565b8181038181111561032957634e487b7160e01b5f52601160045260245ffd5b634e487b7160e01b5f52604160045260245ffdfea264697066735822122016c2662a372f4c96bf8d5c04692e002d42489389d64f62e8ac99f2ebdc01cb0464736f6c63430008180033",
  "linkReferences": {},
  "deployedLinkReferences": {}
}