{
  "_format": "hh-sol-artifact-1",
  "contractName": "$MyGovernor",
  "sourceName": "contracts-exposed/mocks/docs/governance/MyGovernor.sol",
  "abi": [
    {
      "inputs": [
        {
          "internalType": "contract IVotes",
          "name": "_token",
          "type": "address"
        },
        {
          "internalType": "contract TimelockController",
          "name": "_timelock",
          "type": "address"
        }
      ],
      "stateMutability": "payable",
      "type": "constructor"
    },
    {
      "inputs": [],
      "name": "CheckpointUnorderedInsertion",
      "type": "error"
    },
    {
      "inputs": [],
      "name": "FailedCall",
      "type": "error"
    },
    {
      "inputs": [
        {
          "internalType": "address",
          "name": "voter",
          "type": "address"
        }
      ],
      "name": "GovernorAlreadyCastVote",
      "type": "error"
    },
    {
      "inputs": [
        {
          "internalType": "uint256",
          "name": "proposalId",
          "type": "uint256"
        }
      ],
      "name": "GovernorAlreadyQueuedProposal",
      "type": "error"
    },
    {
      "inputs": [],
      "name": "GovernorDisabledDeposit",
      "type": "error"
    },
    {
      "inputs": [
        {
          "internalType": "address",
          "name": "proposer",
          "type": "address"
        },
        {
          "internalType": "uint256",
          "name": "votes",
          "type": "uint256"
        },
        {
          "internalType": "uint256",
          "name": "threshold",
          "type": "uint256"
        }
      ],
      "name": "GovernorInsufficientProposerVotes",
      "type": "error"
    },
    {
      "inputs": [
        {
          "internalType": "uint256",
          "name": "targets",
          "type": "uint256"
        },
        {
          "internalType": "uint256",
          "name": "calldatas",
          "type": "uint256"
        },
        {
          "internalType": "uint256",
          "name": "values",
          "type": "uint256"
        }
      ],
      "name": "GovernorInvalidProposalLength",
      "type": "error"
    },
    {
      "inputs": [
        {
          "internalType": "uint256",
          "name": "quorumNumerator",
          "type": "uint256"
        },
        {
          "internalType": "uint256",
          "name": "quorumDenominator",
          "type": "uint256"
        }
      ],
      "name": "GovernorInvalidQuorumFraction",
      "type": "error"
    },
    {
      "inputs": [
        {
          "internalType": "address",
          "name": "voter",
          "type": "address"
        }
      ],
      "name": "GovernorInvalidSignature",
      "type": "error"
    },
    {
      "inputs": [],
      "name": "GovernorInvalidVoteParams",
      "type": "error"
    },
    {
      "inputs": [],
      "name": "GovernorInvalidVoteType",
      "type": "error"
    },
    {
      "inputs": [
        {
          "internalType": "uint256",
          "name": "votingPeriod",
          "type": "uint256"
        }
      ],
      "name": "GovernorInvalidVotingPeriod",
      "type": "error"
    },
    {
      "inputs": [
        {
          "internalType": "uint256",
          "name": "proposalId",
          "type": "uint256"
        }
      ],
      "name": "GovernorNonexistentProposal",
      "type": "error"
    },
    {
      "inputs": [
        {
          "internalType": "uint256",
          "name": "proposalId",
          "type": "uint256"
        }
      ],
      "name": "GovernorNotQueuedProposal",
      "type": "error"
    },
    {
      "inputs": [
        {
          "internalType": "address",
          "name": "account",
          "type": "address"
        }
      ],
      "name": "GovernorOnlyExecutor",
      "type": "error"
    },
    {
      "inputs": [
        {
          "internalType": "address",
          "name": "account",
          "type": "address"
        }
      ],
      "name": "GovernorOnlyProposer",
      "type": "error"
    },
    {
      "inputs": [],
      "name": "GovernorQueueNotImplemented",
      "type": "error"
    },
    {
      "inputs": [
        {
          "internalType": "address",
          "name": "proposer",
          "type": "address"
        }
      ],
      "name": "GovernorRestrictedProposer",
      "type": "error"
    },
    {
      "inputs": [
        {
          "internalType": "uint256",
          "name": "proposalId",
          "type": "uint256"
        },
        {
          "internalType": "enum IGovernor.ProposalState",
          "name": "current",
          "type": "uint8"
        },
        {
          "internalType": "bytes32",
          "name": "expectedStates",
          "type": "bytes32"
        }
      ],
      "name": "GovernorUnexpectedProposalState",
      "type": "error"
    },
    {
      "inputs": [
        {
          "internalType": "address",
          "name": "account",
          "type": "address"
        },
        {
          "internalType": "uint256",
          "name": "currentNonce",
          "type": "uint256"
        }
      ],
      "name": "InvalidAccountNonce",
      "type": "error"
    },
    {
      "inputs": [],
      "name": "InvalidShortString",
      "type": "error"
    },
    {
      "inputs": [
        {
          "internalType": "uint8",
          "name": "bits",
          "type": "uint8"
        },
        {
          "internalType": "uint256",
          "name": "value",
          "type": "uint256"
        }
      ],
      "name": "SafeCastOverflowedUintDowncast",
      "type": "error"
    },
    {
      "inputs": [
        {
          "internalType": "string",
          "name": "str",
          "type": "string"
        }
      ],
      "name": "StringTooLong",
      "type": "error"
    },
    {
      "anonymous": false,
      "inputs": [],
      "name": "EIP712DomainChanged",
      "type": "event"
    },
    {
      "anonymous": false,
      "inputs": [
        {
          "indexed": false,
          "internalType": "uint256",
          "name": "proposalId",
          "type": "uint256"
        }
      ],
      "name": "ProposalCanceled",
      "type": "event"
    },
    {
      "anonymous": false,
      "inputs": [
        {
          "indexed": false,
          "internalType": "uint256",
          "name": "proposalId",
          "type": "uint256"
        },
        {
          "indexed": false,
          "internalType": "address",
          "name": "proposer",
          "type": "address"
        },
        {
          "indexed": false,
          "internalType": "address[]",
          "name": "targets",
          "type": "address[]"
        },
        {
          "indexed": false,
          "internalType": "uint256[]",
          "name": "values",
          "type": "uint256[]"
        },
        {
          "indexed": false,
          "internalType": "string[]",
          "name": "signatures",
          "type": "string[]"
        },
        {
          "indexed": false,
          "internalType": "bytes[]",
          "name": "calldatas",
          "type": "bytes[]"
        },
        {
          "indexed": false,
          "internalType": "uint256",
          "name": "voteStart",
          "type": "uint256"
        },
        {
          "indexed": false,
          "internalType": "uint256",
          "name": "voteEnd",
          "type": "uint256"
        },
        {
          "indexed": false,
          "internalType": "string",
          "name": "description",
          "type": "string"
        }
      ],
      "name": "ProposalCreated",
      "type": "event"
    },
    {
      "anonymous": false,
      "inputs": [
        {
          "indexed": false,
          "internalType": "uint256",
          "name": "proposalId",
          "type": "uint256"
        }
      ],
      "name": "ProposalExecuted",
      "type": "event"
    },
    {
      "anonymous": false,
      "inputs": [
        {
          "indexed": false,
          "internalType": "uint256",
          "name": "proposalId",
          "type": "uint256"
        },
        {
          "indexed": false,
          "internalType": "uint256",
          "name": "etaSeconds",
          "type": "uint256"
        }
      ],
      "name": "ProposalQueued",
      "type": "event"
    },
    {
      "anonymous": false,
      "inputs": [
        {
          "indexed": false,
          "internalType": "uint256",
          "name": "oldQuorumNumerator",
          "type": "uint256"
        },
        {
          "indexed": false,
          "internalType": "uint256",
          "name": "newQuorumNumerator",
          "type": "uint256"
        }
      ],
      "name": "QuorumNumeratorUpdated",
      "type": "event"
    },
    {
      "anonymous": false,
      "inputs": [
        {
          "indexed": false,
          "internalType": "address",
          "name": "oldTimelock",
          "type": "address"
        },
        {
          "indexed": false,
          "internalType": "address",
          "name": "newTimelock",
          "type": "address"
        }
      ],
      "name": "TimelockChange",
      "type": "event"
    },
    {
      "anonymous": false,
      "inputs": [
        {
          "indexed": true,
          "internalType": "address",
          "name": "voter",
          "type": "address"
        },
        {
          "indexed": false,
          "internalType": "uint256",
          "name": "proposalId",
          "type": "uint256"
        },
        {
          "indexed": false,
          "internalType": "uint8",
          "name": "support",
          "type": "uint8"
        },
        {
          "indexed": false,
          "internalType": "uint256",
          "name": "weight",
          "type": "uint256"
        },
        {
          "indexed": false,
          "internalType": "string",
          "name": "reason",
          "type": "string"
        }
      ],
      "name": "VoteCast",
      "type": "event"
    },
    {
      "anonymous": false,
      "inputs": [
        {
          "indexed": true,
          "internalType": "address",
          "name": "voter",
          "type": "address"
        },
        {
          "indexed": false,
          "internalType": "uint256",
          "name": "proposalId",
          "type": "uint256"
        },
        {
          "indexed": false,
          "internalType": "uint8",
          "name": "support",
          "type": "uint8"
        },
        {
          "indexed": false,
          "internalType": "uint256",
          "name": "weight",
          "type": "uint256"
        },
        {
          "indexed": false,
          "internalType": "string",
          "name": "reason",
          "type": "string"
        },
        {
          "indexed": false,
          "internalType": "bytes",
          "name": "params",
          "type": "bytes"
        }
      ],
      "name": "VoteCastWithParams",
      "type": "event"
    },
    {
      "anonymous": false,
      "inputs": [
        {
          "indexed": false,
          "internalType": "uint256",
          "name": "ret0",
          "type": "uint256"
        }
      ],
      "name": "return$_cancel",
      "type": "event"
    },
    {
      "anonymous": false,
      "inputs": [
        {
          "indexed": false,
          "internalType": "uint256",
          "name": "ret0",
          "type": "uint256"
        }
      ],
      "name": "return$_castVote_uint256_address_uint8_string",
      "type": "event"
    },
    {
      "anonymous": false,
      "inputs": [
        {
          "indexed": false,
          "internalType": "uint256",
          "name": "ret0",
          "type": "uint256"
        }
      ],
      "name": "return$_castVote_uint256_address_uint8_string_bytes",
      "type": "event"
    },
    {
      "anonymous": false,
      "inputs": [
        {
          "indexed": false,
          "internalType": "uint256",
          "name": "ret0",
          "type": "uint256"
        }
      ],
      "name": "return$_countVote",
      "type": "event"
    },
    {
      "anonymous": false,
      "inputs": [
        {
          "indexed": false,
          "internalType": "uint256",
          "name": "proposalId",
          "type": "uint256"
        }
      ],
      "name": "return$_propose",
      "type": "event"
    },
    {
      "anonymous": false,
      "inputs": [
        {
          "indexed": false,
          "internalType": "uint48",
          "name": "ret0",
          "type": "uint48"
        }
      ],
      "name": "return$_queueOperations",
      "type": "event"
    },
    {
      "anonymous": false,
      "inputs": [
        {
          "indexed": false,
          "internalType": "uint256",
          "name": "ret0",
          "type": "uint256"
        }
      ],
      "name": "return$_useNonce",
      "type": "event"
    },
    {
      "inputs": [],
      "name": "$_EIP712Name",
      "outputs": [
        {
          "internalType": "string",
          "name": "ret0",
          "type": "string"
        }
      ],
      "stateMutability": "view",
      "type": "function"
    },
    {
      "inputs": [],
      "name": "$_EIP712Version",
      "outputs": [
        {
          "internalType": "string",
          "name": "ret0",
          "type": "string"
        }
      ],
      "stateMutability": "view",
      "type": "function"
    },
    {
      "inputs": [
        {
          "internalType": "address[]",
          "name": "targets",
          "type": "address[]"
        },
        {
          "internalType": "uint256[]",
          "name": "values",
          "type": "uint256[]"
        },
        {
          "internalType": "bytes[]",
          "name": "calldatas",
          "type": "bytes[]"
        },
        {
          "internalType": "bytes32",
          "name": "descriptionHash",
          "type": "bytes32"
        }
      ],
      "name": "$_cancel",
      "outputs": [
        {
          "internalType": "uint256",
          "name": "ret0",
          "type": "uint256"
        }
      ],
      "stateMutability": "nonpayable",
      "type": "function"
    },
    {
      "inputs": [
        {
          "internalType": "uint256",
          "name": "proposalId",
          "type": "uint256"
        },
        {
          "internalType": "address",
          "name": "account",
          "type": "address"
        },
        {
          "internalType": "uint8",
          "name": "support",
          "type": "uint8"
        },
        {
          "internalType": "string",
          "name": "reason",
          "type": "string"
        },
        {
          "internalType": "bytes",
          "name": "params",
          "type": "bytes"
        }
      ],
      "name": "$_castVote",
      "outputs": [
        {
          "internalType": "uint256",
          "name": "ret0",
          "type": "uint256"
        }
      ],
      "stateMutability": "nonpayable",
      "type": "function"
    },
    {
      "inputs": [
        {
          "internalType": "uint256",
          "name": "proposalId",
          "type": "uint256"
        },
        {
          "internalType": "address",
          "name": "account",
          "type": "address"
        },
        {
          "internalType": "uint8",
          "name": "support",
          "type": "uint8"
        },
        {
          "internalType": "string",
          "name": "reason",
          "type": "string"
        }
      ],
      "name": "$_castVote",
      "outputs": [
        {
          "internalType": "uint256",
          "name": "ret0",
          "type": "uint256"
        }
      ],
      "stateMutability": "nonpayable",
      "type": "function"
    },
    {
      "inputs": [],
      "name": "$_checkGovernance",
      "outputs": [],
      "stateMutability": "nonpayable",
      "type": "function"
    },
    {
      "inputs": [],
      "name": "$_contextSuffixLength",
      "outputs": [
        {
          "internalType": "uint256",
          "name": "ret0",
          "type": "uint256"
        }
      ],
      "stateMutability": "view",
      "type": "function"
    },
    {
      "inputs": [
        {
          "internalType": "uint256",
          "name": "proposalId",
          "type": "uint256"
        },
        {
          "internalType": "address",
          "name": "account",
          "type": "address"
        },
        {
          "internalType": "uint8",
          "name": "support",
          "type": "uint8"
        },
        {
          "internalType": "uint256",
          "name": "totalWeight",
          "type": "uint256"
        },
        {
          "internalType": "bytes",
          "name": "arg4",
          "type": "bytes"
        }
      ],
      "name": "$_countVote",
      "outputs": [
        {
          "internalType": "uint256",
          "name": "ret0",
          "type": "uint256"
        }
      ],
      "stateMutability": "nonpayable",
      "type": "function"
    },
    {
      "inputs": [],
      "name": "$_defaultParams",
      "outputs": [
        {
          "internalType": "bytes",
          "name": "ret0",
          "type": "bytes"
        }
      ],
      "stateMutability": "view",
      "type": "function"
    },
    {
      "inputs": [],
      "name": "$_domainSeparatorV4",
      "outputs": [
        {
          "internalType": "bytes32",
          "name": "ret0",
          "type": "bytes32"
        }
      ],
      "stateMutability": "view",
      "type": "function"
    },
    {
      "inputs": [
        {
          "internalType": "enum IGovernor.ProposalState",
          "name": "proposalState",
          "type": "uint8"
        }
      ],
      "name": "$_encodeStateBitmap",
      "outputs": [
        {
          "internalType": "bytes32",
          "name": "ret0",
          "type": "bytes32"
        }
      ],
      "stateMutability": "pure",
      "type": "function"
    },
    {
      "inputs": [
        {
          "internalType": "uint256",
          "name": "proposalId",
          "type": "uint256"
        },
        {
          "internalType": "address[]",
          "name": "targets",
          "type": "address[]"
        },
        {
          "internalType": "uint256[]",
          "name": "values",
          "type": "uint256[]"
        },
        {
          "internalType": "bytes[]",
          "name": "calldatas",
          "type": "bytes[]"
        },
        {
          "internalType": "bytes32",
          "name": "descriptionHash",
          "type": "bytes32"
        }
      ],
      "name": "$_executeOperations",
      "outputs": [],
      "stateMutability": "nonpayable",
      "type": "function"
    },
    {
      "inputs": [],
      "name": "$_executor",
      "outputs": [
        {
          "internalType": "address",
          "name": "ret0",
          "type": "address"
        }
      ],
      "stateMutability": "view",
      "type": "function"
    },
    {
      "inputs": [
        {
          "internalType": "address",
          "name": "account",
          "type": "address"
        },
        {
          "internalType": "uint256",
          "name": "timepoint",
          "type": "uint256"
        },
        {
          "internalType": "bytes",
          "name": "arg2",
          "type": "bytes"
        }
      ],
      "name": "$_getVotes",
      "outputs": [
        {
          "internalType": "uint256",
          "name": "ret0",
          "type": "uint256"
        }
      ],
      "stateMutability": "view",
      "type": "function"
    },
    {
      "inputs": [
        {
          "internalType": "bytes32",
          "name": "structHash",
          "type": "bytes32"
        }
      ],
      "name": "$_hashTypedDataV4",
      "outputs": [
        {
          "internalType": "bytes32",
          "name": "ret0",
          "type": "bytes32"
        }
      ],
      "stateMutability": "view",
      "type": "function"
    },
    {
      "inputs": [
        {
          "internalType": "address",
          "name": "proposer",
          "type": "address"
        },
        {
          "internalType": "string",
          "name": "description",
          "type": "string"
        }
      ],
      "name": "$_isValidDescriptionForProposer",
      "outputs": [
        {
          "internalType": "bool",
          "name": "ret0",
          "type": "bool"
        }
      ],
      "stateMutability": "view",
      "type": "function"
    },
    {
      "inputs": [],
      "name": "$_msgData",
      "outputs": [
        {
          "internalType": "bytes",
          "name": "ret0",
          "type": "bytes"
        }
      ],
      "stateMutability": "view",
      "type": "function"
    },
    {
      "inputs": [],
      "name": "$_msgSender",
      "outputs": [
        {
          "internalType": "address",
          "name": "ret0",
          "type": "address"
        }
      ],
      "stateMutability": "view",
      "type": "function"
    },
    {
      "inputs": [
        {
          "internalType": "address[]",
          "name": "targets",
          "type": "address[]"
        },
        {
          "internalType": "uint256[]",
          "name": "values",
          "type": "uint256[]"
        },
        {
          "internalType": "bytes[]",
          "name": "calldatas",
          "type": "bytes[]"
        },
        {
          "internalType": "string",
          "name": "description",
          "type": "string"
        },
        {
          "internalType": "address",
          "name": "proposer",
          "type": "address"
        }
      ],
      "name": "$_propose",
      "outputs": [
        {
          "internalType": "uint256",
          "name": "proposalId",
          "type": "uint256"
        }
      ],
      "stateMutability": "nonpayable",
      "type": "function"
    },
    {
      "inputs": [
        {
          "internalType": "uint256",
          "name": "proposalId",
          "type": "uint256"
        },
        {
          "internalType": "address[]",
          "name": "targets",
          "type": "address[]"
        },
        {
          "internalType": "uint256[]",
          "name": "values",
          "type": "uint256[]"
        },
        {
          "internalType": "bytes[]",
          "name": "calldatas",
          "type": "bytes[]"
        },
        {
          "internalType": "bytes32",
          "name": "descriptionHash",
          "type": "bytes32"
        }
      ],
      "name": "$_queueOperations",
      "outputs": [
        {
          "internalType": "uint48",
          "name": "ret0",
          "type": "uint48"
        }
      ],
      "stateMutability": "nonpayable",
      "type": "function"
    },
    {
      "inputs": [
        {
          "internalType": "uint256",
          "name": "proposalId",
          "type": "uint256"
        }
      ],
      "name": "$_quorumReached",
      "outputs": [
        {
          "internalType": "bool",
          "name": "ret0",
          "type": "bool"
        }
      ],
      "stateMutability": "view",
      "type": "function"
    },
    {
      "inputs": [
        {
          "internalType": "uint256",
          "name": "proposalId",
          "type": "uint256"
        }
      ],
      "name": "$_tallyUpdated",
      "outputs": [],
      "stateMutability": "nonpayable",
      "type": "function"
    },
    {
      "inputs": [
        {
          "internalType": "uint256",
          "name": "newQuorumNumerator",
          "type": "uint256"
        }
      ],
      "name": "$_updateQuorumNumerator",
      "outputs": [],
      "stateMutability": "nonpayable",
      "type": "function"
    },
    {
      "inputs": [
        {
          "internalType": "address",
          "name": "owner",
          "type": "address"
        },
        {
          "internalType": "uint256",
          "name": "nonce",
          "type": "uint256"
        }
      ],
      "name": "$_useCheckedNonce",
      "outputs": [],
      "stateMutability": "nonpayable",
      "type": "function"
    },
    {
      "inputs": [
        {
          "internalType": "address",
          "name": "owner",
          "type": "address"
        }
      ],
      "name": "$_useNonce",
      "outputs": [
        {
          "internalType": "uint256",
          "name": "ret0",
          "type": "uint256"
        }
      ],
      "stateMutability": "nonpayable",
      "type": "function"
    },
    {
      "inputs": [
        {
          "internalType": "uint256",
          "name": "proposalId",
          "type": "uint256"
        },
        {
          "internalType": "bytes32",
          "name": "allowedStates",
          "type": "bytes32"
        }
      ],
      "name": "$_validateStateBitmap",
      "outputs": [
        {
          "internalType": "enum IGovernor.ProposalState",
          "name": "ret0",
          "type": "uint8"
        }
      ],
      "stateMutability": "view",
      "type": "function"
    },
    {
      "inputs": [
        {
          "internalType": "uint256",
          "name": "proposalId",
          "type": "uint256"
        }
      ],
      "name": "$_voteSucceeded",
      "outputs": [
        {
          "internalType": "bool",
          "name": "ret0",
          "type": "bool"
        }
      ],
      "stateMutability": "view",
      "type": "function"
    },
    {
      "inputs": [],
      "name": "BALLOT_TYPEHASH",
      "outputs": [
        {
          "internalType": "bytes32",
          "name": "",
          "type": "bytes32"
        }
      ],
      "stateMutability": "view",
      "type": "function"
    },
    {
      "inputs": [],
      "name": "CLOCK_MODE",
      "outputs": [
        {
          "internalType": "string",
          "name": "",
          "type": "string"
        }
      ],
      "stateMutability": "view",
      "type": "function"
    },
    {
      "inputs": [],
      "name": "COUNTING_MODE",
      "outputs": [
        {
          "internalType": "string",
          "name": "",
          "type": "string"
        }
      ],
      "stateMutability": "pure",
      "type": "function"
    },
    {
      "inputs": [],
      "name": "EXTENDED_BALLOT_TYPEHASH",
      "outputs": [
        {
          "internalType": "bytes32",
          "name": "",
          "type": "bytes32"
        }
      ],
      "stateMutability": "view",
      "type": "function"
    },
    {
      "inputs": [],
      "name": "__hh_exposed_bytecode_marker",
      "outputs": [
        {
          "internalType": "bytes32",
          "name": "",
          "type": "bytes32"
        }
      ],
      "stateMutability": "view",
      "type": "function"
    },
    {
      "inputs": [
        {
          "internalType": "address[]",
          "name": "targets",
          "type": "address[]"
        },
        {
          "internalType": "uint256[]",
          "name": "values",
          "type": "uint256[]"
        },
        {
          "internalType": "bytes[]",
          "name": "calldatas",
          "type": "bytes[]"
        },
        {
          "internalType": "bytes32",
          "name": "descriptionHash",
          "type": "bytes32"
        }
      ],
      "name": "cancel",
      "outputs": [
        {
          "internalType": "uint256",
          "name": "",
          "type": "uint256"
        }
      ],
      "stateMutability": "nonpayable",
      "type": "function"
    },
    {
      "inputs": [
        {
          "internalType": "uint256",
          "name": "proposalId",
          "type": "uint256"
        },
        {
          "internalType": "uint8",
          "name": "support",
          "type": "uint8"
        }
      ],
      "name": "castVote",
      "outputs": [
        {
          "internalType": "uint256",
          "name": "",
          "type": "uint256"
        }
      ],
      "stateMutability": "nonpayable",
      "type": "function"
    },
    {
      "inputs": [
        {
          "internalType": "uint256",
          "name": "proposalId",
          "type": "uint256"
        },
        {
          "internalType": "uint8",
          "name": "support",
          "type": "uint8"
        },
        {
          "internalType": "address",
          "name": "voter",
          "type": "address"
        },
        {
          "internalType": "bytes",
          "name": "signature",
          "type": "bytes"
        }
      ],
      "name": "castVoteBySig",
      "outputs": [
        {
          "internalType": "uint256",
          "name": "",
          "type": "uint256"
        }
      ],
      "stateMutability": "nonpayable",
      "type": "function"
    },
    {
      "inputs": [
        {
          "internalType": "uint256",
          "name": "proposalId",
          "type": "uint256"
        },
        {
          "internalType": "uint8",
          "name": "support",
          "type": "uint8"
        },
        {
          "internalType": "string",
          "name": "reason",
          "type": "string"
        }
      ],
      "name": "castVoteWithReason",
      "outputs": [
        {
          "internalType": "uint256",
          "name": "",
          "type": "uint256"
        }
      ],
      "stateMutability": "nonpayable",
      "type": "function"
    },
    {
      "inputs": [
        {
          "internalType": "uint256",
          "name": "proposalId",
          "type": "uint256"
        },
        {
          "internalType": "uint8",
          "name": "support",
          "type": "uint8"
        },
        {
          "internalType": "string",
          "name": "reason",
          "type": "string"
        },
        {
          "internalType": "bytes",
          "name": "params",
          "type": "bytes"
        }
      ],
      "name": "castVoteWithReasonAndParams",
      "outputs": [
        {
          "internalType": "uint256",
          "name": "",
          "type": "uint256"
        }
      ],
      "stateMutability": "nonpayable",
      "type": "function"
    },
    {
      "inputs": [
        {
          "internalType": "uint256",
          "name": "proposalId",
          "type": "uint256"
        },
        {
          "internalType": "uint8",
          "name": "support",
          "type": "uint8"
        },
        {
          "internalType": "address",
          "name": "voter",
          "type": "address"
        },
        {
          "internalType": "string",
          "name": "reason",
          "type": "string"
        },
        {
          "internalType": "bytes",
          "name": "params",
          "type": "bytes"
        },
        {
          "internalType": "bytes",
          "name": "signature",
          "type": "bytes"
        }
      ],
      "name": "castVoteWithReasonAndParamsBySig",
      "outputs": [
        {
          "internalType": "uint256",
          "name": "",
          "type": "uint256"
        }
      ],
      "stateMutability": "nonpayable",
      "type": "function"
    },
    {
      "inputs": [],
      "name": "clock",
      "outputs": [
        {
          "internalType": "uint48",
          "name": "",
          "type": "uint48"
        }
      ],
      "stateMutability": "view",
      "type": "function"
    },
    {
      "inputs": [],
      "name": "eip712Domain",
      "outputs": [
        {
          "internalType": "bytes1",
          "name": "fields",
          "type": "bytes1"
        },
        {
          "internalType": "string",
          "name": "name",
          "type": "string"
        },
        {
          "internalType": "string",
          "name": "version",
          "type": "string"
        },
        {
          "internalType": "uint256",
          "name": "chainId",
          "type": "uint256"
        },
        {
          "internalType": "address",
          "name": "verifyingContract",
          "type": "address"
        },
        {
          "internalType": "bytes32",
          "name": "salt",
          "type": "bytes32"
        },
        {
          "internalType": "uint256[]",
          "name": "extensions",
          "type": "uint256[]"
        }
      ],
      "stateMutability": "view",
      "type": "function"
    },
    {
      "inputs": [
        {
          "internalType": "address[]",
          "name": "targets",
          "type": "address[]"
        },
        {
          "internalType": "uint256[]",
          "name": "values",
          "type": "uint256[]"
        },
        {
          "internalType": "bytes[]",
          "name": "calldatas",
          "type": "bytes[]"
        },
        {
          "internalType": "bytes32",
          "name": "descriptionHash",
          "type": "bytes32"
        }
      ],
      "name": "execute",
      "outputs": [
        {
          "internalType": "uint256",
          "name": "",
          "type": "uint256"
        }
      ],
      "stateMutability": "payable",
      "type": "function"
    },
    {
      "inputs": [
        {
          "internalType": "address[]",
          "name": "targets",
          "type": "address[]"
        },
        {
          "internalType": "uint256[]",
          "name": "values",
          "type": "uint256[]"
        },
        {
          "internalType": "bytes[]",
          "name": "calldatas",
          "type": "bytes[]"
        },
        {
          "internalType": "bytes32",
          "name": "descriptionHash",
          "type": "bytes32"
        }
      ],
      "name": "getProposalId",
      "outputs": [
        {
          "internalType": "uint256",
          "name": "",
          "type": "uint256"
        }
      ],
      "stateMutability": "view",
      "type": "function"
    },
    {
      "inputs": [
        {
          "internalType": "address",
          "name": "account",
          "type": "address"
        },
        {
          "internalType": "uint256",
          "name": "timepoint",
          "type": "uint256"
        }
      ],
      "name": "getVotes",
      "outputs": [
        {
          "internalType": "uint256",
          "name": "",
          "type": "uint256"
        }
      ],
      "stateMutability": "view",
      "type": "function"
    },
    {
      "inputs": [
        {
          "internalType": "address",
          "name": "account",
          "type": "address"
        },
        {
          "internalType": "uint256",
          "name": "timepoint",
          "type": "uint256"
        },
        {
          "internalType": "bytes",
          "name": "params",
          "type": "bytes"
        }
      ],
      "name": "getVotesWithParams",
      "outputs": [
        {
          "internalType": "uint256",
          "name": "",
          "type": "uint256"
        }
      ],
      "stateMutability": "view",
      "type": "function"
    },
    {
      "inputs": [
        {
          "internalType": "uint256",
          "name": "proposalId",
          "type": "uint256"
        },
        {
          "internalType": "address",
          "name": "account",
          "type": "address"
        }
      ],
      "name": "hasVoted",
      "outputs": [
        {
          "internalType": "bool",
          "name": "",
          "type": "bool"
        }
      ],
      "stateMutability": "view",
      "type": "function"
    },
    {
      "inputs": [
        {
          "internalType": "address[]",
          "name": "targets",
          "type": "address[]"
        },
        {
          "internalType": "uint256[]",
          "name": "values",
          "type": "uint256[]"
        },
        {
          "internalType": "bytes[]",
          "name": "calldatas",
          "type": "bytes[]"
        },
        {
          "internalType": "bytes32",
          "name": "descriptionHash",
          "type": "bytes32"
        }
      ],
      "name": "hashProposal",
      "outputs": [
        {
          "internalType": "uint256",
          "name": "",
          "type": "uint256"
        }
      ],
      "stateMutability": "pure",
      "type": "function"
    },
    {
      "inputs": [],
      "name": "name",
      "outputs": [
        {
          "internalType": "string",
          "name": "",
          "type": "string"
        }
      ],
      "stateMutability": "view",
      "type": "function"
    },
    {
      "inputs": [
        {
          "internalType": "address",
          "name": "owner",
          "type": "address"
        }
      ],
      "name": "nonces",
      "outputs": [
        {
          "internalType": "uint256",
          "name": "",
          "type": "uint256"
        }
      ],
      "stateMutability": "view",
      "type": "function"
    },
    {
      "inputs": [
        {
          "internalType": "address",
          "name": "",
          "type": "address"
        },
        {
          "internalType": "address",
          "name": "",
          "type": "address"
        },
        {
          "internalType": "uint256[]",
          "name": "",
          "type": "uint256[]"
        },
        {
          "internalType": "uint256[]",
          "name": "",
          "type": "uint256[]"
        },
        {
          "internalType": "bytes",
          "name": "",
          "type": "bytes"
        }
      ],
      "name": "onERC1155BatchReceived",
      "outputs": [
        {
          "internalType": "bytes4",
          "name": "",
          "type": "bytes4"
        }
      ],
      "stateMutability": "nonpayable",
      "type": "function"
    },
    {
      "inputs": [
        {
          "internalType": "address",
          "name": "",
          "type": "address"
        },
        {
          "internalType": "address",
          "name": "",
          "type": "address"
        },
        {
          "internalType": "uint256",
          "name": "",
          "type": "uint256"
        },
        {
          "internalType": "uint256",
          "name": "",
          "type": "uint256"
        },
        {
          "internalType": "bytes",
          "name": "",
          "type": "bytes"
        }
      ],
      "name": "onERC1155Received",
      "outputs": [
        {
          "internalType": "bytes4",
          "name": "",
          "type": "bytes4"
        }
      ],
      "stateMutability": "nonpayable",
      "type": "function"
    },
    {
      "inputs": [
        {
          "internalType": "address",
          "name": "",
          "type": "address"
        },
        {
          "internalType": "address",
          "name": "",
          "type": "address"
        },
        {
          "internalType": "uint256",
          "name": "",
          "type": "uint256"
        },
        {
          "internalType": "bytes",
          "name": "",
          "type": "bytes"
        }
      ],
      "name": "onERC721Received",
      "outputs": [
        {
          "internalType": "bytes4",
          "name": "",
          "type": "bytes4"
        }
      ],
      "stateMutability": "nonpayable",
      "type": "function"
    },
    {
      "inputs": [
        {
          "internalType": "uint256",
          "name": "proposalId",
          "type": "uint256"
        }
      ],
      "name": "proposalDeadline",
      "outputs": [
        {
          "internalType": "uint256",
          "name": "",
          "type": "uint256"
        }
      ],
      "stateMutability": "view",
      "type": "function"
    },
    {
      "inputs": [
        {
          "internalType": "uint256",
          "name": "proposalId",
          "type": "uint256"
        }
      ],
      "name": "proposalEta",
      "outputs": [
        {
          "internalType": "uint256",
          "name": "",
          "type": "uint256"
        }
      ],
      "stateMutability": "view",
      "type": "function"
    },
    {
      "inputs": [
        {
          "internalType": "uint256",
          "name": "proposalId",
          "type": "uint256"
        }
      ],
      "name": "proposalNeedsQueuing",
      "outputs": [
        {
          "internalType": "bool",
          "name": "",
          "type": "bool"
        }
      ],
      "stateMutability": "view",
      "type": "function"
    },
    {
      "inputs": [
        {
          "internalType": "uint256",
          "name": "proposalId",
          "type": "uint256"
        }
      ],
      "name": "proposalProposer",
      "outputs": [
        {
          "internalType": "address",
          "name": "",
          "type": "address"
        }
      ],
      "stateMutability": "view",
      "type": "function"
    },
    {
      "inputs": [
        {
          "internalType": "uint256",
          "name": "proposalId",
          "type": "uint256"
        }
      ],
      "name": "proposalSnapshot",
      "outputs": [
        {
          "internalType": "uint256",
          "name": "",
          "type": "uint256"
        }
      ],
      "stateMutability": "view",
      "type": "function"
    },
    {
      "inputs": [],
      "name": "proposalThreshold",
      "outputs": [
        {
          "internalType": "uint256",
          "name": "",
          "type": "uint256"
        }
      ],
      "stateMutability": "pure",
      "type": "function"
    },
    {
      "inputs": [
        {
          "internalType": "uint256",
          "name": "proposalId",
          "type": "uint256"
        }
      ],
      "name": "proposalVotes",
      "outputs": [
        {
          "internalType": "uint256",
          "name": "againstVotes",
          "type": "uint256"
        },
        {
          "internalType": "uint256",
          "name": "forVotes",
          "type": "uint256"
        },
        {
          "internalType": "uint256",
          "name": "abstainVotes",
          "type": "uint256"
        }
      ],
      "stateMutability": "view",
      "type": "function"
    },
    {
      "inputs": [
        {
          "internalType": "address[]",
          "name": "targets",
          "type": "address[]"
        },
        {
          "internalType": "uint256[]",
          "name": "values",
          "type": "uint256[]"
        },
        {
          "internalType": "bytes[]",
          "name": "calldatas",
          "type": "bytes[]"
        },
        {
          "internalType": "string",
          "name": "description",
          "type": "string"
        }
      ],
      "name": "propose",
      "outputs": [
        {
          "internalType": "uint256",
          "name": "",
          "type": "uint256"
        }
      ],
      "stateMutability": "nonpayable",
      "type": "function"
    },
    {
      "inputs": [
        {
          "internalType": "address[]",
          "name": "targets",
          "type": "address[]"
        },
        {
          "internalType": "uint256[]",
          "name": "values",
          "type": "uint256[]"
        },
        {
          "internalType": "bytes[]",
          "name": "calldatas",
          "type": "bytes[]"
        },
        {
          "internalType": "bytes32",
          "name": "descriptionHash",
          "type": "bytes32"
        }
      ],
      "name": "queue",
      "outputs": [
        {
          "internalType": "uint256",
          "name": "",
          "type": "uint256"
        }
      ],
      "stateMutability": "nonpayable",
      "type": "function"
    },
    {
      "inputs": [
        {
          "internalType": "uint256",
          "name": "timepoint",
          "type": "uint256"
        }
      ],
      "name": "quorum",
      "outputs": [
        {
          "internalType": "uint256",
          "name": "",
          "type": "uint256"
        }
      ],
      "stateMutability": "view",
      "type": "function"
    },
    {
      "inputs": [],
      "name": "quorumDenominator",
      "outputs": [
        {
          "internalType": "uint256",
          "name": "",
          "type": "uint256"
        }
      ],
      "stateMutability": "view",
      "type": "function"
    },
    {
      "inputs": [
        {
          "internalType": "uint256",
          "name": "timepoint",
          "type": "uint256"
        }
      ],
      "name": "quorumNumerator",
      "outputs": [
        {
          "internalType": "uint256",
          "name": "",
          "type": "uint256"
        }
      ],
      "stateMutability": "view",
      "type": "function"
    },
    {
      "inputs": [],
      "name": "quorumNumerator",
      "outputs": [
        {
          "internalType": "uint256",
          "name": "",
          "type": "uint256"
        }
      ],
      "stateMutability": "view",
      "type": "function"
    },
    {
      "inputs": [
        {
          "internalType": "address",
          "name": "target",
          "type": "address"
        },
        {
          "internalType": "uint256",
          "name": "value",
          "type": "uint256"
        },
        {
          "internalType": "bytes",
          "name": "data",
          "type": "bytes"
        }
      ],
      "name": "relay",
      "outputs": [],
      "stateMutability": "payable",
      "type": "function"
    },
    {
      "inputs": [
        {
          "internalType": "uint256",
          "name": "proposalId",
          "type": "uint256"
        }
      ],
      "name": "state",
      "outputs": [
        {
          "internalType": "enum IGovernor.ProposalState",
          "name": "",
          "type": "uint8"
        }
      ],
      "stateMutability": "view",
      "type": "function"
    },
    {
      "inputs": [
        {
          "internalType": "bytes4",
          "name": "interfaceId",
          "type": "bytes4"
        }
      ],
      "name": "supportsInterface",
      "outputs": [
        {
          "internalType": "bool",
          "name": "",
          "type": "bool"
        }
      ],
      "stateMutability": "view",
      "type": "function"
    },
    {
      "inputs": [],
      "name": "timelock",
      "outputs": [
        {
          "internalType": "address",
          "name": "",
          "type": "address"
        }
      ],
      "stateMutability": "view",
      "type": "function"
    },
    {
      "inputs": [],
      "name": "token",
      "outputs": [
        {
          "internalType": "contract IERC5805",
          "name": "",
          "type": "address"
        }
      ],
      "stateMutability": "view",
      "type": "function"
    },
    {
      "inputs": [
        {
          "internalType": "uint256",
          "name": "newQuorumNumerator",
          "type": "uint256"
        }
      ],
      "name": "updateQuorumNumerator",
      "outputs": [],
      "stateMutability": "nonpayable",
      "type": "function"
    },
    {
      "inputs": [
        {
          "internalType": "contract TimelockController",
          "name": "newTimelock",
          "type": "address"
        }
      ],
      "name": "updateTimelock",
      "outputs": [],
      "stateMutability": "nonpayable",
      "type": "function"
    },
    {
      "inputs": [],
      "name": "version",
      "outputs": [
        {
          "internalType": "string",
          "name": "",
          "type": "string"
        }
      ],
      "stateMutability": "view",
      "type": "function"
    },
    {
      "inputs": [],
      "name": "votingDelay",
      "outputs": [
        {
          "internalType": "uint256",
          "name": "",
          "type": "uint256"
        }
      ],
      "stateMutability": "pure",
      "type": "function"
    },
    {
      "inputs": [],
      "name": "votingPeriod",
      "outputs": [
        {
          "internalType": "uint256",
          "name": "",
          "type": "uint256"
        }
      ],
      "stateMutability": "pure",
      "type": "function"
    },
    {
      "stateMutability": "payable",
      "type": "receive"
    }
  ],
  "bytecode": "0x6101806040526040516200576b3803806200576b8339810160408190526200002791620005ef565b8181806004836040518060400160405280600a81526020016926bca3b7bb32b93737b960b11b81525080620000616200015360201b60201c565b6200006d825f6200016e565b610120526200007e8160016200016e565b61014052815160208084019190912060e052815190820120610100524660a0526200010b60e05161010051604080517f8b73c3c69bb8fe3d512ecc4cf759cc79239f7b179b0ffacaa9a75d522b39400f60208201529081019290925260608201524660808201523060a08201525f9060c00160405160208183030381529060405280519060200120905090565b60805250503060c0526003620001228282620006ca565b50506001600160a01b0316610160526200013c81620001a6565b50620001488162000249565b50505050506200084f565b6040805180820190915260018152603160f81b602082015290565b5f6020835110156200018d576200018583620002b2565b9050620001a0565b816200019a8482620006ca565b5060ff90505b92915050565b606480821115620001d95760405163243e544560e01b815260048101839052602481018290526044015b60405180910390fd5b5f620001e4620002f4565b905062000209620001f46200030f565b620001ff8562000390565b60089190620003c9565b505060408051828152602081018590527f0553476bf02ef2726e8ce5ced78d63e26e602e4a2257b1f559418e24b4633997910160405180910390a1505050565b600954604080516001600160a01b03928316815291831660208301527f08f74ea46ef7894f65eabfb5e6e695de773a000b47c529ab559178069b226401910160405180910390a1600980546001600160a01b0319166001600160a01b0392909216919091179055565b5f80829050601f81511115620002df578260405163305a27a960e01b8152600401620001d0919062000796565b8051620002ec82620007e4565b179392505050565b5f620003016008620003e5565b6001600160d01b0316905090565b5f6200031b6101605190565b6001600160a01b03166391ddadf46040518163ffffffff1660e01b8152600401602060405180830381865afa92505050801562000377575060408051601f3d908101601f19168201909252620003749181019062000808565b60015b6200038b576200038662000432565b905090565b919050565b5f6001600160d01b03821115620003c5576040516306dfcc6560e41b815260d0600482015260248101839052604401620001d0565b5090565b5f80620003d88585856200043e565b915091505b935093915050565b80545f90801562000429576200040f83620004026001846200082f565b5f91825260209091200190565b54660100000000000090046001600160d01b03166200042b565b5f5b9392505050565b5f6200038643620005a3565b82545f908190801562000545575f6200045e87620004026001856200082f565b805490915065ffffffffffff80821691660100000000000090046001600160d01b0316908816821115620004a557604051632520601d60e01b815260040160405180910390fd5b8765ffffffffffff168265ffffffffffff1603620004e357825465ffffffffffff1666010000000000006001600160d01b0389160217835562000536565b6040805180820190915265ffffffffffff808a1682526001600160d01b03808a1660208085019182528d54600181018f555f8f815291909120945191519092166601000000000000029216919091179101555b9450859350620003dd92505050565b50506040805180820190915265ffffffffffff80851682526001600160d01b0380851660208085019182528854600181018a555f8a8152918220955192519093166601000000000000029190931617920191909155905081620003dd565b5f65ffffffffffff821115620003c5576040516306dfcc6560e41b81526030600482015260248101839052604401620001d0565b6001600160a01b0381168114620005ec575f80fd5b50565b5f806040838503121562000601575f80fd5b82516200060e81620005d7565b60208401519092506200062181620005d7565b809150509250929050565b634e487b7160e01b5f52604160045260245ffd5b600181811c908216806200065557607f821691505b6020821081036200067457634e487b7160e01b5f52602260045260245ffd5b50919050565b601f821115620006c557805f5260205f20601f840160051c81016020851015620006a15750805b601f840160051c820191505b81811015620006c2575f8155600101620006ad565b50505b505050565b81516001600160401b03811115620006e657620006e66200062c565b620006fe81620006f7845462000640565b846200067a565b602080601f83116001811462000734575f84156200071c5750858301515b5f19600386901b1c1916600185901b1785556200078e565b5f85815260208120601f198616915b82811015620007645788860151825594840194600190910190840162000743565b50858210156200078257878501515f19600388901b60f8161c191681555b505060018460011b0185555b505050505050565b5f602080835283518060208501525f5b81811015620007c457858101830151858201604001528201620007a6565b505f604082860101526040601f19601f8301168501019250505092915050565b8051602080830151919081101562000674575f1960209190910360031b1b16919050565b5f6020828403121562000819575f80fd5b815165ffffffffffff811681146200042b575f80fd5b81810381811115620001a057634e487b7160e01b5f52601160045260245ffd5b60805160a05160c05160e05161010051610120516101405161016051614ea4620008c75f395f8181610dd90152818161143e01528181611b4e01528181611f9f0152612a4a01525f6121c901525f61213001525f6128c501525f61289d01525f6127f801525f61282201525f61284c0152614ea45ff3fe608060405260043610610424575f3560e01c806367354a8411610220578063a9a9529411610129578063d33219b4116100b3578063eb9019d411610078578063eb9019d414610d4f578063f23a6e6114610d6e578063f7a2e6e114610d8d578063f8ce560a14610dac578063fc0c546a14610dcb575f80fd5b8063d33219b414610c7c578063daf80f5f14610c99578063dd4e2ba514610cb8578063deaaa7cc14610cfd578063e488ade114610d30575f80fd5b8063c01f9e37116100f9578063c01f9e3714610bed578063c242bfc714610c0c578063c28bc2fa14610c2b578063c59057e414610c3e578063cbc1c5f314610c5d575f80fd5b8063a9a9529414610b79578063ab58fb8e14610b98578063b58131b014610948578063bc197c8114610bce575f80fd5b806391ddadf4116101aa578063a0710f051161017a578063a0710f0514610aeb578063a15697c414610b08578063a7713a7014610b27578063a890c91014610b3b578063a8f8a66814610b5a575f80fd5b806391ddadf414610a6f57806397c3d33414610a9a5780639a802a6d14610aad5780639e3db5e914610acc575f80fd5b80637b3c71d3116101f05780637b3c71d3146109b75780637d5e81e2146109d65780637ecebe00146109f557806384b0196e14610a295780638ff262e314610a50575f80fd5b806367354a84146109485780636b2f5df01461095a5780636b4ac502146109795780637235294514610998575f80fd5b8063342db7391161032d578063544ffc9c116102b75780635c501ba81161027c5780635c501ba8146108c35780635c93b6ec146108d75780635f398a14146108f65780635f8d5e741461091557806360c4247f14610929575f80fd5b8063544ffc9c146107ea57806354dc7b411461083d57806354fd4d501461085c57806356781388146108855780635b8d0e0d146108a4575f80fd5b8063452115d6116102fd578063452115d6146107655780634724aa99146107845780634abf4684146107985780634bf5d7e9146107b7578063506a6f0c146107cb575f80fd5b8063342db739146106b85780633932abb1146106dd5780633e4f49e6146106f1578063438596321461071d575f80fd5b8063174ccd82116103ae5780632e8fbee51161037e5780632e8fbee5146106145780632f2b6caa146106335780632fe3e2611461065257806332cadf3c1461068557806332f4dd9914610699575f80fd5b8063174ccd82146105bc5780632656227d146105d05780632904df29146105e35780632d63f693146105f5575f80fd5b806306fdde03116103f457806306fdde03146104e45780631164d13b14610505578063143489d014610519578063150b7a0214610565578063160cbed71461059d575f80fd5b806301ffc9a71461045f57806302a251a31461049357806304626344146104b157806306f3f9e6146104c5575f80fd5b3661045b5730610432610dfd565b6001600160a01b03161461045957604051637485328f60e11b815260040160405180910390fd5b005b5f80fd5b34801561046a575f80fd5b5061047e610479366004613a87565b610e15565b60405190151581526020015b60405180910390f35b34801561049e575f80fd5b5061c4e05b60405190815260200161048a565b3480156104bc575f80fd5b50610459610e81565b3480156104d0575f80fd5b506104596104df366004613aae565b610e8b565b3480156104ef575f80fd5b506104f8610e9c565b60405161048a9190613b12565b348015610510575f80fd5b506104f8610f2c565b348015610524575f80fd5b5061054d610533366004613aae565b5f908152600460205260409020546001600160a01b031690565b6040516001600160a01b03909116815260200161048a565b348015610570575f80fd5b5061058461057f366004613bfb565b610f36565b6040516001600160e01b0319909116815260200161048a565b3480156105a8575f80fd5b506104a36105b7366004613ddd565b610f78565b3480156105c7575f80fd5b506104f8611044565b6104a36105de366004613ddd565b61104e565b3480156105ee575f80fd5b503361054d565b348015610600575f80fd5b506104a361060f366004613aae565b6111b6565b34801561061f575f80fd5b506104a361062e366004613e66565b6111d6565b34801561063e575f80fd5b5061045961064d366004613ec8565b611220565b34801561065d575f80fd5b506104a37f3e83946653575f9a39005e1545185629e92736b7528ab20ca3816f315424a81181565b348015610690575f80fd5b506104f86112a3565b3480156106a4575f80fd5b506104a36106b3366004613fb7565b6112e0565b3480156106c3575f80fd5b506104a36e1a185c991a185d0b595e1c1bdcd959608a1b81565b3480156106e8575f80fd5b50611c206104a3565b3480156106fc575f80fd5b5061071061070b366004613aae565b61139b565b60405161048a9190614080565b348015610728575f80fd5b5061047e61073736600461408e565b5f8281526007602090815260408083206001600160a01b038516845260030190915290205460ff1692915050565b348015610770575f80fd5b506104a361077f366004613ddd565b6113a5565b34801561078f575f80fd5b5061054d611416565b3480156107a3575f80fd5b5061047e6107b2366004613aae565b61141f565b3480156107c2575f80fd5b506104f861143a565b3480156107d6575f80fd5b506104a36107e5366004613aae565b6114fa565b3480156107f5575f80fd5b50610822610804366004613aae565b5f908152600760205260409020805460018201546002909201549092565b6040805193845260208401929092529082015260600161048a565b348015610848575f80fd5b5061047e6108573660046140bc565b611504565b348015610867575f80fd5b506040805180820190915260018152603160f81b60208201526104f8565b348015610890575f80fd5b506104a361089f36600461410c565b61154c565b3480156108af575f80fd5b506104a36108be366004614136565b61156b565b3480156108ce575f80fd5b506104f86116aa565b3480156108e2575f80fd5b506104a36108f13660046141e8565b6116c0565b348015610901575f80fd5b506104a36109103660046142b4565b6117b8565b348015610920575f80fd5b506104a361180b565b348015610934575f80fd5b506104a3610943366004613aae565b611814565b348015610953575f80fd5b505f6104a3565b348015610965575f80fd5b506104a3610974366004614331565b6118a0565b348015610984575f80fd5b506104596109933660046143cb565b61194c565b3480156109a3575f80fd5b506104a36109b23660046143f5565b61195a565b3480156109c2575f80fd5b506104a36109d1366004614460565b6119cf565b3480156109e1575f80fd5b506104a36109f03660046144b5565b611a15565b348015610a00575f80fd5b506104a3610a0f366004613e66565b6001600160a01b03165f9081526002602052604090205490565b348015610a34575f80fd5b50610a3d611a57565b60405161048a979695949392919061459b565b348015610a5b575f80fd5b506104a3610a6a36600461460a565b611a99565b348015610a7a575f80fd5b50610a83611b4b565b60405165ffffffffffff909116815260200161048a565b348015610aa5575f80fd5b5060646104a3565b348015610ab8575f80fd5b506104a3610ac7366004614657565b611bd2565b348015610ad7575f80fd5b50610459610ae6366004613aae565b610e93565b348015610af6575f80fd5b50610459610b05366004613aae565b50565b348015610b13575f80fd5b506104a3610b223660046146ab565b611be5565b348015610b32575f80fd5b506104a3611bef565b348015610b46575f80fd5b50610459610b55366004613e66565b611c08565b348015610b65575f80fd5b506104a3610b74366004613ddd565b611c19565b348015610b84575f80fd5b5061047e610b93366004613aae565b611c2f565b348015610ba3575f80fd5b506104a3610bb2366004613aae565b5f9081526004602052604090206001015465ffffffffffff1690565b348015610bd9575f80fd5b50610584610be83660046146c9565b611c37565b348015610bf8575f80fd5b506104a3610c07366004613aae565b611c7a565b348015610c17575f80fd5b506104a3610c26366004614755565b611cbc565b610459610c393660046147c9565b611d44565b348015610c49575f80fd5b506104a3610c58366004613ddd565b611dc0565b348015610c68575f80fd5b506104a3610c773660046147c9565b611df9565b348015610c87575f80fd5b506009546001600160a01b031661054d565b348015610ca4575f80fd5b5061047e610cb3366004613aae565b611e3a565b348015610cc3575f80fd5b506040805180820190915260208082527f737570706f72743d627261766f2671756f72756d3d666f722c6162737461696e908201526104f8565b348015610d08575f80fd5b506104a37ff2aad550cf55f045cb27e9c559f9889fdfb6e6cdaa032301d6ea397784ae51d781565b348015610d3b575f80fd5b50610710610d4a366004614808565b611e44565b348015610d5a575f80fd5b506104a3610d693660046143cb565b611e4f565b348015610d79575f80fd5b50610584610d88366004614828565b611e6e565b348015610d98575f80fd5b50610a83610da7366004613ec8565b611eb1565b348015610db7575f80fd5b506104a3610dc6366004613aae565b611f75565b348015610dd6575f80fd5b507f000000000000000000000000000000000000000000000000000000000000000061054d565b5f610e106009546001600160a01b031690565b905090565b5f6001600160e01b031982166366defe7760e11b1480610e4557506001600160e01b031982166332a2ad4360e11b145b80610e6057506001600160e01b03198216630271189760e51b145b80610e7b57506301ffc9a760e01b6001600160e01b03198316145b92915050565b610e8961201c565b565b610e9361201c565b610b0581612094565b606060038054610eab9061488b565b80601f0160208091040260200160405190810160405280929190818152602001828054610ed79061488b565b8015610f225780601f10610ef957610100808354040283529160200191610f22565b820191905f5260205f20905b815481529060010190602001808311610f0557829003601f168201915b5050505050905090565b6060610e10612129565b5f30610f40610dfd565b6001600160a01b031614610f6757604051637485328f60e11b815260040160405180910390fd5b50630a85bd0160e11b949350505050565b5f80610f8686868686611c19565b9050610f9b81610f966004612155565b612177565b505f610faa82888888886121b4565b905065ffffffffffff811615611021575f82815260046020908152604091829020600101805465ffffffffffff191665ffffffffffff85169081179091558251858152918201527f9a2e42fd6722813d69113e7d0079d3d940171428df7373df9c7f7617cfda2892910160405180910390a161103a565b604051634844252360e11b815260040160405180910390fd5b5095945050505050565b6060610e106121c2565b5f8061105c86868686611c19565b905061107c8161106c6005612155565b6110766004612155565b17612177565b505f818152600460205260409020805460ff60f01b1916600160f01b179055306110a4610dfd565b6001600160a01b03161461112d575f5b865181101561112b57306001600160a01b03168782815181106110d9576110d96148c3565b60200260200101516001600160a01b03160361112357611123858281518110611104576111046148c3565b60200260200101518051906020012060056121ef90919063ffffffff16565b6001016110b4565b505b61113a8187878787612250565b30611143610dfd565b6001600160a01b03161415801561116f57506005546001600160801b03808216600160801b9092041614155b15611179575f6005555b6040518181527f712ae1383f79ac853f8d882153778e0260ef8f03b504e2866e0593e04d2b291f906020015b60405180910390a195945050505050565b5f90815260046020526040902054600160a01b900465ffffffffffff1690565b5f6111e082612264565b90507f8d5c13b1cd528a3e1895fdc833368c4e3af5391250c736a28e94c4fa59b3cee48160405161121391815260200190565b60405180910390a1919050565b611299888888808060200260200160405190810160405280939291908181526020018383602002808284375f9201919091525050604080516020808c0282810182019093528b82529093508b92508a9182918501908490808284375f9201919091525061129392508891508990506148d7565b85612250565b5050505050505050565b60605f368080601f0160208091040260200160405190810160405280939291908181526020018383808284375f9201919091525092949350505050565b5f61135588888888888080601f0160208091040260200160405190810160405280939291908181526020018383808284375f9201919091525050604080516020601f8c018190048102820181019092528a815292508a91508990819084018382808284375f9201919091525061228692505050565b90507fbbc294ee3436818a3742886cdeae66253f76b5be8870371c691fc6998bd341d58160405161138891815260200190565b60405180910390a1979650505050505050565b5f610e7b82612364565b5f806113b386868686611c19565b90506113c281610f965f612155565b505f818152600460205260409020546001600160a01b031633146114005760405163233d98e360e01b81523360048201526024015b60405180910390fd5b61140c8686868661249d565b9695505050505050565b5f610e10610dfd565b5f818152600760205260408120805460019091015411610e7b565b60607f00000000000000000000000000000000000000000000000000000000000000006001600160a01b0316634bf5d7e96040518163ffffffff1660e01b81526004015f60405180830381865afa9250505080156114b957506040513d5f823e601f3d908101601f191682016040526114b691908101906148e3565b60015b6114f5575060408051808201909152601d81527f6d6f64653d626c6f636b6e756d6265722666726f6d3d64656661756c74000000602082015290565b919050565b5f610e7b826124aa565b5f6115448484848080601f0160208091040260200160405190810160405280939291908181526020018383808284375f920191909152506124d692505050565b949350505050565b5f8033905061154484828560405180602001604052805f81525061255a565b5f8061162f876116297f3e83946653575f9a39005e1545185629e92736b7528ab20ca3816f315424a8118c8c8c6115a18e612264565b8d8d6040516115b192919061494b565b60405180910390208c8051906020012060405160200161160e9796959493929190968752602087019590955260ff9390931660408601526001600160a01b03919091166060850152608084015260a083015260c082015260e00190565b604051602081830303815290604052805190602001206124aa565b8561257b565b90508061165a576040516394ab6c0760e01b81526001600160a01b03881660048201526024016113f7565b61169d89888a89898080601f0160208091040260200160405190810160405280939291908181526020018383808284375f920191909152508b9250612286915050565b9998505050505050505050565b6060610e1060408051602081019091525f815290565b5f6117708a8a808060200260200160405190810160405280939291908181526020018383602002808284375f9201919091525050604080516020808e0282810182019093528d82529093508d92508c9182918501908490808284375f9201919091525061173392508a91508b90506148d7565b87878080601f0160208091040260200160405190810160405280939291908181526020018383808284375f920191909152508992506125eb915050565b90507f42716af29aa8f33be8115e9e3188a11f6a7e7d5be696f229f0762e50b2a8bda7816040516117a391815260200190565b60405180910390a19998505050505050505050565b5f8033905061180087828888888080601f0160208091040260200160405190810160405280939291908181526020018383808284375f920191909152508a9250612286915050565b979650505050505050565b5f610e106127ec565b600880545f91829061182760018461496e565b81548110611837576118376148c3565b5f918252602090912001805490915065ffffffffffff811690600160301b90046001600160d01b0316858211611879576001600160d01b031695945050505050565b61188d61188587612915565b60089061294b565b6001600160d01b03169695505050505050565b5f6119198888808060200260200160405190810160405280939291908181526020018383602002808284375f9201919091525050604080516020808c0282810182019093528b82529093508b92508a9182918501908490808284375f9201919091525061191392508891508990506148d7565b8561249d565b90507f1e0d283ef767dcb5f9efcfe0fbcac2701275d0c54fc3493502558dc018cc3ba28160405161138891815260200190565b61195682826129fa565b5050565b5f61199c86868686868080601f0160208091040260200160405190810160405280939291908181526020018383808284375f9201919091525061255a92505050565b90507fdbf058c917126a478393ed3aa13dcdc461cc19db88c176507846e6f69ca627f9816040516111a591815260200190565b5f8033905061140c86828787878080601f0160208091040260200160405190810160405280939291908181526020018383808284375f9201919091525061255a92505050565b5f33611a2181846124d6565b611a495760405163d9b3955760e01b81526001600160a01b03821660048201526024016113f7565b5f61180087878787866125eb565b5f6060805f805f6060611a68612129565b611a706121c2565b604080515f80825260208201909252600f60f81b9b939a50919850469750309650945092509050565b5f80611b06846116297ff2aad550cf55f045cb27e9c559f9889fdfb6e6cdaa032301d6ea397784ae51d7898989611acf8b612264565b60408051602081019690965285019390935260ff90911660608401526001600160a01b0316608083015260a082015260c00161160e565b905080611b31576040516394ab6c0760e01b81526001600160a01b03851660048201526024016113f7565b61140c86858760405180602001604052805f81525061255a565b5f7f00000000000000000000000000000000000000000000000000000000000000006001600160a01b03166391ddadf46040518163ffffffff1660e01b8152600401602060405180830381865afa925050508015611bc6575060408051601f3d908101601f19168201909252611bc391810190614988565b60015b6114f557610e10612a3d565b5f611544848484612a47565b9392505050565b5f610e7b82612155565b5f611bfa6008612ada565b6001600160d01b0316905090565b611c1061201c565b610b0581612b11565b5f611c2685858585611dc0565b95945050505050565b5f6001610e7b565b5f30611c41610dfd565b6001600160a01b031614611c6857604051637485328f60e11b815260040160405180910390fd5b5063bc197c8160e01b95945050505050565b5f81815260046020526040812054611cae90600160d01b810463ffffffff1690600160a01b900465ffffffffffff166149ad565b65ffffffffffff1692915050565b5f611cff8787878787878080601f0160208091040260200160405190810160405280939291908181526020018383808284375f92019190915250612b7a92505050565b90507fa17eff957f965c6ee26364f81c85c7f8c62294b8ae4ea17224d2ed00a9c882ae81604051611d3291815260200190565b60405180910390a19695505050505050565b611d4c61201c565b5f80856001600160a01b0316858585604051611d6992919061494b565b5f6040518083038185875af1925050503d805f8114611da3576040519150601f19603f3d011682016040523d82523d5f602084013e611da8565b606091505b5091509150611db78282612c76565b50505050505050565b5f84848484604051602001611dd89493929190614a5c565b60408051601f19818403018152919052805160209091012095945050505050565b5f611c26858585858080601f0160208091040260200160405190810160405280939291908181526020018383808284375f92019190915250612a4792505050565b5f610e7b82612c92565b5f611bde8383612177565b5f611bde8383611e6960408051602081019091525f815290565b612a47565b5f30611e78610dfd565b6001600160a01b031614611e9f57604051637485328f60e11b815260040160405180910390fd5b5063f23a6e6160e01b95945050505050565b5f611f2b898989808060200260200160405190810160405280939291908181526020018383602002808284375f9201919091525050604080516020808d0282810182019093528c82529093508c92508b9182918501908490808284375f92019190915250611f2592508991508a90506148d7565b866121b4565b60405165ffffffffffff821681529091507fc7d48239722ab43f0d322d3bc5b9c80a10ed2b31ea774b6ac0852b9fdbd41fd09060200160405180910390a198975050505050505050565b5f6064611f8183611814565b604051632394e7a360e21b8152600481018590526001600160a01b037f00000000000000000000000000000000000000000000000000000000000000001690638e539e8c90602401602060405180830381865afa158015611fe4573d5f803e3d5ffd5b505050506040513d601f19601f820116820180604052508101906120089190614aa6565b6120129190614abd565b610e7b9190614ae8565b33612025610dfd565b6001600160a01b03161461204e576040516347096e4760e01b81523360048201526024016113f7565b30612057610dfd565b6001600160a01b031614610e89575f803660405161207692919061494b565b604051809103902090505b8061208c6005612cc8565b036120815750565b6064808211156120c15760405163243e544560e01b815260048101839052602481018290526044016113f7565b5f6120ca611bef565b90506120e96120d7611b4b565b6120e085612d35565b60089190612d68565b505060408051828152602081018590527f0553476bf02ef2726e8ce5ced78d63e26e602e4a2257b1f559418e24b4633997910160405180910390a1505050565b6060610e107f00000000000000000000000000000000000000000000000000000000000000005f612d82565b5f8160078111156121685761216861404c565b600160ff919091161b92915050565b5f806121828461139b565b90505f8361218f83612155565b1603611bde578381846040516331b75e4d60e01b81526004016113f793929190614b07565b5f61140c8686868686612e2b565b6060610e107f00000000000000000000000000000000000000000000000000000000000000006001612d82565b81546001600160801b03600160801b82048116918116600183019091160361221b5761221b6041612fc8565b6001600160801b038082165f90815260018086016020526040909120939093558354919092018216600160801b029116179055565b61225d8585858585612fd9565b5050505050565b6001600160a01b03165f90815260026020526040902080546001810190915590565b5f61229586610f966001612155565b505f6122aa866122a4896111b6565b85612a47565b90505f6122ba8888888588612b7a565b905083515f0361231057866001600160a01b03167fb8e138887d0aa13bab447e82de9d5c1777041ecd21ca36ba824ff1e6c07ddda4898884896040516123039493929190614b29565b60405180910390a2611800565b866001600160a01b03167fe2babfbac5889a709b63bb7f598b324e08bc5a4fb9ec647fb3cbc9ec07eb87128988848989604051612351959493929190614b50565b60405180910390a2979650505050505050565b5f8061236f83613069565b905060058160078111156123855761238561404c565b146123905792915050565b5f838152600a602052604090819020546009549151632c258a9f60e11b81526004810182905290916001600160a01b03169063584b153e90602401602060405180830381865afa1580156123e6573d5f803e3d5ffd5b505050506040513d601f19601f8201168201806040525081019061240a9190614b89565b15612419575060059392505050565b600954604051632ab0f52960e01b8152600481018390526001600160a01b0390911690632ab0f52990602401602060405180830381865afa158015612460573d5f803e3d5ffd5b505050506040513d601f19601f820116820180604052508101906124849190614b89565b15612493575060079392505050565b5060029392505050565b5f611c268585858561319a565b5f610e7b6124b66127ec565b8360405161190160f01b8152600281019290925260228201526042902090565b80515f9060348110156124ed576001915050610e7b565b60131981840101516001600160b01b03198116692370726f706f7365723d60b01b1461251e57600192505050610e7b565b5f8061252e86602a860386613231565b915091508115806118005750866001600160a01b0316816001600160a01b031614979650505050505050565b5f611c268585858561257660408051602081019091525f815290565b612286565b5f836001600160a01b03163b5f036125d9575f8061259985856132da565b5090925090505f8160038111156125b2576125b261404c565b1480156125d05750856001600160a01b0316826001600160a01b0316145b92505050611bde565b6125e4848484613323565b9050611bde565b5f6125ff8686868680519060200120611c19565b90508451865114158061261457508351865114155b8061261e57508551155b1561265357855184518651604051630447b05d60e41b81526004810193909352602483019190915260448201526064016113f7565b5f81815260046020526040902054600160a01b900465ffffffffffff161561269c578061267f8261139b565b6040516331b75e4d60e01b81526113f79291905f90600401614b07565b5f611c206126a8611b4b565b65ffffffffffff166126ba9190614ba8565b90505f61c4e05f84815260046020526040902080546001600160a01b0319166001600160a01b0387161781559091506126f283612915565b815465ffffffffffff91909116600160a01b0265ffffffffffff60a01b1990911617815561271f826133f9565b815463ffffffff91909116600160d01b0263ffffffff60d01b1990911617815588517f7d84a6263ae0d98d3329bd7b46bb4e8d6f98cd35a7adb45c274c8b7fd5ebd5e090859087908c908c906001600160401b0381111561278257612782613b38565b6040519080825280602002602001820160405280156127b557816020015b60608152602001906001900390816127a05790505b508c896127c28a82614ba8565b8e6040516127d899989796959493929190614bbb565b60405180910390a150505095945050505050565b5f306001600160a01b037f00000000000000000000000000000000000000000000000000000000000000001614801561284457507f000000000000000000000000000000000000000000000000000000000000000046145b1561286e57507f000000000000000000000000000000000000000000000000000000000000000090565b610e10604080517f8b73c3c69bb8fe3d512ecc4cf759cc79239f7b179b0ffacaa9a75d522b39400f60208201527f0000000000000000000000000000000000000000000000000000000000000000918101919091527f000000000000000000000000000000000000000000000000000000000000000060608201524660808201523060a08201525f9060c00160405160208183030381529060405280519060200120905090565b5f65ffffffffffff821115612947576040516306dfcc6560e41b815260306004820152602481018390526044016113f7565b5090565b81545f90818160058111156129a7575f61296484613429565b61296e908561496e565b5f8881526020902090915081015465ffffffffffff9081169087161015612997578091506129a5565b6129a2816001614ba8565b92505b505b5f6129b487878585613581565b905080156129ee576129d8876129cb60018461496e565b5f91825260209091200190565b54600160301b90046001600160d01b0316611800565b505f9695505050505050565b5f612a0483612264565b9050808214612a38576040516301d4b62360e61b81526001600160a01b0384166004820152602481018290526044016113f7565b505050565b5f610e1043612915565b5f7f0000000000000000000000000000000000000000000000000000000000000000604051630748d63560e31b81526001600160a01b038681166004830152602482018690529190911690633a46b1a890604401602060405180830381865afa158015612ab6573d5f803e3d5ffd5b505050506040513d601f19601f820116820180604052508101906115449190614aa6565b80545f908015612b0957612af3836129cb60018461496e565b54600160301b90046001600160d01b0316611bde565b5f9392505050565b600954604080516001600160a01b03928316815291831660208301527f08f74ea46ef7894f65eabfb5e6e695de773a000b47c529ab559178069b226401910160405180910390a1600980546001600160a01b0319166001600160a01b0392909216919091179055565b5f8581526007602090815260408083206001600160a01b03881684526003810190925282205460ff1615612bcc576040516371c6af4960e01b81526001600160a01b03871660048201526024016113f7565b6001600160a01b0386165f9081526003820160205260409020805460ff1916600117905560ff8516612c155783815f015f828254612c0a9190614ba8565b90915550612c6b9050565b5f1960ff861601612c335783816001015f828254612c0a9190614ba8565b60011960ff861601612c525783816002015f828254612c0a9190614ba8565b6040516303599be160e11b815260040160405180910390fd5b509195945050505050565b606082612c8b57612c86826135e0565b610e7b565b5080610e7b565b5f81815260076020526040812060028101546001820154612cb39190614ba8565b612cbf610dc6856111b6565b11159392505050565b80545f906001600160801b0380821691600160801b9004168103612cf057612cf06031612fc8565b6001600160801b038181165f908152600185810160205260408220805492905585546fffffffffffffffffffffffffffffffff19169301909116919091179092555090565b5f6001600160d01b03821115612947576040516306dfcc6560e41b815260d06004820152602481018390526044016113f7565b5f80612d75858585613609565b915091505b935093915050565b606060ff8314612d9c57612d9583613759565b9050610e7b565b818054612da89061488b565b80601f0160208091040260200160405190810160405280929190818152602001828054612dd49061488b565b8015612e1f5780601f10612df657610100808354040283529160200191612e1f565b820191905f5260205f20905b815481529060010190602001808311612e0257829003601f168201915b50505050509050610e7b565b5f8060095f9054906101000a90046001600160a01b03166001600160a01b031663f27a0c926040518163ffffffff1660e01b8152600401602060405180830381865afa158015612e7d573d5f803e3d5ffd5b505050506040513d601f19601f82011682018060405250810190612ea19190614aa6565b90505f3060601b6bffffffffffffffffffffffff1916841860095460405163b1c5f42760e01b81529192506001600160a01b03169063b1c5f42790612ef2908a908a908a905f908890600401614c90565b602060405180830381865afa158015612f0d573d5f803e3d5ffd5b505050506040513d601f19601f82011682018060405250810190612f319190614aa6565b5f898152600a60205260408082209290925560095491516308f2a0bb60e41b81526001600160a01b0390921691638f2a0bb091612f7b918b918b918b919088908a90600401614cdd565b5f604051808303815f87803b158015612f92575f80fd5b505af1158015612fa4573d5f803e3d5ffd5b50505050612fbc8242612fb79190614ba8565b612915565b98975050505050505050565b634e487b715f52806020526024601cfd5b6009546001600160a01b031663e38335e5348686865f3060601b6bffffffffffffffffffffffff191688186040518763ffffffff1660e01b8152600401613024959493929190614c90565b5f604051808303818588803b15801561303b575f80fd5b505af115801561304d573d5f803e3d5ffd5b5050505f9687525050600a602052505060408320929092555050565b5f818152600460205260408120805460ff600160f01b8204811691600160f81b900416811561309d57506007949350505050565b80156130ae57506002949350505050565b5f6130b8866111b6565b9050805f036130dd57604051636ad0607560e01b8152600481018790526024016113f7565b5f6130e6611b4b565b65ffffffffffff16905080821061310357505f9695505050505050565b5f61310d88611c7a565b905081811061312457506001979650505050505050565b61312d88612c92565b158061314c57505f888152600760205260409020805460019091015411155b1561315f57506003979650505050505050565b5f8881526004602052604090206001015465ffffffffffff165f0361318c57506004979650505050505050565b506005979650505050505050565b5f806131a886868686613796565b5f818152600a6020526040902054909150801561103a5760095460405163c4d252f560e01b8152600481018390526001600160a01b039091169063c4d252f5906024015f604051808303815f87803b158015613202575f80fd5b505af1158015613214573d5f803e3d5ffd5b5050505f838152600a602052604081205550509050949350505050565b5f80845183118061324157508284115b1561325057505f905080612d7a565b5f61325c856001614ba8565b84118015613284575061060f60f31b6132788787016020015190565b6001600160f01b031916145b90505f6132948215156002614abd565b61329f906028614ba8565b9050806132ac878761496e565b036132cd575f806132be898989613845565b9096509450612d7a9350505050565b5f80935093505050612d7a565b5f805f8351604103613311576020840151604085015160608601515f1a61330388828585613906565b95509550955050505061331c565b505081515f91506002905b9250925092565b5f805f856001600160a01b03168585604051602401613343929190614d34565b60408051601f198184030181529181526020820180516001600160e01b0316630b135d3f60e11b179052516133789190614d4c565b5f60405180830381855afa9150503d805f81146133b0576040519150601f19603f3d011682016040523d82523d5f602084013e6133b5565b606091505b50915091508180156133c957506020815110155b801561140c57508051630b135d3f60e11b906133ee9083016020908101908401614aa6565b149695505050505050565b5f63ffffffff821115612947576040516306dfcc6560e41b815260206004820152602481018390526044016113f7565b5f60018211613436575090565b816001600160801b821061344f5760809190911c9060401b5b68010000000000000000821061346a5760409190911c9060201b5b64010000000082106134815760209190911c9060101b5b6201000082106134965760109190911c9060081b5b61010082106134aa5760089190911c9060041b5b601082106134bd5760049190911c9060021b5b600482106134c95760011b5b600302600190811c908185816134e1576134e1614ad4565b048201901c905060018185816134f9576134f9614ad4565b048201901c9050600181858161351157613511614ad4565b048201901c9050600181858161352957613529614ad4565b048201901c9050600181858161354157613541614ad4565b048201901c9050600181858161355957613559614ad4565b048201901c905061357881858161357257613572614ad4565b04821190565b90039392505050565b5f5b818310156135d8575f61359684846139ce565b5f8781526020902090915065ffffffffffff86169082015465ffffffffffff1611156135c4578092506135d2565b6135cf816001614ba8565b93505b50613583565b509392505050565b8051156135f05780518082602001fd5b60405163d6bda27560e01b815260040160405180910390fd5b82545f90819080156136ff575f613625876129cb60018561496e565b805490915065ffffffffffff80821691600160301b90046001600160d01b031690881682111561366857604051632520601d60e01b815260040160405180910390fd5b8765ffffffffffff168265ffffffffffff16036136a157825465ffffffffffff16600160301b6001600160d01b038916021783556136f1565b6040805180820190915265ffffffffffff808a1682526001600160d01b03808a1660208085019182528d54600181018f555f8f81529190912094519151909216600160301b029216919091179101555b9450859350612d7a92505050565b50506040805180820190915265ffffffffffff80851682526001600160d01b0380851660208085019182528854600181018a555f8a815291822095519251909316600160301b029190931617920191909155905081612d7a565b60605f613765836139e8565b6040805160208082528183019092529192505f91906020820181803683375050509182525060208101929092525090565b5f806137a486868686611c19565b90506137f2816137b46007612155565b6137be6006612155565b6137c86002612155565b60016137d5600782614d67565b6137e0906002614e60565b6137ea919061496e565b181818612177565b505f818152600460205260409081902080546001600160f81b0316600160f81b179055517f789cf55be980739dad1d0699b93b58e806b51c9d96619bfa8fe0a28abaa7b30c906111a59083815260200190565b5f808481613854866001614ba8565b8511801561387c575061060f60f31b6138708388016020015190565b6001600160f01b031916145b90505f61388c8215156002614abd565b90505f8061389a838a614ba8565b90505b878110156138f5575f6138bb6138b68784016020015190565b613a0f565b9050600f8160ff1611156138da575f8097509750505050505050612d7a565b6138e5601084614abd565b60ff90911601915060010161389d565b506001999098509650505050505050565b5f80807f7fffffffffffffffffffffffffffffff5d576e7357a4501ddfe92f46681b20a084111561393f57505f915060039050826139c4565b604080515f808252602082018084528a905260ff891692820192909252606081018790526080810186905260019060a0016020604051602081039080840390855afa158015613990573d5f803e3d5ffd5b5050604051601f1901519150506001600160a01b0381166139bb57505f9250600191508290506139c4565b92505f91508190505b9450945094915050565b5f6139dc6002848418614ae8565b611bde90848416614ba8565b5f60ff8216601f811115610e7b57604051632cd44ac360e21b815260040160405180910390fd5b5f60f882901c602f81118015613a285750603a8160ff16105b15613a3657602f1901610e7b565b60608160ff16118015613a4c575060678160ff16105b15613a5a5760561901610e7b565b60408160ff16118015613a70575060478160ff16105b15613a7e5760361901610e7b565b5060ff92915050565b5f60208284031215613a97575f80fd5b81356001600160e01b031981168114611bde575f80fd5b5f60208284031215613abe575f80fd5b5035919050565b5f5b83811015613adf578181015183820152602001613ac7565b50505f910152565b5f8151808452613afe816020860160208601613ac5565b601f01601f19169290920160200192915050565b602081525f611bde6020830184613ae7565b6001600160a01b0381168114610b05575f80fd5b634e487b7160e01b5f52604160045260245ffd5b604051601f8201601f191681016001600160401b0381118282101715613b7457613b74613b38565b604052919050565b5f6001600160401b03821115613b9457613b94613b38565b50601f01601f191660200190565b5f613bb4613baf84613b7c565b613b4c565b9050828152838383011115613bc7575f80fd5b828260208301375f602084830101529392505050565b5f82601f830112613bec575f80fd5b611bde83833560208501613ba2565b5f805f8060808587031215613c0e575f80fd5b8435613c1981613b24565b93506020850135613c2981613b24565b92506040850135915060608501356001600160401b03811115613c4a575f80fd5b613c5687828801613bdd565b91505092959194509250565b5f6001600160401b03821115613c7a57613c7a613b38565b5060051b60200190565b5f82601f830112613c93575f80fd5b81356020613ca3613baf83613c62565b8083825260208201915060208460051b870101935086841115613cc4575f80fd5b602086015b84811015613ce9578035613cdc81613b24565b8352918301918301613cc9565b509695505050505050565b5f82601f830112613d03575f80fd5b81356020613d13613baf83613c62565b8083825260208201915060208460051b870101935086841115613d34575f80fd5b602086015b84811015613ce95780358352918301918301613d39565b5f613d5d613baf84613c62565b8381529050602080820190600585901b840186811115613d7b575f80fd5b845b81811015613db45780356001600160401b03811115613d9a575f80fd5b613da689828901613bdd565b855250928201928201613d7d565b505050509392505050565b5f82601f830112613dce575f80fd5b611bde83833560208501613d50565b5f805f8060808587031215613df0575f80fd5b84356001600160401b0380821115613e06575f80fd5b613e1288838901613c84565b95506020870135915080821115613e27575f80fd5b613e3388838901613cf4565b94506040870135915080821115613e48575f80fd5b50613e5587828801613dbf565b949793965093946060013593505050565b5f60208284031215613e76575f80fd5b8135611bde81613b24565b5f8083601f840112613e91575f80fd5b5081356001600160401b03811115613ea7575f80fd5b6020830191508360208260051b8501011115613ec1575f80fd5b9250929050565b5f805f805f805f8060a0898b031215613edf575f80fd5b8835975060208901356001600160401b0380821115613efc575f80fd5b613f088c838d01613e81565b909950975060408b0135915080821115613f20575f80fd5b613f2c8c838d01613e81565b909750955060608b0135915080821115613f44575f80fd5b50613f518b828c01613e81565b999c989b50969995989497949560800135949350505050565b803560ff811681146114f5575f80fd5b5f8083601f840112613f8a575f80fd5b5081356001600160401b03811115613fa0575f80fd5b602083019150836020828501011115613ec1575f80fd5b5f805f805f805f60a0888a031215613fcd575f80fd5b873596506020880135613fdf81613b24565b9550613fed60408901613f6a565b945060608801356001600160401b0380821115614008575f80fd5b6140148b838c01613f7a565b909650945060808a013591508082111561402c575f80fd5b506140398a828b01613f7a565b989b979a50959850939692959293505050565b634e487b7160e01b5f52602160045260245ffd5b6008811061407c57634e487b7160e01b5f52602160045260245ffd5b9052565b60208101610e7b8284614060565b5f806040838503121561409f575f80fd5b8235915060208301356140b181613b24565b809150509250929050565b5f805f604084860312156140ce575f80fd5b83356140d981613b24565b925060208401356001600160401b038111156140f3575f80fd5b6140ff86828701613f7a565b9497909650939450505050565b5f806040838503121561411d575f80fd5b8235915061412d60208401613f6a565b90509250929050565b5f805f805f805f60c0888a03121561414c575f80fd5b8735965061415c60208901613f6a565b9550604088013561416c81613b24565b945060608801356001600160401b0380821115614187575f80fd5b6141938b838c01613f7a565b909650945060808a01359150808211156141ab575f80fd5b6141b78b838c01613bdd565b935060a08a01359150808211156141cc575f80fd5b506141d98a828b01613bdd565b91505092959891949750929550565b5f805f805f805f805f60a08a8c031215614200575f80fd5b89356001600160401b0380821115614216575f80fd5b6142228d838e01613e81565b909b50995060208c013591508082111561423a575f80fd5b6142468d838e01613e81565b909950975060408c013591508082111561425e575f80fd5b61426a8d838e01613e81565b909750955060608c0135915080821115614282575f80fd5b5061428f8c828d01613f7a565b90945092505060808a01356142a381613b24565b809150509295985092959850929598565b5f805f805f608086880312156142c8575f80fd5b853594506142d860208701613f6a565b935060408601356001600160401b03808211156142f3575f80fd5b6142ff89838a01613f7a565b90955093506060880135915080821115614317575f80fd5b5061432488828901613bdd565b9150509295509295909350565b5f805f805f805f6080888a031215614347575f80fd5b87356001600160401b038082111561435d575f80fd5b6143698b838c01613e81565b909950975060208a0135915080821115614381575f80fd5b61438d8b838c01613e81565b909750955060408a01359150808211156143a5575f80fd5b506143b28a828b01613e81565b989b979a50959894979596606090950135949350505050565b5f80604083850312156143dc575f80fd5b82356143e781613b24565b946020939093013593505050565b5f805f805f60808688031215614409575f80fd5b85359450602086013561441b81613b24565b935061442960408701613f6a565b925060608601356001600160401b03811115614443575f80fd5b61444f88828901613f7a565b969995985093965092949392505050565b5f805f8060608587031215614473575f80fd5b8435935061448360208601613f6a565b925060408501356001600160401b0381111561449d575f80fd5b6144a987828801613f7a565b95989497509550505050565b5f805f80608085870312156144c8575f80fd5b84356001600160401b03808211156144de575f80fd5b6144ea88838901613c84565b955060208701359150808211156144ff575f80fd5b61450b88838901613cf4565b94506040870135915080821115614520575f80fd5b61452c88838901613dbf565b93506060870135915080821115614541575f80fd5b508501601f81018713614552575f80fd5b613c5687823560208401613ba2565b5f815180845260208085019450602084015f5b8381101561459057815187529582019590820190600101614574565b509495945050505050565b60ff60f81b8816815260e060208201525f6145b960e0830189613ae7565b82810360408401526145cb8189613ae7565b606084018890526001600160a01b038716608085015260a0840186905283810360c085015290506145fc8185614561565b9a9950505050505050505050565b5f805f806080858703121561461d575f80fd5b8435935061462d60208601613f6a565b9250604085013561463d81613b24565b915060608501356001600160401b03811115613c4a575f80fd5b5f805f60608486031215614669575f80fd5b833561467481613b24565b92506020840135915060408401356001600160401b03811115614695575f80fd5b6146a186828701613bdd565b9150509250925092565b5f602082840312156146bb575f80fd5b813560088110611bde575f80fd5b5f805f805f60a086880312156146dd575f80fd5b85356146e881613b24565b945060208601356146f881613b24565b935060408601356001600160401b0380821115614713575f80fd5b61471f89838a01613cf4565b94506060880135915080821115614734575f80fd5b61474089838a01613cf4565b93506080880135915080821115614317575f80fd5b5f805f805f8060a0878903121561476a575f80fd5b86359550602087013561477c81613b24565b945061478a60408801613f6a565b93506060870135925060808701356001600160401b038111156147ab575f80fd5b6147b789828a01613f7a565b979a9699509497509295939492505050565b5f805f80606085870312156147dc575f80fd5b84356147e781613b24565b93506020850135925060408501356001600160401b0381111561449d575f80fd5b5f8060408385031215614819575f80fd5b50508035926020909101359150565b5f805f805f60a0868803121561483c575f80fd5b853561484781613b24565b9450602086013561485781613b24565b9350604086013592506060860135915060808601356001600160401b0381111561487f575f80fd5b61432488828901613bdd565b600181811c9082168061489f57607f821691505b6020821081036148bd57634e487b7160e01b5f52602260045260245ffd5b50919050565b634e487b7160e01b5f52603260045260245ffd5b5f611bde368484613d50565b5f602082840312156148f3575f80fd5b81516001600160401b03811115614908575f80fd5b8201601f81018413614918575f80fd5b8051614926613baf82613b7c565b81815285602083850101111561493a575f80fd5b611c26826020830160208601613ac5565b818382375f9101908152919050565b634e487b7160e01b5f52601160045260245ffd5b81810381811115610e7b57610e7b61495a565b5092915050565b5f60208284031215614998575f80fd5b815165ffffffffffff81168114611bde575f80fd5b65ffffffffffff8181168382160190808211156149815761498161495a565b5f815180845260208085019450602084015f5b838110156145905781516001600160a01b0316875295820195908201906001016149df565b5f8282518085526020808601955060208260051b840101602086015f5b84811015614a4f57601f19868403018952614a3d838351613ae7565b98840198925090830190600101614a21565b5090979650505050505050565b608081525f614a6e60808301876149cc565b8281036020840152614a808187614561565b90508281036040840152614a948186614a04565b91505082606083015295945050505050565b5f60208284031215614ab6575f80fd5b5051919050565b8082028115828204841417610e7b57610e7b61495a565b634e487b7160e01b5f52601260045260245ffd5b5f82614b0257634e487b7160e01b5f52601260045260245ffd5b500490565b83815260608101614b1b6020830185614060565b826040830152949350505050565b84815260ff84166020820152826040820152608060608201525f61140c6080830184613ae7565b85815260ff8516602082015283604082015260a060608201525f614b7760a0830185613ae7565b8281036080840152612fbc8185613ae7565b5f60208284031215614b99575f80fd5b81518015158114611bde575f80fd5b80820180821115610e7b57610e7b61495a565b5f6101208b8352602060018060a01b038c1681850152816040850152614be38285018c6149cc565b91508382036060850152614bf7828b614561565b915083820360808501528189518084528284019150828160051b850101838c015f5b83811015614c4757601f19878403018552614c35838351613ae7565b94860194925090850190600101614c19565b505086810360a0880152614c5b818c614a04565b9450505050508560c08401528460e0840152828103610100840152614c808185613ae7565b9c9b505050505050505050505050565b60a081525f614ca260a08301886149cc565b8281036020840152614cb48188614561565b90508281036040840152614cc88187614a04565b60608401959095525050608001529392505050565b60c081525f614cef60c08301896149cc565b8281036020840152614d018189614561565b90508281036040840152614d158188614a04565b60608401969096525050608081019290925260a0909101529392505050565b828152604060208201525f6115446040830184613ae7565b5f8251614d5d818460208701613ac5565b9190910192915050565b60ff8181168382160190811115610e7b57610e7b61495a565b600181815b80851115614dba57815f1904821115614da057614da061495a565b80851615614dad57918102915b93841c9390800290614d85565b509250929050565b5f82614dd057506001610e7b565b81614ddc57505f610e7b565b8160018114614df25760028114614dfc57614e18565b6001915050610e7b565b60ff841115614e0d57614e0d61495a565b50506001821b610e7b565b5060208310610133831016604e8410600b8410161715614e3b575081810a610e7b565b614e458383614d80565b805f1904821115614e5857614e5861495a565b029392505050565b5f611bde60ff841683614dc256fea2646970667358221220b498acd7c30c9bae71aeb9846180547e01715330a11d8ca60fce24557085eb1264736f6c63430008180033",
  "linkReferences": {},
  "deployedLinkReferences": {}
}