{
  "_format": "hh-sol-artifact-1",
  "contractName": "$MessageHashUtils",
  "sourceName": "contracts-exposed/utils/cryptography/MessageHashUtils.sol",
  "abi": [
    {
      "inputs": [],
      "stateMutability": "payable",
      "type": "constructor"
    },
    {
      "inputs": [
        {
          "internalType": "address",
          "name": "validator",
          "type": "address"
        },
        {
          "internalType": "bytes",
          "name": "data",
          "type": "bytes"
        }
      ],
      "name": "$toDataWithIntendedValidatorHash",
      "outputs": [
        {
          "internalType": "bytes32",
          "name": "ret0",
          "type": "bytes32"
        }
      ],
      "stateMutability": "pure",
      "type": "function"
    },
    {
      "inputs": [
        {
          "internalType": "bytes32",
          "name": "messageHash",
          "type": "bytes32"
        }
      ],
      "name": "$toEthSignedMessageHash",
      "outputs": [
        {
          "internalType": "bytes32",
          "name": "digest",
          "type": "bytes32"
        }
      ],
      "stateMutability": "pure",
      "type": "function"
    },
    {
      "inputs": [
        {
          "internalType": "bytes",
          "name": "message",
          "type": "bytes"
        }
      ],
      "name": "$toEthSignedMessageHash",
      "outputs": [
        {
          "internalType": "bytes32",
          "name": "ret0",
          "type": "bytes32"
        }
      ],
      "stateMutability": "pure",
      "type": "function"
    },
    {
      "inputs": [
        {
          "internalType": "bytes32",
          "name": "domainSeparator",
          "type": "bytes32"
        },
        {
          "internalType": "bytes32",
          "name": "structHash",
          "type": "bytes32"
        }
      ],
      "name": "$toTypedDataHash",
      "outputs": [
        {
          "internalType": "bytes32",
          "name": "digest",
          "type": "bytes32"
        }
      ],
      "stateMutability": "pure",
      "type": "function"
    },
    {
      "inputs": [],
      "name": "__hh_exposed_bytecode_marker",
      "outputs": [
        {
          "internalType": "bytes32",
          "name": "",
          "type": "bytes32"
        }
      ],
      "stateMutability": "view",
      "type": "function"
    },
    {
      "stateMutability": "payable",
      "type": "receive"
    }
  ],
  "bytecode": "0x60806040526105b6806100115f395ff3fe60806040526004361061004c575f3560e01c806326d6554c14610057578063342db73914610088578063af8796f9146100ad578063ba85b183146100cc578063e63fa6fe146100eb575f80fd5b3661005357005b5f80fd5b348015610062575f80fd5b506100766100713660046103c0565b61010a565b60405190815260200160405180910390f35b348015610093575f80fd5b506100766e1a185c991a185d0b595e1c1bdcd959608a1b81565b3480156100b8575f80fd5b506100766100c736600461041c565b61013f565b3480156100d7575f80fd5b506100766100e6366004610478565b610187565b3480156100f6575f80fd5b50610076610105366004610498565b6101ae565b7f19457468657265756d205369676e6564204d6573736167653a0a3332000000005f908152601c829052603c81205b92915050565b5f61017f8484848080601f0160208091040260200160405190810160405280939291908181526020018383808284375f920191909152506101ed92505050565b949350505050565b60405161190160f01b81526002810183905260228101829052604290205f905b9392505050565b5f6101a783838080601f0160208091040260200160405190810160405280939291908181526020018383808284375f9201919091525061021f92505050565b5f8282604051602001610201929190610504565b60405160208183030381529060405280519060200120905092915050565b5f61022a8251610259565b8260405160200161023c929190610532565b604051602081830303815290604052805190602001209050919050565b60605f610265836102e9565b60010190505f8167ffffffffffffffff8111156102845761028461056c565b6040519080825280601f01601f1916602001820160405280156102ae576020820181803683370190505b5090508181016020015b5f19016f181899199a1a9b1b9c1cb0b131b232b360811b600a86061a8153600a85049450846102b857509392505050565b5f8072184f03e93ff9f4daa797ed6e38ed64bf6a1f0160401b83106103275772184f03e93ff9f4daa797ed6e38ed64bf6a1f0160401b830492506040015b6d04ee2d6d415b85acef81000000008310610353576d04ee2d6d415b85acef8100000000830492506020015b662386f26fc10000831061037157662386f26fc10000830492506010015b6305f5e1008310610389576305f5e100830492506008015b612710831061039d57612710830492506004015b606483106103af576064830492506002015b600a83106101395760010192915050565b5f602082840312156103d0575f80fd5b5035919050565b5f8083601f8401126103e7575f80fd5b50813567ffffffffffffffff8111156103fe575f80fd5b602083019150836020828501011115610415575f80fd5b9250929050565b5f805f6040848603121561042e575f80fd5b83356001600160a01b0381168114610444575f80fd5b9250602084013567ffffffffffffffff81111561045f575f80fd5b61046b868287016103d7565b9497909650939450505050565b5f8060408385031215610489575f80fd5b50508035926020909101359150565b5f80602083850312156104a9575f80fd5b823567ffffffffffffffff8111156104bf575f80fd5b6104cb858286016103d7565b90969095509350505050565b5f81515f5b818110156104f657602081850181015186830152016104dc565b505f93019283525090919050565b601960f81b8152606083901b6bffffffffffffffffffffffff191660028201525f61017f60168301846104d7565b7f19457468657265756d205369676e6564204d6573736167653a0a00000000000081525f61017f610566601a8401866104d7565b846104d7565b634e487b7160e01b5f52604160045260245ffdfea2646970667358221220e983fb12443eebfa788f7abc20114d82dd2d45d5d4b9fbe620cce543bafcc61a64736f6c63430008180033",
  "linkReferences": {},
  "deployedLinkReferences": {}
}