{
  "_format": "hh-sol-artifact-1",
  "contractName": "$GovernorMock",
  "sourceName": "contracts-exposed/mocks/governance/GovernorMock.sol",
  "abi": [
    {
      "inputs": [
        {
          "internalType": "string",
          "name": "name_",
          "type": "string"
        },
        {
          "internalType": "uint48",
          "name": "initialVotingDelay",
          "type": "uint48"
        },
        {
          "internalType": "uint32",
          "name": "initialVotingPeriod",
          "type": "uint32"
        },
        {
          "internalType": "uint256",
          "name": "initialProposalThreshold",
          "type": "uint256"
        },
        {
          "internalType": "contract IVotes",
          "name": "tokenAddress",
          "type": "address"
        },
        {
          "internalType": "uint256",
          "name": "quorumNumeratorValue",
          "type": "uint256"
        }
      ],
      "stateMutability": "payable",
      "type": "constructor"
    },
    {
      "inputs": [],
      "name": "CheckpointUnorderedInsertion",
      "type": "error"
    },
    {
      "inputs": [],
      "name": "FailedCall",
      "type": "error"
    },
    {
      "inputs": [
        {
          "internalType": "address",
          "name": "voter",
          "type": "address"
        }
      ],
      "name": "GovernorAlreadyCastVote",
      "type": "error"
    },
    {
      "inputs": [
        {
          "internalType": "uint256",
          "name": "proposalId",
          "type": "uint256"
        }
      ],
      "name": "GovernorAlreadyQueuedProposal",
      "type": "error"
    },
    {
      "inputs": [],
      "name": "GovernorDisabledDeposit",
      "type": "error"
    },
    {
      "inputs": [
        {
          "internalType": "address",
          "name": "proposer",
          "type": "address"
        },
        {
          "internalType": "uint256",
          "name": "votes",
          "type": "uint256"
        },
        {
          "internalType": "uint256",
          "name": "threshold",
          "type": "uint256"
        }
      ],
      "name": "GovernorInsufficientProposerVotes",
      "type": "error"
    },
    {
      "inputs": [
        {
          "internalType": "uint256",
          "name": "targets",
          "type": "uint256"
        },
        {
          "internalType": "uint256",
          "name": "calldatas",
          "type": "uint256"
        },
        {
          "internalType": "uint256",
          "name": "values",
          "type": "uint256"
        }
      ],
      "name": "GovernorInvalidProposalLength",
      "type": "error"
    },
    {
      "inputs": [
        {
          "internalType": "uint256",
          "name": "quorumNumerator",
          "type": "uint256"
        },
        {
          "internalType": "uint256",
          "name": "quorumDenominator",
          "type": "uint256"
        }
      ],
      "name": "GovernorInvalidQuorumFraction",
      "type": "error"
    },
    {
      "inputs": [
        {
          "internalType": "address",
          "name": "voter",
          "type": "address"
        }
      ],
      "name": "GovernorInvalidSignature",
      "type": "error"
    },
    {
      "inputs": [],
      "name": "GovernorInvalidVoteParams",
      "type": "error"
    },
    {
      "inputs": [],
      "name": "GovernorInvalidVoteType",
      "type": "error"
    },
    {
      "inputs": [
        {
          "internalType": "uint256",
          "name": "votingPeriod",
          "type": "uint256"
        }
      ],
      "name": "GovernorInvalidVotingPeriod",
      "type": "error"
    },
    {
      "inputs": [
        {
          "internalType": "uint256",
          "name": "proposalId",
          "type": "uint256"
        }
      ],
      "name": "GovernorNonexistentProposal",
      "type": "error"
    },
    {
      "inputs": [
        {
          "internalType": "uint256",
          "name": "proposalId",
          "type": "uint256"
        }
      ],
      "name": "GovernorNotQueuedProposal",
      "type": "error"
    },
    {
      "inputs": [
        {
          "internalType": "address",
          "name": "account",
          "type": "address"
        }
      ],
      "name": "GovernorOnlyExecutor",
      "type": "error"
    },
    {
      "inputs": [
        {
          "internalType": "address",
          "name": "account",
          "type": "address"
        }
      ],
      "name": "GovernorOnlyProposer",
      "type": "error"
    },
    {
      "inputs": [],
      "name": "GovernorQueueNotImplemented",
      "type": "error"
    },
    {
      "inputs": [
        {
          "internalType": "address",
          "name": "proposer",
          "type": "address"
        }
      ],
      "name": "GovernorRestrictedProposer",
      "type": "error"
    },
    {
      "inputs": [
        {
          "internalType": "uint256",
          "name": "proposalId",
          "type": "uint256"
        },
        {
          "internalType": "enum IGovernor.ProposalState",
          "name": "current",
          "type": "uint8"
        },
        {
          "internalType": "bytes32",
          "name": "expectedStates",
          "type": "bytes32"
        }
      ],
      "name": "GovernorUnexpectedProposalState",
      "type": "error"
    },
    {
      "inputs": [
        {
          "internalType": "address",
          "name": "account",
          "type": "address"
        },
        {
          "internalType": "uint256",
          "name": "currentNonce",
          "type": "uint256"
        }
      ],
      "name": "InvalidAccountNonce",
      "type": "error"
    },
    {
      "inputs": [],
      "name": "InvalidShortString",
      "type": "error"
    },
    {
      "inputs": [
        {
          "internalType": "uint8",
          "name": "bits",
          "type": "uint8"
        },
        {
          "internalType": "uint256",
          "name": "value",
          "type": "uint256"
        }
      ],
      "name": "SafeCastOverflowedUintDowncast",
      "type": "error"
    },
    {
      "inputs": [
        {
          "internalType": "string",
          "name": "str",
          "type": "string"
        }
      ],
      "name": "StringTooLong",
      "type": "error"
    },
    {
      "anonymous": false,
      "inputs": [],
      "name": "EIP712DomainChanged",
      "type": "event"
    },
    {
      "anonymous": false,
      "inputs": [
        {
          "indexed": false,
          "internalType": "uint256",
          "name": "proposalId",
          "type": "uint256"
        }
      ],
      "name": "ProposalCanceled",
      "type": "event"
    },
    {
      "anonymous": false,
      "inputs": [
        {
          "indexed": false,
          "internalType": "uint256",
          "name": "proposalId",
          "type": "uint256"
        },
        {
          "indexed": false,
          "internalType": "address",
          "name": "proposer",
          "type": "address"
        },
        {
          "indexed": false,
          "internalType": "address[]",
          "name": "targets",
          "type": "address[]"
        },
        {
          "indexed": false,
          "internalType": "uint256[]",
          "name": "values",
          "type": "uint256[]"
        },
        {
          "indexed": false,
          "internalType": "string[]",
          "name": "signatures",
          "type": "string[]"
        },
        {
          "indexed": false,
          "internalType": "bytes[]",
          "name": "calldatas",
          "type": "bytes[]"
        },
        {
          "indexed": false,
          "internalType": "uint256",
          "name": "voteStart",
          "type": "uint256"
        },
        {
          "indexed": false,
          "internalType": "uint256",
          "name": "voteEnd",
          "type": "uint256"
        },
        {
          "indexed": false,
          "internalType": "string",
          "name": "description",
          "type": "string"
        }
      ],
      "name": "ProposalCreated",
      "type": "event"
    },
    {
      "anonymous": false,
      "inputs": [
        {
          "indexed": false,
          "internalType": "uint256",
          "name": "proposalId",
          "type": "uint256"
        }
      ],
      "name": "ProposalExecuted",
      "type": "event"
    },
    {
      "anonymous": false,
      "inputs": [
        {
          "indexed": false,
          "internalType": "uint256",
          "name": "proposalId",
          "type": "uint256"
        },
        {
          "indexed": false,
          "internalType": "uint256",
          "name": "etaSeconds",
          "type": "uint256"
        }
      ],
      "name": "ProposalQueued",
      "type": "event"
    },
    {
      "anonymous": false,
      "inputs": [
        {
          "indexed": false,
          "internalType": "uint256",
          "name": "oldProposalThreshold",
          "type": "uint256"
        },
        {
          "indexed": false,
          "internalType": "uint256",
          "name": "newProposalThreshold",
          "type": "uint256"
        }
      ],
      "name": "ProposalThresholdSet",
      "type": "event"
    },
    {
      "anonymous": false,
      "inputs": [
        {
          "indexed": false,
          "internalType": "uint256",
          "name": "oldQuorumNumerator",
          "type": "uint256"
        },
        {
          "indexed": false,
          "internalType": "uint256",
          "name": "newQuorumNumerator",
          "type": "uint256"
        }
      ],
      "name": "QuorumNumeratorUpdated",
      "type": "event"
    },
    {
      "anonymous": false,
      "inputs": [
        {
          "indexed": true,
          "internalType": "address",
          "name": "voter",
          "type": "address"
        },
        {
          "indexed": false,
          "internalType": "uint256",
          "name": "proposalId",
          "type": "uint256"
        },
        {
          "indexed": false,
          "internalType": "uint8",
          "name": "support",
          "type": "uint8"
        },
        {
          "indexed": false,
          "internalType": "uint256",
          "name": "weight",
          "type": "uint256"
        },
        {
          "indexed": false,
          "internalType": "string",
          "name": "reason",
          "type": "string"
        }
      ],
      "name": "VoteCast",
      "type": "event"
    },
    {
      "anonymous": false,
      "inputs": [
        {
          "indexed": true,
          "internalType": "address",
          "name": "voter",
          "type": "address"
        },
        {
          "indexed": false,
          "internalType": "uint256",
          "name": "proposalId",
          "type": "uint256"
        },
        {
          "indexed": false,
          "internalType": "uint8",
          "name": "support",
          "type": "uint8"
        },
        {
          "indexed": false,
          "internalType": "uint256",
          "name": "weight",
          "type": "uint256"
        },
        {
          "indexed": false,
          "internalType": "string",
          "name": "reason",
          "type": "string"
        },
        {
          "indexed": false,
          "internalType": "bytes",
          "name": "params",
          "type": "bytes"
        }
      ],
      "name": "VoteCastWithParams",
      "type": "event"
    },
    {
      "anonymous": false,
      "inputs": [
        {
          "indexed": false,
          "internalType": "uint256",
          "name": "oldVotingDelay",
          "type": "uint256"
        },
        {
          "indexed": false,
          "internalType": "uint256",
          "name": "newVotingDelay",
          "type": "uint256"
        }
      ],
      "name": "VotingDelaySet",
      "type": "event"
    },
    {
      "anonymous": false,
      "inputs": [
        {
          "indexed": false,
          "internalType": "uint256",
          "name": "oldVotingPeriod",
          "type": "uint256"
        },
        {
          "indexed": false,
          "internalType": "uint256",
          "name": "newVotingPeriod",
          "type": "uint256"
        }
      ],
      "name": "VotingPeriodSet",
      "type": "event"
    },
    {
      "anonymous": false,
      "inputs": [
        {
          "indexed": false,
          "internalType": "uint256",
          "name": "ret0",
          "type": "uint256"
        }
      ],
      "name": "return$_cancel",
      "type": "event"
    },
    {
      "anonymous": false,
      "inputs": [
        {
          "indexed": false,
          "internalType": "uint256",
          "name": "ret0",
          "type": "uint256"
        }
      ],
      "name": "return$_castVote_uint256_address_uint8_string",
      "type": "event"
    },
    {
      "anonymous": false,
      "inputs": [
        {
          "indexed": false,
          "internalType": "uint256",
          "name": "ret0",
          "type": "uint256"
        }
      ],
      "name": "return$_castVote_uint256_address_uint8_string_bytes",
      "type": "event"
    },
    {
      "anonymous": false,
      "inputs": [
        {
          "indexed": false,
          "internalType": "uint256",
          "name": "ret0",
          "type": "uint256"
        }
      ],
      "name": "return$_countVote",
      "type": "event"
    },
    {
      "anonymous": false,
      "inputs": [
        {
          "indexed": false,
          "internalType": "uint256",
          "name": "proposalId",
          "type": "uint256"
        }
      ],
      "name": "return$_propose",
      "type": "event"
    },
    {
      "anonymous": false,
      "inputs": [
        {
          "indexed": false,
          "internalType": "uint48",
          "name": "ret0",
          "type": "uint48"
        }
      ],
      "name": "return$_queueOperations",
      "type": "event"
    },
    {
      "anonymous": false,
      "inputs": [
        {
          "indexed": false,
          "internalType": "uint256",
          "name": "ret0",
          "type": "uint256"
        }
      ],
      "name": "return$_useNonce",
      "type": "event"
    },
    {
      "inputs": [],
      "name": "$_EIP712Name",
      "outputs": [
        {
          "internalType": "string",
          "name": "ret0",
          "type": "string"
        }
      ],
      "stateMutability": "view",
      "type": "function"
    },
    {
      "inputs": [],
      "name": "$_EIP712Version",
      "outputs": [
        {
          "internalType": "string",
          "name": "ret0",
          "type": "string"
        }
      ],
      "stateMutability": "view",
      "type": "function"
    },
    {
      "inputs": [
        {
          "internalType": "address[]",
          "name": "targets",
          "type": "address[]"
        },
        {
          "internalType": "uint256[]",
          "name": "values",
          "type": "uint256[]"
        },
        {
          "internalType": "bytes[]",
          "name": "calldatas",
          "type": "bytes[]"
        },
        {
          "internalType": "bytes32",
          "name": "descriptionHash",
          "type": "bytes32"
        }
      ],
      "name": "$_cancel",
      "outputs": [
        {
          "internalType": "uint256",
          "name": "ret0",
          "type": "uint256"
        }
      ],
      "stateMutability": "nonpayable",
      "type": "function"
    },
    {
      "inputs": [
        {
          "internalType": "uint256",
          "name": "proposalId",
          "type": "uint256"
        },
        {
          "internalType": "address",
          "name": "account",
          "type": "address"
        },
        {
          "internalType": "uint8",
          "name": "support",
          "type": "uint8"
        },
        {
          "internalType": "string",
          "name": "reason",
          "type": "string"
        },
        {
          "internalType": "bytes",
          "name": "params",
          "type": "bytes"
        }
      ],
      "name": "$_castVote",
      "outputs": [
        {
          "internalType": "uint256",
          "name": "ret0",
          "type": "uint256"
        }
      ],
      "stateMutability": "nonpayable",
      "type": "function"
    },
    {
      "inputs": [
        {
          "internalType": "uint256",
          "name": "proposalId",
          "type": "uint256"
        },
        {
          "internalType": "address",
          "name": "account",
          "type": "address"
        },
        {
          "internalType": "uint8",
          "name": "support",
          "type": "uint8"
        },
        {
          "internalType": "string",
          "name": "reason",
          "type": "string"
        }
      ],
      "name": "$_castVote",
      "outputs": [
        {
          "internalType": "uint256",
          "name": "ret0",
          "type": "uint256"
        }
      ],
      "stateMutability": "nonpayable",
      "type": "function"
    },
    {
      "inputs": [],
      "name": "$_checkGovernance",
      "outputs": [],
      "stateMutability": "nonpayable",
      "type": "function"
    },
    {
      "inputs": [],
      "name": "$_contextSuffixLength",
      "outputs": [
        {
          "internalType": "uint256",
          "name": "ret0",
          "type": "uint256"
        }
      ],
      "stateMutability": "view",
      "type": "function"
    },
    {
      "inputs": [
        {
          "internalType": "uint256",
          "name": "proposalId",
          "type": "uint256"
        },
        {
          "internalType": "address",
          "name": "account",
          "type": "address"
        },
        {
          "internalType": "uint8",
          "name": "support",
          "type": "uint8"
        },
        {
          "internalType": "uint256",
          "name": "totalWeight",
          "type": "uint256"
        },
        {
          "internalType": "bytes",
          "name": "arg4",
          "type": "bytes"
        }
      ],
      "name": "$_countVote",
      "outputs": [
        {
          "internalType": "uint256",
          "name": "ret0",
          "type": "uint256"
        }
      ],
      "stateMutability": "nonpayable",
      "type": "function"
    },
    {
      "inputs": [],
      "name": "$_defaultParams",
      "outputs": [
        {
          "internalType": "bytes",
          "name": "ret0",
          "type": "bytes"
        }
      ],
      "stateMutability": "view",
      "type": "function"
    },
    {
      "inputs": [],
      "name": "$_domainSeparatorV4",
      "outputs": [
        {
          "internalType": "bytes32",
          "name": "ret0",
          "type": "bytes32"
        }
      ],
      "stateMutability": "view",
      "type": "function"
    },
    {
      "inputs": [
        {
          "internalType": "enum IGovernor.ProposalState",
          "name": "proposalState",
          "type": "uint8"
        }
      ],
      "name": "$_encodeStateBitmap",
      "outputs": [
        {
          "internalType": "bytes32",
          "name": "ret0",
          "type": "bytes32"
        }
      ],
      "stateMutability": "pure",
      "type": "function"
    },
    {
      "inputs": [
        {
          "internalType": "uint256",
          "name": "arg0",
          "type": "uint256"
        },
        {
          "internalType": "address[]",
          "name": "targets",
          "type": "address[]"
        },
        {
          "internalType": "uint256[]",
          "name": "values",
          "type": "uint256[]"
        },
        {
          "internalType": "bytes[]",
          "name": "calldatas",
          "type": "bytes[]"
        },
        {
          "internalType": "bytes32",
          "name": "arg4",
          "type": "bytes32"
        }
      ],
      "name": "$_executeOperations",
      "outputs": [],
      "stateMutability": "nonpayable",
      "type": "function"
    },
    {
      "inputs": [],
      "name": "$_executor",
      "outputs": [
        {
          "internalType": "address",
          "name": "ret0",
          "type": "address"
        }
      ],
      "stateMutability": "view",
      "type": "function"
    },
    {
      "inputs": [
        {
          "internalType": "address",
          "name": "account",
          "type": "address"
        },
        {
          "internalType": "uint256",
          "name": "timepoint",
          "type": "uint256"
        },
        {
          "internalType": "bytes",
          "name": "arg2",
          "type": "bytes"
        }
      ],
      "name": "$_getVotes",
      "outputs": [
        {
          "internalType": "uint256",
          "name": "ret0",
          "type": "uint256"
        }
      ],
      "stateMutability": "view",
      "type": "function"
    },
    {
      "inputs": [
        {
          "internalType": "bytes32",
          "name": "structHash",
          "type": "bytes32"
        }
      ],
      "name": "$_hashTypedDataV4",
      "outputs": [
        {
          "internalType": "bytes32",
          "name": "ret0",
          "type": "bytes32"
        }
      ],
      "stateMutability": "view",
      "type": "function"
    },
    {
      "inputs": [
        {
          "internalType": "address",
          "name": "proposer",
          "type": "address"
        },
        {
          "internalType": "string",
          "name": "description",
          "type": "string"
        }
      ],
      "name": "$_isValidDescriptionForProposer",
      "outputs": [
        {
          "internalType": "bool",
          "name": "ret0",
          "type": "bool"
        }
      ],
      "stateMutability": "view",
      "type": "function"
    },
    {
      "inputs": [],
      "name": "$_msgData",
      "outputs": [
        {
          "internalType": "bytes",
          "name": "ret0",
          "type": "bytes"
        }
      ],
      "stateMutability": "view",
      "type": "function"
    },
    {
      "inputs": [],
      "name": "$_msgSender",
      "outputs": [
        {
          "internalType": "address",
          "name": "ret0",
          "type": "address"
        }
      ],
      "stateMutability": "view",
      "type": "function"
    },
    {
      "inputs": [
        {
          "internalType": "address[]",
          "name": "targets",
          "type": "address[]"
        },
        {
          "internalType": "uint256[]",
          "name": "values",
          "type": "uint256[]"
        },
        {
          "internalType": "bytes[]",
          "name": "calldatas",
          "type": "bytes[]"
        },
        {
          "internalType": "string",
          "name": "description",
          "type": "string"
        },
        {
          "internalType": "address",
          "name": "proposer",
          "type": "address"
        }
      ],
      "name": "$_propose",
      "outputs": [
        {
          "internalType": "uint256",
          "name": "proposalId",
          "type": "uint256"
        }
      ],
      "stateMutability": "nonpayable",
      "type": "function"
    },
    {
      "inputs": [
        {
          "internalType": "uint256",
          "name": "arg0",
          "type": "uint256"
        },
        {
          "internalType": "address[]",
          "name": "arg1",
          "type": "address[]"
        },
        {
          "internalType": "uint256[]",
          "name": "arg2",
          "type": "uint256[]"
        },
        {
          "internalType": "bytes[]",
          "name": "arg3",
          "type": "bytes[]"
        },
        {
          "internalType": "bytes32",
          "name": "arg4",
          "type": "bytes32"
        }
      ],
      "name": "$_queueOperations",
      "outputs": [
        {
          "internalType": "uint48",
          "name": "ret0",
          "type": "uint48"
        }
      ],
      "stateMutability": "nonpayable",
      "type": "function"
    },
    {
      "inputs": [
        {
          "internalType": "uint256",
          "name": "proposalId",
          "type": "uint256"
        }
      ],
      "name": "$_quorumReached",
      "outputs": [
        {
          "internalType": "bool",
          "name": "ret0",
          "type": "bool"
        }
      ],
      "stateMutability": "view",
      "type": "function"
    },
    {
      "inputs": [
        {
          "internalType": "uint256",
          "name": "newProposalThreshold",
          "type": "uint256"
        }
      ],
      "name": "$_setProposalThreshold",
      "outputs": [],
      "stateMutability": "nonpayable",
      "type": "function"
    },
    {
      "inputs": [
        {
          "internalType": "uint48",
          "name": "newVotingDelay",
          "type": "uint48"
        }
      ],
      "name": "$_setVotingDelay",
      "outputs": [],
      "stateMutability": "nonpayable",
      "type": "function"
    },
    {
      "inputs": [
        {
          "internalType": "uint32",
          "name": "newVotingPeriod",
          "type": "uint32"
        }
      ],
      "name": "$_setVotingPeriod",
      "outputs": [],
      "stateMutability": "nonpayable",
      "type": "function"
    },
    {
      "inputs": [
        {
          "internalType": "uint256",
          "name": "proposalId",
          "type": "uint256"
        }
      ],
      "name": "$_tallyUpdated",
      "outputs": [],
      "stateMutability": "nonpayable",
      "type": "function"
    },
    {
      "inputs": [
        {
          "internalType": "uint256",
          "name": "newQuorumNumerator",
          "type": "uint256"
        }
      ],
      "name": "$_updateQuorumNumerator",
      "outputs": [],
      "stateMutability": "nonpayable",
      "type": "function"
    },
    {
      "inputs": [
        {
          "internalType": "address",
          "name": "owner",
          "type": "address"
        },
        {
          "internalType": "uint256",
          "name": "nonce",
          "type": "uint256"
        }
      ],
      "name": "$_useCheckedNonce",
      "outputs": [],
      "stateMutability": "nonpayable",
      "type": "function"
    },
    {
      "inputs": [
        {
          "internalType": "address",
          "name": "owner",
          "type": "address"
        }
      ],
      "name": "$_useNonce",
      "outputs": [
        {
          "internalType": "uint256",
          "name": "ret0",
          "type": "uint256"
        }
      ],
      "stateMutability": "nonpayable",
      "type": "function"
    },
    {
      "inputs": [
        {
          "internalType": "uint256",
          "name": "proposalId",
          "type": "uint256"
        },
        {
          "internalType": "bytes32",
          "name": "allowedStates",
          "type": "bytes32"
        }
      ],
      "name": "$_validateStateBitmap",
      "outputs": [
        {
          "internalType": "enum IGovernor.ProposalState",
          "name": "ret0",
          "type": "uint8"
        }
      ],
      "stateMutability": "view",
      "type": "function"
    },
    {
      "inputs": [
        {
          "internalType": "uint256",
          "name": "proposalId",
          "type": "uint256"
        }
      ],
      "name": "$_voteSucceeded",
      "outputs": [
        {
          "internalType": "bool",
          "name": "ret0",
          "type": "bool"
        }
      ],
      "stateMutability": "view",
      "type": "function"
    },
    {
      "inputs": [],
      "name": "BALLOT_TYPEHASH",
      "outputs": [
        {
          "internalType": "bytes32",
          "name": "",
          "type": "bytes32"
        }
      ],
      "stateMutability": "view",
      "type": "function"
    },
    {
      "inputs": [],
      "name": "CLOCK_MODE",
      "outputs": [
        {
          "internalType": "string",
          "name": "",
          "type": "string"
        }
      ],
      "stateMutability": "view",
      "type": "function"
    },
    {
      "inputs": [],
      "name": "COUNTING_MODE",
      "outputs": [
        {
          "internalType": "string",
          "name": "",
          "type": "string"
        }
      ],
      "stateMutability": "pure",
      "type": "function"
    },
    {
      "inputs": [],
      "name": "EXTENDED_BALLOT_TYPEHASH",
      "outputs": [
        {
          "internalType": "bytes32",
          "name": "",
          "type": "bytes32"
        }
      ],
      "stateMutability": "view",
      "type": "function"
    },
    {
      "inputs": [],
      "name": "__hh_exposed_bytecode_marker",
      "outputs": [
        {
          "internalType": "bytes32",
          "name": "",
          "type": "bytes32"
        }
      ],
      "stateMutability": "view",
      "type": "function"
    },
    {
      "inputs": [
        {
          "internalType": "address[]",
          "name": "targets",
          "type": "address[]"
        },
        {
          "internalType": "uint256[]",
          "name": "values",
          "type": "uint256[]"
        },
        {
          "internalType": "bytes[]",
          "name": "calldatas",
          "type": "bytes[]"
        },
        {
          "internalType": "bytes32",
          "name": "descriptionHash",
          "type": "bytes32"
        }
      ],
      "name": "cancel",
      "outputs": [
        {
          "internalType": "uint256",
          "name": "",
          "type": "uint256"
        }
      ],
      "stateMutability": "nonpayable",
      "type": "function"
    },
    {
      "inputs": [
        {
          "internalType": "uint256",
          "name": "proposalId",
          "type": "uint256"
        },
        {
          "internalType": "uint8",
          "name": "support",
          "type": "uint8"
        }
      ],
      "name": "castVote",
      "outputs": [
        {
          "internalType": "uint256",
          "name": "",
          "type": "uint256"
        }
      ],
      "stateMutability": "nonpayable",
      "type": "function"
    },
    {
      "inputs": [
        {
          "internalType": "uint256",
          "name": "proposalId",
          "type": "uint256"
        },
        {
          "internalType": "uint8",
          "name": "support",
          "type": "uint8"
        },
        {
          "internalType": "address",
          "name": "voter",
          "type": "address"
        },
        {
          "internalType": "bytes",
          "name": "signature",
          "type": "bytes"
        }
      ],
      "name": "castVoteBySig",
      "outputs": [
        {
          "internalType": "uint256",
          "name": "",
          "type": "uint256"
        }
      ],
      "stateMutability": "nonpayable",
      "type": "function"
    },
    {
      "inputs": [
        {
          "internalType": "uint256",
          "name": "proposalId",
          "type": "uint256"
        },
        {
          "internalType": "uint8",
          "name": "support",
          "type": "uint8"
        },
        {
          "internalType": "string",
          "name": "reason",
          "type": "string"
        }
      ],
      "name": "castVoteWithReason",
      "outputs": [
        {
          "internalType": "uint256",
          "name": "",
          "type": "uint256"
        }
      ],
      "stateMutability": "nonpayable",
      "type": "function"
    },
    {
      "inputs": [
        {
          "internalType": "uint256",
          "name": "proposalId",
          "type": "uint256"
        },
        {
          "internalType": "uint8",
          "name": "support",
          "type": "uint8"
        },
        {
          "internalType": "string",
          "name": "reason",
          "type": "string"
        },
        {
          "internalType": "bytes",
          "name": "params",
          "type": "bytes"
        }
      ],
      "name": "castVoteWithReasonAndParams",
      "outputs": [
        {
          "internalType": "uint256",
          "name": "",
          "type": "uint256"
        }
      ],
      "stateMutability": "nonpayable",
      "type": "function"
    },
    {
      "inputs": [
        {
          "internalType": "uint256",
          "name": "proposalId",
          "type": "uint256"
        },
        {
          "internalType": "uint8",
          "name": "support",
          "type": "uint8"
        },
        {
          "internalType": "address",
          "name": "voter",
          "type": "address"
        },
        {
          "internalType": "string",
          "name": "reason",
          "type": "string"
        },
        {
          "internalType": "bytes",
          "name": "params",
          "type": "bytes"
        },
        {
          "internalType": "bytes",
          "name": "signature",
          "type": "bytes"
        }
      ],
      "name": "castVoteWithReasonAndParamsBySig",
      "outputs": [
        {
          "internalType": "uint256",
          "name": "",
          "type": "uint256"
        }
      ],
      "stateMutability": "nonpayable",
      "type": "function"
    },
    {
      "inputs": [],
      "name": "clock",
      "outputs": [
        {
          "internalType": "uint48",
          "name": "",
          "type": "uint48"
        }
      ],
      "stateMutability": "view",
      "type": "function"
    },
    {
      "inputs": [],
      "name": "eip712Domain",
      "outputs": [
        {
          "internalType": "bytes1",
          "name": "fields",
          "type": "bytes1"
        },
        {
          "internalType": "string",
          "name": "name",
          "type": "string"
        },
        {
          "internalType": "string",
          "name": "version",
          "type": "string"
        },
        {
          "internalType": "uint256",
          "name": "chainId",
          "type": "uint256"
        },
        {
          "internalType": "address",
          "name": "verifyingContract",
          "type": "address"
        },
        {
          "internalType": "bytes32",
          "name": "salt",
          "type": "bytes32"
        },
        {
          "internalType": "uint256[]",
          "name": "extensions",
          "type": "uint256[]"
        }
      ],
      "stateMutability": "view",
      "type": "function"
    },
    {
      "inputs": [
        {
          "internalType": "address[]",
          "name": "targets",
          "type": "address[]"
        },
        {
          "internalType": "uint256[]",
          "name": "values",
          "type": "uint256[]"
        },
        {
          "internalType": "bytes[]",
          "name": "calldatas",
          "type": "bytes[]"
        },
        {
          "internalType": "bytes32",
          "name": "descriptionHash",
          "type": "bytes32"
        }
      ],
      "name": "execute",
      "outputs": [
        {
          "internalType": "uint256",
          "name": "",
          "type": "uint256"
        }
      ],
      "stateMutability": "payable",
      "type": "function"
    },
    {
      "inputs": [
        {
          "internalType": "address[]",
          "name": "targets",
          "type": "address[]"
        },
        {
          "internalType": "uint256[]",
          "name": "values",
          "type": "uint256[]"
        },
        {
          "internalType": "bytes[]",
          "name": "calldatas",
          "type": "bytes[]"
        },
        {
          "internalType": "bytes32",
          "name": "descriptionHash",
          "type": "bytes32"
        }
      ],
      "name": "getProposalId",
      "outputs": [
        {
          "internalType": "uint256",
          "name": "",
          "type": "uint256"
        }
      ],
      "stateMutability": "view",
      "type": "function"
    },
    {
      "inputs": [
        {
          "internalType": "address",
          "name": "account",
          "type": "address"
        },
        {
          "internalType": "uint256",
          "name": "timepoint",
          "type": "uint256"
        }
      ],
      "name": "getVotes",
      "outputs": [
        {
          "internalType": "uint256",
          "name": "",
          "type": "uint256"
        }
      ],
      "stateMutability": "view",
      "type": "function"
    },
    {
      "inputs": [
        {
          "internalType": "address",
          "name": "account",
          "type": "address"
        },
        {
          "internalType": "uint256",
          "name": "timepoint",
          "type": "uint256"
        },
        {
          "internalType": "bytes",
          "name": "params",
          "type": "bytes"
        }
      ],
      "name": "getVotesWithParams",
      "outputs": [
        {
          "internalType": "uint256",
          "name": "",
          "type": "uint256"
        }
      ],
      "stateMutability": "view",
      "type": "function"
    },
    {
      "inputs": [
        {
          "internalType": "uint256",
          "name": "proposalId",
          "type": "uint256"
        },
        {
          "internalType": "address",
          "name": "account",
          "type": "address"
        }
      ],
      "name": "hasVoted",
      "outputs": [
        {
          "internalType": "bool",
          "name": "",
          "type": "bool"
        }
      ],
      "stateMutability": "view",
      "type": "function"
    },
    {
      "inputs": [
        {
          "internalType": "address[]",
          "name": "targets",
          "type": "address[]"
        },
        {
          "internalType": "uint256[]",
          "name": "values",
          "type": "uint256[]"
        },
        {
          "internalType": "bytes[]",
          "name": "calldatas",
          "type": "bytes[]"
        },
        {
          "internalType": "bytes32",
          "name": "descriptionHash",
          "type": "bytes32"
        }
      ],
      "name": "hashProposal",
      "outputs": [
        {
          "internalType": "uint256",
          "name": "",
          "type": "uint256"
        }
      ],
      "stateMutability": "pure",
      "type": "function"
    },
    {
      "inputs": [],
      "name": "name",
      "outputs": [
        {
          "internalType": "string",
          "name": "",
          "type": "string"
        }
      ],
      "stateMutability": "view",
      "type": "function"
    },
    {
      "inputs": [
        {
          "internalType": "address",
          "name": "owner",
          "type": "address"
        }
      ],
      "name": "nonces",
      "outputs": [
        {
          "internalType": "uint256",
          "name": "",
          "type": "uint256"
        }
      ],
      "stateMutability": "view",
      "type": "function"
    },
    {
      "inputs": [
        {
          "internalType": "address",
          "name": "",
          "type": "address"
        },
        {
          "internalType": "address",
          "name": "",
          "type": "address"
        },
        {
          "internalType": "uint256[]",
          "name": "",
          "type": "uint256[]"
        },
        {
          "internalType": "uint256[]",
          "name": "",
          "type": "uint256[]"
        },
        {
          "internalType": "bytes",
          "name": "",
          "type": "bytes"
        }
      ],
      "name": "onERC1155BatchReceived",
      "outputs": [
        {
          "internalType": "bytes4",
          "name": "",
          "type": "bytes4"
        }
      ],
      "stateMutability": "nonpayable",
      "type": "function"
    },
    {
      "inputs": [
        {
          "internalType": "address",
          "name": "",
          "type": "address"
        },
        {
          "internalType": "address",
          "name": "",
          "type": "address"
        },
        {
          "internalType": "uint256",
          "name": "",
          "type": "uint256"
        },
        {
          "internalType": "uint256",
          "name": "",
          "type": "uint256"
        },
        {
          "internalType": "bytes",
          "name": "",
          "type": "bytes"
        }
      ],
      "name": "onERC1155Received",
      "outputs": [
        {
          "internalType": "bytes4",
          "name": "",
          "type": "bytes4"
        }
      ],
      "stateMutability": "nonpayable",
      "type": "function"
    },
    {
      "inputs": [
        {
          "internalType": "address",
          "name": "",
          "type": "address"
        },
        {
          "internalType": "address",
          "name": "",
          "type": "address"
        },
        {
          "internalType": "uint256",
          "name": "",
          "type": "uint256"
        },
        {
          "internalType": "bytes",
          "name": "",
          "type": "bytes"
        }
      ],
      "name": "onERC721Received",
      "outputs": [
        {
          "internalType": "bytes4",
          "name": "",
          "type": "bytes4"
        }
      ],
      "stateMutability": "nonpayable",
      "type": "function"
    },
    {
      "inputs": [
        {
          "internalType": "uint256",
          "name": "proposalId",
          "type": "uint256"
        }
      ],
      "name": "proposalDeadline",
      "outputs": [
        {
          "internalType": "uint256",
          "name": "",
          "type": "uint256"
        }
      ],
      "stateMutability": "view",
      "type": "function"
    },
    {
      "inputs": [
        {
          "internalType": "uint256",
          "name": "proposalId",
          "type": "uint256"
        }
      ],
      "name": "proposalEta",
      "outputs": [
        {
          "internalType": "uint256",
          "name": "",
          "type": "uint256"
        }
      ],
      "stateMutability": "view",
      "type": "function"
    },
    {
      "inputs": [
        {
          "internalType": "uint256",
          "name": "",
          "type": "uint256"
        }
      ],
      "name": "proposalNeedsQueuing",
      "outputs": [
        {
          "internalType": "bool",
          "name": "",
          "type": "bool"
        }
      ],
      "stateMutability": "view",
      "type": "function"
    },
    {
      "inputs": [
        {
          "internalType": "uint256",
          "name": "proposalId",
          "type": "uint256"
        }
      ],
      "name": "proposalProposer",
      "outputs": [
        {
          "internalType": "address",
          "name": "",
          "type": "address"
        }
      ],
      "stateMutability": "view",
      "type": "function"
    },
    {
      "inputs": [
        {
          "internalType": "uint256",
          "name": "proposalId",
          "type": "uint256"
        }
      ],
      "name": "proposalSnapshot",
      "outputs": [
        {
          "internalType": "uint256",
          "name": "",
          "type": "uint256"
        }
      ],
      "stateMutability": "view",
      "type": "function"
    },
    {
      "inputs": [],
      "name": "proposalThreshold",
      "outputs": [
        {
          "internalType": "uint256",
          "name": "",
          "type": "uint256"
        }
      ],
      "stateMutability": "view",
      "type": "function"
    },
    {
      "inputs": [
        {
          "internalType": "uint256",
          "name": "proposalId",
          "type": "uint256"
        }
      ],
      "name": "proposalVotes",
      "outputs": [
        {
          "internalType": "uint256",
          "name": "againstVotes",
          "type": "uint256"
        },
        {
          "internalType": "uint256",
          "name": "forVotes",
          "type": "uint256"
        },
        {
          "internalType": "uint256",
          "name": "abstainVotes",
          "type": "uint256"
        }
      ],
      "stateMutability": "view",
      "type": "function"
    },
    {
      "inputs": [
        {
          "internalType": "address[]",
          "name": "targets",
          "type": "address[]"
        },
        {
          "internalType": "uint256[]",
          "name": "values",
          "type": "uint256[]"
        },
        {
          "internalType": "bytes[]",
          "name": "calldatas",
          "type": "bytes[]"
        },
        {
          "internalType": "string",
          "name": "description",
          "type": "string"
        }
      ],
      "name": "propose",
      "outputs": [
        {
          "internalType": "uint256",
          "name": "",
          "type": "uint256"
        }
      ],
      "stateMutability": "nonpayable",
      "type": "function"
    },
    {
      "inputs": [
        {
          "internalType": "address[]",
          "name": "targets",
          "type": "address[]"
        },
        {
          "internalType": "uint256[]",
          "name": "values",
          "type": "uint256[]"
        },
        {
          "internalType": "bytes[]",
          "name": "calldatas",
          "type": "bytes[]"
        },
        {
          "internalType": "bytes32",
          "name": "descriptionHash",
          "type": "bytes32"
        }
      ],
      "name": "queue",
      "outputs": [
        {
          "internalType": "uint256",
          "name": "",
          "type": "uint256"
        }
      ],
      "stateMutability": "nonpayable",
      "type": "function"
    },
    {
      "inputs": [
        {
          "internalType": "uint256",
          "name": "timepoint",
          "type": "uint256"
        }
      ],
      "name": "quorum",
      "outputs": [
        {
          "internalType": "uint256",
          "name": "",
          "type": "uint256"
        }
      ],
      "stateMutability": "view",
      "type": "function"
    },
    {
      "inputs": [],
      "name": "quorumDenominator",
      "outputs": [
        {
          "internalType": "uint256",
          "name": "",
          "type": "uint256"
        }
      ],
      "stateMutability": "view",
      "type": "function"
    },
    {
      "inputs": [
        {
          "internalType": "uint256",
          "name": "timepoint",
          "type": "uint256"
        }
      ],
      "name": "quorumNumerator",
      "outputs": [
        {
          "internalType": "uint256",
          "name": "",
          "type": "uint256"
        }
      ],
      "stateMutability": "view",
      "type": "function"
    },
    {
      "inputs": [],
      "name": "quorumNumerator",
      "outputs": [
        {
          "internalType": "uint256",
          "name": "",
          "type": "uint256"
        }
      ],
      "stateMutability": "view",
      "type": "function"
    },
    {
      "inputs": [
        {
          "internalType": "address",
          "name": "target",
          "type": "address"
        },
        {
          "internalType": "uint256",
          "name": "value",
          "type": "uint256"
        },
        {
          "internalType": "bytes",
          "name": "data",
          "type": "bytes"
        }
      ],
      "name": "relay",
      "outputs": [],
      "stateMutability": "payable",
      "type": "function"
    },
    {
      "inputs": [
        {
          "internalType": "uint256",
          "name": "newProposalThreshold",
          "type": "uint256"
        }
      ],
      "name": "setProposalThreshold",
      "outputs": [],
      "stateMutability": "nonpayable",
      "type": "function"
    },
    {
      "inputs": [
        {
          "internalType": "uint48",
          "name": "newVotingDelay",
          "type": "uint48"
        }
      ],
      "name": "setVotingDelay",
      "outputs": [],
      "stateMutability": "nonpayable",
      "type": "function"
    },
    {
      "inputs": [
        {
          "internalType": "uint32",
          "name": "newVotingPeriod",
          "type": "uint32"
        }
      ],
      "name": "setVotingPeriod",
      "outputs": [],
      "stateMutability": "nonpayable",
      "type": "function"
    },
    {
      "inputs": [
        {
          "internalType": "uint256",
          "name": "proposalId",
          "type": "uint256"
        }
      ],
      "name": "state",
      "outputs": [
        {
          "internalType": "enum IGovernor.ProposalState",
          "name": "",
          "type": "uint8"
        }
      ],
      "stateMutability": "view",
      "type": "function"
    },
    {
      "inputs": [
        {
          "internalType": "bytes4",
          "name": "interfaceId",
          "type": "bytes4"
        }
      ],
      "name": "supportsInterface",
      "outputs": [
        {
          "internalType": "bool",
          "name": "",
          "type": "bool"
        }
      ],
      "stateMutability": "view",
      "type": "function"
    },
    {
      "inputs": [],
      "name": "token",
      "outputs": [
        {
          "internalType": "contract IERC5805",
          "name": "",
          "type": "address"
        }
      ],
      "stateMutability": "view",
      "type": "function"
    },
    {
      "inputs": [
        {
          "internalType": "uint256",
          "name": "newQuorumNumerator",
          "type": "uint256"
        }
      ],
      "name": "updateQuorumNumerator",
      "outputs": [],
      "stateMutability": "nonpayable",
      "type": "function"
    },
    {
      "inputs": [],
      "name": "version",
      "outputs": [
        {
          "internalType": "string",
          "name": "",
          "type": "string"
        }
      ],
      "stateMutability": "view",
      "type": "function"
    },
    {
      "inputs": [],
      "name": "votingDelay",
      "outputs": [
        {
          "internalType": "uint256",
          "name": "",
          "type": "uint256"
        }
      ],
      "stateMutability": "view",
      "type": "function"
    },
    {
      "inputs": [],
      "name": "votingPeriod",
      "outputs": [
        {
          "internalType": "uint256",
          "name": "",
          "type": "uint256"
        }
      ],
      "stateMutability": "view",
      "type": "function"
    },
    {
      "stateMutability": "payable",
      "type": "receive"
    }
  ],
  "bytecode": "0x610180604052604051620055a4380380620055a483398101604081905262000027916200071b565b80828686868a806200004d6040805180820190915260018152603160f81b602082015290565b62000059825f6200015a565b610120526200006a8160016200015a565b61014052815160208084019190912060e052815190820120610100524660a052620000f760e05161010051604080517f8b73c3c69bb8fe3d512ecc4cf759cc79239f7b179b0ffacaa9a75d522b39400f60208201529081019290925260608201524660808201523060a08201525f9060c00160405160208183030381529060405280519060200120905090565b60805250503060c05260036200010e8282620008a2565b506200011c90508362000192565b6200012782620001f8565b62000132816200029d565b5050506001600160a01b0316610160526200014d81620002de565b5050505050505062000a02565b5f602083511015620001795762000171836200037d565b90506200018c565b81620001868482620008a2565b5060ff90505b92915050565b6008546040805165ffffffffffff928316815291831660208301527fc565b045403dc03c2eea82b81a0465edad9e2e7fc4d97e11421c209da93d7a93910160405180910390a16008805465ffffffffffff191665ffffffffffff92909216919091179055565b8063ffffffff165f03620002265760405163f1cfbf0560e01b81525f60048201526024015b60405180910390fd5b6008546040805163ffffffff66010000000000009093048316815291831660208301527f7e3f7f0708a84de9203036abaa450dccc85ad5ff52f78c170f3edb55cf5e8828910160405180910390a16008805463ffffffff90921666010000000000000263ffffffff60301b19909216919091179055565b60075460408051918252602082018390527fccb45da8d5717e6c4544694297c4ba5cf151d455c9bb0ed4fc7a38411bc05461910160405180910390a1600755565b6064808211156200030d5760405163243e544560e01b815260048101839052602481018290526044016200021d565b5f62000318620003bf565b90506200033d62000328620003da565b62000333856200045b565b6009919062000494565b505060408051828152602081018590527f0553476bf02ef2726e8ce5ced78d63e26e602e4a2257b1f559418e24b4633997910160405180910390a1505050565b5f80829050601f81511115620003aa578260405163305a27a960e01b81526004016200021d91906200096e565b8051620003b782620009a2565b179392505050565b5f620003cc6009620004b0565b6001600160d01b0316905090565b5f620003e66101605190565b6001600160a01b03166391ddadf46040518163ffffffff1660e01b8152600401602060405180830381865afa92505050801562000442575060408051601f3d908101601f191682019092526200043f91810190620009c6565b60015b620004565762000451620004fd565b905090565b919050565b5f6001600160d01b0382111562000490576040516306dfcc6560e41b815260d06004820152602481018390526044016200021d565b5090565b5f80620004a385858562000509565b915091505b935093915050565b80545f908015620004f457620004da83620004cd600184620009e2565b5f91825260209091200190565b54660100000000000090046001600160d01b0316620004f6565b5f5b9392505050565b5f62000451436200066e565b82545f908190801562000610575f6200052987620004cd600185620009e2565b805490915065ffffffffffff80821691660100000000000090046001600160d01b03169088168211156200057057604051632520601d60e01b815260040160405180910390fd5b8765ffffffffffff168265ffffffffffff1603620005ae57825465ffffffffffff1666010000000000006001600160d01b0389160217835562000601565b6040805180820190915265ffffffffffff808a1682526001600160d01b03808a1660208085019182528d54600181018f555f8f815291909120945191519092166601000000000000029216919091179101555b9450859350620004a892505050565b50506040805180820190915265ffffffffffff80851682526001600160d01b0380851660208085019182528854600181018a555f8a8152918220955192519093166601000000000000029190931617920191909155905081620004a8565b5f65ffffffffffff82111562000490576040516306dfcc6560e41b815260306004820152602481018390526044016200021d565b634e487b7160e01b5f52604160045260245ffd5b5f5b83811015620006d2578181015183820152602001620006b8565b50505f910152565b805165ffffffffffff8116811462000456575f80fd5b805163ffffffff8116811462000456575f80fd5b80516001600160a01b038116811462000456575f80fd5b5f805f805f8060c0878903121562000731575f80fd5b86516001600160401b038082111562000748575f80fd5b818901915089601f8301126200075c575f80fd5b815181811115620007715762000771620006a2565b604051601f8201601f19908116603f011681019083821181831017156200079c576200079c620006a2565b816040528281528c6020848701011115620007b5575f80fd5b620007c8836020830160208801620006b6565b809a505050505050620007de60208801620006da565b9450620007ee60408801620006f0565b935060608701519250620008056080880162000704565b915060a087015190509295509295509295565b600181811c908216806200082d57607f821691505b6020821081036200084c57634e487b7160e01b5f52602260045260245ffd5b50919050565b601f8211156200089d57805f5260205f20601f840160051c81016020851015620008795750805b601f840160051c820191505b818110156200089a575f815560010162000885565b50505b505050565b81516001600160401b03811115620008be57620008be620006a2565b620008d681620008cf845462000818565b8462000852565b602080601f8311600181146200090c575f8415620008f45750858301515b5f19600386901b1c1916600185901b17855562000966565b5f85815260208120601f198616915b828110156200093c578886015182559484019460019091019084016200091b565b50858210156200095a57878501515f19600388901b60f8161c191681555b505060018460011b0185555b505050505050565b602081525f82518060208401526200098e816040850160208701620006b6565b601f01601f19169190910160400192915050565b805160208083015191908110156200084c575f1960209190910360031b1b16919050565b5f60208284031215620009d7575f80fd5b620004f682620006da565b818103818111156200018c57634e487b7160e01b5f52601160045260245ffd5b60805160a05160c05160e05161010051610120516101405161016051614b2a62000a7a5f395f8181610e800152818161150801528181611c9d015281816120750152612c5301525f6122ea01525f61225f01525f612a6801525f612a4001525f61299b01525f6129c501525f6129ef0152614b2a5ff3fe608060405260043610610450575f3560e01c80636b2f5df011610236578063b58131b011610134578063e488ade1116100b3578063f23a6e6111610078578063f23a6e6114610e09578063f7a2e6e114610e34578063f8ce560a14610e53578063fc0c546a14610e72578063fc2e6e3c14610ea4575f80fd5b8063e488ade114610d6e578063e540d01d14610d8d578063e7fadc1614610dac578063eb9019d414610dcb578063ece40cc114610dea575f80fd5b8063c59057e4116100f9578063c59057e414610c99578063cbc1c5f314610cb8578063daf80f5f14610cd7578063dd4e2ba514610cf6578063deaaa7cc14610d3b575f80fd5b8063b58131b014610c09578063bc197c8114610c1d578063c01f9e3714610c48578063c242bfc714610c67578063c28bc2fa14610c86575f80fd5b806391ddadf4116101c0578063a15697c411610185578063a15697c414610b62578063a7713a7014610b81578063a8f8a66814610b95578063a9a9529414610bb4578063ab58fb8e14610bd3575f80fd5b806391ddadf414610ac957806397c3d33414610af45780639a802a6d14610b075780639e3db5e914610b26578063a0710f0514610b45575f80fd5b80637b3c71d3116102065780637b3c71d314610a115780637d5e81e214610a305780637ecebe0014610a4f57806384b0196e14610a835780638ff262e314610aaa575f80fd5b80636b2f5df0146109955780636b4ac502146109b457806372352945146109d357806379051887146109f2575f80fd5b8063342db7391161034e57806354dc7b41116102cd5780635c93b6ec116102925780635c93b6ec146109125780635f398a14146109315780635f8d5e741461095057806360c4247f1461096457806367354a8414610983575f80fd5b806354dc7b411461087857806354fd4d501461089757806356781388146108c05780635b8d0e0d146108df5780635c501ba8146108fe575f80fd5b80634724aa99116103135780634724aa99146107c15780634abf4684146107d35780634bf5d7e9146107f2578063506a6f0c14610806578063544ffc9c14610825575f80fd5b8063342db739146106ed5780633932abb1146107125780633e4f49e61461072e578063438596321461075a578063452115d6146107a2575f80fd5b8063160cbed7116103da5780632e8fbee51161039f5780632e8fbee5146106495780632f2b6caa146106685780632fe3e2611461068757806332cadf3c146106ba57806332f4dd99146106ce575f80fd5b8063160cbed7146105d2578063174ccd82146105f15780632656227d146106055780632904df29146106185780632d63f6931461062a575f80fd5b806306fdde031161042057806306fdde03146104ef5780630ede0bea146105105780631164d13b1461052f578063143489d014610543578063150b7a021461058f575f80fd5b806301ffc9a71461045d57806302a251a31461049157806304626344146104bc57806306f3f9e6146104d0575f80fd5b3661045957005b005b5f80fd5b348015610468575f80fd5b5061047c61047736600461378e565b610ec3565b60405190151581526020015b60405180910390f35b34801561049c575f80fd5b50600854600160301b900463ffffffff165b604051908152602001610488565b3480156104c7575f80fd5b50610457610f2f565b3480156104db575f80fd5b506104576104ea3660046137b5565b610f39565b3480156104fa575f80fd5b50610503610f4a565b6040516104889190613819565b34801561051b575f80fd5b5061045761052a36600461382b565b610fda565b34801561053a575f80fd5b50610503610fe3565b34801561054e575f80fd5b5061057761055d3660046137b5565b5f908152600460205260409020546001600160a01b031690565b6040516001600160a01b039091168152602001610488565b34801561059a575f80fd5b506105b96105a9366004613927565b630a85bd0160e11b949350505050565b6040516001600160e01b03199091168152602001610488565b3480156105dd575f80fd5b506104ae6105ec366004613b03565b610ff2565b3480156105fc575f80fd5b50610503611030565b6104ae610613366004613b03565b61103a565b348015610623575f80fd5b5033610577565b348015610635575f80fd5b506104ae6106443660046137b5565b611162565b348015610654575f80fd5b506104ae610663366004613b8c565b611182565b348015610673575f80fd5b50610457610682366004613bec565b6111cc565b348015610692575f80fd5b506104ae7f3e83946653575f9a39005e1545185629e92736b7528ab20ca3816f315424a81181565b3480156106c5575f80fd5b5061050361124f565b3480156106d9575f80fd5b506104ae6106e8366004613cdb565b61128c565b3480156106f8575f80fd5b506104ae6e1a185c991a185d0b595e1c1bdcd959608a1b81565b34801561071d575f80fd5b5060085465ffffffffffff166104ae565b348015610739575f80fd5b5061074d6107483660046137b5565b611347565b6040516104889190613da2565b348015610765575f80fd5b5061047c610774366004613db0565b5f828152600a602090815260408083206001600160a01b038516845260030190915290205460ff1692915050565b3480156107ad575f80fd5b506104ae6107bc366004613b03565b61147d565b3480156107cc575f80fd5b5030610577565b3480156107de575f80fd5b5061047c6107ed3660046137b5565b6114e9565b3480156107fd575f80fd5b50610503611504565b348015610811575f80fd5b506104ae6108203660046137b5565b6115c4565b348015610830575f80fd5b5061085d61083f3660046137b5565b5f908152600a60205260409020805460018201546002909201549092565b60408051938452602084019290925290820152606001610488565b348015610883575f80fd5b5061047c610892366004613dda565b6115ce565b3480156108a2575f80fd5b506040805180820190915260018152603160f81b6020820152610503565b3480156108cb575f80fd5b506104ae6108da366004613e28565b611616565b3480156108ea575f80fd5b506104ae6108f9366004613e49565b611635565b348015610909575f80fd5b50610503611774565b34801561091d575f80fd5b506104ae61092c366004613ef9565b61178a565b34801561093c575f80fd5b506104ae61094b366004613fc2565b611882565b34801561095b575f80fd5b506104ae6118d5565b34801561096f575f80fd5b506104ae61097e3660046137b5565b6118de565b34801561098e575f80fd5b505f6104ae565b3480156109a0575f80fd5b506104ae6109af36600461403f565b61196a565b3480156109bf575f80fd5b506104576109ce3660046140d9565b611a16565b3480156109de575f80fd5b506104ae6109ed366004614101565b611a24565b3480156109fd575f80fd5b50610457610a0c36600461417d565b611a99565b348015610a1c575f80fd5b506104ae610a2b366004614198565b611aaa565b348015610a3b575f80fd5b506104ae610a4a3660046141ed565b611af0565b348015610a5a575f80fd5b506104ae610a69366004613b8c565b6001600160a01b03165f9081526002602052604090205490565b348015610a8e575f80fd5b50610a97611ba6565b60405161048897969594939291906142d3565b348015610ab5575f80fd5b506104ae610ac4366004614342565b611be8565b348015610ad4575f80fd5b50610add611c9a565b60405165ffffffffffff9091168152602001610488565b348015610aff575f80fd5b5060646104ae565b348015610b12575f80fd5b506104ae610b2136600461438d565b611d21565b348015610b31575f80fd5b50610457610b403660046137b5565b610f41565b348015610b50575f80fd5b50610457610b5f3660046137b5565b50565b348015610b6d575f80fd5b506104ae610b7c3660046143df565b611d34565b348015610b8c575f80fd5b506104ae611d3e565b348015610ba0575f80fd5b506104ae610baf366004613b03565b611d57565b348015610bbf575f80fd5b5061047c610bce3660046137b5565b505f90565b348015610bde575f80fd5b506104ae610bed3660046137b5565b5f9081526004602052604090206001015465ffffffffffff1690565b348015610c14575f80fd5b506104ae611d6d565b348015610c28575f80fd5b506105b9610c373660046143fd565b63bc197c8160e01b95945050505050565b348015610c53575f80fd5b506104ae610c623660046137b5565b611d77565b348015610c72575f80fd5b506104ae610c81366004614485565b611db9565b610457610c943660046144f7565b611e41565b348015610ca4575f80fd5b506104ae610cb3366004613b03565b611ebd565b348015610cc3575f80fd5b506104ae610cd23660046144f7565b611ef6565b348015610ce2575f80fd5b5061047c610cf13660046137b5565b611f37565b348015610d01575f80fd5b506040805180820190915260208082527f737570706f72743d627261766f2671756f72756d3d666f722c6162737461696e90820152610503565b348015610d46575f80fd5b506104ae7ff2aad550cf55f045cb27e9c559f9889fdfb6e6cdaa032301d6ea397784ae51d781565b348015610d79575f80fd5b5061074d610d88366004614534565b611f41565b348015610d98575f80fd5b50610457610da736600461382b565b611f4c565b348015610db7575f80fd5b50610457610dc636600461417d565b611aa1565b348015610dd6575f80fd5b506104ae610de53660046140d9565b611f54565b348015610df5575f80fd5b50610457610e043660046137b5565b611f73565b348015610e14575f80fd5b506105b9610e23366004614554565b63f23a6e6160e01b95945050505050565b348015610e3f575f80fd5b50610add610e4e366004613bec565b611f84565b348015610e5e575f80fd5b506104ae610e6d3660046137b5565b61204b565b348015610e7d575f80fd5b507f0000000000000000000000000000000000000000000000000000000000000000610577565b348015610eaf575f80fd5b50610457610ebe3660046137b5565b611f7b565b5f6001600160e01b031982166366defe7760e11b1480610ef357506001600160e01b031982166332a2ad4360e11b145b80610f0e57506001600160e01b03198216630271189760e51b145b80610f2957506301ffc9a760e01b6001600160e01b03198316145b92915050565b610f376120f2565b565b610f416120f2565b610b5f81612127565b606060038054610f59906145b3565b80601f0160208091040260200160405190810160405280929190818152602001828054610f85906145b3565b8015610fd05780601f10610fa757610100808354040283529160200191610fd0565b820191905f5260205f20905b815481529060010190602001808311610fb357829003601f168201915b5050505050905090565b610b5f816121bc565b6060610fed612258565b905090565b5f8061100086868686611d57565b9050611015816110106004612284565b6122a6565b505f604051634844252360e11b815260040160405180910390fd5b6060610fed6122e3565b5f8061104886868686611d57565b9050611068816110586005612284565b6110626004612284565b176122a6565b505f818152600460205260409020805460ff60f01b1916600160f01b1790553061108f3090565b6001600160a01b031614611118575f5b865181101561111657306001600160a01b03168782815181106110c4576110c46145eb565b60200260200101516001600160a01b03160361110e5761110e8582815181106110ef576110ef6145eb565b602002602001015180519060200120600561231090919063ffffffff16565b60010161109f565b505b6111258187878787612371565b6040518181527f712ae1383f79ac853f8d882153778e0260ef8f03b504e2866e0593e04d2b291f906020015b60405180910390a195945050505050565b5f90815260046020526040902054600160a01b900465ffffffffffff1690565b5f61118c82612446565b90507f8d5c13b1cd528a3e1895fdc833368c4e3af5391250c736a28e94c4fa59b3cee4816040516111bf91815260200190565b60405180910390a1919050565b611245888888808060200260200160405190810160405280939291908181526020018383602002808284375f9201919091525050604080516020808c0282810182019093528b82529093508b92508a9182918501908490808284375f9201919091525061123f92508891508990506145ff565b85612371565b5050505050505050565b60605f368080601f0160208091040260200160405190810160405280939291908181526020018383808284375f9201919091525092949350505050565b5f61130188888888888080601f0160208091040260200160405190810160405280939291908181526020018383808284375f9201919091525050604080516020601f8c018190048102820181019092528a815292508a91508990819084018382808284375f9201919091525061246892505050565b90507fbbc294ee3436818a3742886cdeae66253f76b5be8870371c691fc6998bd341d58160405161133491815260200190565b60405180910390a1979650505050505050565b5f818152600460205260408120805460ff600160f01b8204811691600160f81b900416811561137b57506007949350505050565b801561138c57506002949350505050565b5f61139686611162565b9050805f036113c057604051636ad0607560e01b8152600481018790526024015b60405180910390fd5b5f6113c9611c9a565b65ffffffffffff1690508082106113e657505f9695505050505050565b5f6113f088611d77565b905081811061140757506001979650505050505050565b61141088612546565b158061142f57505f888152600a60205260409020805460019091015411155b1561144257506003979650505050505050565b5f8881526004602052604090206001015465ffffffffffff165f0361146f57506004979650505050505050565b506005979650505050505050565b5f8061148b86868686611d57565b905061149a816110105f612284565b505f818152600460205260409020546001600160a01b031633146114d35760405163233d98e360e01b81523360048201526024016113b7565b6114df8686868661257c565b9695505050505050565b5f818152600a60205260408120805460019091015411610f29565b60607f00000000000000000000000000000000000000000000000000000000000000006001600160a01b0316634bf5d7e96040518163ffffffff1660e01b81526004015f60405180830381865afa92505050801561158357506040513d5f823e601f3d908101601f19168201604052611580919081019061460b565b60015b6115bf575060408051808201909152601d81527f6d6f64653d626c6f636b6e756d6265722666726f6d3d64656661756c74000000602082015290565b919050565b5f610f298261262b565b5f61160e8484848080601f0160208091040260200160405190810160405280939291908181526020018383808284375f9201919091525061265792505050565b949350505050565b5f8033905061160e84828560405180602001604052805f8152506126db565b5f806116f9876116f37f3e83946653575f9a39005e1545185629e92736b7528ab20ca3816f315424a8118c8c8c61166b8e612446565b8d8d60405161167b929190614673565b60405180910390208c805190602001206040516020016116d89796959493929190968752602087019590955260ff9390931660408601526001600160a01b03919091166060850152608084015260a083015260c082015260e00190565b6040516020818303038152906040528051906020012061262b565b856126fc565b905080611724576040516394ab6c0760e01b81526001600160a01b03881660048201526024016113b7565b61176789888a89898080601f0160208091040260200160405190810160405280939291908181526020018383808284375f920191909152508b9250612468915050565b9998505050505050505050565b6060610fed60408051602081019091525f815290565b5f61183a8a8a808060200260200160405190810160405280939291908181526020018383602002808284375f9201919091525050604080516020808e0282810182019093528d82529093508d92508c9182918501908490808284375f920191909152506117fd92508a91508b90506145ff565b87878080601f0160208091040260200160405190810160405280939291908181526020018383808284375f9201919091525089925061276c915050565b90507f42716af29aa8f33be8115e9e3188a11f6a7e7d5be696f229f0762e50b2a8bda78160405161186d91815260200190565b60405180910390a19998505050505050505050565b5f803390506118ca87828888888080601f0160208091040260200160405190810160405280939291908181526020018383808284375f920191909152508a9250612468915050565b979650505050505050565b5f610fed61298f565b600980545f9182906118f1600184614696565b81548110611901576119016145eb565b5f918252602090912001805490915065ffffffffffff811690600160301b90046001600160d01b0316858211611943576001600160d01b031695945050505050565b61195761194f87612ab8565b600990612aee565b6001600160d01b03169695505050505050565b5f6119e38888808060200260200160405190810160405280939291908181526020018383602002808284375f9201919091525050604080516020808c0282810182019093528b82529093508b92508a9182918501908490808284375f920191909152506119dd92508891508990506145ff565b8561257c565b90507f1e0d283ef767dcb5f9efcfe0fbcac2701275d0c54fc3493502558dc018cc3ba28160405161133491815260200190565b611a208282612b9d565b5050565b5f611a6686868686868080601f0160208091040260200160405190810160405280939291908181526020018383808284375f920191909152506126db92505050565b90507fdbf058c917126a478393ed3aa13dcdc461cc19db88c176507846e6f69ca627f98160405161115191815260200190565b611aa16120f2565b610b5f81612be0565b5f803390506114df86828787878080601f0160208091040260200160405190810160405280939291908181526020018383808284375f920191909152506126db92505050565b5f33611afc8184612657565b611b245760405163d9b3955760e01b81526001600160a01b03821660048201526024016113b7565b5f611b2d611d6d565b90508015611b99575f611b5b836001611b44611c9a565b611b4e91906146a9565b65ffffffffffff16611f54565b905081811015611b9757604051636121770b60e11b81526001600160a01b038416600482015260248101829052604481018390526064016113b7565b505b6118ca878787878661276c565b5f6060805f805f6060611bb7612258565b611bbf6122e3565b604080515f80825260208201909252600f60f81b9b939a50919850469750309650945092509050565b5f80611c55846116f37ff2aad550cf55f045cb27e9c559f9889fdfb6e6cdaa032301d6ea397784ae51d7898989611c1e8b612446565b60408051602081019690965285019390935260ff90911660608401526001600160a01b0316608083015260a082015260c0016116d8565b905080611c80576040516394ab6c0760e01b81526001600160a01b03851660048201526024016113b7565b6114df86858760405180602001604052805f8152506126db565b5f7f00000000000000000000000000000000000000000000000000000000000000006001600160a01b03166391ddadf46040518163ffffffff1660e01b8152600401602060405180830381865afa925050508015611d15575060408051601f3d908101601f19168201909252611d12918101906146cf565b60015b6115bf57610fed612c46565b5f61160e848484612c50565b9392505050565b5f610f2982612284565b5f611d496009612ce3565b6001600160d01b0316905090565b5f611d6485858585611ebd565b95945050505050565b5f610fed60075490565b5f81815260046020526040812054611dab90600160d01b810463ffffffff1690600160a01b900465ffffffffffff166146ea565b65ffffffffffff1692915050565b5f611dfc8787878787878080601f0160208091040260200160405190810160405280939291908181526020018383808284375f92019190915250612d1a92505050565b90507fa17eff957f965c6ee26364f81c85c7f8c62294b8ae4ea17224d2ed00a9c882ae81604051611e2f91815260200190565b60405180910390a19695505050505050565b611e496120f2565b5f80856001600160a01b0316858585604051611e66929190614673565b5f6040518083038185875af1925050503d805f8114611ea0576040519150601f19603f3d011682016040523d82523d5f602084013e611ea5565b606091505b5091509150611eb48282612e16565b50505050505050565b5f84848484604051602001611ed59493929190614799565b60408051601f19818403018152919052805160209091012095945050505050565b5f611d64858585858080601f0160208091040260200160405190810160405280939291908181526020018383808284375f92019190915250612c5092505050565b5f610f2982612546565b5f611d2d83836122a6565b610fda6120f2565b5f611d2d8383611f6e60408051602081019091525f815290565b612c50565b611f7b6120f2565b610b5f81612e32565b5f612001898989808060200260200160405190810160405280939291908181526020018383602002808284375f9201919091525050604080516020808d0282810182019093528c82529093508c92508b9182918501908490808284375f92019190915250611ff892508991508a90506145ff565b505f9392505050565b60405165ffffffffffff821681529091507fc7d48239722ab43f0d322d3bc5b9c80a10ed2b31ea774b6ac0852b9fdbd41fd09060200160405180910390a198975050505050505050565b5f6064612057836118de565b604051632394e7a360e21b8152600481018590526001600160a01b037f00000000000000000000000000000000000000000000000000000000000000001690638e539e8c90602401602060405180830381865afa1580156120ba573d5f803e3d5ffd5b505050506040513d601f19601f820116820180604052508101906120de91906147e3565b6120e891906147fa565b610f299190614825565b303314610f37576040516347096e4760e01b81523360048201526024016113b7565b8061211f6005612e73565b036121145750565b6064808211156121545760405163243e544560e01b815260048101839052602481018290526044016113b7565b5f61215d611d3e565b905061217c61216a611c9a565b61217385612ee0565b60099190612f13565b505060408051828152602081018590527f0553476bf02ef2726e8ce5ced78d63e26e602e4a2257b1f559418e24b4633997910160405180910390a1505050565b8063ffffffff165f036121e45760405163f1cfbf0560e01b81525f60048201526024016113b7565b6008546040805163ffffffff600160301b9093048316815291831660208301527f7e3f7f0708a84de9203036abaa450dccc85ad5ff52f78c170f3edb55cf5e8828910160405180910390a16008805463ffffffff909216600160301b0269ffffffff00000000000019909216919091179055565b6060610fed7f00000000000000000000000000000000000000000000000000000000000000005f612f2d565b5f81600781111561229757612297613d6e565b600160ff919091161b92915050565b5f806122b184611347565b90505f836122be83612284565b1603611d2d578381846040516331b75e4d60e01b81526004016113b793929190614844565b6060610fed7f00000000000000000000000000000000000000000000000000000000000000006001612f2d565b81546001600160801b03600160801b82048116918116600183019091160361233c5761233c6041612fd6565b6001600160801b038082165f90815260018086016020526040909120939093558354919092018216600160801b029116179055565b5f5b845181101561243e575f80868381518110612390576123906145eb565b60200260200101516001600160a01b03168684815181106123b3576123b36145eb565b60200260200101518685815181106123cd576123cd6145eb565b60200260200101516040516123e29190614866565b5f6040518083038185875af1925050503d805f811461241c576040519150601f19603f3d011682016040523d82523d5f602084013e612421565b606091505b50915091506124308282612e16565b505050806001019050612373565b505050505050565b6001600160a01b03165f90815260026020526040902080546001810190915590565b5f612477866110106001612284565b505f61248c8661248689611162565b85612c50565b90505f61249c8888888588612d1a565b905083515f036124f257866001600160a01b03167fb8e138887d0aa13bab447e82de9d5c1777041ecd21ca36ba824ff1e6c07ddda4898884896040516124e59493929190614881565b60405180910390a26118ca565b866001600160a01b03167fe2babfbac5889a709b63bb7f598b324e08bc5a4fb9ec647fb3cbc9ec07eb871289888489896040516125339594939291906148a8565b60405180910390a2979650505050505050565b5f818152600a602052604081206002810154600182015461256791906148ed565b612573610e6d85611162565b11159392505050565b5f8061258a86868686611d57565b90506125d88161259a6007612284565b6125a46006612284565b6125ae6002612284565b60016125bb600782614900565b6125c69060026149f9565b6125d09190614696565b1818186122a6565b505f818152600460205260409081902080546001600160f81b0316600160f81b179055517f789cf55be980739dad1d0699b93b58e806b51c9d96619bfa8fe0a28abaa7b30c906111519083815260200190565b5f610f2961263761298f565b8360405161190160f01b8152600281019290925260228201526042902090565b80515f90603481101561266e576001915050610f29565b60131981840101516001600160b01b03198116692370726f706f7365723d60b01b1461269f57600192505050610f29565b5f806126af86602a860386612fe7565b915091508115806118ca5750866001600160a01b0316816001600160a01b031614979650505050505050565b5f611d64858585856126f760408051602081019091525f815290565b612468565b5f836001600160a01b03163b5f0361275a575f8061271a8585613090565b5090925090505f81600381111561273357612733613d6e565b1480156127515750856001600160a01b0316826001600160a01b0316145b92505050611d2d565b6127658484846130d9565b9050611d2d565b5f6127808686868680519060200120611d57565b90508451865114158061279557508351865114155b8061279f57508551155b156127d457855184518651604051630447b05d60e41b81526004810193909352602483019190915260448201526064016113b7565b5f81815260046020526040902054600160a01b900465ffffffffffff161561281d578061280082611347565b6040516331b75e4d60e01b81526113b79291905f90600401614844565b5f61282f60085465ffffffffffff1690565b612837611c9a565b65ffffffffffff1661284991906148ed565b90505f61286360085463ffffffff600160301b9091041690565b5f84815260046020526040902080546001600160a01b0319166001600160a01b03871617815590915061289583612ab8565b815465ffffffffffff91909116600160a01b0265ffffffffffff60a01b199091161781556128c2826131af565b815463ffffffff91909116600160d01b0263ffffffff60d01b1990911617815588517f7d84a6263ae0d98d3329bd7b46bb4e8d6f98cd35a7adb45c274c8b7fd5ebd5e090859087908c908c906001600160401b0381111561292557612925613864565b60405190808252806020026020018201604052801561295857816020015b60608152602001906001900390816129435790505b508c896129658a826148ed565b8e60405161297b99989796959493929190614a07565b60405180910390a150505095945050505050565b5f306001600160a01b037f0000000000000000000000000000000000000000000000000000000000000000161480156129e757507f000000000000000000000000000000000000000000000000000000000000000046145b15612a1157507f000000000000000000000000000000000000000000000000000000000000000090565b610fed604080517f8b73c3c69bb8fe3d512ecc4cf759cc79239f7b179b0ffacaa9a75d522b39400f60208201527f0000000000000000000000000000000000000000000000000000000000000000918101919091527f000000000000000000000000000000000000000000000000000000000000000060608201524660808201523060a08201525f9060c00160405160208183030381529060405280519060200120905090565b5f65ffffffffffff821115612aea576040516306dfcc6560e41b815260306004820152602481018390526044016113b7565b5090565b81545f9081816005811115612b4a575f612b07846131df565b612b119085614696565b5f8881526020902090915081015465ffffffffffff9081169087161015612b3a57809150612b48565b612b458160016148ed565b92505b505b5f612b5787878585613337565b90508015612b9157612b7b87612b6e600184614696565b5f91825260209091200190565b54600160301b90046001600160d01b03166118ca565b505f9695505050505050565b5f612ba783612446565b9050808214612bdb576040516301d4b62360e61b81526001600160a01b0384166004820152602481018290526044016113b7565b505050565b6008546040805165ffffffffffff928316815291831660208301527fc565b045403dc03c2eea82b81a0465edad9e2e7fc4d97e11421c209da93d7a93910160405180910390a16008805465ffffffffffff191665ffffffffffff92909216919091179055565b5f610fed43612ab8565b5f7f0000000000000000000000000000000000000000000000000000000000000000604051630748d63560e31b81526001600160a01b038681166004830152602482018690529190911690633a46b1a890604401602060405180830381865afa158015612cbf573d5f803e3d5ffd5b505050506040513d601f19601f8201168201806040525081019061160e91906147e3565b80545f908015612d1257612cfc83612b6e600184614696565b54600160301b90046001600160d01b0316611d2d565b5f9392505050565b5f858152600a602090815260408083206001600160a01b03881684526003810190925282205460ff1615612d6c576040516371c6af4960e01b81526001600160a01b03871660048201526024016113b7565b6001600160a01b0386165f9081526003820160205260409020805460ff1916600117905560ff8516612db55783815f015f828254612daa91906148ed565b90915550612e0b9050565b5f1960ff861601612dd35783816001015f828254612daa91906148ed565b60011960ff861601612df25783816002015f828254612daa91906148ed565b6040516303599be160e11b815260040160405180910390fd5b509195945050505050565b606082612e2b57612e2682613396565b610f29565b5080610f29565b60075460408051918252602082018390527fccb45da8d5717e6c4544694297c4ba5cf151d455c9bb0ed4fc7a38411bc05461910160405180910390a1600755565b80545f906001600160801b0380821691600160801b9004168103612e9b57612e9b6031612fd6565b6001600160801b038181165f908152600185810160205260408220805492905585546fffffffffffffffffffffffffffffffff19169301909116919091179092555090565b5f6001600160d01b03821115612aea576040516306dfcc6560e41b815260d06004820152602481018390526044016113b7565b5f80612f208585856133bf565b915091505b935093915050565b606060ff8314612f4757612f408361350f565b9050610f29565b818054612f53906145b3565b80601f0160208091040260200160405190810160405280929190818152602001828054612f7f906145b3565b8015612fca5780601f10612fa157610100808354040283529160200191612fca565b820191905f5260205f20905b815481529060010190602001808311612fad57829003601f168201915b50505050509050610f29565b634e487b715f52806020526024601cfd5b5f808451831180612ff757508284115b1561300657505f905080612f25565b5f6130128560016148ed565b8411801561303a575061060f60f31b61302e8787016020015190565b6001600160f01b031916145b90505f61304a82151560026147fa565b6130559060286148ed565b9050806130628787614696565b03613083575f8061307489898961354c565b9096509450612f259350505050565b5f80935093505050612f25565b5f805f83516041036130c7576020840151604085015160608601515f1a6130b98882858561360d565b9550955095505050506130d2565b505081515f91506002905b9250925092565b5f805f856001600160a01b031685856040516024016130f9929190614adc565b60408051601f198184030181529181526020820180516001600160e01b0316630b135d3f60e11b1790525161312e9190614866565b5f60405180830381855afa9150503d805f8114613166576040519150601f19603f3d011682016040523d82523d5f602084013e61316b565b606091505b509150915081801561317f57506020815110155b80156114df57508051630b135d3f60e11b906131a490830160209081019084016147e3565b149695505050505050565b5f63ffffffff821115612aea576040516306dfcc6560e41b815260206004820152602481018390526044016113b7565b5f600182116131ec575090565b816001600160801b82106132055760809190911c9060401b5b6801000000000000000082106132205760409190911c9060201b5b64010000000082106132375760209190911c9060101b5b62010000821061324c5760109190911c9060081b5b61010082106132605760089190911c9060041b5b601082106132735760049190911c9060021b5b6004821061327f5760011b5b600302600190811c9081858161329757613297614811565b048201901c905060018185816132af576132af614811565b048201901c905060018185816132c7576132c7614811565b048201901c905060018185816132df576132df614811565b048201901c905060018185816132f7576132f7614811565b048201901c9050600181858161330f5761330f614811565b048201901c905061332e81858161332857613328614811565b04821190565b90039392505050565b5f5b8183101561338e575f61334c84846136d5565b5f8781526020902090915065ffffffffffff86169082015465ffffffffffff16111561337a57809250613388565b6133858160016148ed565b93505b50613339565b509392505050565b8051156133a65780518082602001fd5b60405163d6bda27560e01b815260040160405180910390fd5b82545f90819080156134b5575f6133db87612b6e600185614696565b805490915065ffffffffffff80821691600160301b90046001600160d01b031690881682111561341e57604051632520601d60e01b815260040160405180910390fd5b8765ffffffffffff168265ffffffffffff160361345757825465ffffffffffff16600160301b6001600160d01b038916021783556134a7565b6040805180820190915265ffffffffffff808a1682526001600160d01b03808a1660208085019182528d54600181018f555f8f81529190912094519151909216600160301b029216919091179101555b9450859350612f2592505050565b50506040805180820190915265ffffffffffff80851682526001600160d01b0380851660208085019182528854600181018a555f8a815291822095519251909316600160301b029190931617920191909155905081612f25565b60605f61351b836136ef565b6040805160208082528183019092529192505f91906020820181803683375050509182525060208101929092525090565b5f80848161355b8660016148ed565b85118015613583575061060f60f31b6135778388016020015190565b6001600160f01b031916145b90505f61359382151560026147fa565b90505f806135a1838a6148ed565b90505b878110156135fc575f6135c26135bd8784016020015190565b613716565b9050600f8160ff1611156135e1575f8097509750505050505050612f25565b6135ec6010846147fa565b60ff9091160191506001016135a4565b506001999098509650505050505050565b5f80807f7fffffffffffffffffffffffffffffff5d576e7357a4501ddfe92f46681b20a084111561364657505f915060039050826136cb565b604080515f808252602082018084528a905260ff891692820192909252606081018790526080810186905260019060a0016020604051602081039080840390855afa158015613697573d5f803e3d5ffd5b5050604051601f1901519150506001600160a01b0381166136c257505f9250600191508290506136cb565b92505f91508190505b9450945094915050565b5f6136e36002848418614825565b611d2d908484166148ed565b5f60ff8216601f811115610f2957604051632cd44ac360e21b815260040160405180910390fd5b5f60f882901c602f8111801561372f5750603a8160ff16105b1561373d57602f1901610f29565b60608160ff16118015613753575060678160ff16105b156137615760561901610f29565b60408160ff16118015613777575060478160ff16105b156137855760361901610f29565b5060ff92915050565b5f6020828403121561379e575f80fd5b81356001600160e01b031981168114611d2d575f80fd5b5f602082840312156137c5575f80fd5b5035919050565b5f5b838110156137e65781810151838201526020016137ce565b50505f910152565b5f81518084526138058160208601602086016137cc565b601f01601f19169290920160200192915050565b602081525f611d2d60208301846137ee565b5f6020828403121561383b575f80fd5b813563ffffffff81168114611d2d575f80fd5b80356001600160a01b03811681146115bf575f80fd5b634e487b7160e01b5f52604160045260245ffd5b604051601f8201601f191681016001600160401b03811182821017156138a0576138a0613864565b604052919050565b5f6001600160401b038211156138c0576138c0613864565b50601f01601f191660200190565b5f6138e06138db846138a8565b613878565b90508281528383830111156138f3575f80fd5b828260208301375f602084830101529392505050565b5f82601f830112613918575f80fd5b611d2d838335602085016138ce565b5f805f806080858703121561393a575f80fd5b6139438561384e565b93506139516020860161384e565b92506040850135915060608501356001600160401b03811115613972575f80fd5b61397e87828801613909565b91505092959194509250565b5f6001600160401b038211156139a2576139a2613864565b5060051b60200190565b5f82601f8301126139bb575f80fd5b813560206139cb6138db8361398a565b8083825260208201915060208460051b8701019350868411156139ec575f80fd5b602086015b84811015613a0f57613a028161384e565b83529183019183016139f1565b509695505050505050565b5f82601f830112613a29575f80fd5b81356020613a396138db8361398a565b8083825260208201915060208460051b870101935086841115613a5a575f80fd5b602086015b84811015613a0f5780358352918301918301613a5f565b5f613a836138db8461398a565b8381529050602080820190600585901b840186811115613aa1575f80fd5b845b81811015613ada5780356001600160401b03811115613ac0575f80fd5b613acc89828901613909565b855250928201928201613aa3565b505050509392505050565b5f82601f830112613af4575f80fd5b611d2d83833560208501613a76565b5f805f8060808587031215613b16575f80fd5b84356001600160401b0380821115613b2c575f80fd5b613b38888389016139ac565b95506020870135915080821115613b4d575f80fd5b613b5988838901613a1a565b94506040870135915080821115613b6e575f80fd5b50613b7b87828801613ae5565b949793965093946060013593505050565b5f60208284031215613b9c575f80fd5b611d2d8261384e565b5f8083601f840112613bb5575f80fd5b5081356001600160401b03811115613bcb575f80fd5b6020830191508360208260051b8501011115613be5575f80fd5b9250929050565b5f805f805f805f8060a0898b031215613c03575f80fd5b8835975060208901356001600160401b0380821115613c20575f80fd5b613c2c8c838d01613ba5565b909950975060408b0135915080821115613c44575f80fd5b613c508c838d01613ba5565b909750955060608b0135915080821115613c68575f80fd5b50613c758b828c01613ba5565b999c989b50969995989497949560800135949350505050565b803560ff811681146115bf575f80fd5b5f8083601f840112613cae575f80fd5b5081356001600160401b03811115613cc4575f80fd5b602083019150836020828501011115613be5575f80fd5b5f805f805f805f60a0888a031215613cf1575f80fd5b87359650613d016020890161384e565b9550613d0f60408901613c8e565b945060608801356001600160401b0380821115613d2a575f80fd5b613d368b838c01613c9e565b909650945060808a0135915080821115613d4e575f80fd5b50613d5b8a828b01613c9e565b989b979a50959850939692959293505050565b634e487b7160e01b5f52602160045260245ffd5b60088110613d9e57634e487b7160e01b5f52602160045260245ffd5b9052565b60208101610f298284613d82565b5f8060408385031215613dc1575f80fd5b82359150613dd16020840161384e565b90509250929050565b5f805f60408486031215613dec575f80fd5b613df58461384e565b925060208401356001600160401b03811115613e0f575f80fd5b613e1b86828701613c9e565b9497909650939450505050565b5f8060408385031215613e39575f80fd5b82359150613dd160208401613c8e565b5f805f805f805f60c0888a031215613e5f575f80fd5b87359650613e6f60208901613c8e565b9550613e7d6040890161384e565b945060608801356001600160401b0380821115613e98575f80fd5b613ea48b838c01613c9e565b909650945060808a0135915080821115613ebc575f80fd5b613ec88b838c01613909565b935060a08a0135915080821115613edd575f80fd5b50613eea8a828b01613909565b91505092959891949750929550565b5f805f805f805f805f60a08a8c031215613f11575f80fd5b89356001600160401b0380821115613f27575f80fd5b613f338d838e01613ba5565b909b50995060208c0135915080821115613f4b575f80fd5b613f578d838e01613ba5565b909950975060408c0135915080821115613f6f575f80fd5b613f7b8d838e01613ba5565b909750955060608c0135915080821115613f93575f80fd5b50613fa08c828d01613c9e565b9094509250613fb3905060808b0161384e565b90509295985092959850929598565b5f805f805f60808688031215613fd6575f80fd5b85359450613fe660208701613c8e565b935060408601356001600160401b0380821115614001575f80fd5b61400d89838a01613c9e565b90955093506060880135915080821115614025575f80fd5b5061403288828901613909565b9150509295509295909350565b5f805f805f805f6080888a031215614055575f80fd5b87356001600160401b038082111561406b575f80fd5b6140778b838c01613ba5565b909950975060208a013591508082111561408f575f80fd5b61409b8b838c01613ba5565b909750955060408a01359150808211156140b3575f80fd5b506140c08a828b01613ba5565b989b979a50959894979596606090950135949350505050565b5f80604083850312156140ea575f80fd5b6140f38361384e565b946020939093013593505050565b5f805f805f60808688031215614115575f80fd5b853594506141256020870161384e565b935061413360408701613c8e565b925060608601356001600160401b0381111561414d575f80fd5b61415988828901613c9e565b969995985093965092949392505050565b65ffffffffffff81168114610b5f575f80fd5b5f6020828403121561418d575f80fd5b8135611d2d8161416a565b5f805f80606085870312156141ab575f80fd5b843593506141bb60208601613c8e565b925060408501356001600160401b038111156141d5575f80fd5b6141e187828801613c9e565b95989497509550505050565b5f805f8060808587031215614200575f80fd5b84356001600160401b0380821115614216575f80fd5b614222888389016139ac565b95506020870135915080821115614237575f80fd5b61424388838901613a1a565b94506040870135915080821115614258575f80fd5b61426488838901613ae5565b93506060870135915080821115614279575f80fd5b508501601f8101871361428a575f80fd5b61397e878235602084016138ce565b5f815180845260208085019450602084015f5b838110156142c8578151875295820195908201906001016142ac565b509495945050505050565b60ff60f81b8816815260e060208201525f6142f160e08301896137ee565b828103604084015261430381896137ee565b606084018890526001600160a01b038716608085015260a0840186905283810360c085015290506143348185614299565b9a9950505050505050505050565b5f805f8060808587031215614355575f80fd5b8435935061436560208601613c8e565b92506143736040860161384e565b915060608501356001600160401b03811115613972575f80fd5b5f805f6060848603121561439f575f80fd5b6143a88461384e565b92506020840135915060408401356001600160401b038111156143c9575f80fd5b6143d586828701613909565b9150509250925092565b5f602082840312156143ef575f80fd5b813560088110611d2d575f80fd5b5f805f805f60a08688031215614411575f80fd5b61441a8661384e565b94506144286020870161384e565b935060408601356001600160401b0380821115614443575f80fd5b61444f89838a01613a1a565b94506060880135915080821115614464575f80fd5b61447089838a01613a1a565b93506080880135915080821115614025575f80fd5b5f805f805f8060a0878903121561449a575f80fd5b863595506144aa6020880161384e565b94506144b860408801613c8e565b93506060870135925060808701356001600160401b038111156144d9575f80fd5b6144e589828a01613c9e565b979a9699509497509295939492505050565b5f805f806060858703121561450a575f80fd5b6145138561384e565b93506020850135925060408501356001600160401b038111156141d5575f80fd5b5f8060408385031215614545575f80fd5b50508035926020909101359150565b5f805f805f60a08688031215614568575f80fd5b6145718661384e565b945061457f6020870161384e565b9350604086013592506060860135915060808601356001600160401b038111156145a7575f80fd5b61403288828901613909565b600181811c908216806145c757607f821691505b6020821081036145e557634e487b7160e01b5f52602260045260245ffd5b50919050565b634e487b7160e01b5f52603260045260245ffd5b5f611d2d368484613a76565b5f6020828403121561461b575f80fd5b81516001600160401b03811115614630575f80fd5b8201601f81018413614640575f80fd5b805161464e6138db826138a8565b818152856020838501011115614662575f80fd5b611d648260208301602086016137cc565b818382375f9101908152919050565b634e487b7160e01b5f52601160045260245ffd5b81810381811115610f2957610f29614682565b65ffffffffffff8281168282160390808211156146c8576146c8614682565b5092915050565b5f602082840312156146df575f80fd5b8151611d2d8161416a565b65ffffffffffff8181168382160190808211156146c8576146c8614682565b5f815180845260208085019450602084015f5b838110156142c85781516001600160a01b03168752958201959082019060010161471c565b5f8282518085526020808601955060208260051b840101602086015f5b8481101561478c57601f1986840301895261477a8383516137ee565b9884019892509083019060010161475e565b5090979650505050505050565b608081525f6147ab6080830187614709565b82810360208401526147bd8187614299565b905082810360408401526147d18186614741565b91505082606083015295945050505050565b5f602082840312156147f3575f80fd5b5051919050565b8082028115828204841417610f2957610f29614682565b634e487b7160e01b5f52601260045260245ffd5b5f8261483f57634e487b7160e01b5f52601260045260245ffd5b500490565b838152606081016148586020830185613d82565b826040830152949350505050565b5f82516148778184602087016137cc565b9190910192915050565b84815260ff84166020820152826040820152608060608201525f6114df60808301846137ee565b85815260ff8516602082015283604082015260a060608201525f6148cf60a08301856137ee565b82810360808401526148e181856137ee565b98975050505050505050565b80820180821115610f2957610f29614682565b60ff8181168382160190811115610f2957610f29614682565b600181815b8085111561495357815f190482111561493957614939614682565b8085161561494657918102915b93841c939080029061491e565b509250929050565b5f8261496957506001610f29565b8161497557505f610f29565b816001811461498b5760028114614995576149b1565b6001915050610f29565b60ff8411156149a6576149a6614682565b50506001821b610f29565b5060208310610133831016604e8410600b84101617156149d4575081810a610f29565b6149de8383614919565b805f19048211156149f1576149f1614682565b029392505050565b5f611d2d60ff84168361495b565b5f6101208b8352602060018060a01b038c1681850152816040850152614a2f8285018c614709565b91508382036060850152614a43828b614299565b915083820360808501528189518084528284019150828160051b850101838c015f5b83811015614a9357601f19878403018552614a818383516137ee565b94860194925090850190600101614a65565b505086810360a0880152614aa7818c614741565b9450505050508560c08401528460e0840152828103610100840152614acc81856137ee565b9c9b505050505050505050505050565b828152604060208201525f61160e60408301846137ee56fea26469706673582212203ef4c852aa5ceadaf90fe10b09d7f55e716064d3c6e544c486612200017f02b764736f6c63430008180033",
  "linkReferences": {},
  "deployedLinkReferences": {}
}