{
  "_format": "hh-sol-artifact-1",
  "contractName": "$EnumerableMap",
  "sourceName": "contracts-exposed/utils/structs/EnumerableMap.sol",
  "abi": [
    {
      "inputs": [],
      "stateMutability": "payable",
      "type": "constructor"
    },
    {
      "inputs": [
        {
          "internalType": "bytes32",
          "name": "key",
          "type": "bytes32"
        }
      ],
      "name": "EnumerableMapNonexistentKey",
      "type": "error"
    },
    {
      "anonymous": false,
      "inputs": [
        {
          "indexed": false,
          "internalType": "bool",
          "name": "ret0",
          "type": "bool"
        }
      ],
      "name": "return$remove_EnumerableMap_AddressToAddressMap_address",
      "type": "event"
    },
    {
      "anonymous": false,
      "inputs": [
        {
          "indexed": false,
          "internalType": "bool",
          "name": "ret0",
          "type": "bool"
        }
      ],
      "name": "return$remove_EnumerableMap_AddressToBytes32Map_address",
      "type": "event"
    },
    {
      "anonymous": false,
      "inputs": [
        {
          "indexed": false,
          "internalType": "bool",
          "name": "ret0",
          "type": "bool"
        }
      ],
      "name": "return$remove_EnumerableMap_AddressToUintMap_address",
      "type": "event"
    },
    {
      "anonymous": false,
      "inputs": [
        {
          "indexed": false,
          "internalType": "bool",
          "name": "ret0",
          "type": "bool"
        }
      ],
      "name": "return$remove_EnumerableMap_Bytes32ToAddressMap_bytes32",
      "type": "event"
    },
    {
      "anonymous": false,
      "inputs": [
        {
          "indexed": false,
          "internalType": "bool",
          "name": "ret0",
          "type": "bool"
        }
      ],
      "name": "return$remove_EnumerableMap_Bytes32ToBytes32Map_bytes32",
      "type": "event"
    },
    {
      "anonymous": false,
      "inputs": [
        {
          "indexed": false,
          "internalType": "bool",
          "name": "ret0",
          "type": "bool"
        }
      ],
      "name": "return$remove_EnumerableMap_Bytes32ToUintMap_bytes32",
      "type": "event"
    },
    {
      "anonymous": false,
      "inputs": [
        {
          "indexed": false,
          "internalType": "bool",
          "name": "ret0",
          "type": "bool"
        }
      ],
      "name": "return$remove_EnumerableMap_UintToAddressMap_uint256",
      "type": "event"
    },
    {
      "anonymous": false,
      "inputs": [
        {
          "indexed": false,
          "internalType": "bool",
          "name": "ret0",
          "type": "bool"
        }
      ],
      "name": "return$remove_EnumerableMap_UintToBytes32Map_uint256",
      "type": "event"
    },
    {
      "anonymous": false,
      "inputs": [
        {
          "indexed": false,
          "internalType": "bool",
          "name": "ret0",
          "type": "bool"
        }
      ],
      "name": "return$remove_EnumerableMap_UintToUintMap_uint256",
      "type": "event"
    },
    {
      "anonymous": false,
      "inputs": [
        {
          "indexed": false,
          "internalType": "bool",
          "name": "ret0",
          "type": "bool"
        }
      ],
      "name": "return$set_EnumerableMap_AddressToAddressMap_address_address",
      "type": "event"
    },
    {
      "anonymous": false,
      "inputs": [
        {
          "indexed": false,
          "internalType": "bool",
          "name": "ret0",
          "type": "bool"
        }
      ],
      "name": "return$set_EnumerableMap_AddressToBytes32Map_address_bytes32",
      "type": "event"
    },
    {
      "anonymous": false,
      "inputs": [
        {
          "indexed": false,
          "internalType": "bool",
          "name": "ret0",
          "type": "bool"
        }
      ],
      "name": "return$set_EnumerableMap_AddressToUintMap_address_uint256",
      "type": "event"
    },
    {
      "anonymous": false,
      "inputs": [
        {
          "indexed": false,
          "internalType": "bool",
          "name": "ret0",
          "type": "bool"
        }
      ],
      "name": "return$set_EnumerableMap_Bytes32ToAddressMap_bytes32_address",
      "type": "event"
    },
    {
      "anonymous": false,
      "inputs": [
        {
          "indexed": false,
          "internalType": "bool",
          "name": "ret0",
          "type": "bool"
        }
      ],
      "name": "return$set_EnumerableMap_Bytes32ToBytes32Map_bytes32_bytes32",
      "type": "event"
    },
    {
      "anonymous": false,
      "inputs": [
        {
          "indexed": false,
          "internalType": "bool",
          "name": "ret0",
          "type": "bool"
        }
      ],
      "name": "return$set_EnumerableMap_Bytes32ToUintMap_bytes32_uint256",
      "type": "event"
    },
    {
      "anonymous": false,
      "inputs": [
        {
          "indexed": false,
          "internalType": "bool",
          "name": "ret0",
          "type": "bool"
        }
      ],
      "name": "return$set_EnumerableMap_UintToAddressMap_uint256_address",
      "type": "event"
    },
    {
      "anonymous": false,
      "inputs": [
        {
          "indexed": false,
          "internalType": "bool",
          "name": "ret0",
          "type": "bool"
        }
      ],
      "name": "return$set_EnumerableMap_UintToBytes32Map_uint256_bytes32",
      "type": "event"
    },
    {
      "anonymous": false,
      "inputs": [
        {
          "indexed": false,
          "internalType": "bool",
          "name": "ret0",
          "type": "bool"
        }
      ],
      "name": "return$set_EnumerableMap_UintToUintMap_uint256_uint256",
      "type": "event"
    },
    {
      "inputs": [
        {
          "internalType": "uint256",
          "name": "map",
          "type": "uint256"
        },
        {
          "internalType": "uint256",
          "name": "index",
          "type": "uint256"
        }
      ],
      "name": "$at_EnumerableMap_AddressToAddressMap",
      "outputs": [
        {
          "internalType": "address",
          "name": "key",
          "type": "address"
        },
        {
          "internalType": "address",
          "name": "value",
          "type": "address"
        }
      ],
      "stateMutability": "view",
      "type": "function"
    },
    {
      "inputs": [
        {
          "internalType": "uint256",
          "name": "map",
          "type": "uint256"
        },
        {
          "internalType": "uint256",
          "name": "index",
          "type": "uint256"
        }
      ],
      "name": "$at_EnumerableMap_AddressToBytes32Map",
      "outputs": [
        {
          "internalType": "address",
          "name": "key",
          "type": "address"
        },
        {
          "internalType": "bytes32",
          "name": "value",
          "type": "bytes32"
        }
      ],
      "stateMutability": "view",
      "type": "function"
    },
    {
      "inputs": [
        {
          "internalType": "uint256",
          "name": "map",
          "type": "uint256"
        },
        {
          "internalType": "uint256",
          "name": "index",
          "type": "uint256"
        }
      ],
      "name": "$at_EnumerableMap_AddressToUintMap",
      "outputs": [
        {
          "internalType": "address",
          "name": "key",
          "type": "address"
        },
        {
          "internalType": "uint256",
          "name": "value",
          "type": "uint256"
        }
      ],
      "stateMutability": "view",
      "type": "function"
    },
    {
      "inputs": [
        {
          "internalType": "uint256",
          "name": "map",
          "type": "uint256"
        },
        {
          "internalType": "uint256",
          "name": "index",
          "type": "uint256"
        }
      ],
      "name": "$at_EnumerableMap_Bytes32ToAddressMap",
      "outputs": [
        {
          "internalType": "bytes32",
          "name": "key",
          "type": "bytes32"
        },
        {
          "internalType": "address",
          "name": "value",
          "type": "address"
        }
      ],
      "stateMutability": "view",
      "type": "function"
    },
    {
      "inputs": [
        {
          "internalType": "uint256",
          "name": "map",
          "type": "uint256"
        },
        {
          "internalType": "uint256",
          "name": "index",
          "type": "uint256"
        }
      ],
      "name": "$at_EnumerableMap_Bytes32ToBytes32Map",
      "outputs": [
        {
          "internalType": "bytes32",
          "name": "key",
          "type": "bytes32"
        },
        {
          "internalType": "bytes32",
          "name": "value",
          "type": "bytes32"
        }
      ],
      "stateMutability": "view",
      "type": "function"
    },
    {
      "inputs": [
        {
          "internalType": "uint256",
          "name": "map",
          "type": "uint256"
        },
        {
          "internalType": "uint256",
          "name": "index",
          "type": "uint256"
        }
      ],
      "name": "$at_EnumerableMap_Bytes32ToUintMap",
      "outputs": [
        {
          "internalType": "bytes32",
          "name": "key",
          "type": "bytes32"
        },
        {
          "internalType": "uint256",
          "name": "value",
          "type": "uint256"
        }
      ],
      "stateMutability": "view",
      "type": "function"
    },
    {
      "inputs": [
        {
          "internalType": "uint256",
          "name": "map",
          "type": "uint256"
        },
        {
          "internalType": "uint256",
          "name": "index",
          "type": "uint256"
        }
      ],
      "name": "$at_EnumerableMap_UintToAddressMap",
      "outputs": [
        {
          "internalType": "uint256",
          "name": "key",
          "type": "uint256"
        },
        {
          "internalType": "address",
          "name": "value",
          "type": "address"
        }
      ],
      "stateMutability": "view",
      "type": "function"
    },
    {
      "inputs": [
        {
          "internalType": "uint256",
          "name": "map",
          "type": "uint256"
        },
        {
          "internalType": "uint256",
          "name": "index",
          "type": "uint256"
        }
      ],
      "name": "$at_EnumerableMap_UintToBytes32Map",
      "outputs": [
        {
          "internalType": "uint256",
          "name": "key",
          "type": "uint256"
        },
        {
          "internalType": "bytes32",
          "name": "value",
          "type": "bytes32"
        }
      ],
      "stateMutability": "view",
      "type": "function"
    },
    {
      "inputs": [
        {
          "internalType": "uint256",
          "name": "map",
          "type": "uint256"
        },
        {
          "internalType": "uint256",
          "name": "index",
          "type": "uint256"
        }
      ],
      "name": "$at_EnumerableMap_UintToUintMap",
      "outputs": [
        {
          "internalType": "uint256",
          "name": "key",
          "type": "uint256"
        },
        {
          "internalType": "uint256",
          "name": "value",
          "type": "uint256"
        }
      ],
      "stateMutability": "view",
      "type": "function"
    },
    {
      "inputs": [
        {
          "internalType": "uint256",
          "name": "map",
          "type": "uint256"
        },
        {
          "internalType": "address",
          "name": "key",
          "type": "address"
        }
      ],
      "name": "$contains_EnumerableMap_AddressToAddressMap",
      "outputs": [
        {
          "internalType": "bool",
          "name": "ret0",
          "type": "bool"
        }
      ],
      "stateMutability": "view",
      "type": "function"
    },
    {
      "inputs": [
        {
          "internalType": "uint256",
          "name": "map",
          "type": "uint256"
        },
        {
          "internalType": "address",
          "name": "key",
          "type": "address"
        }
      ],
      "name": "$contains_EnumerableMap_AddressToBytes32Map",
      "outputs": [
        {
          "internalType": "bool",
          "name": "ret0",
          "type": "bool"
        }
      ],
      "stateMutability": "view",
      "type": "function"
    },
    {
      "inputs": [
        {
          "internalType": "uint256",
          "name": "map",
          "type": "uint256"
        },
        {
          "internalType": "address",
          "name": "key",
          "type": "address"
        }
      ],
      "name": "$contains_EnumerableMap_AddressToUintMap",
      "outputs": [
        {
          "internalType": "bool",
          "name": "ret0",
          "type": "bool"
        }
      ],
      "stateMutability": "view",
      "type": "function"
    },
    {
      "inputs": [
        {
          "internalType": "uint256",
          "name": "map",
          "type": "uint256"
        },
        {
          "internalType": "bytes32",
          "name": "key",
          "type": "bytes32"
        }
      ],
      "name": "$contains_EnumerableMap_Bytes32ToAddressMap",
      "outputs": [
        {
          "internalType": "bool",
          "name": "ret0",
          "type": "bool"
        }
      ],
      "stateMutability": "view",
      "type": "function"
    },
    {
      "inputs": [
        {
          "internalType": "uint256",
          "name": "map",
          "type": "uint256"
        },
        {
          "internalType": "bytes32",
          "name": "key",
          "type": "bytes32"
        }
      ],
      "name": "$contains_EnumerableMap_Bytes32ToBytes32Map",
      "outputs": [
        {
          "internalType": "bool",
          "name": "ret0",
          "type": "bool"
        }
      ],
      "stateMutability": "view",
      "type": "function"
    },
    {
      "inputs": [
        {
          "internalType": "uint256",
          "name": "map",
          "type": "uint256"
        },
        {
          "internalType": "bytes32",
          "name": "key",
          "type": "bytes32"
        }
      ],
      "name": "$contains_EnumerableMap_Bytes32ToUintMap",
      "outputs": [
        {
          "internalType": "bool",
          "name": "ret0",
          "type": "bool"
        }
      ],
      "stateMutability": "view",
      "type": "function"
    },
    {
      "inputs": [
        {
          "internalType": "uint256",
          "name": "map",
          "type": "uint256"
        },
        {
          "internalType": "uint256",
          "name": "key",
          "type": "uint256"
        }
      ],
      "name": "$contains_EnumerableMap_UintToAddressMap",
      "outputs": [
        {
          "internalType": "bool",
          "name": "ret0",
          "type": "bool"
        }
      ],
      "stateMutability": "view",
      "type": "function"
    },
    {
      "inputs": [
        {
          "internalType": "uint256",
          "name": "map",
          "type": "uint256"
        },
        {
          "internalType": "uint256",
          "name": "key",
          "type": "uint256"
        }
      ],
      "name": "$contains_EnumerableMap_UintToBytes32Map",
      "outputs": [
        {
          "internalType": "bool",
          "name": "ret0",
          "type": "bool"
        }
      ],
      "stateMutability": "view",
      "type": "function"
    },
    {
      "inputs": [
        {
          "internalType": "uint256",
          "name": "map",
          "type": "uint256"
        },
        {
          "internalType": "uint256",
          "name": "key",
          "type": "uint256"
        }
      ],
      "name": "$contains_EnumerableMap_UintToUintMap",
      "outputs": [
        {
          "internalType": "bool",
          "name": "ret0",
          "type": "bool"
        }
      ],
      "stateMutability": "view",
      "type": "function"
    },
    {
      "inputs": [
        {
          "internalType": "uint256",
          "name": "map",
          "type": "uint256"
        },
        {
          "internalType": "address",
          "name": "key",
          "type": "address"
        }
      ],
      "name": "$get_EnumerableMap_AddressToAddressMap",
      "outputs": [
        {
          "internalType": "address",
          "name": "ret0",
          "type": "address"
        }
      ],
      "stateMutability": "view",
      "type": "function"
    },
    {
      "inputs": [
        {
          "internalType": "uint256",
          "name": "map",
          "type": "uint256"
        },
        {
          "internalType": "address",
          "name": "key",
          "type": "address"
        }
      ],
      "name": "$get_EnumerableMap_AddressToBytes32Map",
      "outputs": [
        {
          "internalType": "bytes32",
          "name": "ret0",
          "type": "bytes32"
        }
      ],
      "stateMutability": "view",
      "type": "function"
    },
    {
      "inputs": [
        {
          "internalType": "uint256",
          "name": "map",
          "type": "uint256"
        },
        {
          "internalType": "address",
          "name": "key",
          "type": "address"
        }
      ],
      "name": "$get_EnumerableMap_AddressToUintMap",
      "outputs": [
        {
          "internalType": "uint256",
          "name": "ret0",
          "type": "uint256"
        }
      ],
      "stateMutability": "view",
      "type": "function"
    },
    {
      "inputs": [
        {
          "internalType": "uint256",
          "name": "map",
          "type": "uint256"
        },
        {
          "internalType": "bytes32",
          "name": "key",
          "type": "bytes32"
        }
      ],
      "name": "$get_EnumerableMap_Bytes32ToAddressMap",
      "outputs": [
        {
          "internalType": "address",
          "name": "ret0",
          "type": "address"
        }
      ],
      "stateMutability": "view",
      "type": "function"
    },
    {
      "inputs": [
        {
          "internalType": "uint256",
          "name": "map",
          "type": "uint256"
        },
        {
          "internalType": "bytes32",
          "name": "key",
          "type": "bytes32"
        }
      ],
      "name": "$get_EnumerableMap_Bytes32ToBytes32Map",
      "outputs": [
        {
          "internalType": "bytes32",
          "name": "ret0",
          "type": "bytes32"
        }
      ],
      "stateMutability": "view",
      "type": "function"
    },
    {
      "inputs": [
        {
          "internalType": "uint256",
          "name": "map",
          "type": "uint256"
        },
        {
          "internalType": "bytes32",
          "name": "key",
          "type": "bytes32"
        }
      ],
      "name": "$get_EnumerableMap_Bytes32ToUintMap",
      "outputs": [
        {
          "internalType": "uint256",
          "name": "ret0",
          "type": "uint256"
        }
      ],
      "stateMutability": "view",
      "type": "function"
    },
    {
      "inputs": [
        {
          "internalType": "uint256",
          "name": "map",
          "type": "uint256"
        },
        {
          "internalType": "uint256",
          "name": "key",
          "type": "uint256"
        }
      ],
      "name": "$get_EnumerableMap_UintToAddressMap",
      "outputs": [
        {
          "internalType": "address",
          "name": "ret0",
          "type": "address"
        }
      ],
      "stateMutability": "view",
      "type": "function"
    },
    {
      "inputs": [
        {
          "internalType": "uint256",
          "name": "map",
          "type": "uint256"
        },
        {
          "internalType": "uint256",
          "name": "key",
          "type": "uint256"
        }
      ],
      "name": "$get_EnumerableMap_UintToBytes32Map",
      "outputs": [
        {
          "internalType": "bytes32",
          "name": "ret0",
          "type": "bytes32"
        }
      ],
      "stateMutability": "view",
      "type": "function"
    },
    {
      "inputs": [
        {
          "internalType": "uint256",
          "name": "map",
          "type": "uint256"
        },
        {
          "internalType": "uint256",
          "name": "key",
          "type": "uint256"
        }
      ],
      "name": "$get_EnumerableMap_UintToUintMap",
      "outputs": [
        {
          "internalType": "uint256",
          "name": "ret0",
          "type": "uint256"
        }
      ],
      "stateMutability": "view",
      "type": "function"
    },
    {
      "inputs": [
        {
          "internalType": "uint256",
          "name": "map",
          "type": "uint256"
        }
      ],
      "name": "$keys_EnumerableMap_AddressToAddressMap",
      "outputs": [
        {
          "internalType": "address[]",
          "name": "ret0",
          "type": "address[]"
        }
      ],
      "stateMutability": "view",
      "type": "function"
    },
    {
      "inputs": [
        {
          "internalType": "uint256",
          "name": "map",
          "type": "uint256"
        }
      ],
      "name": "$keys_EnumerableMap_AddressToBytes32Map",
      "outputs": [
        {
          "internalType": "address[]",
          "name": "ret0",
          "type": "address[]"
        }
      ],
      "stateMutability": "view",
      "type": "function"
    },
    {
      "inputs": [
        {
          "internalType": "uint256",
          "name": "map",
          "type": "uint256"
        }
      ],
      "name": "$keys_EnumerableMap_AddressToUintMap",
      "outputs": [
        {
          "internalType": "address[]",
          "name": "ret0",
          "type": "address[]"
        }
      ],
      "stateMutability": "view",
      "type": "function"
    },
    {
      "inputs": [
        {
          "internalType": "uint256",
          "name": "map",
          "type": "uint256"
        }
      ],
      "name": "$keys_EnumerableMap_Bytes32ToAddressMap",
      "outputs": [
        {
          "internalType": "bytes32[]",
          "name": "ret0",
          "type": "bytes32[]"
        }
      ],
      "stateMutability": "view",
      "type": "function"
    },
    {
      "inputs": [
        {
          "internalType": "uint256",
          "name": "map",
          "type": "uint256"
        }
      ],
      "name": "$keys_EnumerableMap_Bytes32ToBytes32Map",
      "outputs": [
        {
          "internalType": "bytes32[]",
          "name": "ret0",
          "type": "bytes32[]"
        }
      ],
      "stateMutability": "view",
      "type": "function"
    },
    {
      "inputs": [
        {
          "internalType": "uint256",
          "name": "map",
          "type": "uint256"
        }
      ],
      "name": "$keys_EnumerableMap_Bytes32ToUintMap",
      "outputs": [
        {
          "internalType": "bytes32[]",
          "name": "ret0",
          "type": "bytes32[]"
        }
      ],
      "stateMutability": "view",
      "type": "function"
    },
    {
      "inputs": [
        {
          "internalType": "uint256",
          "name": "map",
          "type": "uint256"
        }
      ],
      "name": "$keys_EnumerableMap_UintToAddressMap",
      "outputs": [
        {
          "internalType": "uint256[]",
          "name": "ret0",
          "type": "uint256[]"
        }
      ],
      "stateMutability": "view",
      "type": "function"
    },
    {
      "inputs": [
        {
          "internalType": "uint256",
          "name": "map",
          "type": "uint256"
        }
      ],
      "name": "$keys_EnumerableMap_UintToBytes32Map",
      "outputs": [
        {
          "internalType": "uint256[]",
          "name": "ret0",
          "type": "uint256[]"
        }
      ],
      "stateMutability": "view",
      "type": "function"
    },
    {
      "inputs": [
        {
          "internalType": "uint256",
          "name": "map",
          "type": "uint256"
        }
      ],
      "name": "$keys_EnumerableMap_UintToUintMap",
      "outputs": [
        {
          "internalType": "uint256[]",
          "name": "ret0",
          "type": "uint256[]"
        }
      ],
      "stateMutability": "view",
      "type": "function"
    },
    {
      "inputs": [
        {
          "internalType": "uint256",
          "name": "map",
          "type": "uint256"
        }
      ],
      "name": "$length_EnumerableMap_AddressToAddressMap",
      "outputs": [
        {
          "internalType": "uint256",
          "name": "ret0",
          "type": "uint256"
        }
      ],
      "stateMutability": "view",
      "type": "function"
    },
    {
      "inputs": [
        {
          "internalType": "uint256",
          "name": "map",
          "type": "uint256"
        }
      ],
      "name": "$length_EnumerableMap_AddressToBytes32Map",
      "outputs": [
        {
          "internalType": "uint256",
          "name": "ret0",
          "type": "uint256"
        }
      ],
      "stateMutability": "view",
      "type": "function"
    },
    {
      "inputs": [
        {
          "internalType": "uint256",
          "name": "map",
          "type": "uint256"
        }
      ],
      "name": "$length_EnumerableMap_AddressToUintMap",
      "outputs": [
        {
          "internalType": "uint256",
          "name": "ret0",
          "type": "uint256"
        }
      ],
      "stateMutability": "view",
      "type": "function"
    },
    {
      "inputs": [
        {
          "internalType": "uint256",
          "name": "map",
          "type": "uint256"
        }
      ],
      "name": "$length_EnumerableMap_Bytes32ToAddressMap",
      "outputs": [
        {
          "internalType": "uint256",
          "name": "ret0",
          "type": "uint256"
        }
      ],
      "stateMutability": "view",
      "type": "function"
    },
    {
      "inputs": [
        {
          "internalType": "uint256",
          "name": "map",
          "type": "uint256"
        }
      ],
      "name": "$length_EnumerableMap_Bytes32ToBytes32Map",
      "outputs": [
        {
          "internalType": "uint256",
          "name": "ret0",
          "type": "uint256"
        }
      ],
      "stateMutability": "view",
      "type": "function"
    },
    {
      "inputs": [
        {
          "internalType": "uint256",
          "name": "map",
          "type": "uint256"
        }
      ],
      "name": "$length_EnumerableMap_Bytes32ToUintMap",
      "outputs": [
        {
          "internalType": "uint256",
          "name": "ret0",
          "type": "uint256"
        }
      ],
      "stateMutability": "view",
      "type": "function"
    },
    {
      "inputs": [
        {
          "internalType": "uint256",
          "name": "map",
          "type": "uint256"
        }
      ],
      "name": "$length_EnumerableMap_UintToAddressMap",
      "outputs": [
        {
          "internalType": "uint256",
          "name": "ret0",
          "type": "uint256"
        }
      ],
      "stateMutability": "view",
      "type": "function"
    },
    {
      "inputs": [
        {
          "internalType": "uint256",
          "name": "map",
          "type": "uint256"
        }
      ],
      "name": "$length_EnumerableMap_UintToBytes32Map",
      "outputs": [
        {
          "internalType": "uint256",
          "name": "ret0",
          "type": "uint256"
        }
      ],
      "stateMutability": "view",
      "type": "function"
    },
    {
      "inputs": [
        {
          "internalType": "uint256",
          "name": "map",
          "type": "uint256"
        }
      ],
      "name": "$length_EnumerableMap_UintToUintMap",
      "outputs": [
        {
          "internalType": "uint256",
          "name": "ret0",
          "type": "uint256"
        }
      ],
      "stateMutability": "view",
      "type": "function"
    },
    {
      "inputs": [
        {
          "internalType": "uint256",
          "name": "map",
          "type": "uint256"
        },
        {
          "internalType": "address",
          "name": "key",
          "type": "address"
        }
      ],
      "name": "$remove_EnumerableMap_AddressToAddressMap",
      "outputs": [
        {
          "internalType": "bool",
          "name": "ret0",
          "type": "bool"
        }
      ],
      "stateMutability": "payable",
      "type": "function"
    },
    {
      "inputs": [
        {
          "internalType": "uint256",
          "name": "map",
          "type": "uint256"
        },
        {
          "internalType": "address",
          "name": "key",
          "type": "address"
        }
      ],
      "name": "$remove_EnumerableMap_AddressToBytes32Map",
      "outputs": [
        {
          "internalType": "bool",
          "name": "ret0",
          "type": "bool"
        }
      ],
      "stateMutability": "payable",
      "type": "function"
    },
    {
      "inputs": [
        {
          "internalType": "uint256",
          "name": "map",
          "type": "uint256"
        },
        {
          "internalType": "address",
          "name": "key",
          "type": "address"
        }
      ],
      "name": "$remove_EnumerableMap_AddressToUintMap",
      "outputs": [
        {
          "internalType": "bool",
          "name": "ret0",
          "type": "bool"
        }
      ],
      "stateMutability": "payable",
      "type": "function"
    },
    {
      "inputs": [
        {
          "internalType": "uint256",
          "name": "map",
          "type": "uint256"
        },
        {
          "internalType": "bytes32",
          "name": "key",
          "type": "bytes32"
        }
      ],
      "name": "$remove_EnumerableMap_Bytes32ToAddressMap",
      "outputs": [
        {
          "internalType": "bool",
          "name": "ret0",
          "type": "bool"
        }
      ],
      "stateMutability": "payable",
      "type": "function"
    },
    {
      "inputs": [
        {
          "internalType": "uint256",
          "name": "map",
          "type": "uint256"
        },
        {
          "internalType": "bytes32",
          "name": "key",
          "type": "bytes32"
        }
      ],
      "name": "$remove_EnumerableMap_Bytes32ToBytes32Map",
      "outputs": [
        {
          "internalType": "bool",
          "name": "ret0",
          "type": "bool"
        }
      ],
      "stateMutability": "payable",
      "type": "function"
    },
    {
      "inputs": [
        {
          "internalType": "uint256",
          "name": "map",
          "type": "uint256"
        },
        {
          "internalType": "bytes32",
          "name": "key",
          "type": "bytes32"
        }
      ],
      "name": "$remove_EnumerableMap_Bytes32ToUintMap",
      "outputs": [
        {
          "internalType": "bool",
          "name": "ret0",
          "type": "bool"
        }
      ],
      "stateMutability": "payable",
      "type": "function"
    },
    {
      "inputs": [
        {
          "internalType": "uint256",
          "name": "map",
          "type": "uint256"
        },
        {
          "internalType": "uint256",
          "name": "key",
          "type": "uint256"
        }
      ],
      "name": "$remove_EnumerableMap_UintToAddressMap",
      "outputs": [
        {
          "internalType": "bool",
          "name": "ret0",
          "type": "bool"
        }
      ],
      "stateMutability": "payable",
      "type": "function"
    },
    {
      "inputs": [
        {
          "internalType": "uint256",
          "name": "map",
          "type": "uint256"
        },
        {
          "internalType": "uint256",
          "name": "key",
          "type": "uint256"
        }
      ],
      "name": "$remove_EnumerableMap_UintToBytes32Map",
      "outputs": [
        {
          "internalType": "bool",
          "name": "ret0",
          "type": "bool"
        }
      ],
      "stateMutability": "payable",
      "type": "function"
    },
    {
      "inputs": [
        {
          "internalType": "uint256",
          "name": "map",
          "type": "uint256"
        },
        {
          "internalType": "uint256",
          "name": "key",
          "type": "uint256"
        }
      ],
      "name": "$remove_EnumerableMap_UintToUintMap",
      "outputs": [
        {
          "internalType": "bool",
          "name": "ret0",
          "type": "bool"
        }
      ],
      "stateMutability": "payable",
      "type": "function"
    },
    {
      "inputs": [
        {
          "internalType": "uint256",
          "name": "map",
          "type": "uint256"
        },
        {
          "internalType": "uint256",
          "name": "key",
          "type": "uint256"
        },
        {
          "internalType": "address",
          "name": "value",
          "type": "address"
        }
      ],
      "name": "$set",
      "outputs": [
        {
          "internalType": "bool",
          "name": "ret0",
          "type": "bool"
        }
      ],
      "stateMutability": "payable",
      "type": "function"
    },
    {
      "inputs": [
        {
          "internalType": "uint256",
          "name": "map",
          "type": "uint256"
        },
        {
          "internalType": "address",
          "name": "key",
          "type": "address"
        },
        {
          "internalType": "uint256",
          "name": "value",
          "type": "uint256"
        }
      ],
      "name": "$set",
      "outputs": [
        {
          "internalType": "bool",
          "name": "ret0",
          "type": "bool"
        }
      ],
      "stateMutability": "payable",
      "type": "function"
    },
    {
      "inputs": [
        {
          "internalType": "uint256",
          "name": "map",
          "type": "uint256"
        },
        {
          "internalType": "bytes32",
          "name": "key",
          "type": "bytes32"
        },
        {
          "internalType": "bytes32",
          "name": "value",
          "type": "bytes32"
        }
      ],
      "name": "$set",
      "outputs": [
        {
          "internalType": "bool",
          "name": "ret0",
          "type": "bool"
        }
      ],
      "stateMutability": "payable",
      "type": "function"
    },
    {
      "inputs": [
        {
          "internalType": "uint256",
          "name": "map",
          "type": "uint256"
        },
        {
          "internalType": "uint256",
          "name": "key",
          "type": "uint256"
        },
        {
          "internalType": "bytes32",
          "name": "value",
          "type": "bytes32"
        }
      ],
      "name": "$set",
      "outputs": [
        {
          "internalType": "bool",
          "name": "ret0",
          "type": "bool"
        }
      ],
      "stateMutability": "payable",
      "type": "function"
    },
    {
      "inputs": [
        {
          "internalType": "uint256",
          "name": "map",
          "type": "uint256"
        },
        {
          "internalType": "bytes32",
          "name": "key",
          "type": "bytes32"
        },
        {
          "internalType": "uint256",
          "name": "value",
          "type": "uint256"
        }
      ],
      "name": "$set",
      "outputs": [
        {
          "internalType": "bool",
          "name": "ret0",
          "type": "bool"
        }
      ],
      "stateMutability": "payable",
      "type": "function"
    },
    {
      "inputs": [
        {
          "internalType": "uint256",
          "name": "map",
          "type": "uint256"
        },
        {
          "internalType": "address",
          "name": "key",
          "type": "address"
        },
        {
          "internalType": "address",
          "name": "value",
          "type": "address"
        }
      ],
      "name": "$set",
      "outputs": [
        {
          "internalType": "bool",
          "name": "ret0",
          "type": "bool"
        }
      ],
      "stateMutability": "payable",
      "type": "function"
    },
    {
      "inputs": [
        {
          "internalType": "uint256",
          "name": "map",
          "type": "uint256"
        },
        {
          "internalType": "bytes32",
          "name": "key",
          "type": "bytes32"
        },
        {
          "internalType": "address",
          "name": "value",
          "type": "address"
        }
      ],
      "name": "$set",
      "outputs": [
        {
          "internalType": "bool",
          "name": "ret0",
          "type": "bool"
        }
      ],
      "stateMutability": "payable",
      "type": "function"
    },
    {
      "inputs": [
        {
          "internalType": "uint256",
          "name": "map",
          "type": "uint256"
        },
        {
          "internalType": "address",
          "name": "key",
          "type": "address"
        },
        {
          "internalType": "bytes32",
          "name": "value",
          "type": "bytes32"
        }
      ],
      "name": "$set",
      "outputs": [
        {
          "internalType": "bool",
          "name": "ret0",
          "type": "bool"
        }
      ],
      "stateMutability": "payable",
      "type": "function"
    },
    {
      "inputs": [
        {
          "internalType": "uint256",
          "name": "map",
          "type": "uint256"
        },
        {
          "internalType": "uint256",
          "name": "key",
          "type": "uint256"
        },
        {
          "internalType": "uint256",
          "name": "value",
          "type": "uint256"
        }
      ],
      "name": "$set",
      "outputs": [
        {
          "internalType": "bool",
          "name": "ret0",
          "type": "bool"
        }
      ],
      "stateMutability": "payable",
      "type": "function"
    },
    {
      "inputs": [
        {
          "internalType": "uint256",
          "name": "map",
          "type": "uint256"
        },
        {
          "internalType": "address",
          "name": "key",
          "type": "address"
        }
      ],
      "name": "$tryGet_EnumerableMap_AddressToAddressMap",
      "outputs": [
        {
          "internalType": "bool",
          "name": "exists",
          "type": "bool"
        },
        {
          "internalType": "address",
          "name": "value",
          "type": "address"
        }
      ],
      "stateMutability": "view",
      "type": "function"
    },
    {
      "inputs": [
        {
          "internalType": "uint256",
          "name": "map",
          "type": "uint256"
        },
        {
          "internalType": "address",
          "name": "key",
          "type": "address"
        }
      ],
      "name": "$tryGet_EnumerableMap_AddressToBytes32Map",
      "outputs": [
        {
          "internalType": "bool",
          "name": "exists",
          "type": "bool"
        },
        {
          "internalType": "bytes32",
          "name": "value",
          "type": "bytes32"
        }
      ],
      "stateMutability": "view",
      "type": "function"
    },
    {
      "inputs": [
        {
          "internalType": "uint256",
          "name": "map",
          "type": "uint256"
        },
        {
          "internalType": "address",
          "name": "key",
          "type": "address"
        }
      ],
      "name": "$tryGet_EnumerableMap_AddressToUintMap",
      "outputs": [
        {
          "internalType": "bool",
          "name": "exists",
          "type": "bool"
        },
        {
          "internalType": "uint256",
          "name": "value",
          "type": "uint256"
        }
      ],
      "stateMutability": "view",
      "type": "function"
    },
    {
      "inputs": [
        {
          "internalType": "uint256",
          "name": "map",
          "type": "uint256"
        },
        {
          "internalType": "bytes32",
          "name": "key",
          "type": "bytes32"
        }
      ],
      "name": "$tryGet_EnumerableMap_Bytes32ToAddressMap",
      "outputs": [
        {
          "internalType": "bool",
          "name": "exists",
          "type": "bool"
        },
        {
          "internalType": "address",
          "name": "value",
          "type": "address"
        }
      ],
      "stateMutability": "view",
      "type": "function"
    },
    {
      "inputs": [
        {
          "internalType": "uint256",
          "name": "map",
          "type": "uint256"
        },
        {
          "internalType": "bytes32",
          "name": "key",
          "type": "bytes32"
        }
      ],
      "name": "$tryGet_EnumerableMap_Bytes32ToBytes32Map",
      "outputs": [
        {
          "internalType": "bool",
          "name": "exists",
          "type": "bool"
        },
        {
          "internalType": "bytes32",
          "name": "value",
          "type": "bytes32"
        }
      ],
      "stateMutability": "view",
      "type": "function"
    },
    {
      "inputs": [
        {
          "internalType": "uint256",
          "name": "map",
          "type": "uint256"
        },
        {
          "internalType": "bytes32",
          "name": "key",
          "type": "bytes32"
        }
      ],
      "name": "$tryGet_EnumerableMap_Bytes32ToUintMap",
      "outputs": [
        {
          "internalType": "bool",
          "name": "exists",
          "type": "bool"
        },
        {
          "internalType": "uint256",
          "name": "value",
          "type": "uint256"
        }
      ],
      "stateMutability": "view",
      "type": "function"
    },
    {
      "inputs": [
        {
          "internalType": "uint256",
          "name": "map",
          "type": "uint256"
        },
        {
          "internalType": "uint256",
          "name": "key",
          "type": "uint256"
        }
      ],
      "name": "$tryGet_EnumerableMap_UintToAddressMap",
      "outputs": [
        {
          "internalType": "bool",
          "name": "exists",
          "type": "bool"
        },
        {
          "internalType": "address",
          "name": "value",
          "type": "address"
        }
      ],
      "stateMutability": "view",
      "type": "function"
    },
    {
      "inputs": [
        {
          "internalType": "uint256",
          "name": "map",
          "type": "uint256"
        },
        {
          "internalType": "uint256",
          "name": "key",
          "type": "uint256"
        }
      ],
      "name": "$tryGet_EnumerableMap_UintToBytes32Map",
      "outputs": [
        {
          "internalType": "bool",
          "name": "exists",
          "type": "bool"
        },
        {
          "internalType": "bytes32",
          "name": "value",
          "type": "bytes32"
        }
      ],
      "stateMutability": "view",
      "type": "function"
    },
    {
      "inputs": [
        {
          "internalType": "uint256",
          "name": "map",
          "type": "uint256"
        },
        {
          "internalType": "uint256",
          "name": "key",
          "type": "uint256"
        }
      ],
      "name": "$tryGet_EnumerableMap_UintToUintMap",
      "outputs": [
        {
          "internalType": "bool",
          "name": "exists",
          "type": "bool"
        },
        {
          "internalType": "uint256",
          "name": "value",
          "type": "uint256"
        }
      ],
      "stateMutability": "view",
      "type": "function"
    },
    {
      "inputs": [],
      "name": "__hh_exposed_bytecode_marker",
      "outputs": [
        {
          "internalType": "bytes32",
          "name": "",
          "type": "bytes32"
        }
      ],
      "stateMutability": "view",
      "type": "function"
    },
    {
      "stateMutability": "payable",
      "type": "receive"
    }
  ],
  "bytecode": "0x6080604052611e0d806100115f395ff3fe608060405260043610610417575f3560e01c806376d32f2f11610220578063c3ad41d411610129578063d8153a0f116100b3578063ef78c2b311610078578063ef78c2b314610c98578063efd68f8614610cb7578063f6f614b214610cd6578063fb0aa83d14610ce9578063fdc04b3e14610d08575f80fd5b8063d8153a0f14610c09578063d87ce41a14610c28578063daeee38414610c3b578063df961b8c14610c5a578063e44c48b314610c79575f80fd5b8063cc12ef6b116100f9578063cc12ef6b14610b5b578063d13b4e7a14610b6e578063d256336714610bac578063d281f7b014610bcb578063d6bc3b7614610bea575f80fd5b8063c3ad41d414610ad6578063c5820d0c14610b0a578063c76a077d14610b1d578063c8c7ab6014610b3c575f80fd5b8063953d5a65116101aa578063af901daf1161017a578063af901daf14610a53578063b027b87114610a72578063b5e5e26114610a91578063b6ff581f14610aa4578063bb137cfc14610ab7575f80fd5b8063953d5a65146109c6578063962dd11f146109d95780639d3841c214610a15578063ab12284f14610a34575f80fd5b8063810b4187116101f0578063810b41871461093757806382561a2a1461094a57806382ef369314610969578063840d31ab146109885780638e44cf5e146109a7575f80fd5b806376d32f2f146108bb5780637754e318146108da5780637b2760a8146108f95780637d35a6e214610918575f80fd5b8063346ff2e4116103225780634d4e5907116102ac5780635f2799771161027c5780635f279977146108385780636519b281146108575780636b47ae00146108765780636f29f52c14610889578063745d480e1461089c575f80fd5b80634d4e5907146107e05780634f1b8f41146107f357806350ea1cb814610806578063542e385314610819575f80fd5b806341fec165116102f257806341fec16514610745578063421aefb41461076457806345baa96014610783578063469de786146107a257806349ba3790146107c1575f80fd5b8063346ff2e41461069c578063389fb096146106bb57806338f8c2f0146106da5780633c9e5cd614610719575f80fd5b806324182492116103a357806328999c4a1161037357806328999c4a146105cc5780632ded9b641461060357806331dec56e1461062257806331f6273014610641578063342db73914610677575f80fd5b8063241824921461055c57806324cef8cb1461057b578063250892491461059a57806327d24b9d146105b9575f80fd5b80630916b943116103e95780630916b943146104d25780630af65226146104e55780630afc2a49146104f857806312917f981461050b5780631d4dbd9a1461051e575f80fd5b806203b69b14610422578062e5ac7914610457578063039774a31461048457806308b26de5146104a3575f80fd5b3661041e57005b5f80fd5b34801561042d575f80fd5b5061044161043c366004611bd4565b610d27565b60405161044e9190611beb565b60405180910390f35b348015610462575f80fd5b50610476610471366004611c2e565b610d46565b60405190815260200161044e565b34801561048f575f80fd5b5061047661049e366004611bd4565b610d64565b3480156104ae575f80fd5b506104c26104bd366004611c2e565b610d7a565b604051901515815260200161044e565b6104c26104e0366004611c2e565b610d91565b6104c26104f3366004611c69565b610deb565b6104c2610506366004611c2e565b610e47565b6104c2610519366004611c2e565b610e93565b348015610529575f80fd5b5061053d610538366004611c9b565b610edf565b6040805192151583526001600160a01b0390911660208301520161044e565b348015610567575f80fd5b50610476610576366004611bd4565b610f03565b348015610586575f80fd5b50610441610595366004611bd4565b610f19565b3480156105a5575f80fd5b506104416105b4366004611bd4565b610f32565b6104c26105c7366004611cc5565b610f4b565b3480156105d7575f80fd5b506105eb6105e6366004611c2e565b610f98565b6040516001600160a01b03909116815260200161044e565b34801561060e575f80fd5b5061044161061d366004611bd4565b610faf565b34801561062d575f80fd5b506104c261063c366004611c9b565b610fc8565b34801561064c575f80fd5b5061066061065b366004611c2e565b610fdf565b60408051921515835260208301919091520161044e565b348015610682575f80fd5b506104766e1a185c991a185d0b595e1c1bdcd959608a1b81565b3480156106a7575f80fd5b506104c26106b6366004611c2e565b610ff8565b3480156106c6575f80fd5b506104766106d5366004611bd4565b61100f565b3480156106e5575f80fd5b506106f96106f4366004611c2e565b611025565b604080516001600160a01b0393841681529290911660208301520161044e565b348015610724575f80fd5b50610738610733366004611bd4565b61103e565b60405161044e9190611cf7565b348015610750575f80fd5b5061047661075f366004611bd4565b611057565b34801561076f575f80fd5b5061047661077e366004611c2e565b61106d565b34801561078e575f80fd5b5061047661079d366004611c9b565b611084565b3480156107ad575f80fd5b5061053d6107bc366004611c2e565b61109b565b3480156107cc575f80fd5b506104c26107db366004611c2e565b6110b4565b6104c26107ee366004611c2e565b6110cb565b6104c2610801366004611c9b565b611117565b6104c2610814366004611d37565b611163565b348015610824575f80fd5b50610476610833366004611c9b565b6111b0565b348015610843575f80fd5b50610476610852366004611bd4565b6111c7565b348015610862575f80fd5b506104c2610871366004611c2e565b6111dd565b6104c2610884366004611d37565b6111f4565b6104c2610897366004611c2e565b611241565b3480156108a7575f80fd5b506104766108b6366004611bd4565b61128d565b3480156108c6575f80fd5b506106606108d5366004611c9b565b6112a3565b3480156108e5575f80fd5b506106606108f4366004611c2e565b6112bc565b348015610904575f80fd5b50610738610913366004611bd4565b6112d5565b348015610923575f80fd5b50610476610932366004611bd4565b6112ee565b6104c2610945366004611c9b565b611304565b348015610955575f80fd5b50610441610964366004611bd4565b611350565b348015610974575f80fd5b50610660610983366004611c9b565b611369565b348015610993575f80fd5b506104c26109a2366004611c2e565b611382565b3480156109b2575f80fd5b506104766109c1366004611bd4565b611399565b6104c26109d4366004611d37565b6113af565b3480156109e4575f80fd5b506109f86109f3366004611c2e565b6113fc565b604080519283526001600160a01b0390911660208301520161044e565b348015610a20575f80fd5b506105eb610a2f366004611c2e565b611415565b348015610a3f575f80fd5b50610660610a4e366004611c2e565b61142c565b348015610a5e575f80fd5b50610476610a6d366004611bd4565b611445565b348015610a7d575f80fd5b50610476610a8c366004611c2e565b61145b565b6104c2610a9f366004611c9b565b611472565b6104c2610ab2366004611d60565b6114be565b348015610ac2575f80fd5b50610738610ad1366004611bd4565b61150b565b348015610ae1575f80fd5b50610af5610af0366004611c2e565b611524565b6040805192835260208301919091520161044e565b6104c2610b18366004611c69565b61153d565b348015610b28575f80fd5b506104c2610b37366004611c2e565b61158a565b348015610b47575f80fd5b506104c2610b56366004611c9b565b6115a1565b6104c2610b69366004611cc5565b6115b8565b348015610b79575f80fd5b50610b8d610b88366004611c2e565b611605565b604080516001600160a01b03909316835260208301919091520161044e565b348015610bb7575f80fd5b50610af5610bc6366004611c2e565b61161e565b348015610bd6575f80fd5b50610af5610be5366004611c2e565b611637565b348015610bf5575f80fd5b50610441610c04366004611bd4565b611650565b348015610c14575f80fd5b506109f8610c23366004611c2e565b611669565b6104c2610c36366004611c2e565b611682565b348015610c46575f80fd5b5061053d610c55366004611c2e565b6116ce565b348015610c65575f80fd5b50610b8d610c74366004611c2e565b6116e7565b348015610c84575f80fd5b50610660610c93366004611c2e565b611700565b348015610ca3575f80fd5b50610476610cb2366004611c2e565b611719565b348015610cc2575f80fd5b50610af5610cd1366004611c2e565b611730565b6104c2610ce4366004611d37565b611749565b348015610cf4575f80fd5b506105eb610d03366004611c9b565b611796565b348015610d13575f80fd5b506104c2610d22366004611c9b565b6117ad565b5f818152600760205260409020606090610d40906117c4565b92915050565b5f828152600360205260408120610d5d90836117d0565b9392505050565b5f818152600260205260408120610d40906117db565b5f828152600260205260408120610d5d90836117e5565b5f828152600860205260408120610da890836117f0565b90507f57fc822c0d295ba0e29b3f15b7f1b37820246d9335b7c3010622452c57fd265d81604051610ddd911515815260200190565b60405180910390a192915050565b5f838152600260205260408120610e039084846117fb565b90507fbfdd2ec9ceb252e1f945352134cc9c5489dada1ba35628fd5c5258f6f8537e5081604051610e38911515815260200190565b60405180910390a19392505050565b5f828152600360205260408120610e5e9083611818565b90507f5a4134d5810e6c96e65c4bb868fe09fd62d1631115075d8181038e9a2e511b9581604051610ddd911515815260200190565b5f828152602081905260408120610eaa908361181f565b90507f899334193bc495c660b28e0f37de0df8d1c56c678d180c007f0179a4f4907b2381604051610ddd911515815260200190565b5f8281526005602052604081208190610ef8908461183b565b909590945092505050565b5f818152600760205260408120610d40906117db565b5f818152600360205260409020606090610d40906117c4565b5f818152600160205260409020606090610d40906117c4565b5f838152600460205260408120610f63908484611861565b90507f62b88f3541188a52543b634adf6722cc196c0dc2d40f1ab71b86f484eca4a7b481604051610e38911515815260200190565b5f828152600260205260408120610d5d90836117d0565b5f818152600860205260409020606090610d40906117c4565b5f828152600660205260408120610d5d9083611876565b5f8281526007602052604081208190610ef8908461188a565b5f828152600160205260408120610d5d90836117e5565b5f818152602081905260408120610d4090611898565b5f8281526005602052604081208190610ef890846118a2565b5f818152600460205260409020606090610d40906117c4565b5f818152600160205260408120610d40906117db565b5f828152602081905260408120610d5d90836118b0565b5f828152600460205260408120610d5d90836118fa565b5f8281526008602052604081208190610ef8908461188a565b5f828152600860205260408120610d5d90836117e5565b5f8281526002602052604081206110e29083611818565b90507fc49bd67e0955d3151ed2780e7e63096a045b564b64cd95a33d8c6b403b93fdd881604051610ddd911515815260200190565b5f82815260046020526040812061112e908361190e565b90507f93c9005c992de518102186d7b002a76c8985c51e74ee342a58f922c68e28216181604051610ddd911515815260200190565b5f83815260208190526040812061117b908484611922565b90507fe545206912a7cdefeb6a76168befc4a002eeef1390931715a944b709f5a2290581604051610e38911515815260200190565b5f828152600660205260408120610d5d90836118fa565b5f818152600560205260408120610d40906117db565b5f828152600760205260408120610d5d90836117e5565b5f83815260036020526040812061120c90848461193e565b90507fac2205bc32bb1adf07b07cf5557328728d8de5713d2ed9d5fe54188f33ba0a5a81604051610e38911515815260200190565b5f82815260076020526040812061125890836117f0565b90507f831855cf252d16521b4badf0611f7d2826dbb746ccac67f0ff802e52f43a500081604051610ddd911515815260200190565b5f818152600460205260408120610d40906117db565b5f8281526006602052604081208190610ef8908461183b565b5f8281526003602052604081208190610ef8908461188a565b5f818152600560205260409020606090610d40906117c4565b5f818152600360205260408120610d40906117db565b5f82815260066020526040812061131b908361190e565b90507f1da5fdbde98662e20915879156fed10331e017cffbb921996d31d59a4941510781604051610ddd911515815260200190565b5f818152602081905260409020606090610d409061194a565b5f8281526004602052604081208190610ef8908461183b565b5f828152602081905260408120610d5d9083611955565b5f818152600860205260408120610d40906117db565b5f8381526007602052604081206113c790848461193e565b90507f94e7afc878383aaa76130736c65c0c94a6fa28da219804a6352f86974792cec281604051610e38911515815260200190565b5f8281526002602052604081208190610ef890846118a2565b5f828152600860205260408120610d5d90836117d0565b5f8281526001602052604081208190610ef8908461188a565b5f818152600660205260408120610d40906117db565b5f828152600760205260408120610d5d90836117d0565b5f828152600560205260408120611489908361190e565b90507f704118dabe5c9c71935a6417877d1045f3014b906eb74c201dbbd856d8b4234781604051610ddd911515815260200190565b5f8381526005602052604081206114d6908484611960565b90507f4866e96d2155a338f7df2921408de1f284e97237f79689730395c0a9010c596e81604051610e38911515815260200190565b5f818152600660205260409020606090610d40906117c4565b5f8281526007602052604081208190610ef890846118a2565b5f8381526008602052604081206115559084846117fb565b90507feffc42958259938902fbd89457522531a8977d5e9ca076b7033312c4413359a181604051610e38911515815260200190565b5f828152600360205260408120610d5d90836117e5565b5f828152600460205260408120610d5d9083611876565b5f8381526006602052604081206115d0908484611861565b90507f614404b7cb537831bbb1cf96cbb50f306ccf510c6295bd45ca14df60c5317eaf81604051610e38911515815260200190565b5f8281526004602052604081208190610ef890846118a2565b5f8281526001602052604081208190610ef890846118a2565b5f8281526003602052604081208190610ef890846118a2565b5f818152600260205260409020606090610d40906117c4565b5f8281526008602052604081208190610ef890846118a2565b5f8281526001602052604081206116999083611818565b90507f5a29c6c2013d22f6c8177abfa00db3474e2fc51e16288e55124ed408c2b7f64081604051610ddd911515815260200190565b5f8281526002602052604081208190610ef8908461188a565b5f8281526006602052604081208190610ef890846118a2565b5f8281526020819052604081208190610ef89084611978565b5f828152600160205260408120610d5d90836117d0565b5f8281526020819052604081208190610ef890846119b0565b5f83815260016020526040812061176190848461193e565b90507f33aa05776b12580a872871546ba9073d90c0dafed19b8a2c96bd24fd7ba1907181604051610e38911515815260200190565b5f828152600560205260408120610d5d90836118fa565b5f828152600560205260408120610d5d9083611876565b60605f610d5d8361194a565b5f610d5d83836118b0565b5f610d4082611898565b5f610d5d8383611955565b5f610d5d838361181f565b5f61181084846001600160a01b038516611922565b949350505050565b5f610d5d83835b5f8181526002830160205260408120819055610d5d83836119d9565b5f808080611852866001600160a01b038716611978565b909450925050505b9250929050565b5f611810846001600160a01b03851684611922565b5f610d5d836001600160a01b038416611955565b5f8080806118528686611978565b5f610d40826119e4565b5f80808061185286866119b0565b5f818152600283016020526040812054801580156118d557506118d38484611955565b155b15610d5d5760405163015ab34360e11b81526004810184905260240160405180910390fd5b5f610d5d836001600160a01b0384166118b0565b5f610d5d836001600160a01b03841661181f565b5f828152600284016020526040812082905561181084846119ed565b5f611810848484611922565b6060610d40826119f8565b5f610d5d8383611a04565b5f611810846001600160a01b03808616908516611922565b5f8181526002830160205260408120548190806119a5576119998585611955565b92505f915061185a9050565b60019250905061185a565b5f80806119bd8585611a1b565b5f81815260029690960160205260409095205494959350505050565b5f610d5d8383611a26565b5f610d40825490565b5f610d5d8383611b09565b60605f610d5d83611b55565b5f8181526001830160205260408120541515610d5d565b5f610d5d8383611bae565b5f8181526001830160205260408120548015611b00575f611a48600183611d90565b85549091505f90611a5b90600190611d90565b9050808214611aba575f865f018281548110611a7957611a79611daf565b905f5260205f200154905080875f018481548110611a9957611a99611daf565b5f918252602080832090910192909255918252600188019052604090208390555b8554869080611acb57611acb611dc3565b600190038181905f5260205f20015f90559055856001015f8681526020019081526020015f205f905560019350505050610d40565b5f915050610d40565b5f818152600183016020526040812054611b4e57508154600181810184555f848152602080822090930184905584548482528286019093526040902091909155610d40565b505f610d40565b6060815f01805480602002602001604051908101604052809291908181526020018280548015611ba257602002820191905f5260205f20905b815481526020019060010190808311611b8e575b50505050509050919050565b5f825f018281548110611bc357611bc3611daf565b905f5260205f200154905092915050565b5f60208284031215611be4575f80fd5b5035919050565b602080825282518282018190525f9190848201906040850190845b81811015611c2257835183529284019291840191600101611c06565b50909695505050505050565b5f8060408385031215611c3f575f80fd5b50508035926020909101359150565b80356001600160a01b0381168114611c64575f80fd5b919050565b5f805f60608486031215611c7b575f80fd5b8335925060208401359150611c9260408501611c4e565b90509250925092565b5f8060408385031215611cac575f80fd5b82359150611cbc60208401611c4e565b90509250929050565b5f805f60608486031215611cd7575f80fd5b83359250611ce760208501611c4e565b9150604084013590509250925092565b602080825282518282018190525f9190848201906040850190845b81811015611c225783516001600160a01b031683529284019291840191600101611d12565b5f805f60608486031215611d49575f80fd5b505081359360208301359350604090920135919050565b5f805f60608486031215611d72575f80fd5b83359250611d8260208501611c4e565b9150611c9260408501611c4e565b81810381811115610d4057634e487b7160e01b5f52601160045260245ffd5b634e487b7160e01b5f52603260045260245ffd5b634e487b7160e01b5f52603160045260245ffdfea2646970667358221220ca5b8739babc0d8e4cbe3ee75a0f1c03ea4b116887f0d91aeb880f0430c929c764736f6c63430008180033",
  "linkReferences": {},
  "deployedLinkReferences": {}
}