{
  "_format": "hh-sol-artifact-1",
  "contractName": "ReentrancyTransientMock",
  "sourceName": "contracts/mocks/ReentrancyTransientMock.sol",
  "abi": [
    {
      "inputs": [],
      "stateMutability": "nonpayable",
      "type": "constructor"
    },
    {
      "inputs": [],
      "name": "ReentrancyGuardReentrantCall",
      "type": "error"
    },
    {
      "inputs": [],
      "name": "callback",
      "outputs": [],
      "stateMutability": "nonpayable",
      "type": "function"
    },
    {
      "inputs": [
        {
          "internalType": "contract ReentrancyAttack",
          "name": "attacker",
          "type": "address"
        }
      ],
      "name": "countAndCall",
      "outputs": [],
      "stateMutability": "nonpayable",
      "type": "function"
    },
    {
      "inputs": [
        {
          "internalType": "uint256",
          "name": "n",
          "type": "uint256"
        }
      ],
      "name": "countLocalRecursive",
      "outputs": [],
      "stateMutability": "nonpayable",
      "type": "function"
    },
    {
      "inputs": [
        {
          "internalType": "uint256",
          "name": "n",
          "type": "uint256"
        }
      ],
      "name": "countThisRecursive",
      "outputs": [],
      "stateMutability": "nonpayable",
      "type": "function"
    },
    {
      "inputs": [],
      "name": "counter",
      "outputs": [
        {
          "internalType": "uint256",
          "name": "",
          "type": "uint256"
        }
      ],
      "stateMutability": "view",
      "type": "function"
    },
    {
      "inputs": [],
      "name": "guardedCheckEntered",
      "outputs": [],
      "stateMutability": "nonpayable",
      "type": "function"
    },
    {
      "inputs": [],
      "name": "unguardedCheckNotEntered",
      "outputs": [],
      "stateMutability": "view",
      "type": "function"
    }
  ],
  "bytecode": "0x608060405234801561000f575f80fd5b505f80556104dc806100205f395ff3fe608060405234801561000f575f80fd5b506004361061007a575f3560e01c806396ffa6901161005857806396ffa690146100b5578063a408f312146100c8578063b672ad8b146100d0578063cecc95a7146100e3575f80fd5b8063083b27321461007e57806361bc221a146100885780638c5344fa146100a2575b5f80fd5b6100866100eb565b005b6100905f5481565b60405190815260200160405180910390f35b6100866100b0366004610393565b610105565b6100866100c3366004610393565b610224565b610086610248565b6100866100de3660046103aa565b610267565b6100866102fe565b6100f3610316565b6100fb61035d565b610103610375565b565b61010d610316565b80156102195761011b61035d565b5f3080638c5344fa61012e6001866103eb565b60405160240161014091815260200190565b60408051601f198184030181529181526020820180516001600160e01b031660e09490941b9390931790925290516101789250610426565b5f604051808303815f865af19150503d805f81146101b1576040519150601f19603f3d011682016040523d82523d5f602084013e6101b6565b606091505b50509050806102175760405162461bcd60e51b8152602060048201526024808201527f5265656e7472616e63795472616e7369656e744d6f636b3a206661696c65642060448201526318d85b1b60e21b606482015260840160405180910390fd5b505b610221610375565b50565b61022c610316565b80156102195761023a61035d565b6102196100c36001836103eb565b610250610316565b5f805160206104878339815191525c6100fb575f80fd5b61026f610316565b61027761035d565b6040805160048082526024820183526020820180516001600160e01b031663041d939960e11b179052915163f8123dd560e01b81526001600160a01b0384169263f8123dd5926102c992909101610441565b5f604051808303815f87803b1580156102e0575f80fd5b505af11580156102f2573d5f803e3d5ffd5b50505050610221610375565b5f805160206104878339815191525c15610103575f80fd5b5f805160206104878339815191525c1561034357604051633ee5aeb560e01b815260040160405180910390fd5b61010360015f805160206104878339815191525b9061038c565b60015f8082825461036e9190610473565b9091555050565b6101035f5f80516020610487833981519152610357565b80825d5050565b5f602082840312156103a3575f80fd5b5035919050565b5f602082840312156103ba575f80fd5b81356001600160a01b03811681146103d0575f80fd5b9392505050565b634e487b7160e01b5f52601160045260245ffd5b818103818111156103fe576103fe6103d7565b92915050565b5f5b8381101561041e578181015183820152602001610406565b50505f910152565b5f8251610437818460208701610404565b9190910192915050565b602081525f825180602084015261045f816040850160208701610404565b601f01601f19169190910160400192915050565b808201808211156103fe576103fe6103d756fe9b779b17422d0df92223018b32b4d1fa46e071723d6817e2486d003becc55f00a2646970667358221220528d17de0b22652d916b6be605a197ee1bc4c6a68c7089ccdfec27f1e7c6226364736f6c63430008180033",
  "linkReferences": {},
  "deployedLinkReferences": {}
}