{
  "_format": "hh-sol-artifact-1",
  "contractName": "MyToken",
  "sourceName": "contracts/mocks/docs/governance/MyToken.sol",
  "abi": [
    {
      "inputs": [],
      "stateMutability": "nonpayable",
      "type": "constructor"
    },
    {
      "inputs": [],
      "name": "CheckpointUnorderedInsertion",
      "type": "error"
    },
    {
      "inputs": [],
      "name": "ECDSAInvalidSignature",
      "type": "error"
    },
    {
      "inputs": [
        {
          "internalType": "uint256",
          "name": "length",
          "type": "uint256"
        }
      ],
      "name": "ECDSAInvalidSignatureLength",
      "type": "error"
    },
    {
      "inputs": [
        {
          "internalType": "bytes32",
          "name": "s",
          "type": "bytes32"
        }
      ],
      "name": "ECDSAInvalidSignatureS",
      "type": "error"
    },
    {
      "inputs": [
        {
          "internalType": "uint256",
          "name": "increasedSupply",
          "type": "uint256"
        },
        {
          "internalType": "uint256",
          "name": "cap",
          "type": "uint256"
        }
      ],
      "name": "ERC20ExceededSafeSupply",
      "type": "error"
    },
    {
      "inputs": [
        {
          "internalType": "address",
          "name": "spender",
          "type": "address"
        },
        {
          "internalType": "uint256",
          "name": "allowance",
          "type": "uint256"
        },
        {
          "internalType": "uint256",
          "name": "needed",
          "type": "uint256"
        }
      ],
      "name": "ERC20InsufficientAllowance",
      "type": "error"
    },
    {
      "inputs": [
        {
          "internalType": "address",
          "name": "sender",
          "type": "address"
        },
        {
          "internalType": "uint256",
          "name": "balance",
          "type": "uint256"
        },
        {
          "internalType": "uint256",
          "name": "needed",
          "type": "uint256"
        }
      ],
      "name": "ERC20InsufficientBalance",
      "type": "error"
    },
    {
      "inputs": [
        {
          "internalType": "address",
          "name": "approver",
          "type": "address"
        }
      ],
      "name": "ERC20InvalidApprover",
      "type": "error"
    },
    {
      "inputs": [
        {
          "internalType": "address",
          "name": "receiver",
          "type": "address"
        }
      ],
      "name": "ERC20InvalidReceiver",
      "type": "error"
    },
    {
      "inputs": [
        {
          "internalType": "address",
          "name": "sender",
          "type": "address"
        }
      ],
      "name": "ERC20InvalidSender",
      "type": "error"
    },
    {
      "inputs": [
        {
          "internalType": "address",
          "name": "spender",
          "type": "address"
        }
      ],
      "name": "ERC20InvalidSpender",
      "type": "error"
    },
    {
      "inputs": [
        {
          "internalType": "uint256",
          "name": "deadline",
          "type": "uint256"
        }
      ],
      "name": "ERC2612ExpiredSignature",
      "type": "error"
    },
    {
      "inputs": [
        {
          "internalType": "address",
          "name": "signer",
          "type": "address"
        },
        {
          "internalType": "address",
          "name": "owner",
          "type": "address"
        }
      ],
      "name": "ERC2612InvalidSigner",
      "type": "error"
    },
    {
      "inputs": [
        {
          "internalType": "uint256",
          "name": "timepoint",
          "type": "uint256"
        },
        {
          "internalType": "uint48",
          "name": "clock",
          "type": "uint48"
        }
      ],
      "name": "ERC5805FutureLookup",
      "type": "error"
    },
    {
      "inputs": [],
      "name": "ERC6372InconsistentClock",
      "type": "error"
    },
    {
      "inputs": [
        {
          "internalType": "address",
          "name": "account",
          "type": "address"
        },
        {
          "internalType": "uint256",
          "name": "currentNonce",
          "type": "uint256"
        }
      ],
      "name": "InvalidAccountNonce",
      "type": "error"
    },
    {
      "inputs": [],
      "name": "InvalidShortString",
      "type": "error"
    },
    {
      "inputs": [
        {
          "internalType": "uint8",
          "name": "bits",
          "type": "uint8"
        },
        {
          "internalType": "uint256",
          "name": "value",
          "type": "uint256"
        }
      ],
      "name": "SafeCastOverflowedUintDowncast",
      "type": "error"
    },
    {
      "inputs": [
        {
          "internalType": "string",
          "name": "str",
          "type": "string"
        }
      ],
      "name": "StringTooLong",
      "type": "error"
    },
    {
      "inputs": [
        {
          "internalType": "uint256",
          "name": "expiry",
          "type": "uint256"
        }
      ],
      "name": "VotesExpiredSignature",
      "type": "error"
    },
    {
      "anonymous": false,
      "inputs": [
        {
          "indexed": true,
          "internalType": "address",
          "name": "owner",
          "type": "address"
        },
        {
          "indexed": true,
          "internalType": "address",
          "name": "spender",
          "type": "address"
        },
        {
          "indexed": false,
          "internalType": "uint256",
          "name": "value",
          "type": "uint256"
        }
      ],
      "name": "Approval",
      "type": "event"
    },
    {
      "anonymous": false,
      "inputs": [
        {
          "indexed": true,
          "internalType": "address",
          "name": "delegator",
          "type": "address"
        },
        {
          "indexed": true,
          "internalType": "address",
          "name": "fromDelegate",
          "type": "address"
        },
        {
          "indexed": true,
          "internalType": "address",
          "name": "toDelegate",
          "type": "address"
        }
      ],
      "name": "DelegateChanged",
      "type": "event"
    },
    {
      "anonymous": false,
      "inputs": [
        {
          "indexed": true,
          "internalType": "address",
          "name": "delegate",
          "type": "address"
        },
        {
          "indexed": false,
          "internalType": "uint256",
          "name": "previousVotes",
          "type": "uint256"
        },
        {
          "indexed": false,
          "internalType": "uint256",
          "name": "newVotes",
          "type": "uint256"
        }
      ],
      "name": "DelegateVotesChanged",
      "type": "event"
    },
    {
      "anonymous": false,
      "inputs": [],
      "name": "EIP712DomainChanged",
      "type": "event"
    },
    {
      "anonymous": false,
      "inputs": [
        {
          "indexed": true,
          "internalType": "address",
          "name": "from",
          "type": "address"
        },
        {
          "indexed": true,
          "internalType": "address",
          "name": "to",
          "type": "address"
        },
        {
          "indexed": false,
          "internalType": "uint256",
          "name": "value",
          "type": "uint256"
        }
      ],
      "name": "Transfer",
      "type": "event"
    },
    {
      "inputs": [],
      "name": "CLOCK_MODE",
      "outputs": [
        {
          "internalType": "string",
          "name": "",
          "type": "string"
        }
      ],
      "stateMutability": "view",
      "type": "function"
    },
    {
      "inputs": [],
      "name": "DOMAIN_SEPARATOR",
      "outputs": [
        {
          "internalType": "bytes32",
          "name": "",
          "type": "bytes32"
        }
      ],
      "stateMutability": "view",
      "type": "function"
    },
    {
      "inputs": [
        {
          "internalType": "address",
          "name": "owner",
          "type": "address"
        },
        {
          "internalType": "address",
          "name": "spender",
          "type": "address"
        }
      ],
      "name": "allowance",
      "outputs": [
        {
          "internalType": "uint256",
          "name": "",
          "type": "uint256"
        }
      ],
      "stateMutability": "view",
      "type": "function"
    },
    {
      "inputs": [
        {
          "internalType": "address",
          "name": "spender",
          "type": "address"
        },
        {
          "internalType": "uint256",
          "name": "value",
          "type": "uint256"
        }
      ],
      "name": "approve",
      "outputs": [
        {
          "internalType": "bool",
          "name": "",
          "type": "bool"
        }
      ],
      "stateMutability": "nonpayable",
      "type": "function"
    },
    {
      "inputs": [
        {
          "internalType": "address",
          "name": "account",
          "type": "address"
        }
      ],
      "name": "balanceOf",
      "outputs": [
        {
          "internalType": "uint256",
          "name": "",
          "type": "uint256"
        }
      ],
      "stateMutability": "view",
      "type": "function"
    },
    {
      "inputs": [
        {
          "internalType": "address",
          "name": "account",
          "type": "address"
        },
        {
          "internalType": "uint32",
          "name": "pos",
          "type": "uint32"
        }
      ],
      "name": "checkpoints",
      "outputs": [
        {
          "components": [
            {
              "internalType": "uint48",
              "name": "_key",
              "type": "uint48"
            },
            {
              "internalType": "uint208",
              "name": "_value",
              "type": "uint208"
            }
          ],
          "internalType": "struct Checkpoints.Checkpoint208",
          "name": "",
          "type": "tuple"
        }
      ],
      "stateMutability": "view",
      "type": "function"
    },
    {
      "inputs": [],
      "name": "clock",
      "outputs": [
        {
          "internalType": "uint48",
          "name": "",
          "type": "uint48"
        }
      ],
      "stateMutability": "view",
      "type": "function"
    },
    {
      "inputs": [],
      "name": "decimals",
      "outputs": [
        {
          "internalType": "uint8",
          "name": "",
          "type": "uint8"
        }
      ],
      "stateMutability": "view",
      "type": "function"
    },
    {
      "inputs": [
        {
          "internalType": "address",
          "name": "delegatee",
          "type": "address"
        }
      ],
      "name": "delegate",
      "outputs": [],
      "stateMutability": "nonpayable",
      "type": "function"
    },
    {
      "inputs": [
        {
          "internalType": "address",
          "name": "delegatee",
          "type": "address"
        },
        {
          "internalType": "uint256",
          "name": "nonce",
          "type": "uint256"
        },
        {
          "internalType": "uint256",
          "name": "expiry",
          "type": "uint256"
        },
        {
          "internalType": "uint8",
          "name": "v",
          "type": "uint8"
        },
        {
          "internalType": "bytes32",
          "name": "r",
          "type": "bytes32"
        },
        {
          "internalType": "bytes32",
          "name": "s",
          "type": "bytes32"
        }
      ],
      "name": "delegateBySig",
      "outputs": [],
      "stateMutability": "nonpayable",
      "type": "function"
    },
    {
      "inputs": [
        {
          "internalType": "address",
          "name": "account",
          "type": "address"
        }
      ],
      "name": "delegates",
      "outputs": [
        {
          "internalType": "address",
          "name": "",
          "type": "address"
        }
      ],
      "stateMutability": "view",
      "type": "function"
    },
    {
      "inputs": [],
      "name": "eip712Domain",
      "outputs": [
        {
          "internalType": "bytes1",
          "name": "fields",
          "type": "bytes1"
        },
        {
          "internalType": "string",
          "name": "name",
          "type": "string"
        },
        {
          "internalType": "string",
          "name": "version",
          "type": "string"
        },
        {
          "internalType": "uint256",
          "name": "chainId",
          "type": "uint256"
        },
        {
          "internalType": "address",
          "name": "verifyingContract",
          "type": "address"
        },
        {
          "internalType": "bytes32",
          "name": "salt",
          "type": "bytes32"
        },
        {
          "internalType": "uint256[]",
          "name": "extensions",
          "type": "uint256[]"
        }
      ],
      "stateMutability": "view",
      "type": "function"
    },
    {
      "inputs": [
        {
          "internalType": "uint256",
          "name": "timepoint",
          "type": "uint256"
        }
      ],
      "name": "getPastTotalSupply",
      "outputs": [
        {
          "internalType": "uint256",
          "name": "",
          "type": "uint256"
        }
      ],
      "stateMutability": "view",
      "type": "function"
    },
    {
      "inputs": [
        {
          "internalType": "address",
          "name": "account",
          "type": "address"
        },
        {
          "internalType": "uint256",
          "name": "timepoint",
          "type": "uint256"
        }
      ],
      "name": "getPastVotes",
      "outputs": [
        {
          "internalType": "uint256",
          "name": "",
          "type": "uint256"
        }
      ],
      "stateMutability": "view",
      "type": "function"
    },
    {
      "inputs": [
        {
          "internalType": "address",
          "name": "account",
          "type": "address"
        }
      ],
      "name": "getVotes",
      "outputs": [
        {
          "internalType": "uint256",
          "name": "",
          "type": "uint256"
        }
      ],
      "stateMutability": "view",
      "type": "function"
    },
    {
      "inputs": [],
      "name": "name",
      "outputs": [
        {
          "internalType": "string",
          "name": "",
          "type": "string"
        }
      ],
      "stateMutability": "view",
      "type": "function"
    },
    {
      "inputs": [
        {
          "internalType": "address",
          "name": "owner",
          "type": "address"
        }
      ],
      "name": "nonces",
      "outputs": [
        {
          "internalType": "uint256",
          "name": "",
          "type": "uint256"
        }
      ],
      "stateMutability": "view",
      "type": "function"
    },
    {
      "inputs": [
        {
          "internalType": "address",
          "name": "account",
          "type": "address"
        }
      ],
      "name": "numCheckpoints",
      "outputs": [
        {
          "internalType": "uint32",
          "name": "",
          "type": "uint32"
        }
      ],
      "stateMutability": "view",
      "type": "function"
    },
    {
      "inputs": [
        {
          "internalType": "address",
          "name": "owner",
          "type": "address"
        },
        {
          "internalType": "address",
          "name": "spender",
          "type": "address"
        },
        {
          "internalType": "uint256",
          "name": "value",
          "type": "uint256"
        },
        {
          "internalType": "uint256",
          "name": "deadline",
          "type": "uint256"
        },
        {
          "internalType": "uint8",
          "name": "v",
          "type": "uint8"
        },
        {
          "internalType": "bytes32",
          "name": "r",
          "type": "bytes32"
        },
        {
          "internalType": "bytes32",
          "name": "s",
          "type": "bytes32"
        }
      ],
      "name": "permit",
      "outputs": [],
      "stateMutability": "nonpayable",
      "type": "function"
    },
    {
      "inputs": [],
      "name": "symbol",
      "outputs": [
        {
          "internalType": "string",
          "name": "",
          "type": "string"
        }
      ],
      "stateMutability": "view",
      "type": "function"
    },
    {
      "inputs": [],
      "name": "totalSupply",
      "outputs": [
        {
          "internalType": "uint256",
          "name": "",
          "type": "uint256"
        }
      ],
      "stateMutability": "view",
      "type": "function"
    },
    {
      "inputs": [
        {
          "internalType": "address",
          "name": "to",
          "type": "address"
        },
        {
          "internalType": "uint256",
          "name": "value",
          "type": "uint256"
        }
      ],
      "name": "transfer",
      "outputs": [
        {
          "internalType": "bool",
          "name": "",
          "type": "bool"
        }
      ],
      "stateMutability": "nonpayable",
      "type": "function"
    },
    {
      "inputs": [
        {
          "internalType": "address",
          "name": "from",
          "type": "address"
        },
        {
          "internalType": "address",
          "name": "to",
          "type": "address"
        },
        {
          "internalType": "uint256",
          "name": "value",
          "type": "uint256"
        }
      ],
      "name": "transferFrom",
      "outputs": [
        {
          "internalType": "bool",
          "name": "",
          "type": "bool"
        }
      ],
      "stateMutability": "nonpayable",
      "type": "function"
    }
  ],
  "bytecode": "0x61016060405234801562000011575f80fd5b506040518060400160405280600781526020016626bcaa37b5b2b760c91b81525080604051806040016040528060018152602001603160f81b8152506040518060400160405280600781526020016626bcaa37b5b2b760c91b815250604051806040016040528060038152602001624d544b60e81b81525081600390816200009a91906200028a565b506004620000a982826200028a565b50620000bb9150839050600562000169565b61012052620000cc81600662000169565b61014052815160208084019190912060e052815190820120610100524660a0526200015960e05161010051604080517f8b73c3c69bb8fe3d512ecc4cf759cc79239f7b179b0ffacaa9a75d522b39400f60208201529081019290925260608201524660808201523060a08201525f9060c00160405160208183030381529060405280519060200120905090565b60805250503060c05250620003c8565b5f60208351101562000188576200018083620001a1565b90506200019b565b816200019584826200028a565b5060ff90505b92915050565b5f80829050601f81511115620001d7578260405163305a27a960e01b8152600401620001ce919062000356565b60405180910390fd5b8051620001e482620003a4565b179392505050565b634e487b7160e01b5f52604160045260245ffd5b600181811c908216806200021557607f821691505b6020821081036200023457634e487b7160e01b5f52602260045260245ffd5b50919050565b601f8211156200028557805f5260205f20601f840160051c81016020851015620002615750805b601f840160051c820191505b8181101562000282575f81556001016200026d565b50505b505050565b81516001600160401b03811115620002a657620002a6620001ec565b620002be81620002b7845462000200565b846200023a565b602080601f831160018114620002f4575f8415620002dc5750858301515b5f19600386901b1c1916600185901b1785556200034e565b5f85815260208120601f198616915b82811015620003245788860151825594840194600190910190840162000303565b50858210156200034257878501515f19600388901b60f8161c191681555b505060018460011b0185555b505050505050565b5f602080835283518060208501525f5b81811015620003845785810183015185820160400152820162000366565b505f604082860101526040601f19601f8301168501019250505092915050565b8051602080830151919081101562000234575f1960209190910360031b1b16919050565b60805160a05160c05160e051610100516101205161014051611cf26200041a5f395f610c2b01525f610bfe01525f6109f001525f6109c801525f61092301525f61094d01525f6109770152611cf25ff3fe608060405234801561000f575f80fd5b5060043610610148575f3560e01c806370a08231116100bf5780639ab24eb0116100795780639ab24eb0146102f4578063a9059cbb14610307578063c3cda5201461031a578063d505accf1461032d578063dd62ed3e14610340578063f1127ed814610378575f80fd5b806370a08231146102645780637ecebe001461028c57806384b0196e1461029f5780638e539e8c146102ba57806391ddadf4146102cd57806395d89b41146102ec575f80fd5b80633644e515116101105780633644e515146101c15780633a46b1a8146101c95780634bf5d7e9146101dc578063587cde1e146101e45780635c19a95c146102275780636fcfff451461023c575f80fd5b806306fdde031461014c578063095ea7b31461016a57806318160ddd1461018d57806323b872dd1461019f578063313ce567146101b2575b5f80fd5b6101546103b7565b604051610161919061191c565b60405180910390f35b61017d610178366004611949565b610447565b6040519015158152602001610161565b6002545b604051908152602001610161565b61017d6101ad366004611971565b610460565b60405160128152602001610161565b610191610483565b6101916101d7366004611949565b610491565b6101546104cb565b61020f6101f23660046119aa565b6001600160a01b039081165f908152600860205260409020541690565b6040516001600160a01b039091168152602001610161565b61023a6102353660046119aa565b610543565b005b61024f61024a3660046119aa565b610552565b60405163ffffffff9091168152602001610161565b6101916102723660046119aa565b6001600160a01b03165f9081526020819052604090205490565b61019161029a3660046119aa565b61055c565b6102a7610566565b60405161016197969594939291906119c3565b6101916102c8366004611a5a565b6105a8565b6102d56105cc565b60405165ffffffffffff9091168152602001610161565b6101546105d5565b6101916103023660046119aa565b6105e4565b61017d610315366004611949565b610604565b61023a610328366004611a81565b610611565b61023a61033b366004611ad5565b6106d2565b61019161034e366004611b3a565b6001600160a01b039182165f90815260016020908152604080832093909416825291909152205490565b61038b610386366004611b6b565b610808565b60408051825165ffffffffffff1681526020928301516001600160d01b03169281019290925201610161565b6060600380546103c690611ba8565b80601f01602080910402602001604051908101604052809291908181526020018280546103f290611ba8565b801561043d5780601f106104145761010080835404028352916020019161043d565b820191905f5260205f20905b81548152906001019060200180831161042057829003601f168201915b5050505050905090565b5f3361045481858561082c565b60019150505b92915050565b5f3361046d85828561083e565b6104788585856108ba565b506001949350505050565b5f61048c610917565b905090565b5f6104bb61049e83610a40565b6001600160a01b0385165f90815260096020526040902090610a8e565b6001600160d01b03169392505050565b60606104d5610b3e565b65ffffffffffff166104e56105cc565b65ffffffffffff161461050b576040516301bfc1c560e61b815260040160405180910390fd5b5060408051808201909152601d81527f6d6f64653d626c6f636b6e756d6265722666726f6d3d64656661756c74000000602082015290565b3361054e8183610b48565b5050565b5f61045a82610bb9565b5f61045a82610bda565b5f6060805f805f6060610577610bf7565b61057f610c24565b604080515f80825260208201909252600f60f81b9b939a50919850469750309650945092509050565b5f6105bd6105b583610a40565b600a90610a8e565b6001600160d01b031692915050565b5f61048c610b3e565b6060600480546103c690611ba8565b6001600160a01b0381165f9081526009602052604081206105bd90610c51565b5f336104548185856108ba565b8342111561063a57604051632341d78760e11b8152600481018590526024015b60405180910390fd5b604080517fe48329057bfd03d55e49b547132e39cffd9c1820ad7b9d4c5307691425d15adf60208201526001600160a01b0388169181019190915260608101869052608081018590525f906106b3906106ab9060a00160405160208183030381529060405280519060200120610c88565b858585610cb4565b90506106bf8187610ce0565b6106c98188610b48565b50505050505050565b834211156106f65760405163313c898160e11b815260048101859052602401610631565b5f7f6e71edae12b1b97f4d1f60370fef10105fa2faae0126114a169c64845d6126c98888886107418c6001600160a01b03165f90815260076020526040902080546001810190915590565b6040805160208101969096526001600160a01b0394851690860152929091166060840152608083015260a082015260c0810186905260e0016040516020818303038152906040528051906020012090505f61079b82610c88565b90505f6107aa82878787610cb4565b9050896001600160a01b0316816001600160a01b0316146107f1576040516325c0072360e11b81526001600160a01b0380831660048301528b166024820152604401610631565b6107fc8a8a8a61082c565b50505050505050505050565b604080518082019091525f80825260208201526108258383610d32565b9392505050565b6108398383836001610d66565b505050565b6001600160a01b038381165f908152600160209081526040808320938616835292905220545f198110156108b457818110156108a657604051637dc7a0d960e11b81526001600160a01b03841660048201526024810182905260448101839052606401610631565b6108b484848484035f610d66565b50505050565b6001600160a01b0383166108e357604051634b637e8f60e11b81525f6004820152602401610631565b6001600160a01b03821661090c5760405163ec442f0560e01b81525f6004820152602401610631565b610839838383610e38565b5f306001600160a01b037f00000000000000000000000000000000000000000000000000000000000000001614801561096f57507f000000000000000000000000000000000000000000000000000000000000000046145b1561099957507f000000000000000000000000000000000000000000000000000000000000000090565b61048c604080517f8b73c3c69bb8fe3d512ecc4cf759cc79239f7b179b0ffacaa9a75d522b39400f60208201527f0000000000000000000000000000000000000000000000000000000000000000918101919091527f000000000000000000000000000000000000000000000000000000000000000060608201524660808201523060a08201525f9060c00160405160208183030381529060405280519060200120905090565b5f80610a4a6105cc565b90508065ffffffffffff168310610a8557604051637669fc0f60e11b81526004810184905265ffffffffffff82166024820152604401610631565b61082583610e43565b81545f9081816005811115610aea575f610aa784610e79565b610ab19085611bf4565b5f8881526020902090915081015465ffffffffffff9081169087161015610ada57809150610ae8565b610ae5816001611c07565b92505b505b5f610af787878585610fd1565b90508015610b3157610b1b87610b0e600184611bf4565b5f91825260209091200190565b54600160301b90046001600160d01b0316610b33565b5f5b979650505050505050565b5f61048c43610e43565b6001600160a01b038281165f8181526008602052604080822080548686166001600160a01b0319821681179092559151919094169392849290917f3134e8a2e6d97e929a7e54011ea5485d7d196dd5f0ba4d4ef95803e8e3fc257f9190a46108398183610bb486611030565b61104d565b6001600160a01b0381165f9081526009602052604081205461045a906111b6565b6001600160a01b0381165f9081526007602052604081205461045a565b606061048c7f000000000000000000000000000000000000000000000000000000000000000060056111e6565b606061048c7f000000000000000000000000000000000000000000000000000000000000000060066111e6565b80545f908015610c8057610c6a83610b0e600184611bf4565b54600160301b90046001600160d01b0316610825565b5f9392505050565b5f61045a610c94610917565b8360405161190160f01b8152600281019290925260228201526042902090565b5f805f80610cc48888888861128f565b925092509250610cd48282611357565b50909695505050505050565b6001600160a01b0382165f908152600760205260409020805460018101909155818114610839576040516301d4b62360e61b81526001600160a01b038416600482015260248101829052604401610631565b604080518082019091525f80825260208201526001600160a01b0383165f908152600960205260409020610825908361140f565b6001600160a01b038416610d8f5760405163e602df0560e01b81525f6004820152602401610631565b6001600160a01b038316610db857604051634a1406b160e11b81525f6004820152602401610631565b6001600160a01b038085165f90815260016020908152604080832093871683529290522082905580156108b457826001600160a01b0316846001600160a01b03167f8c5be1e5ebec7d5bd14f71427d1e84f3dd0314c0f7b2291e5b200ac8c7c3b92584604051610e2a91815260200190565b60405180910390a350505050565b61083983838361147c565b5f65ffffffffffff821115610e75576040516306dfcc6560e41b81526030600482015260248101839052604401610631565b5090565b5f60018211610e86575090565b816001600160801b8210610e9f5760809190911c9060401b5b680100000000000000008210610eba5760409190911c9060201b5b6401000000008210610ed15760209190911c9060101b5b620100008210610ee65760109190911c9060081b5b6101008210610efa5760089190911c9060041b5b60108210610f0d5760049190911c9060021b5b60048210610f195760011b5b600302600190811c90818581610f3157610f31611c1a565b048201901c90506001818581610f4957610f49611c1a565b048201901c90506001818581610f6157610f61611c1a565b048201901c90506001818581610f7957610f79611c1a565b048201901c90506001818581610f9157610f91611c1a565b048201901c90506001818581610fa957610fa9611c1a565b048201901c9050610fc8818581610fc257610fc2611c1a565b04821190565b90039392505050565b5f5b81831015611028575f610fe684846114e2565b5f8781526020902090915065ffffffffffff86169082015465ffffffffffff16111561101457809250611022565b61101f816001611c07565b93505b50610fd3565b509392505050565b6001600160a01b0381165f9081526020819052604081205461045a565b816001600160a01b0316836001600160a01b03161415801561106e57505f81115b15610839576001600160a01b03831615611115576001600160a01b0383165f90815260096020526040812081906110b0906114fc6110ab86611507565b61153a565b6001600160d01b031691506001600160d01b03169150846001600160a01b03167fdec2bacdd2f05b59de34da9b523dff8be42e5e38e818c82fdb0bae774387a724838360405161110a929190918252602082015260400190565b60405180910390a250505b6001600160a01b03821615610839576001600160a01b0382165f908152600960205260408120819061114d906115726110ab86611507565b6001600160d01b031691506001600160d01b03169150836001600160a01b03167fdec2bacdd2f05b59de34da9b523dff8be42e5e38e818c82fdb0bae774387a72483836040516111a7929190918252602082015260400190565b60405180910390a25050505050565b5f63ffffffff821115610e75576040516306dfcc6560e41b81526020600482015260248101839052604401610631565b606060ff8314611200576111f98361157d565b905061045a565b81805461120c90611ba8565b80601f016020809104026020016040519081016040528092919081815260200182805461123890611ba8565b80156112835780601f1061125a57610100808354040283529160200191611283565b820191905f5260205f20905b81548152906001019060200180831161126657829003601f168201915b5050505050905061045a565b5f80807f7fffffffffffffffffffffffffffffff5d576e7357a4501ddfe92f46681b20a08411156112c857505f9150600390508261134d565b604080515f808252602082018084528a905260ff891692820192909252606081018790526080810186905260019060a0016020604051602081039080840390855afa158015611319573d5f803e3d5ffd5b5050604051601f1901519150506001600160a01b03811661134457505f92506001915082905061134d565b92505f91508190505b9450945094915050565b5f82600381111561136a5761136a611c2e565b03611373575050565b600182600381111561138757611387611c2e565b036113a55760405163f645eedf60e01b815260040160405180910390fd5b60028260038111156113b9576113b9611c2e565b036113da5760405163fce698f760e01b815260048101829052602401610631565b60038260038111156113ee576113ee611c2e565b0361054e576040516335e2f38360e21b815260048101829052602401610631565b604080518082019091525f8082526020820152825f018263ffffffff168154811061143c5761143c611c42565b5f9182526020918290206040805180820190915291015465ffffffffffff81168252600160301b90046001600160d01b0316918101919091529392505050565b6114878383836115ba565b6001600160a01b0383166114d7575f61149f60025490565b90506001600160d01b03808211156114d457604051630e58ae9360e11b81526004810183905260248101829052604401610631565b50505b6108398383836116e0565b5f6114f06002848418611c56565b61082590848416611c07565b5f6108258284611c75565b5f6001600160d01b03821115610e75576040516306dfcc6560e41b815260d0600482015260248101839052604401610631565b5f806115656115476105cc565b61155d61155388610c51565b868863ffffffff16565b879190611755565b915091505b935093915050565b5f6108258284611c9c565b60605f61158983611762565b6040805160208082528183019092529192505f91906020820181803683375050509182525060208101929092525090565b6001600160a01b0383166115e4578060025f8282546115d99190611c07565b909155506116549050565b6001600160a01b0383165f90815260208190526040902054818110156116365760405163391434e360e21b81526001600160a01b03851660048201526024810182905260448101839052606401610631565b6001600160a01b0384165f9081526020819052604090209082900390555b6001600160a01b0382166116705760028054829003905561168e565b6001600160a01b0382165f9081526020819052604090208054820190555b816001600160a01b0316836001600160a01b03167fddf252ad1be2c89b69c2b068fc378daa952ba7f163c4a11628f55a4df523b3ef836040516116d391815260200190565b60405180910390a3505050565b6001600160a01b038316611702576116ff600a6115726110ab84611507565b50505b6001600160a01b03821661172457611721600a6114fc6110ab84611507565b50505b6001600160a01b038381165f908152600860205260408082205485841683529120546108399291821691168361104d565b5f80611565858585611789565b5f60ff8216601f81111561045a57604051632cd44ac360e21b815260040160405180910390fd5b82545f908190801561187f575f6117a587610b0e600185611bf4565b805490915065ffffffffffff80821691600160301b90046001600160d01b03169088168211156117e857604051632520601d60e01b815260040160405180910390fd5b8765ffffffffffff168265ffffffffffff160361182157825465ffffffffffff16600160301b6001600160d01b03891602178355611871565b6040805180820190915265ffffffffffff808a1682526001600160d01b03808a1660208085019182528d54600181018f555f8f81529190912094519151909216600160301b029216919091179101555b945085935061156a92505050565b50506040805180820190915265ffffffffffff80851682526001600160d01b0380851660208085019182528854600181018a555f8a815291822095519251909316600160301b02919093161792019190915590508161156a565b5f81518084525f5b818110156118fd576020818501810151868301820152016118e1565b505f602082860101526020601f19601f83011685010191505092915050565b602081525f61082560208301846118d9565b80356001600160a01b0381168114611944575f80fd5b919050565b5f806040838503121561195a575f80fd5b6119638361192e565b946020939093013593505050565b5f805f60608486031215611983575f80fd5b61198c8461192e565b925061199a6020850161192e565b9150604084013590509250925092565b5f602082840312156119ba575f80fd5b6108258261192e565b60ff60f81b881681525f602060e060208401526119e360e084018a6118d9565b83810360408501526119f5818a6118d9565b606085018990526001600160a01b038816608086015260a0850187905284810360c0860152855180825260208088019350909101905f5b81811015611a4857835183529284019291840191600101611a2c565b50909c9b505050505050505050505050565b5f60208284031215611a6a575f80fd5b5035919050565b803560ff81168114611944575f80fd5b5f805f805f8060c08789031215611a96575f80fd5b611a9f8761192e565b95506020870135945060408701359350611abb60608801611a71565b92506080870135915060a087013590509295509295509295565b5f805f805f805f60e0888a031215611aeb575f80fd5b611af48861192e565b9650611b026020890161192e565b95506040880135945060608801359350611b1e60808901611a71565b925060a0880135915060c0880135905092959891949750929550565b5f8060408385031215611b4b575f80fd5b611b548361192e565b9150611b626020840161192e565b90509250929050565b5f8060408385031215611b7c575f80fd5b611b858361192e565b9150602083013563ffffffff81168114611b9d575f80fd5b809150509250929050565b600181811c90821680611bbc57607f821691505b602082108103611bda57634e487b7160e01b5f52602260045260245ffd5b50919050565b634e487b7160e01b5f52601160045260245ffd5b8181038181111561045a5761045a611be0565b8082018082111561045a5761045a611be0565b634e487b7160e01b5f52601260045260245ffd5b634e487b7160e01b5f52602160045260245ffd5b634e487b7160e01b5f52603260045260245ffd5b5f82611c7057634e487b7160e01b5f52601260045260245ffd5b500490565b6001600160d01b03828116828216039080821115611c9557611c95611be0565b5092915050565b6001600160d01b03818116838216019080821115611c9557611c95611be056fea2646970667358221220eb1fe0e1b599eb69e601e2e39215bb3a0d19a9c357a13de2f9db9d56ac007b4764736f6c63430008180033",
  "linkReferences": {},
  "deployedLinkReferences": {}
}