{
  "_format": "hh-sol-artifact-1",
  "contractName": "$ERC20Permit",
  "sourceName": "contracts-exposed/token/ERC20/extensions/ERC20Permit.sol",
  "abi": [
    {
      "inputs": [
        {
          "internalType": "string",
          "name": "name_",
          "type": "string"
        },
        {
          "internalType": "string",
          "name": "symbol_",
          "type": "string"
        },
        {
          "internalType": "string",
          "name": "name",
          "type": "string"
        }
      ],
      "stateMutability": "payable",
      "type": "constructor"
    },
    {
      "inputs": [],
      "name": "ECDSAInvalidSignature",
      "type": "error"
    },
    {
      "inputs": [
        {
          "internalType": "uint256",
          "name": "length",
          "type": "uint256"
        }
      ],
      "name": "ECDSAInvalidSignatureLength",
      "type": "error"
    },
    {
      "inputs": [
        {
          "internalType": "bytes32",
          "name": "s",
          "type": "bytes32"
        }
      ],
      "name": "ECDSAInvalidSignatureS",
      "type": "error"
    },
    {
      "inputs": [
        {
          "internalType": "address",
          "name": "spender",
          "type": "address"
        },
        {
          "internalType": "uint256",
          "name": "allowance",
          "type": "uint256"
        },
        {
          "internalType": "uint256",
          "name": "needed",
          "type": "uint256"
        }
      ],
      "name": "ERC20InsufficientAllowance",
      "type": "error"
    },
    {
      "inputs": [
        {
          "internalType": "address",
          "name": "sender",
          "type": "address"
        },
        {
          "internalType": "uint256",
          "name": "balance",
          "type": "uint256"
        },
        {
          "internalType": "uint256",
          "name": "needed",
          "type": "uint256"
        }
      ],
      "name": "ERC20InsufficientBalance",
      "type": "error"
    },
    {
      "inputs": [
        {
          "internalType": "address",
          "name": "approver",
          "type": "address"
        }
      ],
      "name": "ERC20InvalidApprover",
      "type": "error"
    },
    {
      "inputs": [
        {
          "internalType": "address",
          "name": "receiver",
          "type": "address"
        }
      ],
      "name": "ERC20InvalidReceiver",
      "type": "error"
    },
    {
      "inputs": [
        {
          "internalType": "address",
          "name": "sender",
          "type": "address"
        }
      ],
      "name": "ERC20InvalidSender",
      "type": "error"
    },
    {
      "inputs": [
        {
          "internalType": "address",
          "name": "spender",
          "type": "address"
        }
      ],
      "name": "ERC20InvalidSpender",
      "type": "error"
    },
    {
      "inputs": [
        {
          "internalType": "uint256",
          "name": "deadline",
          "type": "uint256"
        }
      ],
      "name": "ERC2612ExpiredSignature",
      "type": "error"
    },
    {
      "inputs": [
        {
          "internalType": "address",
          "name": "signer",
          "type": "address"
        },
        {
          "internalType": "address",
          "name": "owner",
          "type": "address"
        }
      ],
      "name": "ERC2612InvalidSigner",
      "type": "error"
    },
    {
      "inputs": [
        {
          "internalType": "address",
          "name": "account",
          "type": "address"
        },
        {
          "internalType": "uint256",
          "name": "currentNonce",
          "type": "uint256"
        }
      ],
      "name": "InvalidAccountNonce",
      "type": "error"
    },
    {
      "inputs": [],
      "name": "InvalidShortString",
      "type": "error"
    },
    {
      "inputs": [
        {
          "internalType": "string",
          "name": "str",
          "type": "string"
        }
      ],
      "name": "StringTooLong",
      "type": "error"
    },
    {
      "anonymous": false,
      "inputs": [
        {
          "indexed": true,
          "internalType": "address",
          "name": "owner",
          "type": "address"
        },
        {
          "indexed": true,
          "internalType": "address",
          "name": "spender",
          "type": "address"
        },
        {
          "indexed": false,
          "internalType": "uint256",
          "name": "value",
          "type": "uint256"
        }
      ],
      "name": "Approval",
      "type": "event"
    },
    {
      "anonymous": false,
      "inputs": [],
      "name": "EIP712DomainChanged",
      "type": "event"
    },
    {
      "anonymous": false,
      "inputs": [
        {
          "indexed": true,
          "internalType": "address",
          "name": "from",
          "type": "address"
        },
        {
          "indexed": true,
          "internalType": "address",
          "name": "to",
          "type": "address"
        },
        {
          "indexed": false,
          "internalType": "uint256",
          "name": "value",
          "type": "uint256"
        }
      ],
      "name": "Transfer",
      "type": "event"
    },
    {
      "anonymous": false,
      "inputs": [
        {
          "indexed": false,
          "internalType": "uint256",
          "name": "ret0",
          "type": "uint256"
        }
      ],
      "name": "return$_useNonce",
      "type": "event"
    },
    {
      "inputs": [],
      "name": "$_EIP712Name",
      "outputs": [
        {
          "internalType": "string",
          "name": "ret0",
          "type": "string"
        }
      ],
      "stateMutability": "view",
      "type": "function"
    },
    {
      "inputs": [],
      "name": "$_EIP712Version",
      "outputs": [
        {
          "internalType": "string",
          "name": "ret0",
          "type": "string"
        }
      ],
      "stateMutability": "view",
      "type": "function"
    },
    {
      "inputs": [
        {
          "internalType": "address",
          "name": "owner",
          "type": "address"
        },
        {
          "internalType": "address",
          "name": "spender",
          "type": "address"
        },
        {
          "internalType": "uint256",
          "name": "value",
          "type": "uint256"
        },
        {
          "internalType": "bool",
          "name": "emitEvent",
          "type": "bool"
        }
      ],
      "name": "$_approve",
      "outputs": [],
      "stateMutability": "nonpayable",
      "type": "function"
    },
    {
      "inputs": [
        {
          "internalType": "address",
          "name": "owner",
          "type": "address"
        },
        {
          "internalType": "address",
          "name": "spender",
          "type": "address"
        },
        {
          "internalType": "uint256",
          "name": "value",
          "type": "uint256"
        }
      ],
      "name": "$_approve",
      "outputs": [],
      "stateMutability": "nonpayable",
      "type": "function"
    },
    {
      "inputs": [
        {
          "internalType": "address",
          "name": "account",
          "type": "address"
        },
        {
          "internalType": "uint256",
          "name": "value",
          "type": "uint256"
        }
      ],
      "name": "$_burn",
      "outputs": [],
      "stateMutability": "nonpayable",
      "type": "function"
    },
    {
      "inputs": [],
      "name": "$_contextSuffixLength",
      "outputs": [
        {
          "internalType": "uint256",
          "name": "ret0",
          "type": "uint256"
        }
      ],
      "stateMutability": "view",
      "type": "function"
    },
    {
      "inputs": [],
      "name": "$_domainSeparatorV4",
      "outputs": [
        {
          "internalType": "bytes32",
          "name": "ret0",
          "type": "bytes32"
        }
      ],
      "stateMutability": "view",
      "type": "function"
    },
    {
      "inputs": [
        {
          "internalType": "bytes32",
          "name": "structHash",
          "type": "bytes32"
        }
      ],
      "name": "$_hashTypedDataV4",
      "outputs": [
        {
          "internalType": "bytes32",
          "name": "ret0",
          "type": "bytes32"
        }
      ],
      "stateMutability": "view",
      "type": "function"
    },
    {
      "inputs": [
        {
          "internalType": "address",
          "name": "account",
          "type": "address"
        },
        {
          "internalType": "uint256",
          "name": "value",
          "type": "uint256"
        }
      ],
      "name": "$_mint",
      "outputs": [],
      "stateMutability": "nonpayable",
      "type": "function"
    },
    {
      "inputs": [],
      "name": "$_msgData",
      "outputs": [
        {
          "internalType": "bytes",
          "name": "ret0",
          "type": "bytes"
        }
      ],
      "stateMutability": "view",
      "type": "function"
    },
    {
      "inputs": [],
      "name": "$_msgSender",
      "outputs": [
        {
          "internalType": "address",
          "name": "ret0",
          "type": "address"
        }
      ],
      "stateMutability": "view",
      "type": "function"
    },
    {
      "inputs": [
        {
          "internalType": "address",
          "name": "owner",
          "type": "address"
        },
        {
          "internalType": "address",
          "name": "spender",
          "type": "address"
        },
        {
          "internalType": "uint256",
          "name": "value",
          "type": "uint256"
        }
      ],
      "name": "$_spendAllowance",
      "outputs": [],
      "stateMutability": "nonpayable",
      "type": "function"
    },
    {
      "inputs": [
        {
          "internalType": "address",
          "name": "from",
          "type": "address"
        },
        {
          "internalType": "address",
          "name": "to",
          "type": "address"
        },
        {
          "internalType": "uint256",
          "name": "value",
          "type": "uint256"
        }
      ],
      "name": "$_transfer",
      "outputs": [],
      "stateMutability": "nonpayable",
      "type": "function"
    },
    {
      "inputs": [
        {
          "internalType": "address",
          "name": "from",
          "type": "address"
        },
        {
          "internalType": "address",
          "name": "to",
          "type": "address"
        },
        {
          "internalType": "uint256",
          "name": "value",
          "type": "uint256"
        }
      ],
      "name": "$_update",
      "outputs": [],
      "stateMutability": "nonpayable",
      "type": "function"
    },
    {
      "inputs": [
        {
          "internalType": "address",
          "name": "owner",
          "type": "address"
        },
        {
          "internalType": "uint256",
          "name": "nonce",
          "type": "uint256"
        }
      ],
      "name": "$_useCheckedNonce",
      "outputs": [],
      "stateMutability": "nonpayable",
      "type": "function"
    },
    {
      "inputs": [
        {
          "internalType": "address",
          "name": "owner",
          "type": "address"
        }
      ],
      "name": "$_useNonce",
      "outputs": [
        {
          "internalType": "uint256",
          "name": "ret0",
          "type": "uint256"
        }
      ],
      "stateMutability": "nonpayable",
      "type": "function"
    },
    {
      "inputs": [],
      "name": "DOMAIN_SEPARATOR",
      "outputs": [
        {
          "internalType": "bytes32",
          "name": "",
          "type": "bytes32"
        }
      ],
      "stateMutability": "view",
      "type": "function"
    },
    {
      "inputs": [],
      "name": "__hh_exposed_bytecode_marker",
      "outputs": [
        {
          "internalType": "bytes32",
          "name": "",
          "type": "bytes32"
        }
      ],
      "stateMutability": "view",
      "type": "function"
    },
    {
      "inputs": [
        {
          "internalType": "address",
          "name": "owner",
          "type": "address"
        },
        {
          "internalType": "address",
          "name": "spender",
          "type": "address"
        }
      ],
      "name": "allowance",
      "outputs": [
        {
          "internalType": "uint256",
          "name": "",
          "type": "uint256"
        }
      ],
      "stateMutability": "view",
      "type": "function"
    },
    {
      "inputs": [
        {
          "internalType": "address",
          "name": "spender",
          "type": "address"
        },
        {
          "internalType": "uint256",
          "name": "value",
          "type": "uint256"
        }
      ],
      "name": "approve",
      "outputs": [
        {
          "internalType": "bool",
          "name": "",
          "type": "bool"
        }
      ],
      "stateMutability": "nonpayable",
      "type": "function"
    },
    {
      "inputs": [
        {
          "internalType": "address",
          "name": "account",
          "type": "address"
        }
      ],
      "name": "balanceOf",
      "outputs": [
        {
          "internalType": "uint256",
          "name": "",
          "type": "uint256"
        }
      ],
      "stateMutability": "view",
      "type": "function"
    },
    {
      "inputs": [],
      "name": "decimals",
      "outputs": [
        {
          "internalType": "uint8",
          "name": "",
          "type": "uint8"
        }
      ],
      "stateMutability": "view",
      "type": "function"
    },
    {
      "inputs": [],
      "name": "eip712Domain",
      "outputs": [
        {
          "internalType": "bytes1",
          "name": "fields",
          "type": "bytes1"
        },
        {
          "internalType": "string",
          "name": "name",
          "type": "string"
        },
        {
          "internalType": "string",
          "name": "version",
          "type": "string"
        },
        {
          "internalType": "uint256",
          "name": "chainId",
          "type": "uint256"
        },
        {
          "internalType": "address",
          "name": "verifyingContract",
          "type": "address"
        },
        {
          "internalType": "bytes32",
          "name": "salt",
          "type": "bytes32"
        },
        {
          "internalType": "uint256[]",
          "name": "extensions",
          "type": "uint256[]"
        }
      ],
      "stateMutability": "view",
      "type": "function"
    },
    {
      "inputs": [],
      "name": "name",
      "outputs": [
        {
          "internalType": "string",
          "name": "",
          "type": "string"
        }
      ],
      "stateMutability": "view",
      "type": "function"
    },
    {
      "inputs": [
        {
          "internalType": "address",
          "name": "owner",
          "type": "address"
        }
      ],
      "name": "nonces",
      "outputs": [
        {
          "internalType": "uint256",
          "name": "",
          "type": "uint256"
        }
      ],
      "stateMutability": "view",
      "type": "function"
    },
    {
      "inputs": [
        {
          "internalType": "address",
          "name": "owner",
          "type": "address"
        },
        {
          "internalType": "address",
          "name": "spender",
          "type": "address"
        },
        {
          "internalType": "uint256",
          "name": "value",
          "type": "uint256"
        },
        {
          "internalType": "uint256",
          "name": "deadline",
          "type": "uint256"
        },
        {
          "internalType": "uint8",
          "name": "v",
          "type": "uint8"
        },
        {
          "internalType": "bytes32",
          "name": "r",
          "type": "bytes32"
        },
        {
          "internalType": "bytes32",
          "name": "s",
          "type": "bytes32"
        }
      ],
      "name": "permit",
      "outputs": [],
      "stateMutability": "nonpayable",
      "type": "function"
    },
    {
      "inputs": [],
      "name": "symbol",
      "outputs": [
        {
          "internalType": "string",
          "name": "",
          "type": "string"
        }
      ],
      "stateMutability": "view",
      "type": "function"
    },
    {
      "inputs": [],
      "name": "totalSupply",
      "outputs": [
        {
          "internalType": "uint256",
          "name": "",
          "type": "uint256"
        }
      ],
      "stateMutability": "view",
      "type": "function"
    },
    {
      "inputs": [
        {
          "internalType": "address",
          "name": "to",
          "type": "address"
        },
        {
          "internalType": "uint256",
          "name": "value",
          "type": "uint256"
        }
      ],
      "name": "transfer",
      "outputs": [
        {
          "internalType": "bool",
          "name": "",
          "type": "bool"
        }
      ],
      "stateMutability": "nonpayable",
      "type": "function"
    },
    {
      "inputs": [
        {
          "internalType": "address",
          "name": "from",
          "type": "address"
        },
        {
          "internalType": "address",
          "name": "to",
          "type": "address"
        },
        {
          "internalType": "uint256",
          "name": "value",
          "type": "uint256"
        }
      ],
      "name": "transferFrom",
      "outputs": [
        {
          "internalType": "bool",
          "name": "",
          "type": "bool"
        }
      ],
      "stateMutability": "nonpayable",
      "type": "function"
    },
    {
      "stateMutability": "payable",
      "type": "receive"
    }
  ],
  "bytecode": "0x610160604052604051620019343803806200193483398101604081905262000027916200026f565b6040805180820190915260018152603160f81b6020820152819081908585600362000053838262000384565b50600462000062828262000384565b50620000749150839050600562000126565b610120526200008581600662000126565b61014052815160208084019190912060e052815190820120610100524660a0526200011260e05161010051604080517f8b73c3c69bb8fe3d512ecc4cf759cc79239f7b179b0ffacaa9a75d522b39400f60208201529081019290925260608201524660808201523060a08201525f9060c00160405160208183030381529060405280519060200120905090565b60805250503060c05250620004a892505050565b5f60208351101562000145576200013d836200015e565b905062000158565b8162000152848262000384565b5060ff90505b92915050565b5f80829050601f8151111562000194578260405163305a27a960e01b81526004016200018b919062000450565b60405180910390fd5b8051620001a18262000484565b179392505050565b634e487b7160e01b5f52604160045260245ffd5b5f5b83811015620001d9578181015183820152602001620001bf565b50505f910152565b5f82601f830112620001f1575f80fd5b81516001600160401b03808211156200020e576200020e620001a9565b604051601f8301601f19908116603f01168101908282118183101715620002395762000239620001a9565b8160405283815286602085880101111562000252575f80fd5b62000265846020830160208901620001bd565b9695505050505050565b5f805f6060848603121562000282575f80fd5b83516001600160401b038082111562000299575f80fd5b620002a787838801620001e1565b94506020860151915080821115620002bd575f80fd5b620002cb87838801620001e1565b93506040860151915080821115620002e1575f80fd5b50620002f086828701620001e1565b9150509250925092565b600181811c908216806200030f57607f821691505b6020821081036200032e57634e487b7160e01b5f52602260045260245ffd5b50919050565b601f8211156200037f57805f5260205f20601f840160051c810160208510156200035b5750805b601f840160051c820191505b818110156200037c575f815560010162000367565b50505b505050565b81516001600160401b03811115620003a057620003a0620001a9565b620003b881620003b18454620002fa565b8462000334565b602080601f831160018114620003ee575f8415620003d65750858301515b5f19600386901b1c1916600185901b17855562000448565b5f85815260208120601f198616915b828110156200041e57888601518255948401946001909101908401620003fd565b50858210156200043c57878501515f19600388901b60f8161c191681555b505060018460011b0185555b505050505050565b602081525f825180602084015262000470816040850160208701620001bd565b601f01601f19169190910160400192915050565b805160208083015191908110156200032e575f1960209190910360031b1b16919050565b60805160a05160c05160e05161010051610120516101405161143a620004fa5f395f61095e01525f61093101525f610bf701525f610bcf01525f610b2a01525f610b5401525f610b7e015261143a5ff3fe6080604052600436106101c8575f3560e01c806367354a84116100f257806395d89b4111610092578063d505accf11610062578063d505accf146104cc578063dd62ed3e146104eb578063e047838d1461052f578063efb43b071461054e575f80fd5b806395d89b411461045b578063a9059cbb1461046f578063b2331d7d1461048e578063cc461d62146104ad575f80fd5b806370a08231116100cd57806370a08231146103c25780637ecebe00146103f657806384b0196e14610415578063861e3d3d1461043c575f80fd5b806367354a84146103725780636855a178146103845780636b4ac502146103a3575f80fd5b80632e8fbee511610168578063342db73911610138578063342db7391461031a5780633644e5151461033f578063506a6f0c146103535780635f8d5e741461033f575f80fd5b80632e8fbee5146102ab578063313ce567146102ca57806332bc74aa146102e557806332cadf3c14610306575f80fd5b8063174ccd82116101a3578063174ccd821461024057806318160ddd1461025457806323b872dd146102725780632904df2914610291575f80fd5b806306fdde03146101d3578063095ea7b3146101fd5780631164d13b1461022c575f80fd5b366101cf57005b5f80fd5b3480156101de575f80fd5b506101e761056d565b6040516101f4919061114f565b60405180910390f35b348015610208575f80fd5b5061021c610217366004611183565b6105fd565b60405190151581526020016101f4565b348015610237575f80fd5b506101e7610616565b34801561024b575f80fd5b506101e7610625565b34801561025f575f80fd5b506002545b6040519081526020016101f4565b34801561027d575f80fd5b5061021c61028c3660046111ab565b61062f565b34801561029c575f80fd5b506040513381526020016101f4565b3480156102b6575f80fd5b506102646102c53660046111e4565b610652565b3480156102d5575f80fd5b50604051601281526020016101f4565b3480156102f0575f80fd5b506103046102ff3660046111fd565b6106b2565b005b348015610311575f80fd5b506101e76106c4565b348015610325575f80fd5b506102646e1a185c991a185d0b595e1c1bdcd959608a1b81565b34801561034a575f80fd5b50610264610701565b34801561035e575f80fd5b5061026461036d36600461124d565b61070a565b34801561037d575f80fd5b505f610264565b34801561038f575f80fd5b5061030461039e3660046111ab565b610714565b3480156103ae575f80fd5b506103046103bd366004611183565b610724565b3480156103cd575f80fd5b506102646103dc3660046111e4565b6001600160a01b03165f9081526020819052604090205490565b348015610401575f80fd5b506102646104103660046111e4565b610732565b348015610420575f80fd5b5061042961074f565b6040516101f49796959493929190611264565b348015610447575f80fd5b506103046104563660046111ab565b610791565b348015610466575f80fd5b506101e761079c565b34801561047a575f80fd5b5061021c610489366004611183565b6107ab565b348015610499575f80fd5b506103046104a83660046111ab565b6107b8565b3480156104b8575f80fd5b506103046104c7366004611183565b6107c3565b3480156104d7575f80fd5b506103046104e63660046112fb565b6107cd565b3480156104f6575f80fd5b50610264610505366004611368565b6001600160a01b039182165f90815260016020908152604080832093909416825291909152205490565b34801561053a575f80fd5b50610304610549366004611183565b610908565b348015610559575f80fd5b506103046105683660046111ab565b610912565b60606003805461057c90611399565b80601f01602080910402602001604051908101604052809291908181526020018280546105a890611399565b80156105f35780601f106105ca576101008083540402835291602001916105f3565b820191905f5260205f20905b8154815290600101906020018083116105d657829003601f168201915b5050505050905090565b5f3361060a81858561091d565b60019150505b92915050565b606061062061092a565b905090565b6060610620610957565b5f3361063c858285610984565b6106478585856109fa565b506001949350505050565b6001600160a01b0381165f90815260076020526040812080546001810190915590507f8d5c13b1cd528a3e1895fdc833368c4e3af5391250c736a28e94c4fa59b3cee4816040516106a591815260200190565b60405180910390a1919050565b6106be84848484610a4c565b50505050565b60605f368080601f0160208091040260200160405190810160405280939291908181526020018383808284375f9201919091525092949350505050565b5f610620610b1e565b5f61061082610c47565b61071f838383610c73565b505050565b61072e8282610d99565b5050565b6001600160a01b0381165f90815260076020526040812054610610565b5f6060805f805f606061076061092a565b610768610957565b604080515f80825260208201909252600f60f81b9b939a50919850469750309650945092509050565b61071f83838361091d565b60606004805461057c90611399565b5f3361060a8185856109fa565b61071f838383610984565b61072e8282610deb565b834211156107f65760405163313c898160e11b8152600481018590526024015b60405180910390fd5b5f7f6e71edae12b1b97f4d1f60370fef10105fa2faae0126114a169c64845d6126c98888886108418c6001600160a01b03165f90815260076020526040902080546001810190915590565b6040805160208101969096526001600160a01b0394851690860152929091166060840152608083015260a082015260c0810186905260e0016040516020818303038152906040528051906020012090505f61089b82610c47565b90505f6108aa82878787610e1f565b9050896001600160a01b0316816001600160a01b0316146108f1576040516325c0072360e11b81526001600160a01b0380831660048301528b1660248201526044016107ed565b6108fc8a8a8a61091d565b50505050505050505050565b61072e8282610e4b565b61071f8383836109fa565b61071f8383836001610a4c565b60606106207f00000000000000000000000000000000000000000000000000000000000000006005610e7f565b60606106207f00000000000000000000000000000000000000000000000000000000000000006006610e7f565b6001600160a01b038381165f908152600160209081526040808320938616835292905220545f198110156106be57818110156109ec57604051637dc7a0d960e11b81526001600160a01b038416600482015260248101829052604481018390526064016107ed565b6106be84848484035f610a4c565b6001600160a01b038316610a2357604051634b637e8f60e11b81525f60048201526024016107ed565b6001600160a01b0382166107145760405163ec442f0560e01b81525f60048201526024016107ed565b6001600160a01b038416610a755760405163e602df0560e01b81525f60048201526024016107ed565b6001600160a01b038316610a9e57604051634a1406b160e11b81525f60048201526024016107ed565b6001600160a01b038085165f90815260016020908152604080832093871683529290522082905580156106be57826001600160a01b0316846001600160a01b03167f8c5be1e5ebec7d5bd14f71427d1e84f3dd0314c0f7b2291e5b200ac8c7c3b92584604051610b1091815260200190565b60405180910390a350505050565b5f306001600160a01b037f000000000000000000000000000000000000000000000000000000000000000016148015610b7657507f000000000000000000000000000000000000000000000000000000000000000046145b15610ba057507f000000000000000000000000000000000000000000000000000000000000000090565b610620604080517f8b73c3c69bb8fe3d512ecc4cf759cc79239f7b179b0ffacaa9a75d522b39400f60208201527f0000000000000000000000000000000000000000000000000000000000000000918101919091527f000000000000000000000000000000000000000000000000000000000000000060608201524660808201523060a08201525f9060c00160405160208183030381529060405280519060200120905090565b5f610610610c53610b1e565b8360405161190160f01b8152600281019290925260228201526042902090565b6001600160a01b038316610c9d578060025f828254610c9291906113d1565b90915550610d0d9050565b6001600160a01b0383165f9081526020819052604090205481811015610cef5760405163391434e360e21b81526001600160a01b038516600482015260248101829052604481018390526064016107ed565b6001600160a01b0384165f9081526020819052604090209082900390555b6001600160a01b038216610d2957600280548290039055610d47565b6001600160a01b0382165f9081526020819052604090208054820190555b816001600160a01b0316836001600160a01b03167fddf252ad1be2c89b69c2b068fc378daa952ba7f163c4a11628f55a4df523b3ef83604051610d8c91815260200190565b60405180910390a3505050565b6001600160a01b0382165f90815260076020526040902080546001810190915581811461071f576040516301d4b62360e61b81526001600160a01b0384166004820152602481018290526044016107ed565b6001600160a01b038216610e145760405163ec442f0560e01b81525f60048201526024016107ed565b61072e5f8383610c73565b5f805f80610e2f88888888610f28565b925092509250610e3f8282610ff0565b50909695505050505050565b6001600160a01b038216610e7457604051634b637e8f60e11b81525f60048201526024016107ed565b61072e825f83610c73565b606060ff8314610e9957610e92836110a8565b9050610610565b818054610ea590611399565b80601f0160208091040260200160405190810160405280929190818152602001828054610ed190611399565b8015610f1c5780601f10610ef357610100808354040283529160200191610f1c565b820191905f5260205f20905b815481529060010190602001808311610eff57829003601f168201915b50505050509050610610565b5f80807f7fffffffffffffffffffffffffffffff5d576e7357a4501ddfe92f46681b20a0841115610f6157505f91506003905082610fe6565b604080515f808252602082018084528a905260ff891692820192909252606081018790526080810186905260019060a0016020604051602081039080840390855afa158015610fb2573d5f803e3d5ffd5b5050604051601f1901519150506001600160a01b038116610fdd57505f925060019150829050610fe6565b92505f91508190505b9450945094915050565b5f826003811115611003576110036113f0565b0361100c575050565b6001826003811115611020576110206113f0565b0361103e5760405163f645eedf60e01b815260040160405180910390fd5b6002826003811115611052576110526113f0565b036110735760405163fce698f760e01b8152600481018290526024016107ed565b6003826003811115611087576110876113f0565b0361072e576040516335e2f38360e21b8152600481018290526024016107ed565b60605f6110b4836110e5565b6040805160208082528183019092529192505f91906020820181803683375050509182525060208101929092525090565b5f60ff8216601f81111561061057604051632cd44ac360e21b815260040160405180910390fd5b5f81518084525f5b8181101561113057602081850181015186830182015201611114565b505f602082860101526020601f19601f83011685010191505092915050565b602081525f611161602083018461110c565b9392505050565b80356001600160a01b038116811461117e575f80fd5b919050565b5f8060408385031215611194575f80fd5b61119d83611168565b946020939093013593505050565b5f805f606084860312156111bd575f80fd5b6111c684611168565b92506111d460208501611168565b9150604084013590509250925092565b5f602082840312156111f4575f80fd5b61116182611168565b5f805f8060808587031215611210575f80fd5b61121985611168565b935061122760208601611168565b92506040850135915060608501358015158114611242575f80fd5b939692955090935050565b5f6020828403121561125d575f80fd5b5035919050565b60ff60f81b881681525f602060e0602084015261128460e084018a61110c565b8381036040850152611296818a61110c565b606085018990526001600160a01b038816608086015260a0850187905284810360c0860152855180825260208088019350909101905f5b818110156112e9578351835292840192918401916001016112cd565b50909c9b505050505050505050505050565b5f805f805f805f60e0888a031215611311575f80fd5b61131a88611168565b965061132860208901611168565b95506040880135945060608801359350608088013560ff8116811461134b575f80fd5b9699959850939692959460a0840135945060c09093013592915050565b5f8060408385031215611379575f80fd5b61138283611168565b915061139060208401611168565b90509250929050565b600181811c908216806113ad57607f821691505b6020821081036113cb57634e487b7160e01b5f52602260045260245ffd5b50919050565b8082018082111561061057634e487b7160e01b5f52601160045260245ffd5b634e487b7160e01b5f52602160045260245ffdfea2646970667358221220b809ee478487bdcf4f3b6e7027dc2d266e8bfe6e6eb91fe6a86d9e9c7a24770f64736f6c63430008180033",
  "linkReferences": {},
  "deployedLinkReferences": {}
}