{
  "_format": "hh-sol-artifact-1",
  "contractName": "$Implementation1",
  "sourceName": "contracts-exposed/mocks/RegressionImplementation.sol",
  "abi": [
    {
      "inputs": [],
      "stateMutability": "payable",
      "type": "constructor"
    },
    {
      "inputs": [],
      "name": "InvalidInitialization",
      "type": "error"
    },
    {
      "inputs": [],
      "name": "NotInitializing",
      "type": "error"
    },
    {
      "anonymous": false,
      "inputs": [
        {
          "indexed": false,
          "internalType": "uint64",
          "name": "version",
          "type": "uint64"
        }
      ],
      "name": "Initialized",
      "type": "event"
    },
    {
      "inputs": [],
      "name": "$_checkInitializing",
      "outputs": [],
      "stateMutability": "view",
      "type": "function"
    },
    {
      "inputs": [],
      "name": "$_disableInitializers",
      "outputs": [],
      "stateMutability": "nonpayable",
      "type": "function"
    },
    {
      "inputs": [],
      "name": "$_getInitializedVersion",
      "outputs": [
        {
          "internalType": "uint64",
          "name": "ret0",
          "type": "uint64"
        }
      ],
      "stateMutability": "view",
      "type": "function"
    },
    {
      "inputs": [],
      "name": "$_isInitializing",
      "outputs": [
        {
          "internalType": "bool",
          "name": "ret0",
          "type": "bool"
        }
      ],
      "stateMutability": "view",
      "type": "function"
    },
    {
      "inputs": [],
      "name": "$_value",
      "outputs": [
        {
          "internalType": "uint256",
          "name": "",
          "type": "uint256"
        }
      ],
      "stateMutability": "view",
      "type": "function"
    },
    {
      "inputs": [],
      "name": "__hh_exposed_bytecode_marker",
      "outputs": [
        {
          "internalType": "bytes32",
          "name": "",
          "type": "bytes32"
        }
      ],
      "stateMutability": "view",
      "type": "function"
    },
    {
      "inputs": [],
      "name": "initialize",
      "outputs": [],
      "stateMutability": "nonpayable",
      "type": "function"
    },
    {
      "inputs": [
        {
          "internalType": "uint256",
          "name": "_number",
          "type": "uint256"
        }
      ],
      "name": "setValue",
      "outputs": [],
      "stateMutability": "nonpayable",
      "type": "function"
    },
    {
      "stateMutability": "payable",
      "type": "receive"
    }
  ],
  "bytecode": "0x60806040526103f8806100115f395ff3fe60806040526004361061007c575f3560e01c80638129fc1c1161004c5780638129fc1c1461011f578063c9eb057114610133578063f5f1bec014610168578063fa171c921461017c575f80fd5b8063342db739146100875780634fd5303d146100bf57806355241077146100ec57806377f9d7c01461010c575f80fd5b3661008357005b5f80fd5b348015610092575f80fd5b506100ac6e1a185c991a185d0b595e1c1bdcd959608a1b81565b6040519081526020015b60405180910390f35b3480156100ca575f80fd5b506100d3610190565b60405167ffffffffffffffff90911681526020016100b6565b3480156100f7575f80fd5b5061010a61010636600461038b565b5f55565b005b348015610117575f80fd5b505f546100ac565b34801561012a575f80fd5b5061010a6101b5565b34801561013e575f80fd5b505f805160206103a383398151915254600160401b900460ff1660405190151581526020016100b6565b348015610173575f80fd5b5061010a6102a6565b348015610187575f80fd5b5061010a6102b0565b5f6101b05f805160206103a38339815191525467ffffffffffffffff1690565b905090565b5f805160206103a38339815191528054600160401b810460ff16159067ffffffffffffffff165f811580156101e75750825b90505f8267ffffffffffffffff1660011480156102035750303b155b905081158015610211575080155b1561022f5760405163f92ee8a960e01b815260040160405180910390fd5b845467ffffffffffffffff19166001178555831561025957845460ff60401b1916600160401b1785555b831561029f57845460ff60401b19168555604051600181527fc7f505b2f371ae2175ee4913f4499e1f2633a7b5936321eed1cdaeb6115181d29060200160405180910390a15b5050505050565b6102ae6102b8565b565b6102ae610355565b5f805160206103a38339815191528054600160401b900460ff16156102f05760405163f92ee8a960e01b815260040160405180910390fd5b805467ffffffffffffffff9081161461035257805467ffffffffffffffff191667ffffffffffffffff90811782556040519081527fc7f505b2f371ae2175ee4913f4499e1f2633a7b5936321eed1cdaeb6115181d29060200160405180910390a15b50565b5f805160206103a383398151915254600160401b900460ff166102ae57604051631afcd79f60e31b815260040160405180910390fd5b5f6020828403121561039b575f80fd5b503591905056fef0c57e16840df040f15088dc2f81fe391c3923bec73e23a9662efc9c229c6a00a2646970667358221220c8c2ed95362602913ab4dab06e44303fac139f68d19df9877c67c0d2c67aab5c64736f6c63430008180033",
  "linkReferences": {},
  "deployedLinkReferences": {}
}