{
  "_format": "hh-sol-artifact-1",
  "contractName": "$Implementation2",
  "sourceName": "contracts-exposed/mocks/RegressionImplementation.sol",
  "abi": [
    {
      "inputs": [],
      "stateMutability": "payable",
      "type": "constructor"
    },
    {
      "inputs": [],
      "name": "InvalidInitialization",
      "type": "error"
    },
    {
      "inputs": [],
      "name": "NotInitializing",
      "type": "error"
    },
    {
      "anonymous": false,
      "inputs": [
        {
          "indexed": false,
          "internalType": "uint64",
          "name": "version",
          "type": "uint64"
        }
      ],
      "name": "Initialized",
      "type": "event"
    },
    {
      "inputs": [],
      "name": "$_checkInitializing",
      "outputs": [],
      "stateMutability": "view",
      "type": "function"
    },
    {
      "inputs": [],
      "name": "$_disableInitializers",
      "outputs": [],
      "stateMutability": "nonpayable",
      "type": "function"
    },
    {
      "inputs": [],
      "name": "$_getInitializedVersion",
      "outputs": [
        {
          "internalType": "uint64",
          "name": "ret0",
          "type": "uint64"
        }
      ],
      "stateMutability": "view",
      "type": "function"
    },
    {
      "inputs": [],
      "name": "$_isInitializing",
      "outputs": [
        {
          "internalType": "bool",
          "name": "ret0",
          "type": "bool"
        }
      ],
      "stateMutability": "view",
      "type": "function"
    },
    {
      "inputs": [],
      "name": "$_value",
      "outputs": [
        {
          "internalType": "uint256",
          "name": "",
          "type": "uint256"
        }
      ],
      "stateMutability": "view",
      "type": "function"
    },
    {
      "inputs": [],
      "name": "__hh_exposed_bytecode_marker",
      "outputs": [
        {
          "internalType": "bytes32",
          "name": "",
          "type": "bytes32"
        }
      ],
      "stateMutability": "view",
      "type": "function"
    },
    {
      "inputs": [],
      "name": "getValue",
      "outputs": [
        {
          "internalType": "uint256",
          "name": "",
          "type": "uint256"
        }
      ],
      "stateMutability": "view",
      "type": "function"
    },
    {
      "inputs": [],
      "name": "initialize",
      "outputs": [],
      "stateMutability": "nonpayable",
      "type": "function"
    },
    {
      "inputs": [
        {
          "internalType": "uint256",
          "name": "_number",
          "type": "uint256"
        }
      ],
      "name": "setValue",
      "outputs": [],
      "stateMutability": "nonpayable",
      "type": "function"
    },
    {
      "stateMutability": "payable",
      "type": "receive"
    }
  ],
  "bytecode": "0x60806040526103ff806100115f395ff3fe608060405260043610610087575f3560e01c806377f9d7c01161005757806377f9d7c0146100925780638129fc1c14610126578063c9eb05711461013a578063f5f1bec01461016f578063fa171c9214610183575f80fd5b80632096525514610092578063342db739146100b45780634fd5303d146100d95780635524107714610106575f80fd5b3661008e57005b5f80fd5b34801561009d575f80fd5b505f545b6040519081526020015b60405180910390f35b3480156100bf575f80fd5b506100a16e1a185c991a185d0b595e1c1bdcd959608a1b81565b3480156100e4575f80fd5b506100ed610197565b60405167ffffffffffffffff90911681526020016100ab565b348015610111575f80fd5b50610124610120366004610392565b5f55565b005b348015610131575f80fd5b506101246101bc565b348015610145575f80fd5b505f805160206103aa83398151915254600160401b900460ff1660405190151581526020016100ab565b34801561017a575f80fd5b506101246102ad565b34801561018e575f80fd5b506101246102b7565b5f6101b75f805160206103aa8339815191525467ffffffffffffffff1690565b905090565b5f805160206103aa8339815191528054600160401b810460ff16159067ffffffffffffffff165f811580156101ee5750825b90505f8267ffffffffffffffff16600114801561020a5750303b155b905081158015610218575080155b156102365760405163f92ee8a960e01b815260040160405180910390fd5b845467ffffffffffffffff19166001178555831561026057845460ff60401b1916600160401b1785555b83156102a657845460ff60401b19168555604051600181527fc7f505b2f371ae2175ee4913f4499e1f2633a7b5936321eed1cdaeb6115181d29060200160405180910390a15b5050505050565b6102b56102bf565b565b6102b561035c565b5f805160206103aa8339815191528054600160401b900460ff16156102f75760405163f92ee8a960e01b815260040160405180910390fd5b805467ffffffffffffffff9081161461035957805467ffffffffffffffff191667ffffffffffffffff90811782556040519081527fc7f505b2f371ae2175ee4913f4499e1f2633a7b5936321eed1cdaeb6115181d29060200160405180910390a15b50565b5f805160206103aa83398151915254600160401b900460ff166102b557604051631afcd79f60e31b815260040160405180910390fd5b5f602082840312156103a2575f80fd5b503591905056fef0c57e16840df040f15088dc2f81fe391c3923bec73e23a9662efc9c229c6a00a2646970667358221220e2f0224515b5c1740f2a06bb32171c42119a6eff3d8fc28a7d6179407e76026c64736f6c63430008180033",
  "linkReferences": {},
  "deployedLinkReferences": {}
}