{
  "_format": "hh-sol-artifact-1",
  "contractName": "$Implementation3",
  "sourceName": "contracts-exposed/mocks/RegressionImplementation.sol",
  "abi": [
    {
      "inputs": [],
      "stateMutability": "payable",
      "type": "constructor"
    },
    {
      "inputs": [],
      "name": "InvalidInitialization",
      "type": "error"
    },
    {
      "inputs": [],
      "name": "NotInitializing",
      "type": "error"
    },
    {
      "anonymous": false,
      "inputs": [
        {
          "indexed": false,
          "internalType": "uint64",
          "name": "version",
          "type": "uint64"
        }
      ],
      "name": "Initialized",
      "type": "event"
    },
    {
      "inputs": [],
      "name": "$_checkInitializing",
      "outputs": [],
      "stateMutability": "view",
      "type": "function"
    },
    {
      "inputs": [],
      "name": "$_disableInitializers",
      "outputs": [],
      "stateMutability": "nonpayable",
      "type": "function"
    },
    {
      "inputs": [],
      "name": "$_getInitializedVersion",
      "outputs": [
        {
          "internalType": "uint64",
          "name": "ret0",
          "type": "uint64"
        }
      ],
      "stateMutability": "view",
      "type": "function"
    },
    {
      "inputs": [],
      "name": "$_isInitializing",
      "outputs": [
        {
          "internalType": "bool",
          "name": "ret0",
          "type": "bool"
        }
      ],
      "stateMutability": "view",
      "type": "function"
    },
    {
      "inputs": [],
      "name": "$_value",
      "outputs": [
        {
          "internalType": "uint256",
          "name": "",
          "type": "uint256"
        }
      ],
      "stateMutability": "view",
      "type": "function"
    },
    {
      "inputs": [],
      "name": "__hh_exposed_bytecode_marker",
      "outputs": [
        {
          "internalType": "bytes32",
          "name": "",
          "type": "bytes32"
        }
      ],
      "stateMutability": "view",
      "type": "function"
    },
    {
      "inputs": [
        {
          "internalType": "uint256",
          "name": "_number",
          "type": "uint256"
        }
      ],
      "name": "getValue",
      "outputs": [
        {
          "internalType": "uint256",
          "name": "",
          "type": "uint256"
        }
      ],
      "stateMutability": "view",
      "type": "function"
    },
    {
      "inputs": [],
      "name": "initialize",
      "outputs": [],
      "stateMutability": "nonpayable",
      "type": "function"
    },
    {
      "inputs": [
        {
          "internalType": "uint256",
          "name": "_number",
          "type": "uint256"
        }
      ],
      "name": "setValue",
      "outputs": [],
      "stateMutability": "nonpayable",
      "type": "function"
    },
    {
      "stateMutability": "payable",
      "type": "receive"
    }
  ],
  "bytecode": "0x6080604052610455806100115f395ff3fe608060405260043610610087575f3560e01c806377f9d7c01161005757806377f9d7c0146101365780638129fc1c14610149578063c9eb05711461015d578063f5f1bec014610192578063fa171c92146101a6575f80fd5b80630ff4c91614610092578063342db739146100c45780634fd5303d146100e95780635524107714610116575f80fd5b3661008e57005b5f80fd5b34801561009d575f80fd5b506100b16100ac3660046103c9565b6101ba565b6040519081526020015b60405180910390f35b3480156100cf575f80fd5b506100b16e1a185c991a185d0b595e1c1bdcd959608a1b81565b3480156100f4575f80fd5b506100fd6101ce565b60405167ffffffffffffffff90911681526020016100bb565b348015610121575f80fd5b506101346101303660046103c9565b5f55565b005b348015610141575f80fd5b505f546100b1565b348015610154575f80fd5b506101346101f3565b348015610168575f80fd5b505f8051602061040083398151915254600160401b900460ff1660405190151581526020016100bb565b34801561019d575f80fd5b506101346102e4565b3480156101b1575f80fd5b506101346102ee565b5f815f546101c891906103e0565b92915050565b5f6101ee5f805160206104008339815191525467ffffffffffffffff1690565b905090565b5f805160206104008339815191528054600160401b810460ff16159067ffffffffffffffff165f811580156102255750825b90505f8267ffffffffffffffff1660011480156102415750303b155b90508115801561024f575080155b1561026d5760405163f92ee8a960e01b815260040160405180910390fd5b845467ffffffffffffffff19166001178555831561029757845460ff60401b1916600160401b1785555b83156102dd57845460ff60401b19168555604051600181527fc7f505b2f371ae2175ee4913f4499e1f2633a7b5936321eed1cdaeb6115181d29060200160405180910390a15b5050505050565b6102ec6102f6565b565b6102ec610393565b5f805160206104008339815191528054600160401b900460ff161561032e5760405163f92ee8a960e01b815260040160405180910390fd5b805467ffffffffffffffff9081161461039057805467ffffffffffffffff191667ffffffffffffffff90811782556040519081527fc7f505b2f371ae2175ee4913f4499e1f2633a7b5936321eed1cdaeb6115181d29060200160405180910390a15b50565b5f8051602061040083398151915254600160401b900460ff166102ec57604051631afcd79f60e31b815260040160405180910390fd5b5f602082840312156103d9575f80fd5b5035919050565b808201808211156101c857634e487b7160e01b5f52601160045260245ffdfef0c57e16840df040f15088dc2f81fe391c3923bec73e23a9662efc9c229c6a00a264697066735822122012f7a1d73fd09bc11b9f69d9515abe9ba0de449764e1cc2ad805663a6caf576464736f6c63430008180033",
  "linkReferences": {},
  "deployedLinkReferences": {}
}