{
  "_format": "hh-sol-artifact-1",
  "contractName": "$Implementation4",
  "sourceName": "contracts-exposed/mocks/RegressionImplementation.sol",
  "abi": [
    {
      "inputs": [],
      "stateMutability": "payable",
      "type": "constructor"
    },
    {
      "inputs": [],
      "name": "InvalidInitialization",
      "type": "error"
    },
    {
      "inputs": [],
      "name": "NotInitializing",
      "type": "error"
    },
    {
      "anonymous": false,
      "inputs": [
        {
          "indexed": false,
          "internalType": "uint64",
          "name": "version",
          "type": "uint64"
        }
      ],
      "name": "Initialized",
      "type": "event"
    },
    {
      "stateMutability": "nonpayable",
      "type": "fallback"
    },
    {
      "inputs": [],
      "name": "$_checkInitializing",
      "outputs": [],
      "stateMutability": "view",
      "type": "function"
    },
    {
      "inputs": [],
      "name": "$_disableInitializers",
      "outputs": [],
      "stateMutability": "nonpayable",
      "type": "function"
    },
    {
      "inputs": [],
      "name": "$_getInitializedVersion",
      "outputs": [
        {
          "internalType": "uint64",
          "name": "ret0",
          "type": "uint64"
        }
      ],
      "stateMutability": "view",
      "type": "function"
    },
    {
      "inputs": [],
      "name": "$_isInitializing",
      "outputs": [
        {
          "internalType": "bool",
          "name": "ret0",
          "type": "bool"
        }
      ],
      "stateMutability": "view",
      "type": "function"
    },
    {
      "inputs": [],
      "name": "$_value",
      "outputs": [
        {
          "internalType": "uint256",
          "name": "",
          "type": "uint256"
        }
      ],
      "stateMutability": "view",
      "type": "function"
    },
    {
      "inputs": [],
      "name": "__hh_exposed_bytecode_marker",
      "outputs": [
        {
          "internalType": "bytes32",
          "name": "",
          "type": "bytes32"
        }
      ],
      "stateMutability": "view",
      "type": "function"
    },
    {
      "inputs": [],
      "name": "getValue",
      "outputs": [
        {
          "internalType": "uint256",
          "name": "",
          "type": "uint256"
        }
      ],
      "stateMutability": "view",
      "type": "function"
    },
    {
      "inputs": [],
      "name": "initialize",
      "outputs": [],
      "stateMutability": "nonpayable",
      "type": "function"
    },
    {
      "inputs": [
        {
          "internalType": "uint256",
          "name": "_number",
          "type": "uint256"
        }
      ],
      "name": "setValue",
      "outputs": [],
      "stateMutability": "nonpayable",
      "type": "function"
    },
    {
      "stateMutability": "payable",
      "type": "receive"
    }
  ],
  "bytecode": "0x6080604052610411806100115f395ff3fe608060405260043610610089575f3560e01c806377f9d7c01161005857806377f9d7c0146100a45780638129fc1c14610138578063c9eb05711461014c578063f5f1bec014610181578063fa171c921461019557610090565b806320965255146100a4578063342db739146100c65780634fd5303d146100eb578063552410771461011857610090565b3661009057005b34801561009b575f80fd5b5060015f819055005b3480156100af575f80fd5b505f545b6040519081526020015b60405180910390f35b3480156100d1575f80fd5b506100b36e1a185c991a185d0b595e1c1bdcd959608a1b81565b3480156100f6575f80fd5b506100ff6101a9565b60405167ffffffffffffffff90911681526020016100bd565b348015610123575f80fd5b506101366101323660046103a4565b5f55565b005b348015610143575f80fd5b506101366101ce565b348015610157575f80fd5b505f805160206103bc83398151915254600160401b900460ff1660405190151581526020016100bd565b34801561018c575f80fd5b506101366102bf565b3480156101a0575f80fd5b506101366102c9565b5f6101c95f805160206103bc8339815191525467ffffffffffffffff1690565b905090565b5f805160206103bc8339815191528054600160401b810460ff16159067ffffffffffffffff165f811580156102005750825b90505f8267ffffffffffffffff16600114801561021c5750303b155b90508115801561022a575080155b156102485760405163f92ee8a960e01b815260040160405180910390fd5b845467ffffffffffffffff19166001178555831561027257845460ff60401b1916600160401b1785555b83156102b857845460ff60401b19168555604051600181527fc7f505b2f371ae2175ee4913f4499e1f2633a7b5936321eed1cdaeb6115181d29060200160405180910390a15b5050505050565b6102c76102d1565b565b6102c761036e565b5f805160206103bc8339815191528054600160401b900460ff16156103095760405163f92ee8a960e01b815260040160405180910390fd5b805467ffffffffffffffff9081161461036b57805467ffffffffffffffff191667ffffffffffffffff90811782556040519081527fc7f505b2f371ae2175ee4913f4499e1f2633a7b5936321eed1cdaeb6115181d29060200160405180910390a15b50565b5f805160206103bc83398151915254600160401b900460ff166102c757604051631afcd79f60e31b815260040160405180910390fd5b5f602082840312156103b4575f80fd5b503591905056fef0c57e16840df040f15088dc2f81fe391c3923bec73e23a9662efc9c229c6a00a26469706673582212207d26cee165c52bda81f2ee6739d03008a720d9dd775780b334c7ecaac86bea0264736f6c63430008180033",
  "linkReferences": {},
  "deployedLinkReferences": {}
}