{
  "_format": "hh-sol-artifact-1",
  "contractName": "$AccessControlModified",
  "sourceName": "contracts-exposed/mocks/docs/access-control/AccessControlModified.sol",
  "abi": [
    {
      "inputs": [],
      "stateMutability": "payable",
      "type": "constructor"
    },
    {
      "inputs": [],
      "name": "AccessControlBadConfirmation",
      "type": "error"
    },
    {
      "inputs": [],
      "name": "AccessControlNonRevokable",
      "type": "error"
    },
    {
      "inputs": [
        {
          "internalType": "address",
          "name": "account",
          "type": "address"
        },
        {
          "internalType": "bytes32",
          "name": "neededRole",
          "type": "bytes32"
        }
      ],
      "name": "AccessControlUnauthorizedAccount",
      "type": "error"
    },
    {
      "anonymous": false,
      "inputs": [
        {
          "indexed": true,
          "internalType": "bytes32",
          "name": "role",
          "type": "bytes32"
        },
        {
          "indexed": true,
          "internalType": "bytes32",
          "name": "previousAdminRole",
          "type": "bytes32"
        },
        {
          "indexed": true,
          "internalType": "bytes32",
          "name": "newAdminRole",
          "type": "bytes32"
        }
      ],
      "name": "RoleAdminChanged",
      "type": "event"
    },
    {
      "anonymous": false,
      "inputs": [
        {
          "indexed": true,
          "internalType": "bytes32",
          "name": "role",
          "type": "bytes32"
        },
        {
          "indexed": true,
          "internalType": "address",
          "name": "account",
          "type": "address"
        },
        {
          "indexed": true,
          "internalType": "address",
          "name": "sender",
          "type": "address"
        }
      ],
      "name": "RoleGranted",
      "type": "event"
    },
    {
      "anonymous": false,
      "inputs": [
        {
          "indexed": true,
          "internalType": "bytes32",
          "name": "role",
          "type": "bytes32"
        },
        {
          "indexed": true,
          "internalType": "address",
          "name": "account",
          "type": "address"
        },
        {
          "indexed": true,
          "internalType": "address",
          "name": "sender",
          "type": "address"
        }
      ],
      "name": "RoleRevoked",
      "type": "event"
    },
    {
      "anonymous": false,
      "inputs": [
        {
          "indexed": false,
          "internalType": "bool",
          "name": "ret0",
          "type": "bool"
        }
      ],
      "name": "return$_grantRole",
      "type": "event"
    },
    {
      "anonymous": false,
      "inputs": [
        {
          "indexed": false,
          "internalType": "bool",
          "name": "ret0",
          "type": "bool"
        }
      ],
      "name": "return$_revokeRole",
      "type": "event"
    },
    {
      "inputs": [
        {
          "internalType": "bytes32",
          "name": "role",
          "type": "bytes32"
        },
        {
          "internalType": "address",
          "name": "account",
          "type": "address"
        }
      ],
      "name": "$_checkRole",
      "outputs": [],
      "stateMutability": "view",
      "type": "function"
    },
    {
      "inputs": [
        {
          "internalType": "bytes32",
          "name": "role",
          "type": "bytes32"
        }
      ],
      "name": "$_checkRole",
      "outputs": [],
      "stateMutability": "view",
      "type": "function"
    },
    {
      "inputs": [],
      "name": "$_contextSuffixLength",
      "outputs": [
        {
          "internalType": "uint256",
          "name": "ret0",
          "type": "uint256"
        }
      ],
      "stateMutability": "view",
      "type": "function"
    },
    {
      "inputs": [
        {
          "internalType": "bytes32",
          "name": "role",
          "type": "bytes32"
        },
        {
          "internalType": "address",
          "name": "account",
          "type": "address"
        }
      ],
      "name": "$_grantRole",
      "outputs": [
        {
          "internalType": "bool",
          "name": "ret0",
          "type": "bool"
        }
      ],
      "stateMutability": "nonpayable",
      "type": "function"
    },
    {
      "inputs": [],
      "name": "$_msgData",
      "outputs": [
        {
          "internalType": "bytes",
          "name": "ret0",
          "type": "bytes"
        }
      ],
      "stateMutability": "view",
      "type": "function"
    },
    {
      "inputs": [],
      "name": "$_msgSender",
      "outputs": [
        {
          "internalType": "address",
          "name": "ret0",
          "type": "address"
        }
      ],
      "stateMutability": "view",
      "type": "function"
    },
    {
      "inputs": [
        {
          "internalType": "bytes32",
          "name": "role",
          "type": "bytes32"
        },
        {
          "internalType": "address",
          "name": "account",
          "type": "address"
        }
      ],
      "name": "$_revokeRole",
      "outputs": [
        {
          "internalType": "bool",
          "name": "ret0",
          "type": "bool"
        }
      ],
      "stateMutability": "nonpayable",
      "type": "function"
    },
    {
      "inputs": [
        {
          "internalType": "bytes32",
          "name": "role",
          "type": "bytes32"
        },
        {
          "internalType": "bytes32",
          "name": "adminRole",
          "type": "bytes32"
        }
      ],
      "name": "$_setRoleAdmin",
      "outputs": [],
      "stateMutability": "nonpayable",
      "type": "function"
    },
    {
      "inputs": [],
      "name": "DEFAULT_ADMIN_ROLE",
      "outputs": [
        {
          "internalType": "bytes32",
          "name": "",
          "type": "bytes32"
        }
      ],
      "stateMutability": "view",
      "type": "function"
    },
    {
      "inputs": [],
      "name": "__hh_exposed_bytecode_marker",
      "outputs": [
        {
          "internalType": "bytes32",
          "name": "",
          "type": "bytes32"
        }
      ],
      "stateMutability": "view",
      "type": "function"
    },
    {
      "inputs": [
        {
          "internalType": "bytes32",
          "name": "role",
          "type": "bytes32"
        }
      ],
      "name": "getRoleAdmin",
      "outputs": [
        {
          "internalType": "bytes32",
          "name": "",
          "type": "bytes32"
        }
      ],
      "stateMutability": "view",
      "type": "function"
    },
    {
      "inputs": [
        {
          "internalType": "bytes32",
          "name": "role",
          "type": "bytes32"
        },
        {
          "internalType": "address",
          "name": "account",
          "type": "address"
        }
      ],
      "name": "grantRole",
      "outputs": [],
      "stateMutability": "nonpayable",
      "type": "function"
    },
    {
      "inputs": [
        {
          "internalType": "bytes32",
          "name": "role",
          "type": "bytes32"
        },
        {
          "internalType": "address",
          "name": "account",
          "type": "address"
        }
      ],
      "name": "hasRole",
      "outputs": [
        {
          "internalType": "bool",
          "name": "",
          "type": "bool"
        }
      ],
      "stateMutability": "view",
      "type": "function"
    },
    {
      "inputs": [
        {
          "internalType": "bytes32",
          "name": "role",
          "type": "bytes32"
        },
        {
          "internalType": "address",
          "name": "callerConfirmation",
          "type": "address"
        }
      ],
      "name": "renounceRole",
      "outputs": [],
      "stateMutability": "nonpayable",
      "type": "function"
    },
    {
      "inputs": [
        {
          "internalType": "bytes32",
          "name": "",
          "type": "bytes32"
        },
        {
          "internalType": "address",
          "name": "",
          "type": "address"
        }
      ],
      "name": "revokeRole",
      "outputs": [],
      "stateMutability": "pure",
      "type": "function"
    },
    {
      "inputs": [
        {
          "internalType": "bytes4",
          "name": "interfaceId",
          "type": "bytes4"
        }
      ],
      "name": "supportsInterface",
      "outputs": [
        {
          "internalType": "bool",
          "name": "",
          "type": "bool"
        }
      ],
      "stateMutability": "view",
      "type": "function"
    },
    {
      "stateMutability": "payable",
      "type": "receive"
    }
  ],
  "bytecode": "0x608060405261077c806100115f395ff3fe6080604052600436106100f2575f3560e01c806341b45f711161008757806398dd54c11161005757806398dd54c11461029b578063a217fddf146102ba578063d547741f146102cd578063d7bdcee9146102ec575f80fd5b806341b45f711461022c5780634286d2f11461024b57806367354a841461026a57806391d148541461027c575f80fd5b80632f2ff15d116100c25780632f2ff15d146101a657806332cadf3c146101c7578063342db739146101e857806336568abe1461020d575f80fd5b806301ffc9a7146100fd578063248a9ca314610131578063270db8741461016d5780632904df291461018c575f80fd5b366100f957005b5f80fd5b348015610108575f80fd5b5061011c61011736600461065c565b61030b565b60405190151581526020015b60405180910390f35b34801561013c575f80fd5b5061015f61014b36600461068a565b5f9081526020819052604090206001015490565b604051908152602001610128565b348015610178575f80fd5b5061011c6101873660046106a1565b610341565b348015610197575f80fd5b50604051338152602001610128565b3480156101b1575f80fd5b506101c56101c03660046106a1565b61038f565b005b3480156101d2575f80fd5b506101db6103b9565b60405161012891906106da565b3480156101f3575f80fd5b5061015f6e1a185c991a185d0b595e1c1bdcd959608a1b81565b348015610218575f80fd5b506101c56102273660046106a1565b6103f6565b348015610237575f80fd5b506101c56102463660046106a1565b61042e565b348015610256575f80fd5b5061011c6102653660046106a1565b61043c565b348015610275575f80fd5b505f61015f565b348015610287575f80fd5b5061011c6102963660046106a1565b61047c565b3480156102a6575f80fd5b506101c56102b536600461068a565b6104a4565b3480156102c5575f80fd5b5061015f5f81565b3480156102d8575f80fd5b506101c56102e73660046106a1565b6104b0565b3480156102f7575f80fd5b506101c5610306366004610726565b6104c9565b5f6001600160e01b03198216637965db0b60e01b148061033b57506301ffc9a760e01b6001600160e01b03198316145b92915050565b5f61034c83836104d3565b90507f370ef10a740e8e7931c19225ec88cd0e2e6bd52365a53489c401385c5582873381604051610381911515815260200190565b60405180910390a192915050565b5f828152602081905260409020600101546103a981610562565b6103b383836104d3565b50505050565b60605f368080601f0160208091040260200160405190810160405280939291908181526020018383808284375f9201919091525092949350505050565b6001600160a01b038116331461041f5760405163334bd91960e11b815260040160405180910390fd5b610429828261056c565b505050565b61043882826105d5565b5050565b5f610447838361056c565b90507fe404ca92845347e354d44ac6f2449eba6681424c1f6f1d34173ac2f49c6996b381604051610381911515815260200190565b5f918252602082815260408084206001600160a01b0393909316845291905290205460ff1690565b6104ad81610562565b50565b604051630b3f336d60e31b815260040160405180910390fd5b6104388282610612565b5f6104de838361047c565b61055b575f838152602081815260408083206001600160a01b03861684529091529020805460ff191660011790556105133390565b6001600160a01b0316826001600160a01b0316847f2f8788117e7eff1d82e926ec794901d17c78024a50270940304540a733656f0d60405160405180910390a450600161033b565b505f61033b565b6104ad81336105d5565b5f610577838361047c565b1561055b575f838152602081815260408083206001600160a01b0386168085529252808320805460ff1916905551339286917ff6391f5c32d9c69d2a47ea670b442974b53935d1edc7fd64eb21e047a839171b9190a450600161033b565b6105df828261047c565b6104385760405163e2517d3f60e01b81526001600160a01b03821660048201526024810183905260440160405180910390fd5b5f82815260208190526040808220600101805490849055905190918391839186917fbd79b86ffe0ab8e8776151514217cd7cacd52c909f66475c3af44e129f0b00ff9190a4505050565b5f6020828403121561066c575f80fd5b81356001600160e01b031981168114610683575f80fd5b9392505050565b5f6020828403121561069a575f80fd5b5035919050565b5f80604083850312156106b2575f80fd5b8235915060208301356001600160a01b03811681146106cf575f80fd5b809150509250929050565b5f602080835283518060208501525f5b81811015610706578581018301518582016040015282016106ea565b505f604082860101526040601f19601f8301168501019250505092915050565b5f8060408385031215610737575f80fd5b5050803592602090910135915056fea26469706673582212209ddd5dee440ff1bc893eb54302196695733a27cdd8b36b17222c385f8b88807864736f6c63430008180033",
  "linkReferences": {},
  "deployedLinkReferences": {}
}