{
  "_format": "hh-sol-artifact-1",
  "contractName": "BabylonianTest",
  "sourceName": "contracts/lib/contracts/test/BabylonianTest.sol",
  "abi": [
    {
      "inputs": [
        {
          "internalType": "uint256",
          "name": "num",
          "type": "uint256"
        }
      ],
      "name": "getGasCostOfSqrt",
      "outputs": [
        {
          "internalType": "uint256",
          "name": "",
          "type": "uint256"
        }
      ],
      "stateMutability": "view",
      "type": "function"
    },
    {
      "inputs": [
        {
          "internalType": "uint256",
          "name": "num",
          "type": "uint256"
        }
      ],
      "name": "sqrt",
      "outputs": [
        {
          "internalType": "uint256",
          "name": "",
          "type": "uint256"
        }
      ],
      "stateMutability": "pure",
      "type": "function"
    }
  ],
  "bytecode": "0x608060405234801561001057600080fd5b5061023c806100206000396000f3fe608060405234801561001057600080fd5b50600436106100365760003560e01c8063677342ce1461003b578063821f49241461006a575b600080fd5b6100586004803603602081101561005157600080fd5b5035610087565b60408051918252519081900360200190f35b6100586004803603602081101561008057600080fd5b503561009a565b6000610092826100b3565b90505b919050565b6000805a90506100a9836100b3565b505a900392915050565b6000816100c257506000610095565b81600170010000000000000000000000000000000082106100e85760809190911c9060401b5b6801000000000000000082106101035760409190911c9060201b5b640100000000821061011a5760209190911c9060101b5b62010000821061012f5760109190911c9060081b5b61010082106101435760089190911c9060041b5b601082106101565760049190911c9060021b5b600882106101625760011b5b600181858161016d57fe5b048201901c9050600181858161017f57fe5b048201901c9050600181858161019157fe5b048201901c905060018185816101a357fe5b048201901c905060018185816101b557fe5b048201901c905060018185816101c757fe5b048201901c905060018185816101d957fe5b048201901c905060008185816101eb57fe5b0490508082106101fb57806101fd565b815b9594505050505056fea26469706673582212208c55c515e91e7b1b4429fbedf8637607707c17f20e498ed2c2d3e16b0e7e826064736f6c634300060c0033",
  "linkReferences": {},
  "deployedLinkReferences": {}
}