{
  "_format": "hh-sol-artifact-1",
  "contractName": "$ERC721Pausable",
  "sourceName": "contracts-exposed/token/ERC721/extensions/ERC721Pausable.sol",
  "abi": [
    {
      "inputs": [
        {
          "internalType": "string",
          "name": "name_",
          "type": "string"
        },
        {
          "internalType": "string",
          "name": "symbol_",
          "type": "string"
        }
      ],
      "stateMutability": "payable",
      "type": "constructor"
    },
    {
      "inputs": [
        {
          "internalType": "address",
          "name": "sender",
          "type": "address"
        },
        {
          "internalType": "uint256",
          "name": "tokenId",
          "type": "uint256"
        },
        {
          "internalType": "address",
          "name": "owner",
          "type": "address"
        }
      ],
      "name": "ERC721IncorrectOwner",
      "type": "error"
    },
    {
      "inputs": [
        {
          "internalType": "address",
          "name": "operator",
          "type": "address"
        },
        {
          "internalType": "uint256",
          "name": "tokenId",
          "type": "uint256"
        }
      ],
      "name": "ERC721InsufficientApproval",
      "type": "error"
    },
    {
      "inputs": [
        {
          "internalType": "address",
          "name": "approver",
          "type": "address"
        }
      ],
      "name": "ERC721InvalidApprover",
      "type": "error"
    },
    {
      "inputs": [
        {
          "internalType": "address",
          "name": "operator",
          "type": "address"
        }
      ],
      "name": "ERC721InvalidOperator",
      "type": "error"
    },
    {
      "inputs": [
        {
          "internalType": "address",
          "name": "owner",
          "type": "address"
        }
      ],
      "name": "ERC721InvalidOwner",
      "type": "error"
    },
    {
      "inputs": [
        {
          "internalType": "address",
          "name": "receiver",
          "type": "address"
        }
      ],
      "name": "ERC721InvalidReceiver",
      "type": "error"
    },
    {
      "inputs": [
        {
          "internalType": "address",
          "name": "sender",
          "type": "address"
        }
      ],
      "name": "ERC721InvalidSender",
      "type": "error"
    },
    {
      "inputs": [
        {
          "internalType": "uint256",
          "name": "tokenId",
          "type": "uint256"
        }
      ],
      "name": "ERC721NonexistentToken",
      "type": "error"
    },
    {
      "inputs": [],
      "name": "EnforcedPause",
      "type": "error"
    },
    {
      "inputs": [],
      "name": "ExpectedPause",
      "type": "error"
    },
    {
      "anonymous": false,
      "inputs": [
        {
          "indexed": true,
          "internalType": "address",
          "name": "owner",
          "type": "address"
        },
        {
          "indexed": true,
          "internalType": "address",
          "name": "approved",
          "type": "address"
        },
        {
          "indexed": true,
          "internalType": "uint256",
          "name": "tokenId",
          "type": "uint256"
        }
      ],
      "name": "Approval",
      "type": "event"
    },
    {
      "anonymous": false,
      "inputs": [
        {
          "indexed": true,
          "internalType": "address",
          "name": "owner",
          "type": "address"
        },
        {
          "indexed": true,
          "internalType": "address",
          "name": "operator",
          "type": "address"
        },
        {
          "indexed": false,
          "internalType": "bool",
          "name": "approved",
          "type": "bool"
        }
      ],
      "name": "ApprovalForAll",
      "type": "event"
    },
    {
      "anonymous": false,
      "inputs": [
        {
          "indexed": false,
          "internalType": "address",
          "name": "account",
          "type": "address"
        }
      ],
      "name": "Paused",
      "type": "event"
    },
    {
      "anonymous": false,
      "inputs": [
        {
          "indexed": true,
          "internalType": "address",
          "name": "from",
          "type": "address"
        },
        {
          "indexed": true,
          "internalType": "address",
          "name": "to",
          "type": "address"
        },
        {
          "indexed": true,
          "internalType": "uint256",
          "name": "tokenId",
          "type": "uint256"
        }
      ],
      "name": "Transfer",
      "type": "event"
    },
    {
      "anonymous": false,
      "inputs": [
        {
          "indexed": false,
          "internalType": "address",
          "name": "account",
          "type": "address"
        }
      ],
      "name": "Unpaused",
      "type": "event"
    },
    {
      "anonymous": false,
      "inputs": [
        {
          "indexed": false,
          "internalType": "address",
          "name": "ret0",
          "type": "address"
        }
      ],
      "name": "return$_update",
      "type": "event"
    },
    {
      "inputs": [
        {
          "internalType": "address",
          "name": "to",
          "type": "address"
        },
        {
          "internalType": "uint256",
          "name": "tokenId",
          "type": "uint256"
        },
        {
          "internalType": "address",
          "name": "auth",
          "type": "address"
        },
        {
          "internalType": "bool",
          "name": "emitEvent",
          "type": "bool"
        }
      ],
      "name": "$_approve",
      "outputs": [],
      "stateMutability": "nonpayable",
      "type": "function"
    },
    {
      "inputs": [
        {
          "internalType": "address",
          "name": "to",
          "type": "address"
        },
        {
          "internalType": "uint256",
          "name": "tokenId",
          "type": "uint256"
        },
        {
          "internalType": "address",
          "name": "auth",
          "type": "address"
        }
      ],
      "name": "$_approve",
      "outputs": [],
      "stateMutability": "nonpayable",
      "type": "function"
    },
    {
      "inputs": [],
      "name": "$_baseURI",
      "outputs": [
        {
          "internalType": "string",
          "name": "ret0",
          "type": "string"
        }
      ],
      "stateMutability": "view",
      "type": "function"
    },
    {
      "inputs": [
        {
          "internalType": "uint256",
          "name": "tokenId",
          "type": "uint256"
        }
      ],
      "name": "$_burn",
      "outputs": [],
      "stateMutability": "nonpayable",
      "type": "function"
    },
    {
      "inputs": [
        {
          "internalType": "address",
          "name": "owner",
          "type": "address"
        },
        {
          "internalType": "address",
          "name": "spender",
          "type": "address"
        },
        {
          "internalType": "uint256",
          "name": "tokenId",
          "type": "uint256"
        }
      ],
      "name": "$_checkAuthorized",
      "outputs": [],
      "stateMutability": "view",
      "type": "function"
    },
    {
      "inputs": [],
      "name": "$_contextSuffixLength",
      "outputs": [
        {
          "internalType": "uint256",
          "name": "ret0",
          "type": "uint256"
        }
      ],
      "stateMutability": "view",
      "type": "function"
    },
    {
      "inputs": [
        {
          "internalType": "uint256",
          "name": "tokenId",
          "type": "uint256"
        }
      ],
      "name": "$_getApproved",
      "outputs": [
        {
          "internalType": "address",
          "name": "ret0",
          "type": "address"
        }
      ],
      "stateMutability": "view",
      "type": "function"
    },
    {
      "inputs": [
        {
          "internalType": "address",
          "name": "account",
          "type": "address"
        },
        {
          "internalType": "uint128",
          "name": "value",
          "type": "uint128"
        }
      ],
      "name": "$_increaseBalance",
      "outputs": [],
      "stateMutability": "nonpayable",
      "type": "function"
    },
    {
      "inputs": [
        {
          "internalType": "address",
          "name": "owner",
          "type": "address"
        },
        {
          "internalType": "address",
          "name": "spender",
          "type": "address"
        },
        {
          "internalType": "uint256",
          "name": "tokenId",
          "type": "uint256"
        }
      ],
      "name": "$_isAuthorized",
      "outputs": [
        {
          "internalType": "bool",
          "name": "ret0",
          "type": "bool"
        }
      ],
      "stateMutability": "view",
      "type": "function"
    },
    {
      "inputs": [
        {
          "internalType": "address",
          "name": "to",
          "type": "address"
        },
        {
          "internalType": "uint256",
          "name": "tokenId",
          "type": "uint256"
        }
      ],
      "name": "$_mint",
      "outputs": [],
      "stateMutability": "nonpayable",
      "type": "function"
    },
    {
      "inputs": [],
      "name": "$_msgData",
      "outputs": [
        {
          "internalType": "bytes",
          "name": "ret0",
          "type": "bytes"
        }
      ],
      "stateMutability": "view",
      "type": "function"
    },
    {
      "inputs": [],
      "name": "$_msgSender",
      "outputs": [
        {
          "internalType": "address",
          "name": "ret0",
          "type": "address"
        }
      ],
      "stateMutability": "view",
      "type": "function"
    },
    {
      "inputs": [
        {
          "internalType": "uint256",
          "name": "tokenId",
          "type": "uint256"
        }
      ],
      "name": "$_ownerOf",
      "outputs": [
        {
          "internalType": "address",
          "name": "ret0",
          "type": "address"
        }
      ],
      "stateMutability": "view",
      "type": "function"
    },
    {
      "inputs": [],
      "name": "$_pause",
      "outputs": [],
      "stateMutability": "nonpayable",
      "type": "function"
    },
    {
      "inputs": [],
      "name": "$_requireNotPaused",
      "outputs": [],
      "stateMutability": "view",
      "type": "function"
    },
    {
      "inputs": [
        {
          "internalType": "uint256",
          "name": "tokenId",
          "type": "uint256"
        }
      ],
      "name": "$_requireOwned",
      "outputs": [
        {
          "internalType": "address",
          "name": "ret0",
          "type": "address"
        }
      ],
      "stateMutability": "view",
      "type": "function"
    },
    {
      "inputs": [],
      "name": "$_requirePaused",
      "outputs": [],
      "stateMutability": "view",
      "type": "function"
    },
    {
      "inputs": [
        {
          "internalType": "address",
          "name": "to",
          "type": "address"
        },
        {
          "internalType": "uint256",
          "name": "tokenId",
          "type": "uint256"
        },
        {
          "internalType": "bytes",
          "name": "data",
          "type": "bytes"
        }
      ],
      "name": "$_safeMint",
      "outputs": [],
      "stateMutability": "nonpayable",
      "type": "function"
    },
    {
      "inputs": [
        {
          "internalType": "address",
          "name": "to",
          "type": "address"
        },
        {
          "internalType": "uint256",
          "name": "tokenId",
          "type": "uint256"
        }
      ],
      "name": "$_safeMint",
      "outputs": [],
      "stateMutability": "nonpayable",
      "type": "function"
    },
    {
      "inputs": [
        {
          "internalType": "address",
          "name": "from",
          "type": "address"
        },
        {
          "internalType": "address",
          "name": "to",
          "type": "address"
        },
        {
          "internalType": "uint256",
          "name": "tokenId",
          "type": "uint256"
        },
        {
          "internalType": "bytes",
          "name": "data",
          "type": "bytes"
        }
      ],
      "name": "$_safeTransfer",
      "outputs": [],
      "stateMutability": "nonpayable",
      "type": "function"
    },
    {
      "inputs": [
        {
          "internalType": "address",
          "name": "from",
          "type": "address"
        },
        {
          "internalType": "address",
          "name": "to",
          "type": "address"
        },
        {
          "internalType": "uint256",
          "name": "tokenId",
          "type": "uint256"
        }
      ],
      "name": "$_safeTransfer",
      "outputs": [],
      "stateMutability": "nonpayable",
      "type": "function"
    },
    {
      "inputs": [
        {
          "internalType": "address",
          "name": "owner",
          "type": "address"
        },
        {
          "internalType": "address",
          "name": "operator",
          "type": "address"
        },
        {
          "internalType": "bool",
          "name": "approved",
          "type": "bool"
        }
      ],
      "name": "$_setApprovalForAll",
      "outputs": [],
      "stateMutability": "nonpayable",
      "type": "function"
    },
    {
      "inputs": [
        {
          "internalType": "address",
          "name": "from",
          "type": "address"
        },
        {
          "internalType": "address",
          "name": "to",
          "type": "address"
        },
        {
          "internalType": "uint256",
          "name": "tokenId",
          "type": "uint256"
        }
      ],
      "name": "$_transfer",
      "outputs": [],
      "stateMutability": "nonpayable",
      "type": "function"
    },
    {
      "inputs": [],
      "name": "$_unpause",
      "outputs": [],
      "stateMutability": "nonpayable",
      "type": "function"
    },
    {
      "inputs": [
        {
          "internalType": "address",
          "name": "to",
          "type": "address"
        },
        {
          "internalType": "uint256",
          "name": "tokenId",
          "type": "uint256"
        },
        {
          "internalType": "address",
          "name": "auth",
          "type": "address"
        }
      ],
      "name": "$_update",
      "outputs": [
        {
          "internalType": "address",
          "name": "ret0",
          "type": "address"
        }
      ],
      "stateMutability": "nonpayable",
      "type": "function"
    },
    {
      "inputs": [],
      "name": "__hh_exposed_bytecode_marker",
      "outputs": [
        {
          "internalType": "bytes32",
          "name": "",
          "type": "bytes32"
        }
      ],
      "stateMutability": "view",
      "type": "function"
    },
    {
      "inputs": [
        {
          "internalType": "address",
          "name": "to",
          "type": "address"
        },
        {
          "internalType": "uint256",
          "name": "tokenId",
          "type": "uint256"
        }
      ],
      "name": "approve",
      "outputs": [],
      "stateMutability": "nonpayable",
      "type": "function"
    },
    {
      "inputs": [
        {
          "internalType": "address",
          "name": "owner",
          "type": "address"
        }
      ],
      "name": "balanceOf",
      "outputs": [
        {
          "internalType": "uint256",
          "name": "",
          "type": "uint256"
        }
      ],
      "stateMutability": "view",
      "type": "function"
    },
    {
      "inputs": [
        {
          "internalType": "uint256",
          "name": "tokenId",
          "type": "uint256"
        }
      ],
      "name": "getApproved",
      "outputs": [
        {
          "internalType": "address",
          "name": "",
          "type": "address"
        }
      ],
      "stateMutability": "view",
      "type": "function"
    },
    {
      "inputs": [
        {
          "internalType": "address",
          "name": "owner",
          "type": "address"
        },
        {
          "internalType": "address",
          "name": "operator",
          "type": "address"
        }
      ],
      "name": "isApprovedForAll",
      "outputs": [
        {
          "internalType": "bool",
          "name": "",
          "type": "bool"
        }
      ],
      "stateMutability": "view",
      "type": "function"
    },
    {
      "inputs": [],
      "name": "name",
      "outputs": [
        {
          "internalType": "string",
          "name": "",
          "type": "string"
        }
      ],
      "stateMutability": "view",
      "type": "function"
    },
    {
      "inputs": [
        {
          "internalType": "uint256",
          "name": "tokenId",
          "type": "uint256"
        }
      ],
      "name": "ownerOf",
      "outputs": [
        {
          "internalType": "address",
          "name": "",
          "type": "address"
        }
      ],
      "stateMutability": "view",
      "type": "function"
    },
    {
      "inputs": [],
      "name": "paused",
      "outputs": [
        {
          "internalType": "bool",
          "name": "",
          "type": "bool"
        }
      ],
      "stateMutability": "view",
      "type": "function"
    },
    {
      "inputs": [
        {
          "internalType": "address",
          "name": "from",
          "type": "address"
        },
        {
          "internalType": "address",
          "name": "to",
          "type": "address"
        },
        {
          "internalType": "uint256",
          "name": "tokenId",
          "type": "uint256"
        }
      ],
      "name": "safeTransferFrom",
      "outputs": [],
      "stateMutability": "nonpayable",
      "type": "function"
    },
    {
      "inputs": [
        {
          "internalType": "address",
          "name": "from",
          "type": "address"
        },
        {
          "internalType": "address",
          "name": "to",
          "type": "address"
        },
        {
          "internalType": "uint256",
          "name": "tokenId",
          "type": "uint256"
        },
        {
          "internalType": "bytes",
          "name": "data",
          "type": "bytes"
        }
      ],
      "name": "safeTransferFrom",
      "outputs": [],
      "stateMutability": "nonpayable",
      "type": "function"
    },
    {
      "inputs": [
        {
          "internalType": "address",
          "name": "operator",
          "type": "address"
        },
        {
          "internalType": "bool",
          "name": "approved",
          "type": "bool"
        }
      ],
      "name": "setApprovalForAll",
      "outputs": [],
      "stateMutability": "nonpayable",
      "type": "function"
    },
    {
      "inputs": [
        {
          "internalType": "bytes4",
          "name": "interfaceId",
          "type": "bytes4"
        }
      ],
      "name": "supportsInterface",
      "outputs": [
        {
          "internalType": "bool",
          "name": "",
          "type": "bool"
        }
      ],
      "stateMutability": "view",
      "type": "function"
    },
    {
      "inputs": [],
      "name": "symbol",
      "outputs": [
        {
          "internalType": "string",
          "name": "",
          "type": "string"
        }
      ],
      "stateMutability": "view",
      "type": "function"
    },
    {
      "inputs": [
        {
          "internalType": "uint256",
          "name": "tokenId",
          "type": "uint256"
        }
      ],
      "name": "tokenURI",
      "outputs": [
        {
          "internalType": "string",
          "name": "",
          "type": "string"
        }
      ],
      "stateMutability": "view",
      "type": "function"
    },
    {
      "inputs": [
        {
          "internalType": "address",
          "name": "from",
          "type": "address"
        },
        {
          "internalType": "address",
          "name": "to",
          "type": "address"
        },
        {
          "internalType": "uint256",
          "name": "tokenId",
          "type": "uint256"
        }
      ],
      "name": "transferFrom",
      "outputs": [],
      "stateMutability": "nonpayable",
      "type": "function"
    },
    {
      "stateMutability": "payable",
      "type": "receive"
    }
  ],
  "bytecode": "0x608060405260405162001cee38038062001cee83398101604081905262000026916200011b565b81815f6200003583826200020b565b5060016200004482826200020b565b50506006805460ff1916905550620002d7915050565b634e487b7160e01b5f52604160045260245ffd5b5f82601f8301126200007e575f80fd5b81516001600160401b03808211156200009b576200009b6200005a565b604051601f8301601f19908116603f01168101908282118183101715620000c657620000c66200005a565b8160405283815260209250866020858801011115620000e3575f80fd5b5f91505b83821015620001065785820183015181830184015290820190620000e7565b5f602085830101528094505050505092915050565b5f80604083850312156200012d575f80fd5b82516001600160401b038082111562000144575f80fd5b62000152868387016200006e565b9350602085015191508082111562000168575f80fd5b5062000177858286016200006e565b9150509250929050565b600181811c908216806200019657607f821691505b602082108103620001b557634e487b7160e01b5f52602260045260245ffd5b50919050565b601f8211156200020657805f5260205f20601f840160051c81016020851015620001e25750805b601f840160051c820191505b8181101562000203575f8155600101620001ee565b50505b505050565b81516001600160401b038111156200022757620002276200005a565b6200023f8162000238845462000181565b84620001bb565b602080601f83116001811462000275575f84156200025d5750858301515b5f19600386901b1c1916600185901b178555620002cf565b5f85815260208120601f198616915b82811015620002a55788860151825594840194600190910190840162000284565b5085821015620002c357878501515f19600388901b60f8161c191681555b505060018460011b0185555b505050505050565b611a0980620002e55f395ff3fe608060405260043610610236575f3560e01c8063733555ec11610129578063c6707201116100a8578063d84838341161006d578063d848383414610665578063e3cb9a4a14610684578063e985e9c5146106a3578063efb43b07146106c2578063f85810a7146106e1575f80fd5b8063c670720114610465578063c87b56dd146105e9578063cc461d6214610608578063cfeea0d414610627578063d261af5414610646575f80fd5b80639ff2f02d116100ee5780639ff2f02d14610559578063a22cb46514610578578063a2373a8214610597578063b0a1fefa146105b6578063b88d4fde146105ca575f80fd5b8063733555ec146104d45780637a7be036146104f3578063838122411461051257806390104b841461052657806395d89b4114610545575f80fd5b806332cadf3c116101b55780635c975abb1161017a5780635c975abb1461044e5780636352211e1461046557806367354a84146104845780636884d58b1461049657806370a08231146104b5575f80fd5b806332cadf3c146103aa578063342db739146103be5780633451b14d146103f157806342842e0e14610410578063458ee0021461042f575f80fd5b8063161e977d116101fb578063161e977d1461033257806323b872dd146103465780632904df29146103655780632c85c6e21461037757806330f3b0b51461038b575f80fd5b806301ffc9a71461024157806306fdde0314610275578063081812fc14610296578063095ea7b3146102cd578063113efe1a146102ee575f80fd5b3661023d57005b5f80fd5b34801561024c575f80fd5b5061026061025b3660046114a0565b6106f5565b60405190151581526020015b60405180910390f35b348015610280575f80fd5b50610289610746565b60405161026c9190611508565b3480156102a1575f80fd5b506102b56102b036600461151a565b6107d5565b6040516001600160a01b03909116815260200161026c565b3480156102d8575f80fd5b506102ec6102e736600461154c565b6107fc565b005b3480156102f9575f80fd5b506102ec610308366004611574565b6001600160a01b0382165f90815260036020526040902080546001600160801b0383160190555050565b34801561033d575f80fd5b5061028961080b565b348015610351575f80fd5b506102ec6103603660046115b4565b610826565b348015610370575f80fd5b50336102b5565b348015610382575f80fd5b506102ec6108b4565b348015610396575f80fd5b506102ec6103a53660046115fc565b6108be565b3480156103b5575f80fd5b506102896108ca565b3480156103c9575f80fd5b506103e36e1a185c991a185d0b595e1c1bdcd959608a1b81565b60405190815260200161026c565b3480156103fc575f80fd5b506102b561040b36600461151a565b610907565b34801561041b575f80fd5b506102ec61042a3660046115b4565b610923565b34801561043a575f80fd5b506102b561044936600461151a565b610942565b348015610459575f80fd5b5060065460ff16610260565b348015610470575f80fd5b506102b561047f36600461151a565b61095e565b34801561048f575f80fd5b505f6103e3565b3480156104a1575f80fd5b506102ec6104b03660046115b4565b610968565b3480156104c0575f80fd5b506103e36104cf366004611646565b610973565b3480156104df575f80fd5b506102ec6104ee3660046116a4565b6109b8565b3480156104fe575f80fd5b5061026061050d3660046115b4565b610a00565b34801561051d575f80fd5b506102ec610a14565b348015610531575f80fd5b506102ec61054036600461170e565b610a1c565b348015610550575f80fd5b50610289610a27565b348015610564575f80fd5b506102ec610573366004611747565b610a36565b348015610583575f80fd5b506102ec61059236600461179d565b610a76565b3480156105a2575f80fd5b506102ec6105b136600461151a565b610a81565b3480156105c1575f80fd5b506102ec610a8d565b3480156105d5575f80fd5b506102ec6105e43660046117e2565b610a95565b3480156105f4575f80fd5b5061028961060336600461151a565b610aad565b348015610613575f80fd5b506102ec61062236600461154c565b610b1e565b348015610632575f80fd5b506102ec6106413660046118b7565b610b28565b348015610651575f80fd5b506102ec61066036600461154c565b610b33565b348015610670575f80fd5b506102ec61067f3660046115b4565b610b3d565b34801561068f575f80fd5b506102b561069e36600461170e565b610b48565b3480156106ae575f80fd5b506102606106bd3660046118ee565b610b9a565b3480156106cd575f80fd5b506102ec6106dc3660046115b4565b610bc7565b3480156106ec575f80fd5b506102ec610bd2565b5f6001600160e01b031982166380ac58cd60e01b148061072557506001600160e01b03198216635b5e139f60e01b145b8061074057506301ffc9a760e01b6001600160e01b03198316145b92915050565b60605f805461075490611916565b80601f016020809104026020016040519081016040528092919081815260200182805461078090611916565b80156107cb5780601f106107a2576101008083540402835291602001916107cb565b820191905f5260205f20905b8154815290600101906020018083116107ae57829003601f168201915b5050505050905090565b5f6107df82610bda565b505f828152600460205260409020546001600160a01b0316610740565b610807828233610c12565b5050565b606061082160408051602081019091525f815290565b905090565b6001600160a01b03821661085457604051633250574960e11b81525f60048201526024015b60405180910390fd5b5f610860838333610c1f565b9050836001600160a01b0316816001600160a01b0316146108ae576040516364283d7b60e01b81526001600160a01b038086166004830152602482018490528216604482015260640161084b565b50505050565b6108bc610c33565b565b6108ae84848484610c57565b60605f368080601f0160208091040260200160405190810160405280939291908181526020018383808284375f9201919091525092949350505050565b5f818152600460205260408120546001600160a01b0316610740565b61093d83838360405180602001604052805f815250610a95565b505050565b5f818152600260205260408120546001600160a01b0316610740565b5f61074082610bda565b61093d838383610d5b565b5f6001600160a01b03821661099d576040516322718ad960e21b81525f600482015260240161084b565b506001600160a01b03165f9081526003602052604090205490565b6109f985858585858080601f0160208091040260200160405190810160405280939291908181526020018383808284375f92019190915250610dbf92505050565b5050505050565b5f610a0c848484610dca565b949350505050565b6108bc610e2b565b61093d838383610c12565b60606001805461075490611916565b6108ae848484848080601f0160208091040260200160405190810160405280939291908181526020018383808284375f92019190915250610e4e92505050565b610807338383610e65565b610a8a81610f03565b50565b6108bc610f3b565b610aa0848484610826565b6108ae3385858585610f8d565b6060610ab882610bda565b505f610ace60408051602081019091525f815290565b90505f815111610aec5760405180602001604052805f815250610b17565b80610af6846110b4565b604051602001610b0792919061194e565b6040516020818303038152906040525b9392505050565b6108078282611144565b61093d838383610e65565b61080782826111a5565b61093d8383836111be565b5f610b54848484610c1f565b6040516001600160a01b03821681529091507ffc55619107f02333de2d9626fe994a6b9d0734bee4722e17698d6fa1b06c52009060200160405180910390a19392505050565b6001600160a01b039182165f90815260056020908152604080832093909416825291909152205460ff1690565b61093d8383836111d8565b6108bc611285565b5f818152600260205260408120546001600160a01b03168061074057604051637e27328960e01b81526004810184905260240161084b565b61093d8383836001610c57565b5f610c28610c33565b610a0c8484846112c2565b60065460ff16156108bc5760405163d93c066560e01b815260040160405180910390fd5b8080610c6b57506001600160a01b03821615155b15610d2c575f610c7a84610bda565b90506001600160a01b03831615801590610ca65750826001600160a01b0316816001600160a01b031614155b8015610cb95750610cb78184610b9a565b155b15610ce25760405163a9fbf51f60e01b81526001600160a01b038416600482015260240161084b565b8115610d2a5783856001600160a01b0316826001600160a01b03167f8c5be1e5ebec7d5bd14f71427d1e84f3dd0314c0f7b2291e5b200ac8c7c3b92560405160405180910390a45b505b50505f90815260046020526040902080546001600160a01b0319166001600160a01b0392909216919091179055565b610d66838383610dca565b61093d576001600160a01b038316610d9457604051637e27328960e01b81526004810182905260240161084b565b60405163177e802f60e01b81526001600160a01b03831660048201526024810182905260440161084b565b610aa08484846111d8565b5f6001600160a01b03831615801590610a0c5750826001600160a01b0316846001600160a01b03161480610e035750610e038484610b9a565b80610a0c5750505f908152600460205260409020546001600160a01b03908116911614919050565b60065460ff166108bc57604051638dfc202b60e01b815260040160405180910390fd5b610e588383611144565b61093d335f858585610f8d565b6001600160a01b038216610e9757604051630b61174360e31b81526001600160a01b038316600482015260240161084b565b6001600160a01b038381165f81815260056020908152604080832094871680845294825291829020805460ff191686151590811790915591519182527f17307eab39ab6107e8899845ad3d59bd9653f200f220920489ca2b5937696c31910160405180910390a3505050565b5f610f0f5f835f610c1f565b90506001600160a01b03811661080757604051637e27328960e01b81526004810183905260240161084b565b610f43610e2b565b6006805460ff191690557f5db9ee0a495bf2e6ff9c91a7834c1ba4fdd244a5e8aa4e537bd38aeae4b073aa335b6040516001600160a01b03909116815260200160405180910390a1565b6001600160a01b0383163b156109f957604051630a85bd0160e11b81526001600160a01b0384169063150b7a0290610fcf90889088908790879060040161197c565b6020604051808303815f875af1925050508015611009575060408051601f3d908101601f19168201909252611006918101906119b8565b60015b611070573d808015611036576040519150601f19603f3d011682016040523d82523d5f602084013e61103b565b606091505b5080515f0361106857604051633250574960e11b81526001600160a01b038516600482015260240161084b565b805181602001fd5b6001600160e01b03198116630a85bd0160e11b146110ac57604051633250574960e11b81526001600160a01b038516600482015260240161084b565b505050505050565b60605f6110c0836113b4565b60010190505f8167ffffffffffffffff8111156110df576110df6117ce565b6040519080825280601f01601f191660200182016040528015611109576020820181803683370190505b5090508181016020015b5f19016f181899199a1a9b1b9c1cb0b131b232b360811b600a86061a8153600a850494508461111357509392505050565b6001600160a01b03821661116d57604051633250574960e11b81525f600482015260240161084b565b5f61117983835f610c1f565b90506001600160a01b0381161561093d576040516339e3563760e11b81525f600482015260240161084b565b610807828260405180602001604052805f815250610e4e565b61093d83838360405180602001604052805f815250610dbf565b6001600160a01b03821661120157604051633250574960e11b81525f600482015260240161084b565b5f61120d83835f610c1f565b90506001600160a01b03811661123957604051637e27328960e01b81526004810183905260240161084b565b836001600160a01b0316816001600160a01b0316146108ae576040516364283d7b60e01b81526001600160a01b038086166004830152602482018490528216604482015260640161084b565b61128d610c33565b6006805460ff191660011790557f62e78cea01bee320cd4e420270b5ea74000d11b0c9f74754ebdbfc544b05a258610f703390565b5f828152600260205260408120546001600160a01b03908116908316156112ee576112ee818486610d5b565b6001600160a01b03811615611328576113095f855f80610c57565b6001600160a01b0381165f90815260036020526040902080545f190190555b6001600160a01b03851615611356576001600160a01b0385165f908152600360205260409020805460010190555b5f8481526002602052604080822080546001600160a01b0319166001600160a01b0389811691821790925591518793918516917fddf252ad1be2c89b69c2b068fc378daa952ba7f163c4a11628f55a4df523b3ef91a4949350505050565b5f8072184f03e93ff9f4daa797ed6e38ed64bf6a1f0160401b83106113f25772184f03e93ff9f4daa797ed6e38ed64bf6a1f0160401b830492506040015b6d04ee2d6d415b85acef8100000000831061141e576d04ee2d6d415b85acef8100000000830492506020015b662386f26fc10000831061143c57662386f26fc10000830492506010015b6305f5e1008310611454576305f5e100830492506008015b612710831061146857612710830492506004015b6064831061147a576064830492506002015b600a83106107405760010192915050565b6001600160e01b031981168114610a8a575f80fd5b5f602082840312156114b0575f80fd5b8135610b178161148b565b5f5b838110156114d55781810151838201526020016114bd565b50505f910152565b5f81518084526114f48160208601602086016114bb565b601f01601f19169290920160200192915050565b602081525f610b1760208301846114dd565b5f6020828403121561152a575f80fd5b5035919050565b80356001600160a01b0381168114611547575f80fd5b919050565b5f806040838503121561155d575f80fd5b61156683611531565b946020939093013593505050565b5f8060408385031215611585575f80fd5b61158e83611531565b915060208301356001600160801b03811681146115a9575f80fd5b809150509250929050565b5f805f606084860312156115c6575f80fd5b6115cf84611531565b92506115dd60208501611531565b9150604084013590509250925092565b80358015158114611547575f80fd5b5f805f806080858703121561160f575f80fd5b61161885611531565b93506020850135925061162d60408601611531565b915061163b606086016115ed565b905092959194509250565b5f60208284031215611656575f80fd5b610b1782611531565b5f8083601f84011261166f575f80fd5b50813567ffffffffffffffff811115611686575f80fd5b60208301915083602082850101111561169d575f80fd5b9250929050565b5f805f805f608086880312156116b8575f80fd5b6116c186611531565b94506116cf60208701611531565b935060408601359250606086013567ffffffffffffffff8111156116f1575f80fd5b6116fd8882890161165f565b969995985093965092949392505050565b5f805f60608486031215611720575f80fd5b61172984611531565b92506020840135915061173e60408501611531565b90509250925092565b5f805f806060858703121561175a575f80fd5b61176385611531565b935060208501359250604085013567ffffffffffffffff811115611785575f80fd5b6117918782880161165f565b95989497509550505050565b5f80604083850312156117ae575f80fd5b6117b783611531565b91506117c5602084016115ed565b90509250929050565b634e487b7160e01b5f52604160045260245ffd5b5f805f80608085870312156117f5575f80fd5b6117fe85611531565b935061180c60208601611531565b925060408501359150606085013567ffffffffffffffff8082111561182f575f80fd5b818701915087601f830112611842575f80fd5b813581811115611854576118546117ce565b604051601f8201601f19908116603f0116810190838211818310171561187c5761187c6117ce565b816040528281528a6020848701011115611894575f80fd5b826020860160208301375f60208483010152809550505050505092959194509250565b5f805f606084860312156118c9575f80fd5b6118d284611531565b92506118e060208501611531565b915061173e604085016115ed565b5f80604083850312156118ff575f80fd5b61190883611531565b91506117c560208401611531565b600181811c9082168061192a57607f821691505b60208210810361194857634e487b7160e01b5f52602260045260245ffd5b50919050565b5f835161195f8184602088016114bb565b8351908301906119738183602088016114bb565b01949350505050565b6001600160a01b03858116825284166020820152604081018390526080606082018190525f906119ae908301846114dd565b9695505050505050565b5f602082840312156119c8575f80fd5b8151610b178161148b56fea26469706673582212201388bd05c34d06280a2d02548fdd604a2da3949688b9a472a29bcb766a25ae1264736f6c63430008180033",
  "linkReferences": {},
  "deployedLinkReferences": {}
}