{
  "_format": "hh-sol-artifact-1",
  "contractName": "$ERC721Utils",
  "sourceName": "contracts-exposed/token/ERC721/utils/ERC721Utils.sol",
  "abi": [
    {
      "inputs": [],
      "stateMutability": "payable",
      "type": "constructor"
    },
    {
      "inputs": [
        {
          "internalType": "address",
          "name": "receiver",
          "type": "address"
        }
      ],
      "name": "ERC721InvalidReceiver",
      "type": "error"
    },
    {
      "inputs": [
        {
          "internalType": "address",
          "name": "operator",
          "type": "address"
        },
        {
          "internalType": "address",
          "name": "from",
          "type": "address"
        },
        {
          "internalType": "address",
          "name": "to",
          "type": "address"
        },
        {
          "internalType": "uint256",
          "name": "tokenId",
          "type": "uint256"
        },
        {
          "internalType": "bytes",
          "name": "data",
          "type": "bytes"
        }
      ],
      "name": "$checkOnERC721Received",
      "outputs": [],
      "stateMutability": "payable",
      "type": "function"
    },
    {
      "inputs": [],
      "name": "__hh_exposed_bytecode_marker",
      "outputs": [
        {
          "internalType": "bytes32",
          "name": "",
          "type": "bytes32"
        }
      ],
      "stateMutability": "view",
      "type": "function"
    },
    {
      "stateMutability": "payable",
      "type": "receive"
    }
  ],
  "bytecode": "0x608060405261038a806100115f395ff3fe60806040526004361061002b575f3560e01c8063342db73914610036578063556d4cbb1461006d575f80fd5b3661003257005b5f80fd5b348015610041575f80fd5b5061005b6e1a185c991a185d0b595e1c1bdcd959608a1b81565b60405190815260200160405180910390f35b61008061007b366004610212565b610082565b005b6100c48686868686868080601f0160208091040260200160405190810160405280939291908181526020018383808284375f920191909152506100cc92505050565b505050505050565b6001600160a01b0383163b156101f057604051630a85bd0160e11b81526001600160a01b0384169063150b7a029061010e9088908890879087906004016102b7565b6020604051808303815f875af1925050508015610148575060408051601f3d908101601f1916820190925261014591810190610326565b60015b6101b4573d808015610175576040519150601f19603f3d011682016040523d82523d5f602084013e61017a565b606091505b5080515f036101ac57604051633250574960e11b81526001600160a01b03851660048201526024015b60405180910390fd5b805181602001fd5b6001600160e01b03198116630a85bd0160e11b146100c457604051633250574960e11b81526001600160a01b03851660048201526024016101a3565b5050505050565b80356001600160a01b038116811461020d575f80fd5b919050565b5f805f805f8060a08789031215610227575f80fd5b610230876101f7565b955061023e602088016101f7565b945061024c604088016101f7565b935060608701359250608087013567ffffffffffffffff8082111561026f575f80fd5b818901915089601f830112610282575f80fd5b813581811115610290575f80fd5b8a60208285010111156102a1575f80fd5b6020830194508093505050509295509295509295565b5f60018060a01b0380871683526020818716602085015285604085015260806060850152845191508160808501525f5b828110156103035785810182015185820160a0015281016102e7565b50505f60a0828501015260a0601f19601f83011684010191505095945050505050565b5f60208284031215610336575f80fd5b81516001600160e01b03198116811461034d575f80fd5b939250505056fea264697066735822122075ed961f339ef4169a982c55a9f52776530b0edf6d304b362c0cb17a992cd7e764736f6c63430008180033",
  "linkReferences": {},
  "deployedLinkReferences": {}
}