{
  "_format": "hh-sol-artifact-1",
  "contractName": "$ERC20MulticallMock",
  "sourceName": "contracts-exposed/mocks/token/ERC20MulticallMock.sol",
  "abi": [
    {
      "inputs": [
        {
          "internalType": "string",
          "name": "name_",
          "type": "string"
        },
        {
          "internalType": "string",
          "name": "symbol_",
          "type": "string"
        }
      ],
      "stateMutability": "payable",
      "type": "constructor"
    },
    {
      "inputs": [
        {
          "internalType": "address",
          "name": "target",
          "type": "address"
        }
      ],
      "name": "AddressEmptyCode",
      "type": "error"
    },
    {
      "inputs": [
        {
          "internalType": "address",
          "name": "spender",
          "type": "address"
        },
        {
          "internalType": "uint256",
          "name": "allowance",
          "type": "uint256"
        },
        {
          "internalType": "uint256",
          "name": "needed",
          "type": "uint256"
        }
      ],
      "name": "ERC20InsufficientAllowance",
      "type": "error"
    },
    {
      "inputs": [
        {
          "internalType": "address",
          "name": "sender",
          "type": "address"
        },
        {
          "internalType": "uint256",
          "name": "balance",
          "type": "uint256"
        },
        {
          "internalType": "uint256",
          "name": "needed",
          "type": "uint256"
        }
      ],
      "name": "ERC20InsufficientBalance",
      "type": "error"
    },
    {
      "inputs": [
        {
          "internalType": "address",
          "name": "approver",
          "type": "address"
        }
      ],
      "name": "ERC20InvalidApprover",
      "type": "error"
    },
    {
      "inputs": [
        {
          "internalType": "address",
          "name": "receiver",
          "type": "address"
        }
      ],
      "name": "ERC20InvalidReceiver",
      "type": "error"
    },
    {
      "inputs": [
        {
          "internalType": "address",
          "name": "sender",
          "type": "address"
        }
      ],
      "name": "ERC20InvalidSender",
      "type": "error"
    },
    {
      "inputs": [
        {
          "internalType": "address",
          "name": "spender",
          "type": "address"
        }
      ],
      "name": "ERC20InvalidSpender",
      "type": "error"
    },
    {
      "inputs": [],
      "name": "FailedCall",
      "type": "error"
    },
    {
      "anonymous": false,
      "inputs": [
        {
          "indexed": true,
          "internalType": "address",
          "name": "owner",
          "type": "address"
        },
        {
          "indexed": true,
          "internalType": "address",
          "name": "spender",
          "type": "address"
        },
        {
          "indexed": false,
          "internalType": "uint256",
          "name": "value",
          "type": "uint256"
        }
      ],
      "name": "Approval",
      "type": "event"
    },
    {
      "anonymous": false,
      "inputs": [
        {
          "indexed": true,
          "internalType": "address",
          "name": "from",
          "type": "address"
        },
        {
          "indexed": true,
          "internalType": "address",
          "name": "to",
          "type": "address"
        },
        {
          "indexed": false,
          "internalType": "uint256",
          "name": "value",
          "type": "uint256"
        }
      ],
      "name": "Transfer",
      "type": "event"
    },
    {
      "inputs": [
        {
          "internalType": "address",
          "name": "owner",
          "type": "address"
        },
        {
          "internalType": "address",
          "name": "spender",
          "type": "address"
        },
        {
          "internalType": "uint256",
          "name": "value",
          "type": "uint256"
        },
        {
          "internalType": "bool",
          "name": "emitEvent",
          "type": "bool"
        }
      ],
      "name": "$_approve",
      "outputs": [],
      "stateMutability": "nonpayable",
      "type": "function"
    },
    {
      "inputs": [
        {
          "internalType": "address",
          "name": "owner",
          "type": "address"
        },
        {
          "internalType": "address",
          "name": "spender",
          "type": "address"
        },
        {
          "internalType": "uint256",
          "name": "value",
          "type": "uint256"
        }
      ],
      "name": "$_approve",
      "outputs": [],
      "stateMutability": "nonpayable",
      "type": "function"
    },
    {
      "inputs": [
        {
          "internalType": "address",
          "name": "account",
          "type": "address"
        },
        {
          "internalType": "uint256",
          "name": "value",
          "type": "uint256"
        }
      ],
      "name": "$_burn",
      "outputs": [],
      "stateMutability": "nonpayable",
      "type": "function"
    },
    {
      "inputs": [],
      "name": "$_contextSuffixLength",
      "outputs": [
        {
          "internalType": "uint256",
          "name": "ret0",
          "type": "uint256"
        }
      ],
      "stateMutability": "view",
      "type": "function"
    },
    {
      "inputs": [
        {
          "internalType": "address",
          "name": "account",
          "type": "address"
        },
        {
          "internalType": "uint256",
          "name": "value",
          "type": "uint256"
        }
      ],
      "name": "$_mint",
      "outputs": [],
      "stateMutability": "nonpayable",
      "type": "function"
    },
    {
      "inputs": [],
      "name": "$_msgData",
      "outputs": [
        {
          "internalType": "bytes",
          "name": "ret0",
          "type": "bytes"
        }
      ],
      "stateMutability": "view",
      "type": "function"
    },
    {
      "inputs": [],
      "name": "$_msgSender",
      "outputs": [
        {
          "internalType": "address",
          "name": "ret0",
          "type": "address"
        }
      ],
      "stateMutability": "view",
      "type": "function"
    },
    {
      "inputs": [
        {
          "internalType": "address",
          "name": "owner",
          "type": "address"
        },
        {
          "internalType": "address",
          "name": "spender",
          "type": "address"
        },
        {
          "internalType": "uint256",
          "name": "value",
          "type": "uint256"
        }
      ],
      "name": "$_spendAllowance",
      "outputs": [],
      "stateMutability": "nonpayable",
      "type": "function"
    },
    {
      "inputs": [
        {
          "internalType": "address",
          "name": "from",
          "type": "address"
        },
        {
          "internalType": "address",
          "name": "to",
          "type": "address"
        },
        {
          "internalType": "uint256",
          "name": "value",
          "type": "uint256"
        }
      ],
      "name": "$_transfer",
      "outputs": [],
      "stateMutability": "nonpayable",
      "type": "function"
    },
    {
      "inputs": [
        {
          "internalType": "address",
          "name": "from",
          "type": "address"
        },
        {
          "internalType": "address",
          "name": "to",
          "type": "address"
        },
        {
          "internalType": "uint256",
          "name": "value",
          "type": "uint256"
        }
      ],
      "name": "$_update",
      "outputs": [],
      "stateMutability": "nonpayable",
      "type": "function"
    },
    {
      "inputs": [],
      "name": "__hh_exposed_bytecode_marker",
      "outputs": [
        {
          "internalType": "bytes32",
          "name": "",
          "type": "bytes32"
        }
      ],
      "stateMutability": "view",
      "type": "function"
    },
    {
      "inputs": [
        {
          "internalType": "address",
          "name": "owner",
          "type": "address"
        },
        {
          "internalType": "address",
          "name": "spender",
          "type": "address"
        }
      ],
      "name": "allowance",
      "outputs": [
        {
          "internalType": "uint256",
          "name": "",
          "type": "uint256"
        }
      ],
      "stateMutability": "view",
      "type": "function"
    },
    {
      "inputs": [
        {
          "internalType": "address",
          "name": "spender",
          "type": "address"
        },
        {
          "internalType": "uint256",
          "name": "value",
          "type": "uint256"
        }
      ],
      "name": "approve",
      "outputs": [
        {
          "internalType": "bool",
          "name": "",
          "type": "bool"
        }
      ],
      "stateMutability": "nonpayable",
      "type": "function"
    },
    {
      "inputs": [
        {
          "internalType": "address",
          "name": "account",
          "type": "address"
        }
      ],
      "name": "balanceOf",
      "outputs": [
        {
          "internalType": "uint256",
          "name": "",
          "type": "uint256"
        }
      ],
      "stateMutability": "view",
      "type": "function"
    },
    {
      "inputs": [],
      "name": "decimals",
      "outputs": [
        {
          "internalType": "uint8",
          "name": "",
          "type": "uint8"
        }
      ],
      "stateMutability": "view",
      "type": "function"
    },
    {
      "inputs": [
        {
          "internalType": "bytes[]",
          "name": "data",
          "type": "bytes[]"
        }
      ],
      "name": "multicall",
      "outputs": [
        {
          "internalType": "bytes[]",
          "name": "results",
          "type": "bytes[]"
        }
      ],
      "stateMutability": "nonpayable",
      "type": "function"
    },
    {
      "inputs": [],
      "name": "name",
      "outputs": [
        {
          "internalType": "string",
          "name": "",
          "type": "string"
        }
      ],
      "stateMutability": "view",
      "type": "function"
    },
    {
      "inputs": [],
      "name": "symbol",
      "outputs": [
        {
          "internalType": "string",
          "name": "",
          "type": "string"
        }
      ],
      "stateMutability": "view",
      "type": "function"
    },
    {
      "inputs": [],
      "name": "totalSupply",
      "outputs": [
        {
          "internalType": "uint256",
          "name": "",
          "type": "uint256"
        }
      ],
      "stateMutability": "view",
      "type": "function"
    },
    {
      "inputs": [
        {
          "internalType": "address",
          "name": "to",
          "type": "address"
        },
        {
          "internalType": "uint256",
          "name": "value",
          "type": "uint256"
        }
      ],
      "name": "transfer",
      "outputs": [
        {
          "internalType": "bool",
          "name": "",
          "type": "bool"
        }
      ],
      "stateMutability": "nonpayable",
      "type": "function"
    },
    {
      "inputs": [
        {
          "internalType": "address",
          "name": "from",
          "type": "address"
        },
        {
          "internalType": "address",
          "name": "to",
          "type": "address"
        },
        {
          "internalType": "uint256",
          "name": "value",
          "type": "uint256"
        }
      ],
      "name": "transferFrom",
      "outputs": [
        {
          "internalType": "bool",
          "name": "",
          "type": "bool"
        }
      ],
      "stateMutability": "nonpayable",
      "type": "function"
    },
    {
      "stateMutability": "payable",
      "type": "receive"
    }
  ],
  "bytecode": "0x6080604052604051620010fd380380620010fd833981016040819052620000269162000111565b8181600362000036838262000201565b50600462000045828262000201565b5050505050620002cd565b634e487b7160e01b5f52604160045260245ffd5b5f82601f83011262000074575f80fd5b81516001600160401b038082111562000091576200009162000050565b604051601f8301601f19908116603f01168101908282118183101715620000bc57620000bc62000050565b8160405283815260209250866020858801011115620000d9575f80fd5b5f91505b83821015620000fc5785820183015181830184015290820190620000dd565b5f602085830101528094505050505092915050565b5f806040838503121562000123575f80fd5b82516001600160401b03808211156200013a575f80fd5b620001488683870162000064565b935060208501519150808211156200015e575f80fd5b506200016d8582860162000064565b9150509250929050565b600181811c908216806200018c57607f821691505b602082108103620001ab57634e487b7160e01b5f52602260045260245ffd5b50919050565b601f821115620001fc57805f5260205f20601f840160051c81016020851015620001d85750805b601f840160051c820191505b81811015620001f9575f8155600101620001e4565b50505b505050565b81516001600160401b038111156200021d576200021d62000050565b62000235816200022e845462000177565b84620001b1565b602080601f8311600181146200026b575f8415620002535750858301515b5f19600386901b1c1916600185901b178555620002c5565b5f85815260208120601f198616915b828110156200029b578886015182559484019460019091019084016200027a565b5085821015620002b957878501515f19600388901b60f8161c191681555b505060018460011b0185555b505050505050565b610e2280620002db5f395ff3fe608060405260043610610129575f3560e01c80636855a178116100a8578063ac9650d81161006d578063ac9650d814610310578063b2331d7d1461033c578063cc461d621461035b578063dd62ed3e1461037a578063e047838d146103be578063efb43b07146103dd575f80fd5b80636855a1781461026b57806370a082311461028a578063861e3d3d146102be57806395d89b41146102dd578063a9059cbb146102f1575f80fd5b8063313ce567116100ee578063313ce567146101e457806332bc74aa146101ff57806332cadf3c14610220578063342db7391461023457806367354a8414610259575f80fd5b806306fdde0314610134578063095ea7b31461015e57806318160ddd1461018d57806323b872dd146101ab5780632904df29146101ca575f80fd5b3661013057005b5f80fd5b34801561013f575f80fd5b506101486103fc565b6040516101559190610ae2565b60405180910390f35b348015610169575f80fd5b5061017d610178366004610b0f565b61048c565b6040519015158152602001610155565b348015610198575f80fd5b506002545b604051908152602001610155565b3480156101b6575f80fd5b5061017d6101c5366004610b37565b6104a5565b3480156101d5575f80fd5b50604051338152602001610155565b3480156101ef575f80fd5b5060405160128152602001610155565b34801561020a575f80fd5b5061021e610219366004610b70565b6104ca565b005b34801561022b575f80fd5b506101486104dc565b34801561023f575f80fd5b5061019d6e1a185c991a185d0b595e1c1bdcd959608a1b81565b348015610264575f80fd5b505f61019d565b348015610276575f80fd5b5061021e610285366004610b37565b610519565b348015610295575f80fd5b5061019d6102a4366004610bc0565b6001600160a01b03165f9081526020819052604090205490565b3480156102c9575f80fd5b5061021e6102d8366004610b37565b610529565b3480156102e8575f80fd5b50610148610534565b3480156102fc575f80fd5b5061017d61030b366004610b0f565b610543565b34801561031b575f80fd5b5061032f61032a366004610bd9565b610550565b6040516101559190610c48565b348015610347575f80fd5b5061021e610356366004610b37565b610636565b348015610366575f80fd5b5061021e610375366004610b0f565b610641565b348015610385575f80fd5b5061019d610394366004610caa565b6001600160a01b039182165f90815260016020908152604080832093909416825291909152205490565b3480156103c9575f80fd5b5061021e6103d8366004610b0f565b61064f565b3480156103e8575f80fd5b5061021e6103f7366004610b37565b610659565b60606003805461040b90610cdb565b80601f016020809104026020016040519081016040528092919081815260200182805461043790610cdb565b80156104825780601f1061045957610100808354040283529160200191610482565b820191905f5260205f20905b81548152906001019060200180831161046557829003601f168201915b5050505050905090565b5f33610499818585610664565b60019150505b92915050565b5f336104b2858285610671565b6104bd8585856106ec565b60019150505b9392505050565b6104d68484848461073e565b50505050565b60605f368080601f0160208091040260200160405190810160405280939291908181526020018383808284375f9201919091525092949350505050565b610524838383610810565b505050565b610524838383610664565b60606004805461040b90610cdb565b5f336104998185856106ec565b604080515f8152602081019091526060908267ffffffffffffffff81111561057a5761057a610d27565b6040519080825280602002602001820160405280156105ad57816020015b60608152602001906001900390816105985790505b5091505f5b8381101561062e57610609308686848181106105d0576105d0610d3b565b90506020028101906105e29190610d4f565b856040516020016105f593929190610d99565b604051602081830303815290604052610936565b83828151811061061b5761061b610d3b565b60209081029190910101526001016105b2565b505092915050565b610524838383610671565b61064b82826109a8565b5050565b61064b82826109dc565b6105248383836106ec565b610524838383600161073e565b6001600160a01b038381165f908152600160209081526040808320938616835292905220545f198110156104d657818110156106de57604051637dc7a0d960e11b81526001600160a01b038416600482015260248101829052604481018390526064015b60405180910390fd5b6104d684848484035f61073e565b6001600160a01b03831661071557604051634b637e8f60e11b81525f60048201526024016106d5565b6001600160a01b0382166105195760405163ec442f0560e01b81525f60048201526024016106d5565b6001600160a01b0384166107675760405163e602df0560e01b81525f60048201526024016106d5565b6001600160a01b03831661079057604051634a1406b160e11b81525f60048201526024016106d5565b6001600160a01b038085165f90815260016020908152604080832093871683529290522082905580156104d657826001600160a01b0316846001600160a01b03167f8c5be1e5ebec7d5bd14f71427d1e84f3dd0314c0f7b2291e5b200ac8c7c3b9258460405161080291815260200190565b60405180910390a350505050565b6001600160a01b03831661083a578060025f82825461082f9190610dbe565b909155506108aa9050565b6001600160a01b0383165f908152602081905260409020548181101561088c5760405163391434e360e21b81526001600160a01b038516600482015260248101829052604481018390526064016106d5565b6001600160a01b0384165f9081526020819052604090209082900390555b6001600160a01b0382166108c6576002805482900390556108e4565b6001600160a01b0382165f9081526020819052604090208054820190555b816001600160a01b0316836001600160a01b03167fddf252ad1be2c89b69c2b068fc378daa952ba7f163c4a11628f55a4df523b3ef8360405161092991815260200190565b60405180910390a3505050565b60605f80846001600160a01b0316846040516109529190610dd1565b5f60405180830381855af49150503d805f811461098a576040519150601f19603f3d011682016040523d82523d5f602084013e61098f565b606091505b509150915061099f858383610a10565b95945050505050565b6001600160a01b0382166109d15760405163ec442f0560e01b81525f60048201526024016106d5565b61064b5f8383610810565b6001600160a01b038216610a0557604051634b637e8f60e11b81525f60048201526024016106d5565b61064b825f83610810565b606082610a2557610a2082610a6c565b6104c3565b8151158015610a3c57506001600160a01b0384163b155b15610a6557604051639996b31560e01b81526001600160a01b03851660048201526024016106d5565b50806104c3565b805115610a7c5780518082602001fd5b60405163d6bda27560e01b815260040160405180910390fd5b5f5b83811015610aaf578181015183820152602001610a97565b50505f910152565b5f8151808452610ace816020860160208601610a95565b601f01601f19169290920160200192915050565b602081525f6104c36020830184610ab7565b80356001600160a01b0381168114610b0a575f80fd5b919050565b5f8060408385031215610b20575f80fd5b610b2983610af4565b946020939093013593505050565b5f805f60608486031215610b49575f80fd5b610b5284610af4565b9250610b6060208501610af4565b9150604084013590509250925092565b5f805f8060808587031215610b83575f80fd5b610b8c85610af4565b9350610b9a60208601610af4565b92506040850135915060608501358015158114610bb5575f80fd5b939692955090935050565b5f60208284031215610bd0575f80fd5b6104c382610af4565b5f8060208385031215610bea575f80fd5b823567ffffffffffffffff80821115610c01575f80fd5b818501915085601f830112610c14575f80fd5b813581811115610c22575f80fd5b8660208260051b8501011115610c36575f80fd5b60209290920196919550909350505050565b5f60208083016020845280855180835260408601915060408160051b8701019250602087015f5b82811015610c9d57603f19888603018452610c8b858351610ab7565b94509285019290850190600101610c6f565b5092979650505050505050565b5f8060408385031215610cbb575f80fd5b610cc483610af4565b9150610cd260208401610af4565b90509250929050565b600181811c90821680610cef57607f821691505b602082108103610d0d57634e487b7160e01b5f52602260045260245ffd5b50919050565b634e487b7160e01b5f52601160045260245ffd5b634e487b7160e01b5f52604160045260245ffd5b634e487b7160e01b5f52603260045260245ffd5b5f808335601e19843603018112610d64575f80fd5b83018035915067ffffffffffffffff821115610d7e575f80fd5b602001915036819003821315610d92575f80fd5b9250929050565b828482375f8382015f81528351610db4818360208801610a95565b0195945050505050565b8082018082111561049f5761049f610d13565b5f8251610de2818460208701610a95565b919091019291505056fea264697066735822122048c147c7cb7533115bd79162ea2a17019225baddcaa9de45cb9a46406c14f8a864736f6c63430008180033",
  "linkReferences": {},
  "deployedLinkReferences": {}
}