{
  "_format": "hh-sol-artifact-1",
  "contractName": "$AuthorityUtils",
  "sourceName": "contracts-exposed/access/manager/AuthorityUtils.sol",
  "abi": [
    {
      "inputs": [],
      "stateMutability": "payable",
      "type": "constructor"
    },
    {
      "inputs": [
        {
          "internalType": "address",
          "name": "authority",
          "type": "address"
        },
        {
          "internalType": "address",
          "name": "caller",
          "type": "address"
        },
        {
          "internalType": "address",
          "name": "target",
          "type": "address"
        },
        {
          "internalType": "bytes4",
          "name": "selector",
          "type": "bytes4"
        }
      ],
      "name": "$canCallWithDelay",
      "outputs": [
        {
          "internalType": "bool",
          "name": "immediate",
          "type": "bool"
        },
        {
          "internalType": "uint32",
          "name": "delay",
          "type": "uint32"
        }
      ],
      "stateMutability": "view",
      "type": "function"
    },
    {
      "inputs": [],
      "name": "__hh_exposed_bytecode_marker",
      "outputs": [
        {
          "internalType": "bytes32",
          "name": "",
          "type": "bytes32"
        }
      ],
      "stateMutability": "view",
      "type": "function"
    },
    {
      "stateMutability": "payable",
      "type": "receive"
    }
  ],
  "bytecode": "0x6080604052610314806100115f395ff3fe60806040526004361061002b575f3560e01c8063342db739146100365780634b201aac1461006e575f80fd5b3661003257005b5f80fd5b348015610041575f80fd5b5061005b6e1a185c991a185d0b595e1c1bdcd959608a1b81565b6040519081526020015b60405180910390f35b348015610079575f80fd5b5061008d6100883660046101e7565b6100a9565b60408051921515835263ffffffff909116602083015201610065565b5f806100b7868686866100c4565b9097909650945050505050565b6040516001600160a01b03848116602483015283811660448301526001600160e01b0319831660648301525f9182918291829189169060840160408051601f198184030181529181526020820180516001600160e01b031663b700961360e01b179052516101329190610246565b5f60405180830381855afa9150503d805f811461016a576040519150601f19603f3d011682016040523d82523d5f602084013e61016f565b606091505b509150915081156101c15760408151106101a157808060200190518101906101979190610281565b90945092506101c1565b60208151106101c157808060200190518101906101be91906102be565b93505b505094509492505050565b80356001600160a01b03811681146101e2575f80fd5b919050565b5f805f80608085870312156101fa575f80fd5b610203856101cc565b9350610211602086016101cc565b925061021f604086016101cc565b915060608501356001600160e01b03198116811461023b575f80fd5b939692955090935050565b5f82515f5b81811015610265576020818601810151858301520161024b565b505f920191825250919050565b805180151581146101e2575f80fd5b5f8060408385031215610292575f80fd5b61029b83610272565b9150602083015163ffffffff811681146102b3575f80fd5b809150509250929050565b5f602082840312156102ce575f80fd5b6102d782610272565b939250505056fea264697066735822122081eb4e574fbe068da7e67188259a2dd59ea23e0db105952c46360a2abe295dc264736f6c63430008180033",
  "linkReferences": {},
  "deployedLinkReferences": {}
}