{
  "_format": "hh-sol-artifact-1",
  "contractName": "UUPSUnsupportedProxiableUUID",
  "sourceName": "contracts/mocks/proxy/UUPSUpgradeableMock.sol",
  "abi": [
    {
      "inputs": [
        {
          "internalType": "address",
          "name": "target",
          "type": "address"
        }
      ],
      "name": "AddressEmptyCode",
      "type": "error"
    },
    {
      "inputs": [
        {
          "internalType": "address",
          "name": "implementation",
          "type": "address"
        }
      ],
      "name": "ERC1967InvalidImplementation",
      "type": "error"
    },
    {
      "inputs": [],
      "name": "ERC1967NonPayable",
      "type": "error"
    },
    {
      "inputs": [],
      "name": "FailedCall",
      "type": "error"
    },
    {
      "inputs": [],
      "name": "UUPSUnauthorizedCallContext",
      "type": "error"
    },
    {
      "inputs": [
        {
          "internalType": "bytes32",
          "name": "slot",
          "type": "bytes32"
        }
      ],
      "name": "UUPSUnsupportedProxiableUUID",
      "type": "error"
    },
    {
      "anonymous": false,
      "inputs": [
        {
          "indexed": true,
          "internalType": "address",
          "name": "implementation",
          "type": "address"
        }
      ],
      "name": "Upgraded",
      "type": "event"
    },
    {
      "inputs": [],
      "name": "UPGRADE_INTERFACE_VERSION",
      "outputs": [
        {
          "internalType": "string",
          "name": "",
          "type": "string"
        }
      ],
      "stateMutability": "view",
      "type": "function"
    },
    {
      "inputs": [],
      "name": "current",
      "outputs": [
        {
          "internalType": "uint256",
          "name": "",
          "type": "uint256"
        }
      ],
      "stateMutability": "view",
      "type": "function"
    },
    {
      "inputs": [],
      "name": "increment",
      "outputs": [],
      "stateMutability": "nonpayable",
      "type": "function"
    },
    {
      "inputs": [],
      "name": "proxiableUUID",
      "outputs": [
        {
          "internalType": "bytes32",
          "name": "",
          "type": "bytes32"
        }
      ],
      "stateMutability": "pure",
      "type": "function"
    },
    {
      "inputs": [
        {
          "internalType": "address",
          "name": "newImplementation",
          "type": "address"
        },
        {
          "internalType": "bytes",
          "name": "data",
          "type": "bytes"
        }
      ],
      "name": "upgradeToAndCall",
      "outputs": [],
      "stateMutability": "payable",
      "type": "function"
    }
  ],
  "bytecode": "0x60a060405230608052348015610013575f80fd5b506080516106636100335f395f818161013b015261016401526106635ff3fe608060405260043610610049575f3560e01c80634f1ef2861461004d57806352d1902d146100625780639fa6a6e3146100a3578063ad3cb1cc146100b6578063d09de08a146100f3575b5f80fd5b61006061005b3660046104ba565b610107565b005b34801561006d575f80fd5b507fc7bdf275ab48e354dbabdecbbb74bbfdd6e318310cd733f757b9d79846c9a09a5b6040519081526020015b60405180910390f35b3480156100ae575f80fd5b505f54610090565b3480156100c1575f80fd5b506100e6604051806040016040528060058152602001640352e302e360dc1b81525081565b60405161009a91906105a5565b3480156100fe575f80fd5b5061006061011d565b61010f610130565b61011982826101e9565b5050565b5f80815461012a906105d7565b90915550565b306001600160a01b037f00000000000000000000000000000000000000000000000000000000000000001614806101c957507f00000000000000000000000000000000000000000000000000000000000000006001600160a01b03166101bd7f360894a13ba1a3210667c828492db98dca3e2076cc3735a920a3ca505d382bbc546001600160a01b031690565b6001600160a01b031614155b156101e75760405163703e46dd60e11b815260040160405180910390fd5b565b816001600160a01b03166352d1902d6040518163ffffffff1660e01b8152600401602060405180830381865afa925050508015610243575060408051601f3d908101601f19168201909252610240918101906105fb565b60015b61027057604051634c9c8ce360e01b81526001600160a01b03831660048201526024015b60405180910390fd5b7f360894a13ba1a3210667c828492db98dca3e2076cc3735a920a3ca505d382bbc81146102b357604051632a87526960e21b815260048101829052602401610267565b6102bd83836102c2565b505050565b6102cb82610317565b6040516001600160a01b038316907fbc7cd75a20ee27fd9adebab32041f755214dbc6bffa90cc0225b39da2e5c2d3b905f90a280511561030f576102bd828261038d565b6101196103ff565b806001600160a01b03163b5f0361034c57604051634c9c8ce360e01b81526001600160a01b0382166004820152602401610267565b7f360894a13ba1a3210667c828492db98dca3e2076cc3735a920a3ca505d382bbc80546001600160a01b0319166001600160a01b0392909216919091179055565b60605f80846001600160a01b0316846040516103a99190610612565b5f60405180830381855af49150503d805f81146103e1576040519150601f19603f3d011682016040523d82523d5f602084013e6103e6565b606091505b50915091506103f685838361041e565b95945050505050565b34156101e75760405163b398979f60e01b815260040160405180910390fd5b6060826104335761042e8261047d565b610476565b815115801561044a57506001600160a01b0384163b155b1561047357604051639996b31560e01b81526001600160a01b0385166004820152602401610267565b50805b9392505050565b80511561048d5780518082602001fd5b60405163d6bda27560e01b815260040160405180910390fd5b634e487b7160e01b5f52604160045260245ffd5b5f80604083850312156104cb575f80fd5b82356001600160a01b03811681146104e1575f80fd5b9150602083013567ffffffffffffffff808211156104fd575f80fd5b818501915085601f830112610510575f80fd5b813581811115610522576105226104a6565b604051601f8201601f19908116603f0116810190838211818310171561054a5761054a6104a6565b81604052828152886020848701011115610562575f80fd5b826020860160208301375f6020848301015280955050505050509250929050565b5f5b8381101561059d578181015183820152602001610585565b50505f910152565b602081525f82518060208401526105c3816040850160208701610583565b601f01601f19169190910160400192915050565b5f600182016105f457634e487b7160e01b5f52601160045260245ffd5b5060010190565b5f6020828403121561060b575f80fd5b5051919050565b5f8251610623818460208701610583565b919091019291505056fea2646970667358221220ce9d835b1edf56cb7c109d70c678cf683f0e371d6c64651f9dc7f41836b254c064736f6c63430008180033",
  "linkReferences": {},
  "deployedLinkReferences": {}
}