{
  "_format": "hh-sol-artifact-1",
  "contractName": "UUPSUpgradeableMock",
  "sourceName": "contracts/mocks/proxy/UUPSUpgradeableMock.sol",
  "abi": [
    {
      "inputs": [
        {
          "internalType": "address",
          "name": "target",
          "type": "address"
        }
      ],
      "name": "AddressEmptyCode",
      "type": "error"
    },
    {
      "inputs": [
        {
          "internalType": "address",
          "name": "implementation",
          "type": "address"
        }
      ],
      "name": "ERC1967InvalidImplementation",
      "type": "error"
    },
    {
      "inputs": [],
      "name": "ERC1967NonPayable",
      "type": "error"
    },
    {
      "inputs": [],
      "name": "FailedCall",
      "type": "error"
    },
    {
      "inputs": [],
      "name": "UUPSUnauthorizedCallContext",
      "type": "error"
    },
    {
      "inputs": [
        {
          "internalType": "bytes32",
          "name": "slot",
          "type": "bytes32"
        }
      ],
      "name": "UUPSUnsupportedProxiableUUID",
      "type": "error"
    },
    {
      "anonymous": false,
      "inputs": [
        {
          "indexed": true,
          "internalType": "address",
          "name": "implementation",
          "type": "address"
        }
      ],
      "name": "Upgraded",
      "type": "event"
    },
    {
      "inputs": [],
      "name": "UPGRADE_INTERFACE_VERSION",
      "outputs": [
        {
          "internalType": "string",
          "name": "",
          "type": "string"
        }
      ],
      "stateMutability": "view",
      "type": "function"
    },
    {
      "inputs": [],
      "name": "current",
      "outputs": [
        {
          "internalType": "uint256",
          "name": "",
          "type": "uint256"
        }
      ],
      "stateMutability": "view",
      "type": "function"
    },
    {
      "inputs": [],
      "name": "increment",
      "outputs": [],
      "stateMutability": "nonpayable",
      "type": "function"
    },
    {
      "inputs": [],
      "name": "proxiableUUID",
      "outputs": [
        {
          "internalType": "bytes32",
          "name": "",
          "type": "bytes32"
        }
      ],
      "stateMutability": "view",
      "type": "function"
    },
    {
      "inputs": [
        {
          "internalType": "address",
          "name": "newImplementation",
          "type": "address"
        },
        {
          "internalType": "bytes",
          "name": "data",
          "type": "bytes"
        }
      ],
      "name": "upgradeToAndCall",
      "outputs": [],
      "stateMutability": "payable",
      "type": "function"
    }
  ],
  "bytecode": "0x60a060405230608052348015610013575f80fd5b5060805161069461003a5f395f818161013c0152818161016501526102a801526106945ff3fe608060405260043610610049575f3560e01c80634f1ef2861461004d57806352d1902d146100625780639fa6a6e314610089578063ad3cb1cc1461009c578063d09de08a146100d9575b5f80fd5b61006061005b3660046104cb565b6100ed565b005b34801561006d575f80fd5b50610076610103565b6040519081526020015b60405180910390f35b348015610094575f80fd5b505f54610076565b3480156100a7575f80fd5b506100cc604051806040016040528060058152602001640352e302e360dc1b81525081565b60405161008091906105b6565b3480156100e4575f80fd5b5061006061011e565b6100f5610131565b6100ff82826101d7565b5050565b5f61010c61029d565b505f8051602061063f83398151915290565b5f80815461012b906105e8565b90915550565b306001600160a01b037f00000000000000000000000000000000000000000000000000000000000000001614806101b757507f00000000000000000000000000000000000000000000000000000000000000006001600160a01b03166101ab5f8051602061063f833981519152546001600160a01b031690565b6001600160a01b031614155b156101d55760405163703e46dd60e11b815260040160405180910390fd5b565b816001600160a01b03166352d1902d6040518163ffffffff1660e01b8152600401602060405180830381865afa925050508015610231575060408051601f3d908101601f1916820190925261022e9181019061060c565b60015b61025e57604051634c9c8ce360e01b81526001600160a01b03831660048201526024015b60405180910390fd5b5f8051602061063f833981519152811461028e57604051632a87526960e21b815260048101829052602401610255565b61029883836102e6565b505050565b306001600160a01b037f000000000000000000000000000000000000000000000000000000000000000016146101d55760405163703e46dd60e11b815260040160405180910390fd5b6102ef8261033b565b6040516001600160a01b038316907fbc7cd75a20ee27fd9adebab32041f755214dbc6bffa90cc0225b39da2e5c2d3b905f90a280511561033357610298828261039e565b6100ff610410565b806001600160a01b03163b5f0361037057604051634c9c8ce360e01b81526001600160a01b0382166004820152602401610255565b5f8051602061063f83398151915280546001600160a01b0319166001600160a01b0392909216919091179055565b60605f80846001600160a01b0316846040516103ba9190610623565b5f60405180830381855af49150503d805f81146103f2576040519150601f19603f3d011682016040523d82523d5f602084013e6103f7565b606091505b509150915061040785838361042f565b95945050505050565b34156101d55760405163b398979f60e01b815260040160405180910390fd5b6060826104445761043f8261048e565b610487565b815115801561045b57506001600160a01b0384163b155b1561048457604051639996b31560e01b81526001600160a01b0385166004820152602401610255565b50805b9392505050565b80511561049e5780518082602001fd5b60405163d6bda27560e01b815260040160405180910390fd5b634e487b7160e01b5f52604160045260245ffd5b5f80604083850312156104dc575f80fd5b82356001600160a01b03811681146104f2575f80fd5b9150602083013567ffffffffffffffff8082111561050e575f80fd5b818501915085601f830112610521575f80fd5b813581811115610533576105336104b7565b604051601f8201601f19908116603f0116810190838211818310171561055b5761055b6104b7565b81604052828152886020848701011115610573575f80fd5b826020860160208301375f6020848301015280955050505050509250929050565b5f5b838110156105ae578181015183820152602001610596565b50505f910152565b602081525f82518060208401526105d4816040850160208701610594565b601f01601f19169190910160400192915050565b5f6001820161060557634e487b7160e01b5f52601160045260245ffd5b5060010190565b5f6020828403121561061c575f80fd5b5051919050565b5f8251610634818460208701610594565b919091019291505056fe360894a13ba1a3210667c828492db98dca3e2076cc3735a920a3ca505d382bbca26469706673582212206ff3260669357d4b22f0d10d087d8225193ad55ccb929febe383cc10bda9380264736f6c63430008180033",
  "linkReferences": {},
  "deployedLinkReferences": {}
}