{
  "_format": "hh-sol-artifact-1",
  "contractName": "TransientSlotMock",
  "sourceName": "contracts/mocks/TransientSlotMock.sol",
  "abi": [
    {
      "inputs": [
        {
          "internalType": "address",
          "name": "target",
          "type": "address"
        }
      ],
      "name": "AddressEmptyCode",
      "type": "error"
    },
    {
      "inputs": [],
      "name": "FailedCall",
      "type": "error"
    },
    {
      "anonymous": false,
      "inputs": [
        {
          "indexed": false,
          "internalType": "bytes32",
          "name": "slot",
          "type": "bytes32"
        },
        {
          "indexed": false,
          "internalType": "address",
          "name": "value",
          "type": "address"
        }
      ],
      "name": "AddressValue",
      "type": "event"
    },
    {
      "anonymous": false,
      "inputs": [
        {
          "indexed": false,
          "internalType": "bytes32",
          "name": "slot",
          "type": "bytes32"
        },
        {
          "indexed": false,
          "internalType": "bool",
          "name": "value",
          "type": "bool"
        }
      ],
      "name": "BooleanValue",
      "type": "event"
    },
    {
      "anonymous": false,
      "inputs": [
        {
          "indexed": false,
          "internalType": "bytes32",
          "name": "slot",
          "type": "bytes32"
        },
        {
          "indexed": false,
          "internalType": "bytes32",
          "name": "value",
          "type": "bytes32"
        }
      ],
      "name": "Bytes32Value",
      "type": "event"
    },
    {
      "anonymous": false,
      "inputs": [
        {
          "indexed": false,
          "internalType": "bytes32",
          "name": "slot",
          "type": "bytes32"
        },
        {
          "indexed": false,
          "internalType": "int256",
          "name": "value",
          "type": "int256"
        }
      ],
      "name": "Int256Value",
      "type": "event"
    },
    {
      "anonymous": false,
      "inputs": [
        {
          "indexed": false,
          "internalType": "bytes32",
          "name": "slot",
          "type": "bytes32"
        },
        {
          "indexed": false,
          "internalType": "uint256",
          "name": "value",
          "type": "uint256"
        }
      ],
      "name": "Uint256Value",
      "type": "event"
    },
    {
      "inputs": [
        {
          "internalType": "bytes[]",
          "name": "data",
          "type": "bytes[]"
        }
      ],
      "name": "multicall",
      "outputs": [
        {
          "internalType": "bytes[]",
          "name": "results",
          "type": "bytes[]"
        }
      ],
      "stateMutability": "nonpayable",
      "type": "function"
    },
    {
      "inputs": [
        {
          "internalType": "bytes32",
          "name": "slot",
          "type": "bytes32"
        }
      ],
      "name": "tloadAddress",
      "outputs": [],
      "stateMutability": "nonpayable",
      "type": "function"
    },
    {
      "inputs": [
        {
          "internalType": "bytes32",
          "name": "slot",
          "type": "bytes32"
        }
      ],
      "name": "tloadBoolean",
      "outputs": [],
      "stateMutability": "nonpayable",
      "type": "function"
    },
    {
      "inputs": [
        {
          "internalType": "bytes32",
          "name": "slot",
          "type": "bytes32"
        }
      ],
      "name": "tloadBytes32",
      "outputs": [],
      "stateMutability": "nonpayable",
      "type": "function"
    },
    {
      "inputs": [
        {
          "internalType": "bytes32",
          "name": "slot",
          "type": "bytes32"
        }
      ],
      "name": "tloadInt256",
      "outputs": [],
      "stateMutability": "nonpayable",
      "type": "function"
    },
    {
      "inputs": [
        {
          "internalType": "bytes32",
          "name": "slot",
          "type": "bytes32"
        }
      ],
      "name": "tloadUint256",
      "outputs": [],
      "stateMutability": "nonpayable",
      "type": "function"
    },
    {
      "inputs": [
        {
          "internalType": "bytes32",
          "name": "slot",
          "type": "bytes32"
        },
        {
          "internalType": "address",
          "name": "value",
          "type": "address"
        }
      ],
      "name": "tstore",
      "outputs": [],
      "stateMutability": "nonpayable",
      "type": "function"
    },
    {
      "inputs": [
        {
          "internalType": "bytes32",
          "name": "slot",
          "type": "bytes32"
        },
        {
          "internalType": "bool",
          "name": "value",
          "type": "bool"
        }
      ],
      "name": "tstore",
      "outputs": [],
      "stateMutability": "nonpayable",
      "type": "function"
    },
    {
      "inputs": [
        {
          "internalType": "bytes32",
          "name": "slot",
          "type": "bytes32"
        },
        {
          "internalType": "uint256",
          "name": "value",
          "type": "uint256"
        }
      ],
      "name": "tstore",
      "outputs": [],
      "stateMutability": "nonpayable",
      "type": "function"
    },
    {
      "inputs": [
        {
          "internalType": "bytes32",
          "name": "slot",
          "type": "bytes32"
        },
        {
          "internalType": "int256",
          "name": "value",
          "type": "int256"
        }
      ],
      "name": "tstore",
      "outputs": [],
      "stateMutability": "nonpayable",
      "type": "function"
    },
    {
      "inputs": [
        {
          "internalType": "bytes32",
          "name": "slot",
          "type": "bytes32"
        },
        {
          "internalType": "bytes32",
          "name": "value",
          "type": "bytes32"
        }
      ],
      "name": "tstore",
      "outputs": [],
      "stateMutability": "nonpayable",
      "type": "function"
    }
  ],
  "bytecode": "0x608060405234801561000f575f80fd5b506106ee8061001d5f395ff3fe608060405234801561000f575f80fd5b50600436106100a6575f3560e01c806385daa7b41161006e57806385daa7b414610101578063938ee4c8146100f3578063ac9650d814610114578063ba96e3ea1461013d578063bd4522bb14610150578063d25bb762146100f3575f80fd5b806320656eb6146100aa5780632ddc1e8f146100bf5780634912c97c146100d25780635d6f2b93146100e5578063824bd70b146100f3575b5f80fd5b6100bd6100b8366004610466565b610163565b005b6100bd6100cd36600461047d565b6101a4565b6100bd6100e0366004610466565b6101b2565b6100bd6100cd3660046104b6565b6100bd6100cd3660046104dd565b6100bd61010f366004610466565b6101db565b6101276101223660046104fd565b610213565b604051610134919061058e565b60405180910390f35b6100bd61014b366004610466565b6102f9565b6100bd61015e366004610466565b610338565b7f71eecf44688d15d894339e18504cad8f6634d454a9496b065503cebfac1f9b6381805c5b604080519283526020830191909152015b60405180910390a150565b6101ae8282610361565b5050565b7fbf9aaddfa8a1b987c7c32a9295dea19fb7b4e3b5b05f05c831f3634ef90e1a5e81805c610188565b60408051828152825c151560208201527f3d52ff56f17a99f5b126ffe58fc0ff5637819d2f2390fcb898ca339d5c7af2b39101610199565b604080515f8152602081019091526060908267ffffffffffffffff81111561023d5761023d610606565b60405190808252806020026020018201604052801561027057816020015b606081526020019060019003908161025b5790505b5091505f5b838110156102f1576102cc308686848181106102935761029361061a565b90506020028101906102a5919061062e565b856040516020016102b893929190610678565b604051602081830303815290604052610368565b8382815181106102de576102de61061a565b6020908102919091010152600101610275565b505092915050565b604080518281526001600160a01b03835c1660208201527f28adb451742b081abc04788984120a5256bb9cb76cd5b61a181c8a088c08e49d9101610199565b7faa96f8aa155cc584d3b4080ac3c322f1347d2b82ac812e67a8ee926d3057a19881805c610188565b80825d5050565b60605f80846001600160a01b031684604051610384919061069d565b5f60405180830381855af49150503d805f81146103bc576040519150601f19603f3d011682016040523d82523d5f602084013e6103c1565b606091505b50915091506103d18583836103da565b95945050505050565b6060826103ef576103ea8261043d565b610436565b815115801561040657506001600160a01b0384163b155b1561043357604051639996b31560e01b81526001600160a01b038516600482015260240160405180910390fd5b50805b9392505050565b80511561044d5780518082602001fd5b60405163d6bda27560e01b815260040160405180910390fd5b5f60208284031215610476575f80fd5b5035919050565b5f806040838503121561048e575f80fd5b8235915060208301356001600160a01b03811681146104ab575f80fd5b809150509250929050565b5f80604083850312156104c7575f80fd5b82359150602083013580151581146104ab575f80fd5b5f80604083850312156104ee575f80fd5b50508035926020909101359150565b5f806020838503121561050e575f80fd5b823567ffffffffffffffff80821115610525575f80fd5b818501915085601f830112610538575f80fd5b813581811115610546575f80fd5b8660208260051b850101111561055a575f80fd5b60209290920196919550909350505050565b5f5b8381101561058657818101518382015260200161056e565b50505f910152565b5f602080830181845280855180835260408601915060408160051b87010192508387015f5b828110156105f957878503603f19018452815180518087526105da818989018a850161056c565b601f01601f1916959095018601945092850192908501906001016105b3565b5092979650505050505050565b634e487b7160e01b5f52604160045260245ffd5b634e487b7160e01b5f52603260045260245ffd5b5f808335601e19843603018112610643575f80fd5b83018035915067ffffffffffffffff82111561065d575f80fd5b602001915036819003821315610671575f80fd5b9250929050565b828482375f8382015f8152835161069381836020880161056c565b0195945050505050565b5f82516106ae81846020870161056c565b919091019291505056fea2646970667358221220977f20417b6ad6352a4a5afdcf8ec0235e1721ecfe5190b9f22cc7f29178e99064736f6c63430008180033",
  "linkReferences": {},
  "deployedLinkReferences": {}
}