{
  "_format": "hh-sol-artifact-1",
  "contractName": "$Address",
  "sourceName": "contracts-exposed/utils/Address.sol",
  "abi": [
    {
      "inputs": [],
      "stateMutability": "payable",
      "type": "constructor"
    },
    {
      "inputs": [
        {
          "internalType": "address",
          "name": "target",
          "type": "address"
        }
      ],
      "name": "AddressEmptyCode",
      "type": "error"
    },
    {
      "inputs": [],
      "name": "FailedCall",
      "type": "error"
    },
    {
      "inputs": [
        {
          "internalType": "uint256",
          "name": "balance",
          "type": "uint256"
        },
        {
          "internalType": "uint256",
          "name": "needed",
          "type": "uint256"
        }
      ],
      "name": "InsufficientBalance",
      "type": "error"
    },
    {
      "anonymous": false,
      "inputs": [
        {
          "indexed": false,
          "internalType": "bytes",
          "name": "ret0",
          "type": "bytes"
        }
      ],
      "name": "return$functionCall",
      "type": "event"
    },
    {
      "anonymous": false,
      "inputs": [
        {
          "indexed": false,
          "internalType": "bytes",
          "name": "ret0",
          "type": "bytes"
        }
      ],
      "name": "return$functionCallWithValue",
      "type": "event"
    },
    {
      "anonymous": false,
      "inputs": [
        {
          "indexed": false,
          "internalType": "bytes",
          "name": "ret0",
          "type": "bytes"
        }
      ],
      "name": "return$functionDelegateCall",
      "type": "event"
    },
    {
      "inputs": [
        {
          "internalType": "address",
          "name": "target",
          "type": "address"
        },
        {
          "internalType": "bytes",
          "name": "data",
          "type": "bytes"
        }
      ],
      "name": "$functionCall",
      "outputs": [
        {
          "internalType": "bytes",
          "name": "ret0",
          "type": "bytes"
        }
      ],
      "stateMutability": "payable",
      "type": "function"
    },
    {
      "inputs": [
        {
          "internalType": "address",
          "name": "target",
          "type": "address"
        },
        {
          "internalType": "bytes",
          "name": "data",
          "type": "bytes"
        },
        {
          "internalType": "uint256",
          "name": "value",
          "type": "uint256"
        }
      ],
      "name": "$functionCallWithValue",
      "outputs": [
        {
          "internalType": "bytes",
          "name": "ret0",
          "type": "bytes"
        }
      ],
      "stateMutability": "payable",
      "type": "function"
    },
    {
      "inputs": [
        {
          "internalType": "address",
          "name": "target",
          "type": "address"
        },
        {
          "internalType": "bytes",
          "name": "data",
          "type": "bytes"
        }
      ],
      "name": "$functionDelegateCall",
      "outputs": [
        {
          "internalType": "bytes",
          "name": "ret0",
          "type": "bytes"
        }
      ],
      "stateMutability": "payable",
      "type": "function"
    },
    {
      "inputs": [
        {
          "internalType": "address",
          "name": "target",
          "type": "address"
        },
        {
          "internalType": "bytes",
          "name": "data",
          "type": "bytes"
        }
      ],
      "name": "$functionStaticCall",
      "outputs": [
        {
          "internalType": "bytes",
          "name": "ret0",
          "type": "bytes"
        }
      ],
      "stateMutability": "view",
      "type": "function"
    },
    {
      "inputs": [
        {
          "internalType": "address payable",
          "name": "recipient",
          "type": "address"
        },
        {
          "internalType": "uint256",
          "name": "amount",
          "type": "uint256"
        }
      ],
      "name": "$sendValue",
      "outputs": [],
      "stateMutability": "payable",
      "type": "function"
    },
    {
      "inputs": [
        {
          "internalType": "bool",
          "name": "success",
          "type": "bool"
        },
        {
          "internalType": "bytes",
          "name": "returndata",
          "type": "bytes"
        }
      ],
      "name": "$verifyCallResult",
      "outputs": [
        {
          "internalType": "bytes",
          "name": "ret0",
          "type": "bytes"
        }
      ],
      "stateMutability": "pure",
      "type": "function"
    },
    {
      "inputs": [
        {
          "internalType": "address",
          "name": "target",
          "type": "address"
        },
        {
          "internalType": "bool",
          "name": "success",
          "type": "bool"
        },
        {
          "internalType": "bytes",
          "name": "returndata",
          "type": "bytes"
        }
      ],
      "name": "$verifyCallResultFromTarget",
      "outputs": [
        {
          "internalType": "bytes",
          "name": "ret0",
          "type": "bytes"
        }
      ],
      "stateMutability": "view",
      "type": "function"
    },
    {
      "inputs": [],
      "name": "__hh_exposed_bytecode_marker",
      "outputs": [
        {
          "internalType": "bytes32",
          "name": "",
          "type": "bytes32"
        }
      ],
      "stateMutability": "view",
      "type": "function"
    },
    {
      "stateMutability": "payable",
      "type": "receive"
    }
  ],
  "bytecode": "0x60806040526108e7806100115f395ff3fe60806040526004361061007c575f3560e01c80633c33d1cd1161004c5780633c33d1cd1461012157806351be3cfc146101365780635b201a521461014957806389c43e8014610168575f80fd5b806333dd68a81461008757806334031294146100bc578063342db739146100db578063369cfd921461010e575f80fd5b3661008357005b5f80fd5b348015610092575f80fd5b506100a66100a13660046106f5565b61017b565b6040516100b39190610776565b60405180910390f35b3480156100c7575f80fd5b506100a66100d63660046107a8565b6101c6565b3480156100e6575f80fd5b506101006e1a185c991a185d0b595e1c1bdcd959608a1b81565b6040519081526020016100b3565b6100a661011c3660046107a8565b61020f565b61013461012f3660046107f9565b610290565b005b6100a6610144366004610823565b61029e565b348015610154575f80fd5b506100a661016336600461087b565b610322565b6100a66101763660046107a8565b610363565b60606101bd858585858080601f0160208091040260200160405190810160405280939291908181526020018383808284375f920191909152506103d592505050565b95945050505050565b60606102078484848080601f0160208091040260200160405190810160405280939291908181526020018383808284375f9201919091525061043992505050565b949350505050565b60606102508484848080601f0160208091040260200160405190810160405280939291908181526020018383808284375f920191909152506104ad92505050565b90507f50a13cc3a931319c9620b70581a4ea9c3147764161a4642cbb90eb6717a1c570816040516102819190610776565b60405180910390a19392505050565b61029a82826104ba565b5050565b60606102e18585858080601f0160208091040260200160405190810160405280939291908181526020018383808284375f9201919091525087925061054c915050565b90507f87e618fff282ba4a301327671b0133490d09c9cf478f8504c23948059a9e3dfc816040516103129190610776565b60405180910390a1949350505050565b60606102078484848080601f0160208091040260200160405190810160405280939291908181526020018383808284375f920191909152506105ec92505050565b60606103a48484848080601f0160208091040260200160405190810160405280939291908181526020018383808284375f9201919091525061060892505050565b90507f893d25cf9726c53f7baabba6de8a1a4d761766ce7ddbd7e4c64e04848da441e2816040516102819190610776565b6060826103ea576103e58261065c565b610432565b815115801561040157506001600160a01b0384163b155b1561042f57604051639996b31560e01b81526001600160a01b03851660048201526024015b60405180910390fd5b50805b9392505050565b60605f80846001600160a01b0316846040516104559190610896565b5f60405180830381855afa9150503d805f811461048d576040519150601f19603f3d011682016040523d82523d5f602084013e610492565b606091505b50915091506104a28583836103d5565b925050505b92915050565b606061043283835f61054c565b804710156104e45760405163cf47918160e01b815247600482015260248101829052604401610426565b5f80836001600160a01b0316836040515f6040518083038185875af1925050503d805f811461052e576040519150601f19603f3d011682016040523d82523d5f602084013e610533565b606091505b509150915081610546576105468161065c565b50505050565b6060814710156105785760405163cf47918160e01b815247600482015260248101839052604401610426565b5f80856001600160a01b031684866040516105939190610896565b5f6040518083038185875af1925050503d805f81146105cd576040519150601f19603f3d011682016040523d82523d5f602084013e6105d2565b606091505b50915091506105e28683836103d5565b9695505050505050565b606082610601576105fc8261065c565b6104a7565b50806104a7565b60605f80846001600160a01b0316846040516106249190610896565b5f60405180830381855af49150503d805f811461048d576040519150601f19603f3d011682016040523d82523d5f602084013e610492565b80511561066c5780518082602001fd5b60405163d6bda27560e01b815260040160405180910390fd5b50565b6001600160a01b0381168114610685575f80fd5b803580151581146106ab575f80fd5b919050565b5f8083601f8401126106c0575f80fd5b50813567ffffffffffffffff8111156106d7575f80fd5b6020830191508360208285010111156106ee575f80fd5b9250929050565b5f805f8060608587031215610708575f80fd5b843561071381610688565b93506107216020860161069c565b9250604085013567ffffffffffffffff81111561073c575f80fd5b610748878288016106b0565b95989497509550505050565b5f5b8381101561076e578181015183820152602001610756565b50505f910152565b602081525f8251806020840152610794816040850160208701610754565b601f01601f19169190910160400192915050565b5f805f604084860312156107ba575f80fd5b83356107c581610688565b9250602084013567ffffffffffffffff8111156107e0575f80fd5b6107ec868287016106b0565b9497909650939450505050565b5f806040838503121561080a575f80fd5b823561081581610688565b946020939093013593505050565b5f805f8060608587031215610836575f80fd5b843561084181610688565b9350602085013567ffffffffffffffff81111561085c575f80fd5b610868878288016106b0565b9598909750949560400135949350505050565b5f805f6040848603121561088d575f80fd5b6107c58461069c565b5f82516108a7818460208701610754565b919091019291505056fea26469706673582212203d123e5b989b261cc2e36e4cef4921532cc24e8b70a7aa1c9d5174245f38a98f64736f6c63430008180033",
  "linkReferences": {},
  "deployedLinkReferences": {}
}