{
  "_format": "hh-sol-artifact-1",
  "contractName": "$Base64Dirty",
  "sourceName": "contracts-exposed/mocks/Base64Dirty.sol",
  "abi": [
    {
      "inputs": [],
      "stateMutability": "payable",
      "type": "constructor"
    },
    {
      "inputs": [],
      "name": "__hh_exposed_bytecode_marker",
      "outputs": [
        {
          "internalType": "bytes32",
          "name": "",
          "type": "bytes32"
        }
      ],
      "stateMutability": "view",
      "type": "function"
    },
    {
      "inputs": [
        {
          "internalType": "bytes",
          "name": "input",
          "type": "bytes"
        }
      ],
      "name": "encode",
      "outputs": [
        {
          "internalType": "string",
          "name": "",
          "type": "string"
        }
      ],
      "stateMutability": "pure",
      "type": "function"
    },
    {
      "stateMutability": "payable",
      "type": "receive"
    }
  ],
  "bytecode": "0x6080604052610445806100115f395ff3fe60806040526004361061002b575f3560e01c806312496a1b14610036578063342db7391461006b575f80fd5b3661003257005b5f80fd5b348015610041575f80fd5b5061005561005036600461027b565b61009e565b6040516100629190610326565b60405180910390f35b348015610076575f80fd5b506100906e1a185c991a185d0b595e1c1bdcd959608a1b81565b604051908152602001610062565b60408051602081019091525f1981526060906100b9836100c0565b9392505050565b60606100e6826040518060600160405280604081526020016103d06040913960016100ec565b92915050565b606083515f0361010a575060408051602081019091525f81526100b9565b5f8261013a576003855160046101209190610386565b61012b90600261039d565b61013591906103b0565b61015f565b60038551600261014a919061039d565b61015491906103b0565b61015f906004610386565b90505f8167ffffffffffffffff81111561017b5761017b610267565b6040519080825280601f01601f1916602001820160405280156101a5576020820181803683370190505b509050600185016020820187885189016020810180515f82525b8284101561021a576003840193508351603f8160121c168701518653600186019550603f81600c1c168701518653600186019550603f8160061c168701518653600186019550603f81168701518653506001850194506101bf565b90525050851561025b5760038851066001811461023e576002811461025157610259565b603d6001830353603d6002830353610259565b603d60018303535b505b50909695505050505050565b634e487b7160e01b5f52604160045260245ffd5b5f6020828403121561028b575f80fd5b813567ffffffffffffffff808211156102a2575f80fd5b818401915084601f8301126102b5575f80fd5b8135818111156102c7576102c7610267565b604051601f8201601f19908116603f011681019083821181831017156102ef576102ef610267565b81604052828152876020848701011115610307575f80fd5b826020860160208301375f928101602001929092525095945050505050565b5f602080835283518060208501525f5b8181101561035257858101830151858201604001528201610336565b505f604082860101526040601f19601f8301168501019250505092915050565b634e487b7160e01b5f52601160045260245ffd5b80820281158282048414176100e6576100e6610372565b808201808211156100e6576100e6610372565b5f826103ca57634e487b7160e01b5f52601260045260245ffd5b50049056fe4142434445464748494a4b4c4d4e4f505152535455565758595a6162636465666768696a6b6c6d6e6f707172737475767778797a303132333435363738392b2fa2646970667358221220fec2d3fb018f100578dd5b90c28d30570266bb6ea7036dd0e65329e16339d22664736f6c63430008180033",
  "linkReferences": {},
  "deployedLinkReferences": {}
}