{
  "_format": "hh-sol-artifact-1",
  "contractName": "ContextMock",
  "sourceName": "contracts/mocks/ContextMock.sol",
  "abi": [
    {
      "anonymous": false,
      "inputs": [
        {
          "indexed": false,
          "internalType": "bytes",
          "name": "data",
          "type": "bytes"
        },
        {
          "indexed": false,
          "internalType": "uint256",
          "name": "integerValue",
          "type": "uint256"
        },
        {
          "indexed": false,
          "internalType": "string",
          "name": "stringValue",
          "type": "string"
        }
      ],
      "name": "Data",
      "type": "event"
    },
    {
      "anonymous": false,
      "inputs": [
        {
          "indexed": false,
          "internalType": "bytes",
          "name": "data",
          "type": "bytes"
        }
      ],
      "name": "DataShort",
      "type": "event"
    },
    {
      "anonymous": false,
      "inputs": [
        {
          "indexed": false,
          "internalType": "address",
          "name": "sender",
          "type": "address"
        }
      ],
      "name": "Sender",
      "type": "event"
    },
    {
      "inputs": [
        {
          "internalType": "uint256",
          "name": "integerValue",
          "type": "uint256"
        },
        {
          "internalType": "string",
          "name": "stringValue",
          "type": "string"
        }
      ],
      "name": "msgData",
      "outputs": [],
      "stateMutability": "nonpayable",
      "type": "function"
    },
    {
      "inputs": [],
      "name": "msgDataShort",
      "outputs": [],
      "stateMutability": "nonpayable",
      "type": "function"
    },
    {
      "inputs": [],
      "name": "msgSender",
      "outputs": [],
      "stateMutability": "nonpayable",
      "type": "function"
    }
  ],
  "bytecode": "0x608060405234801561000f575f80fd5b506102b38061001d5f395ff3fe608060405234801561000f575f80fd5b506004361061003f575f3560e01c8063376bf26214610043578063d737d0c714610058578063ff5f6b5914610060575b5f80fd5b610056610051366004610124565b610068565b005b6100566100a9565b6100566100df565b7faf235354a0a47c91ee171961326335cb2d1a8e55b8a89859b0e61eb049e50ea05f36848460405161009d9493929190610201565b60405180910390a15050565b6040513381527fd6558c3ed910d959271054471fd1c326679d9fece99c5091b00ed89627cf2bfc906020015b60405180910390a1565b7f6d7cec71eba467294d92341ddc4e8634eb4d742a90e16f408f06e4b70bc4cd665f366040516100d5929190610262565b634e487b7160e01b5f52604160045260245ffd5b5f8060408385031215610135575f80fd5b82359150602083013567ffffffffffffffff80821115610153575f80fd5b818501915085601f830112610166575f80fd5b81358181111561017857610178610110565b604051601f8201601f19908116603f011681019083821181831017156101a0576101a0610110565b816040528281528860208487010111156101b8575f80fd5b826020860160208301375f6020848301015280955050505050509250929050565b81835281816020850137505f828201602090810191909152601f909101601f19169091010190565b606081525f6102146060830186886101d9565b60208581850152838203604085015284518083525f5b8181101561024557868101830151848201840152820161022a565b505f838201830152601f01601f1916909101019695505050505050565b602081525f6102756020830184866101d9565b94935050505056fea26469706673582212207fa45502540a8deb8eda9043923b07b9078a85b202e224d61e21f2662cde7d5b64736f6c63430008180033",
  "linkReferences": {},
  "deployedLinkReferences": {}
}