{
  "_format": "hh-sol-artifact-1",
  "contractName": "MerkleTreeMock",
  "sourceName": "contracts/mocks/MerkleTreeMock.sol",
  "abi": [
    {
      "anonymous": false,
      "inputs": [
        {
          "indexed": false,
          "internalType": "bytes32",
          "name": "leaf",
          "type": "bytes32"
        },
        {
          "indexed": false,
          "internalType": "uint256",
          "name": "index",
          "type": "uint256"
        },
        {
          "indexed": false,
          "internalType": "bytes32",
          "name": "root",
          "type": "bytes32"
        }
      ],
      "name": "LeafInserted",
      "type": "event"
    },
    {
      "inputs": [],
      "name": "depth",
      "outputs": [
        {
          "internalType": "uint256",
          "name": "",
          "type": "uint256"
        }
      ],
      "stateMutability": "view",
      "type": "function"
    },
    {
      "inputs": [],
      "name": "nextLeafIndex",
      "outputs": [
        {
          "internalType": "uint256",
          "name": "",
          "type": "uint256"
        }
      ],
      "stateMutability": "view",
      "type": "function"
    },
    {
      "inputs": [
        {
          "internalType": "bytes32",
          "name": "leaf",
          "type": "bytes32"
        }
      ],
      "name": "push",
      "outputs": [],
      "stateMutability": "nonpayable",
      "type": "function"
    },
    {
      "inputs": [],
      "name": "root",
      "outputs": [
        {
          "internalType": "bytes32",
          "name": "",
          "type": "bytes32"
        }
      ],
      "stateMutability": "view",
      "type": "function"
    },
    {
      "inputs": [
        {
          "internalType": "uint8",
          "name": "_depth",
          "type": "uint8"
        },
        {
          "internalType": "bytes32",
          "name": "_zero",
          "type": "bytes32"
        }
      ],
      "name": "setup",
      "outputs": [],
      "stateMutability": "nonpayable",
      "type": "function"
    },
    {
      "inputs": [
        {
          "internalType": "uint256",
          "name": "i",
          "type": "uint256"
        }
      ],
      "name": "sides",
      "outputs": [
        {
          "internalType": "bytes32",
          "name": "",
          "type": "bytes32"
        }
      ],
      "stateMutability": "view",
      "type": "function"
    },
    {
      "inputs": [
        {
          "internalType": "uint256",
          "name": "i",
          "type": "uint256"
        }
      ],
      "name": "zeros",
      "outputs": [
        {
          "internalType": "bytes32",
          "name": "",
          "type": "bytes32"
        }
      ],
      "stateMutability": "view",
      "type": "function"
    }
  ],
  "bytecode": "0x608060405234801561000f575f80fd5b506104718061001d5f395ff3fe608060405234801561000f575f80fd5b506004361061007a575f3560e01c8063b3eb738a11610058578063b3eb738a146100b0578063b66987b6146100c3578063e8295588146100d6578063ebf0c717146100e9575f80fd5b80630be4f4221461007e578063631c56ef14610093578063b298e36b1461009b575b5f80fd5b5f545b60405190815260200160405180910390f35b600254610081565b6100ae6100a9366004610374565b6100f2565b005b6100816100be366004610374565b61014b565b6100ae6100d136600461038b565b610171565b6100816100e4366004610374565b610183565b61008160035481565b5f806100fe8184610199565b604080518681526020810184905290810182905291935091507fd50e83984b64a106ac2ee6314d689ec4d2a656d5ece6d94c585796944b52240c9060600160405180910390a16003555050565b5f806001018281548110610161576101616103ba565b905f5260205f2001549050919050565b61017c5f83836101b3565b6003555050565b5f806002018281548110610161576101616103ba565b5f806101a884846101ca6101f9565b915091509250929050565b5f6101c28484846101ca6102e4565b949350505050565b5f8183106101e4575f8281526020849052604090206101f2565b5f8381526020839052604090205b9392505050565b5f805f610207866002015490565b8654909150865f610217836103e2565b9091555092506001811b8310610231576102316041610344565b82855f5b838163ffffffff1610156102d7575f61024f6002856103fa565b159050801561026e578261026c8b6001018463ffffffff16610355565b555b6102ba8161028f576102898b6001018463ffffffff16610355565b54610291565b835b8261029c57846102b1565b6102af8c6002018563ffffffff16610355565b545b8a63ffffffff16565b9250600184901c93505080806102cf90610419565b915050610235565b5092505050935093915050565b60ff83166001850181905560028501555f82815b8560ff168163ffffffff161015610336578161031d886002018363ffffffff16610355565b5561032c828063ffffffff8716565b91506001016102f8565b505f86559050949350505050565b634e487b715f52806020526024601cfd5b5f826101c26103718461036d845f9081526020902090565b0190565b90565b5f60208284031215610384575f80fd5b5035919050565b5f806040838503121561039c575f80fd5b823560ff811681146103ac575f80fd5b946020939093013593505050565b634e487b7160e01b5f52603260045260245ffd5b634e487b7160e01b5f52601160045260245ffd5b5f600182016103f3576103f36103ce565b5060010190565b5f8261041457634e487b7160e01b5f52601260045260245ffd5b500690565b5f63ffffffff808316818103610431576104316103ce565b600101939250505056fea264697066735822122023c2aebc548e2c8da29a604bf93148b8f1f411f8704189aa617625fae55e295c64736f6c63430008180033",
  "linkReferences": {},
  "deployedLinkReferences": {}
}