{
  "_format": "hh-sol-artifact-1",
  "contractName": "$ReentrancyTransientMock",
  "sourceName": "contracts-exposed/mocks/ReentrancyTransientMock.sol",
  "abi": [
    {
      "inputs": [],
      "stateMutability": "payable",
      "type": "constructor"
    },
    {
      "inputs": [],
      "name": "ReentrancyGuardReentrantCall",
      "type": "error"
    },
    {
      "inputs": [],
      "name": "$_reentrancyGuardEntered",
      "outputs": [
        {
          "internalType": "bool",
          "name": "ret0",
          "type": "bool"
        }
      ],
      "stateMutability": "view",
      "type": "function"
    },
    {
      "inputs": [],
      "name": "__hh_exposed_bytecode_marker",
      "outputs": [
        {
          "internalType": "bytes32",
          "name": "",
          "type": "bytes32"
        }
      ],
      "stateMutability": "view",
      "type": "function"
    },
    {
      "inputs": [],
      "name": "callback",
      "outputs": [],
      "stateMutability": "nonpayable",
      "type": "function"
    },
    {
      "inputs": [
        {
          "internalType": "contract ReentrancyAttack",
          "name": "attacker",
          "type": "address"
        }
      ],
      "name": "countAndCall",
      "outputs": [],
      "stateMutability": "nonpayable",
      "type": "function"
    },
    {
      "inputs": [
        {
          "internalType": "uint256",
          "name": "n",
          "type": "uint256"
        }
      ],
      "name": "countLocalRecursive",
      "outputs": [],
      "stateMutability": "nonpayable",
      "type": "function"
    },
    {
      "inputs": [
        {
          "internalType": "uint256",
          "name": "n",
          "type": "uint256"
        }
      ],
      "name": "countThisRecursive",
      "outputs": [],
      "stateMutability": "nonpayable",
      "type": "function"
    },
    {
      "inputs": [],
      "name": "counter",
      "outputs": [
        {
          "internalType": "uint256",
          "name": "",
          "type": "uint256"
        }
      ],
      "stateMutability": "view",
      "type": "function"
    },
    {
      "inputs": [],
      "name": "guardedCheckEntered",
      "outputs": [],
      "stateMutability": "nonpayable",
      "type": "function"
    },
    {
      "inputs": [],
      "name": "unguardedCheckNotEntered",
      "outputs": [],
      "stateMutability": "view",
      "type": "function"
    },
    {
      "stateMutability": "payable",
      "type": "receive"
    }
  ],
  "bytecode": "0x60806040525f8055610594806100145f395ff3fe608060405260043610610087575f3560e01c806396ffa6901161005757806396ffa69014610113578063a408f31214610132578063b672ad8b14610146578063cecc95a714610165578063d67f250a14610179575f80fd5b8063083b273214610092578063342db739146100a857806361bc221a146100e05780638c5344fa146100f4575f80fd5b3661008e57005b5f80fd5b34801561009d575f80fd5b506100a66101a3565b005b3480156100b3575f80fd5b506100cd6e1a185c991a185d0b595e1c1bdcd959608a1b81565b6040519081526020015b60405180910390f35b3480156100eb575f80fd5b506100cd5f5481565b3480156100ff575f80fd5b506100a661010e36600461044b565b6101bd565b34801561011e575f80fd5b506100a661012d36600461044b565b6102dc565b34801561013d575f80fd5b506100a6610300565b348015610151575f80fd5b506100a6610160366004610462565b61031f565b348015610170575f80fd5b506100a66103b6565b348015610184575f80fd5b506040515f8051602061053f8339815191525c151581526020016100d7565b6101ab6103ce565b6101b3610415565b6101bb61042d565b565b6101c56103ce565b80156102d1576101d3610415565b5f3080638c5344fa6101e66001866104a3565b6040516024016101f891815260200190565b60408051601f198184030181529181526020820180516001600160e01b031660e09490941b93909317909252905161023092506104de565b5f604051808303815f865af19150503d805f8114610269576040519150601f19603f3d011682016040523d82523d5f602084013e61026e565b606091505b50509050806102cf5760405162461bcd60e51b8152602060048201526024808201527f5265656e7472616e63795472616e7369656e744d6f636b3a206661696c65642060448201526318d85b1b60e21b606482015260840160405180910390fd5b505b6102d961042d565b50565b6102e46103ce565b80156102d1576102f2610415565b6102d161012d6001836104a3565b6103086103ce565b5f8051602061053f8339815191525c6101b3575f80fd5b6103276103ce565b61032f610415565b6040805160048082526024820183526020820180516001600160e01b031663041d939960e11b179052915163f8123dd560e01b81526001600160a01b0384169263f8123dd592610381929091016104f9565b5f604051808303815f87803b158015610398575f80fd5b505af11580156103aa573d5f803e3d5ffd5b505050506102d961042d565b5f8051602061053f8339815191525c156101bb575f80fd5b5f8051602061053f8339815191525c156103fb57604051633ee5aeb560e01b815260040160405180910390fd5b6101bb60015f8051602061053f8339815191525b90610444565b60015f80828254610426919061052b565b9091555050565b6101bb5f5f8051602061053f83398151915261040f565b80825d5050565b5f6020828403121561045b575f80fd5b5035919050565b5f60208284031215610472575f80fd5b81356001600160a01b0381168114610488575f80fd5b9392505050565b634e487b7160e01b5f52601160045260245ffd5b818103818111156104b6576104b661048f565b92915050565b5f5b838110156104d65781810151838201526020016104be565b50505f910152565b5f82516104ef8184602087016104bc565b9190910192915050565b602081525f82518060208401526105178160408501602087016104bc565b601f01601f19169190910160400192915050565b808201808211156104b6576104b661048f56fe9b779b17422d0df92223018b32b4d1fa46e071723d6817e2486d003becc55f00a2646970667358221220df718f068f3ab4117d9a999f0aa69239e70f308870b251483fd89249af24416064736f6c63430008180033",
  "linkReferences": {},
  "deployedLinkReferences": {}
}