{
  "_format": "hh-sol-artifact-1",
  "contractName": "$UpgradeableBeacon",
  "sourceName": "contracts-exposed/proxy/beacon/UpgradeableBeacon.sol",
  "abi": [
    {
      "inputs": [
        {
          "internalType": "address",
          "name": "implementation_",
          "type": "address"
        },
        {
          "internalType": "address",
          "name": "initialOwner",
          "type": "address"
        }
      ],
      "stateMutability": "payable",
      "type": "constructor"
    },
    {
      "inputs": [
        {
          "internalType": "address",
          "name": "implementation",
          "type": "address"
        }
      ],
      "name": "BeaconInvalidImplementation",
      "type": "error"
    },
    {
      "inputs": [
        {
          "internalType": "address",
          "name": "owner",
          "type": "address"
        }
      ],
      "name": "OwnableInvalidOwner",
      "type": "error"
    },
    {
      "inputs": [
        {
          "internalType": "address",
          "name": "account",
          "type": "address"
        }
      ],
      "name": "OwnableUnauthorizedAccount",
      "type": "error"
    },
    {
      "anonymous": false,
      "inputs": [
        {
          "indexed": true,
          "internalType": "address",
          "name": "previousOwner",
          "type": "address"
        },
        {
          "indexed": true,
          "internalType": "address",
          "name": "newOwner",
          "type": "address"
        }
      ],
      "name": "OwnershipTransferred",
      "type": "event"
    },
    {
      "anonymous": false,
      "inputs": [
        {
          "indexed": true,
          "internalType": "address",
          "name": "implementation",
          "type": "address"
        }
      ],
      "name": "Upgraded",
      "type": "event"
    },
    {
      "inputs": [],
      "name": "$_checkOwner",
      "outputs": [],
      "stateMutability": "view",
      "type": "function"
    },
    {
      "inputs": [],
      "name": "$_contextSuffixLength",
      "outputs": [
        {
          "internalType": "uint256",
          "name": "ret0",
          "type": "uint256"
        }
      ],
      "stateMutability": "view",
      "type": "function"
    },
    {
      "inputs": [],
      "name": "$_msgData",
      "outputs": [
        {
          "internalType": "bytes",
          "name": "ret0",
          "type": "bytes"
        }
      ],
      "stateMutability": "view",
      "type": "function"
    },
    {
      "inputs": [],
      "name": "$_msgSender",
      "outputs": [
        {
          "internalType": "address",
          "name": "ret0",
          "type": "address"
        }
      ],
      "stateMutability": "view",
      "type": "function"
    },
    {
      "inputs": [
        {
          "internalType": "address",
          "name": "newOwner",
          "type": "address"
        }
      ],
      "name": "$_transferOwnership",
      "outputs": [],
      "stateMutability": "nonpayable",
      "type": "function"
    },
    {
      "inputs": [],
      "name": "__hh_exposed_bytecode_marker",
      "outputs": [
        {
          "internalType": "bytes32",
          "name": "",
          "type": "bytes32"
        }
      ],
      "stateMutability": "view",
      "type": "function"
    },
    {
      "inputs": [],
      "name": "implementation",
      "outputs": [
        {
          "internalType": "address",
          "name": "",
          "type": "address"
        }
      ],
      "stateMutability": "view",
      "type": "function"
    },
    {
      "inputs": [],
      "name": "owner",
      "outputs": [
        {
          "internalType": "address",
          "name": "",
          "type": "address"
        }
      ],
      "stateMutability": "view",
      "type": "function"
    },
    {
      "inputs": [],
      "name": "renounceOwnership",
      "outputs": [],
      "stateMutability": "nonpayable",
      "type": "function"
    },
    {
      "inputs": [
        {
          "internalType": "address",
          "name": "newOwner",
          "type": "address"
        }
      ],
      "name": "transferOwnership",
      "outputs": [],
      "stateMutability": "nonpayable",
      "type": "function"
    },
    {
      "inputs": [
        {
          "internalType": "address",
          "name": "newImplementation",
          "type": "address"
        }
      ],
      "name": "upgradeTo",
      "outputs": [],
      "stateMutability": "nonpayable",
      "type": "function"
    },
    {
      "stateMutability": "payable",
      "type": "receive"
    }
  ],
  "bytecode": "0x60806040526040516105e13803806105e183398101604081905261002291610157565b8181806001600160a01b03811661005357604051631e4fbdf760e01b81525f60048201526024015b60405180910390fd5b61005c8161006f565b50610066826100be565b50505050610188565b5f80546001600160a01b038381166001600160a01b0319831681178455604051919092169283917f8be0079c531659141344cd1fd0a4f28419497f9722a3daafe3b4186f6b6457e09190a35050565b806001600160a01b03163b5f036100f35760405163211eb15960e21b81526001600160a01b038216600482015260240161004a565b600180546001600160a01b0319166001600160a01b0383169081179091556040517fbc7cd75a20ee27fd9adebab32041f755214dbc6bffa90cc0225b39da2e5c2d3b905f90a250565b80516001600160a01b0381168114610152575f80fd5b919050565b5f8060408385031215610168575f80fd5b6101718361013c565b915061017f6020840161013c565b90509250929050565b61044c806101955f395ff3fe60806040526004361061009d575f3560e01c806367354a841161006257806367354a8414610165578063715018a6146101775780638da5cb5b1461018b578063ebcca707146101a7578063f2fde38b146101bb578063fe1c9a24146101da575f80fd5b80632904df29146100a857806332cadf3c146100d3578063342db739146100f45780633659cfe6146101275780635c60da1b14610148575f80fd5b366100a457005b5f80fd5b3480156100b3575f80fd5b50335b6040516001600160a01b0390911681526020015b60405180910390f35b3480156100de575f80fd5b506100e76101f9565b6040516100ca919061039d565b3480156100ff575f80fd5b506101196e1a185c991a185d0b595e1c1bdcd959608a1b81565b6040519081526020016100ca565b348015610132575f80fd5b506101466101413660046103e9565b610236565b005b348015610153575f80fd5b506001546001600160a01b03166100b6565b348015610170575f80fd5b505f610119565b348015610182575f80fd5b5061014661024a565b348015610196575f80fd5b505f546001600160a01b03166100b6565b3480156101b2575f80fd5b5061014661025d565b3480156101c6575f80fd5b506101466101d53660046103e9565b610265565b3480156101e5575f80fd5b506101466101f43660046103e9565b61029b565b60605f368080601f0160208091040260200160405190810160405280939291908181526020018383808284375f9201919091525092949350505050565b61023e6102a4565b610247816102d0565b50565b6102526102a4565b61025b5f61034e565b565b61025b6102a4565b61026d6102a4565b6001600160a01b03811661029b57604051631e4fbdf760e01b81525f60048201526024015b60405180910390fd5b6102478161034e565b5f546001600160a01b0316331461025b5760405163118cdaa760e01b8152336004820152602401610292565b806001600160a01b03163b5f036103055760405163211eb15960e21b81526001600160a01b0382166004820152602401610292565b600180546001600160a01b0319166001600160a01b0383169081179091556040517fbc7cd75a20ee27fd9adebab32041f755214dbc6bffa90cc0225b39da2e5c2d3b905f90a250565b5f80546001600160a01b038381166001600160a01b0319831681178455604051919092169283917f8be0079c531659141344cd1fd0a4f28419497f9722a3daafe3b4186f6b6457e09190a35050565b5f602080835283518060208501525f5b818110156103c9578581018301518582016040015282016103ad565b505f604082860101526040601f19601f8301168501019250505092915050565b5f602082840312156103f9575f80fd5b81356001600160a01b038116811461040f575f80fd5b939250505056fea26469706673582212208e28de12340f054294fc66d31a2346fdecae2fb6b7c456d8c49f361dd09e87b364736f6c63430008180033",
  "linkReferences": {},
  "deployedLinkReferences": {}
}