{
  "_format": "hh-sol-artifact-1",
  "contractName": "$MerkleTree",
  "sourceName": "contracts-exposed/utils/structs/MerkleTree.sol",
  "abi": [
    {
      "inputs": [],
      "stateMutability": "payable",
      "type": "constructor"
    },
    {
      "anonymous": false,
      "inputs": [
        {
          "indexed": false,
          "internalType": "uint256",
          "name": "index",
          "type": "uint256"
        },
        {
          "indexed": false,
          "internalType": "bytes32",
          "name": "newRoot",
          "type": "bytes32"
        }
      ],
      "name": "return$push",
      "type": "event"
    },
    {
      "anonymous": false,
      "inputs": [
        {
          "indexed": false,
          "internalType": "bytes32",
          "name": "initialRoot",
          "type": "bytes32"
        }
      ],
      "name": "return$setup",
      "type": "event"
    },
    {
      "inputs": [
        {
          "internalType": "uint256",
          "name": "self",
          "type": "uint256"
        }
      ],
      "name": "$depth",
      "outputs": [
        {
          "internalType": "uint256",
          "name": "ret0",
          "type": "uint256"
        }
      ],
      "stateMutability": "view",
      "type": "function"
    },
    {
      "inputs": [
        {
          "internalType": "uint256",
          "name": "self",
          "type": "uint256"
        },
        {
          "internalType": "bytes32",
          "name": "leaf",
          "type": "bytes32"
        }
      ],
      "name": "$push",
      "outputs": [
        {
          "internalType": "uint256",
          "name": "index",
          "type": "uint256"
        },
        {
          "internalType": "bytes32",
          "name": "newRoot",
          "type": "bytes32"
        }
      ],
      "stateMutability": "payable",
      "type": "function"
    },
    {
      "inputs": [
        {
          "internalType": "uint256",
          "name": "self",
          "type": "uint256"
        },
        {
          "internalType": "uint8",
          "name": "treeDepth",
          "type": "uint8"
        },
        {
          "internalType": "bytes32",
          "name": "zero",
          "type": "bytes32"
        }
      ],
      "name": "$setup",
      "outputs": [
        {
          "internalType": "bytes32",
          "name": "initialRoot",
          "type": "bytes32"
        }
      ],
      "stateMutability": "payable",
      "type": "function"
    },
    {
      "inputs": [],
      "name": "__hh_exposed_bytecode_marker",
      "outputs": [
        {
          "internalType": "bytes32",
          "name": "",
          "type": "bytes32"
        }
      ],
      "stateMutability": "view",
      "type": "function"
    },
    {
      "stateMutability": "payable",
      "type": "receive"
    }
  ],
  "bytecode": "0x6080604052610495806100115f395ff3fe608060405260043610610041575f3560e01c8063342db7391461004c57806354f8526d14610084578063a2a015cc14610097578063eb132851146100bf575f80fd5b3661004857005b5f80fd5b348015610057575f80fd5b506100716e1a185c991a185d0b595e1c1bdcd959608a1b81565b6040519081526020015b60405180910390f35b610071610092366004610381565b6100ed565b6100aa6100a53660046103bb565b610147565b6040805192835260208301919091520161007b565b3480156100ca575f80fd5b506100716100d93660046103db565b5f9081526020819052604090206002015490565b5f8381526020819052604081206101059084846101a6565b90507f0e26be633973b613deb81b18bf75191ff842f673eceaa4982727e84ca7bedd538160405161013891815260200190565b60405180910390a19392505050565b5f828152602081905260408120819061016090846101bd565b60408051838152602081018390529294509092507f1b33a9f9182321105fe839f7b19fb3df6502708353a2cb1fbe9517ba1abaff8b910160405180910390a19250929050565b5f6101b58484846101d7610206565b949350505050565b5f806101cc84846101d7610266565b915091509250929050565b5f8183106101f1575f8281526020849052604090206101ff565b5f8381526020839052604090205b9392505050565b60ff83166001850181905560028501555f82815b8560ff168163ffffffff161015610258578161023f886002018363ffffffff16610351565b5561024e828063ffffffff8716565b915060010161021a565b505f86559050949350505050565b5f805f610274866002015490565b8654909150865f61028483610406565b9091555092506001811b831061029e5761029e6041610370565b82855f5b838163ffffffff161015610344575f6102bc60028561041e565b15905080156102db57826102d98b6001018463ffffffff16610351565b555b610327816102fc576102f68b6001018463ffffffff16610351565b546102fe565b835b82610309578461031e565b61031c8c6002018563ffffffff16610351565b545b8a63ffffffff16565b9250600184901c935050808061033c9061043d565b9150506102a2565b5092505050935093915050565b5f826101b561036d84610369845f9081526020902090565b0190565b90565b634e487b715f52806020526024601cfd5b5f805f60608486031215610393575f80fd5b83359250602084013560ff811681146103aa575f80fd5b929592945050506040919091013590565b5f80604083850312156103cc575f80fd5b50508035926020909101359150565b5f602082840312156103eb575f80fd5b5035919050565b634e487b7160e01b5f52601160045260245ffd5b5f60018201610417576104176103f2565b5060010190565b5f8261043857634e487b7160e01b5f52601260045260245ffd5b500690565b5f63ffffffff808316818103610455576104556103f2565b600101939250505056fea2646970667358221220a028bf77cd752eb0e0a93cc1d7a98e409cf44080759e0edf3343e35881b156dd64736f6c63430008180033",
  "linkReferences": {},
  "deployedLinkReferences": {}
}