{
  "_format": "hh-sol-artifact-1",
  "contractName": "$ERC165Checker",
  "sourceName": "contracts-exposed/utils/introspection/ERC165Checker.sol",
  "abi": [
    {
      "inputs": [],
      "stateMutability": "payable",
      "type": "constructor"
    },
    {
      "inputs": [
        {
          "internalType": "address",
          "name": "account",
          "type": "address"
        },
        {
          "internalType": "bytes4[]",
          "name": "interfaceIds",
          "type": "bytes4[]"
        }
      ],
      "name": "$getSupportedInterfaces",
      "outputs": [
        {
          "internalType": "bool[]",
          "name": "ret0",
          "type": "bool[]"
        }
      ],
      "stateMutability": "view",
      "type": "function"
    },
    {
      "inputs": [
        {
          "internalType": "address",
          "name": "account",
          "type": "address"
        },
        {
          "internalType": "bytes4[]",
          "name": "interfaceIds",
          "type": "bytes4[]"
        }
      ],
      "name": "$supportsAllInterfaces",
      "outputs": [
        {
          "internalType": "bool",
          "name": "ret0",
          "type": "bool"
        }
      ],
      "stateMutability": "view",
      "type": "function"
    },
    {
      "inputs": [
        {
          "internalType": "address",
          "name": "account",
          "type": "address"
        }
      ],
      "name": "$supportsERC165",
      "outputs": [
        {
          "internalType": "bool",
          "name": "ret0",
          "type": "bool"
        }
      ],
      "stateMutability": "view",
      "type": "function"
    },
    {
      "inputs": [
        {
          "internalType": "address",
          "name": "account",
          "type": "address"
        },
        {
          "internalType": "bytes4",
          "name": "interfaceId",
          "type": "bytes4"
        }
      ],
      "name": "$supportsERC165InterfaceUnchecked",
      "outputs": [
        {
          "internalType": "bool",
          "name": "ret0",
          "type": "bool"
        }
      ],
      "stateMutability": "view",
      "type": "function"
    },
    {
      "inputs": [
        {
          "internalType": "address",
          "name": "account",
          "type": "address"
        },
        {
          "internalType": "bytes4",
          "name": "interfaceId",
          "type": "bytes4"
        }
      ],
      "name": "$supportsInterface",
      "outputs": [
        {
          "internalType": "bool",
          "name": "ret0",
          "type": "bool"
        }
      ],
      "stateMutability": "view",
      "type": "function"
    },
    {
      "inputs": [],
      "name": "__hh_exposed_bytecode_marker",
      "outputs": [
        {
          "internalType": "bytes32",
          "name": "",
          "type": "bytes32"
        }
      ],
      "stateMutability": "view",
      "type": "function"
    },
    {
      "stateMutability": "payable",
      "type": "receive"
    }
  ],
  "bytecode": "0x6080604052610578806100115f395ff3fe608060405260043610610057575f3560e01c8063342db7391461006257806345db2bd31461009a5780636e16639a146100c95780637ae31071146100e85780638381eb5b14610107578063b92d70e214610133575f80fd5b3661005e57005b5f80fd5b34801561006d575f80fd5b506100876e1a185c991a185d0b595e1c1bdcd959608a1b81565b6040519081526020015b60405180910390f35b3480156100a5575f80fd5b506100b96100b43660046103fc565b610152565b6040519015158152602001610091565b3480156100d4575f80fd5b506100b96100e3366004610415565b610162565b3480156100f3575f80fd5b506100b9610102366004610494565b6101a7565b348015610112575f80fd5b50610126610121366004610415565b6101b9565b60405161009191906104d5565b34801561013e575f80fd5b506100b961014d366004610494565b6101f7565b5f61015c82610202565b92915050565b5f61019f848484808060200260200160405190810160405280939291908181526020018383602002808284375f9201919091525061023492505050565b949350505050565b5f6101b28383610296565b9392505050565b606061019f848484808060200260200160405190810160405280939291908181526020018383602002808284375f9201919091525061031c92505050565b5f6101b283836103c6565b5f610214826301ffc9a760e01b610296565b801561015c575061022d826001600160e01b0319610296565b1592915050565b5f61023e83610202565b61024957505f61015c565b5f5b825181101561028c576102778484838151811061026a5761026a61051a565b6020026020010151610296565b610284575f91505061015c565b60010161024b565b5060019392505050565b6040516001600160e01b0319821660248201525f90819060440160408051601f19818403018152919052602080820180516001600160e01b03166301ffc9a760e01b17815282519293505f9283928392909183918a617530fa92503d91505f519050828015610306575060208210155b801561031157505f81115b979650505050505050565b60605f825167ffffffffffffffff8111156103395761033961052e565b604051908082528060200260200182016040528015610362578160200160208202803683370190505b50905061036e84610202565b156101b2575f5b83518110156103be576103948585838151811061026a5761026a61051a565b8282815181106103a6576103a661051a565b91151560209283029190910190910152600101610375565b509392505050565b5f6103d083610202565b80156101b257506101b28383610296565b80356001600160a01b03811681146103f7575f80fd5b919050565b5f6020828403121561040c575f80fd5b6101b2826103e1565b5f805f60408486031215610427575f80fd5b610430846103e1565b9250602084013567ffffffffffffffff8082111561044c575f80fd5b818601915086601f83011261045f575f80fd5b81358181111561046d575f80fd5b8760208260051b8501011115610481575f80fd5b6020830194508093505050509250925092565b5f80604083850312156104a5575f80fd5b6104ae836103e1565b915060208301356001600160e01b0319811681146104ca575f80fd5b809150509250929050565b602080825282518282018190525f9190848201906040850190845b8181101561050e5783511515835292840192918401916001016104f0565b50909695505050505050565b634e487b7160e01b5f52603260045260245ffd5b634e487b7160e01b5f52604160045260245ffdfea2646970667358221220caaad3ba47fe57c836fec10aaf046750b6fb7dd00a930d17b5f680775bf5f35f64736f6c63430008180033",
  "linkReferences": {},
  "deployedLinkReferences": {}
}