{
  "_format": "hh-sol-artifact-1",
  "contractName": "$AccessManaged",
  "sourceName": "contracts-exposed/access/manager/AccessManaged.sol",
  "abi": [
    {
      "inputs": [
        {
          "internalType": "address",
          "name": "initialAuthority",
          "type": "address"
        }
      ],
      "stateMutability": "payable",
      "type": "constructor"
    },
    {
      "inputs": [
        {
          "internalType": "address",
          "name": "authority",
          "type": "address"
        }
      ],
      "name": "AccessManagedInvalidAuthority",
      "type": "error"
    },
    {
      "inputs": [
        {
          "internalType": "address",
          "name": "caller",
          "type": "address"
        },
        {
          "internalType": "uint32",
          "name": "delay",
          "type": "uint32"
        }
      ],
      "name": "AccessManagedRequiredDelay",
      "type": "error"
    },
    {
      "inputs": [
        {
          "internalType": "address",
          "name": "caller",
          "type": "address"
        }
      ],
      "name": "AccessManagedUnauthorized",
      "type": "error"
    },
    {
      "anonymous": false,
      "inputs": [
        {
          "indexed": false,
          "internalType": "address",
          "name": "authority",
          "type": "address"
        }
      ],
      "name": "AuthorityUpdated",
      "type": "event"
    },
    {
      "inputs": [
        {
          "internalType": "address",
          "name": "caller",
          "type": "address"
        },
        {
          "internalType": "bytes",
          "name": "data",
          "type": "bytes"
        }
      ],
      "name": "$_checkCanCall",
      "outputs": [],
      "stateMutability": "nonpayable",
      "type": "function"
    },
    {
      "inputs": [],
      "name": "$_contextSuffixLength",
      "outputs": [
        {
          "internalType": "uint256",
          "name": "ret0",
          "type": "uint256"
        }
      ],
      "stateMutability": "view",
      "type": "function"
    },
    {
      "inputs": [],
      "name": "$_msgData",
      "outputs": [
        {
          "internalType": "bytes",
          "name": "ret0",
          "type": "bytes"
        }
      ],
      "stateMutability": "view",
      "type": "function"
    },
    {
      "inputs": [],
      "name": "$_msgSender",
      "outputs": [
        {
          "internalType": "address",
          "name": "ret0",
          "type": "address"
        }
      ],
      "stateMutability": "view",
      "type": "function"
    },
    {
      "inputs": [
        {
          "internalType": "address",
          "name": "newAuthority",
          "type": "address"
        }
      ],
      "name": "$_setAuthority",
      "outputs": [],
      "stateMutability": "nonpayable",
      "type": "function"
    },
    {
      "inputs": [],
      "name": "__hh_exposed_bytecode_marker",
      "outputs": [
        {
          "internalType": "bytes32",
          "name": "",
          "type": "bytes32"
        }
      ],
      "stateMutability": "view",
      "type": "function"
    },
    {
      "inputs": [],
      "name": "authority",
      "outputs": [
        {
          "internalType": "address",
          "name": "",
          "type": "address"
        }
      ],
      "stateMutability": "view",
      "type": "function"
    },
    {
      "inputs": [],
      "name": "isConsumingScheduledOp",
      "outputs": [
        {
          "internalType": "bytes4",
          "name": "",
          "type": "bytes4"
        }
      ],
      "stateMutability": "view",
      "type": "function"
    },
    {
      "inputs": [
        {
          "internalType": "address",
          "name": "newAuthority",
          "type": "address"
        }
      ],
      "name": "setAuthority",
      "outputs": [],
      "stateMutability": "nonpayable",
      "type": "function"
    },
    {
      "stateMutability": "payable",
      "type": "receive"
    }
  ],
  "bytecode": "0x608060405260405161082b38038061082b83398101604081905261002291610086565b8061002c81610033565b50506100b3565b5f80546001600160a01b0319166001600160a01b0383169081179091556040519081527f2f658b440c35314f52658ea8a740e05b284cdc84dc9ae01e891f21b8933e7cad9060200160405180910390a150565b5f60208284031215610096575f80fd5b81516001600160a01b03811681146100ac575f80fd5b9392505050565b61076b806100c05f395ff3fe608060405260043610610087575f3560e01c806367354a841161005757806367354a84146101325780637a9e5e4b146101445780638fb3603714610163578063bf7e214f14610190578063e94c28c2146101ac575f80fd5b806308fd0171146100925780632904df29146100b357806332cadf3c146100de578063342db739146100ff575f80fd5b3661008e57005b5f80fd5b34801561009d575f80fd5b506100b16100ac36600461052f565b6101cb565b005b3480156100be575f80fd5b50335b6040516001600160a01b0390911681526020015b60405180910390f35b3480156100e9575f80fd5b506100f26101d7565b6040516100d59190610571565b34801561010a575f80fd5b506101246e1a185c991a185d0b595e1c1bdcd959608a1b81565b6040519081526020016100d5565b34801561013d575f80fd5b505f610124565b34801561014f575f80fd5b506100b161015e36600461052f565b610214565b34801561016e575f80fd5b50610177610291565b6040516001600160e01b031990911681526020016100d5565b34801561019b575f80fd5b505f546001600160a01b03166100c1565b3480156101b7575f80fd5b506100b16101c63660046105a3565b6102b3565b6101d4816102c3565b50565b60605f368080601f0160208091040260200160405190810160405280939291908181526020018383808284375f9201919091525092949350505050565b5f5433906001600160a01b0316811461024f5760405162d1953b60e31b81526001600160a01b03821660048201526024015b60405180910390fd5b816001600160a01b03163b5f03610284576040516361798f2f60e11b81526001600160a01b0383166004820152602401610246565b61028d826102c3565b5050565b5f8054600160a01b900460ff166102a757505f90565b50638fb3603760e01b90565b6102be838383610316565b505050565b5f80546001600160a01b0319166001600160a01b0383169081179091556040519081527f2f658b440c35314f52658ea8a740e05b284cdc84dc9ae01e891f21b8933e7cad9060200160405180910390a150565b5f8061034961032c5f546001600160a01b031690565b863061033b60045f898b61061f565b61034491610646565b61040c565b91509150816104055763ffffffff8116156103e2575f805460ff60a01b198116600160a01b17909155604051634a63ebf760e11b81526001600160a01b03909116906394c7d7ee906103a390889088908890600401610676565b5f604051808303815f87803b1580156103ba575f80fd5b505af11580156103cc573d5f803e3d5ffd5b50505f805460ff60a01b19169055506104059050565b60405162d1953b60e31b81526001600160a01b0386166004820152602401610246565b5050505050565b6040516001600160a01b03848116602483015283811660448301526001600160e01b0319831660648301525f9182918291829189169060840160408051601f198184030181529181526020820180516001600160e01b031663b700961360e01b1790525161047a91906106b5565b5f60405180830381855afa9150503d805f81146104b2576040519150601f19603f3d011682016040523d82523d5f602084013e6104b7565b606091505b509150915081156105095760408151106104e957808060200190518101906104df91906106df565b9094509250610509565b60208151106105095780806020019051810190610506919061071c565b93505b505094509492505050565b80356001600160a01b038116811461052a575f80fd5b919050565b5f6020828403121561053f575f80fd5b61054882610514565b9392505050565b5f5b83811015610569578181015183820152602001610551565b50505f910152565b602081525f825180602084015261058f81604085016020870161054f565b601f01601f19169190910160400192915050565b5f805f604084860312156105b5575f80fd5b6105be84610514565b9250602084013567ffffffffffffffff808211156105da575f80fd5b818601915086601f8301126105ed575f80fd5b8135818111156105fb575f80fd5b87602082850101111561060c575f80fd5b6020830194508093505050509250925092565b5f808585111561062d575f80fd5b83861115610639575f80fd5b5050820193919092039150565b6001600160e01b0319813581811691600485101561066e5780818660040360031b1b83161692505b505092915050565b6001600160a01b03841681526040602082018190528101829052818360608301375f818301606090810191909152601f909201601f1916010192915050565b5f82516106c681846020870161054f565b9190910192915050565b8051801515811461052a575f80fd5b5f80604083850312156106f0575f80fd5b6106f9836106d0565b9150602083015163ffffffff81168114610711575f80fd5b809150509250929050565b5f6020828403121561072c575f80fd5b610548826106d056fea26469706673582212208734f33a5594dd72dd50ad99949c22a6f73ed85bf7c45e4d15d376aac6f9858664736f6c63430008180033",
  "linkReferences": {},
  "deployedLinkReferences": {}
}