{
  "_format": "hh-sol-artifact-1",
  "contractName": "$ERC20FlashMintMock",
  "sourceName": "contracts-exposed/mocks/token/ERC20FlashMintMock.sol",
  "abi": [
    {
      "inputs": [
        {
          "internalType": "string",
          "name": "name_",
          "type": "string"
        },
        {
          "internalType": "string",
          "name": "symbol_",
          "type": "string"
        }
      ],
      "stateMutability": "payable",
      "type": "constructor"
    },
    {
      "inputs": [
        {
          "internalType": "address",
          "name": "spender",
          "type": "address"
        },
        {
          "internalType": "uint256",
          "name": "allowance",
          "type": "uint256"
        },
        {
          "internalType": "uint256",
          "name": "needed",
          "type": "uint256"
        }
      ],
      "name": "ERC20InsufficientAllowance",
      "type": "error"
    },
    {
      "inputs": [
        {
          "internalType": "address",
          "name": "sender",
          "type": "address"
        },
        {
          "internalType": "uint256",
          "name": "balance",
          "type": "uint256"
        },
        {
          "internalType": "uint256",
          "name": "needed",
          "type": "uint256"
        }
      ],
      "name": "ERC20InsufficientBalance",
      "type": "error"
    },
    {
      "inputs": [
        {
          "internalType": "address",
          "name": "approver",
          "type": "address"
        }
      ],
      "name": "ERC20InvalidApprover",
      "type": "error"
    },
    {
      "inputs": [
        {
          "internalType": "address",
          "name": "receiver",
          "type": "address"
        }
      ],
      "name": "ERC20InvalidReceiver",
      "type": "error"
    },
    {
      "inputs": [
        {
          "internalType": "address",
          "name": "sender",
          "type": "address"
        }
      ],
      "name": "ERC20InvalidSender",
      "type": "error"
    },
    {
      "inputs": [
        {
          "internalType": "address",
          "name": "spender",
          "type": "address"
        }
      ],
      "name": "ERC20InvalidSpender",
      "type": "error"
    },
    {
      "inputs": [
        {
          "internalType": "uint256",
          "name": "maxLoan",
          "type": "uint256"
        }
      ],
      "name": "ERC3156ExceededMaxLoan",
      "type": "error"
    },
    {
      "inputs": [
        {
          "internalType": "address",
          "name": "receiver",
          "type": "address"
        }
      ],
      "name": "ERC3156InvalidReceiver",
      "type": "error"
    },
    {
      "inputs": [
        {
          "internalType": "address",
          "name": "token",
          "type": "address"
        }
      ],
      "name": "ERC3156UnsupportedToken",
      "type": "error"
    },
    {
      "anonymous": false,
      "inputs": [
        {
          "indexed": true,
          "internalType": "address",
          "name": "owner",
          "type": "address"
        },
        {
          "indexed": true,
          "internalType": "address",
          "name": "spender",
          "type": "address"
        },
        {
          "indexed": false,
          "internalType": "uint256",
          "name": "value",
          "type": "uint256"
        }
      ],
      "name": "Approval",
      "type": "event"
    },
    {
      "anonymous": false,
      "inputs": [
        {
          "indexed": true,
          "internalType": "address",
          "name": "from",
          "type": "address"
        },
        {
          "indexed": true,
          "internalType": "address",
          "name": "to",
          "type": "address"
        },
        {
          "indexed": false,
          "internalType": "uint256",
          "name": "value",
          "type": "uint256"
        }
      ],
      "name": "Transfer",
      "type": "event"
    },
    {
      "inputs": [
        {
          "internalType": "address",
          "name": "owner",
          "type": "address"
        },
        {
          "internalType": "address",
          "name": "spender",
          "type": "address"
        },
        {
          "internalType": "uint256",
          "name": "value",
          "type": "uint256"
        },
        {
          "internalType": "bool",
          "name": "emitEvent",
          "type": "bool"
        }
      ],
      "name": "$_approve",
      "outputs": [],
      "stateMutability": "nonpayable",
      "type": "function"
    },
    {
      "inputs": [
        {
          "internalType": "address",
          "name": "owner",
          "type": "address"
        },
        {
          "internalType": "address",
          "name": "spender",
          "type": "address"
        },
        {
          "internalType": "uint256",
          "name": "value",
          "type": "uint256"
        }
      ],
      "name": "$_approve",
      "outputs": [],
      "stateMutability": "nonpayable",
      "type": "function"
    },
    {
      "inputs": [
        {
          "internalType": "address",
          "name": "account",
          "type": "address"
        },
        {
          "internalType": "uint256",
          "name": "value",
          "type": "uint256"
        }
      ],
      "name": "$_burn",
      "outputs": [],
      "stateMutability": "nonpayable",
      "type": "function"
    },
    {
      "inputs": [],
      "name": "$_contextSuffixLength",
      "outputs": [
        {
          "internalType": "uint256",
          "name": "ret0",
          "type": "uint256"
        }
      ],
      "stateMutability": "view",
      "type": "function"
    },
    {
      "inputs": [
        {
          "internalType": "address",
          "name": "arg0",
          "type": "address"
        },
        {
          "internalType": "uint256",
          "name": "arg1",
          "type": "uint256"
        }
      ],
      "name": "$_flashFee",
      "outputs": [
        {
          "internalType": "uint256",
          "name": "ret0",
          "type": "uint256"
        }
      ],
      "stateMutability": "view",
      "type": "function"
    },
    {
      "inputs": [],
      "name": "$_flashFeeAmount",
      "outputs": [
        {
          "internalType": "uint256",
          "name": "",
          "type": "uint256"
        }
      ],
      "stateMutability": "view",
      "type": "function"
    },
    {
      "inputs": [],
      "name": "$_flashFeeReceiver",
      "outputs": [
        {
          "internalType": "address",
          "name": "ret0",
          "type": "address"
        }
      ],
      "stateMutability": "view",
      "type": "function"
    },
    {
      "inputs": [],
      "name": "$_flashFeeReceiverAddress",
      "outputs": [
        {
          "internalType": "address",
          "name": "",
          "type": "address"
        }
      ],
      "stateMutability": "view",
      "type": "function"
    },
    {
      "inputs": [
        {
          "internalType": "address",
          "name": "account",
          "type": "address"
        },
        {
          "internalType": "uint256",
          "name": "value",
          "type": "uint256"
        }
      ],
      "name": "$_mint",
      "outputs": [],
      "stateMutability": "nonpayable",
      "type": "function"
    },
    {
      "inputs": [],
      "name": "$_msgData",
      "outputs": [
        {
          "internalType": "bytes",
          "name": "ret0",
          "type": "bytes"
        }
      ],
      "stateMutability": "view",
      "type": "function"
    },
    {
      "inputs": [],
      "name": "$_msgSender",
      "outputs": [
        {
          "internalType": "address",
          "name": "ret0",
          "type": "address"
        }
      ],
      "stateMutability": "view",
      "type": "function"
    },
    {
      "inputs": [
        {
          "internalType": "address",
          "name": "owner",
          "type": "address"
        },
        {
          "internalType": "address",
          "name": "spender",
          "type": "address"
        },
        {
          "internalType": "uint256",
          "name": "value",
          "type": "uint256"
        }
      ],
      "name": "$_spendAllowance",
      "outputs": [],
      "stateMutability": "nonpayable",
      "type": "function"
    },
    {
      "inputs": [
        {
          "internalType": "address",
          "name": "from",
          "type": "address"
        },
        {
          "internalType": "address",
          "name": "to",
          "type": "address"
        },
        {
          "internalType": "uint256",
          "name": "value",
          "type": "uint256"
        }
      ],
      "name": "$_transfer",
      "outputs": [],
      "stateMutability": "nonpayable",
      "type": "function"
    },
    {
      "inputs": [
        {
          "internalType": "address",
          "name": "from",
          "type": "address"
        },
        {
          "internalType": "address",
          "name": "to",
          "type": "address"
        },
        {
          "internalType": "uint256",
          "name": "value",
          "type": "uint256"
        }
      ],
      "name": "$_update",
      "outputs": [],
      "stateMutability": "nonpayable",
      "type": "function"
    },
    {
      "inputs": [],
      "name": "__hh_exposed_bytecode_marker",
      "outputs": [
        {
          "internalType": "bytes32",
          "name": "",
          "type": "bytes32"
        }
      ],
      "stateMutability": "view",
      "type": "function"
    },
    {
      "inputs": [
        {
          "internalType": "address",
          "name": "owner",
          "type": "address"
        },
        {
          "internalType": "address",
          "name": "spender",
          "type": "address"
        }
      ],
      "name": "allowance",
      "outputs": [
        {
          "internalType": "uint256",
          "name": "",
          "type": "uint256"
        }
      ],
      "stateMutability": "view",
      "type": "function"
    },
    {
      "inputs": [
        {
          "internalType": "address",
          "name": "spender",
          "type": "address"
        },
        {
          "internalType": "uint256",
          "name": "value",
          "type": "uint256"
        }
      ],
      "name": "approve",
      "outputs": [
        {
          "internalType": "bool",
          "name": "",
          "type": "bool"
        }
      ],
      "stateMutability": "nonpayable",
      "type": "function"
    },
    {
      "inputs": [
        {
          "internalType": "address",
          "name": "account",
          "type": "address"
        }
      ],
      "name": "balanceOf",
      "outputs": [
        {
          "internalType": "uint256",
          "name": "",
          "type": "uint256"
        }
      ],
      "stateMutability": "view",
      "type": "function"
    },
    {
      "inputs": [],
      "name": "decimals",
      "outputs": [
        {
          "internalType": "uint8",
          "name": "",
          "type": "uint8"
        }
      ],
      "stateMutability": "view",
      "type": "function"
    },
    {
      "inputs": [
        {
          "internalType": "address",
          "name": "token",
          "type": "address"
        },
        {
          "internalType": "uint256",
          "name": "value",
          "type": "uint256"
        }
      ],
      "name": "flashFee",
      "outputs": [
        {
          "internalType": "uint256",
          "name": "",
          "type": "uint256"
        }
      ],
      "stateMutability": "view",
      "type": "function"
    },
    {
      "inputs": [
        {
          "internalType": "contract IERC3156FlashBorrower",
          "name": "receiver",
          "type": "address"
        },
        {
          "internalType": "address",
          "name": "token",
          "type": "address"
        },
        {
          "internalType": "uint256",
          "name": "value",
          "type": "uint256"
        },
        {
          "internalType": "bytes",
          "name": "data",
          "type": "bytes"
        }
      ],
      "name": "flashLoan",
      "outputs": [
        {
          "internalType": "bool",
          "name": "",
          "type": "bool"
        }
      ],
      "stateMutability": "nonpayable",
      "type": "function"
    },
    {
      "inputs": [
        {
          "internalType": "address",
          "name": "token",
          "type": "address"
        }
      ],
      "name": "maxFlashLoan",
      "outputs": [
        {
          "internalType": "uint256",
          "name": "",
          "type": "uint256"
        }
      ],
      "stateMutability": "view",
      "type": "function"
    },
    {
      "inputs": [],
      "name": "name",
      "outputs": [
        {
          "internalType": "string",
          "name": "",
          "type": "string"
        }
      ],
      "stateMutability": "view",
      "type": "function"
    },
    {
      "inputs": [
        {
          "internalType": "uint256",
          "name": "amount",
          "type": "uint256"
        }
      ],
      "name": "setFlashFee",
      "outputs": [],
      "stateMutability": "nonpayable",
      "type": "function"
    },
    {
      "inputs": [
        {
          "internalType": "address",
          "name": "receiver",
          "type": "address"
        }
      ],
      "name": "setFlashFeeReceiver",
      "outputs": [],
      "stateMutability": "nonpayable",
      "type": "function"
    },
    {
      "inputs": [],
      "name": "symbol",
      "outputs": [
        {
          "internalType": "string",
          "name": "",
          "type": "string"
        }
      ],
      "stateMutability": "view",
      "type": "function"
    },
    {
      "inputs": [],
      "name": "totalSupply",
      "outputs": [
        {
          "internalType": "uint256",
          "name": "",
          "type": "uint256"
        }
      ],
      "stateMutability": "view",
      "type": "function"
    },
    {
      "inputs": [
        {
          "internalType": "address",
          "name": "to",
          "type": "address"
        },
        {
          "internalType": "uint256",
          "name": "value",
          "type": "uint256"
        }
      ],
      "name": "transfer",
      "outputs": [
        {
          "internalType": "bool",
          "name": "",
          "type": "bool"
        }
      ],
      "stateMutability": "nonpayable",
      "type": "function"
    },
    {
      "inputs": [
        {
          "internalType": "address",
          "name": "from",
          "type": "address"
        },
        {
          "internalType": "address",
          "name": "to",
          "type": "address"
        },
        {
          "internalType": "uint256",
          "name": "value",
          "type": "uint256"
        }
      ],
      "name": "transferFrom",
      "outputs": [
        {
          "internalType": "bool",
          "name": "",
          "type": "bool"
        }
      ],
      "stateMutability": "nonpayable",
      "type": "function"
    },
    {
      "stateMutability": "payable",
      "type": "receive"
    }
  ],
  "bytecode": "0x60806040526040516200126f3803806200126f833981016040819052620000269162000111565b8181600362000036838262000201565b50600462000045828262000201565b5050505050620002cd565b634e487b7160e01b5f52604160045260245ffd5b5f82601f83011262000074575f80fd5b81516001600160401b038082111562000091576200009162000050565b604051601f8301601f19908116603f01168101908282118183101715620000bc57620000bc62000050565b8160405283815260209250866020858801011115620000d9575f80fd5b5f91505b83821015620000fc5785820183015181830184015290820190620000dd565b5f602085830101528094505050505092915050565b5f806040838503121562000123575f80fd5b82516001600160401b03808211156200013a575f80fd5b620001488683870162000064565b935060208501519150808211156200015e575f80fd5b506200016d8582860162000064565b9150509250929050565b600181811c908216806200018c57607f821691505b602082108103620001ab57634e487b7160e01b5f52602260045260245ffd5b50919050565b601f821115620001fc57805f5260205f20601f840160051c81016020851015620001d85750805b601f840160051c820191505b81811015620001f9575f8155600101620001e4565b50505b505050565b81516001600160401b038111156200021d576200021d62000050565b62000235816200022e845462000177565b84620001b1565b602080601f8311600181146200026b575f8415620002535750858301515b5f19600386901b1c1916600185901b178555620002c5565b5f85815260208120601f198616915b828110156200029b578886015182559484019460019091019084016200027a565b5085821015620002b957878501515f19600388901b60f8161c191681555b505060018460011b0185555b505050505050565b610f9480620002db5f395ff3fe6080604052600436106101bd575f3560e01c806367354a84116100f2578063a9059cbb11610092578063da3f6ff411610062578063da3f6ff4146104f6578063dd62ed3e1461050a578063e047838d1461054e578063efb43b071461056d575f80fd5b8063a9059cbb1461047a578063b2331d7d14610499578063cc461d62146104b8578063d9d98ce4146104d7575f80fd5b8063861e3d3d116100cd578063861e3d3d1461040b5780638b14348e1461042a578063907a267b1461044757806395d89b4114610466575f80fd5b806367354a84146103a65780636855a178146103b857806370a08231146103d7575f80fd5b806332bc74aa1161015d57806339532b371161013857806339532b371461031857806352741a401461032c5780635cffe9de14610368578063613255ab14610387575f80fd5b806332bc74aa146102be57806332cadf3c146102df578063342db739146102f3575f80fd5b80631b038258116101985780631b0382581461023f57806323b872dd1461025e5780632904df291461027d578063313ce567146102a3575f80fd5b806306fdde03146101c8578063095ea7b3146101f257806318160ddd14610221575f80fd5b366101c457005b5f80fd5b3480156101d3575f80fd5b506101dc61058c565b6040516101e99190610c96565b60405180910390f35b3480156101fd575f80fd5b5061021161020c366004610cbf565b61061c565b60405190151581526020016101e9565b34801561022c575f80fd5b506002545b6040519081526020016101e9565b34801561024a575f80fd5b50610231610259366004610cbf565b610635565b348015610269575f80fd5b50610211610278366004610ce9565b610646565b348015610288575f80fd5b50335b6040516001600160a01b0390911681526020016101e9565b3480156102ae575f80fd5b50604051601281526020016101e9565b3480156102c9575f80fd5b506102dd6102d8366004610d27565b61066e565b005b3480156102ea575f80fd5b506101dc610680565b3480156102fe575f80fd5b506102316e1a185c991a185d0b595e1c1bdcd959608a1b81565b348015610323575f80fd5b5061028b6106bd565b348015610337575f80fd5b506102dd610346366004610d7b565b600680546001600160a01b0319166001600160a01b0392909216919091179055565b348015610373575f80fd5b50610211610382366004610d96565b6106d0565b348015610392575f80fd5b506102316103a1366004610d7b565b61085b565b3480156103b1575f80fd5b505f610231565b3480156103c3575f80fd5b506102dd6103d2366004610ce9565b610880565b3480156103e2575f80fd5b506102316103f1366004610d7b565b6001600160a01b03165f9081526020819052604090205490565b348015610416575f80fd5b506102dd610425366004610ce9565b610890565b348015610435575f80fd5b506006546001600160a01b031661028b565b348015610452575f80fd5b506102dd610461366004610e2d565b600555565b348015610471575f80fd5b506101dc61089b565b348015610485575f80fd5b50610211610494366004610cbf565b6108aa565b3480156104a4575f80fd5b506102dd6104b3366004610ce9565b6108b7565b3480156104c3575f80fd5b506102dd6104d2366004610cbf565b6108c2565b3480156104e2575f80fd5b506102316104f1366004610cbf565b6108d0565b348015610501575f80fd5b50600554610231565b348015610515575f80fd5b50610231610524366004610e44565b6001600160a01b039182165f90815260016020908152604080832093909416825291909152205490565b348015610559575f80fd5b506102dd610568366004610cbf565b61090d565b348015610578575f80fd5b506102dd610587366004610ce9565b610917565b60606003805461059b90610e7b565b80601f01602080910402602001604051908101604052809291908181526020018280546105c790610e7b565b80156106125780601f106105e957610100808354040283529160200191610612565b820191905f5260205f20905b8154815290600101906020018083116105f557829003601f168201915b5050505050905090565b5f33610629818585610922565b60019150505b92915050565b5f61063f60055490565b9392505050565b5f3361065385828561092f565b61065e8585856109a5565b506001949350505050565b905090565b61067a848484846109f7565b50505050565b60605f368080601f0160208091040260200160405190810160405280939291908181526020018383808284375f9201919091525092949350505050565b5f6106696006546001600160a01b031690565b5f806106db8661085b565b9050808511156107065760405163fd9a760960e01b8152600481018290526024015b60405180910390fd5b5f61071187876108d0565b905061071d8887610ac9565b6040516323e30c8b60e01b81527f439148f0bbc682ca079e46d6e2c2f0c1e3b820f1a291b069d8882abf8cf18dd9906001600160a01b038a16906323e30c8b906107759033908c908c9088908d908d90600401610eb3565b6020604051808303815f875af1158015610791573d5f803e3d5ffd5b505050506040513d601f19601f820116820180604052508101906107b59190610f0d565b146107dd5760405162678c5b60e81b81526001600160a01b03891660048201526024016106fd565b5f6107f06006546001600160a01b031690565b90506108068930610801858b610f38565b61092f565b81158061081a57506001600160a01b038116155b15610837576108328961082d848a610f38565b610afd565b61084c565b6108418988610afd565b61084c8982846109a5565b50600198975050505050505050565b5f6001600160a01b0382163014610872575f61062f565b60025461062f905f19610f4b565b61088b838383610b2d565b505050565b61088b838383610922565b60606004805461059b90610e7b565b5f336106298185856109a5565b61088b83838361092f565b6108cc8282610ac9565b5050565b5f6001600160a01b038316301461090557604051635ad3edc960e11b81526001600160a01b03841660048201526024016106fd565b60055461063f565b6108cc8282610afd565b61088b8383836109a5565b61088b83838360016109f7565b6001600160a01b038381165f908152600160209081526040808320938616835292905220545f1981101561067a578181101561099757604051637dc7a0d960e11b81526001600160a01b038416600482015260248101829052604481018390526064016106fd565b61067a84848484035f6109f7565b6001600160a01b0383166109ce57604051634b637e8f60e11b81525f60048201526024016106fd565b6001600160a01b0382166108805760405163ec442f0560e01b81525f60048201526024016106fd565b6001600160a01b038416610a205760405163e602df0560e01b81525f60048201526024016106fd565b6001600160a01b038316610a4957604051634a1406b160e11b81525f60048201526024016106fd565b6001600160a01b038085165f908152600160209081526040808320938716835292905220829055801561067a57826001600160a01b0316846001600160a01b03167f8c5be1e5ebec7d5bd14f71427d1e84f3dd0314c0f7b2291e5b200ac8c7c3b92584604051610abb91815260200190565b60405180910390a350505050565b6001600160a01b038216610af25760405163ec442f0560e01b81525f60048201526024016106fd565b6108cc5f8383610b2d565b6001600160a01b038216610b2657604051634b637e8f60e11b81525f60048201526024016106fd565b6108cc825f835b6001600160a01b038316610b57578060025f828254610b4c9190610f38565b90915550610bc79050565b6001600160a01b0383165f9081526020819052604090205481811015610ba95760405163391434e360e21b81526001600160a01b038516600482015260248101829052604481018390526064016106fd565b6001600160a01b0384165f9081526020819052604090209082900390555b6001600160a01b038216610be357600280548290039055610c01565b6001600160a01b0382165f9081526020819052604090208054820190555b816001600160a01b0316836001600160a01b03167fddf252ad1be2c89b69c2b068fc378daa952ba7f163c4a11628f55a4df523b3ef83604051610c4691815260200190565b60405180910390a3505050565b5f81518084525f5b81811015610c7757602081850181015186830182015201610c5b565b505f602082860101526020601f19601f83011685010191505092915050565b602081525f61063f6020830184610c53565b6001600160a01b0381168114610cbc575f80fd5b50565b5f8060408385031215610cd0575f80fd5b8235610cdb81610ca8565b946020939093013593505050565b5f805f60608486031215610cfb575f80fd5b8335610d0681610ca8565b92506020840135610d1681610ca8565b929592945050506040919091013590565b5f805f8060808587031215610d3a575f80fd5b8435610d4581610ca8565b93506020850135610d5581610ca8565b92506040850135915060608501358015158114610d70575f80fd5b939692955090935050565b5f60208284031215610d8b575f80fd5b813561063f81610ca8565b5f805f805f60808688031215610daa575f80fd5b8535610db581610ca8565b94506020860135610dc581610ca8565b935060408601359250606086013567ffffffffffffffff80821115610de8575f80fd5b818801915088601f830112610dfb575f80fd5b813581811115610e09575f80fd5b896020828501011115610e1a575f80fd5b9699959850939650602001949392505050565b5f60208284031215610e3d575f80fd5b5035919050565b5f8060408385031215610e55575f80fd5b8235610e6081610ca8565b91506020830135610e7081610ca8565b809150509250929050565b600181811c90821680610e8f57607f821691505b602082108103610ead57634e487b7160e01b5f52602260045260245ffd5b50919050565b6001600160a01b03878116825286166020820152604081018590526060810184905260a06080820181905281018290525f828460c08401375f60c0848401015260c0601f19601f8501168301019050979650505050505050565b5f60208284031215610f1d575f80fd5b5051919050565b634e487b7160e01b5f52601160045260245ffd5b8082018082111561062f5761062f610f24565b8181038181111561062f5761062f610f2456fea26469706673582212206fc3b7fee8b17aa51be24ca5e14ef46c5530484a7f42d5aa5ced449f7228d7a064736f6c63430008180033",
  "linkReferences": {},
  "deployedLinkReferences": {}
}